{"abi":[{"type":"constructor","inputs":[],"stateMutability":"nonpayable"},{"type":"function","name":"CAVEAT_TYPEHASH","inputs":[],"outputs":[{"name":"","type":"bytes32","internalType":"bytes32"}],"stateMutability":"view"},{"type":"function","name":"DELEGATION_TYPEHASH","inputs":[],"outputs":[{"name":"","type":"bytes32","internalType":"bytes32"}],"stateMutability":"view"},{"type":"function","name":"DOMAIN_SEPARATOR","inputs":[],"outputs":[{"name":"","type":"bytes32","internalType":"bytes32"}],"stateMutability":"view"},{"type":"function","name":"OPEN_DELEGATION","inputs":[],"outputs":[{"name":"","type":"address","internalType":"address"}],"stateMutability":"view"},{"type":"function","name":"ROOT_AUTHORITY","inputs":[],"outputs":[{"name":"","type":"bytes32","internalType":"bytes32"}],"stateMutability":"view"},{"type":"function","name":"hashDelegation","inputs":[{"name":"d","type":"tuple","internalType":"struct IDelegationManager.Delegation","components":[{"name":"delegator","type":"address","internalType":"address"},{"name":"delegate","type":"address","internalType":"address"},{"name":"authority","type":"bytes32","internalType":"bytes32"},{"name":"caveats","type":"tuple[]","internalType":"struct IDelegationManager.Caveat[]","components":[{"name":"enforcer","type":"address","internalType":"address"},{"name":"terms","type":"bytes","internalType":"bytes"},{"name":"args","type":"bytes","internalType":"bytes"}]},{"name":"salt","type":"uint256","internalType":"uint256"},{"name":"signature","type":"bytes","internalType":"bytes"}]}],"outputs":[{"name":"","type":"bytes32","internalType":"bytes32"}],"stateMutability":"view"},{"type":"function","name":"isRevoked","inputs":[{"name":"delegationHash","type":"bytes32","internalType":"bytes32"}],"outputs":[{"name":"","type":"bool","internalType":"bool"}],"stateMutability":"view"},{"type":"function","name":"redeemDelegation","inputs":[{"name":"delegations","type":"tuple[]","internalType":"struct IDelegationManager.Delegation[]","components":[{"name":"delegator","type":"address","internalType":"address"},{"name":"delegate","type":"address","internalType":"address"},{"name":"authority","type":"bytes32","internalType":"bytes32"},{"name":"caveats","type":"tuple[]","internalType":"struct IDelegationManager.Caveat[]","components":[{"name":"enforcer","type":"address","internalType":"address"},{"name":"terms","type":"bytes","internalType":"bytes"},{"name":"args","type":"bytes","internalType":"bytes"}]},{"name":"salt","type":"uint256","internalType":"uint256"},{"name":"signature","type":"bytes","internalType":"bytes"}]},{"name":"target","type":"address","internalType":"address"},{"name":"value","type":"uint256","internalType":"uint256"},{"name":"data","type":"bytes","internalType":"bytes"}],"outputs":[],"stateMutability":"nonpayable"},{"type":"function","name":"revokeDelegation","inputs":[{"name":"delegationHash","type":"bytes32","internalType":"bytes32"}],"outputs":[],"stateMutability":"nonpayable"},{"type":"event","name":"DelegationRedeemed","inputs":[{"name":"delegationHash","type":"bytes32","indexed":true,"internalType":"bytes32"},{"name":"delegator","type":"address","indexed":true,"internalType":"address"},{"name":"delegate","type":"address","indexed":true,"internalType":"address"}],"anonymous":false},{"type":"event","name":"DelegationRevoked","inputs":[{"name":"delegationHash","type":"bytes32","indexed":true,"internalType":"bytes32"}],"anonymous":false},{"type":"error","name":"DelegationRevoked_","inputs":[]},{"type":"error","name":"ECDSAInvalidSignature","inputs":[]},{"type":"error","name":"ECDSAInvalidSignatureLength","inputs":[{"name":"length","type":"uint256","internalType":"uint256"}]},{"type":"error","name":"ECDSAInvalidSignatureS","inputs":[{"name":"s","type":"bytes32","internalType":"bytes32"}]},{"type":"error","name":"EmptyChain","inputs":[]},{"type":"error","name":"ExecutionFailed","inputs":[]},{"type":"error","name":"InvalidAuthority","inputs":[]},{"type":"error","name":"InvalidDelegate","inputs":[]},{"type":"error","name":"InvalidSignature","inputs":[]},{"type":"error","name":"OnlyDelegator","inputs":[]}],"bytecode":{"object":"0x60a0346100d857602081017f8b73c3c69bb8fe3d512ecc4cf759cc79239f7b179b0ffacaa9a75d522b39400f81527f2d31da195489f315b55fd2cee53966acc750e89b127d5b183c7c0c0b00104cac60408301527fc89efdaa54c0f20c7adf612882df0950f5a951637e0307cdcb4c672f298b8bc660608301524660808301523060a083015260a0825260c082019180831060018060401b038411176100c45782604052519020608052610f6e90816100dd823960805181818160e401526107960152f35b634e487b7160e01b5f52604160045260245ffd5b5f80fdfe60806040526004361015610011575f80fd5b5f3560e01c80631b13cac2146100a45780633644e5151461009f5780634294857f1461009a5780637ced8f5314610095578063a80dc83914610090578063b96f2b071461008b578063c244e81114610086578063c66f5775146100815763e7a324dc1461007c575f80fd5b610306565b6102cc565b610285565b61023b565b61021f565b61018f565b610119565b6100cd565b346100bf575f3660031901126100bf575f1960805260206080f35b5f80fd5b5f9103126100bf57565b346100bf575f3660031901126100bf5760206040517f00000000000000000000000000000000000000000000000000000000000000008152f35b60209060031901126100bf5760043590565b346100bf5761012736610107565b5f525f602052602060ff60405f2054166040519015158152f35b6001600160a01b038116036100bf57565b6024359061015f82610141565b565b9181601f840112156100bf5782359167ffffffffffffffff83116100bf57602083818601950101116100bf57565b346100bf5760803660031901126100bf5760043567ffffffffffffffff81116100bf57366023820112156100bf5780600401359067ffffffffffffffff82116100bf573660248360051b830101116100bf576101e9610152565b906044356064359267ffffffffffffffff84116100bf5761021d946102146024953690600401610161565b959094016103bb565b005b346100bf575f3660031901126100bf576020604051610a118152f35b346100bf5761024936610107565b805f525f60205260405f20600160ff198254161790557f6eb24ce38eb0f7d1e3b4291d5543c7286f02be3daed061b0f7eb6491213deb215f80a2005b346100bf5760203660031901126100bf5760043567ffffffffffffffff81116100bf5760c060031982360301126100bf576102c46020916004016106b0565b604051908152f35b346100bf575f3660031901126100bf5760206040517f80ad7e1b04ee6d994a125f4714ca0720908bd80ed16063ec8aee4b88e9253e2d8152f35b346100bf575f3660031901126100bf5760206040517fac5469bad161df7c56017782e0a87a91008dbe46dacd5eb42e48e7f4b4fc4e398152f35b634e487b7160e01b5f52603260045260245ffd5b91908110156103765760051b8101359060be19813603018212156100bf570190565b610340565b634e487b7160e01b5f52601160045260245ffd5b5f1981019190821161039d57565b61037b565b356103ac81610141565b90565b801561039d575f190190565b9594929093918415610630575f5b85811061043357506103f9848484846103f46103ef8d8c6103e98161038f565b91610354565b6103a2565b610a7c565b84805b61040a575050505050509050565b80610428868686866104238e8d6103e961042d9a61038f565b610b1b565b6103af565b806103fc565b61043e81878a610354565b90610448826106b0565b9161046461045d845f525f60205260405f2090565b5460ff1690565b61062157816105b15760208101610a116001600160a01b03610485836103a2565b1614159081610595575b50610586578585858a8d8b955b604081013560018101610538575b50610532969594939261052d92828b6104de60019d6104c98e976103a2565b6104d660a0860186610882565b929091610cd0565b6104e7826103a2565b916104fa60208f8060a01b0392016103a2565b16918d8060a01b0316907f021c7c160a94ec8a04c191a1ccaa4ff1fb3c5b6ca6f712cfe724d496cc0b1e3a5f80a4610354565b61096e565b016103c9565b955095505091505061054984610874565b1015610577576105656105608c8b6103e987610874565b6106b0565b03610577578585858a8d8b955f6104aa565b636f6a1b8760e11b5f5260045ffd5b632d618d8160e21b5f5260045ffd5b61059f91506103a2565b6001600160a01b03163314155f61048f565b60208101610a116001600160a01b036105c9836103a2565b16141590816105e4575b50610586578585858a8d8b9561049c565b6105ee91506103a2565b61060e6106026103ef8d8c6103e98861038f565b6001600160a01b031690565b6001600160a01b0390911614155f6105d3565b634650b30d60e01b5f5260045ffd5b630b1bc1e560e21b5f5260045ffd5b903590601e19813603018212156100bf570180359067ffffffffffffffff82116100bf57602001918160051b360383136100bf57565b634e487b7160e01b5f52604160045260245ffd5b90601f8019910116810190811067ffffffffffffffff8211176106ab57604052565b610675565b6106bd606082018261063f565b6106c681610bf0565b915f5b8281106107d5575050506040516106f6816106e8602082018095610c6c565b03601f198101835282610689565b51902090610781610706826103a2565b926106e8610716602085016103a2565b604080517fac5469bad161df7c56017782e0a87a91008dbe46dacd5eb42e48e7f4b4fc4e39602082019081526001600160a01b039889168284015297909216606083015285013560808281019190915260a0820193909352939091013560c0840152829060e0820190565b51902060405161190160f01b602082019081527f0000000000000000000000000000000000000000000000000000000000000000602283015260428201929092526107cf81606281016106e8565b51902090565b806107e66103ef60019386866108b5565b6106e861086061080e6108076107fd868a8a6108b5565b6020810190610882565b3691610c22565b8051602091820120604080517f80ad7e1b04ee6d994a125f4714ca0720908bd80ed16063ec8aee4b88e9253e2d9381019384526001600160a01b03909616908601526060850152929182906080820190565b51902061086d8287610c58565b52016106c9565b906001820180921161039d57565b903590601e19813603018212156100bf570180359067ffffffffffffffff82116100bf576020019181360383136100bf57565b91908110156103765760051b81013590605e19813603018212156100bf570190565b908060209392818452848401375f828201840152601f01601f1916010190565b969361091c6103ac9c9a97949261092a949c9a979c6101008b526101008b01916108d7565b9188830360208a01526108d7565b60408601989098526001600160a01b03908116606086015290811660808501521660a083015260c082015280840360e0909101526108d7565b6040513d5f823e3d90fd5b9092919461097b826106b0565b955f5b6060840161098c818661063f565b9050821015610a55576109be9190856109dd6109d3846109ca6107fd8289886109c4610602806103ef8686868f61063f565b906108b5565b9861063f565b9790958b61063f565b6040810190610882565b91906109e8896103a2565b823b156100bf578d96610a1c8e8d8f8c905f9a8b976040519e8f9c8d9b8c9a6350a1175b60e11b8c52339560048d016108f7565b03925af1918215610a5057600192610a36575b500161097e565b80610a445f610a4a93610689565b806100c3565b5f610a2f565b610963565b505050945050505050565b67ffffffffffffffff81116106ab57601f01601f191660200190565b915f94610ac28695926106e887946040519485936020850198635b0e93fb60e11b8a5260018060a01b0316602486015260448501526060606485015260848401916108d7565b51925af13d15610b13573d90610ad782610a60565b91610ae56040519384610689565b82523d5f602084013e5b15610af75750565b80519081610b0e57632b3f6d1160e21b5f5260045ffd5b602001fd5b606090610aef565b90929194610b28826106b0565b955f5b60608401610b39818661063f565b9050821015610a55576109be919085610b6b6109d3846109ca6107fd8289886109c4610602806103ef8686868f61063f565b9190610b76896103a2565b823b156100bf578d96610baa8e8d8f8c905f9a8b976040519e8f9c8d9b8c9a63d3128e3d60e01b8c52339560048d016108f7565b03925af1918215610a5057600192610bc4575b5001610b2b565b80610a445f610bd293610689565b5f610bbd565b67ffffffffffffffff81116106ab5760051b60200190565b90610bfa82610bd8565b610c076040519182610689565b8281528092610c18601f1991610bd8565b0190602036910137565b929192610c2e82610a60565b91610c3c6040519384610689565b8294818452818301116100bf578281602093845f960137010152565b80518210156103765760209160051b010190565b80516020909101905f5b818110610c835750505090565b8251845260209384019390920191600101610c76565b908160209103126100bf57516001600160e01b0319811681036100bf5790565b6040906103ac9492815281602082015201916108d7565b919290823b610d4357610d209293610d12610d1a927f19457468657265756d205369676e6564204d6573736167653a0a3332000000005f52601c52603c5f2090565b923691610c22565b90610dcc565b6001600160a01b03918216911603610d3457565b638baa579f60e01b5f5260045ffd5b91610d689360209360405195869485938493630b135d3f60e11b855260048501610cb9565b03916001600160a01b03165afa908115610a50575f91610d9d575b506001600160e01b0319166374eca2c160e11b01610d3457565b610dbf915060203d602011610dc5575b610db78183610689565b810190610c99565b5f610d83565b503d610dad565b6103ac91610dd991610de2565b90929192610e3a565b8151919060418303610e1257610e0b9250602082015190606060408401519301515f1a90610eb6565b9192909190565b50505f9160029190565b60041115610e2657565b634e487b7160e01b5f52602160045260245ffd5b610e4381610e1c565b80610e4c575050565b610e5581610e1c565b60018103610e6c5763f645eedf60e01b5f5260045ffd5b610e7581610e1c565b60028103610e90575063fce698f760e01b5f5260045260245ffd5b80610e9c600392610e1c565b14610ea45750565b6335e2f38360e21b5f5260045260245ffd5b91907f7fffffffffffffffffffffffffffffff5d576e7357a4501ddfe92f46681b20a08411610f2d579160209360809260ff5f9560405194855216868401526040830152606082015282805260015afa15610a50575f516001600160a01b03811615610f2357905f905f90565b505f906001905f90565b5050505f916003919056fea26469706673582212202e433abf5c52880b9570da33342eaf1e1748987a52b969b2daf7fa4b9488f66964736f6c634300081c0033","linkReferences":{}},"methodIdentifiers":{"CAVEAT_TYPEHASH()":"c66f5775","DELEGATION_TYPEHASH()":"e7a324dc","DOMAIN_SEPARATOR()":"3644e515","OPEN_DELEGATION()":"a80dc839","ROOT_AUTHORITY()":"1b13cac2","hashDelegation((address,address,bytes32,(address,bytes,bytes)[],uint256,bytes))":"c244e811","isRevoked(bytes32)":"4294857f","redeemDelegation((address,address,bytes32,(address,bytes,bytes)[],uint256,bytes)[],address,uint256,bytes)":"7ced8f53","revokeDelegation(bytes32)":"b96f2b07"},"id":75}