{"abi":[{"type":"constructor","inputs":[],"stateMutability":"nonpayable"},{"type":"function","name":"CAVEAT_TYPEHASH","inputs":[],"outputs":[{"name":"","type":"bytes32","internalType":"bytes32"}],"stateMutability":"view"},{"type":"function","name":"DELEGATION_TYPEHASH","inputs":[],"outputs":[{"name":"","type":"bytes32","internalType":"bytes32"}],"stateMutability":"view"},{"type":"function","name":"DOMAIN_SEPARATOR","inputs":[],"outputs":[{"name":"","type":"bytes32","internalType":"bytes32"}],"stateMutability":"view"},{"type":"function","name":"ROOT_AUTHORITY","inputs":[],"outputs":[{"name":"","type":"bytes32","internalType":"bytes32"}],"stateMutability":"view"},{"type":"function","name":"hashDelegation","inputs":[{"name":"d","type":"tuple","internalType":"struct IDelegationManager.Delegation","components":[{"name":"delegator","type":"address","internalType":"address"},{"name":"delegate","type":"address","internalType":"address"},{"name":"authority","type":"bytes32","internalType":"bytes32"},{"name":"caveats","type":"tuple[]","internalType":"struct IDelegationManager.Caveat[]","components":[{"name":"enforcer","type":"address","internalType":"address"},{"name":"terms","type":"bytes","internalType":"bytes"}]},{"name":"salt","type":"uint256","internalType":"uint256"},{"name":"signature","type":"bytes","internalType":"bytes"}]}],"outputs":[{"name":"","type":"bytes32","internalType":"bytes32"}],"stateMutability":"view"},{"type":"function","name":"isRevoked","inputs":[{"name":"delegationHash","type":"bytes32","internalType":"bytes32"}],"outputs":[{"name":"","type":"bool","internalType":"bool"}],"stateMutability":"view"},{"type":"function","name":"redeemDelegation","inputs":[{"name":"delegations","type":"tuple[]","internalType":"struct IDelegationManager.Delegation[]","components":[{"name":"delegator","type":"address","internalType":"address"},{"name":"delegate","type":"address","internalType":"address"},{"name":"authority","type":"bytes32","internalType":"bytes32"},{"name":"caveats","type":"tuple[]","internalType":"struct IDelegationManager.Caveat[]","components":[{"name":"enforcer","type":"address","internalType":"address"},{"name":"terms","type":"bytes","internalType":"bytes"}]},{"name":"salt","type":"uint256","internalType":"uint256"},{"name":"signature","type":"bytes","internalType":"bytes"}]},{"name":"target","type":"address","internalType":"address"},{"name":"value","type":"uint256","internalType":"uint256"},{"name":"data","type":"bytes","internalType":"bytes"}],"outputs":[],"stateMutability":"nonpayable"},{"type":"function","name":"revokeDelegation","inputs":[{"name":"delegationHash","type":"bytes32","internalType":"bytes32"}],"outputs":[],"stateMutability":"nonpayable"},{"type":"event","name":"DelegationRedeemed","inputs":[{"name":"delegationHash","type":"bytes32","indexed":true,"internalType":"bytes32"},{"name":"delegator","type":"address","indexed":true,"internalType":"address"},{"name":"delegate","type":"address","indexed":true,"internalType":"address"}],"anonymous":false},{"type":"event","name":"DelegationRevoked","inputs":[{"name":"delegationHash","type":"bytes32","indexed":true,"internalType":"bytes32"}],"anonymous":false},{"type":"error","name":"CaveatViolation","inputs":[{"name":"enforcer","type":"address","internalType":"address"}]},{"type":"error","name":"DelegationRevoked_","inputs":[]},{"type":"error","name":"ECDSAInvalidSignature","inputs":[]},{"type":"error","name":"ECDSAInvalidSignatureLength","inputs":[{"name":"length","type":"uint256","internalType":"uint256"}]},{"type":"error","name":"ECDSAInvalidSignatureS","inputs":[{"name":"s","type":"bytes32","internalType":"bytes32"}]},{"type":"error","name":"ExecutionFailed","inputs":[]},{"type":"error","name":"InvalidAuthority","inputs":[]},{"type":"error","name":"InvalidSignature","inputs":[]},{"type":"error","name":"OnlyDelegator","inputs":[]}],"bytecode":{"object":"0x60a0346100d957602081017f8b73c3c69bb8fe3d512ecc4cf759cc79239f7b179b0ffacaa9a75d522b39400f81527f2d31da195489f315b55fd2cee53966acc750e89b127d5b183c7c0c0b00104cac60408301527fc89efdaa54c0f20c7adf612882df0950f5a951637e0307cdcb4c672f298b8bc660608301524660808301523060a083015260a0825260c082019180831060018060401b038411176100c55782604052519020608052610bc790816100de82396080518181816101c801526107f60152f35b634e487b7160e01b5f52604160045260245ffd5b5f80fdfe6080806040526004361015610012575f80fd5b5f3560e01c9081631b13cac214610583575080631f27e9f1146101eb5780633644e515146101b15780634294857f1461018357806379e759271461013c578063b96f2b07146100ec578063c66f5775146100b25763e7a324dc14610074575f80fd5b346100ae575f3660031901126100ae5760206040517fac5469bad161df7c56017782e0a87a91008dbe46dacd5eb42e48e7f4b4fc4e398152f35b5f80fd5b346100ae575f3660031901126100ae5760206040517f80ad7e1b04ee6d994a125f4714ca0720908bd80ed16063ec8aee4b88e9253e2d8152f35b346100ae5760203660031901126100ae57600435805f525f60205260405f20600160ff198254161790557f6eb24ce38eb0f7d1e3b4291d5543c7286f02be3daed061b0f7eb6491213deb215f80a2005b346100ae5760203660031901126100ae5760043567ffffffffffffffff81116100ae5760c060031982360301126100ae5761017b6020916004016106e3565b604051908152f35b346100ae5760203660031901126100ae576004355f525f602052602060ff60405f2054166040519015158152f35b346100ae575f3660031901126100ae5760206040517f00000000000000000000000000000000000000000000000000000000000000008152f35b346100ae5760803660031901126100ae5760043567ffffffffffffffff81116100ae57366023820112156100ae57806004013567ffffffffffffffff81116100ae576024820191602436918360051b0101116100ae576024356001600160a01b0381168082036100ae5760443560643567ffffffffffffffff81116100ae57366023820112156100ae5780600401359267ffffffffffffffff84116100ae57602482019160248536920101116100ae575f5b8681106103325750505f1985019480861161031e576102c35f97966102c892899861059c565b6105d2565b50826040519384928337810185815203925af13d15610319573d6102eb816106c7565b906102f96040519283610671565b81525f60203d92013e5b1561030a57005b632b3f6d1160e21b5f5260045ffd5b610303565b634e487b7160e01b5f52601160045260245ffd5b61034581888a999497999895969861059c565b9161034f836106e3565b98895f525f60205260ff60405f205416610574578215610520575b61038f8a61037a869794976105d2565b61038760a08801886105e6565b929091610927565b60608401945f5b6103a08787610619565b90508110156104c2578a8a60206104118c8c6103c6876103c08f8f610619565b9061064f565b956104336001600160a01b036103db896105d2565b16936103e9878a018a6105e6565b60405163169b36d960e21b815260a06004820152998a988997889794909360a48901916106a7565b93336024880152604487015260648601526003198584030160848601526106a7565b03915afa9081156104b7575f9161047d575b50156104545750600101610396565b61045d906105d2565b63154e837d60e21b5f9081526001600160a01b0391909116600452602490fd5b90506020813d82116104af575b8161049760209383610671565b810103126100ae575180151581036100ae578e610445565b3d915061048a565b6040513d5f823e3d90fd5b50989693909960019392989695506104d9826105d2565b916104ec6020868060a01b0392016105d2565b1691848060a01b0316907f021c7c160a94ec8a04c191a1ccaa4ff1fb3c5b6ca6f712cfe724d496cc0b1e3a5f80a40161029d565b604084013560018101610534575b5061036a565b6001840180851161031e57838110156105655761055561055a91858561059c565b6106e3565b03610565578a61052e565b636f6a1b8760e11b5f5260045ffd5b634650b30d60e01b5f5260045ffd5b346100ae575f3660031901126100ae575f198152602090f35b91908110156105be5760051b8101359060be19813603018212156100ae570190565b634e487b7160e01b5f52603260045260245ffd5b356001600160a01b03811681036100ae5790565b903590601e19813603018212156100ae570180359067ffffffffffffffff82116100ae576020019181360383136100ae57565b903590601e19813603018212156100ae570180359067ffffffffffffffff82116100ae57602001918160051b360383136100ae57565b91908110156105be5760051b81013590603e19813603018212156100ae570190565b90601f8019910116810190811067ffffffffffffffff82111761069357604052565b634e487b7160e01b5f52604160045260245ffd5b908060209392818452848401375f828201840152601f01601f1916010190565b67ffffffffffffffff811161069357601f01601f191660200190565b6106f06060820182610619565b906106fa82610a49565b916107086040519384610671565b80835261071481610a49565b602084019290601f19013684375f5b82811061084d57505050604051908160208101918294519290925f5b81811061083457505061075b925003601f198101835282610671565b5190206080610769836105d2565b92610776602082016105d2565b926040519360208501957fac5469bad161df7c56017782e0a87a91008dbe46dacd5eb42e48e7f4b4fc4e39875260018060a01b0316604086015260018060a01b0316606085015260408201358385015260a0840152013560c082015260c081526107e160e082610671565b519020604051602081019161190160f01b83527f0000000000000000000000000000000000000000000000000000000000000000602283015260428201526042815261082e606282610671565b51902090565b845183526020948501948694509092019160010161073f565b61085b6102c382858561064f565b61087d61087661086c84878761064f565b60208101906105e6565b36916108f1565b602081519101206040519060208201927f80ad7e1b04ee6d994a125f4714ca0720908bd80ed16063ec8aee4b88e9253e2d845260018060a01b031660408301526060820152606081526108d1608082610671565b5190209085518110156105be5760019160208260051b8801015201610723565b9291926108fd826106c7565b9161090b6040519384610671565b8294818452818301116100ae578281602093845f960137010152565b9190823b61099f579261096d6109739261097c957f19457468657265756d205369676e6564204d6573736167653a0a3332000000005f52601c52603c5f209236916108f1565b90610a61565b90939193610a9b565b6001600160a01b0390811691160361099057565b638baa579f60e01b5f5260045ffd5b916109d19360209360405195869485938493630b135d3f60e11b855260048501526040602485015260448401916106a7565b03916001600160a01b03165afa9081156104b7575f91610a06575b506001600160e01b0319166374eca2c160e11b0161099057565b90506020813d602011610a41575b81610a2160209383610671565b810103126100ae57516001600160e01b0319811681036100ae575f6109ec565b3d9150610a14565b67ffffffffffffffff81116106935760051b60200190565b8151919060418303610a9157610a8a9250602082015190606060408401519301515f1a90610b0f565b9192909190565b50505f9160029190565b6004811015610afb5780610aad575050565b60018103610ac45763f645eedf60e01b5f5260045ffd5b60028103610adf575063fce698f760e01b5f5260045260245ffd5b600314610ae95750565b6335e2f38360e21b5f5260045260245ffd5b634e487b7160e01b5f52602160045260245ffd5b91907f7fffffffffffffffffffffffffffffff5d576e7357a4501ddfe92f46681b20a08411610b86579160209360809260ff5f9560405194855216868401526040830152606082015282805260015afa156104b7575f516001600160a01b03811615610b7c57905f905f90565b505f906001905f90565b5050505f916003919056fea26469706673582212206dd2e8e49e80a57b24d9206822509be9c9ece565b7fabbba61adb33ebb07a3ef64736f6c634300081c0033","linkReferences":{}},"methodIdentifiers":{"CAVEAT_TYPEHASH()":"c66f5775","DELEGATION_TYPEHASH()":"e7a324dc","DOMAIN_SEPARATOR()":"3644e515","ROOT_AUTHORITY()":"1b13cac2","hashDelegation((address,address,bytes32,(address,bytes)[],uint256,bytes))":"79e75927","isRevoked(bytes32)":"4294857f","redeemDelegation((address,address,bytes32,(address,bytes)[],uint256,bytes)[],address,uint256,bytes)":"1f27e9f1","revokeDelegation(bytes32)":"b96f2b07"},"id":69}