{"abi":[{"type":"constructor","inputs":[],"stateMutability":"nonpayable"},{"type":"function","name":"CAVEAT_TYPEHASH","inputs":[],"outputs":[{"name":"","type":"bytes32","internalType":"bytes32"}],"stateMutability":"view"},{"type":"function","name":"DELEGATION_TYPEHASH","inputs":[],"outputs":[{"name":"","type":"bytes32","internalType":"bytes32"}],"stateMutability":"view"},{"type":"function","name":"DOMAIN_SEPARATOR","inputs":[],"outputs":[{"name":"","type":"bytes32","internalType":"bytes32"}],"stateMutability":"view"},{"type":"function","name":"ROOT_AUTHORITY","inputs":[],"outputs":[{"name":"","type":"bytes32","internalType":"bytes32"}],"stateMutability":"view"},{"type":"function","name":"hashDelegation","inputs":[{"name":"d","type":"tuple","internalType":"struct IDelegationManager.Delegation","components":[{"name":"delegator","type":"address","internalType":"address"},{"name":"delegate","type":"address","internalType":"address"},{"name":"authority","type":"bytes32","internalType":"bytes32"},{"name":"caveats","type":"tuple[]","internalType":"struct IDelegationManager.Caveat[]","components":[{"name":"enforcer","type":"address","internalType":"address"},{"name":"terms","type":"bytes","internalType":"bytes"}]},{"name":"salt","type":"uint256","internalType":"uint256"},{"name":"signature","type":"bytes","internalType":"bytes"}]}],"outputs":[{"name":"","type":"bytes32","internalType":"bytes32"}],"stateMutability":"view"},{"type":"function","name":"isRevoked","inputs":[{"name":"delegationHash","type":"bytes32","internalType":"bytes32"}],"outputs":[{"name":"","type":"bool","internalType":"bool"}],"stateMutability":"view"},{"type":"function","name":"redeemDelegation","inputs":[{"name":"delegations","type":"tuple[]","internalType":"struct IDelegationManager.Delegation[]","components":[{"name":"delegator","type":"address","internalType":"address"},{"name":"delegate","type":"address","internalType":"address"},{"name":"authority","type":"bytes32","internalType":"bytes32"},{"name":"caveats","type":"tuple[]","internalType":"struct IDelegationManager.Caveat[]","components":[{"name":"enforcer","type":"address","internalType":"address"},{"name":"terms","type":"bytes","internalType":"bytes"}]},{"name":"salt","type":"uint256","internalType":"uint256"},{"name":"signature","type":"bytes","internalType":"bytes"}]},{"name":"target","type":"address","internalType":"address"},{"name":"value","type":"uint256","internalType":"uint256"},{"name":"data","type":"bytes","internalType":"bytes"}],"outputs":[],"stateMutability":"nonpayable"},{"type":"function","name":"revokeDelegation","inputs":[{"name":"delegationHash","type":"bytes32","internalType":"bytes32"}],"outputs":[],"stateMutability":"nonpayable"},{"type":"event","name":"DelegationRedeemed","inputs":[{"name":"delegationHash","type":"bytes32","indexed":true,"internalType":"bytes32"},{"name":"delegator","type":"address","indexed":true,"internalType":"address"},{"name":"delegate","type":"address","indexed":true,"internalType":"address"}],"anonymous":false},{"type":"event","name":"DelegationRevoked","inputs":[{"name":"delegationHash","type":"bytes32","indexed":true,"internalType":"bytes32"}],"anonymous":false},{"type":"error","name":"CaveatViolation","inputs":[{"name":"enforcer","type":"address","internalType":"address"}]},{"type":"error","name":"DelegationRevoked_","inputs":[]},{"type":"error","name":"ECDSAInvalidSignature","inputs":[]},{"type":"error","name":"ECDSAInvalidSignatureLength","inputs":[{"name":"length","type":"uint256","internalType":"uint256"}]},{"type":"error","name":"ECDSAInvalidSignatureS","inputs":[{"name":"s","type":"bytes32","internalType":"bytes32"}]},{"type":"error","name":"ExecutionFailed","inputs":[]},{"type":"error","name":"InvalidAuthority","inputs":[]},{"type":"error","name":"InvalidSignature","inputs":[]},{"type":"error","name":"OnlyDelegator","inputs":[]}],"bytecode":{"object":"0x60a060405234801561000f575f5ffd5b50604080517f8b73c3c69bb8fe3d512ecc4cf759cc79239f7b179b0ffacaa9a75d522b39400f60208201527f2d31da195489f315b55fd2cee53966acc750e89b127d5b183c7c0c0b00104cac918101919091527fc89efdaa54c0f20c7adf612882df0950f5a951637e0307cdcb4c672f298b8bc660608201524660808201523060a082015260c00160408051601f198184030181529190528051602090910120608052608051610f416100d05f395f818160be01526105bc0152610f415ff3fe608060405234801561000f575f5ffd5b5060043610610085575f3560e01c806379e759271161005857806379e7592714610112578063b96f2b0714610125578063c66f577514610138578063e7a324dc1461015f575f5ffd5b80631b13cac2146100895780631f27e9f1146100a45780633644e515146100b95780634294857f146100e0575b5f5ffd5b6100915f1981565b6040519081526020015b60405180910390f35b6100b76100b2366004610b8d565b610186565b005b6100917f000000000000000000000000000000000000000000000000000000000000000081565b6101026100ee366004610c46565b5f9081526020819052604090205460ff1690565b604051901515815260200161009b565b610091610120366004610c5d565b6104fc565b6100b7610133366004610c46565b61060b565b6100917f80ad7e1b04ee6d994a125f4714ca0720908bd80ed16063ec8aee4b88e9253e2d81565b6100917fac5469bad161df7c56017782e0a87a91008dbe46dacd5eb42e48e7f4b4fc4e3981565b5f5b8581101561043557368787838181106101a3576101a3610c9b565b90506020028101906101b59190610caf565b90505f6101c1826104fc565b5f8181526020819052604090205490915060ff16156101f357604051634650b30d60e01b815260040160405180910390fd5b825f0361028a5760408201355f191461028a5787610212846001610ce1565b1061023057604051636f6a1b8760e11b815260040160405180910390fd5b5f6102628a8a610241876001610ce1565b81811061025057610250610c9b565b90506020028101906101209190610caf565b90508083604001351461028857604051636f6a1b8760e11b815260040160405180910390fd5b505b6102ad61029a6020840184610cf4565b826102a860a0860186610d0d565b61064d565b5f5b6102bc6060840184610d50565b90508110156103ce57366102d36060850185610d50565b838181106102e3576102e3610c9b565b90506020028101906102f59190610d96565b90505f6103056020830183610cf4565b6001600160a01b0316635a6cdb646103206020850185610d0d565b338e8e8e8e6040518863ffffffff1660e01b81526004016103479796959493929190610dd2565b602060405180830381865afa158015610362573d5f5f3e3d5ffd5b505050506040513d601f19601f820116820180604052508101906103869190610e24565b9050806103c45761039a6020830183610cf4565b60405163154e837d60e21b81526001600160a01b0390911660048201526024015b60405180910390fd5b50506001016102af565b506103df6040830160208401610cf4565b6001600160a01b03166103f56020840184610cf4565b6001600160a01b0316827f021c7c160a94ec8a04c191a1ccaa4ff1fb3c5b6ca6f712cfe724d496cc0b1e3a60405160405180910390a45050600101610188565b505f8686610444600182610e43565b81811061045357610453610c9b565b90506020028101906104659190610caf565b610473906020810190610cf4565b90505f856001600160a01b0316858585604051610491929190610e56565b5f6040518083038185875af1925050503d805f81146104cb576040519150601f19603f3d011682016040523d82523d5f602084013e6104d0565b606091505b50509050806104f257604051632b3f6d1160e21b815260040160405180910390fd5b5050505050505050565b5f8061051361050e6060850185610d50565b6107b6565b90505f7fac5469bad161df7c56017782e0a87a91008dbe46dacd5eb42e48e7f4b4fc4e396105446020860186610cf4565b6105546040870160208801610cf4565b6040805160208101949094526001600160a01b03928316848201529116606083015285013560808281019190915260a0820184905285013560c082015260e00160408051601f1981840301815290829052805160209182012061190160f01b918301919091527f000000000000000000000000000000000000000000000000000000000000000060228301526042820181905291506062016040516020818303038152906040528051906020012092505050919050565b5f81815260208190526040808220805460ff191660011790555182917f6eb24ce38eb0f7d1e3b4291d5543c7286f02be3daed061b0f7eb6491213deb2191a250565b6001600160a01b0384163b1561070757604051630b135d3f60e11b81525f906001600160a01b03861690631626ba7e9061068f90879087908790600401610e65565b602060405180830381865afa1580156106aa573d5f5f3e3d5ffd5b505050506040513d601f19601f820116820180604052508101906106ce9190610e87565b90506001600160e01b03198116630b135d3f60e11b1461070157604051638baa579f60e01b815260040160405180910390fd5b506107b0565b7f19457468657265756d205369676e6564204d6573736167653a0a3332000000005f908152601c849052603c812090505f61077984848080601f0160208091040260200160405190810160405280939291908181526020018383808284375f9201919091525086939250506109389050565b9050856001600160a01b0316816001600160a01b0316146107ad57604051638baa579f60e01b815260040160405180910390fd5b50505b50505050565b5f808267ffffffffffffffff8111156107d1576107d1610eae565b6040519080825280602002602001820160405280156107fa578160200160208202803683370190505b5090505f5b83811015610906577f80ad7e1b04ee6d994a125f4714ca0720908bd80ed16063ec8aee4b88e9253e2d85858381811061083a5761083a610c9b565b905060200281019061084c9190610d96565b61085a906020810190610cf4565b86868481811061086c5761086c610c9b565b905060200281019061087e9190610d96565b61088c906020810190610d0d565b60405161089a929190610e56565b6040519081900381206108cb9392916020019283526001600160a01b03919091166020830152604082015260600190565b604051602081830303815290604052805190602001208282815181106108f3576108f3610c9b565b60209081029190910101526001016107ff565b50806040516020016109189190610ec2565b604051602081830303815290604052805190602001209150505b92915050565b5f5f5f5f6109468686610960565b92509250925061095682826109a9565b5090949350505050565b5f5f5f8351604103610997576020840151604085015160608601515f1a61098988828585610a65565b9550955095505050506109a2565b505081515f91506002905b9250925092565b5f8260038111156109bc576109bc610ef7565b036109c5575050565b60018260038111156109d9576109d9610ef7565b036109f75760405163f645eedf60e01b815260040160405180910390fd5b6002826003811115610a0b57610a0b610ef7565b03610a2c5760405163fce698f760e01b8152600481018290526024016103bb565b6003826003811115610a4057610a40610ef7565b03610a61576040516335e2f38360e21b8152600481018290526024016103bb565b5050565b5f80807f7fffffffffffffffffffffffffffffff5d576e7357a4501ddfe92f46681b20a0841115610a9e57505f91506003905082610b23565b604080515f808252602082018084528a905260ff891692820192909252606081018790526080810186905260019060a0016020604051602081039080840390855afa158015610aef573d5f5f3e3d5ffd5b5050604051601f1901519150506001600160a01b038116610b1a57505f925060019150829050610b23565b92505f91508190505b9450945094915050565b80356001600160a01b0381168114610b43575f5ffd5b919050565b5f5f83601f840112610b58575f5ffd5b50813567ffffffffffffffff811115610b6f575f5ffd5b602083019150836020828501011115610b86575f5ffd5b9250929050565b5f5f5f5f5f5f60808789031215610ba2575f5ffd5b863567ffffffffffffffff811115610bb8575f5ffd5b8701601f81018913610bc8575f5ffd5b803567ffffffffffffffff811115610bde575f5ffd5b8960208260051b8401011115610bf2575f5ffd5b602091820197509550610c06908801610b2d565b935060408701359250606087013567ffffffffffffffff811115610c28575f5ffd5b610c3489828a01610b48565b979a9699509497509295939492505050565b5f60208284031215610c56575f5ffd5b5035919050565b5f60208284031215610c6d575f5ffd5b813567ffffffffffffffff811115610c83575f5ffd5b820160c08185031215610c94575f5ffd5b9392505050565b634e487b7160e01b5f52603260045260245ffd5b5f823560be19833603018112610cc3575f5ffd5b9190910192915050565b634e487b7160e01b5f52601160045260245ffd5b8082018082111561093257610932610ccd565b5f60208284031215610d04575f5ffd5b610c9482610b2d565b5f5f8335601e19843603018112610d22575f5ffd5b83018035915067ffffffffffffffff821115610d3c575f5ffd5b602001915036819003821315610b86575f5ffd5b5f5f8335601e19843603018112610d65575f5ffd5b83018035915067ffffffffffffffff821115610d7f575f5ffd5b6020019150600581901b3603821315610b86575f5ffd5b5f8235603e19833603018112610cc3575f5ffd5b81835281816020850137505f828201602090810191909152601f909101601f19169091010190565b60a081525f610de560a08301898b610daa565b6001600160a01b03888116602085015287166040840152606083018690528281036080840152610e16818587610daa565b9a9950505050505050505050565b5f60208284031215610e34575f5ffd5b81518015158114610c94575f5ffd5b8181038181111561093257610932610ccd565b818382375f9101908152919050565b838152604060208201525f610e7e604083018486610daa565b95945050505050565b5f60208284031215610e97575f5ffd5b81516001600160e01b031981168114610c94575f5ffd5b634e487b7160e01b5f52604160045260245ffd5b81515f90829060208501835b82811015610eec578151845260209384019390910190600101610ece565b509195945050505050565b634e487b7160e01b5f52602160045260245ffdfea2646970667358221220d9ff7f43dbfe613e6d43f3f59ae41f97705dd210f2e608076e0a2e1830a1595f64736f6c634300081c0033","linkReferences":{}},"methodIdentifiers":{"CAVEAT_TYPEHASH()":"c66f5775","DELEGATION_TYPEHASH()":"e7a324dc","DOMAIN_SEPARATOR()":"3644e515","ROOT_AUTHORITY()":"1b13cac2","hashDelegation((address,address,bytes32,(address,bytes)[],uint256,bytes))":"79e75927","isRevoked(bytes32)":"4294857f","redeemDelegation((address,address,bytes32,(address,bytes)[],uint256,bytes)[],address,uint256,bytes)":"1f27e9f1","revokeDelegation(bytes32)":"b96f2b07"},"id":9}