{"abi":[{"type":"constructor","inputs":[],"stateMutability":"nonpayable"},{"type":"function","name":"CAVEAT_TYPEHASH","inputs":[],"outputs":[{"name":"","type":"bytes32","internalType":"bytes32"}],"stateMutability":"view"},{"type":"function","name":"DELEGATION_TYPEHASH","inputs":[],"outputs":[{"name":"","type":"bytes32","internalType":"bytes32"}],"stateMutability":"view"},{"type":"function","name":"DOMAIN_SEPARATOR","inputs":[],"outputs":[{"name":"","type":"bytes32","internalType":"bytes32"}],"stateMutability":"view"},{"type":"function","name":"OPEN_DELEGATION","inputs":[],"outputs":[{"name":"","type":"address","internalType":"address"}],"stateMutability":"view"},{"type":"function","name":"ROOT_AUTHORITY","inputs":[],"outputs":[{"name":"","type":"bytes32","internalType":"bytes32"}],"stateMutability":"view"},{"type":"function","name":"hashDelegation","inputs":[{"name":"d","type":"tuple","internalType":"struct IDelegationManager.Delegation","components":[{"name":"delegator","type":"address","internalType":"address"},{"name":"delegate","type":"address","internalType":"address"},{"name":"authority","type":"bytes32","internalType":"bytes32"},{"name":"caveats","type":"tuple[]","internalType":"struct IDelegationManager.Caveat[]","components":[{"name":"enforcer","type":"address","internalType":"address"},{"name":"terms","type":"bytes","internalType":"bytes"},{"name":"args","type":"bytes","internalType":"bytes"}]},{"name":"salt","type":"uint256","internalType":"uint256"},{"name":"signature","type":"bytes","internalType":"bytes"}]}],"outputs":[{"name":"","type":"bytes32","internalType":"bytes32"}],"stateMutability":"view"},{"type":"function","name":"isRevoked","inputs":[{"name":"delegationHash","type":"bytes32","internalType":"bytes32"}],"outputs":[{"name":"","type":"bool","internalType":"bool"}],"stateMutability":"view"},{"type":"function","name":"redeemDelegation","inputs":[{"name":"delegations","type":"tuple[]","internalType":"struct IDelegationManager.Delegation[]","components":[{"name":"delegator","type":"address","internalType":"address"},{"name":"delegate","type":"address","internalType":"address"},{"name":"authority","type":"bytes32","internalType":"bytes32"},{"name":"caveats","type":"tuple[]","internalType":"struct IDelegationManager.Caveat[]","components":[{"name":"enforcer","type":"address","internalType":"address"},{"name":"terms","type":"bytes","internalType":"bytes"},{"name":"args","type":"bytes","internalType":"bytes"}]},{"name":"salt","type":"uint256","internalType":"uint256"},{"name":"signature","type":"bytes","internalType":"bytes"}]},{"name":"target","type":"address","internalType":"address"},{"name":"value","type":"uint256","internalType":"uint256"},{"name":"data","type":"bytes","internalType":"bytes"}],"outputs":[],"stateMutability":"nonpayable"},{"type":"function","name":"revokeDelegation","inputs":[{"name":"delegationHash","type":"bytes32","internalType":"bytes32"}],"outputs":[],"stateMutability":"nonpayable"},{"type":"function","name":"revokeDelegationByOwner","inputs":[{"name":"delegation","type":"tuple","internalType":"struct IDelegationManager.Delegation","components":[{"name":"delegator","type":"address","internalType":"address"},{"name":"delegate","type":"address","internalType":"address"},{"name":"authority","type":"bytes32","internalType":"bytes32"},{"name":"caveats","type":"tuple[]","internalType":"struct IDelegationManager.Caveat[]","components":[{"name":"enforcer","type":"address","internalType":"address"},{"name":"terms","type":"bytes","internalType":"bytes"},{"name":"args","type":"bytes","internalType":"bytes"}]},{"name":"salt","type":"uint256","internalType":"uint256"},{"name":"signature","type":"bytes","internalType":"bytes"}]}],"outputs":[],"stateMutability":"nonpayable"},{"type":"event","name":"DelegationRedeemed","inputs":[{"name":"delegationHash","type":"bytes32","indexed":true,"internalType":"bytes32"},{"name":"delegator","type":"address","indexed":true,"internalType":"address"},{"name":"delegate","type":"address","indexed":true,"internalType":"address"}],"anonymous":false},{"type":"event","name":"DelegationRevoked","inputs":[{"name":"delegationHash","type":"bytes32","indexed":true,"internalType":"bytes32"}],"anonymous":false},{"type":"event","name":"DelegationRevokedBy","inputs":[{"name":"delegationHash","type":"bytes32","indexed":true,"internalType":"bytes32"},{"name":"by","type":"address","indexed":true,"internalType":"address"}],"anonymous":false},{"type":"error","name":"DelegationRevoked_","inputs":[]},{"type":"error","name":"ECDSAInvalidSignature","inputs":[]},{"type":"error","name":"ECDSAInvalidSignatureLength","inputs":[{"name":"length","type":"uint256","internalType":"uint256"}]},{"type":"error","name":"ECDSAInvalidSignatureS","inputs":[{"name":"s","type":"bytes32","internalType":"bytes32"}]},{"type":"error","name":"EmptyChain","inputs":[]},{"type":"error","name":"ExecutionFailed","inputs":[]},{"type":"error","name":"HashMismatch","inputs":[]},{"type":"error","name":"InvalidAuthority","inputs":[]},{"type":"error","name":"InvalidDelegate","inputs":[]},{"type":"error","name":"InvalidSignature","inputs":[]},{"type":"error","name":"NotDelegatorOrDelegate","inputs":[]},{"type":"error","name":"OnlyDelegator","inputs":[]},{"type":"error","name":"ReentrancyGuardReentrantCall","inputs":[]}],"bytecode":{"object":"0x60a0346100fc5760017f9b779b17422d0df92223018b32b4d1fa46e071723d6817e2486d003becc55f0055602081017f8b73c3c69bb8fe3d512ecc4cf759cc79239f7b179b0ffacaa9a75d522b39400f81527f2d31da195489f315b55fd2cee53966acc750e89b127d5b183c7c0c0b00104cac60408301527fc89efdaa54c0f20c7adf612882df0950f5a951637e0307cdcb4c672f298b8bc660608301524660808301523060a083015260a0825260c082019180831060018060401b038411176100e8578260405251902060805261111e9081610101823960805181818160f401526109790152f35b634e487b7160e01b5f52604160045260245ffd5b5f80fdfe60806040526004361015610011575f80fd5b5f3560e01c80631b13cac2146100b45780633644e515146100af5780634294857f146100aa5780637ced8f53146100a55780638308f690146100a0578063a80dc8391461009b578063b96f2b0714610096578063c244e81114610091578063c66f57751461008c5763e7a324dc14610087575f80fd5b610440565b610406565b6103e6565b610375565b610359565b610263565b61019f565b610129565b6100dd565b346100cf575f3660031901126100cf575f1960805260206080f35b5f80fd5b5f9103126100cf57565b346100cf575f3660031901126100cf5760206040517f00000000000000000000000000000000000000000000000000000000000000008152f35b60209060031901126100cf5760043590565b346100cf5761013736610117565b5f525f602052602060ff60405f2054166040519015158152f35b6001600160a01b038116036100cf57565b6024359061016f82610151565b565b9181601f840112156100cf5782359167ffffffffffffffff83116100cf57602083818601950101116100cf57565b346100cf5760803660031901126100cf5760043567ffffffffffffffff81116100cf57366023820112156100cf5780600401359067ffffffffffffffff82116100cf573660248360051b830101116100cf576101f9610162565b906044356064359267ffffffffffffffff84116100cf5761022d946102246024953690600401610171565b9590940161047a565b005b60206003198201126100cf576004359067ffffffffffffffff82116100cf5760c09082900360031901126100cf5760040190565b346100cf576102713661022f565b803561027c81610151565b336001600160a01b038216141580610339575b61032a57816102c2916102a46102ba94610893565b9384926102b083610151565b60a08101906107ef565b929091610df5565b805f525f6020526102dd60405f20600160ff19825416179055565b807f6eb24ce38eb0f7d1e3b4291d5543c7286f02be3daed061b0f7eb6491213deb215f80a233907f1d4da274aa80cb99055a8119dffeeb4e4facfa7e060254dd4dac031e94cd39815f80a3005b6328682dbd60e11b5f5260045ffd5b50602082013561034881610151565b6001600160a01b031633141561028f565b346100cf575f3660031901126100cf576020604051610a118152f35b346100cf5761038336610117565b805f525f60205260405f20600160ff19825416179055807f6eb24ce38eb0f7d1e3b4291d5543c7286f02be3daed061b0f7eb6491213deb215f80a233907f1d4da274aa80cb99055a8119dffeeb4e4facfa7e060254dd4dac031e94cd39815f80a3005b346100cf5760206103fe6103f93661022f565b610893565b604051908152f35b346100cf575f3660031901126100cf5760206040517f80ad7e1b04ee6d994a125f4714ca0720908bd80ed16063ec8aee4b88e9253e2d8152f35b346100cf575f3660031901126100cf5760206040517fac5469bad161df7c56017782e0a87a91008dbe46dacd5eb42e48e7f4b4fc4e398152f35b95949290939160027f9b779b17422d0df92223018b32b4d1fa46e071723d6817e2486d003becc55f0054146107655760027f9b779b17422d0df92223018b32b4d1fa46e071723d6817e2486d003becc55f00558415610756575f5b8581106105665750610505848484846105006104fb8d8c6104f5816107c3565b91610788565b6107d6565b610c2c565b84805b61053d57505050505050905061016f60017f9b779b17422d0df92223018b32b4d1fa46e071723d6817e2486d003becc55f0055565b8061055b868686866105568e8d6104f56105609a6107c3565b610ccb565b6107e3565b80610508565b61057181878a610788565b9061057b82610893565b91610597610590845f525f60205260405f2090565b5460ff1690565b61074757816106d75760208101610a116001600160a01b036105b8836107d6565b16141590816106bb575b506106ac578585858a8d8b955b604081013560018101610663575b5061065d969594939261065892828b61060960019d6105fc8e976107d6565b6102ba60a08601866107ef565b610612826107d6565b9161062560208f8060a01b0392016107d6565b16918d8060a01b0316907f021c7c160a94ec8a04c191a1ccaa4ff1fb3c5b6ca6f712cfe724d496cc0b1e3a5f80a4610788565b610b1e565b016104d5565b955095505091505061067484610a57565b101561069d5761068b6103f98c8b6104f587610a57565b0361069d578585858a8d8b955f6105dd565b636f6a1b8760e11b5f5260045ffd5b632d618d8160e21b5f5260045ffd5b6106c591506107d6565b6001600160a01b03163314155f6105c2565b60208101610a116001600160a01b036106ef836107d6565b161415908161070a575b506106ac578585858a8d8b956105cf565b61071491506107d6565b6107346107286104fb8d8c6104f5886107c3565b6001600160a01b031690565b6001600160a01b0390911614155f6106f9565b634650b30d60e01b5f5260045ffd5b630b1bc1e560e21b5f5260045ffd5b633ee5aeb560e01b5f5260045ffd5b634e487b7160e01b5f52603260045260245ffd5b91908110156107aa5760051b8101359060be19813603018212156100cf570190565b610774565b634e487b7160e01b5f52601160045260245ffd5b5f198101919082116107d157565b6107af565b356107e081610151565b90565b80156107d1575f190190565b903590601e19813603018212156100cf570180359067ffffffffffffffff82116100cf576020019181360383136100cf57565b903590601e19813603018212156100cf570180359067ffffffffffffffff82116100cf57602001918160051b360383136100cf57565b634e487b7160e01b5f52604160045260245ffd5b90601f8019910116810190811067ffffffffffffffff82111761088e57604052565b610858565b6108a06060820182610822565b6108a981610f09565b915f5b8281106109b8575050506040516108d9816108cb602082018095610f4f565b03601f19810183528261086c565b519020906109646108e9826107d6565b926108cb6108f9602085016107d6565b604080517fac5469bad161df7c56017782e0a87a91008dbe46dacd5eb42e48e7f4b4fc4e39602082019081526001600160a01b039889168284015297909216606083015285013560808281019190915260a0820193909352939091013560c0840152829060e0820190565b51902060405161190160f01b602082019081527f0000000000000000000000000000000000000000000000000000000000000000602283015260428201929092526109b281606281016108cb565b51902090565b806109c96104fb6001938686610a65565b6108cb610a436109f16109ea6109e0868a8a610a65565b60208101906107ef565b3691610dbf565b8051602091820120604080517f80ad7e1b04ee6d994a125f4714ca0720908bd80ed16063ec8aee4b88e9253e2d9381019384526001600160a01b03909616908601526060850152929182906080820190565b519020610a508287610f3b565b52016108ac565b90600182018092116107d157565b91908110156107aa5760051b81013590605e19813603018212156100cf570190565b908060209392818452848401375f828201840152601f01601f1916010190565b9693610acc6107e09c9a979492610ada949c9a979c6101008b526101008b0191610a87565b9188830360208a0152610a87565b60408601989098526001600160a01b03908116606086015290811660808501521660a083015260c082015280840360e090910152610a87565b6040513d5f823e3d90fd5b90929194610b2b82610893565b955f5b60608401610b3c8186610822565b9050821015610c0557610b6e919085610b8d610b8384610b7a6109e0828988610b74610728806104fb8686868f610822565b90610a65565b98610822565b9790958b610822565b60408101906107ef565b9190610b98896107d6565b823b156100cf578d96610bcc8e8d8f8c905f9a8b976040519e8f9c8d9b8c9a6350a1175b60e11b8c52339560048d01610aa7565b03925af1918215610c0057600192610be6575b5001610b2e565b80610bf45f610bfa9361086c565b806100d3565b5f610bdf565b610b13565b505050945050505050565b67ffffffffffffffff811161088e57601f01601f191660200190565b915f94610c728695926108cb87946040519485936020850198635b0e93fb60e11b8a5260018060a01b031660248601526044850152606060648501526084840191610a87565b51925af13d15610cc3573d90610c8782610c10565b91610c95604051938461086c565b82523d5f602084013e5b15610ca75750565b80519081610cbe57632b3f6d1160e21b5f5260045ffd5b602001fd5b606090610c9f565b90929194610cd882610893565b955f5b60608401610ce98186610822565b9050821015610c0557610b6e919085610d1b610b8384610b7a6109e0828988610b74610728806104fb8686868f610822565b9190610d26896107d6565b823b156100cf578d96610d5a8e8d8f8c905f9a8b976040519e8f9c8d9b8c9a63d3128e3d60e01b8c52339560048d01610aa7565b03925af1918215610c0057600192610d74575b5001610cdb565b80610bf45f610d829361086c565b5f610d6d565b908160209103126100cf57516001600160e01b0319811681036100cf5790565b6040906107e0949281528160208201520191610a87565b929192610dcb82610c10565b91610dd9604051938461086c565b8294818452818301116100cf578281602093845f960137010152565b919290823b610e6857610e459293610e37610e3f927f19457468657265756d205369676e6564204d6573736167653a0a3332000000005f52601c52603c5f2090565b923691610dbf565b90610f7c565b6001600160a01b03918216911603610e5957565b638baa579f60e01b5f5260045ffd5b91610e8d9360209360405195869485938493630b135d3f60e11b855260048501610da8565b03916001600160a01b03165afa908115610c00575f91610ec2575b506001600160e01b0319166374eca2c160e11b01610e5957565b610ee4915060203d602011610eea575b610edc818361086c565b810190610d88565b5f610ea8565b503d610ed2565b67ffffffffffffffff811161088e5760051b60200190565b90610f1382610ef1565b610f20604051918261086c565b8281528092610f31601f1991610ef1565b0190602036910137565b80518210156107aa5760209160051b010190565b80516020909101905f5b818110610f665750505090565b8251845260209384019390920191600101610f59565b6107e091610f8991610f92565b90929192610fea565b8151919060418303610fc257610fbb9250602082015190606060408401519301515f1a90611066565b9192909190565b50505f9160029190565b60041115610fd657565b634e487b7160e01b5f52602160045260245ffd5b610ff381610fcc565b80610ffc575050565b61100581610fcc565b6001810361101c5763f645eedf60e01b5f5260045ffd5b61102581610fcc565b60028103611040575063fce698f760e01b5f5260045260245ffd5b8061104c600392610fcc565b146110545750565b6335e2f38360e21b5f5260045260245ffd5b91907f7fffffffffffffffffffffffffffffff5d576e7357a4501ddfe92f46681b20a084116110dd579160209360809260ff5f9560405194855216868401526040830152606082015282805260015afa15610c00575f516001600160a01b038116156110d357905f905f90565b505f906001905f90565b5050505f916003919056fea26469706673582212209e9255e73c0e37ed41c06c1a46099fe7b3de79b72ae8912d6dfaf917865bd19364736f6c634300081c0033","linkReferences":{}},"methodIdentifiers":{"CAVEAT_TYPEHASH()":"c66f5775","DELEGATION_TYPEHASH()":"e7a324dc","DOMAIN_SEPARATOR()":"3644e515","OPEN_DELEGATION()":"a80dc839","ROOT_AUTHORITY()":"1b13cac2","hashDelegation((address,address,bytes32,(address,bytes,bytes)[],uint256,bytes))":"c244e811","isRevoked(bytes32)":"4294857f","redeemDelegation((address,address,bytes32,(address,bytes,bytes)[],uint256,bytes)[],address,uint256,bytes)":"7ced8f53","revokeDelegation(bytes32)":"b96f2b07","revokeDelegationByOwner((address,address,bytes32,(address,bytes,bytes)[],uint256,bytes))":"8308f690"},"id":84}