{"abi":[{"type":"constructor","inputs":[{"name":"relationshipAddress","type":"address","internalType":"address"},{"name":"assertionAddress","type":"address","internalType":"address"}],"stateMutability":"nonpayable"},{"type":"function","name":"ASSERTION","inputs":[],"outputs":[{"name":"","type":"address","internalType":"contract AgentAssertion"}],"stateMutability":"view"},{"type":"function","name":"RELATIONSHIP","inputs":[],"outputs":[{"name":"","type":"address","internalType":"contract AgentRelationship"}],"stateMutability":"view"},{"type":"function","name":"getActiveRoles","inputs":[{"name":"subject","type":"address","internalType":"address"},{"name":"object_","type":"address","internalType":"address"},{"name":"relationshipType","type":"bytes32","internalType":"bytes32"},{"name":"mode","type":"uint8","internalType":"enum AgentRelationshipResolver.ResolutionMode"}],"outputs":[{"name":"","type":"bytes32[]","internalType":"bytes32[]"}],"stateMutability":"view"},{"type":"function","name":"holdsRole","inputs":[{"name":"subject","type":"address","internalType":"address"},{"name":"object_","type":"address","internalType":"address"},{"name":"role","type":"bytes32","internalType":"bytes32"},{"name":"relationshipType","type":"bytes32","internalType":"bytes32"},{"name":"mode","type":"uint8","internalType":"enum AgentRelationshipResolver.ResolutionMode"}],"outputs":[{"name":"","type":"bool","internalType":"bool"}],"stateMutability":"view"},{"type":"function","name":"isRelationshipActive","inputs":[{"name":"edgeId","type":"bytes32","internalType":"bytes32"},{"name":"mode","type":"uint8","internalType":"enum AgentRelationshipResolver.ResolutionMode"}],"outputs":[{"name":"","type":"bool","internalType":"bool"}],"stateMutability":"view"}],"bytecode":{"object":"0x60c0346100a057601f610c7e38819003918201601f19168301916001600160401b038311848410176100a45780849260409485528339810103126100a057610052602061004b836100b8565b92016100b8565b6001600160a01b039182166080521660a052604051610bb190816100cd8239608051818181610179015281816103270152818161080f01526109ac015260a051818181606501526103a40152f35b5f80fd5b634e487b7160e01b5f52604160045260245ffd5b51906001600160a01b03821682036100a05756fe60806040526004361015610011575f80fd5b5f3560e01c80630d3f80d3146101a85780631b86e4b9146101645780635bfedf531461011857806366a17c721461009857639b8286a814610050575f80fd5b34610094575f366003190112610094576040517f00000000000000000000000000000000000000000000000000000000000000006001600160a01b03168152602090f35b5f80fd5b34610094576080366003190112610094576100b16101d3565b6100b96101e9565b90606435906005821015610094576100d4926044359161097d565b6040518091602082016020835281518091526020604084019201905f5b8181106100ff575050500390f35b82518452859450602093840193909201916001016100f1565b346100945760a0366003190112610094576101316101d3565b6101396101e9565b9060843560058110156100945760209261015a9260643591604435916107de565b6040519015158152f35b34610094575f366003190112610094576040517f00000000000000000000000000000000000000000000000000000000000000006001600160a01b03168152602090f35b346100945760403660031901126100945760243560058110156100945761015a60209160043561030a565b600435906001600160a01b038216820361009457565b602435906001600160a01b038216820361009457565b90601f8019910116810190811067ffffffffffffffff82111761022157604052565b634e487b7160e01b5f52604160045260245ffd5b51906001600160a01b038216820361009457565b81601f820112156100945780519067ffffffffffffffff8211610221576040519261027e601f8401601f1916602001856101ff565b8284526020838301011161009457815f9260208093018386015e8301015290565b600511156102a957565b634e487b7160e01b5f52602160045260245ffd5b67ffffffffffffffff81116102215760051b60200190565b80518210156102e95760209160051b010190565b634e487b7160e01b5f52603260045260245ffd5b5190811515820361009457565b604051637ed1449760e11b81526004810182905290915f826024817f00000000000000000000000000000000000000000000000000000000000000006001600160a01b03165afa9182156105d4575f926106ee575b50600260808301516103708161029f565b6103798161029f565b036106e7576103878161029f565b80156106df57604051630d8757c760e21b815260048101939093527f00000000000000000000000000000000000000000000000000000000000000006001600160a01b0316915f84602481865afa9384156105d4575f9461064c575b505f925f945f5b8151811015610620576103fd81836102d5565b5160405190637e0792ef60e01b82526004820152602081602481875afa9081156105d4575f916105e7575b50156105df5761043881836102d5565b5160405190631d99e16760e01b825260048201525f81602481875afa9081156105d4575f916104f9575b506060015160408501516001600160a01b03918216911681146104f0575b60208501516001600160a01b0316146104e7575b61049d8561029f565b60018514806104df575b6104cc576104b48561029f565b60028514806104d8575b6104cc576001905b016103ea565b50505050505050600190565b50856104be565b5060016104a7565b60019650610494565b60019650610480565b90503d805f833e61050a81836101ff565b8101906020818303126100945780519067ffffffffffffffff82116100945701610100818303126100945760405191610100830183811067ffffffffffffffff8211176102215760405281518352602082015160208401526040820151600781101561009457604084015261058160608301610235565b60608401526080820151608084015260a082015160a08401526105a660c083016102fd565b60c084015260e082015167ffffffffffffffff8111610094576105c99201610249565b60e08201525f610462565b6040513d5f823e3d90fd5b6001906104c6565b90506020813d8211610618575b81610601602093836101ff565b8101031261009457610612906102fd565b5f610428565b3d91506105f4565b505050506003909291926106338161029f565b1461063e5750505f90565b81610647575090565b905090565b9093503d805f833e61065e81836101ff565b8101906020818303126100945780519067ffffffffffffffff821161009457019080601f83011215610094578151610695816102bd565b926106a360405194856101ff565b81845260208085019260051b82010192831161009457602001905b8282106106cf57505050925f6103e3565b81518152602091820191016106be565b505050600190565b5050505f90565b9091503d805f833e61070081836101ff565b8101906020818303126100945780519067ffffffffffffffff82116100945701610120818303126100945760405191610120830183811067ffffffffffffffff821117610221576040528151835261075a60208301610235565b602084015261076b60408301610235565b6040840152606082015160608401526080820151600581101561009457608084015261079960a08301610235565b60a084015260c082015160c084015260e082015160e084015261010082015167ffffffffffffffff8111610094576107d19201610249565b610100820152905f61035f565b60405163fc4205cd60e01b81526001600160a01b0391821660048201529181166024830152604482019390935292917f00000000000000000000000000000000000000000000000000000000000000001690602084606481855afa9384156105d4575f94610949575b5060405163750e0c0f60e01b815260048101859052602081602481865afa9081156105d4575f9161090f575b501561090757602090604460405180948193630ca075d960e01b835288600484015260248301525afa9081156105d4575f916108cd575b50156108c7576108b99161030a565b156108c357600190565b5f90565b50505f90565b90506020813d6020116108ff575b816108e8602093836101ff565b81010312610094576108f9906102fd565b5f6108aa565b3d91506108db565b505050505f90565b90506020813d602011610941575b8161092a602093836101ff565b810103126100945761093b906102fd565b5f610873565b3d915061091d565b9093506020813d602011610975575b81610965602093836101ff565b810103126100945751925f610847565b3d9150610958565b60405163fc4205cd60e01b81526001600160a01b039182166004820152918116602483015260448201929092527f000000000000000000000000000000000000000000000000000000000000000090911691602082606481865afa9182156105d4575f92610b47575b5060405163750e0c0f60e01b815260048101839052602081602481875afa9081156105d4575f91610b0d575b5015610afc57610a22908261030a565b15610ae2575f9060246040518094819363116aa52f60e01b835260048301525afa9081156105d4575f91610a54575090565b90503d805f833e610a6581836101ff565b8101906020818303126100945780519067ffffffffffffffff821161009457019080601f83011215610094578151610a9c816102bd565b92610aaa60405194856101ff565b81845260208085019260051b82010192831161009457602001905b828210610ad25750505090565b8151815260209182019101610ac5565b5050604051610af26020826101ff565b5f81525f36813790565b505050604051610af26020826101ff565b90506020813d602011610b3f575b81610b28602093836101ff565b8101031261009457610b39906102fd565b5f610a12565b3d9150610b1b565b9091506020813d602011610b73575b81610b63602093836101ff565b810103126100945751905f6109e6565b3d9150610b5656fea26469706673582212205359025d5d57789f3ae0cdfdf89a726336bbb201accb63503b70859c688338a164736f6c634300081c0033","linkReferences":{}},"methodIdentifiers":{"ASSERTION()":"9b8286a8","RELATIONSHIP()":"1b86e4b9","getActiveRoles(address,address,bytes32,uint8)":"66a17c72","holdsRole(address,address,bytes32,bytes32,uint8)":"5bfedf53","isRelationshipActive(bytes32,uint8)":"0d3f80d3"},"id":63}