{"abi":[{"type":"constructor","inputs":[{"name":"relationshipAddress","type":"address","internalType":"address"},{"name":"assertionAddress","type":"address","internalType":"address"}],"stateMutability":"nonpayable"},{"type":"function","name":"ASSERTION","inputs":[],"outputs":[{"name":"","type":"address","internalType":"contract AgentAssertion"}],"stateMutability":"view"},{"type":"function","name":"RELATIONSHIP","inputs":[],"outputs":[{"name":"","type":"address","internalType":"contract AgentRelationship"}],"stateMutability":"view"},{"type":"function","name":"getActiveRoles","inputs":[{"name":"subject","type":"address","internalType":"address"},{"name":"object_","type":"address","internalType":"address"},{"name":"relationshipType","type":"bytes32","internalType":"bytes32"},{"name":"mode","type":"uint8","internalType":"enum AgentRelationshipResolver.ResolutionMode"}],"outputs":[{"name":"","type":"bytes32[]","internalType":"bytes32[]"}],"stateMutability":"view"},{"type":"function","name":"holdsRole","inputs":[{"name":"subject","type":"address","internalType":"address"},{"name":"object_","type":"address","internalType":"address"},{"name":"role","type":"bytes32","internalType":"bytes32"},{"name":"relationshipType","type":"bytes32","internalType":"bytes32"},{"name":"mode","type":"uint8","internalType":"enum AgentRelationshipResolver.ResolutionMode"}],"outputs":[{"name":"","type":"bool","internalType":"bool"}],"stateMutability":"view"},{"type":"function","name":"isRelationshipActive","inputs":[{"name":"edgeId","type":"bytes32","internalType":"bytes32"},{"name":"mode","type":"uint8","internalType":"enum AgentRelationshipResolver.ResolutionMode"}],"outputs":[{"name":"","type":"bool","internalType":"bool"}],"stateMutability":"view"}],"bytecode":{"object":"0x60c060405234801561000f575f5ffd5b50604051610f37380380610f3783398101604081905261002e91610060565b6001600160a01b039182166080521660a052610091565b80516001600160a01b038116811461005b575f5ffd5b919050565b5f5f60408385031215610071575f5ffd5b61007a83610045565b915061008860208401610045565b90509250929050565b60805160a051610e416100f65f395f818160f8015281816102090152818161028e015261033a01525f818160860152818161013c0152818161051301528181610595015281816106300152818161070701528181610789015261085c0152610e415ff3fe608060405234801561000f575f5ffd5b5060043610610055575f3560e01c80630d3f80d3146100595780631b86e4b9146100815780635bfedf53146100c057806366a17c72146100d35780639b8286a8146100f3575b5f5ffd5b61006c6100673660046108ea565b61011a565b60405190151581526020015b60405180910390f35b6100a87f000000000000000000000000000000000000000000000000000000000000000081565b6040516001600160a01b039091168152602001610078565b61006c6100ce36600461092c565b6104e1565b6100e66100e1366004610987565b6106d4565b60405161007891906109d7565b6100a87f000000000000000000000000000000000000000000000000000000000000000081565b604051637ed1449760e11b8152600481018390525f9081906001600160a01b037f0000000000000000000000000000000000000000000000000000000000000000169063fda2892e906024015f60405180830381865afa158015610180573d5f5f3e3d5ffd5b505050506040513d5f823e601f3d908101601f191682016040526101a79190810190610b33565b90506002816080015160048111156101c1576101c1610c0e565b146101cf575f9150506104db565b5f8360048111156101e2576101e2610c0e565b036101f15760019150506104db565b604051630d8757c760e21b8152600481018590525f907f00000000000000000000000000000000000000000000000000000000000000006001600160a01b03169063361d5f1c906024015f60405180830381865afa158015610255573d5f5f3e3d5ffd5b505050506040513d5f823e601f3d908101601f1916820160405261027c9190810190610c45565b90505f8080805b84518110156104a2577f00000000000000000000000000000000000000000000000000000000000000006001600160a01b0316637e0792ef8683815181106102cd576102cd610cdb565b60200260200101516040518263ffffffff1660e01b81526004016102f391815260200190565b602060405180830381865afa15801561030e573d5f5f3e3d5ffd5b505050506040513d601f19601f820116820180604052508101906103329190610cfe565b1561049a575f7f00000000000000000000000000000000000000000000000000000000000000006001600160a01b0316631d99e16787848151811061037957610379610cdb565b60200260200101516040518263ffffffff1660e01b815260040161039f91815260200190565b5f60405180830381865afa1580156103b9573d5f5f3e3d5ffd5b505050506040513d5f823e601f3d908101601f191682016040526103e09190810190610d2c565b90506001945086604001516001600160a01b031681606001516001600160a01b03160361040c57600193505b86602001516001600160a01b031681606001516001600160a01b03160361043257600192505b600189600481111561044657610446610c0e565b1480156104505750845b156104655760019750505050505050506104db565b600289600481111561047957610479610c0e565b1480156104835750835b156104985760019750505050505050506104db565b505b600101610283565b5060038760048111156104b7576104b7610c0e565b036104d2578180156104c65750805b955050505050506104db565b5f955050505050505b92915050565b60405163fc4205cd60e01b81526001600160a01b0386811660048301528581166024830152604482018490525f9182917f0000000000000000000000000000000000000000000000000000000000000000169063fc4205cd90606401602060405180830381865afa158015610558573d5f5f3e3d5ffd5b505050506040513d601f19601f8201168201806040525081019061057c9190610df4565b60405163750e0c0f60e01b8152600481018290529091507f00000000000000000000000000000000000000000000000000000000000000006001600160a01b03169063750e0c0f90602401602060405180830381865afa1580156105e2573d5f5f3e3d5ffd5b505050506040513d601f19601f820116820180604052508101906106069190610cfe565b610613575f9150506106cb565b604051630ca075d960e01b815260048101829052602481018690527f00000000000000000000000000000000000000000000000000000000000000006001600160a01b031690630ca075d990604401602060405180830381865afa15801561067d573d5f5f3e3d5ffd5b505050506040513d601f19601f820116820180604052508101906106a19190610cfe565b6106ae575f9150506106cb565b6106b8818461011a565b6106c5575f9150506106cb565b60019150505b95945050505050565b60405163fc4205cd60e01b81526001600160a01b0385811660048301528481166024830152604482018490526060915f917f0000000000000000000000000000000000000000000000000000000000000000169063fc4205cd90606401602060405180830381865afa15801561074c573d5f5f3e3d5ffd5b505050506040513d601f19601f820116820180604052508101906107709190610df4565b60405163750e0c0f60e01b8152600481018290529091507f00000000000000000000000000000000000000000000000000000000000000006001600160a01b03169063750e0c0f90602401602060405180830381865afa1580156107d6573d5f5f3e3d5ffd5b505050506040513d601f19601f820116820180604052508101906107fa9190610cfe565b610832575f5b604051908082528060200260200182016040528015610829578160200160208202803683370190505b509150506108d3565b61083c818461011a565b610846575f610800565b60405163116aa52f60e01b8152600481018290527f00000000000000000000000000000000000000000000000000000000000000006001600160a01b03169063116aa52f906024015f60405180830381865afa1580156108a8573d5f5f3e3d5ffd5b505050506040513d5f823e601f3d908101601f191682016040526108cf9190810190610c45565b9150505b949350505050565b600581106108e7575f5ffd5b50565b5f5f604083850312156108fb575f5ffd5b82359150602083013561090d816108db565b809150509250929050565b6001600160a01b03811681146108e7575f5ffd5b5f5f5f5f5f60a08688031215610940575f5ffd5b853561094b81610918565b9450602086013561095b81610918565b935060408601359250606086013591506080860135610979816108db565b809150509295509295909350565b5f5f5f5f6080858703121561099a575f5ffd5b84356109a581610918565b935060208501356109b581610918565b92506040850135915060608501356109cc816108db565b939692955090935050565b602080825282518282018190525f918401906040840190835b81811015610a0e5783518352602093840193909201916001016109f0565b509095945050505050565b634e487b7160e01b5f52604160045260245ffd5b604051610120810167ffffffffffffffff81118282101715610a5157610a51610a19565b60405290565b604051610100810167ffffffffffffffff81118282101715610a5157610a51610a19565b604051601f8201601f1916810167ffffffffffffffff81118282101715610aa457610aa4610a19565b604052919050565b8051610ab781610918565b919050565b8051610ab7816108db565b5f82601f830112610ad6575f5ffd5b815167ffffffffffffffff811115610af057610af0610a19565b610b03601f8201601f1916602001610a7b565b818152846020838601011115610b17575f5ffd5b8160208501602083015e5f918101602001919091529392505050565b5f60208284031215610b43575f5ffd5b815167ffffffffffffffff811115610b59575f5ffd5b82016101208185031215610b6b575f5ffd5b610b73610a2d565b81518152610b8360208301610aac565b6020820152610b9460408301610aac565b604082015260608281015190820152610baf60808301610abc565b6080820152610bc060a08301610aac565b60a082015260c0828101519082015260e0808301519082015261010082015167ffffffffffffffff811115610bf3575f5ffd5b610bff86828501610ac7565b61010083015250949350505050565b634e487b7160e01b5f52602160045260245ffd5b5f67ffffffffffffffff821115610c3b57610c3b610a19565b5060051b60200190565b5f60208284031215610c55575f5ffd5b815167ffffffffffffffff811115610c6b575f5ffd5b8201601f81018413610c7b575f5ffd5b8051610c8e610c8982610c22565b610a7b565b8082825260208201915060208360051b850101925086831115610caf575f5ffd5b6020840193505b82841015610cd1578351825260209384019390910190610cb6565b9695505050505050565b634e487b7160e01b5f52603260045260245ffd5b80518015158114610ab7575f5ffd5b5f60208284031215610d0e575f5ffd5b610d1782610cef565b9392505050565b805160078110610ab7575f5ffd5b5f60208284031215610d3c575f5ffd5b815167ffffffffffffffff811115610d52575f5ffd5b82016101008185031215610d64575f5ffd5b610d6c610a57565b8151815260208083015190820152610d8660408301610d1e565b6040820152610d9760608301610aac565b60608201526080828101519082015260a08083015190820152610dbc60c08301610cef565b60c082015260e082015167ffffffffffffffff811115610dda575f5ffd5b610de686828501610ac7565b60e083015250949350505050565b5f60208284031215610e04575f5ffd5b505191905056fea2646970667358221220ee847d7419a5e58a8c60e5ddd9a586b81426888e8ce9c94fa0a6ac0b7e839b0864736f6c634300081c0033","linkReferences":{}},"methodIdentifiers":{"ASSERTION()":"9b8286a8","RELATIONSHIP()":"1b86e4b9","getActiveRoles(address,address,bytes32,uint8)":"66a17c72","holdsRole(address,address,bytes32,bytes32,uint8)":"5bfedf53","isRelationshipActive(bytes32,uint8)":"0d3f80d3"},"id":66}