{"abi":[{"type":"constructor","inputs":[{"name":"initialSigners","type":"address[]","internalType":"address[]"},{"name":"threshold_","type":"uint256","internalType":"uint256"},{"name":"maxMembers_","type":"uint256","internalType":"uint256"},{"name":"timelockSeconds_","type":"uint256","internalType":"uint256"},{"name":"allowZeroTimelock_","type":"bool","internalType":"bool"}],"stateMutability":"nonpayable"},{"type":"function","name":"MINIMUM_PROD_TIMELOCK","inputs":[],"outputs":[{"name":"","type":"uint256","internalType":"uint256"}],"stateMutability":"view"},{"type":"function","name":"allowZeroTimelock","inputs":[],"outputs":[{"name":"","type":"bool","internalType":"bool"}],"stateMutability":"view"},{"type":"function","name":"approve","inputs":[{"name":"proposalId","type":"bytes32","internalType":"bytes32"}],"outputs":[],"stateMutability":"nonpayable"},{"type":"function","name":"cancel","inputs":[{"name":"proposalId","type":"bytes32","internalType":"bytes32"}],"outputs":[],"stateMutability":"nonpayable"},{"type":"function","name":"emergencyPause","inputs":[{"name":"nonce","type":"uint256","internalType":"uint256"},{"name":"signatures","type":"bytes","internalType":"bytes"}],"outputs":[],"stateMutability":"nonpayable"},{"type":"function","name":"execute","inputs":[{"name":"proposalId","type":"bytes32","internalType":"bytes32"}],"outputs":[{"name":"ret","type":"bytes","internalType":"bytes"}],"stateMutability":"nonpayable"},{"type":"function","name":"getProposal","inputs":[{"name":"proposalId","type":"bytes32","internalType":"bytes32"}],"outputs":[{"name":"kind","type":"uint8","internalType":"enum Governance.ProposalKind"},{"name":"state","type":"uint8","internalType":"enum Governance.ProposalState"},{"name":"target","type":"address","internalType":"address"},{"name":"readyAt","type":"uint256","internalType":"uint256"},{"name":"approvals","type":"uint256","internalType":"uint256"},{"name":"data","type":"bytes","internalType":"bytes"}],"stateMutability":"view"},{"type":"function","name":"hasApproved","inputs":[{"name":"proposalId","type":"bytes32","internalType":"bytes32"},{"name":"who","type":"address","internalType":"address"}],"outputs":[{"name":"","type":"bool","internalType":"bool"}],"stateMutability":"view"},{"type":"function","name":"isPaused","inputs":[],"outputs":[{"name":"","type":"bool","internalType":"bool"}],"stateMutability":"view"},{"type":"function","name":"isSigner","inputs":[{"name":"who","type":"address","internalType":"address"}],"outputs":[{"name":"","type":"bool","internalType":"bool"}],"stateMutability":"view"},{"type":"function","name":"maxMembers","inputs":[],"outputs":[{"name":"","type":"uint256","internalType":"uint256"}],"stateMutability":"view"},{"type":"function","name":"proposalNonce","inputs":[],"outputs":[{"name":"","type":"uint256","internalType":"uint256"}],"stateMutability":"view"},{"type":"function","name":"propose","inputs":[{"name":"kind","type":"uint8","internalType":"enum Governance.ProposalKind"},{"name":"target","type":"address","internalType":"address"},{"name":"data","type":"bytes","internalType":"bytes"}],"outputs":[{"name":"proposalId","type":"bytes32","internalType":"bytes32"}],"stateMutability":"nonpayable"},{"type":"function","name":"signerCount","inputs":[],"outputs":[{"name":"","type":"uint256","internalType":"uint256"}],"stateMutability":"view"},{"type":"function","name":"threshold","inputs":[],"outputs":[{"name":"","type":"uint256","internalType":"uint256"}],"stateMutability":"view"},{"type":"function","name":"timelockSeconds","inputs":[],"outputs":[{"name":"","type":"uint256","internalType":"uint256"}],"stateMutability":"view"},{"type":"event","name":"PauseSet","inputs":[{"name":"paused","type":"bool","indexed":false,"internalType":"bool"}],"anonymous":false},{"type":"event","name":"ProposalApproved","inputs":[{"name":"proposalId","type":"bytes32","indexed":true,"internalType":"bytes32"},{"name":"signer","type":"address","indexed":true,"internalType":"address"},{"name":"approvals","type":"uint256","indexed":false,"internalType":"uint256"}],"anonymous":false},{"type":"event","name":"ProposalCancelled","inputs":[{"name":"proposalId","type":"bytes32","indexed":true,"internalType":"bytes32"},{"name":"by","type":"address","indexed":true,"internalType":"address"}],"anonymous":false},{"type":"event","name":"ProposalExecuted","inputs":[{"name":"proposalId","type":"bytes32","indexed":true,"internalType":"bytes32"},{"name":"returnData","type":"bytes","indexed":false,"internalType":"bytes"}],"anonymous":false},{"type":"event","name":"ProposalQueued","inputs":[{"name":"proposalId","type":"bytes32","indexed":true,"internalType":"bytes32"},{"name":"kind","type":"uint8","indexed":false,"internalType":"enum Governance.ProposalKind"},{"name":"target","type":"address","indexed":true,"internalType":"address"},{"name":"readyAt","type":"uint256","indexed":false,"internalType":"uint256"},{"name":"proposer","type":"address","indexed":true,"internalType":"address"}],"anonymous":false},{"type":"event","name":"SignerAdded","inputs":[{"name":"signer","type":"address","indexed":true,"internalType":"address"}],"anonymous":false},{"type":"event","name":"SignerRemoved","inputs":[{"name":"signer","type":"address","indexed":true,"internalType":"address"}],"anonymous":false},{"type":"error","name":"AlreadyApproved","inputs":[]},{"type":"error","name":"AlreadySigner","inputs":[]},{"type":"error","name":"DuplicateSigner","inputs":[]},{"type":"error","name":"ExecFailed","inputs":[{"name":"reason","type":"bytes","internalType":"bytes"}]},{"type":"error","name":"InvalidKind","inputs":[]},{"type":"error","name":"InvalidSignerCount","inputs":[]},{"type":"error","name":"InvalidThreshold","inputs":[]},{"type":"error","name":"NotQueued","inputs":[]},{"type":"error","name":"NotReady","inputs":[]},{"type":"error","name":"NotSigner","inputs":[]},{"type":"error","name":"SignatureCountBelowThreshold","inputs":[]},{"type":"error","name":"ThresholdNotMet","inputs":[]},{"type":"error","name":"TimelockOutOfRange","inputs":[]},{"type":"error","name":"TimelockTooShort","inputs":[]},{"type":"error","name":"UnknownSigner","inputs":[]},{"type":"error","name":"ZeroSigner","inputs":[]}],"bytecode":{"object":"0x6101006040523461022a5761156b8038038061001a81610262565b92833981019060a08183031261022a5780516001600160401b03811161022a57810182601f8201121561022a578051926001600160401b03841161024e578360051b9160208061006b818601610262565b80978152019382010191821161022a57602001915b81831061022e575050506020810151906040810151608060608301519201519283158015850361022a57811561021b5781831061021b578186511061020c578286511161020c57831590811580610200575b6101f157816101e9575b506101da5760805260a05260c05260e0525f5b815181101561018657600581901b8201602001516001600160a01b031690811561017757815f525f60205260ff60405f20541661016857816001925f525f60205260405f208360ff198254161790557f47d1c22a25bb3a5d4e481b9b1e6944c2eade3181a0a20b495ed61d35b5323f245f80a2016100ef565b638044bb3360e01b5f5260045ffd5b63e5c48ac560e01b5f5260045ffd5b50516001556040516112e390816102888239608051818181610461015281816106040152610b96015260a0518181816101d60152610e01015260c0518181816103a801526107be015260e051816105360152f35b6301ded1a560e41b5f5260045ffd5b90505f6100dc565b6326ba8a7b60e21b5f5260045ffd5b506202a30085106100d2565b63719feac760e01b5f5260045ffd5b63aabd5a0960e01b5f5260045ffd5b5f80fd5b82516001600160a01b038116810361022a57815260209283019201610080565b634e487b7160e01b5f52604160045260245ffd5b6040519190601f01601f191682016001600160401b0381118382101761024e5760405256fe60806040526004361015610011575f80fd5b5f3560e01c806323cdc3f1146109685780632afaa3cb1461062757806342cde4e8146105ed578063430694cf1461055b57806357f2792c1461051f5780635bf280ae146103cb57806365a1f3c3146103915780637ca548c6146103745780637df73e2714610334578063a53a1adf14610238578063ae5830c11461021b578063b187bd26146101f9578063bf4386a0146101bf578063c4d252f514610121578063cc3c74a1146101045763e751f271146100c9575f80fd5b34610100576020366003190112610100576100fc6100e8600435610b68565b604051918291602083526020830190610a20565b0390f35b5f80fd5b34610100575f366003190112610100576020600454604051908152f35b3461010057602036600319011261010057600435335f525f60205260ff60405f205416156101b057805f52600260205260405f208054600160ff8260081c1661016981610a16565b036101a15761ff00191661030017905533907f56a54393c88fb71d37dc109609d88e0b586637deb2452aef5f41d3eb32adedfc5f80a3005b63ccbc0d7160e01b5f5260045ffd5b63143606b960e31b5f5260045ffd5b34610100575f3660031901126101005760206040517f00000000000000000000000000000000000000000000000000000000000000008152f35b34610100575f36600319011261010057602060ff600554166040519015158152f35b34610100575f3660031901126101005760206040516202a3008152f35b3461010057602036600319011261010057600435335f525f60205260ff60405f205416156101b057805f52600260205260405f20600160ff825460081c1661027f81610a16565b036101a1575f82815260036020908152604080832033845290915290205460ff1661032557600290825f52600360205260405f2060018060a01b0333165f5260205260405f20600160ff19825416179055019081549160018301809311610311578290556040519182527f10297faee11712adae652a62361fee2a6409a3c59181f207315794f7e63a25d860203393a3005b634e487b7160e01b5f52601160045260245ffd5b63080fc0bd60e11b5f5260045ffd5b34610100576020366003190112610100576004356001600160a01b03811690819003610100575f525f602052602060ff60405f2054166040519015158152f35b34610100575f366003190112610100576020600154604051908152f35b34610100575f3660031901126101005760206040517f00000000000000000000000000000000000000000000000000000000000000008152f35b346101005760403660031901126101005760043560243567ffffffffffffffff8111610100576103ff9036906004016109c7565b60405160208101906e454d455247454e43595f504155534560881b82523060408201524660608201528460808201526080815261043d60a082610a52565b5190209160045493600185019081861161031157036104e65761045f92610fb6565b7f0000000000000000000000000000000000000000000000000000000000000000116104d75761048e90610a44565b60045560055460ff81161561049f57005b60019060ff1916176005557f878ac8a2ca79520471f8f3c8494fa802c03ce3bf034252aad7f22318984fdbdb602060405160018152a1005b63702e0d4560e11b5f5260045ffd5b60405162461bcd60e51b81526020600482015260116024820152707374616c65207061757365206e6f6e636560781b6044820152606490fd5b34610100575f3660031901126101005760206040517f000000000000000000000000000000000000000000000000000000000000000015158152f35b34610100576020366003190112610100576004355f52600260205260405f208054906100fc60ff8360081c169160018101549061059f600360028301549201610aac565b916040519586956105b38760ff84166109f5565b6105bc81610a16565b602087015260101c6001600160a01b031660408601526060850152608084015260c060a08401819052830190610a20565b34610100575f3660031901126101005760206040517f00000000000000000000000000000000000000000000000000000000000000008152f35b346101005760603660031901126101005760043560058110156101005761064c6109b1565b9060443567ffffffffffffffff81116101005761066d9036906004016109c7565b919091335f525f60205260ff60405f205416156101b057811561095957610695600454610a44565b928360045560405191602083016106ac81866109f5565b6001600160a01b0387166040850181905260c0606086015260e085018390529382846101008301375f6101008483010152601f83019660808201523060a08201524660c082015261071061010082601f198a1681010301601f198101835282610a52565b51902094855f52600260205260405f209687549060ff8260081c1661073481610a16565b6101a15761ffff1990911660ff8716176101001762010000600160b01b03191660109190911b62010000600160b01b0316178755600387019267ffffffffffffffff83116109455782916107888554610a74565b90601f82116108fc575b50505f90601f8311600114610895575f9261088a575b50508160011b915f199060031b1c19161790555b7f0000000000000000000000000000000000000000000000000000000000000000420180421161031157600160028682602098019384550155835f526003855260405f2060018060a01b0333165f52855260405f20600160ff198254161790555461082a60405180946109f5565b84830152827f44e347b6fe231ab191f122fd266d23ccc5565dfae3c338ba90762b1cae39e6f360403394a460405160018152817f10297faee11712adae652a62361fee2a6409a3c59181f207315794f7e63a25d8843393a3604051908152f35b0135905087806107a8565b909150601f19831691845f5260205f20925f5b8181106108e457509084600195949392106108cb575b505050811b0190556107bc565b01355f19600384901b60f8161c191690558780806108be565b919360206001819287870135815501950192016108a8565b90919250845f5260205f209060051c8101916020851061093b575b90601f859493920160051c01905b81811015610792575f8155849350600101610925565b9091508190610917565b634e487b7160e01b5f52604160045260245ffd5b6302b79ed360e41b5f5260045ffd5b34610100576040366003190112610100576109816109b1565b6004355f52600360205260405f209060018060a01b03165f52602052602060ff60405f2054166040519015158152f35b602435906001600160a01b038216820361010057565b9181601f840112156101005782359167ffffffffffffffff8311610100576020838186019501011161010057565b906005821015610a025752565b634e487b7160e01b5f52602160045260245ffd5b60041115610a0257565b805180835260209291819084018484015e5f828201840152601f01601f1916010190565b5f1981146103115760010190565b90601f8019910116810190811067ffffffffffffffff82111761094557604052565b90600182811c92168015610aa2575b6020831014610a8e57565b634e487b7160e01b5f52602260045260245ffd5b91607f1691610a83565b9060405191825f825492610abf84610a74565b8084529360018116908115610b2a5750600114610ae6575b50610ae492500383610a52565b565b90505f9291925260205f20905f915b818310610b0e575050906020610ae4928201015f610ad7565b6020919350806001915483858901015201910190918492610af5565b905060209250610ae494915060ff191682840152151560051b8201015f610ad7565b67ffffffffffffffff811161094557601f01601f191660200190565b90815f52600260205260405f208054600160ff8260081c16610b8981610a16565b036101a1576002820154907f0000000000000000000000000000000000000000000000000000000000000000809210610f675760018301544210610f585761ff0019811661020017835560ff166005811015610a0257600314610da5575060ff8154166005811015610a0257600414610d2957600360018060a01b03825460101c169101604051905f90805490610c1f82610a74565b9160018116908115610d125750600114610ce0575b505091815f809493819403925af1913d15610cd9573d610c5381610b4c565b90610c616040519283610a52565b81523d5f602083013e5b809315610cb057610cab7fc647ba6bbb513ea3005ab955e9e8920be0c47f2427c5aabff8e98c18c1837da891604051918291602083526020830190610a20565b0390a2565b604051631cbc47b560e01b815260206004820152908190610cd5906024830190610a20565b0390fd5b6060610c6b565b9091505f5260205f205f905b828210610cfe5750508101815f610c34565b600181602092548487015201910190610cec565b60ff1916855250508015150282019050815f610c34565b509060ff19600554166005557f878ac8a2ca79520471f8f3c8494fa802c03ce3bf034252aad7f22318984fdbdb60206040515f8152a16040805160208082525f908201527fc647ba6bbb513ea3005ab955e9e8920be0c47f2427c5aabff8e98c18c1837da89190a2604051610d9f602082610a52565b5f815290565b906003610db59194939401610aac565b60408180518101031261010057610dda6040610dd3602084016111d2565b92016111d2565b6001600160a01b03908116911680610ee7575b5080610e74575b50600154908110610e65577f000000000000000000000000000000000000000000000000000000000000000010610e65576040805160208082525f908201527fc647ba6bbb513ea3005ab955e9e8920be0c47f2427c5aabff8e98c18c1837da89190a2604051610d9f602082610a52565b63719feac760e01b5f5260045ffd5b805f525f60205260ff60405f205416610ed857805f525f60205260405f20600160ff1982541617905560015460018101809111610311576001557f47d1c22a25bb3a5d4e481b9b1e6944c2eade3181a0a20b495ed61d35b5323f245f80a25f610df4565b633b90338360e11b5f5260045ffd5b805f525f60205260ff60405f20541615610f4957805f525f60205260405f2060ff1981541690556001545f198101908111610311576001557f3525e22824a8a7df2c9a6029941c824cf95b6447f1e13d5128fd3826d35afe8b5f80a25f610ded565b635e4b9f7560e01b5f5260045ffd5b634a44555360e11b5f5260045ffd5b6359fa4a9360e01b5f5260045ffd5b67ffffffffffffffff81116109455760051b60200190565b8051821015610fa25760209160051b010190565b634e487b7160e01b5f52603260045260245ffd5b909291925f93604181066111ca576041810492610fd284610f76565b91610fe06040519384610a52565b848352601f19610fef86610f76565b013660208501377f19457468657265756d205369676e6564204d6573736167653a0a3332000000005f5281601c52603c5f20935f5b8681106110345750505050505050565b604181028181046041148215171561031157600182019081831161031157604182029180830460411490151715610311578181116101005784821161010057808401910361108181610b4c565b9161108f6040519384610a52565b818352368282011161010057815f9260209283860137830101526110b381866111e6565b50919080926110c181610a16565b15908115916111a8575b50611151575b505f5f5b8b811061111c575b50156110ef575b506001905b01611024565b6110fc8a879b939b610f8e565b6001600160a01b03909116905260018101908110610311579760016110e4565b6001600160a01b0361112e828a610f8e565b51166001600160a01b03841614611147576001016110d5565b505060015f6110dd565b61115c9150876111e6565b50819061116881610a16565b1590811591611186575b5061117d575f6110d1565b506001906110e9565b6001600160a01b03165f9081526020819052604081205460ff16159150611172565b6001600160a01b03165f9081526020819052604081205460ff161591506110cb565b505f93505050565b51906001600160a01b038216820361010057565b81519190604183036112165761120f9250602082015190606060408401519301515f1a90611220565b9192909190565b50505f9160029190565b91907f7fffffffffffffffffffffffffffffff5d576e7357a4501ddfe92f46681b20a084116112a2579160209360809260ff5f9560405194855216868401526040830152606082015282805260015afa15611297575f516001600160a01b0381161561128d57905f905f90565b505f906001905f90565b6040513d5f823e3d90fd5b5050505f916003919056fea264697066735822122051182fc917bb751785f0bb8cc852575400095e95803f28aa0934f9c42fa4b04b64736f6c634300081c0033","linkReferences":{}},"methodIdentifiers":{"MINIMUM_PROD_TIMELOCK()":"ae5830c1","allowZeroTimelock()":"57f2792c","approve(bytes32)":"a53a1adf","cancel(bytes32)":"c4d252f5","emergencyPause(uint256,bytes)":"5bf280ae","execute(bytes32)":"e751f271","getProposal(bytes32)":"430694cf","hasApproved(bytes32,address)":"23cdc3f1","isPaused()":"b187bd26","isSigner(address)":"7df73e27","maxMembers()":"bf4386a0","proposalNonce()":"cc3c74a1","propose(uint8,address,bytes)":"2afaa3cb","signerCount()":"7ca548c6","threshold()":"42cde4e8","timelockSeconds()":"65a1f3c3"},"id":146}