{"abi":[{"type":"constructor","inputs":[{"name":"relationships","type":"address","internalType":"address"},{"name":"typeRegistry","type":"address","internalType":"address"}],"stateMutability":"nonpayable"},{"type":"function","name":"RELATIONSHIPS","inputs":[],"outputs":[{"name":"","type":"address","internalType":"contract AgentRelationship"}],"stateMutability":"view"},{"type":"function","name":"TYPE_REGISTRY","inputs":[],"outputs":[{"name":"","type":"address","internalType":"contract RelationshipTypeRegistry"}],"stateMutability":"view"},{"type":"function","name":"directSourcesOf","inputs":[{"name":"agent","type":"address","internalType":"address"},{"name":"relationType","type":"bytes32","internalType":"bytes32"}],"outputs":[{"name":"","type":"address[]","internalType":"address[]"}],"stateMutability":"view"},{"type":"function","name":"directTargetsOf","inputs":[{"name":"agent","type":"address","internalType":"address"},{"name":"relationType","type":"bytes32","internalType":"bytes32"}],"outputs":[{"name":"","type":"address[]","internalType":"address[]"}],"stateMutability":"view"},{"type":"function","name":"isHierarchicalType","inputs":[{"name":"relationType","type":"bytes32","internalType":"bytes32"}],"outputs":[{"name":"","type":"bool","internalType":"bool"}],"stateMutability":"view"},{"type":"function","name":"isTransitiveType","inputs":[{"name":"relationType","type":"bytes32","internalType":"bytes32"}],"outputs":[{"name":"","type":"bool","internalType":"bool"}],"stateMutability":"view"}],"bytecode":{"object":"0x60c0346100a057601f610a6538819003918201601f19168301916001600160401b038311848410176100a45780849260409485528339810103126100a057610052602061004b836100b8565b92016100b8565b6001600160a01b039182166080521660a05260405161099890816100cd823960805181818161013c0152818161035c01526103ba015260a051818181608c015281816105c501526106380152f35b5f80fd5b634e487b7160e01b5f52604160045260245ffd5b51906001600160a01b03821682036100a05756fe6080806040526004361015610012575f80fd5b5f3560e01c90816302ff24ed14610626575080633113629314610597578063599d98971461038b578063a96d4bef14610347578063b366d7a21461010d5763b39bcf281461005e575f80fd5b34610109576020366003190112610109576040516319f789fd60e11b815260048035908201526020816024817f00000000000000000000000000000000000000000000000000000000000000006001600160a01b03165afa80156100fe576020915f916100d1575b506040519015158152f35b6100f19150823d84116100f7575b6100e981836106cf565b810190610705565b5f6100c6565b503d6100df565b6040513d5f823e3d90fd5b5f80fd5b346101095761011b36610667565b60405163d3b0657960e01b81526001600160a01b03928316600482015290917f0000000000000000000000000000000000000000000000000000000000000000165f82602481845afa9182156100fe575f92610323575b5061017d82516107af565b5f90841515825b85518110156102d45761019781876107e1565b5160405190637ed1449760e11b825260048201525f81602481895afa9081156100fe575f916102b2575b50608081018051600781101561029e57600314159081610288575b5061027157828061027a575b610271575f5f5b868110610237575b5015610209575b506001905b01610184565b60400151909360019161023091906001600160a01b031661022a82876107e1565b52610940565b93906101fe565b6001600160a01b0361024982886107e1565b5160408501516001600160a01b0316911614610267576001016101ef565b50506001896101f7565b50600190610203565b5087606082015114156101e8565b905051600781101561029e5760021415896101dc565b634e487b7160e01b5f52602160045260245ffd5b6102ce91503d805f833e6102c681836106cf565b81019061081d565b886101c1565b82846102df816107af565b915f5b8281106102fb57604051806102f7868261068d565b0390f35b6001906001600160a01b0361031082856107e1565b511661031c82876107e1565b52016102e2565b6103409192503d805f833e61033881836106cf565b810190610735565b9083610172565b34610109575f366003190112610109576040517f00000000000000000000000000000000000000000000000000000000000000006001600160a01b03168152602090f35b346101095761039936610667565b6040516334de9dcd60e01b81526001600160a01b03928316600482015290917f0000000000000000000000000000000000000000000000000000000000000000165f82602481845afa9182156100fe575f9261057b575b506103fb82516107af565b5f90841515825b85518110156105305761041581876107e1565b5160405190637ed1449760e11b825260048201525f81602481895afa9081156100fe575f91610516575b50608081018051600781101561029e57600314159081610500575b506104e95782806104f2575b6104e9575f5f5b8681106104af575b5015610487575b506001905b01610402565b6020015190936001916104a891906001600160a01b031661022a82876107e1565b939061047c565b6001600160a01b036104c182886107e1565b5160208501516001600160a01b03169116146104df5760010161046d565b5050600189610475565b50600190610481565b508760608201511415610466565b905051600781101561029e57600214158961045a565b61052a91503d805f833e6102c681836106cf565b8861043f565b828461053b816107af565b915f5b82811061055357604051806102f7868261068d565b6001906001600160a01b0361056882856107e1565b511661057482876107e1565b520161053e565b6105909192503d805f833e61033881836106cf565b90836103f0565b34610109576020366003190112610109576040516331a86c8360e21b815260048035908201526020816024817f00000000000000000000000000000000000000000000000000000000000000006001600160a01b03165afa80156100fe576020915f9161060957506040519015158152f35b6106209150823d84116100f7576100e981836106cf565b826100c6565b34610109575f366003190112610109577f00000000000000000000000000000000000000000000000000000000000000006001600160a01b03168152602090f35b6040906003190112610109576004356001600160a01b0381168103610109579060243590565b60206040818301928281528451809452019201905f5b8181106106b05750505090565b82516001600160a01b03168452602093840193909201916001016106a3565b90601f8019910116810190811067ffffffffffffffff8211176106f157604052565b634e487b7160e01b5f52604160045260245ffd5b90816020910312610109575180151581036101095790565b67ffffffffffffffff81116106f15760051b60200190565b6020818303126101095780519067ffffffffffffffff821161010957019080601f830112156101095781516107698161071d565b9261077760405194856106cf565b81845260208085019260051b82010192831161010957602001905b82821061079f5750505090565b8151815260209182019101610792565b906107b98261071d565b6107c660405191826106cf565b82815280926107d7601f199161071d565b0190602036910137565b80518210156107f55760209160051b010190565b634e487b7160e01b5f52603260045260245ffd5b51906001600160a01b038216820361010957565b6020818303126101095780519067ffffffffffffffff8211610109570190610120828203126101095760405191610120830183811067ffffffffffffffff8211176106f1576040528051835261087560208201610809565b602084015261088660408201610809565b604084015260608101516060840152608081015160078110156101095760808401526108b460a08201610809565b60a084015260c081015160c084015260e081015160e08401526101008101519067ffffffffffffffff8211610109570181601f820112156101095780519067ffffffffffffffff82116106f15760405192610919601f8401601f1916602001856106cf565b8284526020838301011161010957815f9260208093018386015e8301015261010082015290565b5f19811461094e5760010190565b634e487b7160e01b5f52601160045260245ffdfea26469706673582212207b2a3679460d08f70a10eff8a5e2dcd41426d6d94831f079b8ce13f5cad9339864736f6c634300081c0033","linkReferences":{}},"methodIdentifiers":{"RELATIONSHIPS()":"a96d4bef","TYPE_REGISTRY()":"02ff24ed","directSourcesOf(address,bytes32)":"599d9897","directTargetsOf(address,bytes32)":"b366d7a2","isHierarchicalType(bytes32)":"31136293","isTransitiveType(bytes32)":"b39bcf28"},"id":77}