{"abi":[{"type":"function","name":"enforceCaveat","inputs":[{"name":"terms","type":"bytes","internalType":"bytes"},{"name":"","type":"address","internalType":"address"},{"name":"","type":"address","internalType":"address"},{"name":"value","type":"uint256","internalType":"uint256"},{"name":"","type":"bytes","internalType":"bytes"}],"outputs":[{"name":"","type":"bool","internalType":"bool"}],"stateMutability":"pure"}],"bytecode":{"object":"0x6080604052348015600e575f5ffd5b506101b98061001c5f395ff3fe608060405234801561000f575f5ffd5b5060043610610029575f3560e01c80635a6cdb641461002d575b5f5ffd5b61004061003b3660046100d2565b610054565b604051901515815260200160405180910390f35b5f80610062888a018a61016c565b9094111598975050505050505050565b5f5f83601f840112610082575f5ffd5b50813567ffffffffffffffff811115610099575f5ffd5b6020830191508360208285010111156100b0575f5ffd5b9250929050565b80356001600160a01b03811681146100cd575f5ffd5b919050565b5f5f5f5f5f5f5f60a0888a0312156100e8575f5ffd5b873567ffffffffffffffff8111156100fe575f5ffd5b61010a8a828b01610072565b909850965061011d9050602089016100b7565b945061012b604089016100b7565b935060608801359250608088013567ffffffffffffffff81111561014d575f5ffd5b6101598a828b01610072565b989b979a50959850939692959293505050565b5f6020828403121561017c575f5ffd5b503591905056fea26469706673582212203812a12957d6f5465d1b1772f620929b674f0520cb2024322ee75a2b0cda409a64736f6c634300081c0033","linkReferences":{}},"methodIdentifiers":{"enforceCaveat(bytes,address,address,uint256,bytes)":"5a6cdb64"},"id":15}