{"abi":[{"type":"constructor","inputs":[],"stateMutability":"nonpayable"},{"type":"function","name":"createSender","inputs":[{"name":"initCode","type":"bytes","internalType":"bytes"}],"outputs":[{"name":"sender","type":"address","internalType":"address"}],"stateMutability":"nonpayable"},{"type":"function","name":"entryPoint","inputs":[],"outputs":[{"name":"","type":"address","internalType":"address"}],"stateMutability":"view"},{"type":"function","name":"initEip7702Sender","inputs":[{"name":"sender","type":"address","internalType":"address"},{"name":"initCallData","type":"bytes","internalType":"bytes"}],"outputs":[],"stateMutability":"nonpayable"},{"type":"error","name":"FailedOpWithRevert","inputs":[{"name":"opIndex","type":"uint256","internalType":"uint256"},{"name":"reason","type":"string","internalType":"string"},{"name":"inner","type":"bytes","internalType":"bytes"}]},{"type":"error","name":"NotFromEntryPoint","inputs":[{"name":"msgSender","type":"address","internalType":"address"},{"name":"entity","type":"address","internalType":"address"},{"name":"entryPoint","type":"address","internalType":"address"}]}],"bytecode":{"object":"0x60a0604052348015600e575f5ffd5b50336080526080516104f36100375f395f818160770152818160b301526101aa01526104f35ff3fe608060405234801561000f575f5ffd5b506004361061003f575f3560e01c8063570e1a3614610043578063b0d691fe14610072578063c09ad0d914610099575b5f5ffd5b610056610051366004610286565b6100ae565b6040516001600160a01b03909116815260200160405180910390f35b6100567f000000000000000000000000000000000000000000000000000000000000000081565b6100ac6100a7366004610308565b6101a6565b005b5f33307f00000000000000000000000000000000000000000000000000000000000000006001600160a01b038116831461011c5760405163fe34a6d360e01b81526001600160a01b039384166004820152918316602483015290911660448201526064015b60405180910390fd5b505f915061012f905060148285876103d9565b61013891610400565b60601c90505f61014b84601481886103d9565b8080601f0160208091040260200160405190810160405280939291908181526020018383808284375f92018290525084519495509360209350849250905082850182875af19050801561019d575f5193505b50505092915050565b33307f00000000000000000000000000000000000000000000000000000000000000006001600160a01b038116831461020e5760405163fe34a6d360e01b81526001600160a01b03938416600482015291831660248301529091166044820152606401610113565b5050505f5f5f8351602085015f875af1905080610250575f610231610800610255565b90505f816040516365c8fd4d60e01b815260040161011392919061044d565b505050565b60603d821561026957828111156102695750815b604051602082018101604052818152815f602083013e9392505050565b5f5f60208385031215610297575f5ffd5b823567ffffffffffffffff8111156102ad575f5ffd5b8301601f810185136102bd575f5ffd5b803567ffffffffffffffff8111156102d3575f5ffd5b8560208284010111156102e4575f5ffd5b6020919091019590945092505050565b634e487b7160e01b5f52604160045260245ffd5b5f5f60408385031215610319575f5ffd5b82356001600160a01b038116811461032f575f5ffd5b9150602083013567ffffffffffffffff81111561034a575f5ffd5b8301601f8101851361035a575f5ffd5b803567ffffffffffffffff811115610374576103746102f4565b604051601f8201601f19908116603f0116810167ffffffffffffffff811182821017156103a3576103a36102f4565b6040528181528282016020018710156103ba575f5ffd5b816020840160208301375f602083830101528093505050509250929050565b5f5f858511156103e7575f5ffd5b838611156103f3575f5ffd5b5050820193919092039150565b80356bffffffffffffffffffffffff198116906014841015610446576bffffffffffffffffffffffff196bffffffffffffffffffffffff198560140360031b1b82161691505b5092915050565b82815260606020820152601f60608201527f4141313320454950373730322073656e64657220696e6974206661696c656400608082015260a060408201525f82518060a0840152806020850160c085015e5f60c0828501015260c0601f19601f830116840101915050939250505056fea26469706673582212203ace599a7ecd76d7bb2866c2273c646382df74229fed16955f442be962711b8364736f6c634300081c0033","linkReferences":{}},"methodIdentifiers":{"createSender(bytes)":"570e1a36","entryPoint()":"b0d691fe","initEip7702Sender(address,bytes)":"c09ad0d9"},"id":5}