{"abi":[{"type":"function","name":"DIM_ACCURACY","inputs":[],"outputs":[{"name":"","type":"bytes32","internalType":"bytes32"}],"stateMutability":"view"},{"type":"function","name":"DIM_COMPLIANCE","inputs":[],"outputs":[{"name":"","type":"bytes32","internalType":"bytes32"}],"stateMutability":"view"},{"type":"function","name":"DIM_HELPFULNESS","inputs":[],"outputs":[{"name":"","type":"bytes32","internalType":"bytes32"}],"stateMutability":"view"},{"type":"function","name":"DIM_RELIABILITY","inputs":[],"outputs":[{"name":"","type":"bytes32","internalType":"bytes32"}],"stateMutability":"view"},{"type":"function","name":"DIM_RESPONSIVENESS","inputs":[],"outputs":[{"name":"","type":"bytes32","internalType":"bytes32"}],"stateMutability":"view"},{"type":"function","name":"DIM_SAFETY","inputs":[],"outputs":[{"name":"","type":"bytes32","internalType":"bytes32"}],"stateMutability":"view"},{"type":"function","name":"DIM_TRANSPARENCY","inputs":[],"outputs":[{"name":"","type":"bytes32","internalType":"bytes32"}],"stateMutability":"view"},{"type":"function","name":"REC_DISPUTES","inputs":[],"outputs":[{"name":"","type":"bytes32","internalType":"bytes32"}],"stateMutability":"view"},{"type":"function","name":"REC_ENDORSES","inputs":[],"outputs":[{"name":"","type":"bytes32","internalType":"bytes32"}],"stateMutability":"view"},{"type":"function","name":"REC_FLAGS","inputs":[],"outputs":[{"name":"","type":"bytes32","internalType":"bytes32"}],"stateMutability":"view"},{"type":"function","name":"REC_NEUTRAL","inputs":[],"outputs":[{"name":"","type":"bytes32","internalType":"bytes32"}],"stateMutability":"view"},{"type":"function","name":"REC_RECOMMENDS","inputs":[],"outputs":[{"name":"","type":"bytes32","internalType":"bytes32"}],"stateMutability":"view"},{"type":"function","name":"REVIEW_COMPLIANCE","inputs":[],"outputs":[{"name":"","type":"bytes32","internalType":"bytes32"}],"stateMutability":"view"},{"type":"function","name":"REVIEW_PERFORMANCE","inputs":[],"outputs":[{"name":"","type":"bytes32","internalType":"bytes32"}],"stateMutability":"view"},{"type":"function","name":"REVIEW_QUALITY","inputs":[],"outputs":[{"name":"","type":"bytes32","internalType":"bytes32"}],"stateMutability":"view"},{"type":"function","name":"REVIEW_SAFETY","inputs":[],"outputs":[{"name":"","type":"bytes32","internalType":"bytes32"}],"stateMutability":"view"},{"type":"function","name":"REVIEW_TRUST","inputs":[],"outputs":[{"name":"","type":"bytes32","internalType":"bytes32"}],"stateMutability":"view"},{"type":"function","name":"appendResponse","inputs":[{"name":"reviewId","type":"uint256","internalType":"uint256"},{"name":"responseURI","type":"string","internalType":"string"},{"name":"responseHash","type":"bytes32","internalType":"bytes32"}],"outputs":[],"stateMutability":"nonpayable"},{"type":"function","name":"createReview","inputs":[{"name":"reviewer","type":"address","internalType":"address"},{"name":"subject","type":"address","internalType":"address"},{"name":"reviewType","type":"bytes32","internalType":"bytes32"},{"name":"recommendation","type":"bytes32","internalType":"bytes32"},{"name":"overallScore","type":"uint8","internalType":"uint8"},{"name":"dimensions","type":"tuple[]","internalType":"struct AgentReviewRecord.DimensionScore[]","components":[{"name":"dimension","type":"bytes32","internalType":"bytes32"},{"name":"score","type":"uint8","internalType":"uint8"}]},{"name":"comment","type":"string","internalType":"string"},{"name":"evidenceURI","type":"string","internalType":"string"}],"outputs":[{"name":"reviewId","type":"uint256","internalType":"uint256"}],"stateMutability":"nonpayable"},{"type":"function","name":"getAverageScore","inputs":[{"name":"subject","type":"address","internalType":"address"}],"outputs":[{"name":"avg","type":"uint256","internalType":"uint256"},{"name":"count","type":"uint256","internalType":"uint256"}],"stateMutability":"view"},{"type":"function","name":"getDimensions","inputs":[{"name":"reviewId","type":"uint256","internalType":"uint256"}],"outputs":[{"name":"","type":"tuple[]","internalType":"struct AgentReviewRecord.DimensionScore[]","components":[{"name":"dimension","type":"bytes32","internalType":"bytes32"},{"name":"score","type":"uint8","internalType":"uint8"}]}],"stateMutability":"view"},{"type":"function","name":"getResponseCount","inputs":[{"name":"reviewId","type":"uint256","internalType":"uint256"}],"outputs":[{"name":"","type":"uint256","internalType":"uint256"}],"stateMutability":"view"},{"type":"function","name":"getResponses","inputs":[{"name":"reviewId","type":"uint256","internalType":"uint256"}],"outputs":[{"name":"","type":"tuple[]","internalType":"struct AgentReviewRecord.Response[]","components":[{"name":"responder","type":"address","internalType":"address"},{"name":"responseURI","type":"string","internalType":"string"},{"name":"responseHash","type":"bytes32","internalType":"bytes32"},{"name":"createdAt","type":"uint256","internalType":"uint256"}]}],"stateMutability":"view"},{"type":"function","name":"getReview","inputs":[{"name":"reviewId","type":"uint256","internalType":"uint256"}],"outputs":[{"name":"","type":"tuple","internalType":"struct AgentReviewRecord.Review","components":[{"name":"reviewId","type":"uint256","internalType":"uint256"},{"name":"reviewer","type":"address","internalType":"address"},{"name":"subject","type":"address","internalType":"address"},{"name":"reviewType","type":"bytes32","internalType":"bytes32"},{"name":"recommendation","type":"bytes32","internalType":"bytes32"},{"name":"overallScore","type":"uint8","internalType":"uint8"},{"name":"signedValue","type":"int128","internalType":"int128"},{"name":"valueDecimals","type":"uint8","internalType":"uint8"},{"name":"tag1","type":"string","internalType":"string"},{"name":"tag2","type":"string","internalType":"string"},{"name":"endpoint","type":"string","internalType":"string"},{"name":"comment","type":"string","internalType":"string"},{"name":"evidenceURI","type":"string","internalType":"string"},{"name":"feedbackHash","type":"bytes32","internalType":"bytes32"},{"name":"createdAt","type":"uint256","internalType":"uint256"},{"name":"revoked","type":"bool","internalType":"bool"}]}],"stateMutability":"view"},{"type":"function","name":"getReviewers","inputs":[{"name":"subject","type":"address","internalType":"address"}],"outputs":[{"name":"","type":"address[]","internalType":"address[]"}],"stateMutability":"view"},{"type":"function","name":"getReviewsByReviewer","inputs":[{"name":"reviewer","type":"address","internalType":"address"}],"outputs":[{"name":"","type":"uint256[]","internalType":"uint256[]"}],"stateMutability":"view"},{"type":"function","name":"getReviewsBySubject","inputs":[{"name":"subject","type":"address","internalType":"address"}],"outputs":[{"name":"","type":"uint256[]","internalType":"uint256[]"}],"stateMutability":"view"},{"type":"function","name":"reviewCount","inputs":[],"outputs":[{"name":"","type":"uint256","internalType":"uint256"}],"stateMutability":"view"},{"type":"function","name":"revokeReview","inputs":[{"name":"reviewId","type":"uint256","internalType":"uint256"}],"outputs":[],"stateMutability":"nonpayable"},{"type":"event","name":"ResponseAppended","inputs":[{"name":"reviewId","type":"uint256","indexed":true,"internalType":"uint256"},{"name":"responder","type":"address","indexed":true,"internalType":"address"},{"name":"responseURI","type":"string","indexed":false,"internalType":"string"},{"name":"responseHash","type":"bytes32","indexed":false,"internalType":"bytes32"}],"anonymous":false},{"type":"event","name":"ReviewCreated","inputs":[{"name":"reviewId","type":"uint256","indexed":true,"internalType":"uint256"},{"name":"reviewer","type":"address","indexed":true,"internalType":"address"},{"name":"subject","type":"address","indexed":true,"internalType":"address"},{"name":"reviewType","type":"bytes32","indexed":false,"internalType":"bytes32"},{"name":"recommendation","type":"bytes32","indexed":false,"internalType":"bytes32"},{"name":"overallScore","type":"uint8","indexed":false,"internalType":"uint8"}],"anonymous":false},{"type":"event","name":"ReviewRevoked","inputs":[{"name":"reviewId","type":"uint256","indexed":true,"internalType":"uint256"},{"name":"revoker","type":"address","indexed":true,"internalType":"address"}],"anonymous":false},{"type":"error","name":"AlreadyRevoked","inputs":[]},{"type":"error","name":"InvalidScore","inputs":[]},{"type":"error","name":"NotAuthorized","inputs":[]},{"type":"error","name":"ReviewNotFound","inputs":[]},{"type":"error","name":"SelfFeedbackNotAllowed","inputs":[]}],"bytecode":{"object":"0x60808060405234601557611dbe908161001a8239f35b5f80fdfe6080806040526004361015610012575f80fd5b5f3560e01c9081630cf72a8014611a855750806314fef76114611a4b578063188448de1461196257806319f3742f146119285780632a7bd279146118b65780635a75fdcd1461187c57806367f188a4146118425780636cf1a796146115a357806371ee2ce11461146e5780637e653da2146109e35780638a6dccbc146109a95780638ba7a8f51461096f5780638fd1674f1461093557806391866d8c146108fb578063990581b6146106565780639c1eb3c814610590578063ad65c8af14610556578063bb62434f1461051c578063bb79226b146104e2578063c068f944146104a8578063c13bfd421461046e578063c1bd5842146103c6578063c280e33d1461038c578063d06509fd1461029b578063d81d806414610219578063dd8dd2ea146101df578063dee4571b146101b5578063e476737c1461017b5763eff5924f1461015b575f80fd5b34610177575f3660031901126101775760205f54604051908152f35b5f80fd5b34610177575f3660031901126101775760206040517f30987b70f981248bd9abc917127ad8e166a4f25730b30eb10141561980c1db7a8152f35b34610177576020366003190112610177576004355f526002602052602060405f2054604051908152f35b34610177575f3660031901126101775760206040517ffc56d60e2673ff4d0153a38470f3eee3bd706beb27296af9527af376772d03ec8152f35b34610177576020366003190112610177576001600160a01b0361023a611abd565b165f52600360205260405f206040519081602082549182815201915f5260205f20905f5b818110610285576102818561027581870382611b94565b60405191829182611ad3565b0390f35b825484526020909301926001928301920161025e565b34610177576020366003190112610177576102b4611abd565b6001600160a01b03165f90815260036020526040812080548291829190825b82811061031d57505050801580156102f6575b6040838382519182526020820152f35b90915061030957806040920490836102e6565b634e487b7160e01b5f52601260045260245ffd5b61033661032a8284611d3f565b90549060031b1c611d07565b5060ff600d820154161561034e575b506001016102d3565b600560ff9197929597015416810180911161037857945f1981146103785760018091019390610345565b634e487b7160e01b5f52601160045260245ffd5b34610177575f3660031901126101775760206040517fc09556dd968805492e89901dc8da0c801c89c7ea84a39445be7dc01d28638ead8152f35b34610177576020366003190112610177576004355f5481101561045f576103ec81611d07565b50600d81019081549060ff821661045057600101546001600160a01b031633036104415760ff1916600117905533907f2b57a915904cc74f3485f1adbd6c6ad6a8808440146e81aa06df13271ff660255f80a3005b63ea8e4eb560e01b5f5260045ffd5b63905e710760e01b5f5260045ffd5b6314a3be0560e31b5f5260045ffd5b34610177575f3660031901126101775760206040517ffc021335a38ffab8fa2324955373539d2fd8a32b12dd303779412d509ba6f5648152f35b34610177575f3660031901126101775760206040517f9483c6555311671808180ebfd5763806c4204ccd3e4c652277fb36f81650269a8152f35b34610177575f3660031901126101775760206040517fa1eb2346964b176c3d08e6c6b04e2b929868a55955036130721ea8930cffd68d8152f35b34610177575f3660031901126101775760206040517f08030e71665ed68c05a89d5970bbea7f25de43341480c9169469e06d331862498152f35b34610177575f3660031901126101775760206040517fe908b48d75f9e2a0df1bcf09c26ac40aa3c2712af496371ea08a0013320798398152f35b34610177576020366003190112610177576001600160a01b036105b1611abd565b165f52600560205260405f20604051806020835491828152019081935f5260205f20905f5b81811061063757505050816105ec910382611b94565b604051918291602083019060208452518091526040830191905f5b818110610615575050500390f35b82516001600160a01b0316845285945060209384019390920191600101610607565b82546001600160a01b03168452602090930192600192830192016105d6565b34610177576020366003190112610177576004355f6101e060405161067a81611b78565b8281528260208201528260408201528260608201528260808201528260a08201528260c08201528260e082015260606101008201526060610120820152606061014082015260606101608201526060610180820152826101a0820152826101c082015201525f5481101561045f576106f190611d07565b5060ff600d6040519261070384611b78565b8054845260018101546001600160a01b03908116602086015260028201541660408501526003810154606085015260048101546080850152600581015480841660a0860152600881901c600f0b60c086015260881c831660e085015261076b60068201611c49565b61010085015261077d60078201611c49565b61012085015261078f60088201611c49565b6101408501526107a160098201611c49565b6101608501526107b3600a8201611c49565b610180850152600b8101546101a0850152600c8101546101c085015201541615156101e08201526040518091602082528051602083015260018060a01b03602082015116604083015260018060a01b03604082015116606083015260608101516080830152608081015160a083015260ff60a08201511660c083015260c0810151600f0b60e083015260ff60e0820151166101008301526101e06108d66108be6108a661088e6108766101008701516102006101208a0152610220890190611b39565b610120870151888203601f19016101408a0152611b39565b610140860151878203601f1901610160890152611b39565b610160850151868203601f1901610180880152611b39565b610180840151858203601f19016101a0870152611b39565b916101a08101516101c08501526101c081015182850152015115156102008301520390f35b34610177575f3660031901126101775760206040517f0250609a08ac12d1d3f41fae98c9100c8aec55bfec7eae8a41fbd81b3e1e7e468152f35b34610177575f3660031901126101775760206040517f456c2829fd1f63706c19cedd73a0debb04e6c62abe0f1c313232fb4d092a17858152f35b34610177575f3660031901126101775760206040517fe14253ce236ee3d09df18d1ae625dea6e04977106abbd63f5aa9f718c3ebfaf78152f35b34610177575f3660031901126101775760206040517fbeacaa0a3633b076ab5341ee77afcf8a760b63b05d2bae9f0494cafb881fa5ac8152f35b3461017757610100366003190112610177576109fd611abd565b6024356001600160a01b03811681036101775760843560ff811681036101775760a435916001600160401b0383116101775736602384011215610177576001600160401b0383600401351161017757366024846004013560061b850101116101775760c4356001600160401b03811161017757610a7e903690600401611b0c565b94909360e4356001600160401b03811161017757610aa0903690600401611b0c565b9590606460ff87161161145f575f5b8360040135811061143057506001600160a01b038481169086161461142157610b88905f5497610b7b60405194610ae586611b78565b8a865260018060a01b038816602087015260018060a01b03891660408701526044356060870152606435608087015260ff8a1660a087015260ff8a165f0b60c08701525f60e087015260209b8c610b3f6040519182611b94565b5f8152610100880152604051610b558e82611b94565b5f8152610120880152604051610b6b8e82611b94565b5f81526101408801523691611bcc565b6101608501523691611bcc565b6101808201525f6101a0820152426101c08201525f6101e0820152600160401b861015610fb257600186015f55610bbe86611d07565b61140e578151815560208201516001820180546001600160a01b03199081166001600160a01b039384161790915560408401516002840180549092169216919091179055606082015160038201556080820151600482015560a082015160058201805460c085015160e086015171ffffffffffffffffffffffffffffffffffff1990921660ff949094169390931760089390931b70ffffffffffffffffffffffffffffffff00169290921760889290921b60ff60881b169190911790556101008201518051906001600160401b038211610fb2578190610ca16006850154611c11565b601f81116113c0575b508a90601f8311600114611356575f9261134b575b50508160011b915f199060031b1c19161760068201555b6101208201518051906001600160401b038211610fb2578190610cfc6007850154611c11565b601f81116112fd575b508a90601f8311600114611293575f92611288575b50508160011b915f199060031b1c19161760078201555b6101408201518051906001600160401b038211610fb2578190610d576008850154611c11565b601f811161123a575b508a90601f83116001146111d0575f926111c5575b50508160011b915f199060031b1c19161760088201555b6101608201518051906001600160401b038211610fb2578190610db26009850154611c11565b601f8111611177575b508a90601f831160011461110d575f92611102575b50508160011b915f199060031b1c19161760098201555b6101808201518051906001600160401b038211610fb257610e0b600a840154611c11565b601f81116110c0575b508990601f83116001146110515791806101e09492600d945f92611046575b50508160011b915f199060031b1c191617600a8201555b6101a0840151600b8201556101c0840151600c82015501910151151560ff801983541691161790555f5b81600401358110610fc657505060018060a01b0382165f5260038552610e9d8460405f20611d54565b60018060a01b0381165f5260048552610eb98460405f20611d54565b6001600160a01b038281165f9081526006875260408082209284168252918752205460ff1615610f35575b5060ff6040519260443584526064358685015216604083015260018060a01b031690827f74b7df7a55b5ca6ac81b37ae5b254a890a44bd9be6a1657e729fd3d596fff30360603393a4604051908152f35b6001600160a01b0382165f90815260058652604090208054600160401b811015610fb257610f6891600182018155611d3f565b81546001600160a01b0393841660039290921b82811b9085901b19909116179091559082165f90815260068652604080822092825291865220805460ff1916600117905584610ee4565b634e487b7160e01b5f52604160045260245ffd5b855f526001875260405f2090610fe481846004013560248601611ce9565b8254600160401b811015610fb2576001810180855581101561103257600161101f8b60ff9383975f52815f2090841b01948035865501611cf9565b9201911660ff1982541617905501610e74565b634e487b7160e01b5f52603260045260245ffd5b015190508c80610e33565b90601f19831691600a85015f528b5f20925f5b8d8282106110aa575050926001928592600d966101e0989610611092575b505050811b01600a820155610e4a565b01515f1960f88460031b161c191690558c8080611082565b6001859682939686015181550195019301611064565b600a84015f528a5f20601f840160051c81018c85106110fb575b601f830160051c820181106110f0575050610e14565b5f81556001016110da565b50806110da565b015190508a80610dd0565b600985015f9081528c81209350601f198516905b8d828210611161575050908460019594939210611149575b505050811b016009820155610de7565b01515f1960f88460031b161c191690558a8080611139565b6001859682939686015181550195019301611121565b909150600984015f528a5f20601f840160051c81018c85106111be575b90849392915b601f830160051c820181106111b0575050610dbb565b5f815585945060010161119a565b5080611194565b015190508a80610d75565b600885015f9081528c81209350601f198516905b8d82821061122457505090846001959493921061120c575b505050811b016008820155610d8c565b01515f1960f88460031b161c191690558a80806111fc565b60018596829396860151815501950193016111e4565b909150600884015f528a5f20601f840160051c81018c8510611281575b90849392915b601f830160051c82018110611273575050610d60565b5f815585945060010161125d565b5080611257565b015190508a80610d1a565b600785015f9081528c81209350601f198516905b8d8282106112e75750509084600195949392106112cf575b505050811b016007820155610d31565b01515f1960f88460031b161c191690558a80806112bf565b60018596829396860151815501950193016112a7565b909150600784015f528a5f20601f840160051c81018c8510611344575b90849392915b601f830160051c82018110611336575050610d05565b5f8155859450600101611320565b508061131a565b015190508a80610cbf565b600685015f9081528c81209350601f198516905b8d8282106113aa575050908460019594939210611392575b505050811b016006820155610cd6565b01515f1960f88460031b161c191690558a8080611382565b600185968293968601518155019501930161136a565b909150600684015f528a5f20601f840160051c81018c8510611407575b90849392915b601f830160051c820181106113f9575050610caa565b5f81558594506001016113e3565b50806113dd565b634e487b7160e01b5f525f60045260245ffd5b6339a2a7d960e21b5f5260045ffd5b606460ff611451602061144b85896004013560248b01611ce9565b01611cf9565b161161145f57600101610aaf565b631556136560e01b5f5260045ffd5b34610177576020366003190112610177576004355f52600260205260405f2080549061149982611bb5565b916114a76040519384611b94565b8083526020830180925f5260205f205f915b83831061155457848660405191829160208301906020845251809152604083019060408160051b85010192915f905b8282106114f757505050500390f35b919360019193955060208091603f19898203018552875190848060a01b038251168152606080611534858501516080878601526080850190611b39565b9360408101516040850152015191015296019201920185949391926114e8565b6004602060019260405161156781611b5d565b848060a01b03865416815261157d858701611c49565b8382015260028601546040820152600386015460608201528152019201920191906114b9565b34610177576060366003190112610177576004356024356001600160401b038111610177576115d6903690600401611b0c565b9091604435925f5482101561045f57821561181157815f52600260205260405f209360405161160481611b5d565b338152611612368685611bcc565b9560208201968752604082018381526060830191428352805490600160401b821015610fb25760018201808255821015611032575f5260205f209060021b019260018060a01b039060018060a01b03905116166bffffffffffffffffffffffff60a01b8454161783556001830197519788516001600160401b038111610fb25761169c8254611c11565b601f81116117cc575b506020601f82116001146117435790806003959493927f694a168f1a88bb00197ecc3534eb0011abf6c6456f112d083e7237bbf2658fd29a9b9c5f92611738575b50508160011b915f1990871b1c19161790555b5160028401555191015584604051926040845281604085015260608401375f6060868401015260208201526060813395601f80199101168101030190a3005b015190508c806116e6565b601f1982169a835f52815f209b5f5b8181106117b457509b60019284926003989796957f694a168f1a88bb00197ecc3534eb0011abf6c6456f112d083e7237bbf2658fd29d9e9f1061179d575b505050811b0190556116f9565b01515f1983891b60f8161c191690558c8080611790565b838301518e556001909d019c60209384019301611752565b825f5260205f20601f830160051c81019160208410611807575b601f0160051c01905b8181106117fc57506116a5565b5f81556001016117ef565b90915081906117e6565b60405162461bcd60e51b8152602060048201526009602482015268456d7074792055524960b81b6044820152606490fd5b34610177575f3660031901126101775760206040517f3357f276b834114aeea80f8294805a663cda6771697b9f0b8ced721212743e1e8152f35b34610177575f3660031901126101775760206040517f85f6e4e5ed64ffdd8f62f842db1743828f4b2926252a6a34acd5b5bfae7a0acf8152f35b34610177576020366003190112610177576001600160a01b036118d7611abd565b165f52600460205260405f206040519081602082549182815201915f5260205f20905f5b818110611912576102818561027581870382611b94565b82548452602090930192600192830192016118fb565b34610177575f3660031901126101775760206040517f9a3d21aa36af8c2791986c315ee51252de6194bbeec8aea34bf6c79890f252dd8152f35b34610177576020366003190112610177576004355f52600160205260405f2080549061198d82611bb5565b9161199b6040519384611b94565b808352602083019081925f5260205f20915f905b828210611a09578486604051918291602083019060208452518091526040830191905f5b8181106119e1575050500390f35b82518051855260209081015160ff1681860152869550604090940193909201916001016119d3565b604051604081018181106001600160401b03821117610fb2576001926002926020926040528754815260ff8589015416838201528152019401910190926119af565b34610177575f3660031901126101775760206040517f26a8c6f528524fdd4a8f4f472ede839bdf0b150dd519c6baac03d86c18f1f19b8152f35b34610177575f36600319011261017757807fa1243b50c1b03c82eafbd72fd9af5087facfe3675e454fdd3603ab61378c95bf60209252f35b600435906001600160a01b038216820361017757565b60206040818301928281528451809452019201905f5b818110611af65750505090565b8251845260209384019390920191600101611ae9565b9181601f84011215610177578235916001600160401b038311610177576020838186019501011161017757565b805180835260209291819084018484015e5f828201840152601f01601f1916010190565b608081019081106001600160401b03821117610fb257604052565b61020081019081106001600160401b03821117610fb257604052565b90601f801991011681019081106001600160401b03821117610fb257604052565b6001600160401b038111610fb25760051b60200190565b9291926001600160401b038211610fb25760405191611bf5601f8201601f191660200184611b94565b829481845281830111610177578281602093845f960137010152565b90600182811c92168015611c3f575b6020831014611c2b57565b634e487b7160e01b5f52602260045260245ffd5b91607f1691611c20565b9060405191825f825492611c5c84611c11565b8084529360018116908115611cc75750600114611c83575b50611c8192500383611b94565b565b90505f9291925260205f20905f915b818310611cab575050906020611c81928201015f611c74565b6020919350806001915483858901015201910190918492611c92565b905060209250611c8194915060ff191682840152151560051b8201015f611c74565b91908110156110325760061b0190565b3560ff811681036101775790565b5f54811015611032575f808052600e919091027f290decd9548b62a8d60345a988386fc84ba6bc95484008f6362f93160ef3e5630191565b8054821015611032575f5260205f2001905f90565b8054600160401b811015610fb257611d7191600182018155611d3f565b819291549060031b91821b915f19901b191617905556fea2646970667358221220527e0f4d781e032213935b9e3af67445d1426ac09794469a03b909854704777164736f6c634300081c0033","linkReferences":{}},"methodIdentifiers":{"DIM_ACCURACY()":"dd8dd2ea","DIM_COMPLIANCE()":"e476737c","DIM_HELPFULNESS()":"0cf72a80","DIM_RELIABILITY()":"bb62434f","DIM_RESPONSIVENESS()":"8ba7a8f5","DIM_SAFETY()":"c280e33d","DIM_TRANSPARENCY()":"67f188a4","REC_DISPUTES()":"19f3742f","REC_ENDORSES()":"5a75fdcd","REC_FLAGS()":"91866d8c","REC_NEUTRAL()":"c13bfd42","REC_RECOMMENDS()":"14fef761","REVIEW_COMPLIANCE()":"8fd1674f","REVIEW_PERFORMANCE()":"bb79226b","REVIEW_QUALITY()":"c068f944","REVIEW_SAFETY()":"ad65c8af","REVIEW_TRUST()":"8a6dccbc","appendResponse(uint256,string,bytes32)":"6cf1a796","createReview(address,address,bytes32,bytes32,uint8,(bytes32,uint8)[],string,string)":"7e653da2","getAverageScore(address)":"d06509fd","getDimensions(uint256)":"188448de","getResponseCount(uint256)":"dee4571b","getResponses(uint256)":"71ee2ce1","getReview(uint256)":"990581b6","getReviewers(address)":"9c1eb3c8","getReviewsByReviewer(address)":"2a7bd279","getReviewsBySubject(address)":"d81d8064","reviewCount()":"eff5924f","revokeReview(uint256)":"c1bd5842"},"id":76}