{"abi":[{"type":"function","name":"DIM_ACCURACY","inputs":[],"outputs":[{"name":"","type":"bytes32","internalType":"bytes32"}],"stateMutability":"view"},{"type":"function","name":"DIM_COMPLIANCE","inputs":[],"outputs":[{"name":"","type":"bytes32","internalType":"bytes32"}],"stateMutability":"view"},{"type":"function","name":"DIM_HELPFULNESS","inputs":[],"outputs":[{"name":"","type":"bytes32","internalType":"bytes32"}],"stateMutability":"view"},{"type":"function","name":"DIM_RELIABILITY","inputs":[],"outputs":[{"name":"","type":"bytes32","internalType":"bytes32"}],"stateMutability":"view"},{"type":"function","name":"DIM_RESPONSIVENESS","inputs":[],"outputs":[{"name":"","type":"bytes32","internalType":"bytes32"}],"stateMutability":"view"},{"type":"function","name":"DIM_SAFETY","inputs":[],"outputs":[{"name":"","type":"bytes32","internalType":"bytes32"}],"stateMutability":"view"},{"type":"function","name":"DIM_TRANSPARENCY","inputs":[],"outputs":[{"name":"","type":"bytes32","internalType":"bytes32"}],"stateMutability":"view"},{"type":"function","name":"REC_DISPUTES","inputs":[],"outputs":[{"name":"","type":"bytes32","internalType":"bytes32"}],"stateMutability":"view"},{"type":"function","name":"REC_ENDORSES","inputs":[],"outputs":[{"name":"","type":"bytes32","internalType":"bytes32"}],"stateMutability":"view"},{"type":"function","name":"REC_FLAGS","inputs":[],"outputs":[{"name":"","type":"bytes32","internalType":"bytes32"}],"stateMutability":"view"},{"type":"function","name":"REC_NEUTRAL","inputs":[],"outputs":[{"name":"","type":"bytes32","internalType":"bytes32"}],"stateMutability":"view"},{"type":"function","name":"REC_RECOMMENDS","inputs":[],"outputs":[{"name":"","type":"bytes32","internalType":"bytes32"}],"stateMutability":"view"},{"type":"function","name":"REVIEW_COMPLIANCE","inputs":[],"outputs":[{"name":"","type":"bytes32","internalType":"bytes32"}],"stateMutability":"view"},{"type":"function","name":"REVIEW_PERFORMANCE","inputs":[],"outputs":[{"name":"","type":"bytes32","internalType":"bytes32"}],"stateMutability":"view"},{"type":"function","name":"REVIEW_QUALITY","inputs":[],"outputs":[{"name":"","type":"bytes32","internalType":"bytes32"}],"stateMutability":"view"},{"type":"function","name":"REVIEW_SAFETY","inputs":[],"outputs":[{"name":"","type":"bytes32","internalType":"bytes32"}],"stateMutability":"view"},{"type":"function","name":"REVIEW_TRUST","inputs":[],"outputs":[{"name":"","type":"bytes32","internalType":"bytes32"}],"stateMutability":"view"},{"type":"function","name":"createReview","inputs":[{"name":"subject","type":"address","internalType":"address"},{"name":"reviewType","type":"bytes32","internalType":"bytes32"},{"name":"recommendation","type":"bytes32","internalType":"bytes32"},{"name":"overallScore","type":"uint8","internalType":"uint8"},{"name":"dimensions","type":"tuple[]","internalType":"struct AgentReviewRecord.DimensionScore[]","components":[{"name":"dimension","type":"bytes32","internalType":"bytes32"},{"name":"score","type":"uint8","internalType":"uint8"}]},{"name":"comment","type":"string","internalType":"string"},{"name":"evidenceURI","type":"string","internalType":"string"}],"outputs":[{"name":"reviewId","type":"uint256","internalType":"uint256"}],"stateMutability":"nonpayable"},{"type":"function","name":"getAverageScore","inputs":[{"name":"subject","type":"address","internalType":"address"}],"outputs":[{"name":"avg","type":"uint256","internalType":"uint256"},{"name":"count","type":"uint256","internalType":"uint256"}],"stateMutability":"view"},{"type":"function","name":"getDimensions","inputs":[{"name":"reviewId","type":"uint256","internalType":"uint256"}],"outputs":[{"name":"","type":"tuple[]","internalType":"struct AgentReviewRecord.DimensionScore[]","components":[{"name":"dimension","type":"bytes32","internalType":"bytes32"},{"name":"score","type":"uint8","internalType":"uint8"}]}],"stateMutability":"view"},{"type":"function","name":"getReview","inputs":[{"name":"reviewId","type":"uint256","internalType":"uint256"}],"outputs":[{"name":"","type":"tuple","internalType":"struct AgentReviewRecord.Review","components":[{"name":"reviewId","type":"uint256","internalType":"uint256"},{"name":"reviewer","type":"address","internalType":"address"},{"name":"subject","type":"address","internalType":"address"},{"name":"reviewType","type":"bytes32","internalType":"bytes32"},{"name":"recommendation","type":"bytes32","internalType":"bytes32"},{"name":"overallScore","type":"uint8","internalType":"uint8"},{"name":"comment","type":"string","internalType":"string"},{"name":"evidenceURI","type":"string","internalType":"string"},{"name":"createdAt","type":"uint256","internalType":"uint256"},{"name":"revoked","type":"bool","internalType":"bool"}]}],"stateMutability":"view"},{"type":"function","name":"getReviewsByReviewer","inputs":[{"name":"reviewer","type":"address","internalType":"address"}],"outputs":[{"name":"","type":"uint256[]","internalType":"uint256[]"}],"stateMutability":"view"},{"type":"function","name":"getReviewsBySubject","inputs":[{"name":"subject","type":"address","internalType":"address"}],"outputs":[{"name":"","type":"uint256[]","internalType":"uint256[]"}],"stateMutability":"view"},{"type":"function","name":"reviewCount","inputs":[],"outputs":[{"name":"","type":"uint256","internalType":"uint256"}],"stateMutability":"view"},{"type":"function","name":"revokeReview","inputs":[{"name":"reviewId","type":"uint256","internalType":"uint256"}],"outputs":[],"stateMutability":"nonpayable"},{"type":"event","name":"ReviewCreated","inputs":[{"name":"reviewId","type":"uint256","indexed":true,"internalType":"uint256"},{"name":"reviewer","type":"address","indexed":true,"internalType":"address"},{"name":"subject","type":"address","indexed":true,"internalType":"address"},{"name":"reviewType","type":"bytes32","indexed":false,"internalType":"bytes32"},{"name":"recommendation","type":"bytes32","indexed":false,"internalType":"bytes32"},{"name":"overallScore","type":"uint8","indexed":false,"internalType":"uint8"}],"anonymous":false},{"type":"event","name":"ReviewRevoked","inputs":[{"name":"reviewId","type":"uint256","indexed":true,"internalType":"uint256"},{"name":"revoker","type":"address","indexed":true,"internalType":"address"}],"anonymous":false},{"type":"error","name":"AlreadyRevoked","inputs":[]},{"type":"error","name":"InvalidScore","inputs":[]},{"type":"error","name":"NotAuthorized","inputs":[]},{"type":"error","name":"ReviewNotFound","inputs":[]}],"bytecode":{"object":"0x60808060405234601557611278908161001a8239f35b5f80fdfe6080806040526004361015610012575f80fd5b5f3560e01c9081630cf72a8014610f6d5750806314fef76114610f33578063188448de14610e3d57806319f3742f14610e035780632a7bd27914610d91578063546141ff146108345780635a75fdcd146107fa57806367f188a4146107c05780638a6dccbc146107865780638ba7a8f51461074c5780638fd1674f1461071257806391866d8c146106d8578063990581b61461053a578063ad65c8af14610500578063bb62434f146104c6578063bb79226b1461048c578063c068f94414610452578063c13bfd4214610418578063c1bd584214610370578063c280e33d14610336578063d06509fd14610245578063d81d8064146101c3578063dd8dd2ea14610189578063e476737c1461014f5763eff5924f1461012f575f80fd5b3461014b575f36600319011261014b5760205f54604051908152f35b5f80fd5b3461014b575f36600319011261014b5760206040517f30987b70f981248bd9abc917127ad8e166a4f25730b30eb10141561980c1db7a8152f35b3461014b575f36600319011261014b5760206040517ffc56d60e2673ff4d0153a38470f3eee3bd706beb27296af9527af376772d03ec8152f35b3461014b57602036600319011261014b576001600160a01b036101e4610fa5565b165f52600260205260405f206040519081602082549182815201915f5260205f20905f5b81811061022f5761022b8561021f81870382611063565b60405191829182610fbb565b0390f35b8254845260209093019260019283019201610208565b3461014b57602036600319011261014b5761025e610fa5565b6001600160a01b03165f90815260026020526040812080548291829190825b8281106102c757505050801580156102a0575b6040838382519182526020820152f35b9091506102b35780604092049083610290565b634e487b7160e01b5f52601260045260245ffd5b6102e06102d48284611159565b90549060031b1c6110e9565b5060ff600982015416156102f8575b5060010161027d565b600560ff9197929597015416810180911161032257945f19811461032257600180910193906102ef565b634e487b7160e01b5f52601160045260245ffd5b3461014b575f36600319011261014b5760206040517fc09556dd968805492e89901dc8da0c801c89c7ea84a39445be7dc01d28638ead8152f35b3461014b57602036600319011261014b576004355f5481101561040957610396816110e9565b50600981019081549060ff82166103fa57600101546001600160a01b031633036103eb5760ff1916600117905533907f2b57a915904cc74f3485f1adbd6c6ad6a8808440146e81aa06df13271ff660255f80a3005b63ea8e4eb560e01b5f5260045ffd5b63905e710760e01b5f5260045ffd5b6314a3be0560e31b5f5260045ffd5b3461014b575f36600319011261014b5760206040517ffc021335a38ffab8fa2324955373539d2fd8a32b12dd303779412d509ba6f5648152f35b3461014b575f36600319011261014b5760206040517f9483c6555311671808180ebfd5763806c4204ccd3e4c652277fb36f81650269a8152f35b3461014b575f36600319011261014b5760206040517fa1eb2346964b176c3d08e6c6b04e2b929868a55955036130721ea8930cffd68d8152f35b3461014b575f36600319011261014b5760206040517f08030e71665ed68c05a89d5970bbea7f25de43341480c9169469e06d331862498152f35b3461014b575f36600319011261014b5760206040517fe908b48d75f9e2a0df1bcf09c26ac40aa3c2712af496371ea08a0013320798398152f35b3461014b57602036600319011261014b576004355f61012060405161055e81611046565b8281528260208201528260408201528260608201528260808201528260a0820152606060c0820152606060e08201528261010082015201525f54811015610409576105aa6020916110e9565b5060405180916105b982611046565b805482526106c3826106af60018060a01b036001850154169387830194855260ff60018060a01b036002830154166040850190815260038301546060860190815260048401549060808701918252836005860154169260a08801938452846009610625600689016111a2565b9760c08b0198895260e061063b600783016111a2565b9b019a8b5261010060088201549e019d8e52015416996101208d019a15158b526040518e819f9e829f83525191015260018060a01b0390511660408d015260018060a01b0390511660608c01525160808b01525160a08a0152511660c08801525161014060e0880152610160870190611022565b9051858203601f1901610100870152611022565b91516101208401525115156101408301520390f35b3461014b575f36600319011261014b5760206040517f0250609a08ac12d1d3f41fae98c9100c8aec55bfec7eae8a41fbd81b3e1e7e468152f35b3461014b575f36600319011261014b5760206040517f456c2829fd1f63706c19cedd73a0debb04e6c62abe0f1c313232fb4d092a17858152f35b3461014b575f36600319011261014b5760206040517fe14253ce236ee3d09df18d1ae625dea6e04977106abbd63f5aa9f718c3ebfaf78152f35b3461014b575f36600319011261014b5760206040517fbeacaa0a3633b076ab5341ee77afcf8a760b63b05d2bae9f0494cafb881fa5ac8152f35b3461014b575f36600319011261014b5760206040517f3357f276b834114aeea80f8294805a663cda6771697b9f0b8ced721212743e1e8152f35b3461014b575f36600319011261014b5760206040517f85f6e4e5ed64ffdd8f62f842db1743828f4b2926252a6a34acd5b5bfae7a0acf8152f35b3461014b5760e036600319011261014b5761084d610fa5565b602435906044356064359260ff841680940361014b576084359367ffffffffffffffff851161014b573660238601121561014b5784600401359267ffffffffffffffff841161014b576024860195602436918660061b01011161014b5760a43567ffffffffffffffff811161014b576108ca903690600401610ff4565b60c49591953567ffffffffffffffff811161014b576108ed903690600401610ff4565b91909760648611610d82575f5b848b818310610d5a575050505f5498899360405161091781611046565b85815260208101943386526040820194600160a01b60019003169b8c865260608301948c865260808401918b835260a08501938d85523690610958926110a3565b9460c08501958652369061096b926110a3565b9460e084019586526101008401964288526101208501995f8b52600160401b1115610bbd578f8060016109a092015f556110e9565b999099610d47579451895593516001890180546001600160a01b03199081166001600160a01b0393841617909155945160028a01805490961691161790935591516003870155905160048601555160058501805460ff191660ff92909216919091179055518051600685019167ffffffffffffffff8211610bbd578190610a278454611121565b601f8111610cf7575b50602090601f8311600114610c94575f92610c89575b50508160011b915f199060031b1c19161790555b518051600784019167ffffffffffffffff8211610bbd57610a7b8354611121565b601f8111610c44575b50602090601f8311600114610bdc57600995949392915f9183610bd1575b50508160011b915f199060031b1c19161790555b516008820155019051151560ff801983541691161790555f5b818110610b4257505060209550835f5260028652610af08560405f2061116e565b335f5260038652610b048560405f2061116e565b604051928352858301526040820152827f74b7df7a55b5ca6ac81b37ae5b254a890a44bd9be6a1657e729fd3d596fff30360603393a4604051908152f35b865f52600160205260405f2090610b5a81848b611085565b8254600160401b811015610bbd5760018101808555811015610ba9576001610b96602060ff9383975f52815f2090841b01948035865501611095565b9201911660ff1982541617905501610acf565b634e487b7160e01b5f52603260045260245ffd5b634e487b7160e01b5f52604160045260245ffd5b015190508e80610aa2565b90601f19831691845f52815f20925f5b818110610c2c57509160019391856009999897969410610c14575b505050811b019055610ab6565b01515f1960f88460031b161c191690558e8080610c07565b92936020600181928786015181550195019301610bec565b835f5260205f20601f840160051c81019160208510610c7f575b601f0160051c01905b818110610c745750610a84565b5f8155600101610c67565b9091508190610c5e565b015190508e80610a46565b5f8581528281209350601f198516905b818110610cdf5750908460019594939210610cc7575b505050811b019055610a5a565b01515f1960f88460031b161c191690558e8080610cba565b92936020600181928786015181550195019301610ca4565b909150835f5260205f20601f840160051c81019160208510610d3d575b90601f859493920160051c01905b818110610d2f5750610a30565b5f8155849350600101610d22565b9091508190610d14565b634e487b7160e01b5f525f60045260245ffd5b610d746020610d6e8560649560ff95611085565b01611095565b1611610d82576001016108fa565b631556136560e01b5f5260045ffd5b3461014b57602036600319011261014b576001600160a01b03610db2610fa5565b165f52600360205260405f206040519081602082549182815201915f5260205f20905f5b818110610ded5761022b8561021f81870382611063565b8254845260209093019260019283019201610dd6565b3461014b575f36600319011261014b5760206040517f9a3d21aa36af8c2791986c315ee51252de6194bbeec8aea34bf6c79890f252dd8152f35b3461014b57602036600319011261014b576004355f52600160205260405f2080549067ffffffffffffffff8211610bbd5760405191610e8260208260051b0184611063565b808352602083019081925f5260205f20915f905b828210610ef0578486604051918291602083019060208452518091526040830191905f5b818110610ec8575050500390f35b82518051855260209081015160ff168186015286955060409094019390920191600101610eba565b6040516040810181811067ffffffffffffffff821117610bbd576001926002926020926040528754815260ff858901541683820152815201940191019092610e96565b3461014b575f36600319011261014b5760206040517f26a8c6f528524fdd4a8f4f472ede839bdf0b150dd519c6baac03d86c18f1f19b8152f35b3461014b575f36600319011261014b57807fa1243b50c1b03c82eafbd72fd9af5087facfe3675e454fdd3603ab61378c95bf60209252f35b600435906001600160a01b038216820361014b57565b60206040818301928281528451809452019201905f5b818110610fde5750505090565b8251845260209384019390920191600101610fd1565b9181601f8401121561014b5782359167ffffffffffffffff831161014b576020838186019501011161014b57565b805180835260209291819084018484015e5f828201840152601f01601f1916010190565b610140810190811067ffffffffffffffff821117610bbd57604052565b90601f8019910116810190811067ffffffffffffffff821117610bbd57604052565b9190811015610ba95760061b0190565b3560ff8116810361014b5790565b92919267ffffffffffffffff8211610bbd57604051916110cd601f8201601f191660200184611063565b82948184528183011161014b578281602093845f960137010152565b5f54811015610ba9575f808052600a919091027f290decd9548b62a8d60345a988386fc84ba6bc95484008f6362f93160ef3e5630191565b90600182811c9216801561114f575b602083101461113b57565b634e487b7160e01b5f52602260045260245ffd5b91607f1691611130565b8054821015610ba9575f5260205f2001905f90565b8054600160401b811015610bbd5761118b91600182018155611159565b819291549060031b91821b915f19901b1916179055565b9060405191825f8254926111b584611121565b808452936001811690811561122057506001146111dc575b506111da92500383611063565b565b90505f9291925260205f20905f915b8183106112045750509060206111da928201015f6111cd565b60209193508060019154838589010152019101909184926111eb565b9050602092506111da94915060ff191682840152151560051b8201015f6111cd56fea26469706673582212203ecdc690426ba81b4b7880f1f9f03e5e111c31fa4291282c515f3a3c918197eb64736f6c634300081c0033","linkReferences":{}},"methodIdentifiers":{"DIM_ACCURACY()":"dd8dd2ea","DIM_COMPLIANCE()":"e476737c","DIM_HELPFULNESS()":"0cf72a80","DIM_RELIABILITY()":"bb62434f","DIM_RESPONSIVENESS()":"8ba7a8f5","DIM_SAFETY()":"c280e33d","DIM_TRANSPARENCY()":"67f188a4","REC_DISPUTES()":"19f3742f","REC_ENDORSES()":"5a75fdcd","REC_FLAGS()":"91866d8c","REC_NEUTRAL()":"c13bfd42","REC_RECOMMENDS()":"14fef761","REVIEW_COMPLIANCE()":"8fd1674f","REVIEW_PERFORMANCE()":"bb79226b","REVIEW_QUALITY()":"c068f944","REVIEW_SAFETY()":"ad65c8af","REVIEW_TRUST()":"8a6dccbc","createReview(address,bytes32,bytes32,uint8,(bytes32,uint8)[],string,string)":"546141ff","getAverageScore(address)":"d06509fd","getDimensions(uint256)":"188448de","getReview(uint256)":"990581b6","getReviewsByReviewer(address)":"2a7bd279","getReviewsBySubject(address)":"d81d8064","reviewCount()":"eff5924f","revokeReview(uint256)":"c1bd5842"},"id":65}