{"abi":[{"type":"constructor","inputs":[{"name":"namesRegistry","type":"address","internalType":"address"}],"stateMutability":"nonpayable"},{"type":"function","name":"KIND_CUSTOM","inputs":[],"outputs":[{"name":"","type":"bytes32","internalType":"bytes32"}],"stateMutability":"view"},{"type":"function","name":"KIND_DOMAIN","inputs":[],"outputs":[{"name":"","type":"bytes32","internalType":"bytes32"}],"stateMutability":"view"},{"type":"function","name":"KIND_OASF_LEAF","inputs":[],"outputs":[{"name":"","type":"bytes32","internalType":"bytes32"}],"stateMutability":"view"},{"type":"function","name":"NAMES","inputs":[],"outputs":[{"name":"","type":"address","internalType":"address"}],"stateMutability":"view"},{"type":"function","name":"allSkills","inputs":[],"outputs":[{"name":"","type":"bytes32[]","internalType":"bytes32[]"}],"stateMutability":"view"},{"type":"function","name":"bindName","inputs":[{"name":"skillId","type":"bytes32","internalType":"bytes32"},{"name":"nameNode","type":"bytes32","internalType":"bytes32"}],"outputs":[],"stateMutability":"nonpayable"},{"type":"function","name":"deactivate","inputs":[{"name":"skillId","type":"bytes32","internalType":"bytes32"}],"outputs":[],"stateMutability":"nonpayable"},{"type":"function","name":"getLatest","inputs":[{"name":"skillId","type":"bytes32","internalType":"bytes32"}],"outputs":[{"name":"","type":"tuple","internalType":"struct SkillDefinitionRegistry.SkillRecord","components":[{"name":"skillId","type":"bytes32","internalType":"bytes32"},{"name":"version","type":"uint64","internalType":"uint64"},{"name":"stewardAccount","type":"address","internalType":"address"},{"name":"skillKind","type":"bytes32","internalType":"bytes32"},{"name":"conceptHash","type":"bytes32","internalType":"bytes32"},{"name":"ontologyMerkleRoot","type":"bytes32","internalType":"bytes32"},{"name":"predecessorMerkleRoot","type":"bytes32","internalType":"bytes32"},{"name":"metadataURI","type":"string","internalType":"string"},{"name":"validAfter","type":"uint64","internalType":"uint64"},{"name":"validUntil","type":"uint64","internalType":"uint64"},{"name":"active","type":"bool","internalType":"bool"},{"name":"registeredAt","type":"uint64","internalType":"uint64"}]}],"stateMutability":"view"},{"type":"function","name":"getSkill","inputs":[{"name":"skillId","type":"bytes32","internalType":"bytes32"},{"name":"version","type":"uint64","internalType":"uint64"}],"outputs":[{"name":"","type":"tuple","internalType":"struct SkillDefinitionRegistry.SkillRecord","components":[{"name":"skillId","type":"bytes32","internalType":"bytes32"},{"name":"version","type":"uint64","internalType":"uint64"},{"name":"stewardAccount","type":"address","internalType":"address"},{"name":"skillKind","type":"bytes32","internalType":"bytes32"},{"name":"conceptHash","type":"bytes32","internalType":"bytes32"},{"name":"ontologyMerkleRoot","type":"bytes32","internalType":"bytes32"},{"name":"predecessorMerkleRoot","type":"bytes32","internalType":"bytes32"},{"name":"metadataURI","type":"string","internalType":"string"},{"name":"validAfter","type":"uint64","internalType":"uint64"},{"name":"validUntil","type":"uint64","internalType":"uint64"},{"name":"active","type":"bool","internalType":"bool"},{"name":"registeredAt","type":"uint64","internalType":"uint64"}]}],"stateMutability":"view"},{"type":"function","name":"latestVersion","inputs":[{"name":"","type":"bytes32","internalType":"bytes32"}],"outputs":[{"name":"","type":"uint64","internalType":"uint64"}],"stateMutability":"view"},{"type":"function","name":"namesOf","inputs":[{"name":"skillId","type":"bytes32","internalType":"bytes32"}],"outputs":[{"name":"","type":"bytes32[]","internalType":"bytes32[]"}],"stateMutability":"view"},{"type":"function","name":"publish","inputs":[{"name":"skillId","type":"bytes32","internalType":"bytes32"},{"name":"skillKind","type":"bytes32","internalType":"bytes32"},{"name":"stewardAccount","type":"address","internalType":"address"},{"name":"conceptHash","type":"bytes32","internalType":"bytes32"},{"name":"ontologyMerkleRoot","type":"bytes32","internalType":"bytes32"},{"name":"predecessorMerkleRoot","type":"bytes32","internalType":"bytes32"},{"name":"metadataURI","type":"string","internalType":"string"},{"name":"validAfter","type":"uint64","internalType":"uint64"},{"name":"validUntil","type":"uint64","internalType":"uint64"}],"outputs":[{"name":"newVersion","type":"uint64","internalType":"uint64"}],"stateMutability":"nonpayable"},{"type":"function","name":"setValidity","inputs":[{"name":"skillId","type":"bytes32","internalType":"bytes32"},{"name":"version","type":"uint64","internalType":"uint64"},{"name":"validAfter","type":"uint64","internalType":"uint64"},{"name":"validUntil","type":"uint64","internalType":"uint64"}],"outputs":[],"stateMutability":"nonpayable"},{"type":"function","name":"skillForName","inputs":[{"name":"","type":"bytes32","internalType":"bytes32"}],"outputs":[{"name":"","type":"bytes32","internalType":"bytes32"}],"stateMutability":"view"},{"type":"function","name":"unbindName","inputs":[{"name":"nameNode","type":"bytes32","internalType":"bytes32"}],"outputs":[],"stateMutability":"nonpayable"},{"type":"event","name":"SkillDeactivated","inputs":[{"name":"skillId","type":"bytes32","indexed":true,"internalType":"bytes32"},{"name":"version","type":"uint64","indexed":false,"internalType":"uint64"}],"anonymous":false},{"type":"event","name":"SkillNameBound","inputs":[{"name":"skillId","type":"bytes32","indexed":true,"internalType":"bytes32"},{"name":"nameNode","type":"bytes32","indexed":true,"internalType":"bytes32"},{"name":"version","type":"uint64","indexed":false,"internalType":"uint64"}],"anonymous":false},{"type":"event","name":"SkillNameUnbound","inputs":[{"name":"skillId","type":"bytes32","indexed":true,"internalType":"bytes32"},{"name":"nameNode","type":"bytes32","indexed":true,"internalType":"bytes32"}],"anonymous":false},{"type":"event","name":"SkillPublished","inputs":[{"name":"skillId","type":"bytes32","indexed":true,"internalType":"bytes32"},{"name":"version","type":"uint64","indexed":true,"internalType":"uint64"},{"name":"steward","type":"address","indexed":true,"internalType":"address"},{"name":"skillKind","type":"bytes32","indexed":false,"internalType":"bytes32"},{"name":"conceptHash","type":"bytes32","indexed":false,"internalType":"bytes32"},{"name":"ontologyMerkleRoot","type":"bytes32","indexed":false,"internalType":"bytes32"},{"name":"predecessorMerkleRoot","type":"bytes32","indexed":false,"internalType":"bytes32"},{"name":"metadataURI","type":"string","indexed":false,"internalType":"string"}],"anonymous":false},{"type":"event","name":"SkillValidityChanged","inputs":[{"name":"skillId","type":"bytes32","indexed":true,"internalType":"bytes32"},{"name":"version","type":"uint64","indexed":false,"internalType":"uint64"},{"name":"validAfter","type":"uint64","indexed":false,"internalType":"uint64"},{"name":"validUntil","type":"uint64","indexed":false,"internalType":"uint64"}],"anonymous":false},{"type":"error","name":"EmptyMetadata","inputs":[]},{"type":"error","name":"InvalidLabel","inputs":[]},{"type":"error","name":"NamesNotConfigured","inputs":[]},{"type":"error","name":"NotAuthorized","inputs":[]},{"type":"error","name":"SkillNotFound","inputs":[]}],"bytecode":{"object":"0x60a034606d57601f6112e338819003918201601f19168301916001600160401b03831184841017607157808492602094604052833981010312606d57516001600160a01b0381168103606d5760805260405161125d90816100868239608051818181610bfe0152610dfc0152f35b5f80fd5b634e487b7160e01b5f52604160045260245ffdfe6080806040526004361015610012575f80fd5b5f3560e01c90816305e84aa014610dea5750806308d2abbd14610be55780631b052bbd14610b3957806322eee84c14610a925780632554fe9414610a5857806328a66702146109f65780633d295d4a146109cc5780638bc1480c146109585780639490397d14610385578063983423161461034b578063af289d9414610225578063c8e751b6146101eb578063d7a48eba1461016c578063e922270f146100f85763e9e10752146100c1575f80fd5b346100f45760203660031901126100f4576004355f52600160205260206001600160401b0360405f205416604051908152f35b5f80fd5b346100f45760203660031901126100f4576004355f52600460205260405f206040519081602082549182815201915f5260205f20905f5b818110610156576101528561014681870382610f58565b60405191829182610eed565b0390f35b825484526020909301926001928301920161012f565b346100f45760403660031901126100f457610185610f26565b61018d610fc3565b506004355f525f6020526001600160401b0360405f2091165f5260205260405f206001600160401b03600782015460881c16156101dc576101d061015291611054565b60405191829182610e2b565b6301f4bca560e01b5f5260045ffd5b346100f4575f3660031901126100f45760206040517f91b61cbe10cbcca2ba6c70a0547ba0ca9af4d915c096bd85adc2e5c4d8d3426a8152f35b346100f45760803660031901126100f457600435610241610f26565b604435906001600160401b0382168092036100f457606435906001600160401b0382168083036100f457845f525f60205260405f206001600160401b0383165f5260205260405f209360078501946001600160401b03865460881c16156101dc57600101546102bb9060401c6001600160a01b0316611193565b1561033c576103206060947f72cd51cb87b99c1755816edd71a85f46814c717a1395d7ce660c064e8e63a5f396836001600160401b03198254161781559067ffffffffffffffff60401b82549160401b169067ffffffffffffffff60401b1916179055565b6001600160401b036040519316835260208301526040820152a2005b63ea8e4eb560e01b5f5260045ffd5b346100f4575f3660031901126100f45760206040517f24eb8ffa8105e7e339eca508ecdde17ff0045b9112c2f7dad9a2fc11c7190a5c8152f35b346100f4576101203660031901126100f4576044356001600160a01b03811681036100f45760c4356001600160401b0381116100f457366023820112156100f4576001600160401b038160040135116100f4573660248260040135830101116100f45760e435906001600160401b03821682036100f45761010435916001600160401b03831683036100f457816004013515610949576004355f5260016020526001600160401b0360405f205416155f146108e55761044384611193565b1561033c575b6004355f52600160205260016001600160401b0360405f20541601926001600160401b0384116108d1576040519061048082610f3c565b60043582526001600160401b0385166020830152604082019060018060a01b03871682526060830191602435835260808401606435815260a08501608435815260c086019060a43582526104d78960040135610f79565b926104e56040519485610f58565b60048a013580855260248b0160208601375f60208b600401358601015260e088019384526001600160401b036101008901991689526001600160401b03610120890196168652610140880196600188526101608901986001600160401b0342168a526004355f525f6020528c6001600160401b0360405f2091165f5260205260405f2096815188556001600160401b0380602060018b0194015116166001600160401b031983541617825551815490600160401b600160e01b039060401b16906001600160401b0363ffffffff60e01b01161790555160028601555160038501555160048401555160058301556006820190518051906001600160401b0382116107f6576105f3835461101c565b601f811161088c575b50602090601f8311600114610815576001600160401b0394610674969484879586956007955f9261080a575b50508160011b915f199060031b1c19161790555b019751161682198754161786555116849067ffffffffffffffff60401b82549160401b169067ffffffffffffffff60401b1916179055565b518254915168ffffffffffffffffff60801b1990921690151560801b60ff60801b161760889190911b67ffffffffffffffff60881b161790556004355f908152600160208190526040909120805467ffffffffffffffff19166001600160401b0385169081179091551461078f575b60209260405190602435825260643585830152608435604083015260a435606083015260a06080830152826004013560a083015282600401356024840160c08401375f60c084600401358401015260018060a01b0316917f2aa3e5e684126a0de052ccc8d6522e233c205c7b53f8eb995a3bc7bf7d67f51e6001600160401b0385169260c08160043594601f8019916004013501168101030190a46001600160401b0360405191168152f35b60025492600160401b8410156107f65760018401806002558410156107e25760025f526004357f405787fa12a823e0f2b7631cc41b3ba8828b3321ca811111fa75cd3aa3bb5ace909401939093556106e3565b634e487b7160e01b5f52603260045260245ffd5b634e487b7160e01b5f52604160045260245ffd5b015190505f80610628565b90601f19831691845f52815f20925f5b8181106108745750946001856001600160401b039893956007958a989789986106749d9b1061085c575b505050811b01905561063c565b01515f1960f88460031b161c191690555f808061084f565b92936020600181928786015181550195019301610825565b835f5260205f20601f840160051c810191602085106108c7575b601f0160051c01905b8181106108bc57506105fc565b5f81556001016108af565b90915081906108a6565b634e487b7160e01b5f52601160045260245ffd5b6004355f908152602081815260408083206001808452828520546001600160401b031685529252918290200154901c6001600160a01b031661092681611193565b1561033c576001600160a01b038516146104495763ea8e4eb560e01b5f5260045ffd5b63ae92135760e01b5f5260045ffd5b346100f4575f3660031901126100f45760405180602060025491828152019060025f527f405787fa12a823e0f2b7631cc41b3ba8828b3321ca811111fa75cd3aa3bb5ace905f5b8181106109b6576101528561014681870382610f58565b825484526020909301926001928301920161099f565b346100f45760203660031901126100f4576004355f526003602052602060405f2054604051908152f35b346100f45760203660031901126100f457600435610a12610fc3565b50805f5260016020526001600160401b0360405f2054169081156101dc575f525f6020526001600160401b0360405f2091165f526020526101526101d060405f20611054565b346100f4575f3660031901126100f45760206040517f9ea5a81765a70972082a97375abaa2437f3a6aa609806aea1d8a97fbc30de7588152f35b346100f45760203660031901126100f457600435805f5260016020526001600160401b0360405f20541680156101dc57815f525f60205260405f206001600160401b0382165f5260205260405f20610af860018060a01b03600183015460401c16611193565b1561033c57600701805460ff60801b191690556040519081527f23c256ce7cc2cf792317363ca5ac24ad51b876494e9d9a3977282daa89baf6e690602090a2005b346100f45760203660031901126100f457600435805f52600360205260405f20548015610bd6575f818152602081815260408083206001808452828520546001600160401b031685529252918290200154610b9d911c6001600160a01b0316611193565b1561033c57815f5260036020525f60408120557f47444b28f2dcdac0bf5350680c22043cd48c2dbf5c6697bb07f327b10f73468e5f80a3005b633d36cb8d60e01b5f5260045ffd5b346100f45760403660031901126100f4576024356004357f00000000000000000000000000000000000000000000000000000000000000006001600160a01b03811615610ddb57815f5260016020526001600160401b0360405f205416156101dc575f828152602081815260408083206001808452828520546001600160401b03168552925291829020018054909291610c8991901c6001600160a01b0316611193565b1561033c575f809160405160208101906302571be360e01b825287602482015260248152610cb8604482610f58565b51915afa610cc4610f94565b90158015610dd0575b610bd6576020818051810103126100f457602001516001600160a01b038116908190036100f4578015610bd657610d0390611193565b1561033c57825f5260036020528260405f205480151580610dc6575b610d9b575b505f5260036020528160405f2055815f52600460205260405f208054600160401b8110156107f657600181018083558110156107e2577f7279a15b2d5cec5cd304860b20215a8297534ab5197646644a910a3a9515871892856001600160401b03926020945f52845f2001555416604051908152a3005b7f47444b28f2dcdac0bf5350680c22043cd48c2dbf5c6697bb07f327b10f73468e5f80a38284610d24565b5083811415610d1f565b506020815110610ccd565b636db2a33160e11b5f5260045ffd5b346100f4575f3660031901126100f4577f00000000000000000000000000000000000000000000000000000000000000006001600160a01b03168152602090f35b60206001600160401b036101606101c094838552805184860152828482015116604086015260018060a01b03604082015116606086015260608101516080860152608081015160a086015260a081015160c086015260c081015160e086015260e08101516101806101008701528051948591826101a0890152018787015e5f86858701015282610100820151166101208601528261012082015116610140860152610140810151151582860152015116610180830152601f8019910116010190565b60206040818301928281528451809452019201905f5b818110610f105750505090565b8251845260209384019390920191600101610f03565b602435906001600160401b03821682036100f457565b61018081019081106001600160401b038211176107f657604052565b90601f801991011681019081106001600160401b038211176107f657604052565b6001600160401b0381116107f657601f01601f191660200190565b3d15610fbe573d90610fa582610f79565b91610fb36040519384610f58565b82523d5f602084013e565b606090565b60405190610fd082610f3c565b5f610160838281528260208201528260408201528260608201528260808201528260a08201528260c0820152606060e08201528261010082015282610120820152826101408201520152565b90600182811c9216801561104a575b602083101461103657565b634e487b7160e01b5f52602260045260245ffd5b91607f169161102b565b9060405161106181610f3c565b80928054825260018101546001600160401b038116602084015260018060a01b039060401c1660408301526002810154606083015260038101546080830152600481015460a0830152600581015460c083015260068101604051905f908054906110ca8261101c565b808552916001811690811561116e5750600114611133575b505061016092826110ff6001600160401b03946007940382610f58565b60e08601520154818116610100850152818160401c1661012085015260ff8160801c16151561014085015260881c16910152565b5f908152602081209092505b818310611154575050810160200182826110e2565b60018160209294939454838588010152019101919061113f565b60ff191660208087019190915292151560051b850190920192508491508390506110e2565b336001600160a01b0382161461122157803b1561121c575f809160405160208101906317aa5fb760e11b8252336024820152602481526111d4604482610f58565b51915afa6111e0610f94565b8161120e575b816111ef575090565b90506020818051810103126100f4576020015180151581036100f45790565b9050602081511015906111e6565b505f90565b5060019056fea26469706673582212208e97ce52f7fd4fb7a1a9aea7aa3a7e3b8c2688a7eda9d50c8fe305bbe631f13064736f6c634300081c0033","linkReferences":{}},"methodIdentifiers":{"KIND_CUSTOM()":"2554fe94","KIND_DOMAIN()":"98342316","KIND_OASF_LEAF()":"c8e751b6","NAMES()":"05e84aa0","allSkills()":"8bc1480c","bindName(bytes32,bytes32)":"08d2abbd","deactivate(bytes32)":"22eee84c","getLatest(bytes32)":"28a66702","getSkill(bytes32,uint64)":"d7a48eba","latestVersion(bytes32)":"e9e10752","namesOf(bytes32)":"e922270f","publish(bytes32,bytes32,address,bytes32,bytes32,bytes32,string,uint64,uint64)":"9490397d","setValidity(bytes32,uint64,uint64,uint64)":"af289d94","skillForName(bytes32)":"3d295d4a","unbindName(bytes32)":"1b052bbd"},"id":92}