{"abi":[{"type":"function","name":"geoRoot","inputs":[{"name":"","type":"address","internalType":"address"}],"outputs":[{"name":"","type":"bytes32","internalType":"bytes32"}],"stateMutability":"view"},{"type":"function","name":"kindsRoot","inputs":[{"name":"","type":"address","internalType":"address"}],"outputs":[{"name":"","type":"bytes32","internalType":"bytes32"}],"stateMutability":"view"},{"type":"function","name":"setMandate","inputs":[{"name":"pool","type":"address","internalType":"address"},{"name":"kindsRoot_","type":"bytes32","internalType":"bytes32"},{"name":"geoRoot_","type":"bytes32","internalType":"bytes32"}],"outputs":[],"stateMutability":"nonpayable"},{"type":"event","name":"MandateUpdated","inputs":[{"name":"pool","type":"address","indexed":true,"internalType":"address"},{"name":"kindsRoot","type":"bytes32","indexed":false,"internalType":"bytes32"},{"name":"geoRoot","type":"bytes32","indexed":false,"internalType":"bytes32"}],"anonymous":false},{"type":"error","name":"NotPool","inputs":[]}],"bytecode":{"object":"0x60808060405234601557610182908161001a8239f35b5f80fdfe6080806040526004361015610012575f80fd5b5f3560e01c9081632432f3411461010257508063a2f9a6fb146100cb5763c1b178041461003d575f80fd5b346100c75760603660031901126100c757610056610136565b6001600160a01b0316602435604435338390036100b8577f01ae452a52c38d6d0ba70da92329aab87708e39467b9f9d71d43cd20ae0183ae91604091845f525f60205281835f2055845f52600160205280835f205582519182526020820152a2005b636f61f64160e01b5f5260045ffd5b5f80fd5b346100c75760203660031901126100c7576001600160a01b036100ec610136565b165f525f602052602060405f2054604051908152f35b346100c75760203660031901126100c7576020906001600160a01b03610126610136565b165f526001825260405f20548152f35b600435906001600160a01b03821682036100c75756fea2646970667358221220f9e0b8c5721dc8174bc8cf581f75e7ef7c3bf9546c428b4d4e43215fe125a92b64736f6c634300081c0033","linkReferences":{}},"methodIdentifiers":{"geoRoot(address)":"2432f341","kindsRoot(address)":"a2f9a6fb","setMandate(address,bytes32,bytes32)":"c1b17804"},"id":110}