{"abi":[{"type":"constructor","inputs":[{"name":"features","type":"address","internalType":"contract GeoFeatureRegistry"}],"stateMutability":"nonpayable"},{"type":"function","name":"COMPLETED_TASK_IN","inputs":[],"outputs":[{"name":"","type":"bytes32","internalType":"bytes32"}],"stateMutability":"view"},{"type":"function","name":"FEATURES","inputs":[],"outputs":[{"name":"","type":"address","internalType":"contract GeoFeatureRegistry"}],"stateMutability":"view"},{"type":"function","name":"LICENSED_IN","inputs":[],"outputs":[{"name":"","type":"bytes32","internalType":"bytes32"}],"stateMutability":"view"},{"type":"function","name":"OPERATES_IN","inputs":[],"outputs":[{"name":"","type":"bytes32","internalType":"bytes32"}],"stateMutability":"view"},{"type":"function","name":"ORIGIN_IN","inputs":[],"outputs":[{"name":"","type":"bytes32","internalType":"bytes32"}],"stateMutability":"view"},{"type":"function","name":"RESIDENT_OF","inputs":[],"outputs":[{"name":"","type":"bytes32","internalType":"bytes32"}],"stateMutability":"view"},{"type":"function","name":"SERVES_WITHIN","inputs":[],"outputs":[{"name":"","type":"bytes32","internalType":"bytes32"}],"stateMutability":"view"},{"type":"function","name":"STEWARD_OF","inputs":[],"outputs":[{"name":"","type":"bytes32","internalType":"bytes32"}],"stateMutability":"view"},{"type":"function","name":"VALIDATED_PRESENCE_IN","inputs":[],"outputs":[{"name":"","type":"bytes32","internalType":"bytes32"}],"stateMutability":"view"},{"type":"function","name":"claimsByFeature","inputs":[{"name":"featureId","type":"bytes32","internalType":"bytes32"}],"outputs":[{"name":"","type":"bytes32[]","internalType":"bytes32[]"}],"stateMutability":"view"},{"type":"function","name":"claimsByRelation","inputs":[{"name":"relation","type":"bytes32","internalType":"bytes32"}],"outputs":[{"name":"","type":"bytes32[]","internalType":"bytes32[]"}],"stateMutability":"view"},{"type":"function","name":"claimsBySubject","inputs":[{"name":"subject","type":"address","internalType":"address"}],"outputs":[{"name":"","type":"bytes32[]","internalType":"bytes32[]"}],"stateMutability":"view"},{"type":"function","name":"getClaim","inputs":[{"name":"claimId","type":"bytes32","internalType":"bytes32"}],"outputs":[{"name":"","type":"tuple","internalType":"struct GeoClaimRegistry.GeoClaim","components":[{"name":"claimId","type":"bytes32","internalType":"bytes32"},{"name":"subjectAgent","type":"address","internalType":"address"},{"name":"issuer","type":"address","internalType":"address"},{"name":"featureId","type":"bytes32","internalType":"bytes32"},{"name":"featureVersion","type":"uint64","internalType":"uint64"},{"name":"relation","type":"bytes32","internalType":"bytes32"},{"name":"visibility","type":"uint8","internalType":"enum GeoClaimRegistry.Visibility"},{"name":"evidenceCommit","type":"bytes32","internalType":"bytes32"},{"name":"edgeId","type":"bytes32","internalType":"bytes32"},{"name":"assertionId","type":"bytes32","internalType":"bytes32"},{"name":"confidence","type":"uint8","internalType":"uint8"},{"name":"policyId","type":"bytes32","internalType":"bytes32"},{"name":"validAfter","type":"uint64","internalType":"uint64"},{"name":"validUntil","type":"uint64","internalType":"uint64"},{"name":"revoked","type":"bool","internalType":"bool"},{"name":"createdAt","type":"uint64","internalType":"uint64"}]}],"stateMutability":"view"},{"type":"function","name":"mint","inputs":[{"name":"subjectAgent","type":"address","internalType":"address"},{"name":"issuer","type":"address","internalType":"address"},{"name":"featureId","type":"bytes32","internalType":"bytes32"},{"name":"featureVersion","type":"uint64","internalType":"uint64"},{"name":"relation","type":"bytes32","internalType":"bytes32"},{"name":"visibility","type":"uint8","internalType":"enum GeoClaimRegistry.Visibility"},{"name":"evidenceCommit","type":"bytes32","internalType":"bytes32"},{"name":"edgeId","type":"bytes32","internalType":"bytes32"},{"name":"assertionId","type":"bytes32","internalType":"bytes32"},{"name":"confidence","type":"uint8","internalType":"uint8"},{"name":"policyId","type":"bytes32","internalType":"bytes32"},{"name":"validAfter","type":"uint64","internalType":"uint64"},{"name":"validUntil","type":"uint64","internalType":"uint64"},{"name":"nonce","type":"bytes32","internalType":"bytes32"}],"outputs":[{"name":"claimId","type":"bytes32","internalType":"bytes32"}],"stateMutability":"nonpayable"},{"type":"function","name":"revoke","inputs":[{"name":"claimId","type":"bytes32","internalType":"bytes32"}],"outputs":[],"stateMutability":"nonpayable"},{"type":"function","name":"setEvidenceCommit","inputs":[{"name":"claimId","type":"bytes32","internalType":"bytes32"},{"name":"newCommit","type":"bytes32","internalType":"bytes32"}],"outputs":[],"stateMutability":"nonpayable"},{"type":"event","name":"ClaimEvidenceUpdated","inputs":[{"name":"claimId","type":"bytes32","indexed":true,"internalType":"bytes32"},{"name":"newCommit","type":"bytes32","indexed":false,"internalType":"bytes32"}],"anonymous":false},{"type":"event","name":"ClaimMinted","inputs":[{"name":"claimId","type":"bytes32","indexed":true,"internalType":"bytes32"},{"name":"subjectAgent","type":"address","indexed":true,"internalType":"address"},{"name":"featureId","type":"bytes32","indexed":true,"internalType":"bytes32"},{"name":"featureVersion","type":"uint64","indexed":false,"internalType":"uint64"},{"name":"relation","type":"bytes32","indexed":false,"internalType":"bytes32"},{"name":"issuer","type":"address","indexed":false,"internalType":"address"},{"name":"visibility","type":"uint8","indexed":false,"internalType":"enum GeoClaimRegistry.Visibility"}],"anonymous":false},{"type":"event","name":"ClaimRevoked","inputs":[{"name":"claimId","type":"bytes32","indexed":true,"internalType":"bytes32"},{"name":"by","type":"address","indexed":true,"internalType":"address"}],"anonymous":false},{"type":"error","name":"ClaimExists","inputs":[]},{"type":"error","name":"ClaimNotFound","inputs":[]},{"type":"error","name":"FeatureMissing","inputs":[]},{"type":"error","name":"InvalidVisibility","inputs":[]},{"type":"error","name":"NotAuthorized","inputs":[]}],"bytecode":{"object":"0x60a034606c57601f6110ac38819003918201601f19168301916001600160401b03831184841017607057808492602094604052833981010312606c57516001600160a01b0381168103606c576080526040516110279081610085823960805181818160e1015261070c0152f35b5f80fd5b634e487b7160e01b5f52604160045260245ffdfe6080806040526004361015610012575f80fd5b5f3560e01c90816306b6b4f214610dfe575080632938f0e614610d9a5780633009d9c314610d6057806382fb919d14610d265780639ebc119114610cc2578063a467ca221461065b578063a62dff4914610621578063a79ef056146105e8578063b75c7dc614610536578063bb6561e9146104fc578063c9100bcb146102af578063c97a2c0a14610275578063dc4e905b1461023b578063f19afaf0146101b9578063f310fb3a146101145763fac5b190146100cc575f80fd5b34610110575f366003190112610110576040517f00000000000000000000000000000000000000000000000000000000000000006001600160a01b03168152602090f35b5f80fd5b3461011057604036600319011261011057600435602435815f525f60205260405f206001600160401b03600c82015460881c16156101aa576001810154610163906001600160a01b0316610f57565b1561019b57817fc0d997e096000e779d7a674636378cb9b15c9b56317baf10fcb5b5538c28de0a9260076020930155604051908152a2005b63ea8e4eb560e01b5f5260045ffd5b63022af77760e11b5f5260045ffd5b34610110576020366003190112610110576001600160a01b036101da610e6f565b165f52600160205260405f206040519081602082549182815201915f5260205f20905f5b818110610225576102218561021581870382610eae565b60405191829182610e36565b0390f35b82548452602090930192600192830192016101fe565b34610110575f3660031901126101105760206040517f66b54a06398c50686346f1d947366fa18ab91f4c6f52a3be1b25b1a888a303828152f35b34610110575f3660031901126101105760206040517f06a5f8fcf9df7031eb033b2ece67eaf14e4fe8675478327f6687be80f95afe3e8152f35b34610110576020366003190112610110575f6101e06040516102d081610e92565b8281528260208201528260408201528260608201528260808201528260a08201528260c08201528260e08201528261010082015282610120820152826101408201528261016082015282610180820152826101a0820152826101c082015201526004355f525f60205260405f20600c8101546001600160401b038160881c169081156101aa576101e06001600160401b0361048a81936102009660405193849261037984610e92565b8254845260018060a01b036001840154169860208501998a5260018060a01b03600285015416604086019081526003850154916060870192835260ff856004880154169460808901958652600b60058901549860a08b01998a526103e860c0856006840154169c019b8c610f0b565b8c60e060078301549101528c61010060088301549101528c61012060098301549101528c61014085600a8401541691015201546101608c01528681166101808c0152868160401c166101a08c015260801c1615156101c08a0152898901526040519a88518c5260018060a01b0390511660208c015260018060a01b0390511660408b01525160608a0152511660808801525160a08701525160c0860190610e85565b60e081015160e085015261010081015161010085015261012081015161012085015260ff610140820151166101408501526101608101516101608501528261018082015116610180850152826101a0820151166101a08501526101c081015115156101c08501520151166101e0820152f35b34610110575f3660031901126101105760206040517fb05ebaa5d0c364376428d0209f5cc660e9c2c710978341fe6051a0accba76b788152f35b3461011057602036600319011261011057600435805f525f60205260405f20600c8101908154906001600160401b038260881c16156101aa576001810154610586906001600160a01b0316610f57565b1590816105ca575b5061019b5760ff60801b1916600160801b17905533907f1138f9acbec31119a7911df6a223d14ebc94f264a452e002083ced3a93510b755f80a3005b600201546105e191506001600160a01b0316610f57565b158461058e565b34610110575f3660031901126101105760206040517ecb827c92094b5de83d379b14a665b120fd0203cdaf8ee2b51f2c7637fdcddf8152f35b34610110575f3660031901126101105760206040517f5b6325702bcc26a12c7c6d8ac4cabc61103ebc5cda9f811c68ac92de9142603e8152f35b34610110576101c036600319011261011057610675610e6f565b6024356001600160a01b038116810361011057606435916001600160401b038316830361011057600560a435101561011057610124359260ff841684036101105761016435926001600160401b03841684036101105761018435936001600160401b03851685036101105760405163f2c0fcf760e01b81526044803560048301526001600160401b03851660248301525f908290817f00000000000000000000000000000000000000000000000000000000000000006001600160a01b03165afa8015610cb757610afe575b50600260a435148015610af2575b15610abe5761075d84610f57565b1561019b575b60405160208101906bffffffffffffffffffffffff198660601b168252604435603482015260843560548201526101a4356074820152607481526107a8609482610eae565b51902094855f525f6020526001600160401b03600c60405f20015460881c16610aaf576001600160401b03809260ff604051996107e48b610e92565b898b526001600160a01b0389811660208d0152871660408c015260443560608c015287841660808c015260843560a08c015261082560a43560c08d01610f0b565b60c43560e08c015260e4356101008c0152610104356101208c0152166101408a0152610144356101608a015216610180880152166101a08601525f6101c08601819052426001600160401b039081166101e0880152858252602082815260409283902088518155908801516001820180546001600160a01b03199081166001600160a01b03938416179091559389015160028301805490951691161790925560608701516003830155608087015160048301805467ffffffffffffffff19169190921617905560a086015160058083019190915560c0870151969190871015610a9b5760068101805460ff98891660ff199182161790915560e0830151600783015561010083015160088301556101208301516009830155610140830151600a83018054909216981697909717909655610160810151600b870155610180810151600c90960180546101a08301516101c08401516101e0909401516001600160c81b03199092166001600160401b0390991698909817604098891b6fffffffffffffffff0000000000000000161792151560801b60ff60801b169290921760889290921b67ffffffffffffffff60881b169190911790556001600160a01b0383165f908152600160209081529590206109ff908590610f17565b6044355f5260028552610a158460405f20610f17565b6084355f5260038552610a2b8460405f20610f17565b6001600160401b03604051921682526084358583015260018060a01b03166040820152610a5d6060820160a435610e85565b604435916001600160a01b03169083907f7a8eaf727b7f3410a70630af61f7bb59c25b026bc213cb47a1de4916a62df45790608090a4604051908152f35b634e487b7160e01b5f52602160045260245ffd5b631b5e0ffb60e31b5f5260045ffd5b610ac784610f57565b1580610ae2575b156107635763ea8e4eb560e01b5f5260045ffd5b50610aec82610f57565b15610ace565b50600360a4351461074f565b3d805f833e610b0d8183610eae565b810190602081830312610110578051906001600160401b03821161011057019061024082820312610110576040519161024083018381106001600160401b03821117610ca35760405280518352610b6660208201610ecf565b602084015260408101516001600160a01b0381168103610110576040840152606081015160608401526080810151608084015260a081015160a084015260c081015160c084015260e08101516001600160401b0381116101105781019082601f8301121561011057815192610bda84610ee3565b90610be86040519283610eae565b84825260208585010111610110575f602085610c98968261022097018386015e8301015260e08501526101008101516101008501526101208101516101208501526101408101516101408501526101608101516101608501526101808101516101808501526101a08101516101a0850152610c666101c08201610ecf565b6101c0850152610c796101e08201610ecf565b6101e0850152610c8c6102008201610efe565b61020085015201610ecf565b610220820152610741565b634e487b7160e01b5f52604160045260245ffd5b6040513d5f823e3d90fd5b34610110576020366003190112610110576004355f52600260205260405f206040519081602082549182815201915f5260205f20905f5b818110610d10576102218561021581870382610eae565b8254845260209093019260019283019201610cf9565b34610110575f3660031901126101105760206040517f9aeb2b446b51620cb7ee4cb6be11f92e73877ef011ec10947b43b454854f56088152f35b34610110575f3660031901126101105760206040517f784133f1ce678cb736f422cffca194cf21c525102bfe1af5bf04ab8b3a49690c8152f35b34610110576020366003190112610110576004355f52600360205260405f206040519081602082549182815201915f5260205f20905f5b818110610de8576102218561021581870382610eae565b8254845260209093019260019283019201610dd1565b34610110575f36600319011261011057807f24a292bbc3032278e317f72607fd5f4c5f53dd9a27593d4c1fae22464868874060209252f35b60206040818301928281528451809452019201905f5b818110610e595750505090565b8251845260209384019390920191600101610e4c565b600435906001600160a01b038216820361011057565b906005821015610a9b5752565b61020081019081106001600160401b03821117610ca357604052565b90601f801991011681019081106001600160401b03821117610ca357604052565b51906001600160401b038216820361011057565b6001600160401b038111610ca357601f01601f191660200190565b5190811515820361011057565b6005821015610a9b5752565b80549068010000000000000000821015610ca35760018201808255821015610f43575f5260205f200155565b634e487b7160e01b5f52603260045260245ffd5b336001600160a01b03821614610feb575f809160405160208101906317aa5fb760e11b825233602482015260248152610f91604482610eae565b51915afa3d15610fe4573d610fa581610ee3565b90610fb36040519283610eae565b81523d5f602083013e5b81610fc6575090565b9050602081805181010312610110576020610fe19101610efe565b90565b6060610fbd565b5060019056fea264697066735822122064c11bf881c5f19c421eabe2b74bed7823b0ba24121ab11a0bf8f4fde6c0407364736f6c634300081c0033","linkReferences":{}},"methodIdentifiers":{"COMPLETED_TASK_IN()":"a62dff49","FEATURES()":"fac5b190","LICENSED_IN()":"dc4e905b","OPERATES_IN()":"82fb919d","ORIGIN_IN()":"06b6b4f2","RESIDENT_OF()":"3009d9c3","SERVES_WITHIN()":"a79ef056","STEWARD_OF()":"c97a2c0a","VALIDATED_PRESENCE_IN()":"bb6561e9","claimsByFeature(bytes32)":"9ebc1191","claimsByRelation(bytes32)":"2938f0e6","claimsBySubject(address)":"f19afaf0","getClaim(bytes32)":"c9100bcb","mint(address,address,bytes32,uint64,bytes32,uint8,bytes32,bytes32,bytes32,uint8,bytes32,uint64,uint64,bytes32)":"a467ca22","revoke(bytes32)":"b75c7dc6","setEvidenceCommit(bytes32,bytes32)":"f310fb3a"},"id":83}