{"abi":[{"type":"function","name":"delegationManagerOf","inputs":[{"name":"account","type":"address","internalType":"address"}],"outputs":[{"name":"","type":"address","internalType":"address"}],"stateMutability":"view"},{"type":"function","name":"isModuleType","inputs":[{"name":"moduleTypeId","type":"uint256","internalType":"uint256"}],"outputs":[{"name":"","type":"bool","internalType":"bool"}],"stateMutability":"pure"},{"type":"function","name":"moduleId","inputs":[],"outputs":[{"name":"","type":"string","internalType":"string"}],"stateMutability":"pure"},{"type":"function","name":"onInstall","inputs":[{"name":"data","type":"bytes","internalType":"bytes"}],"outputs":[],"stateMutability":"nonpayable"},{"type":"function","name":"onUninstall","inputs":[{"name":"","type":"bytes","internalType":"bytes"}],"outputs":[],"stateMutability":"nonpayable"},{"type":"function","name":"revoke","inputs":[{"name":"delegationHash","type":"bytes32","internalType":"bytes32"}],"outputs":[],"stateMutability":"nonpayable"},{"type":"event","name":"DelegationRevoked","inputs":[{"name":"account","type":"address","indexed":true,"internalType":"address"},{"name":"delegationHash","type":"bytes32","indexed":true,"internalType":"bytes32"}],"anonymous":false},{"type":"event","name":"RevocationModuleInstalled","inputs":[{"name":"account","type":"address","indexed":true,"internalType":"address"},{"name":"delegationManager","type":"address","indexed":true,"internalType":"address"}],"anonymous":false},{"type":"event","name":"RevocationModuleUninstalled","inputs":[{"name":"account","type":"address","indexed":true,"internalType":"address"}],"anonymous":false},{"type":"error","name":"InvalidInitData","inputs":[]},{"type":"error","name":"NotConfigured","inputs":[{"name":"account","type":"address","internalType":"address"}]}],"bytecode":{"object":"0x60808060405234601557610398908161001a8239f35b5f80fdfe60806040526004361015610011575f80fd5b5f5f3560e01c80636d61fe70146102805780638a91b0e314610229578063a1308f27146101a3578063b75c7dc6146100c8578063ecd05961146100a75763f15135561461005c575f80fd5b346100a45760203660031901126100a4576004356001600160a01b038116908190036100a257815260208181526040918290205491516001600160a01b03909216825290f35b505b80fd5b50346100a45760203660031901126100a45760206040516002600435148152f35b503461018c57602036600319011261018c57600435335f525f60205260018060a01b0360405f205416801561019057803b1561018c575f809160246040518094819363b96f2b0760e01b83528760048401525af1801561018157610150575b50337f915f2ef23f35c6a50adeff0f4c371698798863ccb41ba5eb9b90c140324872bd8380a380f35b90915067ffffffffffffffff811161016d576040525f905f610127565b634e487b7160e01b5f52604160045260245ffd5b6040513d5f823e3d90fd5b5f80fd5b63c3bcff9760e01b5f523360045260245ffd5b3461018c575f36600319011261018c576040516040810181811067ffffffffffffffff82111761016d57604052601f8152604060208201917f736d6172742d6167656e742e7265766f636174696f6e2d6d6f64756c652e310083528151928391602083525180918160208501528484015e5f828201840152601f01601f19168101030190f35b3461018c5761023736610311565b5050335f525f60205260405f206bffffffffffffffffffffffff60a01b8154169055337f291a340b2a44ebbc94b30c47a8ad8260db94d8ad1f0cff52df1b88a2f92698835f80a2005b3461018c5761028e36610311565b801561030257816020918101031261018c57356001600160a01b0381169081900361018c57801561030257335f525f60205260405f20816bffffffffffffffffffffffff60a01b825416179055337f233f0a011172037c16a0fafe87e77aed86bba0ea8007bc908b415e166fd46b615f80a3005b6307ce216360e51b5f5260045ffd5b90602060031983011261018c5760043567ffffffffffffffff811161018c578260238201121561018c5780600401359267ffffffffffffffff841161018c576024848301011161018c57602401919056fea2646970667358221220fa52c29c1b3c2e18c4c93eb49f6cd6464c8db6f4497189d9c2f0a3c017eca0d564736f6c634300081c0033","linkReferences":{}},"methodIdentifiers":{"delegationManagerOf(address)":"f1513556","isModuleType(uint256)":"ecd05961","moduleId()":"a1308f27","onInstall(bytes)":"6d61fe70","onUninstall(bytes)":"8a91b0e3","revoke(bytes32)":"b75c7dc6"},"id":146}