{"abi":[{"type":"constructor","inputs":[{"name":"registry","type":"address","internalType":"contract AgentNameRegistry"},{"name":"nameResolver","type":"address","internalType":"contract AgentNameResolver"},{"name":"accountResolver","type":"address","internalType":"contract AgentAccountResolver"}],"stateMutability":"nonpayable"},{"type":"function","name":"ACCOUNT_RESOLVER","inputs":[],"outputs":[{"name":"","type":"address","internalType":"contract AgentAccountResolver"}],"stateMutability":"view"},{"type":"function","name":"NAME_RESOLVER","inputs":[],"outputs":[{"name":"","type":"address","internalType":"contract AgentNameResolver"}],"stateMutability":"view"},{"type":"function","name":"REGISTRY","inputs":[],"outputs":[{"name":"","type":"address","internalType":"contract AgentNameRegistry"}],"stateMutability":"view"},{"type":"function","name":"findResolver","inputs":[{"name":"node","type":"bytes32","internalType":"bytes32"}],"outputs":[{"name":"resolverAddr","type":"address","internalType":"address"},{"name":"resolvedNode","type":"bytes32","internalType":"bytes32"}],"stateMutability":"view"},{"type":"function","name":"getChildren","inputs":[{"name":"parentNode","type":"bytes32","internalType":"bytes32"}],"outputs":[{"name":"childNodes","type":"bytes32[]","internalType":"bytes32[]"},{"name":"owners","type":"address[]","internalType":"address[]"}],"stateMutability":"view"},{"type":"function","name":"resolveNode","inputs":[{"name":"node","type":"bytes32","internalType":"bytes32"}],"outputs":[{"name":"","type":"address","internalType":"address"}],"stateMutability":"view"},{"type":"function","name":"resolveText","inputs":[{"name":"node","type":"bytes32","internalType":"bytes32"},{"name":"key","type":"string","internalType":"string"}],"outputs":[{"name":"","type":"string","internalType":"string"}],"stateMutability":"view"},{"type":"function","name":"reverseResolve","inputs":[{"name":"account","type":"address","internalType":"address"}],"outputs":[{"name":"","type":"string","internalType":"string"}],"stateMutability":"view"},{"type":"function","name":"verifyRoundTrip","inputs":[{"name":"account","type":"address","internalType":"address"},{"name":"claimedNode","type":"bytes32","internalType":"bytes32"}],"outputs":[{"name":"","type":"bool","internalType":"bool"}],"stateMutability":"view"},{"type":"error","name":"NameNotFound","inputs":[]},{"type":"error","name":"ResolverNotSet","inputs":[]}],"bytecode":{"object":"0x60e0346100d157601f610ddf38819003918201601f19168301916001600160401b038311848410176100d5578084926060946040528339810103126100d1578051906001600160a01b03821682036100d1576020810151906001600160a01b03821682036100d15760400151916001600160a01b03831683036100d15760805260a05260c052604051610cf590816100ea823960805181818160a9015281816105d201528181610737015281816108d80152610b5b015260a051816103b6015260c0518181816105910152610ab70152f35b5f80fd5b634e487b7160e01b5f52604160045260245ffdfe6080806040526004361015610012575f80fd5b5f3560e01c90816306433b1b146105c0575080632ba387521461057c5780634b24c4091461047a5780636bfe10e01461044a57806371c61a2b146104165780638a42c9a8146103e55780638bfa6fc3146103a15780639af8b7aa1461036d5763d37684ff1461007f575f80fd5b3461024a57602036600319011261024a57604051633002c03b60e01b8152600480359082018190527f00000000000000000000000000000000000000000000000000000000000000006001600160a01b0316915f81602481865afa908115610214575f916102dc575b50805161010d6100f782610b17565b916101056040519384610641565b808352610b17565b602082019390601f190136853782519261013f61012985610b17565b946101376040519687610641565b808652610b17565b6020850190601f19013682375f5b8251811015610256576101608184610b2f565b5190604051916376a8f23560e11b835285600484015260248301526020826044818c5afa918215610214575f9261021f575b508161019e8288610b2f565b52604051916302571be360e01b835260048301526020826024818c5afa8015610214576001925f916101e6575b506101d68289610b2f565b90838060a01b031690520161014d565b610207915060203d811161020d575b6101ff8183610641565b810190610702565b5f6101cb565b503d6101f5565b6040513d5f823e3d90fd5b9091506020813d821161024e575b8161023a60209383610641565b8101031261024a5751905f610192565b5f80fd5b3d915061022d565b85858389604051938493604085019060408652518091526060850192905f5b8181106102c3575050506020908483038286015251918281520191905f5b8181106102a1575050500390f35b82516001600160a01b0316845285945060209384019390920191600101610293565b8251855287965060209485019490920191600101610275565b90503d805f833e6102ed8183610641565b81019060208183031261024a5780519067ffffffffffffffff821161024a57019080601f8301121561024a57815161032481610b17565b926103326040519485610641565b81845260208085019260051b82010192831161024a57602001905b82821061035d575050505f6100e8565b815181526020918201910161034d565b3461024a57602036600319011261024a5761039d61039161038c61062b565b610a68565b60405191829182610601565b0390f35b3461024a575f36600319011261024a576040517f00000000000000000000000000000000000000000000000000000000000000006001600160a01b03168152602090f35b3461024a57604036600319011261024a57602061040c61040361062b565b602435906108c2565b6040519015158152f35b3461024a57602036600319011261024a576040610434600435610b57565b82516001600160a01b0390921682526020820152f35b3461024a57602036600319011261024a576020610468600435610721565b6040516001600160a01b039091168152f35b3461024a57604036600319011261024a5760043560243567ffffffffffffffff811161024a573660238201121561024a5780600401359167ffffffffffffffff831161024a57366024848401011161024a576104d581610b57565b506001600160a01b0316801561056d575f9260646024938660405197889687958694631674750f60e21b8652600486015260408286015282604486015201848401378181018301879052601f01601f191681010301915afa80156102145761039d915f9161054b575b5060405191829182610601565b61056791503d805f833e61055f8183610641565b810190610677565b8261053e565b630d09117560e41b5f5260045ffd5b3461024a575f36600319011261024a576040517f00000000000000000000000000000000000000000000000000000000000000006001600160a01b03168152602090f35b3461024a575f36600319011261024a577f00000000000000000000000000000000000000000000000000000000000000006001600160a01b03168152602090f35b602060409281835280519182918282860152018484015e5f828201840152601f01601f1916010190565b600435906001600160a01b038216820361024a57565b90601f8019910116810190811067ffffffffffffffff82111761066357604052565b634e487b7160e01b5f52604160045260245ffd5b60208183031261024a5780519067ffffffffffffffff821161024a570181601f8201121561024a5780519067ffffffffffffffff821161066357604051926106c9601f8401601f191660200185610641565b8284526020838301011161024a57815f9260208093018386015e8301015290565b9081602091031261024a5751801515810361024a5790565b9081602091031261024a57516001600160a01b038116810361024a5790565b604051631ef3fca760e31b8152600481018290527f00000000000000000000000000000000000000000000000000000000000000006001600160a01b03169190602081602481865afa908115610214575f91610893575b501561088557604051630178b8bf60e01b815260048101829052602081602481865afa908115610214575f91610866575b506001600160a01b031680610804575b506020906024604051809481936302571be360e01b835260048301525afa908115610214575f916107e8575090565b610801915060203d60201161020d576101ff8183610641565b90565b602060249160405192838092631d9dabef60e11b82528660048301525afa5f9181610845575b50156107b9576001600160a01b038116156107b95791505090565b61085f91925060203d60201161020d576101ff8183610641565b905f61082a565b61087f915060203d60201161020d576101ff8183610641565b5f6107a9565b620ed35560ea1b5f5260045ffd5b6108b5915060203d6020116108bb575b6108ad8183610641565b8101906106ea565b5f610778565b503d6108a3565b604051631ef3fca760e31b8152600481018390527f00000000000000000000000000000000000000000000000000000000000000006001600160a01b03169290602081602481875afa908115610214575f91610a49575b5015610a42576040516302571be360e01b815260048101829052602081602481875afa908115610214576024916020915f91610a25575b509460405192838092630178b8bf60e01b82528660048301525afa908115610214575f91610a06575b506001600160a01b0316908161099d575b50506001600160a01b0391821691161490565b602090602460405180948193631d9dabef60e11b835260048301525afa5f91816109e5575b506109ce575b8061098a565b6001600160a01b038116156109c85791505f6109c8565b6109ff91925060203d60201161020d576101ff8183610641565b905f6109c2565b610a1f915060203d60201161020d576101ff8183610641565b5f610979565b610a3c9150823d841161020d576101ff8183610641565b5f610950565b5050505f90565b610a62915060203d6020116108bb576108ad8183610641565b5f610919565b6040516303318acf60e51b81526001600160a01b0391821660048201527fa06ac4ee358ea0d96bdc29ea3cdd58191ca6d7ec169779b4cff723c074c819186024820152905f90829060449082907f0000000000000000000000000000000000000000000000000000000000000000165afa5f9181610afb575b506108015750604051610af5602082610641565b5f815290565b610b109192503d805f833e61055f8183610641565b905f610ae1565b67ffffffffffffffff81116106635760051b60200190565b8051821015610b435760209160051b010190565b634e487b7160e01b5f52603260045260245ffd5b5f907f00000000000000000000000000000000000000000000000000000000000000006001600160a01b0316905b600a60ff841610610b9a575b5050505f905f90565b604051631ef3fca760e31b815260048101829052602081602481865afa908115610214575f91610ca1575b5015610c4557604051630178b8bf60e01b815260048101829052602081602481865afa908115610214575f91610c83575b506001600160a01b038116610c7b57506040519063be6d17cd60e01b82526004820152602081602481855afa908115610214575f91610c4a575b508015610c4557600160ff9193011691610b85565b610b91565b90506020813d8211610c73575b81610c6460209383610641565b8101031261024a57515f610c30565b3d9150610c57565b939092509050565b610c9b915060203d811161020d576101ff8183610641565b5f610bf6565b610cb9915060203d81116108bb576108ad8183610641565b5f610bc556fea2646970667358221220ee4aa16fa9319e1bfcf3274fab2e0ab81da8578e16b8aa6e23343e90e4aaca8864736f6c634300081c0033","linkReferences":{}},"methodIdentifiers":{"ACCOUNT_RESOLVER()":"2ba38752","NAME_RESOLVER()":"8bfa6fc3","REGISTRY()":"06433b1b","findResolver(bytes32)":"71c61a2b","getChildren(bytes32)":"d37684ff","resolveNode(bytes32)":"6bfe10e0","resolveText(bytes32,string)":"4b24c409","reverseResolve(address)":"9af8b7aa","verifyRoundTrip(address,bytes32)":"8a42c9a8"},"id":74}