{"abi":[{"type":"constructor","inputs":[{"name":"entryPoint_","type":"address","internalType":"contract IEntryPoint"},{"name":"delegationManager_","type":"address","internalType":"address"},{"name":"serverSigner_","type":"address","internalType":"address"}],"stateMutability":"nonpayable"},{"type":"function","name":"accountImplementation","inputs":[],"outputs":[{"name":"","type":"address","internalType":"contract AgentAccount"}],"stateMutability":"view"},{"type":"function","name":"createAccount","inputs":[{"name":"owner","type":"address","internalType":"address"},{"name":"salt","type":"uint256","internalType":"uint256"}],"outputs":[{"name":"account","type":"address","internalType":"contract AgentAccount"}],"stateMutability":"nonpayable"},{"type":"function","name":"delegationManager","inputs":[],"outputs":[{"name":"","type":"address","internalType":"address"}],"stateMutability":"view"},{"type":"function","name":"getAddress","inputs":[{"name":"owner","type":"address","internalType":"address"},{"name":"salt","type":"uint256","internalType":"uint256"}],"outputs":[{"name":"","type":"address","internalType":"address"}],"stateMutability":"view"},{"type":"function","name":"serverSigner","inputs":[],"outputs":[{"name":"","type":"address","internalType":"address"}],"stateMutability":"view"},{"type":"function","name":"setDelegationManager","inputs":[{"name":"dm","type":"address","internalType":"address"}],"outputs":[],"stateMutability":"nonpayable"},{"type":"function","name":"setServerSigner","inputs":[{"name":"signer","type":"address","internalType":"address"}],"outputs":[],"stateMutability":"nonpayable"},{"type":"event","name":"AgentAccountCreated","inputs":[{"name":"account","type":"address","indexed":true,"internalType":"address"},{"name":"owner","type":"address","indexed":true,"internalType":"address"},{"name":"salt","type":"uint256","indexed":false,"internalType":"uint256"}],"anonymous":false}],"bytecode":{"object":"0x60a03461011557601f61354138819003918201601f19168301916001600160401b03831184841017610101578084926060946040528339810103126101155780516001600160a01b03811691908290036101155761006b604061006460208401610119565b9201610119565b6040519092612c978083016001600160401b038111848210176101015760209284926108aa843981520301905ff080156100f6576080525f80546001600160a01b039283166001600160a01b0319918216179091556001805493909216921691909117905560405161077c908161012e82396080518181816101a8015281816102e901526103f90152f35b6040513d5f823e3d90fd5b634e487b7160e01b5f52604160045260245ffd5b5f80fd5b51906001600160a01b03821682036101155756fe6080806040526004361015610012575f80fd5b5f3560e01c90816311464fbe14610196575080631a8d0de21461015a57806331af1908146101325780635fbfb9cf1461010b5780638cb84e18146100d257806398e86281146100945763ea4d3c9b14610069575f80fd5b34610090575f366003190112610090575f546040516001600160a01b039091168152602090f35b5f80fd5b34610090576020366003190112610090576001600160a01b036100b56101d7565b166bffffffffffffffffffffffff60a01b60015416176001555f80f35b346100905760403660031901126100905760206100f96100f06101d7565b60243590610379565b6040516001600160a01b039091168152f35b346100905760403660031901126100905760206100f96101296101d7565b6024359061025f565b34610090575f366003190112610090576001546040516001600160a01b039091168152602090f35b34610090576020366003190112610090576001600160a01b0361017b6101d7565b166bffffffffffffffffffffffff60a01b5f5416175f555f80f35b34610090575f366003190112610090577f00000000000000000000000000000000000000000000000000000000000000006001600160a01b03168152602090f35b600435906001600160a01b038216820361009057565b90601f8019910116810190811067ffffffffffffffff82111761020f57604052565b634e487b7160e01b5f52604160045260245ffd5b6001600160a01b0390911681526040602080830182905283519183018290526060938291018484015e5f828201840152601f01601f1916010190565b919061026b8184610379565b803b61036b57506001545f5460405163c0c53b8b60e01b60208201526001600160a01b0386811660248301529283166044820152911660648201526102bd81608481015b03601f1981018352826101ed565b6040516102a28082019082821067ffffffffffffffff83111761020f5784938392610317926104a585397f00000000000000000000000000000000000000000000000000000000000000006001600160a01b031690610223565b03905ff5928315610360576040519182526001600160a01b0393841693169083907f79ca5f0cf92c9686a563718b382c5205302fbb2f83e4c6a2c0e0ddbe7ac3940a90602090a3565b6040513d5f823e3d90fd5b6001600160a01b0316925050565b6001545f5460405163c0c53b8b60e01b60208201526001600160a01b039384166024820152918316604483015290911660648201526103bb81608481016102af565b6040519061045e6102a26103d260208201856101ed565b80845260208401906104a5823960206040519361042d8561041f8482019360018060a01b037f00000000000000000000000000000000000000000000000000000000000000001685610223565b03601f1981018752866101ed565b60405194859383850197518091895e840190838201905f8252519283915e01015f815203601f1981018352826101ed565b5190209060405191602083019160ff60f81b83523060601b602185015260358401526055830152605582526104946075836101ed565b905190206001600160a01b03169056fe60806040526102a2803803806100148161016e565b9283398101604082820312610156578151916001600160a01b03831690818403610156576020810151906001600160401b038211610156570182601f82011215610156578051906001600160401b03821161015a5761007c601f8301601f191660200161016e565b938285526020838301011161015657815f9260208093018387015e8401015281511561014757823b15610135577f360894a13ba1a3210667c828492db98dca3e2076cc3735a920a3ca505d382bbc80546001600160a01b031916821790557fbc7cd75a20ee27fd9adebab32041f755214dbc6bffa90cc0225b39da2e5c2d3b5f80a280511561011e5761010e91610193565b505b604051608290816102208239f35b505034156101105763b398979f60e01b5f5260045ffd5b634c9c8ce360e01b5f5260045260245ffd5b6330a289cf60e21b5f5260045ffd5b5f80fd5b634e487b7160e01b5f52604160045260245ffd5b6040519190601f01601f191682016001600160401b0381118382101761015a57604052565b905f8091602081519101845af4808061020c575b156101c75750506040513d81523d5f602083013e60203d82010160405290565b156101ec57639996b31560e01b5f9081526001600160a01b0391909116600452602490fd5b3d156101fd576040513d5f823e3d90fd5b63d6bda27560e01b5f5260045ffd5b503d1515806101a75750813b15156101a756fe60806040527f360894a13ba1a3210667c828492db98dca3e2076cc3735a920a3ca505d382bbc545f9081906001600160a01b0316368280378136915af43d5f803e156048573d5ff35b3d5ffdfea26469706673582212204fafc0dca87cad63ceb87f77cef74ae1959ef82216dbd5830fe2a5f379ca8eba64736f6c634300081c0033a2646970667358221220a1b44cf3b40d2aed72a1dafe66696aacdc5f4534e017e1aee77ddf11bae3a75164736f6c634300081c003360c03461012b57601f612c9738819003918201601f19168301916001600160401b0383118484101761012f5780849260209460405283398101031261012b57516001600160a01b038116810361012b573060805260a0525f516020612c775f395f51905f525460ff8160401c1661011c576002600160401b03196001600160401b038216016100c6575b604051612b33908161014482396080518181816108cd01526109f4015260a0518181816105c3015281816111f90152818161161d0152611f800152f35b6001600160401b0319166001600160401b039081175f516020612c775f395f51905f52556040519081527fc7f505b2f371ae2175ee4913f4499e1f2633a7b5936321eed1cdaeb6115181d290602090a15f610089565b63f92ee8a960e01b5f5260045ffd5b5f80fd5b634e487b7160e01b5f52604160045260245ffdfe6080604052600436101561001a575b3615610018575f80fd5b005b5f3560e01c80630db02622146101e95780630f460cb4146101e4578063112d3a7d146101df5780631626ba7e146101da578063173825d9146101d557806319822f7c146101d05780631a8d0de2146101cb5780632f54bf6e146101c657806334fcd5be146101c15780634c1ed102146101bc5780634f1ef286146101b757806352d1902d146101b257806354fd4d50146101ad578063579b7115146101a85780637065cb48146101a35780639517e29f1461019e5780639cfd7cff14610199578063a1c9427a14610194578063a71763a81461018f578063ab18c40f1461018a578063ad3cb1cc14610185578063b0d691fe14610180578063b61d27f61461017b578063c0c53b8b14610176578063d03c791414610171578063d087d2881461016c578063ea4d3c9b14610167578063f19816d3146101625763f2dc691d0361000e576117e7565b6116ba565b611693565b6115ec565b6115d1565b611449565b611228565b6111e4565b61119d565b61107f565b610ef8565b610e73565b610dd2565b610ba5565b610ade565b610ab5565b610a6e565b6109e2565b61088b565b610787565b61072c565b6106ec565b61067a565b610588565b61047b565b61034b565b6102e9565b610219565b6101fc565b5f9103126101f857565b5f80fd5b346101f8575f3660031901126101f8576020600254604051908152f35b346101f85760203660031901126101f8576004355f525f516020612ade5f395f51905f5260205260405f2060018154910154906102686040519283928360209093929193604081019481520152565b0390f35b6001600160a01b038116036101f857565b9181601f840112156101f8578235916001600160401b0383116101f857602083818601950101116101f857565b60606003198201126101f857600435916024356102c68161026c565b91604435906001600160401b0382116101f8576102e59160040161027d565b9091565b346101f857602060ff61033f6102fe366102aa565b5050905f527f1f14a6accceab237b8ab0463623403008b2dec742c79d1d0e63a7729f8c11c00845260405f209060018060a01b03165f5260205260405f2090565b54166040519015158152f35b346101f85760403660031901126101f8576004356024356001600160401b0381116101f85761037e90369060040161027d565b9161038a368484610837565b91602084101580610411575b936103a7946103e4575b5050611e76565b156103d357610268630b135d3f60e11b5b6040516001600160e01b031990911681529081906020820190565b6102686001600160e01b03196103b8565b61040692935090816103f86103fe93611850565b9161187c565b8101906118a2565b915050905f806103a0565b50601f19840193808511610476577f649264926492649264926492649264926492649264926492649264926492649261044f826103a797818661188a565b90359060208110610465575b5014909450610396565b5f199060200360031b1b165f61045b565b61183c565b346101f85760203660031901126101f8576004356104988161026c565b303303610579576001600160a01b0381165f8181526001602052604090205490919060ff16156104c7565b1590565b61055e5760016002541480610548575b610539576001600160a01b03165f908152600160205260409020610500905b805460ff19169055565b61051361050e6002546118f6565b600255565b7f58619076adf5bb0943d100ef88d52d7c3fd691b19d3a9071b555b651fbf418da5f80a2005b632352e49760e21b5f5260045ffd5b505f516020612a9e5f395f51905f5254156104d7565b63298f10e760e11b5f526001600160a01b031660045260245ffd5b63295d6e8760e21b5f5260045ffd5b346101f85760603660031901126101f8576004356001600160401b0381116101f85761012060031982360301126101f85760243590604435907f00000000000000000000000000000000000000000000000000000000000000006001600160a01b031633819003610657575060ff9261061661060f8361010461061c950190600401611947565b3691610837565b90611e76565b1561064f575f905b80610637575b5060405191168152602090f35b5f80808093335af150610648611aca565b505f61062a565b600190610624565b63fe34a6d360e01b5f5233600452306024526001600160a01b031660445260645ffd5b346101f85760203660031901126101f8576004356106978161026c565b30331415806106d5575b6106c6575f80546001600160a01b0319166001600160a01b0392909216919091179055005b6330a0953960e21b5f5260045ffd5b50335f52600160205260ff60405f205416156106a1565b346101f85760203660031901126101f8576004356107098161026c565b60018060a01b03165f526001602052602060ff60405f2054166040519015158152f35b346101f85760203660031901126101f8576004356001600160401b0381116101f857366023820112156101f85780600401356001600160401b0381116101f8573660248260051b840101116101f85760246100189201611990565b346101f85760203660031901126101f8576004355f525f516020612a3e5f395f51905f52602052602060ff60405f2054166040519015158152f35b634e487b7160e01b5f52604160045260245ffd5b90601f801991011681019081106001600160401b038211176107f757604052565b6107c2565b6040519061080b6040836107d6565b565b6040519061080b60e0836107d6565b6001600160401b0381116107f757601f01601f191660200190565b9291926108438261081c565b9161085160405193846107d6565b8294818452818301116101f8578281602093845f960137010152565b9080601f830112156101f85781602061088893359101610837565b90565b60403660031901126101f8576004356108a38161026c565b6024356001600160401b0381116101f8576108c290369060040161086d565b906001600160a01b037f0000000000000000000000000000000000000000000000000000000000000000163081149081156109c0575b506109b157303303610579576040516352d1902d60e01b8152916020836004816001600160a01b0386165afa5f9381610980575b5061094d57634c9c8ce360e01b5f526001600160a01b03821660045260245ffd5b905f516020612a7e5f395f51905f52830361096c5761001892506122b0565b632a87526960e21b5f52600483905260245ffd5b6109a391945060203d6020116109aa575b61099b81836107d6565b810190612011565b925f61092c565b503d610991565b63703e46dd60e11b5f5260045ffd5b5f516020612a7e5f395f51905f52546001600160a01b0316141590505f6108f8565b346101f8575f3660031901126101f8577f00000000000000000000000000000000000000000000000000000000000000006001600160a01b031630036109b15760206040515f516020612a7e5f395f51905f528152f35b805180835260209291819084018484015e5f828201840152601f01601f1916010190565b906020610888928181520190610a39565b346101f8575f3660031901126101f857610268604051610a8f6040826107d6565b60058152640322e302e360dc1b6020820152604051918291602083526020830190610a39565b346101f8575f3660031901126101f85760205f516020612a9e5f395f51905f5254604051908152f35b346101f85760203660031901126101f857600435610afb8161026c565b303303610579576001600160a01b038116908115610b9657815f52600160205260ff60405f205416610b83576001600160a01b03165f908152600160205260409020610b4f905b805460ff19166001179055565b610b5d61050e600254611a24565b7f994a936646fe87ffe4f1e469d3d6aa417d6b855598397f323de5b449f765f0c35f80a2005b506316e832e960e21b5f5260045260245ffd5b63d92e233d60e01b5f5260045ffd5b346101f857610bb3366102aa565b903033141580610dbb575b6106c6576001600160a01b038316918215610b9657610bdf6104c386612020565b610da757610c0f610c0885610bf38861180f565b9060018060a01b03165f5260205260405f2090565b5460ff1690565b610d86576004851480610d5d575b610d4e57610c31610b4285610bf38861180f565b610c5884610c53875f525f516020612a5e5f395f51905f5260205260405f2090565b611a47565b823b156101f857610c82925f92836040518096819582946306d61fe760e41b845260048401611aae565b03925af19081610d34575b50610cf057610cd3610cce610cec93610cb46104f6610caa611aca565b95610bf38461180f565b5f525f516020612a5e5f395f51905f5260205260405f2090565b611af9565b604051634f8c520960e01b815291829160048301610a5d565b0390fd5b604080519283526001600160a01b0390911660208301527fd21d0b289f126c4b473ea641963e766833c2f13866e4ff480abd787c100ef1239190819081015b0390a1005b80610d425f610d48936107d6565b806101ee565b5f610c8d565b63379c814d60e21b5f5260045ffd5b506008610d7e865f525f516020612a5e5f395f51905f5260205260405f2090565b541015610c1d565b630b961e3560e11b5f5260048590526001600160a01b03841660245260445ffd5b63041c38b360e41b5f52600485905260245ffd5b50335f52600160205260ff60405f20541615610bbe565b346101f8575f3660031901126101f857610268604051610df36040826107d6565b601b81527f736d6172742d6167656e742e6167656e742d6163636f756e742e3200000000006020820152604051918291602083526020830190610a39565b60206040818301928281528451809452019201905f5b818110610e545750505090565b82516001600160a01b0316845260209384019390920191600101610e47565b346101f85760203660031901126101f8576004355f525f516020612a5e5f395f51905f5260205260405f206040519081602082549182815201915f5260205f20905f5b818110610ed95761026885610ecd818703826107d6565b60405191829182610e31565b82546001600160a01b0316845260209093019260019283019201610eb6565b346101f857610f06366102aa565b903033141580611068575b6106c657610f216104c385612020565b61105457610f386104c3610c0885610bf38861180f565b611033576001600160a01b03831691823b156101f857610f71925f9283604051809681958294638a91b0e360e01b845260048401611aae565b03925af1908161101f575b50610fa557610cec610f8c611aca565b6040516319d6ca0d60e21b815291829160048301610a5d565b7f341347516a9de374859dfda710fa4828b2d48cb57d4fbe4c1149612b8e02276e91610fd76104f683610bf38461180f565b610ffe82610ff9835f525f516020612a5e5f395f51905f5260205260405f2090565b612049565b604080519182526001600160a01b0390921660208201529081908101610d2f565b80610d425f61102d936107d6565b5f610f7c565b635f300b3960e11b5f5260048490526001600160a01b03831660245260445ffd5b63041c38b360e41b5f52600484905260245ffd5b50335f52600160205260ff60405f20541615610f11565b346101f85760203660031901126101f857600435303303610579575f8181525f516020612a3e5f395f51905f52602052604090205460ff161561118b5760016110d96002545f516020612a9e5f395f51905f525490611bb4565b1461117c5761110a6110ff825f525f516020612ade5f395f51905f5260205260405f2090565b60015f918281550155565b61112b6104f6825f525f516020612a3e5f395f51905f5260205260405f2090565b6111566111455f516020612a9e5f395f51905f525461185f565b5f516020612a9e5f395f51905f5255565b7f6478f30699d78c25aec768184c69105e8f3606c825c91ca4511e96ae6a4e4e1f5f80a2005b63c4c8547360e01b5f5260045ffd5b63752d090f60e01b5f5260045260245ffd5b346101f8575f3660031901126101f8576102686040516111be6040826107d6565b60058152640352e302e360dc1b6020820152604051918291602083526020830190610a39565b346101f8575f3660031901126101f8576040517f00000000000000000000000000000000000000000000000000000000000000006001600160a01b03168152602090f35b346101f85760603660031901126101f8576004356112458161026c565b6024356044356001600160401b0381116101f85761126790369060040161027d565b9091611271611f7e565b60045f525f516020612a5e5f395f51905f526020526112af7f0b73fd07d5abf1468d9a60de00f6d65eeaf10d89f9fda4d5da5f13e565b91b37611b39565b6112b98151611bd8565b94604051936112e0856112d28389888760208601611c21565b03601f1981018752866107d6565b5f5b83518110156113925761131761130b61130b6112fe8488611c45565b516001600160a01b031690565b6001600160a01b031690565b905f604051809363d68f602560e01b825281838161133a8d8d3360048501611cc2565b03925af1801561138d576001925f9161136b575b50611359828b611c45565b52611364818a611c45565b50016112e2565b61138791503d805f833e61137f81836107d6565b810190611c9d565b5f61134e565b611abf565b505f9182918895886113a960405180948193611ce6565b03925af16113b5611aca565b901561144157505f5b8151811015610018576113da61130b61130b6112fe8486611c45565b906113e58185611c45565b5191803b156101f857604051630b9dfbed60e11b8152925f9184918290849082906114139060048301610a5d565b03925af191821561138d5760019261142d575b50016113be565b80610d425f61143b936107d6565b84611426565b602081519101fd5b346101f85760603660031901126101f8576004356114668161026c565b602435906114738261026c565b60443561147f8161026c565b5f516020612abe5f395f51905f5254926001600160401b036114b060ff604087901c1615956001600160401b031690565b16801590816115c9575b60011490816115bf575b1590816115b6575b506115a75761150f928461150660016001600160401b03195f516020612abe5f395f51905f525416175f516020612abe5f395f51905f5255565b61157257611cf3565b61151557005b61153f60ff60401b195f516020612abe5f395f51905f5254165f516020612abe5f395f51905f5255565b604051600181527fc7f505b2f371ae2175ee4913f4499e1f2633a7b5936321eed1cdaeb6115181d2908060208101610d2f565b6115a2600160401b60ff60401b195f516020612abe5f395f51905f525416175f516020612abe5f395f51905f5255565b611cf3565b63f92ee8a960e01b5f5260045ffd5b9050155f6114cc565b303b1591506114c4565b8591506114ba565b346101f85760203660031901126101f85760206040515f8152f35b346101f8575f3660031901126101f857604051631aab3f0d60e11b81523060048201525f60248201526020816044817f00000000000000000000000000000000000000000000000000000000000000006001600160a01b03165afa801561138d575f9061165f575b604051908152602090f35b506020813d60201161168b575b81611679602093836107d6565b810103126101f8576102689051611654565b3d915061166c565b346101f8575f3660031901126101f8575f546040516001600160a01b039091168152602090f35b346101f85760603660031901126101f85760043560443560243530330361057957801580156117df575b6117d0575f8381525f516020612a3e5f395f51905f52602052604090205460ff166117bc57907f225b99aa4fde5bb1838d392d0db95613cbabd13dfb9d2999653b8c4c9386db049161176f6117376107fc565b82815283602082015261175e865f525f516020612ade5f395f51905f5260205260405f2090565b906020600191805184550151910155565b611790610b42855f525f516020612a3e5f395f51905f5260205260405f2090565b6117aa6111455f516020612a9e5f395f51905f5254611b8a565b604080519182526020820192909252a2005b63402fbf2f60e11b5f52600483905260245ffd5b63543f188160e01b5f5260045ffd5b5081156116e4565b346101f85760203660031901126101f8576020611805600435612020565b6040519015158152f35b5f527f1f14a6accceab237b8ab0463623403008b2dec742c79d1d0e63a7729f8c11c0060205260405f2090565b634e487b7160e01b5f52601160045260245ffd5b601f1981019190821161047657565b5f1981019190821161047657565b60071981019190821161047657565b9092919283116101f8579190565b909392938483116101f85784116101f8578101920390565b916060838303126101f85782356118b88161026c565b9260208101356001600160401b0381116101f857836118d891830161086d565b9260408201356001600160401b0381116101f857610888920161086d565b8015610476575f190190565b634e487b7160e01b5f52603260045260245ffd5b91908110156119385760051b81013590605e19813603018212156101f8570190565b611902565b356108888161026c565b903590601e19813603018212156101f857018035906001600160401b0382116101f8576020019181360383136101f857565b604090610888939281528160208201520190610a39565b90611999611f7e565b5f5b8181106119a757505050565b6119e96104c36119e36119bb848688611916565b6119c48161193d565b906119d86020820135916040810190611947565b93905a943691610837565b91611fdd565b6119f55760010161199b565b600182145f0361200957611a07611fef565b604051635a15467560e01b8152918291610cec9160048401611979565b5f1981146104765760010190565b8054821015611938575f5260205f2001905f90565b90815491600160401b8310156107f75782611a6a91600161080b95018155611a32565b81546001600160a01b0393841660039290921b91821b9390911b1916919091179055565b908060209392818452848401375f828201840152601f01601f1916010190565b916020610888938181520191611a8e565b6040513d5f823e3d90fd5b3d15611af4573d90611adb8261081c565b91611ae960405193846107d6565b82523d5f602084013e565b606090565b80548015611b25575f190190611b0f8282611a32565b81549060018060a01b039060031b1b1916905555565b634e487b7160e01b5f52603160045260245ffd5b90604051918281549182825260208201905f5260205f20925f5b818110611b6857505061080b925003836107d6565b84546001600160a01b0316835260019485019487945060209093019201611b53565b906001820180921161047657565b90602b820180921161047657565b906006820180921161047657565b9190820180921161047657565b6001600160401b0381116107f75760051b60200190565b90611be282611bc1565b611bef60405191826107d6565b8281528092611c00601f1991611bc1565b01905f5b828110611c1057505050565b806060602080938501015201611c04565b610888949260609260018060a01b0316825260208201528160408201520191611a8e565b80518210156119385760209160051b010190565b81601f820112156101f857602081519101611c738261081c565b92611c8160405194856107d6565b828452828201116101f857815f926020928386015e8301015290565b906020828203126101f85781516001600160401b0381116101f8576108889201611c59565b610888939260609260018060a01b0316825260208201528160408201520190610a39565b908092918237015f815290565b6001600160a01b0316908115610b9657815f526001602052611d1f60405f20600160ff19825416179055565b6001600255817f994a936646fe87ffe4f1e469d3d6aa417d6b855598397f323de5b449f765f0c35f80a26001600160a01b038116918215159081611dd4575b50611d86575b505060018060a01b03166bffffffffffffffffffffffff60a01b5f5416175f55565b6001600160a01b03165f908152600160205260409020611da590610b42565b600280557f994a936646fe87ffe4f1e469d3d6aa417d6b855598397f323de5b449f765f0c35f80a25f80611d64565b90508214155f611d5e565b8051156119385760200190565b908151811015611938570160200190565b60405160809190611e0e83826107d6565b6041815291601f1901366020840137565b60408051909190611e3083826107d6565b60208152918290601f190190369060200137565b90611e4e8261081c565b611e5b60405191826107d6565b8281528092611e6c601f199161081c565b0190602036910137565b6041825114611f74576001825110611f6e5760ff611ead611ea7611e9985611ddf565b516001600160f81b03191690565b60f81c90565b168015611f1857600114611ec15750505f90565b9091611ed5611ed0845161185f565b611e44565b905f5b8251811015611f0c5780611ef9611e99611ef3600194611b8a565b88611dec565b5f1a611f058286611dec565b5301611ed8565b509250610888916121a5565b5060428293925103611f6857611f2c611dfd565b905f5b60418110611f4357506108889293506120df565b80611f55611e99611ef3600194611b8a565b5f1a611f618286611dec565b5301611f2f565b505f9150565b50505f90565b90610888916120df565b7f00000000000000000000000000000000000000000000000000000000000000006001600160a01b03163381141580611fd3575b80611fbf575b6106575750565b505f546001600160a01b0316331415611fb8565b5030331415611fb2565b925f939184939260208451940192f190565b3d604051906020818301016040528082525f602083013e90565b611441611fef565b908160209103126101f8575190565b6001811490811561203e575b8115612036575090565b600491501490565b60028114915061202c565b80545f5b81811061205a5750505050565b6120648184611a32565b905460039190911b1c6001600160a01b03908116908516146120885760010161204d565b5f19820193508184116104765761080b9381036120a7575b5050611af9565b611a6a6120bf6120b96120d89461185f565b85611a32565b905460039190911b1c6001600160a01b03169184611a32565b5f806120a0565b906120ea8183612352565b50600481101561216957159081612184575b5061217d57612134917f19457468657265756d205369676e6564204d6573736167653a0a3332000000005f52601c52603c5f20612352565b50600481101561216957159081612149575090565b6001600160a01b03165f9081526001602052604090206108889150610c08565b634e487b7160e01b5f52602160045260245ffd5b5050600190565b6001600160a01b03165f9081526001602052604081205460ff1691506120fc565b908051810160208101916020818303126101f8576020810151906001600160401b0382116101f857019060e090829003126101f8576121e261080d565b9160208201516001600160401b0381116101f85781602061220592850101611c59565b83526040820151916001600160401b0383116101f85761222f60e092602061227e95840101611c59565b6020850152606081015160408501526080810151606085015260a0810151608085015260c081015160a085015201518060c08401525f525f516020612ade5f395f51905f5260205260405f2090565b918254908115806122a4575b61229c576001610888940154926123b2565b505050505f90565b5060018401541561228a565b90813b15612331575f516020612a7e5f395f51905f5280546001600160a01b0319166001600160a01b0384169081179091557fbc7cd75a20ee27fd9adebab32041f755214dbc6bffa90cc0225b39da2e5c2d3b5f80a2805115612319576123169161244f565b50565b50503461232257565b63b398979f60e01b5f5260045ffd5b50634c9c8ce360e01b5f9081526001600160a01b0391909116600452602490fd5b81519190604183036123825761237b9250602082015190606060408401519301515f1a906124c2565b9192909190565b50505f9160029190565b805191908290602001825e015f815290565b6123ab906020939261238c565b9081520190565b9291906123d26104c36020860192835160608801516040890151916125a2565b61229c575f6123ea602092516040519182809261238c565b039060025afa1561138d5760205f61242d8151612421875161241360405193849288840161239e565b03601f1981018352826107d6565b6040519182809261238c565b039060025afa1561138d57610888925f519060a0608082015191015191612703565b905f8091602081519101845af480806124af575b15612472575050610888612803565b1561249757639996b31560e01b5f9081526001600160a01b0391909116600452602490fd5b3d15155f03611abf5763d6bda27560e01b5f5260045ffd5b503d1515806124635750813b1515612463565b91907f7fffffffffffffffffffffffffffffff5d576e7357a4501ddfe92f46681b20a08411612539579160209360809260ff5f9560405194855216868401526040830152606082015282805260015afa1561138d575f516001600160a01b0381161561252f57905f905f90565b505f906001905f90565b5050505f9160039190565b604051906125536040836107d6565b6015825274113a3cb832911d113bb2b130baba34371733b2ba1160591b6020830152565b604051906125866040836107d6565b600d82526c1131b430b63632b733b2911d1160991b6020830152565b909291926125ae612544565b926125ba845183611bb4565b83511061269c575f5b8451811015612622576125e2611e996125dc8386611bb4565b86611dec565b6125ff6125f2611e998489611dec565b6001600160f81b03191690565b6001600160f81b031990911603612618576001016125c3565b5050505050505f90565b509392505061262f612577565b9161264b612646612641855184611bb4565b611b98565b611b8a565b82511061229c575f5b83518110156126a557612673611e9961266d8385611bb4565b85611dec565b6126836125f2611e998488611dec565b6001600160f81b03199091160361269c57600101612654565b50505050505f90565b509291601160f91b60ff60f81b6126c6611e996125dc61264186518a611bb4565b160361229c57610888936126db915190611bb4565b9061281c565b6020815191015190602081106126f5575090565b5f199060200360031b1b1690565b936124139061273a9394604051958694602086019889939160a0959391855260208501526040840152606083015260808201520190565b5f808251846101005afa61274c611aca565b816127f5575b816127e1575b5061217d5773c2b78104907f722dabac4c69f826a522b2754de43b61277d5750505f90565b5f918291519073c2b78104907f722dabac4c69f826a522b2754de45afa6127a2611aca565b816127d3575b816127bf575b506127ba575f80611f6e565b600190565b600191506127cc906126e1565b145f6127ae565b9050602081511015906127a8565b600191506127ee906126e1565b145f612758565b905060208151101590612752565b604051903d82523d5f602084013e60203d830101604052565b9190915f5f905f9261282c611e1f565b955f925b602b841061288a575050505050602003611f6e575f5b6020811061285657505050600190565b612863611e998285611dec565b6001600160f81b031983831a60f81b811691160361288357600101612846565b5050505f90565b6128ab6128a6611e99611ef387869d989a9c9d9b97999b611bb4565b612993565b905f82126129285760061b17956128c190611ba6565b60088110158061291e575b15612909576128da9061186d565b936001600160f81b031987861c60f81b16976129026128f882611a24565b995f1a918b611dec565b53936128c1565b93909297969460019096929601929091612830565b50602088106128cc565b505050509450505050505f90565b60ff6040199116019060ff821161047657565b60ff6060199116019060ff821161047657565b60ff602f199116019060ff821161047657565b60ff601a9116019060ff821161047657565b60ff60349116019060ff821161047657565b60f81c604181101580612a32575b612a2657606181101580612a1b575b612a07576030811015806129fc575b6129e257602d81146129dc57605f146129d7575f1990565b603f90565b50603e90565b6129f66129f16108889261295c565b612981565b60ff1690565b5060398111156129bf565b6129f6612a1661088892612949565b61296f565b50607a8111156129b0565b6129f661088891612936565b50605a8111156129a156fe3b3ffcf51a0a9bcb2764532549426e303b6d219fffb988d3d097bfc22ad32d011f14a6accceab237b8ab0463623403008b2dec742c79d1d0e63a7729f8c11c01360894a13ba1a3210667c828492db98dca3e2076cc3735a920a3ca505d382bbc3b3ffcf51a0a9bcb2764532549426e303b6d219fffb988d3d097bfc22ad32d02f0c57e16840df040f15088dc2f81fe391c3923bec73e23a9662efc9c229c6a003b3ffcf51a0a9bcb2764532549426e303b6d219fffb988d3d097bfc22ad32d00a2646970667358221220bb7fb5a9d80a74f2d961d18834b03b8590d2caa22a63acf9de2f6520a17e0f4b64736f6c634300081c0033f0c57e16840df040f15088dc2f81fe391c3923bec73e23a9662efc9c229c6a00","linkReferences":{}},"methodIdentifiers":{"accountImplementation()":"11464fbe","createAccount(address,uint256)":"5fbfb9cf","delegationManager()":"ea4d3c9b","getAddress(address,uint256)":"8cb84e18","serverSigner()":"31af1908","setDelegationManager(address)":"1a8d0de2","setServerSigner(address)":"98e86281"},"id":67}