{"abi":[{"type":"constructor","inputs":[{"name":"entryPoint_","type":"address","internalType":"contract IEntryPoint"},{"name":"delegationManager_","type":"address","internalType":"address"},{"name":"serverSigner_","type":"address","internalType":"address"}],"stateMutability":"nonpayable"},{"type":"function","name":"accountImplementation","inputs":[],"outputs":[{"name":"","type":"address","internalType":"contract AgentAccount"}],"stateMutability":"view"},{"type":"function","name":"createAccount","inputs":[{"name":"owner","type":"address","internalType":"address"},{"name":"salt","type":"uint256","internalType":"uint256"}],"outputs":[{"name":"account","type":"address","internalType":"contract AgentAccount"}],"stateMutability":"nonpayable"},{"type":"function","name":"delegationManager","inputs":[],"outputs":[{"name":"","type":"address","internalType":"address"}],"stateMutability":"view"},{"type":"function","name":"getAddress","inputs":[{"name":"owner","type":"address","internalType":"address"},{"name":"salt","type":"uint256","internalType":"uint256"}],"outputs":[{"name":"","type":"address","internalType":"address"}],"stateMutability":"view"},{"type":"function","name":"serverSigner","inputs":[],"outputs":[{"name":"","type":"address","internalType":"address"}],"stateMutability":"view"},{"type":"function","name":"setDelegationManager","inputs":[{"name":"dm","type":"address","internalType":"address"}],"outputs":[],"stateMutability":"nonpayable"},{"type":"function","name":"setServerSigner","inputs":[{"name":"signer","type":"address","internalType":"address"}],"outputs":[],"stateMutability":"nonpayable"},{"type":"event","name":"AgentAccountCreated","inputs":[{"name":"account","type":"address","indexed":true,"internalType":"address"},{"name":"owner","type":"address","indexed":true,"internalType":"address"},{"name":"salt","type":"uint256","indexed":false,"internalType":"uint256"}],"anonymous":false}],"bytecode":{"object":"0x60a03461011557601f61288f38819003918201601f19168301916001600160401b03831184841017610101578084926060946040528339810103126101155780516001600160a01b03811691908290036101155761006b604061006460208401610119565b9201610119565b6040519092611fe58083016001600160401b038111848210176101015760209284926108aa843981520301905ff080156100f6576080525f80546001600160a01b039283166001600160a01b0319918216179091556001805493909216921691909117905560405161077c908161012e82396080518181816101a8015281816102e901526103f90152f35b6040513d5f823e3d90fd5b634e487b7160e01b5f52604160045260245ffd5b5f80fd5b51906001600160a01b03821682036101155756fe6080806040526004361015610012575f80fd5b5f3560e01c90816311464fbe14610196575080631a8d0de21461015a57806331af1908146101325780635fbfb9cf1461010b5780638cb84e18146100d257806398e86281146100945763ea4d3c9b14610069575f80fd5b34610090575f366003190112610090575f546040516001600160a01b039091168152602090f35b5f80fd5b34610090576020366003190112610090576001600160a01b036100b56101d7565b166bffffffffffffffffffffffff60a01b60015416176001555f80f35b346100905760403660031901126100905760206100f96100f06101d7565b60243590610379565b6040516001600160a01b039091168152f35b346100905760403660031901126100905760206100f96101296101d7565b6024359061025f565b34610090575f366003190112610090576001546040516001600160a01b039091168152602090f35b34610090576020366003190112610090576001600160a01b0361017b6101d7565b166bffffffffffffffffffffffff60a01b5f5416175f555f80f35b34610090575f366003190112610090577f00000000000000000000000000000000000000000000000000000000000000006001600160a01b03168152602090f35b600435906001600160a01b038216820361009057565b90601f8019910116810190811067ffffffffffffffff82111761020f57604052565b634e487b7160e01b5f52604160045260245ffd5b6001600160a01b0390911681526040602080830182905283519183018290526060938291018484015e5f828201840152601f01601f1916010190565b919061026b8184610379565b803b61036b57506001545f5460405163c0c53b8b60e01b60208201526001600160a01b0386811660248301529283166044820152911660648201526102bd81608481015b03601f1981018352826101ed565b6040516102a28082019082821067ffffffffffffffff83111761020f5784938392610317926104a585397f00000000000000000000000000000000000000000000000000000000000000006001600160a01b031690610223565b03905ff5928315610360576040519182526001600160a01b0393841693169083907f79ca5f0cf92c9686a563718b382c5205302fbb2f83e4c6a2c0e0ddbe7ac3940a90602090a3565b6040513d5f823e3d90fd5b6001600160a01b0316925050565b6001545f5460405163c0c53b8b60e01b60208201526001600160a01b039384166024820152918316604483015290911660648201526103bb81608481016102af565b6040519061045e6102a26103d260208201856101ed565b80845260208401906104a5823960206040519361042d8561041f8482019360018060a01b037f00000000000000000000000000000000000000000000000000000000000000001685610223565b03601f1981018752866101ed565b60405194859383850197518091895e840190838201905f8252519283915e01015f815203601f1981018352826101ed565b5190209060405191602083019160ff60f81b83523060601b602185015260358401526055830152605582526104946075836101ed565b905190206001600160a01b03169056fe60806040526102a2803803806100148161016e565b9283398101604082820312610156578151916001600160a01b03831690818403610156576020810151906001600160401b038211610156570182601f82011215610156578051906001600160401b03821161015a5761007c601f8301601f191660200161016e565b938285526020838301011161015657815f9260208093018387015e8401015281511561014757823b15610135577f360894a13ba1a3210667c828492db98dca3e2076cc3735a920a3ca505d382bbc80546001600160a01b031916821790557fbc7cd75a20ee27fd9adebab32041f755214dbc6bffa90cc0225b39da2e5c2d3b5f80a280511561011e5761010e91610193565b505b604051608290816102208239f35b505034156101105763b398979f60e01b5f5260045ffd5b634c9c8ce360e01b5f5260045260245ffd5b6330a289cf60e21b5f5260045ffd5b5f80fd5b634e487b7160e01b5f52604160045260245ffd5b6040519190601f01601f191682016001600160401b0381118382101761015a57604052565b905f8091602081519101845af4808061020c575b156101c75750506040513d81523d5f602083013e60203d82010160405290565b156101ec57639996b31560e01b5f9081526001600160a01b0391909116600452602490fd5b3d156101fd576040513d5f823e3d90fd5b63d6bda27560e01b5f5260045ffd5b503d1515806101a75750813b15156101a756fe60806040527f360894a13ba1a3210667c828492db98dca3e2076cc3735a920a3ca505d382bbc545f9081906001600160a01b0316368280378136915af43d5f803e156048573d5ff35b3d5ffdfea26469706673582212204fafc0dca87cad63ceb87f77cef74ae1959ef82216dbd5830fe2a5f379ca8eba64736f6c634300081c0033a264697066735822122037496abfed00d303f0ae060a8c2c81a0e63a85a2b00265b6b8e2fdbd5e83f56464736f6c634300081c003360c03461012b57601f611fe538819003918201601f19168301916001600160401b0383118484101761012f5780849260209460405283398101031261012b57516001600160a01b038116810361012b573060805260a0525f516020611fc55f395f51905f525460ff8160401c1661011c576002600160401b03196001600160401b038216016100c6575b604051611e81908161014482396080518181816109910152610a25015260a0518181816102f60152818161064c01528181610dfc01526114320152f35b6001600160401b0319166001600160401b039081175f516020611fc55f395f51905f52556040519081527fc7f505b2f371ae2175ee4913f4499e1f2633a7b5936321eed1cdaeb6115181d290602090a15f610089565b63f92ee8a960e01b5f5260045ffd5b5f80fd5b634e487b7160e01b5f52604160045260245ffdfe608080604052600436101561001c575b50361561001a575f80fd5b005b5f905f3560e01c9081630db026221461111f575080630f460cb4146110e05780631626ba7e14610f7c578063173825d914610eac57806319822f7c14610dc35780631a8d0de214610d575780632f54bf6e14610d1857806334fcd5be14610bf75780634c1ed10214610bbc5780634f1ef286146109e557806352d1902d1461097e57806354fd4d5014610936578063579b71151461090c5780637065cb481461085b5780639cfd7cff146107fa578063ab18c40f146106c7578063ad3cb1cc1461067b578063b0d691fe14610636578063b61d27f6146105bb578063c0c53b8b1461037e578063d087d288146102c3578063ea4d3c9b1461029c5763f19816d30361000f57346102995760603660031901126102995760043560243560443530330361028a5781158015610282575b610273578284525f516020611dac5f395f51905f5260205260ff60408520541661025f57604051604081018181106001600160401b0382111761024b576040528281526001602082018381528587525f516020611e2c5f395f51905f526020526040872092518355519101558284525f516020611dac5f395f51905f5260205260408420600160ff198254161790555f516020611dec5f395f51905f52546001810180911161023757916040917f225b99aa4fde5bb1838d392d0db95613cbabd13dfb9d2999653b8c4c9386db04935f516020611dec5f395f51905f525582519182526020820152a280f35b634e487b7160e01b85526011600452602485fd5b634e487b7160e01b86526041600452602486fd5b63402fbf2f60e11b84526004839052602484fd5b63543f188160e01b8452600484fd5b50801561014b565b63295d6e8760e21b8452600484fd5b80fd5b5034610299578060031936011261029957546040516001600160a01b039091168152602090f35b5034610299578060031936011261029957604051631aab3f0d60e11b8152306004820152602481018290526020816044817f00000000000000000000000000000000000000000000000000000000000000006001600160a01b03165afa908115610373578291610339575b602082604051908152f35b90506020813d60201161036b575b816103546020938361117c565b810103126103675760209150515f61032e565b5080fd5b3d9150610347565b6040513d84823e3d90fd5b503461029957606036600319011261029957610398611166565b6024356001600160a01b03811691908290036105b7576044356001600160a01b038116908190036105b3575f516020611e0c5f395f51905f52549160ff8360401c1615926001600160401b038116801590816105ab575b60011490816105a1575b159081610598575b506105895767ffffffffffffffff1981166001175f516020611e0c5f395f51905f52558361055d575b506001600160a01b031692831561054e57838552600160205260408520600160ff19825416179055600160025560405193807f994a936646fe87ffe4f1e469d3d6aa417d6b855598397f323de5b449f765f0c38780a28115159081610543575b506104fe575b5083546001600160a01b0319161783556104a8575080f35b60207fc7f505b2f371ae2175ee4913f4499e1f2633a7b5936321eed1cdaeb6115181d29168ff0000000000000000195f516020611e0c5f395f51905f5254165f516020611e0c5f395f51905f525560018152a180f35b808552600160205260408520600160ff19825416179055600280557f994a936646fe87ffe4f1e469d3d6aa417d6b855598397f323de5b449f765f0c38580a25f610490565b90508114155f61048a565b63d92e233d60e01b8552600485fd5b68ffffffffffffffffff191668010000000000000001175f516020611e0c5f395f51905f52555f61042a565b63f92ee8a960e01b8652600486fd5b9050155f610401565b303b1591506103f9565b8591506103ef565b8380fd5b8280fd5b503461029957606036600319011261029957806105d6611166565b6044356001600160401b0381116106325782916105fa61060d923690600401611139565b9290610604611430565b5a9336916111cc565b916020835193019160243591f1156106225780f35b61062a6114a9565b602081519101fd5b5050fd5b50346102995780600319360112610299576040517f00000000000000000000000000000000000000000000000000000000000000006001600160a01b03168152602090f35b50346102995780600319360112610299576106c360405161069d60408261117c565b60058152640352e302e360dc1b6020820152604051918291602083526020830190611220565b0390f35b5034610299576020366003190112610299576004353033036107eb578082525f516020611dac5f395f51905f5260205260ff604083205416156107d95760016107216002545f516020611dec5f395f51905f525490611284565b146107ca578082525f516020611e2c5f395f51905f526020528160016040822082815501558082525f516020611dac5f395f51905f526020526040822060ff1981541690555f516020611dec5f395f51905f52545f1981019081116107b6575f516020611dec5f395f51905f52557f6478f30699d78c25aec768184c69105e8f3606c825c91ca4511e96ae6a4e4e1f8280a280f35b634e487b7160e01b83526011600452602483fd5b63c4c8547360e01b8252600482fd5b63752d090f60e01b8252600452602490fd5b63295d6e8760e21b8252600482fd5b5034610299578060031936011261029957506106c360405161081d60408261117c565b601b81527f736d6172742d6167656e742e6167656e742d6163636f756e742e3100000000006020820152604051918291602083526020830190611220565b503461029957602036600319011261029957610875611166565b3033036107eb576001600160a01b031680156108fd57808252600160205260ff6040832054166108eb57808252600160205260408220600160ff198254161790556108c1600254611276565b6002557f994a936646fe87ffe4f1e469d3d6aa417d6b855598397f323de5b449f765f0c38280a280f35b6316e832e960e21b8252600452602490fd5b63d92e233d60e01b8252600482fd5b503461029957806003193601126102995760205f516020611dec5f395f51905f5254604051908152f35b50346102995780600319360112610299576106c360405161095860408261117c565b60058152640322e302e360dc1b6020820152604051918291602083526020830190611220565b50346102995780600319360112610299577f00000000000000000000000000000000000000000000000000000000000000006001600160a01b031630036109d65760206040515f516020611dcc5f395f51905f528152f35b63703e46dd60e11b8152600490fd5b506040366003190112610299576109fa611166565b906024356001600160401b03811161036757610a1a903690600401611202565b916001600160a01b037f000000000000000000000000000000000000000000000000000000000000000016308114908115610b9a575b50610b8b573033036107eb576040516352d1902d60e01b8152926001600160a01b0382169190602085600481865afa80958596610b53575b50610aa157634c9c8ce360e01b84526004839052602484fd5b9091845f516020611dcc5f395f51905f528103610b415750823b15610b2f575f516020611dcc5f395f51905f5280546001600160a01b031916821790557fbc7cd75a20ee27fd9adebab32041f755214dbc6bffa90cc0225b39da2e5c2d3b8480a2805115610b1657610b12916117ea565b5080f35b505034610b205780f35b63b398979f60e01b8152600490fd5b634c9c8ce360e01b8452600452602483fd5b632a87526960e21b8552600452602484fd5b9095506020813d602011610b83575b81610b6f6020938361117c565b81010312610b7f5751945f610a88565b8480fd5b3d9150610b62565b63703e46dd60e11b8252600482fd5b5f516020611dcc5f395f51905f52546001600160a01b0316141590505f610a50565b50346102995760203660031901126102995760ff604060209260043581525f516020611dac5f395f51905f5284522054166040519015158152f35b503461029957602036600319011261029957600435906001600160401b0382116102995736602383011215610299578160040135906001600160401b038211610299573660248360051b8501011161029957610c51611430565b3683900360821901815b83811015610d145760248160051b86010135828112156105b357850160248101803591906001600160a01b0383168303610d10579181610caf610ca48895606487960190611244565b91905a9236916111cc565b92604460208551950193013591f115610cca57600101610c5b565b60018403610cda5761062a6114a9565b610ce26114a9565b90610d0c604051928392635a15467560e01b84526004840152604060248401526044830190611220565b0390fd5b8580fd5b8280f35b50346102995760203660031901126102995760209060ff906040906001600160a01b03610d43611166565b168152600184522054166040519015158152f35b503461029957602036600319011261029957610d71611166565b3033141580610dac575b610d9d5781546001600160a01b0319166001600160a01b039190911617815580f35b6330a0953960e21b8252600482fd5b50338252600160205260ff60408320541615610d7b565b503461029957606036600319011261029957600435906001600160401b03821161029957610120600319833603011261029957604435907f00000000000000000000000000000000000000000000000000000000000000006001600160a01b031633819003610e915750610e56610e4e610e47856101046020970190600401611244565b36916111cc565b6024356112b6565b15610e895780915b80610e71575b505060ff60405191168152f35b81808092335af150610e81611401565b505f80610e64565b600191610e5e565b63fe34a6d360e01b8252336004523060245260445260649150fd5b503461029957602036600319011261029957610ec6611166565b3033036107eb576001600160a01b03168082526001602052604082205460ff1615610f6a5760016002541480610f54575b610f4557808252600160205260408220805460ff1916905560025480156107b6575f19016002557f58619076adf5bb0943d100ef88d52d7c3fd691b19d3a9071b555b651fbf418da8280a280f35b632352e49760e21b8252600482fd5b505f516020611dec5f395f51905f525415610ef7565b63298f10e760e11b8252600452602490fd5b50346110dc5760403660031901126110dc576024356001600160401b0381116110dc57610fad903690600401611139565b610fb83682846111cc565b90602081101580611089575b61100c575b50610fd791506004356112b6565b159050610ffc576020630b135d3f60e11b5b6040516001600160e01b03199091168152f35b60206001600160e01b0319610fe9565b809150601f198101116107b6578101906060601f1983019282601f19910301126105b75780356001600160a01b038116036105b75760208101356001600160401b0381116105b35782611060918301611202565b506040810135916001600160401b0383116105b357610fd7926110839201611202565b5f610fc9565b50809350601f198101116110c8575f92828101601f1901357f649264926492649264926492649264926492649264926492649264926492649214610fc4565b634e487b7160e01b5f52601160045260245ffd5b5f80fd5b346110dc5760203660031901126110dc576004355f525f516020611e2c5f395f51905f526020526040805f206001815491015482519182526020820152f35b346110dc575f3660031901126110dc576020906002548152f35b9181601f840112156110dc578235916001600160401b0383116110dc57602083818601950101116110dc57565b600435906001600160a01b03821682036110dc57565b90601f801991011681019081106001600160401b0382111761119d57604052565b634e487b7160e01b5f52604160045260245ffd5b6001600160401b03811161119d57601f01601f191660200190565b9291926111d8826111b1565b916111e6604051938461117c565b8294818452818301116110dc578281602093845f960137010152565b9080601f830112156110dc5781602061121d933591016111cc565b90565b805180835260209291819084018484015e5f828201840152601f01601f1916010190565b903590601e19813603018212156110dc57018035906001600160401b0382116110dc576020019181360383136110dc57565b5f1981146110c85760010190565b919082018092116110c857565b9081518110156112a2570160200190565b634e487b7160e01b5f52603260045260245ffd5b60418251146113f7578151600181106113f057156112a257602082015160f81c8015611375576001146112e95750505f90565b90918251905f1982019182116110c857611302826111b1565b91611310604051938461117c565b80835261131f601f19916111b1565b013660208401375f5b82518110156113695760018101908181116110c8576001916001600160f81b0319906113549088611291565b51165f1a6113628286611291565b5301611328565b50925061121d916115be565b50604282939251036113ea576040519061139060808361117c565b6041825260603660208401375f5b604181106113b2575061121d9293506114c3565b60018101908181116110c8576001916001600160f81b0319906113d59088611291565b51165f1a6113e38286611291565b530161139e565b505f9150565b5050505f90565b9061121d916114c3565b3d1561142b573d90611412826111b1565b91611420604051938461117c565b82523d5f602084013e565b606090565b7f00000000000000000000000000000000000000000000000000000000000000006001600160a01b0316338114158061149f575b8061148b575b6114715750565b63fe34a6d360e01b5f52336004523060245260445260645ffd5b505f546001600160a01b031633141561146a565b5030331415611464565b3d604051906020818301016040528082525f602083013e90565b906114ce81836116fb565b50600481101561154c57159081611567575b5061156057611518917f19457468657265756d205369676e6564204d6573736167653a0a3332000000005f52601c52603c5f206116fb565b50600481101561154c5715908161152d575090565b6001600160a01b03165f9081526001602052604090205460ff16919050565b634e487b7160e01b5f52602160045260245ffd5b5050600190565b6001600160a01b03165f9081526001602052604081205460ff1691506114e0565b929192611594826111b1565b916115a2604051938461117c565b8294818452818301116110dc578281602093845f96015e010152565b90805181019060208201906020818403126110dc576020810151906001600160401b0382116110dc57019160e090839003126110dc576040519160e083018381106001600160401b0382111761119d5760405260208101516001600160401b0381116110dc5760209082010182601f820112156110dc578281602061164593519101611588565b835260408101516001600160401b0381116110dc5760209082010182601f820112156110dc5760e09281602061167d93519101611588565b6020840152606081015160408401526080810151606084015260a0810151608084015260c081015160a084015201518060c08301525f525f516020611e2c5f395f51905f5260205260405f20918254908115806116ef575b6116e757600161121d94015492611735565b505050505f90565b506001840154156116d5565b815191906041830361172b576117249250602082015190606060408401519301515f1a90611876565b9192909190565b50505f9160029190565b9291906117526020850191825160608701516040880151916118f8565b156116e7575f6020809251604051918183925191829101835e8101838152039060025afa156117df5760205f80518551906117ad848060405180948280830197805191829101895e820190838201520301808452018261117c565b604051918291518091835e8101838152039060025afa156117df5761121d925f519060a0608082015191015191611ab5565b6040513d5f823e3d90fd5b905f8091602081519101845af48080611863575b1561181e5750506040513d81523d5f602083013e60203d82010160405290565b1561184357639996b31560e01b5f9081526001600160a01b0391909116600452602490fd5b3d15611854576040513d5f823e3d90fd5b63d6bda27560e01b5f5260045ffd5b503d1515806117fe5750813b15156117fe565b91907f7fffffffffffffffffffffffffffffff5d576e7357a4501ddfe92f46681b20a084116118ed579160209360809260ff5f9560405194855216868401526040830152606082015282805260015afa156117df575f516001600160a01b038116156118e357905f905f90565b505f906001905f90565b5050505f9160039190565b60408051939490611909818661117c565b601580865274113a3cb832911d113bb2b130baba34371733b2ba1160591b602087015284018085116110c857835110611a89575f5b8551811015611992576001600160f81b031961196361195d8388611284565b86611291565b51166001600160f81b03196119788389611291565b5116036119875760010161193e565b505050505050505f90565b5093509391506119a48351938461117c565b600d8084526c1131b430b63632b733b2911d1160991b602085015282018083116110c857603883018091116110c857603983018091116110c8578151106116e7575f5b8351811015611a39576001600160f81b0319611a0c611a068386611284565b84611291565b51166001600160f81b0319611a218387611291565b511603611a30576001016119e7565b50505050505f90565b50909291611a48815185611284565b602b81018091116110c857601160f91b906001600160f81b031990611a6d9085611291565b5116036116e75761121d93611a83915190611284565b90611bb2565b5050505050505f90565b602081519101519060208110611aa7575090565b5f199060200360031b1b1690565b9391929092604051936020850195865260408501526060840152608083015260a082015260a08152611ae860c08261117c565b5f808251846101005afa611afa611401565b81611ba4575b81611b90575b506115605773c2b78104907f722dabac4c69f826a522b2754de43b611b2c575b50505f90565b5f918291519073c2b78104907f722dabac4c69f826a522b2754de45afa611b51611401565b81611b82575b81611b6e575b50611b69575f80611b26565b600190565b60019150611b7b90611a93565b145f611b5d565b905060208151101590611b57565b60019150611b9d90611a93565b145f611b06565b905060208151101590611b00565b91905f905f905f9260405195611bc960408861117c565b602080885236888201375f915b602b8310611c2e575050505050602003611b26575f5b60208110611bfc57505050600190565b6001600160f81b0319611c0f8285611291565b511682821a60f81b6001600160f81b031916036113f057600101611bec565b611c5760ff60f89a95989496999a1b611c50611c4a888b611284565b85611291565b5116611ce7565b905f8212611cd95760061b1796600681018091116110c85794955b600886101580611ccf575b15611cbf5760071986019586116110c8578596611cb6611c9c82611276565b978a901c60f81b6001600160f81b0319165f1a918b611291565b53959495611c72565b9297969195949360010191611bd6565b5060208710611c7d565b505050509450505050505f90565b60f81c604181101580611da0575b611d8e57606181101580611d83575b611d6257603081101580611d57575b611d3657602d8114611d3057605f14611d2b575f1990565b603f90565b50603e90565b602f190160ff81116110c85760ff603491160160ff81116110c85760ff1690565b506039811115611d13565b6060190160ff81116110c85760ff601a91160160ff81116110c85760ff1690565b50607a811115611d04565b6040190160ff81116110c85760ff1690565b50605a811115611cf556fe3b3ffcf51a0a9bcb2764532549426e303b6d219fffb988d3d097bfc22ad32d01360894a13ba1a3210667c828492db98dca3e2076cc3735a920a3ca505d382bbc3b3ffcf51a0a9bcb2764532549426e303b6d219fffb988d3d097bfc22ad32d02f0c57e16840df040f15088dc2f81fe391c3923bec73e23a9662efc9c229c6a003b3ffcf51a0a9bcb2764532549426e303b6d219fffb988d3d097bfc22ad32d00a2646970667358221220195fbd421c475a224a72b130e4aaedd1a5916add03170936cc2a9a7c0020327b64736f6c634300081c0033f0c57e16840df040f15088dc2f81fe391c3923bec73e23a9662efc9c229c6a00","linkReferences":{}},"methodIdentifiers":{"accountImplementation()":"11464fbe","createAccount(address,uint256)":"5fbfb9cf","delegationManager()":"ea4d3c9b","getAddress(address,uint256)":"8cb84e18","serverSigner()":"31af1908","setDelegationManager(address)":"1a8d0de2","setServerSigner(address)":"98e86281"},"id":64}