{"abi":[{"type":"constructor","inputs":[{"name":"entryPoint_","type":"address","internalType":"contract IEntryPoint"},{"name":"delegationManager_","type":"address","internalType":"address"},{"name":"bundlerSigner_","type":"address","internalType":"address"},{"name":"sessionIssuer_","type":"address","internalType":"address"},{"name":"governance_","type":"address","internalType":"address"}],"stateMutability":"nonpayable"},{"type":"function","name":"accountImplementation","inputs":[],"outputs":[{"name":"","type":"address","internalType":"contract AgentAccount"}],"stateMutability":"view"},{"type":"function","name":"bundlerSigner","inputs":[],"outputs":[{"name":"","type":"address","internalType":"address"}],"stateMutability":"view"},{"type":"function","name":"createAccount","inputs":[{"name":"owner","type":"address","internalType":"address"},{"name":"salt","type":"uint256","internalType":"uint256"}],"outputs":[{"name":"account","type":"address","internalType":"contract AgentAccount"}],"stateMutability":"nonpayable"},{"type":"function","name":"delegationManager","inputs":[],"outputs":[{"name":"","type":"address","internalType":"address"}],"stateMutability":"view"},{"type":"function","name":"getAddress","inputs":[{"name":"owner","type":"address","internalType":"address"},{"name":"salt","type":"uint256","internalType":"uint256"}],"outputs":[{"name":"","type":"address","internalType":"address"}],"stateMutability":"view"},{"type":"function","name":"governance","inputs":[],"outputs":[{"name":"","type":"address","internalType":"address"}],"stateMutability":"view"},{"type":"function","name":"paused","inputs":[],"outputs":[{"name":"","type":"bool","internalType":"bool"}],"stateMutability":"view"},{"type":"function","name":"sessionIssuer","inputs":[],"outputs":[{"name":"","type":"address","internalType":"address"}],"stateMutability":"view"},{"type":"function","name":"setBundlerSigner","inputs":[{"name":"newBundler","type":"address","internalType":"address"}],"outputs":[],"stateMutability":"nonpayable"},{"type":"function","name":"setSessionIssuer","inputs":[{"name":"newIssuer","type":"address","internalType":"address"}],"outputs":[],"stateMutability":"nonpayable"},{"type":"event","name":"AgentAccountCreated","inputs":[{"name":"account","type":"address","indexed":true,"internalType":"address"},{"name":"owner","type":"address","indexed":true,"internalType":"address"},{"name":"salt","type":"uint256","indexed":false,"internalType":"uint256"}],"anonymous":false},{"type":"event","name":"BundlerSignerChanged","inputs":[{"name":"oldVal","type":"address","indexed":true,"internalType":"address"},{"name":"newVal","type":"address","indexed":true,"internalType":"address"}],"anonymous":false},{"type":"event","name":"SessionIssuerChanged","inputs":[{"name":"oldVal","type":"address","indexed":true,"internalType":"address"},{"name":"newVal","type":"address","indexed":true,"internalType":"address"}],"anonymous":false},{"type":"error","name":"NotGovernance","inputs":[]},{"type":"error","name":"SystemPaused","inputs":[]},{"type":"error","name":"ZeroGovernance","inputs":[]}],"bytecode":{"object":"0x60e0346101d157601f61461238819003918201601f19168301916001600160401b038311848410176101ae5780849260a0946040528339810103126101d15780516001600160a01b038116908190036101d15761005e602083016101d5565b61006a604084016101d5565b91610083608061007c606087016101d5565b95016101d5565b6001600160a01b038116156101c25760805260405190613a768083016001600160401b038111848210176101ae576020928492610b9c843981520301905ff080156101a35760a05260c0525f80546001600160a01b03199081166001600160a01b039384169081178355600180549092169490931693841790556040519291907f92595d3567d03c9d1318e534c464636c92483fd2cb1e1222b817c03e2e209bda8180a35f7f59d9b4a9a7dcc1b05873dc2743cbca971962e84ab02282cc82f53d57a862c4e98180a36109b290816101ea823960805181818161017b0152818161021b015281816102a9015261036f015260a05181818161025f01528181610510015261062f015260c051818181609c015281816104a201526105b70152f35b6040513d5f823e3d90fd5b634e487b7160e01b5f52604160045260245ffd5b63027f836560e51b5f5260045ffd5b5f80fd5b51906001600160a01b03821682036101d15756fe60806040526004361015610011575f80fd5b5f3560e01c80630ac254e3146103545780630aca06321461032c5780630f975af21461028e57806311464fbe1461024a5780635aa6e675146102065780635c975abb146101565780635fbfb9cf1461012f57806363d93567146101085780638cb84e18146100cf5763ea4d3c9b14610087575f80fd5b346100cb575f3660031901126100cb576040517f00000000000000000000000000000000000000000000000000000000000000006001600160a01b03168152602090f35b5f80fd5b346100cb5760403660031901126100cb5760206100f66100ed6103e5565b60243590610595565b6040516001600160a01b039091168152f35b346100cb575f3660031901126100cb575f546040516001600160a01b039091168152602090f35b346100cb5760403660031901126100cb5760206100f661014d6103e5565b6024359061046d565b346100cb575f3660031901126100cb576040516358c3de9360e11b81526020816004817f00000000000000000000000000000000000000000000000000000000000000006001600160a01b03165afa80156101fb575f906101bf575b6020906040519015158152f35b506020813d6020116101f3575b816101d9602093836103fb565b810103126100cb575180151581036100cb576020906101b2565b3d91506101cc565b6040513d5f823e3d90fd5b346100cb575f3660031901126100cb576040517f00000000000000000000000000000000000000000000000000000000000000006001600160a01b03168152602090f35b346100cb575f3660031901126100cb576040517f00000000000000000000000000000000000000000000000000000000000000006001600160a01b03168152602090f35b346100cb5760203660031901126100cb576102a76103e5565b7f00000000000000000000000000000000000000000000000000000000000000006001600160a01b0316330361031d575f80546001600160a01b039283166001600160a01b03198216811783559216907f92595d3567d03c9d1318e534c464636c92483fd2cb1e1222b817c03e2e209bda9080a3005b632d5be4cb60e21b5f5260045ffd5b346100cb575f3660031901126100cb576001546040516001600160a01b039091168152602090f35b346100cb5760203660031901126100cb5761036d6103e5565b7f00000000000000000000000000000000000000000000000000000000000000006001600160a01b0316330361031d57600180546001600160a01b039283166001600160a01b0319821681179092559091167f59d9b4a9a7dcc1b05873dc2743cbca971962e84ab02282cc82f53d57a862c4e95f80a3005b600435906001600160a01b03821682036100cb57565b90601f8019910116810190811067ffffffffffffffff82111761041d57604052565b634e487b7160e01b5f52604160045260245ffd5b6001600160a01b0390911681526040602080830182905283519183018290526060938291018484015e5f828201840152601f01601f1916010190565b91906104798184610595565b803b610587575060405163c0c53b8b60e01b60208201526001600160a01b0380851660248301527f00000000000000000000000000000000000000000000000000000000000000001660448201523060648201526104e481608481015b03601f1981018352826103fb565b6040516102a28082019082821067ffffffffffffffff83111761041d578493839261053e926106db85397f00000000000000000000000000000000000000000000000000000000000000006001600160a01b031690610431565b03905ff59283156101fb576040519182526001600160a01b0393841693169083907f79ca5f0cf92c9686a563718b382c5205302fbb2f83e4c6a2c0e0ddbe7ac3940a90602090a3565b6001600160a01b0316925050565b60405163c0c53b8b60e01b60208201526001600160a01b0391821660248201527f000000000000000000000000000000000000000000000000000000000000000090911660448201523060648201526105f181608481016104d6565b604051906106946102a261060860208201856103fb565b80845260208401906106db8239602060405193610663856106558482019360018060a01b037f00000000000000000000000000000000000000000000000000000000000000001685610431565b03601f1981018752866103fb565b60405194859383850197518091895e840190838201905f8252519283915e01015f815203601f1981018352826103fb565b5190209060405191602083019160ff60f81b83523060601b602185015260358401526055830152605582526106ca6075836103fb565b905190206001600160a01b03169056fe60806040526102a2803803806100148161016e565b9283398101604082820312610156578151916001600160a01b03831690818403610156576020810151906001600160401b038211610156570182601f82011215610156578051906001600160401b03821161015a5761007c601f8301601f191660200161016e565b938285526020838301011161015657815f9260208093018387015e8401015281511561014757823b15610135577f360894a13ba1a3210667c828492db98dca3e2076cc3735a920a3ca505d382bbc80546001600160a01b031916821790557fbc7cd75a20ee27fd9adebab32041f755214dbc6bffa90cc0225b39da2e5c2d3b5f80a280511561011e5761010e91610193565b505b604051608290816102208239f35b505034156101105763b398979f60e01b5f5260045ffd5b634c9c8ce360e01b5f5260045260245ffd5b6330a289cf60e21b5f5260045ffd5b5f80fd5b634e487b7160e01b5f52604160045260245ffd5b6040519190601f01601f191682016001600160401b0381118382101761015a57604052565b905f8091602081519101845af4808061020c575b156101c75750506040513d81523d5f602083013e60203d82010160405290565b156101ec57639996b31560e01b5f9081526001600160a01b0391909116600452602490fd5b3d156101fd576040513d5f823e3d90fd5b63d6bda27560e01b5f5260045ffd5b503d1515806101a75750813b15156101a756fe60806040527f360894a13ba1a3210667c828492db98dca3e2076cc3735a920a3ca505d382bbc545f9081906001600160a01b0316368280378136915af43d5f803e156048573d5ff35b3d5ffdfea26469706673582212204fafc0dca87cad63ceb87f77cef74ae1959ef82216dbd5830fe2a5f379ca8eba64736f6c634300081c0033a26469706673582212201a6da84636be26f521aa2d6df59b0508691e0e419a201dce8ee89d7b4715db8564736f6c634300081c003360c03461014f57601f613a7638819003918201601f19168301916001600160401b038311848410176101535780849260209460405283398101031261014f57516001600160a01b038116810361014f573060805260017f9b779b17422d0df92223018b32b4d1fa46e071723d6817e2486d003becc55f005560a0525f516020613a565f395f51905f525460ff8160401c16610140576002600160401b03196001600160401b038216016100ea575b6040516138ee90816101688239608051818181610caf0152610dd6015260a0518181816108720152818161174801528181611cb50152612d660152f35b6001600160401b0319166001600160401b039081175f516020613a565f395f51905f52556040519081527fc7f505b2f371ae2175ee4913f4499e1f2633a7b5936321eed1cdaeb6115181d290602090a15f6100ad565b63f92ee8a960e01b5f5260045ffd5b5f80fd5b634e487b7160e01b5f52604160045260245ffdfe6080604052600436101561001a575b3615610018575f80fd5b005b5f3560e01c80630aca0632146102b95780630db02622146102b45780630f460cb4146102af5780630ff4d31e146102aa578063112d3a7d146102a557806314b93145146102a05780631626ba7e1461029b578063173825d91461029657806319822f7c146102915780631a8d0de21461028c5780632f54bf6e1461028757806334fcd5be1461028257806346f517301461027d5780634c1ed102146102785780634f1ef2861461027357806352d1902d1461026e57806354fd4d5014610269578063579b71151461026457806363d935671461025f5780636c6d6b6c1461025a5780637065cb48146102555780638c879fb9146102505780639517e29f1461024b57806395e93245146102465780639cfd7cff14610241578063a1c9427a1461023c578063a71763a814610237578063ab18c40f14610232578063ad3cb1cc1461022d578063b0d691fe14610228578063b2ea8b4714610223578063b47e0c251461021e578063b61d27f614610219578063bb60a69a14610214578063c0c53b8b1461020f578063c45a01551461020a578063d03c791414610205578063d087d28814610200578063ea4d3c9b146101fb578063f19816d3146101f6578063f2dc691d146101f15763ff2840ed0361000e57611e9d565b611e7f565b611d52565b611d2b565b611c84565b611c69565b611c41565b611b7f565b611b01565b6118d4565b6117bd565b611777565b611733565b6116ec565b6115ce565b611447565b6113c2565b611321565b6112e3565b6110bd565b6110a0565b610fec565b610eda565b610ec0565b610e97565b610e50565b610dc4565b610c6d565b610b69565b610a24565b6109c9565b610998565b610926565b610838565b610734565b610604565b6104d7565b610475565b610368565b610315565b6102f8565b6102cc565b5f9103126102c857565b5f80fd5b346102c8575f3660031901126102c85760206102e6611eec565b6040516001600160a01b039091168152f35b346102c8575f3660031901126102c8576020600254604051908152f35b346102c85760203660031901126102c8576004355f525f5160206138995f395f51905f5260205260405f2060018154910154906103646040519283928360209093929193604081019481520152565b0390f35b346102c85760203660031901126102c8576004353033036103e95762278d0081116103d05760058054908290556040805191825260208201929092527f5ee220812f227c24cacdd4472d80400655197be961bd30798ddbbe7128b0989d91819081015b0390a1005b631a962a1360e11b5f5260045262278d0060245260445ffd5b63295d6e8760e21b5f5260045ffd5b6001600160a01b038116036102c857565b9181601f840112156102c8578235916001600160401b0383116102c857602083818601950101116102c857565b60606003198201126102c85760043591602435610452816103f8565b91604435906001600160401b0382116102c85761047191600401610409565b9091565b346102c857602060ff6104cb61048a36610436565b5050905f527f1f14a6accceab237b8ab0463623403008b2dec742c79d1d0e63a7729f8c11c00845260405f209060018060a01b03165f5260205260405f2090565b54166040519015158152f35b346102c85760203660031901126102c8576004356001600160401b0381116102c857610507903690600401610409565b61050f611f82565b916001600160401b0361052c60208501516001600160401b031690565b16156105f5578251604080516d155411d490511157d0d05390d15360921b602082019081526001600160a01b03909316918101919091523060608201524660808201526105a9936105a593909261059f926105948160a081015b03601f198101835282610bb8565b519020923691610c19565b90612ad6565b1590565b6105e6576105b65f600655565b516001600160a01b03167f3198dc80249fcfedbd0d06e1ff49a7695a51b006592328ce0b127cdeab77e9365f80a2005b633c7adf8b60e11b5f5260045ffd5b636eb093af60e11b5f5260045ffd5b346102c85760403660031901126102c8576004356024356001600160401b0381116102c857610637903690600401610409565b91610643368484610c19565b916020841015806106ca575b936106609461069d575b5050612c24565b1561068c57610364630b135d3f60e11b5b6040516001600160e01b031990911681529081906020820190565b6103646001600160e01b0319610671565b6106bf92935090816106b16106b793611fd5565b91612001565b810190612027565b915050905f80610659565b50601f1984019380851161072f577f64926492649264926492649264926492649264926492649264926492649264926107088261066097818661200f565b9035906020811061071e575b501490945061064f565b5f199060200360031b1b165f610714565b611fc1565b346102c85760203660031901126102c857600435610751816103f8565b3033036103e9576001600160a01b0381165f8181526001602052604090205490919060ff161561080e57600160025414806107f8575b6107e9576001600160a01b03165f9081526001602052604090206107b0905b805460ff19169055565b6107c36107be60025461207b565b600255565b7f58619076adf5bb0943d100ef88d52d7c3fd691b19d3a9071b555b651fbf418da5f80a2005b632352e49760e21b5f5260045ffd5b505f5160206138395f395f51905f525415610787565b63298f10e760e11b5f526001600160a01b031660045260245ffd5b90816101209103126102c85790565b346102c85760603660031901126102c8576004356001600160401b0381116102c857610868903690600401610829565b60243590604435907f00000000000000000000000000000000000000000000000000000000000000006001600160a01b031633819003610903575060ff926108c26108bb836101006108c8950190612558565b3691610c19565b90612c24565b156108fb575f905b806108e3575b5060405191168152602090f35b5f80808093335af1506108f4612597565b505f6108d6565b6001906108d0565b63fe34a6d360e01b5f5233600452306024526001600160a01b031660445260645ffd5b346102c85760203660031901126102c857600435610943816103f8565b3033141580610981575b610972575f80546001600160a01b0319166001600160a01b0392909216919091179055005b6330a0953960e21b5f5260045ffd5b50335f52600160205260ff60405f2054161561094d565b346102c85760203660031901126102c85760206109bf6004356109ba816103f8565b612087565b6040519015158152f35b346102c85760203660031901126102c8576004356001600160401b0381116102c857366023820112156102c85780600401356001600160401b0381116102c8573660248260051b840101116102c857602461001892016120af565b346102c85760803660031901126102c857600435610a41816103f8565b60243590610a4e826103f8565b604435610a5a816103f8565b60643590610a67826103f8565b5f5160206138795f395f51905f5254936001600160401b03610a9860ff604088901c1615966001600160401b031690565b1680159081610b61575b6001149081610b57575b159081610b4e575b50610b3f57610acf9385610ac66125c6565b610b3257612620565b610ad557005b610aff60ff60401b195f5160206138795f395f51905f5254165f5160206138795f395f51905f5255565b604051600181527fc7f505b2f371ae2175ee4913f4499e1f2633a7b5936321eed1cdaeb6115181d29080602081016103cb565b610b3a6125f3565b612620565b63f92ee8a960e01b5f5260045ffd5b9050155f610ab4565b303b159150610aac565b869150610aa2565b346102c85760203660031901126102c8576004355f525f5160206137d95f395f51905f52602052602060ff60405f2054166040519015158152f35b634e487b7160e01b5f52604160045260245ffd5b90601f801991011681019081106001600160401b03821117610bd957604052565b610ba4565b60405190610bed604083610bb8565b565b60405190610bed60e083610bb8565b6001600160401b038111610bd957601f01601f191660200190565b929192610c2582610bfe565b91610c336040519384610bb8565b8294818452818301116102c8578281602093845f960137010152565b9080601f830112156102c857816020610c6a93359101610c19565b90565b60403660031901126102c857600435610c85816103f8565b6024356001600160401b0381116102c857610ca4903690600401610c4f565b906001600160a01b037f000000000000000000000000000000000000000000000000000000000000000016308114908115610da2575b50610d93573033036103e9576040516352d1902d60e01b8152916020836004816001600160a01b0386165afa5f9381610d62575b50610d2f57634c9c8ce360e01b5f526001600160a01b03821660045260245ffd5b905f5160206138195f395f51905f528303610d4e576100189250613073565b632a87526960e21b5f52600483905260245ffd5b610d8591945060203d602011610d8c575b610d7d8183610bb8565b810190612dc3565b925f610d0e565b503d610d73565b63703e46dd60e11b5f5260045ffd5b5f5160206138195f395f51905f52546001600160a01b0316141590505f610cda565b346102c8575f3660031901126102c8577f00000000000000000000000000000000000000000000000000000000000000006001600160a01b03163003610d935760206040515f5160206138195f395f51905f528152f35b805180835260209291819084018484015e5f828201840152601f01601f1916010190565b906020610c6a928181520190610e1b565b346102c8575f3660031901126102c857610364604051610e71604082610bb8565b60058152640322e322e360dc1b6020820152604051918291602083526020830190610e1b565b346102c8575f3660031901126102c85760205f5160206138395f395f51905f5254604051908152f35b346102c8575f3660031901126102c85760206102e6612703565b346102c8575f3660031901126102c857610ef2611f82565b602081016001600160401b03610f0f82516001600160401b031690565b16156105f557516001600160401b0316428111610fcd57610f4082610f335f600655565b516001600160a01b031690565b604051906001600160a01b0381167febae6b88046560d31d8bf8987d05beaf03b5a0d572b558bc963091ba87ba7ee15f80a2303b156102c85763278f794360e11b82526001600160a01b03166004820152604060248201525f604482018190528160648183305af18015610fc857610fb457005b80610fc25f61001893610bb8565b806102be565b611ee1565b6333c0e2e360e21b5f526001600160401b03166004524260245260445ffd5b346102c85760203660031901126102c857600435611009816103f8565b3033036103e9576001600160a01b03811690811561109157815f52600160205260ff60405f20541661107e576001600160a01b03165f90815260016020526040902061105d905b805460ff19166001179055565b61106b6107be60025461273e565b5f5160206137b95f395f51905f525f80a2005b506316e832e960e21b5f5260045260245ffd5b63d92e233d60e01b5f5260045ffd5b346102c8575f3660031901126102c8576020600554604051908152f35b346102c8576110cb36610436565b9030331415806112cc575b610972576001600160a01b038316918215611091576110f76105a586612dd2565b6112b8576111276111208561110b88611f55565b9060018060a01b03165f5260205260405f2090565b5460ff1690565b61129757600485148061126e575b61125f576111496110508561110b88611f55565b6111708461116b875f525f5160206137f95f395f51905f5260205260405f2090565b612761565b823b156102c85761119a925f92836040518096819582946306d61fe760e41b8452600484016127a8565b03925af1908161124b575b50611208576111eb6111e6611204936111cc6107a66111c2612597565b9561110b84611f55565b5f525f5160206137f95f395f51905f5260205260405f2090565b6127b9565b604051634f8c520960e01b815291829160048301610e3f565b0390fd5b604080519283526001600160a01b0390911660208301527fd21d0b289f126c4b473ea641963e766833c2f13866e4ff480abd787c100ef1239190819081016103cb565b80610fc25f61125993610bb8565b5f6111a5565b63379c814d60e21b5f5260045ffd5b50600861128f865f525f5160206137f95f395f51905f5260205260405f2090565b541015611135565b630b961e3560e11b5f5260048590526001600160a01b03841660245260445ffd5b63041c38b360e41b5f52600485905260245ffd5b50335f52600160205260ff60405f205416156110d6565b346102c8575f3660031901126102c85760406112fd611f82565b6001600160401b03602060018060a01b038351169201511682519182526020820152f35b346102c8575f3660031901126102c857610364604051611342604082610bb8565b601b81527f736d6172742d6167656e742e6167656e742d6163636f756e742e3200000000006020820152604051918291602083526020830190610e1b565b60206040818301928281528451809452019201905f5b8181106113a35750505090565b82516001600160a01b0316845260209384019390920191600101611396565b346102c85760203660031901126102c8576004355f525f5160206137f95f395f51905f5260205260405f206040519081602082549182815201915f5260205f20905f5b818110611428576103648561141c81870382610bb8565b60405191829182611380565b82546001600160a01b0316845260209093019260019283019201611405565b346102c85761145536610436565b9030331415806115b7575b610972576114706105a585612dd2565b6115a3576114876105a56111208561110b88611f55565b611582576001600160a01b03831691823b156102c8576114c0925f9283604051809681958294638a91b0e360e01b8452600484016127a8565b03925af1908161156e575b506114f4576112046114db612597565b6040516319d6ca0d60e21b815291829160048301610e3f565b7f341347516a9de374859dfda710fa4828b2d48cb57d4fbe4c1149612b8e02276e916115266107a68361110b84611f55565b61154d82611548835f525f5160206137f95f395f51905f5260205260405f2090565b612dfb565b604080519182526001600160a01b03909216602082015290819081016103cb565b80610fc25f61157c93610bb8565b5f6114cb565b635f300b3960e11b5f5260048490526001600160a01b03831660245260445ffd5b63041c38b360e41b5f52600484905260245ffd5b50335f52600160205260ff60405f20541615611460565b346102c85760203660031901126102c8576004353033036103e9575f8181525f5160206137d95f395f51905f52602052604090205460ff16156116da5760016116286002545f5160206138395f395f51905f525490612823565b146116cb5761165961164e825f525f5160206138995f395f51905f5260205260405f2090565b60015f918281550155565b61167a6107a6825f525f5160206137d95f395f51905f5260205260405f2090565b6116a56116945f5160206138395f395f51905f5254611fe4565b5f5160206138395f395f51905f5255565b7f6478f30699d78c25aec768184c69105e8f3606c825c91ca4511e96ae6a4e4e1f5f80a2005b63c4c8547360e01b5f5260045ffd5b63752d090f60e01b5f5260045260245ffd5b346102c8575f3660031901126102c85761036460405161170d604082610bb8565b60058152640352e302e360dc1b6020820152604051918291602083526020830190610e1b565b346102c8575f3660031901126102c8576040517f00000000000000000000000000000000000000000000000000000000000000006001600160a01b03168152602090f35b346102c85760403660031901126102c857600435611794816103f8565b602435906001600160401b0382116102c8576117b7610018923690600401610409565b91612830565b346102c85760603660031901126102c8576004356001600160401b0381116102c8576117ed903690600401610829565b602435906044356001600160401b0381116102c857611810903690600401610409565b90611819612703565b6001600160a01b038116156118c557604080516f42554e444c45525f454e56454c4f504560801b6020820190815291810187905230606082015246608082015261187a946105a5949092611874926105948160a08101610586565b90612e91565b6118b657611897916108c26108bb836101006105a5950190612558565b6118a75760405160018152602090f35b631ab0a05760e31b5f5260045ffd5b632bcf7b4d60e21b5f5260045ffd5b6329f7dfeb60e21b5f5260045ffd5b346102c85760603660031901126102c8576004356118f1816103f8565b6024356044356001600160401b0381116102c857611913903690600401610409565b909161191d612d2c565b611925612d64565b60045f525f5160206137f95f395f51905f526020526119637f0b73fd07d5abf1468d9a60de00f6d65eeaf10d89f9fda4d5da5f13e565b91b376122cf565b61196d8151612337565b94604051936119948561198683898887602086016129f8565b03601f198101875286610bb8565b5f5b8351811015611a34576119be6119b26119b2610f338488612482565b6001600160a01b031690565b905f604051809363d68f602560e01b82528183816119e18d8d3360048501612a1c565b03925af18015610fc8576001925f91611a12575b50611a00828b612482565b52611a0b818a612482565b5001611996565b611a2e91503d805f833e611a268183610bb8565b8101906124df565b5f6119f5565b505f918291889588611a4b6040518094819361258a565b03925af1611a57612597565b9015611af957505f5b8151811015611ae357611a7c6119b26119b2610f338486612482565b90611a878185612482565b5191803b156102c857604051630b9dfbed60e11b8152925f918491829084908290611ab59060048301610e3f565b03925af1918215610fc857600192611acf575b5001611a60565b80610fc25f611add93610bb8565b84611ac8565b61001860015f5160206138595f395f51905f5255565b602081519101fd5b346102c85760203660031901126102c8576004353033036103e957805f52600460205260ff60405f205416611b6d57805f52600460205260405f20600160ff198254161790557f5f322fdd3795c50a418e26f9eb4dd09bf3df49e308c7a00047befec915b49ad15f80a2005b63e3371ec960e01b5f5260045260245ffd5b346102c85760603660031901126102c857600435611b9c816103f8565b60243590611ba9826103f8565b604435611bb5816103f8565b5f5160206138795f395f51905f5254926001600160401b03611be660ff604087901c1615956001600160401b031690565b1680159081611c39575b6001149081611c2f575b159081611c26575b50610b3f57610acf9284611c146125c6565b15612a4057611c216125f3565b612a40565b9050155f611c02565b303b159150611bfa565b859150611bf0565b346102c8575f3660031901126102c8576003546040516001600160a01b039091168152602090f35b346102c85760203660031901126102c85760206040515f8152f35b346102c8575f3660031901126102c857604051631aab3f0d60e11b81523060048201525f60248201526020816044817f00000000000000000000000000000000000000000000000000000000000000006001600160a01b03165afa8015610fc8575f90611cf7575b604051908152602090f35b506020813d602011611d23575b81611d1160209383610bb8565b810103126102c8576103649051611cec565b3d9150611d04565b346102c8575f3660031901126102c8575f546040516001600160a01b039091168152602090f35b346102c85760603660031901126102c8576004356044356024353033036103e95780158015611e77575b611e68575f8381525f5160206137d95f395f51905f52602052604090205460ff16611e5457907f225b99aa4fde5bb1838d392d0db95613cbabd13dfb9d2999653b8c4c9386db0491611e07611dcf610bde565b828152836020820152611df6865f525f5160206138995f395f51905f5260205260405f2090565b906020600191805184550151910155565b611e28611050855f525f5160206137d95f395f51905f5260205260405f2090565b611e426116945f5160206138395f395f51905f52546127f9565b604080519182526020820192909252a2005b63402fbf2f60e11b5f52600483905260245ffd5b63543f188160e01b5f5260045ffd5b508115611d7c565b346102c85760203660031901126102c85760206109bf600435612dd2565b346102c85760203660031901126102c8576004355f526004602052602060ff60405f2054166040519015158152f35b908160209103126102c85751610c6a816103f8565b6040513d5f823e3d90fd5b6003546001600160a01b03168015611f5057602060049160405192838092630565031960e11b82525afa908115610fc8575f91611f27575090565b610c6a915060203d602011611f49575b611f418183610bb8565b810190611ecc565b503d611f37565b505f90565b5f527f1f14a6accceab237b8ab0463623403008b2dec742c79d1d0e63a7729f8c11c0060205260405f2090565b60405190604082018281106001600160401b03821117610bd9576040526006546001600160a01b038116835260a01c6001600160401b03166020830152565b634e487b7160e01b5f52601160045260245ffd5b601f1981019190821161072f57565b5f1981019190821161072f57565b60071981019190821161072f57565b9092919283116102c8579190565b909392938483116102c85784116102c8578101920390565b916060838303126102c857823561203d816103f8565b9260208101356001600160401b0381116102c8578361205d918301610c4f565b9260408201356001600160401b0381116102c857610c6a9201610c4f565b801561072f575f190190565b6001600160a01b03163081146120a9575f52600160205260ff60405f20541690565b50600190565b6120b7612d2c565b6120bf612d64565b60045f525f5160206137f95f395f51905f526020526120fd7f0b73fd07d5abf1468d9a60de00f6d65eeaf10d89f9fda4d5da5f13e565b91b376122cf565b6121078151612337565b936040519261212c8461211e8784602084016123a0565b03601f198101865285610bb8565b5f5b83518110156121b75761214a6119b26119b2610f338488612482565b905f604051809363d68f602560e01b825281838161216c8c3360048401612504565b03925af18015610fc8576001925f9161219d575b5061218b828a612482565b526121968189612482565b500161212e565b6121b191503d805f833e611a268183610bb8565b5f612180565b50919250925f5b818110612267575050505f5b815181101561224d576121e66119b26119b2610f338486612482565b906121f18186612482565b5191803b156102c857604051630b9dfbed60e11b8152925f91849182908490829061221f9060048301610e3f565b03925af1918215610fc857600192612239575b50016121ca565b80610fc25f61224793610bb8565b5f612232565b50509050610bed60015f5160206138595f395f51905f5255565b5f8061227c61227784868861252c565b61254e565b602061228985878961252c565b01356122a361229986888a61252c565b6040810190612558565b91906122b46040518094819361258a565b03925af16122c0612597565b9015611af957506001016121be565b90604051918281549182825260208201905f5260205f20925f5b8181106122fe575050610bed92500383610bb8565b84546001600160a01b03168352600194850194879450602090930192016122e9565b6001600160401b038111610bd95760051b60200190565b9061234182612320565b61234e6040519182610bb8565b828152809261235f601f1991612320565b01905f5b82811061236f57505050565b806060602080938501015201612363565b908060209392818452848401375f828201840152601f01601f1916010190565b91806020840160208552526040830160408260051b85010193835f91605e1982360301905b8584106123d6575050505050505090565b90919293949596603f198282030186528735838112156102c857840180356123fd816103f8565b6001600160a01b0316825260208181013590830152604081013536829003601e19018112156102c85701602081359101906001600160401b0381116102c85780360382136102c85761245f602092839260608681604060019901520191612380565b990197960194019291906123c5565b634e487b7160e01b5f52603260045260245ffd5b80518210156124965760209160051b010190565b61246e565b81601f820112156102c8576020815191016124b582610bfe565b926124c36040519485610bb8565b828452828201116102c857815f926020928386015e8301015290565b906020828203126102c85781516001600160401b0381116102c857610c6a920161249b565b6001600160a01b0390911681525f6020820152606060408201819052610c6a92910190610e1b565b91908110156124965760051b81013590605e19813603018212156102c8570190565b35610c6a816103f8565b903590601e19813603018212156102c857018035906001600160401b0382116102c8576020019181360383136102c857565b908092918237015f815290565b3d156125c1573d906125a882610bfe565b916125b66040519384610bb8565b82523d5f602084013e565b606090565b60016001600160401b03195f5160206138795f395f51905f525416175f5160206138795f395f51905f5255565b600160401b60ff60401b195f5160206138795f395f51905f525416175f5160206138795f395f51905f5255565b909291906001600160a01b0316801561109157610bed93815f52600160205261265360405f20600160ff19825416179055565b6001600255815f5160206137b95f395f51905f525f80a26001600160a01b0381169182151590816126f8575b506126bd575b505060018060a01b03166001600160601b0360a01b5f5416175f5560018060a01b03166001600160601b0360a01b6003541617600355565b6001600160a01b03165f9081526001602052604090206126dc90611050565b600280555f5160206137b95f395f51905f525f80a25f80612685565b90508214155f61267f565b6003546001600160a01b03168015611f50576020600491604051928380926363d9356760e01b82525afa908115610fc8575f91611f27575090565b5f19811461072f5760010190565b8054821015612496575f5260205f2001905f90565b90815491600160401b831015610bd95782612784916001610bed9501815561274c565b81546001600160a01b0393841660039290921b91821b9390911b1916919091179055565b916020610c6a938181520191612380565b805480156127e5575f1901906127cf828261274c565b81549060018060a01b039060031b1b1916905555565b634e487b7160e01b5f52603160045260245ffd5b906001820180921161072f57565b90602b820180921161072f57565b906006820180921161072f57565b9190820180921161072f57565b6001600160a01b03811692909183156110915760408051665550475241444560c81b602082019081526001600160a01b03861692820192909252306060820152466080820152612891936105a593909261059f926105948160a08101610586565b6105e657600554806129175750604051917febae6b88046560d31d8bf8987d05beaf03b5a0d572b558bc963091ba87ba7ee15f80a2303b156102c85763278f794360e11b82526001600160a01b03166004820152604060248201525f604482018190528160648183305af18015610fc8576129095750565b80610fc25f610bed93610bb8565b60065460a01c6001600160401b03166129e9577ff7f785105b8c71eb1f84c2b517becaac3aebfff4cb18904a739305118e9aecae916129ca61296b61295f6129e49442612823565b6001600160401b031690565b91612986612977610bde565b6001600160a01b039092168252565b6001600160401b038316602082015251600680546001600160e01b0319166001600160a01b039092169190911760a084901b67ffffffffffffffff60a01b16179055565b6040516001600160401b0390911681529081906020820190565b0390a2565b63dfa2608f60e01b5f5260045ffd5b610c6a949260609260018060a01b0316825260208201528160408201520191612380565b610c6a939260609260018060a01b0316825260208201528160408201520190610e1b565b6001600160a01b0316919082156110915782610bed935f52600160205260405f20600160ff1982541617905560016002555f5160206137b95f395f51905f525f80a260018060a01b03166001600160601b0360a01b5f5416175f5560018060a01b03166001600160601b0360a01b6003541617600355565b60041115612ac257565b634e487b7160e01b5f52602160045260245ffd5b90612ae18183612f2e565b506004811015612ac257159081612b6c575b50612b6557612b2c612b31927f19457468657265756d205369676e6564204d6573736167653a0a3332000000005f52601c52603c5f2090565b612f2e565b50612b3b81612ab8565b159081612b46575090565b6001600160a01b03165f90815260016020526040902060ff9150541690565b5050600190565b6001600160a01b03165f9081526001602052604081205460ff169150612af3565b8051156124965760200190565b908151811015612496570160200190565b60405160809190612bbc8382610bb8565b6041815291601f1901366020840137565b60408051909190612bde8382610bb8565b60208152918290601f190190369060200137565b90612bfc82610bfe565b612c096040519182610bb8565b8281528092612c1a601f1991610bfe565b0190602036910137565b6041825114612d22576001825110612d1c5760ff612c5b612c55612c4785612b8d565b516001600160f81b03191690565b60f81c90565b168015612cc657600114612c6f5750505f90565b9091612c83612c7e8451611fe4565b612bf2565b905f5b8251811015612cba5780612ca7612c47612ca16001946127f9565b88612b9a565b5f1a612cb38286612b9a565b5301612c86565b509250610c6a91612f68565b5060428293925103612d1657612cda612bab565b905f5b60418110612cf15750610c6a929350612ad6565b80612d03612c47612ca16001946127f9565b5f1a612d0f8286612b9a565b5301612cdd565b505f9150565b50505f90565b90610c6a91612ad6565b60025f5160206138595f395f51905f525414612d555760025f5160206138595f395f51905f5255565b633ee5aeb560e01b5f5260045ffd5b7f00000000000000000000000000000000000000000000000000000000000000006001600160a01b03163381141580612db9575b80612da5575b6109035750565b505f546001600160a01b0316331415612d9e565b5030331415612d98565b908160209103126102c8575190565b60018114908115612df0575b8115612de8575090565b600491501490565b600281149150612dde565b80545f5b818110612e0c5750505050565b612e16818461274c565b905460039190911b1c6001600160a01b0390811690851614612e3a57600101612dff565b5f198201935081841161072f57610bed938103612e59575b50506127b9565b612784612e71612e6b612e8a94611fe4565b8561274c565b905460039190911b1c6001600160a01b0316918461274c565b5f80612e52565b90612e9c8183612f2e565b506004811015612ac257159081612f18575b50612f1057612b2c612ee7927f19457468657265756d205369676e6564204d6573736167653a0a3332000000005f52601c52603c5f2090565b50612ef181612ab8565b159182612efd57505090565b6001600160a01b03918216911614919050565b505050600190565b6001600160a01b0385811691161490505f612eae565b8151919060418303612f5e57612f579250602082015190606060408401519301515f1a90613115565b9192909190565b50505f9160029190565b908051810160208101916020818303126102c8576020810151906001600160401b0382116102c857019060e090829003126102c857612fa5610bef565b9160208201516001600160401b0381116102c857816020612fc89285010161249b565b83526040820151916001600160401b0383116102c857612ff260e09260206130419584010161249b565b6020850152606081015160408501526080810151606085015260a0810151608085015260c081015160a085015201518060c08401525f525f5160206138995f395f51905f5260205260405f2090565b91825490811580613067575b61305f576001610c6a940154926131bd565b505050505f90565b5060018401541561304d565b90813b156130f4575f5160206138195f395f51905f5280546001600160a01b0319166001600160a01b0384169081179091557fbc7cd75a20ee27fd9adebab32041f755214dbc6bffa90cc0225b39da2e5c2d3b5f80a28051156130dc576130d99161324c565b50565b5050346130e557565b63b398979f60e01b5f5260045ffd5b50634c9c8ce360e01b5f9081526001600160a01b0391909116600452602490fd5b91907f7fffffffffffffffffffffffffffffff5d576e7357a4501ddfe92f46681b20a0841161318c579160209360809260ff5f9560405194855216868401526040830152606082015282805260015afa15610fc8575f516001600160a01b0381161561318257905f905f90565b505f906001905f90565b5050505f9160039190565b805191908290602001825e015f815290565b6131b69060209392613197565b9081520190565b9291906131dd6105a560208601928351606088015160408901519161331d565b61305f575f6131f56020925160405191828092613197565b039060025afa15610fc85760205f61322a815161321e87516105866040519384928884016131a9565b60405191828092613197565b039060025afa15610fc857610c6a925f519060a060808201519101519161347e565b905f8091602081519101845af480806132ac575b1561326f575050610c6a61357e565b1561329457639996b31560e01b5f9081526001600160a01b0391909116600452602490fd5b3d15155f03611ee15763d6bda27560e01b5f5260045ffd5b503d1515806132605750813b1515613260565b604051906132ce604083610bb8565b6015825274113a3cb832911d113bb2b130baba34371733b2ba1160591b6020830152565b60405190613301604083610bb8565b600d82526c1131b430b63632b733b2911d1160991b6020830152565b909291926133296132bf565b92613335845183612823565b835110613417575f5b845181101561339d5761335d612c476133578386612823565b86612b9a565b61337a61336d612c478489612b9a565b6001600160f81b03191690565b6001600160f81b0319909116036133935760010161333e565b5050505050505f90565b50939250506133aa6132f2565b916133c66133c16133bc855184612823565b612807565b6127f9565b82511061305f575f5b8351811015613420576133ee612c476133e88385612823565b85612b9a565b6133fe61336d612c478488612b9a565b6001600160f81b031990911603613417576001016133cf565b50505050505f90565b509291601160f91b60ff60f81b613441612c476133576133bc86518a612823565b160361305f57610c6a93613456915190612823565b90613597565b602081519101519060208110613470575090565b5f199060200360031b1b1690565b93610586906134b59394604051958694602086019889939160a0959391855260208501526040840152606083015260808201520190565b5f808251846101005afa6134c7612597565b81613570575b8161355c575b50612b655773c2b78104907f722dabac4c69f826a522b2754de43b6134f85750505f90565b5f918291519073c2b78104907f722dabac4c69f826a522b2754de45afa61351d612597565b8161354e575b8161353a575b50613535575f80612d1c565b600190565b600191506135479061345c565b145f613529565b905060208151101590613523565b600191506135699061345c565b145f6134d3565b9050602081511015906134cd565b604051903d82523d5f602084013e60203d830101604052565b9190915f5f905f926135a7612bcd565b955f925b602b8410613605575050505050602003612d1c575f5b602081106135d157505050600190565b6135de612c478285612b9a565b6001600160f81b031983831a60f81b81169116036135fe576001016135c1565b5050505f90565b613626613621612c47612ca187869d989a9c9d9b97999b612823565b61370e565b905f82126136a35760061b179561363c90612815565b600881101580613699575b156136845761365590611ff2565b936001600160f81b031987861c60f81b169761367d6136738261273e565b995f1a918b612b9a565b539361363c565b939092979694600190969296019290916135ab565b5060208810613647565b505050509450505050505f90565b60ff6040199116019060ff821161072f57565b60ff6060199116019060ff821161072f57565b60ff602f199116019060ff821161072f57565b60ff601a9116019060ff821161072f57565b60ff60349116019060ff821161072f57565b60f81c6041811015806137ad575b6137a157606181101580613796575b61378257603081101580613777575b61375d57602d811461375757605f14613752575f1990565b603f90565b50603e90565b61377161376c610c6a926136d7565b6136fc565b60ff1690565b50603981111561373a565b613771613791610c6a926136c4565b6136ea565b50607a81111561372b565b613771610c6a916136b1565b50605a81111561371c56fe994a936646fe87ffe4f1e469d3d6aa417d6b855598397f323de5b449f765f0c33b3ffcf51a0a9bcb2764532549426e303b6d219fffb988d3d097bfc22ad32d011f14a6accceab237b8ab0463623403008b2dec742c79d1d0e63a7729f8c11c01360894a13ba1a3210667c828492db98dca3e2076cc3735a920a3ca505d382bbc3b3ffcf51a0a9bcb2764532549426e303b6d219fffb988d3d097bfc22ad32d029b779b17422d0df92223018b32b4d1fa46e071723d6817e2486d003becc55f00f0c57e16840df040f15088dc2f81fe391c3923bec73e23a9662efc9c229c6a003b3ffcf51a0a9bcb2764532549426e303b6d219fffb988d3d097bfc22ad32d00a2646970667358221220cc71dcc1dcda449af827603359b7365557bb46e8186882f246903b4f3d8d5b8a64736f6c634300081c0033f0c57e16840df040f15088dc2f81fe391c3923bec73e23a9662efc9c229c6a00","linkReferences":{}},"methodIdentifiers":{"accountImplementation()":"11464fbe","bundlerSigner()":"63d93567","createAccount(address,uint256)":"5fbfb9cf","delegationManager()":"ea4d3c9b","getAddress(address,uint256)":"8cb84e18","governance()":"5aa6e675","paused()":"5c975abb","sessionIssuer()":"0aca0632","setBundlerSigner(address)":"0f975af2","setSessionIssuer(address)":"0ac254e3"},"id":74}