{"abi":[{"type":"function","name":"addOwner","inputs":[{"name":"agent","type":"address","internalType":"address"},{"name":"newOwner","type":"address","internalType":"address"}],"outputs":[],"stateMutability":"nonpayable"},{"type":"function","name":"approveProposal","inputs":[{"name":"agent","type":"address","internalType":"address"},{"name":"proposalId","type":"uint256","internalType":"uint256"}],"outputs":[],"stateMutability":"nonpayable"},{"type":"function","name":"canAct","inputs":[{"name":"agent","type":"address","internalType":"address"},{"name":"caller","type":"address","internalType":"address"}],"outputs":[{"name":"","type":"bool","internalType":"bool"}],"stateMutability":"view"},{"type":"function","name":"createProposal","inputs":[{"name":"agent","type":"address","internalType":"address"},{"name":"actionClass","type":"uint8","internalType":"enum AgentControl.ActionClass"},{"name":"data","type":"bytes","internalType":"bytes"}],"outputs":[{"name":"proposalId","type":"uint256","internalType":"uint256"}],"stateMutability":"nonpayable"},{"type":"function","name":"getConfig","inputs":[{"name":"agent","type":"address","internalType":"address"}],"outputs":[{"name":"","type":"tuple","internalType":"struct AgentControl.GovernanceConfig","components":[{"name":"minOwners","type":"uint256","internalType":"uint256"},{"name":"quorum","type":"uint256","internalType":"uint256"},{"name":"isBootstrap","type":"bool","internalType":"bool"}]}],"stateMutability":"view"},{"type":"function","name":"getOwners","inputs":[{"name":"agent","type":"address","internalType":"address"}],"outputs":[{"name":"","type":"address[]","internalType":"address[]"}],"stateMutability":"view"},{"type":"function","name":"getProposal","inputs":[{"name":"agent","type":"address","internalType":"address"},{"name":"proposalId","type":"uint256","internalType":"uint256"}],"outputs":[{"name":"","type":"tuple","internalType":"struct AgentControl.Proposal","components":[{"name":"proposalId","type":"uint256","internalType":"uint256"},{"name":"agent","type":"address","internalType":"address"},{"name":"actionClass","type":"uint8","internalType":"enum AgentControl.ActionClass"},{"name":"data","type":"bytes","internalType":"bytes"},{"name":"proposer","type":"address","internalType":"address"},{"name":"createdAt","type":"uint256","internalType":"uint256"},{"name":"status","type":"uint8","internalType":"enum AgentControl.ProposalStatus"},{"name":"approvalCount","type":"uint256","internalType":"uint256"}]}],"stateMutability":"view"},{"type":"function","name":"hasVoted","inputs":[{"name":"agent","type":"address","internalType":"address"},{"name":"proposalId","type":"uint256","internalType":"uint256"},{"name":"voter","type":"address","internalType":"address"}],"outputs":[{"name":"","type":"bool","internalType":"bool"}],"stateMutability":"view"},{"type":"function","name":"initializeAgent","inputs":[{"name":"agent","type":"address","internalType":"address"},{"name":"minOwners","type":"uint256","internalType":"uint256"},{"name":"quorum","type":"uint256","internalType":"uint256"}],"outputs":[],"stateMutability":"nonpayable"},{"type":"function","name":"isActionApproved","inputs":[{"name":"agent","type":"address","internalType":"address"},{"name":"proposalId","type":"uint256","internalType":"uint256"},{"name":"expectedClass","type":"uint8","internalType":"enum AgentControl.ActionClass"}],"outputs":[{"name":"","type":"bool","internalType":"bool"}],"stateMutability":"view"},{"type":"function","name":"isGovernanceReady","inputs":[{"name":"agent","type":"address","internalType":"address"}],"outputs":[{"name":"","type":"bool","internalType":"bool"}],"stateMutability":"view"},{"type":"function","name":"isInitialized","inputs":[{"name":"agent","type":"address","internalType":"address"}],"outputs":[{"name":"","type":"bool","internalType":"bool"}],"stateMutability":"view"},{"type":"function","name":"isOwner","inputs":[{"name":"agent","type":"address","internalType":"address"},{"name":"account","type":"address","internalType":"address"}],"outputs":[{"name":"","type":"bool","internalType":"bool"}],"stateMutability":"view"},{"type":"function","name":"ownerCount","inputs":[{"name":"agent","type":"address","internalType":"address"}],"outputs":[{"name":"","type":"uint256","internalType":"uint256"}],"stateMutability":"view"},{"type":"function","name":"proposalCount","inputs":[{"name":"agent","type":"address","internalType":"address"}],"outputs":[{"name":"","type":"uint256","internalType":"uint256"}],"stateMutability":"view"},{"type":"function","name":"removeOwner","inputs":[{"name":"agent","type":"address","internalType":"address"},{"name":"owner","type":"address","internalType":"address"}],"outputs":[],"stateMutability":"nonpayable"},{"type":"function","name":"setQuorum","inputs":[{"name":"agent","type":"address","internalType":"address"},{"name":"newQuorum","type":"uint256","internalType":"uint256"}],"outputs":[],"stateMutability":"nonpayable"},{"type":"event","name":"AgentInitialized","inputs":[{"name":"agent","type":"address","indexed":true,"internalType":"address"},{"name":"creator","type":"address","indexed":true,"internalType":"address"},{"name":"minOwners","type":"uint256","indexed":false,"internalType":"uint256"},{"name":"quorum","type":"uint256","indexed":false,"internalType":"uint256"}],"anonymous":false},{"type":"event","name":"BootstrapComplete","inputs":[{"name":"agent","type":"address","indexed":true,"internalType":"address"}],"anonymous":false},{"type":"event","name":"OwnerAdded","inputs":[{"name":"agent","type":"address","indexed":true,"internalType":"address"},{"name":"owner","type":"address","indexed":true,"internalType":"address"}],"anonymous":false},{"type":"event","name":"OwnerRemoved","inputs":[{"name":"agent","type":"address","indexed":true,"internalType":"address"},{"name":"owner","type":"address","indexed":true,"internalType":"address"}],"anonymous":false},{"type":"event","name":"ProposalApproved","inputs":[{"name":"agent","type":"address","indexed":true,"internalType":"address"},{"name":"proposalId","type":"uint256","indexed":true,"internalType":"uint256"},{"name":"approver","type":"address","indexed":true,"internalType":"address"}],"anonymous":false},{"type":"event","name":"ProposalCreated","inputs":[{"name":"agent","type":"address","indexed":true,"internalType":"address"},{"name":"proposalId","type":"uint256","indexed":true,"internalType":"uint256"},{"name":"actionClass","type":"uint8","indexed":false,"internalType":"enum AgentControl.ActionClass"},{"name":"proposer","type":"address","indexed":false,"internalType":"address"}],"anonymous":false},{"type":"event","name":"ProposalExecuted","inputs":[{"name":"agent","type":"address","indexed":true,"internalType":"address"},{"name":"proposalId","type":"uint256","indexed":true,"internalType":"uint256"}],"anonymous":false},{"type":"event","name":"QuorumChanged","inputs":[{"name":"agent","type":"address","indexed":true,"internalType":"address"},{"name":"newQuorum","type":"uint256","indexed":false,"internalType":"uint256"}],"anonymous":false},{"type":"error","name":"AlreadyInitialized","inputs":[]},{"type":"error","name":"AlreadyOwner","inputs":[]},{"type":"error","name":"AlreadyVoted","inputs":[]},{"type":"error","name":"CannotRemoveLastOwner","inputs":[]},{"type":"error","name":"InvalidQuorum","inputs":[]},{"type":"error","name":"NotAnOwner","inputs":[]},{"type":"error","name":"NotInitialized","inputs":[]},{"type":"error","name":"NotOwner","inputs":[]},{"type":"error","name":"ProposalNotPending","inputs":[]},{"type":"error","name":"QuorumNotMet","inputs":[]},{"type":"error","name":"StillBootstrap","inputs":[]}],"bytecode":{"object":"0x6080806040523460155761149a908161001a8239f35b5f80fdfe60806040526004361015610011575f80fd5b5f3560e01c80630fae38ac1461118757806316d390bf146110495780632dc6dc5414610eb95780632fd4ed3714610e1257806343bbebab14610de65780636bf4893814610c825780637ddc02d414610c2b578063a966ccbb14610bf3578063ccfdec8c14610bbb578063cfa38da71461098d578063d60b347f14610950578063dc4e23a21461051d578063e48a5f7b1461046e578063f439c07e1461042e578063fa77aa42146103cf578063fbe5ce0a1461019e5763fd8b84b1146100d4575f80fd5b3461019a57602036600319011261019a576001600160a01b036100f56111f5565b165f52600160205260405f20604051806020835491828152019081935f5260205f20905f5b81811061017b57505050816101309103826112b5565b604051918291602083019060208452518091526040830191905f5b818110610159575050500390f35b82516001600160a01b031684528594506020938401939092019160010161014b565b82546001600160a01b031684526020909301926001928301920161011a565b5f80fd5b3461019a57604036600319011261019a576101b76111f5565b6101bf61120b565b906101c981611413565b60018060a01b031690815f52600260205260405f2060018060a01b0382165f5260205260ff60405f205416156103c057815f526001602052600160405f205411156103b1575f8281526002602090815260408083206001600160a01b03909416808452938252808320805460ff19169055848352600190915281209192905b8254808210156103a8578461025d838661122e565b905460039190911b1c6001600160a01b03161461027d5750600101610248565b9192915f19810191908211610394576102b561029c6102d9938561122e565b905460039190911b1c6001600160a01b0316918461122e565b81546001600160a01b0393841660039290921b91821b9390911b1916919091179055565b80549081156103805782915f19016102f1818361122e565b81549060018060a01b039060031b1b1916905581555b815f525f602052600160405f20018054915480921161034a575b5050507fe594d081b4382713733fe631966432c9cea5199afb2db5c3c1931f9f930036795f80a3005b817fba63b2e4b0f514b25dfc69f22690bb385a1921f6106dfff7d3bb04cc0cfd22dd9260209255604051908152a2808380610321565b634e487b7160e01b5f52603160045260245ffd5b634e487b7160e01b5f52601160045260245ffd5b50508091610307565b632352e49760e21b5f5260045ffd5b631dd523ff60e31b5f5260045ffd5b3461019a57602036600319011261019a576001600160a01b036103f06111f5565b16805f52600560205260ff60405f20541680610414575b6020906040519015158152f35b505f525f602052602060ff600260405f2001541615610407565b3461019a57606036600319011261019a576104476111f5565b60443590600682101561019a576020916104649160243590611393565b6040519015158152f35b3461019a57602036600319011261019a576104876111f5565b5f604080516104958161127c565b828152826020820152015260018060a01b0316805f52600560205260ff60405f2054161561050e575f525f602052606060405f206040516104d58161127c565b815491828252604060ff600260018401549360208601948552015416920191151582526040519283525160208301525115156040820152f35b6321c4e35760e21b5f5260045ffd5b3461019a57606036600319011261019a576105366111f5565b602435600681101561019a576044359067ffffffffffffffff821161019a573660238301121561019a5781600401359267ffffffffffffffff841161019a57366024858501011161019a5761058a81611413565b6001600160a01b03165f8181526020819052604090206002015460ff16610941575f81815260036020526040908190208054915191946105c983611298565b85835260208301908482525f602060408601996105e6898c61134f565b8060246040519561060085601f19601f86011601886112b5565b82875201838601378301015260608401908152608084019033825260a085019242845260c08601995f8b5260e0870195600187528054600160401b81101561091a5761065191600182018155611336565b97909761092e5751875590516001870180546001600160a01b0319166001600160a01b03929092169190911781559051600681101561084857815460ff60a01b191660a09190911b60ff60a01b16179055518051600286019167ffffffffffffffff821161091a5781906106c5845461135b565b601f81116108ca575b50602090601f8311600114610867575f9261085c575b50508160011b915f199060031b1c19161790555b51600384810180546001600160a01b0319166001600160a01b03939093169290921790915590516004840155955160058301969091908210156108485760408695869460067f8cb92d19623817523d80c716062bf662483121f099a0bdadaf290845b8252fcd9460209b899760ff8019835416911617905551910155835f5260048952815f20855f528952815f2060018060a01b0333165f528952815f20600160ff198254161790556107ad82518092611221565b3389820152a33382827f6d1e7f326b154d421504caf52c358e9a60132bde0e087068302efd1391b5ca715f80a4805f525f845260018060405f20015411156107fa575b5050604051908152f35b805f526003845260056108108360405f20611336565b5001805460ff191660011790557f7bfd03e44f31b1867e10c41d419cd8073b4719d321ccc5c3a3c79ac2babab3c35f80a380836107f0565b634e487b7160e01b5f52602160045260245ffd5b015190508b806106e4565b5f8581528281209350601f198516905b8181106108b2575090846001959493921061089a575b505050811b0190556106f8565b01515f1960f88460031b161c191690558b808061088d565b92936020600181928786015181550195019301610877565b909150835f5260205f20601f840160051c81019160208510610910575b90601f859493920160051c01905b81811061090257506106ce565b5f81558493506001016108f5565b90915081906108e7565b634e487b7160e01b5f52604160045260245ffd5b634e487b7160e01b5f525f60045260245ffd5b63bcea7def60e01b5f5260045ffd5b3461019a57602036600319011261019a576001600160a01b036109716111f5565b165f526005602052602060ff60405f2054166040519015158152f35b3461019a57604036600319011261019a576109a66111f5565b5f60e06040516109b581611298565b8281528260208201528260408201526060808201528260808201528260a08201528260c0820152015260018060a01b03165f5260036020526109fc60243560405f20611336565b5060405190610a0a82611298565b8054825260018101546001600160a01b0381166020840190815291906040840190610a3b9060a01c60ff168261134f565b6002820160405190815f825492610a518461135b565b8084529360018116908115610b995750600114610b55575b50610a76925003826112b5565b6060850190815260018060a01b036003840154166080860190815260048401549160a0870192835260ff6005860154169460c08801946003871015610848576006610af092602098885201549760e08a0198895260405199888b5251888b015260018060a01b0390511660408a0152516060890190611221565b5161010060808801528051948591826101208a01520161014088015e5f8685016101400152516001600160a01b031660a08601525160c0850152519060038210156108485761014092849260e084015251610100830152601f80199101168101030190f35b90505f9291925260205f20905f915b818310610b7d575050906020610a769282010188610a69565b6020919350806001915483858801015201910190918392610b64565b905060209250610a7694915060ff191682840152151560051b82010188610a69565b3461019a57602036600319011261019a576001600160a01b03610bdc6111f5565b165f526001602052602060405f2054604051908152f35b3461019a57602036600319011261019a576001600160a01b03610c146111f5565b165f526003602052602060405f2054604051908152f35b3461019a57604036600319011261019a57610c446111f5565b610c4c61120b565b9060018060a01b03165f52600260205260405f209060018060a01b03165f52602052602060ff60405f2054166040519015158152f35b3461019a57604036600319011261019a57610c9b6111f5565b60243590610ca881611413565b6001600160a01b03165f81815260036020526040902054821015610dd757805f526003602052610cdb8260405f20611336565b50600581019060ff825416600381101561084857610dd7575f838152600460209081526040808320878452825280832033845290915290205460ff16610dc8575f83815260046020908152604080832087845282528083203384529091529020805460ff1916600117905560060180545f198114610394576001018091553384847f6d1e7f326b154d421504caf52c358e9a60132bde0e087068302efd1391b5ca715f80a4825f525f602052600160405f2001541115610d9757005b805460ff191660011790557f7bfd03e44f31b1867e10c41d419cd8073b4719d321ccc5c3a3c79ac2babab3c35f80a3005b637c9a1cf960e01b5f5260045ffd5b6324f39bb560e11b5f5260045ffd5b3461019a57604036600319011261019a576020610464610e046111f5565b610e0c61120b565b906112d7565b3461019a57604036600319011261019a57610e2b6111f5565b60243590610e3881611413565b81158015610e99575b610e8a5760207fba63b2e4b0f514b25dfc69f22690bb385a1921f6106dfff7d3bb04cc0cfd22dd9160018060a01b031692835f525f825280600160405f200155604051908152a2005b63d173577960e01b5f5260045ffd5b506001600160a01b0381165f908152600160205260409020548211610e41565b3461019a57606036600319011261019a57610ed26111f5565b6001600160a01b03165f81815260056020526040902054604435906024359060ff1661103b578115610e8a57825f52600560205260405f20600160ff198254161790556001811191604051610f268161127c565b828152600260208201918383526040810192868452875f525f60205260405f2091518255516001820155019051151560ff80198354169116179055835f526001602052610f7760405f203390611257565b835f52600260205260405f2060018060a01b0333165f5260205260405f20600160ff198254161790556040519182526020820152827f936a200379037ac19f5faa9696c4285994df20b794fb3f4683de826fefcefa2060403393a333827fc82bdbbf677a2462f2a7e22e4ba9abd209496b69cd7b868b3b1d28f76e09a40a5f80a315610fff57005b805f525f602052600260405f200160ff1981541690557fe1e8c16707ac4e99c63f15f537b1008f9639111448afe49aa57ecbf43b89c6865f80a2005b62dc149f60e41b5f5260045ffd5b3461019a57604036600319011261019a576110626111f5565b61106a61120b565b9061107481611413565b60018060a01b031690815f52600260205260405f2060018060a01b0382165f5260205260ff60405f20541661117857815f5260016020526110b88160405f20611257565b5f8281526002602090815260408083206001600160a01b0394909416808452939091528120805460ff1916600117905582907fc82bdbbf677a2462f2a7e22e4ba9abd209496b69cd7b868b3b1d28f76e09a40a9080a3805f525f60205260405f20600281019081549060ff8216908161115f575b5061113357005b60ff191690557fe1e8c16707ac4e99c63f15f537b1008f9639111448afe49aa57ecbf43b89c6865f80a2005b9050835f52600160205260405f2054905411158461112c565b63600acf0760e11b5f5260045ffd5b3461019a57606036600319011261019a576111a06111f5565b604435906001600160a01b038216820361019a5760018060a01b03165f52600460205260405f206024355f5260205260405f209060018060a01b03165f52602052602060ff60405f2054166040519015158152f35b600435906001600160a01b038216820361019a57565b602435906001600160a01b038216820361019a57565b9060068210156108485752565b8054821015611243575f5260205f2001905f90565b634e487b7160e01b5f52603260045260245ffd5b90815491600160401b83101561091a57826102b591600161127a9501815561122e565b565b6060810190811067ffffffffffffffff82111761091a57604052565b610100810190811067ffffffffffffffff82111761091a57604052565b90601f8019910116810190811067ffffffffffffffff82111761091a57604052565b6001600160a01b03165f8181526005602052604090205460ff161561133057805f525f60205260ff600260405f20015416611330575f52600260205260405f209060018060a01b03165f5260205260ff60405f20541690565b50505f90565b8054821015611243575f52600760205f20910201905f90565b60068210156108485752565b90600182811c92168015611389575b602083101461137557565b634e487b7160e01b5f52602260045260245ffd5b91607f169161136a565b6001600160a01b03165f8181526003602052604090205490919081101561140c576113c8915f52600360205260405f20611336565b509060ff60058301541660038110156108485760011491826113e957505090565b60ff9192506001015460a01c166006821015610848576006811015610848571490565b5050505f90565b6001600160a01b03165f8181526005602052604090205460ff161561050e575f90815260026020908152604080832033845290915290205460ff161561145557565b6330cd747160e01b5f5260045ffdfea2646970667358221220cfae23e869f626c2d9cc658a0d65bb4807bc7ba98050732febfe349e6ec8bf7564736f6c634300081c0033","linkReferences":{}},"methodIdentifiers":{"addOwner(address,address)":"16d390bf","approveProposal(address,uint256)":"6bf48938","canAct(address,address)":"43bbebab","createProposal(address,uint8,bytes)":"dc4e23a2","getConfig(address)":"e48a5f7b","getOwners(address)":"fd8b84b1","getProposal(address,uint256)":"cfa38da7","hasVoted(address,uint256,address)":"0fae38ac","initializeAgent(address,uint256,uint256)":"2dc6dc54","isActionApproved(address,uint256,uint8)":"f439c07e","isGovernanceReady(address)":"fa77aa42","isInitialized(address)":"d60b347f","isOwner(address,address)":"7ddc02d4","ownerCount(address)":"ccfdec8c","proposalCount(address)":"a966ccbb","removeOwner(address,address)":"fbe5ce0a","setQuorum(address,uint256)":"2fd4ed37"},"id":0}