{"abi":[{"type":"constructor","inputs":[{"name":"entryPointAddr","type":"address","internalType":"contract IEntryPoint"},{"name":"owner","type":"address","internalType":"address"}],"stateMutability":"nonpayable"},{"type":"function","name":"acceptOwnership","inputs":[],"outputs":[],"stateMutability":"nonpayable"},{"type":"function","name":"addStake","inputs":[{"name":"unstakeDelaySec","type":"uint32","internalType":"uint32"}],"outputs":[],"stateMutability":"payable"},{"type":"function","name":"deposit","inputs":[],"outputs":[],"stateMutability":"payable"},{"type":"function","name":"devMode","inputs":[],"outputs":[{"name":"","type":"bool","internalType":"bool"}],"stateMutability":"view"},{"type":"function","name":"entryPoint","inputs":[],"outputs":[{"name":"","type":"address","internalType":"contract IEntryPoint"}],"stateMutability":"view"},{"type":"function","name":"getDeposit","inputs":[],"outputs":[{"name":"","type":"uint256","internalType":"uint256"}],"stateMutability":"view"},{"type":"function","name":"isAccepted","inputs":[{"name":"sender","type":"address","internalType":"address"}],"outputs":[{"name":"","type":"bool","internalType":"bool"}],"stateMutability":"view"},{"type":"function","name":"owner","inputs":[],"outputs":[{"name":"","type":"address","internalType":"address"}],"stateMutability":"view"},{"type":"function","name":"pendingOwner","inputs":[],"outputs":[{"name":"","type":"address","internalType":"address"}],"stateMutability":"view"},{"type":"function","name":"postOp","inputs":[{"name":"mode","type":"uint8","internalType":"enum IPaymaster.PostOpMode"},{"name":"context","type":"bytes","internalType":"bytes"},{"name":"actualGasCost","type":"uint256","internalType":"uint256"},{"name":"actualUserOpFeePerGas","type":"uint256","internalType":"uint256"}],"outputs":[],"stateMutability":"nonpayable"},{"type":"function","name":"renounceOwnership","inputs":[],"outputs":[],"stateMutability":"nonpayable"},{"type":"function","name":"setAccepted","inputs":[{"name":"sender","type":"address","internalType":"address"},{"name":"accepted","type":"bool","internalType":"bool"}],"outputs":[],"stateMutability":"nonpayable"},{"type":"function","name":"setAcceptedBatch","inputs":[{"name":"senders","type":"address[]","internalType":"address[]"},{"name":"accepted","type":"bool","internalType":"bool"}],"outputs":[],"stateMutability":"nonpayable"},{"type":"function","name":"setDevMode","inputs":[{"name":"dev","type":"bool","internalType":"bool"}],"outputs":[],"stateMutability":"nonpayable"},{"type":"function","name":"transferOwnership","inputs":[{"name":"newOwner","type":"address","internalType":"address"}],"outputs":[],"stateMutability":"nonpayable"},{"type":"function","name":"unlockStake","inputs":[],"outputs":[],"stateMutability":"nonpayable"},{"type":"function","name":"validatePaymasterUserOp","inputs":[{"name":"userOp","type":"tuple","internalType":"struct PackedUserOperation","components":[{"name":"sender","type":"address","internalType":"address"},{"name":"nonce","type":"uint256","internalType":"uint256"},{"name":"initCode","type":"bytes","internalType":"bytes"},{"name":"callData","type":"bytes","internalType":"bytes"},{"name":"accountGasLimits","type":"bytes32","internalType":"bytes32"},{"name":"preVerificationGas","type":"uint256","internalType":"uint256"},{"name":"gasFees","type":"bytes32","internalType":"bytes32"},{"name":"paymasterAndData","type":"bytes","internalType":"bytes"},{"name":"signature","type":"bytes","internalType":"bytes"}]},{"name":"userOpHash","type":"bytes32","internalType":"bytes32"},{"name":"maxCost","type":"uint256","internalType":"uint256"}],"outputs":[{"name":"context","type":"bytes","internalType":"bytes"},{"name":"validationData","type":"uint256","internalType":"uint256"}],"stateMutability":"nonpayable"},{"type":"function","name":"withdrawStake","inputs":[{"name":"withdrawAddress","type":"address","internalType":"address payable"}],"outputs":[],"stateMutability":"nonpayable"},{"type":"function","name":"withdrawTo","inputs":[{"name":"withdrawAddress","type":"address","internalType":"address payable"},{"name":"amount","type":"uint256","internalType":"uint256"}],"outputs":[],"stateMutability":"nonpayable"},{"type":"event","name":"DevModeSet","inputs":[{"name":"dev","type":"bool","indexed":false,"internalType":"bool"}],"anonymous":false},{"type":"event","name":"OwnershipTransferStarted","inputs":[{"name":"previousOwner","type":"address","indexed":true,"internalType":"address"},{"name":"newOwner","type":"address","indexed":true,"internalType":"address"}],"anonymous":false},{"type":"event","name":"OwnershipTransferred","inputs":[{"name":"previousOwner","type":"address","indexed":true,"internalType":"address"},{"name":"newOwner","type":"address","indexed":true,"internalType":"address"}],"anonymous":false},{"type":"event","name":"SenderAcceptedSet","inputs":[{"name":"sender","type":"address","indexed":true,"internalType":"address"},{"name":"accepted","type":"bool","indexed":false,"internalType":"bool"}],"anonymous":false},{"type":"error","name":"ERC165Error","inputs":[{"name":"entryPoint","type":"address","internalType":"address"},{"name":"interfaceId","type":"bytes4","internalType":"bytes4"}]},{"type":"error","name":"MustOverride","inputs":[]},{"type":"error","name":"NotFromEntryPoint","inputs":[{"name":"msgSender","type":"address","internalType":"address"},{"name":"entity","type":"address","internalType":"address"},{"name":"entryPoint","type":"address","internalType":"address"}]},{"type":"error","name":"OwnableInvalidOwner","inputs":[{"name":"owner","type":"address","internalType":"address"}]},{"type":"error","name":"OwnableUnauthorizedAccount","inputs":[{"name":"account","type":"address","internalType":"address"}]},{"type":"error","name":"SenderNotAccepted","inputs":[{"name":"sender","type":"address","internalType":"address"}]}],"bytecode":{"object":"0x60a080604052346101be57604081610d55803803809161001f82856101e8565b8339810103126101be5780516001600160a01b038116918282036101be57602001516001600160a01b03811692908390036101be5782156101d557600180546001600160a01b03198082169092555f805492831686178155604051919591926001600160a01b0316907f8be0079c531659141344cd1fd0a4f28419497f9722a3daafe3b4186f6b6457e09080a36301ffc9a760e01b815263283f548960e01b6004820152602081602481855afa9081156101ca575f9161018b575b501561016e57506080526001600160a81b031916600160a01b1760019081556040519081527f3c8023afa4478d096b4e888b7efbd8f02f0c3ebf593067a51de193ea7ed6b17c90602090a1604051610b35908161022082396080518181816101f60152818161029c0152818161033e015281816103c601528181610430015281816107ee015281816108860152610ab20152f35b6365d25c7160e01b5f5260045263283f548960e01b60245260445ffd5b90506020813d6020116101c2575b816101a6602093836101e8565b810103126101be575180151581036101be575f6100da565b5f80fd5b3d9150610199565b6040513d5f823e3d90fd5b631e4fbdf760e01b5f525f60045260245ffd5b601f909101601f19168101906001600160401b0382119082101761020b57604052565b634e487b7160e01b5f52604160045260245ffdfe60806040526004361015610011575f80fd5b5f5f3560e01c80622b78ce146108fe5780630396cb601461085e578063205c2878146107c957806352b7512c146106c45780636227d78714610646578063715018a6146105e157806379ba50971461055c5780637c627b21146104f45780637c897da2146104865780638da5cb5b1461045f578063b0d691fe1461041a578063bb9fe6bf146103aa578063c23a5cea14610319578063c399ec8814610270578063d0e30db0146101e7578063df6de7f7146101c1578063e30c397814610198578063e6f091f9146101595763f2fde38b146100ea575f80fd5b3461015657602036600319011261015657610103610a06565b61010b610a8a565b600180546001600160a01b0319166001600160a01b0392831690811790915582549091167f38d16b8cac22d99fc7c124b9cd0de2d3fa1faef420bfe791d8c362d765e227008380a380f35b80fd5b50346101565760203660031901126101565760209060ff906040906001600160a01b03610184610a06565b168152600284522054166040519015158152f35b50346101565780600319360112610156576001546040516001600160a01b039091168152602090f35b5034610156578060031936011261015657602060ff60015460a01c166040519015158152f35b508060031936011261015657807f00000000000000000000000000000000000000000000000000000000000000006001600160a01b0316803b1561026d57816024916040519283809263b760faf960e01b825230600483015234905af18015610262576102515750f35b8161025b91610a54565b6101565780f35b6040513d84823e3d90fd5b50fd5b50346101565780600319360112610156576040516370a0823160e01b81523060048201526020816024817f00000000000000000000000000000000000000000000000000000000000000006001600160a01b03165afa9081156102625782916102df575b602082604051908152f35b90506020813d602011610311575b816102fa60209383610a54565b8101031261030d5760209150515f6102d4565b5080fd5b3d91506102ed565b50346101565760203660031901126101565780610334610a06565b61033c610a8a565b7f00000000000000000000000000000000000000000000000000000000000000006001600160a01b031690813b156103a65760405163611d2e7560e11b81526001600160a01b0390911660048201529082908290602490829084905af18015610262576102515750f35b5050fd5b50346101565780600319360112610156576103c3610a8a565b807f00000000000000000000000000000000000000000000000000000000000000006001600160a01b0316803b1561026d5781809160046040518094819363bb9fe6bf60e01b83525af18015610262576102515750f35b50346101565780600319360112610156576040517f00000000000000000000000000000000000000000000000000000000000000006001600160a01b03168152602090f35b5034610156578060031936011261015657546040516001600160a01b039091168152602090f35b50346101565760203660031901126101565760043580151580910361030d5760207f3c8023afa4478d096b4e888b7efbd8f02f0c3ebf593067a51de193ea7ed6b17c916104d1610a8a565b6001805460ff60a01b191660a083901b60ff60a01b16179055604051908152a180f35b503461015657608036600319011261015657600360043510156101565760243567ffffffffffffffff811161030d573660238201121561030d57806004013567ffffffffffffffff8111610558573691016024011161015657610555610ab0565b80f35b8280fd5b5034610156578060031936011261015657600154336001600160a01b03909116036105ce57600180546001600160a01b0319908116909155815433918116821783556001600160a01b03167f8be0079c531659141344cd1fd0a4f28419497f9722a3daafe3b4186f6b6457e08380a380f35b63118cdaa760e01b815233600452602490fd5b50346101565780600319360112610156576105fa610a8a565b600180546001600160a01b03199081169091558154908116825581906001600160a01b03167f8be0079c531659141344cd1fd0a4f28419497f9722a3daafe3b4186f6b6457e08280a380f35b503461015657604036600319011261015657610660610a06565b7fee41e98b37042f545fb56d6fe5300e4f2325bb395b58b63c86dffc9e69e362d1602061068b6109f7565b92610694610a8a565b6001600160a01b03168085526002825260408520805460ff191660ff86151516179055926040519015158152a280f35b50346101565760603660031901126101565760043567ffffffffffffffff811161030d576101208160040191600319903603011261030d57610704610ab0565b60ff60015460a01c161561077f575b506040516020810181811067ffffffffffffffff82111761076b579081606092604052838252604051938492604084525180928160408601528585015e82820184018190526020830152601f01601f19168101030190f35b634e487b7160e01b83526041600452602483fd5b6001600160a01b0361079082610a40565b16825260026020526107a960ff60408420541691610a40565b90610713576348e48b3960e11b82526001600160a01b0316600452602490fd5b503461015657604036600319011261015657806107e4610a06565b6107ec610a8a565b7f00000000000000000000000000000000000000000000000000000000000000006001600160a01b031690813b156103a65760405163040b850f60e31b81526001600160a01b03909116600482015260248035908201529082908290604490829084905af18015610262576102515750f35b5060203660031901126108fa5760043563ffffffff81168091036108fa57610884610a8a565b7f00000000000000000000000000000000000000000000000000000000000000006001600160a01b031690813b156108fa575f90602460405180948193621cb65b60e51b8352600483015234905af180156108ef576108e1575080f35b6108ed91505f90610a54565b005b6040513d5f823e3d90fd5b5f80fd5b346108fa5760403660031901126108fa5760043567ffffffffffffffff81116108fa57366023820112156108fa57806004013567ffffffffffffffff81116108fa576024820191602436918360051b0101116108fa5761095c6109f7565b610964610a8a565b801515905f5b83811061097357005b6001906001600160a01b0361099161098c83888a610a1c565b610a40565b165f5260026020526109b28360405f209060ff801983541691151516179055565b818060a01b036109c661098c83888a610a1c565b167fee41e98b37042f545fb56d6fe5300e4f2325bb395b58b63c86dffc9e69e362d16020604051878152a20161096a565b6024359081151582036108fa57565b600435906001600160a01b03821682036108fa57565b9190811015610a2c5760051b0190565b634e487b7160e01b5f52603260045260245ffd5b356001600160a01b03811681036108fa5790565b90601f8019910116810190811067ffffffffffffffff821117610a7657604052565b634e487b7160e01b5f52604160045260245ffd5b5f546001600160a01b03163303610a9d57565b63118cdaa760e01b5f523360045260245ffd5b7f00000000000000000000000000000000000000000000000000000000000000006001600160a01b031633819003610ae55750565b63fe34a6d360e01b5f52336004523060245260445260645ffdfea264697066735822122087c79e86be9649e54e15cb56236d31aecfd73a35a16bdf1ac001ae3d1f2f94dd64736f6c634300081c0033","linkReferences":{}},"methodIdentifiers":{"acceptOwnership()":"79ba5097","addStake(uint32)":"0396cb60","deposit()":"d0e30db0","devMode()":"df6de7f7","entryPoint()":"b0d691fe","getDeposit()":"c399ec88","isAccepted(address)":"e6f091f9","owner()":"8da5cb5b","pendingOwner()":"e30c3978","postOp(uint8,bytes,uint256,uint256)":"7c627b21","renounceOwnership()":"715018a6","setAccepted(address,bool)":"6227d787","setAcceptedBatch(address[],bool)":"002b78ce","setDevMode(bool)":"7c897da2","transferOwnership(address)":"f2fde38b","unlockStake()":"bb9fe6bf","validatePaymasterUserOp((address,uint256,bytes,bytes,bytes32,uint256,bytes32,bytes,bytes),bytes32,uint256)":"52b7512c","withdrawStake(address)":"c23a5cea","withdrawTo(address,uint256)":"205c2878"},"id":123}