{"abi":[{"type":"constructor","inputs":[{"name":"entryPointAddr","type":"address","internalType":"contract IEntryPoint"},{"name":"initialOwner","type":"address","internalType":"address"},{"name":"governance_","type":"address","internalType":"address"}],"stateMutability":"nonpayable"},{"type":"function","name":"acceptOwnership","inputs":[],"outputs":[],"stateMutability":"nonpayable"},{"type":"function","name":"addStake","inputs":[{"name":"unstakeDelaySec","type":"uint32","internalType":"uint32"}],"outputs":[],"stateMutability":"payable"},{"type":"function","name":"deposit","inputs":[],"outputs":[],"stateMutability":"payable"},{"type":"function","name":"devMode","inputs":[],"outputs":[{"name":"","type":"bool","internalType":"bool"}],"stateMutability":"view"},{"type":"function","name":"entryPoint","inputs":[],"outputs":[{"name":"","type":"address","internalType":"contract IEntryPoint"}],"stateMutability":"view"},{"type":"function","name":"getDeposit","inputs":[],"outputs":[{"name":"","type":"uint256","internalType":"uint256"}],"stateMutability":"view"},{"type":"function","name":"governance","inputs":[],"outputs":[{"name":"","type":"address","internalType":"address"}],"stateMutability":"view"},{"type":"function","name":"isAccepted","inputs":[{"name":"sender","type":"address","internalType":"address"}],"outputs":[{"name":"","type":"bool","internalType":"bool"}],"stateMutability":"view"},{"type":"function","name":"owner","inputs":[],"outputs":[{"name":"","type":"address","internalType":"address"}],"stateMutability":"view"},{"type":"function","name":"pendingOwner","inputs":[],"outputs":[{"name":"","type":"address","internalType":"address"}],"stateMutability":"view"},{"type":"function","name":"postOp","inputs":[{"name":"mode","type":"uint8","internalType":"enum IPaymaster.PostOpMode"},{"name":"context","type":"bytes","internalType":"bytes"},{"name":"actualGasCost","type":"uint256","internalType":"uint256"},{"name":"actualUserOpFeePerGas","type":"uint256","internalType":"uint256"}],"outputs":[],"stateMutability":"nonpayable"},{"type":"function","name":"renounceOwnership","inputs":[],"outputs":[],"stateMutability":"nonpayable"},{"type":"function","name":"setAccepted","inputs":[{"name":"sender","type":"address","internalType":"address"},{"name":"accepted","type":"bool","internalType":"bool"}],"outputs":[],"stateMutability":"nonpayable"},{"type":"function","name":"setAcceptedBatch","inputs":[{"name":"senders","type":"address[]","internalType":"address[]"},{"name":"accepted","type":"bool","internalType":"bool"}],"outputs":[],"stateMutability":"nonpayable"},{"type":"function","name":"setDevMode","inputs":[{"name":"dev","type":"bool","internalType":"bool"}],"outputs":[],"stateMutability":"nonpayable"},{"type":"function","name":"transferOwnership","inputs":[{"name":"newOwner","type":"address","internalType":"address"}],"outputs":[],"stateMutability":"nonpayable"},{"type":"function","name":"unlockStake","inputs":[],"outputs":[],"stateMutability":"nonpayable"},{"type":"function","name":"validatePaymasterUserOp","inputs":[{"name":"userOp","type":"tuple","internalType":"struct PackedUserOperation","components":[{"name":"sender","type":"address","internalType":"address"},{"name":"nonce","type":"uint256","internalType":"uint256"},{"name":"initCode","type":"bytes","internalType":"bytes"},{"name":"callData","type":"bytes","internalType":"bytes"},{"name":"accountGasLimits","type":"bytes32","internalType":"bytes32"},{"name":"preVerificationGas","type":"uint256","internalType":"uint256"},{"name":"gasFees","type":"bytes32","internalType":"bytes32"},{"name":"paymasterAndData","type":"bytes","internalType":"bytes"},{"name":"signature","type":"bytes","internalType":"bytes"}]},{"name":"userOpHash","type":"bytes32","internalType":"bytes32"},{"name":"maxCost","type":"uint256","internalType":"uint256"}],"outputs":[{"name":"context","type":"bytes","internalType":"bytes"},{"name":"validationData","type":"uint256","internalType":"uint256"}],"stateMutability":"nonpayable"},{"type":"function","name":"withdrawStake","inputs":[{"name":"withdrawAddress","type":"address","internalType":"address payable"}],"outputs":[],"stateMutability":"nonpayable"},{"type":"function","name":"withdrawTo","inputs":[{"name":"withdrawAddress","type":"address","internalType":"address payable"},{"name":"amount","type":"uint256","internalType":"uint256"}],"outputs":[],"stateMutability":"nonpayable"},{"type":"event","name":"DevModeSet","inputs":[{"name":"dev","type":"bool","indexed":false,"internalType":"bool"}],"anonymous":false},{"type":"event","name":"OwnershipTransferStarted","inputs":[{"name":"previousOwner","type":"address","indexed":true,"internalType":"address"},{"name":"newOwner","type":"address","indexed":true,"internalType":"address"}],"anonymous":false},{"type":"event","name":"OwnershipTransferred","inputs":[{"name":"previousOwner","type":"address","indexed":true,"internalType":"address"},{"name":"newOwner","type":"address","indexed":true,"internalType":"address"}],"anonymous":false},{"type":"event","name":"SenderAcceptedSet","inputs":[{"name":"sender","type":"address","indexed":true,"internalType":"address"},{"name":"accepted","type":"bool","indexed":false,"internalType":"bool"}],"anonymous":false},{"type":"error","name":"ERC165Error","inputs":[{"name":"entryPoint","type":"address","internalType":"address"},{"name":"interfaceId","type":"bytes4","internalType":"bytes4"}]},{"type":"error","name":"MustOverride","inputs":[]},{"type":"error","name":"NotFromEntryPoint","inputs":[{"name":"msgSender","type":"address","internalType":"address"},{"name":"entity","type":"address","internalType":"address"},{"name":"entryPoint","type":"address","internalType":"address"}]},{"type":"error","name":"NotGovernance","inputs":[]},{"type":"error","name":"OwnableInvalidOwner","inputs":[{"name":"owner","type":"address","internalType":"address"}]},{"type":"error","name":"OwnableUnauthorizedAccount","inputs":[{"name":"account","type":"address","internalType":"address"}]},{"type":"error","name":"SenderNotAccepted","inputs":[{"name":"sender","type":"address","internalType":"address"}]},{"type":"error","name":"SystemPaused","inputs":[]},{"type":"error","name":"ZeroGovernance","inputs":[]}],"bytecode":{"object":"0x60c0806040523461021257606081610f60803803809161001f828561023c565b8339810103126102125780516001600160a01b038116919082810361021257610056604061004f60208501610273565b9301610273565b6001600160a01b0390921692831561022957600180546001600160a01b03198082169092555f805492831687178155604051919691926001600160a01b0316907f8be0079c531659141344cd1fd0a4f28419497f9722a3daafe3b4186f6b6457e09080a36301ffc9a760e01b815263283f548960e01b6004820152602081602481855afa90811561021e575f916101df575b50156101c257506080526001600160a01b038116156101b35760a0526001600160a81b031916600160a01b1760019081556040519081527f3c8023afa4478d096b4e888b7efbd8f02f0c3ebf593067a51de193ea7ed6b17c90602090a1604051610cd890816102888239608051818181610201015281816102a701528181610349015281816103d10152818161043b01528181610958015281816109f00152610c55015260a0518181816104b2015281816106ae01528181610758015281816107dc0152610ac90152f35b63027f836560e51b5f5260045ffd5b6365d25c7160e01b5f5260045263283f548960e01b60245260445ffd5b90506020813d602011610216575b816101fa6020938361023c565b8101031261021257518015158103610212575f6100e8565b5f80fd5b3d91506101ed565b6040513d5f823e3d90fd5b631e4fbdf760e01b5f525f60045260245ffd5b601f909101601f19168101906001600160401b0382119082101761025f57604052565b634e487b7160e01b5f52604160045260245ffd5b51906001600160a01b03821682036102125756fe60806040526004361015610011575f80fd5b5f5f3560e01c80622b78ce14610a685780630396cb60146109c8578063205c28781461093357806352b7512c146107875780635aa6e675146107425780636227d78714610689578063715018a61461062457806379ba50971461059f5780637c627b21146105375780637c897da2146104915780638da5cb5b1461046a578063b0d691fe14610425578063bb9fe6bf146103b5578063c23a5cea14610324578063c399ec881461027b578063d0e30db0146101f2578063df6de7f7146101cc578063e30c3978146101a3578063e6f091f9146101645763f2fde38b146100f5575f80fd5b346101615760203660031901126101615761010e610ba9565b610116610c2d565b600180546001600160a01b0319166001600160a01b0392831690811790915582549091167f38d16b8cac22d99fc7c124b9cd0de2d3fa1faef420bfe791d8c362d765e227008380a380f35b80fd5b50346101615760203660031901126101615760209060ff906040906001600160a01b0361018f610ba9565b168152600284522054166040519015158152f35b50346101615780600319360112610161576001546040516001600160a01b039091168152602090f35b5034610161578060031936011261016157602060ff60015460a01c166040519015158152f35b508060031936011261016157807f00000000000000000000000000000000000000000000000000000000000000006001600160a01b0316803b1561027857816024916040519283809263b760faf960e01b825230600483015234905af1801561026d5761025c5750f35b8161026691610bf7565b6101615780f35b6040513d84823e3d90fd5b50fd5b50346101615780600319360112610161576040516370a0823160e01b81523060048201526020816024817f00000000000000000000000000000000000000000000000000000000000000006001600160a01b03165afa90811561026d5782916102ea575b602082604051908152f35b90506020813d60201161031c575b8161030560209383610bf7565b810103126103185760209150515f6102df565b5080fd5b3d91506102f8565b5034610161576020366003190112610161578061033f610ba9565b610347610c2d565b7f00000000000000000000000000000000000000000000000000000000000000006001600160a01b031690813b156103b15760405163611d2e7560e11b81526001600160a01b0390911660048201529082908290602490829084905af1801561026d5761025c5750f35b5050fd5b50346101615780600319360112610161576103ce610c2d565b807f00000000000000000000000000000000000000000000000000000000000000006001600160a01b0316803b156102785781809160046040518094819363bb9fe6bf60e01b83525af1801561026d5761025c5750f35b50346101615780600319360112610161576040517f00000000000000000000000000000000000000000000000000000000000000006001600160a01b03168152602090f35b5034610161578060031936011261016157546040516001600160a01b039091168152602090f35b503461016157602036600319011261016157600435801515809103610318577f00000000000000000000000000000000000000000000000000000000000000006001600160a01b03163303610528576001805460ff60a01b191660a083901b60ff60a01b161790556040519081527f3c8023afa4478d096b4e888b7efbd8f02f0c3ebf593067a51de193ea7ed6b17c90602090a180f35b632d5be4cb60e21b8252600482fd5b503461016157608036600319011261016157600360043510156101615760243567ffffffffffffffff8111610318573660238201121561031857806004013567ffffffffffffffff811161059b573691016024011161016157610598610c53565b80f35b8280fd5b5034610161578060031936011261016157600154336001600160a01b039091160361061157600180546001600160a01b0319908116909155815433918116821783556001600160a01b03167f8be0079c531659141344cd1fd0a4f28419497f9722a3daafe3b4186f6b6457e08380a380f35b63118cdaa760e01b815233600452602490fd5b503461016157806003193601126101615761063d610c2d565b600180546001600160a01b03199081169091558154908116825581906001600160a01b03167f8be0079c531659141344cd1fd0a4f28419497f9722a3daafe3b4186f6b6457e08280a380f35b5034610161576040366003190112610161576106a3610ba9565b6106ab610b9a565b907f00000000000000000000000000000000000000000000000000000000000000006001600160a01b03163303610733576001600160a01b03168083526002602090815260408420805460ff191660ff8515151617905590917fee41e98b37042f545fb56d6fe5300e4f2325bb395b58b63c86dffc9e69e362d191906040519015158152a280f35b632d5be4cb60e21b8352600483fd5b50346101615780600319360112610161576040517f00000000000000000000000000000000000000000000000000000000000000006001600160a01b03168152602090f35b50346101615760603660031901126101615760043567ffffffffffffffff81116103185761012081600401916003199036030112610318576107c7610c53565b6040516358c3de9360e11b81526020816004817f00000000000000000000000000000000000000000000000000000000000000006001600160a01b03165afa9081156109285783916108ed575b506108de5760ff60015460a01c1615610894575b506040516020810181811067ffffffffffffffff821117610880579081606092604052838252604051938492604084525180928160408601528585015e82820184018190526020830152601f01601f19168101030190f35b634e487b7160e01b83526041600452602483fd5b6001600160a01b036108a582610be3565b16825260026020526108be60ff60408420541691610be3565b90610828576348e48b3960e11b82526001600160a01b0316600452602490fd5b6301ca793160e61b8252600482fd5b90506020813d602011610920575b8161090860209383610bf7565b8101031261059b5751801515810361059b575f610814565b3d91506108fb565b6040513d85823e3d90fd5b5034610161576040366003190112610161578061094e610ba9565b610956610c2d565b7f00000000000000000000000000000000000000000000000000000000000000006001600160a01b031690813b156103b15760405163040b850f60e31b81526001600160a01b03909116600482015260248035908201529082908290604490829084905af1801561026d5761025c5750f35b506020366003190112610a645760043563ffffffff8116809103610a64576109ee610c2d565b7f00000000000000000000000000000000000000000000000000000000000000006001600160a01b031690813b15610a64575f90602460405180948193621cb65b60e51b8352600483015234905af18015610a5957610a4b575080f35b610a5791505f90610bf7565b005b6040513d5f823e3d90fd5b5f80fd5b34610a64576040366003190112610a645760043567ffffffffffffffff8111610a645736602382011215610a6457806004013567ffffffffffffffff8111610a64576024820191602436918360051b010111610a6457610ac6610b9a565b907f00000000000000000000000000000000000000000000000000000000000000006001600160a01b03163303610b8b5790801515905f5b838110610b0757005b6001906001600160a01b03610b25610b2083888a610bbf565b610be3565b165f526002602052610b468360405f209060ff801983541691151516179055565b818060a01b03610b5a610b2083888a610bbf565b167fee41e98b37042f545fb56d6fe5300e4f2325bb395b58b63c86dffc9e69e362d16020604051878152a201610afe565b632d5be4cb60e21b5f5260045ffd5b602435908115158203610a6457565b600435906001600160a01b0382168203610a6457565b9190811015610bcf5760051b0190565b634e487b7160e01b5f52603260045260245ffd5b356001600160a01b0381168103610a645790565b90601f8019910116810190811067ffffffffffffffff821117610c1957604052565b634e487b7160e01b5f52604160045260245ffd5b5f546001600160a01b03163303610c4057565b63118cdaa760e01b5f523360045260245ffd5b7f00000000000000000000000000000000000000000000000000000000000000006001600160a01b031633819003610c885750565b63fe34a6d360e01b5f52336004523060245260445260645ffdfea264697066735822122021ef5eab9e965356bd15544fd910183268f702d6d3e729ba6a6b403ad94d97f264736f6c634300081c0033","linkReferences":{}},"methodIdentifiers":{"acceptOwnership()":"79ba5097","addStake(uint32)":"0396cb60","deposit()":"d0e30db0","devMode()":"df6de7f7","entryPoint()":"b0d691fe","getDeposit()":"c399ec88","governance()":"5aa6e675","isAccepted(address)":"e6f091f9","owner()":"8da5cb5b","pendingOwner()":"e30c3978","postOp(uint8,bytes,uint256,uint256)":"7c627b21","renounceOwnership()":"715018a6","setAccepted(address,bool)":"6227d787","setAcceptedBatch(address[],bool)":"002b78ce","setDevMode(bool)":"7c897da2","transferOwnership(address)":"f2fde38b","unlockStake()":"bb9fe6bf","validatePaymasterUserOp((address,uint256,bytes,bytes,bytes32,uint256,bytes32,bytes,bytes),bytes32,uint256)":"52b7512c","withdrawStake(address)":"c23a5cea","withdrawTo(address,uint256)":"205c2878"},"id":124}