{"abi":[{"type":"function","name":"ACTIVITY_VALIDATION","inputs":[],"outputs":[{"name":"","type":"bytes32","internalType":"bytes32"}],"stateMutability":"view"},{"type":"function","name":"ALLIANCE","inputs":[],"outputs":[{"name":"","type":"bytes32","internalType":"bytes32"}],"stateMutability":"view"},{"type":"function","name":"BUILD_PROVENANCE","inputs":[],"outputs":[{"name":"","type":"bytes32","internalType":"bytes32"}],"stateMutability":"view"},{"type":"function","name":"COMPLIANCE","inputs":[],"outputs":[{"name":"","type":"bytes32","internalType":"bytes32"}],"stateMutability":"view"},{"type":"function","name":"DELEGATION_AUTHORITY","inputs":[],"outputs":[{"name":"","type":"bytes32","internalType":"bytes32"}],"stateMutability":"view"},{"type":"function","name":"ECONOMIC_SECURITY","inputs":[],"outputs":[{"name":"","type":"bytes32","internalType":"bytes32"}],"stateMutability":"view"},{"type":"function","name":"INSURANCE_COVERAGE","inputs":[],"outputs":[{"name":"","type":"bytes32","internalType":"bytes32"}],"stateMutability":"view"},{"type":"function","name":"ORGANIZATIONAL_CONTROL","inputs":[],"outputs":[{"name":"","type":"bytes32","internalType":"bytes32"}],"stateMutability":"view"},{"type":"function","name":"ORGANIZATION_GOVERNANCE","inputs":[],"outputs":[{"name":"","type":"bytes32","internalType":"bytes32"}],"stateMutability":"view"},{"type":"function","name":"ORGANIZATION_MEMBERSHIP","inputs":[],"outputs":[{"name":"","type":"bytes32","internalType":"bytes32"}],"stateMutability":"view"},{"type":"function","name":"REVIEW_RELATIONSHIP","inputs":[],"outputs":[{"name":"","type":"bytes32","internalType":"bytes32"}],"stateMutability":"view"},{"type":"function","name":"ROLE_ACTIVITY_VALIDATOR","inputs":[],"outputs":[{"name":"","type":"bytes32","internalType":"bytes32"}],"stateMutability":"view"},{"type":"function","name":"ROLE_ADMIN","inputs":[],"outputs":[{"name":"","type":"bytes32","internalType":"bytes32"}],"stateMutability":"view"},{"type":"function","name":"ROLE_ADMINISTERS","inputs":[],"outputs":[{"name":"","type":"bytes32","internalType":"bytes32"}],"stateMutability":"view"},{"type":"function","name":"ROLE_ADVISOR","inputs":[],"outputs":[{"name":"","type":"bytes32","internalType":"bytes32"}],"stateMutability":"view"},{"type":"function","name":"ROLE_AFFILIATE","inputs":[],"outputs":[{"name":"","type":"bytes32","internalType":"bytes32"}],"stateMutability":"view"},{"type":"function","name":"ROLE_ATTESTED_BY","inputs":[],"outputs":[{"name":"","type":"bytes32","internalType":"bytes32"}],"stateMutability":"view"},{"type":"function","name":"ROLE_AUDITOR","inputs":[],"outputs":[{"name":"","type":"bytes32","internalType":"bytes32"}],"stateMutability":"view"},{"type":"function","name":"ROLE_AUTHORIZED_SIGNER","inputs":[],"outputs":[{"name":"","type":"bytes32","internalType":"bytes32"}],"stateMutability":"view"},{"type":"function","name":"ROLE_BACKER","inputs":[],"outputs":[{"name":"","type":"bytes32","internalType":"bytes32"}],"stateMutability":"view"},{"type":"function","name":"ROLE_BOARD_MEMBER","inputs":[],"outputs":[{"name":"","type":"bytes32","internalType":"bytes32"}],"stateMutability":"view"},{"type":"function","name":"ROLE_BOUND_TO_KMS","inputs":[],"outputs":[{"name":"","type":"bytes32","internalType":"bytes32"}],"stateMutability":"view"},{"type":"function","name":"ROLE_BUILT_FROM","inputs":[],"outputs":[{"name":"","type":"bytes32","internalType":"bytes32"}],"stateMutability":"view"},{"type":"function","name":"ROLE_CEO","inputs":[],"outputs":[{"name":"","type":"bytes32","internalType":"bytes32"}],"stateMutability":"view"},{"type":"function","name":"ROLE_CERTIFIED_BY","inputs":[],"outputs":[{"name":"","type":"bytes32","internalType":"bytes32"}],"stateMutability":"view"},{"type":"function","name":"ROLE_CHAIR","inputs":[],"outputs":[{"name":"","type":"bytes32","internalType":"bytes32"}],"stateMutability":"view"},{"type":"function","name":"ROLE_COLLATERAL_PROVIDER","inputs":[],"outputs":[{"name":"","type":"bytes32","internalType":"bytes32"}],"stateMutability":"view"},{"type":"function","name":"ROLE_CONTRACTOR","inputs":[],"outputs":[{"name":"","type":"bytes32","internalType":"bytes32"}],"stateMutability":"view"},{"type":"function","name":"ROLE_CONTROLS_RUNTIME","inputs":[],"outputs":[{"name":"","type":"bytes32","internalType":"bytes32"}],"stateMutability":"view"},{"type":"function","name":"ROLE_DELEGATED_OPERATOR","inputs":[],"outputs":[{"name":"","type":"bytes32","internalType":"bytes32"}],"stateMutability":"view"},{"type":"function","name":"ROLE_DEPLOYED_FROM","inputs":[],"outputs":[{"name":"","type":"bytes32","internalType":"bytes32"}],"stateMutability":"view"},{"type":"function","name":"ROLE_EMPLOYEE","inputs":[],"outputs":[{"name":"","type":"bytes32","internalType":"bytes32"}],"stateMutability":"view"},{"type":"function","name":"ROLE_ENDORSED_BY","inputs":[],"outputs":[{"name":"","type":"bytes32","internalType":"bytes32"}],"stateMutability":"view"},{"type":"function","name":"ROLE_EXECUTIVE","inputs":[],"outputs":[{"name":"","type":"bytes32","internalType":"bytes32"}],"stateMutability":"view"},{"type":"function","name":"ROLE_GUARANTOR","inputs":[],"outputs":[{"name":"","type":"bytes32","internalType":"bytes32"}],"stateMutability":"view"},{"type":"function","name":"ROLE_INSURED_PARTY","inputs":[],"outputs":[{"name":"","type":"bytes32","internalType":"bytes32"}],"stateMutability":"view"},{"type":"function","name":"ROLE_INSURER","inputs":[],"outputs":[{"name":"","type":"bytes32","internalType":"bytes32"}],"stateMutability":"view"},{"type":"function","name":"ROLE_LICENSED_BY","inputs":[],"outputs":[{"name":"","type":"bytes32","internalType":"bytes32"}],"stateMutability":"view"},{"type":"function","name":"ROLE_MANAGED_AGENT","inputs":[],"outputs":[{"name":"","type":"bytes32","internalType":"bytes32"}],"stateMutability":"view"},{"type":"function","name":"ROLE_MEMBER","inputs":[],"outputs":[{"name":"","type":"bytes32","internalType":"bytes32"}],"stateMutability":"view"},{"type":"function","name":"ROLE_OFFICER","inputs":[],"outputs":[{"name":"","type":"bytes32","internalType":"bytes32"}],"stateMutability":"view"},{"type":"function","name":"ROLE_OPERATED_AGENT","inputs":[],"outputs":[{"name":"","type":"bytes32","internalType":"bytes32"}],"stateMutability":"view"},{"type":"function","name":"ROLE_OPERATOR","inputs":[],"outputs":[{"name":"","type":"bytes32","internalType":"bytes32"}],"stateMutability":"view"},{"type":"function","name":"ROLE_OWNER","inputs":[],"outputs":[{"name":"","type":"bytes32","internalType":"bytes32"}],"stateMutability":"view"},{"type":"function","name":"ROLE_PARENT_ORG","inputs":[],"outputs":[{"name":"","type":"bytes32","internalType":"bytes32"}],"stateMutability":"view"},{"type":"function","name":"ROLE_REVIEWED_AGENT","inputs":[],"outputs":[{"name":"","type":"bytes32","internalType":"bytes32"}],"stateMutability":"view"},{"type":"function","name":"ROLE_REVIEWER","inputs":[],"outputs":[{"name":"","type":"bytes32","internalType":"bytes32"}],"stateMutability":"view"},{"type":"function","name":"ROLE_RUNS_IN_TEE","inputs":[],"outputs":[{"name":"","type":"bytes32","internalType":"bytes32"}],"stateMutability":"view"},{"type":"function","name":"ROLE_SERVICE_PROVIDER","inputs":[],"outputs":[{"name":"","type":"bytes32","internalType":"bytes32"}],"stateMutability":"view"},{"type":"function","name":"ROLE_STAKER","inputs":[],"outputs":[{"name":"","type":"bytes32","internalType":"bytes32"}],"stateMutability":"view"},{"type":"function","name":"ROLE_STRATEGIC_PARTNER","inputs":[],"outputs":[{"name":"","type":"bytes32","internalType":"bytes32"}],"stateMutability":"view"},{"type":"function","name":"ROLE_SUBSIDIARY","inputs":[],"outputs":[{"name":"","type":"bytes32","internalType":"bytes32"}],"stateMutability":"view"},{"type":"function","name":"ROLE_TREASURER","inputs":[],"outputs":[{"name":"","type":"bytes32","internalType":"bytes32"}],"stateMutability":"view"},{"type":"function","name":"ROLE_UNDERWRITER","inputs":[],"outputs":[{"name":"","type":"bytes32","internalType":"bytes32"}],"stateMutability":"view"},{"type":"function","name":"ROLE_VALIDATED_PERFORMER","inputs":[],"outputs":[{"name":"","type":"bytes32","internalType":"bytes32"}],"stateMutability":"view"},{"type":"function","name":"ROLE_VALIDATOR","inputs":[],"outputs":[{"name":"","type":"bytes32","internalType":"bytes32"}],"stateMutability":"view"},{"type":"function","name":"ROLE_VENDOR","inputs":[],"outputs":[{"name":"","type":"bytes32","internalType":"bytes32"}],"stateMutability":"view"},{"type":"function","name":"ROLE_VERIFIED_BY","inputs":[],"outputs":[{"name":"","type":"bytes32","internalType":"bytes32"}],"stateMutability":"view"},{"type":"function","name":"RUNTIME_ATTESTATION","inputs":[],"outputs":[{"name":"","type":"bytes32","internalType":"bytes32"}],"stateMutability":"view"},{"type":"function","name":"SERVICE_AGREEMENT","inputs":[],"outputs":[{"name":"","type":"bytes32","internalType":"bytes32"}],"stateMutability":"view"},{"type":"function","name":"VALIDATION_TRUST","inputs":[],"outputs":[{"name":"","type":"bytes32","internalType":"bytes32"}],"stateMutability":"view"},{"type":"function","name":"addRole","inputs":[{"name":"edgeId","type":"bytes32","internalType":"bytes32"},{"name":"role","type":"bytes32","internalType":"bytes32"}],"outputs":[],"stateMutability":"nonpayable"},{"type":"function","name":"computeEdgeId","inputs":[{"name":"subject","type":"address","internalType":"address"},{"name":"object_","type":"address","internalType":"address"},{"name":"relationshipType","type":"bytes32","internalType":"bytes32"}],"outputs":[{"name":"","type":"bytes32","internalType":"bytes32"}],"stateMutability":"pure"},{"type":"function","name":"createEdge","inputs":[{"name":"subject","type":"address","internalType":"address"},{"name":"object_","type":"address","internalType":"address"},{"name":"relationshipType","type":"bytes32","internalType":"bytes32"},{"name":"initialRoles","type":"bytes32[]","internalType":"bytes32[]"},{"name":"metadataURI","type":"string","internalType":"string"}],"outputs":[{"name":"edgeId","type":"bytes32","internalType":"bytes32"}],"stateMutability":"nonpayable"},{"type":"function","name":"edgeExists","inputs":[{"name":"edgeId","type":"bytes32","internalType":"bytes32"}],"outputs":[{"name":"","type":"bool","internalType":"bool"}],"stateMutability":"view"},{"type":"function","name":"getEdge","inputs":[{"name":"edgeId","type":"bytes32","internalType":"bytes32"}],"outputs":[{"name":"","type":"tuple","internalType":"struct AgentRelationship.Edge","components":[{"name":"edgeId","type":"bytes32","internalType":"bytes32"},{"name":"subject","type":"address","internalType":"address"},{"name":"object_","type":"address","internalType":"address"},{"name":"relationshipType","type":"bytes32","internalType":"bytes32"},{"name":"status","type":"uint8","internalType":"enum AgentRelationship.EdgeStatus"},{"name":"createdBy","type":"address","internalType":"address"},{"name":"createdAt","type":"uint256","internalType":"uint256"},{"name":"updatedAt","type":"uint256","internalType":"uint256"},{"name":"metadataURI","type":"string","internalType":"string"}]}],"stateMutability":"view"},{"type":"function","name":"getEdgeByTriple","inputs":[{"name":"subject","type":"address","internalType":"address"},{"name":"object_","type":"address","internalType":"address"},{"name":"relationshipType","type":"bytes32","internalType":"bytes32"}],"outputs":[{"name":"","type":"bytes32","internalType":"bytes32"}],"stateMutability":"view"},{"type":"function","name":"getEdgesByObject","inputs":[{"name":"object_","type":"address","internalType":"address"}],"outputs":[{"name":"","type":"bytes32[]","internalType":"bytes32[]"}],"stateMutability":"view"},{"type":"function","name":"getEdgesBySubject","inputs":[{"name":"subject","type":"address","internalType":"address"}],"outputs":[{"name":"","type":"bytes32[]","internalType":"bytes32[]"}],"stateMutability":"view"},{"type":"function","name":"getRoles","inputs":[{"name":"edgeId","type":"bytes32","internalType":"bytes32"}],"outputs":[{"name":"","type":"bytes32[]","internalType":"bytes32[]"}],"stateMutability":"view"},{"type":"function","name":"hasRole","inputs":[{"name":"edgeId","type":"bytes32","internalType":"bytes32"},{"name":"role","type":"bytes32","internalType":"bytes32"}],"outputs":[{"name":"","type":"bool","internalType":"bool"}],"stateMutability":"view"},{"type":"function","name":"removeRole","inputs":[{"name":"edgeId","type":"bytes32","internalType":"bytes32"},{"name":"role","type":"bytes32","internalType":"bytes32"}],"outputs":[],"stateMutability":"nonpayable"},{"type":"function","name":"setEdgeStatus","inputs":[{"name":"edgeId","type":"bytes32","internalType":"bytes32"},{"name":"newStatus","type":"uint8","internalType":"enum AgentRelationship.EdgeStatus"}],"outputs":[],"stateMutability":"nonpayable"},{"type":"function","name":"setMetadataURI","inputs":[{"name":"edgeId","type":"bytes32","internalType":"bytes32"},{"name":"metadataURI","type":"string","internalType":"string"}],"outputs":[],"stateMutability":"nonpayable"},{"type":"event","name":"EdgeCreated","inputs":[{"name":"edgeId","type":"bytes32","indexed":true,"internalType":"bytes32"},{"name":"subject","type":"address","indexed":true,"internalType":"address"},{"name":"object_","type":"address","indexed":true,"internalType":"address"},{"name":"relationshipType","type":"bytes32","indexed":false,"internalType":"bytes32"},{"name":"createdBy","type":"address","indexed":false,"internalType":"address"}],"anonymous":false},{"type":"event","name":"EdgeMetadataUpdated","inputs":[{"name":"edgeId","type":"bytes32","indexed":true,"internalType":"bytes32"},{"name":"metadataURI","type":"string","indexed":false,"internalType":"string"},{"name":"updater","type":"address","indexed":true,"internalType":"address"}],"anonymous":false},{"type":"event","name":"EdgeStatusUpdated","inputs":[{"name":"edgeId","type":"bytes32","indexed":true,"internalType":"bytes32"},{"name":"status","type":"uint8","indexed":false,"internalType":"enum AgentRelationship.EdgeStatus"},{"name":"updater","type":"address","indexed":true,"internalType":"address"}],"anonymous":false},{"type":"event","name":"RoleAdded","inputs":[{"name":"edgeId","type":"bytes32","indexed":true,"internalType":"bytes32"},{"name":"role","type":"bytes32","indexed":true,"internalType":"bytes32"},{"name":"updater","type":"address","indexed":true,"internalType":"address"}],"anonymous":false},{"type":"event","name":"RoleRemoved","inputs":[{"name":"edgeId","type":"bytes32","indexed":true,"internalType":"bytes32"},{"name":"role","type":"bytes32","indexed":true,"internalType":"bytes32"},{"name":"updater","type":"address","indexed":true,"internalType":"address"}],"anonymous":false},{"type":"error","name":"EdgeAlreadyExists","inputs":[]},{"type":"error","name":"EdgeNotFound","inputs":[]},{"type":"error","name":"InvalidEdge","inputs":[]},{"type":"error","name":"NotAuthorized","inputs":[]},{"type":"error","name":"RoleAlreadyExists","inputs":[]},{"type":"error","name":"RoleNotFound","inputs":[]}],"bytecode":{"object":"0x608080604052346015576120c5908161001a8239f35b5f80fdfe60806040526004361015610011575f80fd5b5f3560e01c806301ce599f14611c1a5780630262d6c714611be057806305bcf81714611ba657806306323f8d14611b155780630ca075d914611ae15780630fde0f8e14611aa75780631084d50b14611a6d578063116aa52f14611a0957806314272e20146119cf5780631adcdac6146119955780631d3ea8d91461195b578063254802321461192157806331f50cae146118e757806334de9dcd14611875578063391f8ae4146114b05780633b588d49146114765780633f029aaf1461143c578063413e114f1461140257806343f4c53b146113c857806346e603621461138e5780634bb615c7146113545780634dc737d51461131a57806352d93856146112e05780635be7c3af146112a65780635cd35a331461126c5780635f6a4546146112325780635feb1570146111f8578063659a98d5146111be578063675129a5146111845780636985b01a1461114a5780636da56e85146111105780636f00d39d146110d65780637249760e1461109c57806372eab1931461106257806373825397146110285780637385997814610fee57806374eaa4a214610fb4578063750e0c0f14610f865780637708ea1d14610f4c5780637b4599d414610f125780637cf8448e14610ed85780637ed6c5ee14610d2e57806387f1241d14610ca85780638aa1edfb14610c6e5780638ad682af14610c345780638b486f1214610beb5780638c9ca81e14610bb157806390fd101414610b7757806398a1b39714610b3d578063aae1d83d14610b03578063aaebf5f914610ac9578063beb3e3fa14610a8f578063c703963014610a55578063c968db0d14610a1b578063ccf1246d146109e1578063cd56d908146109a7578063d1f8a4c11461096d578063d391014b14610933578063d3b06579146108b1578063e0892bad14610877578063e0c080e71461083d578063e77b792314610803578063ea9f6c77146107c9578063f18aa8731461078f578063f68aff1714610755578063f9178e201461071b578063f999327d146106e1578063fbc0c681146106a7578063fc4205cd14610686578063fc87c6931461064c578063fcb829be14610612578063fd3bf06b146105d8578063fd7522e21461059e5763fda2892e14610347575f80fd5b3461059a57602036600319011261059a57606061010060405161036981611e71565b5f81525f60208201525f60408201525f838201525f60808201525f60a08201525f60c08201525f60e082015201526004355f525f60205260405f20604051906103b182611e71565b8054825260018101546001600160a01b0390811660208401908152600283015490911660408401908152600383015460608501908152600484015492946080810194909391929160ff8116600581101561058657865260a085019060018060a01b039060081c16815260058201549060c08601918252600760068401549360e08801948552019360405194855f82549261044a84611ec8565b80845293600181169081156105645750600114610520575b5061046f92500386611e8e565b610100870194855282511561051157610160976020966104c6926040519b8c9a8a8c52518a8c015260018060a01b0390511660408b015260018060a01b0390511660608a01525160808901525160a0880190611e64565b516001600160a01b031660c08601525160e085015251610100840152516101208084015280516101408401819052918291018484015e5f828201840152601f01601f19168101030190f35b63e7a592fd60e01b5f5260045ffd5b90505f9291925260205f20905f915b81831061054857505090602061046f928201015f610462565b6020919350806001915483858c0101520191019091879261052f565b90506020925061046f94915060ff191682840152151560051b8201015f610462565b634e487b7160e01b5f52602160045260245ffd5b5f80fd5b3461059a575f36600319011261059a5760206040517f14ceb1149cdab84b395151a21d3de6707dd76fff3e7bc4e018925a9986b7f72f8152f35b3461059a575f36600319011261059a5760206040517f44856aedf93ebe8323a93071ac3200dbd6528e64e8f2a3addfbcd4fb861121e28152f35b3461059a575f36600319011261059a5760206040517f8ed7f2be71ae09edcbaea3300f966f315b29f127af7f1ad5b9360107cf209b8c8152f35b3461059a575f36600319011261059a5760206040517f7eef2aec834a83fe5afd31aeb56ad269e7521922229c41f351d8c5efc72441308152f35b3461059a57602061069f61069936611e2a565b91611fb3565b604051908152f35b3461059a575f36600319011261059a5760206040517f371b981161610c6b069b6a794aa7dd39fc2fc007007f9c6448dc017ed127522b8152f35b3461059a575f36600319011261059a5760206040517fbd161f64cb69bcb42c1905895b3cad569d81628da3e761313b27afd8a7199e838152f35b3461059a575f36600319011261059a5760206040517f7a48490076aab3e33c94df015e0fe6c28683b1bedbb065c2d390f3d02205b5c68152f35b3461059a575f36600319011261059a5760206040517f74303c3ba47d559347383233e34b74d707bcd5eeec8f5dd36ed8f67b52a7d2948152f35b3461059a575f36600319011261059a5760206040517ff1aaef0d35cb26a46bccc715cd62704f9d812dcafe522c449d44d2096f7f5cdc8152f35b3461059a575f36600319011261059a5760206040517f374de57e09657ee3506d974d3f2780e293365853e28a10571f6a8de4e10736078152f35b3461059a575f36600319011261059a5760206040517f46267bbe58f6d01ac443e454a2db83d3a4fd26ff2e29d957b5691bb38b7b09cd8152f35b3461059a575f36600319011261059a5760206040517fb473b0a3f1de1949e45e2406922cc862451cd1552318f176529d2b131571cefc8152f35b3461059a575f36600319011261059a5760206040517fa12429a9fddb982a3dda940913dec13352e29ee1a8ca480c3a014c338cee92208152f35b3461059a57602036600319011261059a576001600160a01b036108d2611de6565b165f52600360205260405f206040519081602082549182815201915f5260205f20905f5b81811061091d576109198561090d81870382611e8e565b60405191829182611dad565b0390f35b82548452602090930192600192830192016108f6565b3461059a575f36600319011261059a5760206040517ff23ec0bb4210edd5cba85afd05127efcd2fc6a781bfed49188da1081670b22d88152f35b3461059a575f36600319011261059a5760206040517fbd088c99b1e7efe40c6cc6be0a2e3be210440eae7c30ad96be78208250e941868152f35b3461059a575f36600319011261059a5760206040517f2d4c85ab11a9d6b576023750f52b318302d657cce8849349a4fb1b113d5712ed8152f35b3461059a575f36600319011261059a5760206040517fc6f412e23b7924ba8d3f2c10f88d2941da44b5f77626ef11aa3fb56997ffd9568152f35b3461059a575f36600319011261059a5760206040517fdd07565b4734c0f203b03129e8ba72db5212faed44f5f1bb16c55bc8e61b47768152f35b3461059a575f36600319011261059a5760206040517f9218f378f5ae79022b6cc7f632f042d387d98784fc495d19b14c8c0314ee1adb8152f35b3461059a575f36600319011261059a5760206040517f75e2a5d52adab44109520f4ad9c1c79bc43119fdd9729540977f350ab1b791a08152f35b3461059a575f36600319011261059a5760206040517f863480501959a73cc3fea35fb3cf3402b6489ac34f0a59336a628ff703cd693e8152f35b3461059a575f36600319011261059a5760206040517f92d6bd6e1c7476780cfd97cc2ef33cbc2694c25ebbe741f2763fcea3a0453c2a8152f35b3461059a575f36600319011261059a5760206040517f46a52cf33029de9f84853745a87af28464c80bf0346df1b32e205fc73319f6228152f35b3461059a575f36600319011261059a5760206040517f010b3b7f14e4ebfc2c2be39f0eaabe7f739d63d4a176abfc10ff1c34ae164f4f8152f35b3461059a575f36600319011261059a5760206040517fccc838a9b658bddbeb67cd6aab42416f9261b13e317d152e30a5dd792df1c3268152f35b3461059a57610bf936611e2a565b9160018060a01b03165f52600560205260405f209060018060a01b03165f5260205260405f20905f52602052602060405f2054604051908152f35b3461059a575f36600319011261059a5760206040517f02016836a56b71f0d02689e69e326f4f4c1b9057164ef592671cf0d37c8040c08152f35b3461059a575f36600319011261059a5760206040517f83fbe11c9eea6c979567dae16baa5a2263ba6bc57909db419460e3709f863f608152f35b3461059a57604036600319011261059a57602435600435600582101561059a57805f525f60205260405f2060058101541561051157610ce681611fee565b610cf38360048301611eb0565b600642910155610d066040518093611e64565b7f3b14c40b66e33060817670254e0df107c975558d8a67748193c0f492b0112dac60203393a3005b3461059a57604036600319011261059a5760043560243567ffffffffffffffff811161059a57610d62903690600401611dfc565b9091805f525f60205260405f209260058401541561051157610d8384611fee565b600784019367ffffffffffffffff8411610ec457610dab84610da58754611ec8565b87611f00565b5f94601f8511600114610e3f57610dfb85807f4a8ad94b9fdbfef4c19c328e75b40618e4d386d9ed45a1879bd733810dbba8859697985f91610e34575b508160011b915f199060031b1c19161790565b90555b60064291015583604051916020835281602084015260408301375f604085830101526040813395601f80199101168101030190a3005b905085013589610de8565b601f19851695815f5260205f20965f5b818110610eac575090867f4a8ad94b9fdbfef4c19c328e75b40618e4d386d9ed45a1879bd733810dbba8859697989210610e93575b5050600186811b019055610dfe565b8401355f19600389901b60f8161c191690558680610e84565b85830135895560019098019760209283019201610e4f565b634e487b7160e01b5f52604160045260245ffd5b3461059a575f36600319011261059a5760206040517f1f44322e009e35fa980a86bb919abd5f7b159a0b585c288b0429c8d508491c908152f35b3461059a575f36600319011261059a5760206040517f7f11e8a47c8f6f2761361211fdf25db4167076f4c74d7c390a15f4211bc8c2148152f35b3461059a575f36600319011261059a5760206040517fa695017707ee0c04095f723270b3c315654d16e337ad54039175a4b0008946768152f35b3461059a57602036600319011261059a576004355f525f6020526020600560405f2001541515604051908152f35b3461059a575f36600319011261059a5760206040517ff15a397b202db1de4cf6fc433f382aa58c315d2e8b1195572a4607b12a11a7f38152f35b3461059a575f36600319011261059a5760206040517f13a558e5dee42f5447ad561a1bc98e1b990cfce01c419eecb67ed7255b872c2c8152f35b3461059a575f36600319011261059a5760206040517f52bfaa72b38d51e41f89b44bdab7088b05ed220117301914ae3a9320a6a8ae1f8152f35b3461059a575f36600319011261059a5760206040517f17e3c9b75a28667a22959a31b57641e4feec543319c85fc4fcd2037434c5e39a8152f35b3461059a575f36600319011261059a5760206040517ff80484e3ac5c2530b83fbe35ed550276bd7367bad12f0bb292a2c8d774ae62768152f35b3461059a575f36600319011261059a5760206040517f1784e7dd74f3bebf25a3f2778f579d226c974c7a65345a7334f609a6049340e98152f35b3461059a575f36600319011261059a5760206040517fe73c0d9505516993d6e7f97506b8b4840bdda64c6bb2d31ca46d6395e2030e5b8152f35b3461059a575f36600319011261059a5760206040517fa8ca821fb2ac6b7af3c1143fa27560210417183a7829a8b3c69a7a2ea49658d38152f35b3461059a575f36600319011261059a5760206040517f9d5a8f88393b06ba79ba8bf2e82c9590be01116bfa4e49fd7c0a906d5d718c148152f35b3461059a575f36600319011261059a5760206040517f1844ec4c1523b67146989cc791d8125ed4cf4ad283423a6fcace0edaff8d752e8152f35b3461059a575f36600319011261059a5760206040517f7f6b5a04c447bc7460e839ab3beec472c7cab6d9a1207dceefdc3a0af8c1cea28152f35b3461059a575f36600319011261059a5760206040517fba308ed016b86f333acd7e982470c05a99a5c04d0b1ae12c79b900d1364fa1798152f35b3461059a575f36600319011261059a5760206040517fb948544b053ebfac33f21f2a7a9e1bb8dc5e78c1bf3d6b0f5b6eaed94ea497978152f35b3461059a575f36600319011261059a5760206040517fa590178bbb52bb56030b49d1d28dafeea10301a8868c13e50be35cc88e67c6338152f35b3461059a575f36600319011261059a5760206040517fa8f48a8b30d92f288efae92352fece22dcd4b0f0bf3f28d255caa24e52b6842f8152f35b3461059a575f36600319011261059a5760206040517f44a0aedec19884ceece01de64c264f2ae48e1daa360ff0b5900a76edb513ff858152f35b3461059a575f36600319011261059a5760206040517f80a7f1a98f2eb5cff812a846bc3fbe6bba81baae9d9e3229d4774ce1369bff338152f35b3461059a575f36600319011261059a5760206040517f051feec71facfd8e8aea53f3cc1b943fea746e7424f7a49d9bbb18f5f18c71e48152f35b3461059a575f36600319011261059a5760206040517f4d3462aa3c62095e3b1af3f789ae789dd4f30cd0a91be55e6cae7348be2707fb8152f35b3461059a575f36600319011261059a5760206040517f1dfb19ccb0c0221518b7615e75047d683927a0e0c6617ccdbdcaa37eef172dac8152f35b3461059a575f36600319011261059a5760206040517faa9aaa4c5cc4078ae32554cdf49a218ee84ee95b1f87de4d3c1e8ac45dd355f78152f35b3461059a575f36600319011261059a5760206040517f114508e17713d06023fe2d3086e60ea879795c8f027443082bcf15f16da1d1b08152f35b3461059a5760a036600319011261059a576114c9611de6565b6024356001600160a01b03811680820361059a576044359260643567ffffffffffffffff811161059a573660238201121561059a5780600401359067ffffffffffffffff821161059a576024810190602436918460051b01011161059a5760843567ffffffffffffffff811161059a57611547903690600401611dfc565b956001600160a01b038516948515801561186d575b61185e5761156b918991611fb3565b95865f525f602052600560405f20015461184f5760405161158b81611e71565b87815260208101918683526040820192888452606083018b815260808401906001825260a085019533875260c086019342855260e087019542875267ffffffffffffffff8111610ec457604051996115ed601f8301601f19166020018c611e8e565b818b52368282011161059a57815f92602092838e01378b01015261010087019889525f8e815260208190526040902096518755516001870180546001600160a01b03199081166001600160a01b0393841617909155915160028801805490931691161790555160038501555193600484019060058610156105865761167460079683611eb0565b518154610100600160a81b03191660089190911b610100600160a81b031617905551600583015551600682015591518051919092019167ffffffffffffffff8211610ec4576116cd826116c78554611ec8565b85611f00565b602090601f83116001146117ec576116fc92915f91836117e1575b50508160011b915f199060031b1c19161790565b90555b825f5260036020526117148560405f20611f78565b835f5260046020526117298560405f20611f78565b825f52600560205260405f20845f5260205260405f20865f526020528460405f20555f5b82811061179157505050827f0d691d462f0fda43eafa8aedf190230ebc590e0e629a2153d0109e4c590fbded604060209681519081523388820152a4604051908152f35b806117a96117a26001938686611fa3565b3588612058565b336117b5828686611fa3565b35887fcaa31d04b5f2f62d7e1aa643ac4219077b72ccd833f54efce3f25b1eae881c605f80a40161174d565b015190508a806116e8565b90601f19831691845f52815f20925f5b818110611837575090846001959493921061181f575b505050811b0190556116ff565b01515f1960f88460031b161c19169055898080611812565b929360206001819287860151815501950193016117fc565b630edf123360e21b5f5260045ffd5b63b7510a2f60e01b5f5260045ffd5b50861561155c565b3461059a57602036600319011261059a576001600160a01b03611896611de6565b165f52600460205260405f206040519081602082549182815201915f5260205f20905f5b8181106118d1576109198561090d81870382611e8e565b82548452602090930192600192830192016118ba565b3461059a575f36600319011261059a5760206040517f5b2bdba62f81f793d26d0d9c44b8d2cc3c54f16cd8f5276cd863c7c8b17526858152f35b3461059a575f36600319011261059a5760206040517fbd944b9133ad178ba3bbc31f313a367e9350a853a7597319c60fa3aa9ccdb97a8152f35b3461059a575f36600319011261059a5760206040517fc7b727560aec7e57fee2d638fb538248137ecfdcce6ada68bce1e3cb3b540f758152f35b3461059a575f36600319011261059a5760206040517f04d7047679391b54993fc1811fbac5104380583ac3338fefcd0b1989ba983eb28152f35b3461059a575f36600319011261059a5760206040517f84de83cbcc85bf62a3a04211f39f5792ef681a95898976785f36d765b9981d398152f35b3461059a57602036600319011261059a576004355f52600160205260405f206040519081602082549182815201915f5260205f20905f5b818110611a57576109198561090d81870382611e8e565b8254845260209093019260019283019201611a40565b3461059a575f36600319011261059a5760206040517ff4f919975cf7d339b828f897002abf183e8e9e9321f170771d93306a01abf62f8152f35b3461059a575f36600319011261059a5760206040517f559d29576718e7413779edc05f63260eecf7f5e184046a03c89b3edd147cb8208152f35b3461059a57611aef36611d97565b905f52600260205260405f20905f52602052602060ff60405f2054166040519015158152f35b3461059a57611b2336611d97565b815f525f60205260405f2060058101541561051157611b4181611fee565b825f52600260205260405f20825f5260205260ff60405f205416611b9757611b698284612058565b60064291015533917fcaa31d04b5f2f62d7e1aa643ac4219077b72ccd833f54efce3f25b1eae881c605f80a4005b636014eda760e11b5f5260045ffd5b3461059a575f36600319011261059a5760206040517f62f4beb05d0ba64f39203d8bcc3435f0a6fd48d2b6e6572c021b3613f64b1cd48152f35b3461059a575f36600319011261059a5760206040517ff0dc415188c840704effb0847c57fbe1fff40d6f447d0626ee6839513e0bb10f8152f35b3461059a57611c2836611d97565b815f525f60205260405f209060058201541561051157611c4782611fee565b825f52600260205260405f20815f5260205260ff60405f20541615611d8857825f52600260205260405f20815f5260205260405f2060ff198154169055825f52600160205260405f20915f5b835480821015611d7e5783611ca88387611f4f565b90549060031b1c14611cbd5750600101611c93565b929391925f198101908111611d6a57611cea611cdc611d009285611f4f565b90549060031b1c9284611f4f565b819391549060031b91821b915f19901b19161790565b905580548015611d56575f190190611d188282611f4f565b8154905f199060031b1b19169055555b60064291015533917fd8f6d16ed8a9b189683fa342d55eb066980f1c8f6a0da6f4671246d2b9d90e6d5f80a4005b634e487b7160e01b5f52603160045260245ffd5b634e487b7160e01b5f52601160045260245ffd5b5050909150611d28565b630337506360e61b5f5260045ffd5b604090600319011261059a576004359060243590565b60206040818301928281528451809452019201905f5b818110611dd05750505090565b8251845260209384019390920191600101611dc3565b600435906001600160a01b038216820361059a57565b9181601f8401121561059a5782359167ffffffffffffffff831161059a576020838186019501011161059a57565b606090600319011261059a576004356001600160a01b038116810361059a57906024356001600160a01b038116810361059a579060443590565b9060058210156105865752565b610120810190811067ffffffffffffffff821117610ec457604052565b90601f8019910116810190811067ffffffffffffffff821117610ec457604052565b9060058110156105865760ff80198354169116179055565b90600182811c92168015611ef6575b6020831014611ee257565b634e487b7160e01b5f52602260045260245ffd5b91607f1691611ed7565b601f8211611f0d57505050565b5f5260205f20906020601f840160051c83019310611f45575b601f0160051c01905b818110611f3a575050565b5f8155600101611f2f565b9091508190611f26565b8054821015611f64575f5260205f2001905f90565b634e487b7160e01b5f52603260045260245ffd5b80549068010000000000000000821015610ec45781611cea916001611f9f94018155611f4f565b9055565b9190811015611f645760051b0190565b604080516001600160a01b03928316602082019081529290931690830152606080830193909352918152611fe8608082611e8e565b51902090565b60018101546001600160a01b03163314159081612040575b81612022575b5061201357565b63ea8e4eb560e01b5f5260045ffd5b600401543360089190911c6001600160a01b0316141590505f61200c565b60028101546001600160a01b03163314159150612006565b805f52600160205261206d8260405f20611f78565b5f52600260205260405f20905f5260205260405f20600160ff1982541617905556fea2646970667358221220e95a77022e543d10b749d03b33207e7c063565c352a8825b000179777bc1095d64736f6c634300081c0033","linkReferences":{}},"methodIdentifiers":{"ACTIVITY_VALIDATION()":"4bb615c7","ALLIANCE()":"74eaa4a2","BUILD_PROVENANCE()":"1d3ea8d9","COMPLIANCE()":"72eab193","DELEGATION_AUTHORITY()":"73859978","ECONOMIC_SECURITY()":"fbc0c681","INSURANCE_COVERAGE()":"ccf1246d","ORGANIZATIONAL_CONTROL()":"6985b01a","ORGANIZATION_GOVERNANCE()":"c7039630","ORGANIZATION_MEMBERSHIP()":"31f50cae","REVIEW_RELATIONSHIP()":"25480232","ROLE_ACTIVITY_VALIDATOR()":"8c9ca81e","ROLE_ADMIN()":"d391014b","ROLE_ADMINISTERS()":"675129a5","ROLE_ADVISOR()":"d1f8a4c1","ROLE_AFFILIATE()":"4dc737d5","ROLE_ATTESTED_BY()":"46e60362","ROLE_AUDITOR()":"3f029aaf","ROLE_AUTHORIZED_SIGNER()":"e77b7923","ROLE_BACKER()":"5be7c3af","ROLE_BOARD_MEMBER()":"6f00d39d","ROLE_BOUND_TO_KMS()":"0262d6c7","ROLE_BUILT_FROM()":"fc87c693","ROLE_CEO()":"7708ea1d","ROLE_CERTIFIED_BY()":"5feb1570","ROLE_CHAIR()":"3b588d49","ROLE_COLLATERAL_PROVIDER()":"413e114f","ROLE_CONTRACTOR()":"6da56e85","ROLE_CONTROLS_RUNTIME()":"14272e20","ROLE_DELEGATED_OPERATOR()":"aae1d83d","ROLE_DEPLOYED_FROM()":"52d93856","ROLE_EMPLOYEE()":"aaebf5f9","ROLE_ENDORSED_BY()":"cd56d908","ROLE_EXECUTIVE()":"fd3bf06b","ROLE_GUARANTOR()":"43f4c53b","ROLE_INSURED_PARTY()":"e0892bad","ROLE_INSURER()":"c968db0d","ROLE_LICENSED_BY()":"ea9f6c77","ROLE_MANAGED_AGENT()":"7cf8448e","ROLE_MEMBER()":"fd7522e2","ROLE_OFFICER()":"f18aa873","ROLE_OPERATED_AGENT()":"659a98d5","ROLE_OPERATOR()":"98a1b397","ROLE_OWNER()":"8ad682af","ROLE_PARENT_ORG()":"e0c080e7","ROLE_REVIEWED_AGENT()":"f9178e20","ROLE_REVIEWER()":"5f6a4546","ROLE_RUNS_IN_TEE()":"1084d50b","ROLE_SERVICE_PROVIDER()":"73825397","ROLE_STAKER()":"5cd35a33","ROLE_STRATEGIC_PARTNER()":"f68aff17","ROLE_SUBSIDIARY()":"90fd1014","ROLE_TREASURER()":"05bcf817","ROLE_UNDERWRITER()":"1adcdac6","ROLE_VALIDATED_PERFORMER()":"f999327d","ROLE_VALIDATOR()":"7b4599d4","ROLE_VENDOR()":"0fde0f8e","ROLE_VERIFIED_BY()":"fcb829be","RUNTIME_ATTESTATION()":"8aa1edfb","SERVICE_AGREEMENT()":"beb3e3fa","VALIDATION_TRUST()":"7249760e","addRole(bytes32,bytes32)":"06323f8d","computeEdgeId(address,address,bytes32)":"fc4205cd","createEdge(address,address,bytes32,bytes32[],string)":"391f8ae4","edgeExists(bytes32)":"750e0c0f","getEdge(bytes32)":"fda2892e","getEdgeByTriple(address,address,bytes32)":"8b486f12","getEdgesByObject(address)":"34de9dcd","getEdgesBySubject(address)":"d3b06579","getRoles(bytes32)":"116aa52f","hasRole(bytes32,bytes32)":"0ca075d9","removeRole(bytes32,bytes32)":"01ce599f","setEdgeStatus(bytes32,uint8)":"87f1241d","setMetadataURI(bytes32,string)":"7ed6c5ee"},"id":62}