{"abi":[{"type":"function","name":"ALLIANCE","inputs":[],"outputs":[{"name":"","type":"bytes32","internalType":"bytes32"}],"stateMutability":"view"},{"type":"function","name":"DELEGATION_AUTHORITY","inputs":[],"outputs":[{"name":"","type":"bytes32","internalType":"bytes32"}],"stateMutability":"view"},{"type":"function","name":"ECONOMIC_SECURITY","inputs":[],"outputs":[{"name":"","type":"bytes32","internalType":"bytes32"}],"stateMutability":"view"},{"type":"function","name":"INSURANCE_COVERAGE","inputs":[],"outputs":[{"name":"","type":"bytes32","internalType":"bytes32"}],"stateMutability":"view"},{"type":"function","name":"ORGANIZATION_GOVERNANCE","inputs":[],"outputs":[{"name":"","type":"bytes32","internalType":"bytes32"}],"stateMutability":"view"},{"type":"function","name":"ORGANIZATION_MEMBERSHIP","inputs":[],"outputs":[{"name":"","type":"bytes32","internalType":"bytes32"}],"stateMutability":"view"},{"type":"function","name":"ROLE_ADMIN","inputs":[],"outputs":[{"name":"","type":"bytes32","internalType":"bytes32"}],"stateMutability":"view"},{"type":"function","name":"ROLE_AFFILIATE","inputs":[],"outputs":[{"name":"","type":"bytes32","internalType":"bytes32"}],"stateMutability":"view"},{"type":"function","name":"ROLE_AUDITOR","inputs":[],"outputs":[{"name":"","type":"bytes32","internalType":"bytes32"}],"stateMutability":"view"},{"type":"function","name":"ROLE_AUTHORIZED_SIGNER","inputs":[],"outputs":[{"name":"","type":"bytes32","internalType":"bytes32"}],"stateMutability":"view"},{"type":"function","name":"ROLE_BOARD_MEMBER","inputs":[],"outputs":[{"name":"","type":"bytes32","internalType":"bytes32"}],"stateMutability":"view"},{"type":"function","name":"ROLE_CEO","inputs":[],"outputs":[{"name":"","type":"bytes32","internalType":"bytes32"}],"stateMutability":"view"},{"type":"function","name":"ROLE_DELEGATED_OPERATOR","inputs":[],"outputs":[{"name":"","type":"bytes32","internalType":"bytes32"}],"stateMutability":"view"},{"type":"function","name":"ROLE_EXECUTIVE","inputs":[],"outputs":[{"name":"","type":"bytes32","internalType":"bytes32"}],"stateMutability":"view"},{"type":"function","name":"ROLE_GUARANTOR","inputs":[],"outputs":[{"name":"","type":"bytes32","internalType":"bytes32"}],"stateMutability":"view"},{"type":"function","name":"ROLE_INSURED_PARTY","inputs":[],"outputs":[{"name":"","type":"bytes32","internalType":"bytes32"}],"stateMutability":"view"},{"type":"function","name":"ROLE_INSURER","inputs":[],"outputs":[{"name":"","type":"bytes32","internalType":"bytes32"}],"stateMutability":"view"},{"type":"function","name":"ROLE_MEMBER","inputs":[],"outputs":[{"name":"","type":"bytes32","internalType":"bytes32"}],"stateMutability":"view"},{"type":"function","name":"ROLE_OPERATOR","inputs":[],"outputs":[{"name":"","type":"bytes32","internalType":"bytes32"}],"stateMutability":"view"},{"type":"function","name":"ROLE_OWNER","inputs":[],"outputs":[{"name":"","type":"bytes32","internalType":"bytes32"}],"stateMutability":"view"},{"type":"function","name":"ROLE_SERVICE_PROVIDER","inputs":[],"outputs":[{"name":"","type":"bytes32","internalType":"bytes32"}],"stateMutability":"view"},{"type":"function","name":"ROLE_STAKER","inputs":[],"outputs":[{"name":"","type":"bytes32","internalType":"bytes32"}],"stateMutability":"view"},{"type":"function","name":"ROLE_STRATEGIC_PARTNER","inputs":[],"outputs":[{"name":"","type":"bytes32","internalType":"bytes32"}],"stateMutability":"view"},{"type":"function","name":"ROLE_TREASURER","inputs":[],"outputs":[{"name":"","type":"bytes32","internalType":"bytes32"}],"stateMutability":"view"},{"type":"function","name":"ROLE_VALIDATOR","inputs":[],"outputs":[{"name":"","type":"bytes32","internalType":"bytes32"}],"stateMutability":"view"},{"type":"function","name":"ROLE_VENDOR","inputs":[],"outputs":[{"name":"","type":"bytes32","internalType":"bytes32"}],"stateMutability":"view"},{"type":"function","name":"SERVICE_AGREEMENT","inputs":[],"outputs":[{"name":"","type":"bytes32","internalType":"bytes32"}],"stateMutability":"view"},{"type":"function","name":"VALIDATION_TRUST","inputs":[],"outputs":[{"name":"","type":"bytes32","internalType":"bytes32"}],"stateMutability":"view"},{"type":"function","name":"addRole","inputs":[{"name":"edgeId","type":"bytes32","internalType":"bytes32"},{"name":"role","type":"bytes32","internalType":"bytes32"}],"outputs":[],"stateMutability":"nonpayable"},{"type":"function","name":"computeEdgeId","inputs":[{"name":"subject","type":"address","internalType":"address"},{"name":"object_","type":"address","internalType":"address"},{"name":"relationshipType","type":"bytes32","internalType":"bytes32"}],"outputs":[{"name":"","type":"bytes32","internalType":"bytes32"}],"stateMutability":"pure"},{"type":"function","name":"createEdge","inputs":[{"name":"subject","type":"address","internalType":"address"},{"name":"object_","type":"address","internalType":"address"},{"name":"relationshipType","type":"bytes32","internalType":"bytes32"},{"name":"initialRoles","type":"bytes32[]","internalType":"bytes32[]"},{"name":"metadataURI","type":"string","internalType":"string"}],"outputs":[{"name":"edgeId","type":"bytes32","internalType":"bytes32"}],"stateMutability":"nonpayable"},{"type":"function","name":"edgeExists","inputs":[{"name":"edgeId","type":"bytes32","internalType":"bytes32"}],"outputs":[{"name":"","type":"bool","internalType":"bool"}],"stateMutability":"view"},{"type":"function","name":"getEdge","inputs":[{"name":"edgeId","type":"bytes32","internalType":"bytes32"}],"outputs":[{"name":"","type":"tuple","internalType":"struct AgentRelationship.Edge","components":[{"name":"edgeId","type":"bytes32","internalType":"bytes32"},{"name":"subject","type":"address","internalType":"address"},{"name":"object_","type":"address","internalType":"address"},{"name":"relationshipType","type":"bytes32","internalType":"bytes32"},{"name":"status","type":"uint8","internalType":"enum AgentRelationship.EdgeStatus"},{"name":"createdBy","type":"address","internalType":"address"},{"name":"createdAt","type":"uint256","internalType":"uint256"},{"name":"updatedAt","type":"uint256","internalType":"uint256"},{"name":"metadataURI","type":"string","internalType":"string"}]}],"stateMutability":"view"},{"type":"function","name":"getEdgeByTriple","inputs":[{"name":"subject","type":"address","internalType":"address"},{"name":"object_","type":"address","internalType":"address"},{"name":"relationshipType","type":"bytes32","internalType":"bytes32"}],"outputs":[{"name":"","type":"bytes32","internalType":"bytes32"}],"stateMutability":"view"},{"type":"function","name":"getEdgesByObject","inputs":[{"name":"object_","type":"address","internalType":"address"}],"outputs":[{"name":"","type":"bytes32[]","internalType":"bytes32[]"}],"stateMutability":"view"},{"type":"function","name":"getEdgesBySubject","inputs":[{"name":"subject","type":"address","internalType":"address"}],"outputs":[{"name":"","type":"bytes32[]","internalType":"bytes32[]"}],"stateMutability":"view"},{"type":"function","name":"getRoles","inputs":[{"name":"edgeId","type":"bytes32","internalType":"bytes32"}],"outputs":[{"name":"","type":"bytes32[]","internalType":"bytes32[]"}],"stateMutability":"view"},{"type":"function","name":"hasRole","inputs":[{"name":"edgeId","type":"bytes32","internalType":"bytes32"},{"name":"role","type":"bytes32","internalType":"bytes32"}],"outputs":[{"name":"","type":"bool","internalType":"bool"}],"stateMutability":"view"},{"type":"function","name":"removeRole","inputs":[{"name":"edgeId","type":"bytes32","internalType":"bytes32"},{"name":"role","type":"bytes32","internalType":"bytes32"}],"outputs":[],"stateMutability":"nonpayable"},{"type":"function","name":"setEdgeStatus","inputs":[{"name":"edgeId","type":"bytes32","internalType":"bytes32"},{"name":"newStatus","type":"uint8","internalType":"enum AgentRelationship.EdgeStatus"}],"outputs":[],"stateMutability":"nonpayable"},{"type":"function","name":"setMetadataURI","inputs":[{"name":"edgeId","type":"bytes32","internalType":"bytes32"},{"name":"metadataURI","type":"string","internalType":"string"}],"outputs":[],"stateMutability":"nonpayable"},{"type":"event","name":"EdgeCreated","inputs":[{"name":"edgeId","type":"bytes32","indexed":true,"internalType":"bytes32"},{"name":"subject","type":"address","indexed":true,"internalType":"address"},{"name":"object_","type":"address","indexed":true,"internalType":"address"},{"name":"relationshipType","type":"bytes32","indexed":false,"internalType":"bytes32"},{"name":"createdBy","type":"address","indexed":false,"internalType":"address"}],"anonymous":false},{"type":"event","name":"EdgeMetadataUpdated","inputs":[{"name":"edgeId","type":"bytes32","indexed":true,"internalType":"bytes32"},{"name":"metadataURI","type":"string","indexed":false,"internalType":"string"},{"name":"updater","type":"address","indexed":true,"internalType":"address"}],"anonymous":false},{"type":"event","name":"EdgeStatusUpdated","inputs":[{"name":"edgeId","type":"bytes32","indexed":true,"internalType":"bytes32"},{"name":"status","type":"uint8","indexed":false,"internalType":"enum AgentRelationship.EdgeStatus"},{"name":"updater","type":"address","indexed":true,"internalType":"address"}],"anonymous":false},{"type":"event","name":"RoleAdded","inputs":[{"name":"edgeId","type":"bytes32","indexed":true,"internalType":"bytes32"},{"name":"role","type":"bytes32","indexed":true,"internalType":"bytes32"},{"name":"updater","type":"address","indexed":true,"internalType":"address"}],"anonymous":false},{"type":"event","name":"RoleRemoved","inputs":[{"name":"edgeId","type":"bytes32","indexed":true,"internalType":"bytes32"},{"name":"role","type":"bytes32","indexed":true,"internalType":"bytes32"},{"name":"updater","type":"address","indexed":true,"internalType":"address"}],"anonymous":false},{"type":"error","name":"EdgeAlreadyExists","inputs":[]},{"type":"error","name":"EdgeNotFound","inputs":[]},{"type":"error","name":"InvalidEdge","inputs":[]},{"type":"error","name":"NotAuthorized","inputs":[]},{"type":"error","name":"RoleAlreadyExists","inputs":[]},{"type":"error","name":"RoleNotFound","inputs":[]}],"bytecode":{"object":"0x6080604052348015600e575f5ffd5b506118f28061001c5f395ff3fe608060405234801561000f575f5ffd5b506004361061024a575f3560e01c80637b4599d411610140578063ccf1246d116100bf578063f68aff1711610084578063f68aff1714610736578063fbc0c6811461075d578063fc4205cd14610784578063fd3bf06b14610797578063fd7522e2146107be578063fda2892e146107e5575f5ffd5b8063ccf1246d14610687578063d391014b146106ae578063d3b06579146106d5578063e0892bad146106e8578063e77b79231461070f575f5ffd5b806398a1b3971161010557806398a1b397146105c4578063aae1d83d146105eb578063beb3e3fa14610612578063c703963014610639578063c968db0d14610660575f5ffd5b80637b4599d4146105115780637ed6c5ee1461053857806387f1241d1461054b5780638ad682af1461055e5780638b486f1214610585575f5ffd5b806343f4c53b116101cc57806373825397116101915780637382539714610451578063738599781461047857806374eaa4a21461049f578063750e0c0f146104c65780637708ea1d146104ea575f5ffd5b806343f4c53b1461038e5780634dc737d5146103b55780635cd35a33146103dc5780636f00d39d146104035780637249760e1461042a575f5ffd5b8063116aa52f11610212578063116aa52f146102fa57806331f50cae1461031a57806334de9dcd14610341578063391f8ae4146103545780633f029aaf14610367575f5ffd5b806301ce599f1461024e57806305bcf8171461026357806306323f8d1461029d5780630ca075d9146102b05780630fde0f8e146102d3575b5f5ffd5b61026161025c3660046112ad565b610805565b005b61028a7f62f4beb05d0ba64f39203d8bcc3435f0a6fd48d2b6e6572c021b3613f64b1cd481565b6040519081526020015b60405180910390f35b6102616102ab3660046112ad565b6108bc565b6102c36102be3660046112ad565b610974565b6040519015158152602001610294565b61028a7f559d29576718e7413779edc05f63260eecf7f5e184046a03c89b3edd147cb82081565b61030d6103083660046112cd565b610997565b60405161029491906112e4565b61028a7f5b2bdba62f81f793d26d0d9c44b8d2cc3c54f16cd8f5276cd863c7c8b175268581565b61030d61034f366004611341565b6109f6565b61028a6103623660046113a6565b610a5d565b61028a7faa9aaa4c5cc4078ae32554cdf49a218ee84ee95b1f87de4d3c1e8ac45dd355f781565b61028a7f4d3462aa3c62095e3b1af3f789ae789dd4f30cd0a91be55e6cae7348be2707fb81565b61028a7f44a0aedec19884ceece01de64c264f2ae48e1daa360ff0b5900a76edb513ff8581565b61028a7fb948544b053ebfac33f21f2a7a9e1bb8dc5e78c1bf3d6b0f5b6eaed94ea4979781565b61028a7f1784e7dd74f3bebf25a3f2778f579d226c974c7a65345a7334f609a6049340e981565b61028a7ff80484e3ac5c2530b83fbe35ed550276bd7367bad12f0bb292a2c8d774ae627681565b61028a7f52bfaa72b38d51e41f89b44bdab7088b05ed220117301914ae3a9320a6a8ae1f81565b61028a7f13a558e5dee42f5447ad561a1bc98e1b990cfce01c419eecb67ed7255b872c2c81565b61028a7ff15a397b202db1de4cf6fc433f382aa58c315d2e8b1195572a4607b12a11a7f381565b6102c36104d43660046112cd565b5f90815260208190526040902060050154151590565b61028a7fa695017707ee0c04095f723270b3c315654d16e337ad54039175a4b00089467681565b61028a7f7f11e8a47c8f6f2761361211fdf25db4167076f4c74d7c390a15f4211bc8c21481565b610261610546366004611471565b610d8a565b6102616105593660046114b9565b610e1f565b61028a7f02016836a56b71f0d02689e69e326f4f4c1b9057164ef592671cf0d37c8040c081565b61028a6105933660046114ea565b6001600160a01b039283165f9081526005602090815260408083209490951682529283528381209181529152205490565b61028a7f46a52cf33029de9f84853745a87af28464c80bf0346df1b32e205fc73319f62281565b61028a7f92d6bd6e1c7476780cfd97cc2ef33cbc2694c25ebbe741f2763fcea3a0453c2a81565b61028a7f75e2a5d52adab44109520f4ad9c1c79bc43119fdd9729540977f350ab1b791a081565b61028a7f9218f378f5ae79022b6cc7f632f042d387d98784fc495d19b14c8c0314ee1adb81565b61028a7fdd07565b4734c0f203b03129e8ba72db5212faed44f5f1bb16c55bc8e61b477681565b61028a7fc6f412e23b7924ba8d3f2c10f88d2941da44b5f77626ef11aa3fb56997ffd95681565b61028a7ff23ec0bb4210edd5cba85afd05127efcd2fc6a781bfed49188da1081670b22d881565b61030d6106e3366004611341565b610ecb565b61028a7fa12429a9fddb982a3dda940913dec13352e29ee1a8ca480c3a014c338cee922081565b61028a7f46267bbe58f6d01ac443e454a2db83d3a4fd26ff2e29d957b5691bb38b7b09cd81565b61028a7f74303c3ba47d559347383233e34b74d707bcd5eeec8f5dd36ed8f67b52a7d29481565b61028a7f371b981161610c6b069b6a794aa7dd39fc2fc007007f9c6448dc017ed127522b81565b61028a6107923660046114ea565b610f32565b61028a7f44856aedf93ebe8323a93071ac3200dbd6528e64e8f2a3addfbcd4fb861121e281565b61028a7f14ceb1149cdab84b395151a21d3de6707dd76fff3e7bc4e018925a9986b7f72f81565b6107f86107f33660046112cd565b610f75565b6040516102949190611586565b5f82815260208190526040812060058101549091036108375760405163e7a592fd60e01b815260040160405180910390fd5b6108408161112e565b5f83815260026020908152604080832085845290915290205460ff1661087957604051630337506360e61b815260040160405180910390fd5b6108838383611197565b4260068201556040513390839085907fd8f6d16ed8a9b189683fa342d55eb066980f1c8f6a0da6f4671246d2b9d90e6d905f90a4505050565b5f82815260208190526040812060058101549091036108ee5760405163e7a592fd60e01b815260040160405180910390fd5b6108f78161112e565b5f83815260026020908152604080832085845290915290205460ff161561093157604051636014eda760e11b815260040160405180910390fd5b61093b838361126a565b4260068201556040513390839085907fcaa31d04b5f2f62d7e1aa643ac4219077b72ccd833f54efce3f25b1eae881c60905f90a4505050565b5f82815260026020908152604080832084845290915290205460ff165b92915050565b5f818152600160209081526040918290208054835181840281018401909452808452606093928301828280156109ea57602002820191905f5260205f20905b8154815260200190600101908083116109d6575b50505050509050919050565b6001600160a01b0381165f908152600460209081526040918290208054835181840281018401909452808452606093928301828280156109ea57602002820191905f5260205f20908154815260200190600101908083116109d65750505050509050919050565b5f6001600160a01b0388161580610a7b57506001600160a01b038716155b15610a995760405163b7510a2f60e01b815260040160405180910390fd5b610aa4888888610f32565b5f8181526020819052604090206005015490915015610ad657604051630edf123360e21b815260040160405180910390fd5b604051806101200160405280828152602001896001600160a01b03168152602001886001600160a01b0316815260200187815260200160016004811115610b1f57610b1f611524565b8152602001336001600160a01b0316815260200142815260200142815260200184848080601f0160208091040260200160405190810160405280939291908181526020018383808284375f92018290525093909452505083815260208181526040918290208451815590840151600180830180546001600160a01b039384166001600160a01b03199182161790915593860151600284018054919093169416939093179055606084015160038201556080840151600480830180549395509193919260ff191691908490811115610bf857610bf8611524565b021790555060a0820151600482018054610100600160a81b0319166101006001600160a01b03909316830217905560c0830151600583015560e083015160068301558201516007820190610c4c90826116c4565b5050506001600160a01b038089165f81815260036020908152604080832080546001818101835591855283852001879055948c16808452600483528184208054968701815584528284209095018690559282526005815282822093825292835281812089825290925281208290555b84811015610d3457610ce582878784818110610cd957610cd961177f565b9050602002013561126a565b33868683818110610cf857610cf861177f565b90506020020135837fcaa31d04b5f2f62d7e1aa643ac4219077b72ccd833f54efce3f25b1eae881c6060405160405180910390a4600101610cbb565b50604080518781523360208201526001600160a01b03808a1692908b169184917f0d691d462f0fda43eafa8aedf190230ebc590e0e629a2153d0109e4c590fbded910160405180910390a4979650505050505050565b5f8381526020819052604081206005810154909103610dbc5760405163e7a592fd60e01b815260040160405180910390fd5b610dc58161112e565b60078101610dd4838583611793565b50426006820155604051339085907f4a8ad94b9fdbfef4c19c328e75b40618e4d386d9ed45a1879bd733810dbba88590610e11908790879061184d565b60405180910390a350505050565b5f8281526020819052604081206005810154909103610e515760405163e7a592fd60e01b815260040160405180910390fd5b610e5a8161112e565b81816004015f6101000a81548160ff02191690836004811115610e7f57610e7f611524565b0217905550426006820155604051339084907f3b14c40b66e33060817670254e0df107c975558d8a67748193c0f492b0112dac90610ebe90869061187b565b60405180910390a3505050565b6001600160a01b0381165f908152600360209081526040918290208054835181840281018401909452808452606093928301828280156109ea57602002820191905f5260205f20908154815260200190600101908083116109d65750505050509050919050565b604080516001600160a01b039485166020808301919091529390941684820152606080850192909252805180850390920182526080909301909252815191012090565b610fc960408051610120810182525f808252602082018190529181018290526060810182905290608082019081526020015f6001600160a01b031681526020015f81526020015f8152602001606081525090565b5f828152602081815260408083208151610120810183528154815260018201546001600160a01b039081169482019490945260028201549093169183019190915260038101546060830152600480820154608084019160ff9091169081111561103457611034611524565b600481111561104557611045611524565b8152600482015461010090046001600160a01b03166020820152600582015460408201526006820154606082015260078201805460809092019161108890611640565b80601f01602080910402602001604051908101604052809291908181526020018280546110b490611640565b80156110ff5780601f106110d6576101008083540402835291602001916110ff565b820191905f5260205f20905b8154815290600101906020018083116110e257829003601f168201915b50505050508152505090508060c001515f036109915760405163e7a592fd60e01b815260040160405180910390fd5b60018101546001600160a01b03163314801590611158575060028101546001600160a01b03163314155b80156111765750600481015461010090046001600160a01b03163314155b156111945760405163ea8e4eb560e01b815260040160405180910390fd5b50565b5f8281526002602090815260408083208484528252808320805460ff1916905584835260019091528120905b815481101561126457828282815481106111df576111df61177f565b905f5260205f2001540361125c57815482906111fd90600190611889565b8154811061120d5761120d61177f565b905f5260205f2001548282815481106112285761122861177f565b905f5260205f20018190555081805480611244576112446118a8565b600190038181905f5260205f20015f90559055611264565b6001016111c3565b50505050565b5f8281526001602081815260408084208054808501825590855282852001859055948352600281528483209383529290925291909120805460ff19169091179055565b5f5f604083850312156112be575f5ffd5b50508035926020909101359150565b5f602082840312156112dd575f5ffd5b5035919050565b602080825282518282018190525f918401906040840190835b8181101561131b5783518352602093840193909201916001016112fd565b509095945050505050565b80356001600160a01b038116811461133c575f5ffd5b919050565b5f60208284031215611351575f5ffd5b61135a82611326565b9392505050565b5f5f83601f840112611371575f5ffd5b50813567ffffffffffffffff811115611388575f5ffd5b60208301915083602082850101111561139f575f5ffd5b9250929050565b5f5f5f5f5f5f5f60a0888a0312156113bc575f5ffd5b6113c588611326565b96506113d360208901611326565b955060408801359450606088013567ffffffffffffffff8111156113f5575f5ffd5b8801601f81018a13611405575f5ffd5b803567ffffffffffffffff81111561141b575f5ffd5b8a60208260051b840101111561142f575f5ffd5b60209190910194509250608088013567ffffffffffffffff811115611452575f5ffd5b61145e8a828b01611361565b989b979a50959850939692959293505050565b5f5f5f60408486031215611483575f5ffd5b83359250602084013567ffffffffffffffff8111156114a0575f5ffd5b6114ac86828701611361565b9497909650939450505050565b5f5f604083850312156114ca575f5ffd5b823591506020830135600581106114df575f5ffd5b809150509250929050565b5f5f5f606084860312156114fc575f5ffd5b61150584611326565b925061151360208501611326565b929592945050506040919091013590565b634e487b7160e01b5f52602160045260245ffd5b6005811061155457634e487b7160e01b5f52602160045260245ffd5b9052565b5f81518084528060208401602086015e5f602082860101526020601f19601f83011685010191505092915050565b60208152815160208201525f60208301516115ac60408401826001600160a01b03169052565b5060408301516001600160a01b0381166060840152506060830151608083015260808301516115de60a0840182611538565b5060a08301516001600160a01b03811660c08401525060c083015160e083015260e083015161010083015261010083015161012080840152611624610140840182611558565b949350505050565b634e487b7160e01b5f52604160045260245ffd5b600181811c9082168061165457607f821691505b60208210810361167257634e487b7160e01b5f52602260045260245ffd5b50919050565b601f8211156116bf57805f5260205f20601f840160051c8101602085101561169d5750805b601f840160051c820191505b818110156116bc575f81556001016116a9565b50505b505050565b815167ffffffffffffffff8111156116de576116de61162c565b6116f2816116ec8454611640565b84611678565b6020601f821160018114611724575f831561170d5750848201515b5f19600385901b1c1916600184901b1784556116bc565b5f84815260208120601f198516915b828110156117535787850151825560209485019460019092019101611733565b508482101561177057868401515f19600387901b60f8161c191681555b50505050600190811b01905550565b634e487b7160e01b5f52603260045260245ffd5b67ffffffffffffffff8311156117ab576117ab61162c565b6117bf836117b98354611640565b83611678565b5f601f8411600181146117f0575f85156117d95750838201355b5f19600387901b1c1916600186901b1783556116bc565b5f83815260208120601f198716915b8281101561181f57868501358255602094850194600190920191016117ff565b508682101561183b575f1960f88860031b161c19848701351681555b505060018560011b0183555050505050565b60208152816020820152818360408301375f818301604090810191909152601f909201601f19160101919050565b602081016109918284611538565b8181038181111561099157634e487b7160e01b5f52601160045260245ffd5b634e487b7160e01b5f52603160045260245ffdfea2646970667358221220b84d30208e72292c31d4375e5b700ef09ea7d4e11d773d49b33c9036a63b657264736f6c634300081c0033","linkReferences":{}},"methodIdentifiers":{"ALLIANCE()":"74eaa4a2","DELEGATION_AUTHORITY()":"73859978","ECONOMIC_SECURITY()":"fbc0c681","INSURANCE_COVERAGE()":"ccf1246d","ORGANIZATION_GOVERNANCE()":"c7039630","ORGANIZATION_MEMBERSHIP()":"31f50cae","ROLE_ADMIN()":"d391014b","ROLE_AFFILIATE()":"4dc737d5","ROLE_AUDITOR()":"3f029aaf","ROLE_AUTHORIZED_SIGNER()":"e77b7923","ROLE_BOARD_MEMBER()":"6f00d39d","ROLE_CEO()":"7708ea1d","ROLE_DELEGATED_OPERATOR()":"aae1d83d","ROLE_EXECUTIVE()":"fd3bf06b","ROLE_GUARANTOR()":"43f4c53b","ROLE_INSURED_PARTY()":"e0892bad","ROLE_INSURER()":"c968db0d","ROLE_MEMBER()":"fd7522e2","ROLE_OPERATOR()":"98a1b397","ROLE_OWNER()":"8ad682af","ROLE_SERVICE_PROVIDER()":"73825397","ROLE_STAKER()":"5cd35a33","ROLE_STRATEGIC_PARTNER()":"f68aff17","ROLE_TREASURER()":"05bcf817","ROLE_VALIDATOR()":"7b4599d4","ROLE_VENDOR()":"0fde0f8e","SERVICE_AGREEMENT()":"beb3e3fa","VALIDATION_TRUST()":"7249760e","addRole(bytes32,bytes32)":"06323f8d","computeEdgeId(address,address,bytes32)":"fc4205cd","createEdge(address,address,bytes32,bytes32[],string)":"391f8ae4","edgeExists(bytes32)":"750e0c0f","getEdge(bytes32)":"fda2892e","getEdgeByTriple(address,address,bytes32)":"8b486f12","getEdgesByObject(address)":"34de9dcd","getEdgesBySubject(address)":"d3b06579","getRoles(bytes32)":"116aa52f","hasRole(bytes32,bytes32)":"0ca075d9","removeRole(bytes32,bytes32)":"01ce599f","setEdgeStatus(bytes32,uint8)":"87f1241d","setMetadataURI(bytes32,string)":"7ed6c5ee"},"id":65}