{"abi":[{"type":"constructor","inputs":[{"name":"ontologyRegistry","type":"address","internalType":"address"},{"name":"shapes","type":"address","internalType":"address"},{"name":"fundRegistry","type":"address","internalType":"address"}],"stateMutability":"nonpayable"},{"type":"function","name":"CLASS_VOTE","inputs":[],"outputs":[{"name":"","type":"bytes32","internalType":"bytes32"}],"stateMutability":"view"},{"type":"function","name":"DT_ADDRESS_ARR_PUB","inputs":[],"outputs":[{"name":"","type":"uint8","internalType":"uint8"}],"stateMutability":"pure"},{"type":"function","name":"DT_ADDRESS_PUB","inputs":[],"outputs":[{"name":"","type":"uint8","internalType":"uint8"}],"stateMutability":"pure"},{"type":"function","name":"DT_BOOL_PUB","inputs":[],"outputs":[{"name":"","type":"uint8","internalType":"uint8"}],"stateMutability":"pure"},{"type":"function","name":"DT_BYTES32_ARR_PUB","inputs":[],"outputs":[{"name":"","type":"uint8","internalType":"uint8"}],"stateMutability":"pure"},{"type":"function","name":"DT_BYTES32_PUB","inputs":[],"outputs":[{"name":"","type":"uint8","internalType":"uint8"}],"stateMutability":"pure"},{"type":"function","name":"DT_STRING_ARR_PUB","inputs":[],"outputs":[{"name":"","type":"uint8","internalType":"uint8"}],"stateMutability":"pure"},{"type":"function","name":"DT_STRING_PUB","inputs":[],"outputs":[{"name":"","type":"uint8","internalType":"uint8"}],"stateMutability":"pure"},{"type":"function","name":"DT_UINT256_PUB","inputs":[],"outputs":[{"name":"","type":"uint8","internalType":"uint8"}],"stateMutability":"pure"},{"type":"function","name":"FUND_REGISTRY","inputs":[],"outputs":[{"name":"","type":"address","internalType":"contract IRoundFundLookup"}],"stateMutability":"view"},{"type":"function","name":"ONTOLOGY","inputs":[],"outputs":[{"name":"","type":"address","internalType":"contract OntologyTermRegistry"}],"stateMutability":"view"},{"type":"function","name":"SA_VOTE_BALLOT","inputs":[],"outputs":[{"name":"","type":"bytes32","internalType":"bytes32"}],"stateMutability":"view"},{"type":"function","name":"SA_VOTE_CAST_AT","inputs":[],"outputs":[{"name":"","type":"bytes32","internalType":"bytes32"}],"stateMutability":"view"},{"type":"function","name":"SA_VOTE_NULLIFIER","inputs":[],"outputs":[{"name":"","type":"bytes32","internalType":"bytes32"}],"stateMutability":"view"},{"type":"function","name":"SA_VOTE_PROPOSAL","inputs":[],"outputs":[{"name":"","type":"bytes32","internalType":"bytes32"}],"stateMutability":"view"},{"type":"function","name":"SA_VOTE_RATIONALE","inputs":[],"outputs":[{"name":"","type":"bytes32","internalType":"bytes32"}],"stateMutability":"view"},{"type":"function","name":"SA_VOTE_ROUND","inputs":[],"outputs":[{"name":"","type":"bytes32","internalType":"bytes32"}],"stateMutability":"view"},{"type":"function","name":"SA_VOTE_UPDATED_AT","inputs":[],"outputs":[{"name":"","type":"bytes32","internalType":"bytes32"}],"stateMutability":"view"},{"type":"function","name":"SA_VOTE_WEIGHT","inputs":[],"outputs":[{"name":"","type":"bytes32","internalType":"bytes32"}],"stateMutability":"view"},{"type":"function","name":"SHAPES","inputs":[],"outputs":[{"name":"","type":"address","internalType":"contract ShapeRegistry"}],"stateMutability":"view"},{"type":"function","name":"allSubjects","inputs":[],"outputs":[{"name":"","type":"bytes32[]","internalType":"bytes32[]"}],"stateMutability":"view"},{"type":"function","name":"castVote","inputs":[{"name":"p","type":"tuple","internalType":"struct VoteRegistry.CastVoteParams","components":[{"name":"roundSubject","type":"bytes32","internalType":"bytes32"},{"name":"nullifier","type":"bytes32","internalType":"bytes32"},{"name":"proposalSubject","type":"bytes32","internalType":"bytes32"},{"name":"ballot","type":"bytes32","internalType":"bytes32"},{"name":"weight","type":"uint256","internalType":"uint256"},{"name":"rationale","type":"string","internalType":"string"}]}],"outputs":[],"stateMutability":"nonpayable"},{"type":"function","name":"datatypeOf","inputs":[{"name":"subject","type":"bytes32","internalType":"bytes32"},{"name":"predicate","type":"bytes32","internalType":"bytes32"}],"outputs":[{"name":"","type":"uint8","internalType":"uint8"}],"stateMutability":"view"},{"type":"function","name":"getAddress","inputs":[{"name":"subject","type":"bytes32","internalType":"bytes32"},{"name":"predicate","type":"bytes32","internalType":"bytes32"}],"outputs":[{"name":"","type":"address","internalType":"address"}],"stateMutability":"view"},{"type":"function","name":"getAddressArr","inputs":[{"name":"subject","type":"bytes32","internalType":"bytes32"},{"name":"predicate","type":"bytes32","internalType":"bytes32"}],"outputs":[{"name":"","type":"address[]","internalType":"address[]"}],"stateMutability":"view"},{"type":"function","name":"getBallot","inputs":[{"name":"voteSubj","type":"bytes32","internalType":"bytes32"}],"outputs":[{"name":"","type":"bytes32","internalType":"bytes32"}],"stateMutability":"view"},{"type":"function","name":"getBool","inputs":[{"name":"subject","type":"bytes32","internalType":"bytes32"},{"name":"predicate","type":"bytes32","internalType":"bytes32"}],"outputs":[{"name":"","type":"bool","internalType":"bool"}],"stateMutability":"view"},{"type":"function","name":"getBytes32","inputs":[{"name":"subject","type":"bytes32","internalType":"bytes32"},{"name":"predicate","type":"bytes32","internalType":"bytes32"}],"outputs":[{"name":"","type":"bytes32","internalType":"bytes32"}],"stateMutability":"view"},{"type":"function","name":"getBytes32Arr","inputs":[{"name":"subject","type":"bytes32","internalType":"bytes32"},{"name":"predicate","type":"bytes32","internalType":"bytes32"}],"outputs":[{"name":"","type":"bytes32[]","internalType":"bytes32[]"}],"stateMutability":"view"},{"type":"function","name":"getCastAt","inputs":[{"name":"voteSubj","type":"bytes32","internalType":"bytes32"}],"outputs":[{"name":"","type":"uint256","internalType":"uint256"}],"stateMutability":"view"},{"type":"function","name":"getNullifier","inputs":[{"name":"voteSubj","type":"bytes32","internalType":"bytes32"}],"outputs":[{"name":"","type":"bytes32","internalType":"bytes32"}],"stateMutability":"view"},{"type":"function","name":"getProposal","inputs":[{"name":"voteSubj","type":"bytes32","internalType":"bytes32"}],"outputs":[{"name":"","type":"bytes32","internalType":"bytes32"}],"stateMutability":"view"},{"type":"function","name":"getString","inputs":[{"name":"subject","type":"bytes32","internalType":"bytes32"},{"name":"predicate","type":"bytes32","internalType":"bytes32"}],"outputs":[{"name":"","type":"string","internalType":"string"}],"stateMutability":"view"},{"type":"function","name":"getStringArr","inputs":[{"name":"subject","type":"bytes32","internalType":"bytes32"},{"name":"predicate","type":"bytes32","internalType":"bytes32"}],"outputs":[{"name":"","type":"string[]","internalType":"string[]"}],"stateMutability":"view"},{"type":"function","name":"getUint","inputs":[{"name":"subject","type":"bytes32","internalType":"bytes32"},{"name":"predicate","type":"bytes32","internalType":"bytes32"}],"outputs":[{"name":"","type":"uint256","internalType":"uint256"}],"stateMutability":"view"},{"type":"function","name":"getWeight","inputs":[{"name":"voteSubj","type":"bytes32","internalType":"bytes32"}],"outputs":[{"name":"","type":"uint256","internalType":"uint256"}],"stateMutability":"view"},{"type":"function","name":"isSet","inputs":[{"name":"subject","type":"bytes32","internalType":"bytes32"},{"name":"predicate","type":"bytes32","internalType":"bytes32"}],"outputs":[{"name":"","type":"bool","internalType":"bool"}],"stateMutability":"view"},{"type":"function","name":"predicatesOf","inputs":[{"name":"subject","type":"bytes32","internalType":"bytes32"}],"outputs":[{"name":"","type":"bytes32[]","internalType":"bytes32[]"}],"stateMutability":"view"},{"type":"function","name":"subjectCount","inputs":[],"outputs":[{"name":"","type":"uint256","internalType":"uint256"}],"stateMutability":"view"},{"type":"function","name":"subjectVersion","inputs":[{"name":"subject","type":"bytes32","internalType":"bytes32"}],"outputs":[{"name":"","type":"uint64","internalType":"uint64"}],"stateMutability":"view"},{"type":"function","name":"updatedAt","inputs":[{"name":"subject","type":"bytes32","internalType":"bytes32"},{"name":"predicate","type":"bytes32","internalType":"bytes32"}],"outputs":[{"name":"","type":"uint64","internalType":"uint64"}],"stateMutability":"view"},{"type":"function","name":"voteSubject","inputs":[{"name":"roundSubject","type":"bytes32","internalType":"bytes32"},{"name":"proposalSubject","type":"bytes32","internalType":"bytes32"},{"name":"nullifier","type":"bytes32","internalType":"bytes32"}],"outputs":[{"name":"","type":"bytes32","internalType":"bytes32"}],"stateMutability":"pure"},{"type":"event","name":"AttributeAppended","inputs":[{"name":"subject","type":"bytes32","indexed":true,"internalType":"bytes32"},{"name":"predicate","type":"bytes32","indexed":true,"internalType":"bytes32"},{"name":"datatype","type":"uint8","indexed":false,"internalType":"uint8"},{"name":"version","type":"uint64","indexed":false,"internalType":"uint64"}],"anonymous":false},{"type":"event","name":"AttributeSet","inputs":[{"name":"subject","type":"bytes32","indexed":true,"internalType":"bytes32"},{"name":"predicate","type":"bytes32","indexed":true,"internalType":"bytes32"},{"name":"datatype","type":"uint8","indexed":false,"internalType":"uint8"},{"name":"version","type":"uint64","indexed":false,"internalType":"uint64"}],"anonymous":false},{"type":"event","name":"AttributeUnset","inputs":[{"name":"subject","type":"bytes32","indexed":true,"internalType":"bytes32"},{"name":"predicate","type":"bytes32","indexed":true,"internalType":"bytes32"},{"name":"version","type":"uint64","indexed":false,"internalType":"uint64"}],"anonymous":false},{"type":"event","name":"SubjectFirstSeen","inputs":[{"name":"subject","type":"bytes32","indexed":true,"internalType":"bytes32"}],"anonymous":false},{"type":"event","name":"VoteCast","inputs":[{"name":"voteSubject","type":"bytes32","indexed":true,"internalType":"bytes32"},{"name":"roundSubject","type":"bytes32","indexed":true,"internalType":"bytes32"},{"name":"nullifier","type":"bytes32","indexed":true,"internalType":"bytes32"},{"name":"ballot","type":"bytes32","indexed":false,"internalType":"bytes32"},{"name":"weight","type":"uint256","indexed":false,"internalType":"uint256"}],"anonymous":false},{"type":"event","name":"VoteUpdated","inputs":[{"name":"voteSubject","type":"bytes32","indexed":true,"internalType":"bytes32"},{"name":"newBallot","type":"bytes32","indexed":false,"internalType":"bytes32"},{"name":"newWeight","type":"uint256","indexed":false,"internalType":"uint256"}],"anonymous":false},{"type":"error","name":"AttributeNotSet","inputs":[]},{"type":"error","name":"NotRoundOperator","inputs":[]},{"type":"error","name":"PredicateNotActive","inputs":[]},{"type":"error","name":"VoteNotFound","inputs":[]}],"bytecode":{"object":"0x60e0346100b757601f611c7538819003918201601f19168301916001600160401b038311848410176100bb578084926060946040528339810103126100b757610047816100cf565b906100606040610059602084016100cf565b92016100cf565b6001600160a01b0392831660805290821660a0521660c052604051611b9190816100e4823960805181818161026401528181610790015261165a015260a0518181816106770152611167015260c05181610e7a0152f35b5f80fd5b634e487b7160e01b5f52604160045260245ffd5b51906001600160a01b03821682036100b75756fe6080806040526004361015610012575f80fd5b5f905f3560e01c90816310d7a5251461142657508063213aaad71461140b5780632cb7ff6b146113df578063305471811461137b57806331477b9b1461133957806332c489a61461131257806337d9d7fc146112e35780634083843e1461127a57806342921cf314611248578063430694cf146111ef5780634742f3771461119657806355c964dd1461115257806360f06fd41461112b578063639a2e101461110e57806366435abf146110b557806367896c041461108e5780636d8bd39c146110675780637a6ad92614611038578063880eadce146110005780638e10136914610fe55780638e21caca14610fb257806393cbc37d14610f9757806394ad119a14610f3e578063989a140314610f1757806398eaf11c14610ee3578063a091652714610ea9578063a24a6f6314610e65578063a7b72de614610dd8578063a954aea114610dbd578063ab9ad2c714610d96578063bb6b0c3b14610d62578063be78c06814610d47578063c317462914610d2c578063c3a6123d14610ca8578063cb954f3014610bc3578063d3a3968614610b8c578063e3e9eae414610351578063e4281bc314610293578063e63cdb421461024e578063e9f5a1db14610226578063ece6bebc1461020a5763f98eed69146101ec575f80fd5b34610207578060031936011261020757602060405160088152f35b80fd5b5034610207578060031936011261020757602060405160028152f35b503461020757806003193601126102075760206040515f516020611b3c5f395f51905f528152f35b50346102075780600319360112610207576040517f00000000000000000000000000000000000000000000000000000000000000006001600160a01b03168152602090f35b5034610207576102a236611484565b90825260066020526040822090825260205260408120604051908160208254918281520190819285526020852090855b81811061033257505050826102e89103836114be565b604051928392602084019060208552518091526040840192915b818110610310575050500390f35b82516001600160a01b0316845285945060209384019390920191600101610302565b82546001600160a01b03168452602090930192600192830192016102d2565b503461071757602036600319011261071757600435906001600160401b038211610717578160040160c060031984360301126107175780359260448101359060248101356103a0818488611601565b9560405163bb6b0c3b60e01b81528760048201525f516020611a7c5f395f51905f526024820152602081604481305afa801561070c5760a49589925f92610b6b575b506103f95f516020611afc5f395f51905f5261163d565b825f52600460205260405f205f516020611afc5f395f51905f525f526020528360405f20556104355f516020611afc5f395f51905f528461173b565b61044b5f516020611a5c5f395f51905f5261163d565b825f52600460205260405f205f516020611a5c5f395f51905f525f5260205260405f20556104865f516020611a5c5f395f51905f528361173b565b6064850135906104a25f516020611a7c5f395f51905f5261163d565b825f52600460205260405f205f516020611a7c5f395f51905f525f526020528160405f20556104de5f516020611a7c5f395f51905f528461173b565b6104f45f516020611a9c5f395f51905f5261163d565b825f52600460205260405f205f516020611a9c5f395f51905f525f526020528460405f20556105305f516020611a9c5f395f51905f528461173b565b60848601359061054c5f516020611abc5f395f51905f5261163d565b835f52600360205260405f205f516020611abc5f395f51905f525f526020528160405f20556105885f516020611abc5f395f51905f52856118cb565b61059e5f516020611adc5f395f51905f5261163d565b835f52600360205260405f205f516020611adc5f395f51905f525f526020524260405f20556105da5f516020611adc5f395f51905f52856118cb565b610b33577fb85a45228ccfc04392ba00b8120eab6586f1a83cc6d132ccd9064d0a208d7a53916040916106195f516020611b3c5f395f51905f5261163d565b845f526003602052825f205f516020611b3c5f395f51905f525f5260205242835f20556106535f516020611b3c5f395f51905f52866118cb565b82519182526020820152a45b019061066b82826115cf565b905061071b575b5090917f00000000000000000000000000000000000000000000000000000000000000006001600160a01b03169150813b15610717575f906064604051809481936309abe27f60e01b83527f63db0bd1d1c565930fba358e4bfa41cf888ba497793f9825f7617ed2cb1555c4600484015260248301523060448301525afa801561070c576106fe575080f35b61070a91505f906114be565b005b6040513d5f823e3d90fd5b5f80fd5b90610725916115cf565b6001600160401b038194929411610ae1576040519361074e601f8301601f1916602001866114be565b818552368282011161071757815f92602092838801378501015260405163170da40760e21b81525f516020611b1c5f395f51905f5260048201526020816024817f00000000000000000000000000000000000000000000000000000000000000006001600160a01b03165afa90811561070c575f91610b04575b5015610af557805f525f60205260405f205f516020611b1c5f395f51905f525f5260205260405f2083516001600160401b038111610ae15761080a82546114df565b601f8111610a9c575b50602094601f8211600114610a3b579481929394955f92610a30575b50508160011b915f199060031b1c19161790555b805f52600e60205260ff60405f205416156109e6575b805f52600960205260405f205f516020611b1c5f395f51905f525f5260205260ff60405f20541615610991575b805f52600a60205260405f205f516020611b1c5f395f51905f525f5260205260405f20600160ff19825416179055805f52600c60205260016001600160401b0360405f205416016001600160401b03811161097d57817f5167ea251eeaf052f4c7bd769efb5b17e6ba98908050b9929a0bd192b57274fb60405f516020611b1c5f395f51905f5293835f52600c602052815f206001600160401b0382166001600160401b0319825416179055835f52600b602052815f20855f52602052815f206001600160401b0382166001600160401b03198254161790556001600160401b0382519160018352166020820152a3905f80610672565b634e487b7160e01b5f52601160045260245ffd5b805f5260086020526109b35f516020611b1c5f395f51905f5260405f20611714565b805f52600960205260405f205f516020611b1c5f395f51905f525f5260205260405f20600160ff19825416179055610886565b805f52600e60205260405f20600160ff19825416179055610a06816116b9565b807f34f1cb4778d9578e1af878b07d3ae7e9f2f32fafcaa3096fe48153670a71bfaf5f80a2610859565b015190505f8061082f565b601f19821695835f52805f20915f5b888110610a8457508360019596979810610a6c575b505050811b019055610843565b01515f1960f88460031b161c191690555f8080610a5f565b91926020600181928685015181550194019201610a4a565b825f5260205f20601f830160051c81019160208410610ad7575b601f0160051c01905b818110610acc5750610813565b5f8155600101610abf565b9091508190610ab6565b634e487b7160e01b5f52604160045260245ffd5b632263bf1f60e21b5f5260045ffd5b610b26915060203d602011610b2c575b610b1e81836114be565b8101906115b7565b5f6107c8565b503d610b14565b6040809395507f987d7641b50b1abbb998c1306ad53cc7aec0453ab0ca46cfe2aaf6f3d1e809d99450519182526020820152a261065f565b610b8591925060203d602011610b2c57610b1e81836114be565b905f6103e2565b3461071757610b9a36611484565b905f52600160205260405f20905f52602052602060018060a01b0360405f205416604051908152f35b3461071757610bd136611484565b905f52600560205260405f20905f5260205260405f208054906001600160401b038211610ae15760405191610c0c60208260051b01846114be565b8083526020830180925f5260205f205f915b838310610c8b57848660405191829160208301906020845251809152604083019060408160051b85010192915f905b828210610c5c57505050500390f35b91936001919395506020610c7b8192603f198a8203018652885161149a565b9601920192018594939192610c4d565b600160208192610c9a85611517565b815201920192019190610c1e565b34610717575f36600319011261071757604051806020600d54918281520190600d5f527fd7b6990105719101dabeb77144f2a3385c8033acd3af97e9423a695e81ad1eb5905f5b818110610d1657610d1285610d06818703826114be565b6040519182918261144b565b0390f35b8254845260209093019260019283019201610cef565b34610717575f36600319011261071757602060405160058152f35b34610717575f36600319011261071757602060405160048152f35b3461071757610d7036611484565b905f52600960205260405f20905f52602052602060ff60405f2054166040519015158152f35b34610717575f3660031901126107175760206040515f516020611afc5f395f51905f528152f35b34610717575f36600319011261071757602060405160018152f35b3461071757602036600319011261071757604051633d356c9360e11b815260048035908201525f516020611b3c5f395f51905f526024820152602081604481305afa801561070c575f90610e32575b602090604051908152f35b506020813d602011610e5d575b81610e4c602093836114be565b810103126107175760209051610e27565b3d9150610e3f565b34610717575f366003190112610717576040517f00000000000000000000000000000000000000000000000000000000000000006001600160a01b03168152602090f35b34610717575f3660031901126107175760206040517f63db0bd1d1c565930fba358e4bfa41cf888ba497793f9825f7617ed2cb1555c48152f35b3461071757610ef136611484565b905f52600260205260405f20905f52602052602060ff60405f2054166040519015158152f35b34610717575f3660031901126107175760206040515f516020611abc5f395f51905f528152f35b3461071757602036600319011261071757604051630df675ff60e21b815260048035908201525f516020611a7c5f395f51905f526024820152602081604481305afa801561070c575f90610e3257602090604051908152f35b34610717575f36600319011261071757602060405160038152f35b34610717576020366003190112610717576004355f52600c60205260206001600160401b0360405f205416604051908152f35b34610717575f36600319011261071757602060405160068152f35b346107175761100e36611484565b905f52600b60205260405f20905f5260205260206001600160401b0360405f205416604051908152f35b346107175761104636611484565b905f52600360205260405f20905f52602052602060405f2054604051908152f35b34610717575f3660031901126107175760206040515f516020611adc5f395f51905f528152f35b34610717575f3660031901126107175760206040515f516020611a9c5f395f51905f528152f35b3461071757602036600319011261071757604051633d356c9360e11b815260048035908201525f516020611abc5f395f51905f526024820152602081604481305afa801561070c575f90610e3257602090604051908152f35b34610717575f366003190112610717576020600d54604051908152f35b34610717575f3660031901126107175760206040515f516020611a7c5f395f51905f528152f35b34610717575f366003190112610717576040517f00000000000000000000000000000000000000000000000000000000000000006001600160a01b03168152602090f35b3461071757602036600319011261071757604051630df675ff60e21b815260048035908201525f516020611a9c5f395f51905f526024820152602081604481305afa801561070c575f90610e3257602090604051908152f35b3461071757602036600319011261071757604051630df675ff60e21b815260048035908201525f516020611a5c5f395f51905f526024820152602081604481305afa801561070c575f90610e3257602090604051908152f35b346107175761125636611484565b905f52600a60205260405f20905f52602052602060ff60405f205416604051908152f35b346107175761128836611484565b905f52600760205260405f20905f5260205260405f206040519081602082549182815201915f5260205f20905f5b8181106112cd57610d1285610d06818703826114be565b82548452602090930192600192830192016112b6565b34610717576112f136611484565b905f52600460205260405f20905f52602052602060405f2054604051908152f35b34610717575f3660031901126107175760206040515f516020611a5c5f395f51905f528152f35b346107175761134736611484565b905f525f60205260405f20905f52602052610d1261136760405f20611517565b60405191829160208352602083019061149a565b34610717576020366003190112610717576004355f52600860205260405f206040519081602082549182815201915f5260205f20905f5b8181106113c957610d1285610d06818703826114be565b82548452602090930192600192830192016113b2565b34610717576060366003190112610717576020611403604435602435600435611601565b604051908152f35b34610717575f36600319011261071757602060405160078152f35b34610717575f36600319011261071757805f516020611b1c5f395f51905f5260209252f35b60206040818301928281528451809452019201905f5b81811061146e5750505090565b8251845260209384019390920191600101611461565b6040906003190112610717576004359060243590565b805180835260209291819084018484015e5f828201840152601f01601f1916010190565b90601f801991011681019081106001600160401b03821117610ae157604052565b90600182811c9216801561150d575b60208310146114f957565b634e487b7160e01b5f52602260045260245ffd5b91607f16916114ee565b9060405191825f82549261152a846114df565b80845293600181169081156115955750600114611551575b5061154f925003836114be565b565b90505f9291925260205f20905f915b81831061157957505090602061154f928201015f611542565b6020919350806001915483858901015201910190918492611560565b90506020925061154f94915060ff191682840152151560051b8201015f611542565b90816020910312610717575180151581036107175790565b903590601e198136030182121561071757018035906001600160401b0382116107175760200191813603831361071757565b916040519160208301936739b09d3b37ba329d60c11b8552602884015260488301526068820152606881526116376088826114be565b51902090565b60405163170da40760e21b815260048101919091526020816024817f00000000000000000000000000000000000000000000000000000000000000006001600160a01b03165afa90811561070c575f9161169a575b5015610af557565b6116b3915060203d602011610b2c57610b1e81836114be565b5f611692565b600d54600160401b811015610ae1576001810180600d5581101561170057600d5f527fd7b6990105719101dabeb77144f2a3385c8033acd3af97e9423a695e81ad1eb50155565b634e487b7160e01b5f52603260045260245ffd5b805490600160401b821015610ae15760018201808255821015611700575f5260205f200155565b805f52600e60205260ff60405f20541615611881575b805f52600960205260405f20825f5260205260ff60405f20541615611846575b805f52600a60205260405f20825f5260205260405f20600560ff19825416179055805f52600c60205260016001600160401b0360405f205416016001600160401b03811161097d5760407f5167ea251eeaf052f4c7bd769efb5b17e6ba98908050b9929a0bd192b57274fb91835f52600c602052815f206001600160401b0382166001600160401b0319825416179055835f52600b602052815f20855f52602052815f206001600160401b0382166001600160401b03198254161790556001600160401b0382519160058352166020820152a3565b805f52600860205261185b8260405f20611714565b805f52600960205260405f20825f5260205260405f20600160ff19825416179055611771565b805f52600e60205260405f20600160ff198254161790556118a1816116b9565b807f34f1cb4778d9578e1af878b07d3ae7e9f2f32fafcaa3096fe48153670a71bfaf5f80a2611751565b805f52600e60205260ff60405f20541615611a11575b805f52600960205260405f20825f5260205260ff60405f205416156119d6575b805f52600a60205260405f20825f5260205260405f20600460ff19825416179055805f52600c60205260016001600160401b0360405f205416016001600160401b03811161097d5760407f5167ea251eeaf052f4c7bd769efb5b17e6ba98908050b9929a0bd192b57274fb91835f52600c602052815f206001600160401b0382166001600160401b0319825416179055835f52600b602052815f20855f52602052815f206001600160401b0382166001600160401b03198254161790556001600160401b0382519160048352166020820152a3565b805f5260086020526119eb8260405f20611714565b805f52600960205260405f20825f5260205260405f20600160ff19825416179055611901565b805f52600e60205260405f20600160ff19825416179055611a31816116b9565b807f34f1cb4778d9578e1af878b07d3ae7e9f2f32fafcaa3096fe48153670a71bfaf5f80a26118e156fe35a57b43cc89aa2ea6c687e6e169ed47ca6bc3c9ce8d608dd055fe34ef31c7a992f8f21ec73938b758b219c295edae59a1c97fb8f8c2dd73828cbc29caa3b98c9398416a2084d74d78adf36ccba41b63b3cc60f1eed47f004b7a6b181d57416b6cafc83ebc7d28279476c45fea6d506089f142058924b225bb2e6f62d31393b99c513aa912c622f500d6478cfbacbacc75b23b73e3a0f188dcd339c4f6d9b5efd0daadc8f1231ccdcd8ceb366e6000b734602902fe61a6abdf5477f1e64a0af87449a70ec208c151ec078eaba82188a346e26b714184375defc4cb07f5f8613c3fc3d9c07cf6fdf52a9651863937c08265f9af51f8f42e1103961e973cf94cf1a2646970667358221220f6277c17e0a4f5b18ed8f3fbe78b8e8a81cde213dd63b2cf1ba429ebbac0751a64736f6c634300081c0033","linkReferences":{}},"methodIdentifiers":{"CLASS_VOTE()":"a0916527","DT_ADDRESS_ARR_PUB()":"213aaad7","DT_ADDRESS_PUB()":"ece6bebc","DT_BOOL_PUB()":"93cbc37d","DT_BYTES32_ARR_PUB()":"f98eed69","DT_BYTES32_PUB()":"c3174629","DT_STRING_ARR_PUB()":"8e101369","DT_STRING_PUB()":"a954aea1","DT_UINT256_PUB()":"be78c068","FUND_REGISTRY()":"a24a6f63","ONTOLOGY()":"e63cdb42","SA_VOTE_BALLOT()":"60f06fd4","SA_VOTE_CAST_AT()":"e9f5a1db","SA_VOTE_NULLIFIER()":"67896c04","SA_VOTE_PROPOSAL()":"32c489a6","SA_VOTE_RATIONALE()":"10d7a525","SA_VOTE_ROUND()":"ab9ad2c7","SA_VOTE_UPDATED_AT()":"6d8bd39c","SA_VOTE_WEIGHT()":"989a1403","SHAPES()":"55c964dd","allSubjects()":"c3a6123d","castVote((bytes32,bytes32,bytes32,bytes32,uint256,string))":"e3e9eae4","datatypeOf(bytes32,bytes32)":"42921cf3","getAddress(bytes32,bytes32)":"d3a39686","getAddressArr(bytes32,bytes32)":"e4281bc3","getBallot(bytes32)":"94ad119a","getBool(bytes32,bytes32)":"98eaf11c","getBytes32(bytes32,bytes32)":"37d9d7fc","getBytes32Arr(bytes32,bytes32)":"4083843e","getCastAt(bytes32)":"a7b72de6","getNullifier(bytes32)":"4742f377","getProposal(bytes32)":"430694cf","getString(bytes32,bytes32)":"31477b9b","getStringArr(bytes32,bytes32)":"cb954f30","getUint(bytes32,bytes32)":"7a6ad926","getWeight(bytes32)":"66435abf","isSet(bytes32,bytes32)":"bb6b0c3b","predicatesOf(bytes32)":"30547181","subjectCount()":"639a2e10","subjectVersion(bytes32)":"8e21caca","updatedAt(bytes32,bytes32)":"880eadce","voteSubject(bytes32,bytes32,bytes32)":"2cb7ff6b"},"id":114}