{"abi":[{"type":"constructor","inputs":[{"name":"ontologyRegistry","type":"address","internalType":"address"},{"name":"shapes","type":"address","internalType":"address"},{"name":"fundRegistry","type":"address","internalType":"address"}],"stateMutability":"nonpayable"},{"type":"function","name":"CLASS_VOTE","inputs":[],"outputs":[{"name":"","type":"bytes32","internalType":"bytes32"}],"stateMutability":"view"},{"type":"function","name":"DT_ADDRESS_ARR_PUB","inputs":[],"outputs":[{"name":"","type":"uint8","internalType":"uint8"}],"stateMutability":"pure"},{"type":"function","name":"DT_ADDRESS_PUB","inputs":[],"outputs":[{"name":"","type":"uint8","internalType":"uint8"}],"stateMutability":"pure"},{"type":"function","name":"DT_BOOL_PUB","inputs":[],"outputs":[{"name":"","type":"uint8","internalType":"uint8"}],"stateMutability":"pure"},{"type":"function","name":"DT_BYTES32_ARR_PUB","inputs":[],"outputs":[{"name":"","type":"uint8","internalType":"uint8"}],"stateMutability":"pure"},{"type":"function","name":"DT_BYTES32_PUB","inputs":[],"outputs":[{"name":"","type":"uint8","internalType":"uint8"}],"stateMutability":"pure"},{"type":"function","name":"DT_STRING_ARR_PUB","inputs":[],"outputs":[{"name":"","type":"uint8","internalType":"uint8"}],"stateMutability":"pure"},{"type":"function","name":"DT_STRING_PUB","inputs":[],"outputs":[{"name":"","type":"uint8","internalType":"uint8"}],"stateMutability":"pure"},{"type":"function","name":"DT_UINT256_PUB","inputs":[],"outputs":[{"name":"","type":"uint8","internalType":"uint8"}],"stateMutability":"pure"},{"type":"function","name":"FUND_REGISTRY","inputs":[],"outputs":[{"name":"","type":"address","internalType":"contract IRoundFundLookup"}],"stateMutability":"view"},{"type":"function","name":"ONTOLOGY","inputs":[],"outputs":[{"name":"","type":"address","internalType":"contract OntologyTermRegistry"}],"stateMutability":"view"},{"type":"function","name":"SA_VOTE_BALLOT","inputs":[],"outputs":[{"name":"","type":"bytes32","internalType":"bytes32"}],"stateMutability":"view"},{"type":"function","name":"SA_VOTE_CAST_AT","inputs":[],"outputs":[{"name":"","type":"bytes32","internalType":"bytes32"}],"stateMutability":"view"},{"type":"function","name":"SA_VOTE_NULLIFIER","inputs":[],"outputs":[{"name":"","type":"bytes32","internalType":"bytes32"}],"stateMutability":"view"},{"type":"function","name":"SA_VOTE_PROPOSAL","inputs":[],"outputs":[{"name":"","type":"bytes32","internalType":"bytes32"}],"stateMutability":"view"},{"type":"function","name":"SA_VOTE_RATIONALE","inputs":[],"outputs":[{"name":"","type":"bytes32","internalType":"bytes32"}],"stateMutability":"view"},{"type":"function","name":"SA_VOTE_ROUND","inputs":[],"outputs":[{"name":"","type":"bytes32","internalType":"bytes32"}],"stateMutability":"view"},{"type":"function","name":"SA_VOTE_UPDATED_AT","inputs":[],"outputs":[{"name":"","type":"bytes32","internalType":"bytes32"}],"stateMutability":"view"},{"type":"function","name":"SA_VOTE_WEIGHT","inputs":[],"outputs":[{"name":"","type":"bytes32","internalType":"bytes32"}],"stateMutability":"view"},{"type":"function","name":"SHAPES","inputs":[],"outputs":[{"name":"","type":"address","internalType":"contract ShapeRegistry"}],"stateMutability":"view"},{"type":"function","name":"allSubjects","inputs":[],"outputs":[{"name":"","type":"bytes32[]","internalType":"bytes32[]"}],"stateMutability":"view"},{"type":"function","name":"castVote","inputs":[{"name":"p","type":"tuple","internalType":"struct VoteRegistry.CastVoteParams","components":[{"name":"roundSubject","type":"bytes32","internalType":"bytes32"},{"name":"nullifier","type":"bytes32","internalType":"bytes32"},{"name":"proposalSubject","type":"bytes32","internalType":"bytes32"},{"name":"ballot","type":"bytes32","internalType":"bytes32"},{"name":"weight","type":"uint256","internalType":"uint256"},{"name":"rationale","type":"string","internalType":"string"}]}],"outputs":[],"stateMutability":"nonpayable"},{"type":"function","name":"datatypeOf","inputs":[{"name":"subject","type":"bytes32","internalType":"bytes32"},{"name":"predicate","type":"bytes32","internalType":"bytes32"}],"outputs":[{"name":"","type":"uint8","internalType":"uint8"}],"stateMutability":"view"},{"type":"function","name":"getAddress","inputs":[{"name":"subject","type":"bytes32","internalType":"bytes32"},{"name":"predicate","type":"bytes32","internalType":"bytes32"}],"outputs":[{"name":"","type":"address","internalType":"address"}],"stateMutability":"view"},{"type":"function","name":"getAddressArr","inputs":[{"name":"subject","type":"bytes32","internalType":"bytes32"},{"name":"predicate","type":"bytes32","internalType":"bytes32"}],"outputs":[{"name":"","type":"address[]","internalType":"address[]"}],"stateMutability":"view"},{"type":"function","name":"getBallot","inputs":[{"name":"voteSubj","type":"bytes32","internalType":"bytes32"}],"outputs":[{"name":"","type":"bytes32","internalType":"bytes32"}],"stateMutability":"view"},{"type":"function","name":"getBool","inputs":[{"name":"subject","type":"bytes32","internalType":"bytes32"},{"name":"predicate","type":"bytes32","internalType":"bytes32"}],"outputs":[{"name":"","type":"bool","internalType":"bool"}],"stateMutability":"view"},{"type":"function","name":"getBytes32","inputs":[{"name":"subject","type":"bytes32","internalType":"bytes32"},{"name":"predicate","type":"bytes32","internalType":"bytes32"}],"outputs":[{"name":"","type":"bytes32","internalType":"bytes32"}],"stateMutability":"view"},{"type":"function","name":"getBytes32Arr","inputs":[{"name":"subject","type":"bytes32","internalType":"bytes32"},{"name":"predicate","type":"bytes32","internalType":"bytes32"}],"outputs":[{"name":"","type":"bytes32[]","internalType":"bytes32[]"}],"stateMutability":"view"},{"type":"function","name":"getCastAt","inputs":[{"name":"voteSubj","type":"bytes32","internalType":"bytes32"}],"outputs":[{"name":"","type":"uint256","internalType":"uint256"}],"stateMutability":"view"},{"type":"function","name":"getNullifier","inputs":[{"name":"voteSubj","type":"bytes32","internalType":"bytes32"}],"outputs":[{"name":"","type":"bytes32","internalType":"bytes32"}],"stateMutability":"view"},{"type":"function","name":"getProposal","inputs":[{"name":"voteSubj","type":"bytes32","internalType":"bytes32"}],"outputs":[{"name":"","type":"bytes32","internalType":"bytes32"}],"stateMutability":"view"},{"type":"function","name":"getString","inputs":[{"name":"subject","type":"bytes32","internalType":"bytes32"},{"name":"predicate","type":"bytes32","internalType":"bytes32"}],"outputs":[{"name":"","type":"string","internalType":"string"}],"stateMutability":"view"},{"type":"function","name":"getStringArr","inputs":[{"name":"subject","type":"bytes32","internalType":"bytes32"},{"name":"predicate","type":"bytes32","internalType":"bytes32"}],"outputs":[{"name":"","type":"string[]","internalType":"string[]"}],"stateMutability":"view"},{"type":"function","name":"getUint","inputs":[{"name":"subject","type":"bytes32","internalType":"bytes32"},{"name":"predicate","type":"bytes32","internalType":"bytes32"}],"outputs":[{"name":"","type":"uint256","internalType":"uint256"}],"stateMutability":"view"},{"type":"function","name":"getWeight","inputs":[{"name":"voteSubj","type":"bytes32","internalType":"bytes32"}],"outputs":[{"name":"","type":"uint256","internalType":"uint256"}],"stateMutability":"view"},{"type":"function","name":"isSet","inputs":[{"name":"subject","type":"bytes32","internalType":"bytes32"},{"name":"predicate","type":"bytes32","internalType":"bytes32"}],"outputs":[{"name":"","type":"bool","internalType":"bool"}],"stateMutability":"view"},{"type":"function","name":"predicatesOf","inputs":[{"name":"subject","type":"bytes32","internalType":"bytes32"}],"outputs":[{"name":"","type":"bytes32[]","internalType":"bytes32[]"}],"stateMutability":"view"},{"type":"function","name":"subjectCount","inputs":[],"outputs":[{"name":"","type":"uint256","internalType":"uint256"}],"stateMutability":"view"},{"type":"function","name":"subjectVersion","inputs":[{"name":"subject","type":"bytes32","internalType":"bytes32"}],"outputs":[{"name":"","type":"uint64","internalType":"uint64"}],"stateMutability":"view"},{"type":"function","name":"updatedAt","inputs":[{"name":"subject","type":"bytes32","internalType":"bytes32"},{"name":"predicate","type":"bytes32","internalType":"bytes32"}],"outputs":[{"name":"","type":"uint64","internalType":"uint64"}],"stateMutability":"view"},{"type":"function","name":"voteSubject","inputs":[{"name":"roundSubject","type":"bytes32","internalType":"bytes32"},{"name":"proposalSubject","type":"bytes32","internalType":"bytes32"},{"name":"nullifier","type":"bytes32","internalType":"bytes32"}],"outputs":[{"name":"","type":"bytes32","internalType":"bytes32"}],"stateMutability":"pure"},{"type":"event","name":"AttributeAppended","inputs":[{"name":"subject","type":"bytes32","indexed":true,"internalType":"bytes32"},{"name":"predicate","type":"bytes32","indexed":true,"internalType":"bytes32"},{"name":"datatype","type":"uint8","indexed":false,"internalType":"uint8"},{"name":"version","type":"uint64","indexed":false,"internalType":"uint64"}],"anonymous":false},{"type":"event","name":"AttributeSet","inputs":[{"name":"subject","type":"bytes32","indexed":true,"internalType":"bytes32"},{"name":"predicate","type":"bytes32","indexed":true,"internalType":"bytes32"},{"name":"datatype","type":"uint8","indexed":false,"internalType":"uint8"},{"name":"version","type":"uint64","indexed":false,"internalType":"uint64"}],"anonymous":false},{"type":"event","name":"AttributeUnset","inputs":[{"name":"subject","type":"bytes32","indexed":true,"internalType":"bytes32"},{"name":"predicate","type":"bytes32","indexed":true,"internalType":"bytes32"},{"name":"version","type":"uint64","indexed":false,"internalType":"uint64"}],"anonymous":false},{"type":"event","name":"SubjectFirstSeen","inputs":[{"name":"subject","type":"bytes32","indexed":true,"internalType":"bytes32"}],"anonymous":false},{"type":"event","name":"VoteCast","inputs":[{"name":"voteSubject","type":"bytes32","indexed":true,"internalType":"bytes32"},{"name":"roundSubject","type":"bytes32","indexed":true,"internalType":"bytes32"},{"name":"nullifier","type":"bytes32","indexed":true,"internalType":"bytes32"},{"name":"ballot","type":"bytes32","indexed":false,"internalType":"bytes32"},{"name":"weight","type":"uint256","indexed":false,"internalType":"uint256"}],"anonymous":false},{"type":"event","name":"VoteUpdated","inputs":[{"name":"voteSubject","type":"bytes32","indexed":true,"internalType":"bytes32"},{"name":"newBallot","type":"bytes32","indexed":false,"internalType":"bytes32"},{"name":"newWeight","type":"uint256","indexed":false,"internalType":"uint256"}],"anonymous":false},{"type":"error","name":"AttributeNotSet","inputs":[]},{"type":"error","name":"NotRoundOperator","inputs":[]},{"type":"error","name":"PredicateNotActive","inputs":[]},{"type":"error","name":"VoteNotFound","inputs":[]}],"bytecode":{"object":"0x60e0346100be57601f611e0138819003918201601f19168301916001600160401b038311848410176100c2578084926060946040528339810103126100be57610047816100d6565b906100606040610059602084016100d6565b92016100d6565b6001600160a01b0392831660805290821660a0521660c052604051611d1690816100eb8239608051818181610264015281816107ef01526117df015260a0518181816106e5015261122a015260c0518181816103a70152610f3d0152f35b5f80fd5b634e487b7160e01b5f52604160045260245ffd5b51906001600160a01b03821682036100be5756fe6080806040526004361015610012575f80fd5b5f905f3560e01c90816310d7a525146114e957508063213aaad7146114ce5780632cb7ff6b146114a2578063305471811461143e57806331477b9b146113fc57806332c489a6146113d557806337d9d7fc146113a65780634083843e1461133d57806342921cf31461130b578063430694cf146112b25780634742f3771461125957806355c964dd1461121557806360f06fd4146111ee578063639a2e10146111d157806366435abf1461117857806367896c04146111515780636d8bd39c1461112a5780637a6ad926146110fb578063880eadce146110c35780638e101369146110a85780638e21caca1461107557806393cbc37d1461105a57806394ad119a14611001578063989a140314610fda57806398eaf11c14610fa6578063a091652714610f6c578063a24a6f6314610f28578063a7b72de614610e9b578063a954aea114610e80578063ab9ad2c714610e59578063bb6b0c3b14610e25578063be78c06814610e0a578063c317462914610def578063c3a6123d14610d6b578063cb954f3014610c86578063d3a3968614610c4f578063e3e9eae414610351578063e4281bc314610293578063e63cdb421461024e578063e9f5a1db14610226578063ece6bebc1461020a5763f98eed69146101ec575f80fd5b34610207578060031936011261020757602060405160088152f35b80fd5b5034610207578060031936011261020757602060405160028152f35b503461020757806003193601126102075760206040515f516020611cc15f395f51905f528152f35b50346102075780600319360112610207576040517f00000000000000000000000000000000000000000000000000000000000000006001600160a01b03168152602090f35b5034610207576102a236611547565b90825260066020526040822090825260205260408120604051908160208254918281520190819285526020852090855b81811061033257505050826102e8910383611581565b604051928392602084019060208552518091526040840192915b818110610310575050500390f35b82516001600160a01b0316845285945060209384019390920191600101610302565b82546001600160a01b03168452602090930192600192830192016102d2565b503461078557602036600319011261078557600435906001600160401b038211610785578160040160c060031984360301126107855760405163695eea2960e01b815281356004820181905293906020816024817f00000000000000000000000000000000000000000000000000000000000000006001600160a01b03165afa90811561077a575f91610c0d575b506001600160a01b03811615908115610bfa575b50610beb57604481013590602481013561040e8184886116df565b9560405163bb6b0c3b60e01b81528760048201525f516020611c015f395f51905f526024820152602081604481305afa801561077a5760a49589925f92610bca575b506104675f516020611c815f395f51905f526117c2565b825f52600460205260405f205f516020611c815f395f51905f525f526020528360405f20556104a35f516020611c815f395f51905f52846118c0565b6104b95f516020611be15f395f51905f526117c2565b825f52600460205260405f205f516020611be15f395f51905f525f5260205260405f20556104f45f516020611be15f395f51905f52836118c0565b6064850135906105105f516020611c015f395f51905f526117c2565b825f52600460205260405f205f516020611c015f395f51905f525f526020528160405f205561054c5f516020611c015f395f51905f52846118c0565b6105625f516020611c215f395f51905f526117c2565b825f52600460205260405f205f516020611c215f395f51905f525f526020528460405f205561059e5f516020611c215f395f51905f52846118c0565b6084860135906105ba5f516020611c415f395f51905f526117c2565b835f52600360205260405f205f516020611c415f395f51905f525f526020528160405f20556105f65f516020611c415f395f51905f5285611a50565b61060c5f516020611c615f395f51905f526117c2565b835f52600360205260405f205f516020611c615f395f51905f525f526020524260405f20556106485f516020611c615f395f51905f5285611a50565b610b92577fb85a45228ccfc04392ba00b8120eab6586f1a83cc6d132ccd9064d0a208d7a53916040916106875f516020611cc15f395f51905f526117c2565b845f526003602052825f205f516020611cc15f395f51905f525f5260205242835f20556106c15f516020611cc15f395f51905f5286611a50565b82519182526020820152a45b01906106d98282611692565b9050610789575b5090917f00000000000000000000000000000000000000000000000000000000000000006001600160a01b03169150813b15610785575f906064604051809481936309abe27f60e01b83527f63db0bd1d1c565930fba358e4bfa41cf888ba497793f9825f7617ed2cb1555c4600484015260248301523060448301525afa801561077a5761076c575080f35b61077891505f90611581565b005b6040513d5f823e3d90fd5b5f80fd5b9061079391611692565b61079f819492946116c4565b936107ad6040519586611581565b818552368282011161078557815f92602092838801378501015260405163170da40760e21b81525f516020611ca15f395f51905f5260048201526020816024817f00000000000000000000000000000000000000000000000000000000000000006001600160a01b03165afa90811561077a575f91610b63575b5015610b5457805f525f60205260405f205f516020611ca15f395f51905f525f5260205260405f2083516001600160401b038111610b405761086982546115a2565b601f8111610afb575b50602094601f8211600114610a9a579481929394955f92610a8f575b50508160011b915f199060031b1c19161790555b805f52600e60205260ff60405f20541615610a45575b805f52600960205260405f205f516020611ca15f395f51905f525f5260205260ff60405f205416156109f0575b805f52600a60205260405f205f516020611ca15f395f51905f525f5260205260405f20600160ff19825416179055805f52600c60205260016001600160401b0360405f205416016001600160401b0381116109dc57817f5167ea251eeaf052f4c7bd769efb5b17e6ba98908050b9929a0bd192b57274fb60405f516020611ca15f395f51905f5293835f52600c602052815f206001600160401b0382166001600160401b0319825416179055835f52600b602052815f20855f52602052815f206001600160401b0382166001600160401b03198254161790556001600160401b0382519160018352166020820152a3905f806106e0565b634e487b7160e01b5f52601160045260245ffd5b805f526008602052610a125f516020611ca15f395f51905f5260405f20611899565b805f52600960205260405f205f516020611ca15f395f51905f525f5260205260405f20600160ff198254161790556108e5565b805f52600e60205260405f20600160ff19825416179055610a658161183e565b807f34f1cb4778d9578e1af878b07d3ae7e9f2f32fafcaa3096fe48153670a71bfaf5f80a26108b8565b015190505f8061088e565b601f19821695835f52805f20915f5b888110610ae357508360019596979810610acb575b505050811b0190556108a2565b01515f1960f88460031b161c191690555f8080610abe565b91926020600181928685015181550194019201610aa9565b825f5260205f20601f830160051c81019160208410610b36575b601f0160051c01905b818110610b2b5750610872565b5f8155600101610b1e565b9091508190610b15565b634e487b7160e01b5f52604160045260245ffd5b632263bf1f60e21b5f5260045ffd5b610b85915060203d602011610b8b575b610b7d8183611581565b81019061167a565b5f610827565b503d610b73565b6040809395507f987d7641b50b1abbb998c1306ad53cc7aec0453ab0ca46cfe2aaf6f3d1e809d99450519182526020820152a26106cd565b610be491925060203d602011610b8b57610b7d8183611581565b905f610450565b633f69f7f760e01b5f5260045ffd5b610c069150339061171b565b155f6103f3565b90506020813d602011610c47575b81610c2860209383611581565b8101031261078557516001600160a01b0381168103610785575f6103df565b3d9150610c1b565b3461078557610c5d36611547565b905f52600160205260405f20905f52602052602060018060a01b0360405f205416604051908152f35b3461078557610c9436611547565b905f52600560205260405f20905f5260205260405f208054906001600160401b038211610b405760405191610ccf60208260051b0184611581565b8083526020830180925f5260205f205f915b838310610d4e57848660405191829160208301906020845251809152604083019060408160051b85010192915f905b828210610d1f57505050500390f35b91936001919395506020610d3e8192603f198a8203018652885161155d565b9601920192018594939192610d10565b600160208192610d5d856115da565b815201920192019190610ce1565b34610785575f36600319011261078557604051806020600d54918281520190600d5f527fd7b6990105719101dabeb77144f2a3385c8033acd3af97e9423a695e81ad1eb5905f5b818110610dd957610dd585610dc981870382611581565b6040519182918261150e565b0390f35b8254845260209093019260019283019201610db2565b34610785575f36600319011261078557602060405160058152f35b34610785575f36600319011261078557602060405160048152f35b3461078557610e3336611547565b905f52600960205260405f20905f52602052602060ff60405f2054166040519015158152f35b34610785575f3660031901126107855760206040515f516020611c815f395f51905f528152f35b34610785575f36600319011261078557602060405160018152f35b3461078557602036600319011261078557604051633d356c9360e11b815260048035908201525f516020611cc15f395f51905f526024820152602081604481305afa801561077a575f90610ef5575b602090604051908152f35b506020813d602011610f20575b81610f0f60209383611581565b810103126107855760209051610eea565b3d9150610f02565b34610785575f366003190112610785576040517f00000000000000000000000000000000000000000000000000000000000000006001600160a01b03168152602090f35b34610785575f3660031901126107855760206040517f63db0bd1d1c565930fba358e4bfa41cf888ba497793f9825f7617ed2cb1555c48152f35b3461078557610fb436611547565b905f52600260205260405f20905f52602052602060ff60405f2054166040519015158152f35b34610785575f3660031901126107855760206040515f516020611c415f395f51905f528152f35b3461078557602036600319011261078557604051630df675ff60e21b815260048035908201525f516020611c015f395f51905f526024820152602081604481305afa801561077a575f90610ef557602090604051908152f35b34610785575f36600319011261078557602060405160038152f35b34610785576020366003190112610785576004355f52600c60205260206001600160401b0360405f205416604051908152f35b34610785575f36600319011261078557602060405160068152f35b34610785576110d136611547565b905f52600b60205260405f20905f5260205260206001600160401b0360405f205416604051908152f35b346107855761110936611547565b905f52600360205260405f20905f52602052602060405f2054604051908152f35b34610785575f3660031901126107855760206040515f516020611c615f395f51905f528152f35b34610785575f3660031901126107855760206040515f516020611c215f395f51905f528152f35b3461078557602036600319011261078557604051633d356c9360e11b815260048035908201525f516020611c415f395f51905f526024820152602081604481305afa801561077a575f90610ef557602090604051908152f35b34610785575f366003190112610785576020600d54604051908152f35b34610785575f3660031901126107855760206040515f516020611c015f395f51905f528152f35b34610785575f366003190112610785576040517f00000000000000000000000000000000000000000000000000000000000000006001600160a01b03168152602090f35b3461078557602036600319011261078557604051630df675ff60e21b815260048035908201525f516020611c215f395f51905f526024820152602081604481305afa801561077a575f90610ef557602090604051908152f35b3461078557602036600319011261078557604051630df675ff60e21b815260048035908201525f516020611be15f395f51905f526024820152602081604481305afa801561077a575f90610ef557602090604051908152f35b346107855761131936611547565b905f52600a60205260405f20905f52602052602060ff60405f205416604051908152f35b346107855761134b36611547565b905f52600760205260405f20905f5260205260405f206040519081602082549182815201915f5260205f20905f5b81811061139057610dd585610dc981870382611581565b8254845260209093019260019283019201611379565b34610785576113b436611547565b905f52600460205260405f20905f52602052602060405f2054604051908152f35b34610785575f3660031901126107855760206040515f516020611be15f395f51905f528152f35b346107855761140a36611547565b905f525f60205260405f20905f52602052610dd561142a60405f206115da565b60405191829160208352602083019061155d565b34610785576020366003190112610785576004355f52600860205260405f206040519081602082549182815201915f5260205f20905f5b81811061148c57610dd585610dc981870382611581565b8254845260209093019260019283019201611475565b346107855760603660031901126107855760206114c66044356024356004356116df565b604051908152f35b34610785575f36600319011261078557602060405160078152f35b34610785575f36600319011261078557805f516020611ca15f395f51905f5260209252f35b60206040818301928281528451809452019201905f5b8181106115315750505090565b8251845260209384019390920191600101611524565b6040906003190112610785576004359060243590565b805180835260209291819084018484015e5f828201840152601f01601f1916010190565b90601f801991011681019081106001600160401b03821117610b4057604052565b90600182811c921680156115d0575b60208310146115bc57565b634e487b7160e01b5f52602260045260245ffd5b91607f16916115b1565b9060405191825f8254926115ed846115a2565b80845293600181169081156116585750600114611614575b5061161292500383611581565b565b90505f9291925260205f20905f915b81831061163c575050906020611612928201015f611605565b6020919350806001915483858901015201910190918492611623565b90506020925061161294915060ff191682840152151560051b8201015f611605565b90816020910312610785575180151581036107855790565b903590601e198136030182121561078557018035906001600160401b0382116107855760200191813603831361078557565b6001600160401b038111610b4057601f01601f191660200190565b916040519160208301936739b09d3b37ba329d60c11b855260288401526048830152606882015260688152611715608882611581565b51902090565b90813b156117bc575f91829160405160208101916317aa5fb760e11b835260018060a01b0316602482015260248152611755604482611581565b51915afa3d156117b5573d611769816116c4565b906117776040519283611581565b81523d5f602083013e5b816117a7575b81611790575090565b6117a491506020808251830101910161167a565b90565b905060208151101590611787565b6060611781565b50505f90565b60405163170da40760e21b815260048101919091526020816024817f00000000000000000000000000000000000000000000000000000000000000006001600160a01b03165afa90811561077a575f9161181f575b5015610b5457565b611838915060203d602011610b8b57610b7d8183611581565b5f611817565b600d54600160401b811015610b40576001810180600d5581101561188557600d5f527fd7b6990105719101dabeb77144f2a3385c8033acd3af97e9423a695e81ad1eb50155565b634e487b7160e01b5f52603260045260245ffd5b805490600160401b821015610b405760018201808255821015611885575f5260205f200155565b805f52600e60205260ff60405f20541615611a06575b805f52600960205260405f20825f5260205260ff60405f205416156119cb575b805f52600a60205260405f20825f5260205260405f20600560ff19825416179055805f52600c60205260016001600160401b0360405f205416016001600160401b0381116109dc5760407f5167ea251eeaf052f4c7bd769efb5b17e6ba98908050b9929a0bd192b57274fb91835f52600c602052815f206001600160401b0382166001600160401b0319825416179055835f52600b602052815f20855f52602052815f206001600160401b0382166001600160401b03198254161790556001600160401b0382519160058352166020820152a3565b805f5260086020526119e08260405f20611899565b805f52600960205260405f20825f5260205260405f20600160ff198254161790556118f6565b805f52600e60205260405f20600160ff19825416179055611a268161183e565b807f34f1cb4778d9578e1af878b07d3ae7e9f2f32fafcaa3096fe48153670a71bfaf5f80a26118d6565b805f52600e60205260ff60405f20541615611b96575b805f52600960205260405f20825f5260205260ff60405f20541615611b5b575b805f52600a60205260405f20825f5260205260405f20600460ff19825416179055805f52600c60205260016001600160401b0360405f205416016001600160401b0381116109dc5760407f5167ea251eeaf052f4c7bd769efb5b17e6ba98908050b9929a0bd192b57274fb91835f52600c602052815f206001600160401b0382166001600160401b0319825416179055835f52600b602052815f20855f52602052815f206001600160401b0382166001600160401b03198254161790556001600160401b0382519160048352166020820152a3565b805f526008602052611b708260405f20611899565b805f52600960205260405f20825f5260205260405f20600160ff19825416179055611a86565b805f52600e60205260405f20600160ff19825416179055611bb68161183e565b807f34f1cb4778d9578e1af878b07d3ae7e9f2f32fafcaa3096fe48153670a71bfaf5f80a2611a6656fe35a57b43cc89aa2ea6c687e6e169ed47ca6bc3c9ce8d608dd055fe34ef31c7a992f8f21ec73938b758b219c295edae59a1c97fb8f8c2dd73828cbc29caa3b98c9398416a2084d74d78adf36ccba41b63b3cc60f1eed47f004b7a6b181d57416b6cafc83ebc7d28279476c45fea6d506089f142058924b225bb2e6f62d31393b99c513aa912c622f500d6478cfbacbacc75b23b73e3a0f188dcd339c4f6d9b5efd0daadc8f1231ccdcd8ceb366e6000b734602902fe61a6abdf5477f1e64a0af87449a70ec208c151ec078eaba82188a346e26b714184375defc4cb07f5f8613c3fc3d9c07cf6fdf52a9651863937c08265f9af51f8f42e1103961e973cf94cf1a2646970667358221220a45b107d1133460848798b616f57535f332cb324acb37bad7695515429c1286a64736f6c634300081c0033","linkReferences":{}},"methodIdentifiers":{"CLASS_VOTE()":"a0916527","DT_ADDRESS_ARR_PUB()":"213aaad7","DT_ADDRESS_PUB()":"ece6bebc","DT_BOOL_PUB()":"93cbc37d","DT_BYTES32_ARR_PUB()":"f98eed69","DT_BYTES32_PUB()":"c3174629","DT_STRING_ARR_PUB()":"8e101369","DT_STRING_PUB()":"a954aea1","DT_UINT256_PUB()":"be78c068","FUND_REGISTRY()":"a24a6f63","ONTOLOGY()":"e63cdb42","SA_VOTE_BALLOT()":"60f06fd4","SA_VOTE_CAST_AT()":"e9f5a1db","SA_VOTE_NULLIFIER()":"67896c04","SA_VOTE_PROPOSAL()":"32c489a6","SA_VOTE_RATIONALE()":"10d7a525","SA_VOTE_ROUND()":"ab9ad2c7","SA_VOTE_UPDATED_AT()":"6d8bd39c","SA_VOTE_WEIGHT()":"989a1403","SHAPES()":"55c964dd","allSubjects()":"c3a6123d","castVote((bytes32,bytes32,bytes32,bytes32,uint256,string))":"e3e9eae4","datatypeOf(bytes32,bytes32)":"42921cf3","getAddress(bytes32,bytes32)":"d3a39686","getAddressArr(bytes32,bytes32)":"e4281bc3","getBallot(bytes32)":"94ad119a","getBool(bytes32,bytes32)":"98eaf11c","getBytes32(bytes32,bytes32)":"37d9d7fc","getBytes32Arr(bytes32,bytes32)":"4083843e","getCastAt(bytes32)":"a7b72de6","getNullifier(bytes32)":"4742f377","getProposal(bytes32)":"430694cf","getString(bytes32,bytes32)":"31477b9b","getStringArr(bytes32,bytes32)":"cb954f30","getUint(bytes32,bytes32)":"7a6ad926","getWeight(bytes32)":"66435abf","isSet(bytes32,bytes32)":"bb6b0c3b","predicatesOf(bytes32)":"30547181","subjectCount()":"639a2e10","subjectVersion(bytes32)":"8e21caca","updatedAt(bytes32,bytes32)":"880eadce","voteSubject(bytes32,bytes32,bytes32)":"2cb7ff6b"},"id":109}