{"abi":[{"type":"function","name":"afterHook","inputs":[{"name":"","type":"bytes","internalType":"bytes"},{"name":"","type":"bytes","internalType":"bytes"},{"name":"","type":"bytes32","internalType":"bytes32"},{"name":"","type":"address","internalType":"address"},{"name":"","type":"address","internalType":"address"},{"name":"","type":"address","internalType":"address"},{"name":"","type":"uint256","internalType":"uint256"},{"name":"","type":"bytes","internalType":"bytes"}],"outputs":[],"stateMutability":"pure"},{"type":"function","name":"beforeHook","inputs":[{"name":"terms","type":"bytes","internalType":"bytes"},{"name":"","type":"bytes","internalType":"bytes"},{"name":"","type":"bytes32","internalType":"bytes32"},{"name":"","type":"address","internalType":"address"},{"name":"","type":"address","internalType":"address"},{"name":"","type":"address","internalType":"address"},{"name":"","type":"uint256","internalType":"uint256"},{"name":"","type":"bytes","internalType":"bytes"}],"outputs":[],"stateMutability":"pure"},{"type":"function","name":"getTaskId","inputs":[{"name":"terms","type":"bytes","internalType":"bytes"}],"outputs":[{"name":"","type":"bytes32","internalType":"bytes32"}],"stateMutability":"pure"},{"type":"error","name":"BadTermsLength","inputs":[]}],"bytecode":{"object":"0x608080604052346015576101f1908161001a8239f35b5f80fdfe6080806040526004361015610012575f80fd5b5f3560e01c908163270f55e61461008257508063a1422eb6146100515763d3128e3d1461003d575f80fd5b3461004d5761004b36610100565b005b5f80fd5b3461004d57602061006136610100565b50505050505050505090500361007357005b630b09ef7d60e21b5f5260045ffd5b3461004d57602036600319011261004d5760043567ffffffffffffffff811161004d576100b39036906004016100d2565b6020819392930361007357826020918101031261004d57602091358152f35b9181601f8401121561004d5782359167ffffffffffffffff831161004d576020838186019501011161004d57565b9061010060031983011261004d5760043567ffffffffffffffff811161004d578261012d916004016100d2565b9290929160243567ffffffffffffffff811161004d5782610150916004016100d2565b90929091604435916064356001600160a01b038116810361004d57916084356001600160a01b038116810361004d579160a4356001600160a01b038116810361004d579160c4359160e4359067ffffffffffffffff821161004d576101b7916004016100d2565b909156fea2646970667358221220dfbc448e58b280e2847e9525db237121a92ec083b75e6f2f174b0d8748ff566e64736f6c634300081c0033","linkReferences":{}},"methodIdentifiers":{"afterHook(bytes,bytes,bytes32,address,address,address,uint256,bytes)":"d3128e3d","beforeHook(bytes,bytes,bytes32,address,address,address,uint256,bytes)":"a1422eb6","getTaskId(bytes)":"270f55e6"},"id":142}