{"abi":[{"type":"constructor","inputs":[{"name":"ontologyRegistry","type":"address","internalType":"address"},{"name":"shapes","type":"address","internalType":"address"}],"stateMutability":"nonpayable"},{"type":"function","name":"CLASS_POOL","inputs":[],"outputs":[{"name":"","type":"bytes32","internalType":"bytes32"}],"stateMutability":"view"},{"type":"function","name":"DT_ADDRESS_ARR_PUB","inputs":[],"outputs":[{"name":"","type":"uint8","internalType":"uint8"}],"stateMutability":"pure"},{"type":"function","name":"DT_ADDRESS_PUB","inputs":[],"outputs":[{"name":"","type":"uint8","internalType":"uint8"}],"stateMutability":"pure"},{"type":"function","name":"DT_BOOL_PUB","inputs":[],"outputs":[{"name":"","type":"uint8","internalType":"uint8"}],"stateMutability":"pure"},{"type":"function","name":"DT_BYTES32_ARR_PUB","inputs":[],"outputs":[{"name":"","type":"uint8","internalType":"uint8"}],"stateMutability":"pure"},{"type":"function","name":"DT_BYTES32_PUB","inputs":[],"outputs":[{"name":"","type":"uint8","internalType":"uint8"}],"stateMutability":"pure"},{"type":"function","name":"DT_STRING_ARR_PUB","inputs":[],"outputs":[{"name":"","type":"uint8","internalType":"uint8"}],"stateMutability":"pure"},{"type":"function","name":"DT_STRING_PUB","inputs":[],"outputs":[{"name":"","type":"uint8","internalType":"uint8"}],"stateMutability":"pure"},{"type":"function","name":"DT_UINT256_PUB","inputs":[],"outputs":[{"name":"","type":"uint8","internalType":"uint8"}],"stateMutability":"pure"},{"type":"function","name":"ONTOLOGY","inputs":[],"outputs":[{"name":"","type":"address","internalType":"contract OntologyTermRegistry"}],"stateMutability":"view"},{"type":"function","name":"SA_POOL_ACCEPTED_KINDS","inputs":[],"outputs":[{"name":"","type":"bytes32","internalType":"bytes32"}],"stateMutability":"view"},{"type":"function","name":"SA_POOL_ACCEPTED_RESTRICTIONS","inputs":[],"outputs":[{"name":"","type":"bytes32","internalType":"bytes32"}],"stateMutability":"view"},{"type":"function","name":"SA_POOL_ACCEPTED_UNITS","inputs":[],"outputs":[{"name":"","type":"bytes32","internalType":"bytes32"}],"stateMutability":"view"},{"type":"function","name":"SA_POOL_CAPACITY_CEILING","inputs":[],"outputs":[{"name":"","type":"bytes32","internalType":"bytes32"}],"stateMutability":"view"},{"type":"function","name":"SA_POOL_CEILING_POLICY","inputs":[],"outputs":[{"name":"","type":"bytes32","internalType":"bytes32"}],"stateMutability":"view"},{"type":"function","name":"SA_POOL_CLOSED_AT","inputs":[],"outputs":[{"name":"","type":"bytes32","internalType":"bytes32"}],"stateMutability":"view"},{"type":"function","name":"SA_POOL_DOMAIN","inputs":[],"outputs":[{"name":"","type":"bytes32","internalType":"bytes32"}],"stateMutability":"view"},{"type":"function","name":"SA_POOL_GOVERNANCE_MODEL","inputs":[],"outputs":[{"name":"","type":"bytes32","internalType":"bytes32"}],"stateMutability":"view"},{"type":"function","name":"SA_POOL_MANDATE_HASH","inputs":[],"outputs":[{"name":"","type":"bytes32","internalType":"bytes32"}],"stateMutability":"view"},{"type":"function","name":"SA_POOL_MANDATE_URI","inputs":[],"outputs":[{"name":"","type":"bytes32","internalType":"bytes32"}],"stateMutability":"view"},{"type":"function","name":"SA_POOL_OPENED_AT","inputs":[],"outputs":[{"name":"","type":"bytes32","internalType":"bytes32"}],"stateMutability":"view"},{"type":"function","name":"SA_POOL_SLUG","inputs":[],"outputs":[{"name":"","type":"bytes32","internalType":"bytes32"}],"stateMutability":"view"},{"type":"function","name":"SA_POOL_STEWARDS","inputs":[],"outputs":[{"name":"","type":"bytes32","internalType":"bytes32"}],"stateMutability":"view"},{"type":"function","name":"SA_POOL_VISIBILITY","inputs":[],"outputs":[{"name":"","type":"bytes32","internalType":"bytes32"}],"stateMutability":"view"},{"type":"function","name":"SHAPES","inputs":[],"outputs":[{"name":"","type":"address","internalType":"contract ShapeRegistry"}],"stateMutability":"view"},{"type":"function","name":"allSubjects","inputs":[],"outputs":[{"name":"","type":"bytes32[]","internalType":"bytes32[]"}],"stateMutability":"view"},{"type":"function","name":"close","inputs":[{"name":"poolAgent","type":"address","internalType":"address"}],"outputs":[],"stateMutability":"nonpayable"},{"type":"function","name":"datatypeOf","inputs":[{"name":"subject","type":"bytes32","internalType":"bytes32"},{"name":"predicate","type":"bytes32","internalType":"bytes32"}],"outputs":[{"name":"","type":"uint8","internalType":"uint8"}],"stateMutability":"view"},{"type":"function","name":"getAcceptedKinds","inputs":[{"name":"poolAgent","type":"address","internalType":"address"}],"outputs":[{"name":"","type":"bytes32[]","internalType":"bytes32[]"}],"stateMutability":"view"},{"type":"function","name":"getAcceptedRestrictions","inputs":[{"name":"poolAgent","type":"address","internalType":"address"}],"outputs":[{"name":"","type":"string","internalType":"string"}],"stateMutability":"view"},{"type":"function","name":"getAcceptedUnits","inputs":[{"name":"poolAgent","type":"address","internalType":"address"}],"outputs":[{"name":"","type":"bytes32[]","internalType":"bytes32[]"}],"stateMutability":"view"},{"type":"function","name":"getAddress","inputs":[{"name":"subject","type":"bytes32","internalType":"bytes32"},{"name":"predicate","type":"bytes32","internalType":"bytes32"}],"outputs":[{"name":"","type":"address","internalType":"address"}],"stateMutability":"view"},{"type":"function","name":"getAddressArr","inputs":[{"name":"subject","type":"bytes32","internalType":"bytes32"},{"name":"predicate","type":"bytes32","internalType":"bytes32"}],"outputs":[{"name":"","type":"address[]","internalType":"address[]"}],"stateMutability":"view"},{"type":"function","name":"getBool","inputs":[{"name":"subject","type":"bytes32","internalType":"bytes32"},{"name":"predicate","type":"bytes32","internalType":"bytes32"}],"outputs":[{"name":"","type":"bool","internalType":"bool"}],"stateMutability":"view"},{"type":"function","name":"getBytes32","inputs":[{"name":"subject","type":"bytes32","internalType":"bytes32"},{"name":"predicate","type":"bytes32","internalType":"bytes32"}],"outputs":[{"name":"","type":"bytes32","internalType":"bytes32"}],"stateMutability":"view"},{"type":"function","name":"getBytes32Arr","inputs":[{"name":"subject","type":"bytes32","internalType":"bytes32"},{"name":"predicate","type":"bytes32","internalType":"bytes32"}],"outputs":[{"name":"","type":"bytes32[]","internalType":"bytes32[]"}],"stateMutability":"view"},{"type":"function","name":"getCapacityCeiling","inputs":[{"name":"poolAgent","type":"address","internalType":"address"}],"outputs":[{"name":"","type":"uint256","internalType":"uint256"}],"stateMutability":"view"},{"type":"function","name":"getCeilingPolicy","inputs":[{"name":"poolAgent","type":"address","internalType":"address"}],"outputs":[{"name":"","type":"bytes32","internalType":"bytes32"}],"stateMutability":"view"},{"type":"function","name":"getClosedAt","inputs":[{"name":"poolAgent","type":"address","internalType":"address"}],"outputs":[{"name":"","type":"uint256","internalType":"uint256"}],"stateMutability":"view"},{"type":"function","name":"getDomain","inputs":[{"name":"poolAgent","type":"address","internalType":"address"}],"outputs":[{"name":"","type":"bytes32","internalType":"bytes32"}],"stateMutability":"view"},{"type":"function","name":"getGovernanceModel","inputs":[{"name":"poolAgent","type":"address","internalType":"address"}],"outputs":[{"name":"","type":"bytes32","internalType":"bytes32"}],"stateMutability":"view"},{"type":"function","name":"getMandate","inputs":[{"name":"poolAgent","type":"address","internalType":"address"}],"outputs":[{"name":"mandateHash","type":"bytes32","internalType":"bytes32"},{"name":"mandateURI","type":"string","internalType":"string"}],"stateMutability":"view"},{"type":"function","name":"getOpenedAt","inputs":[{"name":"poolAgent","type":"address","internalType":"address"}],"outputs":[{"name":"","type":"uint256","internalType":"uint256"}],"stateMutability":"view"},{"type":"function","name":"getPoolSlug","inputs":[{"name":"poolAgent","type":"address","internalType":"address"}],"outputs":[{"name":"","type":"string","internalType":"string"}],"stateMutability":"view"},{"type":"function","name":"getStewards","inputs":[{"name":"poolAgent","type":"address","internalType":"address"}],"outputs":[{"name":"","type":"address[]","internalType":"address[]"}],"stateMutability":"view"},{"type":"function","name":"getString","inputs":[{"name":"subject","type":"bytes32","internalType":"bytes32"},{"name":"predicate","type":"bytes32","internalType":"bytes32"}],"outputs":[{"name":"","type":"string","internalType":"string"}],"stateMutability":"view"},{"type":"function","name":"getStringArr","inputs":[{"name":"subject","type":"bytes32","internalType":"bytes32"},{"name":"predicate","type":"bytes32","internalType":"bytes32"}],"outputs":[{"name":"","type":"string[]","internalType":"string[]"}],"stateMutability":"view"},{"type":"function","name":"getUint","inputs":[{"name":"subject","type":"bytes32","internalType":"bytes32"},{"name":"predicate","type":"bytes32","internalType":"bytes32"}],"outputs":[{"name":"","type":"uint256","internalType":"uint256"}],"stateMutability":"view"},{"type":"function","name":"getVisibility","inputs":[{"name":"poolAgent","type":"address","internalType":"address"}],"outputs":[{"name":"","type":"bytes32","internalType":"bytes32"}],"stateMutability":"view"},{"type":"function","name":"isOpen","inputs":[{"name":"poolAgent","type":"address","internalType":"address"}],"outputs":[{"name":"","type":"bool","internalType":"bool"}],"stateMutability":"view"},{"type":"function","name":"isSet","inputs":[{"name":"subject","type":"bytes32","internalType":"bytes32"},{"name":"predicate","type":"bytes32","internalType":"bytes32"}],"outputs":[{"name":"","type":"bool","internalType":"bool"}],"stateMutability":"view"},{"type":"function","name":"open","inputs":[{"name":"p","type":"tuple","internalType":"struct PoolRegistry.OpenParams","components":[{"name":"poolAgent","type":"address","internalType":"address"},{"name":"domain","type":"bytes32","internalType":"bytes32"},{"name":"governanceModel","type":"bytes32","internalType":"bytes32"},{"name":"mandateHash","type":"bytes32","internalType":"bytes32"},{"name":"mandateURI","type":"string","internalType":"string"},{"name":"acceptedUnits","type":"bytes32[]","internalType":"bytes32[]"},{"name":"acceptedKinds","type":"bytes32[]","internalType":"bytes32[]"},{"name":"ceilingPolicy","type":"bytes32","internalType":"bytes32"},{"name":"capacityCeiling","type":"uint256","internalType":"uint256"},{"name":"stewards","type":"address[]","internalType":"address[]"},{"name":"visibility","type":"bytes32","internalType":"bytes32"},{"name":"acceptedRestrictions","type":"string","internalType":"string"},{"name":"slug","type":"string","internalType":"string"}]}],"outputs":[],"stateMutability":"nonpayable"},{"type":"function","name":"predicatesOf","inputs":[{"name":"subject","type":"bytes32","internalType":"bytes32"}],"outputs":[{"name":"","type":"bytes32[]","internalType":"bytes32[]"}],"stateMutability":"view"},{"type":"function","name":"rotateStewards","inputs":[{"name":"poolAgent","type":"address","internalType":"address"},{"name":"newStewards","type":"address[]","internalType":"address[]"}],"outputs":[],"stateMutability":"nonpayable"},{"type":"function","name":"setAcceptedRestrictions","inputs":[{"name":"poolAgent","type":"address","internalType":"address"},{"name":"restrictionsJson","type":"string","internalType":"string"}],"outputs":[],"stateMutability":"nonpayable"},{"type":"function","name":"subjectCount","inputs":[],"outputs":[{"name":"","type":"uint256","internalType":"uint256"}],"stateMutability":"view"},{"type":"function","name":"subjectVersion","inputs":[{"name":"subject","type":"bytes32","internalType":"bytes32"}],"outputs":[{"name":"","type":"uint64","internalType":"uint64"}],"stateMutability":"view"},{"type":"function","name":"updateMandate","inputs":[{"name":"poolAgent","type":"address","internalType":"address"},{"name":"newMandateHash","type":"bytes32","internalType":"bytes32"},{"name":"newMandateURI","type":"string","internalType":"string"}],"outputs":[],"stateMutability":"nonpayable"},{"type":"function","name":"updatedAt","inputs":[{"name":"subject","type":"bytes32","internalType":"bytes32"},{"name":"predicate","type":"bytes32","internalType":"bytes32"}],"outputs":[{"name":"","type":"uint64","internalType":"uint64"}],"stateMutability":"view"},{"type":"event","name":"AttributeAppended","inputs":[{"name":"subject","type":"bytes32","indexed":true,"internalType":"bytes32"},{"name":"predicate","type":"bytes32","indexed":true,"internalType":"bytes32"},{"name":"datatype","type":"uint8","indexed":false,"internalType":"uint8"},{"name":"version","type":"uint64","indexed":false,"internalType":"uint64"}],"anonymous":false},{"type":"event","name":"AttributeSet","inputs":[{"name":"subject","type":"bytes32","indexed":true,"internalType":"bytes32"},{"name":"predicate","type":"bytes32","indexed":true,"internalType":"bytes32"},{"name":"datatype","type":"uint8","indexed":false,"internalType":"uint8"},{"name":"version","type":"uint64","indexed":false,"internalType":"uint64"}],"anonymous":false},{"type":"event","name":"AttributeUnset","inputs":[{"name":"subject","type":"bytes32","indexed":true,"internalType":"bytes32"},{"name":"predicate","type":"bytes32","indexed":true,"internalType":"bytes32"},{"name":"version","type":"uint64","indexed":false,"internalType":"uint64"}],"anonymous":false},{"type":"event","name":"PoolClosed","inputs":[{"name":"poolAgent","type":"address","indexed":true,"internalType":"address"},{"name":"subject","type":"bytes32","indexed":false,"internalType":"bytes32"}],"anonymous":false},{"type":"event","name":"PoolMandateUpdated","inputs":[{"name":"poolAgent","type":"address","indexed":true,"internalType":"address"},{"name":"newMandateHash","type":"bytes32","indexed":false,"internalType":"bytes32"}],"anonymous":false},{"type":"event","name":"PoolOpened","inputs":[{"name":"poolAgent","type":"address","indexed":true,"internalType":"address"},{"name":"subject","type":"bytes32","indexed":false,"internalType":"bytes32"}],"anonymous":false},{"type":"event","name":"PoolStewardsRotated","inputs":[{"name":"poolAgent","type":"address","indexed":true,"internalType":"address"},{"name":"stewardCount","type":"uint256","indexed":false,"internalType":"uint256"}],"anonymous":false},{"type":"event","name":"SubjectFirstSeen","inputs":[{"name":"subject","type":"bytes32","indexed":true,"internalType":"bytes32"}],"anonymous":false},{"type":"error","name":"AttributeNotSet","inputs":[]},{"type":"error","name":"NotPoolOwner","inputs":[]},{"type":"error","name":"PredicateNotActive","inputs":[]}],"bytecode":{"object":"0x60c03461009357601f6133a038819003918201601f19168301916001600160401b0383118484101761009757808492604094855283398101031261009357610052602061004b836100ab565b92016100ab565b6001600160a01b039182166080521660a0526040516132e090816100c082396080518181816103a50152612ab4015260a051818181610f3b0152611bc00152f35b5f80fd5b634e487b7160e01b5f52604160045260245ffd5b51906001600160a01b03821682036100935756fe6080806040526004361015610012575f80fd5b5f905f3560e01c9081621fc12f14611fdf5750806302163fe914611819578063066a8647146117f15780630909d83a146116d95780630ada26701461166057806311e45d16146115f557806316daf14b146115cd57806317bcfb6e146115a55780631bf7a7041461153a578063213aaad71461151e57806329928c23146114e3578063305471811461147f57806330bee5d01461135e57806331477b9b1461131c578063354de8f1146112ab57806337d9d7fc1461127e5780634083843e1461121557806342921cf3146111e55780634412dd6214611150578063494b8b89146110e55780634b3a14a5146110aa5780634f353706146110825780635575e68314610f6a57806355c964dd14610f255780635e71720314610efd578063639a2e1014610edf5780636728e8f514610eb75780636cabe64d14610de15780637745100a14610db95780637a6ad92614610d8c578063880eadce14610d565780638e10136914610d3a5780638e21caca14610d0757806393cbc37d14610ceb57806398eaf11c14610cb957806399407cae14610c915780639b4feb8b14610c265780639ba39c5314610b7e578063a0e93f3d14610b56578063a954aea114610b3a578063b51e77d514610a0a578063b7d766e9146109e2578063bb6b0c3b146109b0578063be78c06814610994578063c317462914610978578063c3a6123d146108f7578063c66fa6d7146108cf578063c74073a1146107a3578063cb954f30146106ca578063d17661351461065f578063d3a3968614610628578063deb2f897146104e9578063e0c0e612146104c1578063e1d285fb14610456578063e4281bc3146103d4578063e63cdb421461038f578063ece6bebc14610373578063efbee9c2146102c45763f98eed69146102a6575f80fd5b346102c157806003193601126102c157602060405160088152f35b80fd5b50346102c15760203660031901126102c1576102de612004565b604051630df675ff60e21b81526001600160a01b0390911660048201525f51602061310b5f395f51905f52602482015290602082604481305afa9081156103675790610330575b602090604051908152f35b506020813d60201161035f575b8161034a60209383612110565b8101031261035b5760209051610325565b5f80fd5b3d915061033d565b604051903d90823e3d90fd5b50346102c157806003193601126102c157602060405160028152f35b50346102c157806003193601126102c1576040517f00000000000000000000000000000000000000000000000000000000000000006001600160a01b03168152602090f35b50346102c1576103e3366120b9565b90825260066020526040822090825260205260408120604051918260208354918281520192825260208220915b818110610437576104338561042781870382612110565b6040519182918261201a565b0390f35b82546001600160a01b0316845260209093019260019283019201610410565b50346102c15760203660031901126102c157610470612004565b604051633d356c9360e11b81526001600160a01b0390911660048201525f5160206131eb5f395f51905f52602482015290602082604481305afa908115610367579061033057602090604051908152f35b50346102c157806003193601126102c15760206040515f51602061312b5f395f51905f528152f35b50346102c15760403660031901126102c157610503612004565b602435906001600160401b0382116106245736602383011215610624578160040135906001600160401b038211610620573660248360051b8501011161062057803b156105e957838060405160208101906317aa5fb760e11b825233602482015260248152610573604482612110565b5190845afa61058061214c565b9015908115610613575b81156105f8575b506105e9576001600160a01b0316917ff94b6c9e0ffb68d28792085b4bd65653658a9d7d6c283c2fe29e1ce4cecd3690916020916105df906105d99036908490602401612293565b85612822565b604051908152a280f35b6367d056a760e11b8452600484fd5b61060c91506020808251830101910161217b565b155f610591565b905060208151109061058a565b8380fd5b8280fd5b50346102c15760209061063a366120b9565b90825260018352604082209082528252604060018060a01b0391205416604051908152f35b50346102c15760203660031901126102c157610679612004565b604051630df675ff60e21b81526001600160a01b0390911660048201525f5160206131ab5f395f51905f52602482015290602082604481305afa908115610367579061033057602090604051908152f35b50346102c1576106d9366120b9565b9082526005602052604082209082526020526040812080546106fa81612230565b906107086040519283612110565b80825260208201809385526020852085915b83831061078657868587604051928392602084019060208552518091526040840160408260051b8601019392905b82821061075757505050500390f35b919360019193955060206107768192603f198a8203018652885161205c565b9601920192018594939192610748565b60016020819261079585612388565b81520192019201919061071a565b50346102c15760203660031901126102c1576107bd612004565b803b1561089857818060405160208101906317aa5fb760e11b8252336024820152602481526107ed604482612110565b5190845afa6107fa61214c565b90159081156108c2575b81156108a7575b50610898576001600160a01b031661082f5f5160206130eb5f395f51905f52612a97565b8082526003602052604082205f5160206130eb5f395f51905f52835260205242604083205561086b5f5160206130eb5f395f51905f5282612f60565b7f711dc13dc0d55b44aec704a91c510c322588933910cb86d308a195456caa90c56020604051838152a280f35b6367d056a760e11b8252600482fd5b6108bb91506020808251830101910161217b565b155f61080b565b9050602081511090610804565b50346102c157806003193601126102c15760206040515f51602061320b5f395f51905f528152f35b50346102c157806003193601126102c15760405180916020600d54928381520191600d82527fd7b6990105719101dabeb77144f2a3385c8033acd3af97e9423a695e81ad1eb5915b818110610962576104338561095681870382612110565b60405191829182612080565b825484526020909301926001928301920161093f565b50346102c157806003193601126102c157602060405160058152f35b50346102c157806003193601126102c157602060405160048152f35b50346102c15760ff60406020926109c6366120b9565b9082526009855282822090825284522054166040519015158152f35b50346102c157806003193601126102c15760206040515f51602061310b5f395f51905f528152f35b50346102c15760603660031901126102c157610a24612004565b6024356044356001600160401b03811161062057610a469036906004016120cf565b92803b15610b0357848060405160208101906317aa5fb760e11b825233602482015260248152610a77604482612110565b5190845afa610a8461214c565b9015908115610b2d575b8115610b12575b50610b03576001600160a01b0316927fcbf08a04978e47b6323427f0c433e9f7cfae25246b5d0d8016d247d8b8ab392f926020929091610ad583876124a1565b80610ae7575b5050604051908152a280f35b610afc91610af69136916121c5565b85612502565b5f80610adb565b6367d056a760e11b8552600485fd5b610b2691506020808251830101910161217b565b155f610a95565b9050602081511090610a8e565b50346102c157806003193601126102c157602060405160018152f35b50346102c157806003193601126102c15760206040515f5160206131eb5f395f51905f528152f35b50346102c15760203660031901126102c157610b98612004565b6040516331477b9b60e01b81526001600160a01b0390911660048201525f51602061324b5f395f51905f5260248201528181604481305afa908115610c1b57826104339392610bf8575b505060405191829160208352602083019061205c565b610c1492503d8091833e610c0c8183612110565b8101906122ee565b5f80610be2565b6040513d84823e3d90fd5b50346102c15760203660031901126102c157610c40612004565b604051630df675ff60e21b81526001600160a01b0390911660048201525f51602061320b5f395f51905f52602482015290602082604481305afa908115610367579061033057602090604051908152f35b50346102c157806003193601126102c15760206040515f5160206131ab5f395f51905f528152f35b50346102c15760ff6040602092610ccf366120b9565b9082526002855282822090825284522054166040519015158152f35b50346102c157806003193601126102c157602060405160038152f35b50346102c15760203660031901126102c1576001600160401b0360406020926004358152600c8452205416604051908152f35b50346102c157806003193601126102c157602060405160068152f35b50346102c1576001600160401b036040602092610d72366120b9565b908252600b85528282209082528452205416604051908152f35b50346102c1576040602091610da0366120b9565b9082526003845282822090825283522054604051908152f35b50346102c157806003193601126102c15760206040515f51602061318b5f395f51905f528152f35b50346102c15760403660031901126102c157610dfb612004565b6024356001600160401b03811161062457610e1a9036906004016120cf565b823b156105e957838060405160208101906317aa5fb760e11b825233602482015260248152610e4a604482612110565b5190865afa610e5761214c565b9015908115610eaa575b8115610e8f575b506105e957610e8c9291610e7d9136916121c5565b906001600160a01b0316612656565b80f35b610ea391506020808251830101910161217b565b155f610e68565b9050602081511090610e61565b50346102c157806003193601126102c15760206040515f51602061328b5f395f51905f528152f35b50346102c157806003193601126102c1576020600d54604051908152f35b50346102c157806003193601126102c15760206040515f51602061316b5f395f51905f528152f35b50346102c157806003193601126102c1576040517f00000000000000000000000000000000000000000000000000000000000000006001600160a01b03168152602090f35b50346102c15760203660031901126102c1576001600160a01b03610f8c612004565b60405163bb6b0c3b60e01b81529116600482018190525f5160206131eb5f395f51905f526024830152602082604481305afa918215611077578392611056575b5081610fe0575b6020826040519015158152f35b90506040519063bb6b0c3b60e01b825260048201525f5160206130eb5f395f51905f526024820152602081604481305afa908115610c1b5760209291611029575b50155f610fd3565b6110499150823d841161104f575b6110418183612110565b81019061217b565b5f611021565b503d611037565b61107091925060203d60201161104f576110418183612110565b905f610fcc565b6040513d85823e3d90fd5b50346102c157806003193601126102c15760206040515f5160206131cb5f395f51905f528152f35b50346102c157806003193601126102c15760206040517ffff178f418b4b518404e598407e77fb91f21e5a91f73fa78d511e4309bd1974a8152f35b50346102c15760203660031901126102c1576110ff612004565b604051630df675ff60e21b81526001600160a01b0390911660048201525f51602061322b5f395f51905f52602482015290602082604481305afa908115610367579061033057602090604051908152f35b50346102c15760203660031901126102c15761116a612004565b604051632041c21f60e11b81526001600160a01b0390911660048201525f5160206130cb5f395f51905f5260248201528181604481305afa908115610c1b578261043393926111c2575b505060405191829182612080565b6111de92503d8091833e6111d68183612110565b810190612428565b5f806111b4565b50346102c15760ff60406020926111fb366120b9565b908252600a85528282209082528452205416604051908152f35b50346102c157611224366120b9565b90825260076020526040822090825260205260408120604051918260208354918281520192825260208220915b818110611268576104338561095681870382612110565b8254845260209093019260019283019201611251565b50346102c1576040602091611292366120b9565b9082526004845282822090825283522054604051908152f35b50346102c15760203660031901126102c1576112c5612004565b604051632041c21f60e11b81526001600160a01b0390911660048201525f51602061318b5f395f51905f5260248201528181604481305afa908115610c1b578261043393926111c257505060405191829182612080565b50346102c15761134a604061043392611334366120b9565b9082528160205282822090825260205220612388565b60405191829160208352602083019061205c565b50346102c15760203660031901126102c1576001600160a01b03611380612004565b604051630df675ff60e21b81529116600482018190527fc355d5c0889faaeaa00982ea1690818b419c519e3ad720a59bf75c810dd5293c6024830152602082604481305afa91821561107757839261144b575b50604051906331477b9b60e01b825260048201525f5160206131cb5f395f51905f5260248201528281604481305afa92831561036757809361142e575b5050610433604051928392835260406020840152604083019061205c565b6114439293503d8091833e610c0c8183612110565b905f80611410565b9091506020813d602011611477575b8161146760209383612110565b8101031261035b5751905f6113d3565b3d915061145a565b50346102c15760203660031901126102c1576004358152600860205260408120604051918260208354918281520192825260208220915b8181106114cd576104338561095681870382612110565b82548452602090930192600192830192016114b6565b50346102c157806003193601126102c15760206040517fc355d5c0889faaeaa00982ea1690818b419c519e3ad720a59bf75c810dd5293c8152f35b50346102c157806003193601126102c157602060405160078152f35b50346102c15760203660031901126102c157611554612004565b604051633d356c9360e11b81526001600160a01b0390911660048201525f5160206130eb5f395f51905f52602482015290602082604481305afa908115610367579061033057602090604051908152f35b50346102c157806003193601126102c15760206040515f51602061322b5f395f51905f528152f35b50346102c157806003193601126102c15760206040515f5160206130eb5f395f51905f528152f35b50346102c15760203660031901126102c15761160f612004565b604051633d356c9360e11b81526001600160a01b0390911660048201525f51602061328b5f395f51905f52602482015290602082604481305afa908115610367579061033057602090604051908152f35b50346102c15760203660031901126102c15761167a612004565b6040516331477b9b60e01b81526001600160a01b0390911660048201525f51602061316b5f395f51905f5260248201528181604481305afa908115610c1b57826104339392610bf857505060405191829160208352602083019061205c565b50346102c15760203660031901126102c1576116f3612004565b60405163e4281bc360e01b81526001600160a01b0390911660048201525f51602061312b5f395f51905f5260248201528181604481305afa908115610c1b578291611747575b60405180610433848261201a565b90503d8083833e6117588183612110565b810190602081830312610624578051906001600160401b03821161062057019080601f830112156106245781519261178f84612230565b9261179d6040519485612110565b84845260208085019560051b8201019283116117ed57602001935b8285106117cd5750505061043391505f611739565b84516001600160a01b0381168103610624578152602094850194016117b8565b5080fd5b50346102c157806003193601126102c15760206040515f5160206130cb5f395f51905f528152f35b503461035b57602036600319011261035b576004356001600160401b03811161035b5780600401916101a0600319833603011261035b57611859836120fc565b803b15611fa8575f809160405160208101906317aa5fb760e11b82523360248201526024815261188a604482612110565b51915afa61189661214c565b9015908115611fd2575b8115611fb7575b50611fa8576001600160a01b036118bd846120fc565b16906118d55f5160206131ab5f395f51905f52612a97565b815f52600460205260405f205f5160206131ab5f395f51905f525f52602052602483013560405f20556119155f5160206131ab5f395f51905f5283612b22565b61192b5f51602061310b5f395f51905f52612a97565b815f52600460205260405f205f51602061310b5f395f51905f525f52602052604483013560405f205561196b5f51602061310b5f395f51905f5283612b22565b6119796064840135836124a1565b608483016119878186612193565b9050611f8c575b5060a4830161199d81866121fb565b9050611eb0575b506119bc6119b560c48501866121fb565b3691612247565b936119d35f51602061318b5f395f51905f52612a97565b825f52600760205260405f205f51602061318b5f395f51905f525f5260205260405f208054905f815581611e92575b50505f5b8551811015611a4f57600190845f52600760205260405f205f51602061318b5f395f51905f525f52602052611a4960405f20611a42838a612785565b5190612800565b01611a06565b50909261018490611a6d5f51602061318b5f395f51905f5285612df6565b611a835f51602061322b5f395f51905f52612a97565b835f52600460205260405f205f51602061322b5f395f51905f525f5260205260e481013560405f2055611ac35f51602061322b5f395f51905f5285612b22565b61010481013580611e3b575b50611aeb6105d9611ae46101248401866121fb565b3691612293565b611b015f51602061320b5f395f51905f52612a97565b835f52600460205260405f205f51602061320b5f395f51905f525f5260205261014481013560405f2055611b425f51602061320b5f395f51905f5285612b22565b611b585f5160206131eb5f395f51905f52612a97565b835f52600360205260405f205f5160206131eb5f395f51905f525f526020524260405f2055611b945f5160206131eb5f395f51905f5285612f60565b6101648101611ba38185612193565b9050611e1f575b5001611bb68183612193565b9050611ca8575b507f00000000000000000000000000000000000000000000000000000000000000006001600160a01b0316803b1561035b575f606491604051928380926309abe27f60e01b82527ffff178f418b4b518404e598407e77fb91f21e5a91f73fa78d511e4309bd1974a60048301528760248301523060448301525afa8015611c9d57611c87575b507f468a219dcbddcb55b7d4a243ee04530c87f9cd616ccd9ad862b3b1d16ec4332b906020906001600160a01b0390611c7b906120fc565b1692604051908152a280f35b611c949193505f90612110565b5f916020611c43565b6040513d5f823e3d90fd5b611cb5611cbc9183612193565b36916121c5565b611cd25f51602061316b5f395f51905f52612a97565b825f525f60205260405f205f51602061316b5f395f51905f525f5260205260405f20908051906001600160401b038211611e0b578190611d128454612350565b601f8111611dd0575b50602090601f8311600114611d6d575f92611d62575b50508160011b915f199060031b1c19161790555b611d5c5f51602061316b5f395f51905f5283612c8c565b83611bbd565b015190508680611d31565b5f8581528281209350601f198516905b818110611db85750908460019594939210611da0575b505050811b019055611d45565b01515f1960f88460031b161c19169055868080611d93565b92936020600181928786015181550195019301611d7d565b611dfb90855f5260205f20601f850160051c81019160208610611e01575b601f0160051c01906124ec565b87611d1b565b9091508190611dee565b634e487b7160e01b5f52604160045260245ffd5b611e2f611cb5611e359286612193565b85612656565b85611baa565b611e515f51602061328b5f395f51905f52612a97565b845f52600360205260405f205f51602061328b5f395f51905f525f5260205260405f2055611e8c5f51602061328b5f395f51905f5285612f60565b85611acf565b5f5260205f20908101905b81811015611a02575f8155600101611e9d565b6119b5611ec091869395966121fb565b93611ed75f5160206130cb5f395f51905f52612a97565b825f52600760205260405f205f5160206130cb5f395f51905f525f5260205260405f208054905f815581611f6e575b50505f5b8551811015611f4c57600190845f52600760205260405f205f5160206130cb5f395f51905f525f52602052611f4660405f20611a42838a612785565b01611f0a565b5092909350611f685f5160206130cb5f395f51905f5283612df6565b5f6119a4565b5f5260205f20908101905b81811015611f06575f8155600101611f79565b611f9c611cb5611fa29287612193565b83612502565b5f61198e565b6367d056a760e11b5f5260045ffd5b611fcb91506020808251830101910161217b565b155f6118a7565b90506020815110906118a0565b3461035b575f36600319011261035b57805f51602061324b5f395f51905f5260209252f35b600435906001600160a01b038216820361035b57565b60206040818301928281528451809452019201905f5b81811061203d5750505090565b82516001600160a01b0316845260209384019390920191600101612030565b805180835260209291819084018484015e5f828201840152601f01601f1916010190565b60206040818301928281528451809452019201905f5b8181106120a35750505090565b8251845260209384019390920191600101612096565b604090600319011261035b576004359060243590565b9181601f8401121561035b578235916001600160401b03831161035b576020838186019501011161035b57565b356001600160a01b038116810361035b5790565b90601f801991011681019081106001600160401b03821117611e0b57604052565b6001600160401b038111611e0b57601f01601f191660200190565b3d15612176573d9061215d82612131565b9161216b6040519384612110565b82523d5f602084013e565b606090565b9081602091031261035b5751801515810361035b5790565b903590601e198136030182121561035b57018035906001600160401b03821161035b5760200191813603831361035b57565b9291926121d182612131565b916121df6040519384612110565b82948184528183011161035b578281602093845f960137010152565b903590601e198136030182121561035b57018035906001600160401b03821161035b57602001918160051b3603831361035b57565b6001600160401b038111611e0b5760051b60200190565b92919061225381612230565b936122616040519586612110565b602085838152019160051b810192831161035b57905b82821061228357505050565b8135815260209182019101612277565b929161229e82612230565b936122ac6040519586612110565b602085848152019260051b810191821161035b57915b8183106122ce57505050565b82356001600160a01b038116810361035b578152602092830192016122c2565b60208183031261035b578051906001600160401b03821161035b570181601f8201121561035b5780519061232182612131565b9261232f6040519485612110565b8284526020838301011161035b57815f9260208093018386015e8301015290565b90600182811c9216801561237e575b602083101461236a57565b634e487b7160e01b5f52602260045260245ffd5b91607f169161235f565b9060405191825f82549261239b84612350565b808452936001811690811561240657506001146123c2575b506123c092500383612110565b565b90505f9291925260205f20905f915b8183106123ea5750509060206123c0928201015f6123b3565b60209193508060019154838589010152019101909184926123d1565b9050602092506123c094915060ff191682840152151560051b8201015f6123b3565b60208183031261035b578051906001600160401b03821161035b57019080601f8301121561035b57815161245b81612230565b926124696040519485612110565b81845260208085019260051b82010192831161035b57602001905b8282106124915750505090565b8151815260209182019101612484565b7fc355d5c0889faaeaa00982ea1690818b419c519e3ad720a59bf75c810dd5293c906123c0926124d083612a97565b815f52600460205260405f20835f5260205260405f2055612b22565b8181106124f7575050565b5f81556001016124ec565b91909161251b5f5160206131cb5f395f51905f52612a97565b805f525f60205260405f205f5160206131cb5f395f51905f525f5260205260405f2083516001600160401b038111611e0b576125578254612350565b601f8111612626575b506020601f82116001146125b05790805f5160206131cb5f395f51905f529493926123c096975f926125a5575b50508160011b915f199060031b1c1916179055612c8c565b015190505f8061258d565b601f19821695835f52815f20965f5b81811061260e57509660019284925f5160206131cb5f395f51905f529796956123c0999a106125f6575b505050811b019055612c8c565b01515f1960f88460031b161c191690555f80806125e9565b838301518955600190980197602093840193016125bf565b61265090835f5260205f20601f840160051c81019160208510611e0157601f0160051c01906124ec565b5f612560565b91909161266f5f51602061324b5f395f51905f52612a97565b805f525f60205260405f205f51602061324b5f395f51905f525f5260205260405f2083516001600160401b038111611e0b576126ab8254612350565b601f8111612755575b506020601f82116001146126f85790805f51602061324b5f395f51905f529493926123c096975f926125a55750508160011b915f199060031b1c1916179055612c8c565b601f19821695835f52815f20965f5b81811061273d57509660019284925f51602061324b5f395f51905f529796956123c0999a106125f657505050811b019055612c8c565b83830151895560019098019760209384019301612707565b61277f90835f5260205f20601f840160051c81019160208510611e0157601f0160051c01906124ec565b5f6126b4565b80518210156127995760209160051b010190565b634e487b7160e01b5f52603260045260245ffd5b8054821015612799575f5260205f2001905f90565b600d54600160401b811015611e0b576127e68160016127fc9301600d55600d6127ad565b819391549060031b91821b915f19901b19161790565b9055565b805490600160401b821015611e0b57816127e69160016127fc940181556127ad565b91909161283b5f51602061312b5f395f51905f52612a97565b805f52600660205260405f205f51602061312b5f395f51905f525f5260205260405f2080545f825580612a7d575b50505f5b83518110156128ec57815f52600660205260405f205f51602061312b5f395f51905f525f5260205260405f209060018060a01b036128ab8287612785565b5116825492600160401b841015611e0b57836128cd91600180960181556127ad565b819291549060031b91821b91858060a01b03901b19161790550161286d565b509091505f51602061312b5f395f51905f5290805f52600e60205260ff60405f20541615612a46575b805f52600960205260405f20825f5260205260ff60405f20541615612a0b575b805f52600a60205260405f20825f5260205260405f20600760ff19825416179055805f52600c60205260016001600160401b0360405f205416016001600160401b0381116129f75760405f51602061326b5f395f51905f5291835f52600c602052815f206001600160401b0382166001600160401b0319825416179055835f52600b602052815f20855f52602052815f206001600160401b0382166001600160401b03198254161790556001600160401b0382519160078352166020820152a3565b634e487b7160e01b5f52601160045260245ffd5b805f526008602052612a208260405f20612800565b805f52600960205260405f20825f5260205260405f20600160ff19825416179055612935565b805f52600e60205260405f20600160ff19825416179055612a66816127c2565b805f51602061314b5f395f51905f525f80a2612915565b612a90915f5260205f20908101906124ec565b5f80612869565b60405163170da40760e21b815260048101919091526020816024817f00000000000000000000000000000000000000000000000000000000000000006001600160a01b03165afa908115611c9d575f91612b03575b5015612af457565b632263bf1f60e21b5f5260045ffd5b612b1c915060203d60201161104f576110418183612110565b5f612aec565b805f52600e60205260ff60405f20541615612c55575b805f52600960205260405f20825f5260205260ff60405f20541615612c1a575b805f52600a60205260405f20825f5260205260405f20600560ff19825416179055805f52600c60205260016001600160401b0360405f205416016001600160401b0381116129f75760405f51602061326b5f395f51905f5291835f52600c602052815f206001600160401b0382166001600160401b0319825416179055835f52600b602052815f20855f52602052815f206001600160401b0382166001600160401b03198254161790556001600160401b0382519160058352166020820152a3565b805f526008602052612c2f8260405f20612800565b805f52600960205260405f20825f5260205260405f20600160ff19825416179055612b58565b805f52600e60205260405f20600160ff19825416179055612c75816127c2565b805f51602061314b5f395f51905f525f80a2612b38565b805f52600e60205260ff60405f20541615612dbf575b805f52600960205260405f20825f5260205260ff60405f20541615612d84575b805f52600a60205260405f20825f5260205260405f20600160ff19825416179055805f52600c60205260016001600160401b0360405f205416016001600160401b0381116129f75760405f51602061326b5f395f51905f5291835f52600c602052815f206001600160401b0382166001600160401b0319825416179055835f52600b602052815f20855f52602052815f206001600160401b0382166001600160401b03198254161790556001600160401b0382519160018352166020820152a3565b805f526008602052612d998260405f20612800565b805f52600960205260405f20825f5260205260405f20600160ff19825416179055612cc2565b805f52600e60205260405f20600160ff19825416179055612ddf816127c2565b805f51602061314b5f395f51905f525f80a2612ca2565b805f52600e60205260ff60405f20541615612f29575b805f52600960205260405f20825f5260205260ff60405f20541615612eee575b805f52600a60205260405f20825f5260205260405f20600860ff19825416179055805f52600c60205260016001600160401b0360405f205416016001600160401b0381116129f75760405f51602061326b5f395f51905f5291835f52600c602052815f206001600160401b0382166001600160401b0319825416179055835f52600b602052815f20855f52602052815f206001600160401b0382166001600160401b03198254161790556001600160401b0382519160088352166020820152a3565b805f526008602052612f038260405f20612800565b805f52600960205260405f20825f5260205260405f20600160ff19825416179055612e2c565b805f52600e60205260405f20600160ff19825416179055612f49816127c2565b805f51602061314b5f395f51905f525f80a2612e0c565b805f52600e60205260ff60405f20541615613093575b805f52600960205260405f20825f5260205260ff60405f20541615613058575b805f52600a60205260405f20825f5260205260405f20600460ff19825416179055805f52600c60205260016001600160401b0360405f205416016001600160401b0381116129f75760405f51602061326b5f395f51905f5291835f52600c602052815f206001600160401b0382166001600160401b0319825416179055835f52600b602052815f20855f52602052815f206001600160401b0382166001600160401b03198254161790556001600160401b0382519160048352166020820152a3565b805f52600860205261306d8260405f20612800565b805f52600960205260405f20825f5260205260405f20600160ff19825416179055612f96565b805f52600e60205260405f20600160ff198254161790556130b3816127c2565b805f51602061314b5f395f51905f525f80a2612f7656fef63e1c07d1c0f2ad445668d00e25ab361ecf2a02729524e46a0f48cac1a1be124715ead2f7345b1f1ce0e319173023b626c0e29857263e413a96452b915689e3f0e0229d375f92170465080d2ee41360a8404ebf3cba13a8baded41cab0c87921828b838e3a83a59ecaa3f927a8ab1292d9a38819bd95f5974c40552ac98ff4034f1cb4778d9578e1af878b07d3ae7e9f2f32fafcaa3096fe48153670a71bfafdc156937f8b38c0fe6ed0131225c63a44ff3b9f900dba4adcd9a135bf4c13c873e601161f5033bbc12fe9f658a4973a8884571ec9427a513b868b60f1e8f90d4a453618257f51fe21f9b4fbb6cda08e7f9cfb56332284c5ed0e77f1f04dea7c1560892de408e4f4a884360c3b835fec89cddb776a04d04db65dc7dec56e396943148f7b65db6da35c442b6aefa8008218ac8bc67d6a142a83da48cc563d0d0479ad0adeec8c67bd375f936b09e2f25f6a6cd1d4688a1af3e60fb12559f0cf029cdf31a72dca78df91ad6a782605e400bc87258b786d7af8c4d971921e7b4e503ca87cca2e7cbb991e8e9274646c2ae8ff4914a494432a1807dd242a4e5f235345167ea251eeaf052f4c7bd769efb5b17e6ba98908050b9929a0bd192b57274fb74057c7999bf62bf70861d49ce7d135b3bbabc3f3d00a8380d8b162b51c50984a2646970667358221220821983d978f1384692d6cf9dfbb1462013e217acdbd9c42773e805b387a5745d64736f6c634300081c0033","linkReferences":{}},"methodIdentifiers":{"CLASS_POOL()":"4b3a14a5","DT_ADDRESS_ARR_PUB()":"213aaad7","DT_ADDRESS_PUB()":"ece6bebc","DT_BOOL_PUB()":"93cbc37d","DT_BYTES32_ARR_PUB()":"f98eed69","DT_BYTES32_PUB()":"c3174629","DT_STRING_ARR_PUB()":"8e101369","DT_STRING_PUB()":"a954aea1","DT_UINT256_PUB()":"be78c068","ONTOLOGY()":"e63cdb42","SA_POOL_ACCEPTED_KINDS()":"7745100a","SA_POOL_ACCEPTED_RESTRICTIONS()":"001fc12f","SA_POOL_ACCEPTED_UNITS()":"066a8647","SA_POOL_CAPACITY_CEILING()":"6728e8f5","SA_POOL_CEILING_POLICY()":"17bcfb6e","SA_POOL_CLOSED_AT()":"16daf14b","SA_POOL_DOMAIN()":"99407cae","SA_POOL_GOVERNANCE_MODEL()":"b7d766e9","SA_POOL_MANDATE_HASH()":"29928c23","SA_POOL_MANDATE_URI()":"4f353706","SA_POOL_OPENED_AT()":"a0e93f3d","SA_POOL_SLUG()":"5e717203","SA_POOL_STEWARDS()":"e0c0e612","SA_POOL_VISIBILITY()":"c66fa6d7","SHAPES()":"55c964dd","allSubjects()":"c3a6123d","close(address)":"c74073a1","datatypeOf(bytes32,bytes32)":"42921cf3","getAcceptedKinds(address)":"354de8f1","getAcceptedRestrictions(address)":"9ba39c53","getAcceptedUnits(address)":"4412dd62","getAddress(bytes32,bytes32)":"d3a39686","getAddressArr(bytes32,bytes32)":"e4281bc3","getBool(bytes32,bytes32)":"98eaf11c","getBytes32(bytes32,bytes32)":"37d9d7fc","getBytes32Arr(bytes32,bytes32)":"4083843e","getCapacityCeiling(address)":"11e45d16","getCeilingPolicy(address)":"494b8b89","getClosedAt(address)":"1bf7a704","getDomain(address)":"d1766135","getGovernanceModel(address)":"efbee9c2","getMandate(address)":"30bee5d0","getOpenedAt(address)":"e1d285fb","getPoolSlug(address)":"0ada2670","getStewards(address)":"0909d83a","getString(bytes32,bytes32)":"31477b9b","getStringArr(bytes32,bytes32)":"cb954f30","getUint(bytes32,bytes32)":"7a6ad926","getVisibility(address)":"9b4feb8b","isOpen(address)":"5575e683","isSet(bytes32,bytes32)":"bb6b0c3b","open((address,bytes32,bytes32,bytes32,string,bytes32[],bytes32[],bytes32,uint256,address[],bytes32,string,string))":"02163fe9","predicatesOf(bytes32)":"30547181","rotateStewards(address,address[])":"deb2f897","setAcceptedRestrictions(address,string)":"6cabe64d","subjectCount()":"639a2e10","subjectVersion(bytes32)":"8e21caca","updateMandate(address,bytes32,string)":"b51e77d5","updatedAt(bytes32,bytes32)":"880eadce"},"id":112}