{"abi":[{"type":"constructor","inputs":[{"name":"ontologyRegistry","type":"address","internalType":"address"},{"name":"shapes","type":"address","internalType":"address"}],"stateMutability":"nonpayable"},{"type":"function","name":"CLASS_POOL","inputs":[],"outputs":[{"name":"","type":"bytes32","internalType":"bytes32"}],"stateMutability":"view"},{"type":"function","name":"DT_ADDRESS_ARR_PUB","inputs":[],"outputs":[{"name":"","type":"uint8","internalType":"uint8"}],"stateMutability":"pure"},{"type":"function","name":"DT_ADDRESS_PUB","inputs":[],"outputs":[{"name":"","type":"uint8","internalType":"uint8"}],"stateMutability":"pure"},{"type":"function","name":"DT_BOOL_PUB","inputs":[],"outputs":[{"name":"","type":"uint8","internalType":"uint8"}],"stateMutability":"pure"},{"type":"function","name":"DT_BYTES32_ARR_PUB","inputs":[],"outputs":[{"name":"","type":"uint8","internalType":"uint8"}],"stateMutability":"pure"},{"type":"function","name":"DT_BYTES32_PUB","inputs":[],"outputs":[{"name":"","type":"uint8","internalType":"uint8"}],"stateMutability":"pure"},{"type":"function","name":"DT_STRING_ARR_PUB","inputs":[],"outputs":[{"name":"","type":"uint8","internalType":"uint8"}],"stateMutability":"pure"},{"type":"function","name":"DT_STRING_PUB","inputs":[],"outputs":[{"name":"","type":"uint8","internalType":"uint8"}],"stateMutability":"pure"},{"type":"function","name":"DT_UINT256_PUB","inputs":[],"outputs":[{"name":"","type":"uint8","internalType":"uint8"}],"stateMutability":"pure"},{"type":"function","name":"ONTOLOGY","inputs":[],"outputs":[{"name":"","type":"address","internalType":"contract OntologyTermRegistry"}],"stateMutability":"view"},{"type":"function","name":"SA_POOL_ACCEPTED_KINDS","inputs":[],"outputs":[{"name":"","type":"bytes32","internalType":"bytes32"}],"stateMutability":"view"},{"type":"function","name":"SA_POOL_ACCEPTED_UNITS","inputs":[],"outputs":[{"name":"","type":"bytes32","internalType":"bytes32"}],"stateMutability":"view"},{"type":"function","name":"SA_POOL_CAPACITY_CEILING","inputs":[],"outputs":[{"name":"","type":"bytes32","internalType":"bytes32"}],"stateMutability":"view"},{"type":"function","name":"SA_POOL_CEILING_POLICY","inputs":[],"outputs":[{"name":"","type":"bytes32","internalType":"bytes32"}],"stateMutability":"view"},{"type":"function","name":"SA_POOL_CLOSED_AT","inputs":[],"outputs":[{"name":"","type":"bytes32","internalType":"bytes32"}],"stateMutability":"view"},{"type":"function","name":"SA_POOL_DOMAIN","inputs":[],"outputs":[{"name":"","type":"bytes32","internalType":"bytes32"}],"stateMutability":"view"},{"type":"function","name":"SA_POOL_GOVERNANCE_MODEL","inputs":[],"outputs":[{"name":"","type":"bytes32","internalType":"bytes32"}],"stateMutability":"view"},{"type":"function","name":"SA_POOL_MANDATE_HASH","inputs":[],"outputs":[{"name":"","type":"bytes32","internalType":"bytes32"}],"stateMutability":"view"},{"type":"function","name":"SA_POOL_MANDATE_URI","inputs":[],"outputs":[{"name":"","type":"bytes32","internalType":"bytes32"}],"stateMutability":"view"},{"type":"function","name":"SA_POOL_OPENED_AT","inputs":[],"outputs":[{"name":"","type":"bytes32","internalType":"bytes32"}],"stateMutability":"view"},{"type":"function","name":"SA_POOL_STEWARDS","inputs":[],"outputs":[{"name":"","type":"bytes32","internalType":"bytes32"}],"stateMutability":"view"},{"type":"function","name":"SA_POOL_VISIBILITY","inputs":[],"outputs":[{"name":"","type":"bytes32","internalType":"bytes32"}],"stateMutability":"view"},{"type":"function","name":"SHAPES","inputs":[],"outputs":[{"name":"","type":"address","internalType":"contract ShapeRegistry"}],"stateMutability":"view"},{"type":"function","name":"allSubjects","inputs":[],"outputs":[{"name":"","type":"bytes32[]","internalType":"bytes32[]"}],"stateMutability":"view"},{"type":"function","name":"close","inputs":[{"name":"poolAgent","type":"address","internalType":"address"}],"outputs":[],"stateMutability":"nonpayable"},{"type":"function","name":"datatypeOf","inputs":[{"name":"subject","type":"bytes32","internalType":"bytes32"},{"name":"predicate","type":"bytes32","internalType":"bytes32"}],"outputs":[{"name":"","type":"uint8","internalType":"uint8"}],"stateMutability":"view"},{"type":"function","name":"getAcceptedKinds","inputs":[{"name":"poolAgent","type":"address","internalType":"address"}],"outputs":[{"name":"","type":"bytes32[]","internalType":"bytes32[]"}],"stateMutability":"view"},{"type":"function","name":"getAcceptedUnits","inputs":[{"name":"poolAgent","type":"address","internalType":"address"}],"outputs":[{"name":"","type":"bytes32[]","internalType":"bytes32[]"}],"stateMutability":"view"},{"type":"function","name":"getAddress","inputs":[{"name":"subject","type":"bytes32","internalType":"bytes32"},{"name":"predicate","type":"bytes32","internalType":"bytes32"}],"outputs":[{"name":"","type":"address","internalType":"address"}],"stateMutability":"view"},{"type":"function","name":"getAddressArr","inputs":[{"name":"subject","type":"bytes32","internalType":"bytes32"},{"name":"predicate","type":"bytes32","internalType":"bytes32"}],"outputs":[{"name":"","type":"address[]","internalType":"address[]"}],"stateMutability":"view"},{"type":"function","name":"getBool","inputs":[{"name":"subject","type":"bytes32","internalType":"bytes32"},{"name":"predicate","type":"bytes32","internalType":"bytes32"}],"outputs":[{"name":"","type":"bool","internalType":"bool"}],"stateMutability":"view"},{"type":"function","name":"getBytes32","inputs":[{"name":"subject","type":"bytes32","internalType":"bytes32"},{"name":"predicate","type":"bytes32","internalType":"bytes32"}],"outputs":[{"name":"","type":"bytes32","internalType":"bytes32"}],"stateMutability":"view"},{"type":"function","name":"getBytes32Arr","inputs":[{"name":"subject","type":"bytes32","internalType":"bytes32"},{"name":"predicate","type":"bytes32","internalType":"bytes32"}],"outputs":[{"name":"","type":"bytes32[]","internalType":"bytes32[]"}],"stateMutability":"view"},{"type":"function","name":"getCapacityCeiling","inputs":[{"name":"poolAgent","type":"address","internalType":"address"}],"outputs":[{"name":"","type":"uint256","internalType":"uint256"}],"stateMutability":"view"},{"type":"function","name":"getCeilingPolicy","inputs":[{"name":"poolAgent","type":"address","internalType":"address"}],"outputs":[{"name":"","type":"bytes32","internalType":"bytes32"}],"stateMutability":"view"},{"type":"function","name":"getClosedAt","inputs":[{"name":"poolAgent","type":"address","internalType":"address"}],"outputs":[{"name":"","type":"uint256","internalType":"uint256"}],"stateMutability":"view"},{"type":"function","name":"getDomain","inputs":[{"name":"poolAgent","type":"address","internalType":"address"}],"outputs":[{"name":"","type":"bytes32","internalType":"bytes32"}],"stateMutability":"view"},{"type":"function","name":"getGovernanceModel","inputs":[{"name":"poolAgent","type":"address","internalType":"address"}],"outputs":[{"name":"","type":"bytes32","internalType":"bytes32"}],"stateMutability":"view"},{"type":"function","name":"getMandate","inputs":[{"name":"poolAgent","type":"address","internalType":"address"}],"outputs":[{"name":"mandateHash","type":"bytes32","internalType":"bytes32"},{"name":"mandateURI","type":"string","internalType":"string"}],"stateMutability":"view"},{"type":"function","name":"getOpenedAt","inputs":[{"name":"poolAgent","type":"address","internalType":"address"}],"outputs":[{"name":"","type":"uint256","internalType":"uint256"}],"stateMutability":"view"},{"type":"function","name":"getStewards","inputs":[{"name":"poolAgent","type":"address","internalType":"address"}],"outputs":[{"name":"","type":"address[]","internalType":"address[]"}],"stateMutability":"view"},{"type":"function","name":"getString","inputs":[{"name":"subject","type":"bytes32","internalType":"bytes32"},{"name":"predicate","type":"bytes32","internalType":"bytes32"}],"outputs":[{"name":"","type":"string","internalType":"string"}],"stateMutability":"view"},{"type":"function","name":"getStringArr","inputs":[{"name":"subject","type":"bytes32","internalType":"bytes32"},{"name":"predicate","type":"bytes32","internalType":"bytes32"}],"outputs":[{"name":"","type":"string[]","internalType":"string[]"}],"stateMutability":"view"},{"type":"function","name":"getUint","inputs":[{"name":"subject","type":"bytes32","internalType":"bytes32"},{"name":"predicate","type":"bytes32","internalType":"bytes32"}],"outputs":[{"name":"","type":"uint256","internalType":"uint256"}],"stateMutability":"view"},{"type":"function","name":"getVisibility","inputs":[{"name":"poolAgent","type":"address","internalType":"address"}],"outputs":[{"name":"","type":"bytes32","internalType":"bytes32"}],"stateMutability":"view"},{"type":"function","name":"isOpen","inputs":[{"name":"poolAgent","type":"address","internalType":"address"}],"outputs":[{"name":"","type":"bool","internalType":"bool"}],"stateMutability":"view"},{"type":"function","name":"isSet","inputs":[{"name":"subject","type":"bytes32","internalType":"bytes32"},{"name":"predicate","type":"bytes32","internalType":"bytes32"}],"outputs":[{"name":"","type":"bool","internalType":"bool"}],"stateMutability":"view"},{"type":"function","name":"open","inputs":[{"name":"p","type":"tuple","internalType":"struct PoolRegistry.OpenParams","components":[{"name":"poolAgent","type":"address","internalType":"address"},{"name":"domain","type":"bytes32","internalType":"bytes32"},{"name":"governanceModel","type":"bytes32","internalType":"bytes32"},{"name":"mandateHash","type":"bytes32","internalType":"bytes32"},{"name":"mandateURI","type":"string","internalType":"string"},{"name":"acceptedUnits","type":"bytes32[]","internalType":"bytes32[]"},{"name":"acceptedKinds","type":"bytes32[]","internalType":"bytes32[]"},{"name":"ceilingPolicy","type":"bytes32","internalType":"bytes32"},{"name":"capacityCeiling","type":"uint256","internalType":"uint256"},{"name":"stewards","type":"address[]","internalType":"address[]"},{"name":"visibility","type":"bytes32","internalType":"bytes32"}]}],"outputs":[],"stateMutability":"nonpayable"},{"type":"function","name":"predicatesOf","inputs":[{"name":"subject","type":"bytes32","internalType":"bytes32"}],"outputs":[{"name":"","type":"bytes32[]","internalType":"bytes32[]"}],"stateMutability":"view"},{"type":"function","name":"rotateStewards","inputs":[{"name":"poolAgent","type":"address","internalType":"address"},{"name":"newStewards","type":"address[]","internalType":"address[]"}],"outputs":[],"stateMutability":"nonpayable"},{"type":"function","name":"subjectCount","inputs":[],"outputs":[{"name":"","type":"uint256","internalType":"uint256"}],"stateMutability":"view"},{"type":"function","name":"subjectVersion","inputs":[{"name":"subject","type":"bytes32","internalType":"bytes32"}],"outputs":[{"name":"","type":"uint64","internalType":"uint64"}],"stateMutability":"view"},{"type":"function","name":"updateMandate","inputs":[{"name":"poolAgent","type":"address","internalType":"address"},{"name":"newMandateHash","type":"bytes32","internalType":"bytes32"},{"name":"newMandateURI","type":"string","internalType":"string"}],"outputs":[],"stateMutability":"nonpayable"},{"type":"function","name":"updatedAt","inputs":[{"name":"subject","type":"bytes32","internalType":"bytes32"},{"name":"predicate","type":"bytes32","internalType":"bytes32"}],"outputs":[{"name":"","type":"uint64","internalType":"uint64"}],"stateMutability":"view"},{"type":"event","name":"AttributeAppended","inputs":[{"name":"subject","type":"bytes32","indexed":true,"internalType":"bytes32"},{"name":"predicate","type":"bytes32","indexed":true,"internalType":"bytes32"},{"name":"datatype","type":"uint8","indexed":false,"internalType":"uint8"},{"name":"version","type":"uint64","indexed":false,"internalType":"uint64"}],"anonymous":false},{"type":"event","name":"AttributeSet","inputs":[{"name":"subject","type":"bytes32","indexed":true,"internalType":"bytes32"},{"name":"predicate","type":"bytes32","indexed":true,"internalType":"bytes32"},{"name":"datatype","type":"uint8","indexed":false,"internalType":"uint8"},{"name":"version","type":"uint64","indexed":false,"internalType":"uint64"}],"anonymous":false},{"type":"event","name":"AttributeUnset","inputs":[{"name":"subject","type":"bytes32","indexed":true,"internalType":"bytes32"},{"name":"predicate","type":"bytes32","indexed":true,"internalType":"bytes32"},{"name":"version","type":"uint64","indexed":false,"internalType":"uint64"}],"anonymous":false},{"type":"event","name":"PoolClosed","inputs":[{"name":"poolAgent","type":"address","indexed":true,"internalType":"address"},{"name":"subject","type":"bytes32","indexed":false,"internalType":"bytes32"}],"anonymous":false},{"type":"event","name":"PoolMandateUpdated","inputs":[{"name":"poolAgent","type":"address","indexed":true,"internalType":"address"},{"name":"newMandateHash","type":"bytes32","indexed":false,"internalType":"bytes32"}],"anonymous":false},{"type":"event","name":"PoolOpened","inputs":[{"name":"poolAgent","type":"address","indexed":true,"internalType":"address"},{"name":"subject","type":"bytes32","indexed":false,"internalType":"bytes32"}],"anonymous":false},{"type":"event","name":"PoolStewardsRotated","inputs":[{"name":"poolAgent","type":"address","indexed":true,"internalType":"address"},{"name":"stewardCount","type":"uint256","indexed":false,"internalType":"uint256"}],"anonymous":false},{"type":"event","name":"SubjectFirstSeen","inputs":[{"name":"subject","type":"bytes32","indexed":true,"internalType":"bytes32"}],"anonymous":false},{"type":"error","name":"AttributeNotSet","inputs":[]},{"type":"error","name":"NotPoolOwner","inputs":[]},{"type":"error","name":"PredicateNotActive","inputs":[]}],"bytecode":{"object":"0x60c03461009357601f612d6938819003918201601f19168301916001600160401b0383118484101761009757808492604094855283398101031261009357610052602061004b836100ab565b92016100ab565b6001600160a01b039182166080521660a052604051612ca990816100c082396080518181816109710152612627015260a05181818161060d01526113360152f35b5f80fd5b634e487b7160e01b5f52604160045260245ffd5b51906001600160a01b03821682036100935756fe6080806040526004361015610012575f80fd5b5f905f3560e01c908163066a864714611ba2575080630909d83a14611a9257806311e45d1614611a2957806316daf14b14611a0257806317bcfb6e146119db5780631bf7a70414611972578063213aaad71461195757806329928c231461191d57806330547181146118b957806330bee5d01461174057806331477b9b146116fe578063354de8f11461169057806337d9d7fc146116615780634083843e146115f857806342921cf3146115c65780634412dd6214611535578063494b8b89146114cc5780634b3a14a5146114925780634f3537061461146b5780635575e6831461136557806355c964dd14611321578063639a2e10146113045780636728e8f5146112dd5780637745100a146112b65780637a6ad92614611287578063880eadce1461124f5780638e101369146112345780638e21caca1461120157806393cbc37d146111e657806398eaf11c146111b257806399407cae1461118b5780639b4feb8b14611122578063a0e93f3d146110fb578063a954aea1146110e0578063b51e77d514610f9f578063b7d766e914610f78578063bb6b0c3b14610f44578063be78c06814610f29578063c317462914610f0e578063c3a6123d14610e8e578063c66fa6d714610e67578063c74073a114610d4c578063cb954f3014610c72578063d176613514610c09578063d3a3968614610bd2578063deb2f89714610ab2578063e0c0e61214610a8b578063e1d285fb14610a22578063e4281bc3146109a0578063e63cdb421461095c578063ece6bebc14610941578063efbee9c2146108a4578063f8b8f45c1461028e5763f98eed6914610270575f80fd5b3461028b578060031936011261028b57602060405160088152f35b80fd5b50346106f55760203660031901126106f5576004356001600160401b0381116106f557806004019161016060031983360301126106f5576102ce83611f22565b803b1561086d575f809160405160208101906317aa5fb760e11b8252336024820152602481526102ff604482611c92565b51915afa61030b611e62565b9015908115610897575b811561087c575b5061086d576001600160a01b0361033284611f22565b169061034a5f516020612b945f395f51905f5261260a565b815f52600460205260405f205f516020612b945f395f51905f525f52602052602483013560405f205561038a5f516020612b945f395f51905f5283612695565b6103a05f516020612b145f395f51905f5261260a565b815f52600460205260405f205f516020612b145f395f51905f525f52602052604483013560405f20556103e05f516020612b145f395f51905f5283612695565b6103ee606484013583611fe9565b608483016103fc8186611f36565b905061084a575b5060a483016104128186611f68565b905061076e575b5061043161042a60c4850186611f68565b3691611f9d565b936104485f516020612b745f395f51905f5261260a565b825f52600760205260405f205f516020612b745f395f51905f525f5260205260405f208054905f815581610750575b50505f5b85518110156104c457600190845f52600760205260405f205f516020612b745f395f51905f525f526020526104be60405f206104b7838a61230c565b51906125e8565b0161047b565b509092610144906104e25f516020612b745f395f51905f5285612969565b6104f85f516020612c145f395f51905f5261260a565b835f52600460205260405f205f516020612c145f395f51905f525f5260205260e481013560405f20556105385f516020612c145f395f51905f5285612695565b610104810135806106f9575b50610566610560610559610124840186611f68565b3691611ec7565b85612349565b61057c5f516020612bf45f395f51905f5261260a565b835f52600460205260405f205f516020612bf45f395f51905f525f52602052013560405f20556105b95f516020612bf45f395f51905f5283612695565b6105cf5f516020612bd45f395f51905f5261260a565b815f52600360205260405f205f516020612bd45f395f51905f525f526020524260405f205561060b5f516020612bd45f395f51905f52836127ff565b7f00000000000000000000000000000000000000000000000000000000000000006001600160a01b0316803b156106f5575f606491604051928380926309abe27f60e01b82527ffff178f418b4b518404e598407e77fb91f21e5a91f73fa78d511e4309bd1974a60048301528760248301523060448301525afa80156106ea576106d4575b507f468a219dcbddcb55b7d4a243ee04530c87f9cd616ccd9ad862b3b1d16ec4332b906020906001600160a01b03906106c890611f22565b1692604051908152a280f35b6106e19193505f90611c92565b5f916020610690565b6040513d5f823e3d90fd5b5f80fd5b61070f5f516020612c545f395f51905f5261260a565b845f52600360205260405f205f516020612c545f395f51905f525f5260205260405f205561074a5f516020612c545f395f51905f52856127ff565b85610544565b5f5260205f20908101905b81811015610477575f815560010161075b565b61042a61077e9186939596611f68565b936107955f516020612ad45f395f51905f5261260a565b825f52600760205260405f205f516020612ad45f395f51905f525f5260205260405f208054905f81558161082c575b50505f5b855181101561080a57600190845f52600760205260405f205f516020612ad45f395f51905f525f5260205261080460405f206104b7838a61230c565b016107c8565b50929093506108265f516020612ad45f395f51905f5283612969565b5f610419565b5f5260205f20908101905b818110156107c4575f8155600101610837565b61086161085a6108679287611f36565b3691611e91565b8361204a565b5f610403565b6367d056a760e11b5f5260045ffd5b610890915060208082518301019101611e4a565b155f61031c565b9050602081511090610315565b346106f55760203660031901126106f5576108bd611bc7565b604051630df675ff60e21b81526001600160a01b0390911660048201525f516020612b145f395f51905f526024820152602081604481305afa80156106ea575f9061090e575b602090604051908152f35b506020813d602011610939575b8161092860209383611c92565b810103126106f55760209051610903565b3d915061091b565b346106f5575f3660031901126106f557602060405160028152f35b346106f5575f3660031901126106f5576040517f00000000000000000000000000000000000000000000000000000000000000006001600160a01b03168152602090f35b346106f5576109ae36611c7c565b905f52600660205260405f20905f5260205260405f206040519081602082549182815201915f5260205f20905f5b818110610a03576109ff856109f381870382611c92565b60405191829182611bdd565b0390f35b82546001600160a01b03168452602090930192600192830192016109dc565b346106f55760203660031901126106f557610a3b611bc7565b604051633d356c9360e11b81526001600160a01b0390911660048201525f516020612bd45f395f51905f526024820152602081604481305afa80156106ea575f9061090e57602090604051908152f35b346106f5575f3660031901126106f55760206040515f516020612b345f395f51905f528152f35b346106f55760403660031901126106f557610acb611bc7565b602435906001600160401b0382116106f557366023830112156106f5578160040135906001600160401b0382116106f5573660248360051b850101116106f557803b1561086d575f8060405160208101906317aa5fb760e11b825233602482015260248152610b3b604482611c92565b5190845afa610b48611e62565b9015908115610bc5575b8115610baa575b5061086d576001600160a01b0316917ff94b6c9e0ffb68d28792085b4bd65653658a9d7d6c283c2fe29e1ce4cecd369091602091610ba1906105609036908490602401611ec7565b604051908152a2005b610bbe915060208082518301019101611e4a565b1584610b59565b9050602081511090610b52565b346106f557610be036611c7c565b905f52600160205260405f20905f52602052602060018060a01b0360405f205416604051908152f35b346106f55760203660031901126106f557610c22611bc7565b604051630df675ff60e21b81526001600160a01b0390911660048201525f516020612b945f395f51905f526024820152602081604481305afa80156106ea575f9061090e57602090604051908152f35b346106f557610c8036611c7c565b905f52600560205260405f20905f5260205260405f20805490610ca282611cc7565b91610cb06040519384611c92565b8083526020830180925f5260205f205f915b838310610d2f57848660405191829160208301906020845251809152604083019060408160051b85010192915f905b828210610d0057505050500390f35b91936001919395506020610d1f8192603f198a82030186528851611c58565b9601920192018594939192610cf1565b600160208192610d3e85611d31565b815201920192019190610cc2565b346106f55760203660031901126106f557610d65611bc7565b803b1561086d575f8060405160208101906317aa5fb760e11b825233602482015260248152610d95604482611c92565b5190845afa610da2611e62565b9015908115610e5a575b8115610e3f575b5061086d576001600160a01b0316610dd75f516020612af45f395f51905f5261260a565b805f52600360205260405f205f516020612af45f395f51905f525f526020524260405f2055610e135f516020612af45f395f51905f52826127ff565b7f711dc13dc0d55b44aec704a91c510c322588933910cb86d308a195456caa90c56020604051838152a2005b610e53915060208082518301019101611e4a565b1582610db3565b9050602081511090610dac565b346106f5575f3660031901126106f55760206040515f516020612bf45f395f51905f528152f35b346106f5575f3660031901126106f557604051806020600d54918281520190600d5f527fd7b6990105719101dabeb77144f2a3385c8033acd3af97e9423a695e81ad1eb5905f5b818110610ef8576109ff85610eec81870382611c92565b60405191829182611c1f565b8254845260209093019260019283019201610ed5565b346106f5575f3660031901126106f557602060405160058152f35b346106f5575f3660031901126106f557602060405160048152f35b346106f557610f5236611c7c565b905f52600960205260405f20905f52602052602060ff60405f2054166040519015158152f35b346106f5575f3660031901126106f55760206040515f516020612b145f395f51905f528152f35b346106f55760603660031901126106f557610fb8611bc7565b60243590604435906001600160401b0382116106f557366023830112156106f5578160040135926001600160401b0384116106f55736602485850101116106f557813b1561086d575f8060405160208101906317aa5fb760e11b825233602482015260248152611029604482611c92565b5190855afa611036611e62565b90159081156110d3575b81156110b8575b5061086d576001600160a01b03909116927fcbf08a04978e47b6323427f0c433e9f7cfae25246b5d0d8016d247d8b8ab392f92602092916110888387611fe9565b80611099575b5050604051908152a2005b6110b1916110ab916024369201611e91565b8561204a565b848061108e565b6110cc915060208082518301019101611e4a565b1585611047565b9050602081511090611040565b346106f5575f3660031901126106f557602060405160018152f35b346106f5575f3660031901126106f55760206040515f516020612bd45f395f51905f528152f35b346106f55760203660031901126106f55761113b611bc7565b604051630df675ff60e21b81526001600160a01b0390911660048201525f516020612bf45f395f51905f526024820152602081604481305afa80156106ea575f9061090e57602090604051908152f35b346106f5575f3660031901126106f55760206040515f516020612b945f395f51905f528152f35b346106f5576111c036611c7c565b905f52600260205260405f20905f52602052602060ff60405f2054166040519015158152f35b346106f5575f3660031901126106f557602060405160038152f35b346106f55760203660031901126106f5576004355f52600c60205260206001600160401b0360405f205416604051908152f35b346106f5575f3660031901126106f557602060405160068152f35b346106f55761125d36611c7c565b905f52600b60205260405f20905f5260205260206001600160401b0360405f205416604051908152f35b346106f55761129536611c7c565b905f52600360205260405f20905f52602052602060405f2054604051908152f35b346106f5575f3660031901126106f55760206040515f516020612b745f395f51905f528152f35b346106f5575f3660031901126106f55760206040515f516020612c545f395f51905f528152f35b346106f5575f3660031901126106f5576020600d54604051908152f35b346106f5575f3660031901126106f5576040517f00000000000000000000000000000000000000000000000000000000000000006001600160a01b03168152602090f35b346106f55760203660031901126106f5576001600160a01b03611386611bc7565b1660405163bb6b0c3b60e01b81528160048201525f516020612bd45f395f51905f526024820152602081604481305afa9081156106ea575f9161144c575b50806113d8575b6020906040519015158152f35b506040519063bb6b0c3b60e01b825260048201525f516020612af45f395f51905f526024820152602081604481305afa80156106ea576020915f9161141f575b50156113cb565b61143f9150823d8411611445575b6114378183611c92565b810190611e4a565b82611418565b503d61142d565b611465915060203d602011611445576114378183611c92565b826113c4565b346106f5575f3660031901126106f55760206040515f516020612bb45f395f51905f528152f35b346106f5575f3660031901126106f55760206040517ffff178f418b4b518404e598407e77fb91f21e5a91f73fa78d511e4309bd1974a8152f35b346106f55760203660031901126106f5576114e5611bc7565b604051630df675ff60e21b81526001600160a01b0390911660048201525f516020612c145f395f51905f526024820152602081604481305afa80156106ea575f9061090e57602090604051908152f35b346106f55760203660031901126106f55761154e611bc7565b604051632041c21f60e11b81526001600160a01b0390911660048201525f516020612ad45f395f51905f5260248201525f81604481305afa80156106ea576109ff915f916115a4575b5060405191829182611c1f565b6115c091503d805f833e6115b88183611c92565b810190611dd1565b82611597565b346106f5576115d436611c7c565b905f52600a60205260405f20905f52602052602060ff60405f205416604051908152f35b346106f55761160636611c7c565b905f52600760205260405f20905f5260205260405f206040519081602082549182815201915f5260205f20905f5b81811061164b576109ff85610eec81870382611c92565b8254845260209093019260019283019201611634565b346106f55761166f36611c7c565b905f52600460205260405f20905f52602052602060405f2054604051908152f35b346106f55760203660031901126106f5576116a9611bc7565b604051632041c21f60e11b81526001600160a01b0390911660048201525f516020612b745f395f51905f5260248201525f81604481305afa80156106ea576109ff915f916115a4575060405191829182611c1f565b346106f55761170c36611c7c565b905f525f60205260405f20905f526020526109ff61172c60405f20611d31565b604051918291602083526020830190611c58565b346106f55760203660031901126106f5576001600160a01b03611761611bc7565b16604051630df675ff60e21b81528160048201527fc355d5c0889faaeaa00982ea1690818b419c519e3ad720a59bf75c810dd5293c6024820152602081604481305afa9081156106ea575f91611887575b50604051916331477b9b60e01b835260048301525f516020612bb45f395f51905f5260248301525f82604481305afa9182156106ea575f9261180c575b506109ff6040519283928352604060208401526040830190611c58565b9091503d805f833e61181e8183611c92565b8101906020818303126106f5578051906001600160401b0382116106f5570181601f820112156106f55780519061185482611cde565b926118626040519485611c92565b828452602083830101116106f557815f9260208093018386015e8301015290826117ef565b90506020813d6020116118b1575b816118a260209383611c92565b810103126106f55751826117b2565b3d9150611895565b346106f55760203660031901126106f5576004355f52600860205260405f206040519081602082549182815201915f5260205f20905f5b818110611907576109ff85610eec81870382611c92565b82548452602090930192600192830192016118f0565b346106f5575f3660031901126106f55760206040517fc355d5c0889faaeaa00982ea1690818b419c519e3ad720a59bf75c810dd5293c8152f35b346106f5575f3660031901126106f557602060405160078152f35b346106f55760203660031901126106f55761198b611bc7565b604051633d356c9360e11b81526001600160a01b0390911660048201525f516020612af45f395f51905f526024820152602081604481305afa80156106ea575f9061090e57602090604051908152f35b346106f5575f3660031901126106f55760206040515f516020612c145f395f51905f528152f35b346106f5575f3660031901126106f55760206040515f516020612af45f395f51905f528152f35b346106f55760203660031901126106f557611a42611bc7565b604051633d356c9360e11b81526001600160a01b0390911660048201525f516020612c545f395f51905f526024820152602081604481305afa80156106ea575f9061090e57602090604051908152f35b346106f55760203660031901126106f557611aab611bc7565b60405163e4281bc360e01b81526001600160a01b0390911660048201525f516020612b345f395f51905f5260248201525f81604481305afa80156106ea575f90611b00575b6109ff9060405191829182611bdd565b503d805f833e611b108183611c92565b8101906020818303126106f5578051906001600160401b0382116106f5570181601f820112156106f557805191611b4683611cc7565b91611b546040519384611c92565b83835260208084019460051b8201019182116106f557602001925b818410611b825750506109ff9150611af0565b83516001600160a01b03811681036106f557815260209384019301611b6f565b346106f5575f3660031901126106f557805f516020612ad45f395f51905f5260209252f35b600435906001600160a01b03821682036106f557565b60206040818301928281528451809452019201905f5b818110611c005750505090565b82516001600160a01b0316845260209384019390920191600101611bf3565b60206040818301928281528451809452019201905f5b818110611c425750505090565b8251845260209384019390920191600101611c35565b805180835260209291819084018484015e5f828201840152601f01601f1916010190565b60409060031901126106f5576004359060243590565b90601f801991011681019081106001600160401b03821117611cb357604052565b634e487b7160e01b5f52604160045260245ffd5b6001600160401b038111611cb35760051b60200190565b6001600160401b038111611cb357601f01601f191660200190565b90600182811c92168015611d27575b6020831014611d1357565b634e487b7160e01b5f52602260045260245ffd5b91607f1691611d08565b9060405191825f825492611d4484611cf9565b8084529360018116908115611daf5750600114611d6b575b50611d6992500383611c92565b565b90505f9291925260205f20905f915b818310611d93575050906020611d69928201015f611d5c565b6020919350806001915483858901015201910190918492611d7a565b905060209250611d6994915060ff191682840152151560051b8201015f611d5c565b6020818303126106f5578051906001600160401b0382116106f557019080601f830112156106f5578151611e0481611cc7565b92611e126040519485611c92565b81845260208085019260051b8201019283116106f557602001905b828210611e3a5750505090565b8151815260209182019101611e2d565b908160209103126106f5575180151581036106f55790565b3d15611e8c573d90611e7382611cde565b91611e816040519384611c92565b82523d5f602084013e565b606090565b929192611e9d82611cde565b91611eab6040519384611c92565b8294818452818301116106f5578281602093845f960137010152565b9291611ed282611cc7565b93611ee06040519586611c92565b602085848152019260051b81019182116106f557915b818310611f0257505050565b82356001600160a01b03811681036106f557815260209283019201611ef6565b356001600160a01b03811681036106f55790565b903590601e19813603018212156106f557018035906001600160401b0382116106f5576020019181360383136106f557565b903590601e19813603018212156106f557018035906001600160401b0382116106f557602001918160051b360383136106f557565b929190611fa981611cc7565b93611fb76040519586611c92565b602085838152019160051b81019283116106f557905b828210611fd957505050565b8135815260209182019101611fcd565b7fc355d5c0889faaeaa00982ea1690818b419c519e3ad720a59bf75c810dd5293c90611d69926120188361260a565b815f52600460205260405f20835f5260205260405f2055612695565b81811061203f575050565b5f8155600101612034565b9190916120635f516020612bb45f395f51905f5261260a565b805f525f60205260405f205f516020612bb45f395f51905f525f5260205260405f2083516001600160401b038111611cb35761209f8254611cf9565b601f81116122d1575b50602094601f8211600114612270579481929394955f92612265575b50508160011b915f199060031b1c19161790555b5f516020612bb45f395f51905f5290805f52600e60205260ff60405f2054161561222e575b805f52600960205260405f20825f5260205260ff60405f205416156121f3575b805f52600a60205260405f20825f5260205260405f20600160ff19825416179055805f52600c60205260016001600160401b0360405f205416016001600160401b0381116121df5760405f516020612c345f395f51905f5291835f52600c602052815f206001600160401b0382166001600160401b0319825416179055835f52600b602052815f20855f52602052815f206001600160401b0382166001600160401b03198254161790556001600160401b0382519160018352166020820152a3565b634e487b7160e01b5f52601160045260245ffd5b805f5260086020526122088260405f206125e8565b805f52600960205260405f20825f5260205260405f20600160ff1982541617905561211d565b805f52600e60205260405f20600160ff1982541617905561224e816125aa565b805f516020612b545f395f51905f525f80a26120fd565b015190505f806120c4565b601f19821695835f52805f20915f5b8881106122b9575083600195969798106122a1575b505050811b0190556120d8565b01515f1960f88460031b161c191690555f8080612294565b9192602060018192868501518155019401920161227f565b6122fc90835f5260205f20601f840160051c81019160208510612302575b601f0160051c0190612034565b5f6120a8565b90915081906122ef565b80518210156123205760209160051b010190565b634e487b7160e01b5f52603260045260245ffd5b8054821015612320575f5260205f2001905f90565b9190916123625f516020612b345f395f51905f5261260a565b805f52600660205260405f205f516020612b345f395f51905f525f5260205260405f2080545f825580612590575b50505f5b835181101561241357815f52600660205260405f205f516020612b345f395f51905f525f5260205260405f209060018060a01b036123d2828761230c565b5116825492600160401b841015611cb357836123f49160018096018155612334565b819291549060031b91821b91858060a01b03901b191617905501612394565b509091505f516020612b345f395f51905f5290805f52600e60205260ff60405f20541615612559575b805f52600960205260405f20825f5260205260ff60405f2054161561251e575b805f52600a60205260405f20825f5260205260405f20600760ff19825416179055805f52600c60205260016001600160401b0360405f205416016001600160401b0381116121df5760405f516020612c345f395f51905f5291835f52600c602052815f206001600160401b0382166001600160401b0319825416179055835f52600b602052815f20855f52602052815f206001600160401b0382166001600160401b03198254161790556001600160401b0382519160078352166020820152a3565b805f5260086020526125338260405f206125e8565b805f52600960205260405f20825f5260205260405f20600160ff1982541617905561245c565b805f52600e60205260405f20600160ff19825416179055612579816125aa565b805f516020612b545f395f51905f525f80a261243c565b6125a3915f5260205f2090810190612034565b5f80612390565b600d54600160401b811015611cb3576125ce8160016125e49301600d55600d612334565b819391549060031b91821b915f19901b19161790565b9055565b805490600160401b821015611cb357816125ce9160016125e494018155612334565b60405163170da40760e21b815260048101919091526020816024817f00000000000000000000000000000000000000000000000000000000000000006001600160a01b03165afa9081156106ea575f91612676575b501561266757565b632263bf1f60e21b5f5260045ffd5b61268f915060203d602011611445576114378183611c92565b5f61265f565b805f52600e60205260ff60405f205416156127c8575b805f52600960205260405f20825f5260205260ff60405f2054161561278d575b805f52600a60205260405f20825f5260205260405f20600560ff19825416179055805f52600c60205260016001600160401b0360405f205416016001600160401b0381116121df5760405f516020612c345f395f51905f5291835f52600c602052815f206001600160401b0382166001600160401b0319825416179055835f52600b602052815f20855f52602052815f206001600160401b0382166001600160401b03198254161790556001600160401b0382519160058352166020820152a3565b805f5260086020526127a28260405f206125e8565b805f52600960205260405f20825f5260205260405f20600160ff198254161790556126cb565b805f52600e60205260405f20600160ff198254161790556127e8816125aa565b805f516020612b545f395f51905f525f80a26126ab565b805f52600e60205260ff60405f20541615612932575b805f52600960205260405f20825f5260205260ff60405f205416156128f7575b805f52600a60205260405f20825f5260205260405f20600460ff19825416179055805f52600c60205260016001600160401b0360405f205416016001600160401b0381116121df5760405f516020612c345f395f51905f5291835f52600c602052815f206001600160401b0382166001600160401b0319825416179055835f52600b602052815f20855f52602052815f206001600160401b0382166001600160401b03198254161790556001600160401b0382519160048352166020820152a3565b805f52600860205261290c8260405f206125e8565b805f52600960205260405f20825f5260205260405f20600160ff19825416179055612835565b805f52600e60205260405f20600160ff19825416179055612952816125aa565b805f516020612b545f395f51905f525f80a2612815565b805f52600e60205260ff60405f20541615612a9c575b805f52600960205260405f20825f5260205260ff60405f20541615612a61575b805f52600a60205260405f20825f5260205260405f20600860ff19825416179055805f52600c60205260016001600160401b0360405f205416016001600160401b0381116121df5760405f516020612c345f395f51905f5291835f52600c602052815f206001600160401b0382166001600160401b0319825416179055835f52600b602052815f20855f52602052815f206001600160401b0382166001600160401b03198254161790556001600160401b0382519160088352166020820152a3565b805f526008602052612a768260405f206125e8565b805f52600960205260405f20825f5260205260405f20600160ff1982541617905561299f565b805f52600e60205260405f20600160ff19825416179055612abc816125aa565b805f516020612b545f395f51905f525f80a261297f56fef63e1c07d1c0f2ad445668d00e25ab361ecf2a02729524e46a0f48cac1a1be124715ead2f7345b1f1ce0e319173023b626c0e29857263e413a96452b915689e3f0e0229d375f92170465080d2ee41360a8404ebf3cba13a8baded41cab0c87921828b838e3a83a59ecaa3f927a8ab1292d9a38819bd95f5974c40552ac98ff4034f1cb4778d9578e1af878b07d3ae7e9f2f32fafcaa3096fe48153670a71bfaf3e601161f5033bbc12fe9f658a4973a8884571ec9427a513b868b60f1e8f90d4a453618257f51fe21f9b4fbb6cda08e7f9cfb56332284c5ed0e77f1f04dea7c1560892de408e4f4a884360c3b835fec89cddb776a04d04db65dc7dec56e396943148f7b65db6da35c442b6aefa8008218ac8bc67d6a142a83da48cc563d0d0479ad0adeec8c67bd375f936b09e2f25f6a6cd1d4688a1af3e60fb12559f0cf029cdf31a72dca78df91ad6a782605e400bc87258b786d7af8c4d971921e7b4e5035167ea251eeaf052f4c7bd769efb5b17e6ba98908050b9929a0bd192b57274fb74057c7999bf62bf70861d49ce7d135b3bbabc3f3d00a8380d8b162b51c50984a26469706673582212200b165afc3eda0dca79d8197cff5397bf962822c002a5803a8643f9560161e65164736f6c634300081c0033","linkReferences":{}},"methodIdentifiers":{"CLASS_POOL()":"4b3a14a5","DT_ADDRESS_ARR_PUB()":"213aaad7","DT_ADDRESS_PUB()":"ece6bebc","DT_BOOL_PUB()":"93cbc37d","DT_BYTES32_ARR_PUB()":"f98eed69","DT_BYTES32_PUB()":"c3174629","DT_STRING_ARR_PUB()":"8e101369","DT_STRING_PUB()":"a954aea1","DT_UINT256_PUB()":"be78c068","ONTOLOGY()":"e63cdb42","SA_POOL_ACCEPTED_KINDS()":"7745100a","SA_POOL_ACCEPTED_UNITS()":"066a8647","SA_POOL_CAPACITY_CEILING()":"6728e8f5","SA_POOL_CEILING_POLICY()":"17bcfb6e","SA_POOL_CLOSED_AT()":"16daf14b","SA_POOL_DOMAIN()":"99407cae","SA_POOL_GOVERNANCE_MODEL()":"b7d766e9","SA_POOL_MANDATE_HASH()":"29928c23","SA_POOL_MANDATE_URI()":"4f353706","SA_POOL_OPENED_AT()":"a0e93f3d","SA_POOL_STEWARDS()":"e0c0e612","SA_POOL_VISIBILITY()":"c66fa6d7","SHAPES()":"55c964dd","allSubjects()":"c3a6123d","close(address)":"c74073a1","datatypeOf(bytes32,bytes32)":"42921cf3","getAcceptedKinds(address)":"354de8f1","getAcceptedUnits(address)":"4412dd62","getAddress(bytes32,bytes32)":"d3a39686","getAddressArr(bytes32,bytes32)":"e4281bc3","getBool(bytes32,bytes32)":"98eaf11c","getBytes32(bytes32,bytes32)":"37d9d7fc","getBytes32Arr(bytes32,bytes32)":"4083843e","getCapacityCeiling(address)":"11e45d16","getCeilingPolicy(address)":"494b8b89","getClosedAt(address)":"1bf7a704","getDomain(address)":"d1766135","getGovernanceModel(address)":"efbee9c2","getMandate(address)":"30bee5d0","getOpenedAt(address)":"e1d285fb","getStewards(address)":"0909d83a","getString(bytes32,bytes32)":"31477b9b","getStringArr(bytes32,bytes32)":"cb954f30","getUint(bytes32,bytes32)":"7a6ad926","getVisibility(address)":"9b4feb8b","isOpen(address)":"5575e683","isSet(bytes32,bytes32)":"bb6b0c3b","open((address,bytes32,bytes32,bytes32,string,bytes32[],bytes32[],bytes32,uint256,address[],bytes32))":"f8b8f45c","predicatesOf(bytes32)":"30547181","rotateStewards(address,address[])":"deb2f897","subjectCount()":"639a2e10","subjectVersion(bytes32)":"8e21caca","updateMandate(address,bytes32,string)":"b51e77d5","updatedAt(bytes32,bytes32)":"880eadce"},"id":102}