{"abi":[{"type":"constructor","inputs":[{"name":"store","type":"address","internalType":"address"},{"name":"shapes","type":"address","internalType":"address"}],"stateMutability":"nonpayable"},{"type":"function","name":"CLASS_POOL","inputs":[],"outputs":[{"name":"","type":"bytes32","internalType":"bytes32"}],"stateMutability":"view"},{"type":"function","name":"SA_POOL_ACCEPTED_KINDS","inputs":[],"outputs":[{"name":"","type":"bytes32","internalType":"bytes32"}],"stateMutability":"view"},{"type":"function","name":"SA_POOL_ACCEPTED_UNITS","inputs":[],"outputs":[{"name":"","type":"bytes32","internalType":"bytes32"}],"stateMutability":"view"},{"type":"function","name":"SA_POOL_CAPACITY_CEILING","inputs":[],"outputs":[{"name":"","type":"bytes32","internalType":"bytes32"}],"stateMutability":"view"},{"type":"function","name":"SA_POOL_CEILING_POLICY","inputs":[],"outputs":[{"name":"","type":"bytes32","internalType":"bytes32"}],"stateMutability":"view"},{"type":"function","name":"SA_POOL_CLOSED_AT","inputs":[],"outputs":[{"name":"","type":"bytes32","internalType":"bytes32"}],"stateMutability":"view"},{"type":"function","name":"SA_POOL_DOMAIN","inputs":[],"outputs":[{"name":"","type":"bytes32","internalType":"bytes32"}],"stateMutability":"view"},{"type":"function","name":"SA_POOL_GOVERNANCE_MODEL","inputs":[],"outputs":[{"name":"","type":"bytes32","internalType":"bytes32"}],"stateMutability":"view"},{"type":"function","name":"SA_POOL_MANDATE_HASH","inputs":[],"outputs":[{"name":"","type":"bytes32","internalType":"bytes32"}],"stateMutability":"view"},{"type":"function","name":"SA_POOL_MANDATE_URI","inputs":[],"outputs":[{"name":"","type":"bytes32","internalType":"bytes32"}],"stateMutability":"view"},{"type":"function","name":"SA_POOL_OPENED_AT","inputs":[],"outputs":[{"name":"","type":"bytes32","internalType":"bytes32"}],"stateMutability":"view"},{"type":"function","name":"SA_POOL_STEWARDS","inputs":[],"outputs":[{"name":"","type":"bytes32","internalType":"bytes32"}],"stateMutability":"view"},{"type":"function","name":"SA_POOL_VISIBILITY","inputs":[],"outputs":[{"name":"","type":"bytes32","internalType":"bytes32"}],"stateMutability":"view"},{"type":"function","name":"SHAPES","inputs":[],"outputs":[{"name":"","type":"address","internalType":"contract ShapeRegistry"}],"stateMutability":"view"},{"type":"function","name":"STORE","inputs":[],"outputs":[{"name":"","type":"address","internalType":"contract OntologyAttributeStore"}],"stateMutability":"view"},{"type":"function","name":"close","inputs":[{"name":"poolAgent","type":"address","internalType":"address"}],"outputs":[],"stateMutability":"nonpayable"},{"type":"function","name":"getAcceptedKinds","inputs":[{"name":"poolAgent","type":"address","internalType":"address"}],"outputs":[{"name":"","type":"bytes32[]","internalType":"bytes32[]"}],"stateMutability":"view"},{"type":"function","name":"getAcceptedUnits","inputs":[{"name":"poolAgent","type":"address","internalType":"address"}],"outputs":[{"name":"","type":"bytes32[]","internalType":"bytes32[]"}],"stateMutability":"view"},{"type":"function","name":"getCapacityCeiling","inputs":[{"name":"poolAgent","type":"address","internalType":"address"}],"outputs":[{"name":"","type":"uint256","internalType":"uint256"}],"stateMutability":"view"},{"type":"function","name":"getCeilingPolicy","inputs":[{"name":"poolAgent","type":"address","internalType":"address"}],"outputs":[{"name":"","type":"bytes32","internalType":"bytes32"}],"stateMutability":"view"},{"type":"function","name":"getClosedAt","inputs":[{"name":"poolAgent","type":"address","internalType":"address"}],"outputs":[{"name":"","type":"uint256","internalType":"uint256"}],"stateMutability":"view"},{"type":"function","name":"getDomain","inputs":[{"name":"poolAgent","type":"address","internalType":"address"}],"outputs":[{"name":"","type":"bytes32","internalType":"bytes32"}],"stateMutability":"view"},{"type":"function","name":"getGovernanceModel","inputs":[{"name":"poolAgent","type":"address","internalType":"address"}],"outputs":[{"name":"","type":"bytes32","internalType":"bytes32"}],"stateMutability":"view"},{"type":"function","name":"getMandate","inputs":[{"name":"poolAgent","type":"address","internalType":"address"}],"outputs":[{"name":"mandateHash","type":"bytes32","internalType":"bytes32"},{"name":"mandateURI","type":"string","internalType":"string"}],"stateMutability":"view"},{"type":"function","name":"getOpenedAt","inputs":[{"name":"poolAgent","type":"address","internalType":"address"}],"outputs":[{"name":"","type":"uint256","internalType":"uint256"}],"stateMutability":"view"},{"type":"function","name":"getStewards","inputs":[{"name":"poolAgent","type":"address","internalType":"address"}],"outputs":[{"name":"","type":"address[]","internalType":"address[]"}],"stateMutability":"view"},{"type":"function","name":"getVisibility","inputs":[{"name":"poolAgent","type":"address","internalType":"address"}],"outputs":[{"name":"","type":"bytes32","internalType":"bytes32"}],"stateMutability":"view"},{"type":"function","name":"isOpen","inputs":[{"name":"poolAgent","type":"address","internalType":"address"}],"outputs":[{"name":"","type":"bool","internalType":"bool"}],"stateMutability":"view"},{"type":"function","name":"open","inputs":[{"name":"p","type":"tuple","internalType":"struct PoolRegistry.OpenParams","components":[{"name":"poolAgent","type":"address","internalType":"address"},{"name":"domain","type":"bytes32","internalType":"bytes32"},{"name":"governanceModel","type":"bytes32","internalType":"bytes32"},{"name":"mandateHash","type":"bytes32","internalType":"bytes32"},{"name":"mandateURI","type":"string","internalType":"string"},{"name":"acceptedUnits","type":"bytes32[]","internalType":"bytes32[]"},{"name":"acceptedKinds","type":"bytes32[]","internalType":"bytes32[]"},{"name":"ceilingPolicy","type":"bytes32","internalType":"bytes32"},{"name":"capacityCeiling","type":"uint256","internalType":"uint256"},{"name":"stewards","type":"address[]","internalType":"address[]"},{"name":"visibility","type":"bytes32","internalType":"bytes32"}]}],"outputs":[],"stateMutability":"nonpayable"},{"type":"function","name":"rotateStewards","inputs":[{"name":"poolAgent","type":"address","internalType":"address"},{"name":"newStewards","type":"address[]","internalType":"address[]"}],"outputs":[],"stateMutability":"nonpayable"},{"type":"function","name":"updateMandate","inputs":[{"name":"poolAgent","type":"address","internalType":"address"},{"name":"newMandateHash","type":"bytes32","internalType":"bytes32"},{"name":"newMandateURI","type":"string","internalType":"string"}],"outputs":[],"stateMutability":"nonpayable"},{"type":"event","name":"PoolClosed","inputs":[{"name":"poolAgent","type":"address","indexed":true,"internalType":"address"},{"name":"subject","type":"bytes32","indexed":false,"internalType":"bytes32"}],"anonymous":false},{"type":"event","name":"PoolMandateUpdated","inputs":[{"name":"poolAgent","type":"address","indexed":true,"internalType":"address"},{"name":"newMandateHash","type":"bytes32","indexed":false,"internalType":"bytes32"}],"anonymous":false},{"type":"event","name":"PoolOpened","inputs":[{"name":"poolAgent","type":"address","indexed":true,"internalType":"address"},{"name":"subject","type":"bytes32","indexed":false,"internalType":"bytes32"}],"anonymous":false},{"type":"event","name":"PoolStewardsRotated","inputs":[{"name":"poolAgent","type":"address","indexed":true,"internalType":"address"},{"name":"stewardCount","type":"uint256","indexed":false,"internalType":"uint256"}],"anonymous":false},{"type":"error","name":"NotPoolOwner","inputs":[]}],"bytecode":{"object":"0x60c0346100fc57601f61206738819003918201601f19168301916001600160401b038311848410176101005780849260409485528339810103126100fc57610052602061004b83610114565b9201610114565b6001600160a01b039182166080521660a052604051611f3e9081610129823960805181818161021a0152818161097f01528181610a5401528181610b8501528181610cbc01528181610d7201528181610f8701528181611171015281816112e8015281816113e9015281816114f50152818161159601528181611664015281816116ef015281816118e8015281816119eb0152611a8c015260a05181818161058d015261126d0152f35b5f80fd5b634e487b7160e01b5f52604160045260245ffd5b51906001600160a01b03821682036100fc5756fe6080806040526004361015610012575f80fd5b5f905f3560e01c908163066a864714611bab575080630909d83a14611a2457806311e45d161461198257806316daf14b1461195b57806317bcfb6e146119215780631bf7a7041461189257806329928c231461186b57806330bee5d0146116a3578063354de8f1146115fc5780634412dd621461152e578063494b8b891461148c5780634b3a14a5146114525780634f35370614611418578063507f1465146113d45780635575e6831461129c57806355c964dd146112585780636728e8f51461121e5780637745100a146111e457806399407cae146111aa5780639b4feb8b14611108578063a0e93f3d146110e1578063b51e77d514610ecc578063b7d766e914610e91578063c66fa6d714610e56578063c74073a114610cf5578063d176613514610c51578063deb2f89714610ac8578063e0c0e61214610a8d578063e1d285fb146109fc578063efbee9c2146109145763f8b8f45c14610173575f80fd5b34610911576020366003190112610911576004356001600160401b03811161067357806004016101606003198336030112610664576101b181611e2d565b803b156109025783809160405160208101906317aa5fb760e11b8252336024820152602481526101e2604482611c32565b51915afa6101ee611d2a565b90159081156108f5575b81156108da575b506108cb57826001600160a01b0361021683611e2d565b16927f00000000000000000000000000000000000000000000000000000000000000006001600160a01b031690813b156106645760405163a14ff85760e01b81528560048201527fa453618257f51fe21f9b4fbb6cda08e7f9cfb56332284c5ed0e77f1f04dea7c1602482015260248201356044820152838160648183875af19081156106c15784916108b6575b5050813b156106645760405163a14ff85760e01b81528560048201527ff0e0229d375f92170465080d2ee41360a8404ebf3cba13a8baded41cab0c8792602482015260448201356044820152838160648183875af19081156106c15784916108a1575b5050813b156106645760405163a14ff85760e01b81528560048201525f516020611ea95f395f51905f52602482015260648201356044820152838160648183875af19081156106c157849161088c575b5050608481016103678186611e41565b9050610828575b5060a4810161037d8186611e73565b905061077a575b5061039260c4820185611e73565b833b156106cc57604051632f67785160e11b8152600481018890527f3e601161f5033bbc12fe9f658a4973a8884571ec9427a513b868b60f1e8f90d460248201526060604482015260648101829052916001600160fb1b0382116107765760808360048193899560051b8091608485013782010103018183875af19081156106c1578491610761575b5050813b156106645760405163a14ff85760e01b8152600481018690527fcdf31a72dca78df91ad6a782605e400bc87258b786d7af8c4d971921e7b4e503602482015260e48201356044820152838160648183875af19081156106c157849161074c575b5050610104810135806106d0575b5061049c610124820185611e73565b90833b156106cc57604051630b15e59f60e01b8152918591839182916104c791908b60048501611dac565b038183875af19081156106c15784916106ac575b5050813b15610664576101446040519163a14ff85760e01b83528660048401527f9ad0adeec8c67bd375f936b09e2f25f6a6cd1d4688a1af3e60fb12559f0cf029602484015201356044820152828160648183865af19081156106a157839161068c575b5050803b1561067357818091606460405180948193631d60084b60e01b83528960048401525f516020611ee95f395f51905f5260248401524260448401525af1801561066857610677575b507f00000000000000000000000000000000000000000000000000000000000000006001600160a01b0316803b156106735781604491604051928380926303b47b6760e11b82527ffff178f418b4b518404e598407e77fb91f21e5a91f73fa78d511e4309bd1974a60048301528860248301525afa80156106685761064f575b507f468a219dcbddcb55b7d4a243ee04530c87f9cd616ccd9ad862b3b1d16ec4332b91602091506001600160a01b039061064390611e2d565b1692604051908152a280f35b8161065991611c32565b61066457825f61060a565b8280fd5b6040513d84823e3d90fd5b5080fd5b8161068191611c32565b61066457825f61058a565b8161069691611c32565b61067357815f61053f565b6040513d85823e3d90fd5b816106b691611c32565b61066457825f6104db565b6040513d86823e3d90fd5b8480fd5b823b156107485760405190631d60084b60e01b82528660048301527f74057c7999bf62bf70861d49ce7d135b3bbabc3f3d00a8380d8b162b51c5098460248301526044820152838160648183875af19081156106c1578491610733575b5061048d565b8161073d91611c32565b61066457825f61072d565b8380fd5b8161075691611c32565b61066457825f61047f565b8161076b91611c32565b61066457825f61041b565b8580fd5b6107849085611e73565b833b156106cc57604051632f67785160e11b8152600481018890527ff63e1c07d1c0f2ad445668d00e25ab361ecf2a02729524e46a0f48cac1a1be1260248201526060604482015260648101829052916001600160fb1b0382116107765760808360048193899560051b8091608485013782010103018183875af19081156106c1578491610813575b50610384565b8161081d91611c32565b61066457825f61080d565b6108329085611e41565b90833b156106cc5760405163235913f560e01b81529185918391829161085d91908b60048501611d59565b038183875af19081156106c1578491610877575b5061036e565b8161088191611c32565b61066457825f610871565b8161089691611c32565b61066457825f610357565b816108ab91611c32565b61066457825f610307565b816108c091611c32565b61066457825f6102a4565b6367d056a760e11b8352600483fd5b6108ee915060208082518301019101611d12565b155f6101ff565b90506020815110906101f8565b6367d056a760e11b8452600484fd5b80fd5b50346109115760203660031901126109115761092e611be3565b604051630df675ff60e21b81526001600160a01b0391821660048201527ff0e0229d375f92170465080d2ee41360a8404ebf3cba13a8baded41cab0c879260248201529190602090839060449082907f0000000000000000000000000000000000000000000000000000000000000000165afa9081156109f057906109b9575b602090604051908152f35b506020813d6020116109e8575b816109d360209383611c32565b810103126109e457602090516109ae565b5f80fd5b3d91506109c6565b604051903d90823e3d90fd5b503461091157602036600319011261091157610a16611be3565b604051633d356c9360e11b81526001600160a01b0391821660048201525f516020611ee95f395f51905f5260248201529190602090839060449082907f0000000000000000000000000000000000000000000000000000000000000000165afa9081156109f057906109b957602090604051908152f35b503461091157806003193601126109115760206040517f1828b838e3a83a59ecaa3f927a8ab1292d9a38819bd95f5974c40552ac98ff408152f35b503461091157604036600319011261091157610ae2611be3565b602435906001600160401b0382116106645736602383011215610664578160040135906001600160401b038211610748573660248360051b8501011161074857803b1561090257838060405160208101906317aa5fb760e11b825233602482015260248152610b52604482611c32565b5190845afa610b5f611d2a565b9015908115610c44575b8115610c29575b50610902576001600160a01b039081169284917f000000000000000000000000000000000000000000000000000000000000000016803b1561066457838391602483610bd59560405196879586948593630b15e59f60e01b8552018c60048501611dac565b03925af1801561066857610c14575b505060207ff94b6c9e0ffb68d28792085b4bd65653658a9d7d6c283c2fe29e1ce4cecd369091604051908152a280f35b81610c1e91611c32565b61066457825f610be4565b610c3d915060208082518301019101611d12565b155f610b70565b9050602081511090610b69565b503461091157602036600319011261091157610c6b611be3565b604051630df675ff60e21b81526001600160a01b0391821660048201527fa453618257f51fe21f9b4fbb6cda08e7f9cfb56332284c5ed0e77f1f04dea7c160248201529190602090839060449082907f0000000000000000000000000000000000000000000000000000000000000000165afa9081156109f057906109b957602090604051908152f35b503461091157602036600319011261091157610d0f611be3565b803b15610e1f57818060405160208101906317aa5fb760e11b825233602482015260248152610d3f604482611c32565b5190845afa610d4c611d2a565b9015908115610e49575b8115610e2e575b50610e1f576001600160a01b039081169082907f000000000000000000000000000000000000000000000000000000000000000016803b1561067357818091606460405180948193631d60084b60e01b83528860048401525f516020611ec95f395f51905f5260248401524260448401525af1801561066857610e0a575b50507f711dc13dc0d55b44aec704a91c510c322588933910cb86d308a195456caa90c56020604051838152a280f35b81610e1491611c32565b61067357815f610ddb565b6367d056a760e11b8252600482fd5b610e42915060208082518301019101611d12565b155f610d5d565b9050602081511090610d56565b503461091157806003193601126109115760206040517f9ad0adeec8c67bd375f936b09e2f25f6a6cd1d4688a1af3e60fb12559f0cf0298152f35b503461091157806003193601126109115760206040517ff0e0229d375f92170465080d2ee41360a8404ebf3cba13a8baded41cab0c87928152f35b50346109e45760603660031901126109e457610ee6611be3565b602435604435916001600160401b0383116109e457366023840112156109e4578260040135906001600160401b0382116109e45736602483860101116109e457803b156110aa575f8060405160208101906317aa5fb760e11b825233602482015260248152610f56604482611c32565b5190845afa610f63611d2a565b90159081156110d4575b81156110b9575b506110aa576001600160a01b03908116937f000000000000000000000000000000000000000000000000000000000000000090911691823b156109e45760405163a14ff85760e01b81528560048201525f516020611ea95f395f51905f5260248201528460448201525f8160648183885af1801561109f57611086575b50908186939261102c575b83867fcbf08a04978e47b6323427f0c433e9f7cfae25246b5d0d8016d247d8b8ab392f602088604051908152a280f35b823b156107485761105b9260248580946040519687958694859363235913f560e01b8552018c60048501611d59565b03925af1801561066857611071575b8080610ffc565b8161107b91611c32565b61066457825f61106a565b61109591939296505f90611c32565b5f9490915f610ff1565b6040513d5f823e3d90fd5b6367d056a760e11b5f5260045ffd5b6110cd915060208082518301019101611d12565b155f610f74565b9050602081511090610f6d565b346109e4575f3660031901126109e45760206040515f516020611ee95f395f51905f528152f35b346109e45760203660031901126109e457611121611be3565b604051630df675ff60e21b81526001600160a01b0391821660048201527f9ad0adeec8c67bd375f936b09e2f25f6a6cd1d4688a1af3e60fb12559f0cf029602482015290602090829060449082907f0000000000000000000000000000000000000000000000000000000000000000165afa801561109f575f906109b957602090604051908152f35b346109e4575f3660031901126109e45760206040517fa453618257f51fe21f9b4fbb6cda08e7f9cfb56332284c5ed0e77f1f04dea7c18152f35b346109e4575f3660031901126109e45760206040517f3e601161f5033bbc12fe9f658a4973a8884571ec9427a513b868b60f1e8f90d48152f35b346109e4575f3660031901126109e45760206040517f74057c7999bf62bf70861d49ce7d135b3bbabc3f3d00a8380d8b162b51c509848152f35b346109e4575f3660031901126109e4576040517f00000000000000000000000000000000000000000000000000000000000000006001600160a01b03168152602090f35b346109e45760203660031901126109e4576001600160a01b036112bd611be3565b60405163bb6b0c3b60e01b81529116600482018190525f516020611ee95f395f51905f5260248301527f00000000000000000000000000000000000000000000000000000000000000006001600160a01b03169190602082604481865afa91821561109f575f926113b3575b508161133d575b6020826040519015158152f35b6020915060446040518094819363bb6b0c3b60e01b835260048301525f516020611ec95f395f51905f5260248301525afa801561109f576020915f91611386575b501582611330565b6113a69150823d84116113ac575b61139e8183611c32565b810190611d12565b8261137e565b503d611394565b6113cd91925060203d6020116113ac5761139e8183611c32565b9083611329565b346109e4575f3660031901126109e4576040517f00000000000000000000000000000000000000000000000000000000000000006001600160a01b03168152602090f35b346109e4575f3660031901126109e45760206040517f560892de408e4f4a884360c3b835fec89cddb776a04d04db65dc7dec56e396948152f35b346109e4575f3660031901126109e45760206040517ffff178f418b4b518404e598407e77fb91f21e5a91f73fa78d511e4309bd1974a8152f35b346109e45760203660031901126109e4576114a5611be3565b604051630df675ff60e21b81526001600160a01b0391821660048201527fcdf31a72dca78df91ad6a782605e400bc87258b786d7af8c4d971921e7b4e503602482015290602090829060449082907f0000000000000000000000000000000000000000000000000000000000000000165afa801561109f575f906109b957602090604051908152f35b346109e45760203660031901126109e457611547611be3565b604051632041c21f60e11b81526001600160a01b0391821660048201527ff63e1c07d1c0f2ad445668d00e25ab361ecf2a02729524e46a0f48cac1a1be126024820152905f90829060449082907f0000000000000000000000000000000000000000000000000000000000000000165afa801561109f576115d6915f916115da575b5060405191829182611bf9565b0390f35b6115f691503d805f833e6115ee8183611c32565b810190611c99565b826115c9565b346109e45760203660031901126109e457611615611be3565b604051632041c21f60e11b81526001600160a01b0391821660048201527f3e601161f5033bbc12fe9f658a4973a8884571ec9427a513b868b60f1e8f90d46024820152905f90829060449082907f0000000000000000000000000000000000000000000000000000000000000000165afa801561109f576115d6915f916115da575060405191829182611bf9565b346109e45760203660031901126109e4576001600160a01b036116c4611be3565b604051630df675ff60e21b81529116600482018190525f516020611ea95f395f51905f5260248301527f00000000000000000000000000000000000000000000000000000000000000006001600160a01b03169190602082604481865afa91821561109f575f92611837575b505f906044604051809581936331477b9b60e01b835260048301527f560892de408e4f4a884360c3b835fec89cddb776a04d04db65dc7dec56e3969460248301525afa91821561109f575f926117ba575b50606090602060405193849283526040828401528051918291826040860152018484015e5f828201840152601f01601f19168101030190f35b9091503d805f833e6117cc8183611c32565b8101906020818303126109e4578051906001600160401b0382116109e457019080601f830112156109e457815161180281611c7e565b916118106040519384611c32565b818352602082850101116109e4576020815f9282606096018386015e830101529190611781565b9091506020813d602011611863575b8161185360209383611c32565b810103126109e45751905f611730565b3d9150611846565b346109e4575f3660031901126109e45760206040515f516020611ea95f395f51905f528152f35b346109e45760203660031901126109e4576118ab611be3565b604051633d356c9360e11b81526001600160a01b0391821660048201525f516020611ec95f395f51905f52602482015290602090829060449082907f0000000000000000000000000000000000000000000000000000000000000000165afa801561109f575f906109b957602090604051908152f35b346109e4575f3660031901126109e45760206040517fcdf31a72dca78df91ad6a782605e400bc87258b786d7af8c4d971921e7b4e5038152f35b346109e4575f3660031901126109e45760206040515f516020611ec95f395f51905f528152f35b346109e45760203660031901126109e45761199b611be3565b604051633d356c9360e11b81526001600160a01b0391821660048201527f74057c7999bf62bf70861d49ce7d135b3bbabc3f3d00a8380d8b162b51c50984602482015290602090829060449082907f0000000000000000000000000000000000000000000000000000000000000000165afa801561109f575f906109b957602090604051908152f35b346109e45760203660031901126109e457611a3d611be3565b60405163e4281bc360e01b81526001600160a01b0391821660048201527f1828b838e3a83a59ecaa3f927a8ab1292d9a38819bd95f5974c40552ac98ff406024820152905f90829060449082907f0000000000000000000000000000000000000000000000000000000000000000165afa90811561109f575f91611b0a575b506040518091602082016020835281518091526020604084019201905f5b818110611ae8575050500390f35b82516001600160a01b0316845285945060209384019390920191600101611ada565b90503d805f833e611b1b8183611c32565b8101906020818303126109e4578051906001600160401b0382116109e457019080601f830112156109e457815190611b5282611c67565b92611b606040519485611c32565b82845260208085019360051b8201019182116109e457602001915b818310611b8b5750505081611abc565b82516001600160a01b03811681036109e457815260209283019201611b7b565b346109e4575f3660031901126109e457807ff63e1c07d1c0f2ad445668d00e25ab361ecf2a02729524e46a0f48cac1a1be1260209252f35b600435906001600160a01b03821682036109e457565b60206040818301928281528451809452019201905f5b818110611c1c5750505090565b8251845260209384019390920191600101611c0f565b90601f801991011681019081106001600160401b03821117611c5357604052565b634e487b7160e01b5f52604160045260245ffd5b6001600160401b038111611c535760051b60200190565b6001600160401b038111611c5357601f01601f191660200190565b6020818303126109e4578051906001600160401b0382116109e457019080601f830112156109e4578151611ccc81611c67565b92611cda6040519485611c32565b81845260208085019260051b8201019283116109e457602001905b828210611d025750505090565b8151815260209182019101611cf5565b908160209103126109e4575180151581036109e45790565b3d15611d54573d90611d3b82611c7e565b91611d496040519384611c32565b82523d5f602084013e565b606090565b9192608093819284527f560892de408e4f4a884360c3b835fec89cddb776a04d04db65dc7dec56e39694602085015260606040850152816060850152848401375f828201840152601f01601f1916010190565b9081527f1828b838e3a83a59ecaa3f927a8ab1292d9a38819bd95f5974c40552ac98ff4060208201526060604082018190528101839052608001915f905b808210611df75750505090565b91929091908335906001600160a01b03821682036109e4576001600160a01b039091168152602090810193019160010190611dea565b356001600160a01b03811681036109e45790565b903590601e19813603018212156109e457018035906001600160401b0382116109e4576020019181360383136109e457565b903590601e19813603018212156109e457018035906001600160401b0382116109e457602001918160051b360383136109e45756fec355d5c0889faaeaa00982ea1690818b419c519e3ad720a59bf75c810dd5293c4715ead2f7345b1f1ce0e319173023b626c0e29857263e413a96452b915689e33148f7b65db6da35c442b6aefa8008218ac8bc67d6a142a83da48cc563d0d047a26469706673582212200b00c8f4b32956b74e467dc6b684f0623477b77e0b5348aeeb899475ffbcbce164736f6c634300081c0033","linkReferences":{}},"methodIdentifiers":{"CLASS_POOL()":"4b3a14a5","SA_POOL_ACCEPTED_KINDS()":"7745100a","SA_POOL_ACCEPTED_UNITS()":"066a8647","SA_POOL_CAPACITY_CEILING()":"6728e8f5","SA_POOL_CEILING_POLICY()":"17bcfb6e","SA_POOL_CLOSED_AT()":"16daf14b","SA_POOL_DOMAIN()":"99407cae","SA_POOL_GOVERNANCE_MODEL()":"b7d766e9","SA_POOL_MANDATE_HASH()":"29928c23","SA_POOL_MANDATE_URI()":"4f353706","SA_POOL_OPENED_AT()":"a0e93f3d","SA_POOL_STEWARDS()":"e0c0e612","SA_POOL_VISIBILITY()":"c66fa6d7","SHAPES()":"55c964dd","STORE()":"507f1465","close(address)":"c74073a1","getAcceptedKinds(address)":"354de8f1","getAcceptedUnits(address)":"4412dd62","getCapacityCeiling(address)":"11e45d16","getCeilingPolicy(address)":"494b8b89","getClosedAt(address)":"1bf7a704","getDomain(address)":"d1766135","getGovernanceModel(address)":"efbee9c2","getMandate(address)":"30bee5d0","getOpenedAt(address)":"e1d285fb","getStewards(address)":"0909d83a","getVisibility(address)":"9b4feb8b","isOpen(address)":"5575e683","open((address,bytes32,bytes32,bytes32,string,bytes32[],bytes32[],bytes32,uint256,address[],bytes32))":"f8b8f45c","rotateStewards(address,address[])":"deb2f897","updateMandate(address,bytes32,string)":"b51e77d5"},"id":98}