{"abi":[{"type":"constructor","inputs":[{"name":"entryPoint_","type":"address","internalType":"contract IEntryPoint"}],"stateMutability":"nonpayable"},{"type":"receive","stateMutability":"payable"},{"type":"function","name":"UPGRADE_INTERFACE_VERSION","inputs":[],"outputs":[{"name":"","type":"string","internalType":"string"}],"stateMutability":"view"},{"type":"function","name":"addOwner","inputs":[{"name":"owner","type":"address","internalType":"address"}],"outputs":[],"stateMutability":"nonpayable"},{"type":"function","name":"delegationManager","inputs":[],"outputs":[{"name":"","type":"address","internalType":"address"}],"stateMutability":"view"},{"type":"function","name":"entryPoint","inputs":[],"outputs":[{"name":"","type":"address","internalType":"contract IEntryPoint"}],"stateMutability":"view"},{"type":"function","name":"execute","inputs":[{"name":"target","type":"address","internalType":"address"},{"name":"value","type":"uint256","internalType":"uint256"},{"name":"data","type":"bytes","internalType":"bytes"}],"outputs":[],"stateMutability":"nonpayable"},{"type":"function","name":"executeBatch","inputs":[{"name":"calls","type":"tuple[]","internalType":"struct BaseAccount.Call[]","components":[{"name":"target","type":"address","internalType":"address"},{"name":"value","type":"uint256","internalType":"uint256"},{"name":"data","type":"bytes","internalType":"bytes"}]}],"outputs":[],"stateMutability":"nonpayable"},{"type":"function","name":"getNonce","inputs":[],"outputs":[{"name":"","type":"uint256","internalType":"uint256"}],"stateMutability":"view"},{"type":"function","name":"initialize","inputs":[{"name":"initialOwner","type":"address","internalType":"address"},{"name":"serverSigner","type":"address","internalType":"address"},{"name":"dm","type":"address","internalType":"address"}],"outputs":[],"stateMutability":"nonpayable"},{"type":"function","name":"isOwner","inputs":[{"name":"account","type":"address","internalType":"address"}],"outputs":[{"name":"","type":"bool","internalType":"bool"}],"stateMutability":"view"},{"type":"function","name":"isValidSignature","inputs":[{"name":"hash","type":"bytes32","internalType":"bytes32"},{"name":"signature","type":"bytes","internalType":"bytes"}],"outputs":[{"name":"","type":"bytes4","internalType":"bytes4"}],"stateMutability":"view"},{"type":"function","name":"ownerCount","inputs":[],"outputs":[{"name":"","type":"uint256","internalType":"uint256"}],"stateMutability":"view"},{"type":"function","name":"proxiableUUID","inputs":[],"outputs":[{"name":"","type":"bytes32","internalType":"bytes32"}],"stateMutability":"view"},{"type":"function","name":"removeOwner","inputs":[{"name":"owner","type":"address","internalType":"address"}],"outputs":[],"stateMutability":"nonpayable"},{"type":"function","name":"setDelegationManager","inputs":[{"name":"dm","type":"address","internalType":"address"}],"outputs":[],"stateMutability":"nonpayable"},{"type":"function","name":"upgradeToAndCall","inputs":[{"name":"newImplementation","type":"address","internalType":"address"},{"name":"data","type":"bytes","internalType":"bytes"}],"outputs":[],"stateMutability":"payable"},{"type":"function","name":"validateUserOp","inputs":[{"name":"userOp","type":"tuple","internalType":"struct PackedUserOperation","components":[{"name":"sender","type":"address","internalType":"address"},{"name":"nonce","type":"uint256","internalType":"uint256"},{"name":"initCode","type":"bytes","internalType":"bytes"},{"name":"callData","type":"bytes","internalType":"bytes"},{"name":"accountGasLimits","type":"bytes32","internalType":"bytes32"},{"name":"preVerificationGas","type":"uint256","internalType":"uint256"},{"name":"gasFees","type":"bytes32","internalType":"bytes32"},{"name":"paymasterAndData","type":"bytes","internalType":"bytes"},{"name":"signature","type":"bytes","internalType":"bytes"}]},{"name":"userOpHash","type":"bytes32","internalType":"bytes32"},{"name":"missingAccountFunds","type":"uint256","internalType":"uint256"}],"outputs":[{"name":"validationData","type":"uint256","internalType":"uint256"}],"stateMutability":"nonpayable"},{"type":"function","name":"version","inputs":[],"outputs":[{"name":"","type":"string","internalType":"string"}],"stateMutability":"pure"},{"type":"event","name":"Initialized","inputs":[{"name":"version","type":"uint64","indexed":false,"internalType":"uint64"}],"anonymous":false},{"type":"event","name":"OwnerAdded","inputs":[{"name":"owner","type":"address","indexed":true,"internalType":"address"}],"anonymous":false},{"type":"event","name":"OwnerRemoved","inputs":[{"name":"owner","type":"address","indexed":true,"internalType":"address"}],"anonymous":false},{"type":"event","name":"Upgraded","inputs":[{"name":"implementation","type":"address","indexed":true,"internalType":"address"}],"anonymous":false},{"type":"error","name":"AddressEmptyCode","inputs":[{"name":"target","type":"address","internalType":"address"}]},{"type":"error","name":"CannotRemoveLastOwner","inputs":[]},{"type":"error","name":"ECDSAInvalidSignature","inputs":[]},{"type":"error","name":"ECDSAInvalidSignatureLength","inputs":[{"name":"length","type":"uint256","internalType":"uint256"}]},{"type":"error","name":"ECDSAInvalidSignatureS","inputs":[{"name":"s","type":"bytes32","internalType":"bytes32"}]},{"type":"error","name":"ERC1967InvalidImplementation","inputs":[{"name":"implementation","type":"address","internalType":"address"}]},{"type":"error","name":"ERC1967NonPayable","inputs":[]},{"type":"error","name":"ExecuteError","inputs":[{"name":"index","type":"uint256","internalType":"uint256"},{"name":"error","type":"bytes","internalType":"bytes"}]},{"type":"error","name":"FailedCall","inputs":[]},{"type":"error","name":"InvalidInitialization","inputs":[]},{"type":"error","name":"NotFromEntryPoint","inputs":[{"name":"msgSender","type":"address","internalType":"address"},{"name":"entity","type":"address","internalType":"address"},{"name":"entryPoint","type":"address","internalType":"address"}]},{"type":"error","name":"NotFromSelf","inputs":[]},{"type":"error","name":"NotInitializing","inputs":[]},{"type":"error","name":"NotOwnerOrSelf","inputs":[]},{"type":"error","name":"OwnerAlreadyExists","inputs":[{"name":"owner","type":"address","internalType":"address"}]},{"type":"error","name":"OwnerDoesNotExist","inputs":[{"name":"owner","type":"address","internalType":"address"}]},{"type":"error","name":"UUPSUnauthorizedCallContext","inputs":[]},{"type":"error","name":"UUPSUnsupportedProxiableUUID","inputs":[{"name":"slot","type":"bytes32","internalType":"bytes32"}]},{"type":"error","name":"ZeroAddress","inputs":[]}],"bytecode":{"object":"0x60c03461012b57601f61122138819003918201601f19168301916001600160401b0383118484101761012f5780849260209460405283398101031261012b57516001600160a01b038116810361012b573060805260a0525f5160206112015f395f51905f525460ff8160401c1661011c576002600160401b03196001600160401b038216016100c6575b6040516110bd9081610144823960805181818161061d01526106c1015260a05181818161013f0152818161048401528181610a340152610e140152f35b6001600160401b0319166001600160401b039081175f5160206112015f395f51905f52556040519081527fc7f505b2f371ae2175ee4913f4499e1f2633a7b5936321eed1cdaeb6115181d290602090a15f610089565b63f92ee8a960e01b5f5260045ffd5b5f80fd5b634e487b7160e01b5f52604160045260245ffdfe608080604052600436101561001c575b50361561001a575f80fd5b005b5f3560e01c9081630db0262214610be1575080631626ba7e14610b8f578063173825d914610adc57806319822f7c146109fd5780631a8d0de21461098f5780632f54bf6e1461095257806334fcd5be1461083c5780634f1ef2861461067157806352d1902d1461060b57806354fd4d50146105c45780637065cb48146104fe578063ad3cb1cc146104b3578063b0d691fe1461046f578063b61d27f6146103f8578063c0c53b8b146101bf578063d087d2881461010e5763ea4d3c9b146100e3575f61000f565b3461010a575f36600319011261010a575f546040516001600160a01b039091168152602090f35b5f80fd5b3461010a575f36600319011261010a57604051631aab3f0d60e11b81523060048201525f60248201526020816044817f00000000000000000000000000000000000000000000000000000000000000006001600160a01b03165afa80156101b4575f90610181575b602090604051908152f35b506020813d6020116101ac575b8161019b60209383610c3f565b8101031261010a5760209051610176565b3d915061018e565b6040513d5f823e3d90fd5b3461010a57606036600319011261010a576101d8610c29565b6024356001600160a01b038116919082900361010a576044356001600160a01b0381169081900361010a575f5160206110685f395f51905f52549160ff8360401c16159267ffffffffffffffff8116801590816103f0575b60011490816103e6575b1590816103dd575b506103ce5767ffffffffffffffff1981166001175f5160206110685f395f51905f5255836103a2575b506001600160a01b031692831561039357835f52600160205260405f20600160ff19825416179055600160025560405193807f994a936646fe87ffe4f1e469d3d6aa417d6b855598397f323de5b449f765f0c35f80a28115159081610388575b50610343575b506bffffffffffffffffffffffff60a01b5f5416175f556102ee57005b60207fc7f505b2f371ae2175ee4913f4499e1f2633a7b5936321eed1cdaeb6115181d29168ff0000000000000000195f5160206110685f395f51905f5254165f5160206110685f395f51905f525560018152a1005b805f52600160205260405f20600160ff19825416179055600280557f994a936646fe87ffe4f1e469d3d6aa417d6b855598397f323de5b449f765f0c35f80a2836102d1565b9050811415856102cb565b63d92e233d60e01b5f5260045ffd5b68ffffffffffffffffff191668010000000000000001175f5160206110685f395f51905f52558461026b565b63f92ee8a960e01b5f5260045ffd5b90501586610242565b303b15915061023a565b859150610230565b3461010a57606036600319011261010a57610411610c29565b6044359067ffffffffffffffff821161010a575f61044b8192610438853690600401610bfb565b9290610442610e12565b5a933691610c91565b916020835193019160243591f11561045f57005b610467610e71565b602081519101fd5b3461010a575f36600319011261010a576040517f00000000000000000000000000000000000000000000000000000000000000006001600160a01b03168152602090f35b3461010a575f36600319011261010a576104fa6040516104d4604082610c3f565b60058152640352e302e360dc1b6020820152604051918291602083526020830190610cc7565b0390f35b3461010a57602036600319011261010a57610517610c29565b3033036105b5576001600160a01b0316801561039357805f52600160205260ff60405f2054166105a357805f52600160205260405f20600160ff198254161790556002545f19811461058f576001016002557f994a936646fe87ffe4f1e469d3d6aa417d6b855598397f323de5b449f765f0c35f80a2005b634e487b7160e01b5f52601160045260245ffd5b6316e832e960e21b5f5260045260245ffd5b63295d6e8760e21b5f5260045ffd5b3461010a575f36600319011261010a576104fa6040516105e5604082610c3f565b60058152640322e302e360dc1b6020820152604051918291602083526020830190610cc7565b3461010a575f36600319011261010a577f00000000000000000000000000000000000000000000000000000000000000006001600160a01b031630036106625760206040515f5160206110485f395f51905f528152f35b63703e46dd60e11b5f5260045ffd5b604036600319011261010a57610685610c29565b60243567ffffffffffffffff811161010a573660238201121561010a576106b6903690602481600401359101610c91565b906001600160a01b037f00000000000000000000000000000000000000000000000000000000000000001630811490811561081a575b50610662573033036105b5576040516352d1902d60e01b81526001600160a01b0382169290602081600481875afa5f91816107e6575b5061073a5783634c9c8ce360e01b5f5260045260245ffd5b805f5160206110485f395f51905f528592036107d45750823b156107c2575f5160206110485f395f51905f5280546001600160a01b031916821790557fbc7cd75a20ee27fd9adebab32041f755214dbc6bffa90cc0225b39da2e5c2d3b5f80a28051156107aa5761001a91610fbb565b5050346107b357005b63b398979f60e01b5f5260045ffd5b634c9c8ce360e01b5f5260045260245ffd5b632a87526960e21b5f5260045260245ffd5b9091506020813d602011610812575b8161080260209383610c3f565b8101031261010a57519085610722565b3d91506107f5565b5f5160206110485f395f51905f52546001600160a01b031614159050836106ec565b3461010a57602036600319011261010a5760043567ffffffffffffffff811161010a573660238201121561010a57806004013567ffffffffffffffff811161010a573660248260051b8401011161010a57610895610e12565b36829003608219015f5b8281101561001a5760248160051b850101358281121561010a5784016024810180356001600160a01b038116810361010a57826108f16108e65f9594606487960190610d6d565b91905a923691610c91565b92604460208551950193013591f11561090c5760010161089f565b6001830361091c57610467610e71565b610924610e71565b9061094e604051928392635a15467560e01b84526004840152604060248401526044830190610cc7565b0390fd5b3461010a57602036600319011261010a576001600160a01b03610973610c29565b165f526001602052602060ff60405f2054166040519015158152f35b3461010a57602036600319011261010a576109a8610c29565b30331415806109e6575b6109d7575f80546001600160a01b0319166001600160a01b0392909216919091179055005b6330a0953960e21b5f5260045ffd5b50335f52600160205260ff60405f205416156109b2565b3461010a57606036600319011261010a5760043567ffffffffffffffff811161010a57610120600319823603011261010a576044357f00000000000000000000000000000000000000000000000000000000000000006001600160a01b031633819003610ac25750610a7760209260243590600401610da0565b9080610a87575b50604051908152f35b5f80808093335af1503d15610abd573d610aa081610c75565b90610aae6040519283610c3f565b81525f833d92013e5b82610a7e565b610ab7565b63fe34a6d360e01b5f52336004523060245260445260645ffd5b3461010a57602036600319011261010a57610af5610c29565b3033036105b5576001600160a01b03165f8181526001602052604090205460ff1615610b7d57600160025414610b6e57805f52600160205260405f2060ff198154169055600254801561058f575f19016002557f58619076adf5bb0943d100ef88d52d7c3fd691b19d3a9071b555b651fbf418da5f80a2005b632352e49760e21b5f5260045ffd5b63298f10e760e11b5f5260045260245ffd5b3461010a57604036600319011261010a5760243567ffffffffffffffff811161010a57610bce610bc56020923690600401610bfb565b90600435610ceb565b6040516001600160e01b03199091168152f35b3461010a575f36600319011261010a576020906002548152f35b9181601f8401121561010a5782359167ffffffffffffffff831161010a576020838186019501011161010a57565b600435906001600160a01b038216820361010a57565b90601f8019910116810190811067ffffffffffffffff821117610c6157604052565b634e487b7160e01b5f52604160045260245ffd5b67ffffffffffffffff8111610c6157601f01601f191660200190565b929192610c9d82610c75565b91610cab6040519384610c3f565b82948184528183011161010a578281602093845f960137010152565b805180835260209291819084018484015e5f828201840152601f01601f1916010190565b91610d29610d2f92610d38947f19457468657265756d205369676e6564204d6573736167653a0a3332000000005f52601c52603c5f20923691610c91565b90610e8b565b90929192610ec5565b6001600160a01b03165f9081526001602052604090205460ff16610d62576001600160e01b031990565b630b135d3f60e11b90565b903590601e198136030182121561010a570180359067ffffffffffffffff821161010a5760200191813603831361010a57565b610d2f90610deb927f19457468657265756d205369676e6564204d6573736167653a0a3332000000005f52601c52610d29610de4603c5f2092610100810190610d6d565b3691610c91565b6001600160a01b03165f9081526001602052604090205460ff16610e0e57600190565b5f90565b7f00000000000000000000000000000000000000000000000000000000000000006001600160a01b03163381141580610e67575b80610e53575b610ac25750565b505f546001600160a01b0316331415610e4c565b5030331415610e46565b3d604051906020818301016040528082525f602083013e90565b8151919060418303610ebb57610eb49250602082015190606060408401519301515f1a90610f39565b9192909190565b50505f9160029190565b6004811015610f255780610ed7575050565b60018103610eee5763f645eedf60e01b5f5260045ffd5b60028103610f09575063fce698f760e01b5f5260045260245ffd5b600314610f135750565b6335e2f38360e21b5f5260045260245ffd5b634e487b7160e01b5f52602160045260245ffd5b91907f7fffffffffffffffffffffffffffffff5d576e7357a4501ddfe92f46681b20a08411610fb0579160209360809260ff5f9560405194855216868401526040830152606082015282805260015afa156101b4575f516001600160a01b03811615610fa657905f905f90565b505f906001905f90565b5050505f9160039190565b905f8091602081519101845af48080611034575b15610fef5750506040513d81523d5f602083013e60203d82010160405290565b1561101457639996b31560e01b5f9081526001600160a01b0391909116600452602490fd5b3d15611025576040513d5f823e3d90fd5b63d6bda27560e01b5f5260045ffd5b503d151580610fcf5750813b1515610fcf56fe360894a13ba1a3210667c828492db98dca3e2076cc3735a920a3ca505d382bbcf0c57e16840df040f15088dc2f81fe391c3923bec73e23a9662efc9c229c6a00a26469706673582212206d8b7467e365cae8d60a6fb0a6ac910915153fb294bbc7044f24c4a2447d765664736f6c634300081c0033f0c57e16840df040f15088dc2f81fe391c3923bec73e23a9662efc9c229c6a00","linkReferences":{}},"methodIdentifiers":{"UPGRADE_INTERFACE_VERSION()":"ad3cb1cc","addOwner(address)":"7065cb48","delegationManager()":"ea4d3c9b","entryPoint()":"b0d691fe","execute(address,uint256,bytes)":"b61d27f6","executeBatch((address,uint256,bytes)[])":"34fcd5be","getNonce()":"d087d288","initialize(address,address,address)":"c0c53b8b","isOwner(address)":"2f54bf6e","isValidSignature(bytes32,bytes)":"1626ba7e","ownerCount()":"0db02622","proxiableUUID()":"52d1902d","removeOwner(address)":"173825d9","setDelegationManager(address)":"1a8d0de2","upgradeToAndCall(address,bytes)":"4f1ef286","validateUserOp((address,uint256,bytes,bytes,bytes32,uint256,bytes32,bytes,bytes),bytes32,uint256)":"19822f7c","version()":"54fd4d50"},"id":65}