{"abi":[{"type":"constructor","inputs":[{"name":"entryPoint_","type":"address","internalType":"contract IEntryPoint"}],"stateMutability":"nonpayable"},{"type":"receive","stateMutability":"payable"},{"type":"function","name":"UPGRADE_INTERFACE_VERSION","inputs":[],"outputs":[{"name":"","type":"string","internalType":"string"}],"stateMutability":"view"},{"type":"function","name":"accountId","inputs":[],"outputs":[{"name":"","type":"string","internalType":"string"}],"stateMutability":"pure"},{"type":"function","name":"addOwner","inputs":[{"name":"owner","type":"address","internalType":"address"}],"outputs":[],"stateMutability":"nonpayable"},{"type":"function","name":"delegationManager","inputs":[],"outputs":[{"name":"","type":"address","internalType":"address"}],"stateMutability":"view"},{"type":"function","name":"entryPoint","inputs":[],"outputs":[{"name":"","type":"address","internalType":"contract IEntryPoint"}],"stateMutability":"view"},{"type":"function","name":"execute","inputs":[{"name":"target","type":"address","internalType":"address"},{"name":"value","type":"uint256","internalType":"uint256"},{"name":"data","type":"bytes","internalType":"bytes"}],"outputs":[],"stateMutability":"nonpayable"},{"type":"function","name":"executeBatch","inputs":[{"name":"calls","type":"tuple[]","internalType":"struct BaseAccount.Call[]","components":[{"name":"target","type":"address","internalType":"address"},{"name":"value","type":"uint256","internalType":"uint256"},{"name":"data","type":"bytes","internalType":"bytes"}]}],"outputs":[],"stateMutability":"nonpayable"},{"type":"function","name":"getNonce","inputs":[],"outputs":[{"name":"","type":"uint256","internalType":"uint256"}],"stateMutability":"view"},{"type":"function","name":"initialize","inputs":[{"name":"initialOwner","type":"address","internalType":"address"},{"name":"serverSigner","type":"address","internalType":"address"},{"name":"dm","type":"address","internalType":"address"}],"outputs":[],"stateMutability":"nonpayable"},{"type":"function","name":"isOwner","inputs":[{"name":"account","type":"address","internalType":"address"}],"outputs":[{"name":"","type":"bool","internalType":"bool"}],"stateMutability":"view"},{"type":"function","name":"isValidSignature","inputs":[{"name":"hash","type":"bytes32","internalType":"bytes32"},{"name":"signature","type":"bytes","internalType":"bytes"}],"outputs":[{"name":"","type":"bytes4","internalType":"bytes4"}],"stateMutability":"view"},{"type":"function","name":"ownerCount","inputs":[],"outputs":[{"name":"","type":"uint256","internalType":"uint256"}],"stateMutability":"view"},{"type":"function","name":"proxiableUUID","inputs":[],"outputs":[{"name":"","type":"bytes32","internalType":"bytes32"}],"stateMutability":"view"},{"type":"function","name":"removeOwner","inputs":[{"name":"owner","type":"address","internalType":"address"}],"outputs":[],"stateMutability":"nonpayable"},{"type":"function","name":"setDelegationManager","inputs":[{"name":"dm","type":"address","internalType":"address"}],"outputs":[],"stateMutability":"nonpayable"},{"type":"function","name":"upgradeToAndCall","inputs":[{"name":"newImplementation","type":"address","internalType":"address"},{"name":"data","type":"bytes","internalType":"bytes"}],"outputs":[],"stateMutability":"payable"},{"type":"function","name":"validateUserOp","inputs":[{"name":"userOp","type":"tuple","internalType":"struct PackedUserOperation","components":[{"name":"sender","type":"address","internalType":"address"},{"name":"nonce","type":"uint256","internalType":"uint256"},{"name":"initCode","type":"bytes","internalType":"bytes"},{"name":"callData","type":"bytes","internalType":"bytes"},{"name":"accountGasLimits","type":"bytes32","internalType":"bytes32"},{"name":"preVerificationGas","type":"uint256","internalType":"uint256"},{"name":"gasFees","type":"bytes32","internalType":"bytes32"},{"name":"paymasterAndData","type":"bytes","internalType":"bytes"},{"name":"signature","type":"bytes","internalType":"bytes"}]},{"name":"userOpHash","type":"bytes32","internalType":"bytes32"},{"name":"missingAccountFunds","type":"uint256","internalType":"uint256"}],"outputs":[{"name":"validationData","type":"uint256","internalType":"uint256"}],"stateMutability":"nonpayable"},{"type":"function","name":"version","inputs":[],"outputs":[{"name":"","type":"string","internalType":"string"}],"stateMutability":"pure"},{"type":"event","name":"Initialized","inputs":[{"name":"version","type":"uint64","indexed":false,"internalType":"uint64"}],"anonymous":false},{"type":"event","name":"OwnerAdded","inputs":[{"name":"owner","type":"address","indexed":true,"internalType":"address"}],"anonymous":false},{"type":"event","name":"OwnerRemoved","inputs":[{"name":"owner","type":"address","indexed":true,"internalType":"address"}],"anonymous":false},{"type":"event","name":"Upgraded","inputs":[{"name":"implementation","type":"address","indexed":true,"internalType":"address"}],"anonymous":false},{"type":"error","name":"AddressEmptyCode","inputs":[{"name":"target","type":"address","internalType":"address"}]},{"type":"error","name":"CannotRemoveLastOwner","inputs":[]},{"type":"error","name":"ECDSAInvalidSignature","inputs":[]},{"type":"error","name":"ECDSAInvalidSignatureLength","inputs":[{"name":"length","type":"uint256","internalType":"uint256"}]},{"type":"error","name":"ECDSAInvalidSignatureS","inputs":[{"name":"s","type":"bytes32","internalType":"bytes32"}]},{"type":"error","name":"ERC1967InvalidImplementation","inputs":[{"name":"implementation","type":"address","internalType":"address"}]},{"type":"error","name":"ERC1967NonPayable","inputs":[]},{"type":"error","name":"ExecuteError","inputs":[{"name":"index","type":"uint256","internalType":"uint256"},{"name":"error","type":"bytes","internalType":"bytes"}]},{"type":"error","name":"FailedCall","inputs":[]},{"type":"error","name":"InvalidInitialization","inputs":[]},{"type":"error","name":"NotFromEntryPoint","inputs":[{"name":"msgSender","type":"address","internalType":"address"},{"name":"entity","type":"address","internalType":"address"},{"name":"entryPoint","type":"address","internalType":"address"}]},{"type":"error","name":"NotFromSelf","inputs":[]},{"type":"error","name":"NotInitializing","inputs":[]},{"type":"error","name":"NotOwnerOrSelf","inputs":[]},{"type":"error","name":"OwnerAlreadyExists","inputs":[{"name":"owner","type":"address","internalType":"address"}]},{"type":"error","name":"OwnerDoesNotExist","inputs":[{"name":"owner","type":"address","internalType":"address"}]},{"type":"error","name":"UUPSUnauthorizedCallContext","inputs":[]},{"type":"error","name":"UUPSUnsupportedProxiableUUID","inputs":[{"name":"slot","type":"bytes32","internalType":"bytes32"}]},{"type":"error","name":"ZeroAddress","inputs":[]}],"bytecode":{"object":"0x60c03461012b57601f6113a438819003918201601f19168301916001600160401b0383118484101761012f5780849260209460405283398101031261012b57516001600160a01b038116810361012b573060805260a0525f5160206113845f395f51905f525460ff8160401c1661011c576002600160401b03196001600160401b038216016100c6575b604051611240908161014482396080518181816106850152610717015260a05181818161014a0152818161048d01528181610a870152610f970152f35b6001600160401b0319166001600160401b039081175f5160206113845f395f51905f52556040519081527fc7f505b2f371ae2175ee4913f4499e1f2633a7b5936321eed1cdaeb6115181d290602090a15f610089565b63f92ee8a960e01b5f5260045ffd5b5f80fd5b634e487b7160e01b5f52604160045260245ffdfe608080604052600436101561001c575b50361561001a575f80fd5b005b5f3560e01c9081630db0262214610c33575080631626ba7e14610be2578063173825d914610b2f57806319822f7c14610a515780631a8d0de2146109e35780632f54bf6e146109a657806334fcd5be146108925780634f1ef286146106d957806352d1902d1461067357806354fd4d501461062c5780637065cb48146105665780639cfd7cff14610507578063ad3cb1cc146104bc578063b0d691fe14610478578063b61d27f614610402578063c0c53b8b146101ca578063d087d288146101195763ea4d3c9b146100ee575f61000f565b34610115575f366003190112610115575f546040516001600160a01b039091168152602090f35b5f80fd5b34610115575f36600319011261011557604051631aab3f0d60e11b81523060048201525f60248201526020816044817f00000000000000000000000000000000000000000000000000000000000000006001600160a01b03165afa80156101bf575f9061018c575b602090604051908152f35b506020813d6020116101b7575b816101a660209383610c90565b810103126101155760209051610181565b3d9150610199565b6040513d5f823e3d90fd5b34610115576060366003190112610115576101e3610c7a565b6024356001600160a01b0381169190829003610115576044356001600160a01b03811690819003610115575f5160206111eb5f395f51905f52549160ff8360401c1615926001600160401b038116801590816103fa575b60011490816103f0575b1590816103e7575b506103d85767ffffffffffffffff1981166001175f5160206111eb5f395f51905f5255836103ac575b506001600160a01b031692831561039d57835f52600160205260405f20600160ff19825416179055600160025560405193807f994a936646fe87ffe4f1e469d3d6aa417d6b855598397f323de5b449f765f0c35f80a28115159081610392575b5061034d575b506bffffffffffffffffffffffff60a01b5f5416175f556102f857005b60207fc7f505b2f371ae2175ee4913f4499e1f2633a7b5936321eed1cdaeb6115181d29168ff0000000000000000195f5160206111eb5f395f51905f5254165f5160206111eb5f395f51905f525560018152a1005b805f52600160205260405f20600160ff19825416179055600280557f994a936646fe87ffe4f1e469d3d6aa417d6b855598397f323de5b449f765f0c35f80a2836102db565b9050811415856102d5565b63d92e233d60e01b5f5260045ffd5b68ffffffffffffffffff191668010000000000000001175f5160206111eb5f395f51905f525584610275565b63f92ee8a960e01b5f5260045ffd5b9050158661024c565b303b159150610244565b85915061023a565b346101155760603660031901126101155761041b610c7a565b604435906001600160401b038211610115575f6104548192610441853690600401610c4d565b929061044b610f95565b5a933691610ce0565b916020835193019160243591f11561046857005b610470610ff4565b602081519101fd5b34610115575f366003190112610115576040517f00000000000000000000000000000000000000000000000000000000000000006001600160a01b03168152602090f35b34610115575f366003190112610115576105036040516104dd604082610c90565b60058152640352e302e360dc1b6020820152604051918291602083526020830190610d34565b0390f35b34610115575f36600319011261011557610503604051610528604082610c90565b601b81527f736d6172742d6167656e742e6167656e742d6163636f756e742e3100000000006020820152604051918291602083526020830190610d34565b346101155760203660031901126101155761057f610c7a565b30330361061d576001600160a01b0316801561039d57805f52600160205260ff60405f20541661060b57805f52600160205260405f20600160ff198254161790556002545f1981146105f7576001016002557f994a936646fe87ffe4f1e469d3d6aa417d6b855598397f323de5b449f765f0c35f80a2005b634e487b7160e01b5f52601160045260245ffd5b6316e832e960e21b5f5260045260245ffd5b63295d6e8760e21b5f5260045ffd5b34610115575f3660031901126101155761050360405161064d604082610c90565b60058152640322e302e360dc1b6020820152604051918291602083526020830190610d34565b34610115575f366003190112610115577f00000000000000000000000000000000000000000000000000000000000000006001600160a01b031630036106ca5760206040515f5160206111cb5f395f51905f528152f35b63703e46dd60e11b5f5260045ffd5b6040366003190112610115576106ed610c7a565b6024356001600160401b0381116101155761070c903690600401610d16565b906001600160a01b037f000000000000000000000000000000000000000000000000000000000000000016308114908115610870575b506106ca5730330361061d576040516352d1902d60e01b81526001600160a01b0382169290602081600481875afa5f918161083c575b506107905783634c9c8ce360e01b5f5260045260245ffd5b805f5160206111cb5f395f51905f5285920361082a5750823b15610818575f5160206111cb5f395f51905f5280546001600160a01b031916821790557fbc7cd75a20ee27fd9adebab32041f755214dbc6bffa90cc0225b39da2e5c2d3b5f80a28051156108005761001a9161113e565b50503461080957005b63b398979f60e01b5f5260045ffd5b634c9c8ce360e01b5f5260045260245ffd5b632a87526960e21b5f5260045260245ffd5b9091506020813d602011610868575b8161085860209383610c90565b8101031261011557519085610778565b3d915061084b565b5f5160206111cb5f395f51905f52546001600160a01b03161415905083610742565b34610115576020366003190112610115576004356001600160401b03811161011557366023820112156101155780600401356001600160401b038111610115573660248260051b84010111610115576108e9610f95565b36829003608219015f5b8281101561001a5760248160051b85010135828112156101155784016024810180356001600160a01b0381168103610115578261094561093a5f9594606487960190610ef1565b91905a923691610ce0565b92604460208551950193013591f115610960576001016108f3565b6001830361097057610470610ff4565b610978610ff4565b906109a2604051928392635a15467560e01b84526004840152604060248401526044830190610d34565b0390fd5b34610115576020366003190112610115576001600160a01b036109c7610c7a565b165f526001602052602060ff60405f2054166040519015158152f35b34610115576020366003190112610115576109fc610c7a565b3033141580610a3a575b610a2b575f80546001600160a01b0319166001600160a01b0392909216919091179055005b6330a0953960e21b5f5260045ffd5b50335f52600160205260ff60405f20541615610a06565b34610115576060366003190112610115576004356001600160401b038111610115576101206003198236030112610115576044357f00000000000000000000000000000000000000000000000000000000000000006001600160a01b031633819003610b155750610aca60209260243590600401610f23565b9080610ada575b50604051908152f35b5f80808093335af1503d15610b10573d610af381610cc5565b90610b016040519283610c90565b81525f833d92013e5b82610ad1565b610b0a565b63fe34a6d360e01b5f52336004523060245260445260645ffd5b3461011557602036600319011261011557610b48610c7a565b30330361061d576001600160a01b03165f8181526001602052604090205460ff1615610bd057600160025414610bc157805f52600160205260405f2060ff19815416905560025480156105f7575f19016002557f58619076adf5bb0943d100ef88d52d7c3fd691b19d3a9071b555b651fbf418da5f80a2005b632352e49760e21b5f5260045ffd5b63298f10e760e11b5f5260045260245ffd5b34610115576040366003190112610115576024356001600160401b03811161011557610c20610c176020923690600401610c4d565b90600435610d58565b6040516001600160e01b03199091168152f35b34610115575f366003190112610115576020906002548152f35b9181601f84011215610115578235916001600160401b038311610115576020838186019501011161011557565b600435906001600160a01b038216820361011557565b90601f801991011681019081106001600160401b03821117610cb157604052565b634e487b7160e01b5f52604160045260245ffd5b6001600160401b038111610cb157601f01601f191660200190565b929192610cec82610cc5565b91610cfa6040519384610c90565b829481845281830111610115578281602093845f960137010152565b9080601f8301121561011557816020610d3193359101610ce0565b90565b805180835260209291819084018484015e5f828201840152601f01601f1916010190565b91905f92602083101580610eb2575b610deb577f19457468657265756d205369676e6564204d6573736167653a0a3332000000008452601c52603c8320610db792610dae92610da8913691610ce0565b9061100e565b90929192611048565b6001600160a01b031681526001602052604090205460ff1615610ddf57630b135d3f60e11b90565b6001600160e01b031990565b9180601f19810111610e9e578101906060601f1983019282601f1991030112610e9a5780356001600160a01b03811603610e9a5760208101356001600160401b038111610e965782610e3e918301610d16565b506040810135906001600160401b038211610e9657610dae92610db79492610e669201610d16565b907f19457468657265756d205369676e6564204d6573736167653a0a3332000000008552601c52603c842061100e565b8480fd5b8380fd5b634e487b7160e01b84526011600452602484fd5b50925081601f198101116105f7575f927f6492649264926492649264926492649264926492649264926492649264926492828401601f19013514610d67565b903590601e198136030182121561011557018035906001600160401b0382116101155760200191813603831361011557565b610dae90610f6e927f19457468657265756d205369676e6564204d6573736167653a0a3332000000005f52601c52610da8610f67603c5f2092610100810190610ef1565b3691610ce0565b6001600160a01b03165f9081526001602052604090205460ff16610f9157600190565b5f90565b7f00000000000000000000000000000000000000000000000000000000000000006001600160a01b03163381141580610fea575b80610fd6575b610b155750565b505f546001600160a01b0316331415610fcf565b5030331415610fc9565b3d604051906020818301016040528082525f602083013e90565b815191906041830361103e576110379250602082015190606060408401519301515f1a906110bc565b9192909190565b50505f9160029190565b60048110156110a8578061105a575050565b600181036110715763f645eedf60e01b5f5260045ffd5b6002810361108c575063fce698f760e01b5f5260045260245ffd5b6003146110965750565b6335e2f38360e21b5f5260045260245ffd5b634e487b7160e01b5f52602160045260245ffd5b91907f7fffffffffffffffffffffffffffffff5d576e7357a4501ddfe92f46681b20a08411611133579160209360809260ff5f9560405194855216868401526040830152606082015282805260015afa156101bf575f516001600160a01b0381161561112957905f905f90565b505f906001905f90565b5050505f9160039190565b905f8091602081519101845af480806111b7575b156111725750506040513d81523d5f602083013e60203d82010160405290565b1561119757639996b31560e01b5f9081526001600160a01b0391909116600452602490fd5b3d156111a8576040513d5f823e3d90fd5b63d6bda27560e01b5f5260045ffd5b503d1515806111525750813b151561115256fe360894a13ba1a3210667c828492db98dca3e2076cc3735a920a3ca505d382bbcf0c57e16840df040f15088dc2f81fe391c3923bec73e23a9662efc9c229c6a00a26469706673582212209f46475d8e50ca4b569dad6e9e8d0c08300f9fc08cafe4aa465d0eef84e1646f64736f6c634300081c0033f0c57e16840df040f15088dc2f81fe391c3923bec73e23a9662efc9c229c6a00","linkReferences":{}},"methodIdentifiers":{"UPGRADE_INTERFACE_VERSION()":"ad3cb1cc","accountId()":"9cfd7cff","addOwner(address)":"7065cb48","delegationManager()":"ea4d3c9b","entryPoint()":"b0d691fe","execute(address,uint256,bytes)":"b61d27f6","executeBatch((address,uint256,bytes)[])":"34fcd5be","getNonce()":"d087d288","initialize(address,address,address)":"c0c53b8b","isOwner(address)":"2f54bf6e","isValidSignature(bytes32,bytes)":"1626ba7e","ownerCount()":"0db02622","proxiableUUID()":"52d1902d","removeOwner(address)":"173825d9","setDelegationManager(address)":"1a8d0de2","upgradeToAndCall(address,bytes)":"4f1ef286","validateUserOp((address,uint256,bytes,bytes,bytes32,uint256,bytes32,bytes,bytes),bytes32,uint256)":"19822f7c","version()":"54fd4d50"},"id":63}