{"abi":[{"type":"constructor","inputs":[{"name":"entryPoint_","type":"address","internalType":"contract IEntryPoint"}],"stateMutability":"nonpayable"},{"type":"receive","stateMutability":"payable"},{"type":"function","name":"UPGRADE_INTERFACE_VERSION","inputs":[],"outputs":[{"name":"","type":"string","internalType":"string"}],"stateMutability":"view"},{"type":"function","name":"accountId","inputs":[],"outputs":[{"name":"","type":"string","internalType":"string"}],"stateMutability":"pure"},{"type":"function","name":"addOwner","inputs":[{"name":"owner","type":"address","internalType":"address"}],"outputs":[],"stateMutability":"nonpayable"},{"type":"function","name":"addPasskey","inputs":[{"name":"credentialIdDigest","type":"bytes32","internalType":"bytes32"},{"name":"x","type":"uint256","internalType":"uint256"},{"name":"y","type":"uint256","internalType":"uint256"}],"outputs":[],"stateMutability":"nonpayable"},{"type":"function","name":"delegationManager","inputs":[],"outputs":[{"name":"","type":"address","internalType":"address"}],"stateMutability":"view"},{"type":"function","name":"entryPoint","inputs":[],"outputs":[{"name":"","type":"address","internalType":"contract IEntryPoint"}],"stateMutability":"view"},{"type":"function","name":"execute","inputs":[{"name":"target","type":"address","internalType":"address"},{"name":"value","type":"uint256","internalType":"uint256"},{"name":"data","type":"bytes","internalType":"bytes"}],"outputs":[],"stateMutability":"nonpayable"},{"type":"function","name":"executeBatch","inputs":[{"name":"calls","type":"tuple[]","internalType":"struct BaseAccount.Call[]","components":[{"name":"target","type":"address","internalType":"address"},{"name":"value","type":"uint256","internalType":"uint256"},{"name":"data","type":"bytes","internalType":"bytes"}]}],"outputs":[],"stateMutability":"nonpayable"},{"type":"function","name":"getInstalledModules","inputs":[{"name":"moduleTypeId","type":"uint256","internalType":"uint256"}],"outputs":[{"name":"","type":"address[]","internalType":"address[]"}],"stateMutability":"view"},{"type":"function","name":"getNonce","inputs":[],"outputs":[{"name":"","type":"uint256","internalType":"uint256"}],"stateMutability":"view"},{"type":"function","name":"getPasskey","inputs":[{"name":"credentialIdDigest","type":"bytes32","internalType":"bytes32"}],"outputs":[{"name":"x","type":"uint256","internalType":"uint256"},{"name":"y","type":"uint256","internalType":"uint256"}],"stateMutability":"view"},{"type":"function","name":"hasPasskey","inputs":[{"name":"credentialIdDigest","type":"bytes32","internalType":"bytes32"}],"outputs":[{"name":"","type":"bool","internalType":"bool"}],"stateMutability":"view"},{"type":"function","name":"initialize","inputs":[{"name":"initialOwner","type":"address","internalType":"address"},{"name":"serverSigner","type":"address","internalType":"address"},{"name":"dm","type":"address","internalType":"address"}],"outputs":[],"stateMutability":"nonpayable"},{"type":"function","name":"installModule","inputs":[{"name":"moduleTypeId","type":"uint256","internalType":"uint256"},{"name":"module","type":"address","internalType":"address"},{"name":"initData","type":"bytes","internalType":"bytes"}],"outputs":[],"stateMutability":"nonpayable"},{"type":"function","name":"isModuleInstalled","inputs":[{"name":"moduleTypeId","type":"uint256","internalType":"uint256"},{"name":"module","type":"address","internalType":"address"},{"name":"","type":"bytes","internalType":"bytes"}],"outputs":[{"name":"","type":"bool","internalType":"bool"}],"stateMutability":"view"},{"type":"function","name":"isOwner","inputs":[{"name":"account","type":"address","internalType":"address"}],"outputs":[{"name":"","type":"bool","internalType":"bool"}],"stateMutability":"view"},{"type":"function","name":"isValidSignature","inputs":[{"name":"hash","type":"bytes32","internalType":"bytes32"},{"name":"signature","type":"bytes","internalType":"bytes"}],"outputs":[{"name":"","type":"bytes4","internalType":"bytes4"}],"stateMutability":"view"},{"type":"function","name":"ownerCount","inputs":[],"outputs":[{"name":"","type":"uint256","internalType":"uint256"}],"stateMutability":"view"},{"type":"function","name":"passkeyCount","inputs":[],"outputs":[{"name":"","type":"uint256","internalType":"uint256"}],"stateMutability":"view"},{"type":"function","name":"proxiableUUID","inputs":[],"outputs":[{"name":"","type":"bytes32","internalType":"bytes32"}],"stateMutability":"view"},{"type":"function","name":"removeOwner","inputs":[{"name":"owner","type":"address","internalType":"address"}],"outputs":[],"stateMutability":"nonpayable"},{"type":"function","name":"removePasskey","inputs":[{"name":"credentialIdDigest","type":"bytes32","internalType":"bytes32"}],"outputs":[],"stateMutability":"nonpayable"},{"type":"function","name":"setDelegationManager","inputs":[{"name":"dm","type":"address","internalType":"address"}],"outputs":[],"stateMutability":"nonpayable"},{"type":"function","name":"supportsExecutionMode","inputs":[{"name":"","type":"bytes32","internalType":"bytes32"}],"outputs":[{"name":"","type":"bool","internalType":"bool"}],"stateMutability":"pure"},{"type":"function","name":"supportsModule","inputs":[{"name":"moduleTypeId","type":"uint256","internalType":"uint256"}],"outputs":[{"name":"","type":"bool","internalType":"bool"}],"stateMutability":"pure"},{"type":"function","name":"uninstallModule","inputs":[{"name":"moduleTypeId","type":"uint256","internalType":"uint256"},{"name":"module","type":"address","internalType":"address"},{"name":"deInitData","type":"bytes","internalType":"bytes"}],"outputs":[],"stateMutability":"nonpayable"},{"type":"function","name":"upgradeToAndCall","inputs":[{"name":"newImplementation","type":"address","internalType":"address"},{"name":"data","type":"bytes","internalType":"bytes"}],"outputs":[],"stateMutability":"payable"},{"type":"function","name":"validateUserOp","inputs":[{"name":"userOp","type":"tuple","internalType":"struct PackedUserOperation","components":[{"name":"sender","type":"address","internalType":"address"},{"name":"nonce","type":"uint256","internalType":"uint256"},{"name":"initCode","type":"bytes","internalType":"bytes"},{"name":"callData","type":"bytes","internalType":"bytes"},{"name":"accountGasLimits","type":"bytes32","internalType":"bytes32"},{"name":"preVerificationGas","type":"uint256","internalType":"uint256"},{"name":"gasFees","type":"bytes32","internalType":"bytes32"},{"name":"paymasterAndData","type":"bytes","internalType":"bytes"},{"name":"signature","type":"bytes","internalType":"bytes"}]},{"name":"userOpHash","type":"bytes32","internalType":"bytes32"},{"name":"missingAccountFunds","type":"uint256","internalType":"uint256"}],"outputs":[{"name":"validationData","type":"uint256","internalType":"uint256"}],"stateMutability":"nonpayable"},{"type":"function","name":"version","inputs":[],"outputs":[{"name":"","type":"string","internalType":"string"}],"stateMutability":"pure"},{"type":"event","name":"Initialized","inputs":[{"name":"version","type":"uint64","indexed":false,"internalType":"uint64"}],"anonymous":false},{"type":"event","name":"ModuleInstalled","inputs":[{"name":"moduleTypeId","type":"uint256","indexed":false,"internalType":"uint256"},{"name":"module","type":"address","indexed":false,"internalType":"address"}],"anonymous":false},{"type":"event","name":"ModuleUninstalled","inputs":[{"name":"moduleTypeId","type":"uint256","indexed":false,"internalType":"uint256"},{"name":"module","type":"address","indexed":false,"internalType":"address"}],"anonymous":false},{"type":"event","name":"OwnerAdded","inputs":[{"name":"owner","type":"address","indexed":true,"internalType":"address"}],"anonymous":false},{"type":"event","name":"OwnerRemoved","inputs":[{"name":"owner","type":"address","indexed":true,"internalType":"address"}],"anonymous":false},{"type":"event","name":"PasskeyAdded","inputs":[{"name":"credentialIdDigest","type":"bytes32","indexed":true,"internalType":"bytes32"},{"name":"x","type":"uint256","indexed":false,"internalType":"uint256"},{"name":"y","type":"uint256","indexed":false,"internalType":"uint256"}],"anonymous":false},{"type":"event","name":"PasskeyRemoved","inputs":[{"name":"credentialIdDigest","type":"bytes32","indexed":true,"internalType":"bytes32"}],"anonymous":false},{"type":"event","name":"Upgraded","inputs":[{"name":"implementation","type":"address","indexed":true,"internalType":"address"}],"anonymous":false},{"type":"error","name":"AddressEmptyCode","inputs":[{"name":"target","type":"address","internalType":"address"}]},{"type":"error","name":"CannotRemoveLastOwner","inputs":[]},{"type":"error","name":"CannotRemoveLastSigner","inputs":[]},{"type":"error","name":"ERC1967InvalidImplementation","inputs":[{"name":"implementation","type":"address","internalType":"address"}]},{"type":"error","name":"ERC1967NonPayable","inputs":[]},{"type":"error","name":"ExecuteError","inputs":[{"name":"index","type":"uint256","internalType":"uint256"},{"name":"error","type":"bytes","internalType":"bytes"}]},{"type":"error","name":"FailedCall","inputs":[]},{"type":"error","name":"InvalidInitialization","inputs":[]},{"type":"error","name":"InvalidPasskeyPublicKey","inputs":[]},{"type":"error","name":"ModuleAlreadyInstalled","inputs":[{"name":"moduleTypeId","type":"uint256","internalType":"uint256"},{"name":"module","type":"address","internalType":"address"}]},{"type":"error","name":"ModuleNotInstalled","inputs":[{"name":"moduleTypeId","type":"uint256","internalType":"uint256"},{"name":"module","type":"address","internalType":"address"}]},{"type":"error","name":"ModuleOnInstallFailed","inputs":[{"name":"reason","type":"bytes","internalType":"bytes"}]},{"type":"error","name":"ModuleOnUninstallFailed","inputs":[{"name":"reason","type":"bytes","internalType":"bytes"}]},{"type":"error","name":"NotFromEntryPoint","inputs":[{"name":"msgSender","type":"address","internalType":"address"},{"name":"entity","type":"address","internalType":"address"},{"name":"entryPoint","type":"address","internalType":"address"}]},{"type":"error","name":"NotFromSelf","inputs":[]},{"type":"error","name":"NotInitializing","inputs":[]},{"type":"error","name":"NotOwnerOrSelf","inputs":[]},{"type":"error","name":"OwnerAlreadyExists","inputs":[{"name":"owner","type":"address","internalType":"address"}]},{"type":"error","name":"OwnerDoesNotExist","inputs":[{"name":"owner","type":"address","internalType":"address"}]},{"type":"error","name":"PasskeyAlreadyRegistered","inputs":[{"name":"credentialIdDigest","type":"bytes32","internalType":"bytes32"}]},{"type":"error","name":"PasskeyNotRegistered","inputs":[{"name":"credentialIdDigest","type":"bytes32","internalType":"bytes32"}]},{"type":"error","name":"TooManyHooks","inputs":[]},{"type":"error","name":"UUPSUnauthorizedCallContext","inputs":[]},{"type":"error","name":"UUPSUnsupportedProxiableUUID","inputs":[{"name":"slot","type":"bytes32","internalType":"bytes32"}]},{"type":"error","name":"UnknownSignatureType","inputs":[{"name":"sigType","type":"uint8","internalType":"uint8"}]},{"type":"error","name":"UnsupportedModuleType","inputs":[{"name":"moduleTypeId","type":"uint256","internalType":"uint256"}]},{"type":"error","name":"ZeroAddress","inputs":[]}],"bytecode":{"object":"0x60c03461012b57601f612ec138819003918201601f19168301916001600160401b0383118484101761012f5780849260209460405283398101031261012b57516001600160a01b038116810361012b573060805260a0525f516020612ea15f395f51905f525460ff8160401c1661011c576002600160401b03196001600160401b038216016100c6575b604051612d5d908161014482396080518181816108be01526109e5015260a0518181816105c3015281816111ea0152818161160e01526121de0152f35b6001600160401b0319166001600160401b039081175f516020612ea15f395f51905f52556040519081527fc7f505b2f371ae2175ee4913f4499e1f2633a7b5936321eed1cdaeb6115181d290602090a15f610089565b63f92ee8a960e01b5f5260045ffd5b5f80fd5b634e487b7160e01b5f52604160045260245ffdfe6080604052600436101561001a575b3615610018575f80fd5b005b5f3560e01c80630db02622146101e95780630f460cb4146101e4578063112d3a7d146101df5780631626ba7e146101da578063173825d9146101d557806319822f7c146101d05780631a8d0de2146101cb5780632f54bf6e146101c657806334fcd5be146101c15780634c1ed102146101bc5780634f1ef286146101b757806352d1902d146101b257806354fd4d50146101ad578063579b7115146101a85780637065cb48146101a35780639517e29f1461019e5780639cfd7cff14610199578063a1c9427a14610194578063a71763a81461018f578063ab18c40f1461018a578063ad3cb1cc14610185578063b0d691fe14610180578063b61d27f61461017b578063c0c53b8b14610176578063d03c791414610171578063d087d2881461016c578063ea4d3c9b14610167578063f19816d3146101625763f2dc691d0361000e576117d8565b6116ab565b611684565b6115dd565b6115c2565b61143a565b611219565b6111d5565b61118e565b611070565b610ee9565b610e64565b610dc3565b610b96565b610acf565b610aa6565b610a5f565b6109d3565b61087c565b610778565b61071d565b6106ec565b61067a565b610588565b61047b565b61034b565b6102e9565b610219565b6101fc565b5f9103126101f857565b5f80fd5b346101f8575f3660031901126101f8576020600254604051908152f35b346101f85760203660031901126101f8576004355f525f516020612d085f395f51905f5260205260405f2060018154910154906102686040519283928360209093929193604081019481520152565b0390f35b6001600160a01b038116036101f857565b9181601f840112156101f8578235916001600160401b0383116101f857602083818601950101116101f857565b60606003198201126101f857600435916024356102c68161026c565b91604435906001600160401b0382116101f8576102e59160040161027d565b9091565b346101f857602060ff61033f6102fe366102aa565b5050905f527f1f14a6accceab237b8ab0463623403008b2dec742c79d1d0e63a7729f8c11c00845260405f209060018060a01b03165f5260205260405f2090565b54166040519015158152f35b346101f85760403660031901126101f8576004356024356001600160401b0381116101f85761037e90369060040161027d565b9161038a368484610828565b91602084101580610411575b936103a7946103e4575b50506120d4565b156103d357610268630b135d3f60e11b5b6040516001600160e01b031990911681529081906020820190565b6102686001600160e01b03196103b8565b61040692935090816103f86103fe93611837565b91611863565b810190611889565b915050905f806103a0565b50601f19840193808511610476577f649264926492649264926492649264926492649264926492649264926492649261044f826103a7978186611871565b90359060208110610465575b5014909450610396565b5f199060200360031b1b165f61045b565b611823565b346101f85760203660031901126101f8576004356104988161026c565b303303610579576001600160a01b0381165f8181526001602052604090205490919060ff16156104c7565b1590565b61055e5760016002541480610548575b610539576001600160a01b03165f908152600160205260409020610500905b805460ff19169055565b61051361050e6002546118dd565b600255565b7f58619076adf5bb0943d100ef88d52d7c3fd691b19d3a9071b555b651fbf418da5f80a2005b632352e49760e21b5f5260045ffd5b505f516020612cc85f395f51905f5254156104d7565b63298f10e760e11b5f526001600160a01b031660045260245ffd5b63295d6e8760e21b5f5260045ffd5b346101f85760603660031901126101f8576004356001600160401b0381116101f85761012060031982360301126101f85760243590604435907f00000000000000000000000000000000000000000000000000000000000000006001600160a01b031633819003610657575060ff9261061661060f8361010461061c950190600401611ba5565b3691610828565b906120d4565b1561064f575f905b80610637575b5060405191168152602090f35b5f80808093335af150610648611be4565b505f61062a565b600190610624565b63fe34a6d360e01b5f5233600452306024526001600160a01b031660445260645ffd5b346101f85760203660031901126101f8576004356106978161026c565b30331415806106d5575b6106c6575f80546001600160a01b0319166001600160a01b0392909216919091179055005b6330a0953960e21b5f5260045ffd5b50335f52600160205260ff60405f205416156106a1565b346101f85760203660031901126101f857602061071360043561070e8161026c565b6118e9565b6040519015158152f35b346101f85760203660031901126101f8576004356001600160401b0381116101f857366023820112156101f85780600401356001600160401b0381116101f8573660248260051b840101116101f85760246100189201611c13565b346101f85760203660031901126101f8576004355f525f516020612c685f395f51905f52602052602060ff60405f2054166040519015158152f35b634e487b7160e01b5f52604160045260245ffd5b90601f801991011681019081106001600160401b038211176107e857604052565b6107b3565b604051906107fc6040836107c7565b565b604051906107fc60e0836107c7565b6001600160401b0381116107e857601f01601f191660200190565b9291926108348261080d565b9161084260405193846107c7565b8294818452818301116101f8578281602093845f960137010152565b9080601f830112156101f85781602061087993359101610828565b90565b60403660031901126101f8576004356108948161026c565b6024356001600160401b0381116101f8576108b390369060040161085e565b906001600160a01b037f0000000000000000000000000000000000000000000000000000000000000000163081149081156109b1575b506109a257303303610579576040516352d1902d60e01b8152916020836004816001600160a01b0386165afa5f9381610971575b5061093e57634c9c8ce360e01b5f526001600160a01b03821660045260245ffd5b905f516020612ca85f395f51905f52830361095d5761001892506124da565b632a87526960e21b5f52600483905260245ffd5b61099491945060203d60201161099b575b61098c81836107c7565b81019061223b565b925f61091d565b503d610982565b63703e46dd60e11b5f5260045ffd5b5f516020612ca85f395f51905f52546001600160a01b0316141590505f6108e9565b346101f8575f3660031901126101f8577f00000000000000000000000000000000000000000000000000000000000000006001600160a01b031630036109a25760206040515f516020612ca85f395f51905f528152f35b805180835260209291819084018484015e5f828201840152601f01601f1916010190565b906020610879928181520190610a2a565b346101f8575f3660031901126101f857610268604051610a806040826107c7565b60058152640322e302e360dc1b6020820152604051918291602083526020830190610a2a565b346101f8575f3660031901126101f85760205f516020612cc85f395f51905f5254604051908152f35b346101f85760203660031901126101f857600435610aec8161026c565b303303610579576001600160a01b038116908115610b8757815f52600160205260ff60405f205416610b74576001600160a01b03165f908152600160205260409020610b40905b805460ff19166001179055565b610b4e61050e600254611e17565b7f994a936646fe87ffe4f1e469d3d6aa417d6b855598397f323de5b449f765f0c35f80a2005b506316e832e960e21b5f5260045260245ffd5b63d92e233d60e01b5f5260045ffd5b346101f857610ba4366102aa565b903033141580610dac575b6106c6576001600160a01b038316918215610b8757610bd06104c38661224a565b610d9857610c00610bf985610be4886117f6565b9060018060a01b03165f5260205260405f2090565b5460ff1690565b610d77576004851480610d4e575b610d3f57610c22610b3385610be4886117f6565b610c4984610c44875f525f516020612c885f395f51905f5260205260405f2090565b611e3a565b823b156101f857610c73925f92836040518096819582946306d61fe760e41b845260048401611e81565b03925af19081610d25575b50610ce157610cc4610cbf610cdd93610ca56104f6610c9b611be4565b95610be4846117f6565b5f525f516020612c885f395f51905f5260205260405f2090565b611e92565b604051634f8c520960e01b815291829160048301610a4e565b0390fd5b604080519283526001600160a01b0390911660208301527fd21d0b289f126c4b473ea641963e766833c2f13866e4ff480abd787c100ef1239190819081015b0390a1005b80610d335f610d39936107c7565b806101ee565b5f610c7e565b63379c814d60e21b5f5260045ffd5b506008610d6f865f525f516020612c885f395f51905f5260205260405f2090565b541015610c0e565b630b961e3560e11b5f5260048590526001600160a01b03841660245260445ffd5b63041c38b360e41b5f52600485905260245ffd5b50335f52600160205260ff60405f20541615610baf565b346101f8575f3660031901126101f857610268604051610de46040826107c7565b601b81527f736d6172742d6167656e742e6167656e742d6163636f756e742e3200000000006020820152604051918291602083526020830190610a2a565b60206040818301928281528451809452019201905f5b818110610e455750505090565b82516001600160a01b0316845260209384019390920191600101610e38565b346101f85760203660031901126101f8576004355f525f516020612c885f395f51905f5260205260405f206040519081602082549182815201915f5260205f20905f5b818110610eca5761026885610ebe818703826107c7565b60405191829182610e22565b82546001600160a01b0316845260209093019260019283019201610ea7565b346101f857610ef7366102aa565b903033141580611059575b6106c657610f126104c38561224a565b61104557610f296104c3610bf985610be4886117f6565b611024576001600160a01b03831691823b156101f857610f62925f9283604051809681958294638a91b0e360e01b845260048401611e81565b03925af19081611010575b50610f9657610cdd610f7d611be4565b6040516319d6ca0d60e21b815291829160048301610a4e565b7f341347516a9de374859dfda710fa4828b2d48cb57d4fbe4c1149612b8e02276e91610fc86104f683610be4846117f6565b610fef82610fea835f525f516020612c885f395f51905f5260205260405f2090565b612273565b604080519182526001600160a01b0390921660208201529081908101610d20565b80610d335f61101e936107c7565b5f610f6d565b635f300b3960e11b5f5260048490526001600160a01b03831660245260445ffd5b63041c38b360e41b5f52600484905260245ffd5b50335f52600160205260ff60405f20541615610f02565b346101f85760203660031901126101f857600435303303610579575f8181525f516020612c685f395f51905f52602052604090205460ff161561117c5760016110ca6002545f516020612cc85f395f51905f525490611efc565b1461116d576110fb6110f0825f525f516020612d085f395f51905f5260205260405f2090565b60015f918281550155565b61111c6104f6825f525f516020612c685f395f51905f5260205260405f2090565b6111476111365f516020612cc85f395f51905f5254611846565b5f516020612cc85f395f51905f5255565b7f6478f30699d78c25aec768184c69105e8f3606c825c91ca4511e96ae6a4e4e1f5f80a2005b63c4c8547360e01b5f5260045ffd5b63752d090f60e01b5f5260045260245ffd5b346101f8575f3660031901126101f8576102686040516111af6040826107c7565b60058152640352e302e360dc1b6020820152604051918291602083526020830190610a2a565b346101f8575f3660031901126101f8576040517f00000000000000000000000000000000000000000000000000000000000000006001600160a01b03168152602090f35b346101f85760603660031901126101f8576004356112368161026c565b6024356044356001600160401b0381116101f85761125890369060040161027d565b90916112626121dc565b60045f525f516020612c885f395f51905f526020526112a07f0b73fd07d5abf1468d9a60de00f6d65eeaf10d89f9fda4d5da5f13e565b91b37611911565b6112aa8151611979565b94604051936112d1856112c38389888760208601611f09565b03601f1981018752866107c7565b5f5b8351811015611383576113086112fc6112fc6112ef8488611ac4565b516001600160a01b031690565b6001600160a01b031690565b905f604051809363d68f602560e01b825281838161132b8d8d3360048501611f2d565b03925af1801561137e576001925f9161135c575b5061134a828b611ac4565b52611355818a611ac4565b50016112d3565b61137891503d805f833e61137081836107c7565b810190611b21565b5f61133f565b611b6e565b505f91829188958861139a60405180948193611bd7565b03925af16113a6611be4565b901561143257505f5b8151811015610018576113cb6112fc6112fc6112ef8486611ac4565b906113d68185611ac4565b5191803b156101f857604051630b9dfbed60e11b8152925f9184918290849082906114049060048301610a4e565b03925af191821561137e5760019261141e575b50016113af565b80610d335f61142c936107c7565b84611417565b602081519101fd5b346101f85760603660031901126101f8576004356114578161026c565b602435906114648261026c565b6044356114708161026c565b5f516020612ce85f395f51905f5254926001600160401b036114a160ff604087901c1615956001600160401b031690565b16801590816115ba575b60011490816115b0575b1590816115a7575b506115985761150092846114f760016001600160401b03195f516020612ce85f395f51905f525416175f516020612ce85f395f51905f5255565b61156357611f51565b61150657005b61153060ff60401b195f516020612ce85f395f51905f5254165f516020612ce85f395f51905f5255565b604051600181527fc7f505b2f371ae2175ee4913f4499e1f2633a7b5936321eed1cdaeb6115181d2908060208101610d20565b611593600160401b60ff60401b195f516020612ce85f395f51905f525416175f516020612ce85f395f51905f5255565b611f51565b63f92ee8a960e01b5f5260045ffd5b9050155f6114bd565b303b1591506114b5565b8591506114ab565b346101f85760203660031901126101f85760206040515f8152f35b346101f8575f3660031901126101f857604051631aab3f0d60e11b81523060048201525f60248201526020816044817f00000000000000000000000000000000000000000000000000000000000000006001600160a01b03165afa801561137e575f90611650575b604051908152602090f35b506020813d60201161167c575b8161166a602093836107c7565b810103126101f8576102689051611645565b3d915061165d565b346101f8575f3660031901126101f8575f546040516001600160a01b039091168152602090f35b346101f85760603660031901126101f85760043560443560243530330361057957801580156117d0575b6117c1575f8381525f516020612c685f395f51905f52602052604090205460ff166117ad57907f225b99aa4fde5bb1838d392d0db95613cbabd13dfb9d2999653b8c4c9386db04916117606117286107ed565b82815283602082015261174f865f525f516020612d085f395f51905f5260205260405f2090565b906020600191805184550151910155565b611781610b33855f525f516020612c685f395f51905f5260205260405f2090565b61179b6111365f516020612cc85f395f51905f5254611ed2565b604080519182526020820192909252a2005b63402fbf2f60e11b5f52600483905260245ffd5b63543f188160e01b5f5260045ffd5b5081156116d5565b346101f85760203660031901126101f857602061071360043561224a565b5f527f1f14a6accceab237b8ab0463623403008b2dec742c79d1d0e63a7729f8c11c0060205260405f2090565b634e487b7160e01b5f52601160045260245ffd5b601f1981019190821161047657565b5f1981019190821161047657565b60071981019190821161047657565b9092919283116101f8579190565b909392938483116101f85784116101f8578101920390565b916060838303126101f857823561189f8161026c565b9260208101356001600160401b0381116101f857836118bf91830161085e565b9260408201356001600160401b0381116101f857610879920161085e565b8015610476575f190190565b6001600160a01b031630811461190b575f52600160205260ff60405f20541690565b50600190565b90604051918281549182825260208201905f5260205f20925f5b8181106119405750506107fc925003836107c7565b84546001600160a01b031683526001948501948794506020909301920161192b565b6001600160401b0381116107e85760051b60200190565b9061198382611962565b61199060405191826107c7565b82815280926119a1601f1991611962565b01905f5b8281106119b157505050565b8060606020809385010152016119a5565b908060209392818452848401375f828201840152601f01601f1916010190565b91806020840160208552526040830160408260051b85010193835f91605e1982360301905b858410611a18575050505050505090565b90919293949596603f198282030186528735838112156101f85784018035611a3f8161026c565b6001600160a01b0316825260208181013590830152604081013536829003601e19018112156101f85701602081359101906001600160401b0381116101f85780360382136101f857611aa16020928392606086816040600199015201916119c2565b99019796019401929190611a07565b634e487b7160e01b5f52603260045260245ffd5b8051821015611ad85760209160051b010190565b611ab0565b81601f820112156101f857602081519101611af78261080d565b92611b0560405194856107c7565b828452828201116101f857815f926020928386015e8301015290565b906020828203126101f85781516001600160401b0381116101f8576108799201611add565b6001600160a01b0390911681525f602082015260606040820181905261087992910190610a2a565b6040513d5f823e3d90fd5b9190811015611ad85760051b81013590605e19813603018212156101f8570190565b356108798161026c565b903590601e19813603018212156101f857018035906001600160401b0382116101f8576020019181360383136101f857565b908092918237015f815290565b3d15611c0e573d90611bf58261080d565b91611c0360405193846107c7565b82523d5f602084013e565b606090565b611c1b6121dc565b60045f525f516020612c885f395f51905f52602052611c597f0b73fd07d5abf1468d9a60de00f6d65eeaf10d89f9fda4d5da5f13e565b91b37611911565b611c638151611979565b9360405192611c8884611c7a8784602084016119e2565b03601f1981018652856107c7565b5f5b8351811015611d1357611ca66112fc6112fc6112ef8488611ac4565b905f604051809363d68f602560e01b8252818381611cc88c3360048401611b46565b03925af1801561137e576001925f91611cf9575b50611ce7828a611ac4565b52611cf28189611ac4565b5001611c8a565b611d0d91503d805f833e61137081836107c7565b5f611cdc565b50919250925f5b818110611daf575050505f5b8151811015611da957611d426112fc6112fc6112ef8486611ac4565b90611d4d8186611ac4565b5191803b156101f857604051630b9dfbed60e11b8152925f918491829084908290611d7b9060048301610a4e565b03925af191821561137e57600192611d95575b5001611d26565b80610d335f611da3936107c7565b5f611d8e565b50509050565b5f80611dc4611dbf848688611b79565b611b9b565b6020611dd1858789611b79565b0135611deb611de186888a611b79565b6040810190611ba5565b9190611dfc60405180948193611bd7565b03925af1611e08611be4565b90156114325750600101611d1a565b5f1981146104765760010190565b8054821015611ad8575f5260205f2001905f90565b90815491600160401b8310156107e85782611e5d9160016107fc95018155611e25565b81546001600160a01b0393841660039290921b91821b9390911b1916919091179055565b9160206108799381815201916119c2565b80548015611ebe575f190190611ea88282611e25565b81549060018060a01b039060031b1b1916905555565b634e487b7160e01b5f52603160045260245ffd5b906001820180921161047657565b90602b820180921161047657565b906006820180921161047657565b9190820180921161047657565b610879949260609260018060a01b03168252602082015281604082015201916119c2565b610879939260609260018060a01b0316825260208201528160408201520190610a2a565b6001600160a01b0316908115610b8757815f526001602052611f7d60405f20600160ff19825416179055565b6001600255817f994a936646fe87ffe4f1e469d3d6aa417d6b855598397f323de5b449f765f0c35f80a26001600160a01b038116918215159081612032575b50611fe4575b505060018060a01b03166bffffffffffffffffffffffff60a01b5f5416175f55565b6001600160a01b03165f90815260016020526040902061200390610b33565b600280557f994a936646fe87ffe4f1e469d3d6aa417d6b855598397f323de5b449f765f0c35f80a25f80611fc2565b90508214155f611fbc565b805115611ad85760200190565b908151811015611ad8570160200190565b6040516080919061206c83826107c7565b6041815291601f1901366020840137565b6040805190919061208e83826107c7565b60208152918290601f190190369060200137565b906120ac8261080d565b6120b960405191826107c7565b82815280926120ca601f199161080d565b0190602036910137565b60418251146121d25760018251106121cc5760ff61210b6121056120f78561203d565b516001600160f81b03191690565b60f81c90565b1680156121765760011461211f5750505f90565b909161213361212e8451611846565b6120a2565b905f5b825181101561216a57806121576120f7612151600194611ed2565b8861204a565b5f1a612163828661204a565b5301612136565b509250610879916123cf565b50604282939251036121c65761218a61205b565b905f5b604181106121a15750610879929350612309565b806121b36120f7612151600194611ed2565b5f1a6121bf828661204a565b530161218d565b505f9150565b50505f90565b9061087991612309565b7f00000000000000000000000000000000000000000000000000000000000000006001600160a01b03163381141580612231575b8061221d575b6106575750565b505f546001600160a01b0316331415612216565b5030331415612210565b908160209103126101f8575190565b60018114908115612268575b8115612260575090565b600491501490565b600281149150612256565b80545f5b8181106122845750505050565b61228e8184611e25565b905460039190911b1c6001600160a01b03908116908516146122b257600101612277565b5f1982019350818411610476576107fc9381036122d1575b5050611e92565b611e5d6122e96122e361230294611846565b85611e25565b905460039190911b1c6001600160a01b03169184611e25565b5f806122ca565b90612314818361257c565b506004811015612393571590816123ae575b506123a75761235e917f19457468657265756d205369676e6564204d6573736167653a0a3332000000005f52601c52603c5f2061257c565b50600481101561239357159081612373575090565b6001600160a01b03165f9081526001602052604090206108799150610bf9565b634e487b7160e01b5f52602160045260245ffd5b5050600190565b6001600160a01b03165f9081526001602052604081205460ff169150612326565b908051810160208101916020818303126101f8576020810151906001600160401b0382116101f857019060e090829003126101f85761240c6107fe565b9160208201516001600160401b0381116101f85781602061242f92850101611add565b83526040820151916001600160401b0383116101f85761245960e09260206124a895840101611add565b6020850152606081015160408501526080810151606085015260a0810151608085015260c081015160a085015201518060c08401525f525f516020612d085f395f51905f5260205260405f2090565b918254908115806124ce575b6124c6576001610879940154926125dc565b505050505f90565b506001840154156124b4565b90813b1561255b575f516020612ca85f395f51905f5280546001600160a01b0319166001600160a01b0384169081179091557fbc7cd75a20ee27fd9adebab32041f755214dbc6bffa90cc0225b39da2e5c2d3b5f80a28051156125435761254091612679565b50565b50503461254c57565b63b398979f60e01b5f5260045ffd5b50634c9c8ce360e01b5f9081526001600160a01b0391909116600452602490fd5b81519190604183036125ac576125a59250602082015190606060408401519301515f1a906126ec565b9192909190565b50505f9160029190565b805191908290602001825e015f815290565b6125d590602093926125b6565b9081520190565b9291906125fc6104c36020860192835160608801516040890151916127cc565b6124c6575f61261460209251604051918280926125b6565b039060025afa1561137e5760205f612657815161264b875161263d6040519384928884016125c8565b03601f1981018352826107c7565b604051918280926125b6565b039060025afa1561137e57610879925f519060a060808201519101519161292d565b905f8091602081519101845af480806126d9575b1561269c575050610879612a2d565b156126c157639996b31560e01b5f9081526001600160a01b0391909116600452602490fd5b3d15155f03611b6e5763d6bda27560e01b5f5260045ffd5b503d15158061268d5750813b151561268d565b91907f7fffffffffffffffffffffffffffffff5d576e7357a4501ddfe92f46681b20a08411612763579160209360809260ff5f9560405194855216868401526040830152606082015282805260015afa1561137e575f516001600160a01b0381161561275957905f905f90565b505f906001905f90565b5050505f9160039190565b6040519061277d6040836107c7565b6015825274113a3cb832911d113bb2b130baba34371733b2ba1160591b6020830152565b604051906127b06040836107c7565b600d82526c1131b430b63632b733b2911d1160991b6020830152565b909291926127d861276e565b926127e4845183611efc565b8351106128c6575f5b845181101561284c5761280c6120f76128068386611efc565b8661204a565b61282961281c6120f7848961204a565b6001600160f81b03191690565b6001600160f81b031990911603612842576001016127ed565b5050505050505f90565b50939250506128596127a1565b9161287561287061286b855184611efc565b611ee0565b611ed2565b8251106124c6575f5b83518110156128cf5761289d6120f76128978385611efc565b8561204a565b6128ad61281c6120f7848861204a565b6001600160f81b0319909116036128c65760010161287e565b50505050505f90565b509291601160f91b60ff60f81b6128f06120f761280661286b86518a611efc565b16036124c65761087993612905915190611efc565b90612a46565b60208151910151906020811061291f575090565b5f199060200360031b1b1690565b9361263d906129649394604051958694602086019889939160a0959391855260208501526040840152606083015260808201520190565b5f808251846101005afa612976611be4565b81612a1f575b81612a0b575b506123a75773c2b78104907f722dabac4c69f826a522b2754de43b6129a75750505f90565b5f918291519073c2b78104907f722dabac4c69f826a522b2754de45afa6129cc611be4565b816129fd575b816129e9575b506129e4575f806121cc565b600190565b600191506129f69061290b565b145f6129d8565b9050602081511015906129d2565b60019150612a189061290b565b145f612982565b90506020815110159061297c565b604051903d82523d5f602084013e60203d830101604052565b9190915f5f905f92612a5661207d565b955f925b602b8410612ab45750505050506020036121cc575f5b60208110612a8057505050600190565b612a8d6120f7828561204a565b6001600160f81b031983831a60f81b8116911603612aad57600101612a70565b5050505f90565b612ad5612ad06120f761215187869d989a9c9d9b97999b611efc565b612bbd565b905f8212612b525760061b1795612aeb90611eee565b600881101580612b48575b15612b3357612b0490611854565b936001600160f81b031987861c60f81b1697612b2c612b2282611e17565b995f1a918b61204a565b5393612aeb565b93909297969460019096929601929091612a5a565b5060208810612af6565b505050509450505050505f90565b60ff6040199116019060ff821161047657565b60ff6060199116019060ff821161047657565b60ff602f199116019060ff821161047657565b60ff601a9116019060ff821161047657565b60ff60349116019060ff821161047657565b60f81c604181101580612c5c575b612c5057606181101580612c45575b612c3157603081101580612c26575b612c0c57602d8114612c0657605f14612c01575f1990565b603f90565b50603e90565b612c20612c1b61087992612b86565b612bab565b60ff1690565b506039811115612be9565b612c20612c4061087992612b73565b612b99565b50607a811115612bda565b612c2061087991612b60565b50605a811115612bcb56fe3b3ffcf51a0a9bcb2764532549426e303b6d219fffb988d3d097bfc22ad32d011f14a6accceab237b8ab0463623403008b2dec742c79d1d0e63a7729f8c11c01360894a13ba1a3210667c828492db98dca3e2076cc3735a920a3ca505d382bbc3b3ffcf51a0a9bcb2764532549426e303b6d219fffb988d3d097bfc22ad32d02f0c57e16840df040f15088dc2f81fe391c3923bec73e23a9662efc9c229c6a003b3ffcf51a0a9bcb2764532549426e303b6d219fffb988d3d097bfc22ad32d00a2646970667358221220ad3a569d3ca39e1fa8ffe5384a2b79c567503328df4d161d6d9f46b5a863c92264736f6c634300081c0033f0c57e16840df040f15088dc2f81fe391c3923bec73e23a9662efc9c229c6a00","linkReferences":{}},"methodIdentifiers":{"UPGRADE_INTERFACE_VERSION()":"ad3cb1cc","accountId()":"9cfd7cff","addOwner(address)":"7065cb48","addPasskey(bytes32,uint256,uint256)":"f19816d3","delegationManager()":"ea4d3c9b","entryPoint()":"b0d691fe","execute(address,uint256,bytes)":"b61d27f6","executeBatch((address,uint256,bytes)[])":"34fcd5be","getInstalledModules(uint256)":"a1c9427a","getNonce()":"d087d288","getPasskey(bytes32)":"0f460cb4","hasPasskey(bytes32)":"4c1ed102","initialize(address,address,address)":"c0c53b8b","installModule(uint256,address,bytes)":"9517e29f","isModuleInstalled(uint256,address,bytes)":"112d3a7d","isOwner(address)":"2f54bf6e","isValidSignature(bytes32,bytes)":"1626ba7e","ownerCount()":"0db02622","passkeyCount()":"579b7115","proxiableUUID()":"52d1902d","removeOwner(address)":"173825d9","removePasskey(bytes32)":"ab18c40f","setDelegationManager(address)":"1a8d0de2","supportsExecutionMode(bytes32)":"d03c7914","supportsModule(uint256)":"f2dc691d","uninstallModule(uint256,address,bytes)":"a71763a8","upgradeToAndCall(address,bytes)":"4f1ef286","validateUserOp((address,uint256,bytes,bytes,bytes32,uint256,bytes32,bytes,bytes),bytes32,uint256)":"19822f7c","version()":"54fd4d50"},"id":71}