{"abi":[{"type":"constructor","inputs":[{"name":"entryPoint_","type":"address","internalType":"contract IEntryPoint"}],"stateMutability":"nonpayable"},{"type":"receive","stateMutability":"payable"},{"type":"function","name":"UPGRADE_INTERFACE_VERSION","inputs":[],"outputs":[{"name":"","type":"string","internalType":"string"}],"stateMutability":"view"},{"type":"function","name":"acceptSessionDelegation","inputs":[{"name":"sessionDelegationHash","type":"bytes32","internalType":"bytes32"}],"outputs":[],"stateMutability":"nonpayable"},{"type":"function","name":"accountId","inputs":[],"outputs":[{"name":"","type":"string","internalType":"string"}],"stateMutability":"pure"},{"type":"function","name":"addOwner","inputs":[{"name":"owner","type":"address","internalType":"address"}],"outputs":[],"stateMutability":"nonpayable"},{"type":"function","name":"addPasskey","inputs":[{"name":"credentialIdDigest","type":"bytes32","internalType":"bytes32"},{"name":"x","type":"uint256","internalType":"uint256"},{"name":"y","type":"uint256","internalType":"uint256"}],"outputs":[],"stateMutability":"nonpayable"},{"type":"function","name":"bundlerSigner","inputs":[],"outputs":[{"name":"","type":"address","internalType":"address"}],"stateMutability":"view"},{"type":"function","name":"cancelPendingUpgrade","inputs":[{"name":"ownerSig","type":"bytes","internalType":"bytes"}],"outputs":[],"stateMutability":"nonpayable"},{"type":"function","name":"delegationManager","inputs":[],"outputs":[{"name":"","type":"address","internalType":"address"}],"stateMutability":"view"},{"type":"function","name":"entryPoint","inputs":[],"outputs":[{"name":"","type":"address","internalType":"contract IEntryPoint"}],"stateMutability":"view"},{"type":"function","name":"execute","inputs":[{"name":"target","type":"address","internalType":"address"},{"name":"value","type":"uint256","internalType":"uint256"},{"name":"data","type":"bytes","internalType":"bytes"}],"outputs":[],"stateMutability":"nonpayable"},{"type":"function","name":"executeBatch","inputs":[{"name":"calls","type":"tuple[]","internalType":"struct BaseAccount.Call[]","components":[{"name":"target","type":"address","internalType":"address"},{"name":"value","type":"uint256","internalType":"uint256"},{"name":"data","type":"bytes","internalType":"bytes"}]}],"outputs":[],"stateMutability":"nonpayable"},{"type":"function","name":"executeFromBundler","inputs":[{"name":"op","type":"tuple","internalType":"struct PackedUserOperation","components":[{"name":"sender","type":"address","internalType":"address"},{"name":"nonce","type":"uint256","internalType":"uint256"},{"name":"initCode","type":"bytes","internalType":"bytes"},{"name":"callData","type":"bytes","internalType":"bytes"},{"name":"accountGasLimits","type":"bytes32","internalType":"bytes32"},{"name":"preVerificationGas","type":"uint256","internalType":"uint256"},{"name":"gasFees","type":"bytes32","internalType":"bytes32"},{"name":"paymasterAndData","type":"bytes","internalType":"bytes"},{"name":"signature","type":"bytes","internalType":"bytes"}]},{"name":"userOpHash","type":"bytes32","internalType":"bytes32"},{"name":"bundlerSig","type":"bytes","internalType":"bytes"}],"outputs":[{"name":"","type":"bool","internalType":"bool"}],"stateMutability":"view"},{"type":"function","name":"executePendingUpgrade","inputs":[],"outputs":[],"stateMutability":"nonpayable"},{"type":"function","name":"factory","inputs":[],"outputs":[{"name":"","type":"address","internalType":"address"}],"stateMutability":"view"},{"type":"function","name":"getInstalledModules","inputs":[{"name":"moduleTypeId","type":"uint256","internalType":"uint256"}],"outputs":[{"name":"","type":"address[]","internalType":"address[]"}],"stateMutability":"view"},{"type":"function","name":"getNonce","inputs":[],"outputs":[{"name":"","type":"uint256","internalType":"uint256"}],"stateMutability":"view"},{"type":"function","name":"getPasskey","inputs":[{"name":"credentialIdDigest","type":"bytes32","internalType":"bytes32"}],"outputs":[{"name":"x","type":"uint256","internalType":"uint256"},{"name":"y","type":"uint256","internalType":"uint256"}],"stateMutability":"view"},{"type":"function","name":"hasAcceptedSessionDelegation","inputs":[{"name":"sessionDelegationHash","type":"bytes32","internalType":"bytes32"}],"outputs":[{"name":"","type":"bool","internalType":"bool"}],"stateMutability":"view"},{"type":"function","name":"hasPasskey","inputs":[{"name":"credentialIdDigest","type":"bytes32","internalType":"bytes32"}],"outputs":[{"name":"","type":"bool","internalType":"bool"}],"stateMutability":"view"},{"type":"function","name":"initialize","inputs":[{"name":"initialOwner","type":"address","internalType":"address"},{"name":"dm","type":"address","internalType":"address"},{"name":"factory_","type":"address","internalType":"address"}],"outputs":[],"stateMutability":"nonpayable"},{"type":"function","name":"initializeWithCoOwner","inputs":[{"name":"initialOwner","type":"address","internalType":"address"},{"name":"coOwner","type":"address","internalType":"address"},{"name":"dm","type":"address","internalType":"address"},{"name":"factory_","type":"address","internalType":"address"}],"outputs":[],"stateMutability":"nonpayable"},{"type":"function","name":"installModule","inputs":[{"name":"moduleTypeId","type":"uint256","internalType":"uint256"},{"name":"module","type":"address","internalType":"address"},{"name":"initData","type":"bytes","internalType":"bytes"}],"outputs":[],"stateMutability":"nonpayable"},{"type":"function","name":"isModuleInstalled","inputs":[{"name":"moduleTypeId","type":"uint256","internalType":"uint256"},{"name":"module","type":"address","internalType":"address"},{"name":"","type":"bytes","internalType":"bytes"}],"outputs":[{"name":"","type":"bool","internalType":"bool"}],"stateMutability":"view"},{"type":"function","name":"isOwner","inputs":[{"name":"account","type":"address","internalType":"address"}],"outputs":[{"name":"","type":"bool","internalType":"bool"}],"stateMutability":"view"},{"type":"function","name":"isValidSignature","inputs":[{"name":"hash","type":"bytes32","internalType":"bytes32"},{"name":"signature","type":"bytes","internalType":"bytes"}],"outputs":[{"name":"","type":"bytes4","internalType":"bytes4"}],"stateMutability":"view"},{"type":"function","name":"ownerCount","inputs":[],"outputs":[{"name":"","type":"uint256","internalType":"uint256"}],"stateMutability":"view"},{"type":"function","name":"passkeyCount","inputs":[],"outputs":[{"name":"","type":"uint256","internalType":"uint256"}],"stateMutability":"view"},{"type":"function","name":"pendingUpgrade","inputs":[],"outputs":[{"name":"newImpl","type":"address","internalType":"address"},{"name":"readyAt","type":"uint64","internalType":"uint64"}],"stateMutability":"view"},{"type":"function","name":"proxiableUUID","inputs":[],"outputs":[{"name":"","type":"bytes32","internalType":"bytes32"}],"stateMutability":"view"},{"type":"function","name":"removeOwner","inputs":[{"name":"owner","type":"address","internalType":"address"}],"outputs":[],"stateMutability":"nonpayable"},{"type":"function","name":"removePasskey","inputs":[{"name":"credentialIdDigest","type":"bytes32","internalType":"bytes32"}],"outputs":[],"stateMutability":"nonpayable"},{"type":"function","name":"sessionIssuer","inputs":[],"outputs":[{"name":"","type":"address","internalType":"address"}],"stateMutability":"view"},{"type":"function","name":"setDelegationManager","inputs":[{"name":"dm","type":"address","internalType":"address"}],"outputs":[],"stateMutability":"nonpayable"},{"type":"function","name":"setUpgradeTimelock","inputs":[{"name":"secs","type":"uint256","internalType":"uint256"}],"outputs":[],"stateMutability":"nonpayable"},{"type":"function","name":"supportsExecutionMode","inputs":[{"name":"","type":"bytes32","internalType":"bytes32"}],"outputs":[{"name":"","type":"bool","internalType":"bool"}],"stateMutability":"pure"},{"type":"function","name":"supportsModule","inputs":[{"name":"moduleTypeId","type":"uint256","internalType":"uint256"}],"outputs":[{"name":"","type":"bool","internalType":"bool"}],"stateMutability":"pure"},{"type":"function","name":"uninstallModule","inputs":[{"name":"moduleTypeId","type":"uint256","internalType":"uint256"},{"name":"module","type":"address","internalType":"address"},{"name":"deInitData","type":"bytes","internalType":"bytes"}],"outputs":[],"stateMutability":"nonpayable"},{"type":"function","name":"upgradeTimelock","inputs":[],"outputs":[{"name":"","type":"uint256","internalType":"uint256"}],"stateMutability":"view"},{"type":"function","name":"upgradeToAndCall","inputs":[{"name":"newImplementation","type":"address","internalType":"address"},{"name":"data","type":"bytes","internalType":"bytes"}],"outputs":[],"stateMutability":"payable"},{"type":"function","name":"upgradeToWithAuthorization","inputs":[{"name":"newImpl","type":"address","internalType":"address"},{"name":"ownerSig","type":"bytes","internalType":"bytes"}],"outputs":[],"stateMutability":"nonpayable"},{"type":"function","name":"validateUserOp","inputs":[{"name":"userOp","type":"tuple","internalType":"struct PackedUserOperation","components":[{"name":"sender","type":"address","internalType":"address"},{"name":"nonce","type":"uint256","internalType":"uint256"},{"name":"initCode","type":"bytes","internalType":"bytes"},{"name":"callData","type":"bytes","internalType":"bytes"},{"name":"accountGasLimits","type":"bytes32","internalType":"bytes32"},{"name":"preVerificationGas","type":"uint256","internalType":"uint256"},{"name":"gasFees","type":"bytes32","internalType":"bytes32"},{"name":"paymasterAndData","type":"bytes","internalType":"bytes"},{"name":"signature","type":"bytes","internalType":"bytes"}]},{"name":"userOpHash","type":"bytes32","internalType":"bytes32"},{"name":"missingAccountFunds","type":"uint256","internalType":"uint256"}],"outputs":[{"name":"validationData","type":"uint256","internalType":"uint256"}],"stateMutability":"nonpayable"},{"type":"function","name":"version","inputs":[],"outputs":[{"name":"","type":"string","internalType":"string"}],"stateMutability":"pure"},{"type":"event","name":"Initialized","inputs":[{"name":"version","type":"uint64","indexed":false,"internalType":"uint64"}],"anonymous":false},{"type":"event","name":"ModuleInstalled","inputs":[{"name":"moduleTypeId","type":"uint256","indexed":false,"internalType":"uint256"},{"name":"module","type":"address","indexed":false,"internalType":"address"}],"anonymous":false},{"type":"event","name":"ModuleUninstalled","inputs":[{"name":"moduleTypeId","type":"uint256","indexed":false,"internalType":"uint256"},{"name":"module","type":"address","indexed":false,"internalType":"address"}],"anonymous":false},{"type":"event","name":"OwnerAdded","inputs":[{"name":"owner","type":"address","indexed":true,"internalType":"address"}],"anonymous":false},{"type":"event","name":"OwnerRemoved","inputs":[{"name":"owner","type":"address","indexed":true,"internalType":"address"}],"anonymous":false},{"type":"event","name":"PasskeyAdded","inputs":[{"name":"credentialIdDigest","type":"bytes32","indexed":true,"internalType":"bytes32"},{"name":"x","type":"uint256","indexed":false,"internalType":"uint256"},{"name":"y","type":"uint256","indexed":false,"internalType":"uint256"}],"anonymous":false},{"type":"event","name":"PasskeyRemoved","inputs":[{"name":"credentialIdDigest","type":"bytes32","indexed":true,"internalType":"bytes32"}],"anonymous":false},{"type":"event","name":"SessionDelegationAccepted","inputs":[{"name":"sessionDelegationHash","type":"bytes32","indexed":true,"internalType":"bytes32"}],"anonymous":false},{"type":"event","name":"UpgradeAuthorized","inputs":[{"name":"newImplementation","type":"address","indexed":true,"internalType":"address"}],"anonymous":false},{"type":"event","name":"UpgradeCancelled","inputs":[{"name":"newImplementation","type":"address","indexed":true,"internalType":"address"}],"anonymous":false},{"type":"event","name":"UpgradeProposed","inputs":[{"name":"newImplementation","type":"address","indexed":true,"internalType":"address"},{"name":"readyAt","type":"uint64","indexed":false,"internalType":"uint64"}],"anonymous":false},{"type":"event","name":"UpgradeTimelockChanged","inputs":[{"name":"oldValue","type":"uint256","indexed":false,"internalType":"uint256"},{"name":"newValue","type":"uint256","indexed":false,"internalType":"uint256"}],"anonymous":false},{"type":"event","name":"Upgraded","inputs":[{"name":"implementation","type":"address","indexed":true,"internalType":"address"}],"anonymous":false},{"type":"error","name":"AddressEmptyCode","inputs":[{"name":"target","type":"address","internalType":"address"}]},{"type":"error","name":"CannotRemoveLastOwner","inputs":[]},{"type":"error","name":"CannotRemoveLastSigner","inputs":[]},{"type":"error","name":"ERC1967InvalidImplementation","inputs":[{"name":"implementation","type":"address","internalType":"address"}]},{"type":"error","name":"ERC1967NonPayable","inputs":[]},{"type":"error","name":"ExecuteError","inputs":[{"name":"index","type":"uint256","internalType":"uint256"},{"name":"error","type":"bytes","internalType":"bytes"}]},{"type":"error","name":"FactoryNotSet","inputs":[]},{"type":"error","name":"FailedCall","inputs":[]},{"type":"error","name":"InvalidInitialization","inputs":[]},{"type":"error","name":"InvalidInnerSignature","inputs":[]},{"type":"error","name":"InvalidPasskeyPublicKey","inputs":[]},{"type":"error","name":"ModuleAlreadyInstalled","inputs":[{"name":"moduleTypeId","type":"uint256","internalType":"uint256"},{"name":"module","type":"address","internalType":"address"}]},{"type":"error","name":"ModuleNotInstalled","inputs":[{"name":"moduleTypeId","type":"uint256","internalType":"uint256"},{"name":"module","type":"address","internalType":"address"}]},{"type":"error","name":"ModuleOnInstallFailed","inputs":[{"name":"reason","type":"bytes","internalType":"bytes"}]},{"type":"error","name":"ModuleOnUninstallFailed","inputs":[{"name":"reason","type":"bytes","internalType":"bytes"}]},{"type":"error","name":"NoPendingUpgrade","inputs":[]},{"type":"error","name":"NotBundler","inputs":[]},{"type":"error","name":"NotEntryPoint","inputs":[]},{"type":"error","name":"NotFromEntryPoint","inputs":[{"name":"msgSender","type":"address","internalType":"address"},{"name":"entity","type":"address","internalType":"address"},{"name":"entryPoint","type":"address","internalType":"address"}]},{"type":"error","name":"NotFromSelf","inputs":[]},{"type":"error","name":"NotInitializing","inputs":[]},{"type":"error","name":"NotOwnerOrSelf","inputs":[]},{"type":"error","name":"NotOwnerSig","inputs":[]},{"type":"error","name":"OwnerAlreadyExists","inputs":[{"name":"owner","type":"address","internalType":"address"}]},{"type":"error","name":"OwnerDoesNotExist","inputs":[{"name":"owner","type":"address","internalType":"address"}]},{"type":"error","name":"PasskeyAlreadyRegistered","inputs":[{"name":"credentialIdDigest","type":"bytes32","internalType":"bytes32"}]},{"type":"error","name":"PasskeyNotRegistered","inputs":[{"name":"credentialIdDigest","type":"bytes32","internalType":"bytes32"}]},{"type":"error","name":"PendingUpgradeMismatch","inputs":[{"name":"pending","type":"address","internalType":"address"},{"name":"attempted","type":"address","internalType":"address"}]},{"type":"error","name":"ReentrancyGuardReentrantCall","inputs":[]},{"type":"error","name":"SessionDelegationAlreadyAccepted","inputs":[{"name":"hash","type":"bytes32","internalType":"bytes32"}]},{"type":"error","name":"TooManyHooks","inputs":[]},{"type":"error","name":"UUPSUnauthorizedCallContext","inputs":[]},{"type":"error","name":"UUPSUnsupportedProxiableUUID","inputs":[{"name":"slot","type":"bytes32","internalType":"bytes32"}]},{"type":"error","name":"UnknownSignatureType","inputs":[{"name":"sigType","type":"uint8","internalType":"uint8"}]},{"type":"error","name":"UnsupportedModuleType","inputs":[{"name":"moduleTypeId","type":"uint256","internalType":"uint256"}]},{"type":"error","name":"UpgradeNotReady","inputs":[{"name":"readyAt","type":"uint64","internalType":"uint64"},{"name":"nowTs","type":"uint256","internalType":"uint256"}]},{"type":"error","name":"UpgradePending","inputs":[]},{"type":"error","name":"UpgradeTimelockTooLong","inputs":[{"name":"secs","type":"uint256","internalType":"uint256"},{"name":"max","type":"uint256","internalType":"uint256"}]},{"type":"error","name":"ZeroAddress","inputs":[]}],"bytecode":{"object":"0x60c03461014f57601f613a6938819003918201601f19168301916001600160401b038311848410176101535780849260209460405283398101031261014f57516001600160a01b038116810361014f573060805260017f9b779b17422d0df92223018b32b4d1fa46e071723d6817e2486d003becc55f005560a0525f516020613a495f395f51905f525460ff8160401c16610140576002600160401b03196001600160401b038216016100ea575b6040516138e190816101688239608051818181610caf0152610dd6015260a0518181816108720152818161174801528181611d1c0152612d790152f35b6001600160401b0319166001600160401b039081175f516020613a495f395f51905f52556040519081527fc7f505b2f371ae2175ee4913f4499e1f2633a7b5936321eed1cdaeb6115181d290602090a15f6100ad565b63f92ee8a960e01b5f5260045ffd5b5f80fd5b634e487b7160e01b5f52604160045260245ffdfe6080604052600436101561001a575b3615610018575f80fd5b005b5f3560e01c80630aca0632146102b95780630db02622146102b45780630f460cb4146102af5780630ff4d31e146102aa578063112d3a7d146102a557806314b93145146102a05780631626ba7e1461029b578063173825d91461029657806319822f7c146102915780631a8d0de21461028c5780632f54bf6e1461028757806334fcd5be1461028257806346f517301461027d5780634c1ed102146102785780634f1ef2861461027357806352d1902d1461026e57806354fd4d5014610269578063579b71151461026457806363d935671461025f5780636c6d6b6c1461025a5780637065cb48146102555780638c879fb9146102505780639517e29f1461024b57806395e93245146102465780639cfd7cff14610241578063a1c9427a1461023c578063a71763a814610237578063ab18c40f14610232578063ad3cb1cc1461022d578063b0d691fe14610228578063b2ea8b4714610223578063b47e0c251461021e578063b61d27f614610219578063bb60a69a14610214578063c0c53b8b1461020f578063c45a01551461020a578063d03c791414610205578063d087d28814610200578063ea4d3c9b146101fb578063f19816d3146101f6578063f2dc691d146101f15763ff2840ed0361000e57611f04565b611ee6565b611db9565b611d92565b611ceb565b611cd0565b611ca8565b611be6565b611b68565b6118d4565b6117bd565b611777565b611733565b6116ec565b6115ce565b611447565b6113c2565b611321565b6112e3565b6110bd565b6110a0565b610fec565b610eda565b610ec0565b610e97565b610e50565b610dc4565b610c6d565b610b69565b610a24565b6109c9565b610998565b610926565b610838565b610734565b610604565b6104d7565b610475565b610368565b610315565b6102f8565b6102cc565b5f9103126102c857565b5f80fd5b346102c8575f3660031901126102c85760206102e6611f53565b6040516001600160a01b039091168152f35b346102c8575f3660031901126102c8576020600254604051908152f35b346102c85760203660031901126102c8576004355f525f51602061388c5f395f51905f5260205260405f2060018154910154906103646040519283928360209093929193604081019481520152565b0390f35b346102c85760203660031901126102c8576004353033036103e95762278d0081116103d05760058054908290556040805191825260208201929092527f5ee220812f227c24cacdd4472d80400655197be961bd30798ddbbe7128b0989d91819081015b0390a1005b631a962a1360e11b5f5260045262278d0060245260445ffd5b63295d6e8760e21b5f5260045ffd5b6001600160a01b038116036102c857565b9181601f840112156102c8578235916001600160401b0383116102c857602083818601950101116102c857565b60606003198201126102c85760043591602435610452816103f8565b91604435906001600160401b0382116102c85761047191600401610409565b9091565b346102c857602060ff6104cb61048a36610436565b5050905f527f1f14a6accceab237b8ab0463623403008b2dec742c79d1d0e63a7729f8c11c00845260405f209060018060a01b03165f5260205260405f2090565b54166040519015158152f35b346102c85760203660031901126102c8576004356001600160401b0381116102c857610507903690600401610409565b61050f611fe9565b916001600160401b0361052c60208501516001600160401b031690565b16156105f5578251604080516d155411d490511157d0d05390d15360921b602082019081526001600160a01b03909316918101919091523060608201524660808201526105a9936105a593909261059f926105948160a081015b03601f198101835282610bb8565b519020923691610c19565b90612b21565b1590565b6105e6576105b65f600655565b516001600160a01b03167f3198dc80249fcfedbd0d06e1ff49a7695a51b006592328ce0b127cdeab77e9365f80a2005b633c7adf8b60e11b5f5260045ffd5b636eb093af60e11b5f5260045ffd5b346102c85760403660031901126102c8576004356024356001600160401b0381116102c857610637903690600401610409565b91610643368484610c19565b916020841015806106ca575b936106609461069d575b5050612c6f565b1561068c57610364630b135d3f60e11b5b6040516001600160e01b031990911681529081906020820190565b6103646001600160e01b0319610671565b6106bf92935090816106b16106b79361203c565b91612068565b81019061208e565b915050905f80610659565b50601f1984019380851161072f577f649264926492649264926492649264926492649264926492649264926492649261070882610660978186612076565b9035906020811061071e575b501490945061064f565b5f199060200360031b1b165f610714565b612028565b346102c85760203660031901126102c857600435610751816103f8565b3033036103e9576001600160a01b0381165f8181526001602052604090205490919060ff161561080e57600160025414806107f8575b6107e9576001600160a01b03165f9081526001602052604090206107b0905b805460ff19169055565b6107c36107be6002546120e2565b600255565b7f58619076adf5bb0943d100ef88d52d7c3fd691b19d3a9071b555b651fbf418da5f80a2005b632352e49760e21b5f5260045ffd5b505f51602061384c5f395f51905f525415610787565b63298f10e760e11b5f526001600160a01b031660045260245ffd5b90816101209103126102c85790565b346102c85760603660031901126102c8576004356001600160401b0381116102c857610868903690600401610829565b60243590604435907f00000000000000000000000000000000000000000000000000000000000000006001600160a01b031633819003610903575060ff926108c26108bb836101006108c895019061239f565b3691610c19565b90612c6f565b156108fb575f905b806108e3575b5060405191168152602090f35b5f80808093335af1506108f46123de565b505f6108d6565b6001906108d0565b63fe34a6d360e01b5f5233600452306024526001600160a01b031660445260645ffd5b346102c85760203660031901126102c857600435610943816103f8565b3033141580610981575b610972575f80546001600160a01b0319166001600160a01b0392909216919091179055005b6330a0953960e21b5f5260045ffd5b50335f52600160205260ff60405f2054161561094d565b346102c85760203660031901126102c85760206109bf6004356109ba816103f8565b6120ee565b6040519015158152f35b346102c85760203660031901126102c8576004356001600160401b0381116102c857366023820112156102c85780600401356001600160401b0381116102c8573660248260051b840101116102c8576024610018920161240d565b346102c85760803660031901126102c857600435610a41816103f8565b60243590610a4e826103f8565b604435610a5a816103f8565b60643590610a67826103f8565b5f51602061386c5f395f51905f5254936001600160401b03610a9860ff604088901c1615966001600160401b031690565b1680159081610b61575b6001149081610b57575b159081610b4e575b50610b3f57610acf9385610ac6612611565b610b325761266b565b610ad557005b610aff60ff60401b195f51602061386c5f395f51905f5254165f51602061386c5f395f51905f5255565b604051600181527fc7f505b2f371ae2175ee4913f4499e1f2633a7b5936321eed1cdaeb6115181d29080602081016103cb565b610b3a61263e565b61266b565b63f92ee8a960e01b5f5260045ffd5b9050155f610ab4565b303b159150610aac565b869150610aa2565b346102c85760203660031901126102c8576004355f525f5160206137ec5f395f51905f52602052602060ff60405f2054166040519015158152f35b634e487b7160e01b5f52604160045260245ffd5b90601f801991011681019081106001600160401b03821117610bd957604052565b610ba4565b60405190610bed604083610bb8565b565b60405190610bed60e083610bb8565b6001600160401b038111610bd957601f01601f191660200190565b929192610c2582610bfe565b91610c336040519384610bb8565b8294818452818301116102c8578281602093845f960137010152565b9080601f830112156102c857816020610c6a93359101610c19565b90565b60403660031901126102c857600435610c85816103f8565b6024356001600160401b0381116102c857610ca4903690600401610c4f565b906001600160a01b037f000000000000000000000000000000000000000000000000000000000000000016308114908115610da2575b50610d93573033036103e9576040516352d1902d60e01b8152916020836004816001600160a01b0386165afa5f9381610d62575b50610d2f57634c9c8ce360e01b5f526001600160a01b03821660045260245ffd5b905f51602061382c5f395f51905f528303610d4e576100189250613086565b632a87526960e21b5f52600483905260245ffd5b610d8591945060203d602011610d8c575b610d7d8183610bb8565b810190612dd6565b925f610d0e565b503d610d73565b63703e46dd60e11b5f5260045ffd5b5f51602061382c5f395f51905f52546001600160a01b0316141590505f610cda565b346102c8575f3660031901126102c8577f00000000000000000000000000000000000000000000000000000000000000006001600160a01b03163003610d935760206040515f51602061382c5f395f51905f528152f35b805180835260209291819084018484015e5f828201840152601f01601f1916010190565b906020610c6a928181520190610e1b565b346102c8575f3660031901126102c857610364604051610e71604082610bb8565b60058152640322e322e360dc1b6020820152604051918291602083526020830190610e1b565b346102c8575f3660031901126102c85760205f51602061384c5f395f51905f5254604051908152f35b346102c8575f3660031901126102c85760206102e661274e565b346102c8575f3660031901126102c857610ef2611fe9565b602081016001600160401b03610f0f82516001600160401b031690565b16156105f557516001600160401b0316428111610fcd57610f4082610f335f600655565b516001600160a01b031690565b604051906001600160a01b0381167febae6b88046560d31d8bf8987d05beaf03b5a0d572b558bc963091ba87ba7ee15f80a2303b156102c85763278f794360e11b82526001600160a01b03166004820152604060248201525f604482018190528160648183305af18015610fc857610fb457005b80610fc25f61001893610bb8565b806102be565b611f48565b6333c0e2e360e21b5f526001600160401b03166004524260245260445ffd5b346102c85760203660031901126102c857600435611009816103f8565b3033036103e9576001600160a01b03811690811561109157815f52600160205260ff60405f20541661107e576001600160a01b03165f90815260016020526040902061105d905b805460ff19166001179055565b61106b6107be600254612789565b5f5160206137cc5f395f51905f525f80a2005b506316e832e960e21b5f5260045260245ffd5b63d92e233d60e01b5f5260045ffd5b346102c8575f3660031901126102c8576020600554604051908152f35b346102c8576110cb36610436565b9030331415806112cc575b610972576001600160a01b038316918215611091576110f76105a586612de5565b6112b8576111276111208561110b88611fbc565b9060018060a01b03165f5260205260405f2090565b5460ff1690565b61129757600485148061126e575b61125f576111496110508561110b88611fbc565b6111708461116b875f525f51602061380c5f395f51905f5260205260405f2090565b6127ac565b823b156102c85761119a925f92836040518096819582946306d61fe760e41b8452600484016127f3565b03925af1908161124b575b50611208576111eb6111e6611204936111cc6107a66111c26123de565b9561110b84611fbc565b5f525f51602061380c5f395f51905f5260205260405f2090565b612804565b604051634f8c520960e01b815291829160048301610e3f565b0390fd5b604080519283526001600160a01b0390911660208301527fd21d0b289f126c4b473ea641963e766833c2f13866e4ff480abd787c100ef1239190819081016103cb565b80610fc25f61125993610bb8565b5f6111a5565b63379c814d60e21b5f5260045ffd5b50600861128f865f525f51602061380c5f395f51905f5260205260405f2090565b541015611135565b630b961e3560e11b5f5260048590526001600160a01b03841660245260445ffd5b63041c38b360e41b5f52600485905260245ffd5b50335f52600160205260ff60405f205416156110d6565b346102c8575f3660031901126102c85760406112fd611fe9565b6001600160401b03602060018060a01b038351169201511682519182526020820152f35b346102c8575f3660031901126102c857610364604051611342604082610bb8565b601b81527f736d6172742d6167656e742e6167656e742d6163636f756e742e3200000000006020820152604051918291602083526020830190610e1b565b60206040818301928281528451809452019201905f5b8181106113a35750505090565b82516001600160a01b0316845260209384019390920191600101611396565b346102c85760203660031901126102c8576004355f525f51602061380c5f395f51905f5260205260405f206040519081602082549182815201915f5260205f20905f5b818110611428576103648561141c81870382610bb8565b60405191829182611380565b82546001600160a01b0316845260209093019260019283019201611405565b346102c85761145536610436565b9030331415806115b7575b610972576114706105a585612de5565b6115a3576114876105a56111208561110b88611fbc565b611582576001600160a01b03831691823b156102c8576114c0925f9283604051809681958294638a91b0e360e01b8452600484016127f3565b03925af1908161156e575b506114f4576112046114db6123de565b6040516319d6ca0d60e21b815291829160048301610e3f565b7f341347516a9de374859dfda710fa4828b2d48cb57d4fbe4c1149612b8e02276e916115266107a68361110b84611fbc565b61154d82611548835f525f51602061380c5f395f51905f5260205260405f2090565b612e0e565b604080519182526001600160a01b03909216602082015290819081016103cb565b80610fc25f61157c93610bb8565b5f6114cb565b635f300b3960e11b5f5260048490526001600160a01b03831660245260445ffd5b63041c38b360e41b5f52600484905260245ffd5b50335f52600160205260ff60405f20541615611460565b346102c85760203660031901126102c8576004353033036103e9575f8181525f5160206137ec5f395f51905f52602052604090205460ff16156116da5760016116286002545f51602061384c5f395f51905f52549061286e565b146116cb5761165961164e825f525f51602061388c5f395f51905f5260205260405f2090565b60015f918281550155565b61167a6107a6825f525f5160206137ec5f395f51905f5260205260405f2090565b6116a56116945f51602061384c5f395f51905f525461204b565b5f51602061384c5f395f51905f5255565b7f6478f30699d78c25aec768184c69105e8f3606c825c91ca4511e96ae6a4e4e1f5f80a2005b63c4c8547360e01b5f5260045ffd5b63752d090f60e01b5f5260045260245ffd5b346102c8575f3660031901126102c85761036460405161170d604082610bb8565b60058152640352e302e360dc1b6020820152604051918291602083526020830190610e1b565b346102c8575f3660031901126102c8576040517f00000000000000000000000000000000000000000000000000000000000000006001600160a01b03168152602090f35b346102c85760403660031901126102c857600435611794816103f8565b602435906001600160401b0382116102c8576117b7610018923690600401610409565b9161287b565b346102c85760603660031901126102c8576004356001600160401b0381116102c8576117ed903690600401610829565b602435906044356001600160401b0381116102c857611810903690600401610409565b9061181961274e565b6001600160a01b038116156118c557604080516f42554e444c45525f454e56454c4f504560801b6020820190815291810187905230606082015246608082015261187a946105a5949092611874926105948160a08101610586565b90612ea4565b6118b657611897916108c26108bb836101006105a595019061239f565b6118a75760405160018152602090f35b631ab0a05760e31b5f5260045ffd5b632bcf7b4d60e21b5f5260045ffd5b6329f7dfeb60e21b5f5260045ffd5b346102c85760603660031901126102c8576004356118f1816103f8565b6024356044356001600160401b0381116102c857611913903690600401610409565b909160027f9b779b17422d0df92223018b32b4d1fa46e071723d6817e2486d003becc55f005414611b595760027f9b779b17422d0df92223018b32b4d1fa46e071723d6817e2486d003becc55f005561196a612d77565b60045f525f51602061380c5f395f51905f526020526119a87f0b73fd07d5abf1468d9a60de00f6d65eeaf10d89f9fda4d5da5f13e565b91b37612116565b6119b2815161217e565b94604051936119d9856119cb8389888760208601612a43565b03601f198101875286610bb8565b5f5b8351811015611a7957611a036119f76119f7610f3384886122c9565b6001600160a01b031690565b905f604051809363d68f602560e01b8252818381611a268d8d3360048501612a67565b03925af18015610fc8576001925f91611a57575b50611a45828b6122c9565b52611a50818a6122c9565b50016119db565b611a7391503d805f833e611a6b8183610bb8565b810190612326565b5f611a3a565b505f918291889588611a90604051809481936123d1565b03925af1611a9c6123de565b9015611b5157505f5b8151811015611b2857611ac16119f76119f7610f3384866122c9565b90611acc81856122c9565b5191803b156102c857604051630b9dfbed60e11b8152925f918491829084908290611afa9060048301610e3f565b03925af1918215610fc857600192611b14575b5001611aa5565b80610fc25f611b2293610bb8565b84611b0d565b61001860017f9b779b17422d0df92223018b32b4d1fa46e071723d6817e2486d003becc55f0055565b602081519101fd5b633ee5aeb560e01b5f5260045ffd5b346102c85760203660031901126102c8576004353033036103e957805f52600460205260ff60405f205416611bd457805f52600460205260405f20600160ff198254161790557f5f322fdd3795c50a418e26f9eb4dd09bf3df49e308c7a00047befec915b49ad15f80a2005b63e3371ec960e01b5f5260045260245ffd5b346102c85760603660031901126102c857600435611c03816103f8565b60243590611c10826103f8565b604435611c1c816103f8565b5f51602061386c5f395f51905f5254926001600160401b03611c4d60ff604087901c1615956001600160401b031690565b1680159081611ca0575b6001149081611c96575b159081611c8d575b50610b3f57610acf9284611c7b612611565b15612a8b57611c8861263e565b612a8b565b9050155f611c69565b303b159150611c61565b859150611c57565b346102c8575f3660031901126102c8576003546040516001600160a01b039091168152602090f35b346102c85760203660031901126102c85760206040515f8152f35b346102c8575f3660031901126102c857604051631aab3f0d60e11b81523060048201525f60248201526020816044817f00000000000000000000000000000000000000000000000000000000000000006001600160a01b03165afa8015610fc8575f90611d5e575b604051908152602090f35b506020813d602011611d8a575b81611d7860209383610bb8565b810103126102c8576103649051611d53565b3d9150611d6b565b346102c8575f3660031901126102c8575f546040516001600160a01b039091168152602090f35b346102c85760603660031901126102c8576004356044356024353033036103e95780158015611ede575b611ecf575f8381525f5160206137ec5f395f51905f52602052604090205460ff16611ebb57907f225b99aa4fde5bb1838d392d0db95613cbabd13dfb9d2999653b8c4c9386db0491611e6e611e36610bde565b828152836020820152611e5d865f525f51602061388c5f395f51905f5260205260405f2090565b906020600191805184550151910155565b611e8f611050855f525f5160206137ec5f395f51905f5260205260405f2090565b611ea96116945f51602061384c5f395f51905f5254612844565b604080519182526020820192909252a2005b63402fbf2f60e11b5f52600483905260245ffd5b63543f188160e01b5f5260045ffd5b508115611de3565b346102c85760203660031901126102c85760206109bf600435612de5565b346102c85760203660031901126102c8576004355f526004602052602060ff60405f2054166040519015158152f35b908160209103126102c85751610c6a816103f8565b6040513d5f823e3d90fd5b6003546001600160a01b03168015611fb757602060049160405192838092630565031960e11b82525afa908115610fc8575f91611f8e575090565b610c6a915060203d602011611fb0575b611fa88183610bb8565b810190611f33565b503d611f9e565b505f90565b5f527f1f14a6accceab237b8ab0463623403008b2dec742c79d1d0e63a7729f8c11c0060205260405f2090565b60405190604082018281106001600160401b03821117610bd9576040526006546001600160a01b038116835260a01c6001600160401b03166020830152565b634e487b7160e01b5f52601160045260245ffd5b601f1981019190821161072f57565b5f1981019190821161072f57565b60071981019190821161072f57565b9092919283116102c8579190565b909392938483116102c85784116102c8578101920390565b916060838303126102c85782356120a4816103f8565b9260208101356001600160401b0381116102c857836120c4918301610c4f565b9260408201356001600160401b0381116102c857610c6a9201610c4f565b801561072f575f190190565b6001600160a01b0316308114612110575f52600160205260ff60405f20541690565b50600190565b90604051918281549182825260208201905f5260205f20925f5b818110612145575050610bed92500383610bb8565b84546001600160a01b0316835260019485019487945060209093019201612130565b6001600160401b038111610bd95760051b60200190565b9061218882612167565b6121956040519182610bb8565b82815280926121a6601f1991612167565b01905f5b8281106121b657505050565b8060606020809385010152016121aa565b908060209392818452848401375f828201840152601f01601f1916010190565b91806020840160208552526040830160408260051b85010193835f91605e1982360301905b85841061221d575050505050505090565b90919293949596603f198282030186528735838112156102c85784018035612244816103f8565b6001600160a01b0316825260208181013590830152604081013536829003601e19018112156102c85701602081359101906001600160401b0381116102c85780360382136102c8576122a66020928392606086816040600199015201916121c7565b9901979601940192919061220c565b634e487b7160e01b5f52603260045260245ffd5b80518210156122dd5760209160051b010190565b6122b5565b81601f820112156102c8576020815191016122fc82610bfe565b9261230a6040519485610bb8565b828452828201116102c857815f926020928386015e8301015290565b906020828203126102c85781516001600160401b0381116102c857610c6a92016122e2565b6001600160a01b0390911681525f6020820152606060408201819052610c6a92910190610e1b565b91908110156122dd5760051b81013590605e19813603018212156102c8570190565b35610c6a816103f8565b903590601e19813603018212156102c857018035906001600160401b0382116102c8576020019181360383136102c857565b908092918237015f815290565b3d15612408573d906123ef82610bfe565b916123fd6040519384610bb8565b82523d5f602084013e565b606090565b612415612d77565b60045f525f51602061380c5f395f51905f526020526124537f0b73fd07d5abf1468d9a60de00f6d65eeaf10d89f9fda4d5da5f13e565b91b37612116565b61245d815161217e565b9360405192612482846124748784602084016121e7565b03601f198101865285610bb8565b5f5b835181101561250d576124a06119f76119f7610f3384886122c9565b905f604051809363d68f602560e01b82528183816124c28c336004840161234b565b03925af18015610fc8576001925f916124f3575b506124e1828a6122c9565b526124ec81896122c9565b5001612484565b61250791503d805f833e611a6b8183610bb8565b5f6124d6565b50919250925f5b8181106125a9575050505f5b81518110156125a35761253c6119f76119f7610f3384866122c9565b9061254781866122c9565b5191803b156102c857604051630b9dfbed60e11b8152925f9184918290849082906125759060048301610e3f565b03925af1918215610fc85760019261258f575b5001612520565b80610fc25f61259d93610bb8565b5f612588565b50509050565b5f806125be6125b9848688612373565b612395565b60206125cb858789612373565b01356125e56125db86888a612373565b604081019061239f565b91906125f6604051809481936123d1565b03925af16126026123de565b9015611b515750600101612514565b60016001600160401b03195f51602061386c5f395f51905f525416175f51602061386c5f395f51905f5255565b600160401b60ff60401b195f51602061386c5f395f51905f525416175f51602061386c5f395f51905f5255565b909291906001600160a01b0316801561109157610bed93815f52600160205261269e60405f20600160ff19825416179055565b6001600255815f5160206137cc5f395f51905f525f80a26001600160a01b038116918215159081612743575b50612708575b505060018060a01b03166001600160601b0360a01b5f5416175f5560018060a01b03166001600160601b0360a01b6003541617600355565b6001600160a01b03165f90815260016020526040902061272790611050565b600280555f5160206137cc5f395f51905f525f80a25f806126d0565b90508214155f6126ca565b6003546001600160a01b03168015611fb7576020600491604051928380926363d9356760e01b82525afa908115610fc8575f91611f8e575090565b5f19811461072f5760010190565b80548210156122dd575f5260205f2001905f90565b90815491600160401b831015610bd957826127cf916001610bed95018155612797565b81546001600160a01b0393841660039290921b91821b9390911b1916919091179055565b916020610c6a9381815201916121c7565b80548015612830575f19019061281a8282612797565b81549060018060a01b039060031b1b1916905555565b634e487b7160e01b5f52603160045260245ffd5b906001820180921161072f57565b90602b820180921161072f57565b906006820180921161072f57565b9190820180921161072f57565b6001600160a01b03811692909183156110915760408051665550475241444560c81b602082019081526001600160a01b038616928201929092523060608201524660808201526128dc936105a593909261059f926105948160a08101610586565b6105e657600554806129625750604051917febae6b88046560d31d8bf8987d05beaf03b5a0d572b558bc963091ba87ba7ee15f80a2303b156102c85763278f794360e11b82526001600160a01b03166004820152604060248201525f604482018190528160648183305af18015610fc8576129545750565b80610fc25f610bed93610bb8565b60065460a01c6001600160401b0316612a34577ff7f785105b8c71eb1f84c2b517becaac3aebfff4cb18904a739305118e9aecae91612a156129b66129aa612a2f944261286e565b6001600160401b031690565b916129d16129c2610bde565b6001600160a01b039092168252565b6001600160401b038316602082015251600680546001600160e01b0319166001600160a01b039092169190911760a084901b67ffffffffffffffff60a01b16179055565b6040516001600160401b0390911681529081906020820190565b0390a2565b63dfa2608f60e01b5f5260045ffd5b610c6a949260609260018060a01b03168252602082015281604082015201916121c7565b610c6a939260609260018060a01b0316825260208201528160408201520190610e1b565b6001600160a01b0316919082156110915782610bed935f52600160205260405f20600160ff1982541617905560016002555f5160206137cc5f395f51905f525f80a260018060a01b03166001600160601b0360a01b5f5416175f5560018060a01b03166001600160601b0360a01b6003541617600355565b60041115612b0d57565b634e487b7160e01b5f52602160045260245ffd5b90612b2c8183612f41565b506004811015612b0d57159081612bb7575b50612bb057612b77612b7c927f19457468657265756d205369676e6564204d6573736167653a0a3332000000005f52601c52603c5f2090565b612f41565b50612b8681612b03565b159081612b91575090565b6001600160a01b03165f90815260016020526040902060ff9150541690565b5050600190565b6001600160a01b03165f9081526001602052604081205460ff169150612b3e565b8051156122dd5760200190565b9081518110156122dd570160200190565b60405160809190612c078382610bb8565b6041815291601f1901366020840137565b60408051909190612c298382610bb8565b60208152918290601f190190369060200137565b90612c4782610bfe565b612c546040519182610bb8565b8281528092612c65601f1991610bfe565b0190602036910137565b6041825114612d6d576001825110612d675760ff612ca6612ca0612c9285612bd8565b516001600160f81b03191690565b60f81c90565b168015612d1157600114612cba5750505f90565b9091612cce612cc9845161204b565b612c3d565b905f5b8251811015612d055780612cf2612c92612cec600194612844565b88612be5565b5f1a612cfe8286612be5565b5301612cd1565b509250610c6a91612f7b565b5060428293925103612d6157612d25612bf6565b905f5b60418110612d3c5750610c6a929350612b21565b80612d4e612c92612cec600194612844565b5f1a612d5a8286612be5565b5301612d28565b505f9150565b50505f90565b90610c6a91612b21565b7f00000000000000000000000000000000000000000000000000000000000000006001600160a01b03163381141580612dcc575b80612db8575b6109035750565b505f546001600160a01b0316331415612db1565b5030331415612dab565b908160209103126102c8575190565b60018114908115612e03575b8115612dfb575090565b600491501490565b600281149150612df1565b80545f5b818110612e1f5750505050565b612e298184612797565b905460039190911b1c6001600160a01b0390811690851614612e4d57600101612e12565b5f198201935081841161072f57610bed938103612e6c575b5050612804565b6127cf612e84612e7e612e9d9461204b565b85612797565b905460039190911b1c6001600160a01b03169184612797565b5f80612e65565b90612eaf8183612f41565b506004811015612b0d57159081612f2b575b50612f2357612b77612efa927f19457468657265756d205369676e6564204d6573736167653a0a3332000000005f52601c52603c5f2090565b50612f0481612b03565b159182612f1057505090565b6001600160a01b03918216911614919050565b505050600190565b6001600160a01b0385811691161490505f612ec1565b8151919060418303612f7157612f6a9250602082015190606060408401519301515f1a90613128565b9192909190565b50505f9160029190565b908051810160208101916020818303126102c8576020810151906001600160401b0382116102c857019060e090829003126102c857612fb8610bef565b9160208201516001600160401b0381116102c857816020612fdb928501016122e2565b83526040820151916001600160401b0383116102c85761300560e0926020613054958401016122e2565b6020850152606081015160408501526080810151606085015260a0810151608085015260c081015160a085015201518060c08401525f525f51602061388c5f395f51905f5260205260405f2090565b9182549081158061307a575b613072576001610c6a940154926131d0565b505050505f90565b50600184015415613060565b90813b15613107575f51602061382c5f395f51905f5280546001600160a01b0319166001600160a01b0384169081179091557fbc7cd75a20ee27fd9adebab32041f755214dbc6bffa90cc0225b39da2e5c2d3b5f80a28051156130ef576130ec9161325f565b50565b5050346130f857565b63b398979f60e01b5f5260045ffd5b50634c9c8ce360e01b5f9081526001600160a01b0391909116600452602490fd5b91907f7fffffffffffffffffffffffffffffff5d576e7357a4501ddfe92f46681b20a0841161319f579160209360809260ff5f9560405194855216868401526040830152606082015282805260015afa15610fc8575f516001600160a01b0381161561319557905f905f90565b505f906001905f90565b5050505f9160039190565b805191908290602001825e015f815290565b6131c990602093926131aa565b9081520190565b9291906131f06105a5602086019283516060880151604089015191613330565b613072575f61320860209251604051918280926131aa565b039060025afa15610fc85760205f61323d815161323187516105866040519384928884016131bc565b604051918280926131aa565b039060025afa15610fc857610c6a925f519060a0608082015191015191613491565b905f8091602081519101845af480806132bf575b15613282575050610c6a613591565b156132a757639996b31560e01b5f9081526001600160a01b0391909116600452602490fd5b3d15155f03611f485763d6bda27560e01b5f5260045ffd5b503d1515806132735750813b1515613273565b604051906132e1604083610bb8565b6015825274113a3cb832911d113bb2b130baba34371733b2ba1160591b6020830152565b60405190613314604083610bb8565b600d82526c1131b430b63632b733b2911d1160991b6020830152565b9092919261333c6132d2565b9261334884518361286e565b83511061342a575f5b84518110156133b057613370612c9261336a838661286e565b86612be5565b61338d613380612c928489612be5565b6001600160f81b03191690565b6001600160f81b0319909116036133a657600101613351565b5050505050505f90565b50939250506133bd613305565b916133d96133d46133cf85518461286e565b612852565b612844565b825110613072575f5b835181101561343357613401612c926133fb838561286e565b85612be5565b613411613380612c928488612be5565b6001600160f81b03199091160361342a576001016133e2565b50505050505f90565b509291601160f91b60ff60f81b613454612c9261336a6133cf86518a61286e565b160361307257610c6a9361346991519061286e565b906135aa565b602081519101519060208110613483575090565b5f199060200360031b1b1690565b93610586906134c89394604051958694602086019889939160a0959391855260208501526040840152606083015260808201520190565b5f808251846101005afa6134da6123de565b81613583575b8161356f575b50612bb05773c2b78104907f722dabac4c69f826a522b2754de43b61350b5750505f90565b5f918291519073c2b78104907f722dabac4c69f826a522b2754de45afa6135306123de565b81613561575b8161354d575b50613548575f80612d67565b600190565b6001915061355a9061346f565b145f61353c565b905060208151101590613536565b6001915061357c9061346f565b145f6134e6565b9050602081511015906134e0565b604051903d82523d5f602084013e60203d830101604052565b9190915f5f905f926135ba612c18565b955f925b602b8410613618575050505050602003612d67575f5b602081106135e457505050600190565b6135f1612c928285612be5565b6001600160f81b031983831a60f81b8116911603613611576001016135d4565b5050505f90565b613639613634612c92612cec87869d989a9c9d9b97999b61286e565b613721565b905f82126136b65760061b179561364f90612860565b6008811015806136ac575b156136975761366890612059565b936001600160f81b031987861c60f81b169761369061368682612789565b995f1a918b612be5565b539361364f565b939092979694600190969296019290916135be565b506020881061365a565b505050509450505050505f90565b60ff6040199116019060ff821161072f57565b60ff6060199116019060ff821161072f57565b60ff602f199116019060ff821161072f57565b60ff601a9116019060ff821161072f57565b60ff60349116019060ff821161072f57565b60f81c6041811015806137c0575b6137b4576061811015806137a9575b6137955760308110158061378a575b61377057602d811461376a57605f14613765575f1990565b603f90565b50603e90565b61378461377f610c6a926136ea565b61370f565b60ff1690565b50603981111561374d565b6137846137a4610c6a926136d7565b6136fd565b50607a81111561373e565b613784610c6a916136c4565b50605a81111561372f56fe994a936646fe87ffe4f1e469d3d6aa417d6b855598397f323de5b449f765f0c33b3ffcf51a0a9bcb2764532549426e303b6d219fffb988d3d097bfc22ad32d011f14a6accceab237b8ab0463623403008b2dec742c79d1d0e63a7729f8c11c01360894a13ba1a3210667c828492db98dca3e2076cc3735a920a3ca505d382bbc3b3ffcf51a0a9bcb2764532549426e303b6d219fffb988d3d097bfc22ad32d02f0c57e16840df040f15088dc2f81fe391c3923bec73e23a9662efc9c229c6a003b3ffcf51a0a9bcb2764532549426e303b6d219fffb988d3d097bfc22ad32d00a264697066735822122097fbe0b71ccfee16d54e765c53892332da4cf7c61d21d82a3675023ac7b0f6a464736f6c634300081c0033f0c57e16840df040f15088dc2f81fe391c3923bec73e23a9662efc9c229c6a00","linkReferences":{}},"methodIdentifiers":{"UPGRADE_INTERFACE_VERSION()":"ad3cb1cc","acceptSessionDelegation(bytes32)":"bb60a69a","accountId()":"9cfd7cff","addOwner(address)":"7065cb48","addPasskey(bytes32,uint256,uint256)":"f19816d3","bundlerSigner()":"63d93567","cancelPendingUpgrade(bytes)":"14b93145","delegationManager()":"ea4d3c9b","entryPoint()":"b0d691fe","execute(address,uint256,bytes)":"b61d27f6","executeBatch((address,uint256,bytes)[])":"34fcd5be","executeFromBundler((address,uint256,bytes,bytes,bytes32,uint256,bytes32,bytes,bytes),bytes32,bytes)":"b47e0c25","executePendingUpgrade()":"6c6d6b6c","factory()":"c45a0155","getInstalledModules(uint256)":"a1c9427a","getNonce()":"d087d288","getPasskey(bytes32)":"0f460cb4","hasAcceptedSessionDelegation(bytes32)":"ff2840ed","hasPasskey(bytes32)":"4c1ed102","initialize(address,address,address)":"c0c53b8b","initializeWithCoOwner(address,address,address,address)":"46f51730","installModule(uint256,address,bytes)":"9517e29f","isModuleInstalled(uint256,address,bytes)":"112d3a7d","isOwner(address)":"2f54bf6e","isValidSignature(bytes32,bytes)":"1626ba7e","ownerCount()":"0db02622","passkeyCount()":"579b7115","pendingUpgrade()":"95e93245","proxiableUUID()":"52d1902d","removeOwner(address)":"173825d9","removePasskey(bytes32)":"ab18c40f","sessionIssuer()":"0aca0632","setDelegationManager(address)":"1a8d0de2","setUpgradeTimelock(uint256)":"0ff4d31e","supportsExecutionMode(bytes32)":"d03c7914","supportsModule(uint256)":"f2dc691d","uninstallModule(uint256,address,bytes)":"a71763a8","upgradeTimelock()":"8c879fb9","upgradeToAndCall(address,bytes)":"4f1ef286","upgradeToWithAuthorization(address,bytes)":"b2ea8b47","validateUserOp((address,uint256,bytes,bytes,bytes32,uint256,bytes32,bytes,bytes),bytes32,uint256)":"19822f7c","version()":"54fd4d50"},"id":76}