{"abi":[{"type":"constructor","inputs":[{"name":"entryPoint_","type":"address","internalType":"contract IEntryPoint"}],"stateMutability":"nonpayable"},{"type":"receive","stateMutability":"payable"},{"type":"function","name":"UPGRADE_INTERFACE_VERSION","inputs":[],"outputs":[{"name":"","type":"string","internalType":"string"}],"stateMutability":"view"},{"type":"function","name":"accountId","inputs":[],"outputs":[{"name":"","type":"string","internalType":"string"}],"stateMutability":"pure"},{"type":"function","name":"addOwner","inputs":[{"name":"owner","type":"address","internalType":"address"}],"outputs":[],"stateMutability":"nonpayable"},{"type":"function","name":"addPasskey","inputs":[{"name":"credentialIdDigest","type":"bytes32","internalType":"bytes32"},{"name":"x","type":"uint256","internalType":"uint256"},{"name":"y","type":"uint256","internalType":"uint256"}],"outputs":[],"stateMutability":"nonpayable"},{"type":"function","name":"delegationManager","inputs":[],"outputs":[{"name":"","type":"address","internalType":"address"}],"stateMutability":"view"},{"type":"function","name":"entryPoint","inputs":[],"outputs":[{"name":"","type":"address","internalType":"contract IEntryPoint"}],"stateMutability":"view"},{"type":"function","name":"execute","inputs":[{"name":"target","type":"address","internalType":"address"},{"name":"value","type":"uint256","internalType":"uint256"},{"name":"data","type":"bytes","internalType":"bytes"}],"outputs":[],"stateMutability":"nonpayable"},{"type":"function","name":"executeBatch","inputs":[{"name":"calls","type":"tuple[]","internalType":"struct BaseAccount.Call[]","components":[{"name":"target","type":"address","internalType":"address"},{"name":"value","type":"uint256","internalType":"uint256"},{"name":"data","type":"bytes","internalType":"bytes"}]}],"outputs":[],"stateMutability":"nonpayable"},{"type":"function","name":"getInstalledModules","inputs":[{"name":"moduleTypeId","type":"uint256","internalType":"uint256"}],"outputs":[{"name":"","type":"address[]","internalType":"address[]"}],"stateMutability":"view"},{"type":"function","name":"getNonce","inputs":[],"outputs":[{"name":"","type":"uint256","internalType":"uint256"}],"stateMutability":"view"},{"type":"function","name":"getPasskey","inputs":[{"name":"credentialIdDigest","type":"bytes32","internalType":"bytes32"}],"outputs":[{"name":"x","type":"uint256","internalType":"uint256"},{"name":"y","type":"uint256","internalType":"uint256"}],"stateMutability":"view"},{"type":"function","name":"hasPasskey","inputs":[{"name":"credentialIdDigest","type":"bytes32","internalType":"bytes32"}],"outputs":[{"name":"","type":"bool","internalType":"bool"}],"stateMutability":"view"},{"type":"function","name":"initialize","inputs":[{"name":"initialOwner","type":"address","internalType":"address"},{"name":"serverSigner","type":"address","internalType":"address"},{"name":"dm","type":"address","internalType":"address"}],"outputs":[],"stateMutability":"nonpayable"},{"type":"function","name":"installModule","inputs":[{"name":"moduleTypeId","type":"uint256","internalType":"uint256"},{"name":"module","type":"address","internalType":"address"},{"name":"initData","type":"bytes","internalType":"bytes"}],"outputs":[],"stateMutability":"nonpayable"},{"type":"function","name":"isModuleInstalled","inputs":[{"name":"moduleTypeId","type":"uint256","internalType":"uint256"},{"name":"module","type":"address","internalType":"address"},{"name":"","type":"bytes","internalType":"bytes"}],"outputs":[{"name":"","type":"bool","internalType":"bool"}],"stateMutability":"view"},{"type":"function","name":"isOwner","inputs":[{"name":"account","type":"address","internalType":"address"}],"outputs":[{"name":"","type":"bool","internalType":"bool"}],"stateMutability":"view"},{"type":"function","name":"isValidSignature","inputs":[{"name":"hash","type":"bytes32","internalType":"bytes32"},{"name":"signature","type":"bytes","internalType":"bytes"}],"outputs":[{"name":"","type":"bytes4","internalType":"bytes4"}],"stateMutability":"view"},{"type":"function","name":"ownerCount","inputs":[],"outputs":[{"name":"","type":"uint256","internalType":"uint256"}],"stateMutability":"view"},{"type":"function","name":"passkeyCount","inputs":[],"outputs":[{"name":"","type":"uint256","internalType":"uint256"}],"stateMutability":"view"},{"type":"function","name":"proxiableUUID","inputs":[],"outputs":[{"name":"","type":"bytes32","internalType":"bytes32"}],"stateMutability":"view"},{"type":"function","name":"removeOwner","inputs":[{"name":"owner","type":"address","internalType":"address"}],"outputs":[],"stateMutability":"nonpayable"},{"type":"function","name":"removePasskey","inputs":[{"name":"credentialIdDigest","type":"bytes32","internalType":"bytes32"}],"outputs":[],"stateMutability":"nonpayable"},{"type":"function","name":"setDelegationManager","inputs":[{"name":"dm","type":"address","internalType":"address"}],"outputs":[],"stateMutability":"nonpayable"},{"type":"function","name":"supportsExecutionMode","inputs":[{"name":"","type":"bytes32","internalType":"bytes32"}],"outputs":[{"name":"","type":"bool","internalType":"bool"}],"stateMutability":"pure"},{"type":"function","name":"supportsModule","inputs":[{"name":"moduleTypeId","type":"uint256","internalType":"uint256"}],"outputs":[{"name":"","type":"bool","internalType":"bool"}],"stateMutability":"pure"},{"type":"function","name":"uninstallModule","inputs":[{"name":"moduleTypeId","type":"uint256","internalType":"uint256"},{"name":"module","type":"address","internalType":"address"},{"name":"deInitData","type":"bytes","internalType":"bytes"}],"outputs":[],"stateMutability":"nonpayable"},{"type":"function","name":"upgradeToAndCall","inputs":[{"name":"newImplementation","type":"address","internalType":"address"},{"name":"data","type":"bytes","internalType":"bytes"}],"outputs":[],"stateMutability":"payable"},{"type":"function","name":"validateUserOp","inputs":[{"name":"userOp","type":"tuple","internalType":"struct PackedUserOperation","components":[{"name":"sender","type":"address","internalType":"address"},{"name":"nonce","type":"uint256","internalType":"uint256"},{"name":"initCode","type":"bytes","internalType":"bytes"},{"name":"callData","type":"bytes","internalType":"bytes"},{"name":"accountGasLimits","type":"bytes32","internalType":"bytes32"},{"name":"preVerificationGas","type":"uint256","internalType":"uint256"},{"name":"gasFees","type":"bytes32","internalType":"bytes32"},{"name":"paymasterAndData","type":"bytes","internalType":"bytes"},{"name":"signature","type":"bytes","internalType":"bytes"}]},{"name":"userOpHash","type":"bytes32","internalType":"bytes32"},{"name":"missingAccountFunds","type":"uint256","internalType":"uint256"}],"outputs":[{"name":"validationData","type":"uint256","internalType":"uint256"}],"stateMutability":"nonpayable"},{"type":"function","name":"version","inputs":[],"outputs":[{"name":"","type":"string","internalType":"string"}],"stateMutability":"pure"},{"type":"event","name":"Initialized","inputs":[{"name":"version","type":"uint64","indexed":false,"internalType":"uint64"}],"anonymous":false},{"type":"event","name":"ModuleInstalled","inputs":[{"name":"moduleTypeId","type":"uint256","indexed":false,"internalType":"uint256"},{"name":"module","type":"address","indexed":false,"internalType":"address"}],"anonymous":false},{"type":"event","name":"ModuleUninstalled","inputs":[{"name":"moduleTypeId","type":"uint256","indexed":false,"internalType":"uint256"},{"name":"module","type":"address","indexed":false,"internalType":"address"}],"anonymous":false},{"type":"event","name":"OwnerAdded","inputs":[{"name":"owner","type":"address","indexed":true,"internalType":"address"}],"anonymous":false},{"type":"event","name":"OwnerRemoved","inputs":[{"name":"owner","type":"address","indexed":true,"internalType":"address"}],"anonymous":false},{"type":"event","name":"PasskeyAdded","inputs":[{"name":"credentialIdDigest","type":"bytes32","indexed":true,"internalType":"bytes32"},{"name":"x","type":"uint256","indexed":false,"internalType":"uint256"},{"name":"y","type":"uint256","indexed":false,"internalType":"uint256"}],"anonymous":false},{"type":"event","name":"PasskeyRemoved","inputs":[{"name":"credentialIdDigest","type":"bytes32","indexed":true,"internalType":"bytes32"}],"anonymous":false},{"type":"event","name":"Upgraded","inputs":[{"name":"implementation","type":"address","indexed":true,"internalType":"address"}],"anonymous":false},{"type":"error","name":"AddressEmptyCode","inputs":[{"name":"target","type":"address","internalType":"address"}]},{"type":"error","name":"CannotRemoveLastOwner","inputs":[]},{"type":"error","name":"CannotRemoveLastSigner","inputs":[]},{"type":"error","name":"ERC1967InvalidImplementation","inputs":[{"name":"implementation","type":"address","internalType":"address"}]},{"type":"error","name":"ERC1967NonPayable","inputs":[]},{"type":"error","name":"ExecuteError","inputs":[{"name":"index","type":"uint256","internalType":"uint256"},{"name":"error","type":"bytes","internalType":"bytes"}]},{"type":"error","name":"FailedCall","inputs":[]},{"type":"error","name":"InvalidInitialization","inputs":[]},{"type":"error","name":"InvalidPasskeyPublicKey","inputs":[]},{"type":"error","name":"ModuleAlreadyInstalled","inputs":[{"name":"moduleTypeId","type":"uint256","internalType":"uint256"},{"name":"module","type":"address","internalType":"address"}]},{"type":"error","name":"ModuleNotInstalled","inputs":[{"name":"moduleTypeId","type":"uint256","internalType":"uint256"},{"name":"module","type":"address","internalType":"address"}]},{"type":"error","name":"ModuleOnInstallFailed","inputs":[{"name":"reason","type":"bytes","internalType":"bytes"}]},{"type":"error","name":"ModuleOnUninstallFailed","inputs":[{"name":"reason","type":"bytes","internalType":"bytes"}]},{"type":"error","name":"NotFromEntryPoint","inputs":[{"name":"msgSender","type":"address","internalType":"address"},{"name":"entity","type":"address","internalType":"address"},{"name":"entryPoint","type":"address","internalType":"address"}]},{"type":"error","name":"NotFromSelf","inputs":[]},{"type":"error","name":"NotInitializing","inputs":[]},{"type":"error","name":"NotOwnerOrSelf","inputs":[]},{"type":"error","name":"OwnerAlreadyExists","inputs":[{"name":"owner","type":"address","internalType":"address"}]},{"type":"error","name":"OwnerDoesNotExist","inputs":[{"name":"owner","type":"address","internalType":"address"}]},{"type":"error","name":"PasskeyAlreadyRegistered","inputs":[{"name":"credentialIdDigest","type":"bytes32","internalType":"bytes32"}]},{"type":"error","name":"PasskeyNotRegistered","inputs":[{"name":"credentialIdDigest","type":"bytes32","internalType":"bytes32"}]},{"type":"error","name":"TooManyHooks","inputs":[]},{"type":"error","name":"UUPSUnauthorizedCallContext","inputs":[]},{"type":"error","name":"UUPSUnsupportedProxiableUUID","inputs":[{"name":"slot","type":"bytes32","internalType":"bytes32"}]},{"type":"error","name":"UnknownSignatureType","inputs":[{"name":"sigType","type":"uint8","internalType":"uint8"}]},{"type":"error","name":"UnsupportedModuleType","inputs":[{"name":"moduleTypeId","type":"uint256","internalType":"uint256"}]},{"type":"error","name":"ZeroAddress","inputs":[]}],"bytecode":{"object":"0x60c03461012b57601f612ca638819003918201601f19168301916001600160401b0383118484101761012f5780849260209460405283398101031261012b57516001600160a01b038116810361012b573060805260a0525f516020612c865f395f51905f525460ff8160401c1661011c576002600160401b03196001600160401b038216016100c6575b604051612b42908161014482396080518181816108be01526109e5015260a0518181816105c3015281816111ea0152818161160e0152611f8f0152f35b6001600160401b0319166001600160401b039081175f516020612c865f395f51905f52556040519081527fc7f505b2f371ae2175ee4913f4499e1f2633a7b5936321eed1cdaeb6115181d290602090a15f610089565b63f92ee8a960e01b5f5260045ffd5b5f80fd5b634e487b7160e01b5f52604160045260245ffdfe6080604052600436101561001a575b3615610018575f80fd5b005b5f3560e01c80630db02622146101e95780630f460cb4146101e4578063112d3a7d146101df5780631626ba7e146101da578063173825d9146101d557806319822f7c146101d05780631a8d0de2146101cb5780632f54bf6e146101c657806334fcd5be146101c15780634c1ed102146101bc5780634f1ef286146101b757806352d1902d146101b257806354fd4d50146101ad578063579b7115146101a85780637065cb48146101a35780639517e29f1461019e5780639cfd7cff14610199578063a1c9427a14610194578063a71763a81461018f578063ab18c40f1461018a578063ad3cb1cc14610185578063b0d691fe14610180578063b61d27f61461017b578063c0c53b8b14610176578063d03c791414610171578063d087d2881461016c578063ea4d3c9b14610167578063f19816d3146101625763f2dc691d0361000e576117d8565b6116ab565b611684565b6115dd565b6115c2565b61143a565b611219565b6111d5565b61118e565b611070565b610ee9565b610e64565b610dc3565b610b96565b610acf565b610aa6565b610a5f565b6109d3565b61087c565b610778565b61071d565b6106ec565b61067a565b610588565b61047b565b61034b565b6102e9565b610219565b6101fc565b5f9103126101f857565b5f80fd5b346101f8575f3660031901126101f8576020600254604051908152f35b346101f85760203660031901126101f8576004355f525f516020612aed5f395f51905f5260205260405f2060018154910154906102686040519283928360209093929193604081019481520152565b0390f35b6001600160a01b038116036101f857565b9181601f840112156101f8578235916001600160401b0383116101f857602083818601950101116101f857565b60606003198201126101f857600435916024356102c68161026c565b91604435906001600160401b0382116101f8576102e59160040161027d565b9091565b346101f857602060ff61033f6102fe366102aa565b5050905f527f1f14a6accceab237b8ab0463623403008b2dec742c79d1d0e63a7729f8c11c00845260405f209060018060a01b03165f5260205260405f2090565b54166040519015158152f35b346101f85760403660031901126101f8576004356024356001600160401b0381116101f85761037e90369060040161027d565b9161038a368484610828565b91602084101580610411575b936103a7946103e4575b5050611e85565b156103d357610268630b135d3f60e11b5b6040516001600160e01b031990911681529081906020820190565b6102686001600160e01b03196103b8565b61040692935090816103f86103fe93611837565b91611863565b810190611889565b915050905f806103a0565b50601f19840193808511610476577f649264926492649264926492649264926492649264926492649264926492649261044f826103a7978186611871565b90359060208110610465575b5014909450610396565b5f199060200360031b1b165f61045b565b611823565b346101f85760203660031901126101f8576004356104988161026c565b303303610579576001600160a01b0381165f8181526001602052604090205490919060ff16156104c7565b1590565b61055e5760016002541480610548575b610539576001600160a01b03165f908152600160205260409020610500905b805460ff19169055565b61051361050e6002546118dd565b600255565b7f58619076adf5bb0943d100ef88d52d7c3fd691b19d3a9071b555b651fbf418da5f80a2005b632352e49760e21b5f5260045ffd5b505f516020612aad5f395f51905f5254156104d7565b63298f10e760e11b5f526001600160a01b031660045260245ffd5b63295d6e8760e21b5f5260045ffd5b346101f85760603660031901126101f8576004356001600160401b0381116101f85761012060031982360301126101f85760243590604435907f00000000000000000000000000000000000000000000000000000000000000006001600160a01b031633819003610657575060ff9261061661060f8361010461061c950190600401611956565b3691610828565b90611e85565b1561064f575f905b80610637575b5060405191168152602090f35b5f80808093335af150610648611ad9565b505f61062a565b600190610624565b63fe34a6d360e01b5f5233600452306024526001600160a01b031660445260645ffd5b346101f85760203660031901126101f8576004356106978161026c565b30331415806106d5575b6106c6575f80546001600160a01b0319166001600160a01b0392909216919091179055005b6330a0953960e21b5f5260045ffd5b50335f52600160205260ff60405f205416156106a1565b346101f85760203660031901126101f857602061071360043561070e8161026c565b6118e9565b6040519015158152f35b346101f85760203660031901126101f8576004356001600160401b0381116101f857366023820112156101f85780600401356001600160401b0381116101f8573660248260051b840101116101f8576024610018920161199f565b346101f85760203660031901126101f8576004355f525f516020612a4d5f395f51905f52602052602060ff60405f2054166040519015158152f35b634e487b7160e01b5f52604160045260245ffd5b90601f801991011681019081106001600160401b038211176107e857604052565b6107b3565b604051906107fc6040836107c7565b565b604051906107fc60e0836107c7565b6001600160401b0381116107e857601f01601f191660200190565b9291926108348261080d565b9161084260405193846107c7565b8294818452818301116101f8578281602093845f960137010152565b9080601f830112156101f85781602061087993359101610828565b90565b60403660031901126101f8576004356108948161026c565b6024356001600160401b0381116101f8576108b390369060040161085e565b906001600160a01b037f0000000000000000000000000000000000000000000000000000000000000000163081149081156109b1575b506109a257303303610579576040516352d1902d60e01b8152916020836004816001600160a01b0386165afa5f9381610971575b5061093e57634c9c8ce360e01b5f526001600160a01b03821660045260245ffd5b905f516020612a8d5f395f51905f52830361095d5761001892506122bf565b632a87526960e21b5f52600483905260245ffd5b61099491945060203d60201161099b575b61098c81836107c7565b810190612020565b925f61091d565b503d610982565b63703e46dd60e11b5f5260045ffd5b5f516020612a8d5f395f51905f52546001600160a01b0316141590505f6108e9565b346101f8575f3660031901126101f8577f00000000000000000000000000000000000000000000000000000000000000006001600160a01b031630036109a25760206040515f516020612a8d5f395f51905f528152f35b805180835260209291819084018484015e5f828201840152601f01601f1916010190565b906020610879928181520190610a2a565b346101f8575f3660031901126101f857610268604051610a806040826107c7565b60058152640322e302e360dc1b6020820152604051918291602083526020830190610a2a565b346101f8575f3660031901126101f85760205f516020612aad5f395f51905f5254604051908152f35b346101f85760203660031901126101f857600435610aec8161026c565b303303610579576001600160a01b038116908115610b8757815f52600160205260ff60405f205416610b74576001600160a01b03165f908152600160205260409020610b40905b805460ff19166001179055565b610b4e61050e600254611a33565b7f994a936646fe87ffe4f1e469d3d6aa417d6b855598397f323de5b449f765f0c35f80a2005b506316e832e960e21b5f5260045260245ffd5b63d92e233d60e01b5f5260045ffd5b346101f857610ba4366102aa565b903033141580610dac575b6106c6576001600160a01b038316918215610b8757610bd06104c38661202f565b610d9857610c00610bf985610be4886117f6565b9060018060a01b03165f5260205260405f2090565b5460ff1690565b610d77576004851480610d4e575b610d3f57610c22610b3385610be4886117f6565b610c4984610c44875f525f516020612a6d5f395f51905f5260205260405f2090565b611a56565b823b156101f857610c73925f92836040518096819582946306d61fe760e41b845260048401611abd565b03925af19081610d25575b50610ce157610cc4610cbf610cdd93610ca56104f6610c9b611ad9565b95610be4846117f6565b5f525f516020612a6d5f395f51905f5260205260405f2090565b611b08565b604051634f8c520960e01b815291829160048301610a4e565b0390fd5b604080519283526001600160a01b0390911660208301527fd21d0b289f126c4b473ea641963e766833c2f13866e4ff480abd787c100ef1239190819081015b0390a1005b80610d335f610d39936107c7565b806101ee565b5f610c7e565b63379c814d60e21b5f5260045ffd5b506008610d6f865f525f516020612a6d5f395f51905f5260205260405f2090565b541015610c0e565b630b961e3560e11b5f5260048590526001600160a01b03841660245260445ffd5b63041c38b360e41b5f52600485905260245ffd5b50335f52600160205260ff60405f20541615610baf565b346101f8575f3660031901126101f857610268604051610de46040826107c7565b601b81527f736d6172742d6167656e742e6167656e742d6163636f756e742e3200000000006020820152604051918291602083526020830190610a2a565b60206040818301928281528451809452019201905f5b818110610e455750505090565b82516001600160a01b0316845260209384019390920191600101610e38565b346101f85760203660031901126101f8576004355f525f516020612a6d5f395f51905f5260205260405f206040519081602082549182815201915f5260205f20905f5b818110610eca5761026885610ebe818703826107c7565b60405191829182610e22565b82546001600160a01b0316845260209093019260019283019201610ea7565b346101f857610ef7366102aa565b903033141580611059575b6106c657610f126104c38561202f565b61104557610f296104c3610bf985610be4886117f6565b611024576001600160a01b03831691823b156101f857610f62925f9283604051809681958294638a91b0e360e01b845260048401611abd565b03925af19081611010575b50610f9657610cdd610f7d611ad9565b6040516319d6ca0d60e21b815291829160048301610a4e565b7f341347516a9de374859dfda710fa4828b2d48cb57d4fbe4c1149612b8e02276e91610fc86104f683610be4846117f6565b610fef82610fea835f525f516020612a6d5f395f51905f5260205260405f2090565b612058565b604080519182526001600160a01b0390921660208201529081908101610d20565b80610d335f61101e936107c7565b5f610f6d565b635f300b3960e11b5f5260048490526001600160a01b03831660245260445ffd5b63041c38b360e41b5f52600484905260245ffd5b50335f52600160205260ff60405f20541615610f02565b346101f85760203660031901126101f857600435303303610579575f8181525f516020612a4d5f395f51905f52602052604090205460ff161561117c5760016110ca6002545f516020612aad5f395f51905f525490611bc3565b1461116d576110fb6110f0825f525f516020612aed5f395f51905f5260205260405f2090565b60015f918281550155565b61111c6104f6825f525f516020612a4d5f395f51905f5260205260405f2090565b6111476111365f516020612aad5f395f51905f5254611846565b5f516020612aad5f395f51905f5255565b7f6478f30699d78c25aec768184c69105e8f3606c825c91ca4511e96ae6a4e4e1f5f80a2005b63c4c8547360e01b5f5260045ffd5b63752d090f60e01b5f5260045260245ffd5b346101f8575f3660031901126101f8576102686040516111af6040826107c7565b60058152640352e302e360dc1b6020820152604051918291602083526020830190610a2a565b346101f8575f3660031901126101f8576040517f00000000000000000000000000000000000000000000000000000000000000006001600160a01b03168152602090f35b346101f85760603660031901126101f8576004356112368161026c565b6024356044356001600160401b0381116101f85761125890369060040161027d565b9091611262611f8d565b60045f525f516020612a6d5f395f51905f526020526112a07f0b73fd07d5abf1468d9a60de00f6d65eeaf10d89f9fda4d5da5f13e565b91b37611b48565b6112aa8151611be7565b94604051936112d1856112c38389888760208601611c30565b03601f1981018752866107c7565b5f5b8351811015611383576113086112fc6112fc6112ef8488611c54565b516001600160a01b031690565b6001600160a01b031690565b905f604051809363d68f602560e01b825281838161132b8d8d3360048501611cd1565b03925af1801561137e576001925f9161135c575b5061134a828b611c54565b52611355818a611c54565b50016112d3565b61137891503d805f833e61137081836107c7565b810190611cac565b5f61133f565b611ace565b505f91829188958861139a60405180948193611cf5565b03925af16113a6611ad9565b901561143257505f5b8151811015610018576113cb6112fc6112fc6112ef8486611c54565b906113d68185611c54565b5191803b156101f857604051630b9dfbed60e11b8152925f9184918290849082906114049060048301610a4e565b03925af191821561137e5760019261141e575b50016113af565b80610d335f61142c936107c7565b84611417565b602081519101fd5b346101f85760603660031901126101f8576004356114578161026c565b602435906114648261026c565b6044356114708161026c565b5f516020612acd5f395f51905f5254926001600160401b036114a160ff604087901c1615956001600160401b031690565b16801590816115ba575b60011490816115b0575b1590816115a7575b506115985761150092846114f760016001600160401b03195f516020612acd5f395f51905f525416175f516020612acd5f395f51905f5255565b61156357611d02565b61150657005b61153060ff60401b195f516020612acd5f395f51905f5254165f516020612acd5f395f51905f5255565b604051600181527fc7f505b2f371ae2175ee4913f4499e1f2633a7b5936321eed1cdaeb6115181d2908060208101610d20565b611593600160401b60ff60401b195f516020612acd5f395f51905f525416175f516020612acd5f395f51905f5255565b611d02565b63f92ee8a960e01b5f5260045ffd5b9050155f6114bd565b303b1591506114b5565b8591506114ab565b346101f85760203660031901126101f85760206040515f8152f35b346101f8575f3660031901126101f857604051631aab3f0d60e11b81523060048201525f60248201526020816044817f00000000000000000000000000000000000000000000000000000000000000006001600160a01b03165afa801561137e575f90611650575b604051908152602090f35b506020813d60201161167c575b8161166a602093836107c7565b810103126101f8576102689051611645565b3d915061165d565b346101f8575f3660031901126101f8575f546040516001600160a01b039091168152602090f35b346101f85760603660031901126101f85760043560443560243530330361057957801580156117d0575b6117c1575f8381525f516020612a4d5f395f51905f52602052604090205460ff166117ad57907f225b99aa4fde5bb1838d392d0db95613cbabd13dfb9d2999653b8c4c9386db04916117606117286107ed565b82815283602082015261174f865f525f516020612aed5f395f51905f5260205260405f2090565b906020600191805184550151910155565b611781610b33855f525f516020612a4d5f395f51905f5260205260405f2090565b61179b6111365f516020612aad5f395f51905f5254611b99565b604080519182526020820192909252a2005b63402fbf2f60e11b5f52600483905260245ffd5b63543f188160e01b5f5260045ffd5b5081156116d5565b346101f85760203660031901126101f857602061071360043561202f565b5f527f1f14a6accceab237b8ab0463623403008b2dec742c79d1d0e63a7729f8c11c0060205260405f2090565b634e487b7160e01b5f52601160045260245ffd5b601f1981019190821161047657565b5f1981019190821161047657565b60071981019190821161047657565b9092919283116101f8579190565b909392938483116101f85784116101f8578101920390565b916060838303126101f857823561189f8161026c565b9260208101356001600160401b0381116101f857836118bf91830161085e565b9260408201356001600160401b0381116101f857610879920161085e565b8015610476575f190190565b6001600160a01b031630811461190b575f52600160205260ff60405f20541690565b50600190565b634e487b7160e01b5f52603260045260245ffd5b91908110156119475760051b81013590605e19813603018212156101f8570190565b611911565b356108798161026c565b903590601e19813603018212156101f857018035906001600160401b0382116101f8576020019181360383136101f857565b604090610879939281528160208201520190610a2a565b906119a8611f8d565b5f5b8181106119b657505050565b6119f86104c36119f26119ca848688611925565b6119d38161194c565b906119e76020820135916040810190611956565b93905a943691610828565b91611fec565b611a04576001016119aa565b600182145f0361201857611a16611ffe565b604051635a15467560e01b8152918291610cdd9160048401611988565b5f1981146104765760010190565b8054821015611947575f5260205f2001905f90565b90815491600160401b8310156107e85782611a799160016107fc95018155611a41565b81546001600160a01b0393841660039290921b91821b9390911b1916919091179055565b908060209392818452848401375f828201840152601f01601f1916010190565b916020610879938181520191611a9d565b6040513d5f823e3d90fd5b3d15611b03573d90611aea8261080d565b91611af860405193846107c7565b82523d5f602084013e565b606090565b80548015611b34575f190190611b1e8282611a41565b81549060018060a01b039060031b1b1916905555565b634e487b7160e01b5f52603160045260245ffd5b90604051918281549182825260208201905f5260205f20925f5b818110611b775750506107fc925003836107c7565b84546001600160a01b0316835260019485019487945060209093019201611b62565b906001820180921161047657565b90602b820180921161047657565b906006820180921161047657565b9190820180921161047657565b6001600160401b0381116107e85760051b60200190565b90611bf182611bd0565b611bfe60405191826107c7565b8281528092611c0f601f1991611bd0565b01905f5b828110611c1f57505050565b806060602080938501015201611c13565b610879949260609260018060a01b0316825260208201528160408201520191611a9d565b80518210156119475760209160051b010190565b81601f820112156101f857602081519101611c828261080d565b92611c9060405194856107c7565b828452828201116101f857815f926020928386015e8301015290565b906020828203126101f85781516001600160401b0381116101f8576108799201611c68565b610879939260609260018060a01b0316825260208201528160408201520190610a2a565b908092918237015f815290565b6001600160a01b0316908115610b8757815f526001602052611d2e60405f20600160ff19825416179055565b6001600255817f994a936646fe87ffe4f1e469d3d6aa417d6b855598397f323de5b449f765f0c35f80a26001600160a01b038116918215159081611de3575b50611d95575b505060018060a01b03166bffffffffffffffffffffffff60a01b5f5416175f55565b6001600160a01b03165f908152600160205260409020611db490610b33565b600280557f994a936646fe87ffe4f1e469d3d6aa417d6b855598397f323de5b449f765f0c35f80a25f80611d73565b90508214155f611d6d565b8051156119475760200190565b908151811015611947570160200190565b60405160809190611e1d83826107c7565b6041815291601f1901366020840137565b60408051909190611e3f83826107c7565b60208152918290601f190190369060200137565b90611e5d8261080d565b611e6a60405191826107c7565b8281528092611e7b601f199161080d565b0190602036910137565b6041825114611f83576001825110611f7d5760ff611ebc611eb6611ea885611dee565b516001600160f81b03191690565b60f81c90565b168015611f2757600114611ed05750505f90565b9091611ee4611edf8451611846565b611e53565b905f5b8251811015611f1b5780611f08611ea8611f02600194611b99565b88611dfb565b5f1a611f148286611dfb565b5301611ee7565b509250610879916121b4565b5060428293925103611f7757611f3b611e0c565b905f5b60418110611f5257506108799293506120ee565b80611f64611ea8611f02600194611b99565b5f1a611f708286611dfb565b5301611f3e565b505f9150565b50505f90565b90610879916120ee565b7f00000000000000000000000000000000000000000000000000000000000000006001600160a01b03163381141580611fe2575b80611fce575b6106575750565b505f546001600160a01b0316331415611fc7565b5030331415611fc1565b925f939184939260208451940192f190565b3d604051906020818301016040528082525f602083013e90565b611432611ffe565b908160209103126101f8575190565b6001811490811561204d575b8115612045575090565b600491501490565b60028114915061203b565b80545f5b8181106120695750505050565b6120738184611a41565b905460039190911b1c6001600160a01b03908116908516146120975760010161205c565b5f1982019350818411610476576107fc9381036120b6575b5050611b08565b611a796120ce6120c86120e794611846565b85611a41565b905460039190911b1c6001600160a01b03169184611a41565b5f806120af565b906120f98183612361565b50600481101561217857159081612193575b5061218c57612143917f19457468657265756d205369676e6564204d6573736167653a0a3332000000005f52601c52603c5f20612361565b50600481101561217857159081612158575090565b6001600160a01b03165f9081526001602052604090206108799150610bf9565b634e487b7160e01b5f52602160045260245ffd5b5050600190565b6001600160a01b03165f9081526001602052604081205460ff16915061210b565b908051810160208101916020818303126101f8576020810151906001600160401b0382116101f857019060e090829003126101f8576121f16107fe565b9160208201516001600160401b0381116101f85781602061221492850101611c68565b83526040820151916001600160401b0383116101f85761223e60e092602061228d95840101611c68565b6020850152606081015160408501526080810151606085015260a0810151608085015260c081015160a085015201518060c08401525f525f516020612aed5f395f51905f5260205260405f2090565b918254908115806122b3575b6122ab576001610879940154926123c1565b505050505f90565b50600184015415612299565b90813b15612340575f516020612a8d5f395f51905f5280546001600160a01b0319166001600160a01b0384169081179091557fbc7cd75a20ee27fd9adebab32041f755214dbc6bffa90cc0225b39da2e5c2d3b5f80a2805115612328576123259161245e565b50565b50503461233157565b63b398979f60e01b5f5260045ffd5b50634c9c8ce360e01b5f9081526001600160a01b0391909116600452602490fd5b81519190604183036123915761238a9250602082015190606060408401519301515f1a906124d1565b9192909190565b50505f9160029190565b805191908290602001825e015f815290565b6123ba906020939261239b565b9081520190565b9291906123e16104c36020860192835160608801516040890151916125b1565b6122ab575f6123f9602092516040519182809261239b565b039060025afa1561137e5760205f61243c815161243087516124226040519384928884016123ad565b03601f1981018352826107c7565b6040519182809261239b565b039060025afa1561137e57610879925f519060a0608082015191015191612712565b905f8091602081519101845af480806124be575b15612481575050610879612812565b156124a657639996b31560e01b5f9081526001600160a01b0391909116600452602490fd5b3d15155f03611ace5763d6bda27560e01b5f5260045ffd5b503d1515806124725750813b1515612472565b91907f7fffffffffffffffffffffffffffffff5d576e7357a4501ddfe92f46681b20a08411612548579160209360809260ff5f9560405194855216868401526040830152606082015282805260015afa1561137e575f516001600160a01b0381161561253e57905f905f90565b505f906001905f90565b5050505f9160039190565b604051906125626040836107c7565b6015825274113a3cb832911d113bb2b130baba34371733b2ba1160591b6020830152565b604051906125956040836107c7565b600d82526c1131b430b63632b733b2911d1160991b6020830152565b909291926125bd612553565b926125c9845183611bc3565b8351106126ab575f5b8451811015612631576125f1611ea86125eb8386611bc3565b86611dfb565b61260e612601611ea88489611dfb565b6001600160f81b03191690565b6001600160f81b031990911603612627576001016125d2565b5050505050505f90565b509392505061263e612586565b9161265a612655612650855184611bc3565b611ba7565b611b99565b8251106122ab575f5b83518110156126b457612682611ea861267c8385611bc3565b85611dfb565b612692612601611ea88488611dfb565b6001600160f81b0319909116036126ab57600101612663565b50505050505f90565b509291601160f91b60ff60f81b6126d5611ea86125eb61265086518a611bc3565b16036122ab57610879936126ea915190611bc3565b9061282b565b602081519101519060208110612704575090565b5f199060200360031b1b1690565b93612422906127499394604051958694602086019889939160a0959391855260208501526040840152606083015260808201520190565b5f808251846101005afa61275b611ad9565b81612804575b816127f0575b5061218c5773c2b78104907f722dabac4c69f826a522b2754de43b61278c5750505f90565b5f918291519073c2b78104907f722dabac4c69f826a522b2754de45afa6127b1611ad9565b816127e2575b816127ce575b506127c9575f80611f7d565b600190565b600191506127db906126f0565b145f6127bd565b9050602081511015906127b7565b600191506127fd906126f0565b145f612767565b905060208151101590612761565b604051903d82523d5f602084013e60203d830101604052565b9190915f5f905f9261283b611e2e565b955f925b602b8410612899575050505050602003611f7d575f5b6020811061286557505050600190565b612872611ea88285611dfb565b6001600160f81b031983831a60f81b811691160361289257600101612855565b5050505f90565b6128ba6128b5611ea8611f0287869d989a9c9d9b97999b611bc3565b6129a2565b905f82126129375760061b17956128d090611bb5565b60088110158061292d575b15612918576128e990611854565b936001600160f81b031987861c60f81b169761291161290782611a33565b995f1a918b611dfb565b53936128d0565b9390929796946001909692960192909161283f565b50602088106128db565b505050509450505050505f90565b60ff6040199116019060ff821161047657565b60ff6060199116019060ff821161047657565b60ff602f199116019060ff821161047657565b60ff601a9116019060ff821161047657565b60ff60349116019060ff821161047657565b60f81c604181101580612a41575b612a3557606181101580612a2a575b612a1657603081101580612a0b575b6129f157602d81146129eb57605f146129e6575f1990565b603f90565b50603e90565b612a05612a006108799261296b565b612990565b60ff1690565b5060398111156129ce565b612a05612a2561087992612958565b61297e565b50607a8111156129bf565b612a0561087991612945565b50605a8111156129b056fe3b3ffcf51a0a9bcb2764532549426e303b6d219fffb988d3d097bfc22ad32d011f14a6accceab237b8ab0463623403008b2dec742c79d1d0e63a7729f8c11c01360894a13ba1a3210667c828492db98dca3e2076cc3735a920a3ca505d382bbc3b3ffcf51a0a9bcb2764532549426e303b6d219fffb988d3d097bfc22ad32d02f0c57e16840df040f15088dc2f81fe391c3923bec73e23a9662efc9c229c6a003b3ffcf51a0a9bcb2764532549426e303b6d219fffb988d3d097bfc22ad32d00a264697066735822122079e44277997a7ac2a30a7c0af8c0e657de58f4661a555acdd9c79df523fb203564736f6c634300081c0033f0c57e16840df040f15088dc2f81fe391c3923bec73e23a9662efc9c229c6a00","linkReferences":{}},"methodIdentifiers":{"UPGRADE_INTERFACE_VERSION()":"ad3cb1cc","accountId()":"9cfd7cff","addOwner(address)":"7065cb48","addPasskey(bytes32,uint256,uint256)":"f19816d3","delegationManager()":"ea4d3c9b","entryPoint()":"b0d691fe","execute(address,uint256,bytes)":"b61d27f6","executeBatch((address,uint256,bytes)[])":"34fcd5be","getInstalledModules(uint256)":"a1c9427a","getNonce()":"d087d288","getPasskey(bytes32)":"0f460cb4","hasPasskey(bytes32)":"4c1ed102","initialize(address,address,address)":"c0c53b8b","installModule(uint256,address,bytes)":"9517e29f","isModuleInstalled(uint256,address,bytes)":"112d3a7d","isOwner(address)":"2f54bf6e","isValidSignature(bytes32,bytes)":"1626ba7e","ownerCount()":"0db02622","passkeyCount()":"579b7115","proxiableUUID()":"52d1902d","removeOwner(address)":"173825d9","removePasskey(bytes32)":"ab18c40f","setDelegationManager(address)":"1a8d0de2","supportsExecutionMode(bytes32)":"d03c7914","supportsModule(uint256)":"f2dc691d","uninstallModule(uint256,address,bytes)":"a71763a8","upgradeToAndCall(address,bytes)":"4f1ef286","validateUserOp((address,uint256,bytes,bytes,bytes32,uint256,bytes32,bytes,bytes),bytes32,uint256)":"19822f7c","version()":"54fd4d50"},"id":63}