{"abi":[{"type":"function","name":"eligibility","inputs":[{"name":"","type":"address","internalType":"address"},{"name":"","type":"address","internalType":"address"}],"outputs":[{"name":"","type":"bool","internalType":"bool"}],"stateMutability":"view"},{"type":"function","name":"getEligibleStewards","inputs":[{"name":"pool","type":"address","internalType":"address"}],"outputs":[{"name":"active","type":"address[]","internalType":"address[]"},{"name":"t","type":"uint8","internalType":"uint8"}],"stateMutability":"view"},{"type":"function","name":"isEligible","inputs":[{"name":"pool","type":"address","internalType":"address"},{"name":"steward","type":"address","internalType":"address"}],"outputs":[{"name":"","type":"bool","internalType":"bool"}],"stateMutability":"view"},{"type":"function","name":"setSteward","inputs":[{"name":"pool","type":"address","internalType":"address"},{"name":"steward","type":"address","internalType":"address"},{"name":"eligible","type":"bool","internalType":"bool"}],"outputs":[],"stateMutability":"nonpayable"},{"type":"function","name":"setThreshold","inputs":[{"name":"pool","type":"address","internalType":"address"},{"name":"newThreshold","type":"uint8","internalType":"uint8"}],"outputs":[],"stateMutability":"nonpayable"},{"type":"function","name":"threshold","inputs":[{"name":"","type":"address","internalType":"address"}],"outputs":[{"name":"","type":"uint8","internalType":"uint8"}],"stateMutability":"view"},{"type":"event","name":"StewardEligibilityChanged","inputs":[{"name":"pool","type":"address","indexed":true,"internalType":"address"},{"name":"steward","type":"address","indexed":true,"internalType":"address"},{"name":"eligible","type":"bool","indexed":false,"internalType":"bool"}],"anonymous":false},{"type":"event","name":"ThresholdChanged","inputs":[{"name":"pool","type":"address","indexed":true,"internalType":"address"},{"name":"threshold","type":"uint8","indexed":false,"internalType":"uint8"}],"anonymous":false},{"type":"error","name":"NotPool","inputs":[]}],"bytecode":{"object":"0x608080604052346015576105a9908161001a8239f35b5f80fdfe6080806040526004361015610012575f80fd5b5f3560e01c90816356366b071461047e57508063691e6c891461005e578063c86ec2bf14610443578063cd669acc146102b9578063d54e397f146100b85763f3fb9a181461005e575f80fd5b346100b45760403660031901126100b4576100776104f8565b61007f61050e565b9060018060a01b03165f525f60205260405f209060018060a01b03165f52602052602060ff60405f2054166040519015158152f35b5f80fd5b346100b45760203660031901126100b4576001600160a01b036100d96104f8565b16805f52600260205260405f208054915f925f5b81811061025f57506100fe8461055b565b60405194601f909101601f191685019067ffffffffffffffff82118683101761024b576101309160405280865261055b565b602085019390601f19013685375f905f5b8381106101ad57505050505f52600360205260ff60405f20541690604051916040830193604084525180945260608301915f945b80861061018a57505082935060208301520390f35b81516001600160a01b031684526001959095019460209384019390910190610175565b845f525f60205260405f206101c28284610524565b905460039190911b1c6001600160a01b03165f908152602091909152604090205460ff166101f3575b600101610141565b916101fe8383610524565b905460039190911b1c6001600160a01b03169261021a82610539565b93885183101561023757602060019360051b8a01015290506101eb565b634e487b7160e01b5f52603260045260245ffd5b634e487b7160e01b5f52604160045260245ffd5b825f525f60205260405f206102748286610524565b905460039190911b1c6001600160a01b03165f908152602091909152604090205460ff166102a5575b6001016100ed565b936102b1600191610539565b94905061029d565b346100b45760603660031901126100b4576102d26104f8565b6102da61050e565b60443590811515928383036100b4576001600160a01b0316913383900361043457825f525f60205260405f2060018060a01b0383165f5260205260405f2060ff1981541660ff86161790558061040b575b610368575b6040519283526001600160a01b0316917fbe2631ab2cb58b314bae73bbfc93253156a5137688535595c377a07c1aaec0f890602090a3005b815f52600160205260405f2060018060a01b0382165f5260205260405f20600160ff19825416179055815f52600260205260405f20908154906801000000000000000082101561024b576103e5827fbe2631ab2cb58b314bae73bbfc93253156a5137688535595c377a07c1aaec0f8946001602095018155610524565b81546001600160a01b0384811660039390931b92831b921b191617905591506103309050565b50815f52600160205260405f2060018060a01b0382165f5260205260ff60405f2054161561032b565b636f61f64160e01b5f5260045ffd5b346100b45760203660031901126100b4576001600160a01b036104646104f8565b165f526003602052602060ff60405f205416604051908152f35b346100b45760403660031901126100b4576104976104f8565b906024359160ff83168093036100b4576001600160a01b03169133839003610434577fe41436fccbd7ef05ad5c3e33144c91ad4ddfc5a82e38eab6b7e89ff5fc16d6dd91602091845f526003835260405f208160ff198254161790558152a2005b600435906001600160a01b03821682036100b457565b602435906001600160a01b03821682036100b457565b8054821015610237575f5260205f2001905f90565b5f1981146105475760010190565b634e487b7160e01b5f52601160045260245ffd5b67ffffffffffffffff811161024b5760051b6020019056fea264697066735822122093d85f9e070883451585ee819ea94cd5e452ec98ce1b9306c7274f2ea01b408b64736f6c634300081c0033","linkReferences":{}},"methodIdentifiers":{"eligibility(address,address)":"691e6c89","getEligibleStewards(address)":"d54e397f","isEligible(address,address)":"f3fb9a18","setSteward(address,address,bool)":"cd669acc","setThreshold(address,uint8)":"56366b07","threshold(address)":"c86ec2bf"},"id":107}