{"abi":[{"type":"function","name":"afterHook","inputs":[{"name":"","type":"bytes","internalType":"bytes"},{"name":"","type":"bytes","internalType":"bytes"},{"name":"","type":"bytes32","internalType":"bytes32"},{"name":"","type":"address","internalType":"address"},{"name":"","type":"address","internalType":"address"},{"name":"","type":"address","internalType":"address"},{"name":"","type":"uint256","internalType":"uint256"},{"name":"","type":"bytes","internalType":"bytes"}],"outputs":[],"stateMutability":"pure"},{"type":"function","name":"beforeHook","inputs":[{"name":"terms","type":"bytes","internalType":"bytes"},{"name":"args","type":"bytes","internalType":"bytes"},{"name":"","type":"bytes32","internalType":"bytes32"},{"name":"delegator","type":"address","internalType":"address"},{"name":"","type":"address","internalType":"address"},{"name":"target","type":"address","internalType":"address"},{"name":"value","type":"uint256","internalType":"uint256"},{"name":"callData","type":"bytes","internalType":"bytes"}],"outputs":[],"stateMutability":"nonpayable"},{"type":"function","name":"cancel","inputs":[{"name":"intentHash","type":"bytes32","internalType":"bytes32"}],"outputs":[],"stateMutability":"nonpayable"},{"type":"function","name":"computeIntentHash","inputs":[{"name":"chainId","type":"uint256","internalType":"uint256"},{"name":"delegator","type":"address","internalType":"address"},{"name":"target","type":"address","internalType":"address"},{"name":"value","type":"uint256","internalType":"uint256"},{"name":"callData","type":"bytes","internalType":"bytes"}],"outputs":[{"name":"","type":"bytes32","internalType":"bytes32"}],"stateMutability":"pure"},{"type":"function","name":"consumed","inputs":[{"name":"","type":"address","internalType":"address"},{"name":"","type":"bytes32","internalType":"bytes32"}],"outputs":[{"name":"","type":"bool","internalType":"bool"}],"stateMutability":"view"},{"type":"function","name":"isModuleType","inputs":[{"name":"moduleTypeId","type":"uint256","internalType":"uint256"}],"outputs":[{"name":"","type":"bool","internalType":"bool"}],"stateMutability":"pure"},{"type":"function","name":"moduleId","inputs":[],"outputs":[{"name":"","type":"string","internalType":"string"}],"stateMutability":"pure"},{"type":"function","name":"propose","inputs":[{"name":"delegator","type":"address","internalType":"address"},{"name":"intentHash","type":"bytes32","internalType":"bytes32"}],"outputs":[],"stateMutability":"nonpayable"},{"type":"function","name":"proposedAt","inputs":[{"name":"","type":"address","internalType":"address"},{"name":"","type":"bytes32","internalType":"bytes32"}],"outputs":[{"name":"","type":"uint64","internalType":"uint64"}],"stateMutability":"view"},{"type":"event","name":"RecoveryConsumed","inputs":[{"name":"delegator","type":"address","indexed":true,"internalType":"address"},{"name":"intentHash","type":"bytes32","indexed":true,"internalType":"bytes32"},{"name":"at","type":"uint64","indexed":false,"internalType":"uint64"}],"anonymous":false},{"type":"event","name":"RecoveryProposed","inputs":[{"name":"delegator","type":"address","indexed":true,"internalType":"address"},{"name":"intentHash","type":"bytes32","indexed":true,"internalType":"bytes32"},{"name":"at","type":"uint64","indexed":false,"internalType":"uint64"}],"anonymous":false},{"type":"error","name":"AlreadyConsumed","inputs":[]},{"type":"error","name":"DelayNotElapsed","inputs":[{"name":"readyAt","type":"uint64","internalType":"uint64"}]},{"type":"error","name":"DuplicateSigner","inputs":[{"name":"signer","type":"address","internalType":"address"}]},{"type":"error","name":"InsufficientSignatures","inputs":[{"name":"provided","type":"uint256","internalType":"uint256"},{"name":"threshold","type":"uint256","internalType":"uint256"}]},{"type":"error","name":"IntentHashMismatch","inputs":[]},{"type":"error","name":"InvalidArgs","inputs":[]},{"type":"error","name":"InvalidTerms","inputs":[]},{"type":"error","name":"NotProposed","inputs":[]},{"type":"error","name":"UnknownGuardian","inputs":[{"name":"recovered","type":"address","internalType":"address"}]}],"bytecode":{"object":"0x60808060405234601557610b81908161001a8239f35b5f80fdfe6080806040526004361015610012575f80fd5b5f3560e01c90816369576c3d1461063f5750806383b148cd14610557578063a1308f27146104f4578063a1422eb614610182578063c4d252f514610148578063d3128e3d14610138578063e29dfba8146100ef578063e88edd16146100a35763ecd059611461007f575f80fd5b3461009f57602036600319011261009f5760206040516064600435148152f35b5f80fd5b3461009f57604036600319011261009f576001600160a01b036100c46106bb565b165f525f60205260405f206024355f5260205260206001600160401b0360405f205416604051908152f35b3461009f57604036600319011261009f576001600160a01b036101106106bb565b165f52600160205260405f206024355f52602052602060ff60405f2054166040519015158152f35b3461009f57610146366107ac565b005b3461009f57602036600319011261009f57335f525f60205260405f206004355f5260205260405f206001600160401b031981541690555f80f35b3461009f57610190366107ac565b9298919350945088939698019360608486031261009f5783356001600160401b03811161009f5784019480601f8701121561009f578535906101d182610864565b966101df60405198896106d1565b82885260208089019360051b82010191821161009f57602001915b8183106104d457505050602084013595855180159081156104cb575b81156104c1575b506104b25789019660408a89031261009f578935996020810135906001600160401b03821161009f57019780601f8a01121561009f57883561025e81610864565b9961026c6040519b8c6106d1565b818b526020808c019260051b8201019183831161009f5760208201905b83821061048557505050505061033491602091846040519586938585019860c08a526102dd60e087016040906017815276736d6172742d6167656e742e7265636f766572792e763160481b60208201520190565b4660408801526001600160a01b03958616606088018190529f909516608087015260a0860152848403601f190160c0860152818452858401375f848284010152601f8019910116010301601f1981018352826106d1565b519020860361047657845f525f60205260405f20865f526020526001600160401b0360405f20541690811561046757855f52600160205260405f20875f5260205260ff60405f2054166104585760406001600160401b0391013516016001600160401b038111610444576001600160401b03168042106104325750825182811061041b57506103c5929185916108b1565b805f52600160205260405f20825f5260205260405f20600160ff198254161790557f017af0b075e266775b473ab528b55fac5b3f42bcd2ca991ce003d823e9bec88660206040516001600160401b0342168152a3005b90506378f4355360e11b5f5260045260245260445ffd5b63f7646f6d60e01b5f5260045260245ffd5b634e487b7160e01b5f52601160045260245ffd5b636f47ab5f60e01b5f5260045ffd5b6379543eaf60e11b5f5260045ffd5b637e5d179b60e01b5f5260045ffd5b81356001600160401b03811161009f576020916104a787848094880101610706565b815201910190610289565b630256965f60e01b5f5260045ffd5b905087118b61021d565b88159150610216565b82356001600160a01b038116810361009f578152602092830192016101fa565b3461009f575f36600319011261009f576105536040516105156040826106d1565b601f81527f736d6172742d6167656e742d7265636f766572792d656e666f726365722d3100602082015260405191829160208352602083019061075b565b0390f35b3461009f5760a036600319011261009f576024356001600160a01b0381169081900361009f576044356001600160a01b0381169081900361009f57608435916001600160401b03831161009f576106346105b76020943690600401610706565b6106266040519384928784019660c088526105fa60e086016040906017815276736d6172742d6167656e742e7265636f766572792e763160481b60208201520190565b9260043560408701526060860152608085015260643560a0850152601f198483030160c085015261075b565b03601f1981018352826106d1565b519020604051908152f35b3461009f57604036600319011261009f576106586106bb565b7f353e53d0a78a4cd01b46264782ea38cb5b6fc4da92d3341c4cad9a4269e113ac6020602435936001600160401b0342169360018060a01b031693845f525f835260405f20865f52835260405f20816001600160401b03198254161790558152a3005b600435906001600160a01b038216820361009f57565b90601f801991011681019081106001600160401b038211176106f257604052565b634e487b7160e01b5f52604160045260245ffd5b81601f8201121561009f578035906001600160401b0382116106f2576040519261073a601f8401601f1916602001856106d1565b8284526020838301011161009f57815f926020809301838601378301015290565b805180835260209291819084018484015e5f828201840152601f01601f1916010190565b9181601f8401121561009f578235916001600160401b03831161009f576020838186019501011161009f57565b9061010060031983011261009f576004356001600160401b03811161009f57826107d89160040161077f565b929092916024356001600160401b03811161009f57826107fa9160040161077f565b90929091604435916064356001600160a01b038116810361009f57916084356001600160a01b038116810361009f579160a4356001600160a01b038116810361009f579160c4359160e435906001600160401b03821161009f576108609160040161077f565b9091565b6001600160401b0381116106f25760051b60200190565b805182101561088f5760209160051b010190565b634e487b7160e01b5f52603260045260245ffd5b5f1981146104445760010190565b917f19457468657265756d205369676e6564204d6573736167653a0a3332000000005f52601c52603c5f208351906108e882610864565b916108f660405193846106d1565b808352610905601f1991610864565b013660208401375f5f925f955b8751871015610a6d5761092f610928888a61087b565b5185610a84565b506004819692961015610a5957610a4c575f5b848110610a0c57505f985f5b83518110156109fe576001600160a01b03610969828661087b565b51166001600160a01b038816146109825760010161094e565b509795919850919360015b156109de57906109bc916109aa6109a3866108a3565b958761087b565b6001600160a01b0390911690526108a3565b93858510156109d4576001905b019596929092610912565b5050505050505050565b63e767377d60e01b5f9081526001600160a01b0391909116600452602490fd5b50979591989490929461098d565b6001600160a01b03610a1e828661087b565b516001600160a01b03881691168114610a3a5750600101610942565b637010e27960e11b5f5260045260245ffd5b91935096956001906109c9565b634e487b7160e01b5f52602160045260245ffd5b85856378f4355360e11b5f5260045260245260445ffd5b8151919060418303610ab457610aad9250602082015190606060408401519301515f1a90610abe565b9192909190565b50505f9160029190565b91907f7fffffffffffffffffffffffffffffff5d576e7357a4501ddfe92f46681b20a08411610b40579160209360809260ff5f9560405194855216868401526040830152606082015282805260015afa15610b35575f516001600160a01b03811615610b2b57905f905f90565b505f906001905f90565b6040513d5f823e3d90fd5b5050505f916003919056fea26469706673582212205b8d4546a925a10b001f1ac9779cbce5aa86c89daa0e13b43b2d529269839be964736f6c634300081c0033","linkReferences":{}},"methodIdentifiers":{"afterHook(bytes,bytes,bytes32,address,address,address,uint256,bytes)":"d3128e3d","beforeHook(bytes,bytes,bytes32,address,address,address,uint256,bytes)":"a1422eb6","cancel(bytes32)":"c4d252f5","computeIntentHash(uint256,address,address,uint256,bytes)":"83b148cd","consumed(address,bytes32)":"e29dfba8","isModuleType(uint256)":"ecd05961","moduleId()":"a1308f27","propose(address,bytes32)":"69576c3d","proposedAt(address,bytes32)":"e88edd16"},"id":102}