{"abi":[{"type":"constructor","inputs":[{"name":"entryPoint_","type":"address","internalType":"contract IEntryPoint"}],"stateMutability":"nonpayable"},{"type":"receive","stateMutability":"payable"},{"type":"function","name":"addOwner","inputs":[{"name":"owner","type":"address","internalType":"address"}],"outputs":[],"stateMutability":"nonpayable"},{"type":"function","name":"entryPoint","inputs":[],"outputs":[{"name":"","type":"address","internalType":"contract IEntryPoint"}],"stateMutability":"view"},{"type":"function","name":"execute","inputs":[{"name":"target","type":"address","internalType":"address"},{"name":"value","type":"uint256","internalType":"uint256"},{"name":"data","type":"bytes","internalType":"bytes"}],"outputs":[],"stateMutability":"nonpayable"},{"type":"function","name":"executeBatch","inputs":[{"name":"calls","type":"tuple[]","internalType":"struct BaseAccount.Call[]","components":[{"name":"target","type":"address","internalType":"address"},{"name":"value","type":"uint256","internalType":"uint256"},{"name":"data","type":"bytes","internalType":"bytes"}]}],"outputs":[],"stateMutability":"nonpayable"},{"type":"function","name":"getNonce","inputs":[],"outputs":[{"name":"","type":"uint256","internalType":"uint256"}],"stateMutability":"view"},{"type":"function","name":"initialize","inputs":[{"name":"initialOwner","type":"address","internalType":"address"}],"outputs":[],"stateMutability":"nonpayable"},{"type":"function","name":"isOwner","inputs":[{"name":"account","type":"address","internalType":"address"}],"outputs":[{"name":"","type":"bool","internalType":"bool"}],"stateMutability":"view"},{"type":"function","name":"isValidSignature","inputs":[{"name":"hash","type":"bytes32","internalType":"bytes32"},{"name":"signature","type":"bytes","internalType":"bytes"}],"outputs":[{"name":"","type":"bytes4","internalType":"bytes4"}],"stateMutability":"view"},{"type":"function","name":"ownerCount","inputs":[],"outputs":[{"name":"","type":"uint256","internalType":"uint256"}],"stateMutability":"view"},{"type":"function","name":"removeOwner","inputs":[{"name":"owner","type":"address","internalType":"address"}],"outputs":[],"stateMutability":"nonpayable"},{"type":"function","name":"validateUserOp","inputs":[{"name":"userOp","type":"tuple","internalType":"struct PackedUserOperation","components":[{"name":"sender","type":"address","internalType":"address"},{"name":"nonce","type":"uint256","internalType":"uint256"},{"name":"initCode","type":"bytes","internalType":"bytes"},{"name":"callData","type":"bytes","internalType":"bytes"},{"name":"accountGasLimits","type":"bytes32","internalType":"bytes32"},{"name":"preVerificationGas","type":"uint256","internalType":"uint256"},{"name":"gasFees","type":"bytes32","internalType":"bytes32"},{"name":"paymasterAndData","type":"bytes","internalType":"bytes"},{"name":"signature","type":"bytes","internalType":"bytes"}]},{"name":"userOpHash","type":"bytes32","internalType":"bytes32"},{"name":"missingAccountFunds","type":"uint256","internalType":"uint256"}],"outputs":[{"name":"validationData","type":"uint256","internalType":"uint256"}],"stateMutability":"nonpayable"},{"type":"event","name":"Initialized","inputs":[{"name":"version","type":"uint64","indexed":false,"internalType":"uint64"}],"anonymous":false},{"type":"event","name":"OwnerAdded","inputs":[{"name":"owner","type":"address","indexed":true,"internalType":"address"}],"anonymous":false},{"type":"event","name":"OwnerRemoved","inputs":[{"name":"owner","type":"address","indexed":true,"internalType":"address"}],"anonymous":false},{"type":"error","name":"CannotRemoveLastOwner","inputs":[]},{"type":"error","name":"ECDSAInvalidSignature","inputs":[]},{"type":"error","name":"ECDSAInvalidSignatureLength","inputs":[{"name":"length","type":"uint256","internalType":"uint256"}]},{"type":"error","name":"ECDSAInvalidSignatureS","inputs":[{"name":"s","type":"bytes32","internalType":"bytes32"}]},{"type":"error","name":"ExecuteError","inputs":[{"name":"index","type":"uint256","internalType":"uint256"},{"name":"error","type":"bytes","internalType":"bytes"}]},{"type":"error","name":"InvalidInitialization","inputs":[]},{"type":"error","name":"NotFromEntryPoint","inputs":[{"name":"msgSender","type":"address","internalType":"address"},{"name":"entity","type":"address","internalType":"address"},{"name":"entryPoint","type":"address","internalType":"address"}]},{"type":"error","name":"NotFromSelf","inputs":[]},{"type":"error","name":"NotInitializing","inputs":[]},{"type":"error","name":"OwnerAlreadyExists","inputs":[{"name":"owner","type":"address","internalType":"address"}]},{"type":"error","name":"OwnerDoesNotExist","inputs":[{"name":"owner","type":"address","internalType":"address"}]},{"type":"error","name":"ZeroAddress","inputs":[]}],"bytecode":{"object":"0x60a03461011657601f610cf638819003918201601f19168301916001600160401b0383118484101761011a5780849260209460405283398101031261011657516001600160a01b0381168103610116576080525f516020610cd65f395f51905f525460ff8160401c16610107576002600160401b03196001600160401b038216016100b1575b604051610ba7908161012f823960805181818160d2015281816103760152818161060a01526109c40152f35b6001600160401b0319166001600160401b039081175f516020610cd65f395f51905f52556040519081527fc7f505b2f371ae2175ee4913f4499e1f2633a7b5936321eed1cdaeb6115181d290602090a15f610085565b63f92ee8a960e01b5f5260045ffd5b5f80fd5b634e487b7160e01b5f52604160045260245ffdfe608080604052600436101561001c575b50361561001a575f80fd5b005b5f3560e01c9081630db02622146107b5575080631626ba7e14610763578063173825d9146106b257806319822f7c146105d35780632f54bf6e1461059757806334fcd5be146104695780637065cb48146103a5578063b0d691fe14610361578063b61d27f6146102ea578063c4d66de8146101565763d087d288146100a1575f61000f565b3461013f575f36600319011261013f57604051631aab3f0d60e11b81523060048201525f60248201526020816044817f00000000000000000000000000000000000000000000000000000000000000006001600160a01b03165afa801561014b575f90610114575b602090604051908152f35b506020813d602011610143575b8161012e60209383610813565b8101031261013f5760209051610109565b5f80fd5b3d9150610121565b6040513d5f823e3d90fd5b3461013f57602036600319011261013f5761016f6107fd565b5f516020610b525f395f51905f52549060ff8260401c16159167ffffffffffffffff8116801590816102e2575b60011490816102d8575b1590816102cf575b506102c05767ffffffffffffffff1981166001175f516020610b525f395f51905f525582610294575b506001600160a01b031690811561028557815f525f60205260405f20600160ff1982541617905560018055604051917f994a936646fe87ffe4f1e469d3d6aa417d6b855598397f323de5b449f765f0c35f80a261023057005b60207fc7f505b2f371ae2175ee4913f4499e1f2633a7b5936321eed1cdaeb6115181d29168ff0000000000000000195f516020610b525f395f51905f5254165f516020610b525f395f51905f525560018152a1005b63d92e233d60e01b5f5260045ffd5b68ffffffffffffffffff191668010000000000000001175f516020610b525f395f51905f5255826101d7565b63f92ee8a960e01b5f5260045ffd5b905015846101ae565b303b1591506101a6565b84915061019c565b3461013f57606036600319011261013f576103036107fd565b6044359067ffffffffffffffff821161013f575f61033d819261032a8536906004016107cf565b92906103346109c2565b5a933691610865565b916020835193019160243591f11561035157005b610359610a07565b602081519101fd5b3461013f575f36600319011261013f576040517f00000000000000000000000000000000000000000000000000000000000000006001600160a01b03168152602090f35b3461013f57602036600319011261013f576103be6107fd565b30330361045a576001600160a01b0316801561028557805f525f60205260ff60405f20541661044857805f525f60205260405f20600160ff198254161790556001545f198114610434576001016001557f994a936646fe87ffe4f1e469d3d6aa417d6b855598397f323de5b449f765f0c35f80a2005b634e487b7160e01b5f52601160045260245ffd5b6316e832e960e21b5f5260045260245ffd5b63295d6e8760e21b5f5260045ffd5b3461013f57602036600319011261013f5760043567ffffffffffffffff811161013f573660238201121561013f57806004013567ffffffffffffffff811161013f573660248260051b8401011161013f576104c26109c2565b36829003608219015f5b8281101561001a5760248160051b850101358281121561013f5784016024810180356001600160a01b038116810361013f578261051e6105135f959460648796019061091d565b91905a923691610865565b92604460208551950193013591f115610539576001016104cc565b6001830361054957610359610a07565b6064610553610a07565b60408051635a15467560e01b815260048101949094526024840152805160448401819052839181906020018484015e5f828201840152601f01601f19168101030190fd5b3461013f57602036600319011261013f576001600160a01b036105b86107fd565b165f525f602052602060ff60405f2054166040519015158152f35b3461013f57606036600319011261013f5760043567ffffffffffffffff811161013f57610120600319823603011261013f576044357f00000000000000000000000000000000000000000000000000000000000000006001600160a01b031633819003610698575061064d60209260243590600401610950565b908061065d575b50604051908152f35b5f80808093335af1503d15610693573d61067681610849565b906106846040519283610813565b81525f833d92013e5b82610654565b61068d565b63fe34a6d360e01b5f52336004523060245260445260645ffd5b3461013f57602036600319011261013f576106cb6107fd565b30330361045a576001600160a01b03165f8181526020819052604090205460ff161561075157600180541461074257805f525f60205260405f2060ff1981541690556001548015610434575f19016001557f58619076adf5bb0943d100ef88d52d7c3fd691b19d3a9071b555b651fbf418da5f80a2005b632352e49760e21b5f5260045ffd5b63298f10e760e11b5f5260045260245ffd5b3461013f57604036600319011261013f5760243567ffffffffffffffff811161013f576107a261079960209236906004016107cf565b9060043561089b565b6040516001600160e01b03199091168152f35b3461013f575f36600319011261013f576020906001548152f35b9181601f8401121561013f5782359167ffffffffffffffff831161013f576020838186019501011161013f57565b600435906001600160a01b038216820361013f57565b90601f8019910116810190811067ffffffffffffffff82111761083557604052565b634e487b7160e01b5f52604160045260245ffd5b67ffffffffffffffff811161083557601f01601f191660200190565b92919261087182610849565b9161087f6040519384610813565b82948184528183011161013f578281602093845f960137010152565b916108d96108df926108e8947f19457468657265756d205369676e6564204d6573736167653a0a3332000000005f52601c52603c5f20923691610865565b90610a21565b90929192610a5b565b6001600160a01b03165f9081526020819052604090205460ff16610912576001600160e01b031990565b630b135d3f60e11b90565b903590601e198136030182121561013f570180359067ffffffffffffffff821161013f5760200191813603831361013f57565b6108df9061099b927f19457468657265756d205369676e6564204d6573736167653a0a3332000000005f52601c526108d9610994603c5f209261010081019061091d565b3691610865565b6001600160a01b03165f9081526020819052604090205460ff166109be57600190565b5f90565b7f00000000000000000000000000000000000000000000000000000000000000006001600160a01b031633811415806109fd575b6106985750565b50303314156109f6565b3d604051906020818301016040528082525f602083013e90565b8151919060418303610a5157610a4a9250602082015190606060408401519301515f1a90610acf565b9192909190565b50505f9160029190565b6004811015610abb5780610a6d575050565b60018103610a845763f645eedf60e01b5f5260045ffd5b60028103610a9f575063fce698f760e01b5f5260045260245ffd5b600314610aa95750565b6335e2f38360e21b5f5260045260245ffd5b634e487b7160e01b5f52602160045260245ffd5b91907f7fffffffffffffffffffffffffffffff5d576e7357a4501ddfe92f46681b20a08411610b46579160209360809260ff5f9560405194855216868401526040830152606082015282805260015afa1561014b575f516001600160a01b03811615610b3c57905f905f90565b505f906001905f90565b5050505f916003919056fef0c57e16840df040f15088dc2f81fe391c3923bec73e23a9662efc9c229c6a00a264697066735822122067b69e55e8c2281620c3b42bd66f68ea99fe00781a2bb92d1e22242ebc146ced64736f6c634300081c0033f0c57e16840df040f15088dc2f81fe391c3923bec73e23a9662efc9c229c6a00","linkReferences":{}},"methodIdentifiers":{"addOwner(address)":"7065cb48","entryPoint()":"b0d691fe","execute(address,uint256,bytes)":"b61d27f6","executeBatch((address,uint256,bytes)[])":"34fcd5be","getNonce()":"d087d288","initialize(address)":"c4d66de8","isOwner(address)":"2f54bf6e","isValidSignature(bytes32,bytes)":"1626ba7e","ownerCount()":"0db02622","removeOwner(address)":"173825d9","validateUserOp((address,uint256,bytes,bytes,bytes32,uint256,bytes32,bytes,bytes),bytes32,uint256)":"19822f7c"},"id":66}