{"abi":[{"type":"constructor","inputs":[{"name":"entryPoint_","type":"address","internalType":"contract IEntryPoint"}],"stateMutability":"nonpayable"},{"type":"receive","stateMutability":"payable"},{"type":"function","name":"addOwner","inputs":[{"name":"owner","type":"address","internalType":"address"}],"outputs":[],"stateMutability":"nonpayable"},{"type":"function","name":"delegationManager","inputs":[],"outputs":[{"name":"","type":"address","internalType":"address"}],"stateMutability":"view"},{"type":"function","name":"entryPoint","inputs":[],"outputs":[{"name":"","type":"address","internalType":"contract IEntryPoint"}],"stateMutability":"view"},{"type":"function","name":"execute","inputs":[{"name":"target","type":"address","internalType":"address"},{"name":"value","type":"uint256","internalType":"uint256"},{"name":"data","type":"bytes","internalType":"bytes"}],"outputs":[],"stateMutability":"nonpayable"},{"type":"function","name":"executeBatch","inputs":[{"name":"calls","type":"tuple[]","internalType":"struct BaseAccount.Call[]","components":[{"name":"target","type":"address","internalType":"address"},{"name":"value","type":"uint256","internalType":"uint256"},{"name":"data","type":"bytes","internalType":"bytes"}]}],"outputs":[],"stateMutability":"nonpayable"},{"type":"function","name":"getNonce","inputs":[],"outputs":[{"name":"","type":"uint256","internalType":"uint256"}],"stateMutability":"view"},{"type":"function","name":"initialize","inputs":[{"name":"initialOwner","type":"address","internalType":"address"}],"outputs":[],"stateMutability":"nonpayable"},{"type":"function","name":"isOwner","inputs":[{"name":"account","type":"address","internalType":"address"}],"outputs":[{"name":"","type":"bool","internalType":"bool"}],"stateMutability":"view"},{"type":"function","name":"isValidSignature","inputs":[{"name":"hash","type":"bytes32","internalType":"bytes32"},{"name":"signature","type":"bytes","internalType":"bytes"}],"outputs":[{"name":"","type":"bytes4","internalType":"bytes4"}],"stateMutability":"view"},{"type":"function","name":"ownerCount","inputs":[],"outputs":[{"name":"","type":"uint256","internalType":"uint256"}],"stateMutability":"view"},{"type":"function","name":"removeOwner","inputs":[{"name":"owner","type":"address","internalType":"address"}],"outputs":[],"stateMutability":"nonpayable"},{"type":"function","name":"setDelegationManager","inputs":[{"name":"dm","type":"address","internalType":"address"}],"outputs":[],"stateMutability":"nonpayable"},{"type":"function","name":"validateUserOp","inputs":[{"name":"userOp","type":"tuple","internalType":"struct PackedUserOperation","components":[{"name":"sender","type":"address","internalType":"address"},{"name":"nonce","type":"uint256","internalType":"uint256"},{"name":"initCode","type":"bytes","internalType":"bytes"},{"name":"callData","type":"bytes","internalType":"bytes"},{"name":"accountGasLimits","type":"bytes32","internalType":"bytes32"},{"name":"preVerificationGas","type":"uint256","internalType":"uint256"},{"name":"gasFees","type":"bytes32","internalType":"bytes32"},{"name":"paymasterAndData","type":"bytes","internalType":"bytes"},{"name":"signature","type":"bytes","internalType":"bytes"}]},{"name":"userOpHash","type":"bytes32","internalType":"bytes32"},{"name":"missingAccountFunds","type":"uint256","internalType":"uint256"}],"outputs":[{"name":"validationData","type":"uint256","internalType":"uint256"}],"stateMutability":"nonpayable"},{"type":"event","name":"Initialized","inputs":[{"name":"version","type":"uint64","indexed":false,"internalType":"uint64"}],"anonymous":false},{"type":"event","name":"OwnerAdded","inputs":[{"name":"owner","type":"address","indexed":true,"internalType":"address"}],"anonymous":false},{"type":"event","name":"OwnerRemoved","inputs":[{"name":"owner","type":"address","indexed":true,"internalType":"address"}],"anonymous":false},{"type":"error","name":"CannotRemoveLastOwner","inputs":[]},{"type":"error","name":"ECDSAInvalidSignature","inputs":[]},{"type":"error","name":"ECDSAInvalidSignatureLength","inputs":[{"name":"length","type":"uint256","internalType":"uint256"}]},{"type":"error","name":"ECDSAInvalidSignatureS","inputs":[{"name":"s","type":"bytes32","internalType":"bytes32"}]},{"type":"error","name":"ExecuteError","inputs":[{"name":"index","type":"uint256","internalType":"uint256"},{"name":"error","type":"bytes","internalType":"bytes"}]},{"type":"error","name":"InvalidInitialization","inputs":[]},{"type":"error","name":"NotFromEntryPoint","inputs":[{"name":"msgSender","type":"address","internalType":"address"},{"name":"entity","type":"address","internalType":"address"},{"name":"entryPoint","type":"address","internalType":"address"}]},{"type":"error","name":"NotFromSelf","inputs":[]},{"type":"error","name":"NotInitializing","inputs":[]},{"type":"error","name":"OwnerAlreadyExists","inputs":[{"name":"owner","type":"address","internalType":"address"}]},{"type":"error","name":"OwnerDoesNotExist","inputs":[{"name":"owner","type":"address","internalType":"address"}]},{"type":"error","name":"ZeroAddress","inputs":[]}],"bytecode":{"object":"0x60a03461011757601f610db438819003918201601f19168301916001600160401b0383118484101761011b5780849260209460405283398101031261011757516001600160a01b0381168103610117576080525f516020610d945f395f51905f525460ff8160401c16610108576002600160401b03196001600160401b038216016100b2575b604051610c6490816101308239608051818181610113015281816103b5015281816106ab0152610a670152f35b6001600160401b0319166001600160401b039081175f516020610d945f395f51905f52556040519081527fc7f505b2f371ae2175ee4913f4499e1f2633a7b5936321eed1cdaeb6115181d290602090a15f610085565b63f92ee8a960e01b5f5260045ffd5b5f80fd5b634e487b7160e01b5f52604160045260245ffdfe608080604052600436101561001c575b50361561001a575f80fd5b005b5f3560e01c9081630db0262214610858575080631626ba7e14610806578063173825d91461075357806319822f7c146106745780631a8d0de2146106155780632f54bf6e146105d857806334fcd5be146104aa5780637065cb48146103e4578063b0d691fe146103a0578063b61d27f614610329578063c4d66de814610193578063d087d288146100e25763ea4d3c9b146100b7575f61000f565b346100de575f3660031901126100de575f546040516001600160a01b039091168152602090f35b5f80fd5b346100de575f3660031901126100de57604051631aab3f0d60e11b81523060048201525f60248201526020816044817f00000000000000000000000000000000000000000000000000000000000000006001600160a01b03165afa8015610188575f90610155575b602090604051908152f35b506020813d602011610180575b8161016f602093836108b6565b810103126100de576020905161014a565b3d9150610162565b6040513d5f823e3d90fd5b346100de5760203660031901126100de576101ac6108a0565b5f516020610c0f5f395f51905f52549060ff8260401c16159167ffffffffffffffff811680159081610321575b6001149081610317575b15908161030e575b506102ff5767ffffffffffffffff1981166001175f516020610c0f5f395f51905f5255826102d3575b506001600160a01b03169081156102c457815f52600160205260405f20600160ff198254161790556001600255604051917f994a936646fe87ffe4f1e469d3d6aa417d6b855598397f323de5b449f765f0c35f80a261026f57005b60207fc7f505b2f371ae2175ee4913f4499e1f2633a7b5936321eed1cdaeb6115181d29168ff0000000000000000195f516020610c0f5f395f51905f5254165f516020610c0f5f395f51905f525560018152a1005b63d92e233d60e01b5f5260045ffd5b68ffffffffffffffffff191668010000000000000001175f516020610c0f5f395f51905f525582610214565b63f92ee8a960e01b5f5260045ffd5b905015846101eb565b303b1591506101e3565b8491506101d9565b346100de5760603660031901126100de576103426108a0565b6044359067ffffffffffffffff82116100de575f61037c8192610369853690600401610872565b9290610373610a65565b5a933691610908565b916020835193019160243591f11561039057005b610398610ac4565b602081519101fd5b346100de575f3660031901126100de576040517f00000000000000000000000000000000000000000000000000000000000000006001600160a01b03168152602090f35b346100de5760203660031901126100de576103fd6108a0565b30330361049b576001600160a01b031680156102c457805f52600160205260ff60405f20541661048957805f52600160205260405f20600160ff198254161790556002545f198114610475576001016002557f994a936646fe87ffe4f1e469d3d6aa417d6b855598397f323de5b449f765f0c35f80a2005b634e487b7160e01b5f52601160045260245ffd5b6316e832e960e21b5f5260045260245ffd5b63295d6e8760e21b5f5260045ffd5b346100de5760203660031901126100de5760043567ffffffffffffffff81116100de57366023820112156100de57806004013567ffffffffffffffff81116100de573660248260051b840101116100de57610503610a65565b36829003608219015f5b8281101561001a5760248160051b85010135828112156100de5784016024810180356001600160a01b03811681036100de578261055f6105545f95946064879601906109c0565b91905a923691610908565b92604460208551950193013591f11561057a5760010161050d565b6001830361058a57610398610ac4565b6064610594610ac4565b60408051635a15467560e01b815260048101949094526024840152805160448401819052839181906020018484015e5f828201840152601f01601f19168101030190fd5b346100de5760203660031901126100de576001600160a01b036105f96108a0565b165f526001602052602060ff60405f2054166040519015158152f35b346100de5760203660031901126100de5761062e6108a0565b303314158061065d575b61049b575f80546001600160a01b0319166001600160a01b0392909216919091179055005b50335f52600160205260ff60405f20541615610638565b346100de5760603660031901126100de5760043567ffffffffffffffff81116100de5761012060031982360301126100de576044357f00000000000000000000000000000000000000000000000000000000000000006001600160a01b03163381900361073957506106ee602092602435906004016109f3565b90806106fe575b50604051908152f35b5f80808093335af1503d15610734573d610717816108ec565b9061072560405192836108b6565b81525f833d92013e5b826106f5565b61072e565b63fe34a6d360e01b5f52336004523060245260445260645ffd5b346100de5760203660031901126100de5761076c6108a0565b30330361049b576001600160a01b03165f8181526001602052604090205460ff16156107f4576001600254146107e557805f52600160205260405f2060ff1981541690556002548015610475575f19016002557f58619076adf5bb0943d100ef88d52d7c3fd691b19d3a9071b555b651fbf418da5f80a2005b632352e49760e21b5f5260045ffd5b63298f10e760e11b5f5260045260245ffd5b346100de5760403660031901126100de5760243567ffffffffffffffff81116100de5761084561083c6020923690600401610872565b9060043561093e565b6040516001600160e01b03199091168152f35b346100de575f3660031901126100de576020906002548152f35b9181601f840112156100de5782359167ffffffffffffffff83116100de57602083818601950101116100de57565b600435906001600160a01b03821682036100de57565b90601f8019910116810190811067ffffffffffffffff8211176108d857604052565b634e487b7160e01b5f52604160045260245ffd5b67ffffffffffffffff81116108d857601f01601f191660200190565b929192610914826108ec565b9161092260405193846108b6565b8294818452818301116100de578281602093845f960137010152565b9161097c6109829261098b947f19457468657265756d205369676e6564204d6573736167653a0a3332000000005f52601c52603c5f20923691610908565b90610ade565b90929192610b18565b6001600160a01b03165f9081526001602052604090205460ff166109b5576001600160e01b031990565b630b135d3f60e11b90565b903590601e19813603018212156100de570180359067ffffffffffffffff82116100de576020019181360383136100de57565b61098290610a3e927f19457468657265756d205369676e6564204d6573736167653a0a3332000000005f52601c5261097c610a37603c5f20926101008101906109c0565b3691610908565b6001600160a01b03165f9081526001602052604090205460ff16610a6157600190565b5f90565b7f00000000000000000000000000000000000000000000000000000000000000006001600160a01b03163381141580610aba575b80610aa6575b6107395750565b505f546001600160a01b0316331415610a9f565b5030331415610a99565b3d604051906020818301016040528082525f602083013e90565b8151919060418303610b0e57610b079250602082015190606060408401519301515f1a90610b8c565b9192909190565b50505f9160029190565b6004811015610b785780610b2a575050565b60018103610b415763f645eedf60e01b5f5260045ffd5b60028103610b5c575063fce698f760e01b5f5260045260245ffd5b600314610b665750565b6335e2f38360e21b5f5260045260245ffd5b634e487b7160e01b5f52602160045260245ffd5b91907f7fffffffffffffffffffffffffffffff5d576e7357a4501ddfe92f46681b20a08411610c03579160209360809260ff5f9560405194855216868401526040830152606082015282805260015afa15610188575f516001600160a01b03811615610bf957905f905f90565b505f906001905f90565b5050505f916003919056fef0c57e16840df040f15088dc2f81fe391c3923bec73e23a9662efc9c229c6a00a2646970667358221220c0bd5395be9e6c6459d44a8d73d45706f8339829b1ed77dd3126f88be7af419f64736f6c634300081c0033f0c57e16840df040f15088dc2f81fe391c3923bec73e23a9662efc9c229c6a00","linkReferences":{}},"methodIdentifiers":{"addOwner(address)":"7065cb48","delegationManager()":"ea4d3c9b","entryPoint()":"b0d691fe","execute(address,uint256,bytes)":"b61d27f6","executeBatch((address,uint256,bytes)[])":"34fcd5be","getNonce()":"d087d288","initialize(address)":"c4d66de8","isOwner(address)":"2f54bf6e","isValidSignature(bytes32,bytes)":"1626ba7e","ownerCount()":"0db02622","removeOwner(address)":"173825d9","setDelegationManager(address)":"1a8d0de2","validateUserOp((address,uint256,bytes,bytes,bytes32,uint256,bytes32,bytes,bytes),bytes32,uint256)":"19822f7c"},"id":72}