{"abi":[{"type":"constructor","inputs":[{"name":"entryPoint_","type":"address","internalType":"contract IEntryPoint"}],"stateMutability":"nonpayable"},{"type":"receive","stateMutability":"payable"},{"type":"function","name":"addOwner","inputs":[{"name":"owner","type":"address","internalType":"address"}],"outputs":[],"stateMutability":"nonpayable"},{"type":"function","name":"entryPoint","inputs":[],"outputs":[{"name":"","type":"address","internalType":"contract IEntryPoint"}],"stateMutability":"view"},{"type":"function","name":"execute","inputs":[{"name":"target","type":"address","internalType":"address"},{"name":"value","type":"uint256","internalType":"uint256"},{"name":"data","type":"bytes","internalType":"bytes"}],"outputs":[],"stateMutability":"nonpayable"},{"type":"function","name":"executeBatch","inputs":[{"name":"calls","type":"tuple[]","internalType":"struct BaseAccount.Call[]","components":[{"name":"target","type":"address","internalType":"address"},{"name":"value","type":"uint256","internalType":"uint256"},{"name":"data","type":"bytes","internalType":"bytes"}]}],"outputs":[],"stateMutability":"nonpayable"},{"type":"function","name":"getNonce","inputs":[],"outputs":[{"name":"","type":"uint256","internalType":"uint256"}],"stateMutability":"view"},{"type":"function","name":"initialize","inputs":[{"name":"initialOwner","type":"address","internalType":"address"}],"outputs":[],"stateMutability":"nonpayable"},{"type":"function","name":"isOwner","inputs":[{"name":"account","type":"address","internalType":"address"}],"outputs":[{"name":"","type":"bool","internalType":"bool"}],"stateMutability":"view"},{"type":"function","name":"isValidSignature","inputs":[{"name":"hash","type":"bytes32","internalType":"bytes32"},{"name":"signature","type":"bytes","internalType":"bytes"}],"outputs":[{"name":"","type":"bytes4","internalType":"bytes4"}],"stateMutability":"view"},{"type":"function","name":"ownerCount","inputs":[],"outputs":[{"name":"","type":"uint256","internalType":"uint256"}],"stateMutability":"view"},{"type":"function","name":"removeOwner","inputs":[{"name":"owner","type":"address","internalType":"address"}],"outputs":[],"stateMutability":"nonpayable"},{"type":"function","name":"validateUserOp","inputs":[{"name":"userOp","type":"tuple","internalType":"struct PackedUserOperation","components":[{"name":"sender","type":"address","internalType":"address"},{"name":"nonce","type":"uint256","internalType":"uint256"},{"name":"initCode","type":"bytes","internalType":"bytes"},{"name":"callData","type":"bytes","internalType":"bytes"},{"name":"accountGasLimits","type":"bytes32","internalType":"bytes32"},{"name":"preVerificationGas","type":"uint256","internalType":"uint256"},{"name":"gasFees","type":"bytes32","internalType":"bytes32"},{"name":"paymasterAndData","type":"bytes","internalType":"bytes"},{"name":"signature","type":"bytes","internalType":"bytes"}]},{"name":"userOpHash","type":"bytes32","internalType":"bytes32"},{"name":"missingAccountFunds","type":"uint256","internalType":"uint256"}],"outputs":[{"name":"validationData","type":"uint256","internalType":"uint256"}],"stateMutability":"nonpayable"},{"type":"event","name":"Initialized","inputs":[{"name":"version","type":"uint64","indexed":false,"internalType":"uint64"}],"anonymous":false},{"type":"event","name":"OwnerAdded","inputs":[{"name":"owner","type":"address","indexed":true,"internalType":"address"}],"anonymous":false},{"type":"event","name":"OwnerRemoved","inputs":[{"name":"owner","type":"address","indexed":true,"internalType":"address"}],"anonymous":false},{"type":"error","name":"CannotRemoveLastOwner","inputs":[]},{"type":"error","name":"ECDSAInvalidSignature","inputs":[]},{"type":"error","name":"ECDSAInvalidSignatureLength","inputs":[{"name":"length","type":"uint256","internalType":"uint256"}]},{"type":"error","name":"ECDSAInvalidSignatureS","inputs":[{"name":"s","type":"bytes32","internalType":"bytes32"}]},{"type":"error","name":"ExecuteError","inputs":[{"name":"index","type":"uint256","internalType":"uint256"},{"name":"error","type":"bytes","internalType":"bytes"}]},{"type":"error","name":"InvalidInitialization","inputs":[]},{"type":"error","name":"NotFromEntryPoint","inputs":[{"name":"msgSender","type":"address","internalType":"address"},{"name":"entity","type":"address","internalType":"address"},{"name":"entryPoint","type":"address","internalType":"address"}]},{"type":"error","name":"NotFromSelf","inputs":[]},{"type":"error","name":"NotInitializing","inputs":[]},{"type":"error","name":"OwnerAlreadyExists","inputs":[{"name":"owner","type":"address","internalType":"address"}]},{"type":"error","name":"OwnerDoesNotExist","inputs":[{"name":"owner","type":"address","internalType":"address"}]},{"type":"error","name":"ZeroAddress","inputs":[]}],"bytecode":{"object":"0x60a060405234801561000f575f5ffd5b5060405161119538038061119583398101604081905261002e916100fb565b6001600160a01b038116608052610043610049565b50610128565b7ff0c57e16840df040f15088dc2f81fe391c3923bec73e23a9662efc9c229c6a00805468010000000000000000900460ff16156100995760405163f92ee8a960e01b815260040160405180910390fd5b80546001600160401b03908116146100f85780546001600160401b0319166001600160401b0390811782556040519081527fc7f505b2f371ae2175ee4913f4499e1f2633a7b5936321eed1cdaeb6115181d29060200160405180910390a15b50565b5f6020828403121561010b575f5ffd5b81516001600160a01b0381168114610121575f5ffd5b9392505050565b6080516110326101635f395f81816101e1015281816107cc0152818161088a015281816108c401528181610a2e0152610a8401526110325ff3fe60806040526004361061009d575f3560e01c806334fcd5be1161006257806334fcd5be1461018a5780637065cb48146101a9578063b0d691fe146101c8578063b61d27f61461020b578063c4d66de81461022a578063d087d28814610249575f5ffd5b80630db02622146100a85780631626ba7e146100cb578063173825d91461010357806319822f7c146101245780632f54bf6e14610143575f5ffd5b366100a457005b5f5ffd5b3480156100b3575f5ffd5b506001545b6040519081526020015b60405180910390f35b3480156100d6575f5ffd5b506100ea6100e5366004610d4d565b61025d565b6040516001600160e01b031990911681526020016100c2565b34801561010e575f5ffd5b5061012261011d366004610db0565b610317565b005b34801561012f575f5ffd5b506100b861013e366004610dc9565b61040a565b34801561014e575f5ffd5b5061017a61015d366004610db0565b6001600160a01b03165f9081526020819052604090205460ff1690565b60405190151581526020016100c2565b348015610195575f5ffd5b506101226101a4366004610e18565b610428565b3480156101b4575f5ffd5b506101226101c3366004610db0565b61050f565b3480156101d3575f5ffd5b506040516001600160a01b037f00000000000000000000000000000000000000000000000000000000000000001681526020016100c2565b348015610216575f5ffd5b50610122610225366004610e89565b610606565b348015610235575f5ffd5b50610122610244366004610db0565b610665565b348015610254575f5ffd5b506100b86107c9565b7f19457468657265756d205369676e6564204d6573736167653a0a3332000000005f908152601c849052603c81205f6102cd85858080601f0160208091040260200160405190810160405280939291908181526020018383808284375f92019190915250869392505061085e9050565b6001600160a01b0381165f9081526020819052604090205490915060ff16156103025750630b135d3f60e11b91506103109050565b506001600160e01b03199150505b9392505050565b3330146103375760405163295d6e8760e21b815260040160405180910390fd5b6001600160a01b0381165f9081526020819052604090205460ff1661037f5760405163298f10e760e11b81526001600160a01b03821660048201526024015b60405180910390fd5b6001546001036103a257604051632352e49760e21b815260040160405180910390fd5b6001600160a01b0381165f908152602081905260408120805460ff1916905560018054916103cf83610ef3565b90915550506040516001600160a01b038216907f58619076adf5bb0943d100ef88d52d7c3fd691b19d3a9071b555b651fbf418da905f90a250565b5f610413610888565b61041d8484610927565b9050610310826109de565b610430610a23565b805f5b81811015610509573684848381811061044e5761044e610f08565b90506020028101906104609190610f1c565b90505f6104be6104736020840184610db0565b60208401356104856040860186610f3a565b8080601f0160208091040260200160405190810160405280939291908181526020018383808284375f920191909152505050505a610ab3565b9050806104ff57836001036104da576104d5610ac9565b6104ff565b826104e45f610ada565b604051635a15467560e01b8152600401610376929190610f7d565b5050600101610433565b50505050565b33301461052f5760405163295d6e8760e21b815260040160405180910390fd5b6001600160a01b0381166105565760405163d92e233d60e01b815260040160405180910390fd5b6001600160a01b0381165f9081526020819052604090205460ff161561059a576040516316e832e960e21b81526001600160a01b0382166004820152602401610376565b6001600160a01b0381165f908152602081905260408120805460ff191660019081179091558054916105cb83610fb9565b90915550506040516001600160a01b038216907f994a936646fe87ffe4f1e469d3d6aa417d6b855598397f323de5b449f765f0c3905f90a250565b61060e610a23565b5f61064f858585858080601f0160208091040260200160405190810160405280939291908181526020018383808284375f920191909152505050505a610ab3565b90508061065e5761065e610ac9565b5050505050565b5f61066e610b0b565b805490915060ff600160401b820416159067ffffffffffffffff165f811580156106955750825b90505f8267ffffffffffffffff1660011480156106b15750303b155b9050811580156106bf575080155b156106dd5760405163f92ee8a960e01b815260040160405180910390fd5b845467ffffffffffffffff19166001178555831561070757845460ff60401b1916600160401b1785555b6001600160a01b03861661072e5760405163d92e233d60e01b815260040160405180910390fd5b6001600160a01b0386165f81815260208190526040808220805460ff191660019081179091558055517f994a936646fe87ffe4f1e469d3d6aa417d6b855598397f323de5b449f765f0c39190a283156107c157845460ff60401b19168555604051600181527fc7f505b2f371ae2175ee4913f4499e1f2633a7b5936321eed1cdaeb6115181d29060200160405180910390a15b505050505050565b5f7f0000000000000000000000000000000000000000000000000000000000000000604051631aab3f0d60e11b81523060048201525f60248201526001600160a01b0391909116906335567e1a90604401602060405180830381865afa158015610835573d5f5f3e3d5ffd5b505050506040513d601f19601f820116820180604052508101906108599190610fd1565b905090565b5f5f5f5f61086c8686610b33565b92509250925061087c8282610b7c565b50909150505b92915050565b7f00000000000000000000000000000000000000000000000000000000000000006001600160a01b0316336001600160a01b03161433306108e67f000000000000000000000000000000000000000000000000000000000000000090565b9091926109225760405163fe34a6d360e01b81526001600160a01b03938416600482015291831660248301529091166044820152606401610376565b505050565b7f19457468657265756d205369676e6564204d6573736167653a0a3332000000005f908152601c829052603c81205f6109a3610967610100870187610f3a565b8080601f0160208091040260200160405190810160405280939291908181526020018383808284375f92019190915250869392505061085e9050565b6001600160a01b0381165f9081526020819052604090205490915060ff16156109d0575f92505050610882565b506001949350505050565b50565b80156109db576040515f90339083908381818185875af1925050503d805f811461065e576040519150601f19603f3d011682016040523d82523d5f602084013e61065e565b336001600160a01b037f00000000000000000000000000000000000000000000000000000000000000001614801590610a5c5750333014155b15610ab15760405163fe34a6d360e01b81523360048201523060248201526001600160a01b037f0000000000000000000000000000000000000000000000000000000000000000166044820152606401610376565b565b5f5f5f845160208601878987f195945050505050565b610ab1610ad55f610ada565b610c38565b60603d8215610aee5782811115610aee5750815b604051602082018101604052818152815f602083013e9392505050565b5f807ff0c57e16840df040f15088dc2f81fe391c3923bec73e23a9662efc9c229c6a00610882565b5f5f5f8351604103610b6a576020840151604085015160608601515f1a610b5c88828585610c40565b955095509550505050610b75565b505081515f91506002905b9250925092565b5f826003811115610b8f57610b8f610fe8565b03610b98575050565b6001826003811115610bac57610bac610fe8565b03610bca5760405163f645eedf60e01b815260040160405180910390fd5b6002826003811115610bde57610bde610fe8565b03610bff5760405163fce698f760e01b815260048101829052602401610376565b6003826003811115610c1357610c13610fe8565b03610c34576040516335e2f38360e21b815260048101829052602401610376565b5050565b805160208201fd5b5f80807f7fffffffffffffffffffffffffffffff5d576e7357a4501ddfe92f46681b20a0841115610c7957505f91506003905082610cfe565b604080515f808252602082018084528a905260ff891692820192909252606081018790526080810186905260019060a0016020604051602081039080840390855afa158015610cca573d5f5f3e3d5ffd5b5050604051601f1901519150506001600160a01b038116610cf557505f925060019150829050610cfe565b92505f91508190505b9450945094915050565b5f5f83601f840112610d18575f5ffd5b50813567ffffffffffffffff811115610d2f575f5ffd5b602083019150836020828501011115610d46575f5ffd5b9250929050565b5f5f5f60408486031215610d5f575f5ffd5b83359250602084013567ffffffffffffffff811115610d7c575f5ffd5b610d8886828701610d08565b9497909650939450505050565b80356001600160a01b0381168114610dab575f5ffd5b919050565b5f60208284031215610dc0575f5ffd5b61031082610d95565b5f5f5f60608486031215610ddb575f5ffd5b833567ffffffffffffffff811115610df1575f5ffd5b84016101208187031215610e03575f5ffd5b95602085013595506040909401359392505050565b5f5f60208385031215610e29575f5ffd5b823567ffffffffffffffff811115610e3f575f5ffd5b8301601f81018513610e4f575f5ffd5b803567ffffffffffffffff811115610e65575f5ffd5b8560208260051b8401011115610e79575f5ffd5b6020919091019590945092505050565b5f5f5f5f60608587031215610e9c575f5ffd5b610ea585610d95565b935060208501359250604085013567ffffffffffffffff811115610ec7575f5ffd5b610ed387828801610d08565b95989497509550505050565b634e487b7160e01b5f52601160045260245ffd5b5f81610f0157610f01610edf565b505f190190565b634e487b7160e01b5f52603260045260245ffd5b5f8235605e19833603018112610f30575f5ffd5b9190910192915050565b5f5f8335601e19843603018112610f4f575f5ffd5b83018035915067ffffffffffffffff821115610f69575f5ffd5b602001915036819003821315610d46575f5ffd5b828152604060208201525f82518060408401528060208501606085015e5f606082850101526060601f19601f8301168401019150509392505050565b5f60018201610fca57610fca610edf565b5060010190565b5f60208284031215610fe1575f5ffd5b5051919050565b634e487b7160e01b5f52602160045260245ffdfea2646970667358221220e6ad911b4b45238d4c55d4796bb512e4d7308a635b1a94fcd628c43ba0b6db5d64736f6c634300081c0033","linkReferences":{}},"methodIdentifiers":{"addOwner(address)":"7065cb48","entryPoint()":"b0d691fe","execute(address,uint256,bytes)":"b61d27f6","executeBatch((address,uint256,bytes)[])":"34fcd5be","getNonce()":"d087d288","initialize(address)":"c4d66de8","isOwner(address)":"2f54bf6e","isValidSignature(bytes32,bytes)":"1626ba7e","ownerCount()":"0db02622","removeOwner(address)":"173825d9","validateUserOp((address,uint256,bytes,bytes,bytes32,uint256,bytes32,bytes,bytes),bytes32,uint256)":"19822f7c"},"id":62}