{"abi":[{"type":"constructor","inputs":[{"name":"ontologyRegistry","type":"address","internalType":"address"},{"name":"shapes","type":"address","internalType":"address"}],"stateMutability":"nonpayable"},{"type":"function","name":"CLASS_PLEDGE","inputs":[],"outputs":[{"name":"","type":"bytes32","internalType":"bytes32"}],"stateMutability":"view"},{"type":"function","name":"DT_ADDRESS_ARR_PUB","inputs":[],"outputs":[{"name":"","type":"uint8","internalType":"uint8"}],"stateMutability":"pure"},{"type":"function","name":"DT_ADDRESS_PUB","inputs":[],"outputs":[{"name":"","type":"uint8","internalType":"uint8"}],"stateMutability":"pure"},{"type":"function","name":"DT_BOOL_PUB","inputs":[],"outputs":[{"name":"","type":"uint8","internalType":"uint8"}],"stateMutability":"pure"},{"type":"function","name":"DT_BYTES32_ARR_PUB","inputs":[],"outputs":[{"name":"","type":"uint8","internalType":"uint8"}],"stateMutability":"pure"},{"type":"function","name":"DT_BYTES32_PUB","inputs":[],"outputs":[{"name":"","type":"uint8","internalType":"uint8"}],"stateMutability":"pure"},{"type":"function","name":"DT_STRING_ARR_PUB","inputs":[],"outputs":[{"name":"","type":"uint8","internalType":"uint8"}],"stateMutability":"pure"},{"type":"function","name":"DT_STRING_PUB","inputs":[],"outputs":[{"name":"","type":"uint8","internalType":"uint8"}],"stateMutability":"pure"},{"type":"function","name":"DT_UINT256_PUB","inputs":[],"outputs":[{"name":"","type":"uint8","internalType":"uint8"}],"stateMutability":"pure"},{"type":"function","name":"ONTOLOGY","inputs":[],"outputs":[{"name":"","type":"address","internalType":"contract OntologyTermRegistry"}],"stateMutability":"view"},{"type":"function","name":"SA_PLEDGE_AMOUNT","inputs":[],"outputs":[{"name":"","type":"bytes32","internalType":"bytes32"}],"stateMutability":"view"},{"type":"function","name":"SA_PLEDGE_CADENCE","inputs":[],"outputs":[{"name":"","type":"bytes32","internalType":"bytes32"}],"stateMutability":"view"},{"type":"function","name":"SA_PLEDGE_DURATION","inputs":[],"outputs":[{"name":"","type":"bytes32","internalType":"bytes32"}],"stateMutability":"view"},{"type":"function","name":"SA_PLEDGE_NULLIFIER","inputs":[],"outputs":[{"name":"","type":"bytes32","internalType":"bytes32"}],"stateMutability":"view"},{"type":"function","name":"SA_PLEDGE_PLEDGED_AT","inputs":[],"outputs":[{"name":"","type":"bytes32","internalType":"bytes32"}],"stateMutability":"view"},{"type":"function","name":"SA_PLEDGE_POOL","inputs":[],"outputs":[{"name":"","type":"bytes32","internalType":"bytes32"}],"stateMutability":"view"},{"type":"function","name":"SA_PLEDGE_RESTRICTIONS","inputs":[],"outputs":[{"name":"","type":"bytes32","internalType":"bytes32"}],"stateMutability":"view"},{"type":"function","name":"SA_PLEDGE_STATUS","inputs":[],"outputs":[{"name":"","type":"bytes32","internalType":"bytes32"}],"stateMutability":"view"},{"type":"function","name":"SA_PLEDGE_STOPPED_AT","inputs":[],"outputs":[{"name":"","type":"bytes32","internalType":"bytes32"}],"stateMutability":"view"},{"type":"function","name":"SA_PLEDGE_STORY_PERMISSIONS","inputs":[],"outputs":[{"name":"","type":"bytes32","internalType":"bytes32"}],"stateMutability":"view"},{"type":"function","name":"SA_PLEDGE_UNIT","inputs":[],"outputs":[{"name":"","type":"bytes32","internalType":"bytes32"}],"stateMutability":"view"},{"type":"function","name":"SHAPES","inputs":[],"outputs":[{"name":"","type":"address","internalType":"contract ShapeRegistry"}],"stateMutability":"view"},{"type":"function","name":"allSubjects","inputs":[],"outputs":[{"name":"","type":"bytes32[]","internalType":"bytes32[]"}],"stateMutability":"view"},{"type":"function","name":"amend","inputs":[{"name":"pledgeSubj","type":"bytes32","internalType":"bytes32"},{"name":"newAmount","type":"uint256","internalType":"uint256"},{"name":"newDuration","type":"uint256","internalType":"uint256"}],"outputs":[],"stateMutability":"nonpayable"},{"type":"function","name":"datatypeOf","inputs":[{"name":"subject","type":"bytes32","internalType":"bytes32"},{"name":"predicate","type":"bytes32","internalType":"bytes32"}],"outputs":[{"name":"","type":"uint8","internalType":"uint8"}],"stateMutability":"view"},{"type":"function","name":"getAddress","inputs":[{"name":"subject","type":"bytes32","internalType":"bytes32"},{"name":"predicate","type":"bytes32","internalType":"bytes32"}],"outputs":[{"name":"","type":"address","internalType":"address"}],"stateMutability":"view"},{"type":"function","name":"getAddressArr","inputs":[{"name":"subject","type":"bytes32","internalType":"bytes32"},{"name":"predicate","type":"bytes32","internalType":"bytes32"}],"outputs":[{"name":"","type":"address[]","internalType":"address[]"}],"stateMutability":"view"},{"type":"function","name":"getBool","inputs":[{"name":"subject","type":"bytes32","internalType":"bytes32"},{"name":"predicate","type":"bytes32","internalType":"bytes32"}],"outputs":[{"name":"","type":"bool","internalType":"bool"}],"stateMutability":"view"},{"type":"function","name":"getBytes32","inputs":[{"name":"subject","type":"bytes32","internalType":"bytes32"},{"name":"predicate","type":"bytes32","internalType":"bytes32"}],"outputs":[{"name":"","type":"bytes32","internalType":"bytes32"}],"stateMutability":"view"},{"type":"function","name":"getBytes32Arr","inputs":[{"name":"subject","type":"bytes32","internalType":"bytes32"},{"name":"predicate","type":"bytes32","internalType":"bytes32"}],"outputs":[{"name":"","type":"bytes32[]","internalType":"bytes32[]"}],"stateMutability":"view"},{"type":"function","name":"getString","inputs":[{"name":"subject","type":"bytes32","internalType":"bytes32"},{"name":"predicate","type":"bytes32","internalType":"bytes32"}],"outputs":[{"name":"","type":"string","internalType":"string"}],"stateMutability":"view"},{"type":"function","name":"getStringArr","inputs":[{"name":"subject","type":"bytes32","internalType":"bytes32"},{"name":"predicate","type":"bytes32","internalType":"bytes32"}],"outputs":[{"name":"","type":"string[]","internalType":"string[]"}],"stateMutability":"view"},{"type":"function","name":"getUint","inputs":[{"name":"subject","type":"bytes32","internalType":"bytes32"},{"name":"predicate","type":"bytes32","internalType":"bytes32"}],"outputs":[{"name":"","type":"uint256","internalType":"uint256"}],"stateMutability":"view"},{"type":"function","name":"isSet","inputs":[{"name":"subject","type":"bytes32","internalType":"bytes32"},{"name":"predicate","type":"bytes32","internalType":"bytes32"}],"outputs":[{"name":"","type":"bool","internalType":"bool"}],"stateMutability":"view"},{"type":"function","name":"pledgeSubject","inputs":[{"name":"poolAgent","type":"address","internalType":"address"},{"name":"nullifier","type":"bytes32","internalType":"bytes32"},{"name":"salt","type":"uint256","internalType":"uint256"}],"outputs":[{"name":"","type":"bytes32","internalType":"bytes32"}],"stateMutability":"pure"},{"type":"function","name":"predicatesOf","inputs":[{"name":"subject","type":"bytes32","internalType":"bytes32"}],"outputs":[{"name":"","type":"bytes32[]","internalType":"bytes32[]"}],"stateMutability":"view"},{"type":"function","name":"stop","inputs":[{"name":"pledgeSubj","type":"bytes32","internalType":"bytes32"}],"outputs":[],"stateMutability":"nonpayable"},{"type":"function","name":"subjectCount","inputs":[],"outputs":[{"name":"","type":"uint256","internalType":"uint256"}],"stateMutability":"view"},{"type":"function","name":"subjectVersion","inputs":[{"name":"subject","type":"bytes32","internalType":"bytes32"}],"outputs":[{"name":"","type":"uint64","internalType":"uint64"}],"stateMutability":"view"},{"type":"function","name":"submit","inputs":[{"name":"p","type":"tuple","internalType":"struct PledgeRegistry.SubmitParams","components":[{"name":"poolAgent","type":"address","internalType":"address"},{"name":"nullifier","type":"bytes32","internalType":"bytes32"},{"name":"salt","type":"uint256","internalType":"uint256"},{"name":"amount","type":"uint256","internalType":"uint256"},{"name":"unit","type":"bytes32","internalType":"bytes32"},{"name":"cadence","type":"bytes32","internalType":"bytes32"},{"name":"duration","type":"uint256","internalType":"uint256"},{"name":"restrictionsJson","type":"string","internalType":"string"},{"name":"storyPermissionsJson","type":"string","internalType":"string"}]}],"outputs":[],"stateMutability":"nonpayable"},{"type":"function","name":"updatedAt","inputs":[{"name":"subject","type":"bytes32","internalType":"bytes32"},{"name":"predicate","type":"bytes32","internalType":"bytes32"}],"outputs":[{"name":"","type":"uint64","internalType":"uint64"}],"stateMutability":"view"},{"type":"event","name":"AttributeAppended","inputs":[{"name":"subject","type":"bytes32","indexed":true,"internalType":"bytes32"},{"name":"predicate","type":"bytes32","indexed":true,"internalType":"bytes32"},{"name":"datatype","type":"uint8","indexed":false,"internalType":"uint8"},{"name":"version","type":"uint64","indexed":false,"internalType":"uint64"}],"anonymous":false},{"type":"event","name":"AttributeSet","inputs":[{"name":"subject","type":"bytes32","indexed":true,"internalType":"bytes32"},{"name":"predicate","type":"bytes32","indexed":true,"internalType":"bytes32"},{"name":"datatype","type":"uint8","indexed":false,"internalType":"uint8"},{"name":"version","type":"uint64","indexed":false,"internalType":"uint64"}],"anonymous":false},{"type":"event","name":"AttributeUnset","inputs":[{"name":"subject","type":"bytes32","indexed":true,"internalType":"bytes32"},{"name":"predicate","type":"bytes32","indexed":true,"internalType":"bytes32"},{"name":"version","type":"uint64","indexed":false,"internalType":"uint64"}],"anonymous":false},{"type":"event","name":"PledgeAmended","inputs":[{"name":"pledgeSubject","type":"bytes32","indexed":true,"internalType":"bytes32"},{"name":"newAmount","type":"uint256","indexed":false,"internalType":"uint256"}],"anonymous":false},{"type":"event","name":"PledgeStopped","inputs":[{"name":"pledgeSubject","type":"bytes32","indexed":true,"internalType":"bytes32"}],"anonymous":false},{"type":"event","name":"PledgeSubmitted","inputs":[{"name":"pledgeSubject","type":"bytes32","indexed":true,"internalType":"bytes32"},{"name":"poolAgent","type":"address","indexed":true,"internalType":"address"},{"name":"nullifier","type":"bytes32","indexed":true,"internalType":"bytes32"},{"name":"amount","type":"uint256","indexed":false,"internalType":"uint256"},{"name":"unit","type":"bytes32","indexed":false,"internalType":"bytes32"}],"anonymous":false},{"type":"event","name":"SubjectFirstSeen","inputs":[{"name":"subject","type":"bytes32","indexed":true,"internalType":"bytes32"}],"anonymous":false},{"type":"error","name":"AttributeNotSet","inputs":[]},{"type":"error","name":"NotPoolOperator","inputs":[]},{"type":"error","name":"PledgeNotFound","inputs":[]},{"type":"error","name":"PredicateNotActive","inputs":[]}],"bytecode":{"object":"0x60c03461009a57601f61219d38819003918201601f19168301916001600160401b0383118484101761009e57808492604094855283398101031261009a57610052602061004b836100b2565b92016100b2565b6001600160a01b039182166080521660a0526040516120d690816100c78239608051818181610231015281816103e60152611a21015260a05181818161079301526112ab0152f35b5f80fd5b634e487b7160e01b5f52604160045260245ffd5b51906001600160a01b038216820361009a5756fe6080806040526004361015610012575f80fd5b5f905f3560e01c908163115962ae1461163357508063213aaad71461161857806328664d2d146115f15780632d1ea2d6146115ca578063305471811461156657806331477b9b1461152457806337d9d7fc146114f55780633f1e1922146114bb5780634083843e1461145257806342504c8f1461142b57806342921cf3146113f95780634b4204b1146113145780634bd1ad6d146112da57806355c964dd14611296578063639a2e101461127957806363c4f031146110e057806372c556d6146110b957806373e0dc48146110925780637970cc30146110535780637a6ad92614611024578063880eadce14610fec5780638d9afffa14610fb25780638e10136914610f975780638e21caca14610f6457806393cbc37d14610f4957806398eaf11c14610f15578063a954aea114610efa578063aac3618614610ed3578063bb6b0c3b14610e9f578063be78c06814610e84578063c317462914610e69578063c3a6123d14610de5578063cb954f3014610d00578063d3a3968614610cc9578063d60080c714610ca2578063d70fe0b914610346578063e0e0de331461031e578063e4281bc314610260578063e63cdb421461021b578063ece6bebc146101ff5763f98eed69146101e1575f80fd5b346101fc57806003193601126101fc57602060405160088152f35b80fd5b50346101fc57806003193601126101fc57602060405160028152f35b50346101fc57806003193601126101fc576040517f00000000000000000000000000000000000000000000000000000000000000006001600160a01b03168152602090f35b50346101fc5761026f36611691565b90825260066020526040822090825260205260408120604051908160208254918281520190819285526020852090855b8181106102ff57505050826102b59103836116cb565b604051928392602084019060208552518091526040840192915b8181106102dd575050500390f35b82516001600160a01b03168452859450602093840193909201916001016102cf565b82546001600160a01b031684526020909301926001928301920161029f565b50346101fc57806003193601126101fc5760206040515f5160206120415f395f51905f528152f35b50346108a45760203660031901126108a4576004356001600160401b0381116108a457806004019061012060031982360301126108a457610390610389836117e3565b3390611892565b15610c935761039e826117e3565b916103b4602483013593846044850135916119b3565b906103be816117e3565b60405163170da40760e21b81525f5160206120615f395f51905f5260048201526020816024817f00000000000000000000000000000000000000000000000000000000000000006001600160a01b03165afa908115610899575f91610c64575b5015610c5557825f52600160205260405f205f5160206120615f395f51905f525f5260205260405f209060018060a01b03166bffffffffffffffffffffffff60a01b825416179055815f52600e60205260ff60405f20541615610c1e575b815f52600960205260405f205f5160206120615f395f51905f525f5260205260ff60405f20541615610bc9575b815f52600a60205260405f205f5160206120615f395f51905f525f5260205260405f20600260ff19825416179055815f52600c60205260016001600160401b0360405f205416016001600160401b038111610bb557825f5160206120215f395f51905f5260405f5160206120615f395f51905f5293835f52600c602052815f206001600160401b0382166001600160401b0319825416179055835f52600b602052815f20855f52602052815f206001600160401b0382166001600160401b03198254161790556001600160401b0382519160028352166020820152a361059b5f516020611f615f395f51905f52611a04565b815f52600460205260405f205f516020611f615f395f51905f525f526020528360405f20556105d75f516020611f615f395f51905f5283611c6c565b6064830135906105e78284611939565b6084840135936106035f516020611fe15f395f51905f52611a04565b835f52600460205260405f205f516020611fe15f395f51905f525f526020528460405f205561063f5f516020611fe15f395f51905f5285611c6c565b6106555f516020611f415f395f51905f52611a04565b835f52600460205260405f205f516020611f415f395f51905f525f5260205260a481013560405f20556106955f516020611f415f395f51905f5285611c6c565b60c481013580610ba5575b5060e481016106af81846117f7565b9050610a34575b50610104016106c581836117f7565b90506108a8575b506106e35f5160206120015f395f51905f52611a04565b825f52600360205260405f205f5160206120015f395f51905f525f526020524260405f205561071f5f5160206120015f395f51905f5284611b02565b6107355f516020611fc15f395f51905f52611a04565b825f52600460205260405f205f516020611fc15f395f51905f525f526020527f16024b39565c836f3dd8bc018aa051d9ddd7330ddb4fd12e05bbb2ec13d5e42260405f20556107915f516020611fc15f395f51905f5284611c6c565b7f00000000000000000000000000000000000000000000000000000000000000006001600160a01b0316803b156108a4575f606491604051928380926309abe27f60e01b82527f39a994ce151e39a396ab89aea307a1fd07a7d85d71d56272f9284b02e96a6f8560048301528860248301523060448301525afa80156108995761085e575b507fda5a9cd77fbe0e4d9c048d7216d854d4cedbb90a6b6a721089dd442c98c16d5e916040916001600160a01b039061084e906117e3565b169482519182526020820152a480f35b60409196509161088f5f7fda5a9cd77fbe0e4d9c048d7216d854d4cedbb90a6b6a721089dd442c98c16d5e946116cb565b5f96915091610816565b6040513d5f823e3d90fd5b5f80fd5b6108b56108bc91836117f7565b3691611844565b6108d25f5160206120415f395f51905f52611a04565b835f525f60205260405f205f5160206120415f395f51905f525f5260205260405f20908051906001600160401b038211610a2057819061091284546116ec565b601f81116109d0575b50602090601f831160011461096d575f92610962575b50508160011b915f199060031b1c19161790555b61095c5f5160206120415f395f51905f5284611dd6565b5f6106cc565b015190505f80610931565b5f8581528281209350601f198516905b8181106109b857509084600195949392106109a0575b505050811b019055610945565b01515f1960f88460031b161c191690555f8080610993565b9293602060018192878601518155019501930161097d565b909150835f5260205f20601f840160051c81019160208510610a16575b90601f859493920160051c01905b818110610a08575061091b565b5f81558493506001016109fb565b90915081906109ed565b634e487b7160e01b5f52604160045260245ffd5b6108b5610a4191846117f7565b610a575f5160206120815f395f51905f52611a04565b845f525f60205260405f205f5160206120815f395f51905f525f5260205260405f20908051906001600160401b038211610a2057610a9583546116ec565b601f8111610b60575b50602090601f8311600114610af857610104949392915f9183610aed575b50508160011b915f199060031b1c19161790555b610ae75f5160206120815f395f51905f5286611dd6565b906106b6565b015190505f80610abc565b90601f19831691845f52815f20925f5b818110610b4857509160019391856101049897969410610b30575b505050811b019055610ad0565b01515f1960f88460031b161c191690555f8080610b23565b92936020600181928786015181550195019301610b08565b835f5260205f20601f840160051c81019160208510610b9b575b601f0160051c01905b818110610b905750610a9e565b5f8155600101610b83565b9091508190610b7a565b610baf9085611984565b5f6106a0565b634e487b7160e01b5f52601160045260245ffd5b815f526008602052610beb5f5160206120615f395f51905f5260405f20611adb565b815f52600960205260405f205f5160206120615f395f51905f525f5260205260405f20600160ff198254161790556104a9565b815f52600e60205260405f20600160ff19825416179055610c3e82611a80565b815f516020611f815f395f51905f525f80a261047c565b632263bf1f60e21b5f5260045ffd5b610c86915060203d602011610c8c575b610c7e81836116cb565b81019061187a565b5f61041e565b503d610c74565b631d58809b60e31b5f5260045ffd5b346108a4575f3660031901126108a45760206040515f516020611f415f395f51905f528152f35b346108a457610cd736611691565b905f52600160205260405f20905f52602052602060018060a01b0360405f205416604051908152f35b346108a457610d0e36611691565b905f52600560205260405f20905f5260205260405f208054906001600160401b038211610a205760405191610d4960208260051b01846116cb565b8083526020830180925f5260205f205f915b838310610dc857848660405191829160208301906020845251809152604083019060408160051b85010192915f905b828210610d9957505050500390f35b91936001919395506020610db88192603f198a820301865288516116a7565b9601920192018594939192610d8a565b600160208192610dd785611724565b815201920192019190610d5b565b346108a4575f3660031901126108a457604051806020600d54918281520190600d5f527fd7b6990105719101dabeb77144f2a3385c8033acd3af97e9423a695e81ad1eb5905f5b818110610e5357610e4f85610e43818703826116cb565b60405191829182611658565b0390f35b8254845260209093019260019283019201610e2c565b346108a4575f3660031901126108a457602060405160058152f35b346108a4575f3660031901126108a457602060405160048152f35b346108a457610ead36611691565b905f52600960205260405f20905f52602052602060ff60405f2054166040519015158152f35b346108a4575f3660031901126108a45760206040515f516020611fe15f395f51905f528152f35b346108a4575f3660031901126108a457602060405160018152f35b346108a457610f2336611691565b905f52600260205260405f20905f52602052602060ff60405f2054166040519015158152f35b346108a4575f3660031901126108a457602060405160038152f35b346108a45760203660031901126108a4576004355f52600c60205260206001600160401b0360405f205416604051908152f35b346108a4575f3660031901126108a457602060405160068152f35b346108a4575f3660031901126108a45760206040517f168d44d6eca8af99b319af3e6602ebb4789001962ed86f6f30564096353f3aa38152f35b346108a457610ffa36611691565b905f52600b60205260405f20905f5260205260206001600160401b0360405f205416604051908152f35b346108a45761103236611691565b905f52600360205260405f20905f52602052602060405f2054604051908152f35b346108a45760603660031901126108a4576004356001600160a01b03811681036108a45761108a60209160443590602435906119b3565b604051908152f35b346108a4575f3660031901126108a45760206040515f516020611fc15f395f51905f528152f35b346108a4575f3660031901126108a45760206040515f5160206120815f395f51905f528152f35b346108a45760203660031901126108a4576004356040516369d1cb4360e11b81528160048201525f5160206120615f395f51905f526024820152602081604481305afa908115610899575f9161124a575b506001600160a01b0381161561123b5761114c903390611892565b15610c93576111675f516020611fc15f395f51905f52611a04565b805f52600460205260405f205f516020611fc15f395f51905f525f526020527f436f60725705da6ad354713871bcd7c02c3709b4358cfd3bdd7e102f20caf27160405f20556111c35f516020611fc15f395f51905f5282611c6c565b6111d95f516020611fa15f395f51905f52611a04565b805f52600360205260405f205f516020611fa15f395f51905f525f526020524260405f20556112155f516020611fa15f395f51905f5282611b02565b7f18b45eb0fcf9a1f89d741795aa5195242730098145db13f1214ed9e0cb0dc0415f80a2005b63b7ddfcb160e01b5f5260045ffd5b61126c915060203d602011611272575b61126481836116cb565b8101906117c4565b82611131565b503d61125a565b346108a4575f3660031901126108a4576020600d54604051908152f35b346108a4575f3660031901126108a4576040517f00000000000000000000000000000000000000000000000000000000000000006001600160a01b03168152602090f35b346108a4575f3660031901126108a45760206040517f9ab495d113890dae4056b231c0e27d32e331589b5c623f4e5b558520d2ab6ca58152f35b346108a45760603660031901126108a4576004356024356044356040516369d1cb4360e11b81528360048201525f5160206120615f395f51905f526024820152602081604481305afa908115610899575f916113da575b506001600160a01b0381161561123b57611386903390611892565b15610c9357816020916113ba7fdc3c6aede1c58ceb1969cc17f8894230feeb5b1b3b8726930c81a49a27ff8daa9486611939565b806113ca575b50604051908152a2005b6113d49085611984565b846113c0565b6113f3915060203d6020116112725761126481836116cb565b8461136b565b346108a45761140736611691565b905f52600a60205260405f20905f52602052602060ff60405f205416604051908152f35b346108a4575f3660031901126108a45760206040515f516020611fa15f395f51905f528152f35b346108a45761146036611691565b905f52600760205260405f20905f5260205260405f206040519081602082549182815201915f5260205f20905f5b8181106114a557610e4f85610e43818703826116cb565b825484526020909301926001928301920161148e565b346108a4575f3660031901126108a45760206040517f39a994ce151e39a396ab89aea307a1fd07a7d85d71d56272f9284b02e96a6f858152f35b346108a45761150336611691565b905f52600460205260405f20905f52602052602060405f2054604051908152f35b346108a45761153236611691565b905f525f60205260405f20905f52602052610e4f61155260405f20611724565b6040519182916020835260208301906116a7565b346108a45760203660031901126108a4576004355f52600860205260405f206040519081602082549182815201915f5260205f20905f5b8181106115b457610e4f85610e43818703826116cb565b825484526020909301926001928301920161159d565b346108a4575f3660031901126108a45760206040515f516020611f615f395f51905f528152f35b346108a4575f3660031901126108a45760206040515f5160206120015f395f51905f528152f35b346108a4575f3660031901126108a457602060405160078152f35b346108a4575f3660031901126108a457805f5160206120615f395f51905f5260209252f35b60206040818301928281528451809452019201905f5b81811061167b5750505090565b825184526020938401939092019160010161166e565b60409060031901126108a4576004359060243590565b805180835260209291819084018484015e5f828201840152601f01601f1916010190565b90601f801991011681019081106001600160401b03821117610a2057604052565b90600182811c9216801561171a575b602083101461170657565b634e487b7160e01b5f52602260045260245ffd5b91607f16916116fb565b9060405191825f825492611737846116ec565b80845293600181169081156117a2575060011461175e575b5061175c925003836116cb565b565b90505f9291925260205f20905f915b81831061178657505090602061175c928201015f61174f565b602091935080600191548385890101520191019091849261176d565b90506020925061175c94915060ff191682840152151560051b8201015f61174f565b908160209103126108a457516001600160a01b03811681036108a45790565b356001600160a01b03811681036108a45790565b903590601e19813603018212156108a457018035906001600160401b0382116108a4576020019181360383136108a457565b6001600160401b038111610a2057601f01601f191660200190565b92919261185082611829565b9161185e60405193846116cb565b8294818452818301116108a4578281602093845f960137010152565b908160209103126108a4575180151581036108a45790565b90813b15611933575f91829160405160208101916317aa5fb760e11b835260018060a01b03166024820152602481526118cc6044826116cb565b51915afa3d1561192c573d6118e081611829565b906118ee60405192836116cb565b81523d5f602083013e5b8161191e575b81611907575090565b61191b91506020808251830101910161187a565b90565b9050602081511015906118fe565b60606118f8565b50505f90565b7f168d44d6eca8af99b319af3e6602ebb4789001962ed86f6f30564096353f3aa39061175c9261196883611a04565b815f52600360205260405f20835f5260205260405f2055611b02565b7f9ab495d113890dae4056b231c0e27d32e331589b5c623f4e5b558520d2ab6ca59061175c9261196883611a04565b916040519160208301936939b09d383632b233b29d60b11b85526bffffffffffffffffffffffff199060601b16602a840152603e830152605e820152605e81526119fe607e826116cb565b51902090565b60405163170da40760e21b815260048101919091526020816024817f00000000000000000000000000000000000000000000000000000000000000006001600160a01b03165afa908115610899575f91611a61575b5015610c5557565b611a7a915060203d602011610c8c57610c7e81836116cb565b5f611a59565b600d54600160401b811015610a20576001810180600d55811015611ac757600d5f527fd7b6990105719101dabeb77144f2a3385c8033acd3af97e9423a695e81ad1eb50155565b634e487b7160e01b5f52603260045260245ffd5b805490600160401b821015610a205760018201808255821015611ac7575f5260205f200155565b805f52600e60205260ff60405f20541615611c35575b805f52600960205260405f20825f5260205260ff60405f20541615611bfa575b805f52600a60205260405f20825f5260205260405f20600460ff19825416179055805f52600c60205260016001600160401b0360405f205416016001600160401b038111610bb55760405f5160206120215f395f51905f5291835f52600c602052815f206001600160401b0382166001600160401b0319825416179055835f52600b602052815f20855f52602052815f206001600160401b0382166001600160401b03198254161790556001600160401b0382519160048352166020820152a3565b805f526008602052611c0f8260405f20611adb565b805f52600960205260405f20825f5260205260405f20600160ff19825416179055611b38565b805f52600e60205260405f20600160ff19825416179055611c5581611a80565b805f516020611f815f395f51905f525f80a2611b18565b805f52600e60205260ff60405f20541615611d9f575b805f52600960205260405f20825f5260205260ff60405f20541615611d64575b805f52600a60205260405f20825f5260205260405f20600560ff19825416179055805f52600c60205260016001600160401b0360405f205416016001600160401b038111610bb55760405f5160206120215f395f51905f5291835f52600c602052815f206001600160401b0382166001600160401b0319825416179055835f52600b602052815f20855f52602052815f206001600160401b0382166001600160401b03198254161790556001600160401b0382519160058352166020820152a3565b805f526008602052611d798260405f20611adb565b805f52600960205260405f20825f5260205260405f20600160ff19825416179055611ca2565b805f52600e60205260405f20600160ff19825416179055611dbf81611a80565b805f516020611f815f395f51905f525f80a2611c82565b805f52600e60205260ff60405f20541615611f09575b805f52600960205260405f20825f5260205260ff60405f20541615611ece575b805f52600a60205260405f20825f5260205260405f20600160ff19825416179055805f52600c60205260016001600160401b0360405f205416016001600160401b038111610bb55760405f5160206120215f395f51905f5291835f52600c602052815f206001600160401b0382166001600160401b0319825416179055835f52600b602052815f20855f52602052815f206001600160401b0382166001600160401b03198254161790556001600160401b0382519160018352166020820152a3565b805f526008602052611ee38260405f20611adb565b805f52600960205260405f20825f5260205260405f20600160ff19825416179055611e0c565b805f52600e60205260405f20600160ff19825416179055611f2981611a80565b805f516020611f815f395f51905f525f80a2611dec56fe3f65501632ab598b31c3335d8d0447eee03353c95375c6ecd799681b12f4b187969b1b4b22b4dee8aaab0b1ec0841ab69ac360539b5b0c7ff919fe1872b5196234f1cb4778d9578e1af878b07d3ae7e9f2f32fafcaa3096fe48153670a71bfaf368c20e2589e4fe830fd15036c84fd0d4655c4a44e26cbf76da3be32a190e5e31cc6d502a7b023276feada73d0dc8ccbc013b3fc82d9b25990331f9a173a02e413a4c5af55d484d20f2268505ec53152a2d795709c6984fb1c80befc6a2c1da67c14fbedc10179fb2dbd24dbae9e1628c0bb43f5fc046d8dc902b4254dacb2b35167ea251eeaf052f4c7bd769efb5b17e6ba98908050b9929a0bd192b57274fb0dc389c676d6e3e303edcccd7fa017a4d25c67c70f09cd3b8a5711e4c5fb6760ee409ad84476c0d0f32387708d6e7a6318efd9a9288a2099b2baba72f2b1a8bc574f9a448ab1d1d80efa197fb5c9452239478cb7032755335212f1139ef87403a2646970667358221220a6285c10fbf1c0cbba0073590c2e79406b9f3c480e30afd853770406e5d4a90764736f6c634300081c0033","linkReferences":{}},"methodIdentifiers":{"CLASS_PLEDGE()":"3f1e1922","DT_ADDRESS_ARR_PUB()":"213aaad7","DT_ADDRESS_PUB()":"ece6bebc","DT_BOOL_PUB()":"93cbc37d","DT_BYTES32_ARR_PUB()":"f98eed69","DT_BYTES32_PUB()":"c3174629","DT_STRING_ARR_PUB()":"8e101369","DT_STRING_PUB()":"a954aea1","DT_UINT256_PUB()":"be78c068","ONTOLOGY()":"e63cdb42","SA_PLEDGE_AMOUNT()":"8d9afffa","SA_PLEDGE_CADENCE()":"d60080c7","SA_PLEDGE_DURATION()":"4bd1ad6d","SA_PLEDGE_NULLIFIER()":"2d1ea2d6","SA_PLEDGE_PLEDGED_AT()":"28664d2d","SA_PLEDGE_POOL()":"115962ae","SA_PLEDGE_RESTRICTIONS()":"72c556d6","SA_PLEDGE_STATUS()":"73e0dc48","SA_PLEDGE_STOPPED_AT()":"42504c8f","SA_PLEDGE_STORY_PERMISSIONS()":"e0e0de33","SA_PLEDGE_UNIT()":"aac36186","SHAPES()":"55c964dd","allSubjects()":"c3a6123d","amend(bytes32,uint256,uint256)":"4b4204b1","datatypeOf(bytes32,bytes32)":"42921cf3","getAddress(bytes32,bytes32)":"d3a39686","getAddressArr(bytes32,bytes32)":"e4281bc3","getBool(bytes32,bytes32)":"98eaf11c","getBytes32(bytes32,bytes32)":"37d9d7fc","getBytes32Arr(bytes32,bytes32)":"4083843e","getString(bytes32,bytes32)":"31477b9b","getStringArr(bytes32,bytes32)":"cb954f30","getUint(bytes32,bytes32)":"7a6ad926","isSet(bytes32,bytes32)":"bb6b0c3b","pledgeSubject(address,bytes32,uint256)":"7970cc30","predicatesOf(bytes32)":"30547181","stop(bytes32)":"63c4f031","subjectCount()":"639a2e10","subjectVersion(bytes32)":"8e21caca","submit((address,bytes32,uint256,uint256,bytes32,bytes32,uint256,string,string))":"d70fe0b9","updatedAt(bytes32,bytes32)":"880eadce"},"id":4}