{"abi":[{"type":"constructor","inputs":[{"name":"ontologyRegistry","type":"address","internalType":"address"},{"name":"shapes","type":"address","internalType":"address"}],"stateMutability":"nonpayable"},{"type":"function","name":"CLASS_PLEDGE","inputs":[],"outputs":[{"name":"","type":"bytes32","internalType":"bytes32"}],"stateMutability":"view"},{"type":"function","name":"DT_ADDRESS_ARR_PUB","inputs":[],"outputs":[{"name":"","type":"uint8","internalType":"uint8"}],"stateMutability":"pure"},{"type":"function","name":"DT_ADDRESS_PUB","inputs":[],"outputs":[{"name":"","type":"uint8","internalType":"uint8"}],"stateMutability":"pure"},{"type":"function","name":"DT_BOOL_PUB","inputs":[],"outputs":[{"name":"","type":"uint8","internalType":"uint8"}],"stateMutability":"pure"},{"type":"function","name":"DT_BYTES32_ARR_PUB","inputs":[],"outputs":[{"name":"","type":"uint8","internalType":"uint8"}],"stateMutability":"pure"},{"type":"function","name":"DT_BYTES32_PUB","inputs":[],"outputs":[{"name":"","type":"uint8","internalType":"uint8"}],"stateMutability":"pure"},{"type":"function","name":"DT_STRING_ARR_PUB","inputs":[],"outputs":[{"name":"","type":"uint8","internalType":"uint8"}],"stateMutability":"pure"},{"type":"function","name":"DT_STRING_PUB","inputs":[],"outputs":[{"name":"","type":"uint8","internalType":"uint8"}],"stateMutability":"pure"},{"type":"function","name":"DT_UINT256_PUB","inputs":[],"outputs":[{"name":"","type":"uint8","internalType":"uint8"}],"stateMutability":"pure"},{"type":"function","name":"ONTOLOGY","inputs":[],"outputs":[{"name":"","type":"address","internalType":"contract OntologyTermRegistry"}],"stateMutability":"view"},{"type":"function","name":"SA_PLEDGE_AMOUNT","inputs":[],"outputs":[{"name":"","type":"bytes32","internalType":"bytes32"}],"stateMutability":"view"},{"type":"function","name":"SA_PLEDGE_CADENCE","inputs":[],"outputs":[{"name":"","type":"bytes32","internalType":"bytes32"}],"stateMutability":"view"},{"type":"function","name":"SA_PLEDGE_DONOR","inputs":[],"outputs":[{"name":"","type":"bytes32","internalType":"bytes32"}],"stateMutability":"view"},{"type":"function","name":"SA_PLEDGE_DURATION","inputs":[],"outputs":[{"name":"","type":"bytes32","internalType":"bytes32"}],"stateMutability":"view"},{"type":"function","name":"SA_PLEDGE_EVIDENCE_HASH","inputs":[],"outputs":[{"name":"","type":"bytes32","internalType":"bytes32"}],"stateMutability":"view"},{"type":"function","name":"SA_PLEDGE_EXTERNALLY_PAID_AMOUNT","inputs":[],"outputs":[{"name":"","type":"bytes32","internalType":"bytes32"}],"stateMutability":"view"},{"type":"function","name":"SA_PLEDGE_HONORED_AMOUNT","inputs":[],"outputs":[{"name":"","type":"bytes32","internalType":"bytes32"}],"stateMutability":"view"},{"type":"function","name":"SA_PLEDGE_HONOR_TOKEN_LIST","inputs":[],"outputs":[{"name":"","type":"bytes32","internalType":"bytes32"}],"stateMutability":"view"},{"type":"function","name":"SA_PLEDGE_LAST_HONORED_AT","inputs":[],"outputs":[{"name":"","type":"bytes32","internalType":"bytes32"}],"stateMutability":"view"},{"type":"function","name":"SA_PLEDGE_LAST_MARKED_AT","inputs":[],"outputs":[{"name":"","type":"bytes32","internalType":"bytes32"}],"stateMutability":"view"},{"type":"function","name":"SA_PLEDGE_MARKED_BY_AGENT","inputs":[],"outputs":[{"name":"","type":"bytes32","internalType":"bytes32"}],"stateMutability":"view"},{"type":"function","name":"SA_PLEDGE_NULLIFIER","inputs":[],"outputs":[{"name":"","type":"bytes32","internalType":"bytes32"}],"stateMutability":"view"},{"type":"function","name":"SA_PLEDGE_PAYMENT_RAIL","inputs":[],"outputs":[{"name":"","type":"bytes32","internalType":"bytes32"}],"stateMutability":"view"},{"type":"function","name":"SA_PLEDGE_PLEDGED_AT","inputs":[],"outputs":[{"name":"","type":"bytes32","internalType":"bytes32"}],"stateMutability":"view"},{"type":"function","name":"SA_PLEDGE_POOL","inputs":[],"outputs":[{"name":"","type":"bytes32","internalType":"bytes32"}],"stateMutability":"view"},{"type":"function","name":"SA_PLEDGE_RESTRICTIONS","inputs":[],"outputs":[{"name":"","type":"bytes32","internalType":"bytes32"}],"stateMutability":"view"},{"type":"function","name":"SA_PLEDGE_STATUS","inputs":[],"outputs":[{"name":"","type":"bytes32","internalType":"bytes32"}],"stateMutability":"view"},{"type":"function","name":"SA_PLEDGE_STOPPED_AT","inputs":[],"outputs":[{"name":"","type":"bytes32","internalType":"bytes32"}],"stateMutability":"view"},{"type":"function","name":"SA_PLEDGE_STORY_PERMISSIONS","inputs":[],"outputs":[{"name":"","type":"bytes32","internalType":"bytes32"}],"stateMutability":"view"},{"type":"function","name":"SA_PLEDGE_UNIT","inputs":[],"outputs":[{"name":"","type":"bytes32","internalType":"bytes32"}],"stateMutability":"view"},{"type":"function","name":"SHAPES","inputs":[],"outputs":[{"name":"","type":"address","internalType":"contract ShapeRegistry"}],"stateMutability":"view"},{"type":"function","name":"allSubjects","inputs":[],"outputs":[{"name":"","type":"bytes32[]","internalType":"bytes32[]"}],"stateMutability":"view"},{"type":"function","name":"amend","inputs":[{"name":"pledgeSubj","type":"bytes32","internalType":"bytes32"},{"name":"newAmount","type":"uint256","internalType":"uint256"},{"name":"newDuration","type":"uint256","internalType":"uint256"}],"outputs":[],"stateMutability":"nonpayable"},{"type":"function","name":"datatypeOf","inputs":[{"name":"subject","type":"bytes32","internalType":"bytes32"},{"name":"predicate","type":"bytes32","internalType":"bytes32"}],"outputs":[{"name":"","type":"uint8","internalType":"uint8"}],"stateMutability":"view"},{"type":"function","name":"getAddress","inputs":[{"name":"subject","type":"bytes32","internalType":"bytes32"},{"name":"predicate","type":"bytes32","internalType":"bytes32"}],"outputs":[{"name":"","type":"address","internalType":"address"}],"stateMutability":"view"},{"type":"function","name":"getAddressArr","inputs":[{"name":"subject","type":"bytes32","internalType":"bytes32"},{"name":"predicate","type":"bytes32","internalType":"bytes32"}],"outputs":[{"name":"","type":"address[]","internalType":"address[]"}],"stateMutability":"view"},{"type":"function","name":"getBool","inputs":[{"name":"subject","type":"bytes32","internalType":"bytes32"},{"name":"predicate","type":"bytes32","internalType":"bytes32"}],"outputs":[{"name":"","type":"bool","internalType":"bool"}],"stateMutability":"view"},{"type":"function","name":"getBytes32","inputs":[{"name":"subject","type":"bytes32","internalType":"bytes32"},{"name":"predicate","type":"bytes32","internalType":"bytes32"}],"outputs":[{"name":"","type":"bytes32","internalType":"bytes32"}],"stateMutability":"view"},{"type":"function","name":"getBytes32Arr","inputs":[{"name":"subject","type":"bytes32","internalType":"bytes32"},{"name":"predicate","type":"bytes32","internalType":"bytes32"}],"outputs":[{"name":"","type":"bytes32[]","internalType":"bytes32[]"}],"stateMutability":"view"},{"type":"function","name":"getSettlement","inputs":[{"name":"pledgeSubj","type":"bytes32","internalType":"bytes32"},{"name":"token","type":"address","internalType":"address"}],"outputs":[{"name":"honored","type":"uint256","internalType":"uint256"},{"name":"externallyPaid","type":"uint256","internalType":"uint256"}],"stateMutability":"view"},{"type":"function","name":"getString","inputs":[{"name":"subject","type":"bytes32","internalType":"bytes32"},{"name":"predicate","type":"bytes32","internalType":"bytes32"}],"outputs":[{"name":"","type":"string","internalType":"string"}],"stateMutability":"view"},{"type":"function","name":"getStringArr","inputs":[{"name":"subject","type":"bytes32","internalType":"bytes32"},{"name":"predicate","type":"bytes32","internalType":"bytes32"}],"outputs":[{"name":"","type":"string[]","internalType":"string[]"}],"stateMutability":"view"},{"type":"function","name":"getUint","inputs":[{"name":"subject","type":"bytes32","internalType":"bytes32"},{"name":"predicate","type":"bytes32","internalType":"bytes32"}],"outputs":[{"name":"","type":"uint256","internalType":"uint256"}],"stateMutability":"view"},{"type":"function","name":"isSet","inputs":[{"name":"subject","type":"bytes32","internalType":"bytes32"},{"name":"predicate","type":"bytes32","internalType":"bytes32"}],"outputs":[{"name":"","type":"bool","internalType":"bool"}],"stateMutability":"view"},{"type":"function","name":"markPaid","inputs":[{"name":"pledgeSubj","type":"bytes32","internalType":"bytes32"},{"name":"token","type":"address","internalType":"address"},{"name":"amount","type":"uint256","internalType":"uint256"},{"name":"rail","type":"bytes32","internalType":"bytes32"},{"name":"evidenceHash","type":"bytes32","internalType":"bytes32"}],"outputs":[],"stateMutability":"nonpayable"},{"type":"function","name":"pledgeSubject","inputs":[{"name":"poolAgent","type":"address","internalType":"address"},{"name":"nullifier","type":"bytes32","internalType":"bytes32"},{"name":"salt","type":"uint256","internalType":"uint256"}],"outputs":[{"name":"","type":"bytes32","internalType":"bytes32"}],"stateMutability":"pure"},{"type":"function","name":"predicatesOf","inputs":[{"name":"subject","type":"bytes32","internalType":"bytes32"}],"outputs":[{"name":"","type":"bytes32[]","internalType":"bytes32[]"}],"stateMutability":"view"},{"type":"function","name":"recordHonor","inputs":[{"name":"pledgeSubj","type":"bytes32","internalType":"bytes32"},{"name":"treasury","type":"address","internalType":"address"},{"name":"token","type":"address","internalType":"address"},{"name":"amount","type":"uint256","internalType":"uint256"}],"outputs":[],"stateMutability":"nonpayable"},{"type":"function","name":"stop","inputs":[{"name":"pledgeSubj","type":"bytes32","internalType":"bytes32"}],"outputs":[],"stateMutability":"nonpayable"},{"type":"function","name":"subjectCount","inputs":[],"outputs":[{"name":"","type":"uint256","internalType":"uint256"}],"stateMutability":"view"},{"type":"function","name":"subjectVersion","inputs":[{"name":"subject","type":"bytes32","internalType":"bytes32"}],"outputs":[{"name":"","type":"uint64","internalType":"uint64"}],"stateMutability":"view"},{"type":"function","name":"submit","inputs":[{"name":"p","type":"tuple","internalType":"struct PledgeRegistry.SubmitParams","components":[{"name":"poolAgent","type":"address","internalType":"address"},{"name":"nullifier","type":"bytes32","internalType":"bytes32"},{"name":"salt","type":"uint256","internalType":"uint256"},{"name":"amount","type":"uint256","internalType":"uint256"},{"name":"unit","type":"bytes32","internalType":"bytes32"},{"name":"cadence","type":"bytes32","internalType":"bytes32"},{"name":"duration","type":"uint256","internalType":"uint256"},{"name":"restrictionsJson","type":"string","internalType":"string"},{"name":"storyPermissionsJson","type":"string","internalType":"string"}]}],"outputs":[],"stateMutability":"nonpayable"},{"type":"function","name":"updatedAt","inputs":[{"name":"subject","type":"bytes32","internalType":"bytes32"},{"name":"predicate","type":"bytes32","internalType":"bytes32"}],"outputs":[{"name":"","type":"uint64","internalType":"uint64"}],"stateMutability":"view"},{"type":"event","name":"AttributeAppended","inputs":[{"name":"subject","type":"bytes32","indexed":true,"internalType":"bytes32"},{"name":"predicate","type":"bytes32","indexed":true,"internalType":"bytes32"},{"name":"datatype","type":"uint8","indexed":false,"internalType":"uint8"},{"name":"version","type":"uint64","indexed":false,"internalType":"uint64"}],"anonymous":false},{"type":"event","name":"AttributeSet","inputs":[{"name":"subject","type":"bytes32","indexed":true,"internalType":"bytes32"},{"name":"predicate","type":"bytes32","indexed":true,"internalType":"bytes32"},{"name":"datatype","type":"uint8","indexed":false,"internalType":"uint8"},{"name":"version","type":"uint64","indexed":false,"internalType":"uint64"}],"anonymous":false},{"type":"event","name":"AttributeUnset","inputs":[{"name":"subject","type":"bytes32","indexed":true,"internalType":"bytes32"},{"name":"predicate","type":"bytes32","indexed":true,"internalType":"bytes32"},{"name":"version","type":"uint64","indexed":false,"internalType":"uint64"}],"anonymous":false},{"type":"event","name":"PledgeAmended","inputs":[{"name":"pledgeSubject","type":"bytes32","indexed":true,"internalType":"bytes32"},{"name":"newAmount","type":"uint256","indexed":false,"internalType":"uint256"}],"anonymous":false},{"type":"event","name":"PledgeFullyHonored","inputs":[{"name":"pledgeSubject","type":"bytes32","indexed":true,"internalType":"bytes32"},{"name":"token","type":"address","indexed":true,"internalType":"address"},{"name":"totalSettled","type":"uint256","indexed":false,"internalType":"uint256"}],"anonymous":false},{"type":"event","name":"PledgeHonored","inputs":[{"name":"pledgeSubject","type":"bytes32","indexed":true,"internalType":"bytes32"},{"name":"treasury","type":"address","indexed":true,"internalType":"address"},{"name":"token","type":"address","indexed":true,"internalType":"address"},{"name":"amount","type":"uint256","indexed":false,"internalType":"uint256"},{"name":"totalHonored","type":"uint256","indexed":false,"internalType":"uint256"}],"anonymous":false},{"type":"event","name":"PledgePaymentMarked","inputs":[{"name":"pledgeSubject","type":"bytes32","indexed":true,"internalType":"bytes32"},{"name":"markedBy","type":"address","indexed":true,"internalType":"address"},{"name":"token","type":"address","indexed":true,"internalType":"address"},{"name":"amount","type":"uint256","indexed":false,"internalType":"uint256"},{"name":"rail","type":"bytes32","indexed":false,"internalType":"bytes32"},{"name":"evidenceHash","type":"bytes32","indexed":false,"internalType":"bytes32"},{"name":"totalExternallyPaid","type":"uint256","indexed":false,"internalType":"uint256"}],"anonymous":false},{"type":"event","name":"PledgeStopped","inputs":[{"name":"pledgeSubject","type":"bytes32","indexed":true,"internalType":"bytes32"}],"anonymous":false},{"type":"event","name":"PledgeSubmitted","inputs":[{"name":"pledgeSubject","type":"bytes32","indexed":true,"internalType":"bytes32"},{"name":"poolAgent","type":"address","indexed":true,"internalType":"address"},{"name":"nullifier","type":"bytes32","indexed":true,"internalType":"bytes32"},{"name":"amount","type":"uint256","indexed":false,"internalType":"uint256"},{"name":"unit","type":"bytes32","indexed":false,"internalType":"bytes32"}],"anonymous":false},{"type":"event","name":"SubjectFirstSeen","inputs":[{"name":"subject","type":"bytes32","indexed":true,"internalType":"bytes32"}],"anonymous":false},{"type":"error","name":"AttributeNotSet","inputs":[]},{"type":"error","name":"EvidenceHashRequired","inputs":[]},{"type":"error","name":"InvalidToken","inputs":[]},{"type":"error","name":"NotDonorTreasury","inputs":[]},{"type":"error","name":"NotPledgeDonor","inputs":[]},{"type":"error","name":"NotPoolOperator","inputs":[]},{"type":"error","name":"PledgeAmountExceedsCommitted","inputs":[]},{"type":"error","name":"PledgeNotFound","inputs":[]},{"type":"error","name":"PredicateNotActive","inputs":[]}],"bytecode":{"object":"0x60c03461009a57601f61343a38819003918201601f19168301916001600160401b0383118484101761009e57808492604094855283398101031261009a57610052602061004b836100b2565b92016100b2565b6001600160a01b039182166080521660a05260405161337390816100c782396080518181816102dd015281816127cc0152612bdd015260a05181818161072c01526114cd0152f35b5f80fd5b634e487b7160e01b5f52604160045260245ffd5b51906001600160a01b038216820361009a5756fe6080806040526004361015610012575f80fd5b5f905f3560e01c908163115962ae146123745750806313b4a1ae1461234d5780632008d55d14612326578063213aaad71461230b57806322755ec0146122e457806328664d2d146122bd5780632d1ea2d614612296578063305471811461223257806331477b9b146121f057806331f2772414611c5a57806337d9d7fc14611c2b5780633c059bd414611c045780633f1e192214611bca5780633fe15fd0146117395780634083843e146116d057806342504c8f146116a957806342921cf3146116775780634b4204b1146115365780634bd1ad6d146114fc57806355c964dd146114b8578063639a2e101461149b57806363c4f0311461129757806372c556d61461127057806373e0dc48146112495780637970cc301461120a5780637a223504146111e35780637a6ad926146111b4578063880eadce1461117c5780638d9afffa146111555780638e1013691461113a5780638e21caca1461110757806392220347146110e057806393cbc37d146110c5578063969c8a1d1461109e57806398eaf11c1461106a578063a174a70514610ddd578063a954aea114610dc2578063aac3618614610d9b578063bb6b0c3b14610d67578063be78c06814610d4c578063c317462914610d31578063c3a6123d14610cad578063cb954f3014610bd3578063d29d149714610bac578063d3a3968614610b75578063d60080c714610b4e578063d70fe0b9146103f2578063e0e0de33146103ca578063e4281bc31461030c578063e63cdb42146102c7578063ece6bebc146102ab578063f98eed691461028f5763ff86e20114610265575f80fd5b3461028c578060031936011261028c5760206040515f51602061323e5f395f51905f528152f35b80fd5b503461028c578060031936011261028c57602060405160088152f35b503461028c578060031936011261028c57602060405160028152f35b503461028c578060031936011261028c576040517f00000000000000000000000000000000000000000000000000000000000000006001600160a01b03168152602090f35b503461028c5761031b366123d2565b90825260066020526040822090825260205260408120604051908160208254918281520190819285526020852090855b8181106103ab5750505082610361910383612422565b604051928392602084019060208552518091526040840192915b818110610389575050500390f35b82516001600160a01b031684528594506020938401939092019160010161037b565b82546001600160a01b031684526020909301926001928301920161034b565b503461028c578060031936011261028c5760206040515f51602061327e5f395f51905f528152f35b503461083d57602036600319011261083d576004356001600160401b03811161083d578060040190610120600319823603011261083d576104328261258a565b9161044860248301359384604485013591612b74565b906104528161258a565b6104685f51602061329e5f395f51905f52612bc0565b825f52600160205260405f205f51602061329e5f395f51905f525f5260205260405f209060018060a01b03166001600160601b0360a01b8254161790556104bc5f51602061329e5f395f51905f5283612e29565b6104d25f5160206130de5f395f51905f52612bc0565b815f52600160205260405f205f5160206130de5f395f51905f525f5260205260405f20336001600160601b0360a01b82541617905561051e5f5160206130de5f395f51905f5283612e29565b6105345f5160206130fe5f395f51905f52612bc0565b815f52600460205260405f205f5160206130fe5f395f51905f525f526020528360405f20556105705f5160206130fe5f395f51905f5283612d46565b60648301359061058082846126c8565b60848401359361059c5f5160206131de5f395f51905f52612bc0565b835f52600460205260405f205f5160206131de5f395f51905f525f526020528460405f20556105d85f5160206131de5f395f51905f5285612d46565b6105ee5f5160206130be5f395f51905f52612bc0565b835f52600460205260405f205f5160206130be5f395f51905f525f5260205260a481013560405f205561062e5f5160206130be5f395f51905f5285612d46565b60c481013580610b3e575b5060e48101610648818461259e565b90506109cd575b506101040161065e818361259e565b9050610841575b5061067c5f51602061321e5f395f51905f52612bc0565b825f52600360205260405f205f51602061321e5f395f51905f525f526020524260405f20556106b85f51602061321e5f395f51905f5284612c63565b6106ce5f51602061315e5f395f51905f52612bc0565b825f52600460205260405f205f51602061315e5f395f51905f525f526020527f16024b39565c836f3dd8bc018aa051d9ddd7330ddb4fd12e05bbb2ec13d5e42260405f205561072a5f51602061315e5f395f51905f5284612d46565b7f00000000000000000000000000000000000000000000000000000000000000006001600160a01b0316803b1561083d575f606491604051928380926309abe27f60e01b82527f39a994ce151e39a396ab89aea307a1fd07a7d85d71d56272f9284b02e96a6f8560048301528860248301523060448301525afa8015610832576107f7575b507fda5a9cd77fbe0e4d9c048d7216d854d4cedbb90a6b6a721089dd442c98c16d5e916040916001600160a01b03906107e79061258a565b169482519182526020820152a480f35b6040919650916108285f7fda5a9cd77fbe0e4d9c048d7216d854d4cedbb90a6b6a721089dd442c98c16d5e94612422565b5f969150916107af565b6040513d5f823e3d90fd5b5f80fd5b61084e610855918361259e565b36916125eb565b61086b5f51602061327e5f395f51905f52612bc0565b835f525f60205260405f205f51602061327e5f395f51905f525f5260205260405f20908051906001600160401b0382116109b95781906108ab8454612443565b601f8111610969575b50602090601f8311600114610906575f926108fb575b50508160011b915f199060031b1c19161790555b6108f55f51602061327e5f395f51905f5284612f0c565b5f610665565b015190505f806108ca565b5f8581528281209350601f198516905b8181106109515750908460019594939210610939575b505050811b0190556108de565b01515f1960f88460031b161c191690555f808061092c565b92936020600181928786015181550195019301610916565b909150835f5260205f20601f840160051c810191602085106109af575b90601f859493920160051c01905b8181106109a157506108b4565b5f8155849350600101610994565b9091508190610986565b634e487b7160e01b5f52604160045260245ffd5b61084e6109da918461259e565b6109f05f51602061331e5f395f51905f52612bc0565b845f525f60205260405f205f51602061331e5f395f51905f525f5260205260405f20908051906001600160401b0382116109b957610a2e8354612443565b601f8111610af9575b50602090601f8311600114610a9157610104949392915f9183610a86575b50508160011b915f199060031b1c19161790555b610a805f51602061331e5f395f51905f5286612f0c565b9061064f565b015190505f80610a55565b90601f19831691845f52815f20925f5b818110610ae157509160019391856101049897969410610ac9575b505050811b019055610a69565b01515f1960f88460031b161c191690555f8080610abc565b92936020600181928786015181550195019301610aa1565b835f5260205f20601f840160051c81019160208510610b34575b601f0160051c01905b818110610b295750610a37565b5f8155600101610b1c565b9091508190610b13565b610b489085612700565b5f610639565b3461083d575f36600319011261083d5760206040515f5160206130be5f395f51905f528152f35b3461083d57610b83366123d2565b905f52600160205260405f20905f52602052602060018060a01b0360405f205416604051908152f35b3461083d575f36600319011261083d5760206040515f5160206132fe5f395f51905f528152f35b3461083d57610be1366123d2565b905f52600560205260405f20905f5260205260405f20805490610c0382612573565b91610c116040519384612422565b8083526020830180925f5260205f205f915b838310610c9057848660405191829160208301906020845251809152604083019060408160051b85010192915f905b828210610c6157505050500390f35b91936001919395506020610c808192603f198a820301865288516123e8565b9601920192018594939192610c52565b600160208192610c9f8561247b565b815201920192019190610c23565b3461083d575f36600319011261083d57604051806020600d54918281520190600d5f527fd7b6990105719101dabeb77144f2a3385c8033acd3af97e9423a695e81ad1eb5905f5b818110610d1b57610d1785610d0b81870382612422565b60405191829182612399565b0390f35b8254845260209093019260019283019201610cf4565b3461083d575f36600319011261083d57602060405160058152f35b3461083d575f36600319011261083d57602060405160048152f35b3461083d57610d75366123d2565b905f52600960205260405f20905f52602052602060ff60405f2054166040519015158152f35b3461083d575f36600319011261083d5760206040515f5160206131de5f395f51905f528152f35b3461083d575f36600319011261083d57602060405160018152f35b3461083d57604036600319011261083d57600435610df961240c565b6040805160208101848152661a1bdb9bdc995960ca1b928201929092526001600160a01b038316606082015291925f928392610e3f91610e8d9190610e4d816080810186565b03601f198101835282612422565b51902060408051602081019586526b195e1d195c9b985b14185a5960a21b918101919091526001600160a01b039097166060880152959182906080820190565b5190209260405163bb6b0c3b60e01b81528160048201525f51602061317e5f395f51905f526024820152602081604481305afa908115610832575f9161104b575b50610fd1575b5060405163bb6b0c3b60e01b8152600481018490525f5160206132de5f395f51905f526024820152602081604481305afa908115610832575f91610fa2575b50610f29575b6040809350519182526020820152f35b5060405191633d356c9360e11b835260048301525f5160206132de5f395f51905f526024830152602082604481305afa8015610832575f90610f6f575b60409250610f19565b506020823d602011610f9a575b81610f8960209383612422565b8101031261083d5760409151610f66565b3d9150610f7c565b610fc4915060203d602011610fca575b610fbc8183612422565b81019061253a565b84610f13565b503d610fb2565b90915060405190633d356c9360e11b825260048201525f51602061317e5f395f51905f526024820152602081604481305afa908115610832575f91611019575b509083610ed4565b90506020813d602011611043575b8161103460209383612422565b8101031261083d575183611011565b3d9150611027565b611064915060203d602011610fca57610fbc8183612422565b85610ece565b3461083d57611078366123d2565b905f52600260205260405f20905f52602052602060ff60405f2054166040519015158152f35b3461083d575f36600319011261083d5760206040515f5160206131fe5f395f51905f528152f35b3461083d575f36600319011261083d57602060405160038152f35b3461083d575f36600319011261083d5760206040515f5160206132de5f395f51905f528152f35b3461083d57602036600319011261083d576004355f52600c60205260206001600160401b0360405f205416604051908152f35b3461083d575f36600319011261083d57602060405160068152f35b3461083d575f36600319011261083d5760206040515f51602061311e5f395f51905f528152f35b3461083d5761118a366123d2565b905f52600b60205260405f20905f5260205260206001600160401b0360405f205416604051908152f35b3461083d576111c2366123d2565b905f52600360205260405f20905f52602052602060405f2054604051908152f35b3461083d575f36600319011261083d5760206040515f5160206132be5f395f51905f528152f35b3461083d57606036600319011261083d576004356001600160a01b038116810361083d576112416020916044359060243590612b74565b604051908152f35b3461083d575f36600319011261083d5760206040515f51602061315e5f395f51905f528152f35b3461083d575f36600319011261083d5760206040515f51602061331e5f395f51905f528152f35b3461083d57602036600319011261083d576004356040516369d1cb4360e11b81528160048201525f51602061329e5f395f51905f526024820152602081604481305afa908115610832575f9161147c575b506001600160a01b03161561146d576040516369d1cb4360e11b8152600481018290525f5160206130de5f395f51905f526024820152602081604481305afa908115610832575f9161143e575b506001600160a01b0316330361142f5761135b5f51602061315e5f395f51905f52612bc0565b805f52600460205260405f205f51602061315e5f395f51905f525f526020527f436f60725705da6ad354713871bcd7c02c3709b4358cfd3bdd7e102f20caf27160405f20556113b75f51602061315e5f395f51905f5282612d46565b6113cd5f51602061313e5f395f51905f52612bc0565b805f52600360205260405f205f51602061313e5f395f51905f525f526020524260405f20556114095f51602061313e5f395f51905f5282612c63565b7f18b45eb0fcf9a1f89d741795aa5195242730098145db13f1214ed9e0cb0dc0415f80a2005b630390859d60e31b5f5260045ffd5b611460915060203d602011611466575b6114588183612422565b81019061251b565b82611335565b503d61144e565b63b7ddfcb160e01b5f5260045ffd5b611495915060203d602011611466576114588183612422565b826112e8565b3461083d575f36600319011261083d576020600d54604051908152f35b3461083d575f36600319011261083d576040517f00000000000000000000000000000000000000000000000000000000000000006001600160a01b03168152602090f35b3461083d575f36600319011261083d5760206040517f9ab495d113890dae4056b231c0e27d32e331589b5c623f4e5b558520d2ab6ca58152f35b3461083d57606036600319011261083d576004356024356044356040516369d1cb4360e11b81528360048201525f51602061329e5f395f51905f526024820152602081604481305afa908115610832575f91611658575b506001600160a01b03161561146d576040516369d1cb4360e11b8152600481018490525f5160206130de5f395f51905f526024820152602081604481305afa908115610832575f91611639575b506001600160a01b0316330361142f57816020916116197fdc3c6aede1c58ceb1969cc17f8894230feeb5b1b3b8726930c81a49a27ff8daa94866126c8565b80611629575b50604051908152a2005b6116339085612700565b8461161f565b611652915060203d602011611466576114588183612422565b846115da565b611671915060203d602011611466576114588183612422565b8461158d565b3461083d57611685366123d2565b905f52600a60205260405f20905f52602052602060ff60405f205416604051908152f35b3461083d575f36600319011261083d5760206040515f51602061313e5f395f51905f528152f35b3461083d576116de366123d2565b905f52600760205260405f20905f5260205260405f206040519081602082549182815201915f5260205f20905f5b81811061172357610d1785610d0b81870382612422565b825484526020909301926001928301920161170c565b3461083d57608036600319011261083d5760043561175561240c565b6044356001600160a01b038116929183820361083d576064359060405163bb6b0c3b60e01b81528460048201525f51602061329e5f395f51905f526024820152602081604481305afa908115610832575f91611bab575b501561146d578415611b9c576001600160a01b031633819003611b8d576040805160208101868152661a1bdb9bdc995960ca1b928201929092526001600160a01b03851660608201526118028160808101610e3f565b519020945f60405163bb6b0c3b60e01b81528760048201525f51602061317e5f395f51905f526024820152602081604481305afa80156108325785915f91611b6e575b50611af0575b61185491612552565b60408051602081018881526b195e1d195c9b985b14185a5960a21b928201929092526001600160a01b03871660608201525f9492939291906118998160808101610e3f565b51902060405163bb6b0c3b60e01b8152600481018290525f5160206132de5f395f51905f526024820152602081604481305afa908115610832575f91611ad1575b50611a57575b50604051633d356c9360e11b8152600481018890525f51602061311e5f395f51905f526024820152602081604481305afa908115610832575f91611a25575b508015159081611a12575b50611a0357867f784f10edfc81e6a8975002d878861d799058ecac9bfd36dc49430cb46f7380b260406119fb976119905f51602061317e5f395f51905f52611a019d61197582612bc0565b805f526003602052845f20825f5260205289855f2055612c63565b61199a8a8561272f565b6119b05f5160206132fe5f395f51905f52612bc0565b835f526003602052815f205f5160206132fe5f395f51905f525f5260205242825f20556119ea5f5160206132fe5f395f51905f5285612c63565b8151908152866020820152a4612552565b91612a4a565b005b6302197aa960e01b5f5260045ffd5b9050611a1e8585612552565b118961192a565b90506020813d602011611a4f575b81611a4060209383612422565b8101031261083d57518961191f565b3d9150611a33565b90935060405190633d356c9360e11b825260048201525f5160206132de5f395f51905f526024820152602081604481305afa908115610832575f91611a9f575b5092886118e0565b90506020813d602011611ac9575b81611aba60209383612422565b8101031261083d575188611a97565b3d9150611aad565b611aea915060203d602011610fca57610fbc8183612422565b8a6118da565b5050604051633d356c9360e11b8152600481018790525f51602061317e5f395f51905f526024820152602081604481305afa80156108325784905f90611b38575b915061184b565b50506020813d602011611b66575b81611b5360209383612422565b8101031261083d57836118549151611b31565b3d9150611b46565b611b87915060203d602011610fca57610fbc8183612422565b89611845565b633db59c6760e01b5f5260045ffd5b63c1ab6dc160e01b5f5260045ffd5b611bc4915060203d602011610fca57610fbc8183612422565b866117ac565b3461083d575f36600319011261083d5760206040517f39a994ce151e39a396ab89aea307a1fd07a7d85d71d56272f9284b02e96a6f858152f35b3461083d575f36600319011261083d5760206040515f51602061319e5f395f51905f528152f35b3461083d57611c39366123d2565b905f52600460205260405f20905f52602052602060405f2054604051908152f35b3461083d5760a036600319011261083d57600435611c7661240c565b9060443591606435926084356040516369d1cb4360e11b81528460048201525f51602061329e5f395f51905f526024820152602081604481305afa908115610832575f916121d1575b506001600160a01b0381161561146d5781156121c257611ce0903390612621565b156121b35760408051602081018681526b195e1d195c9b985b14185a5960a21b928201929092526001600160a01b0385166060820152611d238160808101610e3f565b519020915f60405163bb6b0c3b60e01b81528460048201525f5160206132de5f395f51905f526024820152602081604481305afa80156108325783915f91612194575b50612116575b611d7591612552565b6040805160208101888152661a1bdb9bdc995960ca1b928201929092526001600160a01b03871660608201525f949293929190611db58160808101610e3f565b51902060405163bb6b0c3b60e01b8152600481018290525f51602061317e5f395f51905f526024820152602081604481305afa908115610832575f916120f7575b5061207d575b50604051633d356c9360e11b8152600481018890525f51602061311e5f395f51905f526024820152602081604481305afa908115610832575f9161204b575b508015159081612038575b50611a0357611a0197611e8a5f5160206132de5f395f51905f526119fb97611e6d82612bc0565b805f52600360205260405f20825f526020528660405f2055612c63565b611e94878961272f565b611eaa5f51602061323e5f395f51905f52612bc0565b875f52600360205260405f205f51602061323e5f395f51905f525f526020524260405f2055611ee65f51602061323e5f395f51905f5289612c63565b611efc5f5160206132be5f395f51905f52612bc0565b875f52600460205260405f205f5160206132be5f395f51905f525f526020528060405f2055611f385f5160206132be5f395f51905f5289612d46565b611f4e5f51602061319e5f395f51905f52612bc0565b875f52600460205260405f205f51602061319e5f395f51905f525f526020528160405f2055611f8a5f51602061319e5f395f51905f5289612d46565b611fa05f5160206131fe5f395f51905f52612bc0565b875f52600160205260405f205f5160206131fe5f395f51905f525f5260205260405f20336001600160601b0360a01b825416179055611fec5f5160206131fe5f395f51905f5289612e29565b6040519283526020830152604082015281606082015260018060a01b03851690867f93a5d9fe62eb45dd174da74bc80476f3533c729cfd7e903ac288fb25cf66b6c560803393a4612552565b90506120448585612552565b1189611e46565b90506020813d602011612075575b8161206660209383612422565b8101031261083d575189611e3b565b3d9150612059565b90935060405190633d356c9360e11b825260048201525f51602061317e5f395f51905f526024820152602081604481305afa908115610832575f916120c5575b509288611dfc565b90506020813d6020116120ef575b816120e060209383612422565b8101031261083d5751886120bd565b3d91506120d3565b612110915060203d602011610fca57610fbc8183612422565b8a611df6565b5050604051633d356c9360e11b8152600481018490525f5160206132de5f395f51905f526024820152602081604481305afa80156108325782905f9061215e575b9150611d6c565b50506020813d60201161218c575b8161217960209383612422565b8101031261083d5781611d759151612157565b3d915061216c565b6121ad915060203d602011610fca57610fbc8183612422565b89611d66565b631d58809b60e31b5f5260045ffd5b634bec068f60e01b5f5260045ffd5b6121ea915060203d602011611466576114588183612422565b86611cbf565b3461083d576121fe366123d2565b905f525f60205260405f20905f52602052610d1761221e60405f2061247b565b6040519182916020835260208301906123e8565b3461083d57602036600319011261083d576004355f52600860205260405f206040519081602082549182815201915f5260205f20905f5b81811061228057610d1785610d0b81870382612422565b8254845260209093019260019283019201612269565b3461083d575f36600319011261083d5760206040515f5160206130fe5f395f51905f528152f35b3461083d575f36600319011261083d5760206040515f51602061321e5f395f51905f528152f35b3461083d575f36600319011261083d5760206040515f5160206130de5f395f51905f528152f35b3461083d575f36600319011261083d57602060405160078152f35b3461083d575f36600319011261083d5760206040515f51602061317e5f395f51905f528152f35b3461083d575f36600319011261083d5760206040515f5160206131be5f395f51905f528152f35b3461083d575f36600319011261083d57805f51602061329e5f395f51905f5260209252f35b60206040818301928281528451809452019201905f5b8181106123bc5750505090565b82518452602093840193909201916001016123af565b604090600319011261083d576004359060243590565b805180835260209291819084018484015e5f828201840152601f01601f1916010190565b602435906001600160a01b038216820361083d57565b90601f801991011681019081106001600160401b038211176109b957604052565b90600182811c92168015612471575b602083101461245d57565b634e487b7160e01b5f52602260045260245ffd5b91607f1691612452565b9060405191825f82549261248e84612443565b80845293600181169081156124f957506001146124b5575b506124b392500383612422565b565b90505f9291925260205f20905f915b8183106124dd5750509060206124b3928201015f6124a6565b60209193508060019154838589010152019101909184926124c4565b9050602092506124b394915060ff191682840152151560051b8201015f6124a6565b9081602091031261083d57516001600160a01b038116810361083d5790565b9081602091031261083d5751801515810361083d5790565b9190820180921161255f57565b634e487b7160e01b5f52601160045260245ffd5b6001600160401b0381116109b95760051b60200190565b356001600160a01b038116810361083d5790565b903590601e198136030182121561083d57018035906001600160401b03821161083d5760200191813603831361083d57565b6001600160401b0381116109b957601f01601f191660200190565b9291926125f7826125d0565b916126056040519384612422565b82948184528183011161083d578281602093845f960137010152565b90813b156126c2575f91829160405160208101916317aa5fb760e11b835260018060a01b031660248201526024815261265b604482612422565b51915afa3d156126bb573d61266f816125d0565b9061267d6040519283612422565b81523d5f602083013e5b816126ad575b81612696575090565b6126aa91506020808251830101910161253a565b90565b90506020815110159061268d565b6060612687565b50505f90565b5f51602061311e5f395f51905f52906124b3926126e483612bc0565b815f52600360205260405f20835f5260205260405f2055612c63565b7f9ab495d113890dae4056b231c0e27d32e331589b5c623f4e5b558520d2ab6ca5906124b3926126e483612bc0565b604051632041c21f60e11b8152600481018290525f5160206131be5f395f51905f52602482015290916001600160a01b0316905f81604481305afa908115610832575f916129ba575b505f5b81518110156127a2578260208260051b840101511461279c5760010161277b565b50505050565b505060405163170da40760e21b81525f5160206131be5f395f51905f5260048201526020816024817f00000000000000000000000000000000000000000000000000000000000000006001600160a01b03165afa908115610832575f9161299b575b501561298c5761283690825f52600760205260405f205f5160206131be5f395f51905f525f5260205260405f20612c3c565b61283f81612fef565b805f52600960205260405f205f5160206131be5f395f51905f525f5260205260ff60405f2054161561290d575b805f5160206131be5f395f51905f52915f52600a60205260405f20825f5260205260405f20600860ff198254161790557f34d84e67b0f324bfad877e5b27265f696957cae3ba7fbfc8a1a4a365c3672ecd60406128c88361306e565b835f52600b602052815f20855f52602052815f206001600160401b0382166001600160401b03198254161790556001600160401b0382519160088352166020820152a3565b805f52600860205260405f20908154600160401b8110156109b95760018101808455811015612978575f5160206131be5f395f51905f52925f5260205f200182809155815f52600960205260405f20905f5260205260405f20600160ff19825416179055905061286c565b634e487b7160e01b5f52603260045260245ffd5b632263bf1f60e21b5f5260045ffd5b6129b4915060203d602011610fca57610fbc8183612422565b5f612804565b90503d805f833e6129cb8183612422565b81019060208183031261083d578051906001600160401b03821161083d57019080601f8301121561083d578151612a0181612573565b92612a0f6040519485612422565b81845260208085019260051b82010192831161083d57602001905b828210612a3a575050505f612778565b8151815260209182019101612a2a565b90604051633d356c9360e11b81528260048201525f51602061311e5f395f51905f526024820152602081604481305afa908115610832575f91612b42575b50801561279c57831015612a9b57505050565b60207f8e5ef986fbf3a2126f401112c89a43f09bd2d56800de8fcc66998473618ee91691612ad55f51602061315e5f395f51905f52612bc0565b835f526004825260405f205f51602061315e5f395f51905f525f5282527f4aa6dd057c65c08ee99a279ff5d746d75956a1bad33358c5190d7887b0c0602060405f2055612b2f5f51602061315e5f395f51905f5285612d46565b6040519485526001600160a01b031693a3565b90506020813d602011612b6c575b81612b5d60209383612422565b8101031261083d57515f612a88565b3d9150612b50565b916040519160208301936939b09d383632b233b29d60b11b85526001600160601b03199060601b16602a840152603e830152605e820152605e8152612bba607e82612422565b51902090565b60405163170da40760e21b815260048101919091526020816024817f00000000000000000000000000000000000000000000000000000000000000006001600160a01b03165afa908115610832575f91612c1d575b501561298c57565b612c36915060203d602011610fca57610fbc8183612422565b5f612c15565b805490600160401b8210156109b95760018201808255821015612978575f5260205f200155565b612c6c81612fef565b805f52600960205260405f20825f5260205260ff60405f20541615612d0b575b805f52600a60205260405f20825f5260205260405f20600460ff198254161790555f51602061325e5f395f51905f526040612cc68361306e565b835f52600b602052815f20855f52602052815f206001600160401b0382166001600160401b03198254161790556001600160401b0382519160048352166020820152a3565b805f526008602052612d208260405f20612c3c565b805f52600960205260405f20825f5260205260405f20600160ff19825416179055612c8c565b612d4f81612fef565b805f52600960205260405f20825f5260205260ff60405f20541615612dee575b805f52600a60205260405f20825f5260205260405f20600560ff198254161790555f51602061325e5f395f51905f526040612da98361306e565b835f52600b602052815f20855f52602052815f206001600160401b0382166001600160401b03198254161790556001600160401b0382519160058352166020820152a3565b805f526008602052612e038260405f20612c3c565b805f52600960205260405f20825f5260205260405f20600160ff19825416179055612d6f565b612e3281612fef565b805f52600960205260405f20825f5260205260ff60405f20541615612ed1575b805f52600a60205260405f20825f5260205260405f20600260ff198254161790555f51602061325e5f395f51905f526040612e8c8361306e565b835f52600b602052815f20855f52602052815f206001600160401b0382166001600160401b03198254161790556001600160401b0382519160028352166020820152a3565b805f526008602052612ee68260405f20612c3c565b805f52600960205260405f20825f5260205260405f20600160ff19825416179055612e52565b612f1581612fef565b805f52600960205260405f20825f5260205260ff60405f20541615612fb4575b805f52600a60205260405f20825f5260205260405f20600160ff198254161790555f51602061325e5f395f51905f526040612f6f8361306e565b835f52600b602052815f20855f52602052815f206001600160401b0382166001600160401b03198254161790556001600160401b0382519160018352166020820152a3565b805f526008602052612fc98260405f20612c3c565b805f52600960205260405f20825f5260205260405f20600160ff19825416179055612f35565b805f52600e60205260ff60405f205416156130075750565b805f52600e60205260405f20600160ff19825416179055600d54600160401b8110156109b9576001810180600d55811015612978578190600d5f5260205f2001557f34f1cb4778d9578e1af878b07d3ae7e9f2f32fafcaa3096fe48153670a71bfaf5f80a2565b805f52600c60205260016001600160401b0360405f20541601906001600160401b03821161255f575f52600c60205260405f206001600160401b0382166001600160401b03198254161790559056fe3f65501632ab598b31c3335d8d0447eee03353c95375c6ecd799681b12f4b1871f90734a1230720523e6d120d60df3d27077440c490a654d97e8884db5c0b1df969b1b4b22b4dee8aaab0b1ec0841ab69ac360539b5b0c7ff919fe1872b51962168d44d6eca8af99b319af3e6602ebb4789001962ed86f6f30564096353f3aa3368c20e2589e4fe830fd15036c84fd0d4655c4a44e26cbf76da3be32a190e5e31cc6d502a7b023276feada73d0dc8ccbc013b3fc82d9b25990331f9a173a02e489179502cea305788fce27ec520a90aa0540730f8fe08f54ff61ca1ede7c7b6a6ebedaa1335480dc8843facbc977ecf99fc519183c19b30bffd2de49068c0c311028edb6f08372b133b6f4d6b37cf736954743ab36441c72216251a04fdc2abd13a4c5af55d484d20f2268505ec53152a2d795709c6984fb1c80befc6a2c1da6c4f8a31ffbbdcc1ec12fd4f1f821dcb1764c6e8c205ee8f020f413d8626bb47c7c14fbedc10179fb2dbd24dbae9e1628c0bb43f5fc046d8dc902b4254dacb2b37fe53d0ae085ab9a759efb59f916eed274502b00c5469e4ceac094fbe02ec9375167ea251eeaf052f4c7bd769efb5b17e6ba98908050b9929a0bd192b57274fb0dc389c676d6e3e303edcccd7fa017a4d25c67c70f09cd3b8a5711e4c5fb6760ee409ad84476c0d0f32387708d6e7a6318efd9a9288a2099b2baba72f2b1a8bcefb8df262fbab895b9862ec41578fcd924b9e6d35513b520f75b7c0c0c9b3070f88c2e3b901228fffd54741152bdf6b2af48fb54bd08eee435f66cdc7a122f474ad68c1b645454c036e10f115be8948636986a2cbfea87edbd00336ea49ffd4d574f9a448ab1d1d80efa197fb5c9452239478cb7032755335212f1139ef87403a2646970667358221220e6ba8a8815782251318b091ce85f760f7829e2d76cd39fb9fd9b68fa3ecc41be64736f6c634300081c0033","linkReferences":{}},"methodIdentifiers":{"CLASS_PLEDGE()":"3f1e1922","DT_ADDRESS_ARR_PUB()":"213aaad7","DT_ADDRESS_PUB()":"ece6bebc","DT_BOOL_PUB()":"93cbc37d","DT_BYTES32_ARR_PUB()":"f98eed69","DT_BYTES32_PUB()":"c3174629","DT_STRING_ARR_PUB()":"8e101369","DT_STRING_PUB()":"a954aea1","DT_UINT256_PUB()":"be78c068","ONTOLOGY()":"e63cdb42","SA_PLEDGE_AMOUNT()":"8d9afffa","SA_PLEDGE_CADENCE()":"d60080c7","SA_PLEDGE_DONOR()":"22755ec0","SA_PLEDGE_DURATION()":"4bd1ad6d","SA_PLEDGE_EVIDENCE_HASH()":"3c059bd4","SA_PLEDGE_EXTERNALLY_PAID_AMOUNT()":"92220347","SA_PLEDGE_HONORED_AMOUNT()":"2008d55d","SA_PLEDGE_HONOR_TOKEN_LIST()":"13b4a1ae","SA_PLEDGE_LAST_HONORED_AT()":"d29d1497","SA_PLEDGE_LAST_MARKED_AT()":"ff86e201","SA_PLEDGE_MARKED_BY_AGENT()":"969c8a1d","SA_PLEDGE_NULLIFIER()":"2d1ea2d6","SA_PLEDGE_PAYMENT_RAIL()":"7a223504","SA_PLEDGE_PLEDGED_AT()":"28664d2d","SA_PLEDGE_POOL()":"115962ae","SA_PLEDGE_RESTRICTIONS()":"72c556d6","SA_PLEDGE_STATUS()":"73e0dc48","SA_PLEDGE_STOPPED_AT()":"42504c8f","SA_PLEDGE_STORY_PERMISSIONS()":"e0e0de33","SA_PLEDGE_UNIT()":"aac36186","SHAPES()":"55c964dd","allSubjects()":"c3a6123d","amend(bytes32,uint256,uint256)":"4b4204b1","datatypeOf(bytes32,bytes32)":"42921cf3","getAddress(bytes32,bytes32)":"d3a39686","getAddressArr(bytes32,bytes32)":"e4281bc3","getBool(bytes32,bytes32)":"98eaf11c","getBytes32(bytes32,bytes32)":"37d9d7fc","getBytes32Arr(bytes32,bytes32)":"4083843e","getSettlement(bytes32,address)":"a174a705","getString(bytes32,bytes32)":"31477b9b","getStringArr(bytes32,bytes32)":"cb954f30","getUint(bytes32,bytes32)":"7a6ad926","isSet(bytes32,bytes32)":"bb6b0c3b","markPaid(bytes32,address,uint256,bytes32,bytes32)":"31f27724","pledgeSubject(address,bytes32,uint256)":"7970cc30","predicatesOf(bytes32)":"30547181","recordHonor(bytes32,address,address,uint256)":"3fe15fd0","stop(bytes32)":"63c4f031","subjectCount()":"639a2e10","subjectVersion(bytes32)":"8e21caca","submit((address,bytes32,uint256,uint256,bytes32,bytes32,uint256,string,string))":"d70fe0b9","updatedAt(bytes32,bytes32)":"880eadce"},"id":73}