{"abi":[{"type":"constructor","inputs":[{"name":"registry","type":"address","internalType":"contract AgentNameRegistry"}],"stateMutability":"nonpayable"},{"type":"function","name":"REGISTRY","inputs":[],"outputs":[{"name":"","type":"address","internalType":"contract AgentNameRegistry"}],"stateMutability":"view"},{"type":"function","name":"addr","inputs":[{"name":"node","type":"bytes32","internalType":"bytes32"}],"outputs":[{"name":"","type":"address","internalType":"address"}],"stateMutability":"view"},{"type":"function","name":"addrForCoin","inputs":[{"name":"node","type":"bytes32","internalType":"bytes32"},{"name":"coinType","type":"uint256","internalType":"uint256"}],"outputs":[{"name":"","type":"address","internalType":"address"}],"stateMutability":"view"},{"type":"function","name":"aliasOf","inputs":[{"name":"node","type":"bytes32","internalType":"bytes32"}],"outputs":[{"name":"","type":"bytes32","internalType":"bytes32"}],"stateMutability":"view"},{"type":"function","name":"clearRecords","inputs":[{"name":"node","type":"bytes32","internalType":"bytes32"}],"outputs":[],"stateMutability":"nonpayable"},{"type":"function","name":"isOperator","inputs":[{"name":"node","type":"bytes32","internalType":"bytes32"},{"name":"operator","type":"address","internalType":"address"}],"outputs":[{"name":"","type":"bool","internalType":"bool"}],"stateMutability":"view"},{"type":"function","name":"setAddr","inputs":[{"name":"node","type":"bytes32","internalType":"bytes32"},{"name":"addr_","type":"address","internalType":"address"}],"outputs":[],"stateMutability":"nonpayable"},{"type":"function","name":"setAddrForCoin","inputs":[{"name":"node","type":"bytes32","internalType":"bytes32"},{"name":"coinType","type":"uint256","internalType":"uint256"},{"name":"addr_","type":"address","internalType":"address"}],"outputs":[],"stateMutability":"nonpayable"},{"type":"function","name":"setAlias","inputs":[{"name":"node","type":"bytes32","internalType":"bytes32"},{"name":"targetNode","type":"bytes32","internalType":"bytes32"}],"outputs":[],"stateMutability":"nonpayable"},{"type":"function","name":"setOperator","inputs":[{"name":"node","type":"bytes32","internalType":"bytes32"},{"name":"operator","type":"address","internalType":"address"},{"name":"approved","type":"bool","internalType":"bool"}],"outputs":[],"stateMutability":"nonpayable"},{"type":"function","name":"setText","inputs":[{"name":"node","type":"bytes32","internalType":"bytes32"},{"name":"key","type":"string","internalType":"string"},{"name":"value","type":"string","internalType":"string"}],"outputs":[],"stateMutability":"nonpayable"},{"type":"function","name":"text","inputs":[{"name":"node","type":"bytes32","internalType":"bytes32"},{"name":"key","type":"string","internalType":"string"}],"outputs":[{"name":"","type":"string","internalType":"string"}],"stateMutability":"view"},{"type":"function","name":"version","inputs":[{"name":"node","type":"bytes32","internalType":"bytes32"}],"outputs":[{"name":"","type":"uint64","internalType":"uint64"}],"stateMutability":"view"},{"type":"event","name":"AddrChanged","inputs":[{"name":"node","type":"bytes32","indexed":true,"internalType":"bytes32"},{"name":"coinType","type":"uint256","indexed":false,"internalType":"uint256"},{"name":"addr","type":"address","indexed":false,"internalType":"address"}],"anonymous":false},{"type":"event","name":"AliasSet","inputs":[{"name":"node","type":"bytes32","indexed":true,"internalType":"bytes32"},{"name":"targetNode","type":"bytes32","indexed":false,"internalType":"bytes32"}],"anonymous":false},{"type":"event","name":"OperatorSet","inputs":[{"name":"node","type":"bytes32","indexed":true,"internalType":"bytes32"},{"name":"operator","type":"address","indexed":true,"internalType":"address"},{"name":"approved","type":"bool","indexed":false,"internalType":"bool"}],"anonymous":false},{"type":"event","name":"RecordsCleared","inputs":[{"name":"node","type":"bytes32","indexed":true,"internalType":"bytes32"},{"name":"newVersion","type":"uint64","indexed":false,"internalType":"uint64"}],"anonymous":false},{"type":"event","name":"TextChanged","inputs":[{"name":"node","type":"bytes32","indexed":true,"internalType":"bytes32"},{"name":"key","type":"string","indexed":false,"internalType":"string"},{"name":"value","type":"string","indexed":false,"internalType":"string"}],"anonymous":false},{"type":"error","name":"AliasLoop","inputs":[]},{"type":"error","name":"NodeNotFound","inputs":[]},{"type":"error","name":"NotAuthorized","inputs":[]}],"bytecode":{"object":"0x60a034607457601f610d1d38819003918201601f19168301916001600160401b03831184841017607857808492602094604052833981010312607457516001600160a01b0381168103607457608052604051610c90908161008d82396080518181816107d50152818161094b0152610b280152f35b5f80fd5b634e487b7160e01b5f52604160045260245ffdfe6080806040526004361015610012575f80fd5b5f3560e01c90816306433b1b146107c35750806310f13a8c146105b857806317c241301461057357806318904988146104e35780631f06e91c1461048a5780633603d758146103d657806339baaec0146103455780633b3b57de1461030157806359d1d43c146101e05780638a8d9e7c14610197578063d5fa2b001461010c578063df119e8a146100e25763fde40cb6146100ab575f80fd5b346100de5760203660031901126100de576004355f52600260205260206001600160401b0360405f205416604051908152f35b5f80fd5b346100de5760203660031901126100de576004355f526003602052602060405f2054604051908152f35b346100de5760403660031901126100de576004357fe8d3a86c5e813d9352273c5a4b400e815c75faced5e9f26ab6e7b589c1459176604061014b610831565b61015484610935565b5f8481526020818152838220603c8084529082529184902080546001600160a01b0319166001600160a01b039490941693841790558351918252810191909152a2005b346100de5760403660031901126100de576101b0610831565b6004355f52600460205260405f209060018060a01b03165f52602052602060ff60405f2054166040519015158152f35b346100de5760403660031901126100de576024356001600160401b0381116100de576102126020913690600401610804565b919061021f600435610ad9565b5f526001825260405f208360405194859384378201908152030190206040515f82549261024b84610847565b9081845260208401946001811690815f146102e457506001146102a4575b846040856102798187038261089f565b8151928391602083525180918160208501528484015e5f828201840152601f01601f19168101030190f35b5f90815260208120939250905b8082106102ca5750909150810160200161027982610269565b9192600181602092548385880101520191019092916102b1565b60ff191686525050151560051b8201602001905061027982610269565b346100de5760203660031901126100de5761031d600435610ad9565b5f525f60205260405f20603c5f52602052602060018060a01b0360405f205416604051908152f35b346100de5760603660031901126100de576004356024356044356001600160a01b038116908190036100de577fe8d3a86c5e813d9352273c5a4b400e815c75faced5e9f26ab6e7b589c14591769160409161039f85610935565b845f525f602052825f20825f52602052825f20816bffffffffffffffffffffffff60a01b82541617905582519182526020820152a2005b346100de5760203660031901126100de576004356103f381610935565b805f52600260205260405f2080546001600160401b0381166001600160401b0381146104765760016001600160401b03910116906001600160401b031916179055805f5260026020527fe79ca3b930e014fa0d9e9417aa011799d57f972451d131c26084c12e32725ea060206001600160401b0360405f205416604051908152a2005b634e487b7160e01b5f52601160045260245ffd5b346100de5760403660031901126100de576004357f9656298cd4fb507d90f509d326f56a59bbd242caf3ca08686893f64f95994b9e60206024356104cd84610935565b835f52600382528060405f2055604051908152a2005b346100de5760603660031901126100de576004356104ff610831565b90604435918215158093036100de5760207f1830774e355cfb93ecc0e841294830a153d65e0347de5050a195b033dd2246099161053b84610b12565b5f8481526004835260408082206001600160a01b039390931680835292845290819020805460ff191660ff88161790555194855293a3005b346100de5760403660031901126100de5761058f600435610ad9565b5f525f60205260405f206024355f52602052602060018060a01b0360405f205416604051908152f35b346100de5760603660031901126100de576004356024356001600160401b0381116100de576105eb903690600401610804565b91906044356001600160401b0381116100de5761060c903690600401610804565b939061061784610935565b835f52600160205260405f20602060405180928587833785820190815203019020946001600160401b0381116107af576106518654610847565b601f811161076a575b505f95601f82116001146106e157906106d19291817fd8c9334b1a9c2f9da342a0a2b32629c1a229b6445dad78947f674b44444a755097985f916106d6575b508260011b905f198460031b1c19161790555b6106c360405195869560408752604087019161087f565b91848303602086015261087f565b0390a2005b905083013589610699565b601f198216815f5260205f20905f5b8181106107525750907fd8c9334b1a9c2f9da342a0a2b32629c1a229b6445dad78947f674b44444a75509798846106d19695949310610739575b5050600182811b0190556106ac565b8401355f19600385901b60f8161c19169055888061072a565b858a013583556020998a0199600190930192016106f0565b865f5260205f20601f830160051c810191602084106107a5575b601f0160051c01905b81811061079a575061065a565b5f815560010161078d565b9091508190610784565b634e487b7160e01b5f52604160045260245ffd5b346100de575f3660031901126100de577f00000000000000000000000000000000000000000000000000000000000000006001600160a01b03168152602090f35b9181601f840112156100de578235916001600160401b0383116100de57602083818601950101116100de57565b602435906001600160a01b03821682036100de57565b90600182811c92168015610875575b602083101461086157565b634e487b7160e01b5f52602260045260245ffd5b91607f1691610856565b908060209392818452848401375f828201840152601f01601f1916010190565b90601f801991011681019081106001600160401b038211176107af57604052565b908160209103126100de575180151581036100de5790565b908160209103126100de57516001600160a01b03811681036100de5790565b3d15610930573d906001600160401b0382116107af5760405191610925601f8201601f19166020018461089f565b82523d5f602084013e565b606090565b604051631ef3fca760e31b8152600481018290527f00000000000000000000000000000000000000000000000000000000000000006001600160a01b031690602081602481855afa908115610a90575f91610aaa575b5015610a9b576020602491604051928380926302571be360e01b82528660048301525afa908115610a90575f91610a61575b50336001600160a01b03821614610a5d575f809160405160208101906317aa5fb760e11b8252336024820152602481526109f860448261089f565b51915afa610a046108f7565b81610a43575b50610a40575f90815260046020908152604080832033845290915290205460ff16610a3e5763ea8e4eb560e01b5f5260045ffd5b565b50565b610a579150602080825183010191016108c0565b5f610a0a565b5050565b610a83915060203d602011610a89575b610a7b818361089f565b8101906108d8565b5f6109bd565b503d610a71565b6040513d5f823e3d90fd5b634825e09360e01b5f5260045ffd5b610acc915060203d602011610ad2575b610ac4818361089f565b8101906108c0565b5f61098b565b503d610aba565b5f5b600360ff821610610aea575090565b90805f52600360205260405f2054908115610b0c57509060010160ff16610adb565b91505090565b604051631ef3fca760e31b8152600481018290527f00000000000000000000000000000000000000000000000000000000000000006001600160a01b03169190602081602481865afa908115610a90575f91610c3b575b5015610a9b576020906024604051809481936302571be360e01b835260048301525afa908115610a90575f91610c1c575b50336001600160a01b03821614610a40575f809160405160208101906317aa5fb760e11b825233602482015260248152610bd560448261089f565b51915afa610be16108f7565b9015908115610c01575b50610bf257565b63ea8e4eb560e01b5f5260045ffd5b610c159150602080825183010191016108c0565b155f610beb565b610c35915060203d602011610a8957610a7b818361089f565b5f610b9a565b610c54915060203d602011610ad257610ac4818361089f565b5f610b6956fea2646970667358221220606063a9ad24cdcacd7547223113e5ed3427c5b0506062eb1f74f88829a5d85964736f6c634300081c0033","linkReferences":{}},"methodIdentifiers":{"REGISTRY()":"06433b1b","addr(bytes32)":"3b3b57de","addrForCoin(bytes32,uint256)":"17c24130","aliasOf(bytes32)":"df119e8a","clearRecords(bytes32)":"3603d758","isOperator(bytes32,address)":"8a8d9e7c","setAddr(bytes32,address)":"d5fa2b00","setAddrForCoin(bytes32,uint256,address)":"39baaec0","setAlias(bytes32,bytes32)":"1f06e91c","setOperator(bytes32,address,bool)":"18904988","setText(bytes32,string,string)":"10f13a8c","text(bytes32,string)":"59d1d43c","version(bytes32)":"fde40cb6"},"id":59}