{"abi":[{"type":"constructor","inputs":[{"name":"governor_","type":"address","internalType":"address"}],"stateMutability":"nonpayable"},{"type":"function","name":"canWrite","inputs":[{"name":"subject","type":"bytes32","internalType":"bytes32"},{"name":"predicate","type":"bytes32","internalType":"bytes32"},{"name":"actor","type":"address","internalType":"address"}],"outputs":[{"name":"","type":"bool","internalType":"bool"}],"stateMutability":"view"},{"type":"function","name":"governor","inputs":[],"outputs":[{"name":"","type":"address","internalType":"address"}],"stateMutability":"view"},{"type":"function","name":"predicateGrant","inputs":[{"name":"","type":"bytes32","internalType":"bytes32"},{"name":"","type":"bytes32","internalType":"bytes32"},{"name":"","type":"address","internalType":"address"}],"outputs":[{"name":"","type":"bool","internalType":"bool"}],"stateMutability":"view"},{"type":"function","name":"setPredicateGrant","inputs":[{"name":"subject","type":"bytes32","internalType":"bytes32"},{"name":"predicate","type":"bytes32","internalType":"bytes32"},{"name":"actor","type":"address","internalType":"address"},{"name":"allowed","type":"bool","internalType":"bool"}],"outputs":[],"stateMutability":"nonpayable"},{"type":"function","name":"setSubjectGrant","inputs":[{"name":"subject","type":"bytes32","internalType":"bytes32"},{"name":"actor","type":"address","internalType":"address"},{"name":"allowed","type":"bool","internalType":"bool"}],"outputs":[],"stateMutability":"nonpayable"},{"type":"function","name":"setTrustedWriter","inputs":[{"name":"writer","type":"address","internalType":"address"},{"name":"allowed","type":"bool","internalType":"bool"}],"outputs":[],"stateMutability":"nonpayable"},{"type":"function","name":"subjectGrant","inputs":[{"name":"","type":"bytes32","internalType":"bytes32"},{"name":"","type":"address","internalType":"address"}],"outputs":[{"name":"","type":"bool","internalType":"bool"}],"stateMutability":"view"},{"type":"function","name":"transferGovernor","inputs":[{"name":"newGovernor","type":"address","internalType":"address"}],"outputs":[],"stateMutability":"nonpayable"},{"type":"function","name":"trustedWriter","inputs":[{"name":"","type":"address","internalType":"address"}],"outputs":[{"name":"","type":"bool","internalType":"bool"}],"stateMutability":"view"},{"type":"event","name":"GovernorTransferred","inputs":[{"name":"previousGovernor","type":"address","indexed":true,"internalType":"address"},{"name":"newGovernor","type":"address","indexed":true,"internalType":"address"}],"anonymous":false},{"type":"event","name":"PredicateGrantSet","inputs":[{"name":"subject","type":"bytes32","indexed":true,"internalType":"bytes32"},{"name":"predicate","type":"bytes32","indexed":true,"internalType":"bytes32"},{"name":"actor","type":"address","indexed":true,"internalType":"address"},{"name":"allowed","type":"bool","indexed":false,"internalType":"bool"}],"anonymous":false},{"type":"event","name":"SubjectGrantSet","inputs":[{"name":"subject","type":"bytes32","indexed":true,"internalType":"bytes32"},{"name":"actor","type":"address","indexed":true,"internalType":"address"},{"name":"allowed","type":"bool","indexed":false,"internalType":"bool"}],"anonymous":false},{"type":"event","name":"TrustedWriterSet","inputs":[{"name":"writer","type":"address","indexed":true,"internalType":"address"},{"name":"allowed","type":"bool","indexed":false,"internalType":"bool"}],"anonymous":false},{"type":"error","name":"NotGovernor","inputs":[]}],"bytecode":{"object":"0x608034606f57601f6106a038819003918201601f19168301916001600160401b03831184841017607357808492602094604052833981010312606f57516001600160a01b03811690819003606f575f80546001600160a01b03191691909117905560405161061890816100888239f35b5f80fd5b634e487b7160e01b5f52604160045260245ffdfe60806040526004361015610011575f80fd5b5f3560e01c8063021b384f1461034d5780630c340a24146103265780634270fe401461030357806376e6d8e5146102ba5780638748cb7e1461020e578063a132eed0146101d1578063b8cc9ce614610164578063c838d2da1461011e5763fa09b2681461007c575f80fd5b3461011a57604036600319011261011a57610095610408565b602435908115159081830361011a575f546001600160a01b0316330361010b577f8bcd8bba9c54b694380029ed4f536acd6495a74fe918961e7e8c1e1375c79bdc9161010260209260018060a01b031694855f526001845260405f209060ff801983541691151516179055565b604051908152a2005b633b8d9d7560e21b5f5260045ffd5b5f80fd5b3461011a5761012c3661041e565b915f52600360205260405f20905f5260205260405f209060018060a01b03165f52602052602060ff60405f2054166040519015158152f35b3461011a57602036600319011261011a5761017d610408565b5f546001600160a01b038116913383900361010b576001600160a01b03169182907f6fadb1c244276388aee22be93b919985a18748c021e5d48553957a48101a25605f80a36001600160a01b031916175f55005b3461011a57602036600319011261011a576001600160a01b036101f2610408565b165f526001602052602060ff60405f2054166040519015158152f35b3461011a57608036600319011261011a576044356001600160a01b03811690602435906004359083900361011a576064358015159081810361011a575f546001600160a01b0316330361010b577f8a5c229b6bc6747b808dbae460bd39ba09942af28ba5303f73d520b2faadf2ce916102b1602092855f526003845260405f20875f52845260405f20885f52845260405f209060ff801983541691151516179055565b604051908152a4005b3461011a57604036600319011261011a576102d36103f2565b6004355f52600260205260405f209060018060a01b03165f52602052602060ff60405f2054166040519015158152f35b3461011a57602061031c6103163661041e565b91610448565b6040519015158152f35b3461011a575f36600319011261011a575f546040516001600160a01b039091168152602090f35b3461011a57606036600319011261011a576004356103696103f2565b90604435918215159283810361011a575f546001600160a01b0316330361010b577fe8456e0fe07fb9450d9739fbb0ed2e61549830c732cd0ac63cc3484a3422c482916103df602092855f526002845260405f2060018060a01b0384165f52845260405f209060ff801983541691151516179055565b6040519485526001600160a01b031693a3005b602435906001600160a01b038216820361011a57565b600435906001600160a01b038216820361011a57565b606090600319011261011a5760043590602435906044356001600160a01b038116810361011a5790565b919060018060a01b0382165f52600160205260ff60405f2054166104cf575f8381526003602090815260408083209383529281528282206001600160a01b03851683529052205460ff166104c857815f52600260205260405f2060018060a01b0382165f5260205260ff60405f2054166104c8576104c59161050d565b90565b5050600190565b505050600190565b90601f8019910116810190811067ffffffffffffffff8211176104f957604052565b634e487b7160e01b5f52604160045260245ffd5b8060a01c6105dc576001600160a01b03169081156105dc57813b156105dc575f91829160405160208101916317aa5fb760e11b835260018060a01b031660248201526024815261055e6044826104d7565b51915afa3d156105d4573d9067ffffffffffffffff82116104f95760405191610591601f8201601f1916602001846104d7565b82523d5f602084013e5b1580156105c9575b6105c45760208180518101031261011a5760200151801515810361011a5790565b505f90565b5060208151106105a3565b60609061059b565b50505f9056fea26469706673582212202ce40e5f039dd89f90cd0d9a94b56fd31791c833b1158251d269374f35703fe964736f6c634300081c0033","linkReferences":{}},"methodIdentifiers":{"canWrite(bytes32,bytes32,address)":"4270fe40","governor()":"0c340a24","predicateGrant(bytes32,bytes32,address)":"c838d2da","setPredicateGrant(bytes32,bytes32,address,bool)":"8748cb7e","setSubjectGrant(bytes32,address,bool)":"021b384f","setTrustedWriter(address,bool)":"fa09b268","subjectGrant(bytes32,address)":"76e6d8e5","transferGovernor(address)":"b8cc9ce6","trustedWriter(address)":"a132eed0"},"id":87}