{"abi":[{"type":"function","name":"afterHook","inputs":[{"name":"","type":"bytes","internalType":"bytes"},{"name":"","type":"bytes","internalType":"bytes"},{"name":"","type":"bytes32","internalType":"bytes32"},{"name":"","type":"address","internalType":"address"},{"name":"","type":"address","internalType":"address"},{"name":"","type":"address","internalType":"address"},{"name":"","type":"uint256","internalType":"uint256"},{"name":"","type":"bytes","internalType":"bytes"}],"outputs":[],"stateMutability":"pure"},{"type":"function","name":"beforeHook","inputs":[{"name":"terms","type":"bytes","internalType":"bytes"},{"name":"","type":"bytes","internalType":"bytes"},{"name":"","type":"bytes32","internalType":"bytes32"},{"name":"","type":"address","internalType":"address"},{"name":"","type":"address","internalType":"address"},{"name":"","type":"address","internalType":"address"},{"name":"","type":"uint256","internalType":"uint256"},{"name":"","type":"bytes","internalType":"bytes"}],"outputs":[],"stateMutability":"view"},{"type":"error","name":"TimestampExpired","inputs":[]},{"type":"error","name":"TimestampNotYetValid","inputs":[]}],"bytecode":{"object":"0x608080604052346015576101b9908161001a8239f35b5f80fdfe60806040526004361015610011575f80fd5b5f3560e01c8063a1422eb6146100435763d3128e3d1461002f575f80fd5b3461003f5761003d366100c8565b005b5f80fd5b3461003f576040610053366100c8565b505050505050505050908092918101031261003f578035421061008b5760200135421161007c57005b6313634e8d60e11b5f5260045ffd5b633f3c327360e21b5f5260045ffd5b9181601f8401121561003f5782359167ffffffffffffffff831161003f576020838186019501011161003f57565b9061010060031983011261003f5760043567ffffffffffffffff811161003f57826100f59160040161009a565b9290929160243567ffffffffffffffff811161003f57826101189160040161009a565b90929091604435916064356001600160a01b038116810361003f57916084356001600160a01b038116810361003f579160a4356001600160a01b038116810361003f579160c4359160e4359067ffffffffffffffff821161003f5761017f9160040161009a565b909156fea2646970667358221220962896f848a8d4bd2eebe7ea3a965cc729f8e4ea4968d727ed3739c1525a8c4564736f6c634300081c0033","linkReferences":{}},"methodIdentifiers":{"afterHook(bytes,bytes,bytes32,address,address,address,uint256,bytes)":"d3128e3d","beforeHook(bytes,bytes,bytes32,address,address,address,uint256,bytes)":"a1422eb6"},"id":103}