{"abi":[{"type":"function","name":"assertClass","inputs":[{"name":"classId","type":"bytes32","internalType":"bytes32"},{"name":"subjectId","type":"bytes32","internalType":"bytes32"},{"name":"validFrom","type":"uint256","internalType":"uint256"},{"name":"validUntil","type":"uint256","internalType":"uint256"},{"name":"payloadURI","type":"string","internalType":"string"}],"outputs":[{"name":"assertionId","type":"uint256","internalType":"uint256"}],"stateMutability":"nonpayable"},{"type":"function","name":"assertionCount","inputs":[],"outputs":[{"name":"","type":"uint256","internalType":"uint256"}],"stateMutability":"view"},{"type":"function","name":"getAssertion","inputs":[{"name":"assertionId","type":"uint256","internalType":"uint256"}],"outputs":[{"name":"","type":"tuple","internalType":"struct ClassAssertion.AssertionRecord","components":[{"name":"assertionId","type":"uint256","internalType":"uint256"},{"name":"classId","type":"bytes32","internalType":"bytes32"},{"name":"subjectId","type":"bytes32","internalType":"bytes32"},{"name":"asserter","type":"address","internalType":"address"},{"name":"validFrom","type":"uint256","internalType":"uint256"},{"name":"validUntil","type":"uint256","internalType":"uint256"},{"name":"revoked","type":"bool","internalType":"bool"},{"name":"payloadURI","type":"string","internalType":"string"}]}],"stateMutability":"view"},{"type":"function","name":"getAssertionsByAsserter","inputs":[{"name":"asserter","type":"address","internalType":"address"}],"outputs":[{"name":"","type":"uint256[]","internalType":"uint256[]"}],"stateMutability":"view"},{"type":"function","name":"getAssertionsByClass","inputs":[{"name":"classId","type":"bytes32","internalType":"bytes32"}],"outputs":[{"name":"","type":"uint256[]","internalType":"uint256[]"}],"stateMutability":"view"},{"type":"function","name":"getAssertionsBySubject","inputs":[{"name":"subjectId","type":"bytes32","internalType":"bytes32"}],"outputs":[{"name":"","type":"uint256[]","internalType":"uint256[]"}],"stateMutability":"view"},{"type":"function","name":"isAssertionCurrentlyValid","inputs":[{"name":"assertionId","type":"uint256","internalType":"uint256"}],"outputs":[{"name":"","type":"bool","internalType":"bool"}],"stateMutability":"view"},{"type":"function","name":"revokeAssertion","inputs":[{"name":"assertionId","type":"uint256","internalType":"uint256"}],"outputs":[],"stateMutability":"nonpayable"},{"type":"event","name":"ClassAssertionMade","inputs":[{"name":"assertionId","type":"uint256","indexed":true,"internalType":"uint256"},{"name":"classId","type":"bytes32","indexed":true,"internalType":"bytes32"},{"name":"subjectId","type":"bytes32","indexed":true,"internalType":"bytes32"},{"name":"asserter","type":"address","indexed":false,"internalType":"address"},{"name":"validFrom","type":"uint256","indexed":false,"internalType":"uint256"},{"name":"validUntil","type":"uint256","indexed":false,"internalType":"uint256"},{"name":"payloadURI","type":"string","indexed":false,"internalType":"string"}],"anonymous":false},{"type":"event","name":"ClassAssertionRevoked","inputs":[{"name":"assertionId","type":"uint256","indexed":true,"internalType":"uint256"},{"name":"revoker","type":"address","indexed":true,"internalType":"address"}],"anonymous":false},{"type":"error","name":"AlreadyRevoked","inputs":[]},{"type":"error","name":"AssertionNotFound","inputs":[]},{"type":"error","name":"InvalidAssertion","inputs":[]},{"type":"error","name":"NotAuthorized","inputs":[]}],"bytecode":{"object":"0x608080604052346015576109f1908161001a8239f35b5f80fdfe6080806040526004361015610012575f80fd5b5f3560e01c90816302d1fd40146107e457508063109cc6cc1461043357806316d2569e146103bd5780631d99e167146101d857806332e28a39146101bc578063478390c4146101485780637e0792ef146101205763fac13f7a14610074575f80fd5b3461011c57602036600319011261011c576004355f5481101561010d5761009a816108bb565b50600681019081549060ff82166100fe57600301546001600160a01b031633036100ef5760ff1916600117905533907f985a6bd22439a17a184ff26ad325a643e6adca12c12523e2b1adf96fcb6380b05f80a3005b63ea8e4eb560e01b5f5260045ffd5b63905e710760e01b5f5260045ffd5b6325f67a0760e21b5f5260045ffd5b5f80fd5b3461011c57602036600319011261011c57602061013e600435610966565b6040519015158152f35b3461011c57602036600319011261011c576004355f52600260205260405f206040519081602082549182815201915f5260205f20905f5b8181106101a6576101a28561019681870382610899565b60405191829182610843565b0390f35b825484526020909301926001928301920161017f565b3461011c575f36600319011261011c5760205f54604051908152f35b3461011c57602036600319011261011c57600435606060e06040516101fc8161087c565b5f81525f60208201525f60408201525f838201525f60808201525f60a08201525f60c082015201525f5481101561010d57610236906108bb565b506040516102438161087c565b81548152600182015491602082019283526002810154906040830191825260018060a01b036003820154166060840190815260048201546080850190815260058301549160a08601928352600760ff6006860154169460c0880195151586520194604051955f908054906102b682610907565b808a5291600181169081156103965750600114610359575b8a6101408b60208c8c8c8c8c8c6102e7868e0387610899565b60e08801958652604051998a98888a5251888a015251604089015251606088015260018060a01b0390511660808701525160a08601525160c085015251151560e08401525161010080840152805191829182610120860152018484015e5f828201840152601f01601f19168101030190f35b5f908152602081209092505b81831061037c5750508601602001816102e76102ce565b6001816020929493945483858d0101520191019190610365565b60ff19166020808c019190915292151560051b8a0190920192508391506102e790506102ce565b3461011c57602036600319011261011c576004356001600160a01b0381169081900361011c575f52600360205260405f206040519081602082549182815201915f5260205f20905f5b81811061041d576101a28561019681870382610899565b8254845260209093019260019283019201610406565b3461011c5760a036600319011261011c5760643560843560243560043560443567ffffffffffffffff841161011c573660238501121561011c5783600401359067ffffffffffffffff821161011c576024850194602483369201011161011c57821580156107dc575b6107bb57851515806107d3575b806107ca575b6107bb57806107af5750600160401b42915b5f5495866040516104d18161087c565b81815260208101878152604082018981528b6060840133815260808501908a825260a0860192835260c08601935f8552601f19601f8b01169a8b9861051c60206040519b018b610899565b8b8a528b8b60208c01375f60208d8c01015260e08901998a5210156107885761054a8f600181015f556108bb565b96909661079c57600797518755516001870155516002860155600385019060018060a01b039051166bffffffffffffffffffffffff60a01b825416179055516004840155516005830155600682019051151560ff8019835416911617905501905180519067ffffffffffffffff8211610788576105c78354610907565b601f8111610743575b509160209a9593918a9795938c90601f83116001146106b1579460a096945f9484899584957f927805bf8816f7d2407ab2afe4ac2f3c215b176f915858de49e93f1219692da89d9c9a89926106a6575b50508160011b9188199060031b1c19161790555b8b855260018f526106488b6040872061093f565b8c855260028f5261065c8b6040872061093f565b33855260038f526106708b6040872061093f565b604051988997338952602089015260408801526080606088015281608088015283870137840101528101030190a4604051908152f35b015190505f80610620565b90601f19831691845f52815f20925f5b81811061072857509460018589957f927805bf8816f7d2407ab2afe4ac2f3c215b176f915858de49e93f1219692da89d9c9a9560a09c9a958d995f9b10610710575b505050811b019055610634565b0151891960f88460031b161c191690555f8080610703565b8383015185558f9c50600190940193602093840193016106c1565b835f5260205f20601f840160051c8101916020851061077e575b601f0160051c01905b81811061077357506105d0565b5f8155600101610766565b909150819061075d565b634e487b7160e01b5f52604160045260245ffd5b634e487b7160e01b5f525f60045260245ffd5b600160401b90916104c1565b6359f5548f60e11b5f5260045ffd5b508086106104af565b508015156104a9565b50831561049c565b3461011c57602036600319011261011c576004355f52600160205260405f20805480835260208301915f5260205f20905f5b81811061082d576101a28561019681870382610899565b8254845260209093019260019283019201610816565b60206040818301928281528451809452019201905f5b8181106108665750505090565b8251845260209384019390920191600101610859565b610100810190811067ffffffffffffffff82111761078857604052565b90601f8019910116810190811067ffffffffffffffff82111761078857604052565b5f548110156108f3575f80805260039190911b7f290decd9548b62a8d60345a988386fc84ba6bc95484008f6362f93160ef3e5630191565b634e487b7160e01b5f52603260045260245ffd5b90600182811c92168015610935575b602083101461092157565b634e487b7160e01b5f52602260045260245ffd5b91607f1691610916565b805490600160401b82101561078857600182018082558210156108f3575f5260205f200155565b5f5481101561010d57610978906108bb565b5060ff6006820154166109b657600481015442106109b6576005015480151590816109ac575b506109a857600190565b5f90565b905042115f61099e565b505f9056fea2646970667358221220a19632781d3399cbd3d6fd90ab0021120302b4b3d8a58ed59af0e264df5299f964736f6c634300081c0033","linkReferences":{}},"methodIdentifiers":{"assertClass(bytes32,bytes32,uint256,uint256,string)":"109cc6cc","assertionCount()":"32e28a39","getAssertion(uint256)":"1d99e167","getAssertionsByAsserter(address)":"16d2569e","getAssertionsByClass(bytes32)":"02d1fd40","getAssertionsBySubject(bytes32)":"478390c4","isAssertionCurrentlyValid(uint256)":"7e0792ef","revokeAssertion(uint256)":"fac13f7a"},"id":94}