{"abi":[{"type":"function","name":"PAYMASTER_DATA_OFFSET","inputs":[],"outputs":[{"name":"","type":"uint256","internalType":"uint256"}],"stateMutability":"view"},{"type":"function","name":"PAYMASTER_POSTOP_GAS_OFFSET","inputs":[],"outputs":[{"name":"","type":"uint256","internalType":"uint256"}],"stateMutability":"view"},{"type":"function","name":"PAYMASTER_VALIDATION_GAS_OFFSET","inputs":[],"outputs":[{"name":"","type":"uint256","internalType":"uint256"}],"stateMutability":"view"},{"type":"error","name":"InvalidPaymasterSignatureLength","inputs":[{"name":"dataLength","type":"uint256","internalType":"uint256"},{"name":"pmSignatureLength","type":"uint256","internalType":"uint256"}]}],"bytecode":{"object":"0x60a76032600b8282823980515f1a607314602657634e487b7160e01b5f525f60045260245ffd5b305f52607381538281f3fe73000000000000000000000000000000000000000030146080604052600436106046575f3560e01c806325093e1b14604a578063b29a8ff4146063578063ede3150214606a575b5f5ffd5b6051602481565b60405190815260200160405180910390f35b6051601481565b605160348156fea2646970667358221220e00bd6d2ad8a8a2d24cc24b4fba7619da46dbab03820bf7c6ba21adf45daa6d164736f6c634300081c0033","linkReferences":{}},"methodIdentifiers":{"PAYMASTER_DATA_OFFSET()":"ede31502","PAYMASTER_POSTOP_GAS_OFFSET()":"25093e1b","PAYMASTER_VALIDATION_GAS_OFFSET()":"b29a8ff4"},"id":7}