{"abi":[{"type":"constructor","inputs":[{"name":"_accountFactory","type":"address","internalType":"contract AgentAccountFactory"}],"stateMutability":"nonpayable"},{"type":"function","name":"accountFactory","inputs":[],"outputs":[{"name":"","type":"address","internalType":"contract AgentAccountFactory"}],"stateMutability":"view"},{"type":"function","name":"accountImplementation","inputs":[],"outputs":[{"name":"","type":"address","internalType":"contract AgentAccount"}],"stateMutability":"view"},{"type":"function","name":"bundlerSigner","inputs":[],"outputs":[{"name":"","type":"address","internalType":"address"}],"stateMutability":"view"},{"type":"function","name":"delegationManager","inputs":[],"outputs":[{"name":"","type":"address","internalType":"address"}],"stateMutability":"view"},{"type":"function","name":"deploySession","inputs":[{"name":"owner","type":"address","internalType":"address"},{"name":"salt","type":"bytes32","internalType":"bytes32"},{"name":"validators","type":"address[]","internalType":"address[]"},{"name":"validatorInits","type":"bytes[]","internalType":"bytes[]"},{"name":"hooks","type":"address[]","internalType":"address[]"},{"name":"hookInits","type":"bytes[]","internalType":"bytes[]"}],"outputs":[{"name":"account","type":"address","internalType":"address"}],"stateMutability":"nonpayable"},{"type":"function","name":"getAddress","inputs":[{"name":"owner","type":"address","internalType":"address"},{"name":"salt","type":"bytes32","internalType":"bytes32"}],"outputs":[{"name":"","type":"address","internalType":"address"}],"stateMutability":"view"},{"type":"function","name":"sessionIssuer","inputs":[],"outputs":[{"name":"","type":"address","internalType":"address"}],"stateMutability":"view"},{"type":"event","name":"SessionAgentAccountDeployed","inputs":[{"name":"account","type":"address","indexed":true,"internalType":"address"},{"name":"owner","type":"address","indexed":true,"internalType":"address"},{"name":"salt","type":"bytes32","indexed":true,"internalType":"bytes32"},{"name":"validatorCount","type":"uint256","indexed":false,"internalType":"uint256"},{"name":"hookCount","type":"uint256","indexed":false,"internalType":"uint256"}],"anonymous":false},{"type":"error","name":"AlreadyDeployed","inputs":[{"name":"account","type":"address","internalType":"address"}]},{"type":"error","name":"LengthMismatch","inputs":[]},{"type":"error","name":"ZeroAddress","inputs":[]}],"bytecode":{"object":"0x60e0806040523461011f57602081610d46803803809161001f8285610179565b83398101031261011f57516001600160a01b0381169081810361011f576080526040516308a327df60e11b8152602081600481855afa90811561012b575f91610136575b5060a05260405163ea4d3c9b60e01b815290602090829060049082905afa90811561012b575f916100e5575b5060c052604051610b9590816101b1823960805181818160ff0152818161015301526105c4015260a05181818161034d015281816105730152610812015260c051818181607e015281816102db01526107980152f35b90506020813d602011610123575b8161010060209383610179565b8101031261011f57516001600160a01b038116810361011f575f61008f565b5f80fd5b3d91506100f3565b6040513d5f823e3d90fd5b90506020813d602011610171575b8161015160209383610179565b8101031261011f57516001600160a01b038116810361011f576004610063565b3d9150610144565b601f909101601f19168101906001600160401b0382119082101761019c57604052565b634e487b7160e01b5f52604160045260245ffdfe6080806040526004361015610012575f80fd5b5f3560e01c9081630aca0632146105a25750806311464fbe1461055e57806323ee16bc146101d857806363d935671461012e578063687cd9c1146100ea5780637ac4ed64146100b15763ea4d3c9b14610069575f80fd5b346100ad575f3660031901126100ad576040517f00000000000000000000000000000000000000000000000000000000000000006001600160a01b03168152602090f35b5f80fd5b346100ad5760403660031901126100ad5760206100d86100cf610610565b6024359061076e565b6040516001600160a01b039091168152f35b346100ad575f3660031901126100ad576040517f00000000000000000000000000000000000000000000000000000000000000006001600160a01b03168152602090f35b346100ad575f3660031901126100ad576040516363d9356760e01b81526020816004817f00000000000000000000000000000000000000000000000000000000000000006001600160a01b03165afa80156101cd576020915f916101a0575b506040516001600160a01b039091168152f35b6101c09150823d84116101c6575b6101b88183610657565b810190610679565b8261018d565b503d6101ae565b6040513d5f823e3d90fd5b346100ad5760c03660031901126100ad576101f1610610565b6024359060443567ffffffffffffffff81116100ad57610215903690600401610626565b92909160643567ffffffffffffffff81116100ad57610238903690600401610626565b9360843567ffffffffffffffff81116100ad57610259903690600401610626565b92909160a43567ffffffffffffffff81116100ad5761027c903690600401610626565b6001600160a01b038716969193909291871561054f57898b0361054057838703610540576102aa898261076e565b803b610520575060405163046f517360e41b60208201526001600160a01b03918216602482015230604482018190527f0000000000000000000000000000000000000000000000000000000000000000909216606482015260848101919091526103218160a481015b03601f198101835282610657565b6040516102a28082019082821067ffffffffffffffff83111761050c578b93839261037b926108be85397f00000000000000000000000000000000000000000000000000000000000000006001600160a01b031690610698565b03905ff580156101cd576001600160a01b0316985f5b8b80821061047b5750505050505f5b8481106103e557505050507f3de52004ca404ba67ea97598d9fa4fad79741ef4b457a1439863b3358740407260406020968693825191825288820152a4604051908152f35b6103f86103f38287876106d4565b6106f8565b9061040481848661070c565b8a9391933b156100ad57604051639517e29f60e01b81526004808201526001600160a01b0390921660248301526060604483015290925f918491829161044f9160648401919061074e565b0381838d5af19182156101cd5760019261046b575b50016103a0565b5f61047591610657565b8a610464565b6103f38261048992876106d4565b9061049581848661070c565b908d3b156100ad57604051639517e29f60e01b8152600160048201526001600160a01b039094166024850152606060448501525f9184918f918391859183916104e291606484019161074e565b03925af19182156101cd576001926104fc575b5001610391565b5f61050691610657565b8d6104f5565b634e487b7160e01b5f52604160045260245ffd5b6329ab51bf60e01b5f9081526001600160a01b0391909116600452602490fd5b631fec674760e31b5f5260045ffd5b63d92e233d60e01b5f5260045ffd5b346100ad575f3660031901126100ad576040517f00000000000000000000000000000000000000000000000000000000000000006001600160a01b03168152602090f35b346100ad575f3660031901126100ad57630565031960e11b81526020816004817f00000000000000000000000000000000000000000000000000000000000000006001600160a01b03165afa80156101cd576020915f916101a057506040516001600160a01b039091168152f35b600435906001600160a01b03821682036100ad57565b9181601f840112156100ad5782359167ffffffffffffffff83116100ad576020808501948460051b0101116100ad57565b90601f8019910116810190811067ffffffffffffffff82111761050c57604052565b908160209103126100ad57516001600160a01b03811681036100ad5790565b6001600160a01b0390911681526040602080830182905283519183018290526060938291018484015e5f828201840152601f01601f1916010190565b91908110156106e45760051b0190565b634e487b7160e01b5f52603260045260245ffd5b356001600160a01b03811681036100ad5790565b91908110156106e45760051b81013590601e19813603018212156100ad57019081359167ffffffffffffffff83116100ad5760200182360381136100ad579190565b908060209392818452848401375f828201840152601f01601f1916010190565b60405163046f517360e41b60208201526001600160a01b03918216602482015230604482018190527f0000000000000000000000000000000000000000000000000000000000000000909216606482015260848101919091526107d48160a48101610313565b604051906108776102a26107eb6020820185610657565b80845260208401906108be8239602060405193610846856108388482019360018060a01b037f00000000000000000000000000000000000000000000000000000000000000001685610698565b03601f198101875286610657565b60405194859383850197518091895e840190838201905f8252519283915e01015f815203601f198101835282610657565b5190209060405191602083019160ff60f81b83523060601b602185015260358401526055830152605582526108ad607583610657565b905190206001600160a01b03169056fe60806040526102a2803803806100148161016e565b9283398101604082820312610156578151916001600160a01b03831690818403610156576020810151906001600160401b038211610156570182601f82011215610156578051906001600160401b03821161015a5761007c601f8301601f191660200161016e565b938285526020838301011161015657815f9260208093018387015e8401015281511561014757823b15610135577f360894a13ba1a3210667c828492db98dca3e2076cc3735a920a3ca505d382bbc80546001600160a01b031916821790557fbc7cd75a20ee27fd9adebab32041f755214dbc6bffa90cc0225b39da2e5c2d3b5f80a280511561011e5761010e91610193565b505b604051608290816102208239f35b505034156101105763b398979f60e01b5f5260045ffd5b634c9c8ce360e01b5f5260045260245ffd5b6330a289cf60e21b5f5260045ffd5b5f80fd5b634e487b7160e01b5f52604160045260245ffd5b6040519190601f01601f191682016001600160401b0381118382101761015a57604052565b905f8091602081519101845af4808061020c575b156101c75750506040513d81523d5f602083013e60203d82010160405290565b156101ec57639996b31560e01b5f9081526001600160a01b0391909116600452602490fd5b3d156101fd576040513d5f823e3d90fd5b63d6bda27560e01b5f5260045ffd5b503d1515806101a75750813b15156101a756fe60806040527f360894a13ba1a3210667c828492db98dca3e2076cc3735a920a3ca505d382bbc545f9081906001600160a01b0316368280378136915af43d5f803e156048573d5ff35b3d5ffdfea26469706673582212204fafc0dca87cad63ceb87f77cef74ae1959ef82216dbd5830fe2a5f379ca8eba64736f6c634300081c0033a26469706673582212204bb2ebd1b9556f4eeffa597a28b9bdf7209c26623be1cfe663967f77178caf9d64736f6c634300081c0033","linkReferences":{}},"methodIdentifiers":{"accountFactory()":"687cd9c1","accountImplementation()":"11464fbe","bundlerSigner()":"63d93567","delegationManager()":"ea4d3c9b","deploySession(address,bytes32,address[],bytes[],address[],bytes[])":"23ee16bc","getAddress(address,bytes32)":"7ac4ed64","sessionIssuer()":"0aca0632"},"id":120}