{"abi":[{"type":"constructor","inputs":[{"name":"_accountFactory","type":"address","internalType":"contract AgentAccountFactory"}],"stateMutability":"nonpayable"},{"type":"function","name":"accountFactory","inputs":[],"outputs":[{"name":"","type":"address","internalType":"contract AgentAccountFactory"}],"stateMutability":"view"},{"type":"function","name":"accountImplementation","inputs":[],"outputs":[{"name":"","type":"address","internalType":"contract AgentAccount"}],"stateMutability":"view"},{"type":"function","name":"delegationManager","inputs":[],"outputs":[{"name":"","type":"address","internalType":"address"}],"stateMutability":"view"},{"type":"function","name":"deploySession","inputs":[{"name":"owner","type":"address","internalType":"address"},{"name":"salt","type":"bytes32","internalType":"bytes32"},{"name":"validators","type":"address[]","internalType":"address[]"},{"name":"validatorInits","type":"bytes[]","internalType":"bytes[]"},{"name":"hooks","type":"address[]","internalType":"address[]"},{"name":"hookInits","type":"bytes[]","internalType":"bytes[]"}],"outputs":[{"name":"account","type":"address","internalType":"address"}],"stateMutability":"nonpayable"},{"type":"function","name":"getAddress","inputs":[{"name":"owner","type":"address","internalType":"address"},{"name":"salt","type":"bytes32","internalType":"bytes32"}],"outputs":[{"name":"","type":"address","internalType":"address"}],"stateMutability":"view"},{"type":"event","name":"SessionAgentAccountDeployed","inputs":[{"name":"account","type":"address","indexed":true,"internalType":"address"},{"name":"owner","type":"address","indexed":true,"internalType":"address"},{"name":"salt","type":"bytes32","indexed":true,"internalType":"bytes32"},{"name":"validatorCount","type":"uint256","indexed":false,"internalType":"uint256"},{"name":"hookCount","type":"uint256","indexed":false,"internalType":"uint256"}],"anonymous":false},{"type":"error","name":"AlreadyDeployed","inputs":[{"name":"account","type":"address","internalType":"address"}]},{"type":"error","name":"LengthMismatch","inputs":[]},{"type":"error","name":"ZeroAddress","inputs":[]}],"bytecode":{"object":"0x60e0806040523461011157602081610bdf803803809161001f828561016b565b83398101031261011157516001600160a01b03811690818103610111576080526040516308a327df60e11b8152602081600481855afa90811561011d575f91610128575b5060a05260405163ea4d3c9b60e01b815290602090829060049082905afa90811561011d575f916100d7575b5060c052604051610a3c90816101a382396080518160e9015260a051818181610283015281816104b101526106b9015260c05181818160680152818161021901526106470152f35b90506020813d602011610115575b816100f26020938361016b565b8101031261011157516001600160a01b0381168103610111575f61008f565b5f80fd5b3d91506100e5565b6040513d5f823e3d90fd5b90506020813d602011610163575b816101436020938361016b565b8101031261011157516001600160a01b0381168103610111576004610063565b3d9150610136565b601f909101601f19168101906001600160401b0382119082101761018e57604052565b634e487b7160e01b5f52604160045260245ffdfe6080806040526004361015610012575f80fd5b5f3560e01c90816311464fbe1461049f5750806323ee16bc14610118578063687cd9c1146100d45780637ac4ed641461009b5763ea4d3c9b14610053575f80fd5b34610097575f366003190112610097576040517f00000000000000000000000000000000000000000000000000000000000000006001600160a01b03168152602090f35b5f80fd5b346100975760403660031901126100975760206100c26100b96104e0565b6024359061061f565b6040516001600160a01b039091168152f35b34610097575f366003190112610097576040517f00000000000000000000000000000000000000000000000000000000000000006001600160a01b03168152602090f35b346100975760c0366003190112610097576101316104e0565b6024359060443567ffffffffffffffff8111610097576101559036906004016104f6565b92909160643567ffffffffffffffff8111610097576101789036906004016104f6565b9360843567ffffffffffffffff8111610097576101999036906004016104f6565b92909160a43567ffffffffffffffff8111610097576101bc9036906004016104f6565b6001600160a01b038716969193909291871561049057898b0361048157838703610481576101ea898261061f565b803b610461575060405163c0c53b8b60e01b60208201526001600160a01b0391821660248201523060448201527f0000000000000000000000000000000000000000000000000000000000000000909116606482015261025781608481015b03601f198101835282610527565b6040516102a28082019082821067ffffffffffffffff83111761044d578b9383926102b19261076585397f00000000000000000000000000000000000000000000000000000000000000006001600160a01b031690610549565b03905ff580156103b1576001600160a01b0316985f5b8b8082106103bc5750505050505f5b84811061031b57505050507f3de52004ca404ba67ea97598d9fa4fad79741ef4b457a1439863b3358740407260406020968693825191825288820152a4604051908152f35b61032e610329828787610585565b6105a9565b9061033a8184866105bd565b8a9391933b1561009757604051639517e29f60e01b81526004808201526001600160a01b0390921660248301526060604483015290925f9184918291610385916064840191906105ff565b0381838d5af19182156103b1576001926103a1575b50016102d6565b5f6103ab91610527565b8a61039a565b6040513d5f823e3d90fd5b610329826103ca9287610585565b906103d68184866105bd565b908d3b1561009757604051639517e29f60e01b8152600160048201526001600160a01b039094166024850152606060448501525f9184918f918391859183916104239160648401916105ff565b03925af19182156103b15760019261043d575b50016102c7565b5f61044791610527565b8d610436565b634e487b7160e01b5f52604160045260245ffd5b6329ab51bf60e01b5f9081526001600160a01b0391909116600452602490fd5b631fec674760e31b5f5260045ffd5b63d92e233d60e01b5f5260045ffd5b34610097575f366003190112610097577f00000000000000000000000000000000000000000000000000000000000000006001600160a01b03168152602090f35b600435906001600160a01b038216820361009757565b9181601f840112156100975782359167ffffffffffffffff8311610097576020808501948460051b01011161009757565b90601f8019910116810190811067ffffffffffffffff82111761044d57604052565b6001600160a01b0390911681526040602080830182905283519183018290526060938291018484015e5f828201840152601f01601f1916010190565b91908110156105955760051b0190565b634e487b7160e01b5f52603260045260245ffd5b356001600160a01b03811681036100975790565b91908110156105955760051b81013590601e198136030182121561009757019081359167ffffffffffffffff8311610097576020018236038113610097579190565b908060209392818452848401375f828201840152601f01601f1916010190565b60405163c0c53b8b60e01b60208201526001600160a01b0391821660248201523060448201527f0000000000000000000000000000000000000000000000000000000000000000909116606482015261067b8160848101610249565b6040519061071e6102a26106926020820185610527565b808452602084019061076582396020604051936106ed856106df8482019360018060a01b037f00000000000000000000000000000000000000000000000000000000000000001685610549565b03601f198101875286610527565b60405194859383850197518091895e840190838201905f8252519283915e01015f815203601f198101835282610527565b5190209060405191602083019160ff60f81b83523060601b60218501526035840152605583015260558252610754607583610527565b905190206001600160a01b03169056fe60806040526102a2803803806100148161016e565b9283398101604082820312610156578151916001600160a01b03831690818403610156576020810151906001600160401b038211610156570182601f82011215610156578051906001600160401b03821161015a5761007c601f8301601f191660200161016e565b938285526020838301011161015657815f9260208093018387015e8401015281511561014757823b15610135577f360894a13ba1a3210667c828492db98dca3e2076cc3735a920a3ca505d382bbc80546001600160a01b031916821790557fbc7cd75a20ee27fd9adebab32041f755214dbc6bffa90cc0225b39da2e5c2d3b5f80a280511561011e5761010e91610193565b505b604051608290816102208239f35b505034156101105763b398979f60e01b5f5260045ffd5b634c9c8ce360e01b5f5260045260245ffd5b6330a289cf60e21b5f5260045ffd5b5f80fd5b634e487b7160e01b5f52604160045260245ffd5b6040519190601f01601f191682016001600160401b0381118382101761015a57604052565b905f8091602081519101845af4808061020c575b156101c75750506040513d81523d5f602083013e60203d82010160405290565b156101ec57639996b31560e01b5f9081526001600160a01b0391909116600452602490fd5b3d156101fd576040513d5f823e3d90fd5b63d6bda27560e01b5f5260045ffd5b503d1515806101a75750813b15156101a756fe60806040527f360894a13ba1a3210667c828492db98dca3e2076cc3735a920a3ca505d382bbc545f9081906001600160a01b0316368280378136915af43d5f803e156048573d5ff35b3d5ffdfea26469706673582212204fafc0dca87cad63ceb87f77cef74ae1959ef82216dbd5830fe2a5f379ca8eba64736f6c634300081c0033a2646970667358221220e2674a410ad5fa186894be07b814d1f701a523af0daf97d906f37384d319d31964736f6c634300081c0033","linkReferences":{}},"methodIdentifiers":{"accountFactory()":"687cd9c1","accountImplementation()":"11464fbe","delegationManager()":"ea4d3c9b","deploySession(address,bytes32,address[],bytes[],address[],bytes[])":"23ee16bc","getAddress(address,bytes32)":"7ac4ed64"},"id":81}