{"abi":[{"type":"constructor","inputs":[{"name":"curator_","type":"address","internalType":"address"}],"stateMutability":"nonpayable"},{"type":"function","name":"ANY_SKILL","inputs":[],"outputs":[{"name":"","type":"bytes32","internalType":"bytes32"}],"stateMutability":"view"},{"type":"function","name":"MAX_TRUST","inputs":[],"outputs":[{"name":"","type":"uint16","internalType":"uint16"}],"stateMutability":"view"},{"type":"function","name":"activateIssuer","inputs":[{"name":"account","type":"address","internalType":"address"}],"outputs":[],"stateMutability":"nonpayable"},{"type":"function","name":"allIssuers","inputs":[],"outputs":[{"name":"","type":"address[]","internalType":"address[]"}],"stateMutability":"view"},{"type":"function","name":"authoriseSkill","inputs":[{"name":"account","type":"address","internalType":"address"},{"name":"skillId","type":"bytes32","internalType":"bytes32"}],"outputs":[],"stateMutability":"nonpayable"},{"type":"function","name":"canIssue","inputs":[{"name":"account","type":"address","internalType":"address"},{"name":"skillId","type":"bytes32","internalType":"bytes32"}],"outputs":[{"name":"","type":"bool","internalType":"bool"}],"stateMutability":"view"},{"type":"function","name":"curator","inputs":[],"outputs":[{"name":"","type":"address","internalType":"address"}],"stateMutability":"view"},{"type":"function","name":"deactivateIssuer","inputs":[{"name":"account","type":"address","internalType":"address"}],"outputs":[],"stateMutability":"nonpayable"},{"type":"function","name":"getIssuer","inputs":[{"name":"account","type":"address","internalType":"address"}],"outputs":[{"name":"","type":"tuple","internalType":"struct SkillIssuerRegistry.Issuer","components":[{"name":"account","type":"address","internalType":"address"},{"name":"did","type":"string","internalType":"string"},{"name":"metadataURI","type":"string","internalType":"string"},{"name":"trustWeight","type":"uint16","internalType":"uint16"},{"name":"stakeWei","type":"uint128","internalType":"uint128"},{"name":"registeredAt","type":"uint64","internalType":"uint64"},{"name":"active","type":"bool","internalType":"bool"}]}],"stateMutability":"view"},{"type":"function","name":"isActive","inputs":[{"name":"account","type":"address","internalType":"address"}],"outputs":[{"name":"","type":"bool","internalType":"bool"}],"stateMutability":"view"},{"type":"function","name":"isRegistered","inputs":[{"name":"account","type":"address","internalType":"address"}],"outputs":[{"name":"","type":"bool","internalType":"bool"}],"stateMutability":"view"},{"type":"function","name":"issuerByDid","inputs":[{"name":"did","type":"string","internalType":"string"}],"outputs":[{"name":"","type":"address","internalType":"address"}],"stateMutability":"view"},{"type":"function","name":"issuerSkills","inputs":[{"name":"account","type":"address","internalType":"address"}],"outputs":[{"name":"","type":"bytes32[]","internalType":"bytes32[]"}],"stateMutability":"view"},{"type":"function","name":"registerIssuer","inputs":[{"name":"account","type":"address","internalType":"address"},{"name":"did","type":"string","internalType":"string"},{"name":"weight","type":"uint16","internalType":"uint16"},{"name":"initialStakeWei","type":"uint128","internalType":"uint128"},{"name":"metadataURI","type":"string","internalType":"string"},{"name":"skillIds","type":"bytes32[]","internalType":"bytes32[]"}],"outputs":[],"stateMutability":"nonpayable"},{"type":"function","name":"revokeSkill","inputs":[{"name":"account","type":"address","internalType":"address"},{"name":"skillId","type":"bytes32","internalType":"bytes32"}],"outputs":[],"stateMutability":"nonpayable"},{"type":"function","name":"setCurator","inputs":[{"name":"next","type":"address","internalType":"address"}],"outputs":[],"stateMutability":"nonpayable"},{"type":"function","name":"slash","inputs":[{"name":"account","type":"address","internalType":"address"},{"name":"amountWei","type":"uint128","internalType":"uint128"},{"name":"reason","type":"string","internalType":"string"}],"outputs":[],"stateMutability":"nonpayable"},{"type":"function","name":"trustWeight","inputs":[{"name":"account","type":"address","internalType":"address"}],"outputs":[{"name":"","type":"uint16","internalType":"uint16"}],"stateMutability":"view"},{"type":"function","name":"updateIssuer","inputs":[{"name":"account","type":"address","internalType":"address"},{"name":"weight","type":"uint16","internalType":"uint16"},{"name":"metadataURI","type":"string","internalType":"string"}],"outputs":[],"stateMutability":"nonpayable"},{"type":"event","name":"CuratorChanged","inputs":[{"name":"previous","type":"address","indexed":true,"internalType":"address"},{"name":"current","type":"address","indexed":true,"internalType":"address"}],"anonymous":false},{"type":"event","name":"IssuerActivated","inputs":[{"name":"account","type":"address","indexed":true,"internalType":"address"}],"anonymous":false},{"type":"event","name":"IssuerDeactivated","inputs":[{"name":"account","type":"address","indexed":true,"internalType":"address"}],"anonymous":false},{"type":"event","name":"IssuerRegistered","inputs":[{"name":"account","type":"address","indexed":true,"internalType":"address"},{"name":"did","type":"string","indexed":false,"internalType":"string"},{"name":"trustWeight","type":"uint16","indexed":false,"internalType":"uint16"},{"name":"stakeWei","type":"uint128","indexed":false,"internalType":"uint128"},{"name":"metadataURI","type":"string","indexed":false,"internalType":"string"}],"anonymous":false},{"type":"event","name":"IssuerSkillAuthorised","inputs":[{"name":"account","type":"address","indexed":true,"internalType":"address"},{"name":"skillId","type":"bytes32","indexed":true,"internalType":"bytes32"}],"anonymous":false},{"type":"event","name":"IssuerSkillRevoked","inputs":[{"name":"account","type":"address","indexed":true,"internalType":"address"},{"name":"skillId","type":"bytes32","indexed":true,"internalType":"bytes32"}],"anonymous":false},{"type":"event","name":"IssuerSlashed","inputs":[{"name":"account","type":"address","indexed":true,"internalType":"address"},{"name":"amountWei","type":"uint128","indexed":false,"internalType":"uint128"},{"name":"reason","type":"string","indexed":false,"internalType":"string"}],"anonymous":false},{"type":"event","name":"IssuerUpdated","inputs":[{"name":"account","type":"address","indexed":true,"internalType":"address"},{"name":"trustWeight","type":"uint16","indexed":false,"internalType":"uint16"},{"name":"metadataURI","type":"string","indexed":false,"internalType":"string"}],"anonymous":false},{"type":"error","name":"AlreadyRegistered","inputs":[]},{"type":"error","name":"InvalidStake","inputs":[]},{"type":"error","name":"InvalidTrust","inputs":[]},{"type":"error","name":"NotAuthorized","inputs":[]},{"type":"error","name":"NotCurator","inputs":[]},{"type":"error","name":"NotRegistered","inputs":[]}],"bytecode":{"object":"0x60803460a957601f6115b038819003918201601f19168301916001600160401b0383118484101760ad5780849260209460405283398101031260a957516001600160a01b03811680820360a95760a55750335b5f80546001600160a01b0319166001600160a01b0392909216918217815560405191907f206131fa2153f308c4643a2a67e96c3c805a822abbb9cbab031864789a130f138180a36114ee90816100c28239f35b6052565b5f80fd5b634e487b7160e01b5f52604160045260245ffdfe60806040526004361015610011575f80fd5b5f3560e01c80630fe8a4d914610e6057806342e54e1314610e465780634b86daab14610db9578063710fc4e614610d8a5780637a00913514610d035780637a17b0ad14610c9e5780637b27c32f14610bea578063846063d4146106d057806387859ac7146106365780639f8a13d7146105d4578063a787802e14610577578063c3c5a5471461052e578063c6339d3a146103f9578063da23c51514610331578063e66f53b71461030a578063e90956cf1461028e578063ed1b9af51461025d578063fe46b8ee146102415763fef03da3146100ea575f80fd5b3461023d57602036600319011261023d5761010361103f565b5f60c06040516101128161119b565b82815260606020820152606060408201528260608201528260808201528260a0820152015260018060a01b03165f52600160205260405f206040516101568161119b565b81546001600160a01b0316815261016f600183016112b4565b91602082019283526003610185600283016112b4565b916040840192835201546001600160401b03606084019261ffff831684526001600160801b0360808601818560101c16815261ffff61021b60a0890194868860901c16865260ff60c08b019860d01c16151588526102086040519b8c9b60208d5260018060a01b0390511660208d01525160e060408d01526101008c0190611082565b90518a8203601f190160608c0152611082565b9651166080880152511660a0860152511660c084015251151560e08301520390f35b5f80fd5b3461023d575f36600319011261023d5760206040516127108152f35b3461023d57604036600319011261023d57602061028461027b61103f565b60243590611228565b6040519015158152f35b3461023d57602036600319011261023d576102a761103f565b5f546001600160a01b03811691338390036102fb576001600160a01b03169182907f206131fa2153f308c4643a2a67e96c3c805a822abbb9cbab031864789a130f135f80a36001600160a01b031916175f55005b6356b381a560e01b5f5260045ffd5b3461023d575f36600319011261023d575f546040516001600160a01b039091168152602090f35b3461023d575f36600319011261023d576040518060206002549283815201809260025f527f405787fa12a823e0f2b7631cc41b3ba8828b3321ca811111fa75cd3aa3bb5ace905f5b8181106103da575050508161038f9103826111b6565b604051918291602083019060208452518091526040830191905f5b8181106103b8575050500390f35b82516001600160a01b03168452859450602093840193909201916001016103aa565b82546001600160a01b0316845260209093019260019283019201610379565b3461023d57606036600319011261023d5761041261103f565b602435906001600160801b03821680830361023d576044356001600160401b03811161023d57610446903690600401611055565b5f5491939092916001600160a01b031633036102fb5760018060a01b031693845f526001602052600360405f20019384546001600160401b038160901c161561051f5760101c6001600160801b03169182841161051057855471ffffffffffffffffffffffffffffffff00001916920360101b62010000600160901b0316919091179093557fc3e0380334e54f04e88f69ce76455df36f0b1f6470a6a78eb1a9cad7046ba59f9261050b905b604051938493845260406020850152604084019161112d565b0390a2005b634eba4d4960e11b5f5260045ffd5b63aba4733960e01b5f5260045ffd5b3461023d57602036600319011261023d576001600160a01b0361054f61103f565b165f52600160205260206001600160401b03600360405f20015460901c161515604051908152f35b3461023d57602036600319011261023d576004356001600160401b03811161023d5760206105aa81923690600401611055565b9190826040519384928337600390820190815203019020546040516001600160a01b039091168152f35b3461023d57602036600319011261023d576001600160a01b036105f561103f565b165f5260016020526020600360405f2001546001600160401b038160901c1615159081610628575b506040519015158152f35b60ff915060d01c168261061d565b3461023d57604036600319011261023d5761064f61103f565b5f5460243591906001600160a01b031633036102fb5760018060a01b0316805f52600460205260405f20825f5260205260ff60405f2054161561051f57805f52600460205260405f20825f5260205260405f2060ff1981541690557f7c74b18a62984015bf81303127bb7aab576f57ef821ea357f8d2f44df536718b5f80a3005b3461023d5760c036600319011261023d576106e961103f565b6024356001600160401b03811161023d57610708903690600401611055565b6044359161ffff831680930361023d57606435906001600160801b03821680920361023d576084356001600160401b03811161023d5761074c903690600401611055565b93909460a435946001600160401b03861161023d573660238701121561023d578560040135966001600160401b03881161023d573660248960051b8901011161023d575f546001600160a01b031633036102fb576001600160a01b038916958615610bdb576127108411610bcc57865f5260016020526001600160401b03600360405f20015460901c16610bbd576040516107e68161119b565b8781526107f43687896111f2565b602082019081526108063686866111f2565b604083019081526060830192878452608081019085825260a08101926001600160401b034216845260c0820194600186528d5f52600160205260405f209260018060a01b039060018060a01b03905116166bffffffffffffffffffffffff60a01b8454161783556001830190518051906001600160401b038211610ac4576108988261089285546110a6565b856110de565b602090601f8311600114610b5a576108c792915f9183610ad8575b50508160011b915f199060031b1c19161790565b90555b51805160028301916001600160401b038211610ac4576108ee8261089285546110a6565b602090601f8311600114610ae3576001600160801b039461096a96946109318561ffff9687966003965f92610ad85750508160011b915f199060031b1c19161790565b90555b019751161661ffff198754161786555116849062010000600160901b0382549160101b169062010000600160901b031916179055565b518254915168ffffffffffffffffff60901b1990921660909190911b67ffffffffffffffff60901b161790151560d01b60ff60d01b16179055600254600160401b811015610ac45760018101600255600254811015610ab05760025f527f405787fa12a823e0f2b7631cc41b3ba8828b3321ca811111fa75cd3aa3bb5ace0180546001600160a01b0319168817905584610a7f575b5f5b89811015610a2557600190610a1f60248260051b8c0101358d61140a565b01610a01565b50917f534901175614594b22dd5299853ae2a1104d65541d48970048496c41f25b8efc9594939161050b93610a6760405197889760808952608089019161112d565b9360208701526040860152848303606086015261112d565b604051858782376020818781016003815203019020876bffffffffffffffffffffffff60a01b8254161790556109ff565b634e487b7160e01b5f52603260045260245ffd5b634e487b7160e01b5f52604160045260245ffd5b015190505f806108b3565b90601f19831691845f52815f20925f5b818110610b4257509460018561ffff96956003956001600160801b039a95899861096a9d9b10610b2b575b505050811b019055610934565b01515f1983881b60f8161c191690555f8080610b1e565b92936020600181928786015181550195019301610af3565b90601f19831691845f52815f20925f5b818110610ba55750908460019594939210610b8d575b505050811b0190556108ca565b01515f1960f88460031b161c191690555f8080610b80565b92936020600181928786015181550195019301610b6a565b630ea075bf60e21b5f5260045ffd5b631d232af160e31b5f5260045ffd5b63ea8e4eb560e01b5f5260045ffd5b3461023d57602036600319011261023d576001600160a01b03610c0b61103f565b165f52600560205260405f20604051806020835491828152019081935f5260205f20905f5b818110610c885750505081610c469103826111b6565b604051918291602083019060208452518091526040830191905f5b818110610c6f575050500390f35b8251845285945060209384019390920191600101610c61565b8254845260209093019260019283019201610c30565b3461023d57604036600319011261023d57610cb761103f565b5f546001600160a01b031633036102fb576001600160a01b0381165f9081526001602052604090206003015460901c6001600160401b03161561051f57610d01906024359061140a565b005b3461023d57602036600319011261023d57610d1c61103f565b5f546001600160a01b031633036102fb576001600160a01b03165f8181526001602052604090206003018054609081901c6001600160401b03161561051f5760ff60d01b191690557fbd353cae5dce393e81582130369cd5e22da2ec7e943ffae3210a857b3a954fdf5f80a2005b3461023d57602036600319011261023d576020610dad610da861103f565b61114d565b61ffff60405191168152f35b3461023d57602036600319011261023d57610dd261103f565b5f546001600160a01b031633036102fb576001600160a01b03165f8181526001602052604090206003018054609081901c6001600160401b03161561051f5760ff60d01b1916600160d01b1790557ffeb937248dcd237f20a1c703b4ef9fab8a76046b455b8af63f0dc768201a50435f80a2005b3461023d575f36600319011261023d5760206040515f8152f35b3461023d57606036600319011261023d57610e7961103f565b6024359061ffff821680920361023d576044356001600160401b03811161023d57610ea8903690600401611055565b909260018060a01b03831692835f52600160205260405f2060038101916001600160401b03835460901c161561051f575f546001600160a01b0316331415908161102e575b50610bdb576127108311610bcc57815461ffff191683179091556002016001600160401b038311610ac457610f2c83610f2683546110a6565b836110de565b5f601f8411600114610fa5579461050b91610f7f85807f2b987cb03e1f4d0ec1f8c513d51588e6daa0345a9bd5df8495b9d9db317f956798995f91610f9a575b508160011b915f199060031b1c19161790565b9055604051938493845260406020850152604084019161112d565b90508401358a610f6c565b601f19841690825f5260205f20915f5b81811061101657509161050b9391867f2b987cb03e1f4d0ec1f8c513d51588e6daa0345a9bd5df8495b9d9db317f956798999410610ffd575b5050600185811b0190556104f2565b8301355f19600388901b60f8161c191690558780610fee565b9192602060018192868c013581550194019201610fb5565b6110389150611354565b1587610eed565b600435906001600160a01b038216820361023d57565b9181601f8401121561023d578235916001600160401b03831161023d576020838186019501011161023d57565b805180835260209291819084018484015e5f828201840152601f01601f1916010190565b90600182811c921680156110d4575b60208310146110c057565b634e487b7160e01b5f52602260045260245ffd5b91607f16916110b5565b601f82116110eb57505050565b5f5260205f20906020601f840160051c83019310611123575b601f0160051c01905b818110611118575050565b5f815560010161110d565b9091508190611104565b908060209392818452848401375f828201840152601f01601f1916010190565b6001600160a01b03165f90815260016020526040902060030154609081901c6001600160401b031615801561118d575b6111885761ffff1690565b505f90565b5060ff8160d01c161561117d565b60e081019081106001600160401b03821117610ac457604052565b90601f801991011681019081106001600160401b03821117610ac457604052565b6001600160401b038111610ac457601f01601f191660200190565b9291926111fe826111d7565b9161120c60405193846111b6565b82948184528183011161023d578281602093845f960137010152565b60018060a01b031690815f526001602052600360405f2001546001600160401b038160901c16159081156112a5575b5061129f57815f52600460205260405f20905f5260205260ff60405f205416908115611281575090565b90505f52600460205260405f205f805260205260ff60405f20541690565b50505f90565b60ff915060d01c16155f611257565b9060405191825f8254926112c7846110a6565b808452936001811690811561133257506001146112ee575b506112ec925003836111b6565b565b90505f9291925260205f20905f915b8183106113165750509060206112ec928201015f6112df565b60209193508060019154838589010152019101909184926112fd565b9050602092506112ec94915060ff191682840152151560051b8201015f6112df565b336001600160a01b0382161461140457803b15611188575f809160405160208101906317aa5fb760e11b8252336024820152602481526113956044826111b6565b51915afa3d156113fd573d6113a9816111d7565b906113b760405192836111b6565b81523d5f602083013e5b816113ef575b816113d0575090565b905060208180518101031261023d5760200151801515810361023d5790565b9050602081511015906113c7565b60606113c1565b50600190565b60018060a01b0316805f52600460205260405f20825f5260205260ff60405f2054166114b457805f52600460205260405f20825f5260205260405f20600160ff198254161790558161147d575b7f1bf2f0fa8c5e06617fae48e861d63ed5f5decfe6960fb5570161e79a78f545df5f80a3565b805f52600560205260405f208054600160401b811015610ac45760018101808355811015610ab05783915f5260205f200155611457565b505056fea2646970667358221220c7e7c123bcd341a5386f2ebc007003797cea990ba07d3ed397883a2f4c6699dd64736f6c634300081c0033","linkReferences":{}},"methodIdentifiers":{"ANY_SKILL()":"42e54e13","MAX_TRUST()":"fe46b8ee","activateIssuer(address)":"4b86daab","allIssuers()":"da23c515","authoriseSkill(address,bytes32)":"7a17b0ad","canIssue(address,bytes32)":"ed1b9af5","curator()":"e66f53b7","deactivateIssuer(address)":"7a009135","getIssuer(address)":"fef03da3","isActive(address)":"9f8a13d7","isRegistered(address)":"c3c5a547","issuerByDid(string)":"a787802e","issuerSkills(address)":"7b27c32f","registerIssuer(address,string,uint16,uint128,string,bytes32[])":"846063d4","revokeSkill(address,bytes32)":"87859ac7","setCurator(address)":"e90956cf","slash(address,uint128,string)":"c6339d3a","trustWeight(address)":"710fc4e6","updateIssuer(address,uint16,string)":"0fe8a4d9"},"id":93}