{"abi":[{"type":"function","name":"addAllowed","inputs":[{"name":"target","type":"address","internalType":"address"},{"name":"selector","type":"bytes4","internalType":"bytes4"}],"outputs":[],"stateMutability":"nonpayable"},{"type":"function","name":"isAllowed","inputs":[{"name":"account","type":"address","internalType":"address"},{"name":"target","type":"address","internalType":"address"},{"name":"selector","type":"bytes4","internalType":"bytes4"}],"outputs":[{"name":"","type":"bool","internalType":"bool"}],"stateMutability":"view"},{"type":"function","name":"isModuleType","inputs":[{"name":"moduleTypeId","type":"uint256","internalType":"uint256"}],"outputs":[{"name":"","type":"bool","internalType":"bool"}],"stateMutability":"pure"},{"type":"function","name":"moduleId","inputs":[],"outputs":[{"name":"","type":"string","internalType":"string"}],"stateMutability":"pure"},{"type":"function","name":"onInstall","inputs":[{"name":"data","type":"bytes","internalType":"bytes"}],"outputs":[],"stateMutability":"nonpayable"},{"type":"function","name":"onUninstall","inputs":[{"name":"data","type":"bytes","internalType":"bytes"}],"outputs":[],"stateMutability":"nonpayable"},{"type":"function","name":"postCheck","inputs":[{"name":"","type":"bytes","internalType":"bytes"}],"outputs":[],"stateMutability":"nonpayable"},{"type":"function","name":"preCheck","inputs":[{"name":"","type":"address","internalType":"address"},{"name":"","type":"uint256","internalType":"uint256"},{"name":"msgData","type":"bytes","internalType":"bytes"}],"outputs":[{"name":"","type":"bytes","internalType":"bytes"}],"stateMutability":"view"},{"type":"function","name":"removeAllowed","inputs":[{"name":"target","type":"address","internalType":"address"},{"name":"selector","type":"bytes4","internalType":"bytes4"}],"outputs":[],"stateMutability":"nonpayable"},{"type":"event","name":"Allowed","inputs":[{"name":"account","type":"address","indexed":true,"internalType":"address"},{"name":"target","type":"address","indexed":true,"internalType":"address"},{"name":"selector","type":"bytes4","indexed":true,"internalType":"bytes4"}],"anonymous":false},{"type":"event","name":"Disallowed","inputs":[{"name":"account","type":"address","indexed":true,"internalType":"address"},{"name":"target","type":"address","indexed":true,"internalType":"address"},{"name":"selector","type":"bytes4","indexed":true,"internalType":"bytes4"}],"anonymous":false},{"type":"error","name":"InvalidInitData","inputs":[]},{"type":"error","name":"NotAllowed","inputs":[{"name":"target","type":"address","internalType":"address"},{"name":"selector","type":"bytes4","internalType":"bytes4"}]},{"type":"error","name":"OnlyAccount","inputs":[]}],"bytecode":{"object":"0x60808060405234601557610903908161001a8239f35b5f80fdfe60806040526004361015610011575f80fd5b5f3560e01c8063113f035d146100a4578063173bf7da1461009f5780635f6e2cde1461009a5780636d61fe70146100955780638a91b0e31461009057806397b5e9d61461008b578063a1308f2714610086578063d68f6025146100815763ecd059611461007c575f80fd5b6104d6565b61047a565b610402565b610357565b610340565b610234565b6101c1565b6101b1565b34610128576040366003190112610128576004356100c18161012c565b6100c961013d565b335f525f60205260405f206100de8284610888565b5f5260205260405f2060ff19815416905563ffffffff60e01b169060018060a01b0316337f6642874f0403d5de65f458f457fbea8d843ae4d8f346196002cf367a8eed3e8d5f80a4005b5f80fd5b6001600160a01b0381160361012857565b602435906001600160e01b03198216820361012857565b9181601f840112156101285782359167ffffffffffffffff8311610128576020838186019501011161012857565b6020600319820112610128576004359067ffffffffffffffff8211610128576101ad91600401610154565b9091565b34610128576101bf36610182565b005b34610128576060366003190112610128576004356101de8161012c565b602435906101eb8261012c565b6044356001600160e01b0319811681036101285761021b9160018060a01b03165f525f60205260405f2092610888565b5f52602052602060ff60405f2054166040519015158152f35b346101285761024236610182565b90811561033157610255918101906105b9565b8151815103610331575f5b82518110156101bf57335f908152602081905260409020600191906102da906102cd906102c16102a0610293868a610660565b516001600160a01b031690565b6102bb6102ad878a610660565b516001600160e01b03191690565b90610888565b5f5260205260405f2090565b805460ff19166001179055565b6102e76102938286610660565b6001600160e01b03196102fd6102ad8487610660565b1690838060a01b0316337f8306267649a1d0bf570d2237d18d63cf27106243cd90d912bfc5b9a2a0a7fbe95f80a401610260565b6307ce216360e51b5f5260045ffd5b34610128576101bf61035136610182565b90610688565b34610128576040366003190112610128576004356103748161012c565b61037c61013d565b335f525f60205260405f206103918284610888565b5f5260205260405f20600160ff1982541617905563ffffffff60e01b169060018060a01b0316337f8306267649a1d0bf570d2237d18d63cf27106243cd90d912bfc5b9a2a0a7fbe95f80a4005b805180835260209291819084018484015e5f828201840152601f01601f1916010190565b34610128575f3660031901126101285761047660405161042360608261050b565b602c81527f736d6172742d6167656e742e7461726765742d73656c6563746f722d616c6c6f60208201526b776c6973742d686f6f6b2e3160a01b60408201526040519182916020835260208301906103de565b0390f35b346101285760603660031901126101285761049660043561012c565b60443567ffffffffffffffff8111610128576104c26104bc610476923690600401610154565b90610775565b6040519182916020835260208301906103de565b34610128576020366003190112610128576020600435600460405191148152f35b634e487b7160e01b5f52604160045260245ffd5b90601f8019910116810190811067ffffffffffffffff82111761052d57604052565b6104f7565b67ffffffffffffffff811161052d5760051b60200190565b9080601f830112156101285781359061056282610532565b92610570604051948561050b565b82845260208085019360051b82010191821161012857602001915b8183106105985750505090565b82356001600160e01b0319811681036101285781526020928301920161058b565b91909160408184031261012857803567ffffffffffffffff811161012857810183601f82011215610128578035906105f082610532565b916105fe604051938461050b565b80835260208084019160051b8301019186831161012857602001905b8282106106465750505092602082013567ffffffffffffffff811161012857610643920161054a565b90565b6020809183356106558161012c565b81520191019061061a565b80518210156106745760209160051b010190565b634e487b7160e01b5f52603260045260245ffd5b81156107415761069a918101906105b9565b81929151815103610331575f5b835181101561073b57335f908152602081905260409020600191906106e4906106da906102c16102a0610293868b610660565b805460ff19169055565b6106f16102938287610660565b6001600160e01b03196107076102ad8487610660565b1690838060a01b0316337f6642874f0403d5de65f458f457fbea8d843ae4d8f346196002cf367a8eed3e8d5f80a4016106a7565b50509050565b5050565b67ffffffffffffffff811161052d57601f01601f191660200190565b6040519061077060208361050b565b5f8252565b908101906060818303126101285780359061078f8261012c565b60408101359067ffffffffffffffff8211610128570182601f82011215610128578035906107bc82610745565b936107ca604051958661050b565b8285526020838301011161012857815f92602080930183870137840101526001600160a01b031633811461087e5730811461087e575f91600481511015610872575b50335f90815260208190526040902061083c9061083890610831906102c18686610888565b5460ff1690565b1590565b61084a575050610643610761565b63625ebf1760e11b5f526001600160a01b03166004526001600160e01b03191660245260445ffd5b6020015191505f61080c565b5050610643610761565b60405160609190911b6bffffffffffffffffffffffff1916602082019081526001600160e01b03199092166034820152601881526108c760388261050b565b5190209056fea2646970667358221220fb14e3e18b465f6792e18f49bc72c19b945e481b0aa15f89725ad760ec1038f664736f6c634300081c0033","linkReferences":{}},"methodIdentifiers":{"addAllowed(address,bytes4)":"97b5e9d6","isAllowed(address,address,bytes4)":"5f6e2cde","isModuleType(uint256)":"ecd05961","moduleId()":"a1308f27","onInstall(bytes)":"6d61fe70","onUninstall(bytes)":"8a91b0e3","postCheck(bytes)":"173bf7da","preCheck(address,uint256,bytes)":"d68f6025","removeAllowed(address,bytes4)":"113f035d"},"id":69}