{"abi":[{"type":"function","name":"ISSUER_AUDITOR","inputs":[],"outputs":[{"name":"","type":"bytes32","internalType":"bytes32"}],"stateMutability":"view"},{"type":"function","name":"ISSUER_COUNTERPARTY","inputs":[],"outputs":[{"name":"","type":"bytes32","internalType":"bytes32"}],"stateMutability":"view"},{"type":"function","name":"ISSUER_GOVERNANCE","inputs":[],"outputs":[{"name":"","type":"bytes32","internalType":"bytes32"}],"stateMutability":"view"},{"type":"function","name":"ISSUER_INSURER","inputs":[],"outputs":[{"name":"","type":"bytes32","internalType":"bytes32"}],"stateMutability":"view"},{"type":"function","name":"ISSUER_ORACLE","inputs":[],"outputs":[{"name":"","type":"bytes32","internalType":"bytes32"}],"stateMutability":"view"},{"type":"function","name":"ISSUER_ORGANIZATION","inputs":[],"outputs":[{"name":"","type":"bytes32","internalType":"bytes32"}],"stateMutability":"view"},{"type":"function","name":"ISSUER_SELF","inputs":[],"outputs":[{"name":"","type":"bytes32","internalType":"bytes32"}],"stateMutability":"view"},{"type":"function","name":"ISSUER_STAKING_POOL","inputs":[],"outputs":[{"name":"","type":"bytes32","internalType":"bytes32"}],"stateMutability":"view"},{"type":"function","name":"ISSUER_TEE_VERIFIER","inputs":[],"outputs":[{"name":"","type":"bytes32","internalType":"bytes32"}],"stateMutability":"view"},{"type":"function","name":"ISSUER_VALIDATOR","inputs":[],"outputs":[{"name":"","type":"bytes32","internalType":"bytes32"}],"stateMutability":"view"},{"type":"function","name":"VM_COUNTERPARTY_CONFIRMED","inputs":[],"outputs":[{"name":"","type":"bytes32","internalType":"bytes32"}],"stateMutability":"view"},{"type":"function","name":"VM_GOVERNANCE_APPROVED","inputs":[],"outputs":[{"name":"","type":"bytes32","internalType":"bytes32"}],"stateMutability":"view"},{"type":"function","name":"VM_INSURER_ISSUED","inputs":[],"outputs":[{"name":"","type":"bytes32","internalType":"bytes32"}],"stateMutability":"view"},{"type":"function","name":"VM_MUTUALLY_CONFIRMED","inputs":[],"outputs":[{"name":"","type":"bytes32","internalType":"bytes32"}],"stateMutability":"view"},{"type":"function","name":"VM_ORACLE_ATTESTED","inputs":[],"outputs":[{"name":"","type":"bytes32","internalType":"bytes32"}],"stateMutability":"view"},{"type":"function","name":"VM_REPRODUCIBLE_BUILD","inputs":[],"outputs":[{"name":"","type":"bytes32","internalType":"bytes32"}],"stateMutability":"view"},{"type":"function","name":"VM_SELF_ASSERTED","inputs":[],"outputs":[{"name":"","type":"bytes32","internalType":"bytes32"}],"stateMutability":"view"},{"type":"function","name":"VM_TEE_OFFCHAIN_AGGREGATED","inputs":[],"outputs":[{"name":"","type":"bytes32","internalType":"bytes32"}],"stateMutability":"view"},{"type":"function","name":"VM_TEE_ONCHAIN_VERIFIED","inputs":[],"outputs":[{"name":"","type":"bytes32","internalType":"bytes32"}],"stateMutability":"view"},{"type":"function","name":"VM_VALIDATOR_VERIFIED","inputs":[],"outputs":[{"name":"","type":"bytes32","internalType":"bytes32"}],"stateMutability":"view"},{"type":"function","name":"VM_ZK_VERIFIED","inputs":[],"outputs":[{"name":"","type":"bytes32","internalType":"bytes32"}],"stateMutability":"view"},{"type":"function","name":"activateIssuer","inputs":[{"name":"issuer","type":"address","internalType":"address"}],"outputs":[],"stateMutability":"nonpayable"},{"type":"function","name":"deactivateIssuer","inputs":[{"name":"issuer","type":"address","internalType":"address"}],"outputs":[],"stateMutability":"nonpayable"},{"type":"function","name":"getClaimTypes","inputs":[{"name":"issuer","type":"address","internalType":"address"}],"outputs":[{"name":"","type":"bytes32[]","internalType":"bytes32[]"}],"stateMutability":"view"},{"type":"function","name":"getIssuerAt","inputs":[{"name":"index","type":"uint256","internalType":"uint256"}],"outputs":[{"name":"","type":"address","internalType":"address"}],"stateMutability":"view"},{"type":"function","name":"getIssuersByType","inputs":[{"name":"issuerType","type":"bytes32","internalType":"bytes32"}],"outputs":[{"name":"","type":"address[]","internalType":"address[]"}],"stateMutability":"view"},{"type":"function","name":"getProfile","inputs":[{"name":"issuer","type":"address","internalType":"address"}],"outputs":[{"name":"issuer_","type":"address","internalType":"address"},{"name":"issuerType","type":"bytes32","internalType":"bytes32"},{"name":"name","type":"string","internalType":"string"},{"name":"description","type":"string","internalType":"string"},{"name":"metadataURI","type":"string","internalType":"string"},{"name":"registeredAt","type":"uint256","internalType":"uint256"},{"name":"active","type":"bool","internalType":"bool"}],"stateMutability":"view"},{"type":"function","name":"getValidationMethods","inputs":[{"name":"issuer","type":"address","internalType":"address"}],"outputs":[{"name":"","type":"bytes32[]","internalType":"bytes32[]"}],"stateMutability":"view"},{"type":"function","name":"isActive","inputs":[{"name":"issuer","type":"address","internalType":"address"}],"outputs":[{"name":"","type":"bool","internalType":"bool"}],"stateMutability":"view"},{"type":"function","name":"isRegistered","inputs":[{"name":"issuer","type":"address","internalType":"address"}],"outputs":[{"name":"","type":"bool","internalType":"bool"}],"stateMutability":"view"},{"type":"function","name":"issuerCount","inputs":[],"outputs":[{"name":"","type":"uint256","internalType":"uint256"}],"stateMutability":"view"},{"type":"function","name":"registerIssuer","inputs":[{"name":"issuer","type":"address","internalType":"address"},{"name":"issuerType","type":"bytes32","internalType":"bytes32"},{"name":"name","type":"string","internalType":"string"},{"name":"description","type":"string","internalType":"string"},{"name":"validationMethods","type":"bytes32[]","internalType":"bytes32[]"},{"name":"claimTypes","type":"bytes32[]","internalType":"bytes32[]"},{"name":"metadataURI","type":"string","internalType":"string"}],"outputs":[],"stateMutability":"nonpayable"},{"type":"event","name":"IssuerActivated","inputs":[{"name":"issuer","type":"address","indexed":true,"internalType":"address"}],"anonymous":false},{"type":"event","name":"IssuerDeactivated","inputs":[{"name":"issuer","type":"address","indexed":true,"internalType":"address"}],"anonymous":false},{"type":"event","name":"IssuerRegistered","inputs":[{"name":"issuer","type":"address","indexed":true,"internalType":"address"},{"name":"issuerType","type":"bytes32","indexed":true,"internalType":"bytes32"},{"name":"name","type":"string","indexed":false,"internalType":"string"}],"anonymous":false},{"type":"error","name":"AlreadyRegistered","inputs":[]},{"type":"error","name":"NotAuthorized","inputs":[]},{"type":"error","name":"NotRegistered","inputs":[]}],"bytecode":{"object":"0x6080806040523460155761146a908161001a8239f35b5f80fdfe6080806040526004361015610012575f80fd5b5f3560e01c90816302c8e7b3146110bf575080630afbcacf146110855780630edcbcdc146110175780630f53a47014610f4c5780633188092e1461085b5780633f11dfc1146108215780633f3ec72a146107e7578063404b4ee3146107ad5780634b86daab14610731578063588f1322146106f75780635e33b787146106bd578063659f77cc14610683578063687370a6146106495780637023d7e71461060f578063717c9317146105d55780637a0091351461051a57806391f846ef146104e05780639f8a13d7146104a1578063a109925014610467578063b0b8cbe91461042d578063b4d7b98b14610410578063ba5aee5f146103d6578063bfe9722c1461039c578063c3c5a54714610360578063cee5076e14610326578063e7950687146102ec578063ee191398146102b2578063f51c682b14610278578063f58d901c1461023e578063f841fea414610204578063fcf93f9c146101ba5763fd32a3511461017c575f80fd5b346101b6575f3660031901126101b65760206040517faa9aaa4c5cc4078ae32554cdf49a218ee84ee95b1f87de4d3c1e8ac45dd355f78152f35b5f80fd5b346101b65760203660031901126101b6576001600160a01b036101db611174565b165f525f6020526102006101f4600560405f20016113ec565b6040519182918261120b565b0390f35b346101b6575f3660031901126101b65760206040517f9c8ef6f04a845c744576ab849ea8c01cf281ad41e168303b3f197aab228e10758152f35b346101b6575f3660031901126101b65760206040517f288772ec40dcce3fd2258860eee1856747be735d8775a5aab64fa1b852441f2d8152f35b346101b6575f3660031901126101b65760206040517f167cefecec36b02776cc835ff419505a322b100d3d946e549c91706f4aa341978152f35b346101b6575f3660031901126101b65760206040517ff711f966a9e5e184bc904fd3796fde9ea6e75d531b1be83efc9c70a59a3b9fd18152f35b346101b6575f3660031901126101b65760206040517f514e62e9430f46be9b8f86792d397d2f34afb1c7428323018d39b24eb31c3d0a8152f35b346101b6575f3660031901126101b65760206040517f3c00b8ad29782a9cedee7d4935aa3988b0ec85248d0bdbc2bec9b87abcef31828152f35b346101b65760203660031901126101b6576001600160a01b03610381611174565b165f525f6020526020600760405f2001541515604051908152f35b346101b6575f3660031901126101b65760206040517f7f3e1aaf09e37866fe81d99db1126983db17c5436dff62312a6259add9f2dbc58152f35b346101b65760203660031901126101b6576001600160a01b036103f7611174565b165f525f6020526102006101f4600460405f20016113ec565b346101b6575f3660031901126101b6576020600154604051908152f35b346101b6575f3660031901126101b65760206040517f206ea4b4880a6b4050d7e826dab42e6087642a1d1db82574cafeec661d48da7e8152f35b346101b6575f3660031901126101b65760206040517f5851e9253ae191ec4846e41cb587881898f14f6b606cde52a9610a4f76c7c1a28152f35b346101b65760203660031901126101b6576001600160a01b036104c2611174565b165f525f602052602060ff600860405f200154166040519015158152f35b346101b6575f3660031901126101b65760206040517fb0c186e080a4ec3c9ada3fd01aef647e514324e4451e4d4657e1cf68ee68338d8152f35b346101b65760203660031901126101b6576001600160a01b0361053b611174565b16805f525f602052600760405f200154156105c65780331415806105a9575b61059a57805f525f602052600860405f200160ff1981541690557fbd353cae5dce393e81582130369cd5e22da2ec7e943ffae3210a857b3a954fdf5f80a2005b63ea8e4eb560e01b5f5260045ffd5b50805f525f60205260018060a01b0360405f20541633141561055a565b63aba4733960e01b5f5260045ffd5b346101b6575f3660031901126101b65760206040517f7f11e8a47c8f6f2761361211fdf25db4167076f4c74d7c390a15f4211bc8c2148152f35b346101b6575f3660031901126101b65760206040517f20341f35a33668067fb24c5d4f44f1858ca5a960cd6b10aa9efc6f061ecf38f08152f35b346101b6575f3660031901126101b65760206040517f7b10432d9896cbaf20b900a1e4318a2f2c610d446d944387b797cde89fcffd108152f35b346101b6575f3660031901126101b65760206040517fa8613bf075940c5c3058ce6690149ebf200b92b50fa3a8c54fad8050662094ab8152f35b346101b6575f3660031901126101b65760206040517f89cbf5af14e0328a3cd3a734f92c3832d729d431da79b7873a62cbeebd37beb68152f35b346101b6575f3660031901126101b65760206040517fac8a3aff4c464f994891e4c68c69cf0f6318cc4eb4ba22ff9ff93dc8a48bc12b8152f35b346101b65760203660031901126101b6576001600160a01b03610752611174565b16805f525f602052600760405f200154156105c65780330361059a57805f525f602052600860405f2001600160ff198254161790557ffeb937248dcd237f20a1c703b4ef9fab8a76046b455b8af63f0dc768201a50435f80a2005b346101b6575f3660031901126101b65760206040517fdd07565b4734c0f203b03129e8ba72db5212faed44f5f1bb16c55bc8e61b47768152f35b346101b6575f3660031901126101b65760206040517fabea6fd3db56a6e6d0242111b43ebb13d1c42709651c032c7894962023a1f90a8152f35b346101b6575f3660031901126101b65760206040517fdfb093da6baf12edd36a9524b8f4cc5179d1c68b54003171cd8d06587731c0738152f35b346101b65760e03660031901126101b657610874611174565b602435906044356001600160401b0381116101b6576108979036906004016111ae565b6064356001600160401b0381116101b6576108b69036906004016111ae565b6084356001600160401b0381116101b6576108d59036906004016111db565b60a4929192356001600160401b0381116101b6576108f79036906004016111db565b60c4989198356001600160401b0381116101b6576109199036906004016111ae565b9260018060a01b0316998a5f525f602052600760405f200154610f3d576040519661012088018881106001600160401b03821117610c81576040528b8852602088018d81529861096a368c8e611352565b9760408a01988952369061097d92611352565b9560608901968752369061099092611397565b926080880193845236906109a392611397565b9260a0870193845236906109b692611352565b9260c0860193845260e0860194428652610100870197600189528b5f525f60205260405f2097600160a01b600190039051166bffffffffffffffffffffffff60a01b8954161788555160018801556002870190518051906001600160401b038211610c81578190610a27845461127a565b601f8111610eed575b50602090601f8311600114610e8a575f92610e7f575b50508160011b915f199060031b1c19161790555b51805160038701916001600160401b038211610c81578190610a7c845461127a565b601f8111610e2f575b50602090601f8311600114610dcc575f92610dc1575b50508160011b915f199060031b1c19161790555b5180519060048601906001600160401b038311610c8157600160401b8311610c81578154838355808410610d9b575b50602001905f5260205f205f5b838110610d875750505050600584019051908151916001600160401b038311610c8157600160401b8311610c81578154838355808410610d61575b50602001905f5260205f205f5b838110610d4d57505050506006830190518051906001600160401b038211610c8157610b5f835461127a565b601f8111610d08575b50602090601f8311600114610ca057600895949392915f9183610c95575b50508160011b915f199060031b1c19161790555b516007820155019051151560ff80198354169116179055600154600160401b811015610c8157806001610bd292016001556001611265565b81546001600160a01b0360039290921b91821b19169085901b1790555f84815260026020526040902080549092600160401b821015610c8157610c3e827fd6b42b8c345f63e52429b2320ee4c64b7a72e50b95bccddf5ded76b447712af1956001604095018155611265565b81549060031b9087821b9160018060a01b03901b191617905582825193849260208452816020850152848401375f828201840152601f01601f19168101030190a3005b634e487b7160e01b5f52604160045260245ffd5b015190508b80610b86565b90601f19831691845f52815f20925f5b818110610cf057509160019391856008999897969410610cd8575b505050811b019055610b9a565b01515f1960f88460031b161c191690558b8080610ccb565b92936020600181928786015181550195019301610cb0565b835f5260205f20601f840160051c81019160208510610d43575b601f0160051c01905b818110610d385750610b68565b5f8155600101610d2b565b9091508190610d22565b600190602084519401938184015501610b33565b825f528360205f2091820191015b818110610d7c5750610b26565b5f8155600101610d6f565b600190602084519401938184015501610aeb565b825f528360205f2091820191015b818110610db65750610ade565b5f8155600101610da9565b015190508d80610a9b565b5f8581528281209350601f198516905b818110610e175750908460019594939210610dff575b505050811b019055610aaf565b01515f1960f88460031b161c191690558d8080610df2565b92936020600181928786015181550195019301610ddc565b909150835f5260205f20601f840160051c81019160208510610e75575b90601f859493920160051c01905b818110610e675750610a85565b5f8155849350600101610e5a565b9091508190610e4c565b015190508e80610a46565b5f8581528281209350601f198516905b818110610ed55750908460019594939210610ebd575b505050811b019055610a5a565b01515f1960f88460031b161c191690558e8080610eb0565b92936020600181928786015181550195019301610e9a565b909150835f5260205f20601f840160051c81019160208510610f33575b90601f859493920160051c01905b818110610f255750610a30565b5f8155849350600101610f18565b9091508190610f0a565b630ea075bf60e21b5f5260045ffd5b346101b65760203660031901126101b6576001600160a01b03610f6d611174565b165f525f60205260405f20600781015480156105c65760018060a01b038254169060018301549261100660ff60088301541691610ff8610faf600283016112b2565b91610fea610fcb6006610fc4600385016112b2565b93016112b2565b93604051998a998a5260208a015260e060408a015260e089019061118a565b90878203606089015261118a565b90858203608087015261118a565b9160a0840152151560c08301520390f35b346101b65760203660031901126101b6576004356001548110156110715760015f527fb10e2d527612073b26eecdfd717e6a320cf44b4afac2b0732d9fcbe2b7fa0cf601546040516001600160a01b039091168152602090f35b634e487b7160e01b5f52603260045260245ffd5b346101b6575f3660031901126101b65760206040517f70725d57257c168b5e0b84ad482e29e43fa8b9b95b2571bc71c754a143c9b9938152f35b346101b65760203660031901126101b6576004355f52600260205260405f20908154808252602082019081935f5260205f20905f5b818110611155575050508161110a910382611244565b604051918291602083019060208452518091526040830191905f5b818110611133575050500390f35b82516001600160a01b0316845285945060209384019390920191600101611125565b82546001600160a01b03168452602090930192600192830192016110f4565b600435906001600160a01b03821682036101b657565b805180835260209291819084018484015e5f828201840152601f01601f1916010190565b9181601f840112156101b6578235916001600160401b0383116101b657602083818601950101116101b657565b9181601f840112156101b6578235916001600160401b0383116101b6576020808501948460051b0101116101b657565b60206040818301928281528451809452019201905f5b81811061122e5750505090565b8251845260209384019390920191600101611221565b90601f801991011681019081106001600160401b03821117610c8157604052565b8054821015611071575f5260205f2001905f90565b90600182811c921680156112a8575b602083101461129457565b634e487b7160e01b5f52602260045260245ffd5b91607f1691611289565b9060405191825f8254926112c58461127a565b808452936001811690811561133057506001146112ec575b506112ea92500383611244565b565b90505f9291925260205f20905f915b8183106113145750509060206112ea928201015f6112dd565b60209193508060019154838589010152019101909184926112fb565b9050602092506112ea94915060ff191682840152151560051b8201015f6112dd565b9291926001600160401b038211610c81576040519161137b601f8201601f191660200184611244565b8294818452818301116101b6578281602093845f960137010152565b929190926001600160401b038411610c81578360051b9060206040516113bf82850182611244565b80968152019181019283116101b657905b8282106113dc57505050565b81358152602091820191016113d0565b90604051918281549182825260208201905f5260205f20925f5b81811061141b5750506112ea92500383611244565b845483526001948501948794506020909301920161140656fea2646970667358221220ba402fc4b7fc31a5e9b1acd643bcdba0167e2c276e7b77c6797185cbad9038e564736f6c634300081c0033","linkReferences":{}},"methodIdentifiers":{"ISSUER_AUDITOR()":"fd32a351","ISSUER_COUNTERPARTY()":"3f11dfc1","ISSUER_GOVERNANCE()":"3f3ec72a","ISSUER_INSURER()":"404b4ee3","ISSUER_ORACLE()":"5e33b787","ISSUER_ORGANIZATION()":"bfe9722c","ISSUER_SELF()":"f841fea4","ISSUER_STAKING_POOL()":"91f846ef","ISSUER_TEE_VERIFIER()":"659f77cc","ISSUER_VALIDATOR()":"717c9317","VM_COUNTERPARTY_CONFIRMED()":"cee5076e","VM_GOVERNANCE_APPROVED()":"0afbcacf","VM_INSURER_ISSUED()":"ee191398","VM_MUTUALLY_CONFIRMED()":"e7950687","VM_ORACLE_ATTESTED()":"687370a6","VM_REPRODUCIBLE_BUILD()":"a1099250","VM_SELF_ASSERTED()":"b0b8cbe9","VM_TEE_OFFCHAIN_AGGREGATED()":"588f1322","VM_TEE_ONCHAIN_VERIFIED()":"f58d901c","VM_VALIDATOR_VERIFIED()":"f51c682b","VM_ZK_VERIFIED()":"7023d7e7","activateIssuer(address)":"4b86daab","deactivateIssuer(address)":"7a009135","getClaimTypes(address)":"fcf93f9c","getIssuerAt(uint256)":"0edcbcdc","getIssuersByType(bytes32)":"02c8e7b3","getProfile(address)":"0f53a470","getValidationMethods(address)":"ba5aee5f","isActive(address)":"9f8a13d7","isRegistered(address)":"c3c5a547","issuerCount()":"b4d7b98b","registerIssuer(address,bytes32,string,string,bytes32[],bytes32[],string)":"3188092e"},"id":70}