{"abi":[{"type":"constructor","inputs":[{"name":"relationshipAddress","type":"address","internalType":"address"}],"stateMutability":"nonpayable"},{"type":"function","name":"RELATIONSHIP","inputs":[],"outputs":[{"name":"","type":"address","internalType":"contract AgentRelationship"}],"stateMutability":"view"},{"type":"function","name":"assertionCount","inputs":[],"outputs":[{"name":"","type":"uint256","internalType":"uint256"}],"stateMutability":"view"},{"type":"function","name":"getAssertion","inputs":[{"name":"assertionId","type":"uint256","internalType":"uint256"}],"outputs":[{"name":"","type":"tuple","internalType":"struct AgentAssertion.AssertionRecord","components":[{"name":"assertionId","type":"uint256","internalType":"uint256"},{"name":"edgeId","type":"bytes32","internalType":"bytes32"},{"name":"assertionType","type":"uint8","internalType":"enum AgentAssertion.AssertionType"},{"name":"asserter","type":"address","internalType":"address"},{"name":"validFrom","type":"uint256","internalType":"uint256"},{"name":"validUntil","type":"uint256","internalType":"uint256"},{"name":"revoked","type":"bool","internalType":"bool"},{"name":"evidenceURI","type":"string","internalType":"string"}]}],"stateMutability":"view"},{"type":"function","name":"getAssertionsByAsserter","inputs":[{"name":"asserter","type":"address","internalType":"address"}],"outputs":[{"name":"","type":"uint256[]","internalType":"uint256[]"}],"stateMutability":"view"},{"type":"function","name":"getAssertionsByEdge","inputs":[{"name":"edgeId","type":"bytes32","internalType":"bytes32"}],"outputs":[{"name":"","type":"uint256[]","internalType":"uint256[]"}],"stateMutability":"view"},{"type":"function","name":"isAssertionCurrentlyValid","inputs":[{"name":"assertionId","type":"uint256","internalType":"uint256"}],"outputs":[{"name":"","type":"bool","internalType":"bool"}],"stateMutability":"view"},{"type":"function","name":"makeAssertion","inputs":[{"name":"edgeId","type":"bytes32","internalType":"bytes32"},{"name":"assertionType","type":"uint8","internalType":"enum AgentAssertion.AssertionType"},{"name":"validFrom","type":"uint256","internalType":"uint256"},{"name":"validUntil","type":"uint256","internalType":"uint256"},{"name":"evidenceURI","type":"string","internalType":"string"}],"outputs":[{"name":"assertionId","type":"uint256","internalType":"uint256"}],"stateMutability":"nonpayable"},{"type":"function","name":"revokeAssertion","inputs":[{"name":"assertionId","type":"uint256","internalType":"uint256"}],"outputs":[],"stateMutability":"nonpayable"},{"type":"event","name":"AssertionMade","inputs":[{"name":"assertionId","type":"uint256","indexed":true,"internalType":"uint256"},{"name":"edgeId","type":"bytes32","indexed":true,"internalType":"bytes32"},{"name":"assertionType","type":"uint8","indexed":false,"internalType":"enum AgentAssertion.AssertionType"},{"name":"asserter","type":"address","indexed":true,"internalType":"address"},{"name":"validFrom","type":"uint256","indexed":false,"internalType":"uint256"},{"name":"validUntil","type":"uint256","indexed":false,"internalType":"uint256"},{"name":"evidenceURI","type":"string","indexed":false,"internalType":"string"}],"anonymous":false},{"type":"event","name":"AssertionRevoked","inputs":[{"name":"assertionId","type":"uint256","indexed":true,"internalType":"uint256"},{"name":"revoker","type":"address","indexed":true,"internalType":"address"}],"anonymous":false},{"type":"error","name":"AlreadyRevoked","inputs":[]},{"type":"error","name":"AssertionNotFound","inputs":[]},{"type":"error","name":"EdgeNotFound","inputs":[]},{"type":"error","name":"InvalidAssertion","inputs":[]},{"type":"error","name":"NotAuthorized","inputs":[]}],"bytecode":{"object":"0x60a0604052348015600e575f5ffd5b50604051610d1e380380610d1e833981016040819052602b91603b565b6001600160a01b03166080526066565b5f60208284031215604a575f5ffd5b81516001600160a01b0381168114605f575f5ffd5b9392505050565b608051610c9a6100845f395f818160b701526103d10152610c9a5ff3fe608060405234801561000f575f5ffd5b5060043610610085575f3560e01c8063361d5f1c11610058578063361d5f1c1461012257806356054873146101355780637e0792ef14610148578063fac13f7a1461016b575f5ffd5b806316d2569e146100895780631b86e4b9146100b25780631d99e167146100f157806332e28a3914610111575b5f5ffd5b61009c610097366004610890565b610180565b6040516100a991906108bd565b60405180910390f35b6100d97f000000000000000000000000000000000000000000000000000000000000000081565b6040516001600160a01b0390911681526020016100a9565b6101046100ff3660046108ff565b6101e9565b6040516100a99190610978565b5f545b6040519081526020016100a9565b61009c6101303660046108ff565b61035c565b6101146101433660046109f5565b6103b9565b61015b6101563660046108ff565b6106bd565b60405190151581526020016100a9565b61017e6101793660046108ff565b610759565b005b6001600160a01b0381165f908152600260209081526040918290208054835181840281018401909452808452606093928301828280156101dd57602002820191905f5260205f20905b8154815260200190600101908083116101c9575b50505050509050919050565b6101f1610836565b5f548210610212576040516325f67a0760e21b815260040160405180910390fd5b5f828154811061022457610224610a94565b905f5260205f209060070201604051806101000160405290815f820154815260200160018201548152602001600282015f9054906101000a900460ff16600681111561027257610272610916565b600681111561028357610283610916565b8152600282015461010090046001600160a01b031660208201526003820154604082015260048201546060820152600582015460ff161515608082015260068201805460a0909201916102d590610aa8565b80601f016020809104026020016040519081016040528092919081815260200182805461030190610aa8565b801561034c5780601f106103235761010080835404028352916020019161034c565b820191905f5260205f20905b81548152906001019060200180831161032f57829003601f168201915b5050505050815250509050919050565b5f818152600160209081526040918290208054835181840281018401909452808452606093928301828280156101dd57602002820191905f5260205f20908154815260200190600101908083116101c95750505050509050919050565b60405163750e0c0f60e01b8152600481018790525f907f00000000000000000000000000000000000000000000000000000000000000006001600160a01b03169063750e0c0f90602401602060405180830381865afa15801561041e573d5f5f3e3d5ffd5b505050506040513d601f19601f820116820180604052508101906104429190610ae0565b61045f5760405163e7a592fd60e01b815260040160405180910390fd5b5f86600681111561047257610472610916565b03610490576040516359f5548f60e11b815260040160405180910390fd5b831580159061049e57508415155b80156104a957508484105b156104c7576040516359f5548f60e11b815260040160405180910390fd5b5f85156104d457856104d6565b425b90505f8054905091505f6040518061010001604052808481526020018a815260200189600681111561050a5761050a610916565b8152602001336001600160a01b031681526020018381526020018781526020015f1515815260200186868080601f0160208091040260200160405190810160405280939291908181526020018383808284375f920182905250939094525050835460018181018655948252602091829020845160079092020190815590830151818501556040830151600282018054949592949193509160ff19909116908360068111156105ba576105ba610916565b02179055506060820151600282018054610100600160a81b0319166101006001600160a01b03909316929092029190911790556080820151600382015560a0820151600482015560c082015160058201805460ff191691151591909117905560e0820151600682019061062d9082610b5f565b5050505f88815260016020818152604080842080548085018255908552828520018690553380855260028352818520805494850181558552919093209091018490559051899084907ff0fa81cb476c8bc93493d952f66978ebc0f5d76fc4cccd4fb8bf926116b279e5906106aa908c9087908c908c908c90610c1a565b60405180910390a4509695505050505050565b5f805482106106df576040516325f67a0760e21b815260040160405180910390fd5b5f5f83815481106106f2576106f2610a94565b5f9182526020909120600790910201600581015490915060ff161561071957505f92915050565b806003015442101561072d57505f92915050565b6004810154158015906107435750806004015442115b1561075057505f92915050565b50600192915050565b5f54811061077a576040516325f67a0760e21b815260040160405180910390fd5b5f5f828154811061078d5761078d610a94565b5f9182526020909120600790910201600581015490915060ff16156107c55760405163905e710760e01b815260040160405180910390fd5b600281015461010090046001600160a01b031633146107f75760405163ea8e4eb560e01b815260040160405180910390fd5b60058101805460ff19166001179055604051339083907fb673bda71f571053021542764b1238dd2094a0a847a962683472bfea31d9a315905f90a35050565b6040518061010001604052805f81526020015f81526020015f600681111561086057610860610916565b81526020015f6001600160a01b031681526020015f81526020015f81526020015f15158152602001606081525090565b5f602082840312156108a0575f5ffd5b81356001600160a01b03811681146108b6575f5ffd5b9392505050565b602080825282518282018190525f918401906040840190835b818110156108f45783518352602093840193909201916001016108d6565b509095945050505050565b5f6020828403121561090f575f5ffd5b5035919050565b634e487b7160e01b5f52602160045260245ffd5b6007811061094657634e487b7160e01b5f52602160045260245ffd5b9052565b5f81518084528060208401602086015e5f602082860101526020601f19601f83011685010191505092915050565b6020815281516020820152602082015160408201525f60408301516109a0606084018261092a565b5060018060a01b036060840151166080830152608083015160a083015260a083015160c083015260c0830151151560e083015260e0830151610100808401526109ed61012084018261094a565b949350505050565b5f5f5f5f5f5f60a08789031215610a0a575f5ffd5b86359550602087013560078110610a1f575f5ffd5b94506040870135935060608701359250608087013567ffffffffffffffff811115610a48575f5ffd5b8701601f81018913610a58575f5ffd5b803567ffffffffffffffff811115610a6e575f5ffd5b896020828401011115610a7f575f5ffd5b60208201935080925050509295509295509295565b634e487b7160e01b5f52603260045260245ffd5b600181811c90821680610abc57607f821691505b602082108103610ada57634e487b7160e01b5f52602260045260245ffd5b50919050565b5f60208284031215610af0575f5ffd5b815180151581146108b6575f5ffd5b634e487b7160e01b5f52604160045260245ffd5b601f821115610b5a57805f5260205f20601f840160051c81016020851015610b385750805b601f840160051c820191505b81811015610b57575f8155600101610b44565b50505b505050565b815167ffffffffffffffff811115610b7957610b79610aff565b610b8d81610b878454610aa8565b84610b13565b6020601f821160018114610bbf575f8315610ba85750848201515b5f19600385901b1c1916600184901b178455610b57565b5f84815260208120601f198516915b82811015610bee5787850151825560209485019460019092019101610bce565b5084821015610c0b57868401515f19600387901b60f8161c191681555b50505050600190811b01905550565b610c24818761092a565b84602082015283604082015260806060820152816080820152818360a08301375f81830160a090810191909152601f909201601f1916010194935050505056fea2646970667358221220dbbb5bd1470f8a0e14c838c46644c984ac1836ae2b09f5c972ffc16fc9e28ba464736f6c634300081c0033","linkReferences":{}},"methodIdentifiers":{"RELATIONSHIP()":"1b86e4b9","assertionCount()":"32e28a39","getAssertion(uint256)":"1d99e167","getAssertionsByAsserter(address)":"16d2569e","getAssertionsByEdge(bytes32)":"361d5f1c","isAssertionCurrentlyValid(uint256)":"7e0792ef","makeAssertion(bytes32,uint8,uint256,uint256,string)":"56054873","revokeAssertion(uint256)":"fac13f7a"},"id":64}