{"abi":[{"type":"constructor","inputs":[{"name":"relationshipAddress","type":"address","internalType":"address"}],"stateMutability":"nonpayable"},{"type":"function","name":"RELATIONSHIP","inputs":[],"outputs":[{"name":"","type":"address","internalType":"contract AgentRelationship"}],"stateMutability":"view"},{"type":"function","name":"assertionCount","inputs":[],"outputs":[{"name":"","type":"uint256","internalType":"uint256"}],"stateMutability":"view"},{"type":"function","name":"getAssertion","inputs":[{"name":"assertionId","type":"uint256","internalType":"uint256"}],"outputs":[{"name":"","type":"tuple","internalType":"struct AgentAssertion.AssertionRecord","components":[{"name":"assertionId","type":"uint256","internalType":"uint256"},{"name":"edgeId","type":"bytes32","internalType":"bytes32"},{"name":"assertionType","type":"uint8","internalType":"enum AgentAssertion.AssertionType"},{"name":"asserter","type":"address","internalType":"address"},{"name":"validFrom","type":"uint256","internalType":"uint256"},{"name":"validUntil","type":"uint256","internalType":"uint256"},{"name":"revoked","type":"bool","internalType":"bool"},{"name":"evidenceURI","type":"string","internalType":"string"}]}],"stateMutability":"view"},{"type":"function","name":"getAssertionsByAsserter","inputs":[{"name":"asserter","type":"address","internalType":"address"}],"outputs":[{"name":"","type":"uint256[]","internalType":"uint256[]"}],"stateMutability":"view"},{"type":"function","name":"getAssertionsByEdge","inputs":[{"name":"edgeId","type":"bytes32","internalType":"bytes32"}],"outputs":[{"name":"","type":"uint256[]","internalType":"uint256[]"}],"stateMutability":"view"},{"type":"function","name":"isAssertionCurrentlyValid","inputs":[{"name":"assertionId","type":"uint256","internalType":"uint256"}],"outputs":[{"name":"","type":"bool","internalType":"bool"}],"stateMutability":"view"},{"type":"function","name":"makeAssertion","inputs":[{"name":"edgeId","type":"bytes32","internalType":"bytes32"},{"name":"assertionType","type":"uint8","internalType":"enum AgentAssertion.AssertionType"},{"name":"validFrom","type":"uint256","internalType":"uint256"},{"name":"validUntil","type":"uint256","internalType":"uint256"},{"name":"evidenceURI","type":"string","internalType":"string"}],"outputs":[{"name":"assertionId","type":"uint256","internalType":"uint256"}],"stateMutability":"nonpayable"},{"type":"function","name":"revokeAssertion","inputs":[{"name":"assertionId","type":"uint256","internalType":"uint256"}],"outputs":[],"stateMutability":"nonpayable"},{"type":"event","name":"AssertionMade","inputs":[{"name":"assertionId","type":"uint256","indexed":true,"internalType":"uint256"},{"name":"edgeId","type":"bytes32","indexed":true,"internalType":"bytes32"},{"name":"assertionType","type":"uint8","indexed":false,"internalType":"enum AgentAssertion.AssertionType"},{"name":"asserter","type":"address","indexed":true,"internalType":"address"},{"name":"validFrom","type":"uint256","indexed":false,"internalType":"uint256"},{"name":"validUntil","type":"uint256","indexed":false,"internalType":"uint256"},{"name":"evidenceURI","type":"string","indexed":false,"internalType":"string"}],"anonymous":false},{"type":"event","name":"AssertionRevoked","inputs":[{"name":"assertionId","type":"uint256","indexed":true,"internalType":"uint256"},{"name":"revoker","type":"address","indexed":true,"internalType":"address"}],"anonymous":false},{"type":"error","name":"AlreadyRevoked","inputs":[]},{"type":"error","name":"AssertionNotFound","inputs":[]},{"type":"error","name":"EdgeNotFound","inputs":[]},{"type":"error","name":"InvalidAssertion","inputs":[]},{"type":"error","name":"NotAuthorized","inputs":[]}],"bytecode":{"object":"0x60a034606f57601f610b5c38819003918201601f19168301916001600160401b03831184841017607357808492602094604052833981010312606f57516001600160a01b03811690819003606f57608052604051610ad4908161008882396080518181816101d2015261086d0152f35b5f80fd5b634e487b7160e01b5f52604160045260245ffdfe6080806040526004361015610012575f80fd5b5f3560e01c90816316d2569e1461089c575080631b86e4b9146108585780631d99e1671461065a57806332e28a391461063e578063361d5f1c146105ca578063560548731461014b5780637e0792ef146101235763fac13f7a14610074575f80fd5b3461011f57602036600319011261011f576004355f548110156101105761009a81610992565b50600581019081549060ff8216610101576002015460081c6001600160a01b031633036100f25760ff1916600117905533907fb673bda71f571053021542764b1238dd2094a0a847a962683472bfea31d9a3155f80a3005b63ea8e4eb560e01b5f5260045ffd5b63905e710760e01b5f5260045ffd5b6325f67a0760e21b5f5260045ffd5b5f80fd5b3461011f57602036600319011261011f576020610141600435610a49565b6040519015158152f35b3461011f5760a036600319011261011f57602435600435600782101561011f57604435606435916084359267ffffffffffffffff841161011f573660238501121561011f5783600401359267ffffffffffffffff841161011f576024850194602485369201011161011f5760405163750e0c0f60e01b8152600481018490526020816024817f00000000000000000000000000000000000000000000000000000000000000006001600160a01b03165afa9081156105bf575f91610584575b5015610575578515610554578115158061056c575b80610563575b610554578061054e575042925b5f549485926040519561024487610953565b8487526020870196868852604081019061025e8b836109de565b60608101913383526080820184815260a083019086825260c08401925f8452601f19601f8b01169c8d9b8b8b6040519e8f9060200161029d9082610970565b828152602001375f60208e8e01015260e087019c8d52600160401b1115610513576102cd8f600181015f55610992565b96909661053b5751865551600186015560028501905160078110156105275760069660ff835491610100600160a81b03905160081b169216906affffffffffffffffffffff60a81b1617179055516003840155516004830155600582019051151560ff8019835416911617905501945180519067ffffffffffffffff82116105135761035987546109ea565b601f81116104ce575b50918995939160209b95938c90601f831160011461043557927ff0fa81cb476c8bc93493d952f66978ebc0f5d76fc4cccd4fb8bf926116b279e598998360a097948997945f9a978b9261042a575b50508160011b918a199060031b1c19161790555b8a875260018e526103d88a60408920610a22565b33875260028e526103ec8a60408920610a22565b6103f96040518099610946565b8d880152604087015260806060870152816080870152838601378301015260a08133968101030190a4604051908152f35b015190505f806103b0565b90601f999394959697989919831691845f52815f20925f5b8181106104b357508460a098948b98947ff0fa81cb476c8bc93493d952f66978ebc0f5d76fc4cccd4fb8bf926116b279e59d9c98945f9c986001951061049b575b505050811b0190556103c4565b01518b1960f88460031b161c191690555f808061048e565b8383015185558f9c506001909401936020938401930161044d565b875f5260205f20601f840160051c81019160208510610509575b601f0160051c01905b8181106104fe5750610362565b5f81556001016104f1565b90915081906104e8565b634e487b7160e01b5f52604160045260245ffd5b634e487b7160e01b5f52602160045260245ffd5b634e487b7160e01b5f525f60045260245ffd5b92610232565b6359f5548f60e11b5f5260045ffd5b50808210610225565b5080151561021f565b63e7a592fd60e01b5f5260045ffd5b90506020813d6020116105b7575b8161059f60209383610970565b8101031261011f5751801515810361011f578761020a565b3d9150610592565b6040513d5f823e3d90fd5b3461011f57602036600319011261011f576004355f52600160205260405f206040519081602082549182815201915f5260205f20905f5b818110610628576106248561061881870382610970565b6040519182918261090d565b0390f35b8254845260209093019260019283019201610601565b3461011f575f36600319011261011f5760205f54604051908152f35b3461011f57602036600319011261011f57600435606060e060405161067e81610953565b5f81525f60208201525f60408201525f838201525f60808201525f60a08201525f60c082015201525f54811015610110576106b890610992565b506040516106c581610953565b815481526001820154916020820192835260028101549060408301916106ee60ff8216846109de565b60081c6001600160a01b031660608401908152600382015460808501908152600483015460a08601908152600584015460ff16151560c0870190815260405160069095018054959691959294925f91610746826109ea565b808a52916001811690811561083257506001146107f2575b8a6101408b60208c8c8c8c8c6107a08d61077a878f0388610970565b60e089019687526040519a8b99898b5251898b01525160408a0152516060890190610946565b516001600160a01b031660808701525160a08601525160c085015251151560e0840152516101008084015280516101208401819052918291018484015e5f828201840152601f01601f19168101030190f35b5f908152602081209092505b81831061081857505086016020908101906107a09061075e565b6001816020929493945483858d01015201910191906107fe565b60ff19166020808c019190915292151560051b8a01830193506107a092915061075e9050565b3461011f575f36600319011261011f576040517f00000000000000000000000000000000000000000000000000000000000000006001600160a01b03168152602090f35b3461011f57602036600319011261011f576004356001600160a01b0381169081900361011f575f52600260205260405f20805480835260208301915f5260205f20905f5b8181106108f7576106248561061881870382610970565b82548452602090930192600192830192016108e0565b60206040818301928281528451809452019201905f5b8181106109305750505090565b8251845260209384019390920191600101610923565b9060078210156105275752565b610100810190811067ffffffffffffffff82111761051357604052565b90601f8019910116810190811067ffffffffffffffff82111761051357604052565b5f548110156109ca575f8080526007919091027f290decd9548b62a8d60345a988386fc84ba6bc95484008f6362f93160ef3e5630191565b634e487b7160e01b5f52603260045260245ffd5b60078210156105275752565b90600182811c92168015610a18575b6020831014610a0457565b634e487b7160e01b5f52602260045260245ffd5b91607f16916109f9565b805490600160401b82101561051357600182018082558210156109ca575f5260205f200155565b5f5481101561011057610a5b90610992565b5060ff600582015416610a995760038101544210610a9957600401548015159081610a8f575b50610a8b57600190565b5f90565b905042115f610a81565b505f9056fea26469706673582212205f3b91df8ac98f0fd60bb1ad8e422a6caafc7600ab799c96c4702fe06764b23764736f6c634300081c0033","linkReferences":{}},"methodIdentifiers":{"RELATIONSHIP()":"1b86e4b9","assertionCount()":"32e28a39","getAssertion(uint256)":"1d99e167","getAssertionsByAsserter(address)":"16d2569e","getAssertionsByEdge(bytes32)":"361d5f1c","isAssertionCurrentlyValid(uint256)":"7e0792ef","makeAssertion(bytes32,uint8,uint256,uint256,string)":"56054873","revokeAssertion(uint256)":"fac13f7a"},"id":66}