{"abi":[{"type":"function","name":"count","inputs":[{"name":"account","type":"address","internalType":"address"}],"outputs":[{"name":"","type":"uint256","internalType":"uint256"}],"stateMutability":"view"},{"type":"function","name":"getPubKey","inputs":[{"name":"account","type":"address","internalType":"address"},{"name":"credentialIdDigest","type":"bytes32","internalType":"bytes32"}],"outputs":[{"name":"x","type":"uint256","internalType":"uint256"},{"name":"y","type":"uint256","internalType":"uint256"}],"stateMutability":"view"},{"type":"function","name":"hasCredential","inputs":[{"name":"account","type":"address","internalType":"address"},{"name":"credentialIdDigest","type":"bytes32","internalType":"bytes32"}],"outputs":[{"name":"","type":"bool","internalType":"bool"}],"stateMutability":"view"},{"type":"function","name":"isModuleType","inputs":[{"name":"moduleTypeId","type":"uint256","internalType":"uint256"}],"outputs":[{"name":"","type":"bool","internalType":"bool"}],"stateMutability":"pure"},{"type":"function","name":"isValidSignature","inputs":[{"name":"account","type":"address","internalType":"address"},{"name":"hash","type":"bytes32","internalType":"bytes32"},{"name":"signature","type":"bytes","internalType":"bytes"}],"outputs":[{"name":"","type":"bytes4","internalType":"bytes4"}],"stateMutability":"view"},{"type":"function","name":"moduleId","inputs":[],"outputs":[{"name":"","type":"string","internalType":"string"}],"stateMutability":"pure"},{"type":"function","name":"register","inputs":[{"name":"credentialIdDigest","type":"bytes32","internalType":"bytes32"},{"name":"x","type":"uint256","internalType":"uint256"},{"name":"y","type":"uint256","internalType":"uint256"}],"outputs":[],"stateMutability":"nonpayable"},{"type":"function","name":"remove","inputs":[{"name":"credentialIdDigest","type":"bytes32","internalType":"bytes32"}],"outputs":[],"stateMutability":"nonpayable"},{"type":"function","name":"verify","inputs":[{"name":"account","type":"address","internalType":"address"},{"name":"hash","type":"bytes32","internalType":"bytes32"},{"name":"a","type":"tuple","internalType":"struct PasskeyValidator.Assertion","components":[{"name":"authenticatorData","type":"bytes","internalType":"bytes"},{"name":"clientDataJSON","type":"string","internalType":"string"},{"name":"challengeIndex","type":"uint256","internalType":"uint256"},{"name":"typeIndex","type":"uint256","internalType":"uint256"},{"name":"r","type":"uint256","internalType":"uint256"},{"name":"s","type":"uint256","internalType":"uint256"},{"name":"credentialIdDigest","type":"bytes32","internalType":"bytes32"}]}],"outputs":[{"name":"","type":"bool","internalType":"bool"}],"stateMutability":"view"},{"type":"event","name":"PasskeyRegistered","inputs":[{"name":"account","type":"address","indexed":true,"internalType":"address"},{"name":"credentialIdDigest","type":"bytes32","indexed":true,"internalType":"bytes32"},{"name":"x","type":"uint256","indexed":false,"internalType":"uint256"},{"name":"y","type":"uint256","indexed":false,"internalType":"uint256"}],"anonymous":false},{"type":"event","name":"PasskeyRemoved","inputs":[{"name":"account","type":"address","indexed":true,"internalType":"address"},{"name":"credentialIdDigest","type":"bytes32","indexed":true,"internalType":"bytes32"}],"anonymous":false},{"type":"error","name":"AlreadyRegistered","inputs":[]},{"type":"error","name":"InvalidClientData","inputs":[]},{"type":"error","name":"InvalidPublicKey","inputs":[]},{"type":"error","name":"InvalidSignature","inputs":[]},{"type":"error","name":"NotRegistered","inputs":[]},{"type":"error","name":"PrecompileUnavailable","inputs":[]}],"bytecode":{"object":"0x60808060405234601557610d87908161001a8239f35b5f80fdfe6080806040526004361015610012575f80fd5b5f3560e01c90816305d85eda1461048957508063238a4d1e1461040c57806323f24ad2146103b557806395bc2673146102f65780639db416bf146102ad578063a1308f2714610237578063c2d6b020146100ef578063c69fe86d146100a35763ecd059611461007f575f80fd5b3461009f57602036600319011261009f5760206040516001600435148152f35b5f80fd5b3461009f57604036600319011261009f576001600160a01b036100c46104bd565b165f525f60205260405f206024355f526020526040805f206001815491015482519182526020820152f35b3461009f57606036600319011261009f576004356024356044358115801561022f575b61022057335f52600160205260405f20835f5260205260ff60405f205416610211576040516040810181811067ffffffffffffffff8211176101fd57604052828152600160208201838152335f525f60205260405f20865f5260205260405f209251835551910155335f52600160205260405f20835f5260205260405f20600160ff19825416179055335f52600260205260405f20805490600182018092116101e9575560405191825260208201527fe6813de69096f2d13f196130a730ba346707680ee5fabe9a6001c48b2e2a395a60403392a3005b634e487b7160e01b5f52601160045260245ffd5b634e487b7160e01b5f52604160045260245ffd5b630ea075bf60e21b5f5260045ffd5b63145a1fdd60e31b5f5260045ffd5b508015610112565b3461009f575f36600319011261009f57604080519061025681836104d3565b601f825260208201917f736d6172742d6167656e742d706173736b65792d76616c696461746f722d310083528151928391602083525180918160208501528484015e5f828201840152601f01601f19168101030190f35b3461009f57604036600319011261009f576001600160a01b036102ce6104bd565b165f52600160205260405f206024355f52602052602060ff60405f2054166040519015158152f35b3461009f57602036600319011261009f57600435335f52600160205260405f20815f5260205260ff60405f205416156103a657335f525f60205260405f20815f526020525f6001604082208281550155335f52600160205260405f20815f5260205260405f2060ff198154169055335f52600260205260405f208054905f1982019182116101e95755337f2d7aa68d7c6e29815818dcd0deea0f49ceac033240ac3b69b6a6734c23e5843d5f80a3005b63aba4733960e01b5f5260045ffd5b3461009f57606036600319011261009f576103ce6104bd565b60443567ffffffffffffffff811161009f5760e0600319823603011261009f5760209161040291600401906024359061078f565b6040519015158152f35b3461009f57606036600319011261009f576104256104bd565b60443567ffffffffffffffff811161009f573660238201121561009f57806004013567ffffffffffffffff811161009f57366024828401011161009f57602092602461047693019060243590610547565b6040516001600160e01b03199091168152f35b3461009f57602036600319011261009f576020906001600160a01b036104ad6104bd565b165f526002825260405f20548152f35b600435906001600160a01b038216820361009f57565b90601f8019910116810190811067ffffffffffffffff8211176101fd57604052565b67ffffffffffffffff81116101fd57601f01601f191660200190565b92919261051d826104f5565b9161052b60405193846104d3565b82948184528183011161009f578281602093845f960137010152565b9291909181019060208183031261009f5780359067ffffffffffffffff821161009f57019160e08383031261009f576040519160e0830183811067ffffffffffffffff8211176101fd57604052833567ffffffffffffffff811161009f57840181601f8201121561009f57818160206105c293359101610511565b8352602084013567ffffffffffffffff811161009f5784019080601f8301121561009f578160206105f593359101610511565b916020810192835260408101926040850135845260608201936060860135855260808301956080810135875260a084019760a0820135895260c0808601920135825260018060a01b03165f525f60205260405f2090515f5260205260405f2093845495861580610750575b61073a5761067492845191519051916108cf565b15610727575f6020809251604051918183925191829101835e8101838152039060025afa1561071c575f60209181519051906106d0848060405180948280830197805191829101895e82019083820152030180845201826104d3565b604051918291518091835e8101838152039060025afa1561071c576107009360015f519451915192015493610ac4565b1561071057630b135d3f60e11b90565b6001600160e01b031990565b6040513d5f823e3d90fd5b506001600160e01b031995945050505050565b506001600160e01b031998975050505050505050565b50600186015415610660565b903590601e198136030182121561009f570180359067ffffffffffffffff821161009f5760200191813603831361009f57565b60018060a01b03165f525f60205260405f2060c08301355f5260205260405f2090815490811580610891575b610889576107ec60208501916107d1838761075c565b6107e760408901359260608a0135923691610511565b6108cf565b15610889575f6107fe6020928661075c565b908160405192839283378101838152039060025afa1561071c5760205f81815161084f8261082c898061075c565b6040959195519481869284840198893782019083820152030180845201826104d3565b604051918291518091835e8101838152039060025afa1561071c576108869260015f5193015492608060a083013592013590610ac4565b90565b505050505f90565b506001830154156107bb565b919082018092116101e957565b9081518110156108bb570160200190565b634e487b7160e01b5f52603260045260245ffd5b6040805193946108df82866104d3565b601580865274113a3cb832911d113bb2b130baba34371733b2ba1160591b602087015284018085116101e957835110610a07575f5b8551811015610968576001600160f81b0319610939610933838861089d565b866108aa565b51166001600160f81b031961094e83896108aa565b51160361095d57600101610914565b505050505050505f90565b50935093915083519261097b85856104d3565b600d8085526c1131b430b63632b733b2911d1160991b602086015283018084116101e957603884018091116101e957603984018091116101e957825110610abb575f5b8451811015610a11576001600160f81b03196109e36109dd838761089d565b856108aa565b51166001600160f81b03196109f883886108aa565b511603610a07576001016109be565b5050505050505f90565b5092939190915193610a246060866104d3565b602b855260403660208701375f5b602b8110610a81575051610a459161089d565b90602b82018092116101e957601160f91b916001600160f81b031991610a6b91906108aa565b511603610a7b5761088691610b4e565b50505f90565b60019060ff60f81b610aa6610aa083610a9b87518961089d565b61089d565b876108aa565b51165f1a610ab482896108aa565b5301610a32565b50505050505f90565b91935f94938594604051936020850195865260408501526060840152608083015260a082015260a08152610af960c0826104d3565b51906101005afa3d15610b46573d90610b11826104f5565b91610b1f60405193846104d3565b82523d5f602084013e5b15610b41576020815110610b41576020015160011490565b505f90565b606090610b29565b90602b825103610a7b575f915f905f9160405194610b6d6040876104d3565b602080875236878201375f905b602b8210610bd85750505050602003610a7b575f5b60208110610b9f57505050600190565b6001600160f81b0319610bb282856108aa565b511682821a60f81b6001600160f81b03191603610bd157600101610b8f565b5050505f90565b610bf860ff60f8999497939598991b610bf1868a6108aa565b5116610c8d565b905f8212610c805760061b1794600681018091116101e95793955b600885101580610c76575b15610c645760071985019485116101e9578496805f1981146101e9576001019587901c60f81b6001600160f81b0319165f1a90610c5b908a6108aa565b53959395610c13565b91969590949093919260010190610b7a565b5060208710610c1e565b5050509450505050505f90565b60f81c604181101580610d46575b610d3457606181101580610d29575b610d0857603081101580610cfd575b610cdc57602d8114610cd657605f14610cd1575f1990565b603f90565b50603e90565b602f190160ff81116101e95760ff603491160160ff81116101e95760ff1690565b506039811115610cb9565b6060190160ff81116101e95760ff601a91160160ff81116101e95760ff1690565b50607a811115610caa565b6040190160ff81116101e95760ff1690565b50605a811115610c9b56fea2646970667358221220b8c8db6861c5498f2ceee803884d24b0a46ea1af9012bbf55494ae97ccf0d54b64736f6c634300081c0033","linkReferences":{}},"methodIdentifiers":{"count(address)":"05d85eda","getPubKey(address,bytes32)":"c69fe86d","hasCredential(address,bytes32)":"9db416bf","isModuleType(uint256)":"ecd05961","isValidSignature(address,bytes32,bytes)":"238a4d1e","moduleId()":"a1308f27","register(bytes32,uint256,uint256)":"c2d6b020","remove(bytes32)":"95bc2673","verify(address,bytes32,(bytes,string,uint256,uint256,uint256,uint256,bytes32))":"23f24ad2"},"id":77}