{"abi":[{"type":"function","name":"count","inputs":[{"name":"account","type":"address","internalType":"address"}],"outputs":[{"name":"","type":"uint256","internalType":"uint256"}],"stateMutability":"view"},{"type":"function","name":"getPubKey","inputs":[{"name":"account","type":"address","internalType":"address"},{"name":"credentialIdDigest","type":"bytes32","internalType":"bytes32"}],"outputs":[{"name":"x","type":"uint256","internalType":"uint256"},{"name":"y","type":"uint256","internalType":"uint256"}],"stateMutability":"view"},{"type":"function","name":"hasCredential","inputs":[{"name":"account","type":"address","internalType":"address"},{"name":"credentialIdDigest","type":"bytes32","internalType":"bytes32"}],"outputs":[{"name":"","type":"bool","internalType":"bool"}],"stateMutability":"view"},{"type":"function","name":"isModuleType","inputs":[{"name":"moduleTypeId","type":"uint256","internalType":"uint256"}],"outputs":[{"name":"","type":"bool","internalType":"bool"}],"stateMutability":"pure"},{"type":"function","name":"isValidSignature","inputs":[{"name":"account","type":"address","internalType":"address"},{"name":"hash","type":"bytes32","internalType":"bytes32"},{"name":"signature","type":"bytes","internalType":"bytes"}],"outputs":[{"name":"","type":"bytes4","internalType":"bytes4"}],"stateMutability":"view"},{"type":"function","name":"moduleId","inputs":[],"outputs":[{"name":"","type":"string","internalType":"string"}],"stateMutability":"pure"},{"type":"function","name":"register","inputs":[{"name":"credentialIdDigest","type":"bytes32","internalType":"bytes32"},{"name":"x","type":"uint256","internalType":"uint256"},{"name":"y","type":"uint256","internalType":"uint256"}],"outputs":[],"stateMutability":"nonpayable"},{"type":"function","name":"remove","inputs":[{"name":"credentialIdDigest","type":"bytes32","internalType":"bytes32"}],"outputs":[],"stateMutability":"nonpayable"},{"type":"event","name":"PasskeyRegistered","inputs":[{"name":"account","type":"address","indexed":true,"internalType":"address"},{"name":"credentialIdDigest","type":"bytes32","indexed":true,"internalType":"bytes32"},{"name":"x","type":"uint256","indexed":false,"internalType":"uint256"},{"name":"y","type":"uint256","indexed":false,"internalType":"uint256"}],"anonymous":false},{"type":"event","name":"PasskeyRemoved","inputs":[{"name":"account","type":"address","indexed":true,"internalType":"address"},{"name":"credentialIdDigest","type":"bytes32","indexed":true,"internalType":"bytes32"}],"anonymous":false},{"type":"error","name":"AlreadyRegistered","inputs":[]},{"type":"error","name":"InvalidPublicKey","inputs":[]},{"type":"error","name":"NotRegistered","inputs":[]}],"bytecode":{"object":"0x60808060405234601557610c59908161001a8239f35b5f80fdfe6080806040526004361015610012575f80fd5b5f3560e01c90816305d85eda1461042757508063238a4d1e146103aa57806395bc2673146102eb5780639db416bf146102a2578063a1308f271461022c578063c2d6b020146100e4578063c69fe86d146100985763ecd0596114610074575f80fd5b346100945760203660031901126100945760206040516001600435148152f35b5f80fd5b34610094576040366003190112610094576001600160a01b036100b961045b565b165f525f60205260405f206024355f526020526040805f206001815491015482519182526020820152f35b346100945760603660031901126100945760043560243560443581158015610224575b61021557335f52600160205260405f20835f5260205260ff60405f205416610206576040516040810181811067ffffffffffffffff8211176101f257604052828152600160208201838152335f525f60205260405f20865f5260205260405f209251835551910155335f52600160205260405f20835f5260205260405f20600160ff19825416179055335f52600260205260405f20805490600182018092116101de575560405191825260208201527fe6813de69096f2d13f196130a730ba346707680ee5fabe9a6001c48b2e2a395a60403392a3005b634e487b7160e01b5f52601160045260245ffd5b634e487b7160e01b5f52604160045260245ffd5b630ea075bf60e21b5f5260045ffd5b63145a1fdd60e31b5f5260045ffd5b508015610107565b34610094575f36600319011261009457604080519061024b8183610471565b601f825260208201917f736d6172742d6167656e742d706173736b65792d76616c696461746f722d320083528151928391602083525180918160208501528484015e5f828201840152601f01601f19168101030190f35b34610094576040366003190112610094576001600160a01b036102c361045b565b165f52600160205260405f206024355f52602052602060ff60405f2054166040519015158152f35b3461009457602036600319011261009457600435335f52600160205260405f20815f5260205260ff60405f2054161561039b57335f525f60205260405f20815f526020525f6001604082208281550155335f52600160205260405f20815f5260205260405f2060ff198154169055335f52600260205260405f208054905f1982019182116101de5755337f2d7aa68d7c6e29815818dcd0deea0f49ceac033240ac3b69b6a6734c23e5843d5f80a3005b63aba4733960e01b5f5260045ffd5b34610094576060366003190112610094576103c361045b565b60443567ffffffffffffffff8111610094573660238201121561009457806004013567ffffffffffffffff8111610094573660248284010111610094576020926024610414930190602435906104e5565b6040516001600160e01b03199091168152f35b34610094576020366003190112610094576020906001600160a01b0361044b61045b565b165f526002825260405f20548152f35b600435906001600160a01b038216820361009457565b90601f8019910116810190811067ffffffffffffffff8211176101f257604052565b67ffffffffffffffff81116101f257601f01601f191660200190565b9291926104bb82610493565b916104c96040519384610471565b829481845281830111610094578281602093845f960137010152565b90928201916020818403126100945780359067ffffffffffffffff821161009457019060e082840312610094576040519260e0840184811067ffffffffffffffff8211176101f257604052823567ffffffffffffffff811161009457830181601f82011215610094578181602061055e933591016104af565b8452602083013567ffffffffffffffff81116100945783019080601f8301121561009457816020610591933591016104af565b602084015260408201356040840152606082013560608401526080820135608084015260a082013560a084015260c0808401920135825260018060a01b03165f525f60205260405f2090515f5260205260405f2091825490811580610630575b61061f57600161060394015492610649565b1561061357630b135d3f60e11b90565b6001600160e01b031990565b506001600160e01b03199392505050565b506001840154156105f1565b919082018092116101de57565b92919061066660208501918251606087015160408801519161072e565b15610701575f6020809251604051918183925191829101835e8101838152039060025afa156106f65760205f80518551906106c1848060405180948280830197805191829101895e8201908382015203018084520182610471565b604051918291518091835e8101838152039060025afa156106f6576106f3925f519060a060808201519101519161091a565b90565b6040513d5f823e3d90fd5b505050505f90565b90815181101561071a570160200190565b634e487b7160e01b5f52603260045260245ffd5b6040805193949061073f8186610471565b601580865274113a3cb832911d113bb2b130baba34371733b2ba1160591b602087015284018085116101de578351106108bf575f5b85518110156107c8576001600160f81b0319610799610793838861063c565b86610709565b51166001600160f81b03196107ae8389610709565b5116036107bd57600101610774565b505050505050505f90565b5093509391506107da83519384610471565b600d8084526c1131b430b63632b733b2911d1160991b602085015282018083116101de57603883018091116101de57603983018091116101de57815110610701575f5b835181101561086f576001600160f81b031961084261083c838661063c565b84610709565b51166001600160f81b03196108578387610709565b5116036108665760010161081d565b50505050505f90565b5090929161087e81518561063c565b602b81018091116101de57601160f91b906001600160f81b0319906108a39085610709565b511603610701576106f3936108b991519061063c565b90610a1e565b5050505050505f90565b3d156108f3573d906108da82610493565b916108e86040519384610471565b82523d5f602084013e565b606090565b60208151910151906020811061090c575090565b5f199060200360031b1b1690565b9391929092604051936020850195865260408501526060840152608083015260a082015260a0815261094d60c082610471565b5f808251846101005afa61095f6108c9565b81610a10575b816109fc575b506109f55773c2b78104907f722dabac4c69f826a522b2754de43b610991575b50505f90565b5f918291519073c2b78104907f722dabac4c69f826a522b2754de45afa6109b66108c9565b816109e7575b816109d3575b506109ce575f8061098b565b600190565b600191506109e0906108f8565b145f6109c2565b9050602081511015906109bc565b5050600190565b60019150610a09906108f8565b145f61096b565b905060208151101590610965565b91905f905f5f9260405195610a34604088610471565b602080885236888201375f915b602b8310610aa057505050505060200361098b575f5b60208110610a6757505050600190565b6001600160f81b0319610a7a8285610709565b511682821a60f81b6001600160f81b03191603610a9957600101610a57565b5050505f90565b610ac960ff60f89a95989496999a1b610ac2610abc888c61063c565b85610709565b5116610b5f565b905f8212610b515760061b1795600681018091116101de5794965b600886101580610b47575b15610b355760071986019586116101de578597805f1981146101de576001019688901c60f81b6001600160f81b0319165f1a90610b2c908b610709565b53969496610ae4565b92979691959194929360010191610a41565b5060208810610aef565b505050509450505050505f90565b60f81c604181101580610c18575b610c0657606181101580610bfb575b610bda57603081101580610bcf575b610bae57602d8114610ba857605f14610ba3575f1990565b603f90565b50603e90565b602f190160ff81116101de5760ff603491160160ff81116101de5760ff1690565b506039811115610b8b565b6060190160ff81116101de5760ff601a91160160ff81116101de5760ff1690565b50607a811115610b7c565b6040190160ff81116101de5760ff1690565b50605a811115610b6d56fea264697066735822122011bf082265a470559b096f4dabe7f93f2e6c2f6a95a6338fb2002ce3ab29de5e64736f6c634300081c0033","linkReferences":{}},"methodIdentifiers":{"count(address)":"05d85eda","getPubKey(address,bytes32)":"c69fe86d","hasCredential(address,bytes32)":"9db416bf","isModuleType(uint256)":"ecd05961","isValidSignature(address,bytes32,bytes)":"238a4d1e","moduleId()":"a1308f27","register(bytes32,uint256,uint256)":"c2d6b020","remove(bytes32)":"95bc2673"},"id":108}