{"abi":[{"type":"constructor","inputs":[{"name":"ontologyRegistry","type":"address","internalType":"address"},{"name":"shapes","type":"address","internalType":"address"}],"stateMutability":"nonpayable"},{"type":"function","name":"CLASS_COMMITMENT","inputs":[],"outputs":[{"name":"","type":"bytes32","internalType":"bytes32"}],"stateMutability":"view"},{"type":"function","name":"DT_ADDRESS_ARR_PUB","inputs":[],"outputs":[{"name":"","type":"uint8","internalType":"uint8"}],"stateMutability":"pure"},{"type":"function","name":"DT_ADDRESS_PUB","inputs":[],"outputs":[{"name":"","type":"uint8","internalType":"uint8"}],"stateMutability":"pure"},{"type":"function","name":"DT_BOOL_PUB","inputs":[],"outputs":[{"name":"","type":"uint8","internalType":"uint8"}],"stateMutability":"pure"},{"type":"function","name":"DT_BYTES32_ARR_PUB","inputs":[],"outputs":[{"name":"","type":"uint8","internalType":"uint8"}],"stateMutability":"pure"},{"type":"function","name":"DT_BYTES32_PUB","inputs":[],"outputs":[{"name":"","type":"uint8","internalType":"uint8"}],"stateMutability":"pure"},{"type":"function","name":"DT_STRING_ARR_PUB","inputs":[],"outputs":[{"name":"","type":"uint8","internalType":"uint8"}],"stateMutability":"pure"},{"type":"function","name":"DT_STRING_PUB","inputs":[],"outputs":[{"name":"","type":"uint8","internalType":"uint8"}],"stateMutability":"pure"},{"type":"function","name":"DT_UINT256_PUB","inputs":[],"outputs":[{"name":"","type":"uint8","internalType":"uint8"}],"stateMutability":"pure"},{"type":"function","name":"ONTOLOGY","inputs":[],"outputs":[{"name":"","type":"address","internalType":"contract OntologyTermRegistry"}],"stateMutability":"view"},{"type":"function","name":"SA_COMMITMENT_CANCEL_REASON","inputs":[],"outputs":[{"name":"","type":"bytes32","internalType":"bytes32"}],"stateMutability":"view"},{"type":"function","name":"SA_COMMITMENT_COMMITTED_AT","inputs":[],"outputs":[{"name":"","type":"bytes32","internalType":"bytes32"}],"stateMutability":"view"},{"type":"function","name":"SA_COMMITMENT_DONOR","inputs":[],"outputs":[{"name":"","type":"bytes32","internalType":"bytes32"}],"stateMutability":"view"},{"type":"function","name":"SA_COMMITMENT_MILESTONES_JSON","inputs":[],"outputs":[{"name":"","type":"bytes32","internalType":"bytes32"}],"stateMutability":"view"},{"type":"function","name":"SA_COMMITMENT_NEED_INTENT","inputs":[],"outputs":[{"name":"","type":"bytes32","internalType":"bytes32"}],"stateMutability":"view"},{"type":"function","name":"SA_COMMITMENT_OFFER_INTENT","inputs":[],"outputs":[{"name":"","type":"bytes32","internalType":"bytes32"}],"stateMutability":"view"},{"type":"function","name":"SA_COMMITMENT_RECIPIENT","inputs":[],"outputs":[{"name":"","type":"bytes32","internalType":"bytes32"}],"stateMutability":"view"},{"type":"function","name":"SA_COMMITMENT_RELEASED_AMOUNT","inputs":[],"outputs":[{"name":"","type":"bytes32","internalType":"bytes32"}],"stateMutability":"view"},{"type":"function","name":"SA_COMMITMENT_ROUND","inputs":[],"outputs":[{"name":"","type":"bytes32","internalType":"bytes32"}],"stateMutability":"view"},{"type":"function","name":"SA_COMMITMENT_SOURCE_KIND","inputs":[],"outputs":[{"name":"","type":"bytes32","internalType":"bytes32"}],"stateMutability":"view"},{"type":"function","name":"SA_COMMITMENT_SOURCE_SUBJECT","inputs":[],"outputs":[{"name":"","type":"bytes32","internalType":"bytes32"}],"stateMutability":"view"},{"type":"function","name":"SA_COMMITMENT_STATUS","inputs":[],"outputs":[{"name":"","type":"bytes32","internalType":"bytes32"}],"stateMutability":"view"},{"type":"function","name":"SA_COMMITMENT_TOKEN","inputs":[],"outputs":[{"name":"","type":"bytes32","internalType":"bytes32"}],"stateMutability":"view"},{"type":"function","name":"SA_COMMITMENT_TOTAL_AMOUNT","inputs":[],"outputs":[{"name":"","type":"bytes32","internalType":"bytes32"}],"stateMutability":"view"},{"type":"function","name":"SA_COMMITMENT_UPDATED_AT","inputs":[],"outputs":[{"name":"","type":"bytes32","internalType":"bytes32"}],"stateMutability":"view"},{"type":"function","name":"SA_MILESTONE_RELEASED","inputs":[],"outputs":[{"name":"","type":"bytes32","internalType":"bytes32"}],"stateMutability":"view"},{"type":"function","name":"SA_MILESTONE_RELEASED_AT","inputs":[],"outputs":[{"name":"","type":"bytes32","internalType":"bytes32"}],"stateMutability":"view"},{"type":"function","name":"SA_OUTCOME_EVIDENCE_HASH","inputs":[],"outputs":[{"name":"","type":"bytes32","internalType":"bytes32"}],"stateMutability":"view"},{"type":"function","name":"SA_OUTCOME_RECORDED_AT","inputs":[],"outputs":[{"name":"","type":"bytes32","internalType":"bytes32"}],"stateMutability":"view"},{"type":"function","name":"SA_OUTCOME_RECORDED_BY","inputs":[],"outputs":[{"name":"","type":"bytes32","internalType":"bytes32"}],"stateMutability":"view"},{"type":"function","name":"SHAPES","inputs":[],"outputs":[{"name":"","type":"address","internalType":"contract ShapeRegistry"}],"stateMutability":"view"},{"type":"function","name":"SOURCE_AWARD","inputs":[],"outputs":[{"name":"","type":"bytes32","internalType":"bytes32"}],"stateMutability":"view"},{"type":"function","name":"SOURCE_DIRECT","inputs":[],"outputs":[{"name":"","type":"bytes32","internalType":"bytes32"}],"stateMutability":"view"},{"type":"function","name":"SOURCE_POOL_PLEDGE","inputs":[],"outputs":[{"name":"","type":"bytes32","internalType":"bytes32"}],"stateMutability":"view"},{"type":"function","name":"STATUS_CANCELED","inputs":[],"outputs":[{"name":"","type":"bytes32","internalType":"bytes32"}],"stateMutability":"view"},{"type":"function","name":"STATUS_COMPLETED","inputs":[],"outputs":[{"name":"","type":"bytes32","internalType":"bytes32"}],"stateMutability":"view"},{"type":"function","name":"STATUS_IN_FLIGHT","inputs":[],"outputs":[{"name":"","type":"bytes32","internalType":"bytes32"}],"stateMutability":"view"},{"type":"function","name":"STATUS_PENDING","inputs":[],"outputs":[{"name":"","type":"bytes32","internalType":"bytes32"}],"stateMutability":"view"},{"type":"function","name":"STATUS_RELEASES_BLOCKED","inputs":[],"outputs":[{"name":"","type":"bytes32","internalType":"bytes32"}],"stateMutability":"view"},{"type":"function","name":"allSubjects","inputs":[],"outputs":[{"name":"","type":"bytes32[]","internalType":"bytes32[]"}],"stateMutability":"view"},{"type":"function","name":"cancelCommitment","inputs":[{"name":"commitmentSubj","type":"bytes32","internalType":"bytes32"},{"name":"reasonHash","type":"bytes32","internalType":"bytes32"}],"outputs":[],"stateMutability":"nonpayable"},{"type":"function","name":"commit","inputs":[{"name":"p","type":"tuple","internalType":"struct CommitmentRegistry.CommitParams","components":[{"name":"sourceKind","type":"bytes32","internalType":"bytes32"},{"name":"sourceSubject","type":"bytes32","internalType":"bytes32"},{"name":"round","type":"bytes32","internalType":"bytes32"},{"name":"donor","type":"address","internalType":"address"},{"name":"recipient","type":"address","internalType":"address"},{"name":"token","type":"address","internalType":"address"},{"name":"totalAmount","type":"uint256","internalType":"uint256"},{"name":"needIntentId","type":"string","internalType":"string"},{"name":"offerIntentId","type":"string","internalType":"string"},{"name":"milestonesJson","type":"string","internalType":"string"}]}],"outputs":[],"stateMutability":"nonpayable"},{"type":"function","name":"commitmentSubject","inputs":[{"name":"sourceKind","type":"bytes32","internalType":"bytes32"},{"name":"sourceSubject","type":"bytes32","internalType":"bytes32"},{"name":"donor","type":"address","internalType":"address"}],"outputs":[{"name":"","type":"bytes32","internalType":"bytes32"}],"stateMutability":"pure"},{"type":"function","name":"datatypeOf","inputs":[{"name":"subject","type":"bytes32","internalType":"bytes32"},{"name":"predicate","type":"bytes32","internalType":"bytes32"}],"outputs":[{"name":"","type":"uint8","internalType":"uint8"}],"stateMutability":"view"},{"type":"function","name":"getAddress","inputs":[{"name":"subject","type":"bytes32","internalType":"bytes32"},{"name":"predicate","type":"bytes32","internalType":"bytes32"}],"outputs":[{"name":"","type":"address","internalType":"address"}],"stateMutability":"view"},{"type":"function","name":"getAddressArr","inputs":[{"name":"subject","type":"bytes32","internalType":"bytes32"},{"name":"predicate","type":"bytes32","internalType":"bytes32"}],"outputs":[{"name":"","type":"address[]","internalType":"address[]"}],"stateMutability":"view"},{"type":"function","name":"getBool","inputs":[{"name":"subject","type":"bytes32","internalType":"bytes32"},{"name":"predicate","type":"bytes32","internalType":"bytes32"}],"outputs":[{"name":"","type":"bool","internalType":"bool"}],"stateMutability":"view"},{"type":"function","name":"getBytes32","inputs":[{"name":"subject","type":"bytes32","internalType":"bytes32"},{"name":"predicate","type":"bytes32","internalType":"bytes32"}],"outputs":[{"name":"","type":"bytes32","internalType":"bytes32"}],"stateMutability":"view"},{"type":"function","name":"getBytes32Arr","inputs":[{"name":"subject","type":"bytes32","internalType":"bytes32"},{"name":"predicate","type":"bytes32","internalType":"bytes32"}],"outputs":[{"name":"","type":"bytes32[]","internalType":"bytes32[]"}],"stateMutability":"view"},{"type":"function","name":"getCommitment","inputs":[{"name":"commitmentSubj","type":"bytes32","internalType":"bytes32"}],"outputs":[{"name":"sourceKind","type":"bytes32","internalType":"bytes32"},{"name":"sourceSubject","type":"bytes32","internalType":"bytes32"},{"name":"donor","type":"address","internalType":"address"},{"name":"recipient","type":"address","internalType":"address"},{"name":"token","type":"address","internalType":"address"},{"name":"totalAmount","type":"uint256","internalType":"uint256"},{"name":"releasedAmount","type":"uint256","internalType":"uint256"},{"name":"status","type":"bytes32","internalType":"bytes32"}],"stateMutability":"view"},{"type":"function","name":"getMilestoneRelease","inputs":[{"name":"commitmentSubj","type":"bytes32","internalType":"bytes32"},{"name":"milestoneId","type":"bytes32","internalType":"bytes32"}],"outputs":[{"name":"amount","type":"uint256","internalType":"uint256"},{"name":"releasedAt","type":"uint256","internalType":"uint256"}],"stateMutability":"view"},{"type":"function","name":"getOutcome","inputs":[{"name":"commitmentSubj","type":"bytes32","internalType":"bytes32"},{"name":"outcomeId","type":"bytes32","internalType":"bytes32"}],"outputs":[{"name":"evidenceHash","type":"bytes32","internalType":"bytes32"},{"name":"recordedAt","type":"uint256","internalType":"uint256"},{"name":"recordedBy","type":"address","internalType":"address"}],"stateMutability":"view"},{"type":"function","name":"getString","inputs":[{"name":"subject","type":"bytes32","internalType":"bytes32"},{"name":"predicate","type":"bytes32","internalType":"bytes32"}],"outputs":[{"name":"","type":"string","internalType":"string"}],"stateMutability":"view"},{"type":"function","name":"getStringArr","inputs":[{"name":"subject","type":"bytes32","internalType":"bytes32"},{"name":"predicate","type":"bytes32","internalType":"bytes32"}],"outputs":[{"name":"","type":"string[]","internalType":"string[]"}],"stateMutability":"view"},{"type":"function","name":"getUint","inputs":[{"name":"subject","type":"bytes32","internalType":"bytes32"},{"name":"predicate","type":"bytes32","internalType":"bytes32"}],"outputs":[{"name":"","type":"uint256","internalType":"uint256"}],"stateMutability":"view"},{"type":"function","name":"isSet","inputs":[{"name":"subject","type":"bytes32","internalType":"bytes32"},{"name":"predicate","type":"bytes32","internalType":"bytes32"}],"outputs":[{"name":"","type":"bool","internalType":"bool"}],"stateMutability":"view"},{"type":"function","name":"predicatesOf","inputs":[{"name":"subject","type":"bytes32","internalType":"bytes32"}],"outputs":[{"name":"","type":"bytes32[]","internalType":"bytes32[]"}],"stateMutability":"view"},{"type":"function","name":"recordOutcome","inputs":[{"name":"commitmentSubj","type":"bytes32","internalType":"bytes32"},{"name":"outcomeId","type":"bytes32","internalType":"bytes32"},{"name":"evidenceHash","type":"bytes32","internalType":"bytes32"}],"outputs":[],"stateMutability":"nonpayable"},{"type":"function","name":"recordRelease","inputs":[{"name":"commitmentSubj","type":"bytes32","internalType":"bytes32"},{"name":"milestoneId","type":"bytes32","internalType":"bytes32"},{"name":"amount","type":"uint256","internalType":"uint256"}],"outputs":[],"stateMutability":"nonpayable"},{"type":"function","name":"setDonor","inputs":[{"name":"commitmentSubj","type":"bytes32","internalType":"bytes32"},{"name":"newDonor","type":"address","internalType":"address"}],"outputs":[],"stateMutability":"nonpayable"},{"type":"function","name":"setRecipient","inputs":[{"name":"commitmentSubj","type":"bytes32","internalType":"bytes32"},{"name":"newRecipient","type":"address","internalType":"address"}],"outputs":[],"stateMutability":"nonpayable"},{"type":"function","name":"subjectCount","inputs":[],"outputs":[{"name":"","type":"uint256","internalType":"uint256"}],"stateMutability":"view"},{"type":"function","name":"subjectVersion","inputs":[{"name":"subject","type":"bytes32","internalType":"bytes32"}],"outputs":[{"name":"","type":"uint64","internalType":"uint64"}],"stateMutability":"view"},{"type":"function","name":"updatedAt","inputs":[{"name":"subject","type":"bytes32","internalType":"bytes32"},{"name":"predicate","type":"bytes32","internalType":"bytes32"}],"outputs":[{"name":"","type":"uint64","internalType":"uint64"}],"stateMutability":"view"},{"type":"event","name":"AttributeAppended","inputs":[{"name":"subject","type":"bytes32","indexed":true,"internalType":"bytes32"},{"name":"predicate","type":"bytes32","indexed":true,"internalType":"bytes32"},{"name":"datatype","type":"uint8","indexed":false,"internalType":"uint8"},{"name":"version","type":"uint64","indexed":false,"internalType":"uint64"}],"anonymous":false},{"type":"event","name":"AttributeSet","inputs":[{"name":"subject","type":"bytes32","indexed":true,"internalType":"bytes32"},{"name":"predicate","type":"bytes32","indexed":true,"internalType":"bytes32"},{"name":"datatype","type":"uint8","indexed":false,"internalType":"uint8"},{"name":"version","type":"uint64","indexed":false,"internalType":"uint64"}],"anonymous":false},{"type":"event","name":"AttributeUnset","inputs":[{"name":"subject","type":"bytes32","indexed":true,"internalType":"bytes32"},{"name":"predicate","type":"bytes32","indexed":true,"internalType":"bytes32"},{"name":"version","type":"uint64","indexed":false,"internalType":"uint64"}],"anonymous":false},{"type":"event","name":"Canceled","inputs":[{"name":"commitmentSubject","type":"bytes32","indexed":true,"internalType":"bytes32"},{"name":"reasonHash","type":"bytes32","indexed":false,"internalType":"bytes32"}],"anonymous":false},{"type":"event","name":"Committed","inputs":[{"name":"commitmentSubject","type":"bytes32","indexed":true,"internalType":"bytes32"},{"name":"sourceKind","type":"bytes32","indexed":true,"internalType":"bytes32"},{"name":"sourceSubject","type":"bytes32","indexed":true,"internalType":"bytes32"},{"name":"donor","type":"address","indexed":false,"internalType":"address"},{"name":"recipient","type":"address","indexed":false,"internalType":"address"},{"name":"totalAmount","type":"uint256","indexed":false,"internalType":"uint256"},{"name":"status","type":"bytes32","indexed":false,"internalType":"bytes32"}],"anonymous":false},{"type":"event","name":"Completed","inputs":[{"name":"commitmentSubject","type":"bytes32","indexed":true,"internalType":"bytes32"},{"name":"totalReleased","type":"uint256","indexed":false,"internalType":"uint256"}],"anonymous":false},{"type":"event","name":"DonorResolved","inputs":[{"name":"commitmentSubject","type":"bytes32","indexed":true,"internalType":"bytes32"},{"name":"newDonor","type":"address","indexed":false,"internalType":"address"}],"anonymous":false},{"type":"event","name":"OutcomeRecorded","inputs":[{"name":"commitmentSubject","type":"bytes32","indexed":true,"internalType":"bytes32"},{"name":"outcomeId","type":"bytes32","indexed":true,"internalType":"bytes32"},{"name":"evidenceHash","type":"bytes32","indexed":false,"internalType":"bytes32"},{"name":"recordedBy","type":"address","indexed":false,"internalType":"address"}],"anonymous":false},{"type":"event","name":"RecipientResolved","inputs":[{"name":"commitmentSubject","type":"bytes32","indexed":true,"internalType":"bytes32"},{"name":"newRecipient","type":"address","indexed":false,"internalType":"address"}],"anonymous":false},{"type":"event","name":"Released","inputs":[{"name":"commitmentSubject","type":"bytes32","indexed":true,"internalType":"bytes32"},{"name":"milestoneId","type":"bytes32","indexed":true,"internalType":"bytes32"},{"name":"recipient","type":"address","indexed":true,"internalType":"address"},{"name":"amount","type":"uint256","indexed":false,"internalType":"uint256"},{"name":"totalReleased","type":"uint256","indexed":false,"internalType":"uint256"}],"anonymous":false},{"type":"event","name":"SubjectFirstSeen","inputs":[{"name":"subject","type":"bytes32","indexed":true,"internalType":"bytes32"}],"anonymous":false},{"type":"error","name":"AttributeNotSet","inputs":[]},{"type":"error","name":"CommitmentNotActive","inputs":[]},{"type":"error","name":"CommitmentNotFound","inputs":[]},{"type":"error","name":"InvalidSourceKind","inputs":[]},{"type":"error","name":"InvalidToken","inputs":[]},{"type":"error","name":"MilestoneAlreadyReleased","inputs":[]},{"type":"error","name":"MissingNeedIntent","inputs":[]},{"type":"error","name":"NotDonor","inputs":[]},{"type":"error","name":"NotDonorOwner","inputs":[]},{"type":"error","name":"PredicateNotActive","inputs":[]},{"type":"error","name":"ReleaseExceedsTotal","inputs":[]},{"type":"error","name":"ZeroAmount","inputs":[]}],"bytecode":{"object":"0x60c03461009357601f613e0438819003918201601f19168301916001600160401b0383118484101761009757808492604094855283398101031261009357610052602061004b836100ab565b92016100ab565b6001600160a01b039182166080521660a052604051613d4490816100c082396080518181816105700152613342015260a051818181611fb001526128180152f35b5f80fd5b634e487b7160e01b5f52604160045260245ffd5b51906001600160a01b03821682036100935756fe6080806040526004361015610012575f80fd5b5f905f3560e01c90816308ca255014612e83575080631037c0ff14612e465780631725669414612e0c5780631b79291614612de55780631cc1c6f914612dbe578063213aaad714612da3578063284c0e0314612d7c57806329d5715d146122ee5780632aaa1aa4146122c65780632b0b179c1461229e5780633052109114612276578063305471811461221257806331477b9b146121d057806332f86d10146121a857806337d9d7fc1461217b5780634083843e14612112578063423d487c146120ea57806342921cf3146120ba5780634349c01b1461207f57806344c4382b14612057578063496965331461202f5780634abd081014612007578063545163cf14611fdf57806355c964dd14611f9a57806356f65bee14611f72578063639a2e1014611f545780637084db1f14611934578063712464871461174a578063717e7a1c14611722578063724f27ee146116fa57806376910d1e146116d25780637795820c146113075780637a6ad926146112da57806380b04f4a1461129f57806380c053c41461108e578063880eadce1461105857806388686bb414610e5157806389f95b1814610e165780638ced5f4714610b485780638e10136914610b2c5780638e21caca14610af957806393cbc37d14610add5780639405aa3114610ab557806398eaf11c14610a83578063a954aea114610a67578063aa4ecfbb14610941578063b2150eb914610919578063bb6b0c3b146108e7578063be78c068146108cb578063c3174629146108af578063c3a6123d1461082a578063c6afdd93146107ef578063c8e1d369146107c7578063cb954f30146106cf578063d0dd6bdc14610694578063d3a396861461065d578063e4281bc31461059f578063e63cdb421461055a578063ece6bebc1461053e578063ee78461014610374578063f489cc571461034c578063f98eed6914610330578063f9e578bd146103085763ff787c05146102de575f80fd5b3461030557806003193601126103055760206040515f516020613a8f5f395f51905f528152f35b80fd5b503461030557806003193601126103055760206040515f5160206139ef5f395f51905f528152f35b5034610305578060031936011261030557602060405160088152f35b503461030557806003193601126103055760206040515f516020613ccf5f395f51905f528152f35b5034610305576060366003190112610305576004356024359060443560405163bb6b0c3b60e01b81528260048201525f516020613caf5f395f51905f526024820152602081604481305afa908115610533578591610504575b50156104f55760407f124349b7d8c48647f750138dd73f880ced5b1104ada07a773d04355f802ea0b5916104e65f516020613c8f5f395f51905f5261041287876132e7565b6104285f516020613a8f5f395f51905f52613325565b80895260046020528489205f516020613a8f5f395f51905f528a5260205283858a20556104625f516020613a8f5f395f51905f5282613432565b6104785f516020613a6f5f395f51905f52613325565b80895260036020528489205f516020613a6f5f395f51905f528a5260205242858a20556104b25f516020613a6f5f395f51905f5282613884565b6104bb82613325565b8089526001602052848920828a52602052848920336001600160601b0360a01b82541617905561371a565b8151908152336020820152a380f35b635b34156960e11b8452600484fd5b610526915060203d60201161052c575b61051e8183612f77565b8101906130c1565b5f6103cd565b503d610514565b6040513d87823e3d90fd5b5034610305578060031936011261030557602060405160028152f35b50346103055780600319360112610305576040517f00000000000000000000000000000000000000000000000000000000000000006001600160a01b03168152602090f35b5034610305576105ae36612ef7565b90825260066020526040822090825260205260408120604051908160208254918281520190819285526020852090855b81811061063e57505050826105f4910383612f77565b604051928392602084019060208552518091526040840192915b81811061061c575050500390f35b82516001600160a01b031684528594506020938401939092019160010161060e565b82546001600160a01b03168452602090930192600192830192016105de565b50346103055760209061066f36612ef7565b90825260018352604082209082528252604060018060a01b0391205416604051908152f35b503461030557806003193601126103055760206040517f811ab13414193b981a48b9d6b99c4c20daae37d6ae05ac422fb5d7ae3bd007b68152f35b5034610305576106de36612ef7565b9082526005602052604082209082526020526040812080546001600160401b0381116107b3576040519061071860208260051b0183612f77565b80825260208201809385526020852085915b83831061079657868587604051928392602084019060208552518091526040840160408260051b8601019392905b82821061076757505050500390f35b919360019193955060206107868192603f198a82030186528851612f0d565b9601920192018594939192610758565b6001602081926107a585613021565b81520192019201919061072a565b634e487b7160e01b83526041600452602483fd5b503461030557806003193601126103055760206040515f516020613b6f5f395f51905f528152f35b503461030557806003193601126103055760206040517fe13a096d467f7da32f570b2abd05203ece22053b09f991dfc4e63c7a892ba76e8152f35b503461030557806003193601126103055760405180916020600d54928381520191600d82527fd7b6990105719101dabeb77144f2a3385c8033acd3af97e9423a695e81ad1eb5915b818110610899576108958561088981870382612f77565b60405191829182612ebe565b0390f35b8254845260209093019260019283019201610872565b5034610305578060031936011261030557602060405160058152f35b5034610305578060031936011261030557602060405160048152f35b50346103055760ff60406020926108fd36612ef7565b9082526009855282822090825284522054166040519015158152f35b503461030557806003193601126103055760206040515f516020613a6f5f395f51905f528152f35b50346103055760403660031901126103055760043561095e612ea8565b6040516369d1cb4360e11b8152600481018390525f516020613caf5f395f51905f526024820152602081604481305afa908115610a5c578491610a2d575b506001600160a01b038116156104f5576109b7903390613148565b15610a1e576001600160a01b038116908115610a0f577f41720581d6adb7a3fd2d9120e5a21fcafe037a4825109936fac053ffcf609e53916109fb602092856131ef565b610a05428561325c565b604051908152a280f35b633265af6160e11b8452600484fd5b633265af6160e11b8352600483fd5b610a4f915060203d602011610a55575b610a478183612f77565b8101906130d9565b5f61099c565b503d610a3d565b6040513d86823e3d90fd5b5034610305578060031936011261030557602060405160018152f35b50346103055760ff6040602092610a9936612ef7565b9082526002855282822090825284522054166040519015158152f35b503461030557806003193601126103055760206040515f516020613bef5f395f51905f528152f35b5034610305578060031936011261030557602060405160038152f35b5034610305576020366003190112610305576001600160401b0360406020926004358152600c8452205416604051908152f35b5034610305578060031936011261030557602060405160068152f35b503461030557610b5736612ef7565b908291610b66849185936132e7565b60405163bb6b0c3b60e01b8152600481018290525f516020613a8f5f395f51905f526024820152602081604481305afa908115610cd9578691610df7575b50610d7f575b60405163bb6b0c3b60e01b8152600481018290525f516020613a6f5f395f51905f526024820152602081604481305afa908115610cd9578691610d60575b50610ce4575b60405163bb6b0c3b60e01b8152600481018290525f516020613c8f5f395f51905f526024820152602081604481305afa908115610cd9578691610cba575b50610c51575b5060609350604051928352602083015260018060a01b03166040820152f35b909150604051906369d1cb4360e11b825260048201525f516020613c8f5f395f51905f526024820152602081604481305afa908115610a5c5760609491610c9b575b50905f610c32565b610cb4915060203d602011610a5557610a478183612f77565b5f610c93565b610cd3915060203d60201161052c5761051e8183612f77565b5f610c2c565b6040513d88823e3d90fd5b9050604051633d356c9360e11b81528160048201525f516020613a6f5f395f51905f526024820152602081604481305afa908115610533578591610d2a575b5090610bee565b90506020813d602011610d58575b81610d4560209383612f77565b81010312610d5457515f610d23565b5f80fd5b3d9150610d38565b610d79915060203d60201161052c5761051e8183612f77565b5f610be8565b9250604051630df675ff60e21b81528360048201525f516020613a8f5f395f51905f526024820152602081604481305afa908115610533578591610dc5575b5092610baa565b90506020813d602011610def575b81610de060209383612f77565b81010312610d5457515f610dbe565b3d9150610dd3565b610e10915060203d60201161052c5761051e8183612f77565b5f610ba4565b503461030557806003193601126103055760206040517fe4a144b1553441e0005b35043fce49c0148d906f2b912a0b253db62a353e2b988152f35b503461030557610e6036612ef7565b90610e6d839284926132a7565b9260405163bb6b0c3b60e01b81528460048201525f516020613b2f5f395f51905f526024820152602081604481305afa908115610fab578291611039575b50610fb6575b60405163bb6b0c3b60e01b8152600481018590525f516020613a2f5f395f51905f526024820152602081604481305afa908115610fab578291610f8c575b50610f05575b6040838382519182526020820152f35b905060405192633d356c9360e11b845260048401525f516020613a2f5f395f51905f526024840152602083604481305afa908115610f805790610f4d575b604092505f610ef5565b506020823d602011610f78575b81610f6760209383612f77565b81010312610d545760409151610f43565b3d9150610f5a565b604051903d90823e3d90fd5b610fa5915060203d60201161052c5761051e8183612f77565b5f610eef565b6040513d84823e3d90fd5b9150604051633d356c9360e11b81528360048201525f516020613b2f5f395f51905f526024820152602081604481305afa90811561102e578391610ffc575b5091610eb1565b90506020813d602011611026575b8161101760209383612f77565b81010312610d5457515f610ff5565b3d915061100a565b6040513d85823e3d90fd5b611052915060203d60201161052c5761051e8183612f77565b5f610eab565b5034610305576001600160401b03604060209261107436612ef7565b908252600b85528282209082528452205416604051908152f35b50346103055761109d36612ef7565b6040516369d1cb4360e11b8152600481018390525f516020613caf5f395f51905f526024820152602081604481305afa908115610a5c578491611280575b506001600160a01b038116156104f5576110f6903390613148565b15610a1e57604051630df675ff60e21b8152600481018390525f516020613c6f5f395f51905f526024820152602081604481305afa908115610a5c57849161124e575b505f516020613acf5f395f51905f528114908115611237575b506112285760207fdd64fa89854621f26460857926b5e46f2caa6d24580120699be0a720ddf232c7916111915f516020613c6f5f395f51905f52613325565b83855260048252604085205f516020613c6f5f395f51905f52865282525f516020613aef5f395f51905f5260408620556111d85f516020613c6f5f395f51905f5285613432565b6111ee5f5160206139ef5f395f51905f52613325565b83855260048252604085205f5160206139ef5f395f51905f52865282528060408620556109fb5f5160206139ef5f395f51905f5285613432565b6302eefa3560e51b8352600483fd5b5f516020613aef5f395f51905f529150145f611152565b90506020813d602011611278575b8161126960209383612f77565b81010312610d5457515f611139565b3d915061125c565b611299915060203d602011610a5557610a478183612f77565b5f6110db565b503461030557806003193601126103055760206040517fddbb07e7be4794b6b2f346957783ae4e02f6ed8422c8d73c4a04b5a0e1a39acb8152f35b50346103055760406020916112ee36612ef7565b9082526003845282822090825283522054604051908152f35b503461030557602036600319011261030557604051630df675ff60e21b8152600480359082018190525f516020613b6f5f395f51905f52602483015291602082604481305afa9182156116c5578192611691575b50604051630df675ff60e21b8152600481018490525f516020613b8f5f395f51905f526024820152602081604481305afa908115610fab57829161165f575b506040516369d1cb4360e11b8152600481018590525f516020613caf5f395f51905f526024820152602081604481305afa90811561102e578391611640575b506040516369d1cb4360e11b8152600481018690525f516020613aaf5f395f51905f526024820152602081604481305afa908115610a5c578491611621575b506040516369d1cb4360e11b8152600481018790525f516020613cef5f395f51905f52602482015290602082604481305afa918215610533578592611600575b50604051633d356c9360e11b8152600481018890525f516020613c2f5f395f51905f52602482015292602084604481305afa938415610cd95786946115cc575b50604051633d356c9360e11b8152600481018990525f516020613a4f5f395f51905f52602482015294602086604481305afa9586156115c157879661158d575b5060405198630df675ff60e21b8a5260048a01525f516020613c6f5f395f51905f5260248a0152602089604481305afa968715610f805796611557575b6040805198895260208901919091526001600160a01b0391821690880152908116606087015216608085015260a084015260c083015260e08201526101009150f35b95506020883d602011611585575b8161157260209383612f77565b81010312610d5457610100975195611515565b3d9150611565565b9095506020813d6020116115b9575b816115a960209383612f77565b81010312610d545751945f6114d8565b3d915061159c565b6040513d89823e3d90fd5b9093506020813d6020116115f8575b816115e860209383612f77565b81010312610d545751925f611498565b3d91506115db565b61161a91925060203d602011610a5557610a478183612f77565b905f611458565b61163a915060203d602011610a5557610a478183612f77565b5f611418565b611659915060203d602011610a5557610a478183612f77565b5f6113d9565b90506020813d602011611689575b8161167a60209383612f77565b81010312610d5457515f61139a565b3d915061166d565b9091506020813d6020116116bd575b816116ad60209383612f77565b81010312610d545751905f61135b565b3d91506116a0565b50604051903d90823e3d90fd5b503461030557806003193601126103055760206040515f516020613b4f5f395f51905f528152f35b503461030557806003193601126103055760206040515f516020613acf5f395f51905f528152f35b503461030557806003193601126103055760206040515f516020613c8f5f395f51905f528152f35b503461030557604036600319011261030557600435611767612ea8565b6040516369d1cb4360e11b8152600481018390525f516020613caf5f395f51905f526024820152602081604481305afa908115610a5c578491611915575b506001600160a01b038116156104f5576117c0903390613148565b15610a1e576001600160a01b038116908115610a0f576117e09083613240565b604051630df675ff60e21b8152600481018390525f516020613c6f5f395f51905f526024820152602081604481305afa908115610a5c5784916118c3575b507fdbed4d2d576335bf77aa452afe68bae732984eb42a8530a999b665aabc4b3aa3915f516020613b4f5f395f51905f526020921461186157610a05428561325c565b6118775f516020613c6f5f395f51905f52613325565b83855260048252604085205f516020613c6f5f395f51905f52865282525f516020613c0f5f395f51905f5260408620556118be5f516020613c6f5f395f51905f5285613432565b6109fb565b90506020813d60201161190d575b816118de60209383612f77565b81010312610d5457517fdbed4d2d576335bf77aa452afe68bae732984eb42a8530a999b665aabc4b3aa361181e565b3d91506118d1565b61192e915060203d602011610a5557610a478183612f77565b5f6117a5565b5034610305576060366003190112610305576004356024356044359160405163bb6b0c3b60e01b81528160048201525f516020613caf5f395f51905f526024820152602081604481305afa908115610533578591611f35575b50156104f557604051630df675ff60e21b8152600481018290525f516020613c6f5f395f51905f526024820152602081604481305afa908115610533578591611f03575b505f516020613aef5f395f51905f5281148015611eed575b8015611ed7575b611ec8576040516369d1cb4360e11b8152600481018390525f516020613caf5f395f51905f526024820152602081604481305afa908115610cd9578691611ea9575b506001600160a01b03163303611e9a578315611e8b57611a5283836132a7565b9060405163bb6b0c3b60e01b81528260048201525f516020613b2f5f395f51905f526024820152602081604481305afa9081156115c1578791611e6c575b50611e5d57604051633d356c9360e11b8152600481018490525f516020613c2f5f395f51905f526024820152602081604481305afa9081156115c1578791611e2b575b50604051633d356c9360e11b8152600481018590525f516020613a4f5f395f51905f52602482015292602084604481305afa938415611e20578894611dec575b50868401809411611dd857818411611dc9575f516020613a2f5f395f51905f52611baf91611b4d5f516020613b2f5f395f51905f52613325565b808a52600360205260408a205f516020613b2f5f395f51905f528b526020528860408b2055611b895f516020613b2f5f395f51905f5282613884565b611b9282613325565b808a52600360205260408a20828b526020524260408b2055613884565b611bc55f516020613a4f5f395f51905f52613325565b8387526003602052604087205f516020613a4f5f395f51905f528852602052826040882055611c015f516020613a4f5f395f51905f5285613884565b611c0b428561325c565b821015611d39575f516020613c0f5f395f51905f5214611cc2575b6040516369d1cb4360e11b8152600481018390525f516020613aaf5f395f51905f526024820152602081604481305afa8015610cd9577fe5ff88688208de5830e33566b5d9a58ec5e470206a419fdca60c51ff68611f97926040928892611ca1575b50825196875260208701526001600160a01b031694a480f35b611cbb91925060203d602011610a5557610a478183612f77565b905f611c88565b611cd85f516020613c6f5f395f51905f52613325565b8185526004602052604085205f516020613c6f5f395f51905f5286526020527fe4a144b1553441e0005b35043fce49c0148d906f2b912a0b253db62a353e2b986040862055611d345f516020613c6f5f395f51905f5283613432565b611c26565b50611d505f516020613c6f5f395f51905f52613325565b8185526004602052604085205f516020613c6f5f395f51905f5286526020525f516020613acf5f395f51905f526040862055611d995f516020613c6f5f395f51905f5283613432565b817f634cfec248f825718064d5e1b53bdb5adac343bc794418e90e8c5b4f6142926c6020604051848152a2611c26565b63b183b79d60e01b8852600488fd5b634e487b7160e01b88526011600452602488fd5b9093506020813d602011611e18575b81611e0860209383612f77565b81010312610d545751925f611b13565b3d9150611dfb565b6040513d8a823e3d90fd5b90506020813d602011611e55575b81611e4660209383612f77565b81010312610d5457515f611ad3565b3d9150611e39565b6340dabeef60e11b8652600486fd5b611e85915060203d60201161052c5761051e8183612f77565b5f611a90565b631f2a200560e01b8552600485fd5b63439aada160e01b8552600485fd5b611ec2915060203d602011610a5557610a478183612f77565b5f611a32565b6302eefa3560e51b8552600485fd5b505f516020613b4f5f395f51905f5281146119f0565b505f516020613acf5f395f51905f5281146119e9565b90506020813d602011611f2d575b81611f1e60209383612f77565b81010312610d5457515f6119d1565b3d9150611f11565b611f4e915060203d60201161052c5761051e8183612f77565b5f61198d565b50346103055780600319360112610305576020600d54604051908152f35b503461030557806003193601126103055760206040515f516020613aef5f395f51905f528152f35b50346103055780600319360112610305576040517f00000000000000000000000000000000000000000000000000000000000000006001600160a01b03168152602090f35b503461030557806003193601126103055760206040515f516020613a2f5f395f51905f528152f35b503461030557806003193601126103055760206040515f516020613cef5f395f51905f528152f35b503461030557806003193601126103055760206040515f516020613aaf5f395f51905f528152f35b503461030557806003193601126103055760206040515f516020613c2f5f395f51905f528152f35b503461030557806003193601126103055760206040517f7c62887888031366ecded4b3dfb3404ddb744eaa89d421730ae29f3d18b5b38e8152f35b50346103055760ff60406020926120d036612ef7565b908252600a85528282209082528452205416604051908152f35b503461030557806003193601126103055760206040515f516020613c0f5f395f51905f528152f35b50346103055761212136612ef7565b90825260076020526040822090825260205260408120604051918260208354918281520192825260208220915b818110612165576108958561088981870382612f77565b825484526020909301926001928301920161214e565b503461030557604060209161218f36612ef7565b9082526004845282822090825283522054604051908152f35b503461030557806003193601126103055760206040515f516020613b8f5f395f51905f528152f35b5034610305576121fe6040610895926121e836612ef7565b9082528160205282822090825260205220613021565b604051918291602083526020830190612f0d565b5034610305576020366003190112610305576004358152600860205260408120604051918260208354918281520192825260208220915b818110612260576108958561088981870382612f77565b8254845260209093019260019283019201612249565b503461030557806003193601126103055760206040515f516020613b2f5f395f51905f528152f35b503461030557806003193601126103055760206040515f516020613baf5f395f51905f528152f35b503461030557806003193601126103055760206040515f516020613b0f5f395f51905f528152f35b5034610d54576020366003190112610d54576004356001600160401b038111610d5457806004016101406003198336030112610d54578035907fe13a096d467f7da32f570b2abd05203ece22053b09f991dfc4e63c7a892ba76e82148015612d53575b8015612d2a575b15612d1b5760a483016001600160a01b0361237282612f31565b1615612d0c5760c4840135918215612cfd5760e48501926123938483612f45565b905015612cee5760648601916001600160a01b036123b084612f31565b16158015612cd4575b612cc55760248701359661249a6124936123dc6123d587612f31565b8b8b6130f8565b976123f35f516020613b6f5f395f51905f52613325565b885f52600460205260405f205f516020613b6f5f395f51905f525f526020528960405f205561242f5f516020613b6f5f395f51905f528a613432565b6124455f516020613b8f5f395f51905f52613325565b885f52600460205260405f205f516020613b8f5f395f51905f525f526020528a60405f20556124815f516020613b8f5f395f51905f528a613432565b604484013580612c6e575b5084612f45565b3691612fb3565b6124b05f516020613bef5f395f51905f52613325565b865f525f60205260405f205f516020613bef5f395f51905f525f5260205260405f20908051906001600160401b038211612a195781906124f08454612fe9565b601f8111612c1e575b50602090601f8311600114612bbb575f92612bb0575b50508160011b915f199060031b1c19161790555b61253a5f516020613bef5f395f51905f52876135b0565b61010481016125498184612f45565b9050612a2d575b50612650916101246124939261256e61256888612f31565b8a6131ef565b61258d60848201986125886125828b612f31565b8c613240565b612f31565b6125a35f516020613cef5f395f51905f52613325565b895f52600160205260405f205f516020613cef5f395f51905f525f5260205260405f209060018060a01b03166001600160601b0360a01b8254161790556125f75f516020613cef5f395f51905f528a61371a565b61260d5f516020613c2f5f395f51905f52613325565b885f52600360205260405f205f516020613c2f5f395f51905f525f526020528560405f20556126495f516020613c2f5f395f51905f528a613884565b0190612f45565b6126665f516020613baf5f395f51905f52613325565b845f525f60205260405f205f516020613baf5f395f51905f525f5260205260405f20908051906001600160401b038211612a195781906126a68454612fe9565b601f81116129c9575b50602090601f8311600114612966575f9261295b575b50508160011b915f199060031b1c19161790555b6126f05f516020613baf5f395f51905f52856135b0565b6127065f516020613a4f5f395f51905f52613325565b835f52600360205260405f205f516020613a4f5f395f51905f525f526020525f60408120556127425f516020613a4f5f395f51905f5285613884565b6127585f516020613ccf5f395f51905f52613325565b835f52600360205260405f205f516020613ccf5f395f51905f525f526020524260405f20556127945f516020613ccf5f395f51905f5285613884565b61279e428561325c565b6001600160a01b036127af84612f31565b16612947575f516020613b4f5f395f51905f52915b6127da5f516020613c6f5f395f51905f52613325565b845f52600460205260405f205f516020613c6f5f395f51905f525f526020528260405f20556128165f516020613c6f5f395f51905f5286613432565b7f00000000000000000000000000000000000000000000000000000000000000006001600160a01b0316803b15610d54575f606491604051928380926309abe27f60e01b82527f7c62887888031366ecded4b3dfb3404ddb744eaa89d421730ae29f3d18b5b38e60048301528a60248301523060448301525afa801561293c576128fb575b50917f78023ae744297b04d08fb963c1c838fef6e122249e37285fd22301deb051960e93916128d46128ce608095612f31565b93612f31565b604080516001600160a01b039586168152919094166020820152928301526060820152a480f35b6080939198509161292e5f7f78023ae744297b04d08fb963c1c838fef6e122249e37285fd22301deb051960e9694612f77565b5f989294919350919061289b565b6040513d5f823e3d90fd5b5f516020613c0f5f395f51905f52916127c4565b015190505f806126c5565b5f8581528281209350601f198516905b8181106129b15750908460019594939210612999575b505050811b0190556126d9565b01515f1960f88460031b161c191690555f808061298c565b92936020600181928786015181550195019301612976565b909150835f5260205f20601f840160051c81019160208510612a0f575b90601f859493920160051c01905b818110612a0157506126af565b5f81558493506001016129f4565b90915081906129e6565b634e487b7160e01b5f52604160045260245ffd5b612493612a3a9184612f45565b612a505f516020613b0f5f395f51905f52613325565b865f525f60205260405f205f516020613b0f5f395f51905f525f5260205260405f20908051906001600160401b038211612a1957612a8e8354612fe9565b601f8111612b6b575b50602090601f8311600114612afc57928261012493612493969361265098965f92612af1575b50508160011b915f199060031b1c19161790555b612ae85f516020613b0f5f395f51905f528a6135b0565b92505091612550565b015190505f80612abd565b90601f19831691845f52815f20925f5b818110612b535750936124939693612650989693600193836101249810612b3b575b505050811b019055612ad1565b01515f1960f88460031b161c191690555f8080612b2e565b92936020600181928786015181550195019301612b0c565b835f5260205f20601f840160051c81019160208510612ba6575b601f0160051c01905b818110612b9b5750612a97565b5f8155600101612b8e565b9091508190612b85565b015190505f8061250f565b5f8581528281209350601f198516905b818110612c065750908460019594939210612bee575b505050811b019055612523565b01515f1960f88460031b161c191690555f8080612be1565b92936020600181928786015181550195019301612bcb565b909150835f5260205f20601f840160051c81019160208510612c64575b90601f859493920160051c01905b818110612c5657506124f9565b5f8155849350600101612c49565b9091508190612c3b565b612c845f516020613c4f5f395f51905f52613325565b895f52600460205260405f205f516020613c4f5f395f51905f525f5260205260405f2055612cbf5f516020613c4f5f395f51905f528a613432565b5f61248c565b633265af6160e11b5f5260045ffd5b50612ce8612ce184612f31565b3390613148565b156123b9565b630e774e3d60e31b5f5260045ffd5b631f2a200560e01b5f5260045ffd5b63c1ab6dc160e01b5f5260045ffd5b63a3646c4f60e01b5f5260045ffd5b507f811ab13414193b981a48b9d6b99c4c20daae37d6ae05ac422fb5d7ae3bd007b68214612358565b507f6bf765f0c6013dc8207aa6b754dea2bf3a112d8ced34c018189e00459bcbc5518214612351565b34610d54575f366003190112610d545760206040515f516020613caf5f395f51905f528152f35b34610d54575f366003190112610d5457602060405160078152f35b34610d54575f366003190112610d545760206040515f516020613a4f5f395f51905f528152f35b34610d54575f366003190112610d545760206040515f516020613c6f5f395f51905f528152f35b34610d54575f366003190112610d545760206040517f6bf765f0c6013dc8207aa6b754dea2bf3a112d8ced34c018189e00459bcbc5518152f35b34610d54576060366003190112610d54576044356001600160a01b0381168103610d5457612e7b6020916024356004356130f8565b604051908152f35b34610d54575f366003190112610d5457805f516020613c4f5f395f51905f5260209252f35b602435906001600160a01b0382168203610d5457565b60206040818301928281528451809452019201905f5b818110612ee15750505090565b8251845260209384019390920191600101612ed4565b6040906003190112610d54576004359060243590565b805180835260209291819084018484015e5f828201840152601f01601f1916010190565b356001600160a01b0381168103610d545790565b903590601e1981360301821215610d5457018035906001600160401b038211610d5457602001918136038313610d5457565b90601f801991011681019081106001600160401b03821117612a1957604052565b6001600160401b038111612a1957601f01601f191660200190565b929192612fbf82612f98565b91612fcd6040519384612f77565b829481845281830111610d54578281602093845f960137010152565b90600182811c92168015613017575b602083101461300357565b634e487b7160e01b5f52602260045260245ffd5b91607f1691612ff8565b9060405191825f82549261303484612fe9565b808452936001811690811561309f575060011461305b575b5061305992500383612f77565b565b90505f9291925260205f20905f915b818310613083575050906020613059928201015f61304c565b602091935080600191548385890101520191019091849261306a565b90506020925061305994915060ff191682840152151560051b8201015f61304c565b90816020910312610d5457518015158103610d545790565b90816020910312610d5457516001600160a01b0381168103610d545790565b916040519160208301936d39b09d31b7b6b6b4ba36b2b73a1d60911b8552602e840152604e8301526001600160601b03199060601b16606e82015260628152613142608282612f77565b51902090565b90813b156131e9575f91829160405160208101916317aa5fb760e11b835260018060a01b0316602482015260248152613182604482612f77565b51915afa3d156131e2573d61319681612f98565b906131a46040519283612f77565b81523d5f602083013e5b816131d4575b816131bd575090565b6131d19150602080825183010191016130c1565b90565b9050602081511015906131b4565b60606131ae565b50505f90565b5f516020613caf5f395f51905f52906130599261320b83613325565b815f52600160205260405f20835f5260205260405f209060018060a01b03166001600160601b0360a01b82541617905561371a565b5f516020613aaf5f395f51905f52906130599261320b83613325565b7fddbb07e7be4794b6b2f346957783ae4e02f6ed8422c8d73c4a04b5a0e1a39acb906130599261328b83613325565b815f52600360205260405f20835f5260205260405f2055613884565b9060405190602082019283526060604083015260096080830152686d696c6573746f6e6560b81b60a0830152606082015260a0815261314260c082612f77565b9060405190602082019283526060604083015260076080830152666f7574636f6d6560c81b60a0830152606082015260a0815261314260c082612f77565b60405163170da40760e21b815260048101919091526020816024817f00000000000000000000000000000000000000000000000000000000000000006001600160a01b03165afa90811561293c575f91613391575b501561338257565b632263bf1f60e21b5f5260045ffd5b6133aa915060203d60201161052c5761051e8183612f77565b5f61337a565b600d54600160401b811015612a19576001810180600d558110156133f757600d5f527fd7b6990105719101dabeb77144f2a3385c8033acd3af97e9423a695e81ad1eb50155565b634e487b7160e01b5f52603260045260245ffd5b805490600160401b821015612a1957600182018082558210156133f7575f5260205f200155565b805f52600e60205260ff60405f20541615613579575b805f52600960205260405f20825f5260205260ff60405f2054161561353e575b805f52600a60205260405f20825f5260205260405f20600560ff19825416179055805f52600c60205260016001600160401b0360405f205416016001600160401b03811161352a5760405f516020613bcf5f395f51905f5291835f52600c602052815f206001600160401b0382166001600160401b0319825416179055835f52600b602052815f20855f52602052815f206001600160401b0382166001600160401b03198254161790556001600160401b0382519160058352166020820152a3565b634e487b7160e01b5f52601160045260245ffd5b805f5260086020526135538260405f2061340b565b805f52600960205260405f20825f5260205260405f20600160ff19825416179055613468565b805f52600e60205260405f20600160ff19825416179055613599816133b0565b805f516020613a0f5f395f51905f525f80a2613448565b805f52600e60205260ff60405f205416156136e3575b805f52600960205260405f20825f5260205260ff60405f205416156136a8575b805f52600a60205260405f20825f5260205260405f20600160ff19825416179055805f52600c60205260016001600160401b0360405f205416016001600160401b03811161352a5760405f516020613bcf5f395f51905f5291835f52600c602052815f206001600160401b0382166001600160401b0319825416179055835f52600b602052815f20855f52602052815f206001600160401b0382166001600160401b03198254161790556001600160401b0382519160018352166020820152a3565b805f5260086020526136bd8260405f2061340b565b805f52600960205260405f20825f5260205260405f20600160ff198254161790556135e6565b805f52600e60205260405f20600160ff19825416179055613703816133b0565b805f516020613a0f5f395f51905f525f80a26135c6565b805f52600e60205260ff60405f2054161561384d575b805f52600960205260405f20825f5260205260ff60405f20541615613812575b805f52600a60205260405f20825f5260205260405f20600260ff19825416179055805f52600c60205260016001600160401b0360405f205416016001600160401b03811161352a5760405f516020613bcf5f395f51905f5291835f52600c602052815f206001600160401b0382166001600160401b0319825416179055835f52600b602052815f20855f52602052815f206001600160401b0382166001600160401b03198254161790556001600160401b0382519160028352166020820152a3565b805f5260086020526138278260405f2061340b565b805f52600960205260405f20825f5260205260405f20600160ff19825416179055613750565b805f52600e60205260405f20600160ff1982541617905561386d816133b0565b805f516020613a0f5f395f51905f525f80a2613730565b805f52600e60205260ff60405f205416156139b7575b805f52600960205260405f20825f5260205260ff60405f2054161561397c575b805f52600a60205260405f20825f5260205260405f20600460ff19825416179055805f52600c60205260016001600160401b0360405f205416016001600160401b03811161352a5760405f516020613bcf5f395f51905f5291835f52600c602052815f206001600160401b0382166001600160401b0319825416179055835f52600b602052815f20855f52602052815f206001600160401b0382166001600160401b03198254161790556001600160401b0382519160048352166020820152a3565b805f5260086020526139918260405f2061340b565b805f52600960205260405f20825f5260205260405f20600160ff198254161790556138ba565b805f52600e60205260405f20600160ff198254161790556139d7816133b0565b805f516020613a0f5f395f51905f525f80a261389a56fea372c18b9120a0b5e675515575c1f9ac39e560b4bdce8f3e4a2e46bc5bc34f7c34f1cb4778d9578e1af878b07d3ae7e9f2f32fafcaa3096fe48153670a71bfaf5ff8bdeef8cb4096dcf6e1478381b5235cad22ba8ed45b1561361d59c51c5831e33f0b5d79885b035847734bc35b350d90c366486ef286e481adf69ea8efd9fe61561a01ecd3f9d62b30d75353fa47565a9be146cae5bf9c0ee66b9cbca9b2b29a3b815e0b2c210be35e76ce80aab158a9234ec833adfb619798bfa888d51d9872802b96c72c79e9203dce2b2546adfb5d58235ac576fd18913a604329c4650ec3dd1b97f7944cf420f9ba3ff50c890ac3e218c6baca283ce4a11668afd515de64d6729765b65298627b92cdd500bcc234ba5208154ddac96306073f729551945784ce9ab437a835fe33cd036c2529e16ba1377b8350b5b3d749a94d6ce0c9010b1f9c0429c72ec87da16b090005807356fe9548acf69c9ddf83c24d37e01c12b8d4381b4bc6a8d248744464d30d98089dc7a44c974cd33c484a84fb2ec7f11259d551cb9685bde5063d1f633f0ddd4562b7b50f7d5337e6c29a4da73502c7b4bdf6251e8b7fb6f501a4e816f7426bedd9d08ff8a6a57d9c456e5a777a588321a9667250ab361aaa3be3da28f035cd834ccdc8430924f5b7bfea731d26f3b5b45167ea251eeaf052f4c7bd769efb5b17e6ba98908050b9929a0bd192b57274fb704639a895b7914326c435fd33176f6eeed7db24e38ba3b81100c0ee9c0b72c5aaac8a9c8208af8e92227af4714a6332676c8ad7791821fc8704165b47ed752ca321c29f9017245278957f0272078bcabea45f3a1af10e6c18b2e359d71f40cc01627d9554310611c5c783980b89f0b84fc64fa407b7a8e39d5f303109964aa77f9b1f5c0682846483bbd16b462541d9b7c8644ed0c799c1e53d06e97ffd59ab569814b1939d55ae56f277259cc4871600003caeab24358ba579f8b14d211158dd9daf323191dbceaa69751eb55ba0be18bdb627a06a5b5abbd43a2ec3393f4fb04538e525e9fb6aeb1200808ccaa493503370f2026b3bed1ff09ad7817bd6b2f42eee226de72d07b35120be4103041b51c4d8d55a96c587137682f9885f4236a2646970667358221220a988f763bee1aa0adc974e91cfd946e2918b1f6e1672e5b0ec56b7b963a47e7d64736f6c634300081c0033","linkReferences":{}},"methodIdentifiers":{"CLASS_COMMITMENT()":"4349c01b","DT_ADDRESS_ARR_PUB()":"213aaad7","DT_ADDRESS_PUB()":"ece6bebc","DT_BOOL_PUB()":"93cbc37d","DT_BYTES32_ARR_PUB()":"f98eed69","DT_BYTES32_PUB()":"c3174629","DT_STRING_ARR_PUB()":"8e101369","DT_STRING_PUB()":"a954aea1","DT_UINT256_PUB()":"be78c068","ONTOLOGY()":"e63cdb42","SA_COMMITMENT_CANCEL_REASON()":"f9e578bd","SA_COMMITMENT_COMMITTED_AT()":"f489cc57","SA_COMMITMENT_DONOR()":"284c0e03","SA_COMMITMENT_MILESTONES_JSON()":"2b0b179c","SA_COMMITMENT_NEED_INTENT()":"9405aa31","SA_COMMITMENT_OFFER_INTENT()":"2aaa1aa4","SA_COMMITMENT_RECIPIENT()":"49696533","SA_COMMITMENT_RELEASED_AMOUNT()":"1cc1c6f9","SA_COMMITMENT_ROUND()":"08ca2550","SA_COMMITMENT_SOURCE_KIND()":"c8e1d369","SA_COMMITMENT_SOURCE_SUBJECT()":"32f86d10","SA_COMMITMENT_STATUS()":"1b792916","SA_COMMITMENT_TOKEN()":"4abd0810","SA_COMMITMENT_TOTAL_AMOUNT()":"44c4382b","SA_COMMITMENT_UPDATED_AT()":"80b04f4a","SA_MILESTONE_RELEASED()":"30521091","SA_MILESTONE_RELEASED_AT()":"545163cf","SA_OUTCOME_EVIDENCE_HASH()":"ff787c05","SA_OUTCOME_RECORDED_AT()":"b2150eb9","SA_OUTCOME_RECORDED_BY()":"717e7a1c","SHAPES()":"55c964dd","SOURCE_AWARD()":"c6afdd93","SOURCE_DIRECT()":"17256694","SOURCE_POOL_PLEDGE()":"d0dd6bdc","STATUS_CANCELED()":"56f65bee","STATUS_COMPLETED()":"724f27ee","STATUS_IN_FLIGHT()":"89f95b18","STATUS_PENDING()":"423d487c","STATUS_RELEASES_BLOCKED()":"76910d1e","allSubjects()":"c3a6123d","cancelCommitment(bytes32,bytes32)":"80c053c4","commit((bytes32,bytes32,bytes32,address,address,address,uint256,string,string,string))":"29d5715d","commitmentSubject(bytes32,bytes32,address)":"1037c0ff","datatypeOf(bytes32,bytes32)":"42921cf3","getAddress(bytes32,bytes32)":"d3a39686","getAddressArr(bytes32,bytes32)":"e4281bc3","getBool(bytes32,bytes32)":"98eaf11c","getBytes32(bytes32,bytes32)":"37d9d7fc","getBytes32Arr(bytes32,bytes32)":"4083843e","getCommitment(bytes32)":"7795820c","getMilestoneRelease(bytes32,bytes32)":"88686bb4","getOutcome(bytes32,bytes32)":"8ced5f47","getString(bytes32,bytes32)":"31477b9b","getStringArr(bytes32,bytes32)":"cb954f30","getUint(bytes32,bytes32)":"7a6ad926","isSet(bytes32,bytes32)":"bb6b0c3b","predicatesOf(bytes32)":"30547181","recordOutcome(bytes32,bytes32,bytes32)":"ee784610","recordRelease(bytes32,bytes32,uint256)":"7084db1f","setDonor(bytes32,address)":"aa4ecfbb","setRecipient(bytes32,address)":"71246487","subjectCount()":"639a2e10","subjectVersion(bytes32)":"8e21caca","updatedAt(bytes32,bytes32)":"880eadce"},"id":1}