{"abi":[{"type":"constructor","inputs":[{"name":"ontologyRegistry","type":"address","internalType":"address"}],"stateMutability":"nonpayable"},{"type":"function","name":"DT_ADDRESS_ARR_PUB","inputs":[],"outputs":[{"name":"","type":"uint8","internalType":"uint8"}],"stateMutability":"pure"},{"type":"function","name":"DT_ADDRESS_PUB","inputs":[],"outputs":[{"name":"","type":"uint8","internalType":"uint8"}],"stateMutability":"pure"},{"type":"function","name":"DT_BOOL_PUB","inputs":[],"outputs":[{"name":"","type":"uint8","internalType":"uint8"}],"stateMutability":"pure"},{"type":"function","name":"DT_BYTES32_ARR_PUB","inputs":[],"outputs":[{"name":"","type":"uint8","internalType":"uint8"}],"stateMutability":"pure"},{"type":"function","name":"DT_BYTES32_PUB","inputs":[],"outputs":[{"name":"","type":"uint8","internalType":"uint8"}],"stateMutability":"pure"},{"type":"function","name":"DT_STRING_ARR_PUB","inputs":[],"outputs":[{"name":"","type":"uint8","internalType":"uint8"}],"stateMutability":"pure"},{"type":"function","name":"DT_STRING_PUB","inputs":[],"outputs":[{"name":"","type":"uint8","internalType":"uint8"}],"stateMutability":"pure"},{"type":"function","name":"DT_UINT256_PUB","inputs":[],"outputs":[{"name":"","type":"uint8","internalType":"uint8"}],"stateMutability":"pure"},{"type":"function","name":"ONTOLOGY","inputs":[],"outputs":[{"name":"","type":"address","internalType":"contract OntologyTermRegistry"}],"stateMutability":"view"},{"type":"function","name":"allSubjects","inputs":[],"outputs":[{"name":"","type":"bytes32[]","internalType":"bytes32[]"}],"stateMutability":"view"},{"type":"function","name":"datatypeOf","inputs":[{"name":"subject","type":"bytes32","internalType":"bytes32"},{"name":"predicate","type":"bytes32","internalType":"bytes32"}],"outputs":[{"name":"","type":"uint8","internalType":"uint8"}],"stateMutability":"view"},{"type":"function","name":"getAddress","inputs":[{"name":"subject","type":"bytes32","internalType":"bytes32"},{"name":"predicate","type":"bytes32","internalType":"bytes32"}],"outputs":[{"name":"","type":"address","internalType":"address"}],"stateMutability":"view"},{"type":"function","name":"getAddressArr","inputs":[{"name":"subject","type":"bytes32","internalType":"bytes32"},{"name":"predicate","type":"bytes32","internalType":"bytes32"}],"outputs":[{"name":"","type":"address[]","internalType":"address[]"}],"stateMutability":"view"},{"type":"function","name":"getBool","inputs":[{"name":"subject","type":"bytes32","internalType":"bytes32"},{"name":"predicate","type":"bytes32","internalType":"bytes32"}],"outputs":[{"name":"","type":"bool","internalType":"bool"}],"stateMutability":"view"},{"type":"function","name":"getBytes32","inputs":[{"name":"subject","type":"bytes32","internalType":"bytes32"},{"name":"predicate","type":"bytes32","internalType":"bytes32"}],"outputs":[{"name":"","type":"bytes32","internalType":"bytes32"}],"stateMutability":"view"},{"type":"function","name":"getBytes32Arr","inputs":[{"name":"subject","type":"bytes32","internalType":"bytes32"},{"name":"predicate","type":"bytes32","internalType":"bytes32"}],"outputs":[{"name":"","type":"bytes32[]","internalType":"bytes32[]"}],"stateMutability":"view"},{"type":"function","name":"getString","inputs":[{"name":"subject","type":"bytes32","internalType":"bytes32"},{"name":"predicate","type":"bytes32","internalType":"bytes32"}],"outputs":[{"name":"","type":"string","internalType":"string"}],"stateMutability":"view"},{"type":"function","name":"getStringArr","inputs":[{"name":"subject","type":"bytes32","internalType":"bytes32"},{"name":"predicate","type":"bytes32","internalType":"bytes32"}],"outputs":[{"name":"","type":"string[]","internalType":"string[]"}],"stateMutability":"view"},{"type":"function","name":"getUint","inputs":[{"name":"subject","type":"bytes32","internalType":"bytes32"},{"name":"predicate","type":"bytes32","internalType":"bytes32"}],"outputs":[{"name":"","type":"uint256","internalType":"uint256"}],"stateMutability":"view"},{"type":"function","name":"isSet","inputs":[{"name":"subject","type":"bytes32","internalType":"bytes32"},{"name":"predicate","type":"bytes32","internalType":"bytes32"}],"outputs":[{"name":"","type":"bool","internalType":"bool"}],"stateMutability":"view"},{"type":"function","name":"predicatesOf","inputs":[{"name":"subject","type":"bytes32","internalType":"bytes32"}],"outputs":[{"name":"","type":"bytes32[]","internalType":"bytes32[]"}],"stateMutability":"view"},{"type":"function","name":"pubAppendAddress","inputs":[{"name":"subject","type":"bytes32","internalType":"bytes32"},{"name":"predicate","type":"bytes32","internalType":"bytes32"},{"name":"value","type":"address","internalType":"address"}],"outputs":[],"stateMutability":"nonpayable"},{"type":"function","name":"pubAppendBytes32","inputs":[{"name":"subject","type":"bytes32","internalType":"bytes32"},{"name":"predicate","type":"bytes32","internalType":"bytes32"},{"name":"value","type":"bytes32","internalType":"bytes32"}],"outputs":[],"stateMutability":"nonpayable"},{"type":"function","name":"pubAppendString","inputs":[{"name":"subject","type":"bytes32","internalType":"bytes32"},{"name":"predicate","type":"bytes32","internalType":"bytes32"},{"name":"value","type":"string","internalType":"string"}],"outputs":[],"stateMutability":"nonpayable"},{"type":"function","name":"pubSetAddress","inputs":[{"name":"subject","type":"bytes32","internalType":"bytes32"},{"name":"predicate","type":"bytes32","internalType":"bytes32"},{"name":"value","type":"address","internalType":"address"}],"outputs":[],"stateMutability":"nonpayable"},{"type":"function","name":"pubSetAddressArr","inputs":[{"name":"subject","type":"bytes32","internalType":"bytes32"},{"name":"predicate","type":"bytes32","internalType":"bytes32"},{"name":"values","type":"address[]","internalType":"address[]"}],"outputs":[],"stateMutability":"nonpayable"},{"type":"function","name":"pubSetBool","inputs":[{"name":"subject","type":"bytes32","internalType":"bytes32"},{"name":"predicate","type":"bytes32","internalType":"bytes32"},{"name":"value","type":"bool","internalType":"bool"}],"outputs":[],"stateMutability":"nonpayable"},{"type":"function","name":"pubSetBytes32","inputs":[{"name":"subject","type":"bytes32","internalType":"bytes32"},{"name":"predicate","type":"bytes32","internalType":"bytes32"},{"name":"value","type":"bytes32","internalType":"bytes32"}],"outputs":[],"stateMutability":"nonpayable"},{"type":"function","name":"pubSetBytes32Arr","inputs":[{"name":"subject","type":"bytes32","internalType":"bytes32"},{"name":"predicate","type":"bytes32","internalType":"bytes32"},{"name":"values","type":"bytes32[]","internalType":"bytes32[]"}],"outputs":[],"stateMutability":"nonpayable"},{"type":"function","name":"pubSetString","inputs":[{"name":"subject","type":"bytes32","internalType":"bytes32"},{"name":"predicate","type":"bytes32","internalType":"bytes32"},{"name":"value","type":"string","internalType":"string"}],"outputs":[],"stateMutability":"nonpayable"},{"type":"function","name":"pubSetStringArr","inputs":[{"name":"subject","type":"bytes32","internalType":"bytes32"},{"name":"predicate","type":"bytes32","internalType":"bytes32"},{"name":"values","type":"string[]","internalType":"string[]"}],"outputs":[],"stateMutability":"nonpayable"},{"type":"function","name":"pubSetUint","inputs":[{"name":"subject","type":"bytes32","internalType":"bytes32"},{"name":"predicate","type":"bytes32","internalType":"bytes32"},{"name":"value","type":"uint256","internalType":"uint256"}],"outputs":[],"stateMutability":"nonpayable"},{"type":"function","name":"pubUnset","inputs":[{"name":"subject","type":"bytes32","internalType":"bytes32"},{"name":"predicate","type":"bytes32","internalType":"bytes32"}],"outputs":[],"stateMutability":"nonpayable"},{"type":"function","name":"subjectCount","inputs":[],"outputs":[{"name":"","type":"uint256","internalType":"uint256"}],"stateMutability":"view"},{"type":"function","name":"subjectVersion","inputs":[{"name":"subject","type":"bytes32","internalType":"bytes32"}],"outputs":[{"name":"","type":"uint64","internalType":"uint64"}],"stateMutability":"view"},{"type":"function","name":"updatedAt","inputs":[{"name":"subject","type":"bytes32","internalType":"bytes32"},{"name":"predicate","type":"bytes32","internalType":"bytes32"}],"outputs":[{"name":"","type":"uint64","internalType":"uint64"}],"stateMutability":"view"},{"type":"event","name":"AttributeAppended","inputs":[{"name":"subject","type":"bytes32","indexed":true,"internalType":"bytes32"},{"name":"predicate","type":"bytes32","indexed":true,"internalType":"bytes32"},{"name":"datatype","type":"uint8","indexed":false,"internalType":"uint8"},{"name":"version","type":"uint64","indexed":false,"internalType":"uint64"}],"anonymous":false},{"type":"event","name":"AttributeSet","inputs":[{"name":"subject","type":"bytes32","indexed":true,"internalType":"bytes32"},{"name":"predicate","type":"bytes32","indexed":true,"internalType":"bytes32"},{"name":"datatype","type":"uint8","indexed":false,"internalType":"uint8"},{"name":"version","type":"uint64","indexed":false,"internalType":"uint64"}],"anonymous":false},{"type":"event","name":"AttributeUnset","inputs":[{"name":"subject","type":"bytes32","indexed":true,"internalType":"bytes32"},{"name":"predicate","type":"bytes32","indexed":true,"internalType":"bytes32"},{"name":"version","type":"uint64","indexed":false,"internalType":"uint64"}],"anonymous":false},{"type":"event","name":"SubjectFirstSeen","inputs":[{"name":"subject","type":"bytes32","indexed":true,"internalType":"bytes32"}],"anonymous":false},{"type":"error","name":"AttributeNotSet","inputs":[]},{"type":"error","name":"PredicateNotActive","inputs":[]}],"bytecode":{"object":"0x60a034606f57601f611fa938819003918201601f19168301916001600160401b03831184841017607357808492602094604052833981010312606f57516001600160a01b03811690819003606f57608052604051611f21908161008882396080518181816104340152611d570152f35b5f80fd5b634e487b7160e01b5f52604160045260245ffdfe60806040526004361015610011575f80fd5b5f3560e01c806319ddb7331461170f578063213aaad7146116f4578063305471811461169057806331477b9b1461164e57806337d9d7fc1461161f5780633b9d243b146113dd5780634083843e1461137457806342921cf314611342578063639a2e10146113255780636bf281ab1461123d5780637a6ad9261461120e57806386d68e571461101d578063880eadce14610fe55780638e10136914610fca5780638e21caca14610f9757806393cbc37d14610f7c57806398eaf11c14610f48578063a861065c14610d61578063a954aea114610d46578063bb6b0c3b14610d12578063be78c06814610cf7578063c317462914610cdc578063c3a6123d14610c58578063c9a84a3114610b3b578063caf2b8ae14610a07578063cb1378c2146108d6578063cb954f30146107fc578063d085775814610670578063d3a3968614610639578063e1df4ee114610520578063e4281bc314610463578063e63cdb421461041f578063e70ced84146102f2578063ece6bebc146102d7578063f70edcf9146101c45763f98eed69146101a5575f80fd5b346101c0575f3660031901126101c057602060405160088152f35b5f80fd5b346101c0576101d23661196a565b6101dd829392611d3a565b815f52600460205260405f20835f5260205260405f20556101fd81611e4f565b805f52600960205260405f20825f5260205260ff60405f2054161561029c575b805f52600a60205260405f20825f5260205260405f20600560ff198254161790555f516020611ecc5f395f51905f52604061025783611dec565b835f52600b602052815f20855f52602052815f206001600160401b0382166001600160401b03198254161790556001600160401b0382519160058352166020820152a3005b805f5260086020526102b18260405f20611cfe565b805f52600960205260405f20825f5260205260405f20600160ff1982541617905561021d565b346101c0575f3660031901126101c057602060405160028152f35b346101c0576103296103033661196a565b61030e829492611d3a565b825f52600760205260405f20845f5260205260405f20611cfe565b61033281611e4f565b805f52600960205260405f20825f5260205260ff60405f205416156103e4575b805f52600a60205260405f20825f5260205260405f20600860ff198254161790557f34d84e67b0f324bfad877e5b27265f696957cae3ba7fbfc8a1a4a365c3672ecd604061039f83611dec565b835f52600b602052815f20855f52602052815f206001600160401b0382166001600160401b03198254161790556001600160401b0382519160088352166020820152a3005b805f5260086020526103f98260405f20611cfe565b805f52600960205260405f20825f5260205260405f20600160ff19825416179055610352565b346101c0575f3660031901126101c0576040517f00000000000000000000000000000000000000000000000000000000000000006001600160a01b03168152602090f35b346101c057610471366118ef565b905f52600660205260405f20905f5260205260405f20604051806020835491828152019081935f5260205f20905f5b81811061050157505050816104b69103826117f7565b604051918291602083019060208452518091526040830191905f5b8181106104df575050500390f35b82516001600160a01b03168452859450602093840193909201916001016104d1565b82546001600160a01b03168452602090930192600192830192016104a0565b346101c05761055661053136611881565b61053c829492611d3a565b825f525f60205260405f20845f5260205260405f20611a9b565b61055f81611e4f565b805f52600960205260405f20825f5260205260ff60405f205416156105fe575b805f52600a60205260405f20825f5260205260405f20600160ff198254161790555f516020611ecc5f395f51905f5260406105b983611dec565b835f52600b602052815f20855f52602052815f206001600160401b0382166001600160401b03198254161790556001600160401b0382519160018352166020820152a3005b805f5260086020526106138260405f20611cfe565b805f52600960205260405f20825f5260205260405f20600160ff1982541617905561057f565b346101c057610647366118ef565b905f52600160205260405f20905f52602052602060018060a01b0360405f205416604051908152f35b346101c05760603660031901126101c0576024356004356044356001600160401b0381116101c057366023820112156101c0578060040135906106b282611953565b916106c060405193846117f7565b8083526024602084019160051b830101913683116101c057602401905b8282106107ec575050506106f083611d3a565b815f52600760205260405f20835f5260205261070e60405f20611bd3565b5f5b815181101561074c57600190835f52600760205260405f20855f5260205261074660405f2061073f8386611cea565b5190611cfe565b01610710565b505061075781611e4f565b805f52600960205260405f20825f5260205260ff60405f205416156107b1575b805f52600a60205260405f20825f5260205260405f20600860ff198254161790555f516020611ecc5f395f51905f52604061039f83611dec565b805f5260086020526107c68260405f20611cfe565b805f52600960205260405f20825f5260205260405f20600160ff19825416179055610777565b81358152602091820191016106dd565b346101c05761080a366118ef565b905f52600560205260405f20905f5260205260405f2080549061082c82611953565b9161083a60405193846117f7565b8083526020830180925f5260205f205f915b8383106108b957848660405191829160208301906020845251809152604083019060408160051b85010192915f905b82821061088a57505050500390f35b919360019193955060206108a98192603f198a82030186528851611905565b960192019201859493919261087b565b6001602081926108c8856119bc565b81520192019201919061084c565b346101c0576108e436611929565b6108ef829392611d3a565b815f52600160205260405f20835f5260205260405f209060018060a01b03166bffffffffffffffffffffffff60a01b82541617905561092d81611e4f565b805f52600960205260405f20825f5260205260ff60405f205416156109cc575b805f52600a60205260405f20825f5260205260405f20600260ff198254161790555f516020611ecc5f395f51905f52604061098783611dec565b835f52600b602052815f20855f52602052815f206001600160401b0382166001600160401b03198254161790556001600160401b0382519160028352166020820152a3005b805f5260086020526109e18260405f20611cfe565b805f52600960205260405f20825f5260205260405f20600160ff1982541617905561094d565b346101c05760603660031901126101c057600435602435906044358015158091036101c057610a3583611d3a565b815f52600260205260405f20835f5260205260405f209060ff80198354169116179055610a6181611e4f565b805f52600960205260405f20825f5260205260ff60405f20541615610b00575b805f52600a60205260405f20825f5260205260405f20600360ff198254161790555f516020611ecc5f395f51905f526040610abb83611dec565b835f52600b602052815f20855f52602052815f206001600160401b0382166001600160401b03198254161790556001600160401b0382519160038352166020820152a3005b805f526008602052610b158260405f20611cfe565b805f52600960205260405f20825f5260205260405f20600160ff19825416179055610a81565b346101c05760603660031901126101c057602435600435610b5b82611d3a565b805f52600360205260405f20825f5260205260443560405f2055610b7e81611e4f565b805f52600960205260405f20825f5260205260ff60405f20541615610c1d575b805f52600a60205260405f20825f5260205260405f20600460ff198254161790555f516020611ecc5f395f51905f526040610bd883611dec565b835f52600b602052815f20855f52602052815f206001600160401b0382166001600160401b03198254161790556001600160401b0382519160048352166020820152a3005b805f526008602052610c328260405f20611cfe565b805f52600960205260405f20825f5260205260405f20600160ff19825416179055610b9e565b346101c0575f3660031901126101c057604051806020600d54918281520190600d5f527fd7b6990105719101dabeb77144f2a3385c8033acd3af97e9423a695e81ad1eb5905f5b818110610cc657610cc285610cb6818703826117f7565b604051918291826118b6565b0390f35b8254845260209093019260019283019201610c9f565b346101c0575f3660031901126101c057602060405160058152f35b346101c0575f3660031901126101c057602060405160048152f35b346101c057610d20366118ef565b905f52600960205260405f20905f52602052602060ff60405f2054166040519015158152f35b346101c0575f3660031901126101c057602060405160018152f35b346101c05760603660031901126101c0576024356004356044356001600160401b0381116101c057366023820112156101c0578060040135610da281611953565b91610db060405193846117f7565b8183526024602084019260051b820101903682116101c057602401915b818310610f2857505050610de083611d3a565b815f52600660205260405f20835f52602052610dfe60405f20611c03565b5f5b8151811015610e4357600190835f52600660205260405f20855f52602052610e3d60405f20838060a01b03610e358487611cea565b511690611ca9565b01610e00565b5050610e4e81611e4f565b805f52600960205260405f20825f5260205260ff60405f20541615610eed575b805f52600a60205260405f20825f5260205260405f20600760ff198254161790555f516020611ecc5f395f51905f526040610ea883611dec565b835f52600b602052815f20855f52602052815f206001600160401b0382166001600160401b03198254161790556001600160401b0382519160078352166020820152a3005b805f526008602052610f028260405f20611cfe565b805f52600960205260405f20825f5260205260405f20600160ff19825416179055610e6e565b82356001600160a01b03811681036101c057815260209283019201610dcd565b346101c057610f56366118ef565b905f52600260205260405f20905f52602052602060ff60405f2054166040519015158152f35b346101c0575f3660031901126101c057602060405160038152f35b346101c05760203660031901126101c0576004355f52600c60205260206001600160401b0360405f205416604051908152f35b346101c0575f3660031901126101c057602060405160068152f35b346101c057610ff3366118ef565b905f52600b60205260405f20905f5260205260206001600160401b0360405f205416604051908152f35b346101c05760603660031901126101c0576024356004356044356001600160401b0381116101c057366023820112156101c057806004013561105e81611953565b9161106c60405193846117f7565b8183526024602084019260051b820101903682116101c05760248101925b8284106111df575050505061109e83611d3a565b815f52600560205260405f20835f526020526110bc60405f20611c72565b5f5b81518110156110fa57600190835f52600560205260405f20855f526020526110f460405f206110ed8386611cea565b5190611b93565b016110be565b505061110581611e4f565b805f52600960205260405f20825f5260205260ff60405f205416156111a4575b805f52600a60205260405f20825f5260205260405f20600660ff198254161790555f516020611ecc5f395f51905f52604061115f83611dec565b835f52600b602052815f20855f52602052815f206001600160401b0382166001600160401b03198254161790556001600160401b0382519160068352166020820152a3005b805f5260086020526111b98260405f20611cfe565b805f52600960205260405f20825f5260205260405f20600160ff19825416179055611125565b83356001600160401b0381116101c05760209161120383926024369187010161182c565b81520193019261108a565b346101c05761121c366118ef565b905f52600360205260405f20905f52602052602060405f2054604051908152f35b346101c05761127461124e36611929565b611259829492611d3a565b825f52600660205260405f20845f5260205260405f20611ca9565b61127d81611e4f565b805f52600960205260405f20825f5260205260ff60405f205416156112ea575b805f52600a60205260405f20825f5260205260405f20600760ff198254161790557f34d84e67b0f324bfad877e5b27265f696957cae3ba7fbfc8a1a4a365c3672ecd6040610ea883611dec565b805f5260086020526112ff8260405f20611cfe565b805f52600960205260405f20825f5260205260405f20600160ff1982541617905561129d565b346101c0575f3660031901126101c0576020600d54604051908152f35b346101c057611350366118ef565b905f52600a60205260405f20905f52602052602060ff60405f205416604051908152f35b346101c057611382366118ef565b905f52600760205260405f20905f5260205260405f206040519081602082549182815201915f5260205f20905f5b8181106113c757610cc285610cb6818703826117f7565b82548452602090930192600192830192016113b0565b346101c0576113eb366118ef565b90805f52600960205260405f20825f5260205260ff60405f2054161561161057805f52600a60205260405f20825f5260205260ff60405f205416600181145f146114eb5750805f525f60205260405f20825f5260205261144d60405f20611c24565b805f52600960205260405f20825f5260205260405f2060ff198154169055805f52600a60205260405f20825f5260205260405f20805460ff19169055805f52600b60205260405f20825f5260205260405f206001600160401b031981541690557faeeb42dd6ea4a893ab5c87b203e3a65b7da56b28eed06f78e7655ae3b8f32bb360206114d983611dec565b6001600160401b0360405191168152a3005b600281036115255750805f52600160205260405f20825f5260205260405f206bffffffffffffffffffffffff60a01b81541690555b61144d565b600381036115515750805f52600260205260405f20825f5260205260405f20805460ff1916905561144d565b600481036115775750805f52600360205260405f20825f526020525f604081205561144d565b6005810361159d5750805f52600460205260405f20825f526020525f604081205561144d565b600681036115c45750805f52600560205260405f20825f5260205261152060405f20611c72565b600781036115eb5750805f52600660205260405f20825f5260205261152060405f20611c03565b60080361152057805f52600760205260405f20825f5260205261152060405f20611bd3565b6309d21dc760e01b5f5260045ffd5b346101c05761162d366118ef565b905f52600460205260405f20905f52602052602060405f2054604051908152f35b346101c05761165c366118ef565b905f525f60205260405f20905f52602052610cc261167c60405f206119bc565b604051918291602083526020830190611905565b346101c05760203660031901126101c0576004355f52600860205260405f206040519081602082549182815201915f5260205f20905f5b8181106116de57610cc285610cb6818703826117f7565b82548452602090930192600192830192016116c7565b346101c0575f3660031901126101c057602060405160078152f35b346101c05761174661172036611881565b61172b829492611d3a565b825f52600560205260405f20845f5260205260405f20611b93565b61174f81611e4f565b805f52600960205260405f20825f5260205260ff60405f205416156117bc575b805f52600a60205260405f20825f5260205260405f20600660ff198254161790557f34d84e67b0f324bfad877e5b27265f696957cae3ba7fbfc8a1a4a365c3672ecd604061115f83611dec565b805f5260086020526117d18260405f20611cfe565b805f52600960205260405f20825f5260205260405f20600160ff1982541617905561176f565b90601f801991011681019081106001600160401b0382111761181857604052565b634e487b7160e01b5f52604160045260245ffd5b81601f820112156101c0578035906001600160401b0382116118185760405192611860601f8401601f1916602001856117f7565b828452602083830101116101c057815f926020809301838601378301015290565b60606003198201126101c0576004359160243591604435906001600160401b0382116101c0576118b39160040161182c565b90565b60206040818301928281528451809452019201905f5b8181106118d95750505090565b82518452602093840193909201916001016118cc565b60409060031901126101c0576004359060243590565b805180835260209291819084018484015e5f828201840152601f01601f1916010190565b60609060031901126101c05760043590602435906044356001600160a01b03811681036101c05790565b6001600160401b0381116118185760051b60200190565b60609060031901126101c057600435906024359060443590565b90600182811c921680156119b2575b602083101461199e57565b634e487b7160e01b5f52602260045260245ffd5b91607f1691611993565b9060405191825f8254926119cf84611984565b8084529360018116908115611a3a57506001146119f6575b506119f4925003836117f7565b565b90505f9291925260205f20905f915b818310611a1e5750509060206119f4928201015f6119e7565b6020919350806001915483858901015201910190918492611a05565b9050602092506119f494915060ff191682840152151560051b8201015f6119e7565b8054821015611a71575f5260205f2001905f90565b634e487b7160e01b5f52603260045260245ffd5b818110611a90575050565b5f8155600101611a85565b91909182516001600160401b03811161181857611ab88254611984565b601f8111611b58575b506020601f8211600114611afa57819293945f92611aef575b50508160011b915f199060031b1c1916179055565b015190505f80611ada565b601f19821690835f52805f20915f5b818110611b4057509583600195969710611b28575b505050811b019055565b01515f1960f88460031b161c191690555f8080611b1e565b9192602060018192868b015181550194019201611b09565b611b8390835f5260205f20601f840160051c81019160208510611b89575b601f0160051c0190611a85565b5f611ac1565b9091508190611b76565b8054600160401b81101561181857611bb091600182018155611a5c565b919091611bc0576119f491611a9b565b634e487b7160e01b5f525f60045260245ffd5b8054905f815581611be2575050565b5f5260205f20908101905b818110611bf8575050565b5f8155600101611bed565b80545f825580611c11575050565b6119f4915f5260205f2090810190611a85565b611c2e8154611984565b9081611c38575050565b81601f5f9311600114611c49575055565b81835260208320611c6591601f0160051c810190600101611a85565b8082528160208120915555565b8054905f815581611c81575050565b5f5260205f20908101905b818110611c97575050565b80611ca3600192611c24565b01611c8c565b8054600160401b81101561181857611cc691600182018155611a5c565b81546001600160a01b0393841660039290921b91821b9390911b1916919091179055565b8051821015611a715760209160051b010190565b805490600160401b8210156118185781611d20916001611d3694018155611a5c565b819391549060031b91821b915f19901b19161790565b9055565b60405163170da40760e21b815260048101919091526020816024817f00000000000000000000000000000000000000000000000000000000000000006001600160a01b03165afa908115611de1575f91611da6575b5015611d9757565b632263bf1f60e21b5f5260045ffd5b90506020813d602011611dd9575b81611dc1602093836117f7565b810103126101c0575180151581036101c0575f611d8f565b3d9150611db4565b6040513d5f823e3d90fd5b805f52600c60205260016001600160401b0360405f20541601906001600160401b038211611e3b575f52600c60205260405f206001600160401b0382166001600160401b031982541617905590565b634e487b7160e01b5f52601160045260245ffd5b805f52600e60205260ff60405f20541615611e675750565b805f52600e60205260405f20600160ff19825416179055600d54600160401b81101561181857611ea3611d20826001859401600d55600d611a5c565b90557f34f1cb4778d9578e1af878b07d3ae7e9f2f32fafcaa3096fe48153670a71bfaf5f80a256fe5167ea251eeaf052f4c7bd769efb5b17e6ba98908050b9929a0bd192b57274fba26469706673582212202cb85bc14d92f06d3d2d230cb58337b144d7309c4d34f1efcd88bdf8f635db2a64736f6c634300081c0033","linkReferences":{}},"methodIdentifiers":{"DT_ADDRESS_ARR_PUB()":"213aaad7","DT_ADDRESS_PUB()":"ece6bebc","DT_BOOL_PUB()":"93cbc37d","DT_BYTES32_ARR_PUB()":"f98eed69","DT_BYTES32_PUB()":"c3174629","DT_STRING_ARR_PUB()":"8e101369","DT_STRING_PUB()":"a954aea1","DT_UINT256_PUB()":"be78c068","ONTOLOGY()":"e63cdb42","allSubjects()":"c3a6123d","datatypeOf(bytes32,bytes32)":"42921cf3","getAddress(bytes32,bytes32)":"d3a39686","getAddressArr(bytes32,bytes32)":"e4281bc3","getBool(bytes32,bytes32)":"98eaf11c","getBytes32(bytes32,bytes32)":"37d9d7fc","getBytes32Arr(bytes32,bytes32)":"4083843e","getString(bytes32,bytes32)":"31477b9b","getStringArr(bytes32,bytes32)":"cb954f30","getUint(bytes32,bytes32)":"7a6ad926","isSet(bytes32,bytes32)":"bb6b0c3b","predicatesOf(bytes32)":"30547181","pubAppendAddress(bytes32,bytes32,address)":"6bf281ab","pubAppendBytes32(bytes32,bytes32,bytes32)":"e70ced84","pubAppendString(bytes32,bytes32,string)":"19ddb733","pubSetAddress(bytes32,bytes32,address)":"cb1378c2","pubSetAddressArr(bytes32,bytes32,address[])":"a861065c","pubSetBool(bytes32,bytes32,bool)":"caf2b8ae","pubSetBytes32(bytes32,bytes32,bytes32)":"f70edcf9","pubSetBytes32Arr(bytes32,bytes32,bytes32[])":"d0857758","pubSetString(bytes32,bytes32,string)":"e1df4ee1","pubSetStringArr(bytes32,bytes32,string[])":"86d68e57","pubSetUint(bytes32,bytes32,uint256)":"c9a84a31","pubUnset(bytes32,bytes32)":"3b9d243b","subjectCount()":"639a2e10","subjectVersion(bytes32)":"8e21caca","updatedAt(bytes32,bytes32)":"880eadce"},"id":193}