{"abi":[{"type":"constructor","inputs":[{"name":"skills","type":"address","internalType":"contract SkillDefinitionRegistry"}],"stateMutability":"nonpayable"},{"type":"function","name":"CAN_TRAIN","inputs":[],"outputs":[{"name":"","type":"bytes32","internalType":"bytes32"}],"stateMutability":"view"},{"type":"function","name":"CERTIFIED_IN","inputs":[],"outputs":[{"name":"","type":"bytes32","internalType":"bytes32"}],"stateMutability":"view"},{"type":"function","name":"ENDORSEMENT_TYPEHASH","inputs":[],"outputs":[{"name":"","type":"bytes32","internalType":"bytes32"}],"stateMutability":"view"},{"type":"function","name":"ENDORSES_SKILL","inputs":[],"outputs":[{"name":"","type":"bytes32","internalType":"bytes32"}],"stateMutability":"view"},{"type":"function","name":"EPOCH_SECONDS","inputs":[],"outputs":[{"name":"","type":"uint64","internalType":"uint64"}],"stateMutability":"view"},{"type":"function","name":"HAS_SKILL","inputs":[],"outputs":[{"name":"","type":"bytes32","internalType":"bytes32"}],"stateMutability":"view"},{"type":"function","name":"MAX_PROFICIENCY_SCORE","inputs":[],"outputs":[{"name":"","type":"uint16","internalType":"uint16"}],"stateMutability":"view"},{"type":"function","name":"MENTORS_IN","inputs":[],"outputs":[{"name":"","type":"bytes32","internalType":"bytes32"}],"stateMutability":"view"},{"type":"function","name":"PRACTICES_SKILL","inputs":[],"outputs":[{"name":"","type":"bytes32","internalType":"bytes32"}],"stateMutability":"view"},{"type":"function","name":"SELF_MAX_PROFICIENCY","inputs":[],"outputs":[{"name":"","type":"uint16","internalType":"uint16"}],"stateMutability":"view"},{"type":"function","name":"SELF_MINT_PER_EPOCH","inputs":[],"outputs":[{"name":"","type":"uint8","internalType":"uint8"}],"stateMutability":"view"},{"type":"function","name":"SKILLS","inputs":[],"outputs":[{"name":"","type":"address","internalType":"contract SkillDefinitionRegistry"}],"stateMutability":"view"},{"type":"function","name":"bumpRevocationEpoch","inputs":[{"name":"subject","type":"address","internalType":"address"}],"outputs":[{"name":"newEpoch","type":"uint64","internalType":"uint64"}],"stateMutability":"nonpayable"},{"type":"function","name":"claimsByIssuer","inputs":[{"name":"issuer","type":"address","internalType":"address"}],"outputs":[{"name":"","type":"bytes32[]","internalType":"bytes32[]"}],"stateMutability":"view"},{"type":"function","name":"claimsByRelation","inputs":[{"name":"relation","type":"bytes32","internalType":"bytes32"}],"outputs":[{"name":"","type":"bytes32[]","internalType":"bytes32[]"}],"stateMutability":"view"},{"type":"function","name":"claimsBySkill","inputs":[{"name":"skillId","type":"bytes32","internalType":"bytes32"}],"outputs":[{"name":"","type":"bytes32[]","internalType":"bytes32[]"}],"stateMutability":"view"},{"type":"function","name":"claimsBySubject","inputs":[{"name":"subject","type":"address","internalType":"address"}],"outputs":[{"name":"","type":"bytes32[]","internalType":"bytes32[]"}],"stateMutability":"view"},{"type":"function","name":"getClaim","inputs":[{"name":"claimId","type":"bytes32","internalType":"bytes32"}],"outputs":[{"name":"","type":"tuple","internalType":"struct AgentSkillRegistry.SkillClaim","components":[{"name":"claimId","type":"bytes32","internalType":"bytes32"},{"name":"subjectAgent","type":"address","internalType":"address"},{"name":"issuer","type":"address","internalType":"address"},{"name":"skillId","type":"bytes32","internalType":"bytes32"},{"name":"skillVersion","type":"uint64","internalType":"uint64"},{"name":"relation","type":"bytes32","internalType":"bytes32"},{"name":"visibility","type":"uint8","internalType":"enum AgentSkillRegistry.Visibility"},{"name":"proficiencyScore","type":"uint16","internalType":"uint16"},{"name":"confidence","type":"uint8","internalType":"uint8"},{"name":"evidenceCommit","type":"bytes32","internalType":"bytes32"},{"name":"edgeId","type":"bytes32","internalType":"bytes32"},{"name":"assertionId","type":"bytes32","internalType":"bytes32"},{"name":"policyId","type":"bytes32","internalType":"bytes32"},{"name":"validAfter","type":"uint64","internalType":"uint64"},{"name":"validUntil","type":"uint64","internalType":"uint64"},{"name":"revoked","type":"bool","internalType":"bool"},{"name":"createdAt","type":"uint64","internalType":"uint64"},{"name":"mintedAtEpoch","type":"uint64","internalType":"uint64"}]}],"stateMutability":"view"},{"type":"function","name":"isFresh","inputs":[{"name":"claimId","type":"bytes32","internalType":"bytes32"}],"outputs":[{"name":"","type":"bool","internalType":"bool"}],"stateMutability":"view"},{"type":"function","name":"mintSelf","inputs":[{"name":"input","type":"tuple","internalType":"struct AgentSkillRegistry.MintInput","components":[{"name":"subjectAgent","type":"address","internalType":"address"},{"name":"issuer","type":"address","internalType":"address"},{"name":"skillId","type":"bytes32","internalType":"bytes32"},{"name":"skillVersion","type":"uint64","internalType":"uint64"},{"name":"relation","type":"bytes32","internalType":"bytes32"},{"name":"visibility","type":"uint8","internalType":"enum AgentSkillRegistry.Visibility"},{"name":"proficiencyScore","type":"uint16","internalType":"uint16"},{"name":"confidence","type":"uint8","internalType":"uint8"},{"name":"evidenceCommit","type":"bytes32","internalType":"bytes32"},{"name":"edgeId","type":"bytes32","internalType":"bytes32"},{"name":"assertionId","type":"bytes32","internalType":"bytes32"},{"name":"policyId","type":"bytes32","internalType":"bytes32"},{"name":"validAfter","type":"uint64","internalType":"uint64"},{"name":"validUntil","type":"uint64","internalType":"uint64"},{"name":"nonce","type":"bytes32","internalType":"bytes32"}]}],"outputs":[{"name":"claimId","type":"bytes32","internalType":"bytes32"}],"stateMutability":"nonpayable"},{"type":"function","name":"mintWithEndorsement","inputs":[{"name":"input","type":"tuple","internalType":"struct AgentSkillRegistry.MintInput","components":[{"name":"subjectAgent","type":"address","internalType":"address"},{"name":"issuer","type":"address","internalType":"address"},{"name":"skillId","type":"bytes32","internalType":"bytes32"},{"name":"skillVersion","type":"uint64","internalType":"uint64"},{"name":"relation","type":"bytes32","internalType":"bytes32"},{"name":"visibility","type":"uint8","internalType":"enum AgentSkillRegistry.Visibility"},{"name":"proficiencyScore","type":"uint16","internalType":"uint16"},{"name":"confidence","type":"uint8","internalType":"uint8"},{"name":"evidenceCommit","type":"bytes32","internalType":"bytes32"},{"name":"edgeId","type":"bytes32","internalType":"bytes32"},{"name":"assertionId","type":"bytes32","internalType":"bytes32"},{"name":"policyId","type":"bytes32","internalType":"bytes32"},{"name":"validAfter","type":"uint64","internalType":"uint64"},{"name":"validUntil","type":"uint64","internalType":"uint64"},{"name":"nonce","type":"bytes32","internalType":"bytes32"}]},{"name":"endorsementSig","type":"bytes","internalType":"bytes"}],"outputs":[{"name":"claimId","type":"bytes32","internalType":"bytes32"}],"stateMutability":"nonpayable"},{"type":"function","name":"revocationEpoch","inputs":[{"name":"","type":"address","internalType":"address"},{"name":"","type":"address","internalType":"address"}],"outputs":[{"name":"","type":"uint64","internalType":"uint64"}],"stateMutability":"view"},{"type":"function","name":"revoke","inputs":[{"name":"claimId","type":"bytes32","internalType":"bytes32"}],"outputs":[],"stateMutability":"nonpayable"},{"type":"function","name":"selfMintsRemaining","inputs":[{"name":"subject","type":"address","internalType":"address"}],"outputs":[{"name":"","type":"uint8","internalType":"uint8"}],"stateMutability":"view"},{"type":"function","name":"setEvidenceCommit","inputs":[{"name":"claimId","type":"bytes32","internalType":"bytes32"},{"name":"newCommit","type":"bytes32","internalType":"bytes32"}],"outputs":[],"stateMutability":"nonpayable"},{"type":"event","name":"ClaimEvidenceUpdated","inputs":[{"name":"claimId","type":"bytes32","indexed":true,"internalType":"bytes32"},{"name":"newCommit","type":"bytes32","indexed":false,"internalType":"bytes32"}],"anonymous":false},{"type":"event","name":"ClaimMinted","inputs":[{"name":"claimId","type":"bytes32","indexed":true,"internalType":"bytes32"},{"name":"subjectAgent","type":"address","indexed":true,"internalType":"address"},{"name":"issuer","type":"address","indexed":true,"internalType":"address"},{"name":"skillId","type":"bytes32","indexed":false,"internalType":"bytes32"},{"name":"skillVersion","type":"uint64","indexed":false,"internalType":"uint64"},{"name":"relation","type":"bytes32","indexed":false,"internalType":"bytes32"},{"name":"visibility","type":"uint8","indexed":false,"internalType":"enum AgentSkillRegistry.Visibility"}],"anonymous":false},{"type":"event","name":"ClaimRevoked","inputs":[{"name":"claimId","type":"bytes32","indexed":true,"internalType":"bytes32"},{"name":"by","type":"address","indexed":true,"internalType":"address"}],"anonymous":false},{"type":"event","name":"RevocationEpochBumped","inputs":[{"name":"issuer","type":"address","indexed":true,"internalType":"address"},{"name":"subject","type":"address","indexed":true,"internalType":"address"},{"name":"newEpoch","type":"uint64","indexed":false,"internalType":"uint64"}],"anonymous":false},{"type":"error","name":"ClaimExists","inputs":[]},{"type":"error","name":"ClaimNotFound","inputs":[]},{"type":"error","name":"InvalidEndorsement","inputs":[]},{"type":"error","name":"InvalidScore","inputs":[]},{"type":"error","name":"NotAuthorized","inputs":[]},{"type":"error","name":"RateLimited","inputs":[]},{"type":"error","name":"SelfCertNotAllowed","inputs":[]},{"type":"error","name":"SkillMissing","inputs":[]},{"type":"error","name":"UnknownRelation","inputs":[]}],"bytecode":{"object":"0x60e0806040523461013a57602081611c81803803809161001f828561013e565b83398101031261013a57516001600160a01b038116810361013a576080524660a05260405161004f60408261013e565b60128152714167656e74536b696c6c526567697374727960701b602090910152604080517f8755f70b160fbec12f3901d4a7e5b3d78fc953748bd750be372a26ea2225cfc99161009f908261013e565b600181526020810190603160f81b82525190206040519060208201927f8b73c3c69bb8fe3d512ecc4cf759cc79239f7b179b0ffacaa9a75d522b39400f8452604083015260608201524660808201523060a082015260a0815261010360c08261013e565b51902060c052604051611b0b90816101768239608051818181610aa201526114aa015260a05181611293015260c051816113590152f35b5f80fd5b601f909101601f19168101906001600160401b0382119082101761016157604052565b634e487b7160e01b5f52604160045260245ffdfe6080806040526004361015610012575f80fd5b5f3560e01c90816301f21a0c14610f49575080630f609d2314610cba5780631bc378b914610c805780631dbc34e714610c645780632938f0e614610c0057806333acedd814610b9c5780634917277414610b6257806349f6108614610b285780635262265a14610b0b5780636e1365d714610ad157806379f1068b14610a8d578063926c069414610a275780639fda38a61461082e578063ac7369e114610783578063b663674614610749578063b75c7dc614610697578063bd15975b1461067b578063c9100bcb146103de578063e531db82146103a4578063e532e7db1461030f578063ecc191bb146102e7578063eeb6e171146102cc578063f19afaf01461025a578063f310fb3a146101b55763f93463bf1461012f575f80fd5b346101b15760203660031901126101b1576001600160a01b03610150610fba565b165f52600460205260405f206040519081602082549182815201915f5260205f20905f5b81811061019b576101978561018b8187038261105e565b60405191829182610f81565b0390f35b8254845260209093019260019283019201610174565b5f80fd5b346101b15760403660031901126101b157600435602435815f525f60205260405f206001600160401b03600b82015460881c161561024b576001810154610204906001600160a01b0316611a47565b1561023c57817fc0d997e096000e779d7a674636378cb9b15c9b56317baf10fcb5b5538c28de0a9260076020930155604051908152a2005b63ea8e4eb560e01b5f5260045ffd5b63022af77760e11b5f5260045ffd5b346101b15760203660031901126101b1576001600160a01b0361027b610fba565b165f52600160205260405f206040519081602082549182815201915f5260205f20905f5b8181106102b6576101978561018b8187038261105e565b825484526020909301926001928301920161029f565b346101b1575f3660031901126101b157602060405160148152f35b346101b15760203660031901126101b15760206103056004356110e2565b6040519015158152f35b346101b15760203660031901126101b157610328610fba565b620151806001600160401b034216049060018060a01b03165f5260056020526001600160401b0360405f2091165f5260205260ff60405f20541660148110155f1461037d575060205f5b60ff60405191168152f35b60140360ff811161039057602090610372565b634e487b7160e01b5f52601160045260245ffd5b346101b1575f3660031901126101b15760206040517f0b61fb202e8204ad83cb3b0c21178bd41e633f8d952f13e800e1ff971fd8cbce8152f35b346101b15760203660031901126101b1575f6102206040516103ff8161102e565b8281528260208201528260408201528260608201528260808201528260a08201528260c08201528260e08201528261010082015282610120820152826101408201528261016082015282610180820152826101a0820152826101c0820152826101e08201528261020082015201526004355f525f60205260405f20600b8101546001600160401b038160881c161561024b576001600160401b03600c6102409382604051946104ad8661102e565b8254865260018301546001600160a01b039081166020880152600284015416604087015260038301546060870152600483015482166080870152600583015460a0870152600683015460ff9061050881831660c08a016110d6565b61ffff8160081c1660e089015260181c16610100870152600783015461012087015260088301546101408701526009830154610160870152600a8301546101808701528181166101a0870152818160401c166101c087015260ff8160801c1615156101e087015260881c166102008501520154166102208201526001600160401b03610220604051928051845260018060a01b03602082015116602085015260018060a01b0360408201511660408501526060810151606085015282608082015116608085015260a081015160a08501526105eb60c082015160c0860190610fd0565b61ffff60e08201511660e085015260ff61010082015116610100850152610120810151610120850152610140810151610140850152610160810151610160850152610180810151610180850152826101a0820151166101a0850152826101c0820151166101c08501526101e081015115156101e08501528261020082015116610200850152015116610220820152f35b346101b1575f3660031901126101b15760206040516117708152f35b346101b15760203660031901126101b157600435805f525f60205260405f20600b8101908154906001600160401b038260881c161561024b5760018101546106e7906001600160a01b0316611a47565b15908161072b575b5061023c5760ff60801b1916600160801b17905533907f1138f9acbec31119a7911df6a223d14ebc94f264a452e002083ced3a93510b755f80a3005b6002015461074291506001600160a01b0316611a47565b15846106ef565b346101b1575f3660031901126101b15760206040517f11e10e3cacab6a3a7502c0d57e4ab9e7e2a431065fd21ee2ab10fa9902419da98152f35b346101b15760203660031901126101b157602061079e610fba565b335f818152600680855260408083206001600160a01b039590951680845294865280832054848452918652808320858452865291829020805467ffffffffffffffff19166001600160401b0392831660010190921691821790559051818152909291907f784052408dea9ffe0e86a2daed34346baaaef99350b405cd9144c9a7a06f083c908590a3604051908152f35b346101b1576101e03660031901126101b157610848611007565b6001600160a01b03610858610ff1565b166001600160a01b039091160361023c57610879610874611007565b611a47565b1561023c576084357fe8f7a4480dad0e0074ba88c9d86d328b4521cfad6bbe3d61e5b1a039b29f4895811480156109fe575b80156109d5575b80156109ac575b61099d576108c690611161565b61177061ffff6108d461101d565b161161098e5762015180426001600160401b0316046001600160a01b036108f9611007565b165f52600560205260405f206001600160401b0382165f5260205260ff60405f205416601481101561097f576001019060ff8211610390576001600160a01b03610941611007565b165f5260056020526001600160401b0360405f2091165f5260205260ff60405f20911660ff198254161790556020610977611468565b604051908152f35b6307ef6f4d60e31b5f5260045ffd5b631556136560e01b5f5260045ffd5b638a8972eb60e01b5f5260045ffd5b507f8c757888417905b448e3b0681eb5283c0247b91a2abb1899073b135c5a6d5a3381146108b9565b507f32b0a1ad55f8e1a3982733740c2d5236d070edb75580a8bb3d43992572d1d7fe81146108b2565b507f0b61fb202e8204ad83cb3b0c21178bd41e633f8d952f13e800e1ff971fd8cbce81146108ab565b346101b15760403660031901126101b157610a40610fba565b602435906001600160a01b03821682036101b15760018060a01b03165f52600660205260405f209060018060a01b03165f5260205260206001600160401b0360405f205416604051908152f35b346101b1575f3660031901126101b1576040517f00000000000000000000000000000000000000000000000000000000000000006001600160a01b03168152602090f35b346101b1575f3660031901126101b15760206040517f5aee912f2d08bf6d9b40e6bcfba7f30eb5b50d36bd87c19057b7311c8704f5998152f35b346101b1575f3660031901126101b1576020604051620151808152f35b346101b1575f3660031901126101b15760206040517f32b0a1ad55f8e1a3982733740c2d5236d070edb75580a8bb3d43992572d1d7fe8152f35b346101b1575f3660031901126101b15760206040517fe8f7a4480dad0e0074ba88c9d86d328b4521cfad6bbe3d61e5b1a039b29f48958152f35b346101b15760203660031901126101b1576004355f52600260205260405f206040519081602082549182815201915f5260205f20905f5b818110610bea576101978561018b8187038261105e565b8254845260209093019260019283019201610bd3565b346101b15760203660031901126101b1576004355f52600360205260405f206040519081602082549182815201915f5260205f20905f5b818110610c4e576101978561018b8187038261105e565b8254845260209093019260019283019201610c37565b346101b1575f3660031901126101b15760206040516127108152f35b346101b1575f3660031901126101b15760206040517f8c757888417905b448e3b0681eb5283c0247b91a2abb1899073b135c5a6d5a338152f35b346101b157366003190161020081126101b1576101e0136101b1576101e4356001600160401b0381116101b157366023820112156101b15780600401356001600160401b0381116101b15736602482840101116101b157610d19610ff1565b6001600160a01b03610d29611007565b6001600160a01b0390921691161461023c5760843590610d4882611161565b61271061ffff610d5661101d565b161161098e57610d64611007565b6064356001600160401b038116908181036101b15750610d8261101d565b610184356001600160401b038116908181036101b157506101a4356001600160401b038116928382036101b157610e7a9761ffff92506040519560208701977f07a05362e72eb88b9580037033f70bd9149a87ff57751a470ec577b0ea9d075d895260018060a01b031660408801526044356060880152608087015260a08601521660c084015260e08301526101008201526101c4356101208201526101208152610e2f6101408261105e565b519020610e3a611291565b60405191602083019161190160f01b83526022840152604283015260428252610e6460628361105e565b905190206001600160a01b03936024019061137b565b168015610f0b576001600160a01b03610e91610ff1565b168103610ea3575b6020610977611468565b610eab610ff1565b3b15610f0b575f8091610ebc610ff1565b9060405160208101916317aa5fb760e11b8352602482015260248152610ee360448261105e565b51915afa610eef61109a565b9015908115610f3c575b8115610f1a575b50610f0b5780610e99565b6346ad276760e01b5f5260045ffd5b90506020818051810103126101b1576020610f3591016110c9565b1581610f00565b9050602081511090610ef9565b346101b1575f3660031901126101b157807f07a05362e72eb88b9580037033f70bd9149a87ff57751a470ec577b0ea9d075d60209252f35b60206040818301928281528451809452019201905f5b818110610fa45750505090565b8251845260209384019390920191600101610f97565b600435906001600160a01b03821682036101b157565b906005821015610fdd5752565b634e487b7160e01b5f52602160045260245ffd5b6024356001600160a01b03811681036101b15790565b6004356001600160a01b03811681036101b15790565b60c43561ffff811681036101b15790565b61024081019081106001600160401b0382111761104a57604052565b634e487b7160e01b5f52604160045260245ffd5b90601f801991011681019081106001600160401b0382111761104a57604052565b6001600160401b03811161104a57601f01601f191660200190565b3d156110c4573d906110ab8261107f565b916110b9604051938461105e565b82523d5f602084013e565b606090565b519081151582036101b157565b6005821015610fdd5752565b5f525f60205260405f20600b8101546001600160401b038160881c161561115b5760801c60ff1661115657600c81015460028201546001600160a01b039081165f908152600660209081526040808320600190960154909316825293909352909120546001600160401b0390811691161490565b505f90565b50505f90565b7f5aee912f2d08bf6d9b40e6bcfba7f30eb5b50d36bd87c19057b7311c8704f5998114159081611266575b8161123b575b81611210575b816111e5575b816111ba575b506111ab57565b630da8eaa360e31b5f5260045ffd5b7f8c757888417905b448e3b0681eb5283c0247b91a2abb1899073b135c5a6d5a33915014155f6111a4565b7f32b0a1ad55f8e1a3982733740c2d5236d070edb75580a8bb3d43992572d1d7fe811415915061119e565b7f0b61fb202e8204ad83cb3b0c21178bd41e633f8d952f13e800e1ff971fd8cbce8114159150611198565b7fe8f7a4480dad0e0074ba88c9d86d328b4521cfad6bbe3d61e5b1a039b29f48958114159150611192565b7f11e10e3cacab6a3a7502c0d57e4ab9e7e2a431065fd21ee2ab10fa9902419da9811415915061118c565b7f000000000000000000000000000000000000000000000000000000000000000046146113575760406012602082516112ca848261105e565b82815201714167656e74536b696c6c526567697374727960701b8152206001602083516112f7858261105e565b82815201603160f81b81522082519160208301937f8b73c3c69bb8fe3d512ecc4cf759cc79239f7b179b0ffacaa9a75d522b39400f855283015260608201524660808201523060a082015260a0815261135160c08261105e565b51902090565b7f000000000000000000000000000000000000000000000000000000000000000090565b916040190161115b5760208101359160408201355f1a907f7fffffffffffffffffffffffffffffff5d576e7357a4501ddfe92f46681b20a0841161140157601b82141580611409575b611401576020935f9360809360405193845286840152356040830152606082015282805260015afa156113f6575f5190565b6040513d5f823e3d90fd5b505050505f90565b50601c8214156113c4565b51906001600160401b03821682036101b157565b8054906801000000000000000082101561104a5760018201808255821015611454575f5260205f200155565b634e487b7160e01b5f52603260045260245ffd5b6001600160401b0360643516606435036101b157604051636bd2475d60e11b81526044803560048301526064356001600160401b031660248301525f908290817f00000000000000000000000000000000000000000000000000000000000000006001600160a01b03165afa80156113f6576118ea575b506004356001600160a01b03811691908290036101b15760405160208101906bffffffffffffffffffffffff1960043560601b168252604435603482015260843560548201526101c43560748201526074815261153d60948261105e565b51902091825f525f6020526001600160401b03600b60405f20015460881c166118db576024356001600160a01b03811691908290036101b157600560a43510156101b15760c43561ffff811681036101b15760e43560ff811681036101b157610184356001600160401b03811681036101b1576101a4356001600160401b03811681036101b1576001600160401b038092875f52600660205260405f20875f5260205260ff8260405f2054169561ffff604051986115fa8a61102e565b8d8a528a60208b01528b60408b015260443560608b0152856064351660808b015260843560a08b015261163260a43560c08c016110d6565b1660e08901521661010087015261010435610120870152610124356101408701526101443561016087015261016435610180870152166101a0850152166101c08301525f6101e08301819052426001600160401b03908116610200850152610220840192909252868152602081815260409182902084518155908401516001820180546001600160a01b03199081166001600160a01b03938416179091559285015160028301805490941691161790915560608301516003820155608083015160048201805467ffffffffffffffff1916919093161790915560a082015160058083019190915560c083015191929190811015610fdd5760068301805460e084015161010085015163ffffffff1990921660ff90941693909317600893841b62ffff00161760189190911b63ff000000161790556101208201516007840155610140820151908301556101608101516009830155610180810151600a8301556101a0810151600b830180546101c08401516101e08501516102008601516001600160c81b03199093166001600160401b0395861617604092831b6fffffffffffffffff0000000000000000161790151560801b60ff60801b161760889290921b67ffffffffffffffff60881b16919091179091556102209290920151600c93909301805467ffffffffffffffff191693909116929092179091555f828152600160205220611841908590611428565b6044355f5260026020526118588460405f20611428565b6084355f52600360205261186f8460405f20611428565b815f5260046020526118848460405f20611428565b837f2f5b046fc5f22b1ad0f1ad43d2efaeed8cafbb7857b6b18ae434c93a7f7db8bd608060405160443581526001600160401b0360643516602082015260843560408201526118d86060820160a435610fd0565ba4565b631b5e0ffb60e31b5f5260045ffd5b3d805f833e6118f9818361105e565b8101906020818303126101b1578051906001600160401b0382116101b1570190610180828203126101b1576040519161018083018381106001600160401b0382111761104a576040528051835261195260208201611414565b602084015260408101516001600160a01b03811681036101b1576040840152606081015160608401526080810151608084015260a081015160a084015260c081015160c084015260e08101516001600160401b0381116101b15781019082601f830112156101b1578151926119c68461107f565b906119d4604051928361105e565b848252602085850101116101b1575f602085611a3c968261016097018386015e8301015260e0850152611a0a6101008201611414565b610100850152611a1d6101208201611414565b610120850152611a3061014082016110c9565b61014085015201611414565b6101608201526114df565b336001600160a01b03821614611acf57803b15611156575f809160405160208101906317aa5fb760e11b825233602482015260248152611a8860448261105e565b51915afa611a9461109a565b81611ac1575b81611aa3575090565b90506020818051810103126101b1576020611abe91016110c9565b90565b905060208151101590611a9a565b5060019056fea2646970667358221220a9742189908f54b7ef9e1d9c02cc7c55558454ed375caa19ead4f84af5fd8e5764736f6c634300081c0033","linkReferences":{}},"methodIdentifiers":{"CAN_TRAIN()":"1bc378b9","CERTIFIED_IN()":"49172774","ENDORSEMENT_TYPEHASH()":"01f21a0c","ENDORSES_SKILL()":"e531db82","EPOCH_SECONDS()":"5262265a","HAS_SKILL()":"6e1365d7","MAX_PROFICIENCY_SCORE()":"1dbc34e7","MENTORS_IN()":"49f61086","PRACTICES_SKILL()":"b6636746","SELF_MAX_PROFICIENCY()":"bd15975b","SELF_MINT_PER_EPOCH()":"eeb6e171","SKILLS()":"79f1068b","bumpRevocationEpoch(address)":"ac7369e1","claimsByIssuer(address)":"f93463bf","claimsByRelation(bytes32)":"2938f0e6","claimsBySkill(bytes32)":"33acedd8","claimsBySubject(address)":"f19afaf0","getClaim(bytes32)":"c9100bcb","isFresh(bytes32)":"ecc191bb","mintSelf((address,address,bytes32,uint64,bytes32,uint8,uint16,uint8,bytes32,bytes32,bytes32,bytes32,uint64,uint64,bytes32))":"9fda38a6","mintWithEndorsement((address,address,bytes32,uint64,bytes32,uint8,uint16,uint8,bytes32,bytes32,bytes32,bytes32,uint64,uint64,bytes32),bytes)":"0f609d23","revocationEpoch(address,address)":"926c0694","revoke(bytes32)":"b75c7dc6","selfMintsRemaining(address)":"e532e7db","setEvidenceCommit(bytes32,bytes32)":"f310fb3a"},"id":77}