{"abi":[{"type":"constructor","inputs":[{"name":"ontologyRegistry","type":"address","internalType":"address"},{"name":"shapes","type":"address","internalType":"address"},{"name":"fundRegistry","type":"address","internalType":"address"}],"stateMutability":"nonpayable"},{"type":"function","name":"CLASS_GRANT_PROPOSAL","inputs":[],"outputs":[{"name":"","type":"bytes32","internalType":"bytes32"}],"stateMutability":"view"},{"type":"function","name":"DT_ADDRESS_ARR_PUB","inputs":[],"outputs":[{"name":"","type":"uint8","internalType":"uint8"}],"stateMutability":"pure"},{"type":"function","name":"DT_ADDRESS_PUB","inputs":[],"outputs":[{"name":"","type":"uint8","internalType":"uint8"}],"stateMutability":"pure"},{"type":"function","name":"DT_BOOL_PUB","inputs":[],"outputs":[{"name":"","type":"uint8","internalType":"uint8"}],"stateMutability":"pure"},{"type":"function","name":"DT_BYTES32_ARR_PUB","inputs":[],"outputs":[{"name":"","type":"uint8","internalType":"uint8"}],"stateMutability":"pure"},{"type":"function","name":"DT_BYTES32_PUB","inputs":[],"outputs":[{"name":"","type":"uint8","internalType":"uint8"}],"stateMutability":"pure"},{"type":"function","name":"DT_STRING_ARR_PUB","inputs":[],"outputs":[{"name":"","type":"uint8","internalType":"uint8"}],"stateMutability":"pure"},{"type":"function","name":"DT_STRING_PUB","inputs":[],"outputs":[{"name":"","type":"uint8","internalType":"uint8"}],"stateMutability":"pure"},{"type":"function","name":"DT_UINT256_PUB","inputs":[],"outputs":[{"name":"","type":"uint8","internalType":"uint8"}],"stateMutability":"pure"},{"type":"function","name":"FUND_REGISTRY","inputs":[],"outputs":[{"name":"","type":"address","internalType":"contract IRoundFundLookup2"}],"stateMutability":"view"},{"type":"function","name":"ONTOLOGY","inputs":[],"outputs":[{"name":"","type":"address","internalType":"contract OntologyTermRegistry"}],"stateMutability":"view"},{"type":"function","name":"SA_GP_BASED_ON","inputs":[],"outputs":[{"name":"","type":"bytes32","internalType":"bytes32"}],"stateMutability":"view"},{"type":"function","name":"SA_GP_BASIS","inputs":[],"outputs":[{"name":"","type":"bytes32","internalType":"bytes32"}],"stateMutability":"view"},{"type":"function","name":"SA_GP_BUDGET","inputs":[],"outputs":[{"name":"","type":"bytes32","internalType":"bytes32"}],"stateMutability":"view"},{"type":"function","name":"SA_GP_CLONED_FROM","inputs":[],"outputs":[{"name":"","type":"bytes32","internalType":"bytes32"}],"stateMutability":"view"},{"type":"function","name":"SA_GP_DISPLAY_NAME","inputs":[],"outputs":[{"name":"","type":"bytes32","internalType":"bytes32"}],"stateMutability":"view"},{"type":"function","name":"SA_GP_LAST_EDITED","inputs":[],"outputs":[{"name":"","type":"bytes32","internalType":"bytes32"}],"stateMutability":"view"},{"type":"function","name":"SA_GP_MILESTONES","inputs":[],"outputs":[{"name":"","type":"bytes32","internalType":"bytes32"}],"stateMutability":"view"},{"type":"function","name":"SA_GP_NULLIFIER","inputs":[],"outputs":[{"name":"","type":"bytes32","internalType":"bytes32"}],"stateMutability":"view"},{"type":"function","name":"SA_GP_ORG_BG","inputs":[],"outputs":[{"name":"","type":"bytes32","internalType":"bytes32"}],"stateMutability":"view"},{"type":"function","name":"SA_GP_OUTCOMES","inputs":[],"outputs":[{"name":"","type":"bytes32","internalType":"bytes32"}],"stateMutability":"view"},{"type":"function","name":"SA_GP_PLAN","inputs":[],"outputs":[{"name":"","type":"bytes32","internalType":"bytes32"}],"stateMutability":"view"},{"type":"function","name":"SA_GP_RECIPIENT","inputs":[],"outputs":[{"name":"","type":"bytes32","internalType":"bytes32"}],"stateMutability":"view"},{"type":"function","name":"SA_GP_REPORTING","inputs":[],"outputs":[{"name":"","type":"bytes32","internalType":"bytes32"}],"stateMutability":"view"},{"type":"function","name":"SA_GP_ROUND","inputs":[],"outputs":[{"name":"","type":"bytes32","internalType":"bytes32"}],"stateMutability":"view"},{"type":"function","name":"SA_GP_STATUS","inputs":[],"outputs":[{"name":"","type":"bytes32","internalType":"bytes32"}],"stateMutability":"view"},{"type":"function","name":"SA_GP_SUBMITTED_AT","inputs":[],"outputs":[{"name":"","type":"bytes32","internalType":"bytes32"}],"stateMutability":"view"},{"type":"function","name":"SA_GP_VERSION","inputs":[],"outputs":[{"name":"","type":"bytes32","internalType":"bytes32"}],"stateMutability":"view"},{"type":"function","name":"SA_GP_WITHDRAWN_AT","inputs":[],"outputs":[{"name":"","type":"bytes32","internalType":"bytes32"}],"stateMutability":"view"},{"type":"function","name":"SHAPES","inputs":[],"outputs":[{"name":"","type":"address","internalType":"contract ShapeRegistry"}],"stateMutability":"view"},{"type":"function","name":"allSubjects","inputs":[],"outputs":[{"name":"","type":"bytes32[]","internalType":"bytes32[]"}],"stateMutability":"view"},{"type":"function","name":"datatypeOf","inputs":[{"name":"subject","type":"bytes32","internalType":"bytes32"},{"name":"predicate","type":"bytes32","internalType":"bytes32"}],"outputs":[{"name":"","type":"uint8","internalType":"uint8"}],"stateMutability":"view"},{"type":"function","name":"edit","inputs":[{"name":"gp","type":"bytes32","internalType":"bytes32"},{"name":"patch","type":"tuple","internalType":"struct GrantProposalRegistry.EditPatch","components":[{"name":"editBudget","type":"bool","internalType":"bool"},{"name":"newBudgetJson","type":"string","internalType":"string"},{"name":"editPlan","type":"bool","internalType":"bool"},{"name":"newPlanJson","type":"string","internalType":"string"},{"name":"editMilestones","type":"bool","internalType":"bool"},{"name":"newMilestonesJson","type":"string","internalType":"string"},{"name":"editOutcomes","type":"bool","internalType":"bool"},{"name":"newOutcomesJson","type":"string","internalType":"string"},{"name":"editReporting","type":"bool","internalType":"bool"},{"name":"newReportingJson","type":"string","internalType":"string"},{"name":"editOrgBackground","type":"bool","internalType":"bool"},{"name":"newOrgBackgroundJson","type":"string","internalType":"string"}]}],"outputs":[],"stateMutability":"nonpayable"},{"type":"function","name":"getAddress","inputs":[{"name":"subject","type":"bytes32","internalType":"bytes32"},{"name":"predicate","type":"bytes32","internalType":"bytes32"}],"outputs":[{"name":"","type":"address","internalType":"address"}],"stateMutability":"view"},{"type":"function","name":"getAddressArr","inputs":[{"name":"subject","type":"bytes32","internalType":"bytes32"},{"name":"predicate","type":"bytes32","internalType":"bytes32"}],"outputs":[{"name":"","type":"address[]","internalType":"address[]"}],"stateMutability":"view"},{"type":"function","name":"getBool","inputs":[{"name":"subject","type":"bytes32","internalType":"bytes32"},{"name":"predicate","type":"bytes32","internalType":"bytes32"}],"outputs":[{"name":"","type":"bool","internalType":"bool"}],"stateMutability":"view"},{"type":"function","name":"getBytes32","inputs":[{"name":"subject","type":"bytes32","internalType":"bytes32"},{"name":"predicate","type":"bytes32","internalType":"bytes32"}],"outputs":[{"name":"","type":"bytes32","internalType":"bytes32"}],"stateMutability":"view"},{"type":"function","name":"getBytes32Arr","inputs":[{"name":"subject","type":"bytes32","internalType":"bytes32"},{"name":"predicate","type":"bytes32","internalType":"bytes32"}],"outputs":[{"name":"","type":"bytes32[]","internalType":"bytes32[]"}],"stateMutability":"view"},{"type":"function","name":"getString","inputs":[{"name":"subject","type":"bytes32","internalType":"bytes32"},{"name":"predicate","type":"bytes32","internalType":"bytes32"}],"outputs":[{"name":"","type":"string","internalType":"string"}],"stateMutability":"view"},{"type":"function","name":"getStringArr","inputs":[{"name":"subject","type":"bytes32","internalType":"bytes32"},{"name":"predicate","type":"bytes32","internalType":"bytes32"}],"outputs":[{"name":"","type":"string[]","internalType":"string[]"}],"stateMutability":"view"},{"type":"function","name":"getUint","inputs":[{"name":"subject","type":"bytes32","internalType":"bytes32"},{"name":"predicate","type":"bytes32","internalType":"bytes32"}],"outputs":[{"name":"","type":"uint256","internalType":"uint256"}],"stateMutability":"view"},{"type":"function","name":"gpSubject","inputs":[{"name":"roundSubject","type":"bytes32","internalType":"bytes32"},{"name":"nullifier","type":"bytes32","internalType":"bytes32"}],"outputs":[{"name":"","type":"bytes32","internalType":"bytes32"}],"stateMutability":"pure"},{"type":"function","name":"isSet","inputs":[{"name":"subject","type":"bytes32","internalType":"bytes32"},{"name":"predicate","type":"bytes32","internalType":"bytes32"}],"outputs":[{"name":"","type":"bool","internalType":"bool"}],"stateMutability":"view"},{"type":"function","name":"predicatesOf","inputs":[{"name":"subject","type":"bytes32","internalType":"bytes32"}],"outputs":[{"name":"","type":"bytes32[]","internalType":"bytes32[]"}],"stateMutability":"view"},{"type":"function","name":"setStatus","inputs":[{"name":"gp","type":"bytes32","internalType":"bytes32"},{"name":"newStatus","type":"bytes32","internalType":"bytes32"}],"outputs":[],"stateMutability":"nonpayable"},{"type":"function","name":"subjectCount","inputs":[],"outputs":[{"name":"","type":"uint256","internalType":"uint256"}],"stateMutability":"view"},{"type":"function","name":"subjectVersion","inputs":[{"name":"subject","type":"bytes32","internalType":"bytes32"}],"outputs":[{"name":"","type":"uint64","internalType":"uint64"}],"stateMutability":"view"},{"type":"function","name":"submit","inputs":[{"name":"p","type":"tuple","internalType":"struct GrantProposalRegistry.SubmitParams","components":[{"name":"roundSubject","type":"bytes32","internalType":"bytes32"},{"name":"nullifier","type":"bytes32","internalType":"bytes32"},{"name":"displayName","type":"string","internalType":"string"},{"name":"basedOnIntentId","type":"string","internalType":"string"},{"name":"budgetJson","type":"string","internalType":"string"},{"name":"planJson","type":"string","internalType":"string"},{"name":"milestonesJson","type":"string","internalType":"string"},{"name":"outcomesJson","type":"string","internalType":"string"},{"name":"reportingJson","type":"string","internalType":"string"},{"name":"orgBackgroundJson","type":"string","internalType":"string"},{"name":"basisJson","type":"string","internalType":"string"},{"name":"recipient","type":"address","internalType":"address"}]}],"outputs":[],"stateMutability":"nonpayable"},{"type":"function","name":"updatedAt","inputs":[{"name":"subject","type":"bytes32","internalType":"bytes32"},{"name":"predicate","type":"bytes32","internalType":"bytes32"}],"outputs":[{"name":"","type":"uint64","internalType":"uint64"}],"stateMutability":"view"},{"type":"function","name":"withdraw","inputs":[{"name":"gp","type":"bytes32","internalType":"bytes32"}],"outputs":[],"stateMutability":"nonpayable"},{"type":"event","name":"AttributeAppended","inputs":[{"name":"subject","type":"bytes32","indexed":true,"internalType":"bytes32"},{"name":"predicate","type":"bytes32","indexed":true,"internalType":"bytes32"},{"name":"datatype","type":"uint8","indexed":false,"internalType":"uint8"},{"name":"version","type":"uint64","indexed":false,"internalType":"uint64"}],"anonymous":false},{"type":"event","name":"AttributeSet","inputs":[{"name":"subject","type":"bytes32","indexed":true,"internalType":"bytes32"},{"name":"predicate","type":"bytes32","indexed":true,"internalType":"bytes32"},{"name":"datatype","type":"uint8","indexed":false,"internalType":"uint8"},{"name":"version","type":"uint64","indexed":false,"internalType":"uint64"}],"anonymous":false},{"type":"event","name":"AttributeUnset","inputs":[{"name":"subject","type":"bytes32","indexed":true,"internalType":"bytes32"},{"name":"predicate","type":"bytes32","indexed":true,"internalType":"bytes32"},{"name":"version","type":"uint64","indexed":false,"internalType":"uint64"}],"anonymous":false},{"type":"event","name":"GrantProposalEdited","inputs":[{"name":"gpSubject","type":"bytes32","indexed":true,"internalType":"bytes32"},{"name":"newVersion","type":"uint256","indexed":false,"internalType":"uint256"}],"anonymous":false},{"type":"event","name":"GrantProposalStatusChanged","inputs":[{"name":"gpSubject","type":"bytes32","indexed":true,"internalType":"bytes32"},{"name":"newStatus","type":"bytes32","indexed":false,"internalType":"bytes32"}],"anonymous":false},{"type":"event","name":"GrantProposalSubmitted","inputs":[{"name":"gpSubject","type":"bytes32","indexed":true,"internalType":"bytes32"},{"name":"roundSubject","type":"bytes32","indexed":true,"internalType":"bytes32"},{"name":"nullifier","type":"bytes32","indexed":true,"internalType":"bytes32"}],"anonymous":false},{"type":"event","name":"GrantProposalWithdrawn","inputs":[{"name":"gpSubject","type":"bytes32","indexed":true,"internalType":"bytes32"}],"anonymous":false},{"type":"event","name":"SubjectFirstSeen","inputs":[{"name":"subject","type":"bytes32","indexed":true,"internalType":"bytes32"}],"anonymous":false},{"type":"error","name":"AttributeNotSet","inputs":[]},{"type":"error","name":"GrantProposalNotFound","inputs":[]},{"type":"error","name":"MissingRecipient","inputs":[]},{"type":"error","name":"NotRoundOperator","inputs":[]},{"type":"error","name":"PredicateNotActive","inputs":[]}],"bytecode":{"object":"0x60e0346100d357601f613b0738819003918201601f19168301916001600160401b038311848410176100d7578084926060946040528339810103126100d357610047816100eb565b906100606040610059602084016100eb565b92016100eb565b6001600160a01b0392831660805290821660a0521660c052604051613a07908161010082396080518181816102bc01528181611f9b0152613272015260a0518181816121550152612c2d015260c051818181610446015281816112a2015281816113e9015281816115af01526117a30152f35b5f80fd5b634e487b7160e01b5f52604160045260245ffd5b51906001600160a01b03821682036100d35756fe6080806040526004361015610012575f80fd5b5f905f3560e01c908163063a1cac14612eb75750806307e3db5614612e90578063213aaad714612e7557806324f761dd14612e4e5780633054718114612dea57806331477b9b14612da857806332eb357814612d8157806337d9d7fc14612d525780634083843e14612ce957806342921cf314612cb7578063453e95e714612c9657806345fb25be14612c5c57806355c964dd14612c18578063575f636714612bf1578063639a2e1014612bd457806367be403d14612b9a5780636935279114612b735780637a6ad92614612b44578063806ba9be14612b1d57806386300b8d14612af6578063880eadce14612abe57806389bf3d3c1461174d5780638e101369146117315780638e19899e146115395780638e21caca146115065780638e2f2a05146114de57806393cbc37d146114c257806398eaf11c146114905780639d8dd8b214611468578063a01e026f14611440578063a0cb123814611418578063a24a6f63146113d3578063a954aea1146113b7578063a97614ae1461138f578063bb25a0a814611231578063bb6b0c3b146111ff578063be78c068146111e3578063c3174629146111c7578063c3a6123d14611142578063cb954f301461104a578063d3a3968614611013578063d5aee14414610fd8578063d5ec000f14610fb0578063d65b81eb14610f88578063de85e116146103a9578063e4281bc3146102eb578063e63cdb42146102a6578063ece6bebc1461028a578063f7760851146102625763f98eed6914610244575f80fd5b3461025f578060031936011261025f57602060405160088152f35b80fd5b503461025f578060031936011261025f5760206040515f5160206138525f395f51905f528152f35b503461025f578060031936011261025f57602060405160028152f35b503461025f578060031936011261025f576040517f00000000000000000000000000000000000000000000000000000000000000006001600160a01b03168152602090f35b503461025f576102fa36612f15565b90825260066020526040822090825260205260408120604051908160208254918281520190819285526020852090855b81811061038a5750505082610340910383612f4f565b604051928392602084019060208552518091526040840192915b818110610368575050500390f35b82516001600160a01b031684528594506020938401939092019160010161035a565b82546001600160a01b031684526020909301926001928301920161032a565b503461025f57604036600319011261025f57600435906024356001600160401b038111610f84578060040190610180600319823603011261060757604051630df675ff60e21b8152600481018590525f5160206137f25f395f51905f526024820152602081604481305afa908115610f34578491610f4e575b508015610f3f5760405163695eea2960e01b815260048101919091526020816024817f00000000000000000000000000000000000000000000000000000000000000006001600160a01b03165afa908115610f34579061048b918591610f05575b503390613163565b15610ef657610499826130fe565b610d84575b6104aa604482016130fe565b610c12575b6104bb608482016130fe565b610aa0575b6104cc60c482016130fe565b61092e575b6104de61010482016130fe565b6107a7575b6104f061014482016130fe565b61061e575b505090604051633d356c9360e11b81528160048201525f5160206138725f395f51905f526024820152602081604481305afa9081156106135783916105dd575b50600181018091116105c95760207f96afd1e3b963ae9f99e8dd98913dc6c5b17355542110e9fbc8bcadea03bdaf389161057b5f5160206138725f395f51905f52613255565b83855260038252604085205f5160206138725f395f51905f52865282528060408620556105b55f5160206138725f395f51905f5285613627565b6105bf428561320a565b604051908152a280f35b634e487b7160e01b83526011600452602483fd5b90506020813d60201161060b575b816105f860209383612f4f565b8101031261060757515f610535565b8280fd5b3d91506105eb565b6040513d85823e3d90fd5b6106379161016461063092019061307b565b36916130c8565b9161064e5f5160206138925f395f51905f52613255565b80825281602052604082205f5160206138925f395f51905f5283526020526040822083516001600160401b0381116107935761068a8254612f70565b601f811161074e575b50602094601f82116001146106ed5794849582939495926106e2575b50508160011b915f199060031b1c19161790555b6106da5f5160206138925f395f51905f52826134bd565b905f806104f5565b015190505f806106af565b601f1982169583865280862091865b8881106107365750836001959697981061071e575b505050811b0190556106c3565b01515f1960f88460031b161c191690555f8080610711565b919260206001819286850151815501940192016106fc565b82855260208520601f830160051c81019160208410610789575b601f0160051c01905b81811061077e5750610693565b858155600101610771565b9091508190610768565b634e487b7160e01b84526041600452602484fd5b6107b861063061012483018461307b565b6107ce5f5160206139925f395f51905f52613255565b84845283602052604084205f5160206139925f395f51905f52855260205260408420908051906001600160401b03821161091a57819061080e8454612f70565b601f81116108ca575b50602090601f831160011461086857879261085d575b50508160011b915f199060031b1c19161790555b6108585f5160206139925f395f51905f52856134bd565b6104e3565b015190505f8061082d565b8488528188209250601f198416885b8181106108b2575090846001959493921061089a575b505050811b019055610841565b01515f1960f88460031b161c191690555f808061088d565b92936020600181928786015181550195019301610877565b90915083875260208720601f840160051c81019160208510610910575b90601f859493920160051c01905b8181106109025750610817565b8881558493506001016108f5565b90915081906108e7565b634e487b7160e01b86526041600452602486fd5b61093e61063060e483018461307b565b6109545f5160206139525f395f51905f52613255565b84845283602052604084205f5160206139525f395f51905f52855260205260408420908051906001600160401b03821161091a5781906109948454612f70565b601f8111610a50575b50602090601f83116001146109ee5787926109e3575b50508160011b915f199060031b1c19161790555b6109de5f5160206139525f395f51905f52856134bd565b6104d1565b015190505f806109b3565b8488528188209250601f198416885b818110610a385750908460019594939210610a20575b505050811b0190556109c7565b01515f1960f88460031b161c191690555f8080610a13565b929360206001819287860151815501950193016109fd565b90915083875260208720601f840160051c81019160208510610a96575b90601f859493920160051c01905b818110610a88575061099d565b888155849350600101610a7b565b9091508190610a6d565b610ab061063060a483018461307b565b610ac65f5160206138b25f395f51905f52613255565b84845283602052604084205f5160206138b25f395f51905f52855260205260408420908051906001600160401b03821161091a578190610b068454612f70565b601f8111610bc2575b50602090601f8311600114610b60578792610b55575b50508160011b915f199060031b1c19161790555b610b505f5160206138b25f395f51905f52856134bd565b6104c0565b015190505f80610b25565b8488528188209250601f198416885b818110610baa5750908460019594939210610b92575b505050811b019055610b39565b01515f1960f88460031b161c191690555f8080610b85565b92936020600181928786015181550195019301610b6f565b90915083875260208720601f840160051c81019160208510610c08575b90601f859493920160051c01905b818110610bfa5750610b0f565b888155849350600101610bed565b9091508190610bdf565b610c22610630606483018461307b565b610c385f5160206138f25f395f51905f52613255565b84845283602052604084205f5160206138f25f395f51905f52855260205260408420908051906001600160401b03821161091a578190610c788454612f70565b601f8111610d34575b50602090601f8311600114610cd2578792610cc7575b50508160011b915f199060031b1c19161790555b610cc25f5160206138f25f395f51905f52856134bd565b6104af565b015190505f80610c97565b8488528188209250601f198416885b818110610d1c5750908460019594939210610d04575b505050811b019055610cab565b01515f1960f88460031b161c191690555f8080610cf7565b92936020600181928786015181550195019301610ce1565b90915083875260208720601f840160051c81019160208510610d7a575b90601f859493920160051c01905b818110610d6c5750610c81565b888155849350600101610d5f565b9091508190610d51565b610d94610630602483018461307b565b610daa5f5160206138125f395f51905f52613255565b84845283602052604084205f5160206138125f395f51905f52855260205260408420908051906001600160401b03821161091a578190610dea8454612f70565b601f8111610ea6575b50602090601f8311600114610e44578792610e39575b50508160011b915f199060031b1c19161790555b610e345f5160206138125f395f51905f52856134bd565b61049e565b015190505f80610e09565b8488528188209250601f198416885b818110610e8e5750908460019594939210610e76575b505050811b019055610e1d565b01515f1960f88460031b161c191690555f8080610e69565b92936020600181928786015181550195019301610e53565b90915083875260208720601f840160051c81019160208510610eec575b90601f859493920160051c01905b818110610ede5750610df3565b888155849350600101610ed1565b9091508190610ec3565b633f69f7f760e01b8352600483fd5b610f27915060203d602011610f2d575b610f1f8183612f4f565b810190613048565b5f610483565b503d610f15565b6040513d86823e3d90fd5b632afbbcef60e11b8452600484fd5b90506020813d602011610f7c575b81610f6960209383612f4f565b81010312610f7857515f610422565b5f80fd5b3d9150610f5c565b5080fd5b503461025f578060031936011261025f5760206040515f5160206138f25f395f51905f528152f35b503461025f578060031936011261025f5760206040515f5160206139925f395f51905f528152f35b503461025f578060031936011261025f5760206040517f4d99a9b860d05bdefd8912feed3878fabc0d79f4c91119487da7d7fca41be9308152f35b503461025f5760209061102536612f15565b90825260018352604082209082528252604060018060a01b0391205416604051908152f35b503461025f5761105936612f15565b9082526005602052604082209082526020526040812080546001600160401b03811161112e576040519061109360208260051b0183612f4f565b80825260208201809385526020852085915b83831061111157868587604051928392602084019060208552518091526040840160408260051b8601019392905b8282106110e257505050500390f35b919360019193955060206111018192603f198a82030186528851612f2b565b96019201920185949391926110d3565b60016020819261112085612fa8565b8152019201920191906110a5565b634e487b7160e01b83526041600452602483fd5b503461025f578060031936011261025f5760405180916020600d54928381520191600d82527fd7b6990105719101dabeb77144f2a3385c8033acd3af97e9423a695e81ad1eb5915b8181106111b1576111ad856111a181870382612f4f565b60405191829182612edc565b0390f35b825484526020909301926001928301920161118a565b503461025f578060031936011261025f57602060405160058152f35b503461025f578060031936011261025f57602060405160048152f35b503461025f5760ff604060209261121536612f15565b9082526009855282822090825284522054166040519015158152f35b503461025f5761124036612f15565b604051630df675ff60e21b8152600481018390525f5160206137f25f395f51905f526024820152602081604481305afa908115610f3457849161135d575b508015610f3f5760405163695eea2960e01b815260048101919091526020816024817f00000000000000000000000000000000000000000000000000000000000000006001600160a01b03165afa8015610f34576112e4918591610f0557503390613163565b15610ef65760207f394ca8fea36f8f12744a248808c3fd0fc06a2169c29ec1d6e4bdbf83df605c24916113235f5160206138325f395f51905f52613255565b83855260048252604085205f5160206138325f395f51905f52865282528060408620556105bf5f5160206138325f395f51905f5285613353565b90506020813d602011611387575b8161137860209383612f4f565b81010312610f7857515f61127e565b3d915061136b565b503461025f578060031936011261025f5760206040515f5160206139725f395f51905f528152f35b503461025f578060031936011261025f57602060405160018152f35b503461025f578060031936011261025f576040517f00000000000000000000000000000000000000000000000000000000000000006001600160a01b03168152602090f35b503461025f578060031936011261025f5760206040515f5160206138125f395f51905f528152f35b503461025f578060031936011261025f5760206040515f5160206138325f395f51905f528152f35b503461025f578060031936011261025f5760206040515f5160206139525f395f51905f528152f35b503461025f5760ff60406020926114a636612f15565b9082526002855282822090825284522054166040519015158152f35b503461025f578060031936011261025f57602060405160038152f35b503461025f578060031936011261025f5760206040515f5160206138925f395f51905f528152f35b503461025f57602036600319011261025f576001600160401b0360406020926004358152600c8452205416604051908152f35b503461025f57602036600319011261025f57600435604051630df675ff60e21b81528160048201525f5160206137f25f395f51905f526024820152602081604481305afa9081156106135783916116ff575b5080156116f05760405163695eea2960e01b815260048101919091526020816024817f00000000000000000000000000000000000000000000000000000000000000006001600160a01b03165afa8015610613576115f1918491610f0557503390613163565b156116e15761160c5f5160206138325f395f51905f52613255565b8082526004602052604082205f5160206138325f395f51905f5283526020527f7a7c458ad3de602483c71813fb3a53f4bfc5b8d079bb4fc2a70b530143116afa60408320556116685f5160206138325f395f51905f5282613353565b61167e5f5160206139b25f395f51905f52613255565b8082526003602052604082205f5160206139b25f395f51905f5283526020524260408320556116ba5f5160206139b25f395f51905f5282613627565b7fafb70861ec6d0c19b5a5e77f226501ea286d41222a41060f82a52e95d6ab092b8280a280f35b633f69f7f760e01b8252600482fd5b632afbbcef60e11b8352600483fd5b90506020813d602011611729575b8161171a60209383612f4f565b81010312610f7857515f61158b565b3d915061170d565b503461025f578060031936011261025f57602060405160068152f35b5034610f78576020366003190112610f78576004356001600160401b038111610f7857806004016101806003198336030112610f785760405163695eea2960e01b815281356004820181905291906020816024817f00000000000000000000000000000000000000000000000000000000000000006001600160a01b03165afa908115612215575f91612a9f575b506001600160a01b03811615908115612a8c575b50612a7d576101648301906001600160a01b0361180b83613067565b1615612a6e57602484013593611821858561310b565b926118385f5160206137f25f395f51905f52613255565b835f52600460205260405f205f5160206137f25f395f51905f525f526020528460405f20556118745f5160206137f25f395f51905f5285613353565b61188a5f5160206138d25f395f51905f52613255565b835f52600460205260405f205f5160206138d25f395f51905f525f526020528560405f20556118c65f5160206138d25f395f51905f5285613353565b6118d6610630604484018561307b565b6118ec5f5160206137b25f395f51905f52613255565b845f525f60205260405f205f5160206137b25f395f51905f525f5260205260405f20908051906001600160401b03821161239257819061192c8454612f70565b601f8111612a1e575b50602090601f83116001146129bb575f926129b0575b50508160011b915f199060031b1c19161790555b6119765f5160206137b25f395f51905f52856134bd565b611986610630606484018561307b565b61199c5f5160206138525f395f51905f52613255565b845f525f60205260405f205f5160206138525f395f51905f525f5260205260405f20908051906001600160401b0382116123925781906119dc8454612f70565b601f8111612960575b50602090601f83116001146128fd575f926128f2575b50508160011b915f199060031b1c19161790555b611a265f5160206138525f395f51905f52856134bd565b611a36610630608484018561307b565b611a4c5f5160206138125f395f51905f52613255565b845f525f60205260405f205f5160206138125f395f51905f525f5260205260405f20908051906001600160401b038211612392578190611a8c8454612f70565b601f81116128a2575b50602090601f831160011461283f575f92612834575b50508160011b915f199060031b1c19161790555b611ad65f5160206138125f395f51905f52856134bd565b611ae661063060a484018561307b565b611afc5f5160206138f25f395f51905f52613255565b845f525f60205260405f205f5160206138f25f395f51905f525f5260205260405f20908051906001600160401b038211612392578190611b3c8454612f70565b601f81116127e4575b50602090601f8311600114612781575f92612776575b50508160011b915f199060031b1c19161790555b611b865f5160206138f25f395f51905f52856134bd565b611b9661063060c484018561307b565b611bac5f5160206138b25f395f51905f52613255565b845f525f60205260405f205f5160206138b25f395f51905f525f5260205260405f20908051906001600160401b038211612392578190611bec8454612f70565b601f8111612726575b50602090601f83116001146126c3575f926126b8575b50508160011b915f199060031b1c19161790555b611c365f5160206138b25f395f51905f52856134bd565b611c4661063060e484018561307b565b611c5c5f5160206139525f395f51905f52613255565b845f525f60205260405f205f5160206139525f395f51905f525f5260205260405f20908051906001600160401b038211612392578190611c9c8454612f70565b601f8111612668575b50602090601f8311600114612605575f926125fa575b50508160011b915f199060031b1c19161790555b611ce65f5160206139525f395f51905f52856134bd565b611cf761063061010484018561307b565b611d0d5f5160206139925f395f51905f52613255565b845f525f60205260405f205f5160206139925f395f51905f525f5260205260405f20908051906001600160401b038211612392578190611d4d8454612f70565b601f81116125aa575b50602090601f8311600114612547575f9261253c575b50508160011b915f199060031b1c19161790555b611d975f5160206139925f395f51905f52856134bd565b611da861063061012484018561307b565b611dbe5f5160206138925f395f51905f52613255565b845f525f60205260405f205f5160206138925f395f51905f525f5260205260405f20908051906001600160401b03821161239257611dfc8354612f70565b601f81116124f7575b50602090601f831160011461248f57611f73949392915f9183612484575b50508160011b915f199060031b1c19161790555b611e4e5f5160206138925f395f51905f52866134bd565b611e645f5160206138325f395f51905f52613255565b845f52600460205260405f205f5160206138325f395f51905f525f526020527f451b1a9bb8aa7c264ecca604da2fa8963c7406384350ee13382eea4c29ab54bd60405f2055611ec05f5160206138325f395f51905f5286613353565b611ed65f5160206139725f395f51905f52613255565b845f52600360205260405f205f5160206139725f395f51905f525f526020524260405f2055611f125f5160206139725f395f51905f5286613627565b611f1c428661320a565b611f325f5160206138725f395f51905f52613255565b845f52600360205260405f205f5160206138725f395f51905f525f526020525f6040812055611f6e5f5160206138725f395f51905f5286613627565b613067565b60405163170da40760e21b81525f5160206139125f395f51905f5260048201526020816024817f00000000000000000000000000000000000000000000000000000000000000006001600160a01b03165afa908115612215575f91612455575b501561244657835f52600160205260405f205f5160206139125f395f51905f525f5260205260405f209060018060a01b03166bffffffffffffffffffffffff60a01b825416179055825f52600e60205260ff60405f2054161561240f575b825f52600960205260405f205f5160206139125f395f51905f525f5260205260ff60405f205416156123ba575b825f52600a60205260405f205f5160206139125f395f51905f525f5260205260405f20600260ff19825416179055825f52600c60205260016001600160401b0360405f20541601906001600160401b0382116123a6575f5160206139125f395f51905f52845f5160206139325f395f51905f52604061014495835f52600c602052815f206001600160401b0382166001600160401b0319825416179055835f52600b602052815f20855f52602052815f206001600160401b0382166001600160401b03198254161790556001600160401b0382519160028352166020820152a3019061214a828261307b565b9050612220575b50507f00000000000000000000000000000000000000000000000000000000000000006001600160a01b0316803b15610f78575f606491604051928380926309abe27f60e01b82527f404cb3e9cd83852c0effe95a622d6d4390488f9a54aa3f59755f5e4ca34f03db60048301528660248301523060448301525afa801561221557612200575b507fa848b3b826e7b02e4f7f36ae5c7f1cbbedd2d4092eebc979924c1d477a49eae78480a480f35b61220d9194505f90612f4f565b5f925f6121d8565b6040513d5f823e3d90fd5b61222d916106309161307b565b6122435f5160206137925f395f51905f52613255565b815f525f60205260405f205f5160206137925f395f51905f525f5260205260405f20908051906001600160401b0382116123925781906122838454612f70565b601f8111612342575b50602090601f83116001146122df575f926122d4575b50508160011b915f199060031b1c19161790555b6122cd5f5160206137925f395f51905f52826134bd565b5f80612151565b015190505f806122a2565b5f8581528281209350601f198516905b81811061232a5750908460019594939210612312575b505050811b0190556122b6565b01515f1960f88460031b161c191690555f8080612305565b929360206001819287860151815501950193016122ef565b909150835f5260205f20601f840160051c81019160208510612388575b90601f859493920160051c01905b81811061237a575061228c565b5f815584935060010161236d565b909150819061235f565b634e487b7160e01b5f52604160045260245ffd5b634e487b7160e01b5f52601160045260245ffd5b825f5260086020526123dc5f5160206139125f395f51905f5260405f2061332c565b825f52600960205260405f205f5160206139125f395f51905f525f5260205260405f20600160ff1982541617905561205e565b825f52600e60205260405f20600160ff1982541617905561242f836132d1565b825f5160206137d25f395f51905f525f80a2612031565b632263bf1f60e21b5f5260045ffd5b612477915060203d60201161247d575b61246f8183612f4f565b81019061314b565b5f611fd3565b503d612465565b015190505f80611e23565b90601f19831691845f52815f20925f5b8181106124df5750916001939185611f7398979694106124c7575b505050811b019055611e37565b01515f1960f88460031b161c191690555f80806124ba565b9293602060018192878601518155019501930161249f565b835f5260205f20601f840160051c81019160208510612532575b601f0160051c01905b8181106125275750611e05565b5f815560010161251a565b9091508190612511565b015190505f80611d6c565b5f8581528281209350601f198516905b818110612592575090846001959493921061257a575b505050811b019055611d80565b01515f1960f88460031b161c191690555f808061256d565b92936020600181928786015181550195019301612557565b909150835f5260205f20601f840160051c810191602085106125f0575b90601f859493920160051c01905b8181106125e25750611d56565b5f81558493506001016125d5565b90915081906125c7565b015190505f80611cbb565b5f8581528281209350601f198516905b8181106126505750908460019594939210612638575b505050811b019055611ccf565b01515f1960f88460031b161c191690555f808061262b565b92936020600181928786015181550195019301612615565b909150835f5260205f20601f840160051c810191602085106126ae575b90601f859493920160051c01905b8181106126a05750611ca5565b5f8155849350600101612693565b9091508190612685565b015190505f80611c0b565b5f8581528281209350601f198516905b81811061270e57509084600195949392106126f6575b505050811b019055611c1f565b01515f1960f88460031b161c191690555f80806126e9565b929360206001819287860151815501950193016126d3565b909150835f5260205f20601f840160051c8101916020851061276c575b90601f859493920160051c01905b81811061275e5750611bf5565b5f8155849350600101612751565b9091508190612743565b015190505f80611b5b565b5f8581528281209350601f198516905b8181106127cc57509084600195949392106127b4575b505050811b019055611b6f565b01515f1960f88460031b161c191690555f80806127a7565b92936020600181928786015181550195019301612791565b909150835f5260205f20601f840160051c8101916020851061282a575b90601f859493920160051c01905b81811061281c5750611b45565b5f815584935060010161280f565b9091508190612801565b015190505f80611aab565b5f8581528281209350601f198516905b81811061288a5750908460019594939210612872575b505050811b019055611abf565b01515f1960f88460031b161c191690555f8080612865565b9293602060018192878601518155019501930161284f565b909150835f5260205f20601f840160051c810191602085106128e8575b90601f859493920160051c01905b8181106128da5750611a95565b5f81558493506001016128cd565b90915081906128bf565b015190505f806119fb565b5f8581528281209350601f198516905b8181106129485750908460019594939210612930575b505050811b019055611a0f565b01515f1960f88460031b161c191690555f8080612923565b9293602060018192878601518155019501930161290d565b909150835f5260205f20601f840160051c810191602085106129a6575b90601f859493920160051c01905b81811061299857506119e5565b5f815584935060010161298b565b909150819061297d565b015190505f8061194b565b5f8581528281209350601f198516905b818110612a0657509084600195949392106129ee575b505050811b01905561195f565b01515f1960f88460031b161c191690555f80806129e1565b929360206001819287860151815501950193016129cb565b909150835f5260205f20601f840160051c81019160208510612a64575b90601f859493920160051c01905b818110612a565750611935565b5f8155849350600101612a49565b9091508190612a3b565b6350e9a53760e01b5f5260045ffd5b633f69f7f760e01b5f5260045ffd5b612a9891503390613163565b155f6117ef565b612ab8915060203d602011610f2d57610f1f8183612f4f565b5f6117db565b34610f7857612acc36612f15565b905f52600b60205260405f20905f5260205260206001600160401b0360405f205416604051908152f35b34610f78575f366003190112610f785760206040515f5160206138d25f395f51905f528152f35b34610f78575f366003190112610f785760206040515f5160206137f25f395f51905f528152f35b34610f7857612b5236612f15565b905f52600360205260405f20905f52602052602060405f2054604051908152f35b34610f78575f366003190112610f785760206040515f5160206138725f395f51905f528152f35b34610f78575f366003190112610f785760206040517fc8aa741ee4306542961134445a23865912f42123f3c19a48a5a9bb191b44e8d18152f35b34610f78575f366003190112610f78576020600d54604051908152f35b34610f78575f366003190112610f785760206040515f5160206138b25f395f51905f528152f35b34610f78575f366003190112610f78576040517f00000000000000000000000000000000000000000000000000000000000000006001600160a01b03168152602090f35b34610f78575f366003190112610f785760206040517f404cb3e9cd83852c0effe95a622d6d4390488f9a54aa3f59755f5e4ca34f03db8152f35b34610f78576020612caf612ca936612f15565b9061310b565b604051908152f35b34610f7857612cc536612f15565b905f52600a60205260405f20905f52602052602060ff60405f205416604051908152f35b34610f7857612cf736612f15565b905f52600760205260405f20905f5260205260405f206040519081602082549182815201915f5260205f20905f5b818110612d3c576111ad856111a181870382612f4f565b8254845260209093019260019283019201612d25565b34610f7857612d6036612f15565b905f52600460205260405f20905f52602052602060405f2054604051908152f35b34610f78575f366003190112610f785760206040515f5160206137b25f395f51905f528152f35b34610f7857612db636612f15565b905f525f60205260405f20905f526020526111ad612dd660405f20612fa8565b604051918291602083526020830190612f2b565b34610f78576020366003190112610f78576004355f52600860205260405f206040519081602082549182815201915f5260205f20905f5b818110612e38576111ad856111a181870382612f4f565b8254845260209093019260019283019201612e21565b34610f78575f366003190112610f785760206040515f5160206137925f395f51905f528152f35b34610f78575f366003190112610f7857602060405160078152f35b34610f78575f366003190112610f785760206040515f5160206139b25f395f51905f528152f35b34610f78575f366003190112610f7857805f5160206139125f395f51905f5260209252f35b60206040818301928281528451809452019201905f5b818110612eff5750505090565b8251845260209384019390920191600101612ef2565b6040906003190112610f78576004359060243590565b805180835260209291819084018484015e5f828201840152601f01601f1916010190565b90601f801991011681019081106001600160401b0382111761239257604052565b90600182811c92168015612f9e575b6020831014612f8a57565b634e487b7160e01b5f52602260045260245ffd5b91607f1691612f7f565b9060405191825f825492612fbb84612f70565b80845293600181169081156130265750600114612fe2575b50612fe092500383612f4f565b565b90505f9291925260205f20905f915b81831061300a575050906020612fe0928201015f612fd3565b6020919350806001915483858901015201910190918492612ff1565b905060209250612fe094915060ff191682840152151560051b8201015f612fd3565b90816020910312610f7857516001600160a01b0381168103610f785790565b356001600160a01b0381168103610f785790565b903590601e1981360301821215610f7857018035906001600160401b038211610f7857602001918136038313610f7857565b6001600160401b03811161239257601f01601f191660200190565b9291926130d4826130ad565b916130e26040519384612f4f565b829481845281830111610f78578281602093845f960137010152565b358015158103610f785790565b906040519060208201927039b09d33b930b73a283937b837b9b0b61d60791b84526031830152605182015260518152613145607182612f4f565b51902090565b90816020910312610f7857518015158103610f785790565b90813b15613204575f91829160405160208101916317aa5fb760e11b835260018060a01b031660248201526024815261319d604482612f4f565b51915afa3d156131fd573d6131b1816130ad565b906131bf6040519283612f4f565b81523d5f602083013e5b816131ef575b816131d8575090565b6131ec91506020808251830101910161314b565b90565b9050602081511015906131cf565b60606131c9565b50505f90565b7f4d99a9b860d05bdefd8912feed3878fabc0d79f4c91119487da7d7fca41be93090612fe09261323983613255565b815f52600360205260405f20835f5260205260405f2055613627565b60405163170da40760e21b815260048101919091526020816024817f00000000000000000000000000000000000000000000000000000000000000006001600160a01b03165afa908115612215575f916132b2575b501561244657565b6132cb915060203d60201161247d5761246f8183612f4f565b5f6132aa565b600d54600160401b811015612392576001810180600d5581101561331857600d5f527fd7b6990105719101dabeb77144f2a3385c8033acd3af97e9423a695e81ad1eb50155565b634e487b7160e01b5f52603260045260245ffd5b805490600160401b8210156123925760018201808255821015613318575f5260205f200155565b805f52600e60205260ff60405f20541615613486575b805f52600960205260405f20825f5260205260ff60405f2054161561344b575b805f52600a60205260405f20825f5260205260405f20600560ff19825416179055805f52600c60205260016001600160401b0360405f205416016001600160401b0381116123a65760405f5160206139325f395f51905f5291835f52600c602052815f206001600160401b0382166001600160401b0319825416179055835f52600b602052815f20855f52602052815f206001600160401b0382166001600160401b03198254161790556001600160401b0382519160058352166020820152a3565b805f5260086020526134608260405f2061332c565b805f52600960205260405f20825f5260205260405f20600160ff19825416179055613389565b805f52600e60205260405f20600160ff198254161790556134a6816132d1565b805f5160206137d25f395f51905f525f80a2613369565b805f52600e60205260ff60405f205416156135f0575b805f52600960205260405f20825f5260205260ff60405f205416156135b5575b805f52600a60205260405f20825f5260205260405f20600160ff19825416179055805f52600c60205260016001600160401b0360405f205416016001600160401b0381116123a65760405f5160206139325f395f51905f5291835f52600c602052815f206001600160401b0382166001600160401b0319825416179055835f52600b602052815f20855f52602052815f206001600160401b0382166001600160401b03198254161790556001600160401b0382519160018352166020820152a3565b805f5260086020526135ca8260405f2061332c565b805f52600960205260405f20825f5260205260405f20600160ff198254161790556134f3565b805f52600e60205260405f20600160ff19825416179055613610816132d1565b805f5160206137d25f395f51905f525f80a26134d3565b805f52600e60205260ff60405f2054161561375a575b805f52600960205260405f20825f5260205260ff60405f2054161561371f575b805f52600a60205260405f20825f5260205260405f20600460ff19825416179055805f52600c60205260016001600160401b0360405f205416016001600160401b0381116123a65760405f5160206139325f395f51905f5291835f52600c602052815f206001600160401b0382166001600160401b0319825416179055835f52600b602052815f20855f52602052815f206001600160401b0382166001600160401b03198254161790556001600160401b0382519160048352166020820152a3565b805f5260086020526137348260405f2061332c565b805f52600960205260405f20825f5260205260405f20600160ff1982541617905561365d565b805f52600e60205260405f20600160ff1982541617905561377a816132d1565b805f5160206137d25f395f51905f525f80a261363d56fe1fad849bcd2f49960be8dc3b28353ecade79092bf043c0a2948a183f3da7a46aa7ea82a1b0805477d593578d7f978db36093796df39e9f5e957a2c82dfbe78fb34f1cb4778d9578e1af878b07d3ae7e9f2f32fafcaa3096fe48153670a71bfaf3178bc65ebfe44aebfe9c9d56839dcbb8fb7dc19b6b34f97ed3fac6c462ed4907ae9af23b2d086d1038d08a2028b37c2f287bf6a1e61a0e59244ce6bd178e65feab0b9141898236bd59ae80b1c3858f579404795c7dbe1e77bd578213fa6e4fa9a48e7681c5ebea33b08164969f750bf1f819a6104c34ab997647f35261ee16b5c0f89d5a266958e98cc1df6fb7815dc9572326b00f9b42bf5ec0444ecd70be06af9de206d439a0bfb32362df2f3a7b50341deba3e83f439a3da4bb7c4bfb0ba83c28c8571d767c08b0c98ff7f3ccfd274f04f5c5c74530db8bffdcc91d579e5239daf2bca666a4c0fb94fcf362de18b3eee48f0b77c32b8e0156d1f14b827ebf99c87970194757ee7fd81e025f3a661ceaf7774c59323a2196cd05baf38a2ef9b9e7fa5fcac79d86a7aeab24d74948b5a79b58da28caa47e7ee17af760345b35167ea251eeaf052f4c7bd769efb5b17e6ba98908050b9929a0bd192b57274fbf9a12d6108c0cbb2ef1c2adc9e729e6206ee6ae0b71a1fa5ac0c303d1e269ae119a8cc24d320cb0b622b442112ed227a0f16e57e9440a7f14b1533cb607ed6ce7c972585049078ab78da3ce55d80db586d3ce3e2a99c1762eb50a3b643a643f6843505b67634660d8e38e07f06353d4e64297a7991be15735d5eaa3e5ae281b4a2646970667358221220a7098bba5d2a32f046f379ab7be7ecfb7a4472425d8f7f9edb8f7d2b8c5614f864736f6c634300081c0033","linkReferences":{}},"methodIdentifiers":{"CLASS_GRANT_PROPOSAL()":"45fb25be","DT_ADDRESS_ARR_PUB()":"213aaad7","DT_ADDRESS_PUB()":"ece6bebc","DT_BOOL_PUB()":"93cbc37d","DT_BYTES32_ARR_PUB()":"f98eed69","DT_BYTES32_PUB()":"c3174629","DT_STRING_ARR_PUB()":"8e101369","DT_STRING_PUB()":"a954aea1","DT_UINT256_PUB()":"be78c068","FUND_REGISTRY()":"a24a6f63","ONTOLOGY()":"e63cdb42","SA_GP_BASED_ON()":"f7760851","SA_GP_BASIS()":"24f761dd","SA_GP_BUDGET()":"a0cb1238","SA_GP_CLONED_FROM()":"67be403d","SA_GP_DISPLAY_NAME()":"32eb3578","SA_GP_LAST_EDITED()":"d5aee144","SA_GP_MILESTONES()":"575f6367","SA_GP_NULLIFIER()":"86300b8d","SA_GP_ORG_BG()":"8e2f2a05","SA_GP_OUTCOMES()":"9d8dd8b2","SA_GP_PLAN()":"d65b81eb","SA_GP_RECIPIENT()":"063a1cac","SA_GP_REPORTING()":"d5ec000f","SA_GP_ROUND()":"806ba9be","SA_GP_STATUS()":"a01e026f","SA_GP_SUBMITTED_AT()":"a97614ae","SA_GP_VERSION()":"69352791","SA_GP_WITHDRAWN_AT()":"07e3db56","SHAPES()":"55c964dd","allSubjects()":"c3a6123d","datatypeOf(bytes32,bytes32)":"42921cf3","edit(bytes32,(bool,string,bool,string,bool,string,bool,string,bool,string,bool,string))":"de85e116","getAddress(bytes32,bytes32)":"d3a39686","getAddressArr(bytes32,bytes32)":"e4281bc3","getBool(bytes32,bytes32)":"98eaf11c","getBytes32(bytes32,bytes32)":"37d9d7fc","getBytes32Arr(bytes32,bytes32)":"4083843e","getString(bytes32,bytes32)":"31477b9b","getStringArr(bytes32,bytes32)":"cb954f30","getUint(bytes32,bytes32)":"7a6ad926","gpSubject(bytes32,bytes32)":"453e95e7","isSet(bytes32,bytes32)":"bb6b0c3b","predicatesOf(bytes32)":"30547181","setStatus(bytes32,bytes32)":"bb25a0a8","subjectCount()":"639a2e10","subjectVersion(bytes32)":"8e21caca","submit((bytes32,bytes32,string,string,string,string,string,string,string,string,string,address))":"89bf3d3c","updatedAt(bytes32,bytes32)":"880eadce","withdraw(bytes32)":"8e19899e"},"id":102}