{"abi":[{"type":"constructor","inputs":[{"name":"ontologyRegistry","type":"address","internalType":"address"},{"name":"shapes","type":"address","internalType":"address"},{"name":"fundRegistry","type":"address","internalType":"address"}],"stateMutability":"nonpayable"},{"type":"function","name":"CLASS_GRANT_PROPOSAL","inputs":[],"outputs":[{"name":"","type":"bytes32","internalType":"bytes32"}],"stateMutability":"view"},{"type":"function","name":"DT_ADDRESS_ARR_PUB","inputs":[],"outputs":[{"name":"","type":"uint8","internalType":"uint8"}],"stateMutability":"pure"},{"type":"function","name":"DT_ADDRESS_PUB","inputs":[],"outputs":[{"name":"","type":"uint8","internalType":"uint8"}],"stateMutability":"pure"},{"type":"function","name":"DT_BOOL_PUB","inputs":[],"outputs":[{"name":"","type":"uint8","internalType":"uint8"}],"stateMutability":"pure"},{"type":"function","name":"DT_BYTES32_ARR_PUB","inputs":[],"outputs":[{"name":"","type":"uint8","internalType":"uint8"}],"stateMutability":"pure"},{"type":"function","name":"DT_BYTES32_PUB","inputs":[],"outputs":[{"name":"","type":"uint8","internalType":"uint8"}],"stateMutability":"pure"},{"type":"function","name":"DT_STRING_ARR_PUB","inputs":[],"outputs":[{"name":"","type":"uint8","internalType":"uint8"}],"stateMutability":"pure"},{"type":"function","name":"DT_STRING_PUB","inputs":[],"outputs":[{"name":"","type":"uint8","internalType":"uint8"}],"stateMutability":"pure"},{"type":"function","name":"DT_UINT256_PUB","inputs":[],"outputs":[{"name":"","type":"uint8","internalType":"uint8"}],"stateMutability":"pure"},{"type":"function","name":"FUND_REGISTRY","inputs":[],"outputs":[{"name":"","type":"address","internalType":"contract IRoundFundLookup2"}],"stateMutability":"view"},{"type":"function","name":"ONTOLOGY","inputs":[],"outputs":[{"name":"","type":"address","internalType":"contract OntologyTermRegistry"}],"stateMutability":"view"},{"type":"function","name":"SA_GP_BASED_ON","inputs":[],"outputs":[{"name":"","type":"bytes32","internalType":"bytes32"}],"stateMutability":"view"},{"type":"function","name":"SA_GP_BASIS","inputs":[],"outputs":[{"name":"","type":"bytes32","internalType":"bytes32"}],"stateMutability":"view"},{"type":"function","name":"SA_GP_BUDGET","inputs":[],"outputs":[{"name":"","type":"bytes32","internalType":"bytes32"}],"stateMutability":"view"},{"type":"function","name":"SA_GP_CLONED_FROM","inputs":[],"outputs":[{"name":"","type":"bytes32","internalType":"bytes32"}],"stateMutability":"view"},{"type":"function","name":"SA_GP_DISPLAY_NAME","inputs":[],"outputs":[{"name":"","type":"bytes32","internalType":"bytes32"}],"stateMutability":"view"},{"type":"function","name":"SA_GP_LAST_EDITED","inputs":[],"outputs":[{"name":"","type":"bytes32","internalType":"bytes32"}],"stateMutability":"view"},{"type":"function","name":"SA_GP_MILESTONES","inputs":[],"outputs":[{"name":"","type":"bytes32","internalType":"bytes32"}],"stateMutability":"view"},{"type":"function","name":"SA_GP_NULLIFIER","inputs":[],"outputs":[{"name":"","type":"bytes32","internalType":"bytes32"}],"stateMutability":"view"},{"type":"function","name":"SA_GP_ORG_BG","inputs":[],"outputs":[{"name":"","type":"bytes32","internalType":"bytes32"}],"stateMutability":"view"},{"type":"function","name":"SA_GP_OUTCOMES","inputs":[],"outputs":[{"name":"","type":"bytes32","internalType":"bytes32"}],"stateMutability":"view"},{"type":"function","name":"SA_GP_PLAN","inputs":[],"outputs":[{"name":"","type":"bytes32","internalType":"bytes32"}],"stateMutability":"view"},{"type":"function","name":"SA_GP_REPORTING","inputs":[],"outputs":[{"name":"","type":"bytes32","internalType":"bytes32"}],"stateMutability":"view"},{"type":"function","name":"SA_GP_ROUND","inputs":[],"outputs":[{"name":"","type":"bytes32","internalType":"bytes32"}],"stateMutability":"view"},{"type":"function","name":"SA_GP_STATUS","inputs":[],"outputs":[{"name":"","type":"bytes32","internalType":"bytes32"}],"stateMutability":"view"},{"type":"function","name":"SA_GP_SUBMITTED_AT","inputs":[],"outputs":[{"name":"","type":"bytes32","internalType":"bytes32"}],"stateMutability":"view"},{"type":"function","name":"SA_GP_VERSION","inputs":[],"outputs":[{"name":"","type":"bytes32","internalType":"bytes32"}],"stateMutability":"view"},{"type":"function","name":"SA_GP_WITHDRAWN_AT","inputs":[],"outputs":[{"name":"","type":"bytes32","internalType":"bytes32"}],"stateMutability":"view"},{"type":"function","name":"SHAPES","inputs":[],"outputs":[{"name":"","type":"address","internalType":"contract ShapeRegistry"}],"stateMutability":"view"},{"type":"function","name":"allSubjects","inputs":[],"outputs":[{"name":"","type":"bytes32[]","internalType":"bytes32[]"}],"stateMutability":"view"},{"type":"function","name":"datatypeOf","inputs":[{"name":"subject","type":"bytes32","internalType":"bytes32"},{"name":"predicate","type":"bytes32","internalType":"bytes32"}],"outputs":[{"name":"","type":"uint8","internalType":"uint8"}],"stateMutability":"view"},{"type":"function","name":"edit","inputs":[{"name":"gp","type":"bytes32","internalType":"bytes32"},{"name":"patch","type":"tuple","internalType":"struct GrantProposalRegistry.EditPatch","components":[{"name":"editBudget","type":"bool","internalType":"bool"},{"name":"newBudgetJson","type":"string","internalType":"string"},{"name":"editPlan","type":"bool","internalType":"bool"},{"name":"newPlanJson","type":"string","internalType":"string"},{"name":"editMilestones","type":"bool","internalType":"bool"},{"name":"newMilestonesJson","type":"string","internalType":"string"},{"name":"editOutcomes","type":"bool","internalType":"bool"},{"name":"newOutcomesJson","type":"string","internalType":"string"},{"name":"editReporting","type":"bool","internalType":"bool"},{"name":"newReportingJson","type":"string","internalType":"string"},{"name":"editOrgBackground","type":"bool","internalType":"bool"},{"name":"newOrgBackgroundJson","type":"string","internalType":"string"}]}],"outputs":[],"stateMutability":"nonpayable"},{"type":"function","name":"getAddress","inputs":[{"name":"subject","type":"bytes32","internalType":"bytes32"},{"name":"predicate","type":"bytes32","internalType":"bytes32"}],"outputs":[{"name":"","type":"address","internalType":"address"}],"stateMutability":"view"},{"type":"function","name":"getAddressArr","inputs":[{"name":"subject","type":"bytes32","internalType":"bytes32"},{"name":"predicate","type":"bytes32","internalType":"bytes32"}],"outputs":[{"name":"","type":"address[]","internalType":"address[]"}],"stateMutability":"view"},{"type":"function","name":"getBool","inputs":[{"name":"subject","type":"bytes32","internalType":"bytes32"},{"name":"predicate","type":"bytes32","internalType":"bytes32"}],"outputs":[{"name":"","type":"bool","internalType":"bool"}],"stateMutability":"view"},{"type":"function","name":"getBytes32","inputs":[{"name":"subject","type":"bytes32","internalType":"bytes32"},{"name":"predicate","type":"bytes32","internalType":"bytes32"}],"outputs":[{"name":"","type":"bytes32","internalType":"bytes32"}],"stateMutability":"view"},{"type":"function","name":"getBytes32Arr","inputs":[{"name":"subject","type":"bytes32","internalType":"bytes32"},{"name":"predicate","type":"bytes32","internalType":"bytes32"}],"outputs":[{"name":"","type":"bytes32[]","internalType":"bytes32[]"}],"stateMutability":"view"},{"type":"function","name":"getString","inputs":[{"name":"subject","type":"bytes32","internalType":"bytes32"},{"name":"predicate","type":"bytes32","internalType":"bytes32"}],"outputs":[{"name":"","type":"string","internalType":"string"}],"stateMutability":"view"},{"type":"function","name":"getStringArr","inputs":[{"name":"subject","type":"bytes32","internalType":"bytes32"},{"name":"predicate","type":"bytes32","internalType":"bytes32"}],"outputs":[{"name":"","type":"string[]","internalType":"string[]"}],"stateMutability":"view"},{"type":"function","name":"getUint","inputs":[{"name":"subject","type":"bytes32","internalType":"bytes32"},{"name":"predicate","type":"bytes32","internalType":"bytes32"}],"outputs":[{"name":"","type":"uint256","internalType":"uint256"}],"stateMutability":"view"},{"type":"function","name":"gpSubject","inputs":[{"name":"roundSubject","type":"bytes32","internalType":"bytes32"},{"name":"nullifier","type":"bytes32","internalType":"bytes32"}],"outputs":[{"name":"","type":"bytes32","internalType":"bytes32"}],"stateMutability":"pure"},{"type":"function","name":"isSet","inputs":[{"name":"subject","type":"bytes32","internalType":"bytes32"},{"name":"predicate","type":"bytes32","internalType":"bytes32"}],"outputs":[{"name":"","type":"bool","internalType":"bool"}],"stateMutability":"view"},{"type":"function","name":"predicatesOf","inputs":[{"name":"subject","type":"bytes32","internalType":"bytes32"}],"outputs":[{"name":"","type":"bytes32[]","internalType":"bytes32[]"}],"stateMutability":"view"},{"type":"function","name":"setStatus","inputs":[{"name":"gp","type":"bytes32","internalType":"bytes32"},{"name":"newStatus","type":"bytes32","internalType":"bytes32"}],"outputs":[],"stateMutability":"nonpayable"},{"type":"function","name":"subjectCount","inputs":[],"outputs":[{"name":"","type":"uint256","internalType":"uint256"}],"stateMutability":"view"},{"type":"function","name":"subjectVersion","inputs":[{"name":"subject","type":"bytes32","internalType":"bytes32"}],"outputs":[{"name":"","type":"uint64","internalType":"uint64"}],"stateMutability":"view"},{"type":"function","name":"submit","inputs":[{"name":"p","type":"tuple","internalType":"struct GrantProposalRegistry.SubmitParams","components":[{"name":"roundSubject","type":"bytes32","internalType":"bytes32"},{"name":"nullifier","type":"bytes32","internalType":"bytes32"},{"name":"displayName","type":"string","internalType":"string"},{"name":"basedOnIntentId","type":"string","internalType":"string"},{"name":"budgetJson","type":"string","internalType":"string"},{"name":"planJson","type":"string","internalType":"string"},{"name":"milestonesJson","type":"string","internalType":"string"},{"name":"outcomesJson","type":"string","internalType":"string"},{"name":"reportingJson","type":"string","internalType":"string"},{"name":"orgBackgroundJson","type":"string","internalType":"string"},{"name":"basisJson","type":"string","internalType":"string"}]}],"outputs":[],"stateMutability":"nonpayable"},{"type":"function","name":"updatedAt","inputs":[{"name":"subject","type":"bytes32","internalType":"bytes32"},{"name":"predicate","type":"bytes32","internalType":"bytes32"}],"outputs":[{"name":"","type":"uint64","internalType":"uint64"}],"stateMutability":"view"},{"type":"function","name":"withdraw","inputs":[{"name":"gp","type":"bytes32","internalType":"bytes32"}],"outputs":[],"stateMutability":"nonpayable"},{"type":"event","name":"AttributeAppended","inputs":[{"name":"subject","type":"bytes32","indexed":true,"internalType":"bytes32"},{"name":"predicate","type":"bytes32","indexed":true,"internalType":"bytes32"},{"name":"datatype","type":"uint8","indexed":false,"internalType":"uint8"},{"name":"version","type":"uint64","indexed":false,"internalType":"uint64"}],"anonymous":false},{"type":"event","name":"AttributeSet","inputs":[{"name":"subject","type":"bytes32","indexed":true,"internalType":"bytes32"},{"name":"predicate","type":"bytes32","indexed":true,"internalType":"bytes32"},{"name":"datatype","type":"uint8","indexed":false,"internalType":"uint8"},{"name":"version","type":"uint64","indexed":false,"internalType":"uint64"}],"anonymous":false},{"type":"event","name":"AttributeUnset","inputs":[{"name":"subject","type":"bytes32","indexed":true,"internalType":"bytes32"},{"name":"predicate","type":"bytes32","indexed":true,"internalType":"bytes32"},{"name":"version","type":"uint64","indexed":false,"internalType":"uint64"}],"anonymous":false},{"type":"event","name":"GrantProposalEdited","inputs":[{"name":"gpSubject","type":"bytes32","indexed":true,"internalType":"bytes32"},{"name":"newVersion","type":"uint256","indexed":false,"internalType":"uint256"}],"anonymous":false},{"type":"event","name":"GrantProposalStatusChanged","inputs":[{"name":"gpSubject","type":"bytes32","indexed":true,"internalType":"bytes32"},{"name":"newStatus","type":"bytes32","indexed":false,"internalType":"bytes32"}],"anonymous":false},{"type":"event","name":"GrantProposalSubmitted","inputs":[{"name":"gpSubject","type":"bytes32","indexed":true,"internalType":"bytes32"},{"name":"roundSubject","type":"bytes32","indexed":true,"internalType":"bytes32"},{"name":"nullifier","type":"bytes32","indexed":true,"internalType":"bytes32"}],"anonymous":false},{"type":"event","name":"GrantProposalWithdrawn","inputs":[{"name":"gpSubject","type":"bytes32","indexed":true,"internalType":"bytes32"}],"anonymous":false},{"type":"event","name":"SubjectFirstSeen","inputs":[{"name":"subject","type":"bytes32","indexed":true,"internalType":"bytes32"}],"anonymous":false},{"type":"error","name":"AttributeNotSet","inputs":[]},{"type":"error","name":"GrantProposalNotFound","inputs":[]},{"type":"error","name":"NotRoundOperator","inputs":[]},{"type":"error","name":"PredicateNotActive","inputs":[]}],"bytecode":{"object":"0x60e0346100cc57601f6136f238819003918201601f19168301916001600160401b038311848410176100d0578084926060946040528339810103126100cc57610047816100e4565b906100606040610059602084016100e4565b92016100e4565b6001600160a01b0392831660805290821660a0521660c0526040516135f990816100f982396080518181816102b10152612e1f015260a051818181611b0401526126ac015260c05181818161043b015281816111430152818161128a015281816113d601526123910152f35b5f80fd5b634e487b7160e01b5f52604160045260245ffd5b51906001600160a01b03821682036100cc5756fe6080806040526004361015610012575f80fd5b5f905f3560e01c90816307e3db561461290f57508063213aaad7146128f457806324f761dd146128cd578063305471811461286957806331477b9b1461282757806332eb35781461280057806337d9d7fc146127d15780634083843e1461276857806342921cf314612736578063453e95e71461271557806345fb25be146126db57806355c964dd14612697578063575f636714612670578063639a2e101461265357806367be403d1461261957806369352791146125f25780637a6ad926146125c3578063806ba9be1461259c57806386300b8d14612575578063880eadce1461253d5780638e101369146125225780638e19899e1461231c5780638e21caca146122e95780638e2f2a05146122c257806390d9e29b1461137f57806393cbc37d1461136357806398eaf11c146113315780639d8dd8b214611309578063a01e026f146112e1578063a0cb1238146112b9578063a24a6f6314611274578063a954aea114611258578063a97614ae14611230578063bb25a0a8146110d2578063bb6b0c3b146110a0578063be78c06814611084578063c317462914611068578063c3a6123d14610fe3578063cb954f3014610eeb578063d3a3968614610eb4578063d5aee14414610e79578063d5ec000f14610e51578063d65b81eb14610e29578063de85e1161461039e578063e4281bc3146102e0578063e63cdb421461029b578063ece6bebc1461027f578063f7760851146102575763f98eed6914610239575f80fd5b34610254578060031936011261025457602060405160088152f35b80fd5b503461025457806003193601126102545760206040515f5160206134845f395f51905f528152f35b5034610254578060031936011261025457602060405160028152f35b50346102545780600319360112610254576040517f00000000000000000000000000000000000000000000000000000000000000006001600160a01b03168152602090f35b5034610254576102ef3661296d565b90825260066020526040822090825260205260408120604051908160208254918281520190819285526020852090855b81811061037f57505050826103359103836129a7565b604051928392602084019060208552518091526040840192915b81811061035d575050500390f35b82516001600160a01b031684528594506020938401939092019160010161034f565b82546001600160a01b031684526020909301926001928301920161031f565b503461025457604036600319011261025457600435906024356001600160401b038111610e2557806004019061018060031982360301126105fc57604051630df675ff60e21b8152600481018590525f5160206134245f395f51905f526024820152602081604481305afa908115610dd5578491610def575b508015610de05760405163695eea2960e01b815260048101919091526020816024817f00000000000000000000000000000000000000000000000000000000000000006001600160a01b03165afa908115610dd55790610480918591610da6575b503390612ba7565b15610d975761048e82612b42565b610d79575b61049f60448201612b42565b610c07575b6104b060848201612b42565b610a95575b6104c160c48201612b42565b610923575b6104d36101048201612b42565b61079c575b6104e56101448201612b42565b610613575b505090604051633d356c9360e11b81528160048201525f5160206134a45f395f51905f526024820152602081604481305afa9081156106085783916105d2575b50600181018091116105be5760207f96afd1e3b963ae9f99e8dd98913dc6c5b17355542110e9fbc8bcadea03bdaf38916105705f5160206134a45f395f51905f52612e02565b83855260038252604085205f5160206134a45f395f51905f52865282528060408620556105aa5f5160206134a45f395f51905f52856130c3565b6105b44285612c4e565b604051908152a280f35b634e487b7160e01b83526011600452602483fd5b90506020813d602011610600575b816105ed602093836129a7565b810103126105fc57515f61052a565b8280fd5b3d91506105e0565b6040513d85823e3d90fd5b61062c91610164610625920190612abf565b3691612b0c565b916106435f5160206134c45f395f51905f52612e02565b80825281602052604082205f5160206134c45f395f51905f5283526020526040822083516001600160401b0381116107885761067f82546129c8565b601f8111610743575b50602094601f82116001146106e25794849582939495926106d7575b50508160011b915f199060031b1c19161790555b6106cf5f5160206134c45f395f51905f5282613253565b905f806104ea565b015190505f806106a4565b601f1982169583865280862091865b88811061072b57508360019596979810610713575b505050811b0190556106b8565b01515f1960f88460031b161c191690555f8080610706565b919260206001819286850151815501940192016106f1565b82855260208520601f830160051c8101916020841061077e575b601f0160051c01905b8181106107735750610688565b858155600101610766565b909150819061075d565b634e487b7160e01b84526041600452602484fd5b6107ad610625610124830184612abf565b6107c35f5160206135845f395f51905f52612e02565b84845283602052604084205f5160206135845f395f51905f52855260205260408420908051906001600160401b03821161090f57819061080384546129c8565b601f81116108bf575b50602090601f831160011461085d578792610852575b50508160011b915f199060031b1c19161790555b61084d5f5160206135845f395f51905f5285613253565b6104d8565b015190505f80610822565b8488528188209250601f198416885b8181106108a7575090846001959493921061088f575b505050811b019055610836565b01515f1960f88460031b161c191690555f8080610882565b9293602060018192878601518155019501930161086c565b90915083875260208720601f840160051c81019160208510610905575b90601f859493920160051c01905b8181106108f7575061080c565b8881558493506001016108ea565b90915081906108dc565b634e487b7160e01b86526041600452602486fd5b61093361062560e4830184612abf565b6109495f5160206135445f395f51905f52612e02565b84845283602052604084205f5160206135445f395f51905f52855260205260408420908051906001600160401b03821161090f57819061098984546129c8565b601f8111610a45575b50602090601f83116001146109e35787926109d8575b50508160011b915f199060031b1c19161790555b6109d35f5160206135445f395f51905f5285613253565b6104c6565b015190505f806109a8565b8488528188209250601f198416885b818110610a2d5750908460019594939210610a15575b505050811b0190556109bc565b01515f1960f88460031b161c191690555f8080610a08565b929360206001819287860151815501950193016109f2565b90915083875260208720601f840160051c81019160208510610a8b575b90601f859493920160051c01905b818110610a7d5750610992565b888155849350600101610a70565b9091508190610a62565b610aa561062560a4830184612abf565b610abb5f5160206134e45f395f51905f52612e02565b84845283602052604084205f5160206134e45f395f51905f52855260205260408420908051906001600160401b03821161090f578190610afb84546129c8565b601f8111610bb7575b50602090601f8311600114610b55578792610b4a575b50508160011b915f199060031b1c19161790555b610b455f5160206134e45f395f51905f5285613253565b6104b5565b015190505f80610b1a565b8488528188209250601f198416885b818110610b9f5750908460019594939210610b87575b505050811b019055610b2e565b01515f1960f88460031b161c191690555f8080610b7a565b92936020600181928786015181550195019301610b64565b90915083875260208720601f840160051c81019160208510610bfd575b90601f859493920160051c01905b818110610bef5750610b04565b888155849350600101610be2565b9091508190610bd4565b610c176106256064830184612abf565b610c2d5f5160206135245f395f51905f52612e02565b84845283602052604084205f5160206135245f395f51905f52855260205260408420908051906001600160401b03821161090f578190610c6d84546129c8565b601f8111610d29575b50602090601f8311600114610cc7578792610cbc575b50508160011b915f199060031b1c19161790555b610cb75f5160206135245f395f51905f5285613253565b6104a4565b015190505f80610c8c565b8488528188209250601f198416885b818110610d115750908460019594939210610cf9575b505050811b019055610ca0565b01515f1960f88460031b161c191690555f8080610cec565b92936020600181928786015181550195019301610cd6565b90915083875260208720601f840160051c81019160208510610d6f575b90601f859493920160051c01905b818110610d615750610c76565b888155849350600101610d54565b9091508190610d46565b610d92610d8c6106256024840185612abf565b85612c99565b610493565b633f69f7f760e01b8352600483fd5b610dc8915060203d602011610dce575b610dc081836129a7565b810190612aa0565b5f610478565b503d610db6565b6040513d86823e3d90fd5b632afbbcef60e11b8452600484fd5b90506020813d602011610e1d575b81610e0a602093836129a7565b81010312610e1957515f610417565b5f80fd5b3d9150610dfd565b5080fd5b503461025457806003193601126102545760206040515f5160206135245f395f51905f528152f35b503461025457806003193601126102545760206040515f5160206135845f395f51905f528152f35b503461025457806003193601126102545760206040517f4d99a9b860d05bdefd8912feed3878fabc0d79f4c91119487da7d7fca41be9308152f35b503461025457602090610ec63661296d565b90825260018352604082209082528252604060018060a01b0391205416604051908152f35b503461025457610efa3661296d565b9082526005602052604082209082526020526040812080546001600160401b038111610fcf5760405190610f3460208260051b01836129a7565b80825260208201809385526020852085915b838310610fb257868587604051928392602084019060208552518091526040840160408260051b8601019392905b828210610f8357505050500390f35b91936001919395506020610fa28192603f198a82030186528851612983565b9601920192018594939192610f74565b600160208192610fc185612a00565b815201920192019190610f46565b634e487b7160e01b83526041600452602483fd5b503461025457806003193601126102545760405180916020600d54928381520191600d82527fd7b6990105719101dabeb77144f2a3385c8033acd3af97e9423a695e81ad1eb5915b8181106110525761104e85611042818703826129a7565b60405191829182612934565b0390f35b825484526020909301926001928301920161102b565b5034610254578060031936011261025457602060405160058152f35b5034610254578060031936011261025457602060405160048152f35b50346102545760ff60406020926110b63661296d565b9082526009855282822090825284522054166040519015158152f35b5034610254576110e13661296d565b604051630df675ff60e21b8152600481018390525f5160206134245f395f51905f526024820152602081604481305afa908115610dd55784916111fe575b508015610de05760405163695eea2960e01b815260048101919091526020816024817f00000000000000000000000000000000000000000000000000000000000000006001600160a01b03165afa8015610dd557611185918591610da657503390612ba7565b15610d975760207f394ca8fea36f8f12744a248808c3fd0fc06a2169c29ec1d6e4bdbf83df605c24916111c45f5160206134645f395f51905f52612e02565b83855260048252604085205f5160206134645f395f51905f52865282528060408620556105b45f5160206134645f395f51905f5285612f1f565b90506020813d602011611228575b81611219602093836129a7565b81010312610e1957515f61111f565b3d915061120c565b503461025457806003193601126102545760206040515f5160206135645f395f51905f528152f35b5034610254578060031936011261025457602060405160018152f35b50346102545780600319360112610254576040517f00000000000000000000000000000000000000000000000000000000000000006001600160a01b03168152602090f35b503461025457806003193601126102545760206040515f5160206134445f395f51905f528152f35b503461025457806003193601126102545760206040515f5160206134645f395f51905f528152f35b503461025457806003193601126102545760206040515f5160206135445f395f51905f528152f35b50346102545760ff60406020926113473661296d565b9082526002855282822090825284522054166040519015158152f35b5034610254578060031936011261025457602060405160038152f35b5034610e19576020366003190112610e19576004356001600160401b038111610e195780600401906101606003198236030112610e195760405163695eea2960e01b815282356004820181905291906020816024817f00000000000000000000000000000000000000000000000000000000000000006001600160a01b03165afa908115611bc4575f916122a3575b506001600160a01b03811615908115612290575b50612281576024810135926114378484612b4f565b9161144e5f5160206134245f395f51905f52612e02565b825f52600460205260405f205f5160206134245f395f51905f525f526020528360405f205561148a5f5160206134245f395f51905f5284612f1f565b6114a05f5160206135045f395f51905f52612e02565b825f52600460205260405f205f5160206135045f395f51905f525f526020528460405f20556114dc5f5160206135045f395f51905f5284612f1f565b6114ec6106256044830184612abf565b6115025f5160206134045f395f51905f52612e02565b835f525f60205260405f205f5160206134045f395f51905f525f5260205260405f20908051906001600160401b038211611d4157819061154284546129c8565b601f8111612231575b50602090601f83116001146121ce575f926121c3575b50508160011b915f199060031b1c19161790555b61158c5f5160206134045f395f51905f5284613253565b61159c6106256064830184612abf565b6115b25f5160206134845f395f51905f52612e02565b835f525f60205260405f205f5160206134845f395f51905f525f5260205260405f20908051906001600160401b038211611d415781906115f284546129c8565b601f8111612173575b50602090601f8311600114612110575f92612105575b50508160011b915f199060031b1c19161790555b61163c5f5160206134845f395f51905f5284613253565b61165561164f6106256084840185612abf565b84612c99565b61166561062560a4830184612abf565b61167b5f5160206135245f395f51905f52612e02565b835f525f60205260405f205f5160206135245f395f51905f525f5260205260405f20908051906001600160401b038211611d415781906116bb84546129c8565b601f81116120b5575b50602090601f8311600114612052575f92612047575b50508160011b915f199060031b1c19161790555b6117055f5160206135245f395f51905f5284613253565b61171561062560c4830184612abf565b61172b5f5160206134e45f395f51905f52612e02565b835f525f60205260405f205f5160206134e45f395f51905f525f5260205260405f20908051906001600160401b038211611d4157819061176b84546129c8565b601f8111611ff7575b50602090601f8311600114611f94575f92611f89575b50508160011b915f199060031b1c19161790555b6117b55f5160206134e45f395f51905f5284613253565b6117c561062560e4830184612abf565b6117db5f5160206135445f395f51905f52612e02565b835f525f60205260405f205f5160206135445f395f51905f525f5260205260405f20908051906001600160401b038211611d4157819061181b84546129c8565b601f8111611f39575b50602090601f8311600114611ed6575f92611ecb575b50508160011b915f199060031b1c19161790555b6118655f5160206135445f395f51905f5284613253565b611876610625610104830184612abf565b61188c5f5160206135845f395f51905f52612e02565b835f525f60205260405f205f5160206135845f395f51905f525f5260205260405f20908051906001600160401b038211611d415781906118cc84546129c8565b601f8111611e7b575b50602090601f8311600114611e18575f92611e0d575b50508160011b915f199060031b1c19161790555b6119165f5160206135845f395f51905f5284613253565b611927610625610124830184612abf565b61193d5f5160206134c45f395f51905f52612e02565b835f525f60205260405f205f5160206134c45f395f51905f525f5260205260405f20908051906001600160401b038211611d415761197b83546129c8565b601f8111611dc8575b50602090601f8311600114611d6057610144949392915f9183611d55575b50508160011b915f199060031b1c19161790555b6119cd5f5160206134c45f395f51905f5285613253565b6119e35f5160206134645f395f51905f52612e02565b835f52600460205260405f205f5160206134645f395f51905f525f526020527f451b1a9bb8aa7c264ecca604da2fa8963c7406384350ee13382eea4c29ab54bd60405f2055611a3f5f5160206134645f395f51905f5285612f1f565b611a555f5160206135645f395f51905f52612e02565b835f52600360205260405f205f5160206135645f395f51905f525f526020524260405f2055611a915f5160206135645f395f51905f52856130c3565b611a9b4285612c4e565b611ab15f5160206134a45f395f51905f52612e02565b835f52600360205260405f205f5160206134a45f395f51905f525f526020525f6040812055611aed5f5160206134a45f395f51905f52856130c3565b0190611af98282612abf565b9050611bcf575b50507f00000000000000000000000000000000000000000000000000000000000000006001600160a01b0316803b15610e19575f606491604051928380926309abe27f60e01b82527f404cb3e9cd83852c0effe95a622d6d4390488f9a54aa3f59755f5e4ca34f03db60048301528660248301523060448301525afa8015611bc457611baf575b507fa848b3b826e7b02e4f7f36ae5c7f1cbbedd2d4092eebc979924c1d477a49eae78480a480f35b611bbc9194505f906129a7565b5f925f611b87565b6040513d5f823e3d90fd5b611bdc9161062591612abf565b611bf25f5160206133e45f395f51905f52612e02565b815f525f60205260405f205f5160206133e45f395f51905f525f5260205260405f20908051906001600160401b038211611d41578190611c3284546129c8565b601f8111611cf1575b50602090601f8311600114611c8e575f92611c83575b50508160011b915f199060031b1c19161790555b611c7c5f5160206133e45f395f51905f5282613253565b5f80611b00565b015190505f80611c51565b5f8581528281209350601f198516905b818110611cd95750908460019594939210611cc1575b505050811b019055611c65565b01515f1960f88460031b161c191690555f8080611cb4565b92936020600181928786015181550195019301611c9e565b909150835f5260205f20601f840160051c81019160208510611d37575b90601f859493920160051c01905b818110611d295750611c3b565b5f8155849350600101611d1c565b9091508190611d0e565b634e487b7160e01b5f52604160045260245ffd5b015190505f806119a2565b90601f19831691845f52815f20925f5b818110611db057509160019391856101449897969410611d98575b505050811b0190556119b6565b01515f1960f88460031b161c191690555f8080611d8b565b92936020600181928786015181550195019301611d70565b835f5260205f20601f840160051c81019160208510611e03575b601f0160051c01905b818110611df85750611984565b5f8155600101611deb565b9091508190611de2565b015190505f806118eb565b5f8581528281209350601f198516905b818110611e635750908460019594939210611e4b575b505050811b0190556118ff565b01515f1960f88460031b161c191690555f8080611e3e565b92936020600181928786015181550195019301611e28565b909150835f5260205f20601f840160051c81019160208510611ec1575b90601f859493920160051c01905b818110611eb357506118d5565b5f8155849350600101611ea6565b9091508190611e98565b015190505f8061183a565b5f8581528281209350601f198516905b818110611f215750908460019594939210611f09575b505050811b01905561184e565b01515f1960f88460031b161c191690555f8080611efc565b92936020600181928786015181550195019301611ee6565b909150835f5260205f20601f840160051c81019160208510611f7f575b90601f859493920160051c01905b818110611f715750611824565b5f8155849350600101611f64565b9091508190611f56565b015190505f8061178a565b5f8581528281209350601f198516905b818110611fdf5750908460019594939210611fc7575b505050811b01905561179e565b01515f1960f88460031b161c191690555f8080611fba565b92936020600181928786015181550195019301611fa4565b909150835f5260205f20601f840160051c8101916020851061203d575b90601f859493920160051c01905b81811061202f5750611774565b5f8155849350600101612022565b9091508190612014565b015190505f806116da565b5f8581528281209350601f198516905b81811061209d5750908460019594939210612085575b505050811b0190556116ee565b01515f1960f88460031b161c191690555f8080612078565b92936020600181928786015181550195019301612062565b909150835f5260205f20601f840160051c810191602085106120fb575b90601f859493920160051c01905b8181106120ed57506116c4565b5f81558493506001016120e0565b90915081906120d2565b015190505f80611611565b5f8581528281209350601f198516905b81811061215b5750908460019594939210612143575b505050811b019055611625565b01515f1960f88460031b161c191690555f8080612136565b92936020600181928786015181550195019301612120565b909150835f5260205f20601f840160051c810191602085106121b9575b90601f859493920160051c01905b8181106121ab57506115fb565b5f815584935060010161219e565b9091508190612190565b015190505f80611561565b5f8581528281209350601f198516905b8181106122195750908460019594939210612201575b505050811b019055611575565b01515f1960f88460031b161c191690555f80806121f4565b929360206001819287860151815501950193016121de565b909150835f5260205f20601f840160051c81019160208510612277575b90601f859493920160051c01905b818110612269575061154b565b5f815584935060010161225c565b909150819061224e565b633f69f7f760e01b5f5260045ffd5b61229c91503390612ba7565b155f611422565b6122bc915060203d602011610dce57610dc081836129a7565b5f61140e565b34610e19575f366003190112610e195760206040515f5160206134c45f395f51905f528152f35b34610e19576020366003190112610e19576004355f52600c60205260206001600160401b0360405f205416604051908152f35b34610e19576020366003190112610e1957600435604051630df675ff60e21b81528160048201525f5160206134245f395f51905f526024820152602081604481305afa908115611bc4575f916124f0575b5080156124e15760405163695eea2960e01b815260048101919091526020816024817f00000000000000000000000000000000000000000000000000000000000000006001600160a01b03165afa8015611bc4576123d3915f916124c257503390612ba7565b15612281576123ee5f5160206134645f395f51905f52612e02565b805f52600460205260405f205f5160206134645f395f51905f525f526020527f7a7c458ad3de602483c71813fb3a53f4bfc5b8d079bb4fc2a70b530143116afa60405f205561244a5f5160206134645f395f51905f5282612f1f565b6124605f5160206135a45f395f51905f52612e02565b805f52600360205260405f205f5160206135a45f395f51905f525f526020524260405f205561249c5f5160206135a45f395f51905f52826130c3565b7fafb70861ec6d0c19b5a5e77f226501ea286d41222a41060f82a52e95d6ab092b5f80a2005b6124db915060203d602011610dce57610dc081836129a7565b83610478565b632afbbcef60e11b5f5260045ffd5b90506020813d60201161251a575b8161250b602093836129a7565b81010312610e1957518261236d565b3d91506124fe565b34610e19575f366003190112610e1957602060405160068152f35b34610e195761254b3661296d565b905f52600b60205260405f20905f5260205260206001600160401b0360405f205416604051908152f35b34610e19575f366003190112610e195760206040515f5160206135045f395f51905f528152f35b34610e19575f366003190112610e195760206040515f5160206134245f395f51905f528152f35b34610e19576125d13661296d565b905f52600360205260405f20905f52602052602060405f2054604051908152f35b34610e19575f366003190112610e195760206040515f5160206134a45f395f51905f528152f35b34610e19575f366003190112610e195760206040517fc8aa741ee4306542961134445a23865912f42123f3c19a48a5a9bb191b44e8d18152f35b34610e19575f366003190112610e19576020600d54604051908152f35b34610e19575f366003190112610e195760206040515f5160206134e45f395f51905f528152f35b34610e19575f366003190112610e19576040517f00000000000000000000000000000000000000000000000000000000000000006001600160a01b03168152602090f35b34610e19575f366003190112610e195760206040517f404cb3e9cd83852c0effe95a622d6d4390488f9a54aa3f59755f5e4ca34f03db8152f35b34610e1957602061272e6127283661296d565b90612b4f565b604051908152f35b34610e19576127443661296d565b905f52600a60205260405f20905f52602052602060ff60405f205416604051908152f35b34610e19576127763661296d565b905f52600760205260405f20905f5260205260405f206040519081602082549182815201915f5260205f20905f5b8181106127bb5761104e85611042818703826129a7565b82548452602090930192600192830192016127a4565b34610e19576127df3661296d565b905f52600460205260405f20905f52602052602060405f2054604051908152f35b34610e19575f366003190112610e195760206040515f5160206134045f395f51905f528152f35b34610e19576128353661296d565b905f525f60205260405f20905f5260205261104e61285560405f20612a00565b604051918291602083526020830190612983565b34610e19576020366003190112610e19576004355f52600860205260405f206040519081602082549182815201915f5260205f20905f5b8181106128b75761104e85611042818703826129a7565b82548452602090930192600192830192016128a0565b34610e19575f366003190112610e195760206040515f5160206133e45f395f51905f528152f35b34610e19575f366003190112610e1957602060405160078152f35b34610e19575f366003190112610e1957805f5160206135a45f395f51905f5260209252f35b60206040818301928281528451809452019201905f5b8181106129575750505090565b825184526020938401939092019160010161294a565b6040906003190112610e19576004359060243590565b805180835260209291819084018484015e5f828201840152601f01601f1916010190565b90601f801991011681019081106001600160401b03821117611d4157604052565b90600182811c921680156129f6575b60208310146129e257565b634e487b7160e01b5f52602260045260245ffd5b91607f16916129d7565b9060405191825f825492612a13846129c8565b8084529360018116908115612a7e5750600114612a3a575b50612a38925003836129a7565b565b90505f9291925260205f20905f915b818310612a62575050906020612a38928201015f612a2b565b6020919350806001915483858901015201910190918492612a49565b905060209250612a3894915060ff191682840152151560051b8201015f612a2b565b90816020910312610e1957516001600160a01b0381168103610e195790565b903590601e1981360301821215610e1957018035906001600160401b038211610e1957602001918136038313610e1957565b6001600160401b038111611d4157601f01601f191660200190565b929192612b1882612af1565b91612b2660405193846129a7565b829481845281830111610e19578281602093845f960137010152565b358015158103610e195790565b906040519060208201927039b09d33b930b73a283937b837b9b0b61d60791b84526031830152605182015260518152612b896071826129a7565b51902090565b90816020910312610e1957518015158103610e195790565b90813b15612c48575f91829160405160208101916317aa5fb760e11b835260018060a01b0316602482015260248152612be16044826129a7565b51915afa3d15612c41573d612bf581612af1565b90612c0360405192836129a7565b81523d5f602083013e5b81612c33575b81612c1c575090565b612c30915060208082518301019101612b8f565b90565b905060208151101590612c13565b6060612c0d565b50505f90565b7f4d99a9b860d05bdefd8912feed3878fabc0d79f4c91119487da7d7fca41be93090612a3892612c7d83612e02565b815f52600360205260405f20835f5260205260405f20556130c3565b919091612cb25f5160206134445f395f51905f52612e02565b805f525f60205260405f205f5160206134445f395f51905f525f5260205260405f2083516001600160401b038111611d4157612cee82546129c8565b601f8111612dbd575b506020601f8211600114612d475790805f5160206134445f395f51905f52949392612a3896975f92612d3c575b50508160011b915f199060031b1c1916179055613253565b015190505f80612d24565b601f19821695835f52815f20965f5b818110612da557509660019284925f5160206134445f395f51905f52979695612a38999a10612d8d575b505050811b019055613253565b01515f1960f88460031b161c191690555f8080612d80565b83830151895560019098019760209384019301612d56565b825f5260205f20601f830160051c81019160208410612df8575b601f0160051c01905b818110612ded5750612cf7565b5f8155600101612de0565b9091508190612dd7565b60405163170da40760e21b815260048101919091526020816024817f00000000000000000000000000000000000000000000000000000000000000006001600160a01b03165afa908115611bc4575f91612e6e575b5015612e5f57565b632263bf1f60e21b5f5260045ffd5b612e90915060203d602011612e96575b612e8881836129a7565b810190612b8f565b5f612e57565b503d612e7e565b600d54600160401b811015611d41576001810180600d55811015612ee457600d5f527fd7b6990105719101dabeb77144f2a3385c8033acd3af97e9423a695e81ad1eb50155565b634e487b7160e01b5f52603260045260245ffd5b805490600160401b821015611d415760018201808255821015612ee4575f5260205f200155565b805f52600e60205260ff60405f20541615613079575b805f52600960205260405f20825f5260205260ff60405f2054161561303e575b805f52600a60205260405f20825f5260205260405f20600560ff19825416179055805f52600c60205260016001600160401b0360405f205416016001600160401b03811161302a5760407f5167ea251eeaf052f4c7bd769efb5b17e6ba98908050b9929a0bd192b57274fb91835f52600c602052815f206001600160401b0382166001600160401b0319825416179055835f52600b602052815f20855f52602052815f206001600160401b0382166001600160401b03198254161790556001600160401b0382519160058352166020820152a3565b634e487b7160e01b5f52601160045260245ffd5b805f5260086020526130538260405f20612ef8565b805f52600960205260405f20825f5260205260405f20600160ff19825416179055612f55565b805f52600e60205260405f20600160ff1982541617905561309981612e9d565b807f34f1cb4778d9578e1af878b07d3ae7e9f2f32fafcaa3096fe48153670a71bfaf5f80a2612f35565b805f52600e60205260ff60405f20541615613209575b805f52600960205260405f20825f5260205260ff60405f205416156131ce575b805f52600a60205260405f20825f5260205260405f20600460ff19825416179055805f52600c60205260016001600160401b0360405f205416016001600160401b03811161302a5760407f5167ea251eeaf052f4c7bd769efb5b17e6ba98908050b9929a0bd192b57274fb91835f52600c602052815f206001600160401b0382166001600160401b0319825416179055835f52600b602052815f20855f52602052815f206001600160401b0382166001600160401b03198254161790556001600160401b0382519160048352166020820152a3565b805f5260086020526131e38260405f20612ef8565b805f52600960205260405f20825f5260205260405f20600160ff198254161790556130f9565b805f52600e60205260405f20600160ff1982541617905561322981612e9d565b807f34f1cb4778d9578e1af878b07d3ae7e9f2f32fafcaa3096fe48153670a71bfaf5f80a26130d9565b805f52600e60205260ff60405f20541615613399575b805f52600960205260405f20825f5260205260ff60405f2054161561335e575b805f52600a60205260405f20825f5260205260405f20600160ff19825416179055805f52600c60205260016001600160401b0360405f205416016001600160401b03811161302a5760407f5167ea251eeaf052f4c7bd769efb5b17e6ba98908050b9929a0bd192b57274fb91835f52600c602052815f206001600160401b0382166001600160401b0319825416179055835f52600b602052815f20855f52602052815f206001600160401b0382166001600160401b03198254161790556001600160401b0382519160018352166020820152a3565b805f5260086020526133738260405f20612ef8565b805f52600960205260405f20825f5260205260405f20600160ff19825416179055613289565b805f52600e60205260405f20600160ff198254161790556133b981612e9d565b807f34f1cb4778d9578e1af878b07d3ae7e9f2f32fafcaa3096fe48153670a71bfaf5f80a261326956fe1fad849bcd2f49960be8dc3b28353ecade79092bf043c0a2948a183f3da7a46aa7ea82a1b0805477d593578d7f978db36093796df39e9f5e957a2c82dfbe78fb3178bc65ebfe44aebfe9c9d56839dcbb8fb7dc19b6b34f97ed3fac6c462ed4907ae9af23b2d086d1038d08a2028b37c2f287bf6a1e61a0e59244ce6bd178e65feab0b9141898236bd59ae80b1c3858f579404795c7dbe1e77bd578213fa6e4fa9a48e7681c5ebea33b08164969f750bf1f819a6104c34ab997647f35261ee16b5c0f89d5a266958e98cc1df6fb7815dc9572326b00f9b42bf5ec0444ecd70be06af9de206d439a0bfb32362df2f3a7b50341deba3e83f439a3da4bb7c4bfb0ba83c28c8571d767c08b0c98ff7f3ccfd274f04f5c5c74530db8bffdcc91d579e5239daf2bca666a4c0fb94fcf362de18b3eee48f0b77c32b8e0156d1f14b827ebf99c87970194757ee7fd81e025f3a661ceaf7774c59323a2196cd05baf38a2eff9a12d6108c0cbb2ef1c2adc9e729e6206ee6ae0b71a1fa5ac0c303d1e269ae119a8cc24d320cb0b622b442112ed227a0f16e57e9440a7f14b1533cb607ed6ce7c972585049078ab78da3ce55d80db586d3ce3e2a99c1762eb50a3b643a643f6843505b67634660d8e38e07f06353d4e64297a7991be15735d5eaa3e5ae281b4a264697066735822122059283be9eedb437f4bd3addaabd957dd0f7851a2a31057dae26505ed3708e17a64736f6c634300081c0033","linkReferences":{}},"methodIdentifiers":{"CLASS_GRANT_PROPOSAL()":"45fb25be","DT_ADDRESS_ARR_PUB()":"213aaad7","DT_ADDRESS_PUB()":"ece6bebc","DT_BOOL_PUB()":"93cbc37d","DT_BYTES32_ARR_PUB()":"f98eed69","DT_BYTES32_PUB()":"c3174629","DT_STRING_ARR_PUB()":"8e101369","DT_STRING_PUB()":"a954aea1","DT_UINT256_PUB()":"be78c068","FUND_REGISTRY()":"a24a6f63","ONTOLOGY()":"e63cdb42","SA_GP_BASED_ON()":"f7760851","SA_GP_BASIS()":"24f761dd","SA_GP_BUDGET()":"a0cb1238","SA_GP_CLONED_FROM()":"67be403d","SA_GP_DISPLAY_NAME()":"32eb3578","SA_GP_LAST_EDITED()":"d5aee144","SA_GP_MILESTONES()":"575f6367","SA_GP_NULLIFIER()":"86300b8d","SA_GP_ORG_BG()":"8e2f2a05","SA_GP_OUTCOMES()":"9d8dd8b2","SA_GP_PLAN()":"d65b81eb","SA_GP_REPORTING()":"d5ec000f","SA_GP_ROUND()":"806ba9be","SA_GP_STATUS()":"a01e026f","SA_GP_SUBMITTED_AT()":"a97614ae","SA_GP_VERSION()":"69352791","SA_GP_WITHDRAWN_AT()":"07e3db56","SHAPES()":"55c964dd","allSubjects()":"c3a6123d","datatypeOf(bytes32,bytes32)":"42921cf3","edit(bytes32,(bool,string,bool,string,bool,string,bool,string,bool,string,bool,string))":"de85e116","getAddress(bytes32,bytes32)":"d3a39686","getAddressArr(bytes32,bytes32)":"e4281bc3","getBool(bytes32,bytes32)":"98eaf11c","getBytes32(bytes32,bytes32)":"37d9d7fc","getBytes32Arr(bytes32,bytes32)":"4083843e","getString(bytes32,bytes32)":"31477b9b","getStringArr(bytes32,bytes32)":"cb954f30","getUint(bytes32,bytes32)":"7a6ad926","gpSubject(bytes32,bytes32)":"453e95e7","isSet(bytes32,bytes32)":"bb6b0c3b","predicatesOf(bytes32)":"30547181","setStatus(bytes32,bytes32)":"bb25a0a8","subjectCount()":"639a2e10","subjectVersion(bytes32)":"8e21caca","submit((bytes32,bytes32,string,string,string,string,string,string,string,string,string))":"90d9e29b","updatedAt(bytes32,bytes32)":"880eadce","withdraw(bytes32)":"8e19899e"},"id":1}