{"abi":[{"type":"constructor","inputs":[{"name":"ontologyRegistry","type":"address","internalType":"address"},{"name":"attributeStore","type":"address","internalType":"address"}],"stateMutability":"nonpayable"},{"type":"function","name":"ONTOLOGY","inputs":[],"outputs":[{"name":"","type":"address","internalType":"contract OntologyTermRegistry"}],"stateMutability":"view"},{"type":"function","name":"STORE","inputs":[],"outputs":[{"name":"","type":"address","internalType":"contract OntologyAttributeStore"}],"stateMutability":"view"},{"type":"function","name":"addMultiAddressProperty","inputs":[{"name":"agent","type":"address","internalType":"address"},{"name":"predicate","type":"bytes32","internalType":"bytes32"},{"name":"value","type":"address","internalType":"address"}],"outputs":[],"stateMutability":"nonpayable"},{"type":"function","name":"addMultiStringProperty","inputs":[{"name":"agent","type":"address","internalType":"address"},{"name":"predicate","type":"bytes32","internalType":"bytes32"},{"name":"value","type":"string","internalType":"string"}],"outputs":[],"stateMutability":"nonpayable"},{"type":"function","name":"agentCount","inputs":[],"outputs":[{"name":"","type":"uint256","internalType":"uint256"}],"stateMutability":"view"},{"type":"function","name":"clearMultiAddressProperty","inputs":[{"name":"agent","type":"address","internalType":"address"},{"name":"predicate","type":"bytes32","internalType":"bytes32"}],"outputs":[],"stateMutability":"nonpayable"},{"type":"function","name":"clearMultiStringProperty","inputs":[{"name":"agent","type":"address","internalType":"address"},{"name":"predicate","type":"bytes32","internalType":"bytes32"}],"outputs":[],"stateMutability":"nonpayable"},{"type":"function","name":"getAddressProperty","inputs":[{"name":"agent","type":"address","internalType":"address"},{"name":"predicate","type":"bytes32","internalType":"bytes32"}],"outputs":[{"name":"","type":"address","internalType":"address"}],"stateMutability":"view"},{"type":"function","name":"getAgentAt","inputs":[{"name":"index","type":"uint256","internalType":"uint256"}],"outputs":[{"name":"","type":"address","internalType":"address"}],"stateMutability":"view"},{"type":"function","name":"getAllAgents","inputs":[],"outputs":[{"name":"","type":"address[]","internalType":"address[]"}],"stateMutability":"view"},{"type":"function","name":"getBoolProperty","inputs":[{"name":"agent","type":"address","internalType":"address"},{"name":"predicate","type":"bytes32","internalType":"bytes32"}],"outputs":[{"name":"","type":"bool","internalType":"bool"}],"stateMutability":"view"},{"type":"function","name":"getCore","inputs":[{"name":"agent","type":"address","internalType":"address"}],"outputs":[{"name":"c","type":"tuple","internalType":"struct AgentAccountResolver.CoreRecord","components":[{"name":"displayName","type":"string","internalType":"string"},{"name":"description","type":"string","internalType":"string"},{"name":"agentType","type":"bytes32","internalType":"bytes32"},{"name":"agentClass","type":"bytes32","internalType":"bytes32"},{"name":"metadataURI","type":"string","internalType":"string"},{"name":"metadataHash","type":"bytes32","internalType":"bytes32"},{"name":"schemaURI","type":"string","internalType":"string"},{"name":"active","type":"bool","internalType":"bool"},{"name":"registeredAt","type":"uint256","internalType":"uint256"},{"name":"updatedAt","type":"uint256","internalType":"uint256"}]}],"stateMutability":"view"},{"type":"function","name":"getMultiAddressProperty","inputs":[{"name":"agent","type":"address","internalType":"address"},{"name":"predicate","type":"bytes32","internalType":"bytes32"}],"outputs":[{"name":"","type":"address[]","internalType":"address[]"}],"stateMutability":"view"},{"type":"function","name":"getMultiStringProperty","inputs":[{"name":"agent","type":"address","internalType":"address"},{"name":"predicate","type":"bytes32","internalType":"bytes32"}],"outputs":[{"name":"","type":"string[]","internalType":"string[]"}],"stateMutability":"view"},{"type":"function","name":"getPredicateKeys","inputs":[{"name":"agent","type":"address","internalType":"address"}],"outputs":[{"name":"","type":"bytes32[]","internalType":"bytes32[]"}],"stateMutability":"view"},{"type":"function","name":"getStringProperty","inputs":[{"name":"agent","type":"address","internalType":"address"},{"name":"predicate","type":"bytes32","internalType":"bytes32"}],"outputs":[{"name":"","type":"string","internalType":"string"}],"stateMutability":"view"},{"type":"function","name":"getUintProperty","inputs":[{"name":"agent","type":"address","internalType":"address"},{"name":"predicate","type":"bytes32","internalType":"bytes32"}],"outputs":[{"name":"","type":"uint256","internalType":"uint256"}],"stateMutability":"view"},{"type":"function","name":"isRegistered","inputs":[{"name":"agent","type":"address","internalType":"address"}],"outputs":[{"name":"","type":"bool","internalType":"bool"}],"stateMutability":"view"},{"type":"function","name":"register","inputs":[{"name":"agent","type":"address","internalType":"address"},{"name":"displayName","type":"string","internalType":"string"},{"name":"description","type":"string","internalType":"string"},{"name":"agentType","type":"bytes32","internalType":"bytes32"},{"name":"agentClass","type":"bytes32","internalType":"bytes32"},{"name":"schemaURI","type":"string","internalType":"string"}],"outputs":[],"stateMutability":"nonpayable"},{"type":"function","name":"setActive","inputs":[{"name":"agent","type":"address","internalType":"address"},{"name":"active","type":"bool","internalType":"bool"}],"outputs":[],"stateMutability":"nonpayable"},{"type":"function","name":"setAddressProperty","inputs":[{"name":"agent","type":"address","internalType":"address"},{"name":"predicate","type":"bytes32","internalType":"bytes32"},{"name":"value","type":"address","internalType":"address"}],"outputs":[],"stateMutability":"nonpayable"},{"type":"function","name":"setBoolProperty","inputs":[{"name":"agent","type":"address","internalType":"address"},{"name":"predicate","type":"bytes32","internalType":"bytes32"},{"name":"value","type":"bool","internalType":"bool"}],"outputs":[],"stateMutability":"nonpayable"},{"type":"function","name":"setMetadataURI","inputs":[{"name":"agent","type":"address","internalType":"address"},{"name":"uri","type":"string","internalType":"string"},{"name":"hash","type":"bytes32","internalType":"bytes32"}],"outputs":[],"stateMutability":"nonpayable"},{"type":"function","name":"setSchemaURI","inputs":[{"name":"agent","type":"address","internalType":"address"},{"name":"uri","type":"string","internalType":"string"}],"outputs":[],"stateMutability":"nonpayable"},{"type":"function","name":"setStringProperty","inputs":[{"name":"agent","type":"address","internalType":"address"},{"name":"predicate","type":"bytes32","internalType":"bytes32"},{"name":"value","type":"string","internalType":"string"}],"outputs":[],"stateMutability":"nonpayable"},{"type":"function","name":"setUintProperty","inputs":[{"name":"agent","type":"address","internalType":"address"},{"name":"predicate","type":"bytes32","internalType":"bytes32"},{"name":"value","type":"uint256","internalType":"uint256"}],"outputs":[],"stateMutability":"nonpayable"},{"type":"function","name":"updateCore","inputs":[{"name":"agent","type":"address","internalType":"address"},{"name":"displayName","type":"string","internalType":"string"},{"name":"description","type":"string","internalType":"string"},{"name":"agentType","type":"bytes32","internalType":"bytes32"},{"name":"agentClass","type":"bytes32","internalType":"bytes32"}],"outputs":[],"stateMutability":"nonpayable"},{"type":"event","name":"AgentRegistered","inputs":[{"name":"agent","type":"address","indexed":true,"internalType":"address"},{"name":"displayName","type":"string","indexed":false,"internalType":"string"},{"name":"agentType","type":"bytes32","indexed":true,"internalType":"bytes32"}],"anonymous":false},{"type":"event","name":"AgentUpdated","inputs":[{"name":"agent","type":"address","indexed":true,"internalType":"address"},{"name":"updatedAt","type":"uint256","indexed":false,"internalType":"uint256"}],"anonymous":false},{"type":"event","name":"CoreUpdated","inputs":[{"name":"agent","type":"address","indexed":true,"internalType":"address"},{"name":"displayName","type":"string","indexed":false,"internalType":"string"},{"name":"agentType","type":"bytes32","indexed":false,"internalType":"bytes32"}],"anonymous":false},{"type":"event","name":"MetadataUpdated","inputs":[{"name":"agent","type":"address","indexed":true,"internalType":"address"},{"name":"metadataURI","type":"string","indexed":false,"internalType":"string"},{"name":"metadataHash","type":"bytes32","indexed":false,"internalType":"bytes32"}],"anonymous":false},{"type":"event","name":"MultiPropertyAdded","inputs":[{"name":"agent","type":"address","indexed":true,"internalType":"address"},{"name":"predicate","type":"bytes32","indexed":true,"internalType":"bytes32"},{"name":"value","type":"string","indexed":false,"internalType":"string"}],"anonymous":false},{"type":"event","name":"PropertySet","inputs":[{"name":"agent","type":"address","indexed":true,"internalType":"address"},{"name":"predicate","type":"bytes32","indexed":true,"internalType":"bytes32"}],"anonymous":false},{"type":"error","name":"AlreadyRegistered","inputs":[]},{"type":"error","name":"NotAgentOwner","inputs":[]},{"type":"error","name":"NotRegistered","inputs":[]},{"type":"error","name":"PredicateNotRegistered","inputs":[]}],"bytecode":{"object":"0x60c03461014257601f612fc838819003918201601f19168301916001600160401b0383118484101761014657808492604094855283398101031261014257610052602061004b8361015a565b920161015a565b6001600160a01b039182166080521660a052604051612e59908161016f823960805181818161015c015281816107aa01528181610c8101528181611229015281816116fc015281816119850152612353015260a05181818161026c015281816104070152818161058c0152818161067f015281816107ec01528181610a4a01528181610cc201528181610def01528181610f7f01528181611083015281816111280152818161126b015281816113e10152818161173e0152818161182f015281816118c6015281816119ca01528181611ab201528181611ca6015281816121da01528181612393015261256e0152f35b5f80fd5b634e487b7160e01b5f52604160045260245ffd5b51906001600160a01b03821682036101425756fe6080806040526004361015610012575f80fd5b5f905f3560e01c9081630a9a5cce146124d957508063194619eb146122bf5780632ce962cf1461214857806336129bcb14611bb8578063465e9c8614611a6f5780634c82bf5b146118f5578063507f1465146118b057806354e89cd4146117e257806358220fc7146116695780635d7826681461131557806364741c6514611195578063663159e0146110dd57806370ecabaf1461103757806372ef05bd14610eea578063761eefdc14610da35780637e39888014610be45780638225ffcb146109a1578063860e4ac61461091157806389847eb0146106fc57806389e28982146106325780638b43e1f4146104f65780639f024c83146103bc578063b7dc12841461039f578063c3c5a54714610360578063e45e444e146101c6578063e468619d1461018e5763e63cdb4214610147575f80fd5b3461018b578060031936011261018b576040517f00000000000000000000000000000000000000000000000000000000000000006001600160a01b03168152602090f35b80fd5b503461018b57602036600319011261018b5760206101ad600435612db1565b905460405160039290921b1c6001600160a01b03168152f35b503461018b57604036600319011261018b576101e0612b09565b906024356001600160401b03811161035c57610200903690600401612b43565b9092828060405160208101906317aa5fb760e11b82523360248201526024815261022b604482612c84565b5190845afa610238612d46565b9015908115610341575b50610332576001600160a01b03168083526001602052604083205460ff16156103235791928392907f00000000000000000000000000000000000000000000000000000000000000006001600160a01b0316803b1561031f576102f2938580946040519687958694859363235913f560e01b855260048501527f52103a2540087a91d4a4ff00d4b13aa3dd3b805ba7d45f61d059761c7a07275e6024850152606060448501526064840191612d75565b03925af18015610314576103035750f35b8161030d91612c84565b61018b5780f35b6040513d84823e3d90fd5b8480fd5b63aba4733960e01b8352600483fd5b630e41dcbf60e21b8352600483fd5b610355915060208082518301019101612d2e565b155f610242565b5080fd5b503461018b57602036600319011261018b5760209060ff906040906001600160a01b0361038b612b09565b168152600184522054166040519015158152f35b503461018b578060031936011261018b5760209054604051908152f35b503461018b57604036600319011261018b576103d6612b09565b60405163e4281bc360e01b81526001600160a01b0391821660048201526024803590820152908290829060449082907f0000000000000000000000000000000000000000000000000000000000000000165afa908115610314578291610451575b6040516020808252819061044d90820185612c48565b0390f35b90503d8083833e6104628183612c84565b8101906020818303126104ee578051906001600160401b0382116104f2570181601f820112156104ee5780519061049882612ddb565b936104a66040519586612c84565b82855260208086019360051b83010193841161018b5750602001905b8282106104d65750505061044d905f610437565b602080916104e384612df2565b8152019101906104c2565b8280fd5b8380fd5b503461018b57604036600319011261018b57610510612b09565b818060405160208101906317aa5fb760e11b825233602482015260248152610539604482612c84565b5190845afa610546612d46565b9015908115610617575b50610608576001600160a01b03168082526001602052604082205460ff16156105f9576040518291610583602083612c84565b8282525f3681377f00000000000000000000000000000000000000000000000000000000000000006001600160a01b031691823b156105f4576102f292849283604051809681958294630b15e59f60e01b845260048401526024356024840152606060448401526064830190612c48565b505050fd5b63aba4733960e01b8252600482fd5b630e41dcbf60e21b8252600482fd5b61062b915060208082518301019101612d2e565b155f610550565b503461018b57604036600319011261018b5761064c612b09565b604051633d356c9360e11b81526001600160a01b03918216600482015260248035908201529190602090839060449082907f0000000000000000000000000000000000000000000000000000000000000000165afa9081156106f057906106b9575b602090604051908152f35b506020813d6020116106e8575b816106d360209383612c84565b810103126106e457602090516106ae565b5f80fd5b3d91506106c6565b604051903d90823e3d90fd5b503461018b57606036600319011261018b57610716612b09565b60243590604435908115158092036104f257838060405160208101906317aa5fb760e11b825233602482015260248152610751604482612c84565b5190845afa61075e612d46565b90159081156108f6575b506108e7576001600160a01b03168084526001602052604084205490919060ff16156108d85760405163170da40760e21b8152600481018490526020816024817f00000000000000000000000000000000000000000000000000000000000000006001600160a01b03165afa9081156108cd57859161089e575b501561088f5783907f00000000000000000000000000000000000000000000000000000000000000006001600160a01b031690813b156104ee578291606483926040519485938492633c3d4fb960e21b84528960048501528a602485015260448401525af180156103145761087a575b50807f74e683adab2ba72c5c6284ea9ea8bdfcadc2df1425f7c849e7ef5cc39084a93d91a380f35b8161088491612c84565b6104ee57825f610852565b63d4e1950f60e01b8452600484fd5b6108c0915060203d6020116108c6575b6108b88183612c84565b810190612d2e565b5f6107e2565b503d6108ae565b6040513d87823e3d90fd5b63aba4733960e01b8452600484fd5b630e41dcbf60e21b8452600484fd5b61090a915060208082518301019101612d2e565b155f610768565b503461018b578060031936011261018b576040518091602081549283815201918180527f290decd9548b62a8d60345a988386fc84ba6bc95484008f6362f93160ef3e563915b8181106109825761044d8561096e81870382612c84565b604051918291602083526020830190612c48565b82546001600160a01b0316845260209093019260019283019201610957565b503461018b57606036600319011261018b576109bb612b09565b6024356001600160401b0381116104ee576109da903690600401612b43565b60449291923591848060405160208101906317aa5fb760e11b825233602482015260248152610a0a604482612c84565b5190845afa610a17612d46565b9015908115610bc9575b50610bba576001600160a01b03168085526001602052604085205490939060ff1615610bab57847f00000000000000000000000000000000000000000000000000000000000000006001600160a01b0316803b1561035c5760405163235913f560e01b8152600481018790527f9824200aa5377f0e47b53debd90bf2ab62c1ef1c349e1b361abbaadc4ece4a22602482015260606044820152828180610acb606482018989612d75565b038183865af1908115610ba0578391610b8b575b5050803b1561035c5781809160646040518094819363a14ff85760e01b83528b60048401527f60044e01e8c9d502074d6e4c9fbe43e16fe2b136bd8966bb2ab23a2d72d4273a60248401528a60448401525af1801561031457610b76575b5050610b707fa703154b2e122dd100b1e7dde328b3553f5bffd34a1aca5c78adc6b54ccc93269360405193849384612e06565b0390a280f35b81610b8091612c84565b61031f57845f610b3d565b81610b9591612c84565b61035c57815f610adf565b6040513d85823e3d90fd5b63aba4733960e01b8552600485fd5b630e41dcbf60e21b8552600485fd5b610bdd915060208082518301019101612d2e565b155f610a21565b503461018b57606036600319011261018b57610bfe612b09565b60243590828060405160208101906317aa5fb760e11b825233602482015260248152610c2b604482612c84565b5190845afa610c38612d46565b9015908115610d88575b50610332576001600160a01b03168083526001602052604083205460ff16156103235760405163170da40760e21b8152600481018390526020816024817f00000000000000000000000000000000000000000000000000000000000000006001600160a01b03165afa908115610d7d578491610d5e575b5015610d4f57827f00000000000000000000000000000000000000000000000000000000000000006001600160a01b0316803b1561035c57818091606460405180948193631d60084b60e01b835288600484015289602484015260443560448401525af180156103145761087a5750807f74e683adab2ba72c5c6284ea9ea8bdfcadc2df1425f7c849e7ef5cc39084a93d91a380f35b63d4e1950f60e01b8352600483fd5b610d77915060203d6020116108c6576108b88183612c84565b5f610cb9565b6040513d86823e3d90fd5b610d9c915060208082518301019101612d2e565b155f610c42565b503461018b57604036600319011261018b57610dbd612b09565b604051630cb954f360e41b81526001600160a01b039182166004820152602480359082015291908190839060449082907f0000000000000000000000000000000000000000000000000000000000000000165afa9081156106f0578091610e35575b6040516020808252819061044d90820185612bf0565b90503d8082843e610e468184612c84565b82019160208184031261035c578051906001600160401b0382116104ee570182601f8201121561035c578051610e7b81612ddb565b92610e896040519485612c84565b81845260208085019260051b8401019285841161035c5760208101925b848410610ebd57505050505061044d91505f610e1f565b83516001600160401b0381116104f257602091610edf89848094870101612cc0565b815201930192610ea6565b503461018b57604036600319011261018b57610f04612b09565b60243590828060405160208101906317aa5fb760e11b825233602482015260248152610f31604482612c84565b5190845afa610f3e612d46565b901590811561101c575b50610332576001600160a01b03168083526001602052604083205460ff16156103235782604051610f7a602082612c84565b8181527f00000000000000000000000000000000000000000000000000000000000000006001600160a01b0316803b156104ee57610fe6839291839260405194858094819363251c5d2f60e21b83528a60048401528b6024840152606060448401526064830190612bf0565b03925af180156103145761087a5750807f74e683adab2ba72c5c6284ea9ea8bdfcadc2df1425f7c849e7ef5cc39084a93d91a380f35b611030915060208082518301019101612d2e565b155f610f48565b503461018b57604036600319011261018b57611051612b09565b60405163263abc4760e21b81526001600160a01b039182166004820152602480359082015290602090829060449082907f0000000000000000000000000000000000000000000000000000000000000000165afa90811561031457602092916110c0575b506040519015158152f35b6110d79150823d84116108c6576108b88183612c84565b5f6110b5565b503461018b57604036600319011261018b576110f7612b09565b6040516331477b9b60e01b81526001600160a01b0391821660048201526024803590820152908290829060449082907f0000000000000000000000000000000000000000000000000000000000000000165afa908115610314578261044d9392611172575b5050604051918291602083526020830190612b1f565b61118e92503d8091833e6111868183612c84565b810190612d06565b5f8061115c565b503461018b576111a436612b70565b909192848060405160208101906317aa5fb760e11b8252336024820152602481526111d0604482612c84565b5190845afa6111dd612d46565b90159081156112fa575b50610bba576001600160a01b03168085526001602052604085205490929060ff1615610bab5760405163170da40760e21b8152600481018590526020816024817f00000000000000000000000000000000000000000000000000000000000000006001600160a01b03165afa9081156112ef5786916112d0575b50156112c15784917f00000000000000000000000000000000000000000000000000000000000000006001600160a01b03169190823b156104f257610fe69284928360405180968195829463235913f560e01b84528c8c60048601612d95565b63d4e1950f60e01b8552600485fd5b6112e9915060203d6020116108c6576108b88183612c84565b5f611261565b6040513d88823e3d90fd5b61130e915060208082518301019101612d2e565b155f6111e7565b503461018b5760a036600319011261018b5761132f612b09565b6024356001600160401b0381116104ee5761134e903690600401612b43565b6044929192356001600160401b03811161031f57611370903690600401612b43565b60649491943593868060405160208101906317aa5fb760e11b8252336024820152602481526113a0604482612c84565b5190845afa6113ad612d46565b901590811561164e575b5061163f576001600160a01b03168087526001602052604087205490959060ff16156116305786917f00000000000000000000000000000000000000000000000000000000000000006001600160a01b03169190823b156104f25760405163235913f560e01b8152600481018990527f741f18d320914b57eeda3ea07ece8db6081598de8a16ee7bc4b1c5f9cd2ff58c602482015260606044820152848180611464606482018b8b612d75565b038183885af19081156108cd57859161161b575b5050823b156104f2576114d6918491604051938492839263235913f560e01b84528c60048501527fdad653fa7edcab3e172554f9151ceed8376805e74d4faab7981fa443b49df6fa6024850152606060448501526064840191612d75565b038183865af1908115610ba0578391611606575b5050803b1561035c5760405163a14ff85760e01b81528660048201527f7ad476546f838ffce7f3c5df5e7e401e8ce6deddb9db5f3419246c36cb4f1db66024820152856044820152828160648183865af1908115610ba05783916115f1575b5050803b1561035c5781809160646040518094819363a14ff85760e01b83528b60048401527f2350465d1abd6707816222ee93f90a52b2a532ab64450425cc0d2db9eeb29f41602484015260843560448401525af18015610314576115dc575b5050610b707fe2d8a38d12839c4dfcd22c70fceb0367dc646e6d0ac93795e9a33248cfc868239360405193849384612e06565b816115e691612c84565b61031f57845f6115a9565b816115fb91612c84565b61035c57815f611549565b8161161091612c84565b61035c57815f6114ea565b8161162591612c84565b6104f257835f611478565b63aba4733960e01b8752600487fd5b630e41dcbf60e21b8752600487fd5b611662915060208082518301019101612d2e565b155f6113b7565b503461018b5761167836612bb6565b9091838060405160208101906317aa5fb760e11b8252336024820152602481526116a3604482612c84565b5190845afa6116b0612d46565b90159081156117c7575b506108e7576001600160a01b03168084526001602052604084205490919060ff16156108d85760405163170da40760e21b8152600481018490526020816024817f00000000000000000000000000000000000000000000000000000000000000006001600160a01b03165afa9081156108cd5785916117a8575b501561088f5783907f00000000000000000000000000000000000000000000000000000000000000006001600160a01b0316803b156104ee57604051633cd3e7f760e11b815260048101859052602481018690526001600160a01b0390921660448301528290829081838160648101610fe6565b6117c1915060203d6020116108c6576108b88183612c84565b5f611734565b6117db915060208082518301019101612d2e565b155f6116ba565b503461018b57604036600319011261018b576117fc612b09565b6040516369d1cb4360e11b81526001600160a01b03918216600482015260248035908201529190602090839060449082907f0000000000000000000000000000000000000000000000000000000000000000165afa9081156106f0578091611873575b6040516001600160a01b0383168152602090f35b90506020823d6020116118a8575b8161188e60209383612c84565b8101031261018b57506118a2602091612df2565b5f61185f565b3d9150611881565b503461018b578060031936011261018b576040517f00000000000000000000000000000000000000000000000000000000000000006001600160a01b03168152602090f35b503461018b5761190436612bb6565b9291828060405160208101906317aa5fb760e11b82523360248201526024815261192f604482612c84565b5190845afa61193c612d46565b9015908115611a54575b50610332576001600160a01b03168083526001602052604083205460ff16156103235760405163170da40760e21b8152600481018390526020816024817f00000000000000000000000000000000000000000000000000000000000000006001600160a01b03165afa908115610d7d578491611a35575b5015610d4f5791928392907f00000000000000000000000000000000000000000000000000000000000000006001600160a01b0316803b1561031f5760405163454ccba760e11b8152600481019390935260248301939093526001600160a01b031660448201529082908290818381606481016102f2565b611a4e915060203d6020116108c6576108b88183612c84565b5f6119bd565b611a68915060208082518301019101612d2e565b155f611946565b503461018b57602036600319011261018b57611a89612b09565b604051633054718160e01b81526001600160a01b039182166004820152908290829060249082907f0000000000000000000000000000000000000000000000000000000000000000165afa908115610314578291611b28575b5090604051918291602083016020845282518091526020604085019301915b818110611b0f575050500390f35b8251845285945060209384019390920191600101611b01565b90503d8083833e611b398183612c84565b8101906020818303126104ee578051906001600160401b0382116104f257019080601f830112156104ee578151611b6f81612ddb565b92611b7d6040519485612c84565b81845260208085019260051b82010192831161031f57602001905b828210611ba8575050505f611ae2565b8151815260209182019101611b98565b503461018b5760c036600319011261018b57611bd2612b09565b6024356001600160401b0381116104ee57611bf1903690600401612b43565b906044356001600160401b03811161031f57611c11903690600401612b43565b6064939193359460843560a4356001600160401b03811161214457611c3a903690600401612b43565b919092898060405160208101906317aa5fb760e11b825233602482015260248152611c66604482612c84565b5190845afa611c73612d46565b9015908115612129575b5061211a576001600160a01b0316808a52600160205260408a205490979060ff1661210b5789947f00000000000000000000000000000000000000000000000000000000000000006001600160a01b03169493929190853b156120e75760405163235913f560e01b8152600481018b90527f741f18d320914b57eeda3ea07ece8db6081598de8a16ee7bc4b1c5f9cd2ff58c602482015260606044820152878180611d2c606482018d8f612d75565b0381838b5af19081156121005788916120eb575b505080612063575b505088611fea575b80611f72575b5080611eed575b5050803b1561035c57604051633c3d4fb960e21b8152600481018690527f281c423f2145186a4090d693a24dbc925f9b316e0fd90ce376faf1d1e2844b69602482015260016044820152828160648183865af1908115610ba0578391611ed8575b5050803b1561035c57818091606460405180948193631d60084b60e01b83528a60048401527f7ca66cbe7b5accaa5484519a039cafa6dcd01aae976e3f4e0cba964d1e516b6460248401524260448401525af1801561031457611ec3575b50839052600160205260408520600160ff19825416179055845468010000000000000000811015611eaf5790611e798260017f8eaa3502703c7da17066b3a473a66f5aa7a47821acd5b8ea86816207db42baeb9594018855612db1565b81549060031b9086821b9160018060a01b03901b1916179055611ea9604051928392602084526020840191612d75565b0390a380f35b634e487b7160e01b86526041600452602486fd5b81611ecd91612c84565b61031f57845f611e1c565b81611ee291612c84565b61035c57815f611dbe565b823b156104f257611f49918491604051938492839263235913f560e01b84528b60048501527f52103a2540087a91d4a4ff00d4b13aa3dd3b805ba7d45f61d059761c7a07275e6024850152606060448501526064840191612d75565b038183865af1908115610ba057839115611d5d5781611f6791612c84565b61035c57815f611d5d565b833b1561031f576040519063a14ff85760e01b82528860048301527f2350465d1abd6707816222ee93f90a52b2a532ab64450425cc0d2db9eeb29f4160248301526044820152848160648183885af19081156108cd578591611fd5575b50611d56565b81611fdf91612c84565b6104f257835f611fcf565b833b1561031f5760405163a14ff85760e01b81528860048201527f7ad476546f838ffce7f3c5df5e7e401e8ce6deddb9db5f3419246c36cb4f1db66024820152896044820152858160648183895af19081156112ef57869161204e575b5050611d50565b8161205891612c84565b61031f57845f612047565b853b156120e75786908a6120be604051948593849363235913f560e01b855260048501527fdad653fa7edcab3e172554f9151ceed8376805e74d4faab7981fa443b49df6fa6024850152606060448501526064840191612d75565b038183895af19081156112ef57869115611d4857816120dc91612c84565b61031f57845f611d48565b8680fd5b816120f591612c84565b6120e757865f611d40565b6040513d8a823e3d90fd5b630ea075bf60e21b8a5260048afd5b630e41dcbf60e21b8a5260048afd5b61213d915060208082518301019101612d2e565b155f611c7d565b8880fd5b503461018b57604036600319011261018b57612162612b09565b602435908115158092036104ee57828060405160208101906317aa5fb760e11b825233602482015260248152612199604482612c84565b5190845afa6121a6612d46565b90159081156122a4575b50610332576001600160a01b03168083526001602052604083205490919060ff16156103235782907f00000000000000000000000000000000000000000000000000000000000000006001600160a01b031690813b156104ee578291606483926040519485938492633c3d4fb960e21b84528960048501527f281c423f2145186a4090d693a24dbc925f9b316e0fd90ce376faf1d1e2844b69602485015260448401525af180156103145761228f575b50507fbaef45cead810df032ca6f6dc22d0fa78f7bc08a3e2f3177cfe2f37f4b08071a6020604051428152a280f35b8161229991612c84565b61035c57815f612260565b6122b8915060208082518301019101612d2e565b155f6121b0565b50346106e4576122ce36612b70565b91925f8060405160208101906317aa5fb760e11b8252336024820152602481526122f9604482612c84565b5190845afa612306612d46565b90159081156124be575b506124af576001600160a01b03165f8181526001602052604090205490929060ff16156124a05760405163170da40760e21b8152600481018590526020816024817f00000000000000000000000000000000000000000000000000000000000000006001600160a01b03165afa908115612467575f91612481575b5015612472577f00000000000000000000000000000000000000000000000000000000000000006001600160a01b0316803b156106e4575f604051809263035c284960e51b82528183816123e5888a8d8d60048601612d95565b03925af180156124675761242f575b50907fa11877924d9daa9614f6d5965e1a69c3786db3359adf0aeab5ee8209f1bd53ba91611ea9604051928392602084526020840191612d75565b7fa11877924d9daa9614f6d5965e1a69c3786db3359adf0aeab5ee8209f1bd53ba929195505f61245e91612c84565b5f9490916123f4565b6040513d5f823e3d90fd5b63d4e1950f60e01b5f5260045ffd5b61249a915060203d6020116108c6576108b88183612c84565b5f61238b565b63aba4733960e01b5f5260045ffd5b630e41dcbf60e21b5f5260045ffd5b6124d2915060208082518301019101612d2e565b155f612310565b346106e45760203660031901126106e4576124f2612b09565b61014082018281106001600160401b03821117612af5576040526060825260208201906060825260408301905f825260608401925f845260808501926060845260a08601905f825260c08701906060825260e08801955f87526101008901945f86526101208a01965f885260018060a01b031660018060a01b037f000000000000000000000000000000000000000000000000000000000000000016906040516331477b9b60e01b81528160048201527f741f18d320914b57eeda3ea07ece8db6081598de8a16ee7bc4b1c5f9cd2ff58c60248201525f81604481865afa908115612467575f91612adb575b508c526040516331477b9b60e01b8152600481018290527fdad653fa7edcab3e172554f9151ceed8376805e74d4faab7981fa443b49df6fa60248201525f81604481865afa908115612467575f91612ac1575b508352604051630df675ff60e21b8152600481018290527f7ad476546f838ffce7f3c5df5e7e401e8ce6deddb9db5f3419246c36cb4f1db66024820152602081604481865afa908115612467575f91612a8f575b508552604051630df675ff60e21b8152600481018290527f2350465d1abd6707816222ee93f90a52b2a532ab64450425cc0d2db9eeb29f416024820152602081604481865afa908115612467575f91612a5d575b508b526040516331477b9b60e01b8152600481018290527f9824200aa5377f0e47b53debd90bf2ab62c1ef1c349e1b361abbaadc4ece4a2260248201525f81604481865afa908115612467575f91612a43575b508452604051630df675ff60e21b8152600481018290527f60044e01e8c9d502074d6e4c9fbe43e16fe2b136bd8966bb2ab23a2d72d4273a6024820152602081604481865afa908115612467575f91612a11575b5087526040516331477b9b60e01b8152600481018290527f52103a2540087a91d4a4ff00d4b13aa3dd3b805ba7d45f61d059761c7a07275e60248201525f81604481865afa908115612467575f916129f7575b50865260405163263abc4760e21b8152600481018290527f281c423f2145186a4090d693a24dbc925f9b316e0fd90ce376faf1d1e2844b696024820152602081604481865afa908115612467575f916129d8575b5015158a52604051633d356c9360e11b8152600481018290527f7ca66cbe7b5accaa5484519a039cafa6dcd01aae976e3f4e0cba964d1e516b64602482015290602082604481865afa8015612467575f906129a5575b602092508952602460405180948193634710e56560e11b835260048301525afa908115612467575f91612951575b5091610160996128fd612935979695936001600160401b0361291c96168b526128ea6040519e8f9e8f9160208352519161014060208201520190612b1f565b90518d8203601f190160408f0152612b1f565b925160608c01525160808b015251898203601f190160a08b0152612b1f565b915160c088015251868203601f190160e0880152612b1f565b9251151561010085015251610120840152516101408301520390f35b90506020959493919295813d60201161299d575b8161297260209383612c84565b810103126106e45751946001600160401b03861686036106e4579394929390929091906101606128ab565b3d9150612965565b506020823d6020116129d0575b816129bf60209383612c84565b810103126106e4576020915161287d565b3d91506129b2565b6129f1915060203d6020116108c6576108b88183612c84565b8d612827565b612a0b91503d805f833e6111868183612c84565b8d6127d3565b90506020813d602011612a3b575b81612a2c60209383612c84565b810103126106e457518d612780565b3d9150612a1f565b612a5791503d805f833e6111868183612c84565b8d61272c565b90506020813d602011612a87575b81612a7860209383612c84565b810103126106e457518d6126d9565b3d9150612a6b565b90506020813d602011612ab9575b81612aaa60209383612c84565b810103126106e457518d612685565b3d9150612a9d565b612ad591503d805f833e6111868183612c84565b8d612631565b612aef91503d805f833e6111868183612c84565b8d6125de565b634e487b7160e01b5f52604160045260245ffd5b600435906001600160a01b03821682036106e457565b805180835260209291819084018484015e5f828201840152601f01601f1916010190565b9181601f840112156106e4578235916001600160401b0383116106e457602083818601950101116106e457565b60606003198201126106e4576004356001600160a01b03811681036106e4579160243591604435906001600160401b0382116106e457612bb291600401612b43565b9091565b60609060031901126106e4576004356001600160a01b03811681036106e45790602435906044356001600160a01b03811681036106e45790565b9080602083519182815201916020808360051b8301019401925f915b838310612c1b57505050505090565b9091929394602080612c39600193601f198682030187528951612b1f565b97019301930191939290612c0c565b90602080835192838152019201905f5b818110612c655750505090565b82516001600160a01b0316845260209384019390920191600101612c58565b90601f801991011681019081106001600160401b03821117612af557604052565b6001600160401b038111612af557601f01601f191660200190565b81601f820112156106e457805190612cd782612ca5565b92612ce56040519485612c84565b828452602083830101116106e457815f9260208093018386015e8301015290565b906020828203126106e45781516001600160401b0381116106e457612d2b9201612cc0565b90565b908160209103126106e4575180151581036106e45790565b3d15612d70573d90612d5782612ca5565b91612d656040519384612c84565b82523d5f602084013e565b606090565b908060209392818452848401375f828201840152601f01601f1916010190565b612d2b9492606092825260208201528160408201520191612d75565b5f54811015612dc7575f805260205f2001905f90565b634e487b7160e01b5f52603260045260245ffd5b6001600160401b038111612af55760051b60200190565b51906001600160a01b03821682036106e457565b939291602091612e1e91604087526040870191612d75565b93015256fea26469706673582212205c129c4838f96bc093cff19f3b2cc898f4e497b52549c35dbcfd95c846b81cda64736f6c634300081c0033","linkReferences":{}},"methodIdentifiers":{"ONTOLOGY()":"e63cdb42","STORE()":"507f1465","addMultiAddressProperty(address,bytes32,address)":"4c82bf5b","addMultiStringProperty(address,bytes32,string)":"194619eb","agentCount()":"b7dc1284","clearMultiAddressProperty(address,bytes32)":"8b43e1f4","clearMultiStringProperty(address,bytes32)":"72ef05bd","getAddressProperty(address,bytes32)":"54e89cd4","getAgentAt(uint256)":"e468619d","getAllAgents()":"860e4ac6","getBoolProperty(address,bytes32)":"70ecabaf","getCore(address)":"0a9a5cce","getMultiAddressProperty(address,bytes32)":"9f024c83","getMultiStringProperty(address,bytes32)":"761eefdc","getPredicateKeys(address)":"465e9c86","getStringProperty(address,bytes32)":"663159e0","getUintProperty(address,bytes32)":"89e28982","isRegistered(address)":"c3c5a547","register(address,string,string,bytes32,bytes32,string)":"36129bcb","setActive(address,bool)":"2ce962cf","setAddressProperty(address,bytes32,address)":"58220fc7","setBoolProperty(address,bytes32,bool)":"89847eb0","setMetadataURI(address,string,bytes32)":"8225ffcb","setSchemaURI(address,string)":"e45e444e","setStringProperty(address,bytes32,string)":"64741c65","setUintProperty(address,bytes32,uint256)":"7e398880","updateCore(address,string,string,bytes32,bytes32)":"5d782668"},"id":68}