{"abi":[{"type":"constructor","inputs":[{"name":"ontologyRegistry","type":"address","internalType":"address"}],"stateMutability":"nonpayable"},{"type":"function","name":"DT_ADDRESS_ARR_PUB","inputs":[],"outputs":[{"name":"","type":"uint8","internalType":"uint8"}],"stateMutability":"pure"},{"type":"function","name":"DT_ADDRESS_PUB","inputs":[],"outputs":[{"name":"","type":"uint8","internalType":"uint8"}],"stateMutability":"pure"},{"type":"function","name":"DT_BOOL_PUB","inputs":[],"outputs":[{"name":"","type":"uint8","internalType":"uint8"}],"stateMutability":"pure"},{"type":"function","name":"DT_BYTES32_ARR_PUB","inputs":[],"outputs":[{"name":"","type":"uint8","internalType":"uint8"}],"stateMutability":"pure"},{"type":"function","name":"DT_BYTES32_PUB","inputs":[],"outputs":[{"name":"","type":"uint8","internalType":"uint8"}],"stateMutability":"pure"},{"type":"function","name":"DT_STRING_ARR_PUB","inputs":[],"outputs":[{"name":"","type":"uint8","internalType":"uint8"}],"stateMutability":"pure"},{"type":"function","name":"DT_STRING_PUB","inputs":[],"outputs":[{"name":"","type":"uint8","internalType":"uint8"}],"stateMutability":"pure"},{"type":"function","name":"DT_UINT256_PUB","inputs":[],"outputs":[{"name":"","type":"uint8","internalType":"uint8"}],"stateMutability":"pure"},{"type":"function","name":"ONTOLOGY","inputs":[],"outputs":[{"name":"","type":"address","internalType":"contract OntologyTermRegistry"}],"stateMutability":"view"},{"type":"function","name":"addMultiAddressProperty","inputs":[{"name":"agent","type":"address","internalType":"address"},{"name":"predicate","type":"bytes32","internalType":"bytes32"},{"name":"value","type":"address","internalType":"address"}],"outputs":[],"stateMutability":"nonpayable"},{"type":"function","name":"addMultiStringProperty","inputs":[{"name":"agent","type":"address","internalType":"address"},{"name":"predicate","type":"bytes32","internalType":"bytes32"},{"name":"value","type":"string","internalType":"string"}],"outputs":[],"stateMutability":"nonpayable"},{"type":"function","name":"agentCount","inputs":[],"outputs":[{"name":"","type":"uint256","internalType":"uint256"}],"stateMutability":"view"},{"type":"function","name":"allSubjects","inputs":[],"outputs":[{"name":"","type":"bytes32[]","internalType":"bytes32[]"}],"stateMutability":"view"},{"type":"function","name":"clearMultiAddressProperty","inputs":[{"name":"agent","type":"address","internalType":"address"},{"name":"predicate","type":"bytes32","internalType":"bytes32"}],"outputs":[],"stateMutability":"nonpayable"},{"type":"function","name":"clearMultiStringProperty","inputs":[{"name":"agent","type":"address","internalType":"address"},{"name":"predicate","type":"bytes32","internalType":"bytes32"}],"outputs":[],"stateMutability":"nonpayable"},{"type":"function","name":"datatypeOf","inputs":[{"name":"subject","type":"bytes32","internalType":"bytes32"},{"name":"predicate","type":"bytes32","internalType":"bytes32"}],"outputs":[{"name":"","type":"uint8","internalType":"uint8"}],"stateMutability":"view"},{"type":"function","name":"getAddress","inputs":[{"name":"subject","type":"bytes32","internalType":"bytes32"},{"name":"predicate","type":"bytes32","internalType":"bytes32"}],"outputs":[{"name":"","type":"address","internalType":"address"}],"stateMutability":"view"},{"type":"function","name":"getAddressArr","inputs":[{"name":"subject","type":"bytes32","internalType":"bytes32"},{"name":"predicate","type":"bytes32","internalType":"bytes32"}],"outputs":[{"name":"","type":"address[]","internalType":"address[]"}],"stateMutability":"view"},{"type":"function","name":"getAddressProperty","inputs":[{"name":"agent","type":"address","internalType":"address"},{"name":"predicate","type":"bytes32","internalType":"bytes32"}],"outputs":[{"name":"","type":"address","internalType":"address"}],"stateMutability":"view"},{"type":"function","name":"getAgentAt","inputs":[{"name":"index","type":"uint256","internalType":"uint256"}],"outputs":[{"name":"","type":"address","internalType":"address"}],"stateMutability":"view"},{"type":"function","name":"getAllAgents","inputs":[],"outputs":[{"name":"","type":"address[]","internalType":"address[]"}],"stateMutability":"view"},{"type":"function","name":"getBool","inputs":[{"name":"subject","type":"bytes32","internalType":"bytes32"},{"name":"predicate","type":"bytes32","internalType":"bytes32"}],"outputs":[{"name":"","type":"bool","internalType":"bool"}],"stateMutability":"view"},{"type":"function","name":"getBoolProperty","inputs":[{"name":"agent","type":"address","internalType":"address"},{"name":"predicate","type":"bytes32","internalType":"bytes32"}],"outputs":[{"name":"","type":"bool","internalType":"bool"}],"stateMutability":"view"},{"type":"function","name":"getBytes32","inputs":[{"name":"subject","type":"bytes32","internalType":"bytes32"},{"name":"predicate","type":"bytes32","internalType":"bytes32"}],"outputs":[{"name":"","type":"bytes32","internalType":"bytes32"}],"stateMutability":"view"},{"type":"function","name":"getBytes32Arr","inputs":[{"name":"subject","type":"bytes32","internalType":"bytes32"},{"name":"predicate","type":"bytes32","internalType":"bytes32"}],"outputs":[{"name":"","type":"bytes32[]","internalType":"bytes32[]"}],"stateMutability":"view"},{"type":"function","name":"getCore","inputs":[{"name":"agent","type":"address","internalType":"address"}],"outputs":[{"name":"c","type":"tuple","internalType":"struct AgentAccountResolver.CoreRecord","components":[{"name":"displayName","type":"string","internalType":"string"},{"name":"description","type":"string","internalType":"string"},{"name":"agentType","type":"bytes32","internalType":"bytes32"},{"name":"agentClass","type":"bytes32","internalType":"bytes32"},{"name":"metadataURI","type":"string","internalType":"string"},{"name":"metadataHash","type":"bytes32","internalType":"bytes32"},{"name":"schemaURI","type":"string","internalType":"string"},{"name":"active","type":"bool","internalType":"bool"},{"name":"registeredAt","type":"uint256","internalType":"uint256"},{"name":"updatedAt","type":"uint256","internalType":"uint256"}]}],"stateMutability":"view"},{"type":"function","name":"getMultiAddressProperty","inputs":[{"name":"agent","type":"address","internalType":"address"},{"name":"predicate","type":"bytes32","internalType":"bytes32"}],"outputs":[{"name":"","type":"address[]","internalType":"address[]"}],"stateMutability":"view"},{"type":"function","name":"getMultiStringProperty","inputs":[{"name":"agent","type":"address","internalType":"address"},{"name":"predicate","type":"bytes32","internalType":"bytes32"}],"outputs":[{"name":"","type":"string[]","internalType":"string[]"}],"stateMutability":"view"},{"type":"function","name":"getPredicateKeys","inputs":[{"name":"agent","type":"address","internalType":"address"}],"outputs":[{"name":"","type":"bytes32[]","internalType":"bytes32[]"}],"stateMutability":"view"},{"type":"function","name":"getString","inputs":[{"name":"subject","type":"bytes32","internalType":"bytes32"},{"name":"predicate","type":"bytes32","internalType":"bytes32"}],"outputs":[{"name":"","type":"string","internalType":"string"}],"stateMutability":"view"},{"type":"function","name":"getStringArr","inputs":[{"name":"subject","type":"bytes32","internalType":"bytes32"},{"name":"predicate","type":"bytes32","internalType":"bytes32"}],"outputs":[{"name":"","type":"string[]","internalType":"string[]"}],"stateMutability":"view"},{"type":"function","name":"getStringProperty","inputs":[{"name":"agent","type":"address","internalType":"address"},{"name":"predicate","type":"bytes32","internalType":"bytes32"}],"outputs":[{"name":"","type":"string","internalType":"string"}],"stateMutability":"view"},{"type":"function","name":"getUint","inputs":[{"name":"subject","type":"bytes32","internalType":"bytes32"},{"name":"predicate","type":"bytes32","internalType":"bytes32"}],"outputs":[{"name":"","type":"uint256","internalType":"uint256"}],"stateMutability":"view"},{"type":"function","name":"getUintProperty","inputs":[{"name":"agent","type":"address","internalType":"address"},{"name":"predicate","type":"bytes32","internalType":"bytes32"}],"outputs":[{"name":"","type":"uint256","internalType":"uint256"}],"stateMutability":"view"},{"type":"function","name":"isRegistered","inputs":[{"name":"agent","type":"address","internalType":"address"}],"outputs":[{"name":"","type":"bool","internalType":"bool"}],"stateMutability":"view"},{"type":"function","name":"isSet","inputs":[{"name":"subject","type":"bytes32","internalType":"bytes32"},{"name":"predicate","type":"bytes32","internalType":"bytes32"}],"outputs":[{"name":"","type":"bool","internalType":"bool"}],"stateMutability":"view"},{"type":"function","name":"predicatesOf","inputs":[{"name":"subject","type":"bytes32","internalType":"bytes32"}],"outputs":[{"name":"","type":"bytes32[]","internalType":"bytes32[]"}],"stateMutability":"view"},{"type":"function","name":"register","inputs":[{"name":"agent","type":"address","internalType":"address"},{"name":"displayName","type":"string","internalType":"string"},{"name":"description","type":"string","internalType":"string"},{"name":"agentType","type":"bytes32","internalType":"bytes32"},{"name":"agentClass","type":"bytes32","internalType":"bytes32"},{"name":"schemaURI","type":"string","internalType":"string"}],"outputs":[],"stateMutability":"nonpayable"},{"type":"function","name":"setActive","inputs":[{"name":"agent","type":"address","internalType":"address"},{"name":"active","type":"bool","internalType":"bool"}],"outputs":[],"stateMutability":"nonpayable"},{"type":"function","name":"setAddressProperty","inputs":[{"name":"agent","type":"address","internalType":"address"},{"name":"predicate","type":"bytes32","internalType":"bytes32"},{"name":"value","type":"address","internalType":"address"}],"outputs":[],"stateMutability":"nonpayable"},{"type":"function","name":"setBoolProperty","inputs":[{"name":"agent","type":"address","internalType":"address"},{"name":"predicate","type":"bytes32","internalType":"bytes32"},{"name":"value","type":"bool","internalType":"bool"}],"outputs":[],"stateMutability":"nonpayable"},{"type":"function","name":"setMetadataURI","inputs":[{"name":"agent","type":"address","internalType":"address"},{"name":"uri","type":"string","internalType":"string"},{"name":"hash","type":"bytes32","internalType":"bytes32"}],"outputs":[],"stateMutability":"nonpayable"},{"type":"function","name":"setSchemaURI","inputs":[{"name":"agent","type":"address","internalType":"address"},{"name":"uri","type":"string","internalType":"string"}],"outputs":[],"stateMutability":"nonpayable"},{"type":"function","name":"setStringProperty","inputs":[{"name":"agent","type":"address","internalType":"address"},{"name":"predicate","type":"bytes32","internalType":"bytes32"},{"name":"value","type":"string","internalType":"string"}],"outputs":[],"stateMutability":"nonpayable"},{"type":"function","name":"setUintProperty","inputs":[{"name":"agent","type":"address","internalType":"address"},{"name":"predicate","type":"bytes32","internalType":"bytes32"},{"name":"value","type":"uint256","internalType":"uint256"}],"outputs":[],"stateMutability":"nonpayable"},{"type":"function","name":"subjectCount","inputs":[],"outputs":[{"name":"","type":"uint256","internalType":"uint256"}],"stateMutability":"view"},{"type":"function","name":"subjectVersion","inputs":[{"name":"subject","type":"bytes32","internalType":"bytes32"}],"outputs":[{"name":"","type":"uint64","internalType":"uint64"}],"stateMutability":"view"},{"type":"function","name":"updateCore","inputs":[{"name":"agent","type":"address","internalType":"address"},{"name":"displayName","type":"string","internalType":"string"},{"name":"description","type":"string","internalType":"string"},{"name":"agentType","type":"bytes32","internalType":"bytes32"},{"name":"agentClass","type":"bytes32","internalType":"bytes32"}],"outputs":[],"stateMutability":"nonpayable"},{"type":"function","name":"updatedAt","inputs":[{"name":"subject","type":"bytes32","internalType":"bytes32"},{"name":"predicate","type":"bytes32","internalType":"bytes32"}],"outputs":[{"name":"","type":"uint64","internalType":"uint64"}],"stateMutability":"view"},{"type":"event","name":"AgentRegistered","inputs":[{"name":"agent","type":"address","indexed":true,"internalType":"address"},{"name":"displayName","type":"string","indexed":false,"internalType":"string"},{"name":"agentType","type":"bytes32","indexed":true,"internalType":"bytes32"}],"anonymous":false},{"type":"event","name":"AgentUpdated","inputs":[{"name":"agent","type":"address","indexed":true,"internalType":"address"},{"name":"updatedAt","type":"uint256","indexed":false,"internalType":"uint256"}],"anonymous":false},{"type":"event","name":"AttributeAppended","inputs":[{"name":"subject","type":"bytes32","indexed":true,"internalType":"bytes32"},{"name":"predicate","type":"bytes32","indexed":true,"internalType":"bytes32"},{"name":"datatype","type":"uint8","indexed":false,"internalType":"uint8"},{"name":"version","type":"uint64","indexed":false,"internalType":"uint64"}],"anonymous":false},{"type":"event","name":"AttributeSet","inputs":[{"name":"subject","type":"bytes32","indexed":true,"internalType":"bytes32"},{"name":"predicate","type":"bytes32","indexed":true,"internalType":"bytes32"},{"name":"datatype","type":"uint8","indexed":false,"internalType":"uint8"},{"name":"version","type":"uint64","indexed":false,"internalType":"uint64"}],"anonymous":false},{"type":"event","name":"AttributeUnset","inputs":[{"name":"subject","type":"bytes32","indexed":true,"internalType":"bytes32"},{"name":"predicate","type":"bytes32","indexed":true,"internalType":"bytes32"},{"name":"version","type":"uint64","indexed":false,"internalType":"uint64"}],"anonymous":false},{"type":"event","name":"CoreUpdated","inputs":[{"name":"agent","type":"address","indexed":true,"internalType":"address"},{"name":"displayName","type":"string","indexed":false,"internalType":"string"},{"name":"agentType","type":"bytes32","indexed":false,"internalType":"bytes32"}],"anonymous":false},{"type":"event","name":"MetadataUpdated","inputs":[{"name":"agent","type":"address","indexed":true,"internalType":"address"},{"name":"metadataURI","type":"string","indexed":false,"internalType":"string"},{"name":"metadataHash","type":"bytes32","indexed":false,"internalType":"bytes32"}],"anonymous":false},{"type":"event","name":"MultiPropertyAdded","inputs":[{"name":"agent","type":"address","indexed":true,"internalType":"address"},{"name":"predicate","type":"bytes32","indexed":true,"internalType":"bytes32"},{"name":"value","type":"string","indexed":false,"internalType":"string"}],"anonymous":false},{"type":"event","name":"PropertySet","inputs":[{"name":"agent","type":"address","indexed":true,"internalType":"address"},{"name":"predicate","type":"bytes32","indexed":true,"internalType":"bytes32"}],"anonymous":false},{"type":"event","name":"SubjectFirstSeen","inputs":[{"name":"subject","type":"bytes32","indexed":true,"internalType":"bytes32"}],"anonymous":false},{"type":"error","name":"AlreadyRegistered","inputs":[]},{"type":"error","name":"AttributeNotSet","inputs":[]},{"type":"error","name":"NotAgentOwner","inputs":[]},{"type":"error","name":"NotRegistered","inputs":[]},{"type":"error","name":"PredicateNotActive","inputs":[]}],"bytecode":{"object":"0x60a034606f57601f6136e738819003918201601f19168301916001600160401b03831184841017607357808492602094604052833981010312606f57516001600160a01b03811690819003606f5760805260405161365f9081610088823960805181818161028601526130740152f35b5f80fd5b634e487b7160e01b5f52604160045260245ffdfe6080806040526004361015610012575f80fd5b5f3560e01c9081630a9a5cce146123a857508063194619eb146121a5578063213aaad71461218a5780632ce962cf146120445780633054718114611fe057806331477b9b14611f9e57806336129bcb14611ca857806337d9d7fc14611c795780634083843e14611c1057806342921cf314611bde578063465e9c8614611af15780634c82bf5b1461193257806354e89cd41461188f57806358220fc7146116a75780635d78266814611556578063639a2e101461153957806364741c651461145c578063663159e0146113ce57806370ecabaf1461133f57806372ef05bd146110b6578063761eefdc14610fa15780637a6ad92614610f725780637e39888014610e985780638225ffcb14610ce1578063860e4ac614610c64578063880eadce14610c2c57806389847eb014610b0f57806389e2898214610a7d5780638b43e1f4146108605780638e101369146108455780638e21caca1461081257806393cbc37d146107f757806398eaf11c146107c35780639f024c83146106bb578063a954aea1146106a0578063b7dc128414610683578063bb6b0c3b1461064f578063be78c06814610634578063c317462914610619578063c3a6123d14610599578063c3c5a5471461055c578063cb954f30146104dc578063d3a39686146104a5578063e4281bc314610423578063e45e444e14610323578063e468619d146102b5578063e63cdb4214610271578063ece6bebc146102565763f98eed6914610237575f80fd5b34610252575f36600319011261025257602060405160088152f35b5f80fd5b34610252575f36600319011261025257602060405160028152f35b34610252575f366003190112610252576040517f00000000000000000000000000000000000000000000000000000000000000006001600160a01b03168152602090f35b3461025257602036600319011261025257600435600f5481101561030f57600f5f527f8d1108e10bcb7c27dddfc02ed9d693a074039d026cf4ea4240b40f7d581ac80201546040516001600160a01b039091168152602090f35b634e487b7160e01b5f52603260045260245ffd5b346102525760403660031901126102525761033c61294c565b6024356001600160401b0381116102525761035b903690600401612986565b90916001600160a01b0381169190338390036103ae575b50815f52601060205260ff60405f2054161561039f5761039d92610397913691612c14565b90612f97565b005b63aba4733960e01b5f5260045ffd5b5f809160405160208101906317aa5fb760e11b8252336024820152602481526103d8604482612b23565b51915afa6103e4612be5565b9015908115610408575b506103f95783610372565b630e41dcbf60e21b5f5260045ffd5b61041c915060208082518301019101612bcd565b15846103ee565b346102525761043136612a32565b905f52600660205260405f20905f5260205260405f206040519081602082549182815201915f5260205f20905f5b818110610486576104828561047681870382612b23565b60405191829182612ae1565b0390f35b82546001600160a01b031684526020909301926001928301920161045f565b34610252576104b336612a32565b905f52600160205260405f20905f52602052602060018060a01b0360405f205416604051908152f35b34610252576104ea36612a32565b905f52600560205260405f20905f5260205260405f20805461050b81612d98565b916105196040519384612b23565b81835260208301905f5260205f205f915b83831061053f57604051806104828782612a82565b60016020819261054e85612ca2565b81520192019201919061052a565b34610252576020366003190112610252576001600160a01b0361057d61294c565b165f526010602052602060ff60405f2054166040519015158152f35b34610252575f36600319011261025257604051806020600d54918281520190600d5f527fd7b6990105719101dabeb77144f2a3385c8033acd3af97e9423a695e81ad1eb5905f5b81811061060357610482856105f781870382612b23565b604051918291826129f9565b82548452602090930192600192830192016105e0565b34610252575f36600319011261025257602060405160058152f35b34610252575f36600319011261025257602060405160048152f35b346102525761065d36612a32565b905f52600960205260405f20905f52602052602060ff60405f2054166040519015158152f35b34610252575f366003190112610252576020600f54604051908152f35b34610252575f36600319011261025257602060405160018152f35b34610252576040366003190112610252576106d461294c565b60405163e4281bc360e01b81526001600160a01b03909116600482015260248035908201525f81604481305afa80156107b8575f9061071e575b6104829060405191829182612ae1565b503d805f833e61072e8183612b23565b810190602081830312610252578051906001600160401b03821161025257019080601f8301121561025257815161076481612d98565b926107726040519485612b23565b81845260208085019260051b82010192831161025257602001905b8282106107a0575050506104829061070e565b602080916107ad84612daf565b81520191019061078d565b6040513d5f823e3d90fd5b34610252576107d136612a32565b905f52600260205260405f20905f52602052602060ff60405f2054166040519015158152f35b34610252575f36600319011261025257602060405160038152f35b34610252576020366003190112610252576004355f52600c60205260206001600160401b0360405f205416604051908152f35b34610252575f36600319011261025257602060405160068152f35b346102525760403660031901126102525761087961294c565b602435906001600160a01b0381169033829003610a17575b50805f52601060205260ff60405f2054161561039f5760405160206108b68183612b23565b5f82525f3681376108c684613057565b825f526006815260405f20845f52815260405f2080545f8255806109fe575b50505f5b825181101561092e575f8481526006835260408082208783528452902060019190610928906001600160a01b036109208488613043565b511690612d57565b016108e9565b84845f5160206135ca5f395f51905f5260408561094a846134aa565b835f5260098152815f20855f52815260ff825f205416156109c9575b835f52600a8152815f20855f528152815f20600760ff1982541617905561098c84613526565b5f858152600b83528381208782528352839020805467ffffffffffffffff19166001600160401b03909216918217905582516007815291820152a3005b835f52600881526109dc85835f206130e2565b835f5260098152815f20855f528152815f20600160ff19825416179055610966565b610a10915f52825f2090810190612de0565b84806108e5565b5f809160405160208101906317aa5fb760e11b825233602482015260248152610a41604482612b23565b51915afa610a4d612be5565b9015908115610a62575b506103f95782610891565b610a76915060208082518301019101612bcd565b1583610a57565b3461025257604036600319011261025257610a9661294c565b604051633d356c9360e11b81526001600160a01b0390911660048201526024803590820152602081604481305afa80156107b8575f90610adc575b602090604051908152f35b506020813d602011610b07575b81610af660209383612b23565b810103126102525760209051610ad1565b3d9150610ae9565b3461025257606036600319011261025257610b2861294c565b602435906044358015158103610252576001600160a01b0382169133839003610bc6575b50815f52601060205260ff60405f2054161561039f57610b9690610b6f84613057565b825f52600260205260405f20845f5260205260405f209060ff801983541691151516179055565b610ba0828261311e565b7f74e683adab2ba72c5c6284ea9ea8bdfcadc2df1425f7c849e7ef5cc39084a93d5f80a3005b5f809160405160208101906317aa5fb760e11b825233602482015260248152610bf0604482612b23565b51915afa610bfc612be5565b9015908115610c11575b506103f95783610b4c565b610c25915060208082518301019101612bcd565b1584610c06565b3461025257610c3a36612a32565b905f52600b60205260405f20905f5260205260206001600160401b0360405f205416604051908152f35b34610252575f36600319011261025257604051806020600f54918281520190600f5f527f8d1108e10bcb7c27dddfc02ed9d693a074039d026cf4ea4240b40f7d581ac802905f5b818110610cc2576104828561047681870382612b23565b82546001600160a01b0316845260209093019260019283019201610cab565b3461025257606036600319011261025257610cfa61294c565b6024356001600160401b03811161025257610d19903690600401612986565b6001600160a01b03831692604435929033859003610e32575b50835f52601060205260ff60405f2054161561039f57610e2d7fa703154b2e122dd100b1e7dde328b3553f5bffd34a1aca5c78adc6b54ccc932693610db8610d7b368686612c14565b610d915f51602061360a5f395f51905f52613057565b875f525f60205260405f205f51602061360a5f395f51905f525f5260205260405f20612df6565b610dcf5f51602061360a5f395f51905f5287613201565b610de55f51602061358a5f395f51905f52613057565b855f52600460205260405f205f51602061358a5f395f51905f525f526020528060405f2055610e215f51602061358a5f395f51905f52876132e4565b60405193849384612dc3565b0390a2005b5f809160405160208101906317aa5fb760e11b825233602482015260248152610e5c604482612b23565b51915afa610e68612be5565b9015908115610e7d575b506103f95784610d32565b610e91915060208082518301019101612bcd565b1585610e72565b3461025257606036600319011261025257610eb161294c565b602435906001600160a01b0381169033829003610f0c575b50805f52601060205260ff60405f2054161561039f57610ee882613057565b805f52600360205260405f20825f5260205260443560405f2055610ba082826133c7565b5f809160405160208101906317aa5fb760e11b825233602482015260248152610f36604482612b23565b51915afa610f42612be5565b9015908115610f57575b506103f95782610ec9565b610f6b915060208082518301019101612bcd565b1583610f4c565b3461025257610f8036612a32565b905f52600360205260405f20905f52602052602060405f2054604051908152f35b3461025257604036600319011261025257610fba61294c565b604051630cb954f360e41b81526001600160a01b03909116600482015260248035908201525f81604481305afa80156107b8575f90611004575b6104829060405191829182612a82565b503d805f833e6110148183612b23565b810190602081830312610252578051906001600160401b038211610252570181601f8201121561025257805161104981612d98565b916110576040519384612b23565b81835260208084019260051b820101918483116102525760208201905b83821061108957505050506104829150610ff4565b81516001600160401b038111610252576020916110ab88848094880101612b5f565b815201910190611074565b34610252576040366003190112610252576110cf61294c565b602435906001600160a01b03811690338290036112d9575b50805f52601060205260ff60405f2054161561039f5760405191602061110d8185612b23565b5f845261111982613057565b825f526005815260405f20825f52815260405f208054905f81558161126d575b50505f5b845181101561117757600190845f526005835260405f20845f52835261117160405f2061116a8389613043565b5190612eee565b0161113d565b5081835f5160206135ca5f395f51905f5260408294611195846134aa565b835f5260098152815f20855f52815260ff825f20541615611238575b835f52600a8152815f20855f528152815f20600660ff198254161790556111d784613526565b5f858152600b83528381208782528352839020805467ffffffffffffffff19166001600160401b03909216918217905582516006815291820152a37f74e683adab2ba72c5c6284ea9ea8bdfcadc2df1425f7c849e7ef5cc39084a93d5f80a3005b835f526008815261124b85835f206130e2565b835f5260098152815f20855f528152815f20600160ff198254161790556111b1565b5f52815f20908101905b81811015611139578061128c60019254612c6a565b80611299575b5001611277565b601f811183146112ae57505f81555b87611292565b6112c990825f5283601f875f20920160051c82019101612de0565b805f525f848120818355556112a8565b5f809160405160208101906317aa5fb760e11b825233602482015260248152611303604482612b23565b51915afa61130f612be5565b9015908115611324575b506103f957826110e7565b611338915060208082518301019101612bcd565b1583611319565b346102525760403660031901126102525761135861294c565b60405163263abc4760e21b81526001600160a01b0390911660048201526024803590820152602081604481305afa80156107b8576020915f916113a1575b506040519015158152f35b6113c19150823d84116113c7575b6113b98183612b23565b810190612bcd565b82611396565b503d6113af565b34610252576040366003190112610252576113e761294c565b6040516331477b9b60e01b81526001600160a01b03909116600482015260248035908201525f81604481305afa80156107b857610482915f9161143a575b50604051918291602083526020830190612962565b61145691503d805f833e61144e8183612b23565b810190612ba5565b82611425565b346102525761146a366129b3565b91926001600160a01b0381169290338490036114d3575b50825f52601060205260ff60405f2054161561039f576114c9916114a6913691612c14565b6114af84613057565b825f525f60205260405f20845f5260205260405f20612df6565b610ba08282613201565b5f809160405160208101906317aa5fb760e11b8252336024820152602481526114fd604482612b23565b51915afa611509612be5565b901590811561151e575b506103f95784611481565b611532915060208082518301019101612bcd565b1585611513565b34610252575f366003190112610252576020600d54604051908152f35b346102525760a03660031901126102525761156f61294c565b6024356001600160401b0381116102525761158e903690600401612986565b6044356001600160401b038111610252576115ad903690600401612986565b6001600160a01b038516949193916064359033879003611641575b50855f52601060205260ff60405f2054161561039f5761162b6116257fe2d8a38d12839c4dfcd22c70fceb0367dc646e6d0ac93795e9a33248cfc8682396610e2d9461161e611618368a8a612c14565b8b612f2e565b3691612c14565b87612f65565b6116358187612fc9565b610e2160843587613014565b5f809160405160208101906317aa5fb760e11b82523360248201526024815261166b604482612b23565b51915afa611677612be5565b901590811561168c575b506103f957866115c8565b6116a0915060208082518301019101612bcd565b1587611681565b34610252576116b536612a48565b90916001600160a01b038116919033839003611829575b50815f52601060205260ff60405f2054161561039f576116eb83613057565b815f52600160205260405f20835f5260205260405f209060018060a01b03166bffffffffffffffffffffffff60a01b825416179055611729816134aa565b805f52600960205260405f20825f5260205260ff60405f205416156117ee575b805f52600a60205260405f20825f5260205260405f20600260ff1982541617905581815f5160206135ca5f395f51905f52604061178583613526565b835f52600b602052815f20855f52602052815f206001600160401b0382166001600160401b03198254161790556001600160401b0382519160028352166020820152a37f74e683adab2ba72c5c6284ea9ea8bdfcadc2df1425f7c849e7ef5cc39084a93d5f80a3005b805f5260086020526118038260405f206130e2565b805f52600960205260405f20825f5260205260405f20600160ff19825416179055611749565b5f809160405160208101906317aa5fb760e11b825233602482015260248152611853604482612b23565b51915afa61185f612be5565b9015908115611874575b506103f957836116cc565b611888915060208082518301019101612bcd565b1584611869565b34610252576040366003190112610252576118a861294c565b6040516369d1cb4360e11b81526001600160a01b0390911660048201526024803590820152602081604481305afa80156107b8575f906118f8575b6040516001600160a01b039091168152602090f35b506020813d60201161192a575b8161191260209383612b23565b8101031261025257611925602091612daf565b6118e3565b3d9150611905565b346102525761194036612a48565b90916001600160a01b038116919033839003611a8b575b50815f52601060205260ff60405f2054161561039f576119959061197a84613057565b825f52600660205260405f20845f5260205260405f20612d57565b61199e816134aa565b805f52600960205260405f20825f5260205260ff60405f20541615611a50575b805f52600a60205260405f20825f5260205260405f20600760ff198254161790557f34d84e67b0f324bfad877e5b27265f696957cae3ba7fbfc8a1a4a365c3672ecd6040611a0b83613526565b835f52600b602052815f20855f52602052815f206001600160401b0382166001600160401b03198254161790556001600160401b0382519160078352166020820152a3005b805f526008602052611a658260405f206130e2565b805f52600960205260405f20825f5260205260405f20600160ff198254161790556119be565b5f809160405160208101906317aa5fb760e11b825233602482015260248152611ab5604482612b23565b51915afa611ac1612be5565b9015908115611ad6575b506103f95783611957565b611aea915060208082518301019101612bcd565b1584611acb565b3461025257602036600319011261025257611b0a61294c565b604051633054718160e01b81526001600160a01b0390911660048201525f81602481305afa80156107b8575f90611b4c575b61048290604051918291826129f9565b503d805f833e611b5c8183612b23565b810190602081830312610252578051906001600160401b03821161025257019080601f83011215610252578151611b9281612d98565b92611ba06040519485612b23565b81845260208085019260051b82010192831161025257602001905b828210611bce5750505061048290611b3c565b8151815260209182019101611bbb565b3461025257611bec36612a32565b905f52600a60205260405f20905f52602052602060ff60405f205416604051908152f35b3461025257611c1e36612a32565b905f52600760205260405f20905f5260205260405f206040519081602082549182815201915f5260205f20905f5b818110611c6357610482856105f781870382612b23565b8254845260209093019260019283019201611c4c565b3461025257611c8736612a32565b905f52600460205260405f20905f52602052602060405f2054604051908152f35b346102525760c036600319011261025257611cc161294c565b6024356001600160401b03811161025257611ce0903690600401612986565b6044929192356001600160401b03811161025257611d02903690600401612986565b606435949160843560a4356001600160401b03811161025257611d29903690600401612986565b6001600160a01b03881697919490939133899003611f38575b50875f52601060205260ff60405f205416611f2957611d6b611d65368989612c14565b89612f2e565b80611f13575b505086611f04575b80611ef4575b5080611ed8575b5050611d9e5f5160206135aa5f395f51905f52613057565b825f52600260205260405f205f5160206135aa5f395f51905f525f5260205260405f20600160ff19825416179055611de35f5160206135aa5f395f51905f528461311e565b611df95f5160206135ea5f395f51905f52613057565b825f52600360205260405f205f5160206135ea5f395f51905f525f526020524260405f2055611e355f5160206135ea5f395f51905f52846133c7565b825f52601060205260405f20600160ff19825416179055600f5491600160401b831015611ec457611e8f8360017f8eaa3502703c7da17066b3a473a66f5aa7a47821acd5b8ea86816207db42baeb9501600f55600f612d42565b81549060031b9086821b9160018060a01b03901b1916179055611ebf604051928392602084526020840191612c4a565b0390a3005b634e487b7160e01b5f52604160045260245ffd5b611eed91611ee7913691612c14565b84612f97565b8480611d86565b611efe9086613014565b86611d7f565b611f0e8787612fc9565b611d79565b611f2291611625913691612c14565b8780611d71565b630ea075bf60e21b5f5260045ffd5b5f809160405160208101906317aa5fb760e11b825233602482015260248152611f62604482612b23565b51915afa611f6e612be5565b9015908115611f83575b506103f95789611d42565b611f97915060208082518301019101612bcd565b158a611f78565b3461025257611fac36612a32565b905f525f60205260405f20905f52602052610482611fcc60405f20612ca2565b604051918291602083526020830190612962565b34610252576020366003190112610252576004355f52600860205260405f206040519081602082549182815201915f5260205f20905f5b81811061202e57610482856105f781870382612b23565b8254845260209093019260019283019201612017565b346102525760403660031901126102525761205d61294c565b6024358015158103610252576001600160a01b0382169133839003612124575b50815f52601060205260ff60405f2054161561039f576120e1906120ad5f5160206135aa5f395f51905f52613057565b825f52600260205260405f205f5160206135aa5f395f51905f525f5260205260405f209060ff801983541691151516179055565b6120f85f5160206135aa5f395f51905f528261311e565b7fbaef45cead810df032ca6f6dc22d0fa78f7bc08a3e2f3177cfe2f37f4b08071a6020604051428152a2005b5f809160405160208101906317aa5fb760e11b82523360248201526024815261214e604482612b23565b51915afa61215a612be5565b901590811561216f575b506103f9578261207d565b612183915060208082518301019101612bcd565b1583612164565b34610252575f36600319011261025257602060405160078152f35b34610252576121b3366129b3565b91926001600160a01b03811692919033849003612342575b50825f52601060205260ff60405f2054161561039f577fa11877924d9daa9614f6d5965e1a69c3786db3359adf0aeab5ee8209f1bd53ba91612235612211368385612c14565b61221a87613057565b855f52600560205260405f20875f5260205260405f20612eee565b61223e846134aa565b835f52600960205260405f20855f5260205260ff60405f20541615612307575b835f52600a60205260405f20855f5260205260405f20600660ff1982541617905584847f34d84e67b0f324bfad877e5b27265f696957cae3ba7fbfc8a1a4a365c3672ecd60406122ad83613526565b835f52600b602052815f20855f52602052815f206001600160401b0382166001600160401b03198254161790556001600160401b0382519160068352166020820152a3611ebf604051928392602084526020840191612c4a565b835f52600860205261231c8560405f206130e2565b835f52600960205260405f20855f5260205260405f20600160ff1982541617905561225e565b5f809160405160208101906317aa5fb760e11b82523360248201526024815261236c604482612b23565b51915afa612378612be5565b901590811561238d575b506103f957846121cb565b6123a1915060208082518301019101612bcd565b1585612382565b34610252576020366003190112610252576123c161294c565b61014082018281106001600160401b03821117611ec4576040526060825260208201906060825260408301905f825260608401925f845260808501926060845260a08601905f825260c08701906060825260e08801955f87526101008901945f86526101208a01965f885260018060a01b03166040516331477b9b60e01b81528160048201527f741f18d320914b57eeda3ea07ece8db6081598de8a16ee7bc4b1c5f9cd2ff58c60248201525f81604481305afa9081156107b8575f91612932575b508b526040516331477b9b60e01b8152600481018290527fdad653fa7edcab3e172554f9151ceed8376805e74d4faab7981fa443b49df6fa60248201525f81604481305afa9081156107b8575f91612918575b508252604051630df675ff60e21b8152600481018290527f7ad476546f838ffce7f3c5df5e7e401e8ce6deddb9db5f3419246c36cb4f1db66024820152602081604481305afa9081156107b8575f916128e6575b508452604051630df675ff60e21b8152600481018290527f2350465d1abd6707816222ee93f90a52b2a532ab64450425cc0d2db9eeb29f416024820152602081604481305afa9081156107b8575f916128b4575b508a526040516331477b9b60e01b8152600481018290525f51602061360a5f395f51905f5260248201525f81604481305afa9081156107b8575f9161289a575b508352604051630df675ff60e21b8152600481018290525f51602061358a5f395f51905f526024820152602081604481305afa9081156107b8575f91612868575b5086526040516331477b9b60e01b8152600481018290527f52103a2540087a91d4a4ff00d4b13aa3dd3b805ba7d45f61d059761c7a07275e60248201525f81604481305afa9081156107b8575f9161284e575b50855260405163263abc4760e21b8152600481018290525f5160206135aa5f395f51905f526024820152602081604481305afa9081156107b8575f9161282f575b5015158952604051633d356c9360e11b8152600481018290525f5160206135ea5f395f51905f526024820152602081604481305afa9081156107b8575f916127fd575b50875260405190634710e56560e11b82526004820152602081602481305afa9081156107b8575f916127a9575b50916101609961275561278d979695936001600160401b0361277496168b526127426040519e8f9e8f9160208352519161014060208201520190612962565b90518d8203601f190160408f0152612962565b925160608c01525160808b015251898203601f190160a08b0152612962565b915160c088015251868203601f190160e0880152612962565b9251151561010085015251610120840152516101408301520390f35b90506020959493919295813d6020116127f5575b816127ca60209383612b23565b810103126102525751946001600160401b038616860361025257939492939092909190610160612703565b3d91506127bd565b90506020813d602011612827575b8161281860209383612b23565b8101031261025257518c6126d6565b3d915061280b565b612848915060203d6020116113c7576113b98183612b23565b8c612693565b61286291503d805f833e61144e8183612b23565b8c612652565b90506020813d602011612892575b8161288360209383612b23565b8101031261025257518c6125ff565b3d9150612876565b6128ae91503d805f833e61144e8183612b23565b8c6125be565b90506020813d6020116128de575b816128cf60209383612b23565b8101031261025257518c61257e565b3d91506128c2565b90506020813d602011612910575b8161290160209383612b23565b8101031261025257518c61252a565b3d91506128f4565b61292c91503d805f833e61144e8183612b23565b8c6124d6565b61294691503d805f833e61144e8183612b23565b8c612483565b600435906001600160a01b038216820361025257565b805180835260209291819084018484015e5f828201840152601f01601f1916010190565b9181601f84011215610252578235916001600160401b038311610252576020838186019501011161025257565b6060600319820112610252576004356001600160a01b0381168103610252579160243591604435906001600160401b038211610252576129f591600401612986565b9091565b60206040818301928281528451809452019201905f5b818110612a1c5750505090565b8251845260209384019390920191600101612a0f565b6040906003190112610252576004359060243590565b6060906003190112610252576004356001600160a01b03811681036102525790602435906044356001600160a01b03811681036102525790565b602081016020825282518091526040820191602060408360051b8301019401925f915b838310612ab457505050505090565b9091929394602080612ad2600193603f198682030187528951612962565b97019301930191939290612aa5565b60206040818301928281528451809452019201905f5b818110612b045750505090565b82516001600160a01b0316845260209384019390920191600101612af7565b90601f801991011681019081106001600160401b03821117611ec457604052565b6001600160401b038111611ec457601f01601f191660200190565b81601f8201121561025257805190612b7682612b44565b92612b846040519485612b23565b8284526020838301011161025257815f9260208093018386015e8301015290565b906020828203126102525781516001600160401b03811161025257612bca9201612b5f565b90565b90816020910312610252575180151581036102525790565b3d15612c0f573d90612bf682612b44565b91612c046040519384612b23565b82523d5f602084013e565b606090565b929192612c2082612b44565b91612c2e6040519384612b23565b829481845281830111610252578281602093845f960137010152565b908060209392818452848401375f828201840152601f01601f1916010190565b90600182811c92168015612c98575b6020831014612c8457565b634e487b7160e01b5f52602260045260245ffd5b91607f1691612c79565b9060405191825f825492612cb584612c6a565b8084529360018116908115612d205750600114612cdc575b50612cda92500383612b23565b565b90505f9291925260205f20905f915b818310612d04575050906020612cda928201015f612ccd565b6020919350806001915483858901015201910190918492612ceb565b905060209250612cda94915060ff191682840152151560051b8201015f612ccd565b805482101561030f575f5260205f2001905f90565b8054600160401b811015611ec457612d7491600182018155612d42565b81546001600160a01b0393841660039290921b91821b9390911b1916919091179055565b6001600160401b038111611ec45760051b60200190565b51906001600160a01b038216820361025257565b939291602091612ddb91604087526040870191612c4a565b930152565b818110612deb575050565b5f8155600101612de0565b91909182516001600160401b038111611ec457612e138254612c6a565b601f8111612eb3575b506020601f8211600114612e5557819293945f92612e4a575b50508160011b915f199060031b1c1916179055565b015190505f80612e35565b601f19821690835f52805f20915f5b818110612e9b57509583600195969710612e83575b505050811b019055565b01515f1960f88460031b161c191690555f8080612e79565b9192602060018192868b015181550194019201612e64565b612ede90835f5260205f20601f840160051c81019160208510612ee4575b601f0160051c0190612de0565b5f612e1c565b9091508190612ed1565b8054600160401b811015611ec457612f0b91600182018155612d42565b919091612f1b57612cda91612df6565b634e487b7160e01b5f525f60045260245ffd5b7f741f18d320914b57eeda3ea07ece8db6081598de8a16ee7bc4b1c5f9cd2ff58c90612f60612cda936114af84613057565b613201565b7fdad653fa7edcab3e172554f9151ceed8376805e74d4faab7981fa443b49df6fa90612f60612cda936114af84613057565b7f52103a2540087a91d4a4ff00d4b13aa3dd3b805ba7d45f61d059761c7a07275e90612f60612cda936114af84613057565b7f7ad476546f838ffce7f3c5df5e7e401e8ce6deddb9db5f3419246c36cb4f1db690612cda92612ff883613057565b815f52600460205260405f20835f5260205260405f20556132e4565b7f2350465d1abd6707816222ee93f90a52b2a532ab64450425cc0d2db9eeb29f4190612cda92612ff883613057565b805182101561030f5760209160051b010190565b60405163170da40760e21b815260048101919091526020816024817f00000000000000000000000000000000000000000000000000000000000000006001600160a01b03165afa9081156107b8575f916130c3575b50156130b457565b632263bf1f60e21b5f5260045ffd5b6130dc915060203d6020116113c7576113b98183612b23565b5f6130ac565b805490600160401b821015611ec4578161310491600161311a94018155612d42565b819391549060031b91821b915f19901b19161790565b9055565b613127816134aa565b805f52600960205260405f20825f5260205260ff60405f205416156131c6575b805f52600a60205260405f20825f5260205260405f20600360ff198254161790555f5160206135ca5f395f51905f52604061318183613526565b835f52600b602052815f20855f52602052815f206001600160401b0382166001600160401b03198254161790556001600160401b0382519160038352166020820152a3565b805f5260086020526131db8260405f206130e2565b805f52600960205260405f20825f5260205260405f20600160ff19825416179055613147565b61320a816134aa565b805f52600960205260405f20825f5260205260ff60405f205416156132a9575b805f52600a60205260405f20825f5260205260405f20600160ff198254161790555f5160206135ca5f395f51905f52604061326483613526565b835f52600b602052815f20855f52602052815f206001600160401b0382166001600160401b03198254161790556001600160401b0382519160018352166020820152a3565b805f5260086020526132be8260405f206130e2565b805f52600960205260405f20825f5260205260405f20600160ff1982541617905561322a565b6132ed816134aa565b805f52600960205260405f20825f5260205260ff60405f2054161561338c575b805f52600a60205260405f20825f5260205260405f20600560ff198254161790555f5160206135ca5f395f51905f52604061334783613526565b835f52600b602052815f20855f52602052815f206001600160401b0382166001600160401b03198254161790556001600160401b0382519160058352166020820152a3565b805f5260086020526133a18260405f206130e2565b805f52600960205260405f20825f5260205260405f20600160ff1982541617905561330d565b6133d0816134aa565b805f52600960205260405f20825f5260205260ff60405f2054161561346f575b805f52600a60205260405f20825f5260205260405f20600460ff198254161790555f5160206135ca5f395f51905f52604061342a83613526565b835f52600b602052815f20855f52602052815f206001600160401b0382166001600160401b03198254161790556001600160401b0382519160048352166020820152a3565b805f5260086020526134848260405f206130e2565b805f52600960205260405f20825f5260205260405f20600160ff198254161790556133f0565b805f52600e60205260ff60405f205416156134c25750565b805f52600e60205260405f20600160ff19825416179055600d54600160401b811015611ec4576134fe613104826001859401600d55600d612d42565b90557f34f1cb4778d9578e1af878b07d3ae7e9f2f32fafcaa3096fe48153670a71bfaf5f80a2565b805f52600c60205260016001600160401b0360405f20541601906001600160401b038211613575575f52600c60205260405f206001600160401b0382166001600160401b031982541617905590565b634e487b7160e01b5f52601160045260245ffdfe60044e01e8c9d502074d6e4c9fbe43e16fe2b136bd8966bb2ab23a2d72d4273a281c423f2145186a4090d693a24dbc925f9b316e0fd90ce376faf1d1e2844b695167ea251eeaf052f4c7bd769efb5b17e6ba98908050b9929a0bd192b57274fb7ca66cbe7b5accaa5484519a039cafa6dcd01aae976e3f4e0cba964d1e516b649824200aa5377f0e47b53debd90bf2ab62c1ef1c349e1b361abbaadc4ece4a22a26469706673582212207f41fa60bbaaa210c09f6b281a3a63ef84cddabd48477dd7a2309f3a9a9bb34364736f6c634300081c0033","linkReferences":{}},"methodIdentifiers":{"DT_ADDRESS_ARR_PUB()":"213aaad7","DT_ADDRESS_PUB()":"ece6bebc","DT_BOOL_PUB()":"93cbc37d","DT_BYTES32_ARR_PUB()":"f98eed69","DT_BYTES32_PUB()":"c3174629","DT_STRING_ARR_PUB()":"8e101369","DT_STRING_PUB()":"a954aea1","DT_UINT256_PUB()":"be78c068","ONTOLOGY()":"e63cdb42","addMultiAddressProperty(address,bytes32,address)":"4c82bf5b","addMultiStringProperty(address,bytes32,string)":"194619eb","agentCount()":"b7dc1284","allSubjects()":"c3a6123d","clearMultiAddressProperty(address,bytes32)":"8b43e1f4","clearMultiStringProperty(address,bytes32)":"72ef05bd","datatypeOf(bytes32,bytes32)":"42921cf3","getAddress(bytes32,bytes32)":"d3a39686","getAddressArr(bytes32,bytes32)":"e4281bc3","getAddressProperty(address,bytes32)":"54e89cd4","getAgentAt(uint256)":"e468619d","getAllAgents()":"860e4ac6","getBool(bytes32,bytes32)":"98eaf11c","getBoolProperty(address,bytes32)":"70ecabaf","getBytes32(bytes32,bytes32)":"37d9d7fc","getBytes32Arr(bytes32,bytes32)":"4083843e","getCore(address)":"0a9a5cce","getMultiAddressProperty(address,bytes32)":"9f024c83","getMultiStringProperty(address,bytes32)":"761eefdc","getPredicateKeys(address)":"465e9c86","getString(bytes32,bytes32)":"31477b9b","getStringArr(bytes32,bytes32)":"cb954f30","getStringProperty(address,bytes32)":"663159e0","getUint(bytes32,bytes32)":"7a6ad926","getUintProperty(address,bytes32)":"89e28982","isRegistered(address)":"c3c5a547","isSet(bytes32,bytes32)":"bb6b0c3b","predicatesOf(bytes32)":"30547181","register(address,string,string,bytes32,bytes32,string)":"36129bcb","setActive(address,bool)":"2ce962cf","setAddressProperty(address,bytes32,address)":"58220fc7","setBoolProperty(address,bytes32,bool)":"89847eb0","setMetadataURI(address,string,bytes32)":"8225ffcb","setSchemaURI(address,string)":"e45e444e","setStringProperty(address,bytes32,string)":"64741c65","setUintProperty(address,bytes32,uint256)":"7e398880","subjectCount()":"639a2e10","subjectVersion(bytes32)":"8e21caca","updateCore(address,string,string,bytes32,bytes32)":"5d782668","updatedAt(bytes32,bytes32)":"880eadce"},"id":77}