{"abi":[{"type":"constructor","inputs":[{"name":"ontologyRegistry","type":"address","internalType":"address"}],"stateMutability":"nonpayable"},{"type":"function","name":"DT_ADDRESS_ARR_PUB","inputs":[],"outputs":[{"name":"","type":"uint8","internalType":"uint8"}],"stateMutability":"pure"},{"type":"function","name":"DT_ADDRESS_PUB","inputs":[],"outputs":[{"name":"","type":"uint8","internalType":"uint8"}],"stateMutability":"pure"},{"type":"function","name":"DT_BOOL_PUB","inputs":[],"outputs":[{"name":"","type":"uint8","internalType":"uint8"}],"stateMutability":"pure"},{"type":"function","name":"DT_BYTES32_ARR_PUB","inputs":[],"outputs":[{"name":"","type":"uint8","internalType":"uint8"}],"stateMutability":"pure"},{"type":"function","name":"DT_BYTES32_PUB","inputs":[],"outputs":[{"name":"","type":"uint8","internalType":"uint8"}],"stateMutability":"pure"},{"type":"function","name":"DT_STRING_ARR_PUB","inputs":[],"outputs":[{"name":"","type":"uint8","internalType":"uint8"}],"stateMutability":"pure"},{"type":"function","name":"DT_STRING_PUB","inputs":[],"outputs":[{"name":"","type":"uint8","internalType":"uint8"}],"stateMutability":"pure"},{"type":"function","name":"DT_UINT256_PUB","inputs":[],"outputs":[{"name":"","type":"uint8","internalType":"uint8"}],"stateMutability":"pure"},{"type":"function","name":"ONTOLOGY","inputs":[],"outputs":[{"name":"","type":"address","internalType":"contract OntologyTermRegistry"}],"stateMutability":"view"},{"type":"function","name":"addMultiAddressProperty","inputs":[{"name":"agent","type":"address","internalType":"address"},{"name":"predicate","type":"bytes32","internalType":"bytes32"},{"name":"value","type":"address","internalType":"address"}],"outputs":[],"stateMutability":"nonpayable"},{"type":"function","name":"addMultiStringProperty","inputs":[{"name":"agent","type":"address","internalType":"address"},{"name":"predicate","type":"bytes32","internalType":"bytes32"},{"name":"value","type":"string","internalType":"string"}],"outputs":[],"stateMutability":"nonpayable"},{"type":"function","name":"agentCount","inputs":[],"outputs":[{"name":"","type":"uint256","internalType":"uint256"}],"stateMutability":"view"},{"type":"function","name":"allSubjects","inputs":[],"outputs":[{"name":"","type":"bytes32[]","internalType":"bytes32[]"}],"stateMutability":"view"},{"type":"function","name":"clearMultiAddressProperty","inputs":[{"name":"agent","type":"address","internalType":"address"},{"name":"predicate","type":"bytes32","internalType":"bytes32"}],"outputs":[],"stateMutability":"nonpayable"},{"type":"function","name":"clearMultiStringProperty","inputs":[{"name":"agent","type":"address","internalType":"address"},{"name":"predicate","type":"bytes32","internalType":"bytes32"}],"outputs":[],"stateMutability":"nonpayable"},{"type":"function","name":"datatypeOf","inputs":[{"name":"subject","type":"bytes32","internalType":"bytes32"},{"name":"predicate","type":"bytes32","internalType":"bytes32"}],"outputs":[{"name":"","type":"uint8","internalType":"uint8"}],"stateMutability":"view"},{"type":"function","name":"getAddress","inputs":[{"name":"subject","type":"bytes32","internalType":"bytes32"},{"name":"predicate","type":"bytes32","internalType":"bytes32"}],"outputs":[{"name":"","type":"address","internalType":"address"}],"stateMutability":"view"},{"type":"function","name":"getAddressArr","inputs":[{"name":"subject","type":"bytes32","internalType":"bytes32"},{"name":"predicate","type":"bytes32","internalType":"bytes32"}],"outputs":[{"name":"","type":"address[]","internalType":"address[]"}],"stateMutability":"view"},{"type":"function","name":"getAddressProperty","inputs":[{"name":"agent","type":"address","internalType":"address"},{"name":"predicate","type":"bytes32","internalType":"bytes32"}],"outputs":[{"name":"","type":"address","internalType":"address"}],"stateMutability":"view"},{"type":"function","name":"getAgentAt","inputs":[{"name":"index","type":"uint256","internalType":"uint256"}],"outputs":[{"name":"","type":"address","internalType":"address"}],"stateMutability":"view"},{"type":"function","name":"getAllAgents","inputs":[],"outputs":[{"name":"","type":"address[]","internalType":"address[]"}],"stateMutability":"view"},{"type":"function","name":"getBool","inputs":[{"name":"subject","type":"bytes32","internalType":"bytes32"},{"name":"predicate","type":"bytes32","internalType":"bytes32"}],"outputs":[{"name":"","type":"bool","internalType":"bool"}],"stateMutability":"view"},{"type":"function","name":"getBoolProperty","inputs":[{"name":"agent","type":"address","internalType":"address"},{"name":"predicate","type":"bytes32","internalType":"bytes32"}],"outputs":[{"name":"","type":"bool","internalType":"bool"}],"stateMutability":"view"},{"type":"function","name":"getBytes32","inputs":[{"name":"subject","type":"bytes32","internalType":"bytes32"},{"name":"predicate","type":"bytes32","internalType":"bytes32"}],"outputs":[{"name":"","type":"bytes32","internalType":"bytes32"}],"stateMutability":"view"},{"type":"function","name":"getBytes32Arr","inputs":[{"name":"subject","type":"bytes32","internalType":"bytes32"},{"name":"predicate","type":"bytes32","internalType":"bytes32"}],"outputs":[{"name":"","type":"bytes32[]","internalType":"bytes32[]"}],"stateMutability":"view"},{"type":"function","name":"getCore","inputs":[{"name":"agent","type":"address","internalType":"address"}],"outputs":[{"name":"c","type":"tuple","internalType":"struct AgentAccountResolver.CoreRecord","components":[{"name":"displayName","type":"string","internalType":"string"},{"name":"description","type":"string","internalType":"string"},{"name":"agentType","type":"bytes32","internalType":"bytes32"},{"name":"agentClass","type":"bytes32","internalType":"bytes32"},{"name":"metadataURI","type":"string","internalType":"string"},{"name":"metadataHash","type":"bytes32","internalType":"bytes32"},{"name":"schemaURI","type":"string","internalType":"string"},{"name":"active","type":"bool","internalType":"bool"},{"name":"registeredAt","type":"uint256","internalType":"uint256"},{"name":"updatedAt","type":"uint256","internalType":"uint256"}]}],"stateMutability":"view"},{"type":"function","name":"getMultiAddressProperty","inputs":[{"name":"agent","type":"address","internalType":"address"},{"name":"predicate","type":"bytes32","internalType":"bytes32"}],"outputs":[{"name":"","type":"address[]","internalType":"address[]"}],"stateMutability":"view"},{"type":"function","name":"getMultiStringProperty","inputs":[{"name":"agent","type":"address","internalType":"address"},{"name":"predicate","type":"bytes32","internalType":"bytes32"}],"outputs":[{"name":"","type":"string[]","internalType":"string[]"}],"stateMutability":"view"},{"type":"function","name":"getPredicateKeys","inputs":[{"name":"agent","type":"address","internalType":"address"}],"outputs":[{"name":"","type":"bytes32[]","internalType":"bytes32[]"}],"stateMutability":"view"},{"type":"function","name":"getString","inputs":[{"name":"subject","type":"bytes32","internalType":"bytes32"},{"name":"predicate","type":"bytes32","internalType":"bytes32"}],"outputs":[{"name":"","type":"string","internalType":"string"}],"stateMutability":"view"},{"type":"function","name":"getStringArr","inputs":[{"name":"subject","type":"bytes32","internalType":"bytes32"},{"name":"predicate","type":"bytes32","internalType":"bytes32"}],"outputs":[{"name":"","type":"string[]","internalType":"string[]"}],"stateMutability":"view"},{"type":"function","name":"getStringProperty","inputs":[{"name":"agent","type":"address","internalType":"address"},{"name":"predicate","type":"bytes32","internalType":"bytes32"}],"outputs":[{"name":"","type":"string","internalType":"string"}],"stateMutability":"view"},{"type":"function","name":"getUint","inputs":[{"name":"subject","type":"bytes32","internalType":"bytes32"},{"name":"predicate","type":"bytes32","internalType":"bytes32"}],"outputs":[{"name":"","type":"uint256","internalType":"uint256"}],"stateMutability":"view"},{"type":"function","name":"getUintProperty","inputs":[{"name":"agent","type":"address","internalType":"address"},{"name":"predicate","type":"bytes32","internalType":"bytes32"}],"outputs":[{"name":"","type":"uint256","internalType":"uint256"}],"stateMutability":"view"},{"type":"function","name":"isRegistered","inputs":[{"name":"agent","type":"address","internalType":"address"}],"outputs":[{"name":"","type":"bool","internalType":"bool"}],"stateMutability":"view"},{"type":"function","name":"isSet","inputs":[{"name":"subject","type":"bytes32","internalType":"bytes32"},{"name":"predicate","type":"bytes32","internalType":"bytes32"}],"outputs":[{"name":"","type":"bool","internalType":"bool"}],"stateMutability":"view"},{"type":"function","name":"predicatesOf","inputs":[{"name":"subject","type":"bytes32","internalType":"bytes32"}],"outputs":[{"name":"","type":"bytes32[]","internalType":"bytes32[]"}],"stateMutability":"view"},{"type":"function","name":"register","inputs":[{"name":"agent","type":"address","internalType":"address"},{"name":"displayName","type":"string","internalType":"string"},{"name":"description","type":"string","internalType":"string"},{"name":"agentType","type":"bytes32","internalType":"bytes32"},{"name":"agentClass","type":"bytes32","internalType":"bytes32"},{"name":"schemaURI","type":"string","internalType":"string"}],"outputs":[],"stateMutability":"nonpayable"},{"type":"function","name":"setActive","inputs":[{"name":"agent","type":"address","internalType":"address"},{"name":"active","type":"bool","internalType":"bool"}],"outputs":[],"stateMutability":"nonpayable"},{"type":"function","name":"setAddressProperty","inputs":[{"name":"agent","type":"address","internalType":"address"},{"name":"predicate","type":"bytes32","internalType":"bytes32"},{"name":"value","type":"address","internalType":"address"}],"outputs":[],"stateMutability":"nonpayable"},{"type":"function","name":"setBoolProperty","inputs":[{"name":"agent","type":"address","internalType":"address"},{"name":"predicate","type":"bytes32","internalType":"bytes32"},{"name":"value","type":"bool","internalType":"bool"}],"outputs":[],"stateMutability":"nonpayable"},{"type":"function","name":"setMetadataURI","inputs":[{"name":"agent","type":"address","internalType":"address"},{"name":"uri","type":"string","internalType":"string"},{"name":"hash","type":"bytes32","internalType":"bytes32"}],"outputs":[],"stateMutability":"nonpayable"},{"type":"function","name":"setSchemaURI","inputs":[{"name":"agent","type":"address","internalType":"address"},{"name":"uri","type":"string","internalType":"string"}],"outputs":[],"stateMutability":"nonpayable"},{"type":"function","name":"setStringProperty","inputs":[{"name":"agent","type":"address","internalType":"address"},{"name":"predicate","type":"bytes32","internalType":"bytes32"},{"name":"value","type":"string","internalType":"string"}],"outputs":[],"stateMutability":"nonpayable"},{"type":"function","name":"setUintProperty","inputs":[{"name":"agent","type":"address","internalType":"address"},{"name":"predicate","type":"bytes32","internalType":"bytes32"},{"name":"value","type":"uint256","internalType":"uint256"}],"outputs":[],"stateMutability":"nonpayable"},{"type":"function","name":"subjectCount","inputs":[],"outputs":[{"name":"","type":"uint256","internalType":"uint256"}],"stateMutability":"view"},{"type":"function","name":"subjectVersion","inputs":[{"name":"subject","type":"bytes32","internalType":"bytes32"}],"outputs":[{"name":"","type":"uint64","internalType":"uint64"}],"stateMutability":"view"},{"type":"function","name":"updateCore","inputs":[{"name":"agent","type":"address","internalType":"address"},{"name":"displayName","type":"string","internalType":"string"},{"name":"description","type":"string","internalType":"string"},{"name":"agentType","type":"bytes32","internalType":"bytes32"},{"name":"agentClass","type":"bytes32","internalType":"bytes32"}],"outputs":[],"stateMutability":"nonpayable"},{"type":"function","name":"updatedAt","inputs":[{"name":"subject","type":"bytes32","internalType":"bytes32"},{"name":"predicate","type":"bytes32","internalType":"bytes32"}],"outputs":[{"name":"","type":"uint64","internalType":"uint64"}],"stateMutability":"view"},{"type":"event","name":"AgentRegistered","inputs":[{"name":"agent","type":"address","indexed":true,"internalType":"address"},{"name":"displayName","type":"string","indexed":false,"internalType":"string"},{"name":"agentType","type":"bytes32","indexed":true,"internalType":"bytes32"}],"anonymous":false},{"type":"event","name":"AgentUpdated","inputs":[{"name":"agent","type":"address","indexed":true,"internalType":"address"},{"name":"updatedAt","type":"uint256","indexed":false,"internalType":"uint256"}],"anonymous":false},{"type":"event","name":"AttributeAppended","inputs":[{"name":"subject","type":"bytes32","indexed":true,"internalType":"bytes32"},{"name":"predicate","type":"bytes32","indexed":true,"internalType":"bytes32"},{"name":"datatype","type":"uint8","indexed":false,"internalType":"uint8"},{"name":"version","type":"uint64","indexed":false,"internalType":"uint64"}],"anonymous":false},{"type":"event","name":"AttributeSet","inputs":[{"name":"subject","type":"bytes32","indexed":true,"internalType":"bytes32"},{"name":"predicate","type":"bytes32","indexed":true,"internalType":"bytes32"},{"name":"datatype","type":"uint8","indexed":false,"internalType":"uint8"},{"name":"version","type":"uint64","indexed":false,"internalType":"uint64"}],"anonymous":false},{"type":"event","name":"AttributeUnset","inputs":[{"name":"subject","type":"bytes32","indexed":true,"internalType":"bytes32"},{"name":"predicate","type":"bytes32","indexed":true,"internalType":"bytes32"},{"name":"version","type":"uint64","indexed":false,"internalType":"uint64"}],"anonymous":false},{"type":"event","name":"CoreUpdated","inputs":[{"name":"agent","type":"address","indexed":true,"internalType":"address"},{"name":"displayName","type":"string","indexed":false,"internalType":"string"},{"name":"agentType","type":"bytes32","indexed":false,"internalType":"bytes32"}],"anonymous":false},{"type":"event","name":"MetadataUpdated","inputs":[{"name":"agent","type":"address","indexed":true,"internalType":"address"},{"name":"metadataURI","type":"string","indexed":false,"internalType":"string"},{"name":"metadataHash","type":"bytes32","indexed":false,"internalType":"bytes32"}],"anonymous":false},{"type":"event","name":"MultiPropertyAdded","inputs":[{"name":"agent","type":"address","indexed":true,"internalType":"address"},{"name":"predicate","type":"bytes32","indexed":true,"internalType":"bytes32"},{"name":"value","type":"string","indexed":false,"internalType":"string"}],"anonymous":false},{"type":"event","name":"PropertySet","inputs":[{"name":"agent","type":"address","indexed":true,"internalType":"address"},{"name":"predicate","type":"bytes32","indexed":true,"internalType":"bytes32"}],"anonymous":false},{"type":"event","name":"SubjectFirstSeen","inputs":[{"name":"subject","type":"bytes32","indexed":true,"internalType":"bytes32"}],"anonymous":false},{"type":"error","name":"AlreadyRegistered","inputs":[]},{"type":"error","name":"AttributeNotSet","inputs":[]},{"type":"error","name":"NotAgentOwner","inputs":[]},{"type":"error","name":"NotRegistered","inputs":[]},{"type":"error","name":"PredicateNotActive","inputs":[]}],"bytecode":{"object":"0x60a034606f57601f61362438819003918201601f19168301916001600160401b03831184841017607357808492602094604052833981010312606f57516001600160a01b03811690819003606f5760805260405161359c908161008882396080518181816102860152612fb10152f35b5f80fd5b634e487b7160e01b5f52604160045260245ffdfe6080806040526004361015610012575f80fd5b5f3560e01c9081630a9a5cce146122e557508063194619eb146120f1578063213aaad7146120d65780632ce962cf14611f9d5780633054718114611f3957806331477b9b14611ef757806336129bcb14611c1257806337d9d7fc14611be35780634083843e14611b7a57806342921cf314611b48578063465e9c8614611a5b5780634c82bf5b146118ab57806354e89cd41461180857806358220fc71461162f5780635d782668146114ec578063639a2e10146114cf57806364741c6514611401578063663159e01461137357806370ecabaf146112e457806372ef05bd1461106c578063761eefdc14610f575780637a6ad92614610f285780637e39888014610e5f5780638225ffcb14610cb4578063860e4ac614610c37578063880eadce14610bff57806389847eb014610aef57806389e2898214610a5d5780638b43e1f4146108515780638e101369146108365780638e21caca1461080357806393cbc37d146107e857806398eaf11c146107b45780639f024c83146106ac578063a954aea114610691578063b7dc128414610674578063bb6b0c3b14610640578063be78c06814610625578063c31746291461060a578063c3a6123d1461058a578063c3c5a5471461054d578063cb954f30146104cd578063d3a3968614610496578063e4281bc314610414578063e45e444e14610323578063e468619d146102b5578063e63cdb4214610271578063ece6bebc146102565763f98eed6914610237575f80fd5b34610252575f36600319011261025257602060405160088152f35b5f80fd5b34610252575f36600319011261025257602060405160028152f35b34610252575f366003190112610252576040517f00000000000000000000000000000000000000000000000000000000000000006001600160a01b03168152602090f35b3461025257602036600319011261025257600435600f5481101561030f57600f5f527f8d1108e10bcb7c27dddfc02ed9d693a074039d026cf4ea4240b40f7d581ac80201546040516001600160a01b039091168152602090f35b634e487b7160e01b5f52603260045260245ffd5b346102525760403660031901126102525761033c612889565b6024356001600160401b0381116102525761035b9036906004016128c3565b90915f8060405160208101906317aa5fb760e11b825233602482015260248152610386604482612a60565b5190845afa610393612b22565b90159081156103f9575b506103ea576001600160a01b03165f8181526010602052604090205490919060ff16156103db576103d9926103d3913691612b51565b90612ed4565b005b63aba4733960e01b5f5260045ffd5b630e41dcbf60e21b5f5260045ffd5b61040d915060208082518301019101612b0a565b158461039d565b34610252576104223661296f565b905f52600660205260405f20905f5260205260405f206040519081602082549182815201915f5260205f20905f5b818110610477576104738561046781870382612a60565b60405191829182612a1e565b0390f35b82546001600160a01b0316845260209093019260019283019201610450565b34610252576104a43661296f565b905f52600160205260405f20905f52602052602060018060a01b0360405f205416604051908152f35b34610252576104db3661296f565b905f52600560205260405f20905f5260205260405f2080546104fc81612cd5565b9161050a6040519384612a60565b81835260208301905f5260205f205f915b838310610530576040518061047387826129bf565b60016020819261053f85612bdf565b81520192019201919061051b565b34610252576020366003190112610252576001600160a01b0361056e612889565b165f526010602052602060ff60405f2054166040519015158152f35b34610252575f36600319011261025257604051806020600d54918281520190600d5f527fd7b6990105719101dabeb77144f2a3385c8033acd3af97e9423a695e81ad1eb5905f5b8181106105f457610473856105e881870382612a60565b60405191829182612936565b82548452602090930192600192830192016105d1565b34610252575f36600319011261025257602060405160058152f35b34610252575f36600319011261025257602060405160048152f35b346102525761064e3661296f565b905f52600960205260405f20905f52602052602060ff60405f2054166040519015158152f35b34610252575f366003190112610252576020600f54604051908152f35b34610252575f36600319011261025257602060405160018152f35b34610252576040366003190112610252576106c5612889565b60405163e4281bc360e01b81526001600160a01b03909116600482015260248035908201525f81604481305afa80156107a9575f9061070f575b6104739060405191829182612a1e565b503d805f833e61071f8183612a60565b810190602081830312610252578051906001600160401b03821161025257019080601f8301121561025257815161075581612cd5565b926107636040519485612a60565b81845260208085019260051b82010192831161025257602001905b82821061079157505050610473906106ff565b6020809161079e84612cec565b81520191019061077e565b6040513d5f823e3d90fd5b34610252576107c23661296f565b905f52600260205260405f20905f52602052602060ff60405f2054166040519015158152f35b34610252575f36600319011261025257602060405160038152f35b34610252576020366003190112610252576004355f52600c60205260206001600160401b0360405f205416604051908152f35b34610252575f36600319011261025257602060405160068152f35b346102525760403660031901126102525761086a612889565b602435905f8060405160208101906317aa5fb760e11b825233602482015260248152610897604482612a60565b5190845afa6108a4612b22565b9015908115610a42575b506103ea576001600160a01b03165f8181526010602052604090205460ff16156103db5760405160206108e18183612a60565b5f82525f3681376108f184612f94565b825f526006815260405f20845f52815260405f2080545f825580610a29575b50505f5b8251811015610959575f8481526006835260408082208783528452902060019190610953906001600160a01b0361094b8488612f80565b511690612c94565b01610914565b84845f5160206135075f395f51905f52604085610975846133e7565b835f5260098152815f20855f52815260ff825f205416156109f4575b835f52600a8152815f20855f528152815f20600760ff198254161790556109b784613463565b5f858152600b83528381208782528352839020805467ffffffffffffffff19166001600160401b03909216918217905582516007815291820152a3005b835f5260088152610a0785835f2061301f565b835f5260098152815f20855f528152815f20600160ff19825416179055610991565b610a3b915f52825f2090810190612d1d565b8480610910565b610a56915060208082518301019101612b0a565b15836108ae565b3461025257604036600319011261025257610a76612889565b604051633d356c9360e11b81526001600160a01b0390911660048201526024803590820152602081604481305afa80156107a9575f90610abc575b602090604051908152f35b506020813d602011610ae7575b81610ad660209383612a60565b810103126102525760209051610ab1565b3d9150610ac9565b3461025257606036600319011261025257610b08612889565b60243590604435908115158203610252575f8060405160208101906317aa5fb760e11b825233602482015260248152610b42604482612a60565b5190845afa610b4f612b22565b9015908115610be4575b506103ea576001600160a01b03165f8181526010602052604090205490919060ff16156103db57610bb490610b8d84612f94565b825f52600260205260405f20845f5260205260405f209060ff801983541691151516179055565b610bbe828261305b565b7f74e683adab2ba72c5c6284ea9ea8bdfcadc2df1425f7c849e7ef5cc39084a93d5f80a3005b610bf8915060208082518301019101612b0a565b1584610b59565b3461025257610c0d3661296f565b905f52600b60205260405f20905f5260205260206001600160401b0360405f205416604051908152f35b34610252575f36600319011261025257604051806020600f54918281520190600f5f527f8d1108e10bcb7c27dddfc02ed9d693a074039d026cf4ea4240b40f7d581ac802905f5b818110610c95576104738561046781870382612a60565b82546001600160a01b0316845260209093019260019283019201610c7e565b3461025257606036600319011261025257610ccd612889565b6024356001600160401b03811161025257610cec9036906004016128c3565b604492919235915f8060405160208101906317aa5fb760e11b825233602482015260248152610d1c604482612a60565b5190845afa610d29612b22565b9015908115610e44575b506103ea576001600160a01b03165f8181526010602052604090205490939060ff16156103db57610e3f7fa703154b2e122dd100b1e7dde328b3553f5bffd34a1aca5c78adc6b54ccc932693610dca610d8d368686612b51565b610da35f5160206135475f395f51905f52612f94565b875f525f60205260405f205f5160206135475f395f51905f525f5260205260405f20612d33565b610de15f5160206135475f395f51905f528761313e565b610df75f5160206134c75f395f51905f52612f94565b855f52600460205260405f205f5160206134c75f395f51905f525f526020528060405f2055610e335f5160206134c75f395f51905f5287613221565b60405193849384612d00565b0390a2005b610e58915060208082518301019101612b0a565b1585610d33565b3461025257606036600319011261025257610e78612889565b602435905f8060405160208101906317aa5fb760e11b825233602482015260248152610ea5604482612a60565b5190845afa610eb2612b22565b9015908115610f0d575b506103ea576001600160a01b03165f8181526010602052604090205460ff16156103db57610ee982612f94565b805f52600360205260405f20825f5260205260443560405f2055610bbe8282613304565b610f21915060208082518301019101612b0a565b1583610ebc565b3461025257610f363661296f565b905f52600360205260405f20905f52602052602060405f2054604051908152f35b3461025257604036600319011261025257610f70612889565b604051630cb954f360e41b81526001600160a01b03909116600482015260248035908201525f81604481305afa80156107a9575f90610fba575b61047390604051918291826129bf565b503d805f833e610fca8183612a60565b810190602081830312610252578051906001600160401b038211610252570181601f82011215610252578051610fff81612cd5565b9161100d6040519384612a60565b81835260208084019260051b820101918483116102525760208201905b83821061103f57505050506104739150610faa565b81516001600160401b0381116102525760209161106188848094880101612a9c565b81520191019061102a565b3461025257604036600319011261025257611085612889565b602435905f8060405160208101906317aa5fb760e11b8252336024820152602481526110b2604482612a60565b5190845afa6110bf612b22565b90159081156112c9575b506103ea576001600160a01b03165f8181526010602052604090205460ff16156103db576040519160206110fd8185612a60565b5f845261110982612f94565b825f526005815260405f20825f52815260405f208054905f81558161125d575b50505f5b845181101561116757600190845f526005835260405f20845f52835261116160405f2061115a8389612f80565b5190612e2b565b0161112d565b5081835f5160206135075f395f51905f5260408294611185846133e7565b835f5260098152815f20855f52815260ff825f20541615611228575b835f52600a8152815f20855f528152815f20600660ff198254161790556111c784613463565b5f858152600b83528381208782528352839020805467ffffffffffffffff19166001600160401b03909216918217905582516006815291820152a37f74e683adab2ba72c5c6284ea9ea8bdfcadc2df1425f7c849e7ef5cc39084a93d5f80a3005b835f526008815261123b85835f2061301f565b835f5260098152815f20855f528152815f20600160ff198254161790556111a1565b5f52815f20908101905b81811015611129578061127c60019254612ba7565b80611289575b5001611267565b601f8111831461129e57505f81555b87611282565b6112b990825f5283601f875f20920160051c82019101612d1d565b805f525f84812081835555611298565b6112dd915060208082518301019101612b0a565b15836110c9565b34610252576040366003190112610252576112fd612889565b60405163263abc4760e21b81526001600160a01b0390911660048201526024803590820152602081604481305afa80156107a9576020915f91611346575b506040519015158152f35b6113669150823d841161136c575b61135e8183612a60565b810190612b0a565b8261133b565b503d611354565b346102525760403660031901126102525761138c612889565b6040516331477b9b60e01b81526001600160a01b03909116600482015260248035908201525f81604481305afa80156107a957610473915f916113df575b5060405191829160208352602083019061289f565b6113fb91503d805f833e6113f38183612a60565b810190612ae2565b826113ca565b346102525761140f366128f0565b91925f8060405160208101906317aa5fb760e11b82523360248201526024815261143a604482612a60565b5190845afa611447612b22565b90159081156114b4575b506103ea576001600160a01b03165f8181526010602052604090205490929060ff16156103db576114aa91611487913691612b51565b61149084612f94565b825f525f60205260405f20845f5260205260405f20612d33565b610bbe828261313e565b6114c8915060208082518301019101612b0a565b1585611451565b34610252575f366003190112610252576020600d54604051908152f35b346102525760a036600319011261025257611505612889565b6024356001600160401b038111610252576115249036906004016128c3565b6044356001600160401b038111610252576115439036906004016128c3565b606493919335945f8060405160208101906317aa5fb760e11b825233602482015260248152611573604482612a60565b5190845afa611580612b22565b9015908115611614575b506103ea576001600160a01b03165f8181526010602052604090205490959060ff16156103db576115fe6115f87fe2d8a38d12839c4dfcd22c70fceb0367dc646e6d0ac93795e9a33248cfc8682396610e3f946115f16115eb368a8a612b51565b8b612e6b565b3691612b51565b87612ea2565b6116088187612f06565b610e3360843587612f51565b611628915060208082518301019101612b0a565b158761158a565b346102525761163d36612985565b90915f8060405160208101906317aa5fb760e11b825233602482015260248152611668604482612a60565b5190845afa611675612b22565b90159081156117ed575b506103ea576001600160a01b03165f8181526010602052604090205490919060ff16156103db576116af83612f94565b815f52600160205260405f20835f5260205260405f209060018060a01b03166bffffffffffffffffffffffff60a01b8254161790556116ed816133e7565b805f52600960205260405f20825f5260205260ff60405f205416156117b2575b805f52600a60205260405f20825f5260205260405f20600260ff1982541617905581815f5160206135075f395f51905f52604061174983613463565b835f52600b602052815f20855f52602052815f206001600160401b0382166001600160401b03198254161790556001600160401b0382519160028352166020820152a37f74e683adab2ba72c5c6284ea9ea8bdfcadc2df1425f7c849e7ef5cc39084a93d5f80a3005b805f5260086020526117c78260405f2061301f565b805f52600960205260405f20825f5260205260405f20600160ff1982541617905561170d565b611801915060208082518301019101612b0a565b158461167f565b3461025257604036600319011261025257611821612889565b6040516369d1cb4360e11b81526001600160a01b0390911660048201526024803590820152602081604481305afa80156107a9575f90611871575b6040516001600160a01b039091168152602090f35b506020813d6020116118a3575b8161188b60209383612a60565b810103126102525761189e602091612cec565b61185c565b3d915061187e565b34610252576118b936612985565b90915f8060405160208101906317aa5fb760e11b8252336024820152602481526118e4604482612a60565b5190845afa6118f1612b22565b9015908115611a40575b506103ea576001600160a01b03165f8181526010602052604090205490919060ff16156103db5761194a9061192f84612f94565b825f52600660205260405f20845f5260205260405f20612c94565b611953816133e7565b805f52600960205260405f20825f5260205260ff60405f20541615611a05575b805f52600a60205260405f20825f5260205260405f20600760ff198254161790557f34d84e67b0f324bfad877e5b27265f696957cae3ba7fbfc8a1a4a365c3672ecd60406119c083613463565b835f52600b602052815f20855f52602052815f206001600160401b0382166001600160401b03198254161790556001600160401b0382519160078352166020820152a3005b805f526008602052611a1a8260405f2061301f565b805f52600960205260405f20825f5260205260405f20600160ff19825416179055611973565b611a54915060208082518301019101612b0a565b15846118fb565b3461025257602036600319011261025257611a74612889565b604051633054718160e01b81526001600160a01b0390911660048201525f81602481305afa80156107a9575f90611ab6575b6104739060405191829182612936565b503d805f833e611ac68183612a60565b810190602081830312610252578051906001600160401b03821161025257019080601f83011215610252578151611afc81612cd5565b92611b0a6040519485612a60565b81845260208085019260051b82010192831161025257602001905b828210611b385750505061047390611aa6565b8151815260209182019101611b25565b3461025257611b563661296f565b905f52600a60205260405f20905f52602052602060ff60405f205416604051908152f35b3461025257611b883661296f565b905f52600760205260405f20905f5260205260405f206040519081602082549182815201915f5260205f20905f5b818110611bcd57610473856105e881870382612a60565b8254845260209093019260019283019201611bb6565b3461025257611bf13661296f565b905f52600460205260405f20905f52602052602060405f2054604051908152f35b346102525760c036600319011261025257611c2b612889565b6024356001600160401b03811161025257611c4a9036906004016128c3565b6044356001600160401b03811161025257611c699036906004016128c3565b9290936064359460843560a4356001600160401b03811161025257611c929036906004016128c3565b9290935f8060405160208101906317aa5fb760e11b825233602482015260248152611cbe604482612a60565b5190845afa611ccb612b22565b9015908115611edc575b506103ea576001600160a01b03165f8181526010602052604090205490979060ff16611ecd57611d0f611d09368989612b51565b89612e6b565b80611eb7575b505086611ea8575b80611e98575b5080611e7c575b5050611d425f5160206134e75f395f51905f52612f94565b825f52600260205260405f205f5160206134e75f395f51905f525f5260205260405f20600160ff19825416179055611d875f5160206134e75f395f51905f528461305b565b611d9d5f5160206135275f395f51905f52612f94565b825f52600360205260405f205f5160206135275f395f51905f525f526020524260405f2055611dd95f5160206135275f395f51905f5284613304565b825f52601060205260405f20600160ff19825416179055600f5491600160401b831015611e6857611e338360017f8eaa3502703c7da17066b3a473a66f5aa7a47821acd5b8ea86816207db42baeb9501600f55600f612c7f565b81549060031b9086821b9160018060a01b03901b1916179055611e63604051928392602084526020840191612b87565b0390a3005b634e487b7160e01b5f52604160045260245ffd5b611e9191611e8b913691612b51565b84612ed4565b8480611d2a565b611ea29086612f51565b86611d23565b611eb28787612f06565b611d1d565b611ec6916115f8913691612b51565b8780611d15565b630ea075bf60e21b5f5260045ffd5b611ef0915060208082518301019101612b0a565b158a611cd5565b3461025257611f053661296f565b905f525f60205260405f20905f52602052610473611f2560405f20612bdf565b60405191829160208352602083019061289f565b34610252576020366003190112610252576004355f52600860205260405f206040519081602082549182815201915f5260205f20905f5b818110611f8757610473856105e881870382612a60565b8254845260209093019260019283019201611f70565b3461025257604036600319011261025257611fb6612889565b602435908115158203610252575f8060405160208101906317aa5fb760e11b825233602482015260248152611fec604482612a60565b5190845afa611ff9612b22565b90159081156120bb575b506103ea576001600160a01b03165f8181526010602052604090205490919060ff16156103db57612078906120445f5160206134e75f395f51905f52612f94565b825f52600260205260405f205f5160206134e75f395f51905f525f5260205260405f209060ff801983541691151516179055565b61208f5f5160206134e75f395f51905f528261305b565b7fbaef45cead810df032ca6f6dc22d0fa78f7bc08a3e2f3177cfe2f37f4b08071a6020604051428152a2005b6120cf915060208082518301019101612b0a565b1583612003565b34610252575f36600319011261025257602060405160078152f35b34610252576120ff366128f0565b9091925f8060405160208101906317aa5fb760e11b82523360248201526024815261212b604482612a60565b5190845afa612138612b22565b90159081156122ca575b506103ea576001600160a01b03165f8181526010602052604090205490929060ff16156103db577fa11877924d9daa9614f6d5965e1a69c3786db3359adf0aeab5ee8209f1bd53ba916121bd612199368385612b51565b6121a287612f94565b855f52600560205260405f20875f5260205260405f20612e2b565b6121c6846133e7565b835f52600960205260405f20855f5260205260ff60405f2054161561228f575b835f52600a60205260405f20855f5260205260405f20600660ff1982541617905584847f34d84e67b0f324bfad877e5b27265f696957cae3ba7fbfc8a1a4a365c3672ecd604061223583613463565b835f52600b602052815f20855f52602052815f206001600160401b0382166001600160401b03198254161790556001600160401b0382519160068352166020820152a3611e63604051928392602084526020840191612b87565b835f5260086020526122a48560405f2061301f565b835f52600960205260405f20855f5260205260405f20600160ff198254161790556121e6565b6122de915060208082518301019101612b0a565b1585612142565b34610252576020366003190112610252576122fe612889565b61014082018281106001600160401b03821117611e68576040526060825260208201906060825260408301905f825260608401925f845260808501926060845260a08601905f825260c08701906060825260e08801955f87526101008901945f86526101208a01965f885260018060a01b03166040516331477b9b60e01b81528160048201527f741f18d320914b57eeda3ea07ece8db6081598de8a16ee7bc4b1c5f9cd2ff58c60248201525f81604481305afa9081156107a9575f9161286f575b508b526040516331477b9b60e01b8152600481018290527fdad653fa7edcab3e172554f9151ceed8376805e74d4faab7981fa443b49df6fa60248201525f81604481305afa9081156107a9575f91612855575b508252604051630df675ff60e21b8152600481018290527f7ad476546f838ffce7f3c5df5e7e401e8ce6deddb9db5f3419246c36cb4f1db66024820152602081604481305afa9081156107a9575f91612823575b508452604051630df675ff60e21b8152600481018290527f2350465d1abd6707816222ee93f90a52b2a532ab64450425cc0d2db9eeb29f416024820152602081604481305afa9081156107a9575f916127f1575b508a526040516331477b9b60e01b8152600481018290525f5160206135475f395f51905f5260248201525f81604481305afa9081156107a9575f916127d7575b508352604051630df675ff60e21b8152600481018290525f5160206134c75f395f51905f526024820152602081604481305afa9081156107a9575f916127a5575b5086526040516331477b9b60e01b8152600481018290527f52103a2540087a91d4a4ff00d4b13aa3dd3b805ba7d45f61d059761c7a07275e60248201525f81604481305afa9081156107a9575f9161278b575b50855260405163263abc4760e21b8152600481018290525f5160206134e75f395f51905f526024820152602081604481305afa9081156107a9575f9161276c575b5015158952604051633d356c9360e11b8152600481018290525f5160206135275f395f51905f526024820152602081604481305afa9081156107a9575f9161273a575b50875260405190634710e56560e11b82526004820152602081602481305afa9081156107a9575f916126e6575b5091610160996126926126ca979695936001600160401b036126b196168b5261267f6040519e8f9e8f916020835251916101406020820152019061289f565b90518d8203601f190160408f015261289f565b925160608c01525160808b015251898203601f190160a08b015261289f565b915160c088015251868203601f190160e088015261289f565b9251151561010085015251610120840152516101408301520390f35b90506020959493919295813d602011612732575b8161270760209383612a60565b810103126102525751946001600160401b038616860361025257939492939092909190610160612640565b3d91506126fa565b90506020813d602011612764575b8161275560209383612a60565b8101031261025257518c612613565b3d9150612748565b612785915060203d60201161136c5761135e8183612a60565b8c6125d0565b61279f91503d805f833e6113f38183612a60565b8c61258f565b90506020813d6020116127cf575b816127c060209383612a60565b8101031261025257518c61253c565b3d91506127b3565b6127eb91503d805f833e6113f38183612a60565b8c6124fb565b90506020813d60201161281b575b8161280c60209383612a60565b8101031261025257518c6124bb565b3d91506127ff565b90506020813d60201161284d575b8161283e60209383612a60565b8101031261025257518c612467565b3d9150612831565b61286991503d805f833e6113f38183612a60565b8c612413565b61288391503d805f833e6113f38183612a60565b8c6123c0565b600435906001600160a01b038216820361025257565b805180835260209291819084018484015e5f828201840152601f01601f1916010190565b9181601f84011215610252578235916001600160401b038311610252576020838186019501011161025257565b6060600319820112610252576004356001600160a01b0381168103610252579160243591604435906001600160401b03821161025257612932916004016128c3565b9091565b60206040818301928281528451809452019201905f5b8181106129595750505090565b825184526020938401939092019160010161294c565b6040906003190112610252576004359060243590565b6060906003190112610252576004356001600160a01b03811681036102525790602435906044356001600160a01b03811681036102525790565b602081016020825282518091526040820191602060408360051b8301019401925f915b8383106129f157505050505090565b9091929394602080612a0f600193603f19868203018752895161289f565b970193019301919392906129e2565b60206040818301928281528451809452019201905f5b818110612a415750505090565b82516001600160a01b0316845260209384019390920191600101612a34565b90601f801991011681019081106001600160401b03821117611e6857604052565b6001600160401b038111611e6857601f01601f191660200190565b81601f8201121561025257805190612ab382612a81565b92612ac16040519485612a60565b8284526020838301011161025257815f9260208093018386015e8301015290565b906020828203126102525781516001600160401b03811161025257612b079201612a9c565b90565b90816020910312610252575180151581036102525790565b3d15612b4c573d90612b3382612a81565b91612b416040519384612a60565b82523d5f602084013e565b606090565b929192612b5d82612a81565b91612b6b6040519384612a60565b829481845281830111610252578281602093845f960137010152565b908060209392818452848401375f828201840152601f01601f1916010190565b90600182811c92168015612bd5575b6020831014612bc157565b634e487b7160e01b5f52602260045260245ffd5b91607f1691612bb6565b9060405191825f825492612bf284612ba7565b8084529360018116908115612c5d5750600114612c19575b50612c1792500383612a60565b565b90505f9291925260205f20905f915b818310612c41575050906020612c17928201015f612c0a565b6020919350806001915483858901015201910190918492612c28565b905060209250612c1794915060ff191682840152151560051b8201015f612c0a565b805482101561030f575f5260205f2001905f90565b8054600160401b811015611e6857612cb191600182018155612c7f565b81546001600160a01b0393841660039290921b91821b9390911b1916919091179055565b6001600160401b038111611e685760051b60200190565b51906001600160a01b038216820361025257565b939291602091612d1891604087526040870191612b87565b930152565b818110612d28575050565b5f8155600101612d1d565b91909182516001600160401b038111611e6857612d508254612ba7565b601f8111612df0575b506020601f8211600114612d9257819293945f92612d87575b50508160011b915f199060031b1c1916179055565b015190505f80612d72565b601f19821690835f52805f20915f5b818110612dd857509583600195969710612dc0575b505050811b019055565b01515f1960f88460031b161c191690555f8080612db6565b9192602060018192868b015181550194019201612da1565b612e1b90835f5260205f20601f840160051c81019160208510612e21575b601f0160051c0190612d1d565b5f612d59565b9091508190612e0e565b8054600160401b811015611e6857612e4891600182018155612c7f565b919091612e5857612c1791612d33565b634e487b7160e01b5f525f60045260245ffd5b7f741f18d320914b57eeda3ea07ece8db6081598de8a16ee7bc4b1c5f9cd2ff58c90612e9d612c179361149084612f94565b61313e565b7fdad653fa7edcab3e172554f9151ceed8376805e74d4faab7981fa443b49df6fa90612e9d612c179361149084612f94565b7f52103a2540087a91d4a4ff00d4b13aa3dd3b805ba7d45f61d059761c7a07275e90612e9d612c179361149084612f94565b7f7ad476546f838ffce7f3c5df5e7e401e8ce6deddb9db5f3419246c36cb4f1db690612c1792612f3583612f94565b815f52600460205260405f20835f5260205260405f2055613221565b7f2350465d1abd6707816222ee93f90a52b2a532ab64450425cc0d2db9eeb29f4190612c1792612f3583612f94565b805182101561030f5760209160051b010190565b60405163170da40760e21b815260048101919091526020816024817f00000000000000000000000000000000000000000000000000000000000000006001600160a01b03165afa9081156107a9575f91613000575b5015612ff157565b632263bf1f60e21b5f5260045ffd5b613019915060203d60201161136c5761135e8183612a60565b5f612fe9565b805490600160401b821015611e68578161304191600161305794018155612c7f565b819391549060031b91821b915f19901b19161790565b9055565b613064816133e7565b805f52600960205260405f20825f5260205260ff60405f20541615613103575b805f52600a60205260405f20825f5260205260405f20600360ff198254161790555f5160206135075f395f51905f5260406130be83613463565b835f52600b602052815f20855f52602052815f206001600160401b0382166001600160401b03198254161790556001600160401b0382519160038352166020820152a3565b805f5260086020526131188260405f2061301f565b805f52600960205260405f20825f5260205260405f20600160ff19825416179055613084565b613147816133e7565b805f52600960205260405f20825f5260205260ff60405f205416156131e6575b805f52600a60205260405f20825f5260205260405f20600160ff198254161790555f5160206135075f395f51905f5260406131a183613463565b835f52600b602052815f20855f52602052815f206001600160401b0382166001600160401b03198254161790556001600160401b0382519160018352166020820152a3565b805f5260086020526131fb8260405f2061301f565b805f52600960205260405f20825f5260205260405f20600160ff19825416179055613167565b61322a816133e7565b805f52600960205260405f20825f5260205260ff60405f205416156132c9575b805f52600a60205260405f20825f5260205260405f20600560ff198254161790555f5160206135075f395f51905f52604061328483613463565b835f52600b602052815f20855f52602052815f206001600160401b0382166001600160401b03198254161790556001600160401b0382519160058352166020820152a3565b805f5260086020526132de8260405f2061301f565b805f52600960205260405f20825f5260205260405f20600160ff1982541617905561324a565b61330d816133e7565b805f52600960205260405f20825f5260205260ff60405f205416156133ac575b805f52600a60205260405f20825f5260205260405f20600460ff198254161790555f5160206135075f395f51905f52604061336783613463565b835f52600b602052815f20855f52602052815f206001600160401b0382166001600160401b03198254161790556001600160401b0382519160048352166020820152a3565b805f5260086020526133c18260405f2061301f565b805f52600960205260405f20825f5260205260405f20600160ff1982541617905561332d565b805f52600e60205260ff60405f205416156133ff5750565b805f52600e60205260405f20600160ff19825416179055600d54600160401b811015611e685761343b613041826001859401600d55600d612c7f565b90557f34f1cb4778d9578e1af878b07d3ae7e9f2f32fafcaa3096fe48153670a71bfaf5f80a2565b805f52600c60205260016001600160401b0360405f20541601906001600160401b0382116134b2575f52600c60205260405f206001600160401b0382166001600160401b031982541617905590565b634e487b7160e01b5f52601160045260245ffdfe60044e01e8c9d502074d6e4c9fbe43e16fe2b136bd8966bb2ab23a2d72d4273a281c423f2145186a4090d693a24dbc925f9b316e0fd90ce376faf1d1e2844b695167ea251eeaf052f4c7bd769efb5b17e6ba98908050b9929a0bd192b57274fb7ca66cbe7b5accaa5484519a039cafa6dcd01aae976e3f4e0cba964d1e516b649824200aa5377f0e47b53debd90bf2ab62c1ef1c349e1b361abbaadc4ece4a22a2646970667358221220960552b6f6e2c67465727548ae55142ad6d6e7fc33f540a4ff794ad08f97f39e64736f6c634300081c0033","linkReferences":{}},"methodIdentifiers":{"DT_ADDRESS_ARR_PUB()":"213aaad7","DT_ADDRESS_PUB()":"ece6bebc","DT_BOOL_PUB()":"93cbc37d","DT_BYTES32_ARR_PUB()":"f98eed69","DT_BYTES32_PUB()":"c3174629","DT_STRING_ARR_PUB()":"8e101369","DT_STRING_PUB()":"a954aea1","DT_UINT256_PUB()":"be78c068","ONTOLOGY()":"e63cdb42","addMultiAddressProperty(address,bytes32,address)":"4c82bf5b","addMultiStringProperty(address,bytes32,string)":"194619eb","agentCount()":"b7dc1284","allSubjects()":"c3a6123d","clearMultiAddressProperty(address,bytes32)":"8b43e1f4","clearMultiStringProperty(address,bytes32)":"72ef05bd","datatypeOf(bytes32,bytes32)":"42921cf3","getAddress(bytes32,bytes32)":"d3a39686","getAddressArr(bytes32,bytes32)":"e4281bc3","getAddressProperty(address,bytes32)":"54e89cd4","getAgentAt(uint256)":"e468619d","getAllAgents()":"860e4ac6","getBool(bytes32,bytes32)":"98eaf11c","getBoolProperty(address,bytes32)":"70ecabaf","getBytes32(bytes32,bytes32)":"37d9d7fc","getBytes32Arr(bytes32,bytes32)":"4083843e","getCore(address)":"0a9a5cce","getMultiAddressProperty(address,bytes32)":"9f024c83","getMultiStringProperty(address,bytes32)":"761eefdc","getPredicateKeys(address)":"465e9c86","getString(bytes32,bytes32)":"31477b9b","getStringArr(bytes32,bytes32)":"cb954f30","getStringProperty(address,bytes32)":"663159e0","getUint(bytes32,bytes32)":"7a6ad926","getUintProperty(address,bytes32)":"89e28982","isRegistered(address)":"c3c5a547","isSet(bytes32,bytes32)":"bb6b0c3b","predicatesOf(bytes32)":"30547181","register(address,string,string,bytes32,bytes32,string)":"36129bcb","setActive(address,bool)":"2ce962cf","setAddressProperty(address,bytes32,address)":"58220fc7","setBoolProperty(address,bytes32,bool)":"89847eb0","setMetadataURI(address,string,bytes32)":"8225ffcb","setSchemaURI(address,string)":"e45e444e","setStringProperty(address,bytes32,string)":"64741c65","setUintProperty(address,bytes32,uint256)":"7e398880","subjectCount()":"639a2e10","subjectVersion(bytes32)":"8e21caca","updateCore(address,string,string,bytes32,bytes32)":"5d782668","updatedAt(bytes32,bytes32)":"880eadce"},"id":68}