{"abi":[{"type":"constructor","inputs":[{"name":"ontologyRegistry","type":"address","internalType":"address"}],"stateMutability":"nonpayable"},{"type":"function","name":"ONTOLOGY","inputs":[],"outputs":[{"name":"","type":"address","internalType":"contract OntologyTermRegistry"}],"stateMutability":"view"},{"type":"function","name":"addMultiAddressProperty","inputs":[{"name":"agent","type":"address","internalType":"address"},{"name":"predicate","type":"bytes32","internalType":"bytes32"},{"name":"value","type":"address","internalType":"address"}],"outputs":[],"stateMutability":"nonpayable"},{"type":"function","name":"addMultiStringProperty","inputs":[{"name":"agent","type":"address","internalType":"address"},{"name":"predicate","type":"bytes32","internalType":"bytes32"},{"name":"value","type":"string","internalType":"string"}],"outputs":[],"stateMutability":"nonpayable"},{"type":"function","name":"agentCount","inputs":[],"outputs":[{"name":"","type":"uint256","internalType":"uint256"}],"stateMutability":"view"},{"type":"function","name":"clearMultiAddressProperty","inputs":[{"name":"agent","type":"address","internalType":"address"},{"name":"predicate","type":"bytes32","internalType":"bytes32"}],"outputs":[],"stateMutability":"nonpayable"},{"type":"function","name":"clearMultiStringProperty","inputs":[{"name":"agent","type":"address","internalType":"address"},{"name":"predicate","type":"bytes32","internalType":"bytes32"}],"outputs":[],"stateMutability":"nonpayable"},{"type":"function","name":"getAddressProperty","inputs":[{"name":"agent","type":"address","internalType":"address"},{"name":"predicate","type":"bytes32","internalType":"bytes32"}],"outputs":[{"name":"","type":"address","internalType":"address"}],"stateMutability":"view"},{"type":"function","name":"getAgentAt","inputs":[{"name":"index","type":"uint256","internalType":"uint256"}],"outputs":[{"name":"","type":"address","internalType":"address"}],"stateMutability":"view"},{"type":"function","name":"getAllAgents","inputs":[],"outputs":[{"name":"","type":"address[]","internalType":"address[]"}],"stateMutability":"view"},{"type":"function","name":"getBoolProperty","inputs":[{"name":"agent","type":"address","internalType":"address"},{"name":"predicate","type":"bytes32","internalType":"bytes32"}],"outputs":[{"name":"","type":"bool","internalType":"bool"}],"stateMutability":"view"},{"type":"function","name":"getCore","inputs":[{"name":"agent","type":"address","internalType":"address"}],"outputs":[{"name":"","type":"tuple","internalType":"struct AgentAccountResolver.CoreRecord","components":[{"name":"displayName","type":"string","internalType":"string"},{"name":"description","type":"string","internalType":"string"},{"name":"agentType","type":"bytes32","internalType":"bytes32"},{"name":"agentClass","type":"bytes32","internalType":"bytes32"},{"name":"metadataURI","type":"string","internalType":"string"},{"name":"metadataHash","type":"bytes32","internalType":"bytes32"},{"name":"schemaURI","type":"string","internalType":"string"},{"name":"active","type":"bool","internalType":"bool"},{"name":"registeredAt","type":"uint256","internalType":"uint256"},{"name":"updatedAt","type":"uint256","internalType":"uint256"}]}],"stateMutability":"view"},{"type":"function","name":"getMultiAddressProperty","inputs":[{"name":"agent","type":"address","internalType":"address"},{"name":"predicate","type":"bytes32","internalType":"bytes32"}],"outputs":[{"name":"","type":"address[]","internalType":"address[]"}],"stateMutability":"view"},{"type":"function","name":"getMultiStringProperty","inputs":[{"name":"agent","type":"address","internalType":"address"},{"name":"predicate","type":"bytes32","internalType":"bytes32"}],"outputs":[{"name":"","type":"string[]","internalType":"string[]"}],"stateMutability":"view"},{"type":"function","name":"getPredicateKeys","inputs":[{"name":"agent","type":"address","internalType":"address"}],"outputs":[{"name":"","type":"bytes32[]","internalType":"bytes32[]"}],"stateMutability":"view"},{"type":"function","name":"getStringProperty","inputs":[{"name":"agent","type":"address","internalType":"address"},{"name":"predicate","type":"bytes32","internalType":"bytes32"}],"outputs":[{"name":"","type":"string","internalType":"string"}],"stateMutability":"view"},{"type":"function","name":"getUintProperty","inputs":[{"name":"agent","type":"address","internalType":"address"},{"name":"predicate","type":"bytes32","internalType":"bytes32"}],"outputs":[{"name":"","type":"uint256","internalType":"uint256"}],"stateMutability":"view"},{"type":"function","name":"isRegistered","inputs":[{"name":"agent","type":"address","internalType":"address"}],"outputs":[{"name":"","type":"bool","internalType":"bool"}],"stateMutability":"view"},{"type":"function","name":"register","inputs":[{"name":"agent","type":"address","internalType":"address"},{"name":"displayName","type":"string","internalType":"string"},{"name":"description","type":"string","internalType":"string"},{"name":"agentType","type":"bytes32","internalType":"bytes32"},{"name":"agentClass","type":"bytes32","internalType":"bytes32"},{"name":"schemaURI","type":"string","internalType":"string"}],"outputs":[],"stateMutability":"nonpayable"},{"type":"function","name":"setActive","inputs":[{"name":"agent","type":"address","internalType":"address"},{"name":"active","type":"bool","internalType":"bool"}],"outputs":[],"stateMutability":"nonpayable"},{"type":"function","name":"setAddressProperty","inputs":[{"name":"agent","type":"address","internalType":"address"},{"name":"predicate","type":"bytes32","internalType":"bytes32"},{"name":"value","type":"address","internalType":"address"}],"outputs":[],"stateMutability":"nonpayable"},{"type":"function","name":"setBoolProperty","inputs":[{"name":"agent","type":"address","internalType":"address"},{"name":"predicate","type":"bytes32","internalType":"bytes32"},{"name":"value","type":"bool","internalType":"bool"}],"outputs":[],"stateMutability":"nonpayable"},{"type":"function","name":"setMetadataURI","inputs":[{"name":"agent","type":"address","internalType":"address"},{"name":"uri","type":"string","internalType":"string"},{"name":"hash","type":"bytes32","internalType":"bytes32"}],"outputs":[],"stateMutability":"nonpayable"},{"type":"function","name":"setSchemaURI","inputs":[{"name":"agent","type":"address","internalType":"address"},{"name":"uri","type":"string","internalType":"string"}],"outputs":[],"stateMutability":"nonpayable"},{"type":"function","name":"setStringProperty","inputs":[{"name":"agent","type":"address","internalType":"address"},{"name":"predicate","type":"bytes32","internalType":"bytes32"},{"name":"value","type":"string","internalType":"string"}],"outputs":[],"stateMutability":"nonpayable"},{"type":"function","name":"setUintProperty","inputs":[{"name":"agent","type":"address","internalType":"address"},{"name":"predicate","type":"bytes32","internalType":"bytes32"},{"name":"value","type":"uint256","internalType":"uint256"}],"outputs":[],"stateMutability":"nonpayable"},{"type":"function","name":"updateCore","inputs":[{"name":"agent","type":"address","internalType":"address"},{"name":"displayName","type":"string","internalType":"string"},{"name":"description","type":"string","internalType":"string"},{"name":"agentType","type":"bytes32","internalType":"bytes32"},{"name":"agentClass","type":"bytes32","internalType":"bytes32"}],"outputs":[],"stateMutability":"nonpayable"},{"type":"event","name":"AgentRegistered","inputs":[{"name":"agent","type":"address","indexed":true,"internalType":"address"},{"name":"displayName","type":"string","indexed":false,"internalType":"string"},{"name":"agentType","type":"bytes32","indexed":true,"internalType":"bytes32"}],"anonymous":false},{"type":"event","name":"AgentUpdated","inputs":[{"name":"agent","type":"address","indexed":true,"internalType":"address"},{"name":"updatedAt","type":"uint256","indexed":false,"internalType":"uint256"}],"anonymous":false},{"type":"event","name":"CoreUpdated","inputs":[{"name":"agent","type":"address","indexed":true,"internalType":"address"},{"name":"displayName","type":"string","indexed":false,"internalType":"string"},{"name":"agentType","type":"bytes32","indexed":false,"internalType":"bytes32"}],"anonymous":false},{"type":"event","name":"MetadataUpdated","inputs":[{"name":"agent","type":"address","indexed":true,"internalType":"address"},{"name":"metadataURI","type":"string","indexed":false,"internalType":"string"},{"name":"metadataHash","type":"bytes32","indexed":false,"internalType":"bytes32"}],"anonymous":false},{"type":"event","name":"MultiPropertyAdded","inputs":[{"name":"agent","type":"address","indexed":true,"internalType":"address"},{"name":"predicate","type":"bytes32","indexed":true,"internalType":"bytes32"},{"name":"value","type":"string","indexed":false,"internalType":"string"}],"anonymous":false},{"type":"event","name":"PropertySet","inputs":[{"name":"agent","type":"address","indexed":true,"internalType":"address"},{"name":"predicate","type":"bytes32","indexed":true,"internalType":"bytes32"}],"anonymous":false},{"type":"error","name":"AlreadyRegistered","inputs":[]},{"type":"error","name":"NotAgentOwner","inputs":[]},{"type":"error","name":"NotRegistered","inputs":[]},{"type":"error","name":"PredicateNotRegistered","inputs":[]}],"bytecode":{"object":"0x60a03461009657601f61226b38819003918201601f19168301916001600160401b0383118484101761009a5780849260209460405283398101031261009657516001600160a01b03811690819003610096576080526040516121bc90816100af823960805181818161014f015281816105a6015281816108eb01528181610d2001528181610f990152818161112d01526119ff0152f35b5f80fd5b634e487b7160e01b5f52604160045260245ffdfe6080806040526004361015610012575f80fd5b5f3560e01c9081630a9a5cce14611b0c57508063194619eb1461196a5780632ce962cf1461186357806336129bcb146112b8578063465e9c86146112045780634c82bf5b1461109d57806354e89cd41461105157806358220fc714610f055780635d78266814610dbc57806364741c6514610c8b578063663159e014610c3357806370ecabaf14610bea57806372ef05bd14610a95578063761eefdc146109875780637e3988801461084a5780638225ffcb14610720578063860e4ac6146106a357806389847eb0146104f857806389e28982146104b45780638b43e1f4146103e45780639f024c831461034d578063b7dc128414610330578063c3c5a547146102f3578063e45e444e146101f0578063e468619d146101825763e63cdb421461013a575f80fd5b3461017e575f36600319011261017e576040517f00000000000000000000000000000000000000000000000000000000000000006001600160a01b03168152602090f35b5f80fd5b3461017e57602036600319011261017e576004356001548110156101dc5760015f527fb10e2d527612073b26eecdfd717e6a320cf44b4afac2b0732d9fcbe2b7fa0cf601546040516001600160a01b039091168152602090f35b634e487b7160e01b5f52603260045260245ffd5b3461017e57604036600319011261017e57610209611cba565b6024356001600160401b03811161017e57610228903690600401611cf4565b915f8060405160208101906317aa5fb760e11b825233602482015260248152610252604482611dff565b5190845afa61025f611f13565b90159081156102d8575b506102c9576001600160a01b03165f8181526002602052604090205490929060ff16156102ba576102a791835f525f602052600660405f2001611fc8565b5f525f60205242600960405f2001555f80f35b63aba4733960e01b5f5260045ffd5b630e41dcbf60e21b5f5260045ffd5b6102ec915060208082518301019101611f42565b1584610269565b3461017e57602036600319011261017e576001600160a01b03610314611cba565b165f526002602052602060ff60405f2054166040519015158152f35b3461017e575f36600319011261017e576020600154604051908152f35b3461017e57604036600319011261017e576001600160a01b0361036e611cba565b165f52600860205260405f206024355f5260205260405f206040519081602082549182815201915f5260205f20905f5b8181106103c5576103c1856103b581870382611dff565b60405191829182611da1565b0390f35b82546001600160a01b031684526020909301926001928301920161039e565b3461017e57604036600319011261017e576103fd611cba565b5f8060405160208101906317aa5fb760e11b825233602482015260248152610426604482611dff565b5190845afa610433611f13565b9015908115610499575b506102c9576001600160a01b03165f8181526002602052604090205460ff16156102ba575f52600860205260405f206024355f5260205260405f2080545f82558061048457005b610497915f5260205f2090810190611f6f565b005b6104ad915060208082518301019101611f42565b158261043d565b3461017e57604036600319011261017e576001600160a01b036104d5611cba565b165f52600660205260405f206024355f52602052602060405f2054604051908152f35b3461017e57606036600319011261017e57610511611cba565b6024359060443590811515820361017e575f8060405160208101906317aa5fb760e11b82523360248201526024815261054b604482611dff565b5190845afa610558611f13565b9015908115610688575b506102c9576001600160a01b0381165f8181526002602052604090205490929060ff16156102ba5760405163170da40760e21b8152600481018590526020816024817f00000000000000000000000000000000000000000000000000000000000000006001600160a01b03165afa90811561067d575f9161064e575b501561063f57610619916106148592855f52600560205260405f20845f5260205260405f209060ff801983541691151516179055565b6120fc565b7f74e683adab2ba72c5c6284ea9ea8bdfcadc2df1425f7c849e7ef5cc39084a93d5f80a3005b63d4e1950f60e01b5f5260045ffd5b610670915060203d602011610676575b6106688183611dff565b810190611f42565b856105de565b503d61065e565b6040513d5f823e3d90fd5b61069c915060208082518301019101611f42565b1584610562565b3461017e575f36600319011261017e5760405180602060015491828152019060015f527fb10e2d527612073b26eecdfd717e6a320cf44b4afac2b0732d9fcbe2b7fa0cf6905f5b818110610701576103c1856103b581870382611dff565b82546001600160a01b03168452602090930192600192830192016106ea565b3461017e57606036600319011261017e57610739611cba565b6024356001600160401b03811161017e57610758903690600401611cf4565b604492919235915f8060405160208101906317aa5fb760e11b825233602482015260248152610788604482611dff565b5190845afa610795611f13565b901590811561082f575b506102c9576001600160a01b03165f8181526002602052604090205490939060ff16156102ba5761082a7fa703154b2e122dd100b1e7dde328b3553f5bffd34a1aca5c78adc6b54ccc932693855f525f6020526108038484600460405f2001611fc8565b5f8681526020819052604090819020600581018390554260099091015551938493846120df565b0390a2005b610843915060208082518301019101611f42565b158561079f565b3461017e57606036600319011261017e57610863611cba565b602435905f8060405160208101906317aa5fb760e11b825233602482015260248152610890604482611dff565b5190845afa61089d611f13565b901590811561096c575b506102c9576001600160a01b0381165f8181526002602052604090205490919060ff16156102ba5760405163170da40760e21b8152600481018490526020816024817f00000000000000000000000000000000000000000000000000000000000000006001600160a01b03165afa90811561067d575f9161094d575b501561063f578261061991835f52600660205260405f20825f5260205260443560405f20556120fc565b610966915060203d602011610676576106688183611dff565b84610923565b610980915060208082518301019101611f42565b15836108a7565b3461017e57604036600319011261017e576001600160a01b036109a8611cba565b165f52600760205260405f206024355f5260205260405f208054906001600160401b038211610a8157604051916109e560208260051b0184611dff565b8083526020830180925f5260205f205f915b838310610a6457848660405191829160208301906020845251809152604083019060408160051b85010192915f905b828210610a3557505050500390f35b91936001919395506020610a548192603f198a82030186528851611cd0565b9601920192018594939192610a26565b600160208192610a7385611e58565b8152019201920191906109f7565b634e487b7160e01b5f52604160045260245ffd5b3461017e57604036600319011261017e57610aae611cba565b602435905f8060405160208101906317aa5fb760e11b825233602482015260248152610adb604482611dff565b5190845afa610ae8611f13565b9015908115610bcf575b506102c9576001600160a01b03165f8181526002602052604090205460ff16156102ba57805f52600760205260405f20825f5260205260405f208054905f815581610b60575b50507f74e683adab2ba72c5c6284ea9ea8bdfcadc2df1425f7c849e7ef5cc39084a93d5f80a3005b5f5260205f20908101905b81811015610b385780610b8060019254611e20565b80610b8d575b5001610b6b565b601f81118314610ba257505f81555b85610b86565b610bbe90825f5283601f60205f20920160051c82019101611f6f565b805f525f6020812081835555610b9c565b610be3915060208082518301019101611f42565b1583610af2565b3461017e57604036600319011261017e576001600160a01b03610c0b611cba565b165f52600560205260405f206024355f52602052602060ff60405f2054166040519015158152f35b3461017e57604036600319011261017e576001600160a01b03610c54611cba565b165f52600360205260405f206024355f526020526103c1610c7760405f20611e58565b604051918291602083526020830190611cd0565b3461017e57610c9936611d21565b5f8060409594955160208101906317aa5fb760e11b825233602482015260248152610cc5604482611dff565b5190865afa610cd2611f13565b9015908115610da1575b506102c9576001600160a01b0383165f8181526002602052604090205490939060ff16156102ba5760405163170da40760e21b8152600481018690526020816024817f00000000000000000000000000000000000000000000000000000000000000006001600160a01b03165afa90811561067d575f91610d82575b501561063f57610614859261061994865f52600360205260405f20855f5260205260405f20611fc8565b610d9b915060203d602011610676576106688183611dff565b86610d58565b610db5915060208082518301019101611f42565b1585610cdc565b3461017e5760a036600319011261017e57610dd5611cba565b6024356001600160401b03811161017e57610df4903690600401611cf4565b6044356001600160401b03811161017e57610e13903690600401611cf4565b606493919335945f8060405160208101906317aa5fb760e11b825233602482015260248152610e43604482611dff565b5190845afa610e50611f13565b9015908115610eea575b506102c9576001600160a01b03165f8181526002602052604090205490959060ff16156102ba577fe2d8a38d12839c4dfcd22c70fceb0367dc646e6d0ac93795e9a33248cfc8682394610eca61082a93885f525f60205260405f2092610ec1888886611fc8565b60018401611fc8565b8160028201556084356003820155600942910155604051938493846120df565b610efe915060208082518301019101611f42565b1587610e5a565b3461017e57610f1336611d67565b90915f8060405160208101906317aa5fb760e11b825233602482015260248152610f3e604482611dff565b5190845afa610f4b611f13565b9015908115611036575b506102c9576001600160a01b0381165f8181526002602052604090205490929060ff16156102ba5760405163170da40760e21b8152600481018590526020816024817f00000000000000000000000000000000000000000000000000000000000000006001600160a01b03165afa90811561067d575f91611017575b501561063f57610619918491845f52600460205260405f20835f5260205260405f209060018060a01b03166bffffffffffffffffffffffff60a01b8254161790556120fc565b611030915060203d602011610676576106688183611dff565b85610fd1565b61104a915060208082518301019101611f42565b1584610f55565b3461017e57604036600319011261017e576001600160a01b03611072611cba565b165f52600460205260405f206024355f52602052602060018060a01b0360405f205416604051908152f35b3461017e576110ab36611d67565b915f8060405160208101906317aa5fb760e11b8252336024820152602481526110d5604482611dff565b5190845afa6110e2611f13565b90159081156111e9575b506102c9576001600160a01b0381165f8181526002602052604090205460ff16156102ba5760405163170da40760e21b8152600481018490526020816024817f00000000000000000000000000000000000000000000000000000000000000006001600160a01b03165afa90811561067d575f916111ca575b501561063f575f52600860205260405f20825f5260205260405f2092835493600160401b851015610a8157846111a391600161049797018155611f5a565b81546001600160a01b0393841660039290921b91821b9390911b19169190911790556120fc565b6111e3915060203d602011610676576106688183611dff565b85611165565b6111fd915060208082518301019101611f42565b15846110ec565b3461017e57602036600319011261017e576001600160a01b03611225611cba565b165f52600960205260405f20604051806020835491828152019081935f5260205f20905f5b8181106112a25750505081611260910382611dff565b604051918291602083019060208452518091526040830191905f5b818110611289575050500390f35b825184528594506020938401939092019160010161127b565b825484526020909301926001928301920161124a565b3461017e5760c036600319011261017e576112d1611cba565b6024356001600160401b03811161017e576112f0903690600401611cf4565b906044356001600160401b03811161017e57611310903690600401611cf4565b6064939193359460a4356001600160401b03811161017e57611336903690600401611cf4565b9290915f8060405160208101906317aa5fb760e11b825233602482015260248152611362604482611dff565b5190845afa61136f611f13565b9015908115611848575b506102c9576001600160a01b03165f8181526002602052604090205490969060ff16611839576113c761140291604051936113b385611de3565b6113be36898b6120a9565b855236916120a9565b926020830193845288604084015260843560608401526020946040516113ed8782611dff565b5f815260808501525f60a085015236916120a9565b60c0820152600160e08201524261010082015242610120820152855f525f835260405f209181518051906001600160401b038211610a815761144e826114488754611e20565b87611f85565b8590601f83116001146117d25761147c92915f91836116ec575b50508160011b915f199060031b1c19161790565b83555b518051906001600160401b038211610a81576114ab826114a26001870154611e20565b60018701611f85565b8490601f8311600114611765576114d892915f918361175a5750508160011b915f199060031b1c19161790565b60018301555b60408101516002830155606081015160038301556004820160808201518051906001600160401b038211610a81576115208261151a8554611e20565b85611f85565b8590601f83116001146116f75761154d92915f91836116ec5750508160011b915f199060031b1c19161790565b90555b60a081015160058301556006820160c08201518051906001600160401b038211610a81576115828261151a8554611e20565b8590601f831160011461168257826009959361012095936115b7935f926116775750508160011b915f199060031b1c19161790565b90555b6115d960e08201511515600786019060ff801983541691151516179055565b61010081015160088501550151910155835f526002815260405f20600160ff19825416179055600154600160401b811015610a81577f8eaa3502703c7da17066b3a473a66f5aa7a47821acd5b8ea86816207db42baeb9361164582600161167294016001556001611f5a565b81546001600160a01b0360039290921b91821b19169088901b179055604051838152938493840191612089565b0390a3005b015190508d80611468565b90601f19831691845f52875f20925f5b898282106116d6575050926001928592600998966101209896106116be575b505050811b0190556115ba565b01515f1960f88460031b161c191690558c80806116b1565b6001859682939686015181550195019301611692565b015190508b80611468565b90601f19831691845f52875f20925f5b8982821061174457505090846001959493921061172c575b505050811b019055611550565b01515f1960f88460031b161c191690558a808061171f565b6001859682939686015181550195019301611707565b015190508a80611468565b9190600185015f52855f20905f935b87601f19851686106117b957506001945083601f198116106117a1575b505050811b0160018301556114de565b01515f1960f88460031b161c19169055898080611791565b8282015184559485019460019093019290910190611774565b9190855f52865f20905f935b88601f198516861061182057506001945083601f19811610611808575b505050811b01835561147f565b01515f1960f88460031b161c191690558a80806117fb565b82820151845594850194600190930192909101906117de565b630ea075bf60e21b5f5260045ffd5b61185c915060208082518301019101611f42565b1589611379565b3461017e57604036600319011261017e5761187c611cba565b60243590811515820361017e575f8060405160208101906317aa5fb760e11b8252336024820152602481526118b2604482611dff565b5190845afa6118bf611f13565b901590811561194f575b506102c9576001600160a01b03165f8181526002602052604090205490919060ff16156102ba5761191390825f525f602052600760405f20019060ff801983541691151516179055565b805f525f60205242600960405f2001557fbaef45cead810df032ca6f6dc22d0fa78f7bc08a3e2f3177cfe2f37f4b08071a6020604051428152a2005b611963915060208082518301019101611f42565b15836118c9565b3461017e5761197836611d21565b9192905f8060405160208101906317aa5fb760e11b8252336024820152602481526119a4604482611dff565b5190855afa6119b1611f13565b9015908115611af1575b506102c9576001600160a01b0382165f8181526002602052604090205490939060ff16156102ba5760405163170da40760e21b8152600481018690526020816024817f00000000000000000000000000000000000000000000000000000000000000006001600160a01b03165afa90811561067d575f91611ad2575b501561063f57835f52600760205260405f20855f5260205260405f208054600160401b811015610a8157611a7091600182018155611f5a565b939093611abf5785611aa89161061484867fa11877924d9daa9614f6d5965e1a69c3786db3359adf0aeab5ee8209f1bd53ba98611fc8565b611672604051928392602084526020840191612089565b634e487b7160e01b5f525f60045260245ffd5b611aeb915060203d602011610676576106688183611dff565b86611a37565b611b05915060208082518301019101611f42565b15856119bb565b3461017e57602036600319011261017e575f610120611b29611cba565b92611b3381611de3565b6060815260606020820152826040820152826060820152606060808201528260a0820152606060c08201528260e082015282610100820152015260018060a01b03165f525f60205260405f2061016060405191611b8f83611de3565b611b9881611e58565b83528280611c9e8382611c85611bb060018401611e58565b6020830190815260028401549060408401918252600385015460608501908152611c66611bdf60048801611e58565b9260808701938452610120600960ff600760058c01549b60a08c019c8d5260c0611c0b60068301611e58565b9c019b8c520154169d60e08d019e8f901515905261010060088201549d019c8d5201549b019a8b52611c536040519e8f9e8f9160208352519161014060208201520190611cd0565b90518d8203601f190160408f0152611cd0565b925160608c01525160808b015251898203601f190160a08b0152611cd0565b915160c088015251868203601f190160e0880152611cd0565b9251151561010085015251610120840152516101408301520390f35b600435906001600160a01b038216820361017e57565b805180835260209291819084018484015e5f828201840152601f01601f1916010190565b9181601f8401121561017e578235916001600160401b03831161017e576020838186019501011161017e57565b606060031982011261017e576004356001600160a01b038116810361017e579160243591604435906001600160401b03821161017e57611d6391600401611cf4565b9091565b606090600319011261017e576004356001600160a01b038116810361017e5790602435906044356001600160a01b038116810361017e5790565b60206040818301928281528451809452019201905f5b818110611dc45750505090565b82516001600160a01b0316845260209384019390920191600101611db7565b61014081019081106001600160401b03821117610a8157604052565b90601f801991011681019081106001600160401b03821117610a8157604052565b90600182811c92168015611e4e575b6020831014611e3a57565b634e487b7160e01b5f52602260045260245ffd5b91607f1691611e2f565b9060405191825f825492611e6b84611e20565b8084529360018116908115611ed65750600114611e92575b50611e9092500383611dff565b565b90505f9291925260205f20905f915b818310611eba575050906020611e90928201015f611e83565b6020919350806001915483858901015201910190918492611ea1565b905060209250611e9094915060ff191682840152151560051b8201015f611e83565b6001600160401b038111610a8157601f01601f191660200190565b3d15611f3d573d90611f2482611ef8565b91611f326040519384611dff565b82523d5f602084013e565b606090565b9081602091031261017e5751801515810361017e5790565b80548210156101dc575f5260205f2001905f90565b818110611f7a575050565b5f8155600101611f6f565b9190601f8111611f9457505050565b611e90925f5260205f20906020601f840160051c83019310611fbe575b601f0160051c0190611f6f565b9091508190611fb1565b9092916001600160401b038111610a8157611fed81611fe78454611e20565b84611f85565b5f601f821160011461202a57819061201b9394955f9261201f5750508160011b915f199060031b1c19161790565b9055565b013590505f80611468565b601f19821694835f5260205f20915f5b878110612071575083600195969710612058575b505050811b019055565b01355f19600384901b60f8161c191690555f808061204e565b9092602060018192868601358155019401910161203a565b908060209392818452848401375f828201840152601f01601f1916010190565b9291926120b582611ef8565b916120c36040519384611dff565b82948184528183011161017e578281602093845f960137010152565b9392916020916120f791604087526040870191612089565b930152565b60018060a01b0316805f52600a60205260405f20825f5260205260ff60405f20541615612127575050565b805f52600960205260405f208054600160401b811015610a815761215091600182018155611f5a565b81549060031b9084821b915f19901b19161790555f52600a60205260405f20905f5260205260405f20600160ff1982541617905556fea2646970667358221220c624b8a72ed74eb430dd52520f5bf9fb3db0703308454b9498ae97d0a63fa01264736f6c634300081c0033","linkReferences":{}},"methodIdentifiers":{"ONTOLOGY()":"e63cdb42","addMultiAddressProperty(address,bytes32,address)":"4c82bf5b","addMultiStringProperty(address,bytes32,string)":"194619eb","agentCount()":"b7dc1284","clearMultiAddressProperty(address,bytes32)":"8b43e1f4","clearMultiStringProperty(address,bytes32)":"72ef05bd","getAddressProperty(address,bytes32)":"54e89cd4","getAgentAt(uint256)":"e468619d","getAllAgents()":"860e4ac6","getBoolProperty(address,bytes32)":"70ecabaf","getCore(address)":"0a9a5cce","getMultiAddressProperty(address,bytes32)":"9f024c83","getMultiStringProperty(address,bytes32)":"761eefdc","getPredicateKeys(address)":"465e9c86","getStringProperty(address,bytes32)":"663159e0","getUintProperty(address,bytes32)":"89e28982","isRegistered(address)":"c3c5a547","register(address,string,string,bytes32,bytes32,string)":"36129bcb","setActive(address,bool)":"2ce962cf","setAddressProperty(address,bytes32,address)":"58220fc7","setBoolProperty(address,bytes32,bool)":"89847eb0","setMetadataURI(address,string,bytes32)":"8225ffcb","setSchemaURI(address,string)":"e45e444e","setStringProperty(address,bytes32,string)":"64741c65","setUintProperty(address,bytes32,uint256)":"7e398880","updateCore(address,string,string,bytes32,bytes32)":"5d782668"},"id":67}