{"abi":[{"type":"constructor","inputs":[{"name":"names","type":"address","internalType":"contract AgentNameRegistry"}],"stateMutability":"nonpayable"},{"type":"function","name":"COORD_SCALE","inputs":[],"outputs":[{"name":"","type":"int256","internalType":"int256"}],"stateMutability":"view"},{"type":"function","name":"KIND_COUNTRY","inputs":[],"outputs":[{"name":"","type":"bytes32","internalType":"bytes32"}],"stateMutability":"view"},{"type":"function","name":"KIND_COUNTY","inputs":[],"outputs":[{"name":"","type":"bytes32","internalType":"bytes32"}],"stateMutability":"view"},{"type":"function","name":"KIND_CUSTOM","inputs":[],"outputs":[{"name":"","type":"bytes32","internalType":"bytes32"}],"stateMutability":"view"},{"type":"function","name":"KIND_MUNICIPALITY","inputs":[],"outputs":[{"name":"","type":"bytes32","internalType":"bytes32"}],"stateMutability":"view"},{"type":"function","name":"KIND_NEIGHBORHOOD","inputs":[],"outputs":[{"name":"","type":"bytes32","internalType":"bytes32"}],"stateMutability":"view"},{"type":"function","name":"KIND_PLANET","inputs":[],"outputs":[{"name":"","type":"bytes32","internalType":"bytes32"}],"stateMutability":"view"},{"type":"function","name":"KIND_STATE","inputs":[],"outputs":[{"name":"","type":"bytes32","internalType":"bytes32"}],"stateMutability":"view"},{"type":"function","name":"KIND_ZIPCODE","inputs":[],"outputs":[{"name":"","type":"bytes32","internalType":"bytes32"}],"stateMutability":"view"},{"type":"function","name":"NAMES","inputs":[],"outputs":[{"name":"","type":"address","internalType":"contract AgentNameRegistry"}],"stateMutability":"view"},{"type":"function","name":"allFeatures","inputs":[],"outputs":[{"name":"","type":"bytes32[]","internalType":"bytes32[]"}],"stateMutability":"view"},{"type":"function","name":"bindName","inputs":[{"name":"featureId","type":"bytes32","internalType":"bytes32"},{"name":"nameNode","type":"bytes32","internalType":"bytes32"}],"outputs":[],"stateMutability":"nonpayable"},{"type":"function","name":"deactivate","inputs":[{"name":"featureId","type":"bytes32","internalType":"bytes32"}],"outputs":[],"stateMutability":"nonpayable"},{"type":"function","name":"featureForName","inputs":[{"name":"","type":"bytes32","internalType":"bytes32"}],"outputs":[{"name":"","type":"bytes32","internalType":"bytes32"}],"stateMutability":"view"},{"type":"function","name":"getFeature","inputs":[{"name":"featureId","type":"bytes32","internalType":"bytes32"},{"name":"version","type":"uint64","internalType":"uint64"}],"outputs":[{"name":"","type":"tuple","internalType":"struct GeoFeatureRegistry.FeatureRecord","components":[{"name":"featureId","type":"bytes32","internalType":"bytes32"},{"name":"version","type":"uint64","internalType":"uint64"},{"name":"stewardAccount","type":"address","internalType":"address"},{"name":"featureKind","type":"bytes32","internalType":"bytes32"},{"name":"geometryHash","type":"bytes32","internalType":"bytes32"},{"name":"h3CoverageRoot","type":"bytes32","internalType":"bytes32"},{"name":"sourceSetRoot","type":"bytes32","internalType":"bytes32"},{"name":"metadataURI","type":"string","internalType":"string"},{"name":"centroidLat","type":"int256","internalType":"int256"},{"name":"centroidLon","type":"int256","internalType":"int256"},{"name":"bboxMinLat","type":"int256","internalType":"int256"},{"name":"bboxMinLon","type":"int256","internalType":"int256"},{"name":"bboxMaxLat","type":"int256","internalType":"int256"},{"name":"bboxMaxLon","type":"int256","internalType":"int256"},{"name":"validAfter","type":"uint64","internalType":"uint64"},{"name":"validUntil","type":"uint64","internalType":"uint64"},{"name":"active","type":"bool","internalType":"bool"},{"name":"registeredAt","type":"uint64","internalType":"uint64"}]}],"stateMutability":"view"},{"type":"function","name":"getLatest","inputs":[{"name":"featureId","type":"bytes32","internalType":"bytes32"}],"outputs":[{"name":"","type":"tuple","internalType":"struct GeoFeatureRegistry.FeatureRecord","components":[{"name":"featureId","type":"bytes32","internalType":"bytes32"},{"name":"version","type":"uint64","internalType":"uint64"},{"name":"stewardAccount","type":"address","internalType":"address"},{"name":"featureKind","type":"bytes32","internalType":"bytes32"},{"name":"geometryHash","type":"bytes32","internalType":"bytes32"},{"name":"h3CoverageRoot","type":"bytes32","internalType":"bytes32"},{"name":"sourceSetRoot","type":"bytes32","internalType":"bytes32"},{"name":"metadataURI","type":"string","internalType":"string"},{"name":"centroidLat","type":"int256","internalType":"int256"},{"name":"centroidLon","type":"int256","internalType":"int256"},{"name":"bboxMinLat","type":"int256","internalType":"int256"},{"name":"bboxMinLon","type":"int256","internalType":"int256"},{"name":"bboxMaxLat","type":"int256","internalType":"int256"},{"name":"bboxMaxLon","type":"int256","internalType":"int256"},{"name":"validAfter","type":"uint64","internalType":"uint64"},{"name":"validUntil","type":"uint64","internalType":"uint64"},{"name":"active","type":"bool","internalType":"bool"},{"name":"registeredAt","type":"uint64","internalType":"uint64"}]}],"stateMutability":"view"},{"type":"function","name":"getNames","inputs":[{"name":"featureId","type":"bytes32","internalType":"bytes32"}],"outputs":[{"name":"","type":"bytes32[]","internalType":"bytes32[]"}],"stateMutability":"view"},{"type":"function","name":"latestVersion","inputs":[{"name":"","type":"bytes32","internalType":"bytes32"}],"outputs":[{"name":"","type":"uint64","internalType":"uint64"}],"stateMutability":"view"},{"type":"function","name":"publish","inputs":[{"name":"featureId","type":"bytes32","internalType":"bytes32"},{"name":"featureKind","type":"bytes32","internalType":"bytes32"},{"name":"stewardAccount","type":"address","internalType":"address"},{"name":"geometryHash","type":"bytes32","internalType":"bytes32"},{"name":"h3CoverageRoot","type":"bytes32","internalType":"bytes32"},{"name":"sourceSetRoot","type":"bytes32","internalType":"bytes32"},{"name":"metadataURI","type":"string","internalType":"string"},{"name":"centroidLat","type":"int256","internalType":"int256"},{"name":"centroidLon","type":"int256","internalType":"int256"},{"name":"bboxMinLat","type":"int256","internalType":"int256"},{"name":"bboxMinLon","type":"int256","internalType":"int256"},{"name":"bboxMaxLat","type":"int256","internalType":"int256"},{"name":"bboxMaxLon","type":"int256","internalType":"int256"},{"name":"validAfter","type":"uint64","internalType":"uint64"},{"name":"validUntil","type":"uint64","internalType":"uint64"}],"outputs":[{"name":"newVersion","type":"uint64","internalType":"uint64"}],"stateMutability":"nonpayable"},{"type":"function","name":"setValidity","inputs":[{"name":"featureId","type":"bytes32","internalType":"bytes32"},{"name":"version","type":"uint64","internalType":"uint64"},{"name":"validAfter","type":"uint64","internalType":"uint64"},{"name":"validUntil","type":"uint64","internalType":"uint64"}],"outputs":[],"stateMutability":"nonpayable"},{"type":"function","name":"unbindName","inputs":[{"name":"nameNode","type":"bytes32","internalType":"bytes32"}],"outputs":[],"stateMutability":"nonpayable"},{"type":"event","name":"FeatureDeactivated","inputs":[{"name":"featureId","type":"bytes32","indexed":true,"internalType":"bytes32"},{"name":"version","type":"uint64","indexed":false,"internalType":"uint64"}],"anonymous":false},{"type":"event","name":"FeatureNameBound","inputs":[{"name":"featureId","type":"bytes32","indexed":true,"internalType":"bytes32"},{"name":"nameNode","type":"bytes32","indexed":true,"internalType":"bytes32"},{"name":"version","type":"uint64","indexed":false,"internalType":"uint64"}],"anonymous":false},{"type":"event","name":"FeatureNameUnbound","inputs":[{"name":"featureId","type":"bytes32","indexed":true,"internalType":"bytes32"},{"name":"nameNode","type":"bytes32","indexed":true,"internalType":"bytes32"}],"anonymous":false},{"type":"event","name":"FeaturePublished","inputs":[{"name":"featureId","type":"bytes32","indexed":true,"internalType":"bytes32"},{"name":"version","type":"uint64","indexed":true,"internalType":"uint64"},{"name":"steward","type":"address","indexed":true,"internalType":"address"},{"name":"featureKind","type":"bytes32","indexed":false,"internalType":"bytes32"},{"name":"geometryHash","type":"bytes32","indexed":false,"internalType":"bytes32"},{"name":"h3CoverageRoot","type":"bytes32","indexed":false,"internalType":"bytes32"},{"name":"sourceSetRoot","type":"bytes32","indexed":false,"internalType":"bytes32"},{"name":"metadataURI","type":"string","indexed":false,"internalType":"string"}],"anonymous":false},{"type":"event","name":"FeatureValidityChanged","inputs":[{"name":"featureId","type":"bytes32","indexed":true,"internalType":"bytes32"},{"name":"version","type":"uint64","indexed":false,"internalType":"uint64"},{"name":"validAfter","type":"uint64","indexed":false,"internalType":"uint64"},{"name":"validUntil","type":"uint64","indexed":false,"internalType":"uint64"}],"anonymous":false},{"type":"error","name":"EmptyMetadata","inputs":[]},{"type":"error","name":"FeatureNotFound","inputs":[]},{"type":"error","name":"InvalidLabel","inputs":[]},{"type":"error","name":"NotAuthorized","inputs":[]},{"type":"error","name":"VersionExists","inputs":[]}],"bytecode":{"object":"0x60a034606d57601f61153c38819003918201601f19168301916001600160401b03831184841017607157808492602094604052833981010312606d57516001600160a01b0381168103606d576080526040516114b690816100868239608051818181610de90152610fa30152f35b5f80fd5b634e487b7160e01b5f52604160045260245ffdfe6080806040526004361015610012575f80fd5b5f3560e01c90816305af839914610fd25750806305e84aa014610f8e578063063cc18b14610f5457806308d2abbd14610d5457806311955a8d14610d375780631b052bbd14610c8b57806322eee84c14610be45780632554fe9414610baa57806327cf481214610b7057806328a6670214610b0e578063325753c514610ad4578063454ea5c614610a7057806377329d7b14610a365780637ada605e14610411578063af289d94146102eb578063b392f0ae1461026b578063c03cc54a14610231578063d289cec7146101f7578063e9e10752146101c4578063ecf48e201461018a5763f2c0fcf714610103575f80fd5b346101865760403660031901126101865761011c61113b565b61012461118e565b506004355f525f6020526001600160401b0360405f2091165f5260205260405f206001600160401b03600d82015460881c16156101775761016761017391611249565b60405191829182610ff8565b0390f35b63421fbf6f60e01b5f5260045ffd5b5f80fd5b34610186575f3660031901126101865760206040517fbd419f9c51b81bb3cad7c586051896856152a9d7749d73d4aacf9f4851f96d118152f35b34610186576020366003190112610186576004355f52600160205260206001600160401b0360405f205416604051908152f35b34610186575f3660031901126101865760206040517fb4fff884e5c69ac95f02c6f97d553014385325ba2e9ee1bbd6f543373c5067c58152f35b34610186575f3660031901126101865760206040517f28be30397eae842f65839fc6a439c90399b92999a24f686bc656a73276c4eb828152f35b34610186575f3660031901126101865760405180602060045491828152019060045f527f8a35acfbc15ff81a39ae7d344fd709f28e8600b4aa8c65c6b64bfe7fe36bd19b905f5b8181106102d557610173856102c98187038261116d565b60405191829182611102565b82548452602090930192600192830192016102b2565b346101865760803660031901126101865760043561030761113b565b604435906001600160401b03821680920361018657606435906001600160401b03821680830361018657845f525f60205260405f206001600160401b0383165f5260205260405f2093600d8501946001600160401b03865460881c161561017757600101546103819060401c6001600160a01b03166113e5565b15610402576103e66060947fa2c05c7b7a870d0c3730f078d80a6e969e5ed30d391309ccfbe6964a59f049ae96836001600160401b03198254161781559067ffffffffffffffff60401b82549160401b169067ffffffffffffffff60401b1916179055565b6001600160401b036040519316835260208301526040820152a2005b63ea8e4eb560e01b5f5260045ffd5b34610186576101e0366003190112610186576044356001600160a01b03811681036101865760c4356001600160401b0381116101865736602382011215610186576001600160401b0381600401351161018657366024826004013583010111610186576101a435906001600160401b0382168203610186576101c435916001600160401b038316830361018657816004013515610a27576004355f5260016020526001600160401b0360405f205416155f146109c3576104d0846113e5565b15610402575b6004355f52600160205260016001600160401b0360405f20541601926001600160401b0384116109af576001600160401b0390816040519361051785611151565b60048035865287831660208701526001600160a01b03891660408701526024356060870152606435608087015260843560a087015260a43560c0870152610560908701356113ca565b61056d604051918261116d565b60048701358082526024880160208301375f602088600401358301015260e086015260e43561010086015261010435610120860152610124356101408601526101443561016086015261016435610180860152610184356101a0860152166101c0840152166101e082015260016102008201526001600160401b0342166102208201526004355f525f60205260405f206001600160401b0384165f5260205260405f2081518155600181016001600160401b0380602085015116166001600160401b03198254161781556040830151815490600160401b600160e01b039060401b16906001600160401b0363ffffffff60e01b0116179055606082015160028201556080820151600382015560a0820151600482015560c082015160058201556006810160e08301518051906001600160401b0382116108e1576106b18354611211565b601f811161096a575b50602090601f8311600114610900579180600d949261022096945f926108f5575b50508160011b915f199060031b1c19161790555b610100840151600782015561012084015160088201556101408401516009820155610160840151600a820155610180840151600b8201556101a0840151600c8201556101c0840151910180546101e0850151610200860151949095015167ffffffffffffffff60881b60889190911b1660ff60801b94151560801b949094166001600160c81b03199091166001600160401b0393841617604095861b67ffffffffffffffff60401b161717929092179091556004355f90815260016020819052929020805491851667ffffffffffffffff19909216821790551461087a575b60209260405190602435825260643585830152608435604083015260a435606083015260a06080830152826004013560a083015282600401356024840160c08401375f60c084600401358401015260018060a01b0316917f4beccd732b938104eae31632d0fc6f2c3f194929349d42198a3b186b5306341c6001600160401b0385169260c08160043594601f8019916004013501168101030190a46001600160401b0360405191168152f35b60045492600160401b8410156108e15760018401806004558410156108cd5760045f819052357f8a35acfbc15ff81a39ae7d344fd709f28e8600b4aa8c65c6b64bfe7fe36bd19b909401939093556107ce565b634e487b7160e01b5f52603260045260245ffd5b634e487b7160e01b5f52604160045260245ffd5b015190508a806106db565b90601f19831691845f52815f20925f5b81811061095257509260019285926102209896600d98961061093a575b505050811b0190556106ef565b01515f1960f88460031b161c191690558a808061092d565b92936020600181928786015181550195019301610910565b835f5260205f20601f840160051c810191602085106109a5575b601f0160051c01905b81811061099a57506106ba565b5f815560010161098d565b9091508190610984565b634e487b7160e01b5f52601160045260245ffd5b6004355f908152602081815260408083206001808452828520546001600160401b031685529252918290200154901c6001600160a01b0316610a04816113e5565b15610402576001600160a01b038516146104d65763ea8e4eb560e01b5f5260045ffd5b63ae92135760e01b5f5260045ffd5b34610186575f3660031901126101865760206040517f91f815ca168d502c4208e1521521c2d7f0dec97f3a9c21ec8b6cd278d24d330a8152f35b34610186576020366003190112610186576004355f52600360205260405f206040519081602082549182815201915f5260205f20905f5b818110610abe57610173856102c98187038261116d565b8254845260209093019260019283019201610aa7565b34610186575f3660031901126101865760206040517f94ee80de3c5105c208f8f958655d5b07b23b8ce1229ea28b52814de7ecc70be58152f35b3461018657602036600319011261018657600435610b2a61118e565b50805f5260016020526001600160401b0360405f205416908115610177575f525f6020526001600160401b0360405f2091165f5260205261017361016760405f20611249565b34610186575f3660031901126101865760206040517f546b8283d2fc761e2ca9b146efacb04932c0b0b417415f155c27d84c345d92058152f35b34610186575f3660031901126101865760206040517fbbb5e0591e8eb67371b51cceaf03013bb4d0e1e7c71e124e099d4fd51ff0e8a68152f35b3461018657602036600319011261018657600435805f5260016020526001600160401b0360405f205416801561017757815f525f60205260405f206001600160401b0382165f5260205260405f20610c4a60018060a01b03600183015460401c166113e5565b1561040257600d01805460ff60801b191690556040519081527f694485f356c475bc486631c7e116a22f4acfd37f61182715635a0017d8f5a22b90602090a2005b3461018657602036600319011261018657600435805f52600260205260405f20548015610d28575f818152602081815260408083206001808452828520546001600160401b031685529252918290200154610cef911c6001600160a01b03166113e5565b1561040257815f5260026020525f60408120557fd422be3734c454c2926807ad60123795f05942f10ef8d8a0973c6b2669b81a1a5f80a3005b633d36cb8d60e01b5f5260045ffd5b34610186575f366003190112610186576020604051629896808152f35b346101865760403660031901126101865760043560243590805f5260016020526001600160401b0360405f20541615610177575f818152602081815260408083206001808452828520546001600160401b031685529252918290200180549091610dc891901c6001600160a01b03166113e5565b15610402576040516302571be360e01b8152600481018490526020816024817f00000000000000000000000000000000000000000000000000000000000000006001600160a01b03165afa908115610f49575f91610f07575b506001600160a01b03811615610d2857610e3a906113e5565b1561040257825f5260026020528260405f205480151580610efd575b610ed2575b505f5260026020528160405f2055815f52600360205260405f208054600160401b8110156108e157600181018083558110156108cd577f6cc2ab2d1aaa71c7192c6284bcde9f3c08394f8980209f33bae2a91029160d9492856001600160401b03926020945f52845f2001555416604051908152a3005b7fd422be3734c454c2926807ad60123795f05942f10ef8d8a0973c6b2669b81a1a5f80a38284610e5b565b5083811415610e56565b90506020813d602011610f41575b81610f226020938361116d565b8101031261018657516001600160a01b03811681036101865784610e21565b3d9150610f15565b6040513d5f823e3d90fd5b34610186575f3660031901126101865760206040517fd375ccd293c02e7bd4230818b0524866ad60a5d1c756c0c3d49059b3e79759048152f35b34610186575f366003190112610186576040517f00000000000000000000000000000000000000000000000000000000000000006001600160a01b03168152602090f35b34610186576020366003190112610186576020906004355f526002825260405f20548152f35b60206001600160401b0361022061028094838552805184860152828482015116604086015260018060a01b03604082015116606086015260608101516080860152608081015160a086015260a081015160c086015260c081015160e086015260e0810151610240610100870152805194859182610260890152018787015e5f8685870101526101008101516101208601526101208101516101408601526101408101516101608601526101608101516101808601526101808101516101a08601526101a08101516101c0860152826101c0820151166101e0860152826101e082015116610200860152610200810151151582860152015116610240830152601f8019910116010190565b60206040818301928281528451809452019201905f5b8181106111255750505090565b8251845260209384019390920191600101611118565b602435906001600160401b038216820361018657565b61024081019081106001600160401b038211176108e157604052565b90601f801991011681019081106001600160401b038211176108e157604052565b6040519061119b82611151565b5f610220838281528260208201528260408201528260608201528260808201528260a08201528260c0820152606060e08201528261010082015282610120820152826101408201528261016082015282610180820152826101a0820152826101c0820152826101e0820152826102008201520152565b90600182811c9216801561123f575b602083101461122b57565b634e487b7160e01b5f52602260045260245ffd5b91607f1691611220565b9060405161125681611151565b80928054825260018101546001600160401b038116602084015260018060a01b039060401c1660408301526002810154606083015260038101546080830152600481015460a0830152600581015460c083015260068101604051905f908054906112bf82611211565b80855291600181169081156113a5575060011461136a575b505061022092826112f46001600160401b0394600d94038261116d565b60e0860152600781015461010086015260088101546101208601526009810154610140860152600a810154610160860152600b810154610180860152600c8101546101a086015201548181166101c0850152818160401c166101e085015260ff8160801c16151561020085015260881c16910152565b5f908152602081209092505b81831061138b575050810160200182826112d7565b600181602092949394548385880101520191019190611376565b60ff191660208087019190915292151560051b850190920192508491508390506112d7565b6001600160401b0381116108e157601f01601f191660200190565b336001600160a01b0382161461147a575f809160405160208101906317aa5fb760e11b82523360248201526024815261141f60448261116d565b51915afa3d15611473573d611433816113ca565b90611441604051928361116d565b81523d5f602083013e5b81611454575090565b9050602081805181010312610186576020015180151581036101865790565b606061144b565b5060019056fea2646970667358221220ea9b4de2e51d683add50e4b644524aeda6cd956340478e96b31677834fd82d6964736f6c634300081c0033","linkReferences":{}},"methodIdentifiers":{"COORD_SCALE()":"11955a8d","KIND_COUNTRY()":"325753c5","KIND_COUNTY()":"ecf48e20","KIND_CUSTOM()":"2554fe94","KIND_MUNICIPALITY()":"063cc18b","KIND_NEIGHBORHOOD()":"c03cc54a","KIND_PLANET()":"77329d7b","KIND_STATE()":"27cf4812","KIND_ZIPCODE()":"d289cec7","NAMES()":"05e84aa0","allFeatures()":"b392f0ae","bindName(bytes32,bytes32)":"08d2abbd","deactivate(bytes32)":"22eee84c","featureForName(bytes32)":"05af8399","getFeature(bytes32,uint64)":"f2c0fcf7","getLatest(bytes32)":"28a66702","getNames(bytes32)":"454ea5c6","latestVersion(bytes32)":"e9e10752","publish(bytes32,bytes32,address,bytes32,bytes32,bytes32,string,int256,int256,int256,int256,int256,int256,uint64,uint64)":"7ada605e","setValidity(bytes32,uint64,uint64,uint64)":"af289d94","unbindName(bytes32)":"1b052bbd"},"id":84}