{"abi":[{"type":"function","name":"afterHook","inputs":[{"name":"","type":"bytes","internalType":"bytes"},{"name":"","type":"bytes","internalType":"bytes"},{"name":"","type":"bytes32","internalType":"bytes32"},{"name":"","type":"address","internalType":"address"},{"name":"","type":"address","internalType":"address"},{"name":"","type":"address","internalType":"address"},{"name":"","type":"uint256","internalType":"uint256"},{"name":"","type":"bytes","internalType":"bytes"}],"outputs":[],"stateMutability":"pure"},{"type":"function","name":"beforeHook","inputs":[{"name":"terms","type":"bytes","internalType":"bytes"},{"name":"args","type":"bytes","internalType":"bytes"},{"name":"","type":"bytes32","internalType":"bytes32"},{"name":"","type":"address","internalType":"address"},{"name":"","type":"address","internalType":"address"},{"name":"target","type":"address","internalType":"address"},{"name":"","type":"uint256","internalType":"uint256"},{"name":"","type":"bytes","internalType":"bytes"}],"outputs":[],"stateMutability":"nonpayable"},{"type":"function","name":"trancheSpent","inputs":[{"name":"","type":"bytes32","internalType":"bytes32"}],"outputs":[{"name":"","type":"uint256","internalType":"uint256"}],"stateMutability":"view"},{"type":"event","name":"TrancheDrawn","inputs":[{"name":"trancheId","type":"bytes32","indexed":true,"internalType":"bytes32"},{"name":"asset","type":"address","indexed":true,"internalType":"address"},{"name":"amount","type":"uint256","indexed":false,"internalType":"uint256"},{"name":"totalSpent","type":"uint256","indexed":false,"internalType":"uint256"},{"name":"cap","type":"uint256","indexed":false,"internalType":"uint256"}],"anonymous":false},{"type":"error","name":"AssetMismatch","inputs":[{"name":"expected","type":"address","internalType":"address"},{"name":"actual","type":"address","internalType":"address"}]},{"type":"error","name":"TrancheCapExceeded","inputs":[{"name":"spent","type":"uint256","internalType":"uint256"},{"name":"cap","type":"uint256","internalType":"uint256"},{"name":"attempt","type":"uint256","internalType":"uint256"}]}],"bytecode":{"object":"0x608080604052346015576102a3908161001a8239f35b5f80fdfe60806040526004361015610011575f80fd5b5f3560e01c8063a1422eb614610077578063d3128e3d146100675763ed45e11a1461003a575f80fd5b34610063576020366003190112610063576004355f525f602052602060405f2054604051908152f35b5f80fd5b3461006357610075366101b2565b005b34610063576060610087366101b2565b5050509591505085809496925096929601031261006357803592604060208301359201359460018060a01b0386168096036100635781602091810103126100635735916001600160a01b031680850361016e5750825f525f60205260405f20548281019081811161015a578282116101405750916060917f5fffb47f7a7c2fbf31d074f79563147743338dda83fe1c7d373169aea248dc2393855f525f6020528060405f205560405192835260208301526040820152a3005b9050631d0060ab60e01b5f5260045260245260445260645ffd5b634e487b7160e01b5f52601160045260245ffd5b84634e83a9b960e01b5f5260045260245260445ffd5b9181601f840112156100635782359167ffffffffffffffff8311610063576020838186019501011161006357565b906101006003198301126100635760043567ffffffffffffffff811161006357826101df91600401610184565b9290929160243567ffffffffffffffff8111610063578261020291600401610184565b90929091604435916064356001600160a01b038116810361006357916084356001600160a01b0381168103610063579160a4356001600160a01b0381168103610063579160c4359160e4359067ffffffffffffffff82116100635761026991600401610184565b909156fea2646970667358221220262eb9daa1121660ce259b45a9c617678817d6beb44e737412676a42d86ec3c764736f6c634300081c0033","linkReferences":{}},"methodIdentifiers":{"afterHook(bytes,bytes,bytes32,address,address,address,uint256,bytes)":"d3128e3d","beforeHook(bytes,bytes,bytes32,address,address,address,uint256,bytes)":"a1422eb6","trancheSpent(bytes32)":"ed45e11a"},"id":122}