{"abi":[{"type":"function","name":"isValidSig","inputs":[{"name":"signer","type":"address","internalType":"address"},{"name":"hash","type":"bytes32","internalType":"bytes32"},{"name":"sig","type":"bytes","internalType":"bytes"}],"outputs":[{"name":"","type":"bool","internalType":"bool"}],"stateMutability":"nonpayable"},{"type":"function","name":"isValidSigView","inputs":[{"name":"signer","type":"address","internalType":"address"},{"name":"hash","type":"bytes32","internalType":"bytes32"},{"name":"sig","type":"bytes","internalType":"bytes"}],"outputs":[{"name":"","type":"bool","internalType":"bool"}],"stateMutability":"view"},{"type":"error","name":"DeployFailed","inputs":[]}],"bytecode":{"object":"0x608080604052346015576105ea908161001a8239f35b5f80fdfe60806040526004361015610011575f80fd5b5f3560e01c806387a01d9314610059576398ef1ed81461002f575f80fd5b3461005557602061004b61004236610075565b929190916101f1565b6040519015158152f35b5f80fd5b3461005557602061004b61006c36610075565b92919091610166565b906060600319830112610055576004356001600160a01b038116810361005557916024359160443567ffffffffffffffff811161005557826023820112156100555780600401359267ffffffffffffffff84116100555760248483010111610055576024019190565b90601f8019910116810190811067ffffffffffffffff82111761010057604052565b634e487b7160e01b5f52604160045260245ffd5b67ffffffffffffffff811161010057601f01601f191660200190565b92919261013c82610114565b9161014a60405193846100de565b829481845281830111610055578281602093845f960137010152565b919261017281856102ab565b6101a957823b610194576101919361018b913691610130565b91610434565b90565b610191936101a3913691610130565b91610372565b91929091601f1981019081116101dd576101c29161030c565b92915050823b156101d65761019192610372565b5050505f90565b634e487b7160e01b5f52601160045260245ffd5b91926101fd81856102ab565b61021657823b610194576101919361018b913691610130565b91929091601f1981019081116101dd5761022f9161030c565b9291843b15610244575b505061019192610372565b815f92918360208194519301915af13d156102a6573d61026381610114565b9061027160405192836100de565b81525f60203d92013e5b15801561029d575b61028e575f80610239565b63b4f5411160e01b5f5260045ffd5b50823b15610283565b61027b565b90602081106102eb5780601f198101116101dd577f64926492649264926492649264926492649264926492649264926492649264929101601f1901351490565b50505f90565b9080601f830112156100555781602061019193359101610130565b9081016060828203126100555781356001600160a01b038116929083900361005557602081013567ffffffffffffffff8111610055578261034e9183016102f1565b91604082013567ffffffffffffffff81116100555761036d92016102f1565b909192565b9160209283926064604051809681958294630b135d3f60e11b84526004840152604060248401528051918291826044860152018484015e5f828201840152601f01601f191681010301916001600160a01b03165afa5f91816103ef575b506103d957505f90565b6001600160e01b031916630b135d3f60e11b1490565b9091506020813d60201161042c575b8161040b602093836100de565b8101031261005557516001600160e01b03198116810361005557905f6103cf565b3d91506103fe565b9160418151036101d65761044881836104ed565b5060048110156104bb571590816104d7575b506104cf57610492917f19457468657265756d205369676e6564204d6573736167653a0a3332000000005f52601c52603c5f206104ed565b5060048110156104bb571591826104a857505090565b6001600160a01b03918216911614919050565b634e487b7160e01b5f52602160045260245ffd5b505050600190565b6001600160a01b0385811691161490505f61045a565b815191906041830361051d576105169250602082015190606060408401519301515f1a90610527565b9192909190565b50505f9160029190565b91907f7fffffffffffffffffffffffffffffff5d576e7357a4501ddfe92f46681b20a084116105a9579160209360809260ff5f9560405194855216868401526040830152606082015282805260015afa1561059e575f516001600160a01b0381161561059457905f905f90565b505f906001905f90565b6040513d5f823e3d90fd5b5050505f916003919056fea26469706673582212202f888657c1880be685b5ed3651de39fe17132f066bdf7097f7b1ac5a930c651664736f6c634300081c0033","linkReferences":{}},"methodIdentifiers":{"isValidSig(address,bytes32,bytes)":"98ef1ed8","isValidSigView(address,bytes32,bytes)":"87a01d93"},"id":94}