{"abi":[{"type":"function","name":"getState","inputs":[{"name":"account","type":"address","internalType":"address"}],"outputs":[{"name":"windowSeconds","type":"uint64","internalType":"uint64"},{"name":"maxCalls","type":"uint64","internalType":"uint64"},{"name":"windowStart","type":"uint64","internalType":"uint64"},{"name":"callsInWindow","type":"uint64","internalType":"uint64"}],"stateMutability":"view"},{"type":"function","name":"isModuleType","inputs":[{"name":"moduleTypeId","type":"uint256","internalType":"uint256"}],"outputs":[{"name":"","type":"bool","internalType":"bool"}],"stateMutability":"pure"},{"type":"function","name":"moduleId","inputs":[],"outputs":[{"name":"","type":"string","internalType":"string"}],"stateMutability":"pure"},{"type":"function","name":"onInstall","inputs":[{"name":"data","type":"bytes","internalType":"bytes"}],"outputs":[],"stateMutability":"nonpayable"},{"type":"function","name":"onUninstall","inputs":[{"name":"","type":"bytes","internalType":"bytes"}],"outputs":[],"stateMutability":"nonpayable"},{"type":"function","name":"postCheck","inputs":[{"name":"","type":"bytes","internalType":"bytes"}],"outputs":[],"stateMutability":"nonpayable"},{"type":"function","name":"preCheck","inputs":[{"name":"","type":"address","internalType":"address"},{"name":"","type":"uint256","internalType":"uint256"},{"name":"","type":"bytes","internalType":"bytes"}],"outputs":[{"name":"","type":"bytes","internalType":"bytes"}],"stateMutability":"nonpayable"},{"type":"event","name":"WindowConfigured","inputs":[{"name":"account","type":"address","indexed":true,"internalType":"address"},{"name":"windowSeconds","type":"uint64","indexed":false,"internalType":"uint64"},{"name":"maxCalls","type":"uint64","indexed":false,"internalType":"uint64"}],"anonymous":false},{"type":"event","name":"WindowReset","inputs":[{"name":"account","type":"address","indexed":true,"internalType":"address"},{"name":"newStart","type":"uint64","indexed":false,"internalType":"uint64"}],"anonymous":false},{"type":"error","name":"InvalidInitData","inputs":[]},{"type":"error","name":"RateLimitExceeded","inputs":[{"name":"callsInWindow","type":"uint64","internalType":"uint64"},{"name":"max","type":"uint64","internalType":"uint64"}]}],"bytecode":{"object":"0x60808060405234601557610632908161001a8239f35b5f80fdfe60806040526004361015610011575f80fd5b5f3560e01c8063173bf7da146103775780631bab58f5146102e95780636d61fe70146101855780638a91b0e314610142578063a1308f27146100e7578063d68f6025146100895763ecd0596114610066575f80fd5b3461008557602036600319011261008557602060405160048035148152f35b5f80fd5b34610085576060366003190112610085576100a26103e0565b506044356001600160401b038111610085576100c29036906004016103b3565b50506100e36100cf6104f9565b6040519182916020835260208301906103f6565b0390f35b34610085575f366003190112610085576100e361010460406104d4565b601d81527f736d6172742d6167656e742e726174652d6c696d69742d686f6f6b2e3100000060208201526040519182916020835260208301906103f6565b34610085576020366003190112610085576004356001600160401b038111610085576101729036906004016103b3565b5050335f525f6020525f60408120555f80f35b34610085576020366003190112610085576004356001600160401b038111610085576101b59036906004016103b3565b80156102b25781604091810103126100855760208101359035801580156102e1575b80156102d1575b80156102c1575b6102b2576001600160401b03809116911661027f6102016104a1565b8381526020808201848152426001600160401b0390811660408086019182525f6060870181815233825295819052819020955193519151945160809590951b67ffffffffffffffff60801b1693909216911b6fffffffffffffffff00000000000000001617176001600160c01b031960c09290921b91909116179055565b60405191825260208201527fdb708b817ddd8bc5d0805741781e2af65b9849cf01ba7d7c298d96fac00370d760403392a2005b6307ce216360e51b5f5260045ffd5b506001600160401b0382116101e5565b506001600160401b0381116101de565b5081156101d7565b34610085576020366003190112610085576001600160a01b0361030a6103e0565b165f525f602052608060405f2060606103216104a1565b91546001600160401b038116928381526001600160401b038260401c16908160208201526001600160401b0383871c169283604083015260c01c9384910152604051938452602084015260408301526060820152f35b34610085576020366003190112610085576004356001600160401b038111610085576103a79036906004016103b3565b50506103b161044c565b005b9181601f84011215610085578235916001600160401b038311610085576020838186019501011161008557565b600435906001600160a01b038216820361008557565b805180835260209291819084018484015e5f828201840152601f01601f1916010190565b6001600160401b036001911601906001600160401b03821161043857565b634e487b7160e01b5f52601160045260245ffd5b335f525f60205260405f208054906001600160401b038260401c161561049d5761047b61049b9260c01c61041a565b81546001600160c01b031660c09190911b6001600160c01b031916179055565b565b5050565b60405190608082018281106001600160401b038211176104c057604052565b634e487b7160e01b5f52604160045260245ffd5b6040519190601f01601f191682016001600160401b038111838210176104c057604052565b335f525f60205260405f208054906001600160401b038260401c16156105f0576001600160401b03808360801c1692168201809211610438576001600160401b0391421015610588575b548060c01c90826105538361041a565b9160401c16928391161161057357505061056d60206104d4565b5f815290565b63c3e5e3ff60e01b5f5260045260245260445ffd5b8054428316608090811b67ffffffffffffffff60801b166fffffffffffffffffffffffffffffffff90921691909117808355604051911c8316815233907f9f47e0e04787bc7b9b3d315213c3407d67b30352ba5c9bca03ccf1e49a5fdbd990602090a2610543565b505061056d60206104d456fea2646970667358221220b952b1473690ecb2e9c7bafa4ff03a609bcf0df08d0f9ad7187030d6226058fd64736f6c634300081c0033","linkReferences":{}},"methodIdentifiers":{"getState(address)":"1bab58f5","isModuleType(uint256)":"ecd05961","moduleId()":"a1308f27","onInstall(bytes)":"6d61fe70","onUninstall(bytes)":"8a91b0e3","postCheck(bytes)":"173bf7da","preCheck(address,uint256,bytes)":"d68f6025"},"id":154}