{"abi":[{"type":"constructor","inputs":[{"name":"governor_","type":"address","internalType":"address"}],"stateMutability":"nonpayable"},{"type":"function","name":"activateTerm","inputs":[{"name":"id","type":"bytes32","internalType":"bytes32"}],"outputs":[],"stateMutability":"nonpayable"},{"type":"function","name":"deactivateTerm","inputs":[{"name":"id","type":"bytes32","internalType":"bytes32"}],"outputs":[],"stateMutability":"nonpayable"},{"type":"function","name":"getAllTermIds","inputs":[],"outputs":[{"name":"","type":"bytes32[]","internalType":"bytes32[]"}],"stateMutability":"view"},{"type":"function","name":"getTerm","inputs":[{"name":"id","type":"bytes32","internalType":"bytes32"}],"outputs":[{"name":"","type":"tuple","internalType":"struct OntologyTermRegistry.Term","components":[{"name":"id","type":"bytes32","internalType":"bytes32"},{"name":"curie","type":"string","internalType":"string"},{"name":"uri","type":"string","internalType":"string"},{"name":"label","type":"string","internalType":"string"},{"name":"datatype","type":"string","internalType":"string"},{"name":"active","type":"bool","internalType":"bool"},{"name":"registeredAt","type":"uint256","internalType":"uint256"}]}],"stateMutability":"view"},{"type":"function","name":"getTermAt","inputs":[{"name":"index","type":"uint256","internalType":"uint256"}],"outputs":[{"name":"","type":"tuple","internalType":"struct OntologyTermRegistry.Term","components":[{"name":"id","type":"bytes32","internalType":"bytes32"},{"name":"curie","type":"string","internalType":"string"},{"name":"uri","type":"string","internalType":"string"},{"name":"label","type":"string","internalType":"string"},{"name":"datatype","type":"string","internalType":"string"},{"name":"active","type":"bool","internalType":"bool"},{"name":"registeredAt","type":"uint256","internalType":"uint256"}]}],"stateMutability":"view"},{"type":"function","name":"governor","inputs":[],"outputs":[{"name":"","type":"address","internalType":"address"}],"stateMutability":"view"},{"type":"function","name":"isActive","inputs":[{"name":"id","type":"bytes32","internalType":"bytes32"}],"outputs":[{"name":"","type":"bool","internalType":"bool"}],"stateMutability":"view"},{"type":"function","name":"isRegistered","inputs":[{"name":"id","type":"bytes32","internalType":"bytes32"}],"outputs":[{"name":"","type":"bool","internalType":"bool"}],"stateMutability":"view"},{"type":"function","name":"registerTerm","inputs":[{"name":"id","type":"bytes32","internalType":"bytes32"},{"name":"curie","type":"string","internalType":"string"},{"name":"uri","type":"string","internalType":"string"},{"name":"label","type":"string","internalType":"string"},{"name":"datatype","type":"string","internalType":"string"}],"outputs":[],"stateMutability":"nonpayable"},{"type":"function","name":"registerTermBatch","inputs":[{"name":"ids","type":"bytes32[]","internalType":"bytes32[]"},{"name":"curies","type":"string[]","internalType":"string[]"},{"name":"uris","type":"string[]","internalType":"string[]"},{"name":"labels","type":"string[]","internalType":"string[]"},{"name":"datatypes","type":"string[]","internalType":"string[]"}],"outputs":[],"stateMutability":"nonpayable"},{"type":"function","name":"termCount","inputs":[],"outputs":[{"name":"","type":"uint256","internalType":"uint256"}],"stateMutability":"view"},{"type":"function","name":"transferGovernor","inputs":[{"name":"newGovernor","type":"address","internalType":"address"}],"outputs":[],"stateMutability":"nonpayable"},{"type":"event","name":"GovernorTransferred","inputs":[{"name":"oldGovernor","type":"address","indexed":true,"internalType":"address"},{"name":"newGovernor","type":"address","indexed":true,"internalType":"address"}],"anonymous":false},{"type":"event","name":"TermActivated","inputs":[{"name":"id","type":"bytes32","indexed":true,"internalType":"bytes32"}],"anonymous":false},{"type":"event","name":"TermDeactivated","inputs":[{"name":"id","type":"bytes32","indexed":true,"internalType":"bytes32"}],"anonymous":false},{"type":"event","name":"TermRegistered","inputs":[{"name":"id","type":"bytes32","indexed":true,"internalType":"bytes32"},{"name":"curie","type":"string","indexed":false,"internalType":"string"},{"name":"uri","type":"string","indexed":false,"internalType":"string"}],"anonymous":false},{"type":"error","name":"NotGovernor","inputs":[]},{"type":"error","name":"TermExists","inputs":[]},{"type":"error","name":"TermNotFound","inputs":[]}],"bytecode":{"object":"0x608034606f57601f6115dd38819003918201601f19168301916001600160401b03831184841017607357808492602094604052833981010312606f57516001600160a01b03811690819003606f575f80546001600160a01b03191691909117905560405161155590816100888239f35b5f80fd5b634e487b7160e01b5f52604160045260245ffdfe610120806040526004361015610013575f80fd5b5f3560e01c9081630c340a241461117a575080630f85e0d31461115d57806327258b221461112e57806331c40288146110cc578063509fff541461105457806358c5edad14610f9e5780635c36901c14610f6c57806386857dde14610ee2578063b8cc9ce614610e73578063c2bb19fa14610851578063d2ef6761146107a95763d35d2218146100a1575f80fd5b346107a55760a03660031901126107a5576004356001600160401b0381116107a5576100d1903690600401611274565b60a0526080526024356001600160401b0381116107a5576100f6903690600401611274565b60c052610100526044356001600160401b0381116107a55761011c903690600401611274565b9060e0526064356001600160401b0381116107a55761013f903690600401611274565b90916084356001600160401b0381116107a557610160903690600401611274565b5f549193916001600160a01b03163303610796575f5b60a051811061018157005b6101908160a0516080516114ce565b355f526001602052600660405f20015461078e5782868386610243856102348b6102256101c28460a0516080516114ce565b35976102166101fd866101f5816101ed6101e28260c051610100516114de565b9b909d60e0516114de565b9f90966114de565b9b90966114de565b9890966040519b61020d8d6112a4565b8c5236916113f1565b9960208a019a8b5236916113f1565b956040880196875236916113f1565b926060860193845236916113f1565b9160808401928352600160a08501524260c08501526102678660a0516080516114ce565b355f52600160205260405f2094845186556001860190518051906001600160401b03821161054057819061029b8454611319565b601f811161073e575b50602090601f83116001146106db575f926106d0575b50508160011b915f199060031b1c19161790555b51805160028601916001600160401b0382116105405781906102f08454611319565b601f8111610680575b50602090601f831160011461061d575f92610612575b50508160011b915f199060031b1c19161790555b51805160038501916001600160401b0382116105405781906103458454611319565b601f81116105c2575b50602090601f831160011461055f575f92610554575b50508160011b915f199060031b1c19161790555b518051906001600160401b038211610540576103976004850154611319565b601f81116104fc575b50602090601f831160011461048957928260069360c09360019897965f9261047e575b50505f19600383901b1c191690871b1760048501555b6103f860a08201511515600586019060ff801983541691151516179055565b015191015561041561040f8260a0516080516114ce565b35611436565b6104248160a0516080516114ce565b357f9411e77f3fd73e3b74c88277b4623fa089fadb9b89ae5e04d043293957e274d76104568360c051610100516114de565b90610474610467868b60e0516114de565b90604051948594856114a4565b0390a25b01610176565b015190505f806103c3565b90600485015f52805f20915f5b601f19851681106104e457508360c0936001989796938993600697601f198116106104cc575b505050811b0160048501556103d9565b01515f1960f88460031b161c191690555f80806104bc565b91926020600181928685015181550194019201610496565b600485015f5260205f20601f840160051c810160208510610539575b601f830160051c8201811061052e5750506103a0565b5f8155600101610518565b5080610518565b634e487b7160e01b5f52604160045260245ffd5b015190505f80610364565b5f8581528281209350601f198516905b8181106105aa5750908460019594939210610592575b505050811b019055610378565b01515f1960f88460031b161c191690555f8080610585565b9293602060018192878601518155019501930161056f565b909150835f5260205f20601f840160051c81019160208510610608575b90601f859493920160051c01905b8181106105fa575061034e565b5f81558493506001016105ed565b90915081906105df565b015190505f8061030f565b5f8581528281209350601f198516905b8181106106685750908460019594939210610650575b505050811b019055610323565b01515f1960f88460031b161c191690555f8080610643565b9293602060018192878601518155019501930161062d565b909150835f5260205f20601f840160051c810191602085106106c6575b90601f859493920160051c01905b8181106106b857506102f9565b5f81558493506001016106ab565b909150819061069d565b015190505f806102ba565b5f8581528281209350601f198516905b818110610726575090846001959493921061070e575b505050811b0190556102ce565b01515f1960f88460031b161c191690555f8080610701565b929360206001819287860151815501950193016106eb565b909150835f5260205f20601f840160051c81019160208510610784575b90601f859493920160051c01905b81811061077657506102a4565b5f8155849350600101610769565b909150819061075b565b600190610478565b633b8d9d7560e21b5f5260045ffd5b5f80fd5b346107a55760203660031901126107a5576107c26112e0565b506004355f52600160205261084d60405f206006604051916107e3836112a4565b805483526107f360018201611351565b602084015261080460028201611351565b604084015261081560038201611351565b606084015261082660048201611351565b608084015260ff600582015416151560a0840152015460c0820152604051918291826111c0565b0390f35b346107a55760a03660031901126107a5576004356024356001600160401b0381116107a557610884903690600401611247565b6044929192356001600160401b0381116107a5576108a6903690600401611247565b93906064356001600160401b0381116107a5576108c7903690600401611247565b906084356001600160401b0381116107a5576108e7903690600401611247565b5f549193916001600160a01b0316330361079657875f526001602052600660405f200154610e64576109616040519461091f866112a4565b898652610952610930368b8b6113f1565b6020880190815295610943368e8b6113f1565b956040890196875236916113f1565b926060870193845236916113f1565b906080850191825260a08501926001845260c08601944286528a5f52600160205260405f20965187556001870190518051906001600160401b0382116105405781906109ad8454611319565b601f8111610e14575b50602090601f8311600114610db1575f92610da6575b50508160011b915f199060031b1c19161790555b51805160028701916001600160401b038211610540578190610a028454611319565b601f8111610d56575b50602090601f8311600114610cf3575f92610ce8575b50508160011b915f199060031b1c19161790555b51805160038601916001600160401b038211610540578190610a578454611319565b601f8111610c98575b50602090601f8311600114610c35575f92610c2a575b50508160011b915f199060031b1c19161790555b51805160048501916001600160401b03821161054057610aaa8354611319565b601f8111610be5575b50602090601f8311600114610b52579360069383610b42999794610b29947f9411e77f3fd73e3b74c88277b4623fa089fadb9b89ae5e04d043293957e274d79e9f9a985f92610b47575b50508160011b915f199060031b1c19161790555b511515600585019060ff801983541691151516179055565b51910155610b3687611436565b604051948594856114a4565b0390a2005b015190508f80610afd565b90601f19831691845f52815f20925f5b818110610bcd575084610b29947f9411e77f3fd73e3b74c88277b4623fa089fadb9b89ae5e04d043293957e274d79e9f9a989460069894610b429d9b9860019510610bb5575b505050811b019055610b11565b01515f1960f88460031b161c191690558f8080610ba8565b92936020600181928786015181550195019301610b62565b835f5260205f20601f840160051c81019160208510610c20575b601f0160051c01905b818110610c155750610ab3565b5f8155600101610c08565b9091508190610bff565b015190508c80610a76565b5f8581528281209350601f198516905b818110610c805750908460019594939210610c68575b505050811b019055610a8a565b01515f1960f88460031b161c191690558c8080610c5b565b92936020600181928786015181550195019301610c45565b909150835f5260205f20601f840160051c81019160208510610cde575b90601f859493920160051c01905b818110610cd05750610a60565b5f8155849350600101610cc3565b9091508190610cb5565b015190508d80610a21565b5f8581528281209350601f198516905b818110610d3e5750908460019594939210610d26575b505050811b019055610a35565b01515f1960f88460031b161c191690558d8080610d19565b92936020600181928786015181550195019301610d03565b909150835f5260205f20601f840160051c81019160208510610d9c575b90601f859493920160051c01905b818110610d8e5750610a0b565b5f8155849350600101610d81565b9091508190610d73565b015190508e806109cc565b5f8581528281209350601f198516905b818110610dfc5750908460019594939210610de4575b505050811b0190556109e0565b01515f1960f88460031b161c191690558e8080610dd7565b92936020600181928786015181550195019301610dc1565b909150835f5260205f20601f840160051c81019160208510610e5a575b90601f859493920160051c01905b818110610e4c57506109b6565b5f8155849350600101610e3f565b9091508190610e31565b63217771ed60e21b5f5260045ffd5b346107a55760203660031901126107a5576004356001600160a01b038116908190036107a5575f546001600160a01b038116338190036107965782907f6fadb1c244276388aee22be93b919985a18748c021e5d48553957a48101a25605f80a36001600160a01b031916175f55005b346107a55760203660031901126107a5575f54600435906001600160a01b0316330361079657805f526001602052600660405f20015415610f5d57805f526001602052600560405f2001600160ff198254161790557f0889b37746b7a043b7d04398c50f21cf0ccc3dd92f2e9ea92326c563985ddd9b5f80a2005b6346735e5760e01b5f5260045ffd5b346107a55760203660031901126107a5576004355f526001602052602060ff600560405f200154166040519015158152f35b346107a5575f3660031901126107a5576040518060206002549283815201809260025f527f405787fa12a823e0f2b7631cc41b3ba8828b3321ca811111fa75cd3aa3bb5ace905f5b81811061103e5750505081610ffc9103826112bf565b604051918291602083019060208452518091526040830191905f5b818110611025575050500390f35b8251845285945060209384019390920191600101611017565b8254845260209093019260019283019201610fe6565b346107a55760203660031901126107a5575f54600435906001600160a01b0316330361079657805f526001602052600660405f20015415610f5d57805f526001602052600560405f200160ff1981541690557fad1c2eaf42fad9214a09c0ecede3be132cab58bee5ff8b98f798de2fb53cb8d25f80a2005b346107a55760203660031901126107a5576004356110e86112e0565b5060025481101561111a5760025f5260205f2001545f52600160205261084d60405f206006604051916107e3836112a4565b634e487b7160e01b5f52603260045260245ffd5b346107a55760203660031901126107a5576004355f5260016020526020600660405f2001541515604051908152f35b346107a5575f3660031901126107a5576020600254604051908152f35b346107a5575f3660031901126107a5575f546001600160a01b03168152602090f35b805180835260209291819084018484015e5f828201840152601f01601f1916010190565b602081528151602082015260e060c061123361121d6112076111f1602088015186604089015261010088019061119c565b6040880151878203601f1901606089015261119c565b6060870151868203601f1901608088015261119c565b6080860151858203601f190160a087015261119c565b9360a0810151151582850152015191015290565b9181601f840112156107a5578235916001600160401b0383116107a557602083818601950101116107a557565b9181601f840112156107a5578235916001600160401b0383116107a5576020808501948460051b0101116107a557565b60e081019081106001600160401b0382111761054057604052565b90601f801991011681019081106001600160401b0382111761054057604052565b604051906112ed826112a4565b5f60c0838281526060602082015260606040820152606080820152606060808201528260a08201520152565b90600182811c92168015611347575b602083101461133357565b634e487b7160e01b5f52602260045260245ffd5b91607f1691611328565b9060405191825f82549261136484611319565b80845293600181169081156113cf575060011461138b575b50611389925003836112bf565b565b90505f9291925260205f20905f915b8183106113b3575050906020611389928201015f61137c565b602091935080600191548385890101520191019091849261139a565b90506020925061138994915060ff191682840152151560051b8201015f61137c565b9291926001600160401b038211610540576040519161141a601f8201601f1916602001846112bf565b8294818452818301116107a5578281602093845f960137010152565b60025468010000000000000000811015610540576001810160025560025481101561111a5760025f527f405787fa12a823e0f2b7631cc41b3ba8828b3321ca811111fa75cd3aa3bb5ace0155565b908060209392818452848401375f828201840152601f01601f1916010190565b92906114bd906114cb9593604086526040860191611484565b926020818503910152611484565b90565b919081101561111a5760051b0190565b919081101561111a5760051b81013590601e19813603018212156107a55701908135916001600160401b0383116107a55760200182360381136107a557919056fea2646970667358221220669cc028b1672e5942ee6417b0985f813cec8e272eeddf0063a520e72e585c7d64736f6c634300081c0033","linkReferences":{}},"methodIdentifiers":{"activateTerm(bytes32)":"86857dde","deactivateTerm(bytes32)":"509fff54","getAllTermIds()":"58c5edad","getTerm(bytes32)":"d2ef6761","getTermAt(uint256)":"31c40288","governor()":"0c340a24","isActive(bytes32)":"5c36901c","isRegistered(bytes32)":"27258b22","registerTerm(bytes32,string,string,string,string)":"c2bb19fa","registerTermBatch(bytes32[],string[],string[],string[],string[])":"d35d2218","termCount()":"0f85e0d3","transferGovernor(address)":"b8cc9ce6"},"id":92}