{"abi":[{"type":"constructor","inputs":[{"name":"governor_","type":"address","internalType":"address"}],"stateMutability":"nonpayable"},{"type":"function","name":"activateType","inputs":[{"name":"relationshipType","type":"bytes32","internalType":"bytes32"}],"outputs":[],"stateMutability":"nonpayable"},{"type":"function","name":"deactivateType","inputs":[{"name":"relationshipType","type":"bytes32","internalType":"bytes32"}],"outputs":[],"stateMutability":"nonpayable"},{"type":"function","name":"getTypeAt","inputs":[{"name":"index","type":"uint256","internalType":"uint256"}],"outputs":[{"name":"","type":"bytes32","internalType":"bytes32"}],"stateMutability":"view"},{"type":"function","name":"getTypeSemantics","inputs":[{"name":"relationshipType","type":"bytes32","internalType":"bytes32"}],"outputs":[{"name":"","type":"tuple","internalType":"struct RelationshipTypeRegistry.TypeSemantics","components":[{"name":"relationshipType","type":"bytes32","internalType":"bytes32"},{"name":"label","type":"string","internalType":"string"},{"name":"isHierarchical","type":"bool","internalType":"bool"},{"name":"isTransitive","type":"bool","internalType":"bool"},{"name":"isSymmetric","type":"bool","internalType":"bool"},{"name":"active","type":"bool","internalType":"bool"},{"name":"registeredAt","type":"uint256","internalType":"uint256"}]}],"stateMutability":"view"},{"type":"function","name":"governor","inputs":[],"outputs":[{"name":"","type":"address","internalType":"address"}],"stateMutability":"view"},{"type":"function","name":"isHierarchical","inputs":[{"name":"relationshipType","type":"bytes32","internalType":"bytes32"}],"outputs":[{"name":"","type":"bool","internalType":"bool"}],"stateMutability":"view"},{"type":"function","name":"isRegistered","inputs":[{"name":"relationshipType","type":"bytes32","internalType":"bytes32"}],"outputs":[{"name":"","type":"bool","internalType":"bool"}],"stateMutability":"view"},{"type":"function","name":"isSymmetric","inputs":[{"name":"relationshipType","type":"bytes32","internalType":"bytes32"}],"outputs":[{"name":"","type":"bool","internalType":"bool"}],"stateMutability":"view"},{"type":"function","name":"isTransitive","inputs":[{"name":"relationshipType","type":"bytes32","internalType":"bytes32"}],"outputs":[{"name":"","type":"bool","internalType":"bool"}],"stateMutability":"view"},{"type":"function","name":"registerType","inputs":[{"name":"relationshipType","type":"bytes32","internalType":"bytes32"},{"name":"label","type":"string","internalType":"string"},{"name":"hierarchical","type":"bool","internalType":"bool"},{"name":"transitive","type":"bool","internalType":"bool"},{"name":"symmetric","type":"bool","internalType":"bool"}],"outputs":[],"stateMutability":"nonpayable"},{"type":"function","name":"transferGovernor","inputs":[{"name":"newGovernor","type":"address","internalType":"address"}],"outputs":[],"stateMutability":"nonpayable"},{"type":"function","name":"typeCount","inputs":[],"outputs":[{"name":"","type":"uint256","internalType":"uint256"}],"stateMutability":"view"},{"type":"function","name":"updateSemantics","inputs":[{"name":"relationshipType","type":"bytes32","internalType":"bytes32"},{"name":"hierarchical","type":"bool","internalType":"bool"},{"name":"transitive","type":"bool","internalType":"bool"},{"name":"symmetric","type":"bool","internalType":"bool"}],"outputs":[],"stateMutability":"nonpayable"},{"type":"event","name":"GovernorTransferred","inputs":[{"name":"oldGovernor","type":"address","indexed":true,"internalType":"address"},{"name":"newGovernor","type":"address","indexed":true,"internalType":"address"}],"anonymous":false},{"type":"event","name":"TypeActivated","inputs":[{"name":"relationshipType","type":"bytes32","indexed":true,"internalType":"bytes32"}],"anonymous":false},{"type":"event","name":"TypeDeactivated","inputs":[{"name":"relationshipType","type":"bytes32","indexed":true,"internalType":"bytes32"}],"anonymous":false},{"type":"event","name":"TypeRegistered","inputs":[{"name":"relationshipType","type":"bytes32","indexed":true,"internalType":"bytes32"},{"name":"label","type":"string","indexed":false,"internalType":"string"},{"name":"isHierarchical","type":"bool","indexed":false,"internalType":"bool"},{"name":"isTransitive","type":"bool","indexed":false,"internalType":"bool"},{"name":"isSymmetric","type":"bool","indexed":false,"internalType":"bool"}],"anonymous":false},{"type":"event","name":"TypeUpdated","inputs":[{"name":"relationshipType","type":"bytes32","indexed":true,"internalType":"bytes32"},{"name":"isHierarchical","type":"bool","indexed":false,"internalType":"bool"},{"name":"isTransitive","type":"bool","indexed":false,"internalType":"bool"},{"name":"isSymmetric","type":"bool","indexed":false,"internalType":"bool"}],"anonymous":false},{"type":"error","name":"NotGovernor","inputs":[]},{"type":"error","name":"TypeExists","inputs":[]},{"type":"error","name":"TypeNotFound","inputs":[]}],"bytecode":{"object":"0x608034606f57601f610afe38819003918201601f19168301916001600160401b03831184841017607357808492602094604052833981010312606f57516001600160a01b03811690819003606f575f80546001600160a01b031916919091179055604051610a7690816100888239f35b5f80fd5b634e487b7160e01b5f52604160045260245ffdfe6080806040526004361015610012575f80fd5b5f3560e01c9081630c340a241461095e5750806315e404d2146108e357806327258b22146108b45780632bd6c2a3146107c157806333ef13fa1461078c5780635981978c146105ca5780635b3e20fc1461053a578063602d7fe61461051d5780638bd172ee146101c1578063b8cc9ce614610143578063c60bd3aa1461010e578063c6a1b20c146100dc5763cbfe6667146100ab575f80fd5b346100d85760203660031901126100d85760206100c9600435610a14565b90549060031b1c604051908152f35b5f80fd5b346100d85760203660031901126100d8576004355f526001602052602060ff600260405f200154166040519015158152f35b346100d85760203660031901126100d8576004355f526001602052602060ff600260405f20015460101c166040519015158152f35b346100d85760203660031901126100d8576004356001600160a01b038116908190036100d8575f546001600160a01b038116338190036101b25782907f6fadb1c244276388aee22be93b919985a18748c021e5d48553957a48101a25605f80a36001600160a01b031916175f55005b633b8d9d7560e21b5f5260045ffd5b346100d85760a03660031901126100d85760043560243567ffffffffffffffff81116100d857366023820112156100d857806004013567ffffffffffffffff81116100d857602482019160248236920101116100d85761021f610980565b9161022861098f565b906084358015158091036100d8575f546001600160a01b031633036101b257855f526001602052600360405f20015461050e57604051906102688261099e565b868252601f19601f8601169160405161028460208501826109ba565b868152868560208301375f6020888301015260208201908152604082019715159788815260608301961515968781526080840185815260a08501916001835260c08601944286528d5f52600160205260405f209651875560018701905180519067ffffffffffffffff821161043a576102fd83546109dc565b601f81116104c9575b50602090601f83116001146104595792826103759361038e969360039b9a9998965f9261044e575b50508160011b915f19908c1b1c19161790555b61035e60028a0196511515879060ff801983541691151516179055565b51855461ff00191690151560081b61ff0016178555565b51835462ff0000191690151560101b62ff000016178355565b51815463ff000000191690151560181b63ff0000001617905551910155600254936801000000000000000085101561043a577f8ec5d26a85ff662ffb65e881422536ab83e036e8dc017b63b5949f9af8625be6966103f486600160a09801600255610a14565b81549060031b908b821b915f19901b19161790555f8688604051998a9860808a528160808b0152838a0137870101526020850152604084015260608301528101030190a2005b634e487b7160e01b5f52604160045260245ffd5b015190505f8061032e565b90601f19831691845f52815f20925f5b8181106104b157509361038e969360039b9a9998969360019383610375981061049a575b505050811b019055610341565b01515f19838e1b60f8161c191690555f808061048d565b92936020600181928786015181550195019301610469565b835f5260205f20601f840160051c81019160208510610504575b601f0160051c01905b8181106104f95750610306565b5f81556001016104ec565b90915081906104e3565b63044a9f3f60e51b5f5260045ffd5b346100d8575f3660031901126100d8576020600254604051908152f35b346100d85760203660031901126100d8575f54600435906001600160a01b031633036101b257805f526001602052600360405f200154156105bb57805f526001602052600260405f2001630100000063ff000000198254161790557f2eec0e65966fb390c0c43c387ce99ae7f929952590a07290c791c4c5079f1fb05f80a2005b63556c987160e01b5f5260045ffd5b346100d85760203660031901126100d8575f60c06040516105ea8161099e565b828152606060208201528260408201528260608201528260808201528260a082015201526004355f52600160205260405f206040516106288161099e565b81548152600182019160405180935f90805490610644826109dc565b80855291600181169081156107665750600114610724575b8361012087602088610670858903866109ba565b8183019485526002810154604084019160ff8216151583526060850160ff8360081c16151581526003608087019260ff8560101c161515845260ff60a089019560181c161515855201549360c0870194855260405198899787895251878901525160e060408901528051968791826101008b0152018989015e5f8787018901525115156060870152511515608086015251151560a085015251151560c08401525160e0830152601f01601f19168101030190f35b5f908152602081209092505b81831061074a57505081016020908101906106709061065c565b6020919350806001915483858a01015201910190918592610730565b60ff191660208681019190915292151560051b85018301935061067092915061065c9050565b346100d85760203660031901126100d8576004355f526001602052602060ff600260405f20015460081c166040519015158152f35b346100d85760803660031901126100d857600435602435801515908181036100d8576107eb610980565b916107f461098f565b5f546001600160a01b031633036101b257845f526001602052600360405f200154156105bb577f5e6c291737e2f810ec99447e769cb6f20d498c2d62e6e433024dd9ea149e68ed93610862606094875f526001602052600260405f20019060ff801983541691151516179055565b5f86815260016020908152604091829020600201805462ff0000951515601081901b9690961662ffff001990911661ff00951515600881901b96909616171790558151948552840191909152820152a2005b346100d85760203660031901126100d8576004355f5260016020526020600360405f2001541515604051908152f35b346100d85760203660031901126100d8575f54600435906001600160a01b031633036101b257805f526001602052600360405f200154156105bb57805f526001602052600260405f200163ff0000001981541690557f162683eea57ecdf6e4f0b0564081aa721b93d2ea79918fb5eed5d1b587250a3b5f80a2005b346100d8575f3660031901126100d8575f546001600160a01b03168152602090f35b6044359081151582036100d857565b6064359081151582036100d857565b60e0810190811067ffffffffffffffff82111761043a57604052565b90601f8019910116810190811067ffffffffffffffff82111761043a57604052565b90600182811c92168015610a0a575b60208310146109f657565b634e487b7160e01b5f52602260045260245ffd5b91607f16916109eb565b600254811015610a2c5760025f5260205f2001905f90565b634e487b7160e01b5f52603260045260245ffdfea2646970667358221220d19c674de450be279f52b84efcc9c505a0f47d26dc6c9dfa8d25225b509a28a264736f6c634300081c0033","linkReferences":{}},"methodIdentifiers":{"activateType(bytes32)":"5b3e20fc","deactivateType(bytes32)":"15e404d2","getTypeAt(uint256)":"cbfe6667","getTypeSemantics(bytes32)":"5981978c","governor()":"0c340a24","isHierarchical(bytes32)":"c6a1b20c","isRegistered(bytes32)":"27258b22","isSymmetric(bytes32)":"c60bd3aa","isTransitive(bytes32)":"33ef13fa","registerType(bytes32,string,bool,bool,bool)":"8bd172ee","transferGovernor(address)":"b8cc9ce6","typeCount()":"602d7fe6","updateSemantics(bytes32,bool,bool,bool)":"2bd6c2a3"},"id":91}