{"abi":[{"type":"function","name":"approveHash","inputs":[{"name":"hash","type":"bytes32","internalType":"bytes32"}],"outputs":[],"stateMutability":"nonpayable"},{"type":"function","name":"approved","inputs":[{"name":"","type":"address","internalType":"address"},{"name":"","type":"bytes32","internalType":"bytes32"}],"outputs":[{"name":"","type":"bool","internalType":"bool"}],"stateMutability":"view"},{"type":"function","name":"isApproved","inputs":[{"name":"signer","type":"address","internalType":"address"},{"name":"hash","type":"bytes32","internalType":"bytes32"}],"outputs":[{"name":"","type":"bool","internalType":"bool"}],"stateMutability":"view"},{"type":"function","name":"revokeHash","inputs":[{"name":"hash","type":"bytes32","internalType":"bytes32"}],"outputs":[],"stateMutability":"nonpayable"},{"type":"event","name":"HashApproved","inputs":[{"name":"signer","type":"address","indexed":true,"internalType":"address"},{"name":"hash","type":"bytes32","indexed":true,"internalType":"bytes32"}],"anonymous":false},{"type":"event","name":"HashRevoked","inputs":[{"name":"signer","type":"address","indexed":true,"internalType":"address"},{"name":"hash","type":"bytes32","indexed":true,"internalType":"bytes32"}],"anonymous":false}],"bytecode":{"object":"0x608080604052346015576101cf908161001a8239f35b5f80fdfe6080806040526004361015610012575f80fd5b5f3560e01c90816308fed6391461013a5750806370de43f1146100e2578063d4d9bdcd146100875763fac7fc3814610048575f80fd5b346100835761005636610173565b9060018060a01b03165f525f60205260405f20905f52602052602060ff60405f2054166040519015158152f35b5f80fd5b3461008357602036600319011261008357600435335f525f60205260405f20815f5260205260405f20600160ff19825416179055337f116b3c15d17bcdaa3548daba909ef7c7d925be528d1c2e5eba6f90cde23d5e815f80a3005b3461008357602036600319011261008357600435335f525f60205260405f20815f5260205260405f2060ff198154169055337f4abc59e1fd883be6b8d16e6e2eb430b49d77c7418ea9601af3c682a08c892f945f80a3005b346100835760209061014b36610173565b6001600160a01b039091165f9081528084526040808220928252918452205460ff1615158152f35b6040906003190112610083576004356001600160a01b038116810361008357906024359056fea264697066735822122047a11679372c22bf31134f6fe20b4b69434f01af37ed4727b8b857c73d257b0864736f6c634300081c0033","linkReferences":{}},"methodIdentifiers":{"approveHash(bytes32)":"d4d9bdcd","approved(address,bytes32)":"fac7fc38","isApproved(address,bytes32)":"08fed639","revokeHash(bytes32)":"70de43f1"},"id":19}