{"abi":[{"type":"constructor","inputs":[{"name":"ontologyRegistry","type":"address","internalType":"address"},{"name":"shapes","type":"address","internalType":"address"}],"stateMutability":"nonpayable"},{"type":"function","name":"CLASS_PROPOSAL_PUBLIC_FACET","inputs":[],"outputs":[{"name":"","type":"bytes32","internalType":"bytes32"}],"stateMutability":"view"},{"type":"function","name":"DT_ADDRESS_ARR_PUB","inputs":[],"outputs":[{"name":"","type":"uint8","internalType":"uint8"}],"stateMutability":"pure"},{"type":"function","name":"DT_ADDRESS_PUB","inputs":[],"outputs":[{"name":"","type":"uint8","internalType":"uint8"}],"stateMutability":"pure"},{"type":"function","name":"DT_BOOL_PUB","inputs":[],"outputs":[{"name":"","type":"uint8","internalType":"uint8"}],"stateMutability":"pure"},{"type":"function","name":"DT_BYTES32_ARR_PUB","inputs":[],"outputs":[{"name":"","type":"uint8","internalType":"uint8"}],"stateMutability":"pure"},{"type":"function","name":"DT_BYTES32_PUB","inputs":[],"outputs":[{"name":"","type":"uint8","internalType":"uint8"}],"stateMutability":"pure"},{"type":"function","name":"DT_STRING_ARR_PUB","inputs":[],"outputs":[{"name":"","type":"uint8","internalType":"uint8"}],"stateMutability":"pure"},{"type":"function","name":"DT_STRING_PUB","inputs":[],"outputs":[{"name":"","type":"uint8","internalType":"uint8"}],"stateMutability":"pure"},{"type":"function","name":"DT_UINT256_PUB","inputs":[],"outputs":[{"name":"","type":"uint8","internalType":"uint8"}],"stateMutability":"pure"},{"type":"function","name":"ONTOLOGY","inputs":[],"outputs":[{"name":"","type":"address","internalType":"contract OntologyTermRegistry"}],"stateMutability":"view"},{"type":"function","name":"SA_AWARD_NEED_INTENT","inputs":[],"outputs":[{"name":"","type":"bytes32","internalType":"bytes32"}],"stateMutability":"view"},{"type":"function","name":"SA_PROPOSAL_AWARDED_AT","inputs":[],"outputs":[{"name":"","type":"bytes32","internalType":"bytes32"}],"stateMutability":"view"},{"type":"function","name":"SA_PROPOSAL_AWARDING_FUND","inputs":[],"outputs":[{"name":"","type":"bytes32","internalType":"bytes32"}],"stateMutability":"view"},{"type":"function","name":"SA_PROPOSAL_BASED_ON_INTENT","inputs":[],"outputs":[{"name":"","type":"bytes32","internalType":"bytes32"}],"stateMutability":"view"},{"type":"function","name":"SA_PROPOSAL_BODY_HASH","inputs":[],"outputs":[{"name":"","type":"bytes32","internalType":"bytes32"}],"stateMutability":"view"},{"type":"function","name":"SA_PROPOSAL_KIND","inputs":[],"outputs":[{"name":"","type":"bytes32","internalType":"bytes32"}],"stateMutability":"view"},{"type":"function","name":"SA_PROPOSAL_PROPOSER","inputs":[],"outputs":[{"name":"","type":"bytes32","internalType":"bytes32"}],"stateMutability":"view"},{"type":"function","name":"SA_PROPOSAL_RECIPIENT","inputs":[],"outputs":[{"name":"","type":"bytes32","internalType":"bytes32"}],"stateMutability":"view"},{"type":"function","name":"SA_PROPOSAL_ROUND","inputs":[],"outputs":[{"name":"","type":"bytes32","internalType":"bytes32"}],"stateMutability":"view"},{"type":"function","name":"SA_PROPOSAL_STATUS","inputs":[],"outputs":[{"name":"","type":"bytes32","internalType":"bytes32"}],"stateMutability":"view"},{"type":"function","name":"SA_PROPOSAL_TOTAL_AWARDED","inputs":[],"outputs":[{"name":"","type":"bytes32","internalType":"bytes32"}],"stateMutability":"view"},{"type":"function","name":"SHAPES","inputs":[],"outputs":[{"name":"","type":"address","internalType":"contract ShapeRegistry"}],"stateMutability":"view"},{"type":"function","name":"allSubjects","inputs":[],"outputs":[{"name":"","type":"bytes32[]","internalType":"bytes32[]"}],"stateMutability":"view"},{"type":"function","name":"announceAward","inputs":[{"name":"p","type":"tuple","internalType":"struct ProposalRegistry.AnnounceParams","components":[{"name":"proposalSubject","type":"bytes32","internalType":"bytes32"},{"name":"kind","type":"bytes32","internalType":"bytes32"},{"name":"basedOnIntentId","type":"bytes32","internalType":"bytes32"},{"name":"round","type":"bytes32","internalType":"bytes32"},{"name":"proposer","type":"address","internalType":"address"},{"name":"recipient","type":"address","internalType":"address"},{"name":"totalAwarded","type":"uint256","internalType":"uint256"},{"name":"bodyHash","type":"bytes32","internalType":"bytes32"},{"name":"awardingFund","type":"address","internalType":"address"},{"name":"status","type":"bytes32","internalType":"bytes32"},{"name":"needIntentIdString","type":"string","internalType":"string"}]}],"outputs":[],"stateMutability":"nonpayable"},{"type":"function","name":"datatypeOf","inputs":[{"name":"subject","type":"bytes32","internalType":"bytes32"},{"name":"predicate","type":"bytes32","internalType":"bytes32"}],"outputs":[{"name":"","type":"uint8","internalType":"uint8"}],"stateMutability":"view"},{"type":"function","name":"getAddress","inputs":[{"name":"subject","type":"bytes32","internalType":"bytes32"},{"name":"predicate","type":"bytes32","internalType":"bytes32"}],"outputs":[{"name":"","type":"address","internalType":"address"}],"stateMutability":"view"},{"type":"function","name":"getAddressArr","inputs":[{"name":"subject","type":"bytes32","internalType":"bytes32"},{"name":"predicate","type":"bytes32","internalType":"bytes32"}],"outputs":[{"name":"","type":"address[]","internalType":"address[]"}],"stateMutability":"view"},{"type":"function","name":"getAwardNeedIntent","inputs":[{"name":"proposal","type":"bytes32","internalType":"bytes32"}],"outputs":[{"name":"","type":"string","internalType":"string"}],"stateMutability":"view"},{"type":"function","name":"getAwardedAt","inputs":[{"name":"proposal","type":"bytes32","internalType":"bytes32"}],"outputs":[{"name":"","type":"uint256","internalType":"uint256"}],"stateMutability":"view"},{"type":"function","name":"getAwardingFund","inputs":[{"name":"proposal","type":"bytes32","internalType":"bytes32"}],"outputs":[{"name":"","type":"address","internalType":"address"}],"stateMutability":"view"},{"type":"function","name":"getBasedOnIntentId","inputs":[{"name":"proposal","type":"bytes32","internalType":"bytes32"}],"outputs":[{"name":"","type":"bytes32","internalType":"bytes32"}],"stateMutability":"view"},{"type":"function","name":"getBodyHash","inputs":[{"name":"proposal","type":"bytes32","internalType":"bytes32"}],"outputs":[{"name":"","type":"bytes32","internalType":"bytes32"}],"stateMutability":"view"},{"type":"function","name":"getBool","inputs":[{"name":"subject","type":"bytes32","internalType":"bytes32"},{"name":"predicate","type":"bytes32","internalType":"bytes32"}],"outputs":[{"name":"","type":"bool","internalType":"bool"}],"stateMutability":"view"},{"type":"function","name":"getBytes32","inputs":[{"name":"subject","type":"bytes32","internalType":"bytes32"},{"name":"predicate","type":"bytes32","internalType":"bytes32"}],"outputs":[{"name":"","type":"bytes32","internalType":"bytes32"}],"stateMutability":"view"},{"type":"function","name":"getBytes32Arr","inputs":[{"name":"subject","type":"bytes32","internalType":"bytes32"},{"name":"predicate","type":"bytes32","internalType":"bytes32"}],"outputs":[{"name":"","type":"bytes32[]","internalType":"bytes32[]"}],"stateMutability":"view"},{"type":"function","name":"getKind","inputs":[{"name":"proposal","type":"bytes32","internalType":"bytes32"}],"outputs":[{"name":"","type":"bytes32","internalType":"bytes32"}],"stateMutability":"view"},{"type":"function","name":"getProposer","inputs":[{"name":"proposal","type":"bytes32","internalType":"bytes32"}],"outputs":[{"name":"","type":"address","internalType":"address"}],"stateMutability":"view"},{"type":"function","name":"getRecipient","inputs":[{"name":"proposal","type":"bytes32","internalType":"bytes32"}],"outputs":[{"name":"","type":"address","internalType":"address"}],"stateMutability":"view"},{"type":"function","name":"getRound","inputs":[{"name":"proposal","type":"bytes32","internalType":"bytes32"}],"outputs":[{"name":"","type":"bytes32","internalType":"bytes32"}],"stateMutability":"view"},{"type":"function","name":"getStatus","inputs":[{"name":"proposal","type":"bytes32","internalType":"bytes32"}],"outputs":[{"name":"","type":"bytes32","internalType":"bytes32"}],"stateMutability":"view"},{"type":"function","name":"getString","inputs":[{"name":"subject","type":"bytes32","internalType":"bytes32"},{"name":"predicate","type":"bytes32","internalType":"bytes32"}],"outputs":[{"name":"","type":"string","internalType":"string"}],"stateMutability":"view"},{"type":"function","name":"getStringArr","inputs":[{"name":"subject","type":"bytes32","internalType":"bytes32"},{"name":"predicate","type":"bytes32","internalType":"bytes32"}],"outputs":[{"name":"","type":"string[]","internalType":"string[]"}],"stateMutability":"view"},{"type":"function","name":"getTotalAwarded","inputs":[{"name":"proposal","type":"bytes32","internalType":"bytes32"}],"outputs":[{"name":"","type":"uint256","internalType":"uint256"}],"stateMutability":"view"},{"type":"function","name":"getUint","inputs":[{"name":"subject","type":"bytes32","internalType":"bytes32"},{"name":"predicate","type":"bytes32","internalType":"bytes32"}],"outputs":[{"name":"","type":"uint256","internalType":"uint256"}],"stateMutability":"view"},{"type":"function","name":"isAnnounced","inputs":[{"name":"proposal","type":"bytes32","internalType":"bytes32"}],"outputs":[{"name":"","type":"bool","internalType":"bool"}],"stateMutability":"view"},{"type":"function","name":"isSet","inputs":[{"name":"subject","type":"bytes32","internalType":"bytes32"},{"name":"predicate","type":"bytes32","internalType":"bytes32"}],"outputs":[{"name":"","type":"bool","internalType":"bool"}],"stateMutability":"view"},{"type":"function","name":"predicatesOf","inputs":[{"name":"subject","type":"bytes32","internalType":"bytes32"}],"outputs":[{"name":"","type":"bytes32[]","internalType":"bytes32[]"}],"stateMutability":"view"},{"type":"function","name":"proposalSubject","inputs":[{"name":"proposalId","type":"string","internalType":"string"}],"outputs":[{"name":"","type":"bytes32","internalType":"bytes32"}],"stateMutability":"pure"},{"type":"function","name":"setStatus","inputs":[{"name":"proposal","type":"bytes32","internalType":"bytes32"},{"name":"newStatus","type":"bytes32","internalType":"bytes32"}],"outputs":[],"stateMutability":"nonpayable"},{"type":"function","name":"subjectCount","inputs":[],"outputs":[{"name":"","type":"uint256","internalType":"uint256"}],"stateMutability":"view"},{"type":"function","name":"subjectVersion","inputs":[{"name":"subject","type":"bytes32","internalType":"bytes32"}],"outputs":[{"name":"","type":"uint64","internalType":"uint64"}],"stateMutability":"view"},{"type":"function","name":"updatedAt","inputs":[{"name":"subject","type":"bytes32","internalType":"bytes32"},{"name":"predicate","type":"bytes32","internalType":"bytes32"}],"outputs":[{"name":"","type":"uint64","internalType":"uint64"}],"stateMutability":"view"},{"type":"event","name":"AttributeAppended","inputs":[{"name":"subject","type":"bytes32","indexed":true,"internalType":"bytes32"},{"name":"predicate","type":"bytes32","indexed":true,"internalType":"bytes32"},{"name":"datatype","type":"uint8","indexed":false,"internalType":"uint8"},{"name":"version","type":"uint64","indexed":false,"internalType":"uint64"}],"anonymous":false},{"type":"event","name":"AttributeSet","inputs":[{"name":"subject","type":"bytes32","indexed":true,"internalType":"bytes32"},{"name":"predicate","type":"bytes32","indexed":true,"internalType":"bytes32"},{"name":"datatype","type":"uint8","indexed":false,"internalType":"uint8"},{"name":"version","type":"uint64","indexed":false,"internalType":"uint64"}],"anonymous":false},{"type":"event","name":"AttributeUnset","inputs":[{"name":"subject","type":"bytes32","indexed":true,"internalType":"bytes32"},{"name":"predicate","type":"bytes32","indexed":true,"internalType":"bytes32"},{"name":"version","type":"uint64","indexed":false,"internalType":"uint64"}],"anonymous":false},{"type":"event","name":"ProposalAwardAnnounced","inputs":[{"name":"proposalSubject","type":"bytes32","indexed":true,"internalType":"bytes32"},{"name":"round","type":"bytes32","indexed":false,"internalType":"bytes32"},{"name":"totalAwarded","type":"uint256","indexed":false,"internalType":"uint256"}],"anonymous":false},{"type":"event","name":"ProposalStatusChanged","inputs":[{"name":"proposalSubject","type":"bytes32","indexed":true,"internalType":"bytes32"},{"name":"newStatus","type":"bytes32","indexed":false,"internalType":"bytes32"}],"anonymous":false},{"type":"event","name":"SubjectFirstSeen","inputs":[{"name":"subject","type":"bytes32","indexed":true,"internalType":"bytes32"}],"anonymous":false},{"type":"error","name":"AttributeNotSet","inputs":[]},{"type":"error","name":"NotFundOwner","inputs":[]},{"type":"error","name":"PredicateNotActive","inputs":[]},{"type":"error","name":"ProposalAlreadyAnnounced","inputs":[]},{"type":"error","name":"ProposalNotInitialized","inputs":[]}],"bytecode":{"object":"0x60c0346100a157601f6126ff38819003918201601f19168301916001600160401b038311848410176100a55780849260409485528339810103126100a157610052602061004b836100b9565b92016100b9565b6001600160a01b039182166080521660a05260405161263190816100ce82396080518181816103e8015281816110b90152611f5c015260a051818181610a0801528181610f0301526118350152f35b5f80fd5b634e487b7160e01b5f52604160045260245ffd5b51906001600160a01b03821682036100a15756fe6080806040526004361015610012575f80fd5b5f905f3560e01c9081630857771714611bcb57508063098acbf614611ba45780630dc70d8f14611b7d578063213aaad714611b6257806326987f4414611b3b5780633054718114611ad757806331477b9b14611a9557806337d9d7fc14611a665780633d8df7a714611a3f5780634083843e146119d657806342921cf3146119a4578063498012b11461197d57806350cb90ea146119565780635239241f146118fd57806354ac4a271461186457806355c964dd14611820578063561bdb69146117e65780635de28ae01461177a57806360ea930c14611721578063639a2e10146117045780636d21194e146116dd578063727abedc1461168457806374f627551461160a5780637a6ad926146115db578063880eadce146115a3578063884472841461157c5780638e101369146115615780638e21caca1461152e57806393cbc37d1461151357806398eaf11c146114df578063a954aea1146114c4578063ad01e42e14610b73578063b330ba6314610b4b578063bb25a0a81461095a578063bb6b0c3b14610928578063be78c0681461090c578063c3174629146108f0578063c3a6123d1461086f578063c476e1c714610814578063cb954f301461071c578063ce7365051461062e578063d1619b3614610606578063d3a39686146105cf578063dd2be61d14610574578063e4281bc3146104b6578063e592c95c14610417578063e63cdb42146103d2578063ece6bebc146103b6578063ee872c131461037b578063f4fd499e14610316578063f98eed69146102fa5763fbc6da751461025a575f80fd5b346102f75760203660031901126102f7576040516369d1cb4360e11b815260048035908201525f5160206125dc5f395f51905f526024820152602081604481305afa9081156102ec57602092916102bf575b506040516001600160a01b039091168152f35b6102df9150823d84116102e5575b6102d78183611cbc565b810190611cdd565b5f6102ac565b503d6102cd565b6040513d84823e3d90fd5b80fd5b50346102f757806003193601126102f757602060405160088152f35b50346102f75760203660031901126102f7576040516369d1cb4360e11b815260048035908201525f51602061249c5f395f51905f526024820152602081604481305afa9081156102ec57602092916102bf57506040516001600160a01b039091168152f35b50346102f757806003193601126102f75760206040517faa0a61f78907dcef91e3ea840e3ef1bea1ed9f7e4f9907149404056016cf3e7a8152f35b50346102f757806003193601126102f757602060405160028152f35b50346102f757806003193601126102f7576040517f00000000000000000000000000000000000000000000000000000000000000006001600160a01b03168152602090f35b50346102f75760203660031901126102f757604051630df675ff60e21b815260048035908201525f51602061253c5f395f51905f52602482015290602082604481305afa9081156104aa5790610473575b602090604051908152f35b506020813d6020116104a2575b8161048d60209383611cbc565b8101031261049e5760209051610468565b5f80fd5b3d9150610480565b604051903d90823e3d90fd5b50346102f7576104c536611c82565b90825260066020526040822090825260205260408120604051908160208254918281520190819285526020852090855b818110610555575050508261050b910383611cbc565b604051928392602084019060208552518091526040840192915b818110610533575050500390f35b82516001600160a01b0316845285945060209384019390920191600101610525565b82546001600160a01b03168452602090930192600192830192016104f5565b50346102f75760203660031901126102f757604051630df675ff60e21b815260048035908201525f51602061251c5f395f51905f52602482015290602082604481305afa9081156104aa579061047357602090604051908152f35b50346102f7576020906105e136611c82565b90825260018352604082209082528252604060018060a01b0391205416604051908152f35b50346102f757806003193601126102f75760206040515f5160206124fc5f395f51905f528152f35b50346102f75760203660031901126102f7576040516331477b9b60e01b815260048035908201525f5160206124fc5f395f51905f5260248201528181604481305afa9081156102ec578291610698575b6040516020808252819061069490820185611c98565b0390f35b90503d8083833e6106a98183611cbc565b810190602081830312610718578051906001600160401b038211610714570181601f82011215610718578051906106df82611e32565b926106ed6040519485611cbc565b828452602083830101116107145781610694949260208093018386015e830101525f61067e565b8380fd5b8280fd5b50346102f75761072b36611c82565b9082526005602052604082209082526020526040812080546001600160401b038111610800576040519061076560208260051b0183611cbc565b80825260208201809385526020852085915b8383106107e357868587604051928392602084019060208552518091526040840160408260051b8601019392905b8282106107b457505050500390f35b919360019193955060206107d38192603f198a82030186528851611c98565b96019201920185949391926107a5565b6001602081926107f285611d34565b815201920192019190610777565b634e487b7160e01b83526041600452602483fd5b50346102f75760203660031901126102f757604051630df675ff60e21b815260048035908201525f5160206124bc5f395f51905f52602482015290602082604481305afa9081156104aa579061047357602090604051908152f35b50346102f757806003193601126102f75760405180916020600d54928381520191600d82527fd7b6990105719101dabeb77144f2a3385c8033acd3af97e9423a695e81ad1eb5915b8181106108da57610694856108ce81870382611cbc565b60405191829182611c49565b82548452602090930192600192830192016108b7565b50346102f757806003193601126102f757602060405160058152f35b50346102f757806003193601126102f757602060405160048152f35b50346102f75760ff604060209261093e36611c82565b9082526009855282822090825284522054166040519015158152f35b50346102f75761096936611c82565b60405163bb6b0c3b60e01b8152600481018390525f51602061249c5f395f51905f526024820152602081604481305afa908115610b02578491610b1c575b5015610b0d576040516369d1cb4360e11b8152600481018390525f51602061249c5f395f51905f526024820152602081604481305afa8015610b02576109f6918591610ae3575b503390611e4d565b15610ad457610a058183611ef4565b827f00000000000000000000000000000000000000000000000000000000000000006001600160a01b0316803b15610ad05781606491604051928380926309abe27f60e01b82527f370895524a3463fb3c65d16bc25624c3ca804d8d0d9b82c57c297fa448c5e07960048301528860248301523060448301525afa80156102ec57610abb575b505060207f05ff95989eed6498cc62b77d7e4cffa6e26e4eac6845408833f7638aff325ee791604051908152a280f35b81610ac591611cbc565b61071857825f610a8b565b5080fd5b63b3545ef360e01b8352600483fd5b610afc915060203d6020116102e5576102d78183611cbc565b5f6109ee565b6040513d86823e3d90fd5b632390f0b760e01b8352600483fd5b610b3e915060203d602011610b44575b610b368183611cbc565b810190611dd4565b5f6109a7565b503d610b2c565b50346102f757806003193601126102f75760206040515f51602061255c5f395f51905f528152f35b503461049e57602036600319011261049e576004356001600160401b03811161049e578060040190610160600319823603011261049e57610104810190610bc3610bbc83611dec565b3390611e4d565b156114b55782359260405163bb6b0c3b60e01b81528460048201525f51602061249c5f395f51905f526024820152602081604481305afa908115610ff5575f91611496575b5061148757610c235f51602061253c5f395f51905f52611f3f565b835f52600460205260405f205f51602061253c5f395f51905f525f52602052602482013560405f2055610c635f51602061253c5f395f51905f528561203d565b610c7261012483013585611ef4565b604482013580611430575b506101448201610c8d8183611e00565b9050611057575b5050610e97606482013592610cb55f51602061251c5f395f51905f52611f3f565b845f52600460205260405f205f51602061251c5f395f51905f525f526020528360405f2055610cf15f51602061251c5f395f51905f528661203d565b610cfd60848401611dec565b610d135f51602061257c5f395f51905f52611f3f565b855f52600160205260405f205f51602061257c5f395f51905f525f5260205260405f209060018060a01b03166001600160601b0360a01b825416179055610d675f51602061257c5f395f51905f52866121a7565b610d7360a48401611dec565b610d895f5160206125dc5f395f51905f52611f3f565b855f52600160205260405f205f5160206125dc5f395f51905f525f5260205260405f209060018060a01b03166001600160601b0360a01b825416179055610ddd5f5160206125dc5f395f51905f52866121a7565b60e460c484013593610dfb5f51602061255c5f395f51905f52611f3f565b865f52600360205260405f205f51602061255c5f395f51905f525f526020528460405f2055610e375f51602061255c5f395f51905f5288612311565b610e4d5f5160206125bc5f395f51905f52611f3f565b865f52600360205260405f205f5160206125bc5f395f51905f525f526020524260405f2055610e895f5160206125bc5f395f51905f5288612311565b013580611000575b50611dec565b610ead5f51602061249c5f395f51905f52611f3f565b835f52600160205260405f205f51602061249c5f395f51905f525f5260205260405f209060018060a01b03166001600160601b0360a01b825416179055610f015f51602061249c5f395f51905f52846121a7565b7f00000000000000000000000000000000000000000000000000000000000000006001600160a01b0316803b1561049e575f606491604051928380926309abe27f60e01b82527f370895524a3463fb3c65d16bc25624c3ca804d8d0d9b82c57c297fa448c5e07960048301528860248301523060448301525afa8015610ff557610fba575b507f93b21d36a3abef421efd957055abfaf1c9fbdee0aabeb26a34cfe1d6386a63929160409182519182526020820152a280f35b604091945091610feb5f7f93b21d36a3abef421efd957055abfaf1c9fbdee0aabeb26a34cfe1d6386a639294611cbc565b5f94915091610f86565b6040513d5f823e3d90fd5b6110165f5160206124bc5f395f51905f52611f3f565b855f52600460205260405f205f5160206124bc5f395f51905f525f5260205260405f20556110515f5160206124bc5f395f51905f528661203d565b5f610e91565b61106091611e00565b61106981611e32565b916110776040519384611cbc565b818352368282011161049e57815f92602092838601378301015260405163170da40760e21b81525f5160206124fc5f395f51905f5260048201526020816024817f00000000000000000000000000000000000000000000000000000000000000006001600160a01b03165afa908115610ff5575f91611411575b501561140257835f525f60205260405f205f5160206124fc5f395f51905f525f5260205260405f20908051906001600160401b0382116113ee5781906111378454611cfc565b601f811161139e575b50602090601f831160011461133b575f92611330575b50508160011b915f199060031b1c19161790555b825f52600e60205260ff60405f205416156112f9575b825f52600960205260405f205f5160206124fc5f395f51905f525f5260205260ff60405f205416156112a4575b825f52600a60205260405f205f5160206124fc5f395f51905f525f5260205260405f20600160ff19825416179055825f52600c60205260016001600160401b0360405f205416016001600160401b03811161129057835f51602061259c5f395f51905f5260405f5160206124fc5f395f51905f5293835f52600c602052815f206001600160401b0382166001600160401b0319825416179055835f52600b602052815f20855f52602052815f206001600160401b0382166001600160401b03198254161790556001600160401b0382519160018352166020820152a35f80610c94565b634e487b7160e01b5f52601160045260245ffd5b825f5260086020526112c65f5160206124fc5f395f51905f5260405f20612016565b825f52600960205260405f205f5160206124fc5f395f51905f525f5260205260405f20600160ff198254161790556111ad565b825f52600e60205260405f20600160ff1982541617905561131983611fbb565b825f51602061247c5f395f51905f525f80a2611180565b015190505f80611156565b5f8581528281209350601f198516905b818110611386575090846001959493921061136e575b505050811b01905561116a565b01515f1960f88460031b161c191690555f8080611361565b9293602060018192878601518155019501930161134b565b909150835f5260205f20601f840160051c810191602085106113e4575b90601f859493920160051c01905b8181106113d65750611140565b5f81558493506001016113c9565b90915081906113bb565b634e487b7160e01b5f52604160045260245ffd5b632263bf1f60e21b5f5260045ffd5b61142a915060203d602011610b4457610b368183611cbc565b5f6110f1565b6114465f5160206124dc5f395f51905f52611f3f565b845f52600460205260405f205f5160206124dc5f395f51905f525f5260205260405f20556114815f5160206124dc5f395f51905f528561203d565b5f610c7d565b63668e0c6560e11b5f5260045ffd5b6114af915060203d602011610b4457610b368183611cbc565b5f610c08565b63b3545ef360e01b5f5260045ffd5b3461049e575f36600319011261049e57602060405160018152f35b3461049e576114ed36611c82565b905f52600260205260405f20905f52602052602060ff60405f2054166040519015158152f35b3461049e575f36600319011261049e57602060405160038152f35b3461049e57602036600319011261049e576004355f52600c60205260206001600160401b0360405f205416604051908152f35b3461049e575f36600319011261049e57602060405160068152f35b3461049e575f36600319011261049e5760206040515f51602061253c5f395f51905f528152f35b3461049e576115b136611c82565b905f52600b60205260405f20905f5260205260206001600160401b0360405f205416604051908152f35b3461049e576115e936611c82565b905f52600360205260405f20905f52602052602060405f2054604051908152f35b3461049e57602036600319011261049e5760405163bb6b0c3b60e01b815260048035908201525f51602061249c5f395f51905f526024820152602081604481305afa8015610ff5576020915f91611667575b506040519015158152f35b61167e9150823d8411610b4457610b368183611cbc565b8261165c565b3461049e57602036600319011261049e57604051633d356c9360e11b815260048035908201525f51602061255c5f395f51905f526024820152602081604481305afa8015610ff5575f9061047357602090604051908152f35b3461049e575f36600319011261049e5760206040515f5160206125dc5f395f51905f528152f35b3461049e575f36600319011261049e576020600d54604051908152f35b3461049e57602036600319011261049e57604051633d356c9360e11b815260048035908201525f5160206125bc5f395f51905f526024820152602081604481305afa8015610ff5575f9061047357602090604051908152f35b3461049e57602036600319011261049e57604051630df675ff60e21b815260048035908201527faa0a61f78907dcef91e3ea840e3ef1bea1ed9f7e4f9907149404056016cf3e7a6024820152602081604481305afa8015610ff5575f9061047357602090604051908152f35b3461049e575f36600319011261049e5760206040517f370895524a3463fb3c65d16bc25624c3ca804d8d0d9b82c57c297fa448c5e0798152f35b3461049e575f36600319011261049e576040517f00000000000000000000000000000000000000000000000000000000000000006001600160a01b03168152602090f35b3461049e57602036600319011261049e576004356001600160401b03811161049e573660238201121561049e578060040135906001600160401b03821161049e57366024838301011161049e576020916118f2602c6040518381946024888401976b39b09d383937b837b9b0b61d60a11b8952018484013781015f838201520301601f198101835282611cbc565b519020604051908152f35b3461049e57602036600319011261049e57604051630df675ff60e21b815260048035908201525f5160206124dc5f395f51905f526024820152602081604481305afa8015610ff5575f9061047357602090604051908152f35b3461049e575f36600319011261049e5760206040515f51602061251c5f395f51905f528152f35b3461049e575f36600319011261049e5760206040515f5160206125bc5f395f51905f528152f35b3461049e576119b236611c82565b905f52600a60205260405f20905f52602052602060ff60405f205416604051908152f35b3461049e576119e436611c82565b905f52600760205260405f20905f5260205260405f206040519081602082549182815201915f5260205f20905f5b818110611a2957610694856108ce81870382611cbc565b8254845260209093019260019283019201611a12565b3461049e575f36600319011261049e5760206040515f5160206124dc5f395f51905f528152f35b3461049e57611a7436611c82565b905f52600460205260405f20905f52602052602060405f2054604051908152f35b3461049e57611aa336611c82565b905f525f60205260405f20905f52602052610694611ac360405f20611d34565b604051918291602083526020830190611c98565b3461049e57602036600319011261049e576004355f52600860205260405f206040519081602082549182815201915f5260205f20905f5b818110611b2557610694856108ce81870382611cbc565b8254845260209093019260019283019201611b0e565b3461049e575f36600319011261049e5760206040515f5160206124bc5f395f51905f528152f35b3461049e575f36600319011261049e57602060405160078152f35b3461049e575f36600319011261049e5760206040515f51602061249c5f395f51905f528152f35b3461049e575f36600319011261049e5760206040515f51602061257c5f395f51905f528152f35b3461049e57602036600319011261049e576369d1cb4360e11b815260048035908201525f51602061257c5f395f51905f526024820152602081604481305afa8015610ff5576020915f91611c2c57506040516001600160a01b039091168152f35b611c439150823d84116102e5576102d78183611cbc565b826102ac565b60206040818301928281528451809452019201905f5b818110611c6c5750505090565b8251845260209384019390920191600101611c5f565b604090600319011261049e576004359060243590565b805180835260209291819084018484015e5f828201840152601f01601f1916010190565b90601f801991011681019081106001600160401b038211176113ee57604052565b9081602091031261049e57516001600160a01b038116810361049e5790565b90600182811c92168015611d2a575b6020831014611d1657565b634e487b7160e01b5f52602260045260245ffd5b91607f1691611d0b565b9060405191825f825492611d4784611cfc565b8084529360018116908115611db25750600114611d6e575b50611d6c92500383611cbc565b565b90505f9291925260205f20905f915b818310611d96575050906020611d6c928201015f611d5f565b6020919350806001915483858901015201910190918492611d7d565b905060209250611d6c94915060ff191682840152151560051b8201015f611d5f565b9081602091031261049e5751801515810361049e5790565b356001600160a01b038116810361049e5790565b903590601e198136030182121561049e57018035906001600160401b03821161049e5760200191813603831361049e57565b6001600160401b0381116113ee57601f01601f191660200190565b90813b15611eee575f91829160405160208101916317aa5fb760e11b835260018060a01b0316602482015260248152611e87604482611cbc565b51915afa3d15611ee7573d611e9b81611e32565b90611ea96040519283611cbc565b81523d5f602083013e5b81611ed9575b81611ec2575090565b611ed6915060208082518301019101611dd4565b90565b905060208151101590611eb9565b6060611eb3565b50505f90565b7faa0a61f78907dcef91e3ea840e3ef1bea1ed9f7e4f9907149404056016cf3e7a90611d6c92611f2383611f3f565b815f52600460205260405f20835f5260205260405f205561203d565b60405163170da40760e21b815260048101919091526020816024817f00000000000000000000000000000000000000000000000000000000000000006001600160a01b03165afa908115610ff5575f91611f9c575b501561140257565b611fb5915060203d602011610b4457610b368183611cbc565b5f611f94565b600d54600160401b8110156113ee576001810180600d5581101561200257600d5f527fd7b6990105719101dabeb77144f2a3385c8033acd3af97e9423a695e81ad1eb50155565b634e487b7160e01b5f52603260045260245ffd5b805490600160401b8210156113ee5760018201808255821015612002575f5260205f200155565b805f52600e60205260ff60405f20541615612170575b805f52600960205260405f20825f5260205260ff60405f20541615612135575b805f52600a60205260405f20825f5260205260405f20600560ff19825416179055805f52600c60205260016001600160401b0360405f205416016001600160401b0381116112905760405f51602061259c5f395f51905f5291835f52600c602052815f206001600160401b0382166001600160401b0319825416179055835f52600b602052815f20855f52602052815f206001600160401b0382166001600160401b03198254161790556001600160401b0382519160058352166020820152a3565b805f52600860205261214a8260405f20612016565b805f52600960205260405f20825f5260205260405f20600160ff19825416179055612073565b805f52600e60205260405f20600160ff1982541617905561219081611fbb565b805f51602061247c5f395f51905f525f80a2612053565b805f52600e60205260ff60405f205416156122da575b805f52600960205260405f20825f5260205260ff60405f2054161561229f575b805f52600a60205260405f20825f5260205260405f20600260ff19825416179055805f52600c60205260016001600160401b0360405f205416016001600160401b0381116112905760405f51602061259c5f395f51905f5291835f52600c602052815f206001600160401b0382166001600160401b0319825416179055835f52600b602052815f20855f52602052815f206001600160401b0382166001600160401b03198254161790556001600160401b0382519160028352166020820152a3565b805f5260086020526122b48260405f20612016565b805f52600960205260405f20825f5260205260405f20600160ff198254161790556121dd565b805f52600e60205260405f20600160ff198254161790556122fa81611fbb565b805f51602061247c5f395f51905f525f80a26121bd565b805f52600e60205260ff60405f20541615612444575b805f52600960205260405f20825f5260205260ff60405f20541615612409575b805f52600a60205260405f20825f5260205260405f20600460ff19825416179055805f52600c60205260016001600160401b0360405f205416016001600160401b0381116112905760405f51602061259c5f395f51905f5291835f52600c602052815f206001600160401b0382166001600160401b0319825416179055835f52600b602052815f20855f52602052815f206001600160401b0382166001600160401b03198254161790556001600160401b0382519160048352166020820152a3565b805f52600860205261241e8260405f20612016565b805f52600960205260405f20825f5260205260405f20600160ff19825416179055612347565b805f52600e60205260405f20600160ff1982541617905561246481611fbb565b805f51602061247c5f395f51905f525f80a261232756fe34f1cb4778d9578e1af878b07d3ae7e9f2f32fafcaa3096fe48153670a71bfaf45e37376deb2bfbe1c36553e53d1d83c01eec7d14847d2201760c785dce0a58746c7d83ed6153e29f00857265f70a01b4b5c86cc9be110cc63aa532bd7733fb402c86c7cd434b24896b53621ce912da35d8872c66660556d2d3dcbb30cfc8132f594d4bb03e9a426abf09e13e43d6b5e9f5043774296f649b2a98d031dd4cf41f451b58f8af39c6e73a80cd5baf13f2fc319382fd7fa0061ecf62e1f4d01903743914862a2ba39f993a6e30016740d009d65b2db95da80c0e34f7b81f4d287a0b003323d75ea0aca2f41692fd125ccf7d411b0eaa6a00b0ec13005edcacdf5095798dbf4e6afbff06425d0e25039916512a8c98151f9c4e2d4234dbfe16808be5167ea251eeaf052f4c7bd769efb5b17e6ba98908050b9929a0bd192b57274fb4ec7206f414c778ba7c12fd6ebb1a52032225948cc61c97a111704b001c88218977215c32b9d3729aca9809e7dcd67670608c970113984ce8fd53e5b517e4f8ba2646970667358221220a52a271191358505ac2616ec4eca72b9534f41eeae121734e5fed6ef2abbe65964736f6c634300081c0033","linkReferences":{}},"methodIdentifiers":{"CLASS_PROPOSAL_PUBLIC_FACET()":"561bdb69","DT_ADDRESS_ARR_PUB()":"213aaad7","DT_ADDRESS_PUB()":"ece6bebc","DT_BOOL_PUB()":"93cbc37d","DT_BYTES32_ARR_PUB()":"f98eed69","DT_BYTES32_PUB()":"c3174629","DT_STRING_ARR_PUB()":"8e101369","DT_STRING_PUB()":"a954aea1","DT_UINT256_PUB()":"be78c068","ONTOLOGY()":"e63cdb42","SA_AWARD_NEED_INTENT()":"d1619b36","SA_PROPOSAL_AWARDED_AT()":"498012b1","SA_PROPOSAL_AWARDING_FUND()":"0dc70d8f","SA_PROPOSAL_BASED_ON_INTENT()":"3d8df7a7","SA_PROPOSAL_BODY_HASH()":"26987f44","SA_PROPOSAL_KIND()":"88447284","SA_PROPOSAL_PROPOSER()":"098acbf6","SA_PROPOSAL_RECIPIENT()":"6d21194e","SA_PROPOSAL_ROUND()":"50cb90ea","SA_PROPOSAL_STATUS()":"ee872c13","SA_PROPOSAL_TOTAL_AWARDED()":"b330ba63","SHAPES()":"55c964dd","allSubjects()":"c3a6123d","announceAward((bytes32,bytes32,bytes32,bytes32,address,address,uint256,bytes32,address,bytes32,string))":"ad01e42e","datatypeOf(bytes32,bytes32)":"42921cf3","getAddress(bytes32,bytes32)":"d3a39686","getAddressArr(bytes32,bytes32)":"e4281bc3","getAwardNeedIntent(bytes32)":"ce736505","getAwardedAt(bytes32)":"60ea930c","getAwardingFund(bytes32)":"f4fd499e","getBasedOnIntentId(bytes32)":"5239241f","getBodyHash(bytes32)":"c476e1c7","getBool(bytes32,bytes32)":"98eaf11c","getBytes32(bytes32,bytes32)":"37d9d7fc","getBytes32Arr(bytes32,bytes32)":"4083843e","getKind(bytes32)":"e592c95c","getProposer(bytes32)":"08577717","getRecipient(bytes32)":"fbc6da75","getRound(bytes32)":"dd2be61d","getStatus(bytes32)":"5de28ae0","getString(bytes32,bytes32)":"31477b9b","getStringArr(bytes32,bytes32)":"cb954f30","getTotalAwarded(bytes32)":"727abedc","getUint(bytes32,bytes32)":"7a6ad926","isAnnounced(bytes32)":"74f62755","isSet(bytes32,bytes32)":"bb6b0c3b","predicatesOf(bytes32)":"30547181","proposalSubject(string)":"54ac4a27","setStatus(bytes32,bytes32)":"bb25a0a8","subjectCount()":"639a2e10","subjectVersion(bytes32)":"8e21caca","updatedAt(bytes32,bytes32)":"880eadce"},"id":112}