{"abi":[{"type":"constructor","inputs":[{"name":"store","type":"address","internalType":"address"},{"name":"shapes","type":"address","internalType":"address"}],"stateMutability":"nonpayable"},{"type":"function","name":"CLASS_PROPOSAL_PUBLIC_FACET","inputs":[],"outputs":[{"name":"","type":"bytes32","internalType":"bytes32"}],"stateMutability":"view"},{"type":"function","name":"SA_PROPOSAL_AWARDED_AT","inputs":[],"outputs":[{"name":"","type":"bytes32","internalType":"bytes32"}],"stateMutability":"view"},{"type":"function","name":"SA_PROPOSAL_AWARDING_FUND","inputs":[],"outputs":[{"name":"","type":"bytes32","internalType":"bytes32"}],"stateMutability":"view"},{"type":"function","name":"SA_PROPOSAL_BASED_ON_INTENT","inputs":[],"outputs":[{"name":"","type":"bytes32","internalType":"bytes32"}],"stateMutability":"view"},{"type":"function","name":"SA_PROPOSAL_BODY_HASH","inputs":[],"outputs":[{"name":"","type":"bytes32","internalType":"bytes32"}],"stateMutability":"view"},{"type":"function","name":"SA_PROPOSAL_KIND","inputs":[],"outputs":[{"name":"","type":"bytes32","internalType":"bytes32"}],"stateMutability":"view"},{"type":"function","name":"SA_PROPOSAL_PROPOSER","inputs":[],"outputs":[{"name":"","type":"bytes32","internalType":"bytes32"}],"stateMutability":"view"},{"type":"function","name":"SA_PROPOSAL_RECIPIENT","inputs":[],"outputs":[{"name":"","type":"bytes32","internalType":"bytes32"}],"stateMutability":"view"},{"type":"function","name":"SA_PROPOSAL_ROUND","inputs":[],"outputs":[{"name":"","type":"bytes32","internalType":"bytes32"}],"stateMutability":"view"},{"type":"function","name":"SA_PROPOSAL_STATUS","inputs":[],"outputs":[{"name":"","type":"bytes32","internalType":"bytes32"}],"stateMutability":"view"},{"type":"function","name":"SA_PROPOSAL_TOTAL_AWARDED","inputs":[],"outputs":[{"name":"","type":"bytes32","internalType":"bytes32"}],"stateMutability":"view"},{"type":"function","name":"SHAPES","inputs":[],"outputs":[{"name":"","type":"address","internalType":"contract ShapeRegistry"}],"stateMutability":"view"},{"type":"function","name":"STORE","inputs":[],"outputs":[{"name":"","type":"address","internalType":"contract OntologyAttributeStore"}],"stateMutability":"view"},{"type":"function","name":"announceAward","inputs":[{"name":"p","type":"tuple","internalType":"struct ProposalRegistry.AnnounceParams","components":[{"name":"proposalSubject","type":"bytes32","internalType":"bytes32"},{"name":"kind","type":"bytes32","internalType":"bytes32"},{"name":"basedOnIntentId","type":"bytes32","internalType":"bytes32"},{"name":"round","type":"bytes32","internalType":"bytes32"},{"name":"proposer","type":"address","internalType":"address"},{"name":"recipient","type":"address","internalType":"address"},{"name":"totalAwarded","type":"uint256","internalType":"uint256"},{"name":"bodyHash","type":"bytes32","internalType":"bytes32"},{"name":"awardingFund","type":"address","internalType":"address"},{"name":"status","type":"bytes32","internalType":"bytes32"}]}],"outputs":[],"stateMutability":"nonpayable"},{"type":"function","name":"getAwardedAt","inputs":[{"name":"proposal","type":"bytes32","internalType":"bytes32"}],"outputs":[{"name":"","type":"uint256","internalType":"uint256"}],"stateMutability":"view"},{"type":"function","name":"getAwardingFund","inputs":[{"name":"proposal","type":"bytes32","internalType":"bytes32"}],"outputs":[{"name":"","type":"address","internalType":"address"}],"stateMutability":"view"},{"type":"function","name":"getBasedOnIntentId","inputs":[{"name":"proposal","type":"bytes32","internalType":"bytes32"}],"outputs":[{"name":"","type":"bytes32","internalType":"bytes32"}],"stateMutability":"view"},{"type":"function","name":"getBodyHash","inputs":[{"name":"proposal","type":"bytes32","internalType":"bytes32"}],"outputs":[{"name":"","type":"bytes32","internalType":"bytes32"}],"stateMutability":"view"},{"type":"function","name":"getKind","inputs":[{"name":"proposal","type":"bytes32","internalType":"bytes32"}],"outputs":[{"name":"","type":"bytes32","internalType":"bytes32"}],"stateMutability":"view"},{"type":"function","name":"getProposer","inputs":[{"name":"proposal","type":"bytes32","internalType":"bytes32"}],"outputs":[{"name":"","type":"address","internalType":"address"}],"stateMutability":"view"},{"type":"function","name":"getRecipient","inputs":[{"name":"proposal","type":"bytes32","internalType":"bytes32"}],"outputs":[{"name":"","type":"address","internalType":"address"}],"stateMutability":"view"},{"type":"function","name":"getRound","inputs":[{"name":"proposal","type":"bytes32","internalType":"bytes32"}],"outputs":[{"name":"","type":"bytes32","internalType":"bytes32"}],"stateMutability":"view"},{"type":"function","name":"getStatus","inputs":[{"name":"proposal","type":"bytes32","internalType":"bytes32"}],"outputs":[{"name":"","type":"bytes32","internalType":"bytes32"}],"stateMutability":"view"},{"type":"function","name":"getTotalAwarded","inputs":[{"name":"proposal","type":"bytes32","internalType":"bytes32"}],"outputs":[{"name":"","type":"uint256","internalType":"uint256"}],"stateMutability":"view"},{"type":"function","name":"isAnnounced","inputs":[{"name":"proposal","type":"bytes32","internalType":"bytes32"}],"outputs":[{"name":"","type":"bool","internalType":"bool"}],"stateMutability":"view"},{"type":"function","name":"proposalSubject","inputs":[{"name":"proposalId","type":"string","internalType":"string"}],"outputs":[{"name":"","type":"bytes32","internalType":"bytes32"}],"stateMutability":"pure"},{"type":"function","name":"setStatus","inputs":[{"name":"proposal","type":"bytes32","internalType":"bytes32"},{"name":"newStatus","type":"bytes32","internalType":"bytes32"}],"outputs":[],"stateMutability":"nonpayable"},{"type":"event","name":"ProposalAwardAnnounced","inputs":[{"name":"proposalSubject","type":"bytes32","indexed":true,"internalType":"bytes32"},{"name":"round","type":"bytes32","indexed":false,"internalType":"bytes32"},{"name":"totalAwarded","type":"uint256","indexed":false,"internalType":"uint256"}],"anonymous":false},{"type":"event","name":"ProposalStatusChanged","inputs":[{"name":"proposalSubject","type":"bytes32","indexed":true,"internalType":"bytes32"},{"name":"newStatus","type":"bytes32","indexed":false,"internalType":"bytes32"}],"anonymous":false},{"type":"error","name":"NotFundOwner","inputs":[]},{"type":"error","name":"ProposalAlreadyAnnounced","inputs":[]},{"type":"error","name":"ProposalNotInitialized","inputs":[]}],"bytecode":{"object":"0x60c0346100ee57601f61178b38819003918201601f19168301916001600160401b038311848410176100f25780849260409485528339810103126100ee57610052602061004b83610106565b9201610106565b6001600160a01b039182166080521660a052604051611670908161011b823960805181818161019b0152818161026501528181610330015281816109bd01528181610a9801528181610b2f01528181610b9101528181610e8201528181610f38015281816110070152818161108901528181611237015281816112c70152611456015260a0518181816106a201528181610c8f01526111190152f35b5f80fd5b634e487b7160e01b5f52604160045260245ffd5b51906001600160a01b03821682036100ee5756fe6080806040526004361015610012575f80fd5b5f905f3560e01c908163085777171461140557508063098acbf6146113cb5780630dc70d8f146113a457806326987f441461136a5780633d8df7a714611330578063498012b1146112f6578063507f1465146112b257806350cb90ea146112785780635239241f146111e357806354ac4a271461114857806355c964dd14611104578063561bdb69146110ca5780635de28ae01461104857806360ea930c14610fb35780636d21194e14610f79578063727abedc14610ee457806374f6275514610e415780638844728414610e07578063b330ba6314610dcd578063bb25a0a814610b70578063c476e1c714610ad9578063dd2be61d14610a42578063e592c95c14610967578063e78b8057146102d9578063ee872c13146102b1578063f4fd499e146102235763fbc6da7514610147575f80fd5b34610220576020366003190112610220576040516369d1cb4360e11b815260048035908201527f977215c32b9d3729aca9809e7dcd67670608c970113984ce8fd53e5b517e4f8b60248201526020816044817f00000000000000000000000000000000000000000000000000000000000000006001600160a01b03165afa90811561021557602092916101e8575b506040516001600160a01b039091168152f35b6102089150823d841161020e575b61020081836114bf565b8101906114f5565b5f6101d5565b503d6101f6565b6040513d84823e3d90fd5b80fd5b5034610220576020366003190112610220576040516369d1cb4360e11b815260048035908201525f5160206115fb5f395f51905f5260248201526020816044817f00000000000000000000000000000000000000000000000000000000000000006001600160a01b03165afa90811561021557602092916101e857506040516001600160a01b039091168152f35b503461022057806003193601126102205760206040515f51602061161b5f395f51905f528152f35b503461022057610140366003190112610220576102fe6102f761152c565b3390611543565b156109585760405163bb6b0c3b60e01b8152600480359082018190525f5160206115fb5f395f51905f526024830152907f00000000000000000000000000000000000000000000000000000000000000006001600160a01b031690602081604481855afa90811561094d57849161091e575b5061090f57803b15610786578260405163a14ff85760e01b81528360048201527f43914862a2ba39f993a6e30016740d009d65b2db95da80c0e34f7b81f4d287a060248201526024356044820152818160648183875af18015610215576108fa575b5050803b15610786578260405163a14ff85760e01b81528360048201525f51602061161b5f395f51905f526024820152610124356044820152818160648183875af18015610215576108e5575b5060443580610876575b505060643590803b15610769578360405163a14ff85760e01b81528460048201527ff451b58f8af39c6e73a80cd5baf13f2fc319382fd7fa0061ecf62e1f4d0190376024820152836044820152818160648183875af1801561021557610861575b508490506084356001600160a01b038116908181036107865750823b1561076d5760405190633cd3e7f760e11b82528560048301527f5798dbf4e6afbff06425d0e25039916512a8c98151f9c4e2d4234dbfe16808be60248301526044820152818160648183875af180156102155761084c575b5084905060a4356001600160a01b038116908181036107865750823b1561076d5760405190633cd3e7f760e11b82528560048301527f977215c32b9d3729aca9809e7dcd67670608c970113984ce8fd53e5b517e4f8b60248301526044820152818160648183875af1801561021557610837575b5060c43591803b1561076d57604051631d60084b60e01b81528560048201527fb003323d75ea0aca2f41692fd125ccf7d411b0eaa6a00b0ec13005edcacdf5096024820152836044820152828160648183865af1908115610802578391610822575b5050803b1561076d57604051631d60084b60e01b8152600481018690527f4ec7206f414c778ba7c12fd6ebb1a52032225948cc61c97a111704b001c882186024820152426044820152828160648183865af190811561080257839161080d575b505060e4358061078a575b5061064861152c565b813b1561078657604051633cd3e7f760e11b8152600481018790525f5160206115fb5f395f51905f5260248201526001600160a01b0390911660448201529082908290606490829084905af1801561021557610771575b507f00000000000000000000000000000000000000000000000000000000000000006001600160a01b0316803b1561076d5781604491604051928380926303b47b6760e11b82527f370895524a3463fb3c65d16bc25624c3ca804d8d0d9b82c57c297fa448c5e07960048301528960248301525afa801561021557610754575b50507f93b21d36a3abef421efd957055abfaf1c9fbdee0aabeb26a34cfe1d6386a63929160409182519182526020820152a280f35b8161075e916114bf565b61076957835f61071f565b8380fd5b5080fd5b8161077b916114bf565b61076957835f61069f565b8280fd5b813b15610786576040519063a14ff85760e01b82528660048301527f46c7d83ed6153e29f00857265f70a01b4b5c86cc9be110cc63aa532bd7733fb460248301526044820152828160648183865af19081156108025783916107ed575b5061063f565b816107f7916114bf565b61076d57815f6107e7565b6040513d85823e3d90fd5b81610817916114bf565b61076d57815f610634565b8161082c916114bf565b61076d57815f6105d4565b81610841916114bf565b61076957835f610572565b81610856916114bf565b61076957835f6104fe565b8161086b916114bf565b61076957835f61048a565b823b1561076d576040519063a14ff85760e01b82528460048301527f02c86c7cd434b24896b53621ce912da35d8872c66660556d2d3dcbb30cfc813260248301526044820152818160648183875af18015610215571561042957816108da916114bf565b61078657825f610429565b816108ef916114bf565b61078657825f61041f565b81610904916114bf565b61078657825f6103d2565b63668e0c6560e11b8352600483fd5b610940915060203d602011610946575b61093881836114bf565b810190611514565b5f610370565b503d61092e565b6040513d86823e3d90fd5b63b3545ef360e01b8152600490fd5b503461022057602036600319011261022057604051630df675ff60e21b815260048035908201527f43914862a2ba39f993a6e30016740d009d65b2db95da80c0e34f7b81f4d287a06024820152906020826044817f00000000000000000000000000000000000000000000000000000000000000006001600160a01b03165afa908115610a3657906109ff575b602090604051908152f35b506020813d602011610a2e575b81610a19602093836114bf565b81010312610a2a57602090516109f4565b5f80fd5b3d9150610a0c565b604051903d90823e3d90fd5b503461022057602036600319011261022057604051630df675ff60e21b815260048035908201527ff451b58f8af39c6e73a80cd5baf13f2fc319382fd7fa0061ecf62e1f4d0190376024820152906020826044817f00000000000000000000000000000000000000000000000000000000000000006001600160a01b03165afa908115610a3657906109ff57602090604051908152f35b503461022057602036600319011261022057604051630df675ff60e21b815260048035908201527f46c7d83ed6153e29f00857265f70a01b4b5c86cc9be110cc63aa532bd7733fb46024820152906020826044817f00000000000000000000000000000000000000000000000000000000000000006001600160a01b03165afa908115610a3657906109ff57602090604051908152f35b5034610a2a576040366003190112610a2a5760043560243560018060a01b037f00000000000000000000000000000000000000000000000000000000000000001660405163bb6b0c3b60e01b81528360048201525f5160206115fb5f395f51905f526024820152602081604481855afa908115610d66575f91610dae575b5015610d9f576040516369d1cb4360e11b8152600481018490525f5160206115fb5f395f51905f526024820152602081604481855afa8015610d6657610c3d915f91610d80575b503390611543565b15610d7157803b15610a2a575f809160646040518094819363a14ff85760e01b83528860048401525f51602061161b5f395f51905f5260248401528760448401525af18015610d6657610d51575b50827f00000000000000000000000000000000000000000000000000000000000000006001600160a01b0316803b1561076d5781604491604051928380926303b47b6760e11b82527f370895524a3463fb3c65d16bc25624c3ca804d8d0d9b82c57c297fa448c5e07960048301528860248301525afa801561021557610d3c575b505060207f05ff95989eed6498cc62b77d7e4cffa6e26e4eac6845408833f7638aff325ee791604051908152a280f35b81610d46916114bf565b61078657825f610d0c565b610d5e9193505f906114bf565b5f915f610c8b565b6040513d5f823e3d90fd5b63b3545ef360e01b5f5260045ffd5b610d99915060203d60201161020e5761020081836114bf565b5f610c35565b632390f0b760e01b5f5260045ffd5b610dc7915060203d6020116109465761093881836114bf565b5f610bee565b34610a2a575f366003190112610a2a5760206040517fb003323d75ea0aca2f41692fd125ccf7d411b0eaa6a00b0ec13005edcacdf5098152f35b34610a2a575f366003190112610a2a5760206040517f43914862a2ba39f993a6e30016740d009d65b2db95da80c0e34f7b81f4d287a08152f35b34610a2a576020366003190112610a2a5760405163bb6b0c3b60e01b815260048035908201525f5160206115fb5f395f51905f5260248201526020816044817f00000000000000000000000000000000000000000000000000000000000000006001600160a01b03165afa8015610d66576020915f91610ec7575b506040519015158152f35b610ede9150823d84116109465761093881836114bf565b82610ebc565b34610a2a576020366003190112610a2a57604051633d356c9360e11b815260048035908201527fb003323d75ea0aca2f41692fd125ccf7d411b0eaa6a00b0ec13005edcacdf50960248201526020816044817f00000000000000000000000000000000000000000000000000000000000000006001600160a01b03165afa8015610d66575f906109ff57602090604051908152f35b34610a2a575f366003190112610a2a5760206040517f977215c32b9d3729aca9809e7dcd67670608c970113984ce8fd53e5b517e4f8b8152f35b34610a2a576020366003190112610a2a57604051633d356c9360e11b815260048035908201527f4ec7206f414c778ba7c12fd6ebb1a52032225948cc61c97a111704b001c8821860248201526020816044817f00000000000000000000000000000000000000000000000000000000000000006001600160a01b03165afa8015610d66575f906109ff57602090604051908152f35b34610a2a576020366003190112610a2a57604051630df675ff60e21b815260048035908201525f51602061161b5f395f51905f5260248201526020816044817f00000000000000000000000000000000000000000000000000000000000000006001600160a01b03165afa8015610d66575f906109ff57602090604051908152f35b34610a2a575f366003190112610a2a5760206040517f370895524a3463fb3c65d16bc25624c3ca804d8d0d9b82c57c297fa448c5e0798152f35b34610a2a575f366003190112610a2a576040517f00000000000000000000000000000000000000000000000000000000000000006001600160a01b03168152602090f35b34610a2a576020366003190112610a2a5760043567ffffffffffffffff8111610a2a5736602382011215610a2a5780600401359067ffffffffffffffff8211610a2a573660248383010111610a2a576020916111d8602c6040518381946024888401976b39b09d383937b837b9b0b61d60a11b8952018484013781015f838201520301601f1981018352826114bf565b519020604051908152f35b34610a2a576020366003190112610a2a57604051630df675ff60e21b815260048035908201527f02c86c7cd434b24896b53621ce912da35d8872c66660556d2d3dcbb30cfc813260248201526020816044817f00000000000000000000000000000000000000000000000000000000000000006001600160a01b03165afa8015610d66575f906109ff57602090604051908152f35b34610a2a575f366003190112610a2a5760206040517ff451b58f8af39c6e73a80cd5baf13f2fc319382fd7fa0061ecf62e1f4d0190378152f35b34610a2a575f366003190112610a2a576040517f00000000000000000000000000000000000000000000000000000000000000006001600160a01b03168152602090f35b34610a2a575f366003190112610a2a5760206040517f4ec7206f414c778ba7c12fd6ebb1a52032225948cc61c97a111704b001c882188152f35b34610a2a575f366003190112610a2a5760206040517f02c86c7cd434b24896b53621ce912da35d8872c66660556d2d3dcbb30cfc81328152f35b34610a2a575f366003190112610a2a5760206040517f46c7d83ed6153e29f00857265f70a01b4b5c86cc9be110cc63aa532bd7733fb48152f35b34610a2a575f366003190112610a2a5760206040515f5160206115fb5f395f51905f528152f35b34610a2a575f366003190112610a2a5760206040517f5798dbf4e6afbff06425d0e25039916512a8c98151f9c4e2d4234dbfe16808be8152f35b34610a2a576020366003190112610a2a576369d1cb4360e11b815260048035908201527f5798dbf4e6afbff06425d0e25039916512a8c98151f9c4e2d4234dbfe16808be60248201526020816044817f00000000000000000000000000000000000000000000000000000000000000006001600160a01b03165afa8015610d66576020915f916114a257506040516001600160a01b039091168152f35b6114b99150823d841161020e5761020081836114bf565b826101d5565b90601f8019910116810190811067ffffffffffffffff8211176114e157604052565b634e487b7160e01b5f52604160045260245ffd5b90816020910312610a2a57516001600160a01b0381168103610a2a5790565b90816020910312610a2a57518015158103610a2a5790565b610104356001600160a01b0381168103610a2a5790565b90813b156115f4575f91829160405160208101916317aa5fb760e11b835260018060a01b031660248201526024815261157d6044826114bf565b51915afa3d156115ed573d67ffffffffffffffff81116114e157604051906115af601f8201601f1916602001836114bf565b81523d5f602083013e5b816115df575b816115c8575090565b6115dc915060208082518301019101611514565b90565b9050602081511015906115bf565b60606115b9565b50505f9056fe45e37376deb2bfbe1c36553e53d1d83c01eec7d14847d2201760c785dce0a587aa0a61f78907dcef91e3ea840e3ef1bea1ed9f7e4f9907149404056016cf3e7aa264697066735822122037ae76196daa21ab60e9bed3a06d297e4285594dc87439a75ef5997c6d5e735f64736f6c634300081c0033","linkReferences":{}},"methodIdentifiers":{"CLASS_PROPOSAL_PUBLIC_FACET()":"561bdb69","SA_PROPOSAL_AWARDED_AT()":"498012b1","SA_PROPOSAL_AWARDING_FUND()":"0dc70d8f","SA_PROPOSAL_BASED_ON_INTENT()":"3d8df7a7","SA_PROPOSAL_BODY_HASH()":"26987f44","SA_PROPOSAL_KIND()":"88447284","SA_PROPOSAL_PROPOSER()":"098acbf6","SA_PROPOSAL_RECIPIENT()":"6d21194e","SA_PROPOSAL_ROUND()":"50cb90ea","SA_PROPOSAL_STATUS()":"ee872c13","SA_PROPOSAL_TOTAL_AWARDED()":"b330ba63","SHAPES()":"55c964dd","STORE()":"507f1465","announceAward((bytes32,bytes32,bytes32,bytes32,address,address,uint256,bytes32,address,bytes32))":"e78b8057","getAwardedAt(bytes32)":"60ea930c","getAwardingFund(bytes32)":"f4fd499e","getBasedOnIntentId(bytes32)":"5239241f","getBodyHash(bytes32)":"c476e1c7","getKind(bytes32)":"e592c95c","getProposer(bytes32)":"08577717","getRecipient(bytes32)":"fbc6da75","getRound(bytes32)":"dd2be61d","getStatus(bytes32)":"5de28ae0","getTotalAwarded(bytes32)":"727abedc","isAnnounced(bytes32)":"74f62755","proposalSubject(string)":"54ac4a27","setStatus(bytes32,bytes32)":"bb25a0a8"},"id":100}