{"abi":[{"type":"constructor","inputs":[{"name":"ontologyRegistry","type":"address","internalType":"address"},{"name":"shapes","type":"address","internalType":"address"}],"stateMutability":"nonpayable"},{"type":"function","name":"CLASS_PROPOSAL_PUBLIC_FACET","inputs":[],"outputs":[{"name":"","type":"bytes32","internalType":"bytes32"}],"stateMutability":"view"},{"type":"function","name":"DT_ADDRESS_ARR_PUB","inputs":[],"outputs":[{"name":"","type":"uint8","internalType":"uint8"}],"stateMutability":"pure"},{"type":"function","name":"DT_ADDRESS_PUB","inputs":[],"outputs":[{"name":"","type":"uint8","internalType":"uint8"}],"stateMutability":"pure"},{"type":"function","name":"DT_BOOL_PUB","inputs":[],"outputs":[{"name":"","type":"uint8","internalType":"uint8"}],"stateMutability":"pure"},{"type":"function","name":"DT_BYTES32_ARR_PUB","inputs":[],"outputs":[{"name":"","type":"uint8","internalType":"uint8"}],"stateMutability":"pure"},{"type":"function","name":"DT_BYTES32_PUB","inputs":[],"outputs":[{"name":"","type":"uint8","internalType":"uint8"}],"stateMutability":"pure"},{"type":"function","name":"DT_STRING_ARR_PUB","inputs":[],"outputs":[{"name":"","type":"uint8","internalType":"uint8"}],"stateMutability":"pure"},{"type":"function","name":"DT_STRING_PUB","inputs":[],"outputs":[{"name":"","type":"uint8","internalType":"uint8"}],"stateMutability":"pure"},{"type":"function","name":"DT_UINT256_PUB","inputs":[],"outputs":[{"name":"","type":"uint8","internalType":"uint8"}],"stateMutability":"pure"},{"type":"function","name":"ONTOLOGY","inputs":[],"outputs":[{"name":"","type":"address","internalType":"contract OntologyTermRegistry"}],"stateMutability":"view"},{"type":"function","name":"SA_PROPOSAL_AWARDED_AT","inputs":[],"outputs":[{"name":"","type":"bytes32","internalType":"bytes32"}],"stateMutability":"view"},{"type":"function","name":"SA_PROPOSAL_AWARDING_FUND","inputs":[],"outputs":[{"name":"","type":"bytes32","internalType":"bytes32"}],"stateMutability":"view"},{"type":"function","name":"SA_PROPOSAL_BASED_ON_INTENT","inputs":[],"outputs":[{"name":"","type":"bytes32","internalType":"bytes32"}],"stateMutability":"view"},{"type":"function","name":"SA_PROPOSAL_BODY_HASH","inputs":[],"outputs":[{"name":"","type":"bytes32","internalType":"bytes32"}],"stateMutability":"view"},{"type":"function","name":"SA_PROPOSAL_KIND","inputs":[],"outputs":[{"name":"","type":"bytes32","internalType":"bytes32"}],"stateMutability":"view"},{"type":"function","name":"SA_PROPOSAL_PROPOSER","inputs":[],"outputs":[{"name":"","type":"bytes32","internalType":"bytes32"}],"stateMutability":"view"},{"type":"function","name":"SA_PROPOSAL_RECIPIENT","inputs":[],"outputs":[{"name":"","type":"bytes32","internalType":"bytes32"}],"stateMutability":"view"},{"type":"function","name":"SA_PROPOSAL_ROUND","inputs":[],"outputs":[{"name":"","type":"bytes32","internalType":"bytes32"}],"stateMutability":"view"},{"type":"function","name":"SA_PROPOSAL_STATUS","inputs":[],"outputs":[{"name":"","type":"bytes32","internalType":"bytes32"}],"stateMutability":"view"},{"type":"function","name":"SA_PROPOSAL_TOTAL_AWARDED","inputs":[],"outputs":[{"name":"","type":"bytes32","internalType":"bytes32"}],"stateMutability":"view"},{"type":"function","name":"SHAPES","inputs":[],"outputs":[{"name":"","type":"address","internalType":"contract ShapeRegistry"}],"stateMutability":"view"},{"type":"function","name":"allSubjects","inputs":[],"outputs":[{"name":"","type":"bytes32[]","internalType":"bytes32[]"}],"stateMutability":"view"},{"type":"function","name":"announceAward","inputs":[{"name":"p","type":"tuple","internalType":"struct ProposalRegistry.AnnounceParams","components":[{"name":"proposalSubject","type":"bytes32","internalType":"bytes32"},{"name":"kind","type":"bytes32","internalType":"bytes32"},{"name":"basedOnIntentId","type":"bytes32","internalType":"bytes32"},{"name":"round","type":"bytes32","internalType":"bytes32"},{"name":"proposer","type":"address","internalType":"address"},{"name":"recipient","type":"address","internalType":"address"},{"name":"totalAwarded","type":"uint256","internalType":"uint256"},{"name":"bodyHash","type":"bytes32","internalType":"bytes32"},{"name":"awardingFund","type":"address","internalType":"address"},{"name":"status","type":"bytes32","internalType":"bytes32"}]}],"outputs":[],"stateMutability":"nonpayable"},{"type":"function","name":"datatypeOf","inputs":[{"name":"subject","type":"bytes32","internalType":"bytes32"},{"name":"predicate","type":"bytes32","internalType":"bytes32"}],"outputs":[{"name":"","type":"uint8","internalType":"uint8"}],"stateMutability":"view"},{"type":"function","name":"getAddress","inputs":[{"name":"subject","type":"bytes32","internalType":"bytes32"},{"name":"predicate","type":"bytes32","internalType":"bytes32"}],"outputs":[{"name":"","type":"address","internalType":"address"}],"stateMutability":"view"},{"type":"function","name":"getAddressArr","inputs":[{"name":"subject","type":"bytes32","internalType":"bytes32"},{"name":"predicate","type":"bytes32","internalType":"bytes32"}],"outputs":[{"name":"","type":"address[]","internalType":"address[]"}],"stateMutability":"view"},{"type":"function","name":"getAwardedAt","inputs":[{"name":"proposal","type":"bytes32","internalType":"bytes32"}],"outputs":[{"name":"","type":"uint256","internalType":"uint256"}],"stateMutability":"view"},{"type":"function","name":"getAwardingFund","inputs":[{"name":"proposal","type":"bytes32","internalType":"bytes32"}],"outputs":[{"name":"","type":"address","internalType":"address"}],"stateMutability":"view"},{"type":"function","name":"getBasedOnIntentId","inputs":[{"name":"proposal","type":"bytes32","internalType":"bytes32"}],"outputs":[{"name":"","type":"bytes32","internalType":"bytes32"}],"stateMutability":"view"},{"type":"function","name":"getBodyHash","inputs":[{"name":"proposal","type":"bytes32","internalType":"bytes32"}],"outputs":[{"name":"","type":"bytes32","internalType":"bytes32"}],"stateMutability":"view"},{"type":"function","name":"getBool","inputs":[{"name":"subject","type":"bytes32","internalType":"bytes32"},{"name":"predicate","type":"bytes32","internalType":"bytes32"}],"outputs":[{"name":"","type":"bool","internalType":"bool"}],"stateMutability":"view"},{"type":"function","name":"getBytes32","inputs":[{"name":"subject","type":"bytes32","internalType":"bytes32"},{"name":"predicate","type":"bytes32","internalType":"bytes32"}],"outputs":[{"name":"","type":"bytes32","internalType":"bytes32"}],"stateMutability":"view"},{"type":"function","name":"getBytes32Arr","inputs":[{"name":"subject","type":"bytes32","internalType":"bytes32"},{"name":"predicate","type":"bytes32","internalType":"bytes32"}],"outputs":[{"name":"","type":"bytes32[]","internalType":"bytes32[]"}],"stateMutability":"view"},{"type":"function","name":"getKind","inputs":[{"name":"proposal","type":"bytes32","internalType":"bytes32"}],"outputs":[{"name":"","type":"bytes32","internalType":"bytes32"}],"stateMutability":"view"},{"type":"function","name":"getProposer","inputs":[{"name":"proposal","type":"bytes32","internalType":"bytes32"}],"outputs":[{"name":"","type":"address","internalType":"address"}],"stateMutability":"view"},{"type":"function","name":"getRecipient","inputs":[{"name":"proposal","type":"bytes32","internalType":"bytes32"}],"outputs":[{"name":"","type":"address","internalType":"address"}],"stateMutability":"view"},{"type":"function","name":"getRound","inputs":[{"name":"proposal","type":"bytes32","internalType":"bytes32"}],"outputs":[{"name":"","type":"bytes32","internalType":"bytes32"}],"stateMutability":"view"},{"type":"function","name":"getStatus","inputs":[{"name":"proposal","type":"bytes32","internalType":"bytes32"}],"outputs":[{"name":"","type":"bytes32","internalType":"bytes32"}],"stateMutability":"view"},{"type":"function","name":"getString","inputs":[{"name":"subject","type":"bytes32","internalType":"bytes32"},{"name":"predicate","type":"bytes32","internalType":"bytes32"}],"outputs":[{"name":"","type":"string","internalType":"string"}],"stateMutability":"view"},{"type":"function","name":"getStringArr","inputs":[{"name":"subject","type":"bytes32","internalType":"bytes32"},{"name":"predicate","type":"bytes32","internalType":"bytes32"}],"outputs":[{"name":"","type":"string[]","internalType":"string[]"}],"stateMutability":"view"},{"type":"function","name":"getTotalAwarded","inputs":[{"name":"proposal","type":"bytes32","internalType":"bytes32"}],"outputs":[{"name":"","type":"uint256","internalType":"uint256"}],"stateMutability":"view"},{"type":"function","name":"getUint","inputs":[{"name":"subject","type":"bytes32","internalType":"bytes32"},{"name":"predicate","type":"bytes32","internalType":"bytes32"}],"outputs":[{"name":"","type":"uint256","internalType":"uint256"}],"stateMutability":"view"},{"type":"function","name":"isAnnounced","inputs":[{"name":"proposal","type":"bytes32","internalType":"bytes32"}],"outputs":[{"name":"","type":"bool","internalType":"bool"}],"stateMutability":"view"},{"type":"function","name":"isSet","inputs":[{"name":"subject","type":"bytes32","internalType":"bytes32"},{"name":"predicate","type":"bytes32","internalType":"bytes32"}],"outputs":[{"name":"","type":"bool","internalType":"bool"}],"stateMutability":"view"},{"type":"function","name":"predicatesOf","inputs":[{"name":"subject","type":"bytes32","internalType":"bytes32"}],"outputs":[{"name":"","type":"bytes32[]","internalType":"bytes32[]"}],"stateMutability":"view"},{"type":"function","name":"proposalSubject","inputs":[{"name":"proposalId","type":"string","internalType":"string"}],"outputs":[{"name":"","type":"bytes32","internalType":"bytes32"}],"stateMutability":"pure"},{"type":"function","name":"setStatus","inputs":[{"name":"proposal","type":"bytes32","internalType":"bytes32"},{"name":"newStatus","type":"bytes32","internalType":"bytes32"}],"outputs":[],"stateMutability":"nonpayable"},{"type":"function","name":"subjectCount","inputs":[],"outputs":[{"name":"","type":"uint256","internalType":"uint256"}],"stateMutability":"view"},{"type":"function","name":"subjectVersion","inputs":[{"name":"subject","type":"bytes32","internalType":"bytes32"}],"outputs":[{"name":"","type":"uint64","internalType":"uint64"}],"stateMutability":"view"},{"type":"function","name":"updatedAt","inputs":[{"name":"subject","type":"bytes32","internalType":"bytes32"},{"name":"predicate","type":"bytes32","internalType":"bytes32"}],"outputs":[{"name":"","type":"uint64","internalType":"uint64"}],"stateMutability":"view"},{"type":"event","name":"AttributeAppended","inputs":[{"name":"subject","type":"bytes32","indexed":true,"internalType":"bytes32"},{"name":"predicate","type":"bytes32","indexed":true,"internalType":"bytes32"},{"name":"datatype","type":"uint8","indexed":false,"internalType":"uint8"},{"name":"version","type":"uint64","indexed":false,"internalType":"uint64"}],"anonymous":false},{"type":"event","name":"AttributeSet","inputs":[{"name":"subject","type":"bytes32","indexed":true,"internalType":"bytes32"},{"name":"predicate","type":"bytes32","indexed":true,"internalType":"bytes32"},{"name":"datatype","type":"uint8","indexed":false,"internalType":"uint8"},{"name":"version","type":"uint64","indexed":false,"internalType":"uint64"}],"anonymous":false},{"type":"event","name":"AttributeUnset","inputs":[{"name":"subject","type":"bytes32","indexed":true,"internalType":"bytes32"},{"name":"predicate","type":"bytes32","indexed":true,"internalType":"bytes32"},{"name":"version","type":"uint64","indexed":false,"internalType":"uint64"}],"anonymous":false},{"type":"event","name":"ProposalAwardAnnounced","inputs":[{"name":"proposalSubject","type":"bytes32","indexed":true,"internalType":"bytes32"},{"name":"round","type":"bytes32","indexed":false,"internalType":"bytes32"},{"name":"totalAwarded","type":"uint256","indexed":false,"internalType":"uint256"}],"anonymous":false},{"type":"event","name":"ProposalStatusChanged","inputs":[{"name":"proposalSubject","type":"bytes32","indexed":true,"internalType":"bytes32"},{"name":"newStatus","type":"bytes32","indexed":false,"internalType":"bytes32"}],"anonymous":false},{"type":"event","name":"SubjectFirstSeen","inputs":[{"name":"subject","type":"bytes32","indexed":true,"internalType":"bytes32"}],"anonymous":false},{"type":"error","name":"AttributeNotSet","inputs":[]},{"type":"error","name":"NotFundOwner","inputs":[]},{"type":"error","name":"PredicateNotActive","inputs":[]},{"type":"error","name":"ProposalAlreadyAnnounced","inputs":[]},{"type":"error","name":"ProposalNotInitialized","inputs":[]}],"bytecode":{"object":"0x60c03461009a57601f61218f38819003918201601f19168301916001600160401b0383118484101761009e57808492604094855283398101031261009a57610052602061004b836100b2565b92016100b2565b6001600160a01b039182166080521660a0526040516120c890816100c782396080518181816108f601526119be015260a05181818161070101528181610e0301526112ca0152f35b5f80fd5b634e487b7160e01b5f52604160045260245ffd5b51906001600160a01b038216820361009a5756fe6080806040526004361015610012575f80fd5b5f905f3560e01c908163085777171461166057508063098acbf6146116395780630dc70d8f14611612578063213aaad7146115f757806326987f44146115d0578063305471811461156c57806331477b9b1461152a57806337d9d7fc146114fb5780633d8df7a7146114d45780634083843e1461146b57806342921cf314611439578063498012b11461141257806350cb90ea146113eb5780635239241f1461139257806354ac4a27146112f957806355c964dd146112b5578063561bdb691461127b5780635de28ae01461120f57806360ea930c146111b6578063639a2e10146111995780636d21194e14611172578063727abedc1461111957806374f627551461109f5780637a6ad92614611070578063880eadce1461103857806388447284146110115780638e10136914610ff65780638e21caca14610fc357806393cbc37d14610fa857806398eaf11c14610f74578063a954aea114610f59578063b330ba6314610f32578063bb25a0a814610d56578063bb6b0c3b14610d24578063be78c06814610d08578063c317462914610cec578063c3a6123d14610c67578063c476e1c714610c0c578063cb954f3014610b14578063d3a3968614610add578063dd2be61d14610a82578063e4281bc3146109c4578063e592c95c14610925578063e63cdb42146108e0578063e78b8057146103bc578063ece6bebc146103a0578063ee872c1314610365578063f4fd499e14610300578063f98eed69146102e45763fbc6da7514610244575f80fd5b346102e15760203660031901126102e1576040516369d1cb4360e11b815260048035908201525f5160206120735f395f51905f526024820152602081604481305afa9081156102d657602092916102a9575b506040516001600160a01b039091168152f35b6102c99150823d84116102cf575b6102c18183611751565b810190611786565b5f610296565b503d6102b7565b6040513d84823e3d90fd5b80fd5b50346102e157806003193601126102e157602060405160088152f35b50346102e15760203660031901126102e1576040516369d1cb4360e11b815260048035908201525f516020611f735f395f51905f526024820152602081604481305afa9081156102d657602092916102a957506040516001600160a01b039091168152f35b50346102e157806003193601126102e15760206040517faa0a61f78907dcef91e3ea840e3ef1bea1ed9f7e4f9907149404056016cf3e7a8152f35b50346102e157806003193601126102e157602060405160028152f35b50346102e1576101403660031901126102e1576103e16103da611889565b33906118a0565b156108d15760043560405163bb6b0c3b60e01b81528160048201525f516020611f735f395f51905f526024820152602081604481305afa9081156108c6578391610897575b50610888576104415f516020611ff35f395f51905f526119a1565b8082526004602052604082205f516020611ff35f395f51905f528352602052602435604083205561047f5f516020611ff35f395f51905f5282611aae565b61048c6101243582611956565b60443580610831575b506064356104af5f516020611fd35f395f51905f526119a1565b8183526004602052604083205f516020611fd35f395f51905f5284526020528060408420556104eb5f516020611fd35f395f51905f5283611aae565b6084356001600160a01b0381169081810361082d57506105175f5160206120335f395f51905f526119a1565b8284526001602052604084205f5160206120335f395f51905f52855260205260408420906001600160601b0360a01b8254161790556105635f5160206120335f395f51905f5283611c52565b60a4356001600160a01b0381169081810361082d575061058f5f5160206120735f395f51905f526119a1565b8284526001602052604084205f5160206120735f395f51905f52855260205260408420906001600160601b0360a01b8254161790556105db5f5160206120735f395f51905f5283611c52565b60c4356105f45f5160206120135f395f51905f526119a1565b8284526003602052604084205f5160206120135f395f51905f5285526020528060408520556106305f5160206120135f395f51905f5284611de2565b6106465f5160206120535f395f51905f526119a1565b8284526003602052604084205f5160206120535f395f51905f5285526020524260408520556106825f5160206120535f395f51905f5284611de2565b60e435806107d6575b50610694611889565b6106aa5f516020611f735f395f51905f526119a1565b8385526001602052604085205f516020611f735f395f51905f528652602052604085209060018060a01b03166001600160601b0360a01b8254161790556106fe5f516020611f735f395f51905f5284611c52565b837f00000000000000000000000000000000000000000000000000000000000000006001600160a01b0316803b156107d25781606491604051928380926309abe27f60e01b82527f370895524a3463fb3c65d16bc25624c3ca804d8d0d9b82c57c297fa448c5e07960048301528960248301523060448301525afa80156102d6576107b9575b50507f93b21d36a3abef421efd957055abfaf1c9fbdee0aabeb26a34cfe1d6386a63929160409182519182526020820152a280f35b816107c391611751565b6107ce57835f610784565b8380fd5b5080fd5b6107ec5f516020611f935f395f51905f526119a1565b8385526004602052604085205f516020611f935f395f51905f52865260205260408520556108275f516020611f935f395f51905f5284611aae565b5f61068b565b8480fd5b6108475f516020611fb35f395f51905f526119a1565b8183526004602052604083205f516020611fb35f395f51905f52845260205260408320556108825f516020611fb35f395f51905f5282611aae565b5f610495565b63668e0c6560e11b8252600482fd5b6108b9915060203d6020116108bf575b6108b18183611751565b810190611871565b5f610426565b503d6108a7565b6040513d85823e3d90fd5b63b3545ef360e01b8152600490fd5b50346102e157806003193601126102e1576040517f00000000000000000000000000000000000000000000000000000000000000006001600160a01b03168152602090f35b50346102e15760203660031901126102e157604051630df675ff60e21b815260048035908201525f516020611ff35f395f51905f52602482015290602082604481305afa9081156109b85790610981575b602090604051908152f35b506020813d6020116109b0575b8161099b60209383611751565b810103126109ac5760209051610976565b5f80fd5b3d915061098e565b604051903d90823e3d90fd5b50346102e1576109d336611717565b90825260066020526040822090825260205260408120604051908160208254918281520190819285526020852090855b818110610a635750505082610a19910383611751565b604051928392602084019060208552518091526040840192915b818110610a41575050500390f35b82516001600160a01b0316845285945060209384019390920191600101610a33565b82546001600160a01b0316845260209093019260019283019201610a03565b50346102e15760203660031901126102e157604051630df675ff60e21b815260048035908201525f516020611fd35f395f51905f52602482015290602082604481305afa9081156109b8579061098157602090604051908152f35b50346102e157602090610aef36611717565b90825260018352604082209082528252604060018060a01b0391205416604051908152f35b50346102e157610b2336611717565b9082526005602052604082209082526020526040812080546001600160401b038111610bf85760405190610b5d60208260051b0183611751565b80825260208201809385526020852085915b838310610bdb57868587604051928392602084019060208552518091526040840160408260051b8601019392905b828210610bac57505050500390f35b91936001919395506020610bcb8192603f198a8203018652885161172d565b9601920192018594939192610b9d565b600160208192610bea856117a5565b815201920192019190610b6f565b634e487b7160e01b83526041600452602483fd5b50346102e15760203660031901126102e157604051630df675ff60e21b815260048035908201525f516020611f935f395f51905f52602482015290602082604481305afa9081156109b8579061098157602090604051908152f35b50346102e157806003193601126102e15760405180916020600d54928381520191600d82527fd7b6990105719101dabeb77144f2a3385c8033acd3af97e9423a695e81ad1eb5915b818110610cd657610cd285610cc681870382611751565b604051918291826116de565b0390f35b8254845260209093019260019283019201610caf565b50346102e157806003193601126102e157602060405160058152f35b50346102e157806003193601126102e157602060405160048152f35b50346102e15760ff6040602092610d3a36611717565b9082526009855282822090825284522054166040519015158152f35b50346109ac57610d6536611717565b60405163bb6b0c3b60e01b8152600481018390525f516020611f735f395f51905f526024820152602081604481305afa908115610ecb575f91610f13575b5015610f04576040516369d1cb4360e11b8152600481018390525f516020611f735f395f51905f526024820152602081604481305afa8015610ecb57610df2915f91610ee5575b5033906118a0565b15610ed657610e018183611956565b7f00000000000000000000000000000000000000000000000000000000000000006001600160a01b0316803b156109ac575f606491604051928380926309abe27f60e01b82527f370895524a3463fb3c65d16bc25624c3ca804d8d0d9b82c57c297fa448c5e07960048301528760248301523060448301525afa8015610ecb57610eb5575b5060207f05ff95989eed6498cc62b77d7e4cffa6e26e4eac6845408833f7638aff325ee791604051908152a280f35b610ec29193505f90611751565b5f916020610e86565b6040513d5f823e3d90fd5b63b3545ef360e01b5f5260045ffd5b610efe915060203d6020116102cf576102c18183611751565b5f610dea565b632390f0b760e01b5f5260045ffd5b610f2c915060203d6020116108bf576108b18183611751565b5f610da3565b346109ac575f3660031901126109ac5760206040515f5160206120135f395f51905f528152f35b346109ac575f3660031901126109ac57602060405160018152f35b346109ac57610f8236611717565b905f52600260205260405f20905f52602052602060ff60405f2054166040519015158152f35b346109ac575f3660031901126109ac57602060405160038152f35b346109ac5760203660031901126109ac576004355f52600c60205260206001600160401b0360405f205416604051908152f35b346109ac575f3660031901126109ac57602060405160068152f35b346109ac575f3660031901126109ac5760206040515f516020611ff35f395f51905f528152f35b346109ac5761104636611717565b905f52600b60205260405f20905f5260205260206001600160401b0360405f205416604051908152f35b346109ac5761107e36611717565b905f52600360205260405f20905f52602052602060405f2054604051908152f35b346109ac5760203660031901126109ac5760405163bb6b0c3b60e01b815260048035908201525f516020611f735f395f51905f526024820152602081604481305afa8015610ecb576020915f916110fc575b506040519015158152f35b6111139150823d84116108bf576108b18183611751565b826110f1565b346109ac5760203660031901126109ac57604051633d356c9360e11b815260048035908201525f5160206120135f395f51905f526024820152602081604481305afa8015610ecb575f9061098157602090604051908152f35b346109ac575f3660031901126109ac5760206040515f5160206120735f395f51905f528152f35b346109ac575f3660031901126109ac576020600d54604051908152f35b346109ac5760203660031901126109ac57604051633d356c9360e11b815260048035908201525f5160206120535f395f51905f526024820152602081604481305afa8015610ecb575f9061098157602090604051908152f35b346109ac5760203660031901126109ac57604051630df675ff60e21b815260048035908201527faa0a61f78907dcef91e3ea840e3ef1bea1ed9f7e4f9907149404056016cf3e7a6024820152602081604481305afa8015610ecb575f9061098157602090604051908152f35b346109ac575f3660031901126109ac5760206040517f370895524a3463fb3c65d16bc25624c3ca804d8d0d9b82c57c297fa448c5e0798152f35b346109ac575f3660031901126109ac576040517f00000000000000000000000000000000000000000000000000000000000000006001600160a01b03168152602090f35b346109ac5760203660031901126109ac576004356001600160401b0381116109ac57366023820112156109ac578060040135906001600160401b0382116109ac5736602483830101116109ac57602091611387602c6040518381946024888401976b39b09d383937b837b9b0b61d60a11b8952018484013781015f838201520301601f198101835282611751565b519020604051908152f35b346109ac5760203660031901126109ac57604051630df675ff60e21b815260048035908201525f516020611fb35f395f51905f526024820152602081604481305afa8015610ecb575f9061098157602090604051908152f35b346109ac575f3660031901126109ac5760206040515f516020611fd35f395f51905f528152f35b346109ac575f3660031901126109ac5760206040515f5160206120535f395f51905f528152f35b346109ac5761144736611717565b905f52600a60205260405f20905f52602052602060ff60405f205416604051908152f35b346109ac5761147936611717565b905f52600760205260405f20905f5260205260405f206040519081602082549182815201915f5260205f20905f5b8181106114be57610cd285610cc681870382611751565b82548452602090930192600192830192016114a7565b346109ac575f3660031901126109ac5760206040515f516020611fb35f395f51905f528152f35b346109ac5761150936611717565b905f52600460205260405f20905f52602052602060405f2054604051908152f35b346109ac5761153836611717565b905f525f60205260405f20905f52602052610cd261155860405f206117a5565b60405191829160208352602083019061172d565b346109ac5760203660031901126109ac576004355f52600860205260405f206040519081602082549182815201915f5260205f20905f5b8181106115ba57610cd285610cc681870382611751565b82548452602090930192600192830192016115a3565b346109ac575f3660031901126109ac5760206040515f516020611f935f395f51905f528152f35b346109ac575f3660031901126109ac57602060405160078152f35b346109ac575f3660031901126109ac5760206040515f516020611f735f395f51905f528152f35b346109ac575f3660031901126109ac5760206040515f5160206120335f395f51905f528152f35b346109ac5760203660031901126109ac576369d1cb4360e11b815260048035908201525f5160206120335f395f51905f526024820152602081604481305afa8015610ecb576020915f916116c157506040516001600160a01b039091168152f35b6116d89150823d84116102cf576102c18183611751565b82610296565b60206040818301928281528451809452019201905f5b8181106117015750505090565b82518452602093840193909201916001016116f4565b60409060031901126109ac576004359060243590565b805180835260209291819084018484015e5f828201840152601f01601f1916010190565b90601f801991011681019081106001600160401b0382111761177257604052565b634e487b7160e01b5f52604160045260245ffd5b908160209103126109ac57516001600160a01b03811681036109ac5790565b90604051915f8154908160011c9260018316928315611867575b60208510841461185357848752869390811561183157506001146117ed575b506117eb92500383611751565b565b90505f9291925260205f20905f915b8183106118155750509060206117eb928201015f6117de565b60209193508060019154838589010152019101909184926117fc565b9050602092506117eb94915060ff191682840152151560051b8201015f6117de565b634e487b7160e01b5f52602260045260245ffd5b93607f16936117bf565b908160209103126109ac575180151581036109ac5790565b610104356001600160a01b03811681036109ac5790565b90813b15611950575f91829160405160208101916317aa5fb760e11b835260018060a01b03166024820152602481526118da604482611751565b51915afa3d15611949573d6001600160401b038111611772576040519061190b601f8201601f191660200183611751565b81523d5f602083013e5b8161193b575b81611924575090565b611938915060208082518301019101611871565b90565b90506020815110159061191b565b6060611915565b50505f90565b7faa0a61f78907dcef91e3ea840e3ef1bea1ed9f7e4f9907149404056016cf3e7a906117eb92611985836119a1565b815f52600460205260405f20835f5260205260405f2055611aae565b60405163170da40760e21b815260048101919091526020816024817f00000000000000000000000000000000000000000000000000000000000000006001600160a01b03165afa908115610ecb575f91611a0d575b50156119fe57565b632263bf1f60e21b5f5260045ffd5b611a26915060203d6020116108bf576108b18183611751565b5f6119f6565b600d54600160401b811015611772576001810180600d55811015611a7357600d5f527fd7b6990105719101dabeb77144f2a3385c8033acd3af97e9423a695e81ad1eb50155565b634e487b7160e01b5f52603260045260245ffd5b805490600160401b8210156117725760018201808255821015611a73575f5260205f200155565b805f52600e60205260ff60405f20541615611c08575b805f52600960205260405f20825f5260205260ff60405f20541615611bcd575b805f52600a60205260405f20825f5260205260405f20600560ff19825416179055805f52600c60205260016001600160401b0360405f205416016001600160401b038111611bb95760407f5167ea251eeaf052f4c7bd769efb5b17e6ba98908050b9929a0bd192b57274fb91835f52600c602052815f206001600160401b0382166001600160401b0319825416179055835f52600b602052815f20855f52602052815f206001600160401b0382166001600160401b03198254161790556001600160401b0382519160058352166020820152a3565b634e487b7160e01b5f52601160045260245ffd5b805f526008602052611be28260405f20611a87565b805f52600960205260405f20825f5260205260405f20600160ff19825416179055611ae4565b805f52600e60205260405f20600160ff19825416179055611c2881611a2c565b807f34f1cb4778d9578e1af878b07d3ae7e9f2f32fafcaa3096fe48153670a71bfaf5f80a2611ac4565b805f52600e60205260ff60405f20541615611d98575b805f52600960205260405f20825f5260205260ff60405f20541615611d5d575b805f52600a60205260405f20825f5260205260405f20600260ff19825416179055805f52600c60205260016001600160401b0360405f205416016001600160401b038111611bb95760407f5167ea251eeaf052f4c7bd769efb5b17e6ba98908050b9929a0bd192b57274fb91835f52600c602052815f206001600160401b0382166001600160401b0319825416179055835f52600b602052815f20855f52602052815f206001600160401b0382166001600160401b03198254161790556001600160401b0382519160028352166020820152a3565b805f526008602052611d728260405f20611a87565b805f52600960205260405f20825f5260205260405f20600160ff19825416179055611c88565b805f52600e60205260405f20600160ff19825416179055611db881611a2c565b807f34f1cb4778d9578e1af878b07d3ae7e9f2f32fafcaa3096fe48153670a71bfaf5f80a2611c68565b805f52600e60205260ff60405f20541615611f28575b805f52600960205260405f20825f5260205260ff60405f20541615611eed575b805f52600a60205260405f20825f5260205260405f20600460ff19825416179055805f52600c60205260016001600160401b0360405f205416016001600160401b038111611bb95760407f5167ea251eeaf052f4c7bd769efb5b17e6ba98908050b9929a0bd192b57274fb91835f52600c602052815f206001600160401b0382166001600160401b0319825416179055835f52600b602052815f20855f52602052815f206001600160401b0382166001600160401b03198254161790556001600160401b0382519160048352166020820152a3565b805f526008602052611f028260405f20611a87565b805f52600960205260405f20825f5260205260405f20600160ff19825416179055611e18565b805f52600e60205260405f20600160ff19825416179055611f4881611a2c565b807f34f1cb4778d9578e1af878b07d3ae7e9f2f32fafcaa3096fe48153670a71bfaf5f80a2611df856fe45e37376deb2bfbe1c36553e53d1d83c01eec7d14847d2201760c785dce0a58746c7d83ed6153e29f00857265f70a01b4b5c86cc9be110cc63aa532bd7733fb402c86c7cd434b24896b53621ce912da35d8872c66660556d2d3dcbb30cfc8132f451b58f8af39c6e73a80cd5baf13f2fc319382fd7fa0061ecf62e1f4d01903743914862a2ba39f993a6e30016740d009d65b2db95da80c0e34f7b81f4d287a0b003323d75ea0aca2f41692fd125ccf7d411b0eaa6a00b0ec13005edcacdf5095798dbf4e6afbff06425d0e25039916512a8c98151f9c4e2d4234dbfe16808be4ec7206f414c778ba7c12fd6ebb1a52032225948cc61c97a111704b001c88218977215c32b9d3729aca9809e7dcd67670608c970113984ce8fd53e5b517e4f8ba26469706673582212205ca3823fd8822450c9de01258bd0b83f3e549cd1ab37b61a747410e7b36f8d2664736f6c634300081c0033","linkReferences":{}},"methodIdentifiers":{"CLASS_PROPOSAL_PUBLIC_FACET()":"561bdb69","DT_ADDRESS_ARR_PUB()":"213aaad7","DT_ADDRESS_PUB()":"ece6bebc","DT_BOOL_PUB()":"93cbc37d","DT_BYTES32_ARR_PUB()":"f98eed69","DT_BYTES32_PUB()":"c3174629","DT_STRING_ARR_PUB()":"8e101369","DT_STRING_PUB()":"a954aea1","DT_UINT256_PUB()":"be78c068","ONTOLOGY()":"e63cdb42","SA_PROPOSAL_AWARDED_AT()":"498012b1","SA_PROPOSAL_AWARDING_FUND()":"0dc70d8f","SA_PROPOSAL_BASED_ON_INTENT()":"3d8df7a7","SA_PROPOSAL_BODY_HASH()":"26987f44","SA_PROPOSAL_KIND()":"88447284","SA_PROPOSAL_PROPOSER()":"098acbf6","SA_PROPOSAL_RECIPIENT()":"6d21194e","SA_PROPOSAL_ROUND()":"50cb90ea","SA_PROPOSAL_STATUS()":"ee872c13","SA_PROPOSAL_TOTAL_AWARDED()":"b330ba63","SHAPES()":"55c964dd","allSubjects()":"c3a6123d","announceAward((bytes32,bytes32,bytes32,bytes32,address,address,uint256,bytes32,address,bytes32))":"e78b8057","datatypeOf(bytes32,bytes32)":"42921cf3","getAddress(bytes32,bytes32)":"d3a39686","getAddressArr(bytes32,bytes32)":"e4281bc3","getAwardedAt(bytes32)":"60ea930c","getAwardingFund(bytes32)":"f4fd499e","getBasedOnIntentId(bytes32)":"5239241f","getBodyHash(bytes32)":"c476e1c7","getBool(bytes32,bytes32)":"98eaf11c","getBytes32(bytes32,bytes32)":"37d9d7fc","getBytes32Arr(bytes32,bytes32)":"4083843e","getKind(bytes32)":"e592c95c","getProposer(bytes32)":"08577717","getRecipient(bytes32)":"fbc6da75","getRound(bytes32)":"dd2be61d","getStatus(bytes32)":"5de28ae0","getString(bytes32,bytes32)":"31477b9b","getStringArr(bytes32,bytes32)":"cb954f30","getTotalAwarded(bytes32)":"727abedc","getUint(bytes32,bytes32)":"7a6ad926","isAnnounced(bytes32)":"74f62755","isSet(bytes32,bytes32)":"bb6b0c3b","predicatesOf(bytes32)":"30547181","proposalSubject(string)":"54ac4a27","setStatus(bytes32,bytes32)":"bb25a0a8","subjectCount()":"639a2e10","subjectVersion(bytes32)":"8e21caca","updatedAt(bytes32,bytes32)":"880eadce"},"id":104}