{"abi":[{"type":"constructor","inputs":[{"name":"resolver","type":"address","internalType":"address"},{"name":"relationships","type":"address","internalType":"address"},{"name":"reviews","type":"address","internalType":"address"},{"name":"disputes","type":"address","internalType":"address"},{"name":"validations","type":"address","internalType":"address"},{"name":"trust","type":"address","internalType":"address"}],"stateMutability":"nonpayable"},{"type":"function","name":"DISPUTES","inputs":[],"outputs":[{"name":"","type":"address","internalType":"contract AgentDisputeRecord"}],"stateMutability":"view"},{"type":"function","name":"RELATIONSHIPS","inputs":[],"outputs":[{"name":"","type":"address","internalType":"contract AgentRelationship"}],"stateMutability":"view"},{"type":"function","name":"RESOLVER","inputs":[],"outputs":[{"name":"","type":"address","internalType":"contract AgentAccountResolver"}],"stateMutability":"view"},{"type":"function","name":"REVIEWS","inputs":[],"outputs":[{"name":"","type":"address","internalType":"contract AgentReviewRecord"}],"stateMutability":"view"},{"type":"function","name":"TRUST","inputs":[],"outputs":[{"name":"","type":"address","internalType":"contract AgentTrustProfile"}],"stateMutability":"view"},{"type":"function","name":"VALIDATIONS","inputs":[],"outputs":[{"name":"","type":"address","internalType":"contract AgentValidationProfile"}],"stateMutability":"view"},{"type":"function","name":"agentCount","inputs":[],"outputs":[{"name":"","type":"uint256","internalType":"uint256"}],"stateMutability":"view"},{"type":"function","name":"isRegistered","inputs":[{"name":"agent","type":"address","internalType":"address"}],"outputs":[{"name":"","type":"bool","internalType":"bool"}],"stateMutability":"view"},{"type":"function","name":"resolveAgent","inputs":[{"name":"agent","type":"address","internalType":"address"}],"outputs":[{"name":"profile","type":"tuple","internalType":"struct AgentUniversalResolver.AgentProfile","components":[{"name":"displayName","type":"string","internalType":"string"},{"name":"description","type":"string","internalType":"string"},{"name":"agentType","type":"bytes32","internalType":"bytes32"},{"name":"agentClass","type":"bytes32","internalType":"bytes32"},{"name":"metadataURI","type":"string","internalType":"string"},{"name":"metadataHash","type":"bytes32","internalType":"bytes32"},{"name":"schemaURI","type":"string","internalType":"string"},{"name":"active","type":"bool","internalType":"bool"},{"name":"registeredAt","type":"uint256","internalType":"uint256"},{"name":"discoveryTrustPasses","type":"bool","internalType":"bool"},{"name":"discoveryTrustScore","type":"uint256","internalType":"uint256"},{"name":"executionTrustPasses","type":"bool","internalType":"bool"},{"name":"executionTrustScore","type":"uint256","internalType":"uint256"},{"name":"runtimeTrustPasses","type":"bool","internalType":"bool"},{"name":"runtimeTrustScore","type":"uint256","internalType":"uint256"},{"name":"reviewCount","type":"uint256","internalType":"uint256"},{"name":"avgReviewScore","type":"uint256","internalType":"uint256"},{"name":"validationCount","type":"uint256","internalType":"uint256"},{"name":"openDisputeCount","type":"uint256","internalType":"uint256"}]}],"stateMutability":"view"},{"type":"function","name":"resolveProperties","inputs":[{"name":"agent","type":"address","internalType":"address"},{"name":"predicates","type":"bytes32[]","internalType":"bytes32[]"}],"outputs":[{"name":"values","type":"string[]","internalType":"string[]"}],"stateMutability":"view"}],"bytecode":{"object":"0x6101403461014557601f61111f38819003918201601f19168301916001600160401b038311848410176101495780849260c094604052833981010312610145576100488161015d565b906100556020820161015d565b6100616040830161015d565b61006d6060840161015d565b9161008660a061007f6080870161015d565b950161015d565b6001600160a01b0395861660805290851660a05290841660c05290831660e052908216610100521661012052604051610fad9081610172823960805181818160cd01528181610177015281816102cb0152818161087201528181610b7b0152610d10015260a05181610ab1015260c0518181816104390152610dd9015260e0518181816104f00152610d980152610100518181816104950152610ccc01526101205181818161032a01528181610384015281816103de0152610d540152f35b5f80fd5b634e487b7160e01b5f52604160045260245ffd5b51906001600160a01b03821682036101455756fe6080806040526004361015610012575f80fd5b5f3560e01c90816305cb168e14610dc75750806316e5a67314610d835780631de012cd14610d3f5780634d77532d14610cfb5780636e3775fa14610cb75780637d51a0ec14610ae0578063a96d4bef14610a9c578063b5605e29146101ec578063b7dc1284146101525763c3c5a5471461008a575f80fd5b3461013b57602036600319011261013b576100a3610e08565b60405163c3c5a54760e01b81526001600160a01b03918216600482015290602090829060249082907f0000000000000000000000000000000000000000000000000000000000000000165afa8015610147575f90610109575b6020906040519015158152f35b506020813d60201161013f575b8161012360209383610e42565b8101031261013b57610136602091610ef7565b6100fc565b5f80fd5b3d9150610116565b6040513d5f823e3d90fd5b3461013b575f36600319011261013b57604051632df704a160e21b81526020816004817f00000000000000000000000000000000000000000000000000000000000000006001600160a01b03165afa8015610147575f906101b9575b602090604051908152f35b506020813d6020116101e4575b816101d360209383610e42565b8101031261013b57602090516101ae565b3d91506101c6565b3461013b57602036600319011261013b57610205610e08565b6040519061026082018281106001600160401b03821117610a4e5760405260608252606060208301525f60408301525f6060830152606060808301525f60a0830152606060c08301525f60e08301525f6101008301525f6101208301525f6101408301525f6101608301525f6101808301525f6101a08301525f6101c08301525f6101e08301525f6102008301525f6102208301525f61024083015260405163c3c5a54760e01b815260018060a01b038216600482015260208160248160018060a01b037f0000000000000000000000000000000000000000000000000000000000000000165afa908115610147575f91610a62575b5061084a575b604051630c61d4ed60e41b81526001600160a01b03828116600483015260e090829060249082907f0000000000000000000000000000000000000000000000000000000000000000165afa5f9181610829575b5061080f575b50604051630462b10360e31b81526001600160a01b03828116600483015260e090829060249082907f0000000000000000000000000000000000000000000000000000000000000000165afa5f91816107ee575b506107d4575b5060405163e291023160e01b81526001600160a01b03828116600483015260e090829060249082907f0000000000000000000000000000000000000000000000000000000000000000165afa5f91816107a3575b50610789575b506040805163d06509fd60e01b81526001600160a01b038381166004830152909190829060249082907f0000000000000000000000000000000000000000000000000000000000000000165afa805f925f9261074e575b5061073b575b50506040516324ca3de360e01b81526001600160a01b0382811660048301525f90829060249082907f0000000000000000000000000000000000000000000000000000000000000000165afa5f9181610691575b50610684575b5060405163840b993560e01b81526001600160a01b03918216600482015290602090829060249082907f0000000000000000000000000000000000000000000000000000000000000000165afa5f9181610650575b50610644575b506040518091602082526102406105ae61058e61056461054e85516102606020890152610280880190610e1e565b6020860151878203601f19016040890152610e1e565b60408501516060870152606085015160808701526080850151601f198783030160a0880152610e1e565b60a084015160c086015260c0840151601f198683030160e0870152610e1e565b9160e08101511515610100850152610100810151610120850152610120810151151561014085015261014081015161016085015261016081015115156101808501526101808101516101a08501526101a081015115156101c08501526101c08101516101e08501526101e08101516102008501526102008101516102208501526102208101518285015201516102608301520390f35b61024082015281610520565b9091506020813d60201161067c575b8161066c60209383610e42565b8101031261013b5751908361051a565b3d915061065f565b51610220830152826104c5565b9091503d805f833e6106a38183610e42565b810160208282031261013b578151906001600160401b03821161013b5780601f83850101121561013b5781830151916106db83610e63565b936106e96040519586610e42565b838552602085019260208560051b84840101011161013b5780820160200192915b60208560051b8284010101841061072757505050505090846104bf565b60208080948651815201940193925061070a565b6101e0840152610200830152828061046b565b925090506040823d604011610781575b8161076b60409383610e42565b8101031261013b57602082519201519085610465565b3d915061075e565b805115156101a0840152602001516101c08301528261040e565b6107c691925060e03d60e0116107cd575b6107be8183610e42565b810190610f04565b9084610408565b503d6107b4565b8051151561016084015260200151610180830152826103b4565b61080891925060e03d60e0116107cd576107be8183610e42565b90846103ae565b80511515610120840152602001516101408301528261035a565b61084391925060e03d60e0116107cd576107be8183610e42565b9084610354565b60405163054d2e6760e11b81526001600160a01b0382811660048301525f90829060249082907f0000000000000000000000000000000000000000000000000000000000000000165afa8015610147575f906108ff575b6101009150805184526020810151602085015260408101516040850152606081015160608501526080810151608085015260a081015160a085015260c081015160c085015260e0810151151560e08501520151610100830152610301565b503d90815f823e6109108282610e42565b602081838101031261013b578051906001600160401b03821161013b57610140828201848301031261013b576040519161014083018381106001600160401b03821117610a4e57604052808201516001600160401b03811161013b5761097d908584019083850101610e7a565b8352602081830101516001600160401b03811161013b576109a5908584019083850101610e7a565b60208401528181016040818101519085015260608082015190850152608001516001600160401b03811161013b576109e4908584019083850101610e7a565b608084015281810160a0818101519085015260c00151916001600160401b03831161013b57610a20610120936101009683019084840101610e7a565b60c0850152610a3360e083830101610ef7565b60e085015201808401518484015201516101208201526108a1565b634e487b7160e01b5f52604160045260245ffd5b90506020813d602011610a94575b81610a7d60209383610e42565b8101031261013b57610a8e90610ef7565b836102fb565b3d9150610a70565b3461013b575f36600319011261013b576040517f00000000000000000000000000000000000000000000000000000000000000006001600160a01b03168152602090f35b3461013b57604036600319011261013b57610af9610e08565b602435906001600160401b03821161013b573660238301121561013b578160040135916001600160401b03831161013b573660248460051b8301011161013b57610b44839293610e63565b92610b526040519485610e42565b828452601f19610b6184610e63565b015f5b818110610ca45750506001600160a01b03908116907f0000000000000000000000000000000000000000000000000000000000000000165f5b84811015610c3d57604051906303318acf60e51b825283600483015260248160051b8601013560248301525f82604481865afa8015610147575f90610bfd575b60019250610beb8289610ecf565b52610bf68188610ecf565b5001610b9d565b503d805f843e610c0d8184610e42565b82019160208184031261013b578051926001600160401b03841161013b57600193610c389201610e7a565b610bdd565b856040518091602082016020835281518091526040830190602060408260051b8601019301915f905b828210610c7557505050500390f35b91936001919395506020610c948192603f198a82030186528851610e1e565b9601920192018594939192610c66565b6060602082880181019190915201610b64565b3461013b575f36600319011261013b576040517f00000000000000000000000000000000000000000000000000000000000000006001600160a01b03168152602090f35b3461013b575f36600319011261013b576040517f00000000000000000000000000000000000000000000000000000000000000006001600160a01b03168152602090f35b3461013b575f36600319011261013b576040517f00000000000000000000000000000000000000000000000000000000000000006001600160a01b03168152602090f35b3461013b575f36600319011261013b576040517f00000000000000000000000000000000000000000000000000000000000000006001600160a01b03168152602090f35b3461013b575f36600319011261013b577f00000000000000000000000000000000000000000000000000000000000000006001600160a01b03168152602090f35b600435906001600160a01b038216820361013b57565b805180835260209291819084018484015e5f828201840152601f01601f1916010190565b90601f801991011681019081106001600160401b03821117610a4e57604052565b6001600160401b038111610a4e5760051b60200190565b81601f8201121561013b578051906001600160401b038211610a4e5760405192610eae601f8401601f191660200185610e42565b8284526020838301011161013b57815f9260208093018386015e8301015290565b8051821015610ee35760209160051b010190565b634e487b7160e01b5f52603260045260245ffd5b5190811515820361013b57565b908160e091031261013b576040519060e08201908282106001600160401b03831117610a4e5760c091604052610f3981610ef7565b83526020810151602084015260408101516040840152606081015160608401526080810151608084015260a081015160a0840152015160c08201529056fea2646970667358221220b727ef199de8a01f04b55d638e7312d3541c82921ae28012a61eee83cc5f3c7c64736f6c634300081c0033","linkReferences":{}},"methodIdentifiers":{"DISPUTES()":"16e5a673","RELATIONSHIPS()":"a96d4bef","RESOLVER()":"4d77532d","REVIEWS()":"05cb168e","TRUST()":"1de012cd","VALIDATIONS()":"6e3775fa","agentCount()":"b7dc1284","isRegistered(address)":"c3c5a547","resolveAgent(address)":"b5605e29","resolveProperties(address,bytes32[])":"7d51a0ec"},"id":83}