{"abi":[{"type":"constructor","inputs":[{"name":"registry","type":"address","internalType":"contract AgentNameRegistry"},{"name":"ontologyRegistry","type":"address","internalType":"address"},{"name":"attributeStore","type":"address","internalType":"address"}],"stateMutability":"nonpayable"},{"type":"function","name":"ONTOLOGY","inputs":[],"outputs":[{"name":"","type":"address","internalType":"contract OntologyTermRegistry"}],"stateMutability":"view"},{"type":"function","name":"REGISTRY","inputs":[],"outputs":[{"name":"","type":"address","internalType":"contract AgentNameRegistry"}],"stateMutability":"view"},{"type":"function","name":"STORE","inputs":[],"outputs":[{"name":"","type":"address","internalType":"contract OntologyAttributeStore"}],"stateMutability":"view"},{"type":"function","name":"addr","inputs":[{"name":"node","type":"bytes32","internalType":"bytes32"}],"outputs":[{"name":"","type":"address","internalType":"address"}],"stateMutability":"view"},{"type":"function","name":"addrForCoin","inputs":[{"name":"node","type":"bytes32","internalType":"bytes32"},{"name":"coinType","type":"uint256","internalType":"uint256"}],"outputs":[{"name":"","type":"address","internalType":"address"}],"stateMutability":"view"},{"type":"function","name":"aliasOf","inputs":[{"name":"node","type":"bytes32","internalType":"bytes32"}],"outputs":[{"name":"","type":"bytes32","internalType":"bytes32"}],"stateMutability":"view"},{"type":"function","name":"clearRecords","inputs":[{"name":"node","type":"bytes32","internalType":"bytes32"}],"outputs":[],"stateMutability":"nonpayable"},{"type":"function","name":"getAddressAttribute","inputs":[{"name":"node","type":"bytes32","internalType":"bytes32"},{"name":"predicate","type":"bytes32","internalType":"bytes32"}],"outputs":[{"name":"","type":"address","internalType":"address"}],"stateMutability":"view"},{"type":"function","name":"getBoolAttribute","inputs":[{"name":"node","type":"bytes32","internalType":"bytes32"},{"name":"predicate","type":"bytes32","internalType":"bytes32"}],"outputs":[{"name":"","type":"bool","internalType":"bool"}],"stateMutability":"view"},{"type":"function","name":"getBytes32Attribute","inputs":[{"name":"node","type":"bytes32","internalType":"bytes32"},{"name":"predicate","type":"bytes32","internalType":"bytes32"}],"outputs":[{"name":"","type":"bytes32","internalType":"bytes32"}],"stateMutability":"view"},{"type":"function","name":"getStringAttribute","inputs":[{"name":"node","type":"bytes32","internalType":"bytes32"},{"name":"predicate","type":"bytes32","internalType":"bytes32"}],"outputs":[{"name":"","type":"string","internalType":"string"}],"stateMutability":"view"},{"type":"function","name":"getUintAttribute","inputs":[{"name":"node","type":"bytes32","internalType":"bytes32"},{"name":"predicate","type":"bytes32","internalType":"bytes32"}],"outputs":[{"name":"","type":"uint256","internalType":"uint256"}],"stateMutability":"view"},{"type":"function","name":"isOperator","inputs":[{"name":"node","type":"bytes32","internalType":"bytes32"},{"name":"operator","type":"address","internalType":"address"}],"outputs":[{"name":"","type":"bool","internalType":"bool"}],"stateMutability":"view"},{"type":"function","name":"setAddr","inputs":[{"name":"node","type":"bytes32","internalType":"bytes32"},{"name":"addr_","type":"address","internalType":"address"}],"outputs":[],"stateMutability":"nonpayable"},{"type":"function","name":"setAddrForCoin","inputs":[{"name":"node","type":"bytes32","internalType":"bytes32"},{"name":"coinType","type":"uint256","internalType":"uint256"},{"name":"addr_","type":"address","internalType":"address"}],"outputs":[],"stateMutability":"nonpayable"},{"type":"function","name":"setAddressAttribute","inputs":[{"name":"node","type":"bytes32","internalType":"bytes32"},{"name":"predicate","type":"bytes32","internalType":"bytes32"},{"name":"value","type":"address","internalType":"address"}],"outputs":[],"stateMutability":"nonpayable"},{"type":"function","name":"setAlias","inputs":[{"name":"node","type":"bytes32","internalType":"bytes32"},{"name":"targetNode","type":"bytes32","internalType":"bytes32"}],"outputs":[],"stateMutability":"nonpayable"},{"type":"function","name":"setBoolAttribute","inputs":[{"name":"node","type":"bytes32","internalType":"bytes32"},{"name":"predicate","type":"bytes32","internalType":"bytes32"},{"name":"value","type":"bool","internalType":"bool"}],"outputs":[],"stateMutability":"nonpayable"},{"type":"function","name":"setBytes32Attribute","inputs":[{"name":"node","type":"bytes32","internalType":"bytes32"},{"name":"predicate","type":"bytes32","internalType":"bytes32"},{"name":"value","type":"bytes32","internalType":"bytes32"}],"outputs":[],"stateMutability":"nonpayable"},{"type":"function","name":"setOperator","inputs":[{"name":"node","type":"bytes32","internalType":"bytes32"},{"name":"operator","type":"address","internalType":"address"},{"name":"approved","type":"bool","internalType":"bool"}],"outputs":[],"stateMutability":"nonpayable"},{"type":"function","name":"setStringAttribute","inputs":[{"name":"node","type":"bytes32","internalType":"bytes32"},{"name":"predicate","type":"bytes32","internalType":"bytes32"},{"name":"value","type":"string","internalType":"string"}],"outputs":[],"stateMutability":"nonpayable"},{"type":"function","name":"setUintAttribute","inputs":[{"name":"node","type":"bytes32","internalType":"bytes32"},{"name":"predicate","type":"bytes32","internalType":"bytes32"},{"name":"value","type":"uint256","internalType":"uint256"}],"outputs":[],"stateMutability":"nonpayable"},{"type":"function","name":"text","inputs":[{"name":"node","type":"bytes32","internalType":"bytes32"},{"name":"key","type":"string","internalType":"string"}],"outputs":[{"name":"","type":"string","internalType":"string"}],"stateMutability":"view"},{"type":"function","name":"version","inputs":[{"name":"node","type":"bytes32","internalType":"bytes32"}],"outputs":[{"name":"","type":"uint64","internalType":"uint64"}],"stateMutability":"view"},{"type":"event","name":"AddrChanged","inputs":[{"name":"node","type":"bytes32","indexed":true,"internalType":"bytes32"},{"name":"coinType","type":"uint256","indexed":false,"internalType":"uint256"},{"name":"addr","type":"address","indexed":false,"internalType":"address"}],"anonymous":false},{"type":"event","name":"AliasSet","inputs":[{"name":"node","type":"bytes32","indexed":true,"internalType":"bytes32"},{"name":"targetNode","type":"bytes32","indexed":false,"internalType":"bytes32"}],"anonymous":false},{"type":"event","name":"AttributeRouted","inputs":[{"name":"node","type":"bytes32","indexed":true,"internalType":"bytes32"},{"name":"predicate","type":"bytes32","indexed":true,"internalType":"bytes32"}],"anonymous":false},{"type":"event","name":"OperatorSet","inputs":[{"name":"node","type":"bytes32","indexed":true,"internalType":"bytes32"},{"name":"operator","type":"address","indexed":true,"internalType":"address"},{"name":"approved","type":"bool","indexed":false,"internalType":"bool"}],"anonymous":false},{"type":"event","name":"RecordsCleared","inputs":[{"name":"node","type":"bytes32","indexed":true,"internalType":"bytes32"},{"name":"newVersion","type":"uint64","indexed":false,"internalType":"uint64"}],"anonymous":false},{"type":"error","name":"NodeNotFound","inputs":[]},{"type":"error","name":"NotAuthorized","inputs":[]},{"type":"error","name":"PredicateNotRegistered","inputs":[]}],"bytecode":{"object":"0x60e03461013057601f6117d138819003918201601f19168301916001600160401b0383118484101761013457808492606094604052833981010312610130578051906001600160a01b038216820361013057610069604061006260208401610148565b9201610148565b6080929092526001600160a01b0390811660a0521660c052604051611674908161015d8239608051818181610fac0152818161133701526114ad015260a051818181610172015281816102290152818161065e0152818161090201528181610c3501528181610d6601526111a8015260c05181818161026c01528181610443015281816104eb0152818161059c015281816106a0015281816107980152818161087b0152818161094401528181610a4201528181610c7601528181610da601526112130152f35b5f80fd5b634e487b7160e01b5f52604160045260245ffd5b51906001600160a01b03821682036101305756fe6080806040526004361015610012575f80fd5b5f905f3560e01c90816306433b1b14610f9a5750806317c2413014610f555780631890498814610ec55780631f06e91c14610e735780632a4b130414610d2957806331bbd57e14610bf85780633603d75814610b3d57806339baaec014610ab55780633b3b57de14610a71578063507f146514610a2c57806359d1d43c146109df57806368f56aef146108bd57806383efd26f146108445780638a8d9e7c146107fa5780639c701a10146107615780639ccb53ff14610619578063ba555bb314610565578063c1828a7e146104b4578063d53fff9f14610406578063d5fa2b001461037a578063d8fa2f26146101cb578063df119e8a146101a1578063e63cdb421461015c5763fde40cb614610126575f80fd5b346101595760203660031901126101595767ffffffffffffffff6040602092600435815260028452205416604051908152f35b80fd5b50346101595780600319360112610159576040517f00000000000000000000000000000000000000000000000000000000000000006001600160a01b03168152602090f35b50346101595760203660031901126101595760406020916004358152600183522054604051908152f35b50346101595760603660031901126101595760243560043560443567ffffffffffffffff811161032d5761020390369060040161102c565b9061020d83611497565b60405163170da40760e21b8152600481018590526020816024817f00000000000000000000000000000000000000000000000000000000000000006001600160a01b03165afa90811561036f578691610340575b5015610331578491907f00000000000000000000000000000000000000000000000000000000000000006001600160a01b031690813b1561032d578391839183608460405180978196829563235913f560e01b84528c60048501528d602485015260606044850152816064850152848401378181018301849052601f01601f191681010301925af1801561032257610309575b50805f51602061161f5f395f51905f5291a380f35b8161031391611084565b61031e57825f6102f4565b8280fd5b6040513d84823e3d90fd5b8380fd5b63d4e1950f60e01b8552600485fd5b610362915060203d602011610368575b61035a8183611084565b8101906110ba565b5f610261565b503d610350565b6040513d88823e3d90fd5b5034610159576040366003190112610159576004357fe8d3a86c5e813d9352273c5a4b400e815c75faced5e9f26ab6e7b589c145917660406103ba610fdb565b6103c384611497565b8385526020858152828620603c80885290825283872080546001600160a01b0319166001600160a01b03949094169384179055835190815290810191909152a280f35b50346101595761041f61041836611016565b91906112b9565b6040516331477b9b60e01b81526004810191909152602481019190915281816044817f00000000000000000000000000000000000000000000000000000000000000006001600160a01b03165afa908115610322578261048d9392610491575b50506040519182918261105a565b0390f35b6104ad92503d8091833e6104a58183611084565b8101906110ee565b5f8061047f565b5034610159576104c661041836611016565b6040516369d1cb4360e11b8152600481019190915260248101919091526020816044817f00000000000000000000000000000000000000000000000000000000000000006001600160a01b03165afa9081156103225760209291610538575b506040516001600160a01b039091168152f35b6105589150823d841161055e575b6105508183611084565b81019061129a565b5f610525565b503d610546565b50346101595761057761041836611016565b604051630df675ff60e21b8152600481019190915260248101919091526020816044817f00000000000000000000000000000000000000000000000000000000000000006001600160a01b03165afa9081156103225782916105df575b602082604051908152f35b90506020813d602011610611575b816105fa60209383611084565b8101031261060d5760209150515f6105d4565b5080fd5b3d91506105ed565b503461015957606036600319011261015957602435600435610639610ff1565b61064282611497565b60405163170da40760e21b8152600481018490526020816024817f00000000000000000000000000000000000000000000000000000000000000006001600160a01b03165afa908115610756578591610737575b50156107285783907f00000000000000000000000000000000000000000000000000000000000000006001600160a01b031690813b1561031e57604051633cd3e7f760e11b815260048101859052602481018690526001600160a01b0390911660448201529082908290606490829084905af18015610322576103095750805f51602061161f5f395f51905f5291a380f35b63d4e1950f60e01b8452600484fd5b610750915060203d6020116103685761035a8183611084565b5f610696565b6040513d87823e3d90fd5b50346101595761077361041836611016565b60405163263abc4760e21b8152600481019190915260248101919091526020816044817f00000000000000000000000000000000000000000000000000000000000000006001600160a01b03165afa90811561032257602092916107dd575b506040519015158152f35b6107f49150823d84116103685761035a8183611084565b5f6107d2565b5034610159576040366003190112610159576040610816610fdb565b9160043581526003602052209060018060a01b03165f52602052602060ff60405f2054166040519015158152f35b50346101595761085661041836611016565b604051633d356c9360e11b8152600481019190915260248101919091526020816044817f00000000000000000000000000000000000000000000000000000000000000006001600160a01b03165afa9081156103225782916105df57602082604051908152f35b5034610159576060366003190112610159576024356004356108dd611007565b6108e682611497565b60405163170da40760e21b8152600481018490526020816024817f00000000000000000000000000000000000000000000000000000000000000006001600160a01b03165afa9081156107565785916109c0575b50156107285783907f00000000000000000000000000000000000000000000000000000000000000006001600160a01b031690813b1561031e578291606483926040519485938492633c3d4fb960e21b84528960048501528a6024850152151560448401525af18015610322576103095750805f51602061161f5f395f51905f5291a380f35b6109d9915060203d6020116103685761035a8183611084565b5f61093a565b5034610159576040366003190112610159576024359067ffffffffffffffff82116101595761048d610a20610a17366004860161102c565b90600435611151565b6040519182918261105a565b50346101595780600319360112610159576040517f00000000000000000000000000000000000000000000000000000000000000006001600160a01b03168152602090f35b503461015957602036600319011261015957602090610a916004356112b9565b815280825260408120603c82528252604060018060a01b0391205416604051908152f35b5034610159576060366003190112610159576004357fe8d3a86c5e813d9352273c5a4b400e815c75faced5e9f26ab6e7b589c14591766040602435610af8610ff1565b610b0185611497565b8486526020868152838720838852815283872080546001600160a01b0319166001600160a01b039390931692831790558351928352820152a280f35b503461015957602036600319011261015957600435610b5b81611497565b808252600260205260408220805467ffffffffffffffff811667ffffffffffffffff8114610be457600167ffffffffffffffff9101169067ffffffffffffffff191617905580825260026020527fe79ca3b930e014fa0d9e9417aa011799d57f972451d131c26084c12e32725ea0602067ffffffffffffffff604085205416604051908152a280f35b634e487b7160e01b85526011600452602485fd5b503461015957606036600319011261015957602435600435610c1981611497565b60405163170da40760e21b8152600481018390526020816024817f00000000000000000000000000000000000000000000000000000000000000006001600160a01b03165afa908115610d1e578491610cff575b5015610cf057827f00000000000000000000000000000000000000000000000000000000000000006001600160a01b0316803b1561060d57818091606460405180948193631d60084b60e01b835288600484015289602484015260443560448401525af18015610322576103095750805f51602061161f5f395f51905f5291a380f35b63d4e1950f60e01b8352600483fd5b610d18915060203d6020116103685761035a8183611084565b5f610c6d565b6040513d86823e3d90fd5b5034610e41576060366003190112610e4157602435600435610d4a81611497565b60405163170da40760e21b8152600481018390526020816024817f00000000000000000000000000000000000000000000000000000000000000006001600160a01b03165afa908115610e36575f91610e54575b5015610e45577f00000000000000000000000000000000000000000000000000000000000000006001600160a01b0316803b15610e41575f809160646040518094819363a14ff85760e01b835287600484015288602484015260443560448401525af18015610e3657610e21575b505f51602061161f5f395f51905f528380a380f35b610e2e9193505f90611084565b5f915f610e0c565b6040513d5f823e3d90fd5b5f80fd5b63d4e1950f60e01b5f5260045ffd5b610e6d915060203d6020116103685761035a8183611084565b5f610d9e565b34610e415760207f9656298cd4fb507d90f509d326f56a59bbd242caf3ca08686893f64f95994b9e610ea436611016565b610eaf829492611497565b835f52600182528060405f2055604051908152a2005b34610e41576060366003190112610e4157600435610ee1610fdb565b907f1830774e355cfb93ecc0e841294830a153d65e0347de5050a195b033dd2246096020610f0d611007565b93610f1784611321565b5f8481526003835260408082206001600160a01b039390931680835292845290819020805460ff191696151560ff81169790971790555194855293a3005b34610e41576040366003190112610e4157610f716004356112b9565b5f525f60205260405f206024355f52602052602060018060a01b0360405f205416604051908152f35b34610e41575f366003190112610e41577f00000000000000000000000000000000000000000000000000000000000000006001600160a01b03168152602090f35b602435906001600160a01b0382168203610e4157565b604435906001600160a01b0382168203610e4157565b604435908115158203610e4157565b6040906003190112610e41576004359060243590565b9181601f84011215610e415782359167ffffffffffffffff8311610e415760208381860195010111610e4157565b602060409281835280519182918282860152018484015e5f828201840152601f01601f1916010190565b90601f8019910116810190811067ffffffffffffffff8211176110a657604052565b634e487b7160e01b5f52604160045260245ffd5b90816020910312610e4157518015158103610e415790565b67ffffffffffffffff81116110a657601f01601f191660200190565b602081830312610e415780519067ffffffffffffffff8211610e41570181601f82011215610e4157805190611122826110d2565b926111306040519485611084565b82845260208383010111610e4157815f9260208093018386015e8301015290565b9161115b816110d2565b906111696040519283611084565b80825260208201923682820111610e4157815f9260209286378301015251902060405163170da40760e21b8152600481018290529091906020816024817f00000000000000000000000000000000000000000000000000000000000000006001600160a01b03165afa908115610e36575f9161127b575b5015611265576111ef906112b9565b6040516331477b9b60e01b8152600481019190915260248101919091525f816044817f00000000000000000000000000000000000000000000000000000000000000006001600160a01b03165afa908115610e36575f9161124e575090565b61126291503d805f833e6104a58183611084565b90565b5050604051611275602082611084565b5f815290565b611294915060203d6020116103685761035a8183611084565b5f6111e0565b90816020910312610e4157516001600160a01b0381168103610e415790565b5f5b600360ff8216106112ca575090565b90805f52600160205260405f20549081156112ec57509060010160ff166112bb565b91505090565b3d1561131c573d90611303826110d2565b916113116040519384611084565b82523d5f602084013e565b606090565b604051631ef3fca760e31b8152600481018290527f00000000000000000000000000000000000000000000000000000000000000006001600160a01b03169190602081602481865afa908115610e36575f91611478575b5015611469576020906024604051809481936302571be360e01b835260048301525afa908115610e36575f9161144a575b50336001600160a01b0382161461144757803b6113d0575b63ea8e4eb560e01b5f5260045ffd5b5f809160405160208101906317aa5fb760e11b8252336024820152602481526113fa604482611084565b51915afa6114066112f2565b81611439575b8161141f575b5061141d57806113c1565b565b6114339150602080825183010191016110ba565b5f611412565b90506020815110159061140c565b50565b611463915060203d60201161055e576105508183611084565b5f6113a9565b634825e09360e01b5f5260045ffd5b611491915060203d6020116103685761035a8183611084565b5f611378565b604051631ef3fca760e31b8152600481018290527f00000000000000000000000000000000000000000000000000000000000000006001600160a01b031690602081602481855afa908115610e36575f916115ff575b5015611469576020602491604051928380926302571be360e01b82528660048301525afa908115610e36575f916115e0575b50336001600160a01b038216146115dc57803b611567575b505f90815260036020908152604080832033845290915290205460ff1661141d5763ea8e4eb560e01b5f5260045ffd5b5f809160405160208101906317aa5fb760e11b825233602482015260248152611591604482611084565b51915afa61159d6112f2565b816115ce575b816115b4575b50611447575f611537565b6115c89150602080825183010191016110ba565b5f6115a9565b9050602081511015906115a3565b5050565b6115f9915060203d60201161055e576105508183611084565b5f61151f565b611618915060203d6020116103685761035a8183611084565b5f6114ed56fe47e168731fa0396f2634075f1ef7671d047dd6f5044173cc67468f5795ea9ca8a26469706673582212203ca05a077206ac7bc80bcbb1596f946d22739b9443edcf0155286830fba9164664736f6c634300081c0033","linkReferences":{}},"methodIdentifiers":{"ONTOLOGY()":"e63cdb42","REGISTRY()":"06433b1b","STORE()":"507f1465","addr(bytes32)":"3b3b57de","addrForCoin(bytes32,uint256)":"17c24130","aliasOf(bytes32)":"df119e8a","clearRecords(bytes32)":"3603d758","getAddressAttribute(bytes32,bytes32)":"c1828a7e","getBoolAttribute(bytes32,bytes32)":"9c701a10","getBytes32Attribute(bytes32,bytes32)":"ba555bb3","getStringAttribute(bytes32,bytes32)":"d53fff9f","getUintAttribute(bytes32,bytes32)":"83efd26f","isOperator(bytes32,address)":"8a8d9e7c","setAddr(bytes32,address)":"d5fa2b00","setAddrForCoin(bytes32,uint256,address)":"39baaec0","setAddressAttribute(bytes32,bytes32,address)":"9ccb53ff","setAlias(bytes32,bytes32)":"1f06e91c","setBoolAttribute(bytes32,bytes32,bool)":"68f56aef","setBytes32Attribute(bytes32,bytes32,bytes32)":"2a4b1304","setOperator(bytes32,address,bool)":"18904988","setStringAttribute(bytes32,bytes32,string)":"d8fa2f26","setUintAttribute(bytes32,bytes32,uint256)":"31bbd57e","text(bytes32,string)":"59d1d43c","version(bytes32)":"fde40cb6"},"id":68}