{"abi":[{"type":"constructor","inputs":[{"name":"registry","type":"address","internalType":"contract AgentNameRegistry"},{"name":"ontologyRegistry","type":"address","internalType":"address"}],"stateMutability":"nonpayable"},{"type":"function","name":"DT_ADDRESS_ARR_PUB","inputs":[],"outputs":[{"name":"","type":"uint8","internalType":"uint8"}],"stateMutability":"pure"},{"type":"function","name":"DT_ADDRESS_PUB","inputs":[],"outputs":[{"name":"","type":"uint8","internalType":"uint8"}],"stateMutability":"pure"},{"type":"function","name":"DT_BOOL_PUB","inputs":[],"outputs":[{"name":"","type":"uint8","internalType":"uint8"}],"stateMutability":"pure"},{"type":"function","name":"DT_BYTES32_ARR_PUB","inputs":[],"outputs":[{"name":"","type":"uint8","internalType":"uint8"}],"stateMutability":"pure"},{"type":"function","name":"DT_BYTES32_PUB","inputs":[],"outputs":[{"name":"","type":"uint8","internalType":"uint8"}],"stateMutability":"pure"},{"type":"function","name":"DT_STRING_ARR_PUB","inputs":[],"outputs":[{"name":"","type":"uint8","internalType":"uint8"}],"stateMutability":"pure"},{"type":"function","name":"DT_STRING_PUB","inputs":[],"outputs":[{"name":"","type":"uint8","internalType":"uint8"}],"stateMutability":"pure"},{"type":"function","name":"DT_UINT256_PUB","inputs":[],"outputs":[{"name":"","type":"uint8","internalType":"uint8"}],"stateMutability":"pure"},{"type":"function","name":"ONTOLOGY","inputs":[],"outputs":[{"name":"","type":"address","internalType":"contract OntologyTermRegistry"}],"stateMutability":"view"},{"type":"function","name":"REGISTRY","inputs":[],"outputs":[{"name":"","type":"address","internalType":"contract AgentNameRegistry"}],"stateMutability":"view"},{"type":"function","name":"addr","inputs":[{"name":"node","type":"bytes32","internalType":"bytes32"}],"outputs":[{"name":"","type":"address","internalType":"address"}],"stateMutability":"view"},{"type":"function","name":"addrForCoin","inputs":[{"name":"node","type":"bytes32","internalType":"bytes32"},{"name":"coinType","type":"uint256","internalType":"uint256"}],"outputs":[{"name":"","type":"address","internalType":"address"}],"stateMutability":"view"},{"type":"function","name":"aliasOf","inputs":[{"name":"node","type":"bytes32","internalType":"bytes32"}],"outputs":[{"name":"","type":"bytes32","internalType":"bytes32"}],"stateMutability":"view"},{"type":"function","name":"allSubjects","inputs":[],"outputs":[{"name":"","type":"bytes32[]","internalType":"bytes32[]"}],"stateMutability":"view"},{"type":"function","name":"clearRecords","inputs":[{"name":"node","type":"bytes32","internalType":"bytes32"}],"outputs":[],"stateMutability":"nonpayable"},{"type":"function","name":"datatypeOf","inputs":[{"name":"subject","type":"bytes32","internalType":"bytes32"},{"name":"predicate","type":"bytes32","internalType":"bytes32"}],"outputs":[{"name":"","type":"uint8","internalType":"uint8"}],"stateMutability":"view"},{"type":"function","name":"getAddress","inputs":[{"name":"subject","type":"bytes32","internalType":"bytes32"},{"name":"predicate","type":"bytes32","internalType":"bytes32"}],"outputs":[{"name":"","type":"address","internalType":"address"}],"stateMutability":"view"},{"type":"function","name":"getAddressArr","inputs":[{"name":"subject","type":"bytes32","internalType":"bytes32"},{"name":"predicate","type":"bytes32","internalType":"bytes32"}],"outputs":[{"name":"","type":"address[]","internalType":"address[]"}],"stateMutability":"view"},{"type":"function","name":"getAddressAttribute","inputs":[{"name":"node","type":"bytes32","internalType":"bytes32"},{"name":"predicate","type":"bytes32","internalType":"bytes32"}],"outputs":[{"name":"","type":"address","internalType":"address"}],"stateMutability":"view"},{"type":"function","name":"getBool","inputs":[{"name":"subject","type":"bytes32","internalType":"bytes32"},{"name":"predicate","type":"bytes32","internalType":"bytes32"}],"outputs":[{"name":"","type":"bool","internalType":"bool"}],"stateMutability":"view"},{"type":"function","name":"getBoolAttribute","inputs":[{"name":"node","type":"bytes32","internalType":"bytes32"},{"name":"predicate","type":"bytes32","internalType":"bytes32"}],"outputs":[{"name":"","type":"bool","internalType":"bool"}],"stateMutability":"view"},{"type":"function","name":"getBytes32","inputs":[{"name":"subject","type":"bytes32","internalType":"bytes32"},{"name":"predicate","type":"bytes32","internalType":"bytes32"}],"outputs":[{"name":"","type":"bytes32","internalType":"bytes32"}],"stateMutability":"view"},{"type":"function","name":"getBytes32Arr","inputs":[{"name":"subject","type":"bytes32","internalType":"bytes32"},{"name":"predicate","type":"bytes32","internalType":"bytes32"}],"outputs":[{"name":"","type":"bytes32[]","internalType":"bytes32[]"}],"stateMutability":"view"},{"type":"function","name":"getBytes32Attribute","inputs":[{"name":"node","type":"bytes32","internalType":"bytes32"},{"name":"predicate","type":"bytes32","internalType":"bytes32"}],"outputs":[{"name":"","type":"bytes32","internalType":"bytes32"}],"stateMutability":"view"},{"type":"function","name":"getString","inputs":[{"name":"subject","type":"bytes32","internalType":"bytes32"},{"name":"predicate","type":"bytes32","internalType":"bytes32"}],"outputs":[{"name":"","type":"string","internalType":"string"}],"stateMutability":"view"},{"type":"function","name":"getStringArr","inputs":[{"name":"subject","type":"bytes32","internalType":"bytes32"},{"name":"predicate","type":"bytes32","internalType":"bytes32"}],"outputs":[{"name":"","type":"string[]","internalType":"string[]"}],"stateMutability":"view"},{"type":"function","name":"getStringAttribute","inputs":[{"name":"node","type":"bytes32","internalType":"bytes32"},{"name":"predicate","type":"bytes32","internalType":"bytes32"}],"outputs":[{"name":"","type":"string","internalType":"string"}],"stateMutability":"view"},{"type":"function","name":"getUint","inputs":[{"name":"subject","type":"bytes32","internalType":"bytes32"},{"name":"predicate","type":"bytes32","internalType":"bytes32"}],"outputs":[{"name":"","type":"uint256","internalType":"uint256"}],"stateMutability":"view"},{"type":"function","name":"getUintAttribute","inputs":[{"name":"node","type":"bytes32","internalType":"bytes32"},{"name":"predicate","type":"bytes32","internalType":"bytes32"}],"outputs":[{"name":"","type":"uint256","internalType":"uint256"}],"stateMutability":"view"},{"type":"function","name":"isOperator","inputs":[{"name":"node","type":"bytes32","internalType":"bytes32"},{"name":"operator","type":"address","internalType":"address"}],"outputs":[{"name":"","type":"bool","internalType":"bool"}],"stateMutability":"view"},{"type":"function","name":"isSet","inputs":[{"name":"subject","type":"bytes32","internalType":"bytes32"},{"name":"predicate","type":"bytes32","internalType":"bytes32"}],"outputs":[{"name":"","type":"bool","internalType":"bool"}],"stateMutability":"view"},{"type":"function","name":"predicatesOf","inputs":[{"name":"subject","type":"bytes32","internalType":"bytes32"}],"outputs":[{"name":"","type":"bytes32[]","internalType":"bytes32[]"}],"stateMutability":"view"},{"type":"function","name":"setAddr","inputs":[{"name":"node","type":"bytes32","internalType":"bytes32"},{"name":"addr_","type":"address","internalType":"address"}],"outputs":[],"stateMutability":"nonpayable"},{"type":"function","name":"setAddrForCoin","inputs":[{"name":"node","type":"bytes32","internalType":"bytes32"},{"name":"coinType","type":"uint256","internalType":"uint256"},{"name":"addr_","type":"address","internalType":"address"}],"outputs":[],"stateMutability":"nonpayable"},{"type":"function","name":"setAddressAttribute","inputs":[{"name":"node","type":"bytes32","internalType":"bytes32"},{"name":"predicate","type":"bytes32","internalType":"bytes32"},{"name":"value","type":"address","internalType":"address"}],"outputs":[],"stateMutability":"nonpayable"},{"type":"function","name":"setAlias","inputs":[{"name":"node","type":"bytes32","internalType":"bytes32"},{"name":"targetNode","type":"bytes32","internalType":"bytes32"}],"outputs":[],"stateMutability":"nonpayable"},{"type":"function","name":"setBoolAttribute","inputs":[{"name":"node","type":"bytes32","internalType":"bytes32"},{"name":"predicate","type":"bytes32","internalType":"bytes32"},{"name":"value","type":"bool","internalType":"bool"}],"outputs":[],"stateMutability":"nonpayable"},{"type":"function","name":"setBytes32Attribute","inputs":[{"name":"node","type":"bytes32","internalType":"bytes32"},{"name":"predicate","type":"bytes32","internalType":"bytes32"},{"name":"value","type":"bytes32","internalType":"bytes32"}],"outputs":[],"stateMutability":"nonpayable"},{"type":"function","name":"setOperator","inputs":[{"name":"node","type":"bytes32","internalType":"bytes32"},{"name":"operator","type":"address","internalType":"address"},{"name":"approved","type":"bool","internalType":"bool"}],"outputs":[],"stateMutability":"nonpayable"},{"type":"function","name":"setStringAttribute","inputs":[{"name":"node","type":"bytes32","internalType":"bytes32"},{"name":"predicate","type":"bytes32","internalType":"bytes32"},{"name":"value","type":"string","internalType":"string"}],"outputs":[],"stateMutability":"nonpayable"},{"type":"function","name":"setUintAttribute","inputs":[{"name":"node","type":"bytes32","internalType":"bytes32"},{"name":"predicate","type":"bytes32","internalType":"bytes32"},{"name":"value","type":"uint256","internalType":"uint256"}],"outputs":[],"stateMutability":"nonpayable"},{"type":"function","name":"subjectCount","inputs":[],"outputs":[{"name":"","type":"uint256","internalType":"uint256"}],"stateMutability":"view"},{"type":"function","name":"subjectVersion","inputs":[{"name":"subject","type":"bytes32","internalType":"bytes32"}],"outputs":[{"name":"","type":"uint64","internalType":"uint64"}],"stateMutability":"view"},{"type":"function","name":"text","inputs":[{"name":"node","type":"bytes32","internalType":"bytes32"},{"name":"key","type":"string","internalType":"string"}],"outputs":[{"name":"","type":"string","internalType":"string"}],"stateMutability":"view"},{"type":"function","name":"updatedAt","inputs":[{"name":"subject","type":"bytes32","internalType":"bytes32"},{"name":"predicate","type":"bytes32","internalType":"bytes32"}],"outputs":[{"name":"","type":"uint64","internalType":"uint64"}],"stateMutability":"view"},{"type":"function","name":"version","inputs":[{"name":"node","type":"bytes32","internalType":"bytes32"}],"outputs":[{"name":"","type":"uint64","internalType":"uint64"}],"stateMutability":"view"},{"type":"event","name":"AddrChanged","inputs":[{"name":"node","type":"bytes32","indexed":true,"internalType":"bytes32"},{"name":"coinType","type":"uint256","indexed":false,"internalType":"uint256"},{"name":"addr","type":"address","indexed":false,"internalType":"address"}],"anonymous":false},{"type":"event","name":"AliasSet","inputs":[{"name":"node","type":"bytes32","indexed":true,"internalType":"bytes32"},{"name":"targetNode","type":"bytes32","indexed":false,"internalType":"bytes32"}],"anonymous":false},{"type":"event","name":"AttributeAppended","inputs":[{"name":"subject","type":"bytes32","indexed":true,"internalType":"bytes32"},{"name":"predicate","type":"bytes32","indexed":true,"internalType":"bytes32"},{"name":"datatype","type":"uint8","indexed":false,"internalType":"uint8"},{"name":"version","type":"uint64","indexed":false,"internalType":"uint64"}],"anonymous":false},{"type":"event","name":"AttributeRouted","inputs":[{"name":"node","type":"bytes32","indexed":true,"internalType":"bytes32"},{"name":"predicate","type":"bytes32","indexed":true,"internalType":"bytes32"}],"anonymous":false},{"type":"event","name":"AttributeSet","inputs":[{"name":"subject","type":"bytes32","indexed":true,"internalType":"bytes32"},{"name":"predicate","type":"bytes32","indexed":true,"internalType":"bytes32"},{"name":"datatype","type":"uint8","indexed":false,"internalType":"uint8"},{"name":"version","type":"uint64","indexed":false,"internalType":"uint64"}],"anonymous":false},{"type":"event","name":"AttributeUnset","inputs":[{"name":"subject","type":"bytes32","indexed":true,"internalType":"bytes32"},{"name":"predicate","type":"bytes32","indexed":true,"internalType":"bytes32"},{"name":"version","type":"uint64","indexed":false,"internalType":"uint64"}],"anonymous":false},{"type":"event","name":"OperatorSet","inputs":[{"name":"node","type":"bytes32","indexed":true,"internalType":"bytes32"},{"name":"operator","type":"address","indexed":true,"internalType":"address"},{"name":"approved","type":"bool","indexed":false,"internalType":"bool"}],"anonymous":false},{"type":"event","name":"RecordsCleared","inputs":[{"name":"node","type":"bytes32","indexed":true,"internalType":"bytes32"},{"name":"newVersion","type":"uint64","indexed":false,"internalType":"uint64"}],"anonymous":false},{"type":"event","name":"SubjectFirstSeen","inputs":[{"name":"subject","type":"bytes32","indexed":true,"internalType":"bytes32"}],"anonymous":false},{"type":"error","name":"AttributeNotSet","inputs":[]},{"type":"error","name":"NodeNotFound","inputs":[]},{"type":"error","name":"NotAuthorized","inputs":[]},{"type":"error","name":"PredicateNotActive","inputs":[]}],"bytecode":{"object":"0x60c0346100a957601f61228a38819003918201601f19168301916001600160401b038311848410176100ad5780849260409485528339810103126100a9578051906001600160a01b03821682036100a957602001516001600160a01b038116908190036100a95760805260a0526040516121c890816100c2823960805181818161029801528181611bde0152612042015260a0518181816118de01528181611d400152611eb40152f35b5f80fd5b634e487b7160e01b5f52604160045260245ffdfe6080806040526004361015610012575f80fd5b5f3560e01c90816306433b1b146118cc5750806317c241301461188657806318904988146117f35780631f06e91c146117a1578063213aaad7146117865780632a4b1304146115c6578063305471811461156257806331477b9b1461153457806331bbd57e146113745780633603d758146112d457806337d9d7fc146112a557806339baaec01461121b5780633b3b57de146111d65780634083843e1461116d57806342921cf31461113b57806359d1d43c146110e8578063639a2e10146110cb57806368f56aef14610ef35780637a6ad92614610ec457806383efd26f14610e7a578063880eadce14610e425780638a8d9e7c14610df95780638e10136914610dde5780638e21caca14610dab57806393cbc37d14610d9057806398eaf11c14610d5c5780639c701a1014610ce15780639ccb53ff14610afe578063a954aea114610ae3578063ba555bb314610a65578063bb6b0c3b14610a31578063be78c06814610a16578063c1828a7e14610993578063c317462914610978578063c3a6123d146108f8578063cb954f3014610813578063d3a39686146107dc578063d53fff9f1461074c578063d5fa2b00146106bf578063d8fa2f26146103ae578063df119e8a14610384578063e4281bc3146102c7578063e63cdb4214610283578063ece6bebc14610268578063f98eed691461024d5763fde40cb614610216575f80fd5b34610249576020366003190112610249576004355f52601160205260206001600160401b0360405f205416604051908152f35b5f80fd5b34610249575f36600319011261024957602060405160088152f35b34610249575f36600319011261024957602060405160028152f35b34610249575f366003190112610249576040517f00000000000000000000000000000000000000000000000000000000000000006001600160a01b03168152602090f35b34610249576102d536611948565b905f52600660205260405f20905f5260205260405f20604051806020835491828152019081935f5260205f20905f5b818110610365575050508161031a9103826119e8565b604051918291602083019060208452518091526040830191905f5b818110610343575050500390f35b82516001600160a01b0316845285945060209384019390920191600101610335565b82546001600160a01b0316845260209093019260019283019201610304565b34610249576020366003190112610249576004355f526010602052602060405f2054604051908152f35b34610249576060366003190112610249576004356024356044356001600160401b038111610249576103e76103f79136906004016119bb565b6103f085611e9e565b3691611afc565b9161040182612025565b805f525f60205260405f20825f5260205260405f2083516001600160401b0381116106ab576104308254611a09565b601f8111610666575b50602094601f8211600114610605579481929394955f926105fa575b50508160011b915f199060031b1c19161790555b805f52600e60205260ff60405f205416156105c3575b805f52600960205260405f20825f5260205260ff60405f20541615610588575b805f52600a60205260405f20825f5260205260405f20600160ff19825416179055805f52600c60205260016001600160401b0360405f205416016001600160401b03811161057457815f5160206121735f395f51905f5260408593835f52600c602052815f206001600160401b0382166001600160401b0319825416179055835f52600b602052815f20855f52602052815f206001600160401b0382166001600160401b03198254161790556001600160401b0382519160018352166020820152a35f5160206121335f395f51905f525f80a3005b634e487b7160e01b5f52601160045260245ffd5b805f52600860205261059d8260405f2061210b565b805f52600960205260405f20825f5260205260405f20600160ff1982541617905561049f565b805f52600e60205260405f20600160ff198254161790556105e3816120b0565b805f5160206121535f395f51905f525f80a261047f565b015190508580610455565b601f19821695835f52805f20915f5b88811061064e57508360019596979810610636575b505050811b019055610469565b01515f1960f88460031b161c19169055858080610629565b91926020600181928685015181550194019201610614565b825f5260205f20601f830160051c810191602084106106a1575b601f0160051c01905b8181106106965750610439565b5f8155600101610689565b9091508190610680565b634e487b7160e01b5f52604160045260245ffd5b34610249576040366003190112610249576004357fe8d3a86c5e813d9352273c5a4b400e815c75faced5e9f26ab6e7b589c145917660406106fe61190d565b61070784611e9e565b5f848152600f6020908152838220603c8084529082529184902080546001600160a01b0319166001600160a01b039490941693841790558351918252810191909152a2005b346102495761076461075d36611948565b9190611cc2565b90604051916331477b9b60e01b8352600483015260248201525f81604481305afa80156107d1576107ab915f916107af575b50604051918291602083526020830190611997565b0390f35b6107cb91503d805f833e6107c381836119e8565b810190611b4a565b82610796565b6040513d5f823e3d90fd5b34610249576107ea36611948565b905f52600160205260405f20905f52602052602060018060a01b0360405f205416604051908152f35b346102495761082136611948565b905f52600560205260405f20905f5260205260405f208054906001600160401b0382116106ab576040519161085c60208260051b01846119e8565b8083526020830180925f5260205f205f915b8383106108db57848660405191829160208301906020845251809152604083019060408160051b85010192915f905b8282106108ac57505050500390f35b919360019193955060206108cb8192603f198a82030186528851611997565b960192019201859493919261089d565b6001602081926108ea85611a41565b81520192019201919061086e565b34610249575f36600319011261024957604051806020600d54918281520190600d5f527fd7b6990105719101dabeb77144f2a3385c8033acd3af97e9423a695e81ad1eb5905f5b818110610962576107ab85610956818703826119e8565b6040519182918261195e565b825484526020909301926001928301920161093f565b34610249575f36600319011261024957602060405160058152f35b34610249576109a461075d36611948565b90604051916369d1cb4360e11b835260048301526024820152602081604481305afa80156107d1576020915f916109e9575b506040516001600160a01b039091168152f35b610a099150823d8411610a0f575b610a0181836119e8565b810190611ca3565b826109d6565b503d6109f7565b34610249575f36600319011261024957602060405160048152f35b3461024957610a3f36611948565b905f52600960205260405f20905f52602052602060ff60405f2054166040519015158152f35b3461024957610a7661075d36611948565b9060405191630df675ff60e21b835260048301526024820152602081604481305afa80156107d1575f90610ab0575b602090604051908152f35b506020813d602011610adb575b81610aca602093836119e8565b810103126102495760209051610aa5565b3d9150610abd565b34610249575f36600319011261024957602060405160018152f35b3461024957606036600319011261024957602435600435610b1d611923565b610b2682611e9e565b610b2f83612025565b815f52600160205260405f20835f5260205260405f209060018060a01b03166bffffffffffffffffffffffff60a01b825416179055805f52600e60205260ff60405f20541615610caa575b805f52600960205260405f20825f5260205260ff60405f20541615610c6f575b805f52600a60205260405f20825f5260205260405f20600260ff19825416179055805f52600c60205260016001600160401b0360405f205416016001600160401b03811161057457815f5160206121735f395f51905f5260408593835f52600c602052815f206001600160401b0382166001600160401b0319825416179055835f52600b602052815f20855f52602052815f206001600160401b0382166001600160401b03198254161790556001600160401b0382519160028352166020820152a35f5160206121335f395f51905f525f80a3005b805f526008602052610c848260405f2061210b565b805f52600960205260405f20825f5260205260405f20600160ff19825416179055610b9a565b805f52600e60205260405f20600160ff19825416179055610cca816120b0565b805f5160206121535f395f51905f525f80a2610b7a565b3461024957610cf261075d36611948565b906040519163263abc4760e21b835260048301526024820152602081604481305afa80156107d1576020915f91610d2f575b506040519015158152f35b610d4f9150823d8411610d55575b610d4781836119e8565b810190611b32565b82610d24565b503d610d3d565b3461024957610d6a36611948565b905f52600260205260405f20905f52602052602060ff60405f2054166040519015158152f35b34610249575f36600319011261024957602060405160038152f35b34610249576020366003190112610249576004355f52600c60205260206001600160401b0360405f205416604051908152f35b34610249575f36600319011261024957602060405160068152f35b3461024957604036600319011261024957610e1261190d565b6004355f52601260205260405f209060018060a01b03165f52602052602060ff60405f2054166040519015158152f35b3461024957610e5036611948565b905f52600b60205260405f20905f5260205260206001600160401b0360405f205416604051908152f35b3461024957610e8b61075d36611948565b9060405191633d356c9360e11b835260048301526024820152602081604481305afa80156107d1575f90610ab057602090604051908152f35b3461024957610ed236611948565b905f52600360205260405f20905f52602052602060405f2054604051908152f35b3461024957606036600319011261024957602435600435610f4e610f15611939565b610f1e83611e9e565b610f2784612025565b825f52600260205260405f20845f5260205260405f209060ff801983541691151516179055565b805f52600e60205260ff60405f20541615611094575b805f52600960205260405f20825f5260205260ff60405f20541615611059575b805f52600a60205260405f20825f5260205260405f20600360ff19825416179055805f52600c60205260016001600160401b0360405f205416016001600160401b03811161057457815f5160206121735f395f51905f5260408593835f52600c602052815f206001600160401b0382166001600160401b0319825416179055835f52600b602052815f20855f52602052815f206001600160401b0382166001600160401b03198254161790556001600160401b0382519160038352166020820152a35f5160206121335f395f51905f525f80a3005b805f52600860205261106e8260405f2061210b565b805f52600960205260405f20825f5260205260405f20600160ff19825416179055610f84565b805f52600e60205260405f20600160ff198254161790556110b4816120b0565b805f5160206121535f395f51905f525f80a2610f64565b34610249575f366003190112610249576020600d54604051908152f35b34610249576040366003190112610249576024356001600160401b0381116102495761112761111e6107ab9236906004016119bb565b90600435611bac565b604051918291602083526020830190611997565b346102495761114936611948565b905f52600a60205260405f20905f52602052602060ff60405f205416604051908152f35b346102495761117b36611948565b905f52600760205260405f20905f5260205260405f206040519081602082549182815201915f5260205f20905f5b8181106111c0576107ab85610956818703826119e8565b82548452602090930192600192830192016111a9565b34610249576020366003190112610249576111f2600435611cc2565b5f52600f60205260405f20603c5f52602052602060018060a01b0360405f205416604051908152f35b34610249576060366003190112610249576004357fe8d3a86c5e813d9352273c5a4b400e815c75faced5e9f26ab6e7b589c1459176604060243561125d611923565b61126685611e9e565b5f858152600f602090815284822084835281529084902080546001600160a01b0319166001600160a01b039390931692831790558351928352820152a2005b34610249576112b336611948565b905f52600460205260405f20905f52602052602060405f2054604051908152f35b34610249576020366003190112610249576004356112f181611e9e565b805f52601160205260405f206001600160401b038154166001600160401b0381146105745760016001600160401b039101166001600160401b0319825416179055805f5260116020527fe79ca3b930e014fa0d9e9417aa011799d57f972451d131c26084c12e32725ea060206001600160401b0360405f205416604051908152a2005b346102495760603660031901126102495760243560043561139481611e9e565b61139d82612025565b805f52600360205260405f20825f5260205260443560405f2055805f52600e60205260ff60405f205416156114fd575b805f52600960205260405f20825f5260205260ff60405f205416156114c2575b805f52600a60205260405f20825f5260205260405f20600460ff19825416179055805f52600c60205260016001600160401b0360405f205416016001600160401b03811161057457815f5160206121735f395f51905f5260408593835f52600c602052815f206001600160401b0382166001600160401b0319825416179055835f52600b602052815f20855f52602052815f206001600160401b0382166001600160401b03198254161790556001600160401b0382519160048352166020820152a35f5160206121335f395f51905f525f80a3005b805f5260086020526114d78260405f2061210b565b805f52600960205260405f20825f5260205260405f20600160ff198254161790556113ed565b805f52600e60205260405f20600160ff1982541617905561151d816120b0565b805f5160206121535f395f51905f525f80a26113cd565b346102495761154236611948565b905f525f60205260405f20905f526020526107ab61112760405f20611a41565b34610249576020366003190112610249576004355f52600860205260405f206040519081602082549182815201915f5260205f20905f5b8181106115b0576107ab85610956818703826119e8565b8254845260209093019260019283019201611599565b34610249576060366003190112610249576024356004356115e681611e9e565b6115ef82612025565b805f52600460205260405f20825f5260205260443560405f2055805f52600e60205260ff60405f2054161561174f575b805f52600960205260405f20825f5260205260ff60405f20541615611714575b805f52600a60205260405f20825f5260205260405f20600560ff19825416179055805f52600c60205260016001600160401b0360405f205416016001600160401b03811161057457815f5160206121735f395f51905f5260408593835f52600c602052815f206001600160401b0382166001600160401b0319825416179055835f52600b602052815f20855f52602052815f206001600160401b0382166001600160401b03198254161790556001600160401b0382519160058352166020820152a35f5160206121335f395f51905f525f80a3005b805f5260086020526117298260405f2061210b565b805f52600960205260405f20825f5260205260405f20600160ff1982541617905561163f565b805f52600e60205260405f20600160ff1982541617905561176f816120b0565b805f5160206121535f395f51905f525f80a261161f565b34610249575f36600319011261024957602060405160078152f35b346102495760207f9656298cd4fb507d90f509d326f56a59bbd242caf3ca08686893f64f95994b9e6117d236611948565b6117dd829492611e9e565b835f52601082528060405f2055604051908152a2005b346102495760603660031901126102495760043561180f61190d565b907f1830774e355cfb93ecc0e841294830a153d65e0347de5050a195b033dd224609602061183b611939565b9361184584611d2a565b5f8481526012835260408082206001600160a01b038416835284529020805460ff191660ff8715151617905560405194151585526001600160a01b031693a3005b34610249576040366003190112610249576118a2600435611cc2565b5f52600f60205260405f206024355f52602052602060018060a01b0360405f205416604051908152f35b34610249575f366003190112610249577f00000000000000000000000000000000000000000000000000000000000000006001600160a01b03168152602090f35b602435906001600160a01b038216820361024957565b604435906001600160a01b038216820361024957565b60443590811515820361024957565b6040906003190112610249576004359060243590565b60206040818301928281528451809452019201905f5b8181106119815750505090565b8251845260209384019390920191600101611974565b805180835260209291819084018484015e5f828201840152601f01601f1916010190565b9181601f84011215610249578235916001600160401b038311610249576020838186019501011161024957565b90601f801991011681019081106001600160401b038211176106ab57604052565b90600182811c92168015611a37575b6020831014611a2357565b634e487b7160e01b5f52602260045260245ffd5b91607f1691611a18565b9060405191825f825492611a5484611a09565b8084529360018116908115611abf5750600114611a7b575b50611a79925003836119e8565b565b90505f9291925260205f20905f915b818310611aa3575050906020611a79928201015f611a6c565b6020919350806001915483858901015201910190918492611a8a565b905060209250611a7994915060ff191682840152151560051b8201015f611a6c565b6001600160401b0381116106ab57601f01601f191660200190565b929192611b0882611ae1565b91611b1660405193846119e8565b829481845281830111610249578281602093845f960137010152565b90816020910312610249575180151581036102495790565b602081830312610249578051906001600160401b038211610249570181601f8201121561024957805190611b7d82611ae1565b92611b8b60405194856119e8565b8284526020838301011161024957815f9260208093018386015e8301015290565b9190611bb9913691611afc565b805160209182012060405163170da40760e21b815260048101829052909291816024817f00000000000000000000000000000000000000000000000000000000000000006001600160a01b03165afa9081156107d1575f91611c84575b5015611c6e57611c2590611cc2565b90604051916331477b9b60e01b8352600483015260248201525f81604481305afa9081156107d1575f91611c57575090565b611c6b91503d805f833e6107c381836119e8565b90565b5050604051611c7e6020826119e8565b5f815290565b611c9d915060203d602011610d5557610d4781836119e8565b5f611c16565b9081602091031261024957516001600160a01b03811681036102495790565b5f5b600360ff821610611cd3575090565b90805f52601060205260405f2054908115611cf557509060010160ff16611cc4565b91505090565b3d15611d25573d90611d0c82611ae1565b91611d1a60405193846119e8565b82523d5f602084013e565b606090565b604051631ef3fca760e31b8152600481018290527f00000000000000000000000000000000000000000000000000000000000000006001600160a01b03169190602081602481865afa9081156107d1575f91611e7f575b5015611e70576020906024604051809481936302571be360e01b835260048301525afa9081156107d1575f91611e51575b50336001600160a01b03821614611e4e57803b611dd9575b63ea8e4eb560e01b5f5260045ffd5b5f809160405160208101906317aa5fb760e11b825233602482015260248152611e036044826119e8565b51915afa611e0f611cfb565b81611e40575b81611e26575b50611a795780611dca565b611e3a915060208082518301019101611b32565b5f611e1b565b905060208151101590611e15565b50565b611e6a915060203d602011610a0f57610a0181836119e8565b5f611db2565b634825e09360e01b5f5260045ffd5b611e98915060203d602011610d5557610d4781836119e8565b5f611d81565b604051631ef3fca760e31b8152600481018290527f00000000000000000000000000000000000000000000000000000000000000006001600160a01b031690602081602481855afa9081156107d1575f91612006575b5015611e70576020602491604051928380926302571be360e01b82528660048301525afa9081156107d1575f91611fe7575b50336001600160a01b03821614611fe357803b611f6e575b505f90815260126020908152604080832033845290915290205460ff16611a795763ea8e4eb560e01b5f5260045ffd5b5f809160405160208101906317aa5fb760e11b825233602482015260248152611f986044826119e8565b51915afa611fa4611cfb565b81611fd5575b81611fbb575b50611e4e575f611f3e565b611fcf915060208082518301019101611b32565b5f611fb0565b905060208151101590611faa565b5050565b612000915060203d602011610a0f57610a0181836119e8565b5f611f26565b61201f915060203d602011610d5557610d4781836119e8565b5f611ef4565b60405163170da40760e21b815260048101919091526020816024817f00000000000000000000000000000000000000000000000000000000000000006001600160a01b03165afa9081156107d1575f91612091575b501561208257565b632263bf1f60e21b5f5260045ffd5b6120aa915060203d602011610d5557610d4781836119e8565b5f61207a565b600d54600160401b8110156106ab576001810180600d558110156120f757600d5f527fd7b6990105719101dabeb77144f2a3385c8033acd3af97e9423a695e81ad1eb50155565b634e487b7160e01b5f52603260045260245ffd5b805490600160401b8210156106ab57600182018082558210156120f7575f5260205f20015556fe47e168731fa0396f2634075f1ef7671d047dd6f5044173cc67468f5795ea9ca834f1cb4778d9578e1af878b07d3ae7e9f2f32fafcaa3096fe48153670a71bfaf5167ea251eeaf052f4c7bd769efb5b17e6ba98908050b9929a0bd192b57274fba26469706673582212209108e42b3981de89eedb132ed8e3d58e86f7ba455dee3dbebe58c82948b8b7cb64736f6c634300081c0033","linkReferences":{}},"methodIdentifiers":{"DT_ADDRESS_ARR_PUB()":"213aaad7","DT_ADDRESS_PUB()":"ece6bebc","DT_BOOL_PUB()":"93cbc37d","DT_BYTES32_ARR_PUB()":"f98eed69","DT_BYTES32_PUB()":"c3174629","DT_STRING_ARR_PUB()":"8e101369","DT_STRING_PUB()":"a954aea1","DT_UINT256_PUB()":"be78c068","ONTOLOGY()":"e63cdb42","REGISTRY()":"06433b1b","addr(bytes32)":"3b3b57de","addrForCoin(bytes32,uint256)":"17c24130","aliasOf(bytes32)":"df119e8a","allSubjects()":"c3a6123d","clearRecords(bytes32)":"3603d758","datatypeOf(bytes32,bytes32)":"42921cf3","getAddress(bytes32,bytes32)":"d3a39686","getAddressArr(bytes32,bytes32)":"e4281bc3","getAddressAttribute(bytes32,bytes32)":"c1828a7e","getBool(bytes32,bytes32)":"98eaf11c","getBoolAttribute(bytes32,bytes32)":"9c701a10","getBytes32(bytes32,bytes32)":"37d9d7fc","getBytes32Arr(bytes32,bytes32)":"4083843e","getBytes32Attribute(bytes32,bytes32)":"ba555bb3","getString(bytes32,bytes32)":"31477b9b","getStringArr(bytes32,bytes32)":"cb954f30","getStringAttribute(bytes32,bytes32)":"d53fff9f","getUint(bytes32,bytes32)":"7a6ad926","getUintAttribute(bytes32,bytes32)":"83efd26f","isOperator(bytes32,address)":"8a8d9e7c","isSet(bytes32,bytes32)":"bb6b0c3b","predicatesOf(bytes32)":"30547181","setAddr(bytes32,address)":"d5fa2b00","setAddrForCoin(bytes32,uint256,address)":"39baaec0","setAddressAttribute(bytes32,bytes32,address)":"9ccb53ff","setAlias(bytes32,bytes32)":"1f06e91c","setBoolAttribute(bytes32,bytes32,bool)":"68f56aef","setBytes32Attribute(bytes32,bytes32,bytes32)":"2a4b1304","setOperator(bytes32,address,bool)":"18904988","setStringAttribute(bytes32,bytes32,string)":"d8fa2f26","setUintAttribute(bytes32,bytes32,uint256)":"31bbd57e","subjectCount()":"639a2e10","subjectVersion(bytes32)":"8e21caca","text(bytes32,string)":"59d1d43c","updatedAt(bytes32,bytes32)":"880eadce","version(bytes32)":"fde40cb6"},"id":78}