{"abi":[{"type":"function","name":"anchorCredDef","inputs":[{"name":"id","type":"string","internalType":"string"},{"name":"recordHash","type":"bytes32","internalType":"bytes32"},{"name":"schemaId","type":"string","internalType":"string"}],"outputs":[],"stateMutability":"nonpayable"},{"type":"function","name":"anchorSchema","inputs":[{"name":"id","type":"string","internalType":"string"},{"name":"recordHash","type":"bytes32","internalType":"bytes32"}],"outputs":[],"stateMutability":"nonpayable"},{"type":"function","name":"getCredDefAnchor","inputs":[{"name":"id","type":"string","internalType":"string"}],"outputs":[{"name":"","type":"tuple","internalType":"struct CredentialRegistry.CredDefAnchor","components":[{"name":"id","type":"string","internalType":"string"},{"name":"recordHash","type":"bytes32","internalType":"bytes32"},{"name":"schemaId","type":"string","internalType":"string"},{"name":"issuer","type":"address","internalType":"address"},{"name":"anchoredAt","type":"uint64","internalType":"uint64"}]}],"stateMutability":"view"},{"type":"function","name":"getIssuer","inputs":[{"name":"did","type":"string","internalType":"string"}],"outputs":[{"name":"","type":"tuple","internalType":"struct CredentialRegistry.Issuer","components":[{"name":"did","type":"string","internalType":"string"},{"name":"account","type":"address","internalType":"address"},{"name":"registeredAt","type":"uint64","internalType":"uint64"}]}],"stateMutability":"view"},{"type":"function","name":"getIssuerByAddress","inputs":[{"name":"account","type":"address","internalType":"address"}],"outputs":[{"name":"","type":"tuple","internalType":"struct CredentialRegistry.Issuer","components":[{"name":"did","type":"string","internalType":"string"},{"name":"account","type":"address","internalType":"address"},{"name":"registeredAt","type":"uint64","internalType":"uint64"}]}],"stateMutability":"view"},{"type":"function","name":"getSchemaAnchor","inputs":[{"name":"id","type":"string","internalType":"string"}],"outputs":[{"name":"","type":"tuple","internalType":"struct CredentialRegistry.SchemaAnchor","components":[{"name":"id","type":"string","internalType":"string"},{"name":"recordHash","type":"bytes32","internalType":"bytes32"},{"name":"issuer","type":"address","internalType":"address"},{"name":"anchoredAt","type":"uint64","internalType":"uint64"}]}],"stateMutability":"view"},{"type":"function","name":"isCredDefAnchored","inputs":[{"name":"id","type":"string","internalType":"string"},{"name":"expectedHash","type":"bytes32","internalType":"bytes32"}],"outputs":[{"name":"","type":"bool","internalType":"bool"}],"stateMutability":"view"},{"type":"function","name":"isSchemaAnchored","inputs":[{"name":"id","type":"string","internalType":"string"},{"name":"expectedHash","type":"bytes32","internalType":"bytes32"}],"outputs":[{"name":"","type":"bool","internalType":"bool"}],"stateMutability":"view"},{"type":"function","name":"registerIssuer","inputs":[{"name":"did","type":"string","internalType":"string"},{"name":"account","type":"address","internalType":"address"}],"outputs":[],"stateMutability":"nonpayable"},{"type":"event","name":"CredDefAnchored","inputs":[{"name":"id","type":"string","indexed":false,"internalType":"string"},{"name":"recordHash","type":"bytes32","indexed":true,"internalType":"bytes32"},{"name":"schemaId","type":"string","indexed":false,"internalType":"string"},{"name":"issuer","type":"address","indexed":true,"internalType":"address"},{"name":"at","type":"uint64","indexed":false,"internalType":"uint64"}],"anonymous":false},{"type":"event","name":"IssuerRegistered","inputs":[{"name":"did","type":"string","indexed":false,"internalType":"string"},{"name":"account","type":"address","indexed":true,"internalType":"address"},{"name":"at","type":"uint64","indexed":false,"internalType":"uint64"}],"anonymous":false},{"type":"event","name":"SchemaAnchored","inputs":[{"name":"id","type":"string","indexed":false,"internalType":"string"},{"name":"recordHash","type":"bytes32","indexed":true,"internalType":"bytes32"},{"name":"issuer","type":"address","indexed":true,"internalType":"address"},{"name":"at","type":"uint64","indexed":false,"internalType":"uint64"}],"anonymous":false},{"type":"error","name":"CredDefAlreadyAnchored","inputs":[]},{"type":"error","name":"IssuerAlreadyRegistered","inputs":[]},{"type":"error","name":"NotIssuerAccount","inputs":[]},{"type":"error","name":"SchemaAlreadyAnchored","inputs":[]},{"type":"error","name":"UnknownIssuer","inputs":[]},{"type":"error","name":"UnknownSchema","inputs":[]}],"bytecode":{"object":"0x6080806040523460155761114d908161001a8239f35b5f80fdfe60806040526004361015610011575f80fd5b5f3560e01c806303e7439e14610bde57806305f6551214610aec5780631ec756a6146107c95780634700673c1461073b5780635f8818d0146106c55780637a0a962a1461062357806380793ab814610583578063c41271cf146101a55763d2206b331461007c575f80fd5b346101a15760203660031901126101a1576004356001600160401b0381116101a15760206100b161016d923690600401610e0e565b91905f60806040516100c281610f40565b60608152828582015260606040820152826060820152015282604051938492833781016003815203019020604051906100fa82610f40565b61010381611058565b82526001600160401b03600182015460208401908152610186600361012a60028601611058565b9460408701958652015491606086019460018060a01b038416865284608088019460a01c168452604051978897602089525160a060208a015260c0890190610e6d565b9151604088015251868203601f19016060880152610e6d565b92516001600160a01b03166080850152511660a08301520390f35b5f80fd5b346101a15760603660031901126101a1576004356001600160401b0381116101a1576101d5903690600401610e0e565b6024356044356001600160401b0381116101a1576101f7903690600401610e0e565b9290335f52600160205261020e60405f2054610ed2565b156105745760405184828237600281860181815282900360200190912001546001600160a01b0316156105655760405182868237600381840181815282900360200190912001546001600160a01b0316610556576001600160401b034216936040519561027a87610f40565b610285368583610f7c565b8752602087019685885261029a368486610f7c565b976040820198895260608201913383526080810191898352604051888682376020818a8101600381520301902091518051906001600160401b0382116104d4576102ee826102e88654610ed2565b86610fc1565b602090601f83116001146104f35761031d92915f91836104e8575b50508160011b915f199060031b1c19161790565b82555b5160018201556002810199518051906001600160401b0382116104d457610352828d61034c8154610ed2565b90610fc1565b602090601f8311600114610435579360036103fc947f1c8671faef53805d7c9e31b13ab8cdd5e7162125422d7b562ab17096a2174d2d9c9d9e6103be8661040e9a976001600160401b039761041c9f9e9d9b5f9261042a5750508160011b915f199060031b1c19161790565b90555b93519301805491516001600160e01b03199092166001600160a01b039490941693909317911660a01b67ffffffffffffffff60a01b16179055565b60405195606087526060870191611010565b918483036020860152611010565b9360408201528033940390a3005b015190505f80610309565b90601f198316918d5f52815f20925f5b8181106104bc5750947f1c8671faef53805d7c9e31b13ab8cdd5e7162125422d7b562ab17096a2174d2d9c9d9e6001866001600160401b039661041c9e9d9c9a9660039661040e9d9a6103fc9c106104a5575b505050811b0190556103c1565b01515f1983881b60f8161c191690555f8080610498565b92936020600181928786015181550195019301610445565b634e487b7160e01b5f52604160045260245ffd5b015190508e80610309565b90601f19831691855f52815f20925f5b81811061053e5750908460019594939210610526575b505050811b018255610320565b01515f1960f88460031b161c191690558d8080610519565b92936020600181928786015181550195019301610503565b6336cd7e1360e01b5f5260045ffd5b6373d4fd9360e11b5f5260045ffd5b6319326b6560e11b5f5260045ffd5b346101a15760203660031901126101a1576004356001600160401b0381116101a15760206105b861061f923690600401610e0e565b91906105c26110f8565b5082604051938492833781015f8152030190206001600160401b036001604051926105ec84610f25565b6105f581611058565b845201546001600160a01b038116602084015260a01c166040808301919091525191829182610e91565b0390f35b346101a15760208061063436610e3b565b929091826040519384928337810160038152030190209060405161065781610f40565b61066083611058565b8152600360018401549385830194855261067c60028201611058565b604084015201549060806001600160401b0360018060a01b0384169384606085015260a01c16910152151591826106ba575b50506040519015158152f35b5114905082806106ae565b346101a15760203660031901126101a1576004356001600160a01b038116908190036101a1576106f36110f8565b505f52600160205261061f60208061070d60405f20611058565b604051928184925191829101835e81015f8152030190206001600160401b036001604051926105ec84610f25565b346101a15760208061074c36610e3b565b929091826040519384928337810160028152030190209060405161076f81610f0a565b61077883611058565b81526002600184015493848684015201549060606001600160401b0360018060a01b0384169384604085015260a01c16910152151591826107bf5750506040519015158152f35b14905082806106ae565b346101a15760403660031901126101a1576004356001600160401b0381116101a1576107f9903690600401610e0e565b6024356001600160a01b03811691908290036101a157813303610add57604051818482375f8183019081528190036020019020600101546001600160a01b0316610ace576001600160401b0342169260405161085481610f25565b61085f368484610f7c565b815260208101908482526040810190868252604051858582376020818781015f81520301902090518051906001600160401b0382116104d4576108ac826108a68554610ed2565b85610fc1565b602090601f8311600114610a5c57926108eb836109289796946001946001600160401b03975f92610a515750508160011b915f199060031b1c19161790565b815593519301805491516001600160e01b03199092166001600160a01b039490941693909317911660a01b67ffffffffffffffff60a01b16179055565b825f52600160205260405f206001600160401b0383116104d457610956836109508354610ed2565b83610fc1565b5f601f84116001146109c857946109b8916109a985807fe1e0abca42eaea0210ba763d38c47999f77adfa276da555afd06dd62752e11ac98995f916109bd575b508160011b915f199060031b1c19161790565b90555b60405193849384611030565b0390a2005b90508601358a610996565b601f19841690825f5260205f20915f5b818110610a395750916109b89391867fe1e0abca42eaea0210ba763d38c47999f77adfa276da555afd06dd62752e11ac98999410610a20575b5050600185811b0190556109ac565b8501355f19600388901b60f8161c191690558780610a11565b919260206001819286890135815501940192016109d8565b015190508d80610309565b90601f19831691845f52815f20925f5b818110610ab65750936001936001600160401b0396938593836109289b9a9810610a9e575b505050811b0181556103c1565b01515f1960f88460031b161c191690558c8080610a91565b92936020600181928786015181550195019301610a6c565b633c2dd12960e01b5f5260045ffd5b63165d819560e11b5f5260045ffd5b346101a15760203660031901126101a1576004356001600160401b0381116101a1576020610b21610bbd923690600401610e0e565b91905f6060604051610b3281610f0a565b818152828582015282604082015201528260405193849283378101600281520301902060405190610b6282610f0a565b610b6b81611058565b82526001600160401b0360026001830154926020850193845201546040840160018060a01b038216815282606086019260a01c16825260405195869560208752516080602088015260a0870190610e6d565b93516040860152516001600160a01b03166060850152511660808301520390f35b346101a157610bec36610e3b565b919091335f526001602052610c0460405f2054610ed2565b156105745760405183838237600281850181815282900360200190912001546001600160a01b0316610dff576001600160401b03421660405193610c4785610f0a565b610c52368286610f7c565b855260208501948386526040810190338252606081019084825260405184888237602081868101600281520301902090519788516001600160401b0381116104d457610ca2816108a68554610ed2565b6020601f8211600114610d695792610d48959492610d04836002946001600160401b03977fef2a17fc420e3908a98d7f131c6343f0819af03ef3290885ee36a7fdc8d315359d9e9f5f92610d5e5750508160011b915f199060031b1c19161790565b82555b51600182015593519301805491516001600160e01b03199092166001600160a01b039490941693909317911660a01b67ffffffffffffffff60a01b16179055565b610d59604051928392339784611030565b0390a3005b015190508f80610309565b601f1982169a845f52815f209b5f5b818110610de75750837fef2a17fc420e3908a98d7f131c6343f0819af03ef3290885ee36a7fdc8d315359b9c9d6001600160401b039794610d489a99979460029760019510610dcf575b505050811b018255610d07565b01515f1960f88460031b161c191690558e8080610dc2565b838301518e556001909d019c60209384019301610d78565b63b2fe321560e01b5f5260045ffd5b9181601f840112156101a1578235916001600160401b0383116101a157602083818601950101116101a157565b60406003198201126101a157600435906001600160401b0382116101a157610e6591600401610e0e565b909160243590565b805180835260209291819084018484015e5f828201840152601f01601f1916010190565b6020815260606001600160401b036040610eb685518460208701526080860190610e6d565b60208601516001600160a01b0316858301529401511691015290565b90600182811c92168015610f00575b6020831014610eec57565b634e487b7160e01b5f52602260045260245ffd5b91607f1691610ee1565b608081019081106001600160401b038211176104d457604052565b606081019081106001600160401b038211176104d457604052565b60a081019081106001600160401b038211176104d457604052565b90601f801991011681019081106001600160401b038211176104d457604052565b9291926001600160401b0382116104d45760405191610fa5601f8201601f191660200184610f5b565b8294818452818301116101a1578281602093845f960137010152565b601f8211610fce57505050565b5f5260205f20906020601f840160051c83019310611006575b601f0160051c01905b818110610ffb575050565b5f8155600101610ff0565b9091508190610fe7565b908060209392818452848401375f828201840152601f01601f1916010190565b916110516020926001600160401b0392969596604086526040860191611010565b9416910152565b9060405191825f82549261106b84610ed2565b80845293600181169081156110d65750600114611092575b5061109092500383610f5b565b565b90505f9291925260205f20905f915b8183106110ba575050906020611090928201015f611083565b60209193508060019154838589010152019101909184926110a1565b90506020925061109094915060ff191682840152151560051b8201015f611083565b6040519061110582610f25565b5f60408360608152826020820152015256fea2646970667358221220f18bb1827727704ca1288b0bc30460cedd27bfd9ba539ba25725265e190d84db64736f6c634300081c0033","linkReferences":{}},"methodIdentifiers":{"anchorCredDef(string,bytes32,string)":"c41271cf","anchorSchema(string,bytes32)":"03e7439e","getCredDefAnchor(string)":"d2206b33","getIssuer(string)":"80793ab8","getIssuerByAddress(address)":"5f8818d0","getSchemaAnchor(string)":"05f65512","isCredDefAnchored(string,bytes32)":"7a0a962a","isSchemaAnchored(string,bytes32)":"4700673c","registerIssuer(string,address)":"1ec756a6"},"id":0}