{"abi":[{"type":"function","name":"credDefIssuerOf","inputs":[{"name":"id","type":"string","internalType":"string"}],"outputs":[{"name":"","type":"address","internalType":"address"}],"stateMutability":"view"},{"type":"function","name":"credDefJsonHash","inputs":[{"name":"id","type":"string","internalType":"string"}],"outputs":[{"name":"","type":"bytes32","internalType":"bytes32"}],"stateMutability":"view"},{"type":"function","name":"getIssuer","inputs":[{"name":"did","type":"string","internalType":"string"}],"outputs":[{"name":"","type":"tuple","internalType":"struct CredentialRegistry.Issuer","components":[{"name":"did","type":"string","internalType":"string"},{"name":"account","type":"address","internalType":"address"},{"name":"registeredAt","type":"uint64","internalType":"uint64"}]}],"stateMutability":"view"},{"type":"function","name":"getIssuerByAddress","inputs":[{"name":"account","type":"address","internalType":"address"}],"outputs":[{"name":"","type":"tuple","internalType":"struct CredentialRegistry.Issuer","components":[{"name":"did","type":"string","internalType":"string"},{"name":"account","type":"address","internalType":"address"},{"name":"registeredAt","type":"uint64","internalType":"uint64"}]}],"stateMutability":"view"},{"type":"function","name":"isCredDefPublished","inputs":[{"name":"id","type":"string","internalType":"string"}],"outputs":[{"name":"","type":"bool","internalType":"bool"}],"stateMutability":"view"},{"type":"function","name":"isSchemaPublished","inputs":[{"name":"id","type":"string","internalType":"string"}],"outputs":[{"name":"","type":"bool","internalType":"bool"}],"stateMutability":"view"},{"type":"function","name":"publishCredDef","inputs":[{"name":"id","type":"string","internalType":"string"},{"name":"schemaId","type":"string","internalType":"string"},{"name":"canonicalJson","type":"bytes","internalType":"bytes"}],"outputs":[],"stateMutability":"nonpayable"},{"type":"function","name":"publishSchema","inputs":[{"name":"id","type":"string","internalType":"string"},{"name":"canonicalJson","type":"bytes","internalType":"bytes"}],"outputs":[],"stateMutability":"nonpayable"},{"type":"function","name":"registerIssuer","inputs":[{"name":"did","type":"string","internalType":"string"},{"name":"account","type":"address","internalType":"address"}],"outputs":[],"stateMutability":"nonpayable"},{"type":"function","name":"schemaIssuerOf","inputs":[{"name":"id","type":"string","internalType":"string"}],"outputs":[{"name":"","type":"address","internalType":"address"}],"stateMutability":"view"},{"type":"function","name":"schemaJsonHash","inputs":[{"name":"id","type":"string","internalType":"string"}],"outputs":[{"name":"","type":"bytes32","internalType":"bytes32"}],"stateMutability":"view"},{"type":"event","name":"CredDefPublished","inputs":[{"name":"credDefIdKey","type":"bytes32","indexed":true,"internalType":"bytes32"},{"name":"jsonHash","type":"bytes32","indexed":true,"internalType":"bytes32"},{"name":"issuer","type":"address","indexed":true,"internalType":"address"},{"name":"id","type":"string","indexed":false,"internalType":"string"},{"name":"schemaId","type":"string","indexed":false,"internalType":"string"},{"name":"canonicalJson","type":"bytes","indexed":false,"internalType":"bytes"},{"name":"at","type":"uint64","indexed":false,"internalType":"uint64"}],"anonymous":false},{"type":"event","name":"IssuerRegistered","inputs":[{"name":"did","type":"string","indexed":false,"internalType":"string"},{"name":"account","type":"address","indexed":true,"internalType":"address"},{"name":"at","type":"uint64","indexed":false,"internalType":"uint64"}],"anonymous":false},{"type":"event","name":"RevStatusUpdated","inputs":[{"name":"credDefIdKey","type":"bytes32","indexed":true,"internalType":"bytes32"},{"name":"sequence","type":"uint64","indexed":true,"internalType":"uint64"},{"name":"deltaHash","type":"bytes32","indexed":true,"internalType":"bytes32"},{"name":"issuer","type":"address","indexed":false,"internalType":"address"},{"name":"delta","type":"bytes","indexed":false,"internalType":"bytes"},{"name":"at","type":"uint64","indexed":false,"internalType":"uint64"}],"anonymous":false},{"type":"event","name":"SchemaPublished","inputs":[{"name":"schemaIdKey","type":"bytes32","indexed":true,"internalType":"bytes32"},{"name":"jsonHash","type":"bytes32","indexed":true,"internalType":"bytes32"},{"name":"issuer","type":"address","indexed":true,"internalType":"address"},{"name":"id","type":"string","indexed":false,"internalType":"string"},{"name":"canonicalJson","type":"bytes","indexed":false,"internalType":"bytes"},{"name":"at","type":"uint64","indexed":false,"internalType":"uint64"}],"anonymous":false},{"type":"error","name":"CredDefAlreadyPublished","inputs":[]},{"type":"error","name":"EmptyId","inputs":[]},{"type":"error","name":"EmptyJson","inputs":[]},{"type":"error","name":"IssuerAlreadyRegistered","inputs":[]},{"type":"error","name":"NotIssuerAccount","inputs":[]},{"type":"error","name":"SchemaAlreadyPublished","inputs":[]},{"type":"error","name":"UnknownIssuer","inputs":[]},{"type":"error","name":"UnknownSchema","inputs":[]}],"bytecode":{"object":"0x60808060405234601557610cc6908161001a8239f35b5f80fdfe6080806040526004361015610012575f80fd5b5f3560e01c9081631ec756a614610700575080634f363314146106a857806354d8d6ef146106585780635f8818d0146105e2578063720554541461059257806380793ab8146104f2578063811a706f1461049857806384265dc61461044057806391d277be146103df57806398855e651461028e5763f2fa42e314610095575f80fd5b3461028a57606036600319011261028a576004356001600160401b03811161028a576100c5903690600401610a26565b906024356001600160401b03811161028a576100e5903690600401610a26565b91906044356001600160401b03811161028a57610106903690600401610a26565b9390335f52600160205261011d60405f2054610b2a565b1561027b57851561026c57841561025d57610139368385610ae5565b6020815191012094855f52600360205260018060a01b0360405f2054161561024e57610166368887610ae5565b6020815191012094855f52600560205260018060a01b0360405f20541661023f577f92e4e6e4393269a9183542cffeff00008ddc952dfd665e1443cac958d675e713946102279461020b610219936101bf368789610ae5565b80516020918201205f8c81526004835260408082208390556005845280822080546001600160a01b0319163317905560069093528290209c909c55516080808252909c908d0191610bb1565b918a830360208c0152610bb1565b918783036040890152610bb1565b936001600160401b03421660608201528033950390a4005b63e3d7fca960e01b5f5260045ffd5b6373d4fd9360e11b5f5260045ffd5b635d33952360e11b5f5260045ffd5b6348bf27b560e11b5f5260045ffd5b6319326b6560e11b5f5260045ffd5b5f80fd5b3461028a57604036600319011261028a576004356001600160401b03811161028a576102be903690600401610a26565b906024356001600160401b03811161028a576102de903690600401610a26565b90335f5260016020526102f460405f2054610b2a565b1561027b57831561026c57811561025d57610310368585610ae5565b6020815191012091825f52600360205260018060a01b0360405f2054166103d0577f6e95aeba764a88392c8a9c7235bfc0b9c3fe962289a5aa73ce4ef7d9250908cd916103b8916103aa610365368385610ae5565b80516020918201205f888152600283526040808220839055600390935282902080546001600160a01b031916331790559051606080825290999198908a019190610bb1565b918783036020890152610bb1565b936001600160401b03421660408201528033950390a4005b63fe046a5560e01b5f5260045ffd5b3461028a57602036600319011261028a576004356001600160401b03811161028a57610412610419913690600401610a26565b3691610ae5565b602081519101205f526003602052602060018060a01b0360405f2054161515604051908152f35b3461028a57602036600319011261028a576004356001600160401b03811161028a57610412610473913690600401610a26565b602081519101205f526005602052602060018060a01b0360405f205416604051908152f35b3461028a57602036600319011261028a576004356001600160401b03811161028a576104126104cb913690600401610a26565b602081519101205f526005602052602060018060a01b0360405f2054161515604051908152f35b3461028a57602036600319011261028a576004356001600160401b03811161028a57602061052761058e923690600401610a26565b9190610531610bd1565b5082604051938492833781015f8152030190206001600160401b0360016040519261055b84610aa9565b61056481610bf0565b845201546001600160a01b038116602084015260a01c166040808301919091525191829182610a53565b0390f35b3461028a57602036600319011261028a576004356001600160401b03811161028a576104126105c5913690600401610a26565b602081519101205f526004602052602060405f2054604051908152f35b3461028a57602036600319011261028a576004356001600160a01b0381169081900361028a57610610610bd1565b505f52600160205261058e60208061062a60405f20610bf0565b604051928184925191829101835e81015f8152030190206001600160401b0360016040519261055b84610aa9565b3461028a57602036600319011261028a576004356001600160401b03811161028a5761041261068b913690600401610a26565b602081519101205f526002602052602060405f2054604051908152f35b3461028a57602036600319011261028a576004356001600160401b03811161028a576104126106db913690600401610a26565b602081519101205f526003602052602060018060a01b0360405f205416604051908152f35b3461028a57604036600319011261028a576004356001600160401b03811161028a57610730903690600401610a26565b916024356001600160a01b03811692919083900361028a57823303610a1757838282375f8185019081528190036020019020600101546001600160a01b0316610a08576001600160401b0342169260405161078a81610aa9565b610795368385610ae5565b815260208101908482526040810190868252604051848682376020818681015f81520301902090518051906001600160401b038211610983576107e2826107dc8554610b2a565b85610b62565b602090601f83116001146109a257918061081592600195945f92610997575b50508160011b915f199060031b1c19161790565b81555b92519201805491516001600160e01b03199092166001600160a01b03939093169290921760a09190911b67ffffffffffffffff60a01b161790555f838152600160205260409020936001600160401b038211610983576108828261087c8754610b2a565b87610b62565b5f94601f8311600114610901576108d183807fe1e0abca42eaea0210ba763d38c47999f77adfa276da555afd06dd62752e11ac97985f916108f6575b508160011b915f199060031b1c19161790565b90555b6108eb604051938493604085526040850191610bb1565b9060208301520390a2005b9050860135896108be565b601f19831695815f5260205f20905f5b88811061096b5750847fe1e0abca42eaea0210ba763d38c47999f77adfa276da555afd06dd62752e11ac979810610952575b5050600183811b0190556108d4565b8501355f19600386901b60f8161c191690558680610943565b9091602060018192858a013581550193019101610911565b634e487b7160e01b5f52604160045260245ffd5b015190508b80610801565b90601f19831691845f52815f20925f5b8181106109f057509160019594929183879593106109d8575b505050811b018155610818565b01515f1960f88460031b161c191690558a80806109cb565b929360206001819287860151815501950193016109b2565b633c2dd12960e01b5f5260045ffd5b63165d819560e11b5f5260045ffd5b9181601f8401121561028a578235916001600160401b03831161028a576020838186019501011161028a57565b60206001600160401b03604060a09483855280516060858701528051948591826080890152018787015e5f85850187015260208101515f196001881b0116828601520151166060830152601f01601f1916010190565b606081019081106001600160401b0382111761098357604052565b90601f801991011681019081106001600160401b0382111761098357604052565b9291926001600160401b0382116109835760405191610b0e601f8201601f191660200184610ac4565b82948184528183011161028a578281602093845f960137010152565b90600182811c92168015610b58575b6020831014610b4457565b634e487b7160e01b5f52602260045260245ffd5b91607f1691610b39565b601f8211610b6f57505050565b5f5260205f20906020601f840160051c83019310610ba7575b601f0160051c01905b818110610b9c575050565b5f8155600101610b91565b9091508190610b88565b908060209392818452848401375f828201840152601f01601f1916010190565b60405190610bde82610aa9565b5f604083606081528260208201520152565b9060405191825f825492610c0384610b2a565b8084529360018116908115610c6e5750600114610c2a575b50610c2892500383610ac4565b565b90505f9291925260205f20905f915b818310610c52575050906020610c28928201015f610c1b565b6020919350806001915483858901015201910190918492610c39565b905060209250610c2894915060ff191682840152151560051b8201015f610c1b56fea26469706673582212202743b79a11e607fec47693489874b7db897a3aab8960fb0b53f975c7fc30281264736f6c634300081c0033","linkReferences":{}},"methodIdentifiers":{"credDefIssuerOf(string)":"84265dc6","credDefJsonHash(string)":"72055454","getIssuer(string)":"80793ab8","getIssuerByAddress(address)":"5f8818d0","isCredDefPublished(string)":"811a706f","isSchemaPublished(string)":"91d277be","publishCredDef(string,string,bytes)":"f2fa42e3","publishSchema(string,bytes)":"98855e65","registerIssuer(string,address)":"1ec756a6","schemaIssuerOf(string)":"4f363314","schemaJsonHash(string)":"54d8d6ef"},"id":84}