{"abi":[{"type":"constructor","inputs":[{"name":"governor_","type":"address","internalType":"address"}],"stateMutability":"nonpayable"},{"type":"function","name":"activateShape","inputs":[{"name":"classId","type":"bytes32","internalType":"bytes32"}],"outputs":[],"stateMutability":"nonpayable"},{"type":"function","name":"deactivateShape","inputs":[{"name":"classId","type":"bytes32","internalType":"bytes32"}],"outputs":[],"stateMutability":"nonpayable"},{"type":"function","name":"defineEnumSet","inputs":[{"name":"enumSetId","type":"bytes32","internalType":"bytes32"},{"name":"allowedValues","type":"bytes32[]","internalType":"bytes32[]"}],"outputs":[],"stateMutability":"nonpayable"},{"type":"function","name":"defineShape","inputs":[{"name":"classId","type":"bytes32","internalType":"bytes32"},{"name":"props","type":"tuple[]","internalType":"struct ShapeRegistry.PropertyConstraint[]","components":[{"name":"predicate","type":"bytes32","internalType":"bytes32"},{"name":"expectedDatatype","type":"uint8","internalType":"uint8"},{"name":"cardinality","type":"uint8","internalType":"enum ShapeRegistry.Cardinality"},{"name":"enumSetId","type":"bytes32","internalType":"bytes32"},{"name":"expectedClass","type":"bytes32","internalType":"bytes32"}]},{"name":"shapeURI","type":"string","internalType":"string"},{"name":"shapeHash","type":"bytes32","internalType":"bytes32"}],"outputs":[{"name":"","type":"uint16","internalType":"uint16"}],"stateMutability":"nonpayable"},{"type":"function","name":"getClassIdAt","inputs":[{"name":"index","type":"uint256","internalType":"uint256"}],"outputs":[{"name":"","type":"bytes32","internalType":"bytes32"}],"stateMutability":"view"},{"type":"function","name":"getEnumValues","inputs":[{"name":"enumSetId","type":"bytes32","internalType":"bytes32"}],"outputs":[{"name":"","type":"bytes32[]","internalType":"bytes32[]"}],"stateMutability":"view"},{"type":"function","name":"getProperties","inputs":[{"name":"classId","type":"bytes32","internalType":"bytes32"}],"outputs":[{"name":"","type":"tuple[]","internalType":"struct ShapeRegistry.PropertyConstraint[]","components":[{"name":"predicate","type":"bytes32","internalType":"bytes32"},{"name":"expectedDatatype","type":"uint8","internalType":"uint8"},{"name":"cardinality","type":"uint8","internalType":"enum ShapeRegistry.Cardinality"},{"name":"enumSetId","type":"bytes32","internalType":"bytes32"},{"name":"expectedClass","type":"bytes32","internalType":"bytes32"}]}],"stateMutability":"view"},{"type":"function","name":"getShape","inputs":[{"name":"classId","type":"bytes32","internalType":"bytes32"}],"outputs":[{"name":"","type":"tuple","internalType":"struct ShapeRegistry.Shape","components":[{"name":"classId","type":"bytes32","internalType":"bytes32"},{"name":"shapeURI","type":"string","internalType":"string"},{"name":"shapeHash","type":"bytes32","internalType":"bytes32"},{"name":"version","type":"uint16","internalType":"uint16"},{"name":"active","type":"bool","internalType":"bool"},{"name":"exists","type":"bool","internalType":"bool"}]}],"stateMutability":"view"},{"type":"function","name":"governor","inputs":[],"outputs":[{"name":"","type":"address","internalType":"address"}],"stateMutability":"view"},{"type":"function","name":"isInEnumSet","inputs":[{"name":"enumSetId","type":"bytes32","internalType":"bytes32"},{"name":"value","type":"bytes32","internalType":"bytes32"}],"outputs":[{"name":"","type":"bool","internalType":"bool"}],"stateMutability":"view"},{"type":"function","name":"isValid","inputs":[{"name":"classId","type":"bytes32","internalType":"bytes32"},{"name":"subject","type":"bytes32","internalType":"bytes32"},{"name":"store","type":"address","internalType":"address"}],"outputs":[{"name":"","type":"bool","internalType":"bool"}],"stateMutability":"view"},{"type":"function","name":"shapeCount","inputs":[],"outputs":[{"name":"","type":"uint256","internalType":"uint256"}],"stateMutability":"view"},{"type":"function","name":"transferGovernor","inputs":[{"name":"newGovernor","type":"address","internalType":"address"}],"outputs":[],"stateMutability":"nonpayable"},{"type":"function","name":"updateShape","inputs":[{"name":"classId","type":"bytes32","internalType":"bytes32"},{"name":"props","type":"tuple[]","internalType":"struct ShapeRegistry.PropertyConstraint[]","components":[{"name":"predicate","type":"bytes32","internalType":"bytes32"},{"name":"expectedDatatype","type":"uint8","internalType":"uint8"},{"name":"cardinality","type":"uint8","internalType":"enum ShapeRegistry.Cardinality"},{"name":"enumSetId","type":"bytes32","internalType":"bytes32"},{"name":"expectedClass","type":"bytes32","internalType":"bytes32"}]},{"name":"shapeURI","type":"string","internalType":"string"},{"name":"shapeHash","type":"bytes32","internalType":"bytes32"}],"outputs":[{"name":"","type":"uint16","internalType":"uint16"}],"stateMutability":"nonpayable"},{"type":"function","name":"validateSubject","inputs":[{"name":"classId","type":"bytes32","internalType":"bytes32"},{"name":"subject","type":"bytes32","internalType":"bytes32"},{"name":"store","type":"address","internalType":"address"}],"outputs":[],"stateMutability":"view"},{"type":"event","name":"EnumSetDefined","inputs":[{"name":"enumSetId","type":"bytes32","indexed":true,"internalType":"bytes32"},{"name":"valueCount","type":"uint256","indexed":false,"internalType":"uint256"}],"anonymous":false},{"type":"event","name":"GovernorTransferred","inputs":[{"name":"previousGovernor","type":"address","indexed":true,"internalType":"address"},{"name":"newGovernor","type":"address","indexed":true,"internalType":"address"}],"anonymous":false},{"type":"event","name":"ShapeActivated","inputs":[{"name":"classId","type":"bytes32","indexed":true,"internalType":"bytes32"}],"anonymous":false},{"type":"event","name":"ShapeDeactivated","inputs":[{"name":"classId","type":"bytes32","indexed":true,"internalType":"bytes32"}],"anonymous":false},{"type":"event","name":"ShapeDefined","inputs":[{"name":"classId","type":"bytes32","indexed":true,"internalType":"bytes32"},{"name":"version","type":"uint16","indexed":false,"internalType":"uint16"},{"name":"shapeURI","type":"string","indexed":false,"internalType":"string"},{"name":"shapeHash","type":"bytes32","indexed":false,"internalType":"bytes32"}],"anonymous":false},{"type":"event","name":"ShapeUpdated","inputs":[{"name":"classId","type":"bytes32","indexed":true,"internalType":"bytes32"},{"name":"version","type":"uint16","indexed":false,"internalType":"uint16"},{"name":"shapeHash","type":"bytes32","indexed":false,"internalType":"bytes32"}],"anonymous":false},{"type":"error","name":"EnumSetEmpty","inputs":[]},{"type":"error","name":"EnumValueNotAllowed","inputs":[{"name":"predicate","type":"bytes32","internalType":"bytes32"},{"name":"actualValue","type":"bytes32","internalType":"bytes32"}]},{"type":"error","name":"MissingRequiredProperty","inputs":[{"name":"predicate","type":"bytes32","internalType":"bytes32"}]},{"type":"error","name":"NotGovernor","inputs":[]},{"type":"error","name":"ShapeAlreadyDefined","inputs":[]},{"type":"error","name":"ShapeNotActive","inputs":[]},{"type":"error","name":"ShapeNotDefined","inputs":[]},{"type":"error","name":"WrongDatatype","inputs":[{"name":"predicate","type":"bytes32","internalType":"bytes32"},{"name":"actual","type":"uint8","internalType":"uint8"},{"name":"expected","type":"uint8","internalType":"uint8"}]}],"bytecode":{"object":"0x608034606f57601f61151438819003918201601f19168301916001600160401b03831184841017607357808492602094604052833981010312606f57516001600160a01b03811690819003606f575f80546001600160a01b03191691909117905560405161148c90816100888239f35b5f80fd5b634e487b7160e01b5f52604160045260245ffdfe60806040526004361015610011575f80fd5b5f3560e01c806306e35e991461114357806308e8b8331461112657806309abe27f14610d325780630c340a2414610d0b578063310ec9fd14610b5f5780633742dd9a14610ab9578063632a665514610a55578063747f293b146109df5780637f5a590d14610894578063996f8bfc14610823578063b8cc9ce6146107b4578063ca8b31fc14610779578063dad5846a146105d6578063e3567b1d146103105763fcdc2230146100be575f80fd5b3461030c576100cc36611190565b93909160018060a09795971b035f541633036102fd57835f52600160205260405f20926003840193845460ff8160181c16156102ee5761ffff600191160161ffff81116102505761ffff1661ffff19865416178555600181016001600160401b0383116102da578261014989946101438454611308565b84611340565b5f601f821160011461026f57908061017a92600296975f92610264575b50508160011b915f199060031b1c19161790565b90555b0155825f52600260205260405f208054905f81558161020c575b50505f5b8581106101e357602085857fcc4f809cddb56642d5c4739edcb06223989df44b35ba2799883de9cfe616eb42604061ffff8854169381519085825286820152a2604051908152f35b600190845f52600260205261020660405f20610200838a8761138f565b906113b8565b0161019b565b6001600160fe1b0382168203610250575f5260205f209060021b8101905b81811015610197576004905f81555f60018201555f60028201555f60038201550161022a565b634e487b7160e01b5f52601160045260245ffd5b013590505f80610166565b94601f19821695835f5260205f20965f5b8181106102bf57509160029697918460019594106102a6575b505050811b01905561017d565b01355f19600384901b60f8161c191690555f8080610299565b8284013589556001909801978c975060209283019201610280565b634e487b7160e01b5f52604160045260245ffd5b6321b4a59760e11b5f5260045ffd5b633b8d9d7560e21b5f5260045ffd5b5f80fd5b3461030c5761031e36611190565b5f549194929390916001600160a01b031633036102fd57855f52600160205260ff600360405f20015460181c166105c7576040519261035c8461122b565b8684526001600160401b0386116102da57601f19601f870116936040516103866020870182611246565b878152368888011161030c57878760208301375f60208983010152602082019081526040820185815260608301926001845260808101916001835260a0820193600185528c5f52600160205260405f20925183556001830190518051906001600160401b0382116102da57610405826103ff8554611308565b85611340565b602090601f831160011461055b579261043d8361ffff97948897946003975f926105505750508160011b915f199060031b1c19161790565b90555b516002820155019451161661ffff1984541617835551151562ff000083549160101b169062ff0000191617825551151563ff00000082549160181b169063ff0000001916179055600554600160401b8110156102da576104c26104ac8260018b940160055560056112cc565b819391549060031b91821b915f19901b19161790565b90555f5b82811061052d57877f2fe1acd11e3042cf6e231254b62ad3c0efd857032a48519da7c200d8eb47255b8860808989895f84866040519788966001885260606020890152816060890152838801378501015260408301528101030190a2602060405160018152f35b600190885f52600260205261054a60405f2061020083878761138f565b016104c6565b015190505f80610166565b90601f19831691845f52815f20925f5b8181106105af57509361ffff97949360039693600193838b9a9710610598575b505050811b019055610440565b01515f1983891b60f8161c191690555f808061058b565b9293602060018192878601518155019501930161056b565b633aad7d1960e21b5f5260045ffd5b3461030c57602036600319011261030c575f60a06040516105f68161122b565b8281526060602082015282604082015282606082015282608082015201526004355f52600160205260405f2060405161062e8161122b565b81548152600182019160405180935f9080549061064a82611308565b80855291600181169081156107535750600114610711575b836101008760208861067685890386611246565b81830194855260036002820154916040850192835201549061ffff606085018184168152608086019260ff8560101c161515845260ff60a088019560181c161515855260405198899787895251878901525160c0604089015280519687918260e08b0152018989015e5f8787018901525160608701525116608085015251151560a084015251151560c0830152601f01601f19168101030190f35b5f908152602081209092505b818310610737575050810160209081019061067690610662565b6020919350806001915483858a0101520191019091859261071d565b60ff191660208681019190915292151560051b8501830193506106769291506106629050565b3461030c57604036600319011261030c576004355f52600460205260405f206024355f52602052602060ff60405f2054166040519015158152f35b3461030c57602036600319011261030c576004356001600160a01b0381169081900361030c575f546001600160a01b038116338190036102fd5782907f6fadb1c244276388aee22be93b919985a18748c021e5d48553957a48101a25605f80a36001600160a01b031916175f55005b3461030c57602036600319011261030c575f54600435906001600160a01b031633036102fd57805f526001602052600360405f2001805460ff8160181c16156102ee5762ff0000191690557ff02c3bde2da3d55fae5e122ae231e0fff2ec546c613e108bd12b29e2c290d54c5f80a2005b3461030c57602036600319011261030c576004355f52600260205260405f2080546108be816112f1565b906108cc6040519283611246565b808252602082019081935f5260205f20915f905b82821061097357604080516020808252875190820181905288928201905f5b81811061090c5783830384f35b909184518051825260ff6020820151166020830152604081015190600482101561095f5782608060a0926020946040600197015260608101516060840152015160808201520195019101939190936108ff565b634e487b7160e01b5f52602160045260245ffd5b60405160a081018181106001600160401b038211176102da576040528454815260ff6001860154818116602084015260081c16600481101561095f57600192826020926040600495015260028801546060820152600388015460808201528152019401910190926108e0565b3461030c57602036600319011261030c575f54600435906001600160a01b031633036102fd57805f526001602052600360405f2001805460ff8160181c16156102ee5762ff00001916620100001790557ff289cc73a5144c67c46d36c0559481b3e6dc27168c7041788fbe0d1754dbf7105f80a2005b3461030c57602036600319011261030c57600435600554811015610aa55760055f527f036b6384b5eca791c62761152d0c79bb0604c104a5fb6f4eb0703f3154bb3db00154604051908152602090f35b634e487b7160e01b5f52603260045260245ffd5b3461030c57602036600319011261030c576004355f52600360205260405f20604051806020835491828152019081935f5260205f20905f5b818110610b495750505081610b07910382611246565b604051918291602083019060208452518091526040830191905f5b818110610b30575050500390f35b8251845285945060209384019390920191600101610b22565b8254845260209093019260019283019201610af1565b3461030c57604036600319011261030c576004356024356001600160401b03811161030c573660238201121561030c5780600401356001600160401b03811161030c576024820191602436918360051b01011161030c575f546001600160a01b031633036102fd578015610cfc57825f52600360205260405f20905f5b8254811015610c1c57600190855f52600460205260405f20610bfe82866112cc565b90549060031b1c5f5260205260405f2060ff19815416905501610bdc565b848285825f52600360205260405f208054905f815581610cde575b50505f5b828110610c7057837fdfd4437a766eac392ffeecba61c96bbf022296d3b1ef040c34ff2200bf21e5f8602085604051908152a2005b835f52600360205260405f2090610c888185856112e1565b358254600160401b8110156102da576104ac8160019586610cab940181556112cc565b9055845f52600460205260405f20610cc48286866112e1565b355f5260205260405f208260ff1982541617905501610c3b565b5f5260205f20908101905b81811015610c37575f8155600101610ce9565b6393b5293760e01b5f5260045ffd5b3461030c575f36600319011261030c575f546040516001600160a01b039091168152602090f35b3461030c57610d4036611166565b60018060a01b031691805f526001602052600360405f20015460ff8160181c16156102ee5760101c60ff1615611117575f52600260205260405f20905f918054925b838110610d8b57005b610d95818361139f565b508054906040519063bb6b0c3b60e01b82528560048301528260248301526020826044818b5afa918215610efe575f926110db575b5060018101549160ff8360081c1690600482101561095f57600182149182156110d0575b50156110ae5750604051916342921cf360e01b83528660048401528360248401526020836044818c5afa928315610efe575f93611070575b5060ff80911692168281036110555750600201549081610e4e575b5050506001905b01610d82565b60058103610f0957509060405191630df675ff60e21b83528560048401528160248401526020836044818b5afa928315610efe575f93610ecb575b505f52600460205260405f20825f5260205260ff60405f20541615610eb65750506001905b908680610e41565b633833aaa960e01b5f5260045260245260445ffd5b9092506020813d8211610ef6575b81610ee660209383611246565b8101031261030c57519188610e89565b3d9150610ed9565b6040513d5f823e3d90fd5b600814610f1b575b5050600190610eae565b92919460409691965194632041c21f60e11b86528060048701528760248701525f86604481865afa958615610efe575f96610fc3575b505f5b8651811015610fb057855f52600460205260405f20610f738289611442565b515f5260205260ff60405f20541615610f8e57600101610f54565b610f99899188611442565b5190633833aaa960e01b5f5260045260245260445ffd5b5094509490955060019192509086610f11565b9095503d805f833e610fd58183611246565b81019060208183031261030c578051906001600160401b03821161030c57019080601f8301121561030c57815161100b816112f1565b926110196040519485611246565b81845260208085019260051b82010192831161030c57602001905b828210611045575050509488610f51565b8151815260209182019101611034565b9050826301b47e2760e41b5f5260045260245260445260645ffd5b9092506020813d82116110a6575b8161108b60209383611246565b8101031261030c575160ff8116810361030c579160ff610e26565b3d915061107e565b9150506110be5750600190610e48565b636fb4cced60e11b5f5260045260245ffd5b60021491508a610dee565b9091506020813d821161110f575b816110f660209383611246565b8101031261030c5751801515810361030c579088610dca565b3d91506110e9565b6352d7408160e11b5f5260045ffd5b3461030c575f36600319011261030c576020600554604051908152f35b3461030c57602061115c61115636611166565b91611267565b6040519015158152f35b606090600319011261030c5760043590602435906044356001600160a01b038116810361030c5790565b608060031982011261030c5760043591602435916001600160401b03831161030c578060238401121561030c578260040135926001600160401b03841161030c5781602460a086028301011161030c5760240192916044356001600160401b03811161030c578260238201121561030c578060040135926001600160401b03841161030c576024848301011161030c57602401919060643590565b60c081019081106001600160401b038211176102da57604052565b90601f801991011681019081106001600160401b038211176102da57604052565b90915f92303b1561030c576040516309abe27f60e01b8152600481019390935260248301526001600160a01b031660448201525f81606481305afa90816112b7575b506112b15790565b50600190565b6112c49192505f90611246565b5f905f6112a9565b8054821015610aa5575f5260205f2001905f90565b9190811015610aa55760051b0190565b6001600160401b0381116102da5760051b60200190565b90600182811c92168015611336575b602083101461132257565b634e487b7160e01b5f52602260045260245ffd5b91607f1691611317565b601f821161134d57505050565b5f5260205f20906020601f840160051c83019310611385575b601f0160051c01905b81811061137a575050565b5f815560010161136f565b9091508190611366565b9190811015610aa55760a0020190565b8054821015610aa5575f5260205f209060021b01905f90565b8054600160401b8110156102da576113d59160018201815561139f565b91909161142f57803582556001820160208201359160ff831680930361030c57815491604082013592600484101561030c5760039461ff0060809560081b169161ffff191617179055606081013560028501550135910155565b634e487b7160e01b5f525f60045260245ffd5b8051821015610aa55760209160051b01019056fea2646970667358221220559d7973c5bd95cc431a63883e8e5bea6a54b7e54ce076ddf9ed69f092f5f03f64736f6c634300081c0033","linkReferences":{}},"methodIdentifiers":{"activateShape(bytes32)":"747f293b","deactivateShape(bytes32)":"996f8bfc","defineEnumSet(bytes32,bytes32[])":"310ec9fd","defineShape(bytes32,(bytes32,uint8,uint8,bytes32,bytes32)[],string,bytes32)":"e3567b1d","getClassIdAt(uint256)":"632a6655","getEnumValues(bytes32)":"3742dd9a","getProperties(bytes32)":"7f5a590d","getShape(bytes32)":"dad5846a","governor()":"0c340a24","isInEnumSet(bytes32,bytes32)":"ca8b31fc","isValid(bytes32,bytes32,address)":"06e35e99","shapeCount()":"08e8b833","transferGovernor(address)":"b8cc9ce6","updateShape(bytes32,(bytes32,uint8,uint8,bytes32,bytes32)[],string,bytes32)":"fcdc2230","validateSubject(bytes32,bytes32,address)":"09abe27f"},"id":106}