{"abi":[{"type":"constructor","inputs":[{"name":"store","type":"address","internalType":"address"},{"name":"governor_","type":"address","internalType":"address"}],"stateMutability":"nonpayable"},{"type":"function","name":"STORE","inputs":[],"outputs":[{"name":"","type":"address","internalType":"contract OntologyAttributeStore"}],"stateMutability":"view"},{"type":"function","name":"activateShape","inputs":[{"name":"classId","type":"bytes32","internalType":"bytes32"}],"outputs":[],"stateMutability":"nonpayable"},{"type":"function","name":"deactivateShape","inputs":[{"name":"classId","type":"bytes32","internalType":"bytes32"}],"outputs":[],"stateMutability":"nonpayable"},{"type":"function","name":"defineEnumSet","inputs":[{"name":"enumSetId","type":"bytes32","internalType":"bytes32"},{"name":"allowedValues","type":"bytes32[]","internalType":"bytes32[]"}],"outputs":[],"stateMutability":"nonpayable"},{"type":"function","name":"defineShape","inputs":[{"name":"classId","type":"bytes32","internalType":"bytes32"},{"name":"props","type":"tuple[]","internalType":"struct ShapeRegistry.PropertyConstraint[]","components":[{"name":"predicate","type":"bytes32","internalType":"bytes32"},{"name":"expectedDatatype","type":"uint8","internalType":"uint8"},{"name":"cardinality","type":"uint8","internalType":"enum ShapeRegistry.Cardinality"},{"name":"enumSetId","type":"bytes32","internalType":"bytes32"},{"name":"expectedClass","type":"bytes32","internalType":"bytes32"}]},{"name":"shapeURI","type":"string","internalType":"string"},{"name":"shapeHash","type":"bytes32","internalType":"bytes32"}],"outputs":[{"name":"","type":"uint16","internalType":"uint16"}],"stateMutability":"nonpayable"},{"type":"function","name":"getClassIdAt","inputs":[{"name":"index","type":"uint256","internalType":"uint256"}],"outputs":[{"name":"","type":"bytes32","internalType":"bytes32"}],"stateMutability":"view"},{"type":"function","name":"getEnumValues","inputs":[{"name":"enumSetId","type":"bytes32","internalType":"bytes32"}],"outputs":[{"name":"","type":"bytes32[]","internalType":"bytes32[]"}],"stateMutability":"view"},{"type":"function","name":"getProperties","inputs":[{"name":"classId","type":"bytes32","internalType":"bytes32"}],"outputs":[{"name":"","type":"tuple[]","internalType":"struct ShapeRegistry.PropertyConstraint[]","components":[{"name":"predicate","type":"bytes32","internalType":"bytes32"},{"name":"expectedDatatype","type":"uint8","internalType":"uint8"},{"name":"cardinality","type":"uint8","internalType":"enum ShapeRegistry.Cardinality"},{"name":"enumSetId","type":"bytes32","internalType":"bytes32"},{"name":"expectedClass","type":"bytes32","internalType":"bytes32"}]}],"stateMutability":"view"},{"type":"function","name":"getShape","inputs":[{"name":"classId","type":"bytes32","internalType":"bytes32"}],"outputs":[{"name":"","type":"tuple","internalType":"struct ShapeRegistry.Shape","components":[{"name":"classId","type":"bytes32","internalType":"bytes32"},{"name":"shapeURI","type":"string","internalType":"string"},{"name":"shapeHash","type":"bytes32","internalType":"bytes32"},{"name":"version","type":"uint16","internalType":"uint16"},{"name":"active","type":"bool","internalType":"bool"},{"name":"exists","type":"bool","internalType":"bool"}]}],"stateMutability":"view"},{"type":"function","name":"governor","inputs":[],"outputs":[{"name":"","type":"address","internalType":"address"}],"stateMutability":"view"},{"type":"function","name":"isInEnumSet","inputs":[{"name":"enumSetId","type":"bytes32","internalType":"bytes32"},{"name":"value","type":"bytes32","internalType":"bytes32"}],"outputs":[{"name":"","type":"bool","internalType":"bool"}],"stateMutability":"view"},{"type":"function","name":"isValid","inputs":[{"name":"classId","type":"bytes32","internalType":"bytes32"},{"name":"subject","type":"bytes32","internalType":"bytes32"}],"outputs":[{"name":"","type":"bool","internalType":"bool"}],"stateMutability":"view"},{"type":"function","name":"shapeCount","inputs":[],"outputs":[{"name":"","type":"uint256","internalType":"uint256"}],"stateMutability":"view"},{"type":"function","name":"transferGovernor","inputs":[{"name":"newGovernor","type":"address","internalType":"address"}],"outputs":[],"stateMutability":"nonpayable"},{"type":"function","name":"updateShape","inputs":[{"name":"classId","type":"bytes32","internalType":"bytes32"},{"name":"props","type":"tuple[]","internalType":"struct ShapeRegistry.PropertyConstraint[]","components":[{"name":"predicate","type":"bytes32","internalType":"bytes32"},{"name":"expectedDatatype","type":"uint8","internalType":"uint8"},{"name":"cardinality","type":"uint8","internalType":"enum ShapeRegistry.Cardinality"},{"name":"enumSetId","type":"bytes32","internalType":"bytes32"},{"name":"expectedClass","type":"bytes32","internalType":"bytes32"}]},{"name":"shapeURI","type":"string","internalType":"string"},{"name":"shapeHash","type":"bytes32","internalType":"bytes32"}],"outputs":[{"name":"","type":"uint16","internalType":"uint16"}],"stateMutability":"nonpayable"},{"type":"function","name":"validateSubject","inputs":[{"name":"classId","type":"bytes32","internalType":"bytes32"},{"name":"subject","type":"bytes32","internalType":"bytes32"}],"outputs":[],"stateMutability":"view"},{"type":"event","name":"EnumSetDefined","inputs":[{"name":"enumSetId","type":"bytes32","indexed":true,"internalType":"bytes32"},{"name":"valueCount","type":"uint256","indexed":false,"internalType":"uint256"}],"anonymous":false},{"type":"event","name":"GovernorTransferred","inputs":[{"name":"previousGovernor","type":"address","indexed":true,"internalType":"address"},{"name":"newGovernor","type":"address","indexed":true,"internalType":"address"}],"anonymous":false},{"type":"event","name":"ShapeActivated","inputs":[{"name":"classId","type":"bytes32","indexed":true,"internalType":"bytes32"}],"anonymous":false},{"type":"event","name":"ShapeDeactivated","inputs":[{"name":"classId","type":"bytes32","indexed":true,"internalType":"bytes32"}],"anonymous":false},{"type":"event","name":"ShapeDefined","inputs":[{"name":"classId","type":"bytes32","indexed":true,"internalType":"bytes32"},{"name":"version","type":"uint16","indexed":false,"internalType":"uint16"},{"name":"shapeURI","type":"string","indexed":false,"internalType":"string"},{"name":"shapeHash","type":"bytes32","indexed":false,"internalType":"bytes32"}],"anonymous":false},{"type":"event","name":"ShapeUpdated","inputs":[{"name":"classId","type":"bytes32","indexed":true,"internalType":"bytes32"},{"name":"version","type":"uint16","indexed":false,"internalType":"uint16"},{"name":"shapeHash","type":"bytes32","indexed":false,"internalType":"bytes32"}],"anonymous":false},{"type":"error","name":"EnumSetEmpty","inputs":[]},{"type":"error","name":"EnumValueNotAllowed","inputs":[{"name":"predicate","type":"bytes32","internalType":"bytes32"},{"name":"actualValue","type":"bytes32","internalType":"bytes32"}]},{"type":"error","name":"MissingRequiredProperty","inputs":[{"name":"predicate","type":"bytes32","internalType":"bytes32"}]},{"type":"error","name":"NotGovernor","inputs":[]},{"type":"error","name":"ShapeAlreadyDefined","inputs":[]},{"type":"error","name":"ShapeNotActive","inputs":[]},{"type":"error","name":"ShapeNotDefined","inputs":[]},{"type":"error","name":"WrongDatatype","inputs":[{"name":"predicate","type":"bytes32","internalType":"bytes32"},{"name":"actual","type":"uint8","internalType":"uint8"},{"name":"expected","type":"uint8","internalType":"uint8"}]}],"bytecode":{"object":"0x60a03461009357601f61162738819003918201601f19168301916001600160401b0383118484101761009757808492604094855283398101031261009357610052602061004b836100ab565b92016100ab565b6001600160a01b039182166080525f80546001600160a01b0319169190921617905560405161156790816100c08239608051818181610ad20152610e090152f35b5f80fd5b634e487b7160e01b5f52604160045260245ffd5b51906001600160a01b03821682036100935756fe60806040526004361015610011575f80fd5b5f3560e01c80630768f6ce14610dba57806308e8b83314610d9d5780630c340a2414610d7657806310a0c27414610d53578063310ec9fd14610ba75780633742dd9a14610b01578063507f146514610abd578063632a665514610a59578063747f293b146109e35780637f5a590d14610898578063996f8bfc14610827578063b8cc9ce6146107b8578063ca8b31fc14610784578063dad5846a146105e1578063e3567b1d1461031b5763fcdc2230146100c9575f80fd5b34610317576100d736611264565b93909160018060a09795971b035f5416330361030857835f52600160205260405f20926003840193845460ff8160181c16156102f95761ffff600191160161ffff811161025b5761ffff1661ffff19865416178555600181016001600160401b0383116102e55782610154899461014e84546113ca565b84611402565b5f601f821160011461027a57908061018592600296975f9261026f575b50508160011b915f199060031b1c19161790565b90555b0155825f52600260205260405f208054905f815581610217575b50505f5b8581106101ee57602085857fcc4f809cddb56642d5c4739edcb06223989df44b35ba2799883de9cfe616eb42604061ffff8854169381519085825286820152a2604051908152f35b600190845f52600260205261021160405f2061020b838a87611451565b9061147a565b016101a6565b6001600160fe1b038216820361025b575f5260205f209060021b8101905b818110156101a2576004905f81555f60018201555f60028201555f600382015501610235565b634e487b7160e01b5f52601160045260245ffd5b013590505f80610171565b94601f19821695835f5260205f20965f5b8181106102ca57509160029697918460019594106102b1575b505050811b019055610188565b01355f19600384901b60f8161c191690555f80806102a4565b8284013589556001909801978c97506020928301920161028b565b634e487b7160e01b5f52604160045260245ffd5b6321b4a59760e11b5f5260045ffd5b633b8d9d7560e21b5f5260045ffd5b5f80fd5b346103175761032936611264565b5f549194929390916001600160a01b0316330361030857855f52600160205260ff600360405f20015460181c166105d25760405192610367846112ff565b8684526001600160401b0386116102e557601f19601f87011693604051610391602087018261131a565b878152368888011161031757878760208301375f60208983010152602082019081526040820185815260608301926001845260808101916001835260a0820193600185528c5f52600160205260405f20925183556001830190518051906001600160401b0382116102e5576104108261040a85546113ca565b85611402565b602090601f831160011461056657926104488361ffff97948897946003975f9261055b5750508160011b915f199060031b1c19161790565b90555b516002820155019451161661ffff1984541617835551151562ff000083549160101b169062ff0000191617825551151563ff00000082549160181b169063ff0000001916179055600554600160401b8110156102e5576104cd6104b78260018b9401600555600561138e565b819391549060031b91821b915f19901b19161790565b90555f5b82811061053857877f2fe1acd11e3042cf6e231254b62ad3c0efd857032a48519da7c200d8eb47255b8860808989895f84866040519788966001885260606020890152816060890152838801378501015260408301528101030190a2602060405160018152f35b600190885f52600260205261055560405f2061020b838787611451565b016104d1565b015190505f80610171565b90601f19831691845f52815f20925f5b8181106105ba57509361ffff97949360039693600193838b9a97106105a3575b505050811b01905561044b565b01515f1983891b60f8161c191690555f8080610596565b92936020600181928786015181550195019301610576565b633aad7d1960e21b5f5260045ffd5b34610317576020366003190112610317575f60a0604051610601816112ff565b8281526060602082015282604082015282606082015282608082015201526004355f52600160205260405f20604051610639816112ff565b81548152600182019160405180935f90805490610655826113ca565b808552916001811690811561075e575060011461071c575b83610100876020886106818589038661131a565b81830194855260036002820154916040850192835201549061ffff606085018184168152608086019260ff8560101c161515845260ff60a088019560181c161515855260405198899787895251878901525160c0604089015280519687918260e08b0152018989015e5f8787018901525160608701525116608085015251151560a084015251151560c0830152601f01601f19168101030190f35b5f908152602081209092505b81831061074257505081016020908101906106819061066d565b6020919350806001915483858a01015201910190918592610728565b60ff191660208681019190915292151560051b85018301935061068192915061066d9050565b34610317576107923661124e565b905f52600460205260405f20905f52602052602060ff60405f2054166040519015158152f35b34610317576020366003190112610317576004356001600160a01b03811690819003610317575f546001600160a01b038116338190036103085782907f6fadb1c244276388aee22be93b919985a18748c021e5d48553957a48101a25605f80a36001600160a01b031916175f55005b34610317576020366003190112610317575f54600435906001600160a01b0316330361030857805f526001602052600360405f2001805460ff8160181c16156102f95762ff0000191690557ff02c3bde2da3d55fae5e122ae231e0fff2ec546c613e108bd12b29e2c290d54c5f80a2005b34610317576020366003190112610317576004355f52600260205260405f2080546108c2816113b3565b906108d0604051928361131a565b808252602082019081935f5260205f20915f905b82821061097757604080516020808252875190820181905288928201905f5b8181106109105783830384f35b909184518051825260ff602082015116602083015260408101519060048210156109635782608060a092602094604060019701526060810151606084015201516080820152019501910193919093610903565b634e487b7160e01b5f52602160045260245ffd5b60405160a081018181106001600160401b038211176102e5576040528454815260ff6001860154818116602084015260081c16600481101561096357600192826020926040600495015260028801546060820152600388015460808201528152019401910190926108e4565b34610317576020366003190112610317575f54600435906001600160a01b0316330361030857805f526001602052600360405f2001805460ff8160181c16156102f95762ff00001916620100001790557ff289cc73a5144c67c46d36c0559481b3e6dc27168c7041788fbe0d1754dbf7105f80a2005b3461031757602036600319011261031757600435600554811015610aa95760055f527f036b6384b5eca791c62761152d0c79bb0604c104a5fb6f4eb0703f3154bb3db00154604051908152602090f35b634e487b7160e01b5f52603260045260245ffd5b34610317575f366003190112610317576040517f00000000000000000000000000000000000000000000000000000000000000006001600160a01b03168152602090f35b34610317576020366003190112610317576004355f52600360205260405f20604051806020835491828152019081935f5260205f20905f5b818110610b915750505081610b4f91038261131a565b604051918291602083019060208452518091526040830191905f5b818110610b78575050500390f35b8251845285945060209384019390920191600101610b6a565b8254845260209093019260019283019201610b39565b34610317576040366003190112610317576004356024356001600160401b03811161031757366023820112156103175780600401356001600160401b038111610317576024820191602436918360051b010111610317575f546001600160a01b03163303610308578015610d4457825f52600360205260405f20905f5b8254811015610c6457600190855f52600460205260405f20610c46828661138e565b90549060031b1c5f5260205260405f2060ff19815416905501610c24565b848285825f52600360205260405f208054905f815581610d26575b50505f5b828110610cb857837fdfd4437a766eac392ffeecba61c96bbf022296d3b1ef040c34ff2200bf21e5f8602085604051908152a2005b835f52600360205260405f2090610cd08185856113a3565b358254600160401b8110156102e5576104b78160019586610cf39401815561138e565b9055845f52600460205260405f20610d0c8286866113a3565b355f5260205260405f208260ff1982541617905501610c83565b5f5260205f20908101905b81811015610c7f575f8155600101610d31565b6393b5293760e01b5f5260045ffd5b34610317576020610d6c610d663661124e565b9061133b565b6040519015158152f35b34610317575f366003190112610317575f546040516001600160a01b039091168152602090f35b34610317575f366003190112610317576020600554604051908152f35b3461031757610dc83661124e565b90805f526001602052600360405f20015460ff8160181c16156102f95760101c60ff161561123f575f52600260205260405f205f9181549160018060a01b037f000000000000000000000000000000000000000000000000000000000000000016935b838110610e3457005b610e3e8183611461565b508054906040519063bb6b0c3b60e01b82528560048301528260248301526020826044818b5afa918215610fcd575f92611203575b5060018101549160ff8360081c1690600482101561096357600182149182156111f8575b50156111d65750604051916342921cf360e01b83528660048401528360248401526020836044818c5afa928315610fcd575f936111b1575b5060ff80911692168281036111965750600201549081610ef7575b5050506001905b01610e2b565b60405163474cc11d60e11b81526020816004818c5afa8015610fcd5760ff915f91611178575b50168103610fd857509060405191630df675ff60e21b83528560048401528160248401526020836044818b5afa928315610fcd575f93610f9a575b505f52600460205260405f20825f5260205260ff60405f20541615610f855750506001905b908680610eea565b633833aaa960e01b5f5260045260245260445ffd5b9092506020813d8211610fc5575b81610fb56020938361131a565b8101031261031757519188610f58565b3d9150610fa8565b6040513d5f823e3d90fd5b6040516328846b5560e11b81526020816004818c5afa8015610fcd5760ff915f9161114a575b501614611010575b5050600190610f7d565b92919460409691965194632041c21f60e11b86528060048701528760248701525f86604481865afa958615610fcd575f966110b8575b505f5b86518110156110a557855f52600460205260405f20611068828961151d565b515f5260205260ff60405f2054161561108357600101611049565b61108e89918861151d565b5190633833aaa960e01b5f5260045260245260445ffd5b5094509490955060019192509086611006565b9095503d805f833e6110ca818361131a565b810190602081830312610317578051906001600160401b03821161031757019080601f83011215610317578151611100816113b3565b9261110e604051948561131a565b81845260208085019260051b82010192831161031757602001905b82821061113a575050509488611046565b8151815260209182019101611129565b61116b915060203d8111611171575b611163818361131a565b810190611504565b8a610ffe565b503d611159565b611190915060203d811161117157611163818361131a565b8a610f1d565b9050826301b47e2760e41b5f5260045260245260445260645ffd5b60ff9193506111ce829160203d811161117157611163818361131a565b939150610ecf565b9150506111e65750600190610ef1565b636fb4cced60e11b5f5260045260245ffd5b60021491508a610e97565b9091506020813d8211611237575b8161121e6020938361131a565b8101031261031757518015158103610317579088610e73565b3d9150611211565b6352d7408160e11b5f5260045ffd5b6040906003190112610317576004359060243590565b60806003198201126103175760043591602435916001600160401b0383116103175780602384011215610317578260040135926001600160401b0384116103175781602460a08602830101116103175760240192916044356001600160401b0381116103175782602382011215610317578060040135926001600160401b038411610317576024848301011161031757602401919060643590565b60c081019081106001600160401b038211176102e557604052565b90601f801991011681019081106001600160401b038211176102e557604052565b5f91303b1561031757604051916303b47b6760e11b8352600483015260248201525f81604481305afa9081611379575b506113735790565b50600190565b6113869192505f9061131a565b5f905f61136b565b8054821015610aa9575f5260205f2001905f90565b9190811015610aa95760051b0190565b6001600160401b0381116102e55760051b60200190565b90600182811c921680156113f8575b60208310146113e457565b634e487b7160e01b5f52602260045260245ffd5b91607f16916113d9565b601f821161140f57505050565b5f5260205f20906020601f840160051c83019310611447575b601f0160051c01905b81811061143c575050565b5f8155600101611431565b9091508190611428565b9190811015610aa95760a0020190565b8054821015610aa9575f5260205f209060021b01905f90565b8054600160401b8110156102e55761149791600182018155611461565b9190916114f157803582556001820160208201359160ff83168093036103175781549160408201359260048410156103175760039461ff0060809560081b169161ffff191617179055606081013560028501550135910155565b634e487b7160e01b5f525f60045260245ffd5b90816020910312610317575160ff811681036103175790565b8051821015610aa95760209160051b01019056fea2646970667358221220932086e5743e15b217a2efb64b633a2124cb103830c76c96351a9c77aee1745e64736f6c634300081c0033","linkReferences":{}},"methodIdentifiers":{"STORE()":"507f1465","activateShape(bytes32)":"747f293b","deactivateShape(bytes32)":"996f8bfc","defineEnumSet(bytes32,bytes32[])":"310ec9fd","defineShape(bytes32,(bytes32,uint8,uint8,bytes32,bytes32)[],string,bytes32)":"e3567b1d","getClassIdAt(uint256)":"632a6655","getEnumValues(bytes32)":"3742dd9a","getProperties(bytes32)":"7f5a590d","getShape(bytes32)":"dad5846a","governor()":"0c340a24","isInEnumSet(bytes32,bytes32)":"ca8b31fc","isValid(bytes32,bytes32)":"10a0c274","shapeCount()":"08e8b833","transferGovernor(address)":"b8cc9ce6","updateShape(bytes32,(bytes32,uint8,uint8,bytes32,bytes32)[],string,bytes32)":"fcdc2230","validateSubject(bytes32,bytes32)":"0768f6ce"},"id":104}