{"abi":[{"type":"constructor","inputs":[{"name":"ontologyRegistry","type":"address","internalType":"address"},{"name":"governor_","type":"address","internalType":"address"}],"stateMutability":"nonpayable"},{"type":"function","name":"DT_ADDRESS","inputs":[],"outputs":[{"name":"","type":"uint8","internalType":"uint8"}],"stateMutability":"view"},{"type":"function","name":"DT_ADDRESS_ARR","inputs":[],"outputs":[{"name":"","type":"uint8","internalType":"uint8"}],"stateMutability":"view"},{"type":"function","name":"DT_BOOL","inputs":[],"outputs":[{"name":"","type":"uint8","internalType":"uint8"}],"stateMutability":"view"},{"type":"function","name":"DT_BYTES32","inputs":[],"outputs":[{"name":"","type":"uint8","internalType":"uint8"}],"stateMutability":"view"},{"type":"function","name":"DT_BYTES32_ARR","inputs":[],"outputs":[{"name":"","type":"uint8","internalType":"uint8"}],"stateMutability":"view"},{"type":"function","name":"DT_STRING","inputs":[],"outputs":[{"name":"","type":"uint8","internalType":"uint8"}],"stateMutability":"view"},{"type":"function","name":"DT_STRING_ARR","inputs":[],"outputs":[{"name":"","type":"uint8","internalType":"uint8"}],"stateMutability":"view"},{"type":"function","name":"DT_UINT256","inputs":[],"outputs":[{"name":"","type":"uint8","internalType":"uint8"}],"stateMutability":"view"},{"type":"function","name":"ONTOLOGY","inputs":[],"outputs":[{"name":"","type":"address","internalType":"contract OntologyTermRegistry"}],"stateMutability":"view"},{"type":"function","name":"allSubjects","inputs":[],"outputs":[{"name":"","type":"bytes32[]","internalType":"bytes32[]"}],"stateMutability":"view"},{"type":"function","name":"appendAddress","inputs":[{"name":"subject","type":"bytes32","internalType":"bytes32"},{"name":"predicate","type":"bytes32","internalType":"bytes32"},{"name":"value","type":"address","internalType":"address"}],"outputs":[],"stateMutability":"nonpayable"},{"type":"function","name":"appendBytes32","inputs":[{"name":"subject","type":"bytes32","internalType":"bytes32"},{"name":"predicate","type":"bytes32","internalType":"bytes32"},{"name":"value","type":"bytes32","internalType":"bytes32"}],"outputs":[],"stateMutability":"nonpayable"},{"type":"function","name":"appendString","inputs":[{"name":"subject","type":"bytes32","internalType":"bytes32"},{"name":"predicate","type":"bytes32","internalType":"bytes32"},{"name":"value","type":"string","internalType":"string"}],"outputs":[],"stateMutability":"nonpayable"},{"type":"function","name":"auth","inputs":[],"outputs":[{"name":"","type":"address","internalType":"contract IAttributeAuth"}],"stateMutability":"view"},{"type":"function","name":"datatypeOf","inputs":[{"name":"subject","type":"bytes32","internalType":"bytes32"},{"name":"predicate","type":"bytes32","internalType":"bytes32"}],"outputs":[{"name":"","type":"uint8","internalType":"uint8"}],"stateMutability":"view"},{"type":"function","name":"getAddress","inputs":[{"name":"subject","type":"bytes32","internalType":"bytes32"},{"name":"predicate","type":"bytes32","internalType":"bytes32"}],"outputs":[{"name":"","type":"address","internalType":"address"}],"stateMutability":"view"},{"type":"function","name":"getAddressArr","inputs":[{"name":"subject","type":"bytes32","internalType":"bytes32"},{"name":"predicate","type":"bytes32","internalType":"bytes32"}],"outputs":[{"name":"","type":"address[]","internalType":"address[]"}],"stateMutability":"view"},{"type":"function","name":"getBool","inputs":[{"name":"subject","type":"bytes32","internalType":"bytes32"},{"name":"predicate","type":"bytes32","internalType":"bytes32"}],"outputs":[{"name":"","type":"bool","internalType":"bool"}],"stateMutability":"view"},{"type":"function","name":"getBytes32","inputs":[{"name":"subject","type":"bytes32","internalType":"bytes32"},{"name":"predicate","type":"bytes32","internalType":"bytes32"}],"outputs":[{"name":"","type":"bytes32","internalType":"bytes32"}],"stateMutability":"view"},{"type":"function","name":"getBytes32Arr","inputs":[{"name":"subject","type":"bytes32","internalType":"bytes32"},{"name":"predicate","type":"bytes32","internalType":"bytes32"}],"outputs":[{"name":"","type":"bytes32[]","internalType":"bytes32[]"}],"stateMutability":"view"},{"type":"function","name":"getString","inputs":[{"name":"subject","type":"bytes32","internalType":"bytes32"},{"name":"predicate","type":"bytes32","internalType":"bytes32"}],"outputs":[{"name":"","type":"string","internalType":"string"}],"stateMutability":"view"},{"type":"function","name":"getStringArr","inputs":[{"name":"subject","type":"bytes32","internalType":"bytes32"},{"name":"predicate","type":"bytes32","internalType":"bytes32"}],"outputs":[{"name":"","type":"string[]","internalType":"string[]"}],"stateMutability":"view"},{"type":"function","name":"getUint","inputs":[{"name":"subject","type":"bytes32","internalType":"bytes32"},{"name":"predicate","type":"bytes32","internalType":"bytes32"}],"outputs":[{"name":"","type":"uint256","internalType":"uint256"}],"stateMutability":"view"},{"type":"function","name":"governor","inputs":[],"outputs":[{"name":"","type":"address","internalType":"address"}],"stateMutability":"view"},{"type":"function","name":"isSet","inputs":[{"name":"subject","type":"bytes32","internalType":"bytes32"},{"name":"predicate","type":"bytes32","internalType":"bytes32"}],"outputs":[{"name":"","type":"bool","internalType":"bool"}],"stateMutability":"view"},{"type":"function","name":"predicatesOf","inputs":[{"name":"subject","type":"bytes32","internalType":"bytes32"}],"outputs":[{"name":"","type":"bytes32[]","internalType":"bytes32[]"}],"stateMutability":"view"},{"type":"function","name":"setAddress","inputs":[{"name":"subject","type":"bytes32","internalType":"bytes32"},{"name":"predicate","type":"bytes32","internalType":"bytes32"},{"name":"value","type":"address","internalType":"address"}],"outputs":[],"stateMutability":"nonpayable"},{"type":"function","name":"setAddressArr","inputs":[{"name":"subject","type":"bytes32","internalType":"bytes32"},{"name":"predicate","type":"bytes32","internalType":"bytes32"},{"name":"values","type":"address[]","internalType":"address[]"}],"outputs":[],"stateMutability":"nonpayable"},{"type":"function","name":"setAuth","inputs":[{"name":"newAuth","type":"address","internalType":"address"}],"outputs":[],"stateMutability":"nonpayable"},{"type":"function","name":"setBool","inputs":[{"name":"subject","type":"bytes32","internalType":"bytes32"},{"name":"predicate","type":"bytes32","internalType":"bytes32"},{"name":"value","type":"bool","internalType":"bool"}],"outputs":[],"stateMutability":"nonpayable"},{"type":"function","name":"setBytes32","inputs":[{"name":"subject","type":"bytes32","internalType":"bytes32"},{"name":"predicate","type":"bytes32","internalType":"bytes32"},{"name":"value","type":"bytes32","internalType":"bytes32"}],"outputs":[],"stateMutability":"nonpayable"},{"type":"function","name":"setBytes32Arr","inputs":[{"name":"subject","type":"bytes32","internalType":"bytes32"},{"name":"predicate","type":"bytes32","internalType":"bytes32"},{"name":"values","type":"bytes32[]","internalType":"bytes32[]"}],"outputs":[],"stateMutability":"nonpayable"},{"type":"function","name":"setString","inputs":[{"name":"subject","type":"bytes32","internalType":"bytes32"},{"name":"predicate","type":"bytes32","internalType":"bytes32"},{"name":"value","type":"string","internalType":"string"}],"outputs":[],"stateMutability":"nonpayable"},{"type":"function","name":"setStringArr","inputs":[{"name":"subject","type":"bytes32","internalType":"bytes32"},{"name":"predicate","type":"bytes32","internalType":"bytes32"},{"name":"values","type":"string[]","internalType":"string[]"}],"outputs":[],"stateMutability":"nonpayable"},{"type":"function","name":"setUint","inputs":[{"name":"subject","type":"bytes32","internalType":"bytes32"},{"name":"predicate","type":"bytes32","internalType":"bytes32"},{"name":"value","type":"uint256","internalType":"uint256"}],"outputs":[],"stateMutability":"nonpayable"},{"type":"function","name":"subjectCount","inputs":[],"outputs":[{"name":"","type":"uint256","internalType":"uint256"}],"stateMutability":"view"},{"type":"function","name":"subjectVersion","inputs":[{"name":"subject","type":"bytes32","internalType":"bytes32"}],"outputs":[{"name":"","type":"uint64","internalType":"uint64"}],"stateMutability":"view"},{"type":"function","name":"transferGovernor","inputs":[{"name":"newGovernor","type":"address","internalType":"address"}],"outputs":[],"stateMutability":"nonpayable"},{"type":"function","name":"unset","inputs":[{"name":"subject","type":"bytes32","internalType":"bytes32"},{"name":"predicate","type":"bytes32","internalType":"bytes32"}],"outputs":[],"stateMutability":"nonpayable"},{"type":"function","name":"updatedAt","inputs":[{"name":"subject","type":"bytes32","internalType":"bytes32"},{"name":"predicate","type":"bytes32","internalType":"bytes32"}],"outputs":[{"name":"","type":"uint64","internalType":"uint64"}],"stateMutability":"view"},{"type":"event","name":"AttributeAppended","inputs":[{"name":"subject","type":"bytes32","indexed":true,"internalType":"bytes32"},{"name":"predicate","type":"bytes32","indexed":true,"internalType":"bytes32"},{"name":"datatype","type":"uint8","indexed":false,"internalType":"uint8"},{"name":"version","type":"uint64","indexed":false,"internalType":"uint64"}],"anonymous":false},{"type":"event","name":"AttributeSet","inputs":[{"name":"subject","type":"bytes32","indexed":true,"internalType":"bytes32"},{"name":"predicate","type":"bytes32","indexed":true,"internalType":"bytes32"},{"name":"datatype","type":"uint8","indexed":false,"internalType":"uint8"},{"name":"version","type":"uint64","indexed":false,"internalType":"uint64"}],"anonymous":false},{"type":"event","name":"AttributeUnset","inputs":[{"name":"subject","type":"bytes32","indexed":true,"internalType":"bytes32"},{"name":"predicate","type":"bytes32","indexed":true,"internalType":"bytes32"},{"name":"version","type":"uint64","indexed":false,"internalType":"uint64"}],"anonymous":false},{"type":"event","name":"AuthChanged","inputs":[{"name":"previousAuth","type":"address","indexed":true,"internalType":"address"},{"name":"newAuth","type":"address","indexed":true,"internalType":"address"}],"anonymous":false},{"type":"event","name":"GovernorTransferred","inputs":[{"name":"previousGovernor","type":"address","indexed":true,"internalType":"address"},{"name":"newGovernor","type":"address","indexed":true,"internalType":"address"}],"anonymous":false},{"type":"event","name":"SubjectFirstSeen","inputs":[{"name":"subject","type":"bytes32","indexed":true,"internalType":"bytes32"}],"anonymous":false},{"type":"error","name":"AttributeNotSet","inputs":[]},{"type":"error","name":"AuthNotSet","inputs":[]},{"type":"error","name":"NotAuthorized","inputs":[]},{"type":"error","name":"NotGovernor","inputs":[]},{"type":"error","name":"PredicateNotActive","inputs":[]},{"type":"error","name":"WrongDatatype","inputs":[{"name":"expected","type":"uint8","internalType":"uint8"},{"name":"actual","type":"uint8","internalType":"uint8"}]}],"bytecode":{"object":"0x60a0346100e157601f612ada38819003918201601f19168301916001600160401b038311848410176100e55780849260409485528339810103126100e157610052602061004b836100f9565b92016100f9565b6001600160a01b03918216608052600180546001600160a01b031916919092161790556040516129cc908161010e823960805181818161024501528181610481015281816107a101528181610a6401528181610c9001528181610f4b015281816111de015281816113f2015281816115be0152818161190e01528181611d0601528181611f0c015261212d0152f35b5f80fd5b634e487b7160e01b5f52604160045260245ffd5b51906001600160a01b03821682036100e15756fe6080806040526004361015610012575f80fd5b5f3560e01c90816301a7a98e1461231457508063069a1c89146122f95780630b15e59f146120ef5780630c340a24146120c75780631d60084b14611ec6578063235913f514611cc85780632b2e05c114611c545780633054718114611bf057806331477b9b14611bad57806337d9d7fc14611b7e5780634083843e14611b1557806342921cf314611ae35780635108d6aa14611ac85780635ecef0a2146118cd578063639a2e10146118b05780636ad2e7ea146115805780636b850920146113b457806379a7cfee146111a05780637a6ad9261461117157806383f64af914611156578063880eadce1461111e5780638a99974e14610f0d5780638e21caca14610eda5780638e99823a14610ebf578063947174bc14610c5057806398eaf11c14610c1c578063a14ff85714610a26578063b8cc9ce6146109a8578063bb6b0c3b14610974578063c22ed3db14610763578063c3a6123d146106df578063c51e7859146106c4578063cb954f30146105cb578063d3a3968614610594578063de9375f21461056d578063e4281bc3146104b0578063e63cdb421461046c578063efb0ebcf14610451578063f0f53ee4146101f35763f6cd2ba7146101d4575f80fd5b346101ef575f3660031901126101ef57602060405160048152f35b5f80fd5b346101ef5760603660031901126101ef57600435602435906044358015158091036101ef575f546001600160a01b031680156104425760405163170da40760e21b8152600481018590526020816024817f00000000000000000000000000000000000000000000000000000000000000006001600160a01b03165afa908115610409575f91610423575b501561041457604051630109c3f960e61b8152600481018490526024810185905233604482015290602090829060649082905afa908115610409575f916103da575b50156103cb57815f52600460205260405f20835f5260205260405f209060ff801983541691161790556102f1816128fa565b805f52600b60205260405f20825f5260205260ff60405f20541615610390575b805f52600c60205260405f20825f5260205260405f20600360ff198254161790555f5160206129775f395f51905f52604061034b83612897565b835f52600d602052815f20855f52602052815f206001600160401b0382166001600160401b03198254161790556001600160401b0382519160038352166020820152a3005b805f52600a6020526103a58260405f20612793565b805f52600b60205260405f20825f5260205260405f20600160ff19825416179055610311565b63ea8e4eb560e01b5f5260045ffd5b6103fc915060203d602011610402575b6103f481836124ab565b8101906124cc565b846102bf565b503d6103ea565b6040513d5f823e3d90fd5b632263bf1f60e21b5f5260045ffd5b61043c915060203d602011610402576103f481836124ab565b8561027d565b6313a75c6f60e11b5f5260045ffd5b346101ef575f3660031901126101ef57602060405160078152f35b346101ef575f3660031901126101ef576040517f00000000000000000000000000000000000000000000000000000000000000006001600160a01b03168152602090f35b346101ef576104be3661242d565b905f52600860205260405f20905f5260205260405f20604051806020835491828152019081935f5260205f20905f5b81811061054e57505050816105039103826124ab565b604051918291602083019060208452518091526040830191905f5b81811061052c575050500390f35b82516001600160a01b031684528594506020938401939092019160010161051e565b82546001600160a01b03168452602090930192600192830192016104ed565b346101ef575f3660031901126101ef575f546040516001600160a01b039091168152602090f35b346101ef576105a23661242d565b905f52600360205260405f20905f52602052602060018060a01b0360405f205416604051908152f35b346101ef576105d93661242d565b905f52600760205260405f20905f5260205260405f208054906001600160401b0382116106b0576040519161061460208260051b01846124ab565b8083526020830180925f5260205f205f915b83831061069357848660405191829160208301906020845251809152604083019060408160051b85010192915f905b82821061066457505050500390f35b919360019193955060206106838192603f198a82030186528851612443565b9601920192018594939192610655565b6001602081926106a2856126c5565b815201920192019190610626565b634e487b7160e01b5f52604160045260245ffd5b346101ef575f3660031901126101ef57602060405160018152f35b346101ef575f3660031901126101ef57604051806020600f54918281520190600f5f527f8d1108e10bcb7c27dddfc02ed9d693a074039d026cf4ea4240b40f7d581ac802905f5b81811061074d576107498561073d818703826124ab565b604051918291826123f4565b0390f35b8254845260209093019260019283019201610726565b346101ef5761077136612491565b5f549192916001600160a01b031680156104425760405163170da40760e21b8152600481018590526020816024817f00000000000000000000000000000000000000000000000000000000000000006001600160a01b03165afa908115610409575f91610955575b501561041457604051630109c3f960e61b8152600481018490526024810185905233604482015290602090829060649082905afa908115610409575f91610936575b50156103cb5761084090825f52600960205260405f20845f5260205260405f20612793565b610849816128fa565b805f52600b60205260405f20825f5260205260ff60405f205416156108fb575b805f52600c60205260405f20825f5260205260405f20600860ff198254161790557f34d84e67b0f324bfad877e5b27265f696957cae3ba7fbfc8a1a4a365c3672ecd60406108b683612897565b835f52600d602052815f20855f52602052815f206001600160401b0382166001600160401b03198254161790556001600160401b0382519160088352166020820152a3005b805f52600a6020526109108260405f20612793565b805f52600b60205260405f20825f5260205260405f20600160ff19825416179055610869565b61094f915060203d602011610402576103f481836124ab565b8461081b565b61096e915060203d602011610402576103f481836124ab565b856107d9565b346101ef576109823661242d565b905f52600b60205260405f20905f52602052602060ff60405f2054166040519015158152f35b346101ef5760203660031901126101ef576109c16123de565b6001546001600160a01b0381169133839003610a17576001600160a01b03169182907f6fadb1c244276388aee22be93b919985a18748c021e5d48553957a48101a25605f80a36001600160a01b03191617600155005b633b8d9d7560e21b5f5260045ffd5b346101ef57610a3436612491565b5f549192916001600160a01b031680156104425760405163170da40760e21b8152600481018590526020816024817f00000000000000000000000000000000000000000000000000000000000000006001600160a01b03165afa908115610409575f91610bfd575b501561041457604051630109c3f960e61b8152600481018490526024810185905233604482015290602090829060649082905afa908115610409575f91610bde575b50156103cb57815f52600660205260405f20835f5260205260405f2055610b04816128fa565b805f52600b60205260405f20825f5260205260ff60405f20541615610ba3575b805f52600c60205260405f20825f5260205260405f20600560ff198254161790555f5160206129775f395f51905f526040610b5e83612897565b835f52600d602052815f20855f52602052815f206001600160401b0382166001600160401b03198254161790556001600160401b0382519160058352166020820152a3005b805f52600a602052610bb88260405f20612793565b805f52600b60205260405f20825f5260205260405f20600160ff19825416179055610b24565b610bf7915060203d602011610402576103f481836124ab565b84610ade565b610c16915060203d602011610402576103f481836124ab565b85610a9c565b346101ef57610c2a3661242d565b905f52600460205260405f20905f52602052602060ff60405f2054166040519015158152f35b346101ef57610c5e3661232d565b5f5491939290916001600160a01b031680156104425760405163170da40760e21b8152600481018390526020816024817f00000000000000000000000000000000000000000000000000000000000000006001600160a01b03165afa908115610409575f91610ea0575b501561041457604051630109c3f960e61b8152600481018590526024810183905233604482015290602090829060649082905afa908115610409575f91610e81575b50156103cb57825f93929352600760205260405f20815f52602052610d3160405f2061281d565b36849003601e1901915f5b84811015610d9d57815f52600760205260405f20835f5260205260405f20908060051b870135858112156101ef578701918235926001600160401b0384116101ef576020019280360384136101ef57600193610d9792612854565b01610d3c565b50610da7816128fa565b805f52600b60205260405f20825f5260205260ff60405f20541615610e46575b805f52600c60205260405f20825f5260205260405f20600660ff198254161790555f5160206129775f395f51905f526040610e0183612897565b835f52600d602052815f20855f52602052815f206001600160401b0382166001600160401b03198254161790556001600160401b0382519160068352166020820152a3005b805f52600a602052610e5b8260405f20612793565b805f52600b60205260405f20825f5260205260405f20600160ff19825416179055610dc7565b610e9a915060203d602011610402576103f481836124ab565b85610d0a565b610eb9915060203d602011610402576103f481836124ab565b86610cc8565b346101ef575f3660031901126101ef57602060405160058152f35b346101ef5760203660031901126101ef576004355f52600e60205260206001600160401b0360405f205416604051908152f35b346101ef57610f1b36612467565b5f549192916001600160a01b031680156104425760405163170da40760e21b8152600481018590526020816024817f00000000000000000000000000000000000000000000000000000000000000006001600160a01b03165afa908115610409575f916110ff575b501561041457604051630109c3f960e61b8152600481018490526024810185905233604482015290602090829060649082905afa908115610409575f916110e0575b50156103cb57610fea90825f52600860205260405f20845f5260205260405f20612556565b610ff3816128fa565b805f52600b60205260405f20825f5260205260ff60405f205416156110a5575b805f52600c60205260405f20825f5260205260405f20600760ff198254161790557f34d84e67b0f324bfad877e5b27265f696957cae3ba7fbfc8a1a4a365c3672ecd604061106083612897565b835f52600d602052815f20855f52602052815f206001600160401b0382166001600160401b03198254161790556001600160401b0382519160078352166020820152a3005b805f52600a6020526110ba8260405f20612793565b805f52600b60205260405f20825f5260205260405f20600160ff19825416179055611013565b6110f9915060203d602011610402576103f481836124ab565b84610fc5565b611118915060203d602011610402576103f481836124ab565b85610f83565b346101ef5761112c3661242d565b905f52600d60205260405f20905f5260205260206001600160401b0360405f205416604051908152f35b346101ef575f3660031901126101ef57602060405160028152f35b346101ef5761117f3661242d565b905f52600560205260405f20905f52602052602060405f2054604051908152f35b346101ef576111ae36612467565b5f549192916001600160a01b031680156104425760405163170da40760e21b8152600481018590526020816024817f00000000000000000000000000000000000000000000000000000000000000006001600160a01b03165afa908115610409575f91611395575b501561041457604051630109c3f960e61b8152600481018490526024810185905233604482015290602090829060649082905afa908115610409575f91611376575b50156103cb57815f52600360205260405f20835f5260205260405f209060018060a01b03166bffffffffffffffffffffffff60a01b82541617905561129c816128fa565b805f52600b60205260405f20825f5260205260ff60405f2054161561133b575b805f52600c60205260405f20825f5260205260405f20600260ff198254161790555f5160206129775f395f51905f5260406112f683612897565b835f52600d602052815f20855f52602052815f206001600160401b0382166001600160401b03198254161790556001600160401b0382519160028352166020820152a3005b805f52600a6020526113508260405f20612793565b805f52600b60205260405f20825f5260205260405f20600160ff198254161790556112bc565b61138f915060203d602011610402576103f481836124ab565b84611258565b6113ae915060203d602011610402576103f481836124ab565b85611216565b346101ef576113c236612387565b5f549293926001600160a01b031680156104425760405163170da40760e21b8152600481018690526020816024817f00000000000000000000000000000000000000000000000000000000000000006001600160a01b03165afa908115610409575f91611561575b501561041457604051630109c3f960e61b8152600481018590526024810186905233604482015290602090829060649082905afa908115610409575f91611542575b50156103cb5761149191835f52600760205260405f20855f5260205260405f20612854565b61149a816128fa565b805f52600b60205260405f20825f5260205260ff60405f20541615611507575b805f52600c60205260405f20825f5260205260405f20600660ff198254161790557f34d84e67b0f324bfad877e5b27265f696957cae3ba7fbfc8a1a4a365c3672ecd6040610e0183612897565b805f52600a60205261151c8260405f20612793565b805f52600b60205260405f20825f5260205260405f20600160ff198254161790556114ba565b61155b915060203d602011610402576103f481836124ab565b8561146c565b61157a915060203d602011610402576103f481836124ab565b8661142a565b346101ef5761158e3661242d565b5f549091906001600160a01b031680156104425760405163170da40760e21b8152600481018490526020816024817f00000000000000000000000000000000000000000000000000000000000000006001600160a01b03165afa908115610409575f91611891575b501561041457604051630109c3f960e61b8152600481018390526024810184905233604482015290602090829060649082905afa908115610409575f91611872575b50156103cb57805f52600b60205260405f20825f5260205260ff60405f2054161561186357805f52600c60205260405f20825f5260205260ff60405f205416600181145f1461173e5750805f52600260205260405f20825f526020526116a060405f206127cf565b805f52600b60205260405f20825f5260205260405f2060ff198154169055805f52600c60205260405f20825f5260205260405f20805460ff19169055805f52600d60205260405f20825f5260205260405f206001600160401b031981541690557faeeb42dd6ea4a893ab5c87b203e3a65b7da56b28eed06f78e7655ae3b8f32bb3602061172c83612897565b6001600160401b0360405191168152a3005b600281036117785750805f52600360205260405f20825f5260205260405f206bffffffffffffffffffffffff60a01b81541690555b6116a0565b600381036117a45750805f52600460205260405f20825f5260205260405f20805460ff191690556116a0565b600481036117ca5750805f52600560205260405f20825f526020525f60408120556116a0565b600581036117f05750805f52600660205260405f20825f526020525f60408120556116a0565b600681036118175750805f52600760205260405f20825f5260205261177360405f2061281d565b6007810361183e5750805f52600860205260405f20825f5260205261177360405f206124fa565b60080361177357805f52600960205260405f20825f5260205261177360405f20612763565b6309d21dc760e01b5f5260045ffd5b61188b915060203d602011610402576103f481836124ab565b83611638565b6118aa915060203d602011610402576103f481836124ab565b846115f6565b346101ef575f3660031901126101ef576020600f54604051908152f35b346101ef576118db3661232d565b5f549293929091906001600160a01b031680156104425760405163170da40760e21b8152600481018690526020816024817f00000000000000000000000000000000000000000000000000000000000000006001600160a01b03165afa908115610409575f91611aa9575b501561041457604051630109c3f960e61b8152600481018590526024810186905233604482015290602090829060649082905afa908115610409575f91611a8a575b50156103cb57825f52600960205260405f20845f526020526119ac60405f20612763565b5f5b828110611a56575050506119c1816128fa565b805f52600b60205260405f20825f5260205260ff60405f20541615611a1b575b805f52600c60205260405f20825f5260205260405f20600860ff198254161790555f5160206129775f395f51905f5260406108b683612897565b805f52600a602052611a308260405f20612793565b805f52600b60205260405f20825f5260205260405f20600160ff198254161790556119e1565b600190845f52600960205260405f20865f52602052611a8460405f20611a7d83878761251d565b3590612793565b016119ae565b611aa3915060203d602011610402576103f481836124ab565b85611988565b611ac2915060203d602011610402576103f481836124ab565b86611946565b346101ef575f3660031901126101ef57602060405160088152f35b346101ef57611af13661242d565b905f52600c60205260405f20905f52602052602060ff60405f205416604051908152f35b346101ef57611b233661242d565b905f52600960205260405f20905f5260205260405f206040519081602082549182815201915f5260205f20905f5b818110611b68576107498561073d818703826124ab565b8254845260209093019260019283019201611b51565b346101ef57611b8c3661242d565b905f52600660205260405f20905f52602052602060405f2054604051908152f35b346101ef57611bbb3661242d565b905f52600260205260405f20905f52602052610749611bdc60405f206126c5565b604051918291602083526020830190612443565b346101ef5760203660031901126101ef576004355f52600a60205260405f206040519081602082549182815201915f5260205f20905f5b818110611c3e576107498561073d818703826124ab565b8254845260209093019260019283019201611c27565b346101ef5760203660031901126101ef57611c6d6123de565b6001546001600160a01b03163303610a17575f80546001600160a01b0392831692909183918316907f24ac3a47db77bd2c1aee183e8fb8d35c27e4b1c6237f3113f28461debd1f76c39080a36001600160a01b031916175f55005b346101ef57611cd636612387565b5f549293926001600160a01b031680156104425760405163170da40760e21b8152600481018690526020816024817f00000000000000000000000000000000000000000000000000000000000000006001600160a01b03165afa908115610409575f91611ea7575b501561041457604051630109c3f960e61b8152600481018590526024810186905233604482015290602090829060649082905afa908115610409575f91611e88575b50156103cb57611da591835f52600260205260405f20855f5260205260405f206125cf565b611dae816128fa565b805f52600b60205260405f20825f5260205260ff60405f20541615611e4d575b805f52600c60205260405f20825f5260205260405f20600160ff198254161790555f5160206129775f395f51905f526040611e0883612897565b835f52600d602052815f20855f52602052815f206001600160401b0382166001600160401b03198254161790556001600160401b0382519160018352166020820152a3005b805f52600a602052611e628260405f20612793565b805f52600b60205260405f20825f5260205260405f20600160ff19825416179055611dce565b611ea1915060203d602011610402576103f481836124ab565b85611d80565b611ec0915060203d602011610402576103f481836124ab565b86611d3e565b346101ef5760603660031901126101ef575f5460243590600435906001600160a01b031680156104425760405163170da40760e21b8152600481018490526020816024817f00000000000000000000000000000000000000000000000000000000000000006001600160a01b03165afa908115610409575f916120a8575b501561041457604051630109c3f960e61b8152600481018390526024810184905233604482015290602090829060649082905afa908115610409575f91612089575b50156103cb57805f52600560205260405f20825f5260205260443560405f2055611faf816128fa565b805f52600b60205260405f20825f5260205260ff60405f2054161561204e575b805f52600c60205260405f20825f5260205260405f20600460ff198254161790555f5160206129775f395f51905f52604061200983612897565b835f52600d602052815f20855f52602052815f206001600160401b0382166001600160401b03198254161790556001600160401b0382519160048352166020820152a3005b805f52600a6020526120638260405f20612793565b805f52600b60205260405f20825f5260205260405f20600160ff19825416179055611fcf565b6120a2915060203d602011610402576103f481836124ab565b83611f86565b6120c1915060203d602011610402576103f481836124ab565b84611f44565b346101ef575f3660031901126101ef576001546040516001600160a01b039091168152602090f35b346101ef576120fd3661232d565b5f549293926001600160a01b031680156104425760405163170da40760e21b8152600481018690526020816024817f00000000000000000000000000000000000000000000000000000000000000006001600160a01b03165afa908115610409575f916122da575b501561041457604051630109c3f960e61b8152600481018590526024810186905233604482015290602090829060649082905afa908115610409575f916122bb575b50156103cb57825f52600860205260405f20845f526020526121cb60405f206124fa565b5f5b818110612275575050506121e0816128fa565b805f52600b60205260405f20825f5260205260ff60405f2054161561223a575b805f52600c60205260405f20825f5260205260405f20600760ff198254161790555f5160206129775f395f51905f52604061106083612897565b805f52600a60205261224f8260405f20612793565b805f52600b60205260405f20825f5260205260405f20600160ff19825416179055612200565b835f52600860205260405f20855f5260205260405f209061229781848661251d565b35916001600160a01b03831683036101ef576001926122b591612556565b016121cd565b6122d4915060203d602011610402576103f481836124ab565b856121a7565b6122f3915060203d602011610402576103f481836124ab565b86612165565b346101ef575f3660031901126101ef57602060405160038152f35b346101ef575f3660031901126101ef5780600660209252f35b9060606003198301126101ef5760043591602435916044356001600160401b0381116101ef5760040182601f820112156101ef578035926001600160401b0384116101ef576020808301928560051b0101116101ef579190565b9060606003198301126101ef5760043591602435916044356001600160401b0381116101ef57826023820112156101ef578060040135926001600160401b0384116101ef57602484830101116101ef576024019190565b600435906001600160a01b03821682036101ef57565b60206040818301928281528451809452019201905f5b8181106124175750505090565b825184526020938401939092019160010161240a565b60409060031901126101ef576004359060243590565b805180835260209291819084018484015e5f828201840152601f01601f1916010190565b60609060031901126101ef5760043590602435906044356001600160a01b03811681036101ef5790565b60609060031901126101ef57600435906024359060443590565b90601f801991011681019081106001600160401b038211176106b057604052565b908160209103126101ef575180151581036101ef5790565b8181106124ef575050565b5f81556001016124e4565b80545f825580612508575050565b61251b915f5260205f20908101906124e4565b565b919081101561252d5760051b0190565b634e487b7160e01b5f52603260045260245ffd5b805482101561252d575f5260205f2001905f90565b8054600160401b8110156106b05761257391600182018155612541565b81546001600160a01b0393841660039290921b91821b9390911b1916919091179055565b90600182811c921680156125c5575b60208310146125b157565b634e487b7160e01b5f52602260045260245ffd5b91607f16916125a6565b9092916001600160401b0381116106b0576125ea8254612597565b601f811161268a575b505f601f821160011461262b57819293945f92612620575b50508160011b915f199060031b1c1916179055565b013590505f8061260b565b601f19821694835f5260205f20915f5b878110612672575083600195969710612659575b505050811b019055565b01355f19600384901b60f8161c191690555f808061264f565b9092602060018192868601358155019401910161263b565b6126b590835f5260205f20601f840160051c810191602085106126bb575b601f0160051c01906124e4565b5f6125f3565b90915081906126a8565b9060405191825f8254926126d884612597565b808452936001811690811561274157506001146126fd575b5061251b925003836124ab565b90505f9291925260205f20905f915b81831061272557505090602061251b928201015f6126f0565b602091935080600191548385890101520191019091849261270c565b90506020925061251b94915060ff191682840152151560051b8201015f6126f0565b8054905f815581612772575050565b5f5260205f20908101905b818110612788575050565b5f815560010161277d565b805490600160401b8210156106b057816127b59160016127cb94018155612541565b819391549060031b91821b915f19901b19161790565b9055565b6127d98154612597565b90816127e3575050565b81601f5f93116001146127f4575055565b8183526020832061281091601f0160051c8101906001016124e4565b8082528160208120915555565b8054905f81558161282c575050565b5f5260205f20908101905b818110612842575050565b8061284e6001926127cf565b01612837565b9190918054600160401b8110156106b05761287491600182018155612541565b9290926128845761251b926125cf565b634e487b7160e01b5f525f60045260245ffd5b805f52600e60205260016001600160401b0360405f20541601906001600160401b0382116128e6575f52600e60205260405f206001600160401b0382166001600160401b031982541617905590565b634e487b7160e01b5f52601160045260245ffd5b805f52601060205260ff60405f205416156129125750565b805f52601060205260405f20600160ff19825416179055600f54600160401b8110156106b05761294e6127b5826001859401600f55600f612541565b90557f34f1cb4778d9578e1af878b07d3ae7e9f2f32fafcaa3096fe48153670a71bfaf5f80a256fe5167ea251eeaf052f4c7bd769efb5b17e6ba98908050b9929a0bd192b57274fba2646970667358221220fc254ad900192778df91ac9a1e6c1a2077af5cd50feb0d8ea5209de60cb28b8c64736f6c634300081c0033","linkReferences":{}},"methodIdentifiers":{"DT_ADDRESS()":"83f64af9","DT_ADDRESS_ARR()":"efb0ebcf","DT_BOOL()":"069a1c89","DT_BYTES32()":"8e99823a","DT_BYTES32_ARR()":"5108d6aa","DT_STRING()":"c51e7859","DT_STRING_ARR()":"01a7a98e","DT_UINT256()":"f6cd2ba7","ONTOLOGY()":"e63cdb42","allSubjects()":"c3a6123d","appendAddress(bytes32,bytes32,address)":"8a99974e","appendBytes32(bytes32,bytes32,bytes32)":"c22ed3db","appendString(bytes32,bytes32,string)":"6b850920","auth()":"de9375f2","datatypeOf(bytes32,bytes32)":"42921cf3","getAddress(bytes32,bytes32)":"d3a39686","getAddressArr(bytes32,bytes32)":"e4281bc3","getBool(bytes32,bytes32)":"98eaf11c","getBytes32(bytes32,bytes32)":"37d9d7fc","getBytes32Arr(bytes32,bytes32)":"4083843e","getString(bytes32,bytes32)":"31477b9b","getStringArr(bytes32,bytes32)":"cb954f30","getUint(bytes32,bytes32)":"7a6ad926","governor()":"0c340a24","isSet(bytes32,bytes32)":"bb6b0c3b","predicatesOf(bytes32)":"30547181","setAddress(bytes32,bytes32,address)":"79a7cfee","setAddressArr(bytes32,bytes32,address[])":"0b15e59f","setAuth(address)":"2b2e05c1","setBool(bytes32,bytes32,bool)":"f0f53ee4","setBytes32(bytes32,bytes32,bytes32)":"a14ff857","setBytes32Arr(bytes32,bytes32,bytes32[])":"5ecef0a2","setString(bytes32,bytes32,string)":"235913f5","setStringArr(bytes32,bytes32,string[])":"947174bc","setUint(bytes32,bytes32,uint256)":"1d60084b","subjectCount()":"639a2e10","subjectVersion(bytes32)":"8e21caca","transferGovernor(address)":"b8cc9ce6","unset(bytes32,bytes32)":"6ad2e7ea","updatedAt(bytes32,bytes32)":"880eadce"},"id":101}