{"abi":[{"type":"function","name":"TEE_NITRO","inputs":[],"outputs":[{"name":"","type":"bytes32","internalType":"bytes32"}],"stateMutability":"view"},{"type":"function","name":"TEE_SEV","inputs":[],"outputs":[{"name":"","type":"bytes32","internalType":"bytes32"}],"stateMutability":"view"},{"type":"function","name":"TEE_SGX","inputs":[],"outputs":[{"name":"","type":"bytes32","internalType":"bytes32"}],"stateMutability":"view"},{"type":"function","name":"TEE_TDX","inputs":[],"outputs":[{"name":"","type":"bytes32","internalType":"bytes32"}],"stateMutability":"view"},{"type":"function","name":"attestationCount","inputs":[],"outputs":[{"name":"","type":"uint256","internalType":"uint256"}],"stateMutability":"view"},{"type":"function","name":"getAgentMeasurements","inputs":[{"name":"agent","type":"address","internalType":"address"}],"outputs":[{"name":"","type":"bytes32[]","internalType":"bytes32[]"}],"stateMutability":"view"},{"type":"function","name":"getAttestation","inputs":[{"name":"codeMeasurement","type":"bytes32","internalType":"bytes32"}],"outputs":[{"name":"agent","type":"address","internalType":"address"},{"name":"teeArch","type":"bytes32","internalType":"bytes32"},{"name":"pcr0","type":"bytes32","internalType":"bytes32"},{"name":"pcr1","type":"bytes32","internalType":"bytes32"},{"name":"pcr2","type":"bytes32","internalType":"bytes32"},{"name":"publicKey","type":"bytes","internalType":"bytes"},{"name":"verifiedAt","type":"uint256","internalType":"uint256"},{"name":"valid","type":"bool","internalType":"bool"}],"stateMutability":"view"},{"type":"function","name":"isValid","inputs":[{"name":"codeMeasurement","type":"bytes32","internalType":"bytes32"}],"outputs":[{"name":"","type":"bool","internalType":"bool"}],"stateMutability":"view"},{"type":"function","name":"revoke","inputs":[{"name":"codeMeasurement","type":"bytes32","internalType":"bytes32"}],"outputs":[],"stateMutability":"nonpayable"},{"type":"function","name":"verify","inputs":[{"name":"agent","type":"address","internalType":"address"},{"name":"teeArch","type":"bytes32","internalType":"bytes32"},{"name":"measurement0","type":"bytes32","internalType":"bytes32"},{"name":"measurement1","type":"bytes32","internalType":"bytes32"},{"name":"measurement2","type":"bytes32","internalType":"bytes32"},{"name":"publicKey","type":"bytes","internalType":"bytes"}],"outputs":[{"name":"codeMeasurement","type":"bytes32","internalType":"bytes32"}],"stateMutability":"nonpayable"},{"type":"function","name":"verifyNitro","inputs":[{"name":"agent","type":"address","internalType":"address"},{"name":"pcr0","type":"bytes32","internalType":"bytes32"},{"name":"pcr1","type":"bytes32","internalType":"bytes32"},{"name":"pcr2","type":"bytes32","internalType":"bytes32"},{"name":"publicKey","type":"bytes","internalType":"bytes"}],"outputs":[{"name":"codeMeasurement","type":"bytes32","internalType":"bytes32"}],"stateMutability":"nonpayable"},{"type":"function","name":"verifyTdx","inputs":[{"name":"agent","type":"address","internalType":"address"},{"name":"mrtd","type":"bytes32","internalType":"bytes32"},{"name":"rtmr0","type":"bytes32","internalType":"bytes32"},{"name":"rtmr1","type":"bytes32","internalType":"bytes32"},{"name":"publicKey","type":"bytes","internalType":"bytes"}],"outputs":[{"name":"codeMeasurement","type":"bytes32","internalType":"bytes32"}],"stateMutability":"nonpayable"},{"type":"event","name":"AttestationRevoked","inputs":[{"name":"agent","type":"address","indexed":true,"internalType":"address"},{"name":"codeMeasurement","type":"bytes32","indexed":true,"internalType":"bytes32"}],"anonymous":false},{"type":"event","name":"AttestationVerified","inputs":[{"name":"agent","type":"address","indexed":true,"internalType":"address"},{"name":"codeMeasurement","type":"bytes32","indexed":true,"internalType":"bytes32"},{"name":"teeArch","type":"bytes32","indexed":false,"internalType":"bytes32"},{"name":"verifiedAt","type":"uint256","indexed":false,"internalType":"uint256"}],"anonymous":false}],"bytecode":{"object":"0x60808060405234601557610ede908161001a8239f35b5f80fdfe6080806040526004361015610012575f80fd5b5f3560e01c9081630926e6de14610a205750806325b597421461096c5780633f73daf41461093257806365c4d07f146108f85780636a938567146108c75780636dfab94e14610614578063781d3bfa1461031d578063839f6ca0146102e3578063a15b9321146102c6578063a3112a6414610187578063b75c7dc6146100de5763ee1cad4c146100a0575f80fd5b346100da575f3660031901126100da5760206040517f0817c61c94b95dd7ad71f9a4ae4511daef0a92a1d8a2707e49bf7228edac62058152f35b5f80fd5b346100da5760203660031901126100da57600435805f525f60205260405f2060088101805460ff8116156101425760ff19169055546001600160a01b03167f75704b363e47b899933f7e712423ef31995da77a16c4c133d2246f3551612a245f80a3005b60405162461bcd60e51b815260206004820152601c60248201527f4e6f7420666f756e64206f7220616c7265616479207265766f6b6564000000006044820152606490fd5b346100da5760203660031901126100da576004355f525f60205260405f2060018060a01b03815416600182015490600383015492600481015490600581015490600681019260ff600860078401549301541692604051915f988654966101ec88610dce565b9081865260208601986001811690815f146102a9575060011461026f575b505061021c846101209a9b0385610dac565b604051998a988952602089015260408801526060870152608086015261010060a0860152518093816101008701528686015e5f84840186015260c0840152151560e0830152601f01601f19168101030190f35b909a505f5260205f205f905b8b821061029357508401602001995061021c8461020a565b6001816020925483858a0101520191019061027b565b60ff19168a525050151560051b8401602001995061021c8461020a565b346100da575f3660031901126100da576020600254604051908152f35b346100da575f3660031901126100da5760206040517fd6639ba1dbe36124dd811df44070d26b8da5ec0f21a6e783e18d94fca82f6bed8152f35b346100da5761032b36610d40565b6040805160208101878152918101869052606081018590529296959394939261036181608081015b03601f198101835282610dac565b519020936040519561037287610d8f565b60018060a01b03169384875260208701937f0817c61c94b95dd7ad71f9a4ae4511daef0a92a1d8a2707e49bf7228edac620585526040880193878552606089019182526080890192835260a0890193845267ffffffffffffffff811161060057604051996103ea601f8301601f19166020018c610dac565b818b5236828201116100da57815f92602092838e01378b01015260c0880198895260e088019342855261010089019560018752885f525f60205260405f209960018060a01b039051166001600160601b0360a01b8b5416178a555160018a015551600289015551600388015551600487015551600586015560068501955195865167ffffffffffffffff8111610600576104848254610dce565b97601f89116105bb575b602098508890601f831160011461054f5792826104e49693899a96936008965f92610544575b50508160011b915f199060031b1c19161790555b51600784015551151591019060ff801983541691151516179055565b805f52600184526104f88260405f20610e61565b61050182610e06565b5f516020610e895f395f51905f52604080517f0817c61c94b95dd7ad71f9a4ae4511daef0a92a1d8a2707e49bf7228edac620581524287820152a3604051908152f35b015190508c806104b4565b90601f19831691845f52815f20925f5b8181106105a4575093899a969360089693600193836104e49b981061058c575b505050811b0190556104c8565b01515f1960f88460031b161c191690558c808061057f565b92938c60018192878601518155019501930161055f565b825f5260205f20601f830160051c810199602084106105f6575b601f0160051c01985b8981106105eb575061048e565b5f81556001016105de565b90995089906105d5565b634e487b7160e01b5f52604160045260245ffd5b346100da5761062236610d40565b6040805160208101878152918101869052606081018590529296959394939261064e8160808101610353565b519020936040519561065f87610d8f565b60018060a01b03169384875260208701937f4e921429feca89dc0711102fd701c2b4e6b93e349267f58170af9c921fd2abe085526040880193878552606089019182526080890192835260a0890193845267ffffffffffffffff811161060057604051996106d7601f8301601f19166020018c610dac565b818b5236828201116100da57815f92602092838e01378b01015260c0880198895260e088019342855261010089019560018752885f525f60205260405f209960018060a01b039051166001600160601b0360a01b8b5416178a555160018a015551600289015551600388015551600487015551600586015560068501955195865167ffffffffffffffff8111610600576107718254610dce565b97601f8911610882575b602098508890601f831160011461082f5792826107cf9693899a96936008965f926105445750508160011b915f199060031b1c191617905551600784015551151591019060ff801983541691151516179055565b805f52600184526107e38260405f20610e61565b6107ec82610e06565b5f516020610e895f395f51905f52604080517f4e921429feca89dc0711102fd701c2b4e6b93e349267f58170af9c921fd2abe081524287820152a3604051908152f35b90601f19831691845f52815f20925f5b81811061086b575093899a969360089693600193836107cf9b981061058c57505050811b0190556104c8565b92938c60018192878601518155019501930161083f565b825f5260205f20601f830160051c810199602084106108bd575b601f0160051c01985b8981106108b2575061077b565b5f81556001016108a5565b909950899061089c565b346100da5760203660031901126100da576004355f525f602052602060ff600860405f200154166040519015158152f35b346100da575f3660031901126100da5760206040517f4e921429feca89dc0711102fd701c2b4e6b93e349267f58170af9c921fd2abe08152f35b346100da575f3660031901126100da5760206040517f84eae074e25154e45bc8a11f43443ae78c7c3ffc11f47e45ee041db896b3ec7d8152f35b346100da5760203660031901126100da576001600160a01b0361098d610cfc565b165f52600160205260405f20604051806020835491828152019081935f5260205f20905f5b818110610a0a57505050816109c8910382610dac565b604051918291602083019060208452518091526040830191905f5b8181106109f1575050500390f35b82518452859450602093840193909201916001016109e3565b82548452602090930192600192830192016109b2565b346100da5760c03660031901126100da57610a39610cfc565b60243590608435906064359060443560a43567ffffffffffffffff81116100da57610a68903690600401610d12565b90966020810190610a8f816103538989888791606093918352602083015260408201520190565b5190209460405193610aa085610d8f565b60018060a01b03169485855260208501938885526040860193888552606087019182526080870192835260a0870193845267ffffffffffffffff8111610600576040519a610af8601f8301601f19166020018d610dac565b818c5236828201116100da57815f92602092838f01378c01015260c08601998a5260e086019342855261010087019560018752895f525f60205260405f209760018060a01b039051166001600160601b0360a01b89541617885551600188015551600287015551600386015551600485015551600584015560068301965196875167ffffffffffffffff811161060057610b928254610dce565b98601f8a11610cb7575b602099508990601f8311600114610c3b5794889994610c0194845f516020610e895f395f51905f52999560089560409a5f92610c305750508160011b915f199060031b1c191617905551600784015551151591019060ff801983541691151516179055565b835f5260018752610c1485835f20610e61565b610c1d85610e06565b81519081524287820152a3604051908152f35b015190508f806104b4565b90601f19831691845f52815f20925f5b818110610ca057509460018560089560409a958e9f9a955f516020610e895f395f51905f529d99610c019b10610c8857505050811b0190556104c8565b01515f1960f88460031b161c191690558f808061057f565b92938d600181928786015181550195019301610c4b565b825f5260205f20601f830160051c81019a60208410610cf2575b601f0160051c01995b8a8110610ce75750610b9c565b5f8155600101610cda565b909a508a90610cd1565b600435906001600160a01b03821682036100da57565b9181601f840112156100da5782359167ffffffffffffffff83116100da57602083818601950101116100da57565b60a06003198201126100da576004356001600160a01b03811681036100da57916024359160443591606435916084359067ffffffffffffffff82116100da57610d8b91600401610d12565b9091565b610120810190811067ffffffffffffffff82111761060057604052565b90601f8019910116810190811067ffffffffffffffff82111761060057604052565b90600182811c92168015610dfc575b6020831014610de857565b634e487b7160e01b5f52602260045260245ffd5b91607f1691610ddd565b600254600160401b811015610600576001810180600255811015610e4d5760025f527f405787fa12a823e0f2b7631cc41b3ba8828b3321ca811111fa75cd3aa3bb5ace0155565b634e487b7160e01b5f52603260045260245ffd5b805490600160401b8210156106005760018201808255821015610e4d575f5260205f20015556fec8c7bbdf68e24f106c432f9dfbc716a5fe5f7dd8e3b3a8ad424b2535e2f06193a26469706673582212206c791ebaedc47b9b636b68ac76ce847d09bf65c1e23664149076d66363354f7264736f6c634300081c0033","linkReferences":{}},"methodIdentifiers":{"TEE_NITRO()":"ee1cad4c","TEE_SEV()":"3f73daf4","TEE_SGX()":"839f6ca0","TEE_TDX()":"65c4d07f","attestationCount()":"a15b9321","getAgentMeasurements(address)":"25b59742","getAttestation(bytes32)":"a3112a64","isValid(bytes32)":"6a938567","revoke(bytes32)":"b75c7dc6","verify(address,bytes32,bytes32,bytes32,bytes32,bytes)":"0926e6de","verifyNitro(address,bytes32,bytes32,bytes32,bytes)":"781d3bfa","verifyTdx(address,bytes32,bytes32,bytes32,bytes)":"6dfab94e"},"id":89}