{"abi":[{"type":"function","name":"activateTemplate","inputs":[{"name":"templateId","type":"uint256","internalType":"uint256"}],"outputs":[],"stateMutability":"nonpayable"},{"type":"function","name":"createTemplate","inputs":[{"name":"relationshipType","type":"bytes32","internalType":"bytes32"},{"name":"role","type":"bytes32","internalType":"bytes32"},{"name":"name","type":"string","internalType":"string"},{"name":"templateDescription","type":"string","internalType":"string"},{"name":"caveats","type":"tuple[]","internalType":"struct AgentRelationshipTemplate.CaveatRequirement[]","components":[{"name":"enforcer","type":"address","internalType":"address"},{"name":"required","type":"bool","internalType":"bool"},{"name":"defaultTerms","type":"bytes","internalType":"bytes"}]},{"name":"delegationSchemaURI","type":"string","internalType":"string"},{"name":"metadataURI","type":"string","internalType":"string"}],"outputs":[{"name":"templateId","type":"uint256","internalType":"uint256"}],"stateMutability":"nonpayable"},{"type":"function","name":"deactivateTemplate","inputs":[{"name":"templateId","type":"uint256","internalType":"uint256"}],"outputs":[],"stateMutability":"nonpayable"},{"type":"function","name":"getCaveatRequirements","inputs":[{"name":"templateId","type":"uint256","internalType":"uint256"}],"outputs":[{"name":"","type":"tuple[]","internalType":"struct AgentRelationshipTemplate.CaveatRequirement[]","components":[{"name":"enforcer","type":"address","internalType":"address"},{"name":"required","type":"bool","internalType":"bool"},{"name":"defaultTerms","type":"bytes","internalType":"bytes"}]}],"stateMutability":"view"},{"type":"function","name":"getTemplate","inputs":[{"name":"templateId","type":"uint256","internalType":"uint256"}],"outputs":[{"name":"id_","type":"uint256","internalType":"uint256"},{"name":"relationshipType","type":"bytes32","internalType":"bytes32"},{"name":"role","type":"bytes32","internalType":"bytes32"},{"name":"name","type":"string","internalType":"string"},{"name":"templateDescription","type":"string","internalType":"string"},{"name":"delegationSchemaURI","type":"string","internalType":"string"},{"name":"metadataURI","type":"string","internalType":"string"},{"name":"createdBy","type":"address","internalType":"address"},{"name":"createdAt","type":"uint256","internalType":"uint256"},{"name":"active","type":"bool","internalType":"bool"}],"stateMutability":"view"},{"type":"function","name":"getTemplatesByTypeAndRole","inputs":[{"name":"relationshipType","type":"bytes32","internalType":"bytes32"},{"name":"role","type":"bytes32","internalType":"bytes32"}],"outputs":[{"name":"","type":"uint256[]","internalType":"uint256[]"}],"stateMutability":"view"},{"type":"function","name":"templateCount","inputs":[],"outputs":[{"name":"","type":"uint256","internalType":"uint256"}],"stateMutability":"view"},{"type":"event","name":"TemplateActivated","inputs":[{"name":"templateId","type":"uint256","indexed":true,"internalType":"uint256"}],"anonymous":false},{"type":"event","name":"TemplateCreated","inputs":[{"name":"templateId","type":"uint256","indexed":true,"internalType":"uint256"},{"name":"relationshipType","type":"bytes32","indexed":true,"internalType":"bytes32"},{"name":"role","type":"bytes32","indexed":true,"internalType":"bytes32"},{"name":"name","type":"string","indexed":false,"internalType":"string"},{"name":"createdBy","type":"address","indexed":false,"internalType":"address"}],"anonymous":false},{"type":"event","name":"TemplateDeactivated","inputs":[{"name":"templateId","type":"uint256","indexed":true,"internalType":"uint256"}],"anonymous":false},{"type":"error","name":"NotAuthorized","inputs":[]},{"type":"error","name":"TemplateNotFound","inputs":[]}],"bytecode":{"object":"0x60808060405234601557610d77908161001a8239f35b5f80fdfe6080806040526004361015610012575f80fd5b5f3560e01c9081630ba91bf714610ae0575080631d1a689e14610a7457806326705c3c14610a585780632cc095b1146108fc57806331543cf4146107cd5780639e060763146107405763e199791714610069575f80fd5b346104b65760e03660031901126104b6576044356001600160401b0381116104b657610099903690600401610bb3565b6064356001600160401b0381116104b6576100b8903690600401610bb3565b9290608435936001600160401b0385116104b657366023860112156104b6576001600160401b038560040135116104b657366024866004013560051b870101116104b65760a4356001600160401b0381116104b65761011b903690600401610bb3565b9060c4356001600160401b0381116104b65761013b903690600401610bb3565b9190925f5495600160401b8710156104ce57600187015f5561015c87610c01565b505061016787610c01565b5095878755600435600188015560243560028801556001600160401b038a116104ce576101a48a61019b60038a0154610c39565b60038a01610cf2565b5f8a601f81116001146106d557806101d0925f916106ca575b508160011b915f199060031b1c19161790565b60038801555b60048701916001600160401b0382116104ce576101fd826101f78554610c39565b85610cf2565b5f90601f83116001146106665761022b92915f918361058c575b50508160011b915f199060031b1c19161790565b90555b60068501916001600160401b0382116104ce5761024f826101f78554610c39565b5f90601f83116001146106025761027c92915f918361058c5750508160011b915f199060031b1c19161790565b90555b60078301916001600160401b0382116104ce576102a0826101f78554610c39565b5f90601f83116001146105975791806102d292600a9695945f9261058c5750508160011b915f199060031b1c19161790565b90559392935b6008810180546001600160a01b0319163317905542600982015501805460ff191660011790553684900360821901915f5b85600401358110156104e257825f52600260205260405f2060248260051b88010135858112156104b657870190805490600160401b8210156104ce57600182018082558210156104ba575f5260205f209060011b01602482013560018060a01b03811681036104b65781546001600160a01b0319166001600160a01b0391909116178155604482013580151591908290036104b657805460ff60a01b191660a09290921b60ff60a01b1691909117815560010190606481013560421936839003018112156104b657016024018035906001600160401b0382116104b65781360360208201136104b657610400826101f78554610c39565b5f90601f83116001146104495791806104329260019695945f9261043b5750508160011b915f199060031b1c19161790565b90555b01610309565b602092500101355f80610217565b601f19831691845f5260205f20925f5b81811061049c575091600196959492918388959310610480575b505050811b019055610435565b01602001355f19600384901b60f8161c191690555f8080610473565b919360206001819282888801013581550195019201610459565b5f80fd5b634e487b7160e01b5f52603260045260245ffd5b634e487b7160e01b5f52604160045260245ffd5b5090836004355f52600160205260405f206024355f5260205260405f2092835493600160401b8510156104ce57600185018082558510156104ba5760209484915f52855f20015580604051926040845281604085015260608401375f606082840101523384830152827f9cdf4614fb6de4e964242ab81502e08bdbbd97d5074a7a185cca79b1ff040a516024359360608160043595601f80199101168101030190a4604051908152f35b013590505f80610217565b601f19831691845f5260205f20925f5b8181106105ea5750916001939185600a98979694106105d1575b505050811b0190559392936102d8565b01355f19600384901b60f8161c191690555f80806105c1565b919360206001819287870135815501950192016105a7565b601f19831691845f5260205f20925f5b81811061064e5750908460019594939210610635575b505050811b01905561027f565b01355f19600384901b60f8161c191690555f8080610628565b91936020600181928787013581550195019201610612565b601f19831691845f5260205f20925f5b8181106106b25750908460019594939210610699575b505050811b01905561022e565b01355f19600384901b60f8161c191690555f808061068c565b91936020600181928787013581550195019201610676565b90508b01355f6101bd565b50600388015f5260205f20905f5b8b601f198e1682106107285750508b601f1981161061070f575b505060018a811b0160038801556101d6565b8a01355f1960038d901b60f8161c191690555f806106fd565b600183946020939484930135815501930191016106e3565b346104b65760203660031901126104b6576004355f548110156107be5761076681610c01565b5060088101546001600160a01b031633036107af57600a01805460ff191660011790557f0d40aeaa40661ce3a785bb569acbec41fe6811c2b9b40374eee211f7bde9d57f5f80a2005b63ea8e4eb560e01b5f5260045ffd5b631a9a8c6b60e21b5f5260045ffd5b346104b65760203660031901126104b6576004355f548110156107be576107f5602091610c01565b5080549060018101546002820154906108e460076108d660018060a01b03600887015416956108c86009820154956108ba60ff600a85015416986040519061084b826108448160038a01610c71565b0383610be0565b60405193610867856108608160048b01610c71565b0386610be0565b610896604051976108868961087f8160068501610c71565b038a610be0565b61087f604051809c819301610c71565b6040519e8f9e8f908152015260408d015261014060608d01526101408c0190610b8f565b908a820360808c0152610b8f565b9088820360a08a0152610b8f565b9086820360c0880152610b8f565b9260e085015261010084015215156101208301520390f35b346104b65760203660031901126104b6576004355f548110156107be575f52600260205260405f208054906001600160401b0382116104ce576040519161094960208260051b0184610be0565b808352602083019081925f5260205f20915f905b8282106109ee57848660405191829160208301906020845251809152604083019060408160051b85010192915f905b82821061099b57505050500390f35b919360019193955060206109de8192603f198a8203018652606060408a51878060a01b038151168452858101511515868501520151918160408201520190610b8f565b960192019201859493919261098c565b604051606081018181106001600160401b038211176104ce5760019260029260209260405260ff8854868060a01b038116835260a01c16151583820152604051610a4581610a3e81898d01610c71565b0382610be0565b604082015281520194019101909261095d565b346104b6575f3660031901126104b65760205f54604051908152f35b346104b65760203660031901126104b6576004355f548110156107be57610a9a81610c01565b5060088101546001600160a01b031633036107af57600a01805460ff191690557f39985767bcf8b3750746daea802fa7221d3057b28d5be7162a167c5e69a065f25f80a2005b346104b65760403660031901126104b6576004355f52600160205260405f206024355f5260205260405f20908154808252602082019081935f5260205f20905f5b818110610b795750505081610b37910382610be0565b604051918291602083019060208452518091526040830191905f5b818110610b60575050500390f35b8251845285945060209384019390920191600101610b52565b8254845260209093019260019283019201610b21565b805180835260209291819084018484015e5f828201840152601f01601f1916010190565b9181601f840112156104b6578235916001600160401b0383116104b657602083818601950101116104b657565b90601f801991011681019081106001600160401b038211176104ce57604052565b5f548110156104ba575f808052600b919091027f290decd9548b62a8d60345a988386fc84ba6bc95484008f6362f93160ef3e5630191565b90600182811c92168015610c67575b6020831014610c5357565b634e487b7160e01b5f52602260045260245ffd5b91607f1691610c48565b5f9291815491610c8083610c39565b8083529260018116908115610cd55750600114610c9c57505050565b5f9081526020812093945091925b838310610cbb575060209250010190565b600181602092949394548385870101520191019190610caa565b915050602093945060ff929192191683830152151560051b010190565b601f8211610cff57505050565b5f5260205f20906020601f840160051c83019310610d37575b601f0160051c01905b818110610d2c575050565b5f8155600101610d21565b9091508190610d1856fea2646970667358221220ac055a8bfa7c9e6a40b6c33b4d8e2522aad8fe7bd873465b527d0f70bf5295bd64736f6c634300081c0033","linkReferences":{}},"methodIdentifiers":{"activateTemplate(uint256)":"9e060763","createTemplate(bytes32,bytes32,string,string,(address,bool,bytes)[],string,string)":"e1997917","deactivateTemplate(uint256)":"1d1a689e","getCaveatRequirements(uint256)":"2cc095b1","getTemplate(uint256)":"31543cf4","getTemplatesByTypeAndRole(bytes32,bytes32)":"0ba91bf7","templateCount()":"26705c3c"},"id":65}