{"abi":[{"type":"constructor","inputs":[{"name":"signer_","type":"address","internalType":"address"}],"stateMutability":"nonpayable"},{"type":"function","name":"isPaused","inputs":[],"outputs":[{"name":"","type":"bool","internalType":"bool"}],"stateMutability":"view"},{"type":"function","name":"isSigner","inputs":[{"name":"who","type":"address","internalType":"address"}],"outputs":[{"name":"","type":"bool","internalType":"bool"}],"stateMutability":"view"},{"type":"function","name":"pausedFlag","inputs":[],"outputs":[{"name":"","type":"bool","internalType":"bool"}],"stateMutability":"view"},{"type":"function","name":"setPaused","inputs":[{"name":"v","type":"bool","internalType":"bool"}],"outputs":[],"stateMutability":"nonpayable"},{"type":"function","name":"signer","inputs":[],"outputs":[{"name":"","type":"address","internalType":"address"}],"stateMutability":"view"}],"bytecode":{"object":"0x608034607e57601f6101c738819003918201601f19168301916001600160401b03831184841017608257808492602094604052833981010312607e57516001600160a01b0381168103607e575f8054610100600160a81b03191660089290921b610100600160a81b031691909117905560405161013090816100978239f35b5f80fd5b634e487b7160e01b5f52604160045260245ffdfe60808060405260043610156011575f80fd5b5f3560e01c90816316c38b3c1460cf578163238ac9331460ac5750806323cac62e14604d5780637df73e271460705763b187bd2614604d575f80fd5b34606c575f366003190112606c57602060ff5f54166040519015158152f35b5f80fd5b34606c576020366003190112606c576004356001600160a01b03811690819003606c5760209060018060a01b035f5460081c1614604051908152f35b34606c575f366003190112606c575f5460081c6001600160a01b03168152602090f35b34606c576020366003190112606c57600435801515809103606c5760ff80195f54169116175f555f80f3fea26469706673582212205a56fca6e0ce642fd043c89248f1baf7cb991c828f273b9879b9157705fee22b64736f6c634300081c0033","linkReferences":{}},"methodIdentifiers":{"isPaused()":"b187bd26","isSigner(address)":"7df73e27","pausedFlag()":"23cac62e","setPaused(bool)":"16c38b3c","signer()":"238ac933"},"id":144}