{"abi":[{"type":"function","name":"TEE_NITRO","inputs":[],"outputs":[{"name":"","type":"bytes32","internalType":"bytes32"}],"stateMutability":"view"},{"type":"function","name":"TEE_NONE","inputs":[],"outputs":[{"name":"","type":"bytes32","internalType":"bytes32"}],"stateMutability":"view"},{"type":"function","name":"TEE_SEV","inputs":[],"outputs":[{"name":"","type":"bytes32","internalType":"bytes32"}],"stateMutability":"view"},{"type":"function","name":"TEE_SGX","inputs":[],"outputs":[{"name":"","type":"bytes32","internalType":"bytes32"}],"stateMutability":"view"},{"type":"function","name":"TEE_TDX","inputs":[],"outputs":[{"name":"","type":"bytes32","internalType":"bytes32"}],"stateMutability":"view"},{"type":"function","name":"getValidation","inputs":[{"name":"validationId","type":"uint256","internalType":"uint256"}],"outputs":[{"name":"","type":"tuple","internalType":"struct AgentValidationProfile.ValidationRecord","components":[{"name":"validationId","type":"uint256","internalType":"uint256"},{"name":"agent","type":"address","internalType":"address"},{"name":"assertionId","type":"uint256","internalType":"uint256"},{"name":"validationMethod","type":"bytes32","internalType":"bytes32"},{"name":"verifierContract","type":"address","internalType":"address"},{"name":"teeArch","type":"bytes32","internalType":"bytes32"},{"name":"codeMeasurement","type":"bytes32","internalType":"bytes32"},{"name":"evidenceURI","type":"string","internalType":"string"},{"name":"validatedBy","type":"address","internalType":"address"},{"name":"validatedAt","type":"uint256","internalType":"uint256"}]}],"stateMutability":"view"},{"type":"function","name":"getValidationsByAgent","inputs":[{"name":"agent","type":"address","internalType":"address"}],"outputs":[{"name":"","type":"uint256[]","internalType":"uint256[]"}],"stateMutability":"view"},{"type":"function","name":"getValidationsByAssertion","inputs":[{"name":"assertionId","type":"uint256","internalType":"uint256"}],"outputs":[{"name":"","type":"uint256[]","internalType":"uint256[]"}],"stateMutability":"view"},{"type":"function","name":"getValidationsByValidator","inputs":[{"name":"validator","type":"address","internalType":"address"}],"outputs":[{"name":"","type":"uint256[]","internalType":"uint256[]"}],"stateMutability":"view"},{"type":"function","name":"recordValidation","inputs":[{"name":"agent","type":"address","internalType":"address"},{"name":"assertionId","type":"uint256","internalType":"uint256"},{"name":"validationMethod","type":"bytes32","internalType":"bytes32"},{"name":"verifierContract","type":"address","internalType":"address"},{"name":"teeArch","type":"bytes32","internalType":"bytes32"},{"name":"codeMeasurement","type":"bytes32","internalType":"bytes32"},{"name":"evidenceURI","type":"string","internalType":"string"}],"outputs":[{"name":"validationId","type":"uint256","internalType":"uint256"}],"stateMutability":"nonpayable"},{"type":"function","name":"validationCount","inputs":[],"outputs":[{"name":"","type":"uint256","internalType":"uint256"}],"stateMutability":"view"},{"type":"event","name":"ValidationRecorded","inputs":[{"name":"validationId","type":"uint256","indexed":true,"internalType":"uint256"},{"name":"agent","type":"address","indexed":true,"internalType":"address"},{"name":"validationMethod","type":"bytes32","indexed":false,"internalType":"bytes32"},{"name":"validatedBy","type":"address","indexed":true,"internalType":"address"}],"anonymous":false},{"type":"error","name":"ValidationNotFound","inputs":[]}],"bytecode":{"object":"0x60808060405234601557610a1c908161001a8239f35b5f80fdfe6080806040526004361015610012575f80fd5b5f3560e01c9081631dd9870a146105595750806324ca3de3146104e75780633e4d0904146104835780633f73daf41461044957806365c4d07f1461040f57806379eb9741146103f55780638392ae5c146101ab578063839f6ca014610171578063a2d4d65f14610155578063cda388ff146100d35763ee1cad4c14610095575f80fd5b346100cf575f3660031901126100cf5760206040517f0817c61c94b95dd7ad71f9a4ae4511daef0a92a1d8a2707e49bf7228edac62058152f35b5f80fd5b346100cf5760203660031901126100cf576001600160a01b036100f46108ad565b165f52600360205260405f206040519081602082549182815201915f5260205f20905f5b81811061013f5761013b8561012f81870382610919565b604051918291826108c3565b0390f35b8254845260209093019260019283019201610118565b346100cf575f3660031901126100cf5760205f54604051908152f35b346100cf575f3660031901126100cf5760206040517fd6639ba1dbe36124dd811df44070d26b8da5ec0f21a6e783e18d94fca82f6bed8152f35b346100cf5760203660031901126100cf576004355f6101206040516101cf816108fc565b8281528260208201528260408201528260608201528260808201528260a08201528260c0820152606060e08201528261010082015201525f548110156103e6576102189061093b565b50604051610225816108fc565b8154815260018060a01b0360018301541691602082019283526002810154906040830191825260038101546060840190815260018060a01b0360048301541660808501908152600583015460a0860190815260068401549160c087019283526007850193604051945f9080549061029b82610987565b80895291600181169081156103bf5750600114610382575b8b6101808c60208d8d8d8d8d8d8d6102cd858f0386610919565b60e08901948552600960018060a01b03600888015416966101008b019788520154966101208a019788526040519b8c9a8a8c52518a8c015260018060a01b0390511660408b01525160608a015251608089015260018060a01b0390511660a08801525160c08701525160e086015251610140610100860152805193849182610160880152018686015e5f848401860152516001600160a01b031661012084015251610140830152601f01601f19168101030190f35b5f908152602081209092505b8183106103a55750508501602001816102cd6102b3565b6001816020929493945483858c010152019101919061038e565b60ff191660208a81019190915292151560051b890190920192508391506102cd90506102b3565b637f7667e360e11b5f5260045ffd5b346100cf575f3660031901126100cf5760206040515f8152f35b346100cf575f3660031901126100cf5760206040517f4e921429feca89dc0711102fd701c2b4e6b93e349267f58170af9c921fd2abe08152f35b346100cf575f3660031901126100cf5760206040517f84eae074e25154e45bc8a11f43443ae78c7c3ffc11f47e45ee041db896b3ec7d8152f35b346100cf5760203660031901126100cf576004355f52600260205260405f206040519081602082549182815201915f5260205f20905f5b8181106104d15761013b8561012f81870382610919565b82548452602090930192600192830192016104ba565b346100cf5760203660031901126100cf576001600160a01b036105086108ad565b165f52600160205260405f206040519081602082549182815201915f5260205f20905f5b8181106105435761013b8561012f81870382610919565b825484526020909301926001928301920161052c565b346100cf5760e03660031901126100cf576105726108ad565b6064356001600160a01b0381169160443591602435908490036100cf5760c4359467ffffffffffffffff86116100cf57366023870112156100cf5785600401359267ffffffffffffffff84116100cf5736602485890101116100cf575f54956105da836108fc565b8683526020830191600160a01b600190031694858352604084019185835260608501908882526080860190815260a0860191608435835260c087019360a435855280604051809e601f19601f8401166020016106369083610919565b82825260240190602001378c016020015f905260e087019b8c52610100870194338652610120880196428852600160401b8d10156108865760018d015f5561067d8d61093b565b99909961089a57518955516001890180546001600160a01b03199081166001600160a01b0393841617909155915160028a0155915160038901559151600488018054909316911617905551600585015551600684015596518051909790600784019067ffffffffffffffff8111610886576106f88254610987565b99601f8b11610841575b60209a508a90601f83116001146107da57600995949392915f91836107cf575b50508160011b915f199060031b1c19161790555b516008840180546001600160a01b0319166001600160a01b0392909216919091179055519101555f82815260018652604090206107749085906109bf565b5f52600284526107878360405f206109bf565b335f526003845261079b8360405f206109bf565b604051918252827f558aa62319f46c98e5554e35f491121a0acdd207896a5f400c29b80032a7c477853394a4604051908152f35b015190508c80610722565b90601f19831691845f52815f20925f5b81811061082a57509160019391856009999897969410610812575b505050811b019055610736565b01515f1960f88460031b161c191690558c8080610805565b92938e6001819287860151815501950193016107ea565b825f5260205f20601f830160051c81019b6020841061087c575b601f0160051c019a5b8b81106108715750610702565b5f8155600101610864565b909b508b9061085b565b634e487b7160e01b5f52604160045260245ffd5b634e487b7160e01b5f525f60045260245ffd5b600435906001600160a01b03821682036100cf57565b60206040818301928281528451809452019201905f5b8181106108e65750505090565b82518452602093840193909201916001016108d9565b610140810190811067ffffffffffffffff82111761088657604052565b90601f8019910116810190811067ffffffffffffffff82111761088657604052565b5f54811015610973575f808052600a919091027f290decd9548b62a8d60345a988386fc84ba6bc95484008f6362f93160ef3e5630191565b634e487b7160e01b5f52603260045260245ffd5b90600182811c921680156109b5575b60208310146109a157565b634e487b7160e01b5f52602260045260245ffd5b91607f1691610996565b805490600160401b8210156108865760018201808255821015610973575f5260205f20015556fea26469706673582212204d5e9142d99c1624f863a2523020605a65f9750f081ac6770d7b207b2e87c65364736f6c634300081c0033","linkReferences":{}},"methodIdentifiers":{"TEE_NITRO()":"ee1cad4c","TEE_NONE()":"79eb9741","TEE_SEV()":"3f73daf4","TEE_SGX()":"839f6ca0","TEE_TDX()":"65c4d07f","getValidation(uint256)":"8392ae5c","getValidationsByAgent(address)":"24ca3de3","getValidationsByAssertion(uint256)":"3e4d0904","getValidationsByValidator(address)":"cda388ff","recordValidation(address,uint256,bytes32,address,bytes32,bytes32,string)":"1dd9870a","validationCount()":"a2d4d65f"},"id":80}