{"abi":[{"type":"function","name":"TEE_NITRO","inputs":[],"outputs":[{"name":"","type":"bytes32","internalType":"bytes32"}],"stateMutability":"view"},{"type":"function","name":"TEE_NONE","inputs":[],"outputs":[{"name":"","type":"bytes32","internalType":"bytes32"}],"stateMutability":"view"},{"type":"function","name":"TEE_SEV","inputs":[],"outputs":[{"name":"","type":"bytes32","internalType":"bytes32"}],"stateMutability":"view"},{"type":"function","name":"TEE_SGX","inputs":[],"outputs":[{"name":"","type":"bytes32","internalType":"bytes32"}],"stateMutability":"view"},{"type":"function","name":"TEE_TDX","inputs":[],"outputs":[{"name":"","type":"bytes32","internalType":"bytes32"}],"stateMutability":"view"},{"type":"function","name":"getValidation","inputs":[{"name":"validationId","type":"uint256","internalType":"uint256"}],"outputs":[{"name":"","type":"tuple","internalType":"struct AgentValidationProfile.ValidationRecord","components":[{"name":"validationId","type":"uint256","internalType":"uint256"},{"name":"assertionId","type":"uint256","internalType":"uint256"},{"name":"validationMethod","type":"bytes32","internalType":"bytes32"},{"name":"verifierContract","type":"address","internalType":"address"},{"name":"teeArch","type":"bytes32","internalType":"bytes32"},{"name":"codeMeasurement","type":"bytes32","internalType":"bytes32"},{"name":"evidenceURI","type":"string","internalType":"string"},{"name":"validatedBy","type":"address","internalType":"address"},{"name":"validatedAt","type":"uint256","internalType":"uint256"}]}],"stateMutability":"view"},{"type":"function","name":"getValidationsByAssertion","inputs":[{"name":"assertionId","type":"uint256","internalType":"uint256"}],"outputs":[{"name":"","type":"uint256[]","internalType":"uint256[]"}],"stateMutability":"view"},{"type":"function","name":"getValidationsByValidator","inputs":[{"name":"validator","type":"address","internalType":"address"}],"outputs":[{"name":"","type":"uint256[]","internalType":"uint256[]"}],"stateMutability":"view"},{"type":"function","name":"recordValidation","inputs":[{"name":"assertionId","type":"uint256","internalType":"uint256"},{"name":"validationMethod","type":"bytes32","internalType":"bytes32"},{"name":"verifierContract","type":"address","internalType":"address"},{"name":"teeArch","type":"bytes32","internalType":"bytes32"},{"name":"codeMeasurement","type":"bytes32","internalType":"bytes32"},{"name":"evidenceURI","type":"string","internalType":"string"}],"outputs":[{"name":"validationId","type":"uint256","internalType":"uint256"}],"stateMutability":"nonpayable"},{"type":"function","name":"validationCount","inputs":[],"outputs":[{"name":"","type":"uint256","internalType":"uint256"}],"stateMutability":"view"},{"type":"event","name":"ValidationRecorded","inputs":[{"name":"validationId","type":"uint256","indexed":true,"internalType":"uint256"},{"name":"assertionId","type":"uint256","indexed":true,"internalType":"uint256"},{"name":"validationMethod","type":"bytes32","indexed":false,"internalType":"bytes32"},{"name":"validatedBy","type":"address","indexed":true,"internalType":"address"}],"anonymous":false},{"type":"error","name":"ValidationNotFound","inputs":[]}],"bytecode":{"object":"0x60808060405234601557610920908161001a8239f35b5f80fdfe6080806040526004361015610012575f80fd5b5f3560e01c9081633e4d090414610768575080633f73daf41461072e578063480b51401461041857806365c4d07f146103de57806379eb9741146103c45780638392ae5c146101a4578063839f6ca01461016a578063a2d4d65f1461014e578063cda388ff146100c85763ee1cad4c1461008a575f80fd5b346100c4575f3660031901126100c45760206040517f0817c61c94b95dd7ad71f9a4ae4511daef0a92a1d8a2707e49bf7228edac62058152f35b5f80fd5b346100c45760203660031901126100c4576004356001600160a01b038116908190036100c4575f52600260205260405f206040519081602082549182815201915f5260205f20905f5b81811061013857610134856101288187038261081d565b604051918291826107c7565b0390f35b8254845260209093019260019283019201610111565b346100c4575f3660031901126100c45760205f54604051908152f35b346100c4575f3660031901126100c45760206040517fd6639ba1dbe36124dd811df44070d26b8da5ec0f21a6e783e18d94fca82f6bed8152f35b346100c45760203660031901126100c4576004355f6101006040516101c881610800565b8281528260208201528260408201528260608201528260808201528260a0820152606060c08201528260e082015201525f548110156103b55761020a9061083f565b5060405161021781610800565b815481526001820154602082019081526002830154604080840191825260038501546001600160a01b031660608501908152600486015460808601908152600587015460a08701908152925160068801805496989596919493915f9161027c8261088b565b808852916001811690811561038e5750600114610351575b8a6101608b60208c8c8c8c8c8c6102ad848e038561081d565b60c08801938452600860018060a01b036007870154169560e08a0196875201549561010089019687526040519a8b99898b5251898b01525160408a015251606089015260018060a01b0390511660808801525160a08701525160c08601525161012060e0860152805193849182610140880152018686015e5f848401860152516001600160a01b031661010084015251610120830152601f01601f19168101030190f35b5f908152602081209092505b8183106103745750508401602001816102ad610294565b6001816020929493945483858b010152019101919061035d565b60ff19166020808a019190915292151560051b880190920192508391506102ad9050610294565b637f7667e360e11b5f5260045ffd5b346100c4575f3660031901126100c45760206040515f8152f35b346100c4575f3660031901126100c45760206040517f4e921429feca89dc0711102fd701c2b4e6b93e349267f58170af9c921fd2abe08152f35b346100c45760c03660031901126100c4576004356044356001600160a01b03811690602435908290036100c45760a4359267ffffffffffffffff84116100c457366023850112156100c45783600401359267ffffffffffffffff84116100c45736602485870101116100c4575f54936040519161049483610800565b85835260208301918483526040840191868352606085019081526080850190606435825260a08601926084358452806040519b8c601f19601f8401166020016104dc9161081d565b818d5260240160208d01378a016020015f905260c08601998a5260e0860193338552610100870195428752600160401b8b10156107075760018b015f556105228b61083f565b98909861071b57518855516001880155516002870155516003860180546001600160a01b0319166001600160a01b039290921691909117905551600485015551600584015595518051909690600684019067ffffffffffffffff81116107075761058c825461088b565b98601f8a116106c2575b602099508990601f831160011461065b57600895949392915f9183610650575b50508160011b915f199060031b1c19161790555b516007840180546001600160a01b0319166001600160a01b0392909216919091179055519101555f81815260018552604090206106089084906108c3565b335f526002845261061c8360405f206108c3565b604051918252827f0a72f21712c3a1eda72c23a80872858a6c4c4465ee541bb76a085eac3eaa189f853394a4604051908152f35b015190508b806105b6565b90601f19831691845f52815f20925f5b8181106106ab57509160019391856008999897969410610693575b505050811b0190556105ca565b01515f1960f88460031b161c191690558b8080610686565b92938d60018192878601518155019501930161066b565b825f5260205f20601f830160051c81019a602084106106fd575b601f0160051c01995b8a81106106f25750610596565b5f81556001016106e5565b909a508a906106dc565b634e487b7160e01b5f52604160045260245ffd5b634e487b7160e01b5f525f60045260245ffd5b346100c4575f3660031901126100c45760206040517f84eae074e25154e45bc8a11f43443ae78c7c3ffc11f47e45ee041db896b3ec7d8152f35b346100c45760203660031901126100c4576004355f52600160205260405f20805480835260208301915f5260205f20905f5b8181106107b157610134856101288187038261081d565b825484526020909301926001928301920161079a565b60206040818301928281528451809452019201905f5b8181106107ea5750505090565b82518452602093840193909201916001016107dd565b610120810190811067ffffffffffffffff82111761070757604052565b90601f8019910116810190811067ffffffffffffffff82111761070757604052565b5f54811015610877575f8080526009919091027f290decd9548b62a8d60345a988386fc84ba6bc95484008f6362f93160ef3e5630191565b634e487b7160e01b5f52603260045260245ffd5b90600182811c921680156108b9575b60208310146108a557565b634e487b7160e01b5f52602260045260245ffd5b91607f169161089a565b805490600160401b8210156107075760018201808255821015610877575f5260205f20015556fea2646970667358221220d0469cb5a2f169b121b460405e519c1ea08bb8175c47c2398a5b5f39f745239464736f6c634300081c0033","linkReferences":{}},"methodIdentifiers":{"TEE_NITRO()":"ee1cad4c","TEE_NONE()":"79eb9741","TEE_SEV()":"3f73daf4","TEE_SGX()":"839f6ca0","TEE_TDX()":"65c4d07f","getValidation(uint256)":"8392ae5c","getValidationsByAssertion(uint256)":"3e4d0904","getValidationsByValidator(address)":"cda388ff","recordValidation(uint256,bytes32,address,bytes32,bytes32,string)":"480b5140","validationCount()":"a2d4d65f"},"id":68}