{"abi":[{"type":"function","name":"getSession","inputs":[{"name":"account","type":"address","internalType":"address"},{"name":"sessionId","type":"bytes32","internalType":"bytes32"}],"outputs":[{"name":"expectedSigner","type":"address","internalType":"address"},{"name":"expiresAt","type":"uint256","internalType":"uint256"}],"stateMutability":"view"},{"type":"function","name":"isModuleType","inputs":[{"name":"moduleTypeId","type":"uint256","internalType":"uint256"}],"outputs":[{"name":"","type":"bool","internalType":"bool"}],"stateMutability":"pure"},{"type":"function","name":"moduleId","inputs":[],"outputs":[{"name":"","type":"string","internalType":"string"}],"stateMutability":"pure"},{"type":"function","name":"onInstall","inputs":[{"name":"data","type":"bytes","internalType":"bytes"}],"outputs":[],"stateMutability":"nonpayable"},{"type":"function","name":"onUninstall","inputs":[{"name":"data","type":"bytes","internalType":"bytes"}],"outputs":[],"stateMutability":"nonpayable"},{"type":"function","name":"validateUserOp","inputs":[{"name":"sessionId","type":"bytes32","internalType":"bytes32"},{"name":"userOp","type":"tuple","internalType":"struct PackedUserOperation","components":[{"name":"sender","type":"address","internalType":"address"},{"name":"nonce","type":"uint256","internalType":"uint256"},{"name":"initCode","type":"bytes","internalType":"bytes"},{"name":"callData","type":"bytes","internalType":"bytes"},{"name":"accountGasLimits","type":"bytes32","internalType":"bytes32"},{"name":"preVerificationGas","type":"uint256","internalType":"uint256"},{"name":"gasFees","type":"bytes32","internalType":"bytes32"},{"name":"paymasterAndData","type":"bytes","internalType":"bytes"},{"name":"signature","type":"bytes","internalType":"bytes"}]},{"name":"userOpHash","type":"bytes32","internalType":"bytes32"}],"outputs":[{"name":"","type":"uint256","internalType":"uint256"}],"stateMutability":"view"},{"type":"event","name":"SessionAuthorized","inputs":[{"name":"account","type":"address","indexed":true,"internalType":"address"},{"name":"sessionId","type":"bytes32","indexed":true,"internalType":"bytes32"},{"name":"signer","type":"address","indexed":false,"internalType":"address"},{"name":"expiresAt","type":"uint256","indexed":false,"internalType":"uint256"}],"anonymous":false},{"type":"event","name":"SessionRevoked","inputs":[{"name":"account","type":"address","indexed":true,"internalType":"address"},{"name":"sessionId","type":"bytes32","indexed":true,"internalType":"bytes32"}],"anonymous":false},{"type":"error","name":"InvalidInitData","inputs":[]},{"type":"error","name":"SessionAlreadyAuthorized","inputs":[{"name":"sessionId","type":"bytes32","internalType":"bytes32"}]},{"type":"error","name":"SessionNotAuthorized","inputs":[{"name":"sessionId","type":"bytes32","internalType":"bytes32"}]},{"type":"error","name":"ZeroSigner","inputs":[]}],"bytecode":{"object":"0x60808060405234601557610711908161001a8239f35b5f80fdfe60806040526004361015610011575f80fd5b5f3560e01c80636d61fe701461027f5780637fc76cd3146102305780638a91b0e31461016f578063a1308f27146100ef578063be2ccf921461007f5763ecd059611461005b575f80fd5b3461007b57602036600319011261007b5760206040516001600435148152f35b5f80fd5b3461007b57604036600319011261007b576004356001600160a01b0381169081900361007b575f525f60205260405f206024355f52602052602060405f206100c56103f2565b81546001600160a01b03168082526001909201549201829052604080519182526020820192909252f35b3461007b575f36600319011261007b576101096060610426565b60258152604060208201917f736d6172742d6167656e742e65636473612d73657373696f6e2d76616c696461835264746f722e3160d81b828201528151928391602083525180918160208501528484015e5f828201840152601f01601f19168101030190f35b3461007b5761017d366103a1565b905f916020811015610219575b5050801561020a57335f525f60205260405f20815f5260205260018060a01b0360405f205416156101f857335f525f60205260405f20815f526020525f6001604082208281550155337e6be5f629d8df9f032986474cfc3bfc82c9b1cd74dcb2fcb5b3d48f98a500245f80a3005b633e0e2c9960e11b5f5260045260245ffd5b6307ce216360e51b5f5260045ffd5b819250906020918101031261007b5735818061018a565b3461007b57606036600319011261007b5760243567ffffffffffffffff811161007b57610120600319823603011261007b57610277602091604435906004016004356104c0565b604051908152f35b3461007b5761028d366103a1565b801561020a57816060918101031261007b5780359060208101356001600160a01b038116919082900361007b5760400135811561039257335f525f60205260405f20835f5260205260018060a01b0360405f2054166103805761037b7f779e0bbe214b6429b5f0bd9dae6b85822d70b7236f0783f3a8f320116049c5fb916103136103f2565b848152600160208201838152335f525f60205260405f20885f5260205260405f2092828060a01b039051166bffffffffffffffffffffffff60a01b8454161783555191015560405191829133958360209093929193604081019460018060a01b031681520152565b0390a3005b826207d47160e51b5f5260045260245ffd5b63e5c48ac560e01b5f5260045ffd5b90602060031983011261007b5760043567ffffffffffffffff811161007b578260238201121561007b5780600401359267ffffffffffffffff841161007b576024848301011161007b576024019190565b604051906040820182811067ffffffffffffffff82111761041257604052565b634e487b7160e01b5f52604160045260245ffd5b6040519190601f01601f1916820167ffffffffffffffff81118382101761041257604052565b903590601e198136030182121561007b570180359067ffffffffffffffff821161007b5760200191813603831361007b57565b92919267ffffffffffffffff8211610412576104a4601f8301601f1916602001610426565b938285528282011161007b57815f926020928387013784010152565b919091335f525f60205260405f20905f5260205260405f20916104e16103f2565b83546001600160a01b03168082526001909401546020820181905290931561060b578015159081610601575b506105f957610100810161053461052e610527838561044c565b369161047f565b84610614565b5060048110156105c5571590816105e1575b506105d9576105276105869161058c947f19457468657265756d205369676e6564204d6573736167653a0a3332000000005f52601c52603c5f209361044c565b90610614565b5060048110156105c5571591826105ad575b50506105a957600190565b5f90565b516001600160a01b0391821691161490505f8061059e565b634e487b7160e01b5f52602160045260245ffd5b505050505f90565b85516001600160a01b0391821691161490505f610546565b505050600190565b905042115f61050d565b50505050600190565b81519190604183036106445761063d9250602082015190606060408401519301515f1a9061064e565b9192909190565b50505f9160029190565b91907f7fffffffffffffffffffffffffffffff5d576e7357a4501ddfe92f46681b20a084116106d0579160209360809260ff5f9560405194855216868401526040830152606082015282805260015afa156106c5575f516001600160a01b038116156106bb57905f905f90565b505f906001905f90565b6040513d5f823e3d90fd5b5050505f916003919056fea264697066735822122038919857e6b6155de431a462bc5354b732df6cabb70b7870ee8c55b05703507664736f6c634300081c0033","linkReferences":{}},"methodIdentifiers":{"getSession(address,bytes32)":"be2ccf92","isModuleType(uint256)":"ecd05961","moduleId()":"a1308f27","onInstall(bytes)":"6d61fe70","onUninstall(bytes)":"8a91b0e3","validateUserOp(bytes32,(address,uint256,bytes,bytes,bytes32,uint256,bytes32,bytes,bytes),bytes32)":"7fc76cd3"},"id":152}