{"abi":[{"type":"constructor","inputs":[{"name":"relationship","type":"address","internalType":"address"},{"name":"reviews","type":"address","internalType":"address"},{"name":"disputes","type":"address","internalType":"address"}],"stateMutability":"nonpayable"},{"type":"function","name":"DISPUTES","inputs":[],"outputs":[{"name":"","type":"address","internalType":"contract AgentDisputeRecord"}],"stateMutability":"view"},{"type":"function","name":"RELATIONSHIP","inputs":[],"outputs":[{"name":"","type":"address","internalType":"contract AgentRelationship"}],"stateMutability":"view"},{"type":"function","name":"REVIEWS","inputs":[],"outputs":[{"name":"","type":"address","internalType":"contract AgentReviewRecord"}],"stateMutability":"view"},{"type":"function","name":"checkDiscoveryTrust","inputs":[{"name":"agent","type":"address","internalType":"address"}],"outputs":[{"name":"result","type":"tuple","internalType":"struct AgentTrustProfile.TrustResult","components":[{"name":"passes","type":"bool","internalType":"bool"},{"name":"score","type":"uint256","internalType":"uint256"},{"name":"edgeCount","type":"uint256","internalType":"uint256"},{"name":"reviewCount","type":"uint256","internalType":"uint256"},{"name":"avgReviewScore","type":"uint256","internalType":"uint256"},{"name":"openDisputes","type":"uint256","internalType":"uint256"}]}],"stateMutability":"view"},{"type":"function","name":"checkExecutionTrust","inputs":[{"name":"agent","type":"address","internalType":"address"}],"outputs":[{"name":"result","type":"tuple","internalType":"struct AgentTrustProfile.TrustResult","components":[{"name":"passes","type":"bool","internalType":"bool"},{"name":"score","type":"uint256","internalType":"uint256"},{"name":"edgeCount","type":"uint256","internalType":"uint256"},{"name":"reviewCount","type":"uint256","internalType":"uint256"},{"name":"avgReviewScore","type":"uint256","internalType":"uint256"},{"name":"openDisputes","type":"uint256","internalType":"uint256"}]}],"stateMutability":"view"},{"type":"function","name":"isTrusted","inputs":[{"name":"agent","type":"address","internalType":"address"},{"name":"threshold","type":"uint256","internalType":"uint256"}],"outputs":[{"name":"","type":"bool","internalType":"bool"}],"stateMutability":"view"}],"bytecode":{"object":"0x60e0346100e057601f610f2638819003918201601f19168301916001600160401b038311848410176100e4578084926060946040528339810103126100e057610047816100f8565b906100606040610059602084016100f8565b92016100f8565b6001600160a01b0392831660805290821660a0521660c052604051610e19908161010d823960805181818160a2015281816104520152818161076a0152610a82015260a05181818161021d0152818161058d015281816108ae0152610b07015260c051818181610282015281816105e4015281816109110152610ac60152f35b5f80fd5b634e487b7160e01b5f52604160045260245ffd5b51906001600160a01b03821682036100e05756fe6080806040526004361015610012575f80fd5b5f3560e01c90816305cb168e14610af55750806316e5a67314610ab15780631b86e4b914610a6d57806323158818146107265780638ea43718146104165763c61d4ed01461005e575f80fd5b346103b75760203660031901126103b757610077610b36565b61007f610b82565b60405163d3b0657960e01b81526001600160a01b039283166004820181905291927f000000000000000000000000000000000000000000000000000000000000000016905f81602481855afa9081156101bd575f916103f4575b505f935f5b82518110156101f6576100f18184610c48565b516040519063750e0c0f60e01b82526004820152602081602481885afa9081156101bd575f916101c8575b5061012a575b6001016100de565b6101348184610c48565b5160405190637ed1449760e11b825260048201525f81602481885afa80156101bd576080915f9161019b575b500151600781101561018757600303610122579461017f600191610dbf565b959050610122565b634e487b7160e01b5f52602160045260245ffd5b6101b791503d805f833e6101af8183610b4c565b810190610c9c565b5f610160565b6040513d5f823e3d90fd5b6101e9915060203d81116101ef575b6101e18183610b4c565b810190610c70565b5f61011c565b503d6101d7565b6040808301879052805163d06509fd60e01b815260048101879052879184918891816024817f00000000000000000000000000000000000000000000000000000000000000006001600160a01b03165afa80156101bd575f915f916103c3575b50606084018190526080840182905260405163840b993560e01b815260048101939093526020836024817f00000000000000000000000000000000000000000000000000000000000000006001600160a01b03165afa9283156101bd575f9361038b575b5060a084019283525f94610382575b60021115610370575b603c111561035e575b511561033d575b603282610339936020840152101581526040519182918291909160a08060c0830194805115158452602081015160208501526040810151604085015260608101516060850152608081015160808501520151910152565b0390f35b60148201809211156102e2575b634e487b7160e01b5f52601160045260245ffd5b91601e810180911161034a57916102db565b926014810180911161034a57926102d2565b601e94506102c9565b9092506020813d6020116103bb575b816103a760209383610b4c565b810103126103b7575191856102ba565b5f80fd5b3d915061039a565b90506103e7915060403d6040116103ed575b6103df8183610b4c565b810190610dcd565b85610256565b503d6103d5565b61041091503d805f833e6104088183610b4c565b810190610bc3565b5f6100d9565b346103b75760403660031901126103b75761042f610b36565b60405163d3b0657960e01b81526001600160a01b039182166004820181905290917f0000000000000000000000000000000000000000000000000000000000000000165f83602481845afa9283156101bd575f9361070a575b505f925f5b815181101561056e576104a08183610c48565b516040519063750e0c0f60e01b82526004820152602081602481875afa9081156101bd575f91610550575b506104d9575b60010161048d565b6104e38183610c48565b5160405190637ed1449760e11b825260048201525f81602481875afa80156101bd576080915f91610536575b5001516007811015610187576003036104d1579361052e600191610dbf565b9490506104d1565b61054a91503d805f833e6101af8183610b4c565b8761050f565b610568915060203d81116101ef576101e18183610b4c565b866104cb565b50506040805163d06509fd60e01b8152600481018490529150816024817f00000000000000000000000000000000000000000000000000000000000000006001600160a01b03165afa80156101bd575f915f916106e9575b5060405163840b993560e01b815260048101939093526020836024817f00000000000000000000000000000000000000000000000000000000000000006001600160a01b03165afa9283156101bd575f936106b5575b505f93806106ac575b6003111561069a575b60021115610688575b603c1115610676575b15610656575b6020906040519060243511158152f35b601481018091111561064657634e487b7160e01b5f52601160045260245ffd5b906019810180911161034a5790610640565b91600f810180911161034a5791610637565b92600f810180911161034a579261062e565b60199450610625565b9092506020813d6020116106e1575b816106d160209383610b4c565b810103126103b75751918461061c565b3d91506106c4565b9050610704915060403d6040116103ed576103df8183610b4c565b846105c6565b61071f9193503d805f833e6104088183610b4c565b9183610488565b346103b75760203660031901126103b75761073f610b36565b610747610b82565b60405163d3b0657960e01b81526001600160a01b039283166004820181905291927f000000000000000000000000000000000000000000000000000000000000000016905f81602481855afa9081156101bd575f91610a53575b505f935f5b8251811015610887576107b98184610c48565b516040519063750e0c0f60e01b82526004820152602081602481885afa9081156101bd575f91610869575b506107f2575b6001016107a6565b6107fc8184610c48565b5160405190637ed1449760e11b825260048201525f81602481885afa80156101bd576080915f9161084f575b5001516007811015610187576003036107ea5794610847600191610dbf565b9590506107ea565b61086391503d805f833e6101af8183610b4c565b88610828565b610881915060203d81116101ef576101e18183610b4c565b876107e4565b6040808301879052805163d06509fd60e01b815260048101879052879184918891816024817f00000000000000000000000000000000000000000000000000000000000000006001600160a01b03165afa80156101bd575f915f91610a32575b5060608401526080830181905260405163840b993560e01b815260048101929092526020826024817f00000000000000000000000000000000000000000000000000000000000000006001600160a01b03165afa9182156101bd575f926109fe575b5060a0830191825260025f9410156109f5575b604611156109e3575b51156109c3575b603c82610339936020840152101581526040519182918291909160a08060c0830194805115158452602081015160208501526040810151604085015260608101516060850152608081015160808501520151910152565b602882018092111561096c57634e487b7160e01b5f52601160045260245ffd5b91601e810180911161034a5791610965565b601e935061095c565b9091506020813d602011610a2a575b81610a1a60209383610b4c565b810103126103b757519084610949565b3d9150610a0d565b9050610a4d915060403d6040116103ed576103df8183610b4c565b856108e7565b610a6791503d805f833e6104088183610b4c565b846107a1565b346103b7575f3660031901126103b7576040517f00000000000000000000000000000000000000000000000000000000000000006001600160a01b03168152602090f35b346103b7575f3660031901126103b7576040517f00000000000000000000000000000000000000000000000000000000000000006001600160a01b03168152602090f35b346103b7575f3660031901126103b7577f00000000000000000000000000000000000000000000000000000000000000006001600160a01b03168152602090f35b600435906001600160a01b03821682036103b757565b90601f8019910116810190811067ffffffffffffffff821117610b6e57604052565b634e487b7160e01b5f52604160045260245ffd5b6040519060c0820182811067ffffffffffffffff821117610b6e576040525f60a0838281528260208201528260408201528260608201528260808201520152565b6020818303126103b75780519067ffffffffffffffff82116103b757019080601f830112156103b75781519167ffffffffffffffff8311610b6e578260051b9060405193610c146020840186610b4c565b84526020808501928201019283116103b757602001905b828210610c385750505090565b8151815260209182019101610c2b565b8051821015610c5c5760209160051b010190565b634e487b7160e01b5f52603260045260245ffd5b908160209103126103b7575180151581036103b75790565b51906001600160a01b03821682036103b757565b6020818303126103b75780519067ffffffffffffffff82116103b7570190610120828203126103b75760405191610120830183811067ffffffffffffffff821117610b6e5760405280518352610cf460208201610c88565b6020840152610d0560408201610c88565b604084015260608101516060840152608081015160078110156103b7576080840152610d3360a08201610c88565b60a084015260c081015160c084015260e081015160e08401526101008101519067ffffffffffffffff82116103b7570181601f820112156103b75780519067ffffffffffffffff8211610b6e5760405192610d98601f8401601f191660200185610b4c565b828452602083830101116103b757815f9260208093018386015e8301015261010082015290565b5f19811461034a5760010190565b91908260409103126103b757602082519201519056fea2646970667358221220d8c6393351fbeeecf9b83ea8a81303ae6e96f2b1421f185225e9d0e545d0f38d64736f6c634300081c0033","linkReferences":{}},"methodIdentifiers":{"DISPUTES()":"16e5a673","RELATIONSHIP()":"1b86e4b9","REVIEWS()":"05cb168e","checkDiscoveryTrust(address)":"c61d4ed0","checkExecutionTrust(address)":"23158818","isTrusted(address,uint256)":"8ea43718"},"id":68}