{"abi":[{"type":"constructor","inputs":[{"name":"relationship","type":"address","internalType":"address"},{"name":"reviews","type":"address","internalType":"address"},{"name":"disputes","type":"address","internalType":"address"},{"name":"validations","type":"address","internalType":"address"}],"stateMutability":"nonpayable"},{"type":"function","name":"DISPUTES","inputs":[],"outputs":[{"name":"","type":"address","internalType":"contract AgentDisputeRecord"}],"stateMutability":"view"},{"type":"function","name":"RELATIONSHIP","inputs":[],"outputs":[{"name":"","type":"address","internalType":"contract AgentRelationship"}],"stateMutability":"view"},{"type":"function","name":"REVIEWS","inputs":[],"outputs":[{"name":"","type":"address","internalType":"contract AgentReviewRecord"}],"stateMutability":"view"},{"type":"function","name":"VALIDATIONS","inputs":[],"outputs":[{"name":"","type":"address","internalType":"contract AgentValidationProfile"}],"stateMutability":"view"},{"type":"function","name":"checkDiscoveryTrust","inputs":[{"name":"agent","type":"address","internalType":"address"}],"outputs":[{"name":"result","type":"tuple","internalType":"struct AgentTrustProfile.TrustResult","components":[{"name":"passes","type":"bool","internalType":"bool"},{"name":"score","type":"uint256","internalType":"uint256"},{"name":"edgeCount","type":"uint256","internalType":"uint256"},{"name":"reviewCount","type":"uint256","internalType":"uint256"},{"name":"avgReviewScore","type":"uint256","internalType":"uint256"},{"name":"openDisputes","type":"uint256","internalType":"uint256"},{"name":"validationCount","type":"uint256","internalType":"uint256"}]}],"stateMutability":"view"},{"type":"function","name":"checkExecutionTrust","inputs":[{"name":"agent","type":"address","internalType":"address"}],"outputs":[{"name":"result","type":"tuple","internalType":"struct AgentTrustProfile.TrustResult","components":[{"name":"passes","type":"bool","internalType":"bool"},{"name":"score","type":"uint256","internalType":"uint256"},{"name":"edgeCount","type":"uint256","internalType":"uint256"},{"name":"reviewCount","type":"uint256","internalType":"uint256"},{"name":"avgReviewScore","type":"uint256","internalType":"uint256"},{"name":"openDisputes","type":"uint256","internalType":"uint256"},{"name":"validationCount","type":"uint256","internalType":"uint256"}]}],"stateMutability":"view"},{"type":"function","name":"checkRuntimeTrust","inputs":[{"name":"agent","type":"address","internalType":"address"}],"outputs":[{"name":"result","type":"tuple","internalType":"struct AgentTrustProfile.TrustResult","components":[{"name":"passes","type":"bool","internalType":"bool"},{"name":"score","type":"uint256","internalType":"uint256"},{"name":"edgeCount","type":"uint256","internalType":"uint256"},{"name":"reviewCount","type":"uint256","internalType":"uint256"},{"name":"avgReviewScore","type":"uint256","internalType":"uint256"},{"name":"openDisputes","type":"uint256","internalType":"uint256"},{"name":"validationCount","type":"uint256","internalType":"uint256"}]}],"stateMutability":"view"},{"type":"function","name":"isTrusted","inputs":[{"name":"agent","type":"address","internalType":"address"},{"name":"threshold","type":"uint256","internalType":"uint256"}],"outputs":[{"name":"","type":"bool","internalType":"bool"}],"stateMutability":"view"}],"bytecode":{"object":"0x610100346100da57601f610ccc38819003918201601f19168301916001600160401b038311848410176100de578084926080946040528339810103126100da57610048816100f2565b90610055602082016100f2565b61006d6060610066604085016100f2565b93016100f2565b6001600160a01b0393841660805290831660a05290821660c0521660e052604051610bc59081610107823960805181818161045f0152610667015260a0518181816104e4015261090c015260c0518181816104a30152610964015260e05181818161033b01526109be0152f35b5f80fd5b634e487b7160e01b5f52604160045260245ffd5b51906001600160a01b03821682036100da5756fe6080806040526004361015610012575f80fd5b5f3560e01c90816305cb168e146104d25750806316e5a6731461048e5780631b86e4b91461044a578063231588181461036a5780636e3775fa146103265780638ea4371814610239578063c61d4ed01461015e5763e291023114610074575f80fd5b3461015a57602036600319011261015a5761008d610513565b61009f6100986105a9565b8092610644565b5f9060c081018051610151575b60029051101561013f575b604081015161012d575b60a08101511561011b575b603c608082015110156100fa575b6032826100f69360208401521015815260405191829182610529565b0390f35b60148201809211156100da575b634e487b7160e01b5f52601160045260245ffd5b90600f810180911161010757906100cc565b90600f810180911161010757906100c1565b90600a810180911161010757906100b7565b602892506100ac565b5f80fd5b3461015a57602036600319011261015a57610177610513565b6101826100986105a9565b5f906040810151610230575b60026060820151101561021e575b603c6080820151101561020c575b60a0810151156101fa575b60c08101516101da576032826100f69360208401521015815260405191829182610529565b600f8201809211156100da57634e487b7160e01b5f52601160045260245ffd5b90600f810180911161010757906101b5565b906019810180911161010757906101aa565b9060148101809111610107579061019c565b6019915061018e565b3461015a57604036600319011261015a57610252610513565b61025d6100986105a9565b5f9060408101805161031d575b60039051101561030b575b6002606082015110156102f9575b603c608082015110156102e7575b60a0810151156102d5575b60c001516102b5575b6020906040519060243511158152f35b60148101809111156102a557634e487b7160e01b5f52601160045260245ffd5b90600f8101809111610107579061029c565b90601481018091116101075790610291565b90600f81018091116101075790610283565b90600a81018091116101075790610275565b6014925061026a565b3461015a575f36600319011261015a576040517f00000000000000000000000000000000000000000000000000000000000000006001600160a01b03168152602090f35b3461015a57602036600319011261015a57610383610513565b61038e6100986105a9565b5f90600260408201511015610441575b60466080820151101561042f575b60a08101511561041d575b60c081015161040b575b6001606082015110156103eb575b603c826100f69360208401521015815260405191829182610529565b600f8201809211156103cf57634e487b7160e01b5f52601160045260245ffd5b906019810180911161010757906103c1565b906014810180911161010757906103b7565b906014810180911161010757906103ac565b6014915061039e565b3461015a575f36600319011261015a576040517f00000000000000000000000000000000000000000000000000000000000000006001600160a01b03168152602090f35b3461015a575f36600319011261015a576040517f00000000000000000000000000000000000000000000000000000000000000006001600160a01b03168152602090f35b3461015a575f36600319011261015a577f00000000000000000000000000000000000000000000000000000000000000006001600160a01b03168152602090f35b600435906001600160a01b038216820361015a57565b91909160c08060e08301948051151584526020810151602085015260408101516040850152606081015160608501526080810151608085015260a081015160a08501520151910152565b90601f8019910116810190811067ffffffffffffffff82111761059557604052565b634e487b7160e01b5f52604160045260245ffd5b6040519060e0820182811067ffffffffffffffff821117610595576040525f60c0838281528260208201528260408201528260608201528260808201528260a08201520152565b67ffffffffffffffff81116105955760051b60200190565b805182101561061c5760209160051b010190565b634e487b7160e01b5f52603260045260245ffd5b51906001600160a01b038216820361015a57565b60405163d3b0657960e01b81526001600160a01b039182166004820181905292937f0000000000000000000000000000000000000000000000000000000000000000909216915f82602481865afa918215610899575f92610afc575b505f945f5b83518110156108de576106b88185610608565b516040519063750e0c0f60e01b82526004820152602081602481895afa908115610899575f916108a4575b506106f1575b6001016106a5565b6106fb8185610608565b5160405190637ed1449760e11b825260048201525f81602481895afa8015610899575f90610760575b608091500151600781101561074c576003036106e957955f19811461010757600101956106e9565b634e487b7160e01b5f52602160045260245ffd5b503d805f833e6107708183610573565b81019060208183031261015a5780519067ffffffffffffffff821161015a57016101208183031261015a5760405190610120820182811067ffffffffffffffff82111761059557604052805182526107ca60208201610630565b60208301526107db60408201610630565b6040830152606081015160608301526080810151600781101561015a57608083015261080960a08201610630565b60a083015260c081015160c083015260e081015160e08301526101008101519067ffffffffffffffff821161015a57019180601f8401121561015a57825167ffffffffffffffff8111610595576040519161086e601f8301601f191660200184610573565b8183526020828601011161015a576020815f9282608097018386015e83010152610100820152610724565b6040513d5f823e3d90fd5b90506020813d82116108d6575b816108be60209383610573565b8101031261015a5751801515810361015a575f6106e3565b3d91506108b1565b50939250939050604083015260405163d06509fd60e01b815281600482015260408160248160018060a01b037f0000000000000000000000000000000000000000000000000000000000000000165afa8015610899575f915f91610ac3575b506060840152608083015260405163840b993560e01b8152600481018290526020816024817f00000000000000000000000000000000000000000000000000000000000000006001600160a01b03165afa908115610899575f91610a91575b5060a08301526040516324ca3de360e01b815260048101919091525f816024817f00000000000000000000000000000000000000000000000000000000000000006001600160a01b03165afa8015610899575f906109ff575b60c0915051910152565b503d805f833e610a0f8183610573565b81019060208183031261015a5780519067ffffffffffffffff821161015a57019080601f8301121561015a578151610a46816105f0565b92610a546040519485610573565b81845260208085019260051b82010192831161015a57602001905b828210610a815750505060c0906109f5565b8151815260209182019101610a6f565b90506020813d602011610abb575b81610aac60209383610573565b8101031261015a57515f61099c565b3d9150610a9f565b9150506040813d604011610af4575b81610adf60409383610573565b8101031261015a57602081519101515f61093d565b3d9150610ad2565b9091503d805f833e610b0e8183610573565b81019060208183031261015a5780519067ffffffffffffffff821161015a57019080601f8301121561015a578151610b45816105f0565b92610b536040519485610573565b81845260208085019260051b82010192831161015a57602001905b828210610b7f57505050905f6106a0565b8151815260209182019101610b6e56fea264697066735822122038cd0a8f031a93063f2faad299b8b0776a898a87e176b195d8f748eeb707d00f64736f6c634300081c0033","linkReferences":{}},"methodIdentifiers":{"DISPUTES()":"16e5a673","RELATIONSHIP()":"1b86e4b9","REVIEWS()":"05cb168e","VALIDATIONS()":"6e3775fa","checkDiscoveryTrust(address)":"c61d4ed0","checkExecutionTrust(address)":"23158818","checkRuntimeTrust(address)":"e2910231","isTrusted(address,uint256)":"8ea43718"},"id":81}