{"abi":[{"type":"constructor","inputs":[{"name":"relationships","type":"address","internalType":"contract AgentRelationship"}],"stateMutability":"nonpayable"},{"type":"function","name":"AGENT_ROOT","inputs":[],"outputs":[{"name":"","type":"bytes32","internalType":"bytes32"}],"stateMutability":"pure"},{"type":"function","name":"KIND_AGENT","inputs":[],"outputs":[{"name":"","type":"bytes32","internalType":"bytes32"}],"stateMutability":"view"},{"type":"function","name":"KIND_GEO","inputs":[],"outputs":[{"name":"","type":"bytes32","internalType":"bytes32"}],"stateMutability":"view"},{"type":"function","name":"KIND_PEOPLE_GROUP","inputs":[],"outputs":[{"name":"","type":"bytes32","internalType":"bytes32"}],"stateMutability":"view"},{"type":"function","name":"KIND_SKILL","inputs":[],"outputs":[{"name":"","type":"bytes32","internalType":"bytes32"}],"stateMutability":"view"},{"type":"function","name":"RELATIONSHIPS","inputs":[],"outputs":[{"name":"","type":"address","internalType":"contract AgentRelationship"}],"stateMutability":"view"},{"type":"function","name":"childCount","inputs":[{"name":"parentNode","type":"bytes32","internalType":"bytes32"}],"outputs":[{"name":"","type":"uint256","internalType":"uint256"}],"stateMutability":"view"},{"type":"function","name":"childLabelhashes","inputs":[{"name":"parentNode","type":"bytes32","internalType":"bytes32"}],"outputs":[{"name":"","type":"bytes32[]","internalType":"bytes32[]"}],"stateMutability":"view"},{"type":"function","name":"childNode","inputs":[{"name":"parentNode","type":"bytes32","internalType":"bytes32"},{"name":"lh","type":"bytes32","internalType":"bytes32"}],"outputs":[{"name":"","type":"bytes32","internalType":"bytes32"}],"stateMutability":"view"},{"type":"function","name":"expiry","inputs":[{"name":"node","type":"bytes32","internalType":"bytes32"}],"outputs":[{"name":"","type":"uint64","internalType":"uint64"}],"stateMutability":"view"},{"type":"function","name":"getRoots","inputs":[],"outputs":[{"name":"","type":"bytes32[]","internalType":"bytes32[]"}],"stateMutability":"view"},{"type":"function","name":"initializeRoot","inputs":[{"name":"label","type":"string","internalType":"string"},{"name":"rootOwner","type":"address","internalType":"address"},{"name":"resolverContract","type":"address","internalType":"address"},{"name":"kind","type":"bytes32","internalType":"bytes32"}],"outputs":[{"name":"rootNode","type":"bytes32","internalType":"bytes32"}],"stateMutability":"nonpayable"},{"type":"function","name":"initializeRoot","inputs":[{"name":"rootOwner","type":"address","internalType":"address"},{"name":"resolverContract","type":"address","internalType":"address"}],"outputs":[{"name":"","type":"bytes32","internalType":"bytes32"}],"stateMutability":"nonpayable"},{"type":"function","name":"isExpired","inputs":[{"name":"node","type":"bytes32","internalType":"bytes32"}],"outputs":[{"name":"","type":"bool","internalType":"bool"}],"stateMutability":"view"},{"type":"function","name":"isRoot","inputs":[{"name":"","type":"bytes32","internalType":"bytes32"}],"outputs":[{"name":"","type":"bool","internalType":"bool"}],"stateMutability":"view"},{"type":"function","name":"labelhash","inputs":[{"name":"node","type":"bytes32","internalType":"bytes32"}],"outputs":[{"name":"","type":"bytes32","internalType":"bytes32"}],"stateMutability":"view"},{"type":"function","name":"namehashRoot","inputs":[{"name":"label","type":"string","internalType":"string"}],"outputs":[{"name":"","type":"bytes32","internalType":"bytes32"}],"stateMutability":"pure"},{"type":"function","name":"owner","inputs":[{"name":"node","type":"bytes32","internalType":"bytes32"}],"outputs":[{"name":"","type":"address","internalType":"address"}],"stateMutability":"view"},{"type":"function","name":"parent","inputs":[{"name":"node","type":"bytes32","internalType":"bytes32"}],"outputs":[{"name":"","type":"bytes32","internalType":"bytes32"}],"stateMutability":"view"},{"type":"function","name":"recordExists","inputs":[{"name":"node","type":"bytes32","internalType":"bytes32"}],"outputs":[{"name":"","type":"bool","internalType":"bool"}],"stateMutability":"view"},{"type":"function","name":"register","inputs":[{"name":"parentNode","type":"bytes32","internalType":"bytes32"},{"name":"label","type":"string","internalType":"string"},{"name":"owner","type":"address","internalType":"address"},{"name":"resolver","type":"address","internalType":"address"},{"name":"expiry","type":"uint64","internalType":"uint64"}],"outputs":[{"name":"childNode","type":"bytes32","internalType":"bytes32"}],"stateMutability":"nonpayable"},{"type":"function","name":"registeredAt","inputs":[{"name":"node","type":"bytes32","internalType":"bytes32"}],"outputs":[{"name":"","type":"uint64","internalType":"uint64"}],"stateMutability":"view"},{"type":"function","name":"renew","inputs":[{"name":"node","type":"bytes32","internalType":"bytes32"},{"name":"newExpiry","type":"uint64","internalType":"uint64"}],"outputs":[],"stateMutability":"nonpayable"},{"type":"function","name":"resolver","inputs":[{"name":"node","type":"bytes32","internalType":"bytes32"}],"outputs":[{"name":"","type":"address","internalType":"address"}],"stateMutability":"view"},{"type":"function","name":"rootByLabel","inputs":[{"name":"label","type":"string","internalType":"string"}],"outputs":[{"name":"","type":"bytes32","internalType":"bytes32"}],"stateMutability":"view"},{"type":"function","name":"rootKind","inputs":[{"name":"","type":"bytes32","internalType":"bytes32"}],"outputs":[{"name":"","type":"bytes32","internalType":"bytes32"}],"stateMutability":"view"},{"type":"function","name":"setOwner","inputs":[{"name":"node","type":"bytes32","internalType":"bytes32"},{"name":"newOwner","type":"address","internalType":"address"}],"outputs":[],"stateMutability":"nonpayable"},{"type":"function","name":"setResolver","inputs":[{"name":"node","type":"bytes32","internalType":"bytes32"},{"name":"resolver","type":"address","internalType":"address"}],"outputs":[],"stateMutability":"nonpayable"},{"type":"function","name":"setSubregistry","inputs":[{"name":"node","type":"bytes32","internalType":"bytes32"},{"name":"subregistry","type":"address","internalType":"address"}],"outputs":[],"stateMutability":"nonpayable"},{"type":"function","name":"subregistry","inputs":[{"name":"node","type":"bytes32","internalType":"bytes32"}],"outputs":[{"name":"","type":"address","internalType":"address"}],"stateMutability":"view"},{"type":"event","name":"NameRegistered","inputs":[{"name":"node","type":"bytes32","indexed":true,"internalType":"bytes32"},{"name":"parent","type":"bytes32","indexed":true,"internalType":"bytes32"},{"name":"label","type":"string","indexed":false,"internalType":"string"},{"name":"owner","type":"address","indexed":false,"internalType":"address"},{"name":"resolver","type":"address","indexed":false,"internalType":"address"},{"name":"expiry","type":"uint64","indexed":false,"internalType":"uint64"}],"anonymous":false},{"type":"event","name":"NameRenewed","inputs":[{"name":"node","type":"bytes32","indexed":true,"internalType":"bytes32"},{"name":"newExpiry","type":"uint64","indexed":false,"internalType":"uint64"}],"anonymous":false},{"type":"event","name":"OwnerChanged","inputs":[{"name":"node","type":"bytes32","indexed":true,"internalType":"bytes32"},{"name":"newOwner","type":"address","indexed":true,"internalType":"address"}],"anonymous":false},{"type":"event","name":"ResolverChanged","inputs":[{"name":"node","type":"bytes32","indexed":true,"internalType":"bytes32"},{"name":"resolver","type":"address","indexed":true,"internalType":"address"}],"anonymous":false},{"type":"event","name":"RootInitialized","inputs":[{"name":"rootNode","type":"bytes32","indexed":true,"internalType":"bytes32"},{"name":"label","type":"string","indexed":false,"internalType":"string"},{"name":"owner","type":"address","indexed":true,"internalType":"address"},{"name":"kind","type":"bytes32","indexed":false,"internalType":"bytes32"}],"anonymous":false},{"type":"event","name":"SubregistryChanged","inputs":[{"name":"node","type":"bytes32","indexed":true,"internalType":"bytes32"},{"name":"subregistry","type":"address","indexed":true,"internalType":"address"}],"anonymous":false},{"type":"error","name":"EmptyLabel","inputs":[]},{"type":"error","name":"NameExpired","inputs":[]},{"type":"error","name":"NodeAlreadyExists","inputs":[]},{"type":"error","name":"NodeNotFound","inputs":[]},{"type":"error","name":"NotAuthorized","inputs":[]},{"type":"error","name":"ParentNotFound","inputs":[]},{"type":"error","name":"RootAlreadyInitialized","inputs":[]}],"bytecode":{"object":"0x60a034606d57601f61160638819003918201601f19168301916001600160401b03831184841017607157808492602094604052833981010312606d57516001600160a01b0381168103606d576080526040516115809081610086823960805181818161039001526107820152f35b5f80fd5b634e487b7160e01b5f52604160045260245ffdfe6080806040526004361015610012575f80fd5b5f3560e01c9081630178b8bf146111a05750806302571be31461116f5780631122d69b14610f335780631709945d14610ce95780631896f70a14610c6e57806320a3710814610c3a5780632c8d620214610be95780633002c03b14610b8557806334269b6214610b4b57806335a5e06d14610abf5780633a83cfef14610a445780633dd8a00714610a0c578063440e4fef146109e0578063544b355b146109a65780635b0fc9c31461092e57806365804260146109045780636c3a1ced146108b95780636db2feb2146108915780637fd70975146103e9578063981a3137146103bf578063a96d4bef1461037b578063acc6c38614610341578063bdb0774014610307578063be6d17cd146102db578063c67f118514610260578063caadea1714610231578063d2ec5fca146101fc578063e7acc08b146101da578063ed51e46a146101a45763f79fe53814610166575f80fd5b346101a05760203660031901126101a0576004355f525f60205260206001600160401b03600560405f20015460401c161515604051908152f35b5f80fd5b346101a05760403660031901126101a0576004355f52600160205260405f206024355f52602052602060405f2054604051908152f35b346101a0575f3660031901126101a05760206101f46113ab565b604051908152f35b346101a05760203660031901126101a0576004355f525f60205260206001600160401b03600560405f20015416604051908152f35b346101a05760203660031901126101a0576004355f526003602052602060ff60405f2054166040519015158152f35b346101a05760403660031901126101a05760043561027c611201565b610285826113eb565b5f82815260208190526040812060020180546001600160a01b0319166001600160a01b039390931692831790559091907f0e72f9da0b4e1fb2524aed2d56a3d3e4cbfab78c4d72c6ddbf62d68d36892e889080a3005b346101a05760203660031901126101a0576004355f525f6020526020600360405f200154604051908152f35b346101a0575f3660031901126101a05760206040517fc1f1cd60f89e0921961cd440792b301bee8f3f17687938b98ccb602b473aa6d88152f35b346101a0575f3660031901126101a05760206040517fa2d93b8b60f12c5c3595c45d4f35979333d22c590373e944a7202033020608528152f35b346101a0575f3660031901126101a0576040517f00000000000000000000000000000000000000000000000000000000000000006001600160a01b03168152602090f35b346101a05760203660031901126101a0576004355f526002602052602060405f2054604051908152f35b346101a05760a03660031901126101a0576004356024356001600160401b0381116101a05761041c9036906004016111d4565b9091610426611217565b926064356001600160a01b03811693908490036101a057608435946001600160401b0386168096036101a05781156108825761046184611443565b61046a84611380565b610873576104793683856112b7565b60208151910120946040516020810190868252876040820152604081526104a160608261127b565b51902095865f525f6020526001600160401b03600560405f20015460401c166108645787876001600160401b03806005604051976104de89611260565b60018060a01b031697888152602081018881528c604083015f81526060840191825260808401928a845260a08501998a5260c08501988742168a525f525f60205260405f209460018060a01b039060018060a01b03905116166001600160601b0360a01b86541617855560018060a01b03905116600185019060018060a01b03166001600160601b0360a01b82541617905560018060a01b03905116600284019060018060a01b03166001600160601b0360a01b82541617905551600383015551600482015501935116166001600160401b03198354161782555167ffffffffffffffff60401b82549160401b169067ffffffffffffffff60401b1916179055855f52600160205260405f20815f526020528660405f2055855f52600260205260405f20805490600160401b821015610850576001820180825582101561083c575f5260205f200155845f525f60205260018060a01b0360405f2054166040519061064a60608361127b565b6002825260208201604036823782511561083c577f0b10b9e9b038ad9d16e231f059f2a49103222ea283bc0a8da85baf221dc91125905281516001101561083c5781602080927fd364bf8131240063376a004be345cc15c3c6e7cd39193a49b0652726f4fc06ef604061074f960152604051828101693d913630b132b6111d1160b11b8152898b602a8401376106fb6002602a848d810161227d60f01b838201520301601d1981018552018361127b565b6040519687958694630e47e2b960e21b865260048601528a60248601527f4a1d975445b05d351ed3fa71113edce2c3f0486d8f89f2a0ae95e868a762ef30604486015260a0606486015260a485019061122d565b916003198484030160848501525180918184528584015e5f848284010152601f8019910116010301815f60018060a01b037f0000000000000000000000000000000000000000000000000000000000000000165af1610804575b50918593916020977fbbdab3d3b22b2c5650b690c9bf316a52977ac2a7e16ff4cfa664a610b3f69cbb946107ea604051958695608087526080870191611334565b928a850152604084015260608301520390a3604051908152f35b929093916020843d602011610834575b816108216020938361127b565b810103126101a0579193909250856107a9565b3d9150610814565b634e487b7160e01b5f52603260045260245ffd5b634e487b7160e01b5f52604160045260245ffd5b63731918fb60e11b5f5260045ffd5b636c80f2e360e01b5f5260045ffd5b63cccf65f560e01b5f5260045ffd5b346101a05760203660031901126101a05760206108af600435611380565b6040519015158152f35b346101a05760203660031901126101a0576004356001600160401b0381116101a057366023820112156101a0576101f46108ff60209236906024816004013591016112b7565b611354565b346101a05760203660031901126101a0576004355f526004602052602060405f2054604051908152f35b346101a05760403660031901126101a05760043561094a611201565b610953826113eb565b5f82815260208190526040812080546001600160a01b0319166001600160a01b039390931692831790559091907fd3d10d874a10020c2bce719499d1fd8756d880b128eb2945dd01b3830854e7169080a3005b346101a0575f3660031901126101a05760206040517f12a92f366771806f985df6347045bea9fe00a90efc5e145f41aafd476b14333f8152f35b346101a05760203660031901126101a0576004355f525f6020526020600460405f200154604051908152f35b346101a05760203660031901126101a0576004355f525f60205260206001600160401b03600560405f20015460401c16604051908152f35b346101a05760403660031901126101a0576004356024356001600160401b0381168091036101a05760207feff7efb93c3742eb656b2c62dfdc4b1fcda8426c310764d7577c875d1c67a3b391610a99846113eb565b835f525f8252600560405f2001816001600160401b0319825416179055604051908152a2005b346101a0575f3660031901126101a05760405180602060065491828152019060065f527ff652222313e28459528d920b65115c16c04f3efc82aaedc97be59f3f377c0d3f905f5b818110610b3557610b3185610b1d8187038261127b565b60405191829160208352602083019061122d565b0390f35b8254845260209093019260019283019201610b06565b346101a0575f3660031901126101a05760206040517f043bff677b63ab488b87b56edbbfcdf1eee7e42c25dd7123113945c32935e7528152f35b346101a05760203660031901126101a0576004355f52600260205260405f206040519081602082549182815201915f5260205f20905f5b818110610bd357610b3185610b1d8187038261127b565b8254845260209093019260019283019201610bbc565b346101a05760203660031901126101a0576004356001600160401b0381116101a0576020610c1c819236906004016111d4565b91908260405193849283378101600581520301902054604051908152f35b346101a05760203660031901126101a0576004355f525f602052602060018060a01b03600260405f20015416604051908152f35b346101a05760403660031901126101a057600435610c8a611201565b610c93826113eb565b5f82815260208190526040812060010180546001600160a01b0319166001600160a01b039390931692831790559091907f9536641548723c985801eef80fb38603b837722ccd8b61d42f6247c28afd33599080a3005b346101a05760403660031901126101a0576004356001600160a01b038116908190036101a057610d17611201565b90610d206113ab565b90815f525f6020526001600160401b03600560405f20015460401c16610f2457604051602093610d4f82611260565b8282526001600160a01b0390811685830190815260408084018581525f606086018181527f314c1dfbbccab41a44cf9fefc21e632eb8e01bc0346d4414114d4c3dd0e9fdf16080880190815260a08801838152426001600160401b0390811660c08b019081528c8652858e528786209a518b546001600160a01b0319908116918c16919091178c55985160018c810180548c16928d1692909217909155965160028c018054909a169a169990991790975591516003808a019190915590516004808a019190915591516005988901805498516fffffffffffffffffffffffffffffffff19909916919097161796851b67ffffffffffffffff60401b1696909617909455878152938852818420805460ff19169091179055858352908652908190207fc1f1cd60f89e0921961cd440792b301bee8f3f17687938b98ccb602b473aa6d8905551641859d95b9d60da1b81528082019190915260259020829055610eb6826112ed565b817f6f5008d848b79a7de7250fecbb01c61f5b1001b4c36cbbcc082503e4fa1281a960806040516040815260056040820152641859d95b9d60da1b60608201527fc1f1cd60f89e0921961cd440792b301bee8f3f17687938b98ccb602b473aa6d887820152a3604051908152f35b63e74dde6b60e01b5f5260045ffd5b346101a05760803660031901126101a0576004356001600160401b0381116101a057610f639036906004016111d4565b90610f6c611201565b610f74611217565b60643590841561088257610f8c6108ff3687876112b7565b93845f525f6020526001600160401b03600560405f20015460401c16610f245760209585937f6f5008d848b79a7de7250fecbb01c61f5b1001b4c36cbbcc082503e4fa1281a993856001600160401b03806005610fea36888a6112b7565b8d81519101209a60405190610ffe82611260565b60018060a01b03169b8c82528e82019660018060a01b03168752604082018d815260608301905f82526080840192835260a08401985f8a5260c08501988742168a525f5260205f905260405f209460018060a01b039060018060a01b03905116166001600160601b0360a01b86541617855560018060a01b03905116600185019060018060a01b03166001600160601b0360a01b82541617905560018060a01b03905116600284019060018060a01b03166001600160601b0360a01b82541617905551600383015551600482015501935116166001600160401b03198354161782555167ffffffffffffffff60401b82549160401b169067ffffffffffffffff60401b1916179055845f526003885260405f20600160ff19825416179055845f52600488528060405f205584604051838582378981858101600581520301902055611148856112ed565b61115f604051938493604085526040850191611334565b90888301520390a3604051908152f35b346101a05760203660031901126101a0576004355f525f602052602060018060a01b0360405f205416604051908152f35b346101a05760203660031901126101a0576004355f90815260208181526040909120600101546001600160a01b0316825290f35b9181601f840112156101a0578235916001600160401b0383116101a057602083818601950101116101a057565b602435906001600160a01b03821682036101a057565b604435906001600160a01b03821682036101a057565b90602080835192838152019201905f5b81811061124a5750505090565b825184526020938401939092019160010161123d565b60e081019081106001600160401b0382111761085057604052565b90601f801991011681019081106001600160401b0382111761085057604052565b6001600160401b03811161085057601f01601f191660200190565b9291926112c38261129c565b916112d1604051938461127b565b8294818452818301116101a0578281602093845f960137010152565b600654600160401b81101561085057600181018060065581101561083c5760065f527ff652222313e28459528d920b65115c16c04f3efc82aaedc97be59f3f377c0d3f0155565b908060209392818452848401375f828201840152601f01601f1916010190565b6020815191012060405160208101915f835260408201526040815261137a60608261127b565b51902090565b5f525f6020526001600160401b03600560405f2001541680151590816113a4575090565b9050421190565b60405160208101905f82527f314c1dfbbccab41a44cf9fefc21e632eb8e01bc0346d4414114d4c3dd0e9fdf160408201526040815261137a60608261127b565b5f525f60205260405f206001600160401b03600582015460401c1615611434575461141e906001600160a01b03166114af565b1561142557565b63ea8e4eb560e01b5f5260045ffd5b634825e09360e01b5f5260045ffd5b5f525f60205260405f206001600160401b03600582015460401c16156114a05760028101546001600160a01b03168015159081611496575b50611493575461141e906001600160a01b03166114af565b50565b905033145f61147b565b632749f57360e21b5f5260045ffd5b336001600160a01b03821614611544575f809160405160208101906317aa5fb760e11b8252336024820152602481526114e960448261127b565b51915afa3d1561153d573d6114fd8161129c565b9061150b604051928361127b565b81523d5f602083013e5b8161151e575090565b90506020818051810103126101a0576020015180151581036101a05790565b6060611515565b5060019056fea2646970667358221220f74725473e8ea6202abf7430be6f66031b9a6a4b4737e95cf0bc40b659c6abd264736f6c634300081c0033","linkReferences":{}},"methodIdentifiers":{"AGENT_ROOT()":"e7acc08b","KIND_AGENT()":"bdb07740","KIND_GEO()":"544b355b","KIND_PEOPLE_GROUP()":"34269b62","KIND_SKILL()":"acc6c386","RELATIONSHIPS()":"a96d4bef","childCount(bytes32)":"981a3137","childLabelhashes(bytes32)":"3002c03b","childNode(bytes32,bytes32)":"ed51e46a","expiry(bytes32)":"d2ec5fca","getRoots()":"35a5e06d","initializeRoot(address,address)":"1709945d","initializeRoot(string,address,address,bytes32)":"1122d69b","isExpired(bytes32)":"6db2feb2","isRoot(bytes32)":"caadea17","labelhash(bytes32)":"440e4fef","namehashRoot(string)":"6c3a1ced","owner(bytes32)":"02571be3","parent(bytes32)":"be6d17cd","recordExists(bytes32)":"f79fe538","register(bytes32,string,address,address,uint64)":"7fd70975","registeredAt(bytes32)":"3dd8a007","renew(bytes32,uint64)":"3a83cfef","resolver(bytes32)":"0178b8bf","rootByLabel(string)":"2c8d6202","rootKind(bytes32)":"65804260","setOwner(bytes32,address)":"5b0fc9c3","setResolver(bytes32,address)":"1896f70a","setSubregistry(bytes32,address)":"c67f1185","subregistry(bytes32)":"20a37108"},"id":68}