{"abi":[{"type":"constructor","inputs":[{"name":"relationships","type":"address","internalType":"contract AgentRelationship"}],"stateMutability":"nonpayable"},{"type":"function","name":"AGENT_ROOT","inputs":[],"outputs":[{"name":"","type":"bytes32","internalType":"bytes32"}],"stateMutability":"view"},{"type":"function","name":"RELATIONSHIPS","inputs":[],"outputs":[{"name":"","type":"address","internalType":"contract AgentRelationship"}],"stateMutability":"view"},{"type":"function","name":"childCount","inputs":[{"name":"parentNode","type":"bytes32","internalType":"bytes32"}],"outputs":[{"name":"","type":"uint256","internalType":"uint256"}],"stateMutability":"view"},{"type":"function","name":"childLabelhashes","inputs":[{"name":"parentNode","type":"bytes32","internalType":"bytes32"}],"outputs":[{"name":"","type":"bytes32[]","internalType":"bytes32[]"}],"stateMutability":"view"},{"type":"function","name":"childNode","inputs":[{"name":"parentNode","type":"bytes32","internalType":"bytes32"},{"name":"lh","type":"bytes32","internalType":"bytes32"}],"outputs":[{"name":"","type":"bytes32","internalType":"bytes32"}],"stateMutability":"view"},{"type":"function","name":"expiry","inputs":[{"name":"node","type":"bytes32","internalType":"bytes32"}],"outputs":[{"name":"","type":"uint64","internalType":"uint64"}],"stateMutability":"view"},{"type":"function","name":"initializeRoot","inputs":[{"name":"rootOwner","type":"address","internalType":"address"},{"name":"resolver","type":"address","internalType":"address"}],"outputs":[],"stateMutability":"nonpayable"},{"type":"function","name":"isExpired","inputs":[{"name":"node","type":"bytes32","internalType":"bytes32"}],"outputs":[{"name":"","type":"bool","internalType":"bool"}],"stateMutability":"view"},{"type":"function","name":"labelhash","inputs":[{"name":"node","type":"bytes32","internalType":"bytes32"}],"outputs":[{"name":"","type":"bytes32","internalType":"bytes32"}],"stateMutability":"view"},{"type":"function","name":"owner","inputs":[{"name":"node","type":"bytes32","internalType":"bytes32"}],"outputs":[{"name":"","type":"address","internalType":"address"}],"stateMutability":"view"},{"type":"function","name":"parent","inputs":[{"name":"node","type":"bytes32","internalType":"bytes32"}],"outputs":[{"name":"","type":"bytes32","internalType":"bytes32"}],"stateMutability":"view"},{"type":"function","name":"recordExists","inputs":[{"name":"node","type":"bytes32","internalType":"bytes32"}],"outputs":[{"name":"","type":"bool","internalType":"bool"}],"stateMutability":"view"},{"type":"function","name":"register","inputs":[{"name":"parentNode","type":"bytes32","internalType":"bytes32"},{"name":"label","type":"string","internalType":"string"},{"name":"owner","type":"address","internalType":"address"},{"name":"resolver","type":"address","internalType":"address"},{"name":"expiry","type":"uint64","internalType":"uint64"}],"outputs":[{"name":"childNode","type":"bytes32","internalType":"bytes32"}],"stateMutability":"nonpayable"},{"type":"function","name":"registeredAt","inputs":[{"name":"node","type":"bytes32","internalType":"bytes32"}],"outputs":[{"name":"","type":"uint64","internalType":"uint64"}],"stateMutability":"view"},{"type":"function","name":"renew","inputs":[{"name":"node","type":"bytes32","internalType":"bytes32"},{"name":"newExpiry","type":"uint64","internalType":"uint64"}],"outputs":[],"stateMutability":"nonpayable"},{"type":"function","name":"resolver","inputs":[{"name":"node","type":"bytes32","internalType":"bytes32"}],"outputs":[{"name":"","type":"address","internalType":"address"}],"stateMutability":"view"},{"type":"function","name":"setOwner","inputs":[{"name":"node","type":"bytes32","internalType":"bytes32"},{"name":"newOwner","type":"address","internalType":"address"}],"outputs":[],"stateMutability":"nonpayable"},{"type":"function","name":"setResolver","inputs":[{"name":"node","type":"bytes32","internalType":"bytes32"},{"name":"resolver","type":"address","internalType":"address"}],"outputs":[],"stateMutability":"nonpayable"},{"type":"function","name":"setSubregistry","inputs":[{"name":"node","type":"bytes32","internalType":"bytes32"},{"name":"subregistry","type":"address","internalType":"address"}],"outputs":[],"stateMutability":"nonpayable"},{"type":"function","name":"subregistry","inputs":[{"name":"node","type":"bytes32","internalType":"bytes32"}],"outputs":[{"name":"","type":"address","internalType":"address"}],"stateMutability":"view"},{"type":"event","name":"NameRegistered","inputs":[{"name":"node","type":"bytes32","indexed":true,"internalType":"bytes32"},{"name":"parent","type":"bytes32","indexed":true,"internalType":"bytes32"},{"name":"label","type":"string","indexed":false,"internalType":"string"},{"name":"owner","type":"address","indexed":false,"internalType":"address"},{"name":"resolver","type":"address","indexed":false,"internalType":"address"},{"name":"expiry","type":"uint64","indexed":false,"internalType":"uint64"}],"anonymous":false},{"type":"event","name":"NameRenewed","inputs":[{"name":"node","type":"bytes32","indexed":true,"internalType":"bytes32"},{"name":"newExpiry","type":"uint64","indexed":false,"internalType":"uint64"}],"anonymous":false},{"type":"event","name":"OwnerChanged","inputs":[{"name":"node","type":"bytes32","indexed":true,"internalType":"bytes32"},{"name":"newOwner","type":"address","indexed":true,"internalType":"address"}],"anonymous":false},{"type":"event","name":"ResolverChanged","inputs":[{"name":"node","type":"bytes32","indexed":true,"internalType":"bytes32"},{"name":"resolver","type":"address","indexed":true,"internalType":"address"}],"anonymous":false},{"type":"event","name":"RootInitialized","inputs":[{"name":"rootNode","type":"bytes32","indexed":true,"internalType":"bytes32"},{"name":"owner","type":"address","indexed":true,"internalType":"address"}],"anonymous":false},{"type":"event","name":"SubregistryChanged","inputs":[{"name":"node","type":"bytes32","indexed":true,"internalType":"bytes32"},{"name":"subregistry","type":"address","indexed":true,"internalType":"address"}],"anonymous":false},{"type":"error","name":"EmptyLabel","inputs":[]},{"type":"error","name":"NameExpired","inputs":[]},{"type":"error","name":"NodeAlreadyExists","inputs":[]},{"type":"error","name":"NodeNotFound","inputs":[]},{"type":"error","name":"NotAuthorized","inputs":[]},{"type":"error","name":"ParentNotFound","inputs":[]},{"type":"error","name":"RootAlreadyInitialized","inputs":[]}],"bytecode":{"object":"0x60c080604052346100b257602081610ff6803803809161001f82856100b6565b8339810103126100b257516001600160a01b03811681036100b25760a05260405160208101905f82527f314c1dfbbccab41a44cf9fefc21e632eb8e01bc0346d4414114d4c3dd0e9fdf160408201526040815261007d6060826100b6565b519020608052604051610f0890816100ee82396080518181816101830152610ac7015260a05181818161029701526106cc0152f35b5f80fd5b601f909101601f19168101906001600160401b038211908210176100d957604052565b634e487b7160e01b5f52604160045260245ffdfe6080806040526004361015610012575f80fd5b5f3560e01c9081630178b8bf14610c745750806302571be314610c435780631709945d14610a975780631896f70a14610a1c57806320a37108146109e85780633002c03b1461096c5780633a83cfef146108f15780633dd8a007146108b9578063440e4fef1461088d5780635b0fc9c3146108155780636db2feb2146107ed5780637fd70975146102f0578063981a3137146102c6578063a96d4bef14610282578063be6d17cd14610256578063c67f1185146101db578063d2ec5fca146101a6578063e7acc08b1461016c578063ed51e46a146101365763f79fe538146100f8575f80fd5b34610132576020366003190112610132576004355f525f60205260206001600160401b03600560405f20015460401c161515604051908152f35b5f80fd5b34610132576040366003190112610132576004355f52600160205260405f206024355f52602052602060405f2054604051908152f35b34610132575f3660031901126101325760206040517f00000000000000000000000000000000000000000000000000000000000000008152f35b34610132576020366003190112610132576004355f525f60205260206001600160401b03600560405f20015416604051908152f35b34610132576040366003190112610132576004356101f7610ca8565b61020082610d73565b5f82815260208190526040812060020180546001600160a01b0319166001600160a01b039390931692831790559091907f0e72f9da0b4e1fb2524aed2d56a3d3e4cbfab78c4d72c6ddbf62d68d36892e889080a3005b34610132576020366003190112610132576004355f525f6020526020600360405f200154604051908152f35b34610132575f366003190112610132576040517f00000000000000000000000000000000000000000000000000000000000000006001600160a01b03168152602090f35b34610132576020366003190112610132576004355f526002602052602060405f2054604051908152f35b346101325760a0366003190112610132576004356024356001600160401b0381116101325736602382011215610132578060040135916001600160401b0383116101325760248201916024843692010111610132576044356001600160a01b0381169290839003610132576064356001600160a01b0381169081900361013257608435906001600160401b0382168092036101325785156107de5761039484610dcb565b61039d84610d2d565b6107cf576103aa86610d58565b6103b76040519182610d0c565b8681526020810190878583375f60208983010152519020946040516020810190868252876040820152604081526103ef606082610d0c565b51902095865f525f6020526001600160401b03600560405f20015460401c166107c05760405161041e81610cf1565b828152876001600160401b038060056020850194888652604081015f8152606082018d8152608083019189835260a08401988d8a5260c08501988742168a525f525f60205260405f209460018060a01b039060018060a01b03905116166001600160601b0360a01b86541617855560018060a01b03905116600185019060018060a01b03166001600160601b0360a01b82541617905560018060a01b03905116600284019060018060a01b03166001600160601b0360a01b82541617905551600383015551600482015501935116166001600160401b03198354161782555167ffffffffffffffff60401b82549160401b169067ffffffffffffffff60401b1916179055855f52600160205260405f20815f526020528660405f2055855f52600260205260405f20805490680100000000000000008210156107ac5760018201808255821015610798575f5260205f200155845f525f60205260018060a01b0360405f20541660405190610593606083610d0c565b60028252602082016040368237825115610798577f0b10b9e9b038ad9d16e231f059f2a49103222ea283bc0a8da85baf221dc9112590528151600110156107985781602080927fd364bf8131240063376a004be345cc15c3c6e7cd39193a49b0652726f4fc06ef60406106999601528b896106456002602a60405185819689830196693d913630b132b6111d1160b11b885284840137810161227d60f01b838201520301601d19810185520183610d0c565b6040519687958694630e47e2b960e21b865260048601528960248601527f4a1d975445b05d351ed3fa71113edce2c3f0486d8f89f2a0ae95e868a762ef30604486015260a0606486015260a4850190610cbe565b916003198484030160848501525180918184528584015e5f848284010152601f8019910116010301815f60018060a01b037f0000000000000000000000000000000000000000000000000000000000000000165af161075e575b508593877fbbdab3d3b22b2c5650b690c9bf316a52977ac2a7e16ff4cfa664a610b3f69cbb946020999460a09460405196879560808752816080880152878701375f8585018701528b85015260408401526060830152601f01601f19168101030190a3604051908152f35b969192936020883d602011610790575b8161077b60209383610d0c565b810103126101325791965090929190856106f3565b3d915061076e565b634e487b7160e01b5f52603260045260245ffd5b634e487b7160e01b5f52604160045260245ffd5b63731918fb60e11b5f5260045ffd5b636c80f2e360e01b5f5260045ffd5b63cccf65f560e01b5f5260045ffd5b3461013257602036600319011261013257602061080b600435610d2d565b6040519015158152f35b3461013257604036600319011261013257600435610831610ca8565b61083a82610d73565b5f82815260208190526040812080546001600160a01b0319166001600160a01b039390931692831790559091907fd3d10d874a10020c2bce719499d1fd8756d880b128eb2945dd01b3830854e7169080a3005b34610132576020366003190112610132576004355f525f6020526020600460405f200154604051908152f35b34610132576020366003190112610132576004355f525f60205260206001600160401b03600560405f20015460401c16604051908152f35b34610132576040366003190112610132576004356024356001600160401b0381168091036101325760207feff7efb93c3742eb656b2c62dfdc4b1fcda8426c310764d7577c875d1c67a3b39161094684610d73565b835f525f8252600560405f2001816001600160401b0319825416179055604051908152a2005b34610132576020366003190112610132576004355f52600260205260405f206040519081602082549182815201915f5260205f20905f5b8181106109d2576109ce856109ba81870382610d0c565b604051918291602083526020830190610cbe565b0390f35b82548452602090930192600192830192016109a3565b34610132576020366003190112610132576004355f525f602052602060018060a01b03600260405f20015416604051908152f35b3461013257604036600319011261013257600435610a38610ca8565b610a4182610d73565b5f82815260208190526040812060010180546001600160a01b0319166001600160a01b039390931692831790559091907f9536641548723c985801eef80fb38603b837722ccd8b61d42f6247c28afd33599080a3005b34610132576040366003190112610132576004356001600160a01b0381169081900361013257610ac5610ca8565b7f000000000000000000000000000000000000000000000000000000000000000090815f525f6020526001600160401b03600560405f20015460401c16610c345760405190610b1382610cf1565b8382526001600160a01b03908116602080840191825260408085018781525f606087018181527f314c1dfbbccab41a44cf9fefc21e632eb8e01bc0346d4414114d4c3dd0e9fdf16080890190815260a089018381526001600160401b0342811660c08c019081528c8652978590528685209a518b54908b166001600160a01b0319918216178c55985160018c018054918c16918b16919091179055945160028b01805491909a1698169790971790975551600388015594516004870155925160059095018054925167ffffffffffffffff60401b921b91909116949092166fffffffffffffffffffffffffffffffff1990911617929092179091557f1d8ec4d965dc26f32436c1c3d08cc32e07b117d640a07bcd64ee32f9c460406d9080a3005b63e74dde6b60e01b5f5260045ffd5b34610132576020366003190112610132576004355f525f602052602060018060a01b0360405f205416604051908152f35b34610132576020366003190112610132576004355f90815260208181526040909120600101546001600160a01b0316825290f35b602435906001600160a01b038216820361013257565b90602080835192838152019201905f5b818110610cdb5750505090565b8251845260209384019390920191600101610cce565b60e081019081106001600160401b038211176107ac57604052565b90601f801991011681019081106001600160401b038211176107ac57604052565b5f525f6020526001600160401b03600560405f200154168015159081610d51575090565b9050421190565b6001600160401b0381116107ac57601f01601f191660200190565b5f525f60205260405f206001600160401b03600582015460401c1615610dbc5754610da6906001600160a01b0316610e37565b15610dad57565b63ea8e4eb560e01b5f5260045ffd5b634825e09360e01b5f5260045ffd5b5f525f60205260405f206001600160401b03600582015460401c1615610e285760028101546001600160a01b03168015159081610e1e575b50610e1b5754610da6906001600160a01b0316610e37565b50565b905033145f610e03565b632749f57360e21b5f5260045ffd5b336001600160a01b03821614610ecc575f809160405160208101906317aa5fb760e11b825233602482015260248152610e71604482610d0c565b51915afa3d15610ec5573d610e8581610d58565b90610e936040519283610d0c565b81523d5f602083013e5b81610ea6575090565b9050602081805181010312610132576020015180151581036101325790565b6060610e9d565b5060019056fea2646970667358221220adf77b25f03375c089ed277c40665523e47808b8c77045e383da031252e0b5cb64736f6c634300081c0033","linkReferences":{}},"methodIdentifiers":{"AGENT_ROOT()":"e7acc08b","RELATIONSHIPS()":"a96d4bef","childCount(bytes32)":"981a3137","childLabelhashes(bytes32)":"3002c03b","childNode(bytes32,bytes32)":"ed51e46a","expiry(bytes32)":"d2ec5fca","initializeRoot(address,address)":"1709945d","isExpired(bytes32)":"6db2feb2","labelhash(bytes32)":"440e4fef","owner(bytes32)":"02571be3","parent(bytes32)":"be6d17cd","recordExists(bytes32)":"f79fe538","register(bytes32,string,address,address,uint64)":"7fd70975","registeredAt(bytes32)":"3dd8a007","renew(bytes32,uint64)":"3a83cfef","resolver(bytes32)":"0178b8bf","setOwner(bytes32,address)":"5b0fc9c3","setResolver(bytes32,address)":"1896f70a","setSubregistry(bytes32,address)":"c67f1185","subregistry(bytes32)":"20a37108"},"id":72}