{"abi":[{"type":"constructor","inputs":[{"name":"relationships","type":"address","internalType":"contract AgentRelationship"}],"stateMutability":"nonpayable"},{"type":"function","name":"AGENT_ROOT","inputs":[],"outputs":[{"name":"","type":"bytes32","internalType":"bytes32"}],"stateMutability":"pure"},{"type":"function","name":"KIND_AGENT","inputs":[],"outputs":[{"name":"","type":"bytes32","internalType":"bytes32"}],"stateMutability":"view"},{"type":"function","name":"KIND_GEO","inputs":[],"outputs":[{"name":"","type":"bytes32","internalType":"bytes32"}],"stateMutability":"view"},{"type":"function","name":"KIND_PEOPLE_GROUP","inputs":[],"outputs":[{"name":"","type":"bytes32","internalType":"bytes32"}],"stateMutability":"view"},{"type":"function","name":"RELATIONSHIPS","inputs":[],"outputs":[{"name":"","type":"address","internalType":"contract AgentRelationship"}],"stateMutability":"view"},{"type":"function","name":"childCount","inputs":[{"name":"parentNode","type":"bytes32","internalType":"bytes32"}],"outputs":[{"name":"","type":"uint256","internalType":"uint256"}],"stateMutability":"view"},{"type":"function","name":"childLabelhashes","inputs":[{"name":"parentNode","type":"bytes32","internalType":"bytes32"}],"outputs":[{"name":"","type":"bytes32[]","internalType":"bytes32[]"}],"stateMutability":"view"},{"type":"function","name":"childNode","inputs":[{"name":"parentNode","type":"bytes32","internalType":"bytes32"},{"name":"lh","type":"bytes32","internalType":"bytes32"}],"outputs":[{"name":"","type":"bytes32","internalType":"bytes32"}],"stateMutability":"view"},{"type":"function","name":"expiry","inputs":[{"name":"node","type":"bytes32","internalType":"bytes32"}],"outputs":[{"name":"","type":"uint64","internalType":"uint64"}],"stateMutability":"view"},{"type":"function","name":"getRoots","inputs":[],"outputs":[{"name":"","type":"bytes32[]","internalType":"bytes32[]"}],"stateMutability":"view"},{"type":"function","name":"initializeRoot","inputs":[{"name":"label","type":"string","internalType":"string"},{"name":"rootOwner","type":"address","internalType":"address"},{"name":"resolverContract","type":"address","internalType":"address"},{"name":"kind","type":"bytes32","internalType":"bytes32"}],"outputs":[{"name":"rootNode","type":"bytes32","internalType":"bytes32"}],"stateMutability":"nonpayable"},{"type":"function","name":"initializeRoot","inputs":[{"name":"rootOwner","type":"address","internalType":"address"},{"name":"resolverContract","type":"address","internalType":"address"}],"outputs":[{"name":"","type":"bytes32","internalType":"bytes32"}],"stateMutability":"nonpayable"},{"type":"function","name":"isExpired","inputs":[{"name":"node","type":"bytes32","internalType":"bytes32"}],"outputs":[{"name":"","type":"bool","internalType":"bool"}],"stateMutability":"view"},{"type":"function","name":"isRoot","inputs":[{"name":"","type":"bytes32","internalType":"bytes32"}],"outputs":[{"name":"","type":"bool","internalType":"bool"}],"stateMutability":"view"},{"type":"function","name":"labelhash","inputs":[{"name":"node","type":"bytes32","internalType":"bytes32"}],"outputs":[{"name":"","type":"bytes32","internalType":"bytes32"}],"stateMutability":"view"},{"type":"function","name":"namehashRoot","inputs":[{"name":"label","type":"string","internalType":"string"}],"outputs":[{"name":"","type":"bytes32","internalType":"bytes32"}],"stateMutability":"pure"},{"type":"function","name":"owner","inputs":[{"name":"node","type":"bytes32","internalType":"bytes32"}],"outputs":[{"name":"","type":"address","internalType":"address"}],"stateMutability":"view"},{"type":"function","name":"parent","inputs":[{"name":"node","type":"bytes32","internalType":"bytes32"}],"outputs":[{"name":"","type":"bytes32","internalType":"bytes32"}],"stateMutability":"view"},{"type":"function","name":"recordExists","inputs":[{"name":"node","type":"bytes32","internalType":"bytes32"}],"outputs":[{"name":"","type":"bool","internalType":"bool"}],"stateMutability":"view"},{"type":"function","name":"register","inputs":[{"name":"parentNode","type":"bytes32","internalType":"bytes32"},{"name":"label","type":"string","internalType":"string"},{"name":"owner","type":"address","internalType":"address"},{"name":"resolver","type":"address","internalType":"address"},{"name":"expiry","type":"uint64","internalType":"uint64"}],"outputs":[{"name":"childNode","type":"bytes32","internalType":"bytes32"}],"stateMutability":"nonpayable"},{"type":"function","name":"registeredAt","inputs":[{"name":"node","type":"bytes32","internalType":"bytes32"}],"outputs":[{"name":"","type":"uint64","internalType":"uint64"}],"stateMutability":"view"},{"type":"function","name":"renew","inputs":[{"name":"node","type":"bytes32","internalType":"bytes32"},{"name":"newExpiry","type":"uint64","internalType":"uint64"}],"outputs":[],"stateMutability":"nonpayable"},{"type":"function","name":"resolver","inputs":[{"name":"node","type":"bytes32","internalType":"bytes32"}],"outputs":[{"name":"","type":"address","internalType":"address"}],"stateMutability":"view"},{"type":"function","name":"rootByLabel","inputs":[{"name":"label","type":"string","internalType":"string"}],"outputs":[{"name":"","type":"bytes32","internalType":"bytes32"}],"stateMutability":"view"},{"type":"function","name":"rootKind","inputs":[{"name":"","type":"bytes32","internalType":"bytes32"}],"outputs":[{"name":"","type":"bytes32","internalType":"bytes32"}],"stateMutability":"view"},{"type":"function","name":"setOwner","inputs":[{"name":"node","type":"bytes32","internalType":"bytes32"},{"name":"newOwner","type":"address","internalType":"address"}],"outputs":[],"stateMutability":"nonpayable"},{"type":"function","name":"setResolver","inputs":[{"name":"node","type":"bytes32","internalType":"bytes32"},{"name":"resolver","type":"address","internalType":"address"}],"outputs":[],"stateMutability":"nonpayable"},{"type":"function","name":"setSubregistry","inputs":[{"name":"node","type":"bytes32","internalType":"bytes32"},{"name":"subregistry","type":"address","internalType":"address"}],"outputs":[],"stateMutability":"nonpayable"},{"type":"function","name":"subregistry","inputs":[{"name":"node","type":"bytes32","internalType":"bytes32"}],"outputs":[{"name":"","type":"address","internalType":"address"}],"stateMutability":"view"},{"type":"event","name":"NameRegistered","inputs":[{"name":"node","type":"bytes32","indexed":true,"internalType":"bytes32"},{"name":"parent","type":"bytes32","indexed":true,"internalType":"bytes32"},{"name":"label","type":"string","indexed":false,"internalType":"string"},{"name":"owner","type":"address","indexed":false,"internalType":"address"},{"name":"resolver","type":"address","indexed":false,"internalType":"address"},{"name":"expiry","type":"uint64","indexed":false,"internalType":"uint64"}],"anonymous":false},{"type":"event","name":"NameRenewed","inputs":[{"name":"node","type":"bytes32","indexed":true,"internalType":"bytes32"},{"name":"newExpiry","type":"uint64","indexed":false,"internalType":"uint64"}],"anonymous":false},{"type":"event","name":"OwnerChanged","inputs":[{"name":"node","type":"bytes32","indexed":true,"internalType":"bytes32"},{"name":"newOwner","type":"address","indexed":true,"internalType":"address"}],"anonymous":false},{"type":"event","name":"ResolverChanged","inputs":[{"name":"node","type":"bytes32","indexed":true,"internalType":"bytes32"},{"name":"resolver","type":"address","indexed":true,"internalType":"address"}],"anonymous":false},{"type":"event","name":"RootInitialized","inputs":[{"name":"rootNode","type":"bytes32","indexed":true,"internalType":"bytes32"},{"name":"label","type":"string","indexed":false,"internalType":"string"},{"name":"owner","type":"address","indexed":true,"internalType":"address"},{"name":"kind","type":"bytes32","indexed":false,"internalType":"bytes32"}],"anonymous":false},{"type":"event","name":"SubregistryChanged","inputs":[{"name":"node","type":"bytes32","indexed":true,"internalType":"bytes32"},{"name":"subregistry","type":"address","indexed":true,"internalType":"address"}],"anonymous":false},{"type":"error","name":"EmptyLabel","inputs":[]},{"type":"error","name":"NameExpired","inputs":[]},{"type":"error","name":"NodeAlreadyExists","inputs":[]},{"type":"error","name":"NodeNotFound","inputs":[]},{"type":"error","name":"NotAuthorized","inputs":[]},{"type":"error","name":"ParentNotFound","inputs":[]},{"type":"error","name":"RootAlreadyInitialized","inputs":[]}],"bytecode":{"object":"0x60a034606d57601f6115c138819003918201601f19168301916001600160401b03831184841017607157808492602094604052833981010312606d57516001600160a01b0381168103606d5760805260405161153b9081610086823960805181818161034b015261073d0152f35b5f80fd5b634e487b7160e01b5f52604160045260245ffdfe6080806040526004361015610012575f80fd5b5f3560e01c9081630178b8bf1461115b5750806302571be31461112a5780631122d69b14610eee5780631709945d14610ca45780631896f70a14610c2957806320a3710814610bf55780632c8d620214610ba45780633002c03b14610b4057806334269b6214610b0657806335a5e06d14610a7a5780633a83cfef146109ff5780633dd8a007146109c7578063440e4fef1461099b578063544b355b146109615780635b0fc9c3146108e957806365804260146108bf5780636c3a1ced146108745780636db2feb21461084c5780637fd70975146103a4578063981a31371461037a578063a96d4bef14610336578063bdb07740146102fc578063be6d17cd146102d0578063c67f118514610255578063caadea1714610226578063d2ec5fca146101f1578063e7acc08b146101cf578063ed51e46a146101995763f79fe5381461015b575f80fd5b34610195576020366003190112610195576004355f525f60205260206001600160401b03600560405f20015460401c161515604051908152f35b5f80fd5b34610195576040366003190112610195576004355f52600160205260405f206024355f52602052602060405f2054604051908152f35b34610195575f3660031901126101955760206101e9611366565b604051908152f35b34610195576020366003190112610195576004355f525f60205260206001600160401b03600560405f20015416604051908152f35b34610195576020366003190112610195576004355f526003602052602060ff60405f2054166040519015158152f35b34610195576040366003190112610195576004356102716111bc565b61027a826113a6565b5f82815260208190526040812060020180546001600160a01b0319166001600160a01b039390931692831790559091907f0e72f9da0b4e1fb2524aed2d56a3d3e4cbfab78c4d72c6ddbf62d68d36892e889080a3005b34610195576020366003190112610195576004355f525f6020526020600360405f200154604051908152f35b34610195575f3660031901126101955760206040517fc1f1cd60f89e0921961cd440792b301bee8f3f17687938b98ccb602b473aa6d88152f35b34610195575f366003190112610195576040517f00000000000000000000000000000000000000000000000000000000000000006001600160a01b03168152602090f35b34610195576020366003190112610195576004355f526002602052602060405f2054604051908152f35b346101955760a0366003190112610195576004356024356001600160401b038111610195576103d790369060040161118f565b90916103e16111d2565b926064356001600160a01b038116939084900361019557608435946001600160401b03861680960361019557811561083d5761041c846113fe565b6104258461133b565b61082e57610434368385611272565b602081519101209460405160208101908682528760408201526040815261045c606082611236565b51902095865f525f6020526001600160401b03600560405f20015460401c1661081f5787876001600160401b03806005604051976104998961121b565b60018060a01b031697888152602081018881528c604083015f81526060840191825260808401928a845260a08501998a5260c08501988742168a525f525f60205260405f209460018060a01b039060018060a01b03905116166001600160601b0360a01b86541617855560018060a01b03905116600185019060018060a01b03166001600160601b0360a01b82541617905560018060a01b03905116600284019060018060a01b03166001600160601b0360a01b82541617905551600383015551600482015501935116166001600160401b03198354161782555167ffffffffffffffff60401b82549160401b169067ffffffffffffffff60401b1916179055855f52600160205260405f20815f526020528660405f2055855f52600260205260405f20805490600160401b82101561080b57600182018082558210156107f7575f5260205f200155845f525f60205260018060a01b0360405f20541660405190610605606083611236565b600282526020820160403682378251156107f7577f0b10b9e9b038ad9d16e231f059f2a49103222ea283bc0a8da85baf221dc9112590528151600110156107f75781602080927fd364bf8131240063376a004be345cc15c3c6e7cd39193a49b0652726f4fc06ef604061070a960152604051828101693d913630b132b6111d1160b11b8152898b602a8401376106b66002602a848d810161227d60f01b838201520301601d19810185520183611236565b6040519687958694630e47e2b960e21b865260048601528a60248601527f4a1d975445b05d351ed3fa71113edce2c3f0486d8f89f2a0ae95e868a762ef30604486015260a0606486015260a48501906111e8565b916003198484030160848501525180918184528584015e5f848284010152601f8019910116010301815f60018060a01b037f0000000000000000000000000000000000000000000000000000000000000000165af16107bf575b50918593916020977fbbdab3d3b22b2c5650b690c9bf316a52977ac2a7e16ff4cfa664a610b3f69cbb946107a56040519586956080875260808701916112ef565b928a850152604084015260608301520390a3604051908152f35b929093916020843d6020116107ef575b816107dc60209383611236565b8101031261019557919390925085610764565b3d91506107cf565b634e487b7160e01b5f52603260045260245ffd5b634e487b7160e01b5f52604160045260245ffd5b63731918fb60e11b5f5260045ffd5b636c80f2e360e01b5f5260045ffd5b63cccf65f560e01b5f5260045ffd5b3461019557602036600319011261019557602061086a60043561133b565b6040519015158152f35b34610195576020366003190112610195576004356001600160401b0381116101955736602382011215610195576101e96108ba6020923690602481600401359101611272565b61130f565b34610195576020366003190112610195576004355f526004602052602060405f2054604051908152f35b34610195576040366003190112610195576004356109056111bc565b61090e826113a6565b5f82815260208190526040812080546001600160a01b0319166001600160a01b039390931692831790559091907fd3d10d874a10020c2bce719499d1fd8756d880b128eb2945dd01b3830854e7169080a3005b34610195575f3660031901126101955760206040517f12a92f366771806f985df6347045bea9fe00a90efc5e145f41aafd476b14333f8152f35b34610195576020366003190112610195576004355f525f6020526020600460405f200154604051908152f35b34610195576020366003190112610195576004355f525f60205260206001600160401b03600560405f20015460401c16604051908152f35b34610195576040366003190112610195576004356024356001600160401b0381168091036101955760207feff7efb93c3742eb656b2c62dfdc4b1fcda8426c310764d7577c875d1c67a3b391610a54846113a6565b835f525f8252600560405f2001816001600160401b0319825416179055604051908152a2005b34610195575f3660031901126101955760405180602060065491828152019060065f527ff652222313e28459528d920b65115c16c04f3efc82aaedc97be59f3f377c0d3f905f5b818110610af057610aec85610ad881870382611236565b6040519182916020835260208301906111e8565b0390f35b8254845260209093019260019283019201610ac1565b34610195575f3660031901126101955760206040517f043bff677b63ab488b87b56edbbfcdf1eee7e42c25dd7123113945c32935e7528152f35b34610195576020366003190112610195576004355f52600260205260405f206040519081602082549182815201915f5260205f20905f5b818110610b8e57610aec85610ad881870382611236565b8254845260209093019260019283019201610b77565b34610195576020366003190112610195576004356001600160401b038111610195576020610bd78192369060040161118f565b91908260405193849283378101600581520301902054604051908152f35b34610195576020366003190112610195576004355f525f602052602060018060a01b03600260405f20015416604051908152f35b3461019557604036600319011261019557600435610c456111bc565b610c4e826113a6565b5f82815260208190526040812060010180546001600160a01b0319166001600160a01b039390931692831790559091907f9536641548723c985801eef80fb38603b837722ccd8b61d42f6247c28afd33599080a3005b34610195576040366003190112610195576004356001600160a01b0381169081900361019557610cd26111bc565b90610cdb611366565b90815f525f6020526001600160401b03600560405f20015460401c16610edf57604051602093610d0a8261121b565b8282526001600160a01b0390811685830190815260408084018581525f606086018181527f314c1dfbbccab41a44cf9fefc21e632eb8e01bc0346d4414114d4c3dd0e9fdf16080880190815260a08801838152426001600160401b0390811660c08b019081528c8652858e528786209a518b546001600160a01b0319908116918c16919091178c55985160018c810180548c16928d1692909217909155965160028c018054909a169a169990991790975591516003808a019190915590516004808a019190915591516005988901805498516fffffffffffffffffffffffffffffffff19909916919097161796851b67ffffffffffffffff60401b1696909617909455878152938852818420805460ff19169091179055858352908652908190207fc1f1cd60f89e0921961cd440792b301bee8f3f17687938b98ccb602b473aa6d8905551641859d95b9d60da1b81528082019190915260259020829055610e71826112a8565b817f6f5008d848b79a7de7250fecbb01c61f5b1001b4c36cbbcc082503e4fa1281a960806040516040815260056040820152641859d95b9d60da1b60608201527fc1f1cd60f89e0921961cd440792b301bee8f3f17687938b98ccb602b473aa6d887820152a3604051908152f35b63e74dde6b60e01b5f5260045ffd5b34610195576080366003190112610195576004356001600160401b03811161019557610f1e90369060040161118f565b90610f276111bc565b610f2f6111d2565b60643590841561083d57610f476108ba368787611272565b93845f525f6020526001600160401b03600560405f20015460401c16610edf5760209585937f6f5008d848b79a7de7250fecbb01c61f5b1001b4c36cbbcc082503e4fa1281a993856001600160401b03806005610fa536888a611272565b8d81519101209a60405190610fb98261121b565b60018060a01b03169b8c82528e82019660018060a01b03168752604082018d815260608301905f82526080840192835260a08401985f8a5260c08501988742168a525f5260205f905260405f209460018060a01b039060018060a01b03905116166001600160601b0360a01b86541617855560018060a01b03905116600185019060018060a01b03166001600160601b0360a01b82541617905560018060a01b03905116600284019060018060a01b03166001600160601b0360a01b82541617905551600383015551600482015501935116166001600160401b03198354161782555167ffffffffffffffff60401b82549160401b169067ffffffffffffffff60401b1916179055845f526003885260405f20600160ff19825416179055845f52600488528060405f205584604051838582378981858101600581520301902055611103856112a8565b61111a6040519384936040855260408501916112ef565b90888301520390a3604051908152f35b34610195576020366003190112610195576004355f525f602052602060018060a01b0360405f205416604051908152f35b34610195576020366003190112610195576004355f90815260208181526040909120600101546001600160a01b0316825290f35b9181601f84011215610195578235916001600160401b038311610195576020838186019501011161019557565b602435906001600160a01b038216820361019557565b604435906001600160a01b038216820361019557565b90602080835192838152019201905f5b8181106112055750505090565b82518452602093840193909201916001016111f8565b60e081019081106001600160401b0382111761080b57604052565b90601f801991011681019081106001600160401b0382111761080b57604052565b6001600160401b03811161080b57601f01601f191660200190565b92919261127e82611257565b9161128c6040519384611236565b829481845281830111610195578281602093845f960137010152565b600654600160401b81101561080b5760018101806006558110156107f75760065f527ff652222313e28459528d920b65115c16c04f3efc82aaedc97be59f3f377c0d3f0155565b908060209392818452848401375f828201840152601f01601f1916010190565b6020815191012060405160208101915f8352604082015260408152611335606082611236565b51902090565b5f525f6020526001600160401b03600560405f20015416801515908161135f575090565b9050421190565b60405160208101905f82527f314c1dfbbccab41a44cf9fefc21e632eb8e01bc0346d4414114d4c3dd0e9fdf1604082015260408152611335606082611236565b5f525f60205260405f206001600160401b03600582015460401c16156113ef57546113d9906001600160a01b031661146a565b156113e057565b63ea8e4eb560e01b5f5260045ffd5b634825e09360e01b5f5260045ffd5b5f525f60205260405f206001600160401b03600582015460401c161561145b5760028101546001600160a01b03168015159081611451575b5061144e57546113d9906001600160a01b031661146a565b50565b905033145f611436565b632749f57360e21b5f5260045ffd5b336001600160a01b038216146114ff575f809160405160208101906317aa5fb760e11b8252336024820152602481526114a4604482611236565b51915afa3d156114f8573d6114b881611257565b906114c66040519283611236565b81523d5f602083013e5b816114d9575090565b9050602081805181010312610195576020015180151581036101955790565b60606114d0565b5060019056fea2646970667358221220af030da11f01013b092d541702615fecb2745346f27404ab3e3e43d0f9fea42664736f6c634300081c0033","linkReferences":{}},"methodIdentifiers":{"AGENT_ROOT()":"e7acc08b","KIND_AGENT()":"bdb07740","KIND_GEO()":"544b355b","KIND_PEOPLE_GROUP()":"34269b62","RELATIONSHIPS()":"a96d4bef","childCount(bytes32)":"981a3137","childLabelhashes(bytes32)":"3002c03b","childNode(bytes32,bytes32)":"ed51e46a","expiry(bytes32)":"d2ec5fca","getRoots()":"35a5e06d","initializeRoot(address,address)":"1709945d","initializeRoot(string,address,address,bytes32)":"1122d69b","isExpired(bytes32)":"6db2feb2","isRoot(bytes32)":"caadea17","labelhash(bytes32)":"440e4fef","namehashRoot(string)":"6c3a1ced","owner(bytes32)":"02571be3","parent(bytes32)":"be6d17cd","recordExists(bytes32)":"f79fe538","register(bytes32,string,address,address,uint64)":"7fd70975","registeredAt(bytes32)":"3dd8a007","renew(bytes32,uint64)":"3a83cfef","resolver(bytes32)":"0178b8bf","rootByLabel(string)":"2c8d6202","rootKind(bytes32)":"65804260","setOwner(bytes32,address)":"5b0fc9c3","setResolver(bytes32,address)":"1896f70a","setSubregistry(bytes32,address)":"c67f1185","subregistry(bytes32)":"20a37108"},"id":73}