{"abi":[{"type":"function","name":"afterHook","inputs":[{"name":"","type":"bytes","internalType":"bytes"},{"name":"","type":"bytes","internalType":"bytes"},{"name":"","type":"bytes32","internalType":"bytes32"},{"name":"","type":"address","internalType":"address"},{"name":"","type":"address","internalType":"address"},{"name":"","type":"address","internalType":"address"},{"name":"","type":"uint256","internalType":"uint256"},{"name":"","type":"bytes","internalType":"bytes"}],"outputs":[],"stateMutability":"pure"},{"type":"function","name":"beforeHook","inputs":[{"name":"terms","type":"bytes","internalType":"bytes"},{"name":"args","type":"bytes","internalType":"bytes"},{"name":"","type":"bytes32","internalType":"bytes32"},{"name":"","type":"address","internalType":"address"},{"name":"","type":"address","internalType":"address"},{"name":"","type":"address","internalType":"address"},{"name":"","type":"uint256","internalType":"uint256"},{"name":"","type":"bytes","internalType":"bytes"}],"outputs":[],"stateMutability":"view"},{"type":"error","name":"NotInAwardsList","inputs":[]},{"type":"error","name":"TooEarly","inputs":[{"name":"nowTs","type":"uint256","internalType":"uint256"},{"name":"disputeUntil","type":"uint256","internalType":"uint256"}]}],"bytecode":{"object":"0x6080806040523460155761034d908161001a8239f35b5f80fdfe60806040526004361015610011575f80fd5b5f3560e01c8063a1422eb6146100435763d3128e3d1461002f575f80fd5b3461003f5761003d3661023a565b005b5f80fd5b3461003f5760606100533661023a565b505050505050509183908195929501031261003f5760208201358042106101f6575082019160808184031261003f576020810135906001600160a01b038216820361003f57606081013567ffffffffffffffff811161003f5781019380601f8601121561003f5784359467ffffffffffffffff86116101e2578560051b90604051966100e260208401896102f5565b875260208088019282010192831161003f57602001905b8282106101d25750505060408051916020830193813585526bffffffffffffffffffffffff199060601b1682840152013560548201526054815261013e6074826102f5565b519020915f925b81518410156101b75760019060208560051b840101518082105f1461018f5760405190602082019283526040820152604081526101836060826102f5565b5190205b930192610145565b9060405190602082019283526040820152604081526101af6060826102f5565b519020610187565b6040830135036101c357005b634026972f60e01b5f5260045ffd5b81358152602091820191016100f9565b634e487b7160e01b5f52604160045260245ffd5b63e58369d160e01b5f524260045260245260445ffd5b9181601f8401121561003f5782359167ffffffffffffffff831161003f576020838186019501011161003f57565b9061010060031983011261003f5760043567ffffffffffffffff811161003f57826102679160040161020c565b9290929160243567ffffffffffffffff811161003f578261028a9160040161020c565b90929091604435916064356001600160a01b038116810361003f57916084356001600160a01b038116810361003f579160a4356001600160a01b038116810361003f579160c4359160e4359067ffffffffffffffff821161003f576102f19160040161020c565b9091565b90601f8019910116810190811067ffffffffffffffff8211176101e25760405256fea264697066735822122089edd41e352c3d9ec1a117715b27f88d30f6c5de49e33daa5b1c2f8a4053ec4e64736f6c634300081c0033","linkReferences":{}},"methodIdentifiers":{"afterHook(bytes,bytes,bytes32,address,address,address,uint256,bytes)":"d3128e3d","beforeHook(bytes,bytes,bytes32,address,address,address,uint256,bytes)":"a1422eb6"},"id":135}