{"abi":[{"type":"function","name":"enforceCaveat","inputs":[{"name":"terms","type":"bytes","internalType":"bytes"},{"name":"","type":"address","internalType":"address"},{"name":"","type":"address","internalType":"address"},{"name":"","type":"uint256","internalType":"uint256"},{"name":"data","type":"bytes","internalType":"bytes"}],"outputs":[{"name":"","type":"bool","internalType":"bool"}],"stateMutability":"pure"}],"bytecode":{"object":"0x60808060405234601557610253908161001a8239f35b5f80fdfe60806040526004361015610011575f80fd5b5f3560e01c635a6cdb6414610024575f80fd5b346100a05760a03660031901126100a05760043567ffffffffffffffff81116100a0576100559036906004016100a4565b61005d6100d2565b506100666100e8565b506084359067ffffffffffffffff82116100a05760209261008e6100969336906004016100a4565b9290916100fe565b6040519015158152f35b5f80fd5b9181601f840112156100a05782359167ffffffffffffffff83116100a057602083818601950101116100a057565b602435906001600160a01b03821682036100a057565b604435906001600160a01b03821682036100a057565b92919091600481106101e0576004116100a0579082019190356001600160e01b031916906020818403126100a05780359067ffffffffffffffff82116100a0570182601f820112156100a05780359267ffffffffffffffff8411610209578360051b9160405194601f19603f850116860186811067ffffffffffffffff8211176102095760405285526020808601938201019182116100a057602001915b8183106101e8575050505f918051925b838110156101e057600581901b8201602001516001600160e01b03191683146101d7576001016101ac565b50505050600190565b505050505f90565b82356001600160e01b0319811681036100a05781526020928301920161019c565b634e487b7160e01b5f52604160045260245ffdfea2646970667358221220cd6b0318f4e3fdb9220a9d862a374bdf324062157578f212ed17b388bc4d9d7364736f6c634300081c0033","linkReferences":{}},"methodIdentifiers":{"enforceCaveat(bytes,address,address,uint256,bytes)":"5a6cdb64"},"id":73}