{"abi":[{"type":"constructor","inputs":[],"stateMutability":"nonpayable"},{"type":"receive","stateMutability":"payable"},{"type":"function","name":"addStake","inputs":[{"name":"unstakeDelaySec","type":"uint32","internalType":"uint32"}],"outputs":[],"stateMutability":"payable"},{"type":"function","name":"balanceOf","inputs":[{"name":"account","type":"address","internalType":"address"}],"outputs":[{"name":"","type":"uint256","internalType":"uint256"}],"stateMutability":"view"},{"type":"function","name":"delegateAndRevert","inputs":[{"name":"target","type":"address","internalType":"address"},{"name":"data","type":"bytes","internalType":"bytes"}],"outputs":[],"stateMutability":"nonpayable"},{"type":"function","name":"depositTo","inputs":[{"name":"account","type":"address","internalType":"address"}],"outputs":[],"stateMutability":"payable"},{"type":"function","name":"eip712Domain","inputs":[],"outputs":[{"name":"fields","type":"bytes1","internalType":"bytes1"},{"name":"name","type":"string","internalType":"string"},{"name":"version","type":"string","internalType":"string"},{"name":"chainId","type":"uint256","internalType":"uint256"},{"name":"verifyingContract","type":"address","internalType":"address"},{"name":"salt","type":"bytes32","internalType":"bytes32"},{"name":"extensions","type":"uint256[]","internalType":"uint256[]"}],"stateMutability":"view"},{"type":"function","name":"getCurrentUserOpHash","inputs":[],"outputs":[{"name":"","type":"bytes32","internalType":"bytes32"}],"stateMutability":"view"},{"type":"function","name":"getDepositInfo","inputs":[{"name":"account","type":"address","internalType":"address"}],"outputs":[{"name":"info","type":"tuple","internalType":"struct IStakeManager.DepositInfo","components":[{"name":"deposit","type":"uint256","internalType":"uint256"},{"name":"staked","type":"bool","internalType":"bool"},{"name":"stake","type":"uint112","internalType":"uint112"},{"name":"unstakeDelaySec","type":"uint32","internalType":"uint32"},{"name":"withdrawTime","type":"uint48","internalType":"uint48"}]}],"stateMutability":"view"},{"type":"function","name":"getDomainSeparatorV4","inputs":[],"outputs":[{"name":"","type":"bytes32","internalType":"bytes32"}],"stateMutability":"view"},{"type":"function","name":"getNonce","inputs":[{"name":"sender","type":"address","internalType":"address"},{"name":"key","type":"uint192","internalType":"uint192"}],"outputs":[{"name":"nonce","type":"uint256","internalType":"uint256"}],"stateMutability":"view"},{"type":"function","name":"getPackedUserOpTypeHash","inputs":[],"outputs":[{"name":"","type":"bytes32","internalType":"bytes32"}],"stateMutability":"pure"},{"type":"function","name":"getSenderAddress","inputs":[{"name":"initCode","type":"bytes","internalType":"bytes"}],"outputs":[],"stateMutability":"nonpayable"},{"type":"function","name":"getUserOpHash","inputs":[{"name":"userOp","type":"tuple","internalType":"struct PackedUserOperation","components":[{"name":"sender","type":"address","internalType":"address"},{"name":"nonce","type":"uint256","internalType":"uint256"},{"name":"initCode","type":"bytes","internalType":"bytes"},{"name":"callData","type":"bytes","internalType":"bytes"},{"name":"accountGasLimits","type":"bytes32","internalType":"bytes32"},{"name":"preVerificationGas","type":"uint256","internalType":"uint256"},{"name":"gasFees","type":"bytes32","internalType":"bytes32"},{"name":"paymasterAndData","type":"bytes","internalType":"bytes"},{"name":"signature","type":"bytes","internalType":"bytes"}]}],"outputs":[{"name":"","type":"bytes32","internalType":"bytes32"}],"stateMutability":"view"},{"type":"function","name":"handleAggregatedOps","inputs":[{"name":"opsPerAggregator","type":"tuple[]","internalType":"struct IEntryPoint.UserOpsPerAggregator[]","components":[{"name":"userOps","type":"tuple[]","internalType":"struct PackedUserOperation[]","components":[{"name":"sender","type":"address","internalType":"address"},{"name":"nonce","type":"uint256","internalType":"uint256"},{"name":"initCode","type":"bytes","internalType":"bytes"},{"name":"callData","type":"bytes","internalType":"bytes"},{"name":"accountGasLimits","type":"bytes32","internalType":"bytes32"},{"name":"preVerificationGas","type":"uint256","internalType":"uint256"},{"name":"gasFees","type":"bytes32","internalType":"bytes32"},{"name":"paymasterAndData","type":"bytes","internalType":"bytes"},{"name":"signature","type":"bytes","internalType":"bytes"}]},{"name":"aggregator","type":"address","internalType":"contract IAggregator"},{"name":"signature","type":"bytes","internalType":"bytes"}]},{"name":"beneficiary","type":"address","internalType":"address payable"}],"outputs":[],"stateMutability":"nonpayable"},{"type":"function","name":"handleOps","inputs":[{"name":"ops","type":"tuple[]","internalType":"struct PackedUserOperation[]","components":[{"name":"sender","type":"address","internalType":"address"},{"name":"nonce","type":"uint256","internalType":"uint256"},{"name":"initCode","type":"bytes","internalType":"bytes"},{"name":"callData","type":"bytes","internalType":"bytes"},{"name":"accountGasLimits","type":"bytes32","internalType":"bytes32"},{"name":"preVerificationGas","type":"uint256","internalType":"uint256"},{"name":"gasFees","type":"bytes32","internalType":"bytes32"},{"name":"paymasterAndData","type":"bytes","internalType":"bytes"},{"name":"signature","type":"bytes","internalType":"bytes"}]},{"name":"beneficiary","type":"address","internalType":"address payable"}],"outputs":[],"stateMutability":"nonpayable"},{"type":"function","name":"incrementNonce","inputs":[{"name":"key","type":"uint192","internalType":"uint192"}],"outputs":[],"stateMutability":"nonpayable"},{"type":"function","name":"innerHandleOp","inputs":[{"name":"callData","type":"bytes","internalType":"bytes"},{"name":"opInfo","type":"tuple","internalType":"struct EntryPoint.UserOpInfo","components":[{"name":"mUserOp","type":"tuple","internalType":"struct EntryPoint.MemoryUserOp","components":[{"name":"sender","type":"address","internalType":"address"},{"name":"nonce","type":"uint256","internalType":"uint256"},{"name":"verificationGasLimit","type":"uint256","internalType":"uint256"},{"name":"callGasLimit","type":"uint256","internalType":"uint256"},{"name":"paymasterVerificationGasLimit","type":"uint256","internalType":"uint256"},{"name":"paymasterPostOpGasLimit","type":"uint256","internalType":"uint256"},{"name":"preVerificationGas","type":"uint256","internalType":"uint256"},{"name":"paymaster","type":"address","internalType":"address"},{"name":"maxFeePerGas","type":"uint256","internalType":"uint256"},{"name":"maxPriorityFeePerGas","type":"uint256","internalType":"uint256"}]},{"name":"userOpHash","type":"bytes32","internalType":"bytes32"},{"name":"prefund","type":"uint256","internalType":"uint256"},{"name":"contextOffset","type":"uint256","internalType":"uint256"},{"name":"preOpGas","type":"uint256","internalType":"uint256"}]},{"name":"context","type":"bytes","internalType":"bytes"}],"outputs":[{"name":"actualGasCost","type":"uint256","internalType":"uint256"}],"stateMutability":"nonpayable"},{"type":"function","name":"nonceSequenceNumber","inputs":[{"name":"","type":"address","internalType":"address"},{"name":"","type":"uint192","internalType":"uint192"}],"outputs":[{"name":"","type":"uint256","internalType":"uint256"}],"stateMutability":"view"},{"type":"function","name":"senderCreator","inputs":[],"outputs":[{"name":"","type":"address","internalType":"contract ISenderCreator"}],"stateMutability":"view"},{"type":"function","name":"supportsInterface","inputs":[{"name":"interfaceId","type":"bytes4","internalType":"bytes4"}],"outputs":[{"name":"","type":"bool","internalType":"bool"}],"stateMutability":"view"},{"type":"function","name":"unlockStake","inputs":[],"outputs":[],"stateMutability":"nonpayable"},{"type":"function","name":"withdrawStake","inputs":[{"name":"withdrawAddress","type":"address","internalType":"address payable"}],"outputs":[],"stateMutability":"nonpayable"},{"type":"function","name":"withdrawTo","inputs":[{"name":"withdrawAddress","type":"address","internalType":"address payable"},{"name":"withdrawAmount","type":"uint256","internalType":"uint256"}],"outputs":[],"stateMutability":"nonpayable"},{"type":"event","name":"AccountDeployed","inputs":[{"name":"userOpHash","type":"bytes32","indexed":true,"internalType":"bytes32"},{"name":"sender","type":"address","indexed":true,"internalType":"address"},{"name":"factory","type":"address","indexed":false,"internalType":"address"},{"name":"paymaster","type":"address","indexed":false,"internalType":"address"}],"anonymous":false},{"type":"event","name":"BeforeExecution","inputs":[],"anonymous":false},{"type":"event","name":"Deposited","inputs":[{"name":"account","type":"address","indexed":true,"internalType":"address"},{"name":"totalDeposit","type":"uint256","indexed":false,"internalType":"uint256"}],"anonymous":false},{"type":"event","name":"EIP712DomainChanged","inputs":[],"anonymous":false},{"type":"event","name":"EIP7702AccountInitialized","inputs":[{"name":"userOpHash","type":"bytes32","indexed":true,"internalType":"bytes32"},{"name":"sender","type":"address","indexed":true,"internalType":"address"},{"name":"delegate","type":"address","indexed":true,"internalType":"address"}],"anonymous":false},{"type":"event","name":"IgnoredInitCode","inputs":[{"name":"userOpHash","type":"bytes32","indexed":true,"internalType":"bytes32"},{"name":"sender","type":"address","indexed":true,"internalType":"address"},{"name":"unusedFactory","type":"address","indexed":false,"internalType":"address"}],"anonymous":false},{"type":"event","name":"PostOpRevertReason","inputs":[{"name":"userOpHash","type":"bytes32","indexed":true,"internalType":"bytes32"},{"name":"sender","type":"address","indexed":true,"internalType":"address"},{"name":"nonce","type":"uint256","indexed":false,"internalType":"uint256"},{"name":"revertReason","type":"bytes","indexed":false,"internalType":"bytes"}],"anonymous":false},{"type":"event","name":"SignatureAggregatorChanged","inputs":[{"name":"aggregator","type":"address","indexed":true,"internalType":"address"}],"anonymous":false},{"type":"event","name":"StakeLocked","inputs":[{"name":"account","type":"address","indexed":true,"internalType":"address"},{"name":"totalStaked","type":"uint256","indexed":false,"internalType":"uint256"},{"name":"unstakeDelaySec","type":"uint256","indexed":false,"internalType":"uint256"}],"anonymous":false},{"type":"event","name":"StakeUnlocked","inputs":[{"name":"account","type":"address","indexed":true,"internalType":"address"},{"name":"withdrawTime","type":"uint256","indexed":false,"internalType":"uint256"}],"anonymous":false},{"type":"event","name":"StakeWithdrawn","inputs":[{"name":"account","type":"address","indexed":true,"internalType":"address"},{"name":"withdrawAddress","type":"address","indexed":false,"internalType":"address"},{"name":"amount","type":"uint256","indexed":false,"internalType":"uint256"}],"anonymous":false},{"type":"event","name":"UserOperationEvent","inputs":[{"name":"userOpHash","type":"bytes32","indexed":true,"internalType":"bytes32"},{"name":"sender","type":"address","indexed":true,"internalType":"address"},{"name":"paymaster","type":"address","indexed":true,"internalType":"address"},{"name":"nonce","type":"uint256","indexed":false,"internalType":"uint256"},{"name":"success","type":"bool","indexed":false,"internalType":"bool"},{"name":"actualGasCost","type":"uint256","indexed":false,"internalType":"uint256"},{"name":"actualGasUsed","type":"uint256","indexed":false,"internalType":"uint256"}],"anonymous":false},{"type":"event","name":"UserOperationPrefundTooLow","inputs":[{"name":"userOpHash","type":"bytes32","indexed":true,"internalType":"bytes32"},{"name":"sender","type":"address","indexed":true,"internalType":"address"},{"name":"nonce","type":"uint256","indexed":false,"internalType":"uint256"}],"anonymous":false},{"type":"event","name":"UserOperationRevertReason","inputs":[{"name":"userOpHash","type":"bytes32","indexed":true,"internalType":"bytes32"},{"name":"sender","type":"address","indexed":true,"internalType":"address"},{"name":"nonce","type":"uint256","indexed":false,"internalType":"uint256"},{"name":"revertReason","type":"bytes","indexed":false,"internalType":"bytes"}],"anonymous":false},{"type":"event","name":"Withdrawn","inputs":[{"name":"account","type":"address","indexed":true,"internalType":"address"},{"name":"withdrawAddress","type":"address","indexed":false,"internalType":"address"},{"name":"amount","type":"uint256","indexed":false,"internalType":"uint256"}],"anonymous":false},{"type":"error","name":"DelegateAndRevert","inputs":[{"name":"success","type":"bool","internalType":"bool"},{"name":"ret","type":"bytes","internalType":"bytes"}]},{"type":"error","name":"DepositWithdrawalFailed","inputs":[{"name":"account","type":"address","internalType":"address"},{"name":"withdrawAddress","type":"address","internalType":"address"},{"name":"amount","type":"uint256","internalType":"uint256"},{"name":"revertReason","type":"bytes","internalType":"bytes"}]},{"type":"error","name":"Eip7702SenderNotDelegate","inputs":[{"name":"sender","type":"address","internalType":"address"}]},{"type":"error","name":"Eip7702SenderWithoutCode","inputs":[{"name":"sender","type":"address","internalType":"address"}]},{"type":"error","name":"FailedOp","inputs":[{"name":"opIndex","type":"uint256","internalType":"uint256"},{"name":"reason","type":"string","internalType":"string"}]},{"type":"error","name":"FailedOpWithRevert","inputs":[{"name":"opIndex","type":"uint256","internalType":"uint256"},{"name":"reason","type":"string","internalType":"string"},{"name":"inner","type":"bytes","internalType":"bytes"}]},{"type":"error","name":"FailedSendToBeneficiary","inputs":[{"name":"beneficiary","type":"address","internalType":"address"},{"name":"amount","type":"uint256","internalType":"uint256"},{"name":"revertData","type":"bytes","internalType":"bytes"}]},{"type":"error","name":"InsufficientDeposit","inputs":[{"name":"currentDeposit","type":"uint256","internalType":"uint256"},{"name":"withdrawAmount","type":"uint256","internalType":"uint256"}]},{"type":"error","name":"InternalFunction","inputs":[]},{"type":"error","name":"InvalidBeneficiary","inputs":[{"name":"beneficiary","type":"address","internalType":"address"}]},{"type":"error","name":"InvalidPaymaster","inputs":[{"name":"paymaster","type":"address","internalType":"address"}]},{"type":"error","name":"InvalidPaymasterData","inputs":[{"name":"paymasterAndDataLength","type":"uint256","internalType":"uint256"}]},{"type":"error","name":"InvalidPaymasterSignatureLength","inputs":[{"name":"dataLength","type":"uint256","internalType":"uint256"},{"name":"pmSignatureLength","type":"uint256","internalType":"uint256"}]},{"type":"error","name":"InvalidShortString","inputs":[]},{"type":"error","name":"InvalidStake","inputs":[{"name":"msgValue","type":"uint256","internalType":"uint256"},{"name":"currentStake","type":"uint256","internalType":"uint256"}]},{"type":"error","name":"InvalidUnstakeDelay","inputs":[{"name":"newUnstakeDelaySec","type":"uint256","internalType":"uint256"},{"name":"currentUnstakeDelaySec","type":"uint256","internalType":"uint256"}]},{"type":"error","name":"NotStaked","inputs":[{"name":"currentStake","type":"uint256","internalType":"uint256"},{"name":"unstakeDelaySec","type":"uint256","internalType":"uint256"},{"name":"staked","type":"bool","internalType":"bool"}]},{"type":"error","name":"PostOpReverted","inputs":[{"name":"returnData","type":"bytes","internalType":"bytes"}]},{"type":"error","name":"Reentrancy","inputs":[]},{"type":"error","name":"SenderAddressResult","inputs":[{"name":"sender","type":"address","internalType":"address"}]},{"type":"error","name":"SignatureValidationFailed","inputs":[{"name":"aggregator","type":"address","internalType":"address"}]},{"type":"error","name":"StakeNotUnlocked","inputs":[{"name":"withdrawTime","type":"uint256","internalType":"uint256"},{"name":"blockTimestamp","type":"uint256","internalType":"uint256"}]},{"type":"error","name":"StakeWithdrawalFailed","inputs":[{"name":"account","type":"address","internalType":"address"},{"name":"withdrawAddress","type":"address","internalType":"address"},{"name":"amount","type":"uint256","internalType":"uint256"},{"name":"revertReason","type":"bytes","internalType":"bytes"}]},{"type":"error","name":"StringTooLong","inputs":[{"name":"str","type":"string","internalType":"string"}]},{"type":"error","name":"WithdrawalNotDue","inputs":[{"name":"withdrawTime","type":"uint256","internalType":"uint256"},{"name":"blockTimestamp","type":"uint256","internalType":"uint256"}]}],"bytecode":{"object":"0x610180604052604051610011906101a7565b604051809103905ff08015801561002a573d5f5f3e3d5ffd5b506001600160a01b031661016052348015610043575f5ffd5b5060408051808201825260078152664552433433333760c81b602080830191909152825180840190935260018352603160f81b908301529061008682600261012f565b6101205261009581600361012f565b61014052815160208084019190912060e052815190820120610100524660a05261012160e05161010051604080517f8b73c3c69bb8fe3d512ecc4cf759cc79239f7b179b0ffacaa9a75d522b39400f60208201529081019290925260608201524660808201523060a08201525f9060c00160405160208183030381529060405280519060200120905090565b60805250503060c05261035e565b5f60208351101561014a5761014383610161565b905061015b565b81610155848261024c565b5060ff90505b92915050565b5f5f829050601f81511115610194578260405163305a27a960e01b815260040161018b9190610306565b60405180910390fd5b805161019f8261033b565b179392505050565b61052a806144c283390190565b634e487b7160e01b5f52604160045260245ffd5b600181811c908216806101dc57607f821691505b6020821081036101fa57634e487b7160e01b5f52602260045260245ffd5b50919050565b601f82111561024757805f5260205f20601f840160051c810160208510156102255750805b601f840160051c820191505b81811015610244575f8155600101610231565b50505b505050565b81516001600160401b03811115610265576102656101b4565b6102798161027384546101c8565b84610200565b6020601f8211600181146102ab575f83156102945750848201515b5f19600385901b1c1916600184901b178455610244565b5f84815260208120601f198516915b828110156102da57878501518255602094850194600190920191016102ba565b50848210156102f757868401515f19600387901b60f8161c191681555b50505050600190811b01905550565b602081525f82518060208401528060208501604085015e5f604082850101526040601f19601f83011684010191505092915050565b805160208083015191908110156101fa575f1960209190910360031b1b16919050565b60805160a05160c05160e051610100516101205161014051610160516140f46103ce5f395f81816101d401528181610dcd01528181612b870152612d3f01525f611d6501525f611d3801525f61180a01525f6117e201525f61173d01525f61176701525f61179101526140f45ff3fe608060405260043610610133575f3560e01c80635287ce12116100a85780639b249f691161006d5780639b249f69146104e2578063b0a398d114610501578063b760faf914610514578063bb9fe6bf14610527578063c23a5cea1461053b578063dbed18e01461055a575f5ffd5b80635287ce121461033557806370a0823114610449578063765e827f1461047d57806384b0196e1461049c578063850aaf62146104c3575f5ffd5b806313c65a6e116100f957806313c65a6e1461021d578063154e58dc146102315780631b2e01b814610263578063205c28781461029957806322cdde4c146102b857806335567e1a146102d7575f5ffd5b806242dc531461014757806301ffc9a7146101795780630396cb60146101a857806309ccb880146101bb5780630bd28e3b146101fe575f5ffd5b366101435761014133610579565b005b5f5ffd5b348015610152575f5ffd5b506101666101613660046134e4565b6105d2565b6040519081526020015b60405180910390f35b348015610184575f5ffd5b506101986101933660046135b5565b610732565b6040519015158152602001610170565b6101416101b63660046135dc565b6107b9565b3480156101c6575f5ffd5b506040516001600160a01b037f0000000000000000000000000000000000000000000000000000000000000000168152602001610170565b348015610209575f5ffd5b50610141610218366004613615565b610a2c565b348015610228575f5ffd5b50610166610a62565b34801561023c575f5ffd5b507f29a0bca4af4be3421398da00295e58e6d7de38cb492214754cb6a47507dd6f8e610166565b34801561026e575f5ffd5b5061016661027d36600461362e565b600160209081525f928352604080842090915290825290205481565b3480156102a4575f5ffd5b506101416102b3366004613661565b610a70565b3480156102c3575f5ffd5b506101666102d236600461368b565b610b86565b3480156102e2575f5ffd5b506101666102f136600461362e565b6001600160a01b0382165f9081526001602090815260408083206001600160c01b038516845290915290819020549082901b67ffffffffffffffff19161792915050565b348015610340575f5ffd5b506103ef61034f3660046136c2565b6040805160a0810182525f80825260208201819052918101829052606081018290526080810191909152506001600160a01b03165f9081526020818152604091829020825160a0810184528154815260019091015460ff811615159282019290925261010082046001600160701b031692810192909252600160781b810463ffffffff166060830152600160981b900465ffffffffffff16608082015290565b60405161017091905f60a082019050825182526020830151151560208301526001600160701b03604084015116604083015263ffffffff606084015116606083015265ffffffffffff608084015116608083015292915050565b348015610454575f5ffd5b506101666104633660046136c2565b6001600160a01b03165f9081526020819052604090205490565b348015610488575f5ffd5b5061014161049736600461371d565b610bce565b3480156104a7575f5ffd5b506104b0610cf7565b604051610170979695949392919061379d565b3480156104ce575f5ffd5b506101416104dd366004613833565b610d39565b3480156104ed575f5ffd5b506101416104fc366004613883565b610db4565b34801561050c575f5ffd5b505f5c610166565b6101416105223660046136c2565b610579565b348015610532575f5ffd5b50610141610e6b565b348015610546575f5ffd5b506101416105553660046136c2565b610fc9565b348015610565575f5ffd5b5061014161057436600461371d565b6111a9565b6001600160a01b0381165f8181526020818152604091829020805434019081905591518281529192917f2da466a7b24304f47e87fa2e1e5a81b9831ce54fec19055ce277ca2f39ba42c491015b60405180910390a25050565b5f5f5a90503330146105f757604051639fbdaa0960e01b815260040160405180910390fd5b8451606081015160a082015181016127100160405a603f028161061c5761061c6138c1565b0410156106325763deaddead60e01b5f5260205ffd5b87515f90156106d6575f61064b845f01515f8c86611509565b9050806106d4575f61065c60405190565b90505f61066a61080061151f565b8051909150156106c457855f01516001600160a01b03168b602001517f1c4fada7374c0a9ee8841fc38afe82932dc0f8e69012e927f061a8bae611a2018860200151846040516106bb9291906138d5565b60405180910390a35b6106cd82604052565b6001935050505b505b5f88608001515a8603019050610724828a8a8a8080601f0160208091040260200160405190810160405280939291908181526020018383808284375f92019190915250879250611550915050565b9a9950505050505050505050565b5f6001600160e01b0319821663d9934b3f60e01b148061076257506001600160e01b0319821663283f548960e01b145b8061077d57506001600160e01b0319821663cf28ef9760e01b145b8061079857506001600160e01b03198216633e84f02160e01b145b806107b357506301ffc9a760e01b6001600160e01b03198316145b92915050565b335f90815260208190526040902060018101548290600160781b900463ffffffff908116908216610812576040516370c11de760e11b815263ffffffff9283166004820152911660248201526044015b60405180910390fd5b50506001810154829063ffffffff600160781b909104811690821681111561085d576040516370c11de760e11b815263ffffffff928316600482015291166024820152604401610809565b505060018101545f9061087f90349061010090046001600160701b0316613901565b6001830154909150349061010090046001600160701b0316826108c757604051630384002760e21b815260048101929092526001600160701b03166024820152604401610809565b50506001820154349061010090046001600160701b039081169083111561091357604051630384002760e21b815260048101929092526001600160701b03166024820152604401610809565b50506040805160a08101825283548152600160208083018281526001600160701b0386811685870190815263ffffffff8a8116606088018181525f60808a0181815233808352828a52918c90209a518b55965199909801805494519151965165ffffffffffff16600160981b0265ffffffffffff60981b1997909416600160781b029690961669ffffffffffffffffffff60781b1991909516610100026effffffffffffffffffffffffffff0019991515999099166effffffffffffffffffffffffffffff1990941693909317979097179190911691909117179055835185815290810192909252917fa5ae833d0bb1dcd632d98a8b70973e8516812898e19bf27b70071ebc8dc52c01910160405180910390a2505050565b335f9081526001602090815260408083206001600160c01b03851684529091528120805491610a5a83613914565b919050555050565b5f610a6b611731565b905090565b335f9081526020819052604090208054808381811115610aac576040516312e1fa3760e11b815260048101929092526024820152604401610809565b50610ab99050838261392c565b8255604080516001600160a01b03861681526020810185905233917fd1c19fbcd4551a5edfb66d43d2e337c04837afda3482b42bdf569a8fccdae5fb910160405180910390a25f5f856001600160a01b0316856040515f6040518083038185875af1925050503d805f8114610b49576040519150601f19603f3d011682016040523d82523d5f602084013e610b4e565b606091505b5090925090503386868385610b7a57604051639f3d693360e01b8152600401610809949392919061393f565b50505050505050505050565b5f5f610b918361185a565b9050610bc7610b9e610a62565b610ba88584611900565b60405161190160f01b8152600281019290925260228201526042902090565b9392505050565b3233148015610bdc5750333b155b610bf95760405163558a1e0360e11b815260040160405180910390fd5b815f816001600160401b03811115610c1357610c13613315565b604051908082528060200260200182016040528015610c4c57816020015b610c3961328e565b815260200190600190039081610c315790505b509050610c5c8585835f5f61191a565b506040515f907fbb47ee3e183a558b1a2ff0874b079f3fc5478b7454eacf2bfc5af2ff5878f972908290a15f5b83811015610ce457610cd881888884818110610ca757610ca761397b565b9050602002810190610cb9919061398f565b858481518110610ccb57610ccb61397b565b602002602001015161199d565b90910190600101610c89565b50610cef8482611c75565b505050505050565b5f6060805f5f5f6060610d08611d31565b610d10611d5e565b604080515f80825260208201909252600f60f81b9b939a50919850469750309650945092509050565b5f5f846001600160a01b03168484604051610d559291906139ae565b5f60405180830381855af49150503d805f8114610d8d576040519150601f19603f3d011682016040523d82523d5f602084013e610d92565b606091505b50915091508181604051632650415560e21b81526004016108099291906139bd565b604051632b870d1b60e11b81525f906001600160a01b037f0000000000000000000000000000000000000000000000000000000000000000169063570e1a3690610e0490869086906004016139ff565b6020604051808303815f875af1158015610e20573d5f5f3e3d5ffd5b505050506040513d601f19601f82011682018060405250810190610e449190613a12565b604051633653dc0360e11b81526001600160a01b0382166004820152909150602401610809565b335f90815260208190526040902060018101546001600160701b036101008204169063ffffffff600160781b8204169060ff1681610edc57604051638421e8e560e01b81526001600160701b03909316600484015263ffffffff909116602483015215156044820152606401610809565b50505060018101546001600160701b036101008204169063ffffffff600160781b8204169060ff1680610f4257604051638421e8e560e01b81526001600160701b03909316600484015263ffffffff909116602483015215156044820152606401610809565b50505060018101545f90610f6390600160781b900463ffffffff1642613a2d565b60018301805460ff65ffffffffffff60981b011916600160981b65ffffffffffff841690810260ff19169190911790915560405190815290915033907ffa9b3c14cc825c412c9ed81b3ba365a5b459439403f18829e572ed53a4180f0a906020016105c6565b335f90815260208190526040902060018101546001600160701b0361010082041690819063ffffffff600160781b8204169060ff168261103c57604051638421e8e560e01b81526001600160701b03909316600484015263ffffffff909116602483015215156044820152606401610809565b5050506001820154600160981b900465ffffffffffff16428161108257604051637de810eb60e11b815265ffffffffffff90921660048301526024820152604401610809565b50506001820154600160981b900465ffffffffffff1642808211156110ca57604051632b0e998960e11b815265ffffffffffff90921660048301526024820152604401610809565b5050600182018054610100600160c81b0319169055604080516001600160a01b03851681526020810183905233917fb7c918e0e249f999e965cafeb6c664271b3f4317d296461500e71da39f0cbda3910160405180910390a25f5f846001600160a01b0316836040515f6040518083038185875af1925050503d805f811461116d576040519150601f19603f3d011682016040523d82523d5f602084013e611172565b606091505b509092509050338584838561119e57604051630373c21f60e21b8152600401610809949392919061393f565b505050505050505050565b32331480156111b75750333b155b6111d45760405163558a1e0360e11b815260040160405180910390fd5b815f805b8281101561130f57368686838181106111f3576111f361397b565b90506020028101906112059190613a4b565b9050365f6112138380613a5f565b90925090505f61122960408501602086016136c2565b9050806001600160a01b0381166001036112625760405163086a9f7560e41b81526001600160a01b039091166004820152602401610809565b506001600160a01b038116156112ff576001600160a01b038116632dd8113384846112906040890189613aa4565b6040518563ffffffff1660e01b81526004016112af9493929190613bfc565b5f604051808303815f87803b1580156112c6575f5ffd5b505af19250505080156112d7575060015b6112ff5760405163086a9f7560e41b81526001600160a01b0382166004820152602401610809565b50939093019250506001016111d8565b505f816001600160401b0381111561132957611329613315565b60405190808252806020026020018201604052801561136257816020015b61134f61328e565b8152602001906001900390816113475790505b5090505f805b848110156113dc57368888838181106113835761138361397b565b90506020028101906113959190613a4b565b9050365f6113a38380613a5f565b90925090505f6113b960408501602086016136c2565b90506113c8838389848a61191a565b909501945050600190920191506113689050565b506040517fbb47ee3e183a558b1a2ff0874b079f3fc5478b7454eacf2bfc5af2ff5878f972905f90a1505f80805b858110156114f457368989838181106114255761142561397b565b90506020028101906114379190613a4b565b905061144960408201602083016136c2565b6001600160a01b03167f575ff3acadd5ab348fe1855e217e0f3678f8d767d7494c9f9fefbee2e17cca4d60405160405180910390a2365f61148a8380613a5f565b9092509050805f5b818110156114e3576114d4888585848181106114b0576114b061397b565b90506020028101906114c2919061398f565b8b8b81518110610ccb57610ccb61397b565b60019889019897019601611492565b50506001909301925061140a915050565b506114ff8682611c75565b5050505050505050565b5f5f5f845160208601878987f195945050505050565b60603d821561153357828111156115335750815b604051602082018101604052818152815f602083013e9392505050565b5f5f5a85519091505f908161156482611d8b565b90505f8260e0015190505f896080015188039050611586818560600151611dae565b90970196505f6001600160a01b0382166115a35783519450611677565b8194505f895111156116775782880296505f5a905060028c60028111156115cc576115cc613c87565b1461165e57826001600160a01b0316637c627b218660a001518e8d8c896040518663ffffffff1660e01b81526004016116089493929190613c9b565b5f604051808303815f88803b15801561161f575f5ffd5b5087f193505050508015611631575060015b61165e575f61164161080061151f565b905080604051632b5e552f60e21b81526004016108099190613ce2565b5f5a82039050611672818760a00151611dae565b925050505b805a8703018801975082880296505f8a604001519050878110156116da5760028c60028111156116a9576116a9613c87565b036116cb578097506116ba8b611dce565b6116c68b5f8a8c611e1d565b611722565b63deadaa5160e01b5f5260205ffd5b6001600160a01b0386165f90815260208190526040812080548a840390810190915590808e600281111561171057611710613c87565b14905061171f8d828c8e611e1d565b50505b50505050505050949350505050565b5f306001600160a01b037f00000000000000000000000000000000000000000000000000000000000000001614801561178957507f000000000000000000000000000000000000000000000000000000000000000046145b156117b357507f000000000000000000000000000000000000000000000000000000000000000090565b610a6b604080517f8b73c3c69bb8fe3d512ecc4cf759cc79239f7b179b0ffacaa9a75d522b39400f60208201527f0000000000000000000000000000000000000000000000000000000000000000918101919091527f000000000000000000000000000000000000000000000000000000000000000060608201524660808201523060a08201525f9060c00160405160208183030381529060405280519060200120905090565b5f368161186a6040850185613aa4565b915091506118788282611e98565b61188557505f9392505050565b5f61189b61189660208701876136c2565b611ec1565b9050601482116118e0576040516001600160601b0319606083901b1660208201526034015b604051602081830303815290604052805190602001209350505050919050565b806118ee8360148187613cf4565b6040516020016118c093929190613d1b565b5f61190b8383611f4e565b80519060200120905092915050565b835f5b81811015611993575f858285018151811061193a5761193a61397b565b602002602001015190505f5f6119768487018b8b8781811061195e5761195e61397b565b9050602002810190611970919061398f565b8561204c565b9150915061198884870183838a61226d565b50505060010161191d565b5095945050505050565b5f5f5a905082602001515f81905d505f6119b8846060015190565b90505f5f6119c560405190565b9050365f6119d660608a018a613aa4565b9150915060605f8260038111156119ec57843591505b506372288ed160e01b6001600160e01b0319821601611a99575f8b8b60200151604051602401611a1d929190613d46565b60408051601f198184030181529181526020820180516001600160e01b0316638dd7712f60e01b1790525190915030906242dc5390611a649084908f908d90602401613e11565b604051602081830303815290604052915060e01b6020820180516001600160e01b038381831617835250505050925050611aee565b306001600160a01b03166242dc5385858d8b604051602401611abe9493929190613e45565b604051602081830303815290604052915060e01b6020820180516001600160e01b03838183161783525050505091505b60205f8351602085015f305af195505f519850611b0a85604052565b505050505080611c6b575f3d80602003611b285760205f5f3e5f5191505b5063deaddead60e01b8103611b7b5787604051631101335b60e11b8152600401610809918152604060208201819052600f908201526e41413935206f7574206f662067617360881b606082015260800190565b63deadaa5160e01b8103611bca575f86608001515a611b9a908761392c565b611ba49190613901565b6040880151909150611bb588611dce565b611bc1885f8385611e1d565b9550611c699050565b5f611bd460405190565b875180516020808b01519201519293506001600160a01b0316917ff62676f440ff169a3a9afdbf812e89e7f95975ee8e5c31214ffdef631c5f479290611c1b61080061151f565b604051611c299291906138d5565b60405180910390a3611c3a81604052565b5f87608001515a611c4b908861392c565b611c559190613901565b9050611c646002898784611550565b965050505b505b5050509392505050565b816001600160a01b038116611ca957604051631a3b45fd60e01b81526001600160a01b039091166004820152602401610809565b505f80805d505f5f836001600160a01b0316836040515f6040518083038185875af1925050503d805f8114611cf9576040519150601f19603f3d011682016040523d82523d5f602084013e611cfe565b606091505b50909250905083838284611d28576040516340848e6160e01b815260040161080993929190613e7a565b50505050505050565b6060610a6b7f000000000000000000000000000000000000000000000000000000000000000060026124b3565b6060610a6b7f000000000000000000000000000000000000000000000000000000000000000060036124b3565b6101008101516101208201515f9190611da68248830161255c565b949350505050565b5f619c4083018211611dc157505f6107b3565b506064919003600a020490565b80518051602080840151928101516040519081526001600160a01b0390921692917f67b4fa9642f42120bf031f3051d1824b0fe25627945b27b8a6a65d5761d5482e910160405180910390a350565b835160e081015181516020808801519301516040516001600160a01b039384169492909316927f49628fd1471006c1482da88028e9ce4dbb080b815c9b0344d39e5a8e6ec1419f91611e8a9189908990899093845291151560208401526040830152606082015260800190565b60405180910390a450505050565b5f6002821015611ea957505f6107b3565b5050613b8160f11b90356001600160601b0319161490565b5f5f60175f5f853c505f516001600160e81b0319811661ef0160f01b14611f3c57826001600160a01b0381163b611f175760405163e5819b9560e01b81526001600160a01b039091166004820152602401610809565b50604051639f4e4cc960e01b81526001600160a01b0384166004820152602401610809565b60481c6001600160a01b031692915050565b60605f611f5e60208501856136c2565b905060208401355f848103611f8757611f82611f7d6040880188613aa4565b612571565b611f89565b845b90505f611f9c611f7d6060890189613aa4565b9050608087013560a088013560c08901355f611fc3611fbe60e08d018d613aa4565b612583565b604080517f29a0bca4af4be3421398da00295e58e6d7de38cb492214754cb6a47507dd6f8e60208201526001600160a01b039a909a168a82015260608a019890985260808901969096525060a087019390935260c086019190915260e0850152610100840152610120808401919091528151808403909101815261014090920190529392505050565b5f5f5f5a845190915061205f86826125c6565b5f61206960405190565b905061207487610b86565b602087015261208281604052565b604082015161012083015161010084015160a08501516080860151606087015160c088015186171717171717896effffffffffffffffffffffffffffff8211156121165760408051631101335b60e11b815260048101929092526024820152601860448201527f41413934206761732076616c756573206f766572666c6f7700000000000000006064820152608401610809565b505f6121458560c081015160a08201516080830151606084015160408501516101009095015194010101010290565b60408a01819052905061215a8b8b8b846126c7565b975061216d855f015186602001516127ae565b8b906121c35760408051631101335b60e11b815260048101929092526024820152601a60448201527f4141323520696e76616c6964206163636f756e74206e6f6e63650000000000006064820152608401610809565b50825a87031115612220578a604051631101335b60e11b8152600401610809918152604060208201819052601e908201527f41413236206f76657220766572696669636174696f6e4761734c696d69740000606082015260800190565b60e08501516060906001600160a01b031615612246576122418c8c8c6127fa565b985090505b8060608b015260a08b01355a8803018a608001818152505050505050505050935093915050565b5f5f5f612279866128ed565b925092509250826001600160a01b0316846001600160a01b0316146122e15786604051631101335b60e11b81526004016108099181526040602082018190526014908201527320a0991a1039b4b3b730ba3ab9329032b93937b960611b606082015260800190565b811561239157801561233f5786604051631101335b60e11b8152600401610809918152604060208201819052601e908201527f41413237206f7574736964652076616c696420626c6f636b2072616e67650000606082015260800190565b86604051631101335b60e11b81526004016108099181526040602082018190526017908201527f414132322065787069726564206f72206e6f7420647565000000000000000000606082015260800190565b5f61239b866128ed565b909450925090506001600160a01b038116156123fa5787604051631101335b60e11b81526004016108099181526040602082018190526014908201527320a0999a1039b4b3b730ba3ab9329032b93937b960611b606082015260800190565b82156114ff5781156124575787604051631101335b60e11b815260040161080991815260406020808301829052908201527f41413337207061796d617374657220696e76616c20626c6f636b2072616e6765606082015260800190565b87604051631101335b60e11b81526004016108099181526040602082018190526021908201527f41413332207061796d61737465722065787069726564206f72206e6f742064756060820152606560f81b608082015260a00190565b606060ff83146124cd576124c6836129c9565b90506107b3565b8180546124d990613ea0565b80601f016020809104026020016040519081016040528092919081815260200182805461250590613ea0565b80156125505780601f1061252757610100808354040283529160200191612550565b820191905f5260205f20905b81548152906001019060200180831161253357829003601f168201915b505050505090506107b3565b5f81831061256a5781610bc7565b5090919050565b5f604051828085833790209392505050565b5f5f61258f8484612a06565b905080156125bc576125b484846009198482030167117192d14ba1cb2b60c11b612ab3565b9150506107b3565b611da68484612571565b6125d360208301836136c2565b6001600160a01b03168152602080830135908201526125f56080830135612ad0565b6060830152604082015260a082013560c08083019190915261261990830135612ad0565b610100830152610120820152365f61263460e0850185613aa4565b909250905080156126c1578060348110156126655760405163120aaab560e01b815260040161080991815260200190565b505f6126718383612aef565b60a087015260808601529050806001600160a01b0381166126b157604051636c66594960e11b81526001600160a01b039091166004820152602401610809565b506001600160a01b031660e08401525b50505050565b815180515f91906126e587866126e060408a018a613aa4565b612b56565b60e08201515f6001600160a01b038216612726576001600160a01b0383165f9081526020819052604090205486811161272057808703612722565b5f5b9150505b61273289898984612f6f565b94506001600160a01b0382166127a25761274c8387613091565b6127a25788604051631101335b60e11b81526004016108099181526040602082018190526017908201527f41413231206469646e2774207061792070726566756e64000000000000000000606082015260800190565b50505050949350505050565b6001600160a01b0382165f90815260016020908152604080832084821c80855292528220805484916001600160401b0383169190856127ec83613914565b909155501495945050505050565b60605f5f5a845160e08101516040870151929350909161281a8282613091565b6128705788604051631101335b60e11b8152600401610809918152604060208201819052601e908201527f41413331207061796d6173746572206465706f73697420746f6f206c6f770000606082015260800190565b60808301516128808a8a8a6130ca565b9097509550805a860311156128e05789604051631101335b60e11b815260040161080991815260406020808301829052908201527f41413336206f76657220706d566572696669636174696f6e4761734c696d6974606082015260800190565b5050505050935093915050565b5f5f5f835f0361290457505f9150819050806129c2565b5f61290e856131f8565b90506580000000000065ffffffffffff16816020015165ffffffffffff161015801561295457506580000000000065ffffffffffff16816040015165ffffffffffff1610155b156129925760208101516040820151657fffffffffff91821691164381108061298557508165ffffffffffff164311155b94506001935050506129be565b806040015165ffffffffffff164211806129b85750806020015165ffffffffffff164211155b92505f91505b5192505b9193909250565b60605f6129d583613267565b6040805160208082528183019092529192505f91906020820181803683375050509182525060208101929092525090565b5f81603e811015612a1a575f9150506107b3565b5f612a2b8260071981018688613cf4565b612a3491613ed8565b90506001600160c01b0319811667117192d14ba1cb2b60c11b14612a5c575f925050506107b3565b5f612a6d8560091985018189613cf4565b612a7691613f10565b60f01c9050603d198301811115612aaa576040516307b9a19160e01b81526004810184905260248101829052604401610809565b95945050505050565b5f6040518386823780840192909252506008909101902092915050565b5f5f612adc8360801c90565b6001600160801b03841691509150915091565b5f8080612aff6014828688613cf4565b612b0891613f46565b60601c612b19602460148789613cf4565b612b2291613f7c565b60801c612b3360346024888a613cf4565b612b3c91613f7c565b9194506001600160801b0316925060801c90509250925092565b80156126c157825151612b698383611e98565b15612c6a576014821115612c64578351604001516001600160a01b037f0000000000000000000000000000000000000000000000000000000000000000169063c09ad0d99083612bbc866014818a613cf4565b6040518563ffffffff1660e01b8152600401612bda93929190613fb2565b5f604051808303815f88803b158015612bf1575f5ffd5b5087f1158015612c03573d5f5f3e3d5ffd5b50505050505f612c1b826001600160a01b0316611ec1565b9050806001600160a01b0316826001600160a01b031686602001517f7c9f9ade6a03a0bba484e52df872467a270e798ffc1adab9dfaa8d0e627f054460405160405180910390a4505b506126c1565b6014821015612cc55784604051631101335b60e11b81526004016108099181526040602082018190526017908201527f4141393920696e6974436f646520746f6f20736d616c6c000000000000000000606082015260800190565b5f612cd36014828587613cf4565b612cdc91613f46565b60601c90506001600160a01b0382163b15612d3c576020808601516040516001600160a01b0384811682528516927fa39bcda08ffd11bafb11c4f170ef24fc6dc1a9d1b0394d90dbd19e0b919050e9910160405180910390a350506126c1565b5f7f00000000000000000000000000000000000000000000000000000000000000006001600160a01b031663570e1a36875f01516040015187876040518463ffffffff1660e01b8152600401612d939291906139ff565b6020604051808303815f8887f1158015612daf573d5f5f3e3d5ffd5b50505050506040513d601f19601f82011682018060405250810190612dd49190613a12565b90506001600160a01b038116612e365786604051631101335b60e11b8152600401610809918152604060208201819052601b908201527f4141313320696e6974436f6465206661696c6564206f72204f4f470000000000606082015260800190565b826001600160a01b0316816001600160a01b031614612ea05786604051631101335b60e11b815260040161080991815260406020808301829052908201527f4141313420696e6974436f6465206d7573742072657475726e2073656e646572606082015260800190565b806001600160a01b03163b5f03612f025786604051631101335b60e11b815260040161080991815260406020808301829052908201527f4141313520696e6974436f6465206d757374206372656174652073656e646572606082015260800190565b826001600160a01b031686602001517fd51a9c61267aa6196961883ecf5ff2da6619c37dac0fa92122513fb32c032d2d84895f015160e00151604051612f5e9291906001600160a01b0392831681529116602082015260400190565b60405180910390a350505050505050565b8151604081015190515f91908280612f8660405190565b90505f88886020015188604051602401612fa293929190613fd6565b60408051601f19818403018152919052602080820180516001600160e01b03166306608bdf60e21b178152825192935090915f9182888af192505f51955060203d14612fec575f92505b612ff582604052565b50508061308657816001600160a01b03163b5f0361305f5787604051631101335b60e11b81526004016108099181526040602082018190526019908201527f41413230206163636f756e74206e6f74206465706c6f79656400000000000000606082015260800190565b8761306b61080061151f565b6040516365c8fd4d60e01b8152600401610809929190613ffa565b505050949350505050565b6001600160a01b0382165f9081526020819052604081208054838110156130bc575f925050506107b3565b839003905550600192915050565b60605f5f6130d760405190565b90505f85856020015186604001516040516024016130f793929190613fd6565b60408051601f198184030181529190526020810180516001600160e01b03166314add44b60e21b178152865160e08101516080909101518351939450909290915f9182918291829182918291828a8af193503d9050805f893e60208801519850875191506040880199508951925083613191578c61317661080061151f565b6040516365c8fd4d60e01b8152600401610809929190614036565b60606020601f850181900402016040831415806131ae5750808214155b156131da578d6131bf61080061151f565b6040516365c8fd4d60e01b8152600401610809929190614072565b50601f8101601f191688016040525050505050505050935093915050565b604080516060810182525f80825260208201819052918101919091528160a081901c65ffffffffffff81165f03613232575065ffffffffffff5b604080516060810182526001600160a01b03909316835260d09490941c602083015265ffffffffffff16928101929092525090565b5f60ff8216601f8111156107b357604051632cd44ac360e21b815260040160405180910390fd5b6040518060a001604052806132f76040518061014001604052805f6001600160a01b031681526020015f81526020015f81526020015f81526020015f81526020015f81526020015f81526020015f6001600160a01b031681526020015f81526020015f81525090565b81526020015f81526020015f81526020015f81526020015f81525090565b634e487b7160e01b5f52604160045260245ffd5b60405160a081016001600160401b038111828210171561334b5761334b613315565b60405290565b60405161014081016001600160401b038111828210171561334b5761334b613315565b604051601f8201601f191681016001600160401b038111828210171561339c5761339c613315565b604052919050565b6001600160a01b03811681146133b8575f5ffd5b50565b80356133c6816133a4565b919050565b5f8183036101c08112156133dd575f5ffd5b6133e5613329565b91506101408112156133f5575f5ffd5b506133fe613351565b613407836133bb565b81526020838101359082015260408084013590820152606080840135908201526080808401359082015260a0808401359082015260c0808401359082015261345160e084016133bb565b60e08201526101008381013590820152610120808401359082015281526101408201356020820152610160820135604082015261018082013560608201526101a0909101356080820152919050565b5f5f83601f8401126134b0575f5ffd5b5081356001600160401b038111156134c6575f5ffd5b6020830191508360208285010111156134dd575f5ffd5b9250929050565b5f5f5f5f61020085870312156134f8575f5ffd5b84356001600160401b0381111561350d575f5ffd5b8501601f8101871361351d575f5ffd5b80356001600160401b0381111561353657613536613315565b613549601f8201601f1916602001613374565b81815288602083850101111561355d575f5ffd5b816020840160208301375f6020838301015280965050505061358286602087016133cb565b92506101e08501356001600160401b0381111561359d575f5ffd5b6135a9878288016134a0565b95989497509550505050565b5f602082840312156135c5575f5ffd5b81356001600160e01b031981168114610bc7575f5ffd5b5f602082840312156135ec575f5ffd5b813563ffffffff81168114610bc7575f5ffd5b80356001600160c01b03811681146133c6575f5ffd5b5f60208284031215613625575f5ffd5b610bc7826135ff565b5f5f6040838503121561363f575f5ffd5b823561364a816133a4565b9150613658602084016135ff565b90509250929050565b5f5f60408385031215613672575f5ffd5b823561367d816133a4565b946020939093013593505050565b5f6020828403121561369b575f5ffd5b81356001600160401b038111156136b0575f5ffd5b82016101208185031215610bc7575f5ffd5b5f602082840312156136d2575f5ffd5b8135610bc7816133a4565b5f5f83601f8401126136ed575f5ffd5b5081356001600160401b03811115613703575f5ffd5b6020830191508360208260051b85010111156134dd575f5ffd5b5f5f5f6040848603121561372f575f5ffd5b83356001600160401b03811115613744575f5ffd5b613750868287016136dd565b9094509250506020840135613764816133a4565b809150509250925092565b5f81518084528060208401602086015e5f602082860101526020601f19601f83011685010191505092915050565b60ff60f81b8816815260e060208201525f6137bb60e083018961376f565b82810360408401526137cd818961376f565b606084018890526001600160a01b038716608085015260a0840186905283810360c0850152845180825260208087019350909101905f5b81811015613822578351835260209384019390920191600101613804565b50909b9a5050505050505050505050565b5f5f5f60408486031215613845575f5ffd5b8335613850816133a4565b925060208401356001600160401b0381111561386a575f5ffd5b613876868287016134a0565b9497909650939450505050565b5f5f60208385031215613894575f5ffd5b82356001600160401b038111156138a9575f5ffd5b6138b5858286016134a0565b90969095509350505050565b634e487b7160e01b5f52601260045260245ffd5b828152604060208201525f611da6604083018461376f565b634e487b7160e01b5f52601160045260245ffd5b808201808211156107b3576107b36138ed565b5f60018201613925576139256138ed565b5060010190565b818103818111156107b3576107b36138ed565b6001600160a01b03858116825284166020820152604081018390526080606082018190525f906139719083018461376f565b9695505050505050565b634e487b7160e01b5f52603260045260245ffd5b5f823561011e198336030181126139a4575f5ffd5b9190910192915050565b818382375f9101908152919050565b8215158152604060208201525f611da6604083018461376f565b81835281816020850137505f828201602090810191909152601f909101601f19169091010190565b602081525f611da66020830184866139d7565b5f60208284031215613a22575f5ffd5b8151610bc7816133a4565b65ffffffffffff81811683821601908111156107b3576107b36138ed565b5f8235605e198336030181126139a4575f5ffd5b5f5f8335601e19843603018112613a74575f5ffd5b8301803591506001600160401b03821115613a8d575f5ffd5b6020019150600581901b36038213156134dd575f5ffd5b5f5f8335601e19843603018112613ab9575f5ffd5b8301803591506001600160401b03821115613ad2575f5ffd5b6020019150368190038213156134dd575f5ffd5b5f5f8335601e19843603018112613afb575f5ffd5b83016020810192503590506001600160401b03811115613b19575f5ffd5b8036038213156134dd575f5ffd5b613b4182613b34836133bb565b6001600160a01b03169052565b602081810135908301525f613b596040830183613ae6565b6101206040860152613b70610120860182846139d7565b915050613b806060840184613ae6565b8583036060870152613b938382846139d7565b6080868101359088015260a0808701359088015260c080870135908801529250613bc391505060e0840184613ae6565b85830360e0870152613bd68382846139d7565b92505050613be8610100840184613ae6565b8583036101008701526139718382846139d7565b604080825281018490525f6060600586901b83018101908301878361011e1936839003015b89821015613c6557868503605f190184528235818112613c3f575f5ffd5b613c4b868d8301613b27565b955050602083019250602084019350600182019150613c21565b505050508281036020840152613c7c8185876139d7565b979650505050505050565b634e487b7160e01b5f52602160045260245ffd5b5f60038610613cb857634e487b7160e01b5f52602160045260245ffd5b85825260806020830152613ccf608083018661376f565b6040830194909452506060015292915050565b602081525f610bc7602083018461376f565b5f5f85851115613d02575f5ffd5b83861115613d0e575f5ffd5b5050820193919092039150565b6bffffffffffffffffffffffff198460601b168152818360148301375f910160140190815292915050565b604081525f613d586040830185613b27565b90508260208301529392505050565b805180516001600160a01b031683526020810151602084015260408101516040840152606081015160608401526080810151608084015260a081015160a084015260c081015160c084015260e0810151613dcc60e08501826001600160a01b03169052565b5061010081810151908401526101209081015190830152602081015161014083015260408101516101608301526060810151610180830152608001516101a090910152565b61020081525f613e2561020083018661376f565b613e326020840186613d67565b8281036101e0840152613971818561376f565b61020081525f613e5a610200830186886139d7565b613e676020840186613d67565b8281036101e0840152613c7c818561376f565b60018060a01b0384168152826020820152606060408201525f612aaa606083018461376f565b600181811c90821680613eb457607f821691505b602082108103613ed257634e487b7160e01b5f52602260045260245ffd5b50919050565b80356001600160c01b03198116906008841015613f09576001600160c01b0319600885900360031b81901b82161691505b5092915050565b80356001600160f01b03198116906002841015613f09576001600160f01b031960029490940360031b84901b1690921692915050565b80356001600160601b03198116906014841015613f09576001600160601b031960149490940360031b84901b1690921692915050565b80356001600160801b03198116906010841015613f09576001600160801b031960109490940360031b84901b1690921692915050565b6001600160a01b03841681526040602082018190525f90612aaa90830184866139d7565b606081525f613fe86060830186613b27565b60208301949094525060400152919050565b82815260606020820152600d60608201526c10504c8cc81c995d995c9d1959609a1b608082015260a060408201525f611da660a083018461376f565b82815260606020820152600d60608201526c10504cccc81c995d995c9d1959609a1b608082015260a060408201525f611da660a083018461376f565b82815260606020820152601d60608201527f41413335206d616c666f726d6564207061796d61737465722064617461000000608082015260a060408201525f611da660a083018461376f56fea264697066735822122047f429f22277204c5c96c8736d20fc417d2f56ead6e4abf6b72d53b9920b232064736f6c634300081c003360a0604052348015600e575f5ffd5b50336080526080516104f36100375f395f818160770152818160b301526101aa01526104f35ff3fe608060405234801561000f575f5ffd5b506004361061003f575f3560e01c8063570e1a3614610043578063b0d691fe14610072578063c09ad0d914610099575b5f5ffd5b610056610051366004610286565b6100ae565b6040516001600160a01b03909116815260200160405180910390f35b6100567f000000000000000000000000000000000000000000000000000000000000000081565b6100ac6100a7366004610308565b6101a6565b005b5f33307f00000000000000000000000000000000000000000000000000000000000000006001600160a01b038116831461011c5760405163fe34a6d360e01b81526001600160a01b039384166004820152918316602483015290911660448201526064015b60405180910390fd5b505f915061012f905060148285876103d9565b61013891610400565b60601c90505f61014b84601481886103d9565b8080601f0160208091040260200160405190810160405280939291908181526020018383808284375f92018290525084519495509360209350849250905082850182875af19050801561019d575f5193505b50505092915050565b33307f00000000000000000000000000000000000000000000000000000000000000006001600160a01b038116831461020e5760405163fe34a6d360e01b81526001600160a01b03938416600482015291831660248301529091166044820152606401610113565b5050505f5f5f8351602085015f875af1905080610250575f610231610800610255565b90505f816040516365c8fd4d60e01b815260040161011392919061044d565b505050565b60603d821561026957828111156102695750815b604051602082018101604052818152815f602083013e9392505050565b5f5f60208385031215610297575f5ffd5b823567ffffffffffffffff8111156102ad575f5ffd5b8301601f810185136102bd575f5ffd5b803567ffffffffffffffff8111156102d3575f5ffd5b8560208284010111156102e4575f5ffd5b6020919091019590945092505050565b634e487b7160e01b5f52604160045260245ffd5b5f5f60408385031215610319575f5ffd5b82356001600160a01b038116811461032f575f5ffd5b9150602083013567ffffffffffffffff81111561034a575f5ffd5b8301601f8101851361035a575f5ffd5b803567ffffffffffffffff811115610374576103746102f4565b604051601f8201601f19908116603f0116810167ffffffffffffffff811182821017156103a3576103a36102f4565b6040528181528282016020018710156103ba575f5ffd5b816020840160208301375f602083830101528093505050509250929050565b5f5f858511156103e7575f5ffd5b838611156103f3575f5ffd5b5050820193919092039150565b80356bffffffffffffffffffffffff198116906014841015610446576bffffffffffffffffffffffff196bffffffffffffffffffffffff198560140360031b1b82161691505b5092915050565b82815260606020820152601f60608201527f4141313320454950373730322073656e64657220696e6974206661696c656400608082015260a060408201525f82518060a0840152806020850160c085015e5f60c0828501015260c0601f19601f830116840101915050939250505056fea26469706673582212203ace599a7ecd76d7bb2866c2273c646382df74229fed16955f442be962711b8364736f6c634300081c0033","linkReferences":{}},"methodIdentifiers":{"addStake(uint32)":"0396cb60","balanceOf(address)":"70a08231","delegateAndRevert(address,bytes)":"850aaf62","depositTo(address)":"b760faf9","eip712Domain()":"84b0196e","getCurrentUserOpHash()":"b0a398d1","getDepositInfo(address)":"5287ce12","getDomainSeparatorV4()":"13c65a6e","getNonce(address,uint192)":"35567e1a","getPackedUserOpTypeHash()":"154e58dc","getSenderAddress(bytes)":"9b249f69","getUserOpHash((address,uint256,bytes,bytes,bytes32,uint256,bytes32,bytes,bytes))":"22cdde4c","handleAggregatedOps(((address,uint256,bytes,bytes,bytes32,uint256,bytes32,bytes,bytes)[],address,bytes)[],address)":"dbed18e0","handleOps((address,uint256,bytes,bytes,bytes32,uint256,bytes32,bytes,bytes)[],address)":"765e827f","incrementNonce(uint192)":"0bd28e3b","innerHandleOp(bytes,((address,uint256,uint256,uint256,uint256,uint256,uint256,address,uint256,uint256),bytes32,uint256,uint256,uint256),bytes)":"0042dc53","nonceSequenceNumber(address,uint192)":"1b2e01b8","senderCreator()":"09ccb880","supportsInterface(bytes4)":"01ffc9a7","unlockStake()":"bb9fe6bf","withdrawStake(address)":"c23a5cea","withdrawTo(address,uint256)":"205c2878"},"id":2}