{"abi":[{"type":"function","name":"DELEGATION_AUTHORITY","inputs":[],"outputs":[{"name":"","type":"bytes32","internalType":"bytes32"}],"stateMutability":"view"},{"type":"function","name":"ORGANIZATION_MEMBERSHIP","inputs":[],"outputs":[{"name":"","type":"bytes32","internalType":"bytes32"}],"stateMutability":"view"},{"type":"function","name":"ROLE_ADMIN","inputs":[],"outputs":[{"name":"","type":"bytes32","internalType":"bytes32"}],"stateMutability":"view"},{"type":"function","name":"ROLE_AUDITOR","inputs":[],"outputs":[{"name":"","type":"bytes32","internalType":"bytes32"}],"stateMutability":"view"},{"type":"function","name":"ROLE_MEMBER","inputs":[],"outputs":[{"name":"","type":"bytes32","internalType":"bytes32"}],"stateMutability":"view"},{"type":"function","name":"ROLE_OPERATOR","inputs":[],"outputs":[{"name":"","type":"bytes32","internalType":"bytes32"}],"stateMutability":"view"},{"type":"function","name":"ROLE_OWNER","inputs":[],"outputs":[{"name":"","type":"bytes32","internalType":"bytes32"}],"stateMutability":"view"},{"type":"function","name":"ROLE_VENDOR","inputs":[],"outputs":[{"name":"","type":"bytes32","internalType":"bytes32"}],"stateMutability":"view"},{"type":"function","name":"SERVICE_AGREEMENT","inputs":[],"outputs":[{"name":"","type":"bytes32","internalType":"bytes32"}],"stateMutability":"view"},{"type":"function","name":"VALIDATION_TRUST","inputs":[],"outputs":[{"name":"","type":"bytes32","internalType":"bytes32"}],"stateMutability":"view"},{"type":"function","name":"assertionCount","inputs":[],"outputs":[{"name":"","type":"uint256","internalType":"uint256"}],"stateMutability":"view"},{"type":"function","name":"getAssertion","inputs":[{"name":"assertionId","type":"uint256","internalType":"uint256"}],"outputs":[{"name":"","type":"tuple","internalType":"struct AgentTrustGraph.Assertion","components":[{"name":"subject","type":"address","internalType":"address"},{"name":"object","type":"address","internalType":"address"},{"name":"role","type":"bytes32","internalType":"bytes32"},{"name":"description","type":"bytes32","internalType":"bytes32"},{"name":"asserter","type":"address","internalType":"address"},{"name":"validFrom","type":"uint256","internalType":"uint256"},{"name":"validUntil","type":"uint256","internalType":"uint256"},{"name":"revoked","type":"bool","internalType":"bool"},{"name":"metadata","type":"string","internalType":"string"}]}],"stateMutability":"view"},{"type":"function","name":"getAssertionsByObject","inputs":[{"name":"object_","type":"address","internalType":"address"}],"outputs":[{"name":"","type":"uint256[]","internalType":"uint256[]"}],"stateMutability":"view"},{"type":"function","name":"getAssertionsBySubject","inputs":[{"name":"subject","type":"address","internalType":"address"}],"outputs":[{"name":"","type":"uint256[]","internalType":"uint256[]"}],"stateMutability":"view"},{"type":"function","name":"getRoles","inputs":[{"name":"subject","type":"address","internalType":"address"},{"name":"object_","type":"address","internalType":"address"},{"name":"description","type":"bytes32","internalType":"bytes32"}],"outputs":[{"name":"roles","type":"bytes32[]","internalType":"bytes32[]"}],"stateMutability":"view"},{"type":"function","name":"holdsRole","inputs":[{"name":"subject","type":"address","internalType":"address"},{"name":"object_","type":"address","internalType":"address"},{"name":"role","type":"bytes32","internalType":"bytes32"},{"name":"description","type":"bytes32","internalType":"bytes32"}],"outputs":[{"name":"","type":"bool","internalType":"bool"}],"stateMutability":"view"},{"type":"function","name":"makeAssertion","inputs":[{"name":"subject","type":"address","internalType":"address"},{"name":"object_","type":"address","internalType":"address"},{"name":"role","type":"bytes32","internalType":"bytes32"},{"name":"description","type":"bytes32","internalType":"bytes32"},{"name":"validFrom","type":"uint256","internalType":"uint256"},{"name":"validUntil","type":"uint256","internalType":"uint256"},{"name":"metadata","type":"string","internalType":"string"}],"outputs":[{"name":"assertionId","type":"uint256","internalType":"uint256"}],"stateMutability":"nonpayable"},{"type":"function","name":"revokeAssertion","inputs":[{"name":"assertionId","type":"uint256","internalType":"uint256"}],"outputs":[],"stateMutability":"nonpayable"},{"type":"event","name":"AssertionMade","inputs":[{"name":"assertionId","type":"uint256","indexed":true,"internalType":"uint256"},{"name":"subject","type":"address","indexed":true,"internalType":"address"},{"name":"object_","type":"address","indexed":true,"internalType":"address"},{"name":"role","type":"bytes32","indexed":false,"internalType":"bytes32"},{"name":"description","type":"bytes32","indexed":false,"internalType":"bytes32"},{"name":"asserter","type":"address","indexed":false,"internalType":"address"}],"anonymous":false},{"type":"event","name":"AssertionRevoked","inputs":[{"name":"assertionId","type":"uint256","indexed":true,"internalType":"uint256"},{"name":"revoker","type":"address","indexed":true,"internalType":"address"}],"anonymous":false},{"type":"error","name":"AlreadyRevoked","inputs":[]},{"type":"error","name":"AssertionNotFound","inputs":[]},{"type":"error","name":"InvalidAssertion","inputs":[]},{"type":"error","name":"NotAuthorized","inputs":[]}],"bytecode":{"object":"0x6080604052348015600e575f5ffd5b5061117d8061001c5f395ff3fe608060405234801561000f575f5ffd5b5060043610610111575f3560e01c8063738599781161009e578063beb3e3fa1161006e578063beb3e3fa146102b9578063d391014b146102e0578063d5303a6b14610307578063fac13f7a1461032a578063fd7522e21461033f575f5ffd5b806373859978146102315780638ad682af1461025857806398a1b3971461027f578063b8b07d03146102a6575f5ffd5b806331f50cae116100e457806331f50cae146101a257806332e28a39146101c95780633f029aaf146101d05780635a818efe146101f75780637249760e1461020a575f5ffd5b80630fde0f8e14610115578063157745cc1461014f5780631d99e1671461016f578063283a55941461018f575b5f5ffd5b61013c7f559d29576718e7413779edc05f63260eecf7f5e184046a03c89b3edd147cb82081565b6040519081526020015b60405180910390f35b61016261015d366004610d0c565b610366565b6040516101469190610d2c565b61018261017d366004610d6e565b6103cf565b6040516101469190610db3565b61016261019d366004610e5c565b610586565b61013c7f5b2bdba62f81f793d26d0d9c44b8d2cc3c54f16cd8f5276cd863c7c8b175268581565b5f5461013c565b61013c7faa9aaa4c5cc4078ae32554cdf49a218ee84ee95b1f87de4d3c1e8ac45dd355f781565b61013c610205366004610e96565b6106fb565b61013c7ff80484e3ac5c2530b83fbe35ed550276bd7367bad12f0bb292a2c8d774ae627681565b61013c7f13a558e5dee42f5447ad561a1bc98e1b990cfce01c419eecb67ed7255b872c2c81565b61013c7f02016836a56b71f0d02689e69e326f4f4c1b9057164ef592671cf0d37c8040c081565b61013c7f46a52cf33029de9f84853745a87af28464c80bf0346df1b32e205fc73319f62281565b6101626102b4366004610d0c565b610985565b61013c7f75e2a5d52adab44109520f4ad9c1c79bc43119fdd9729540977f350ab1b791a081565b61013c7ff23ec0bb4210edd5cba85afd05127efcd2fc6a781bfed49188da1081670b22d881565b61031a610315366004610f48565b6109ec565b6040519015158152602001610146565b61033d610338366004610d6e565b610a9f565b005b61013c7f14ceb1149cdab84b395151a21d3de6707dd76fff3e7bc4e018925a9986b7f72f81565b6001600160a01b0381165f908152600160209081526040918290208054835181840281018401909452808452606093928301828280156103c357602002820191905f5260205f20905b8154815260200190600101908083116103af575b50505050509050919050565b6104336040518061012001604052805f6001600160a01b031681526020015f6001600160a01b031681526020015f81526020015f81526020015f6001600160a01b031681526020015f81526020015f81526020015f15158152602001606081525090565b5f548210610454576040516325f67a0760e21b815260040160405180910390fd5b5f828154811061046657610466610f87565b5f9182526020918290206040805161012081018252600990930290910180546001600160a01b03908116845260018201548116948401949094526002810154918301919091526003810154606083015260048101549092166080820152600582015460a0820152600682015460c0820152600782015460ff16151560e0820152600882018054919291610100840191906104ff90610f9b565b80601f016020809104026020016040519081016040528092919081815260200182805461052b90610f9b565b80156105765780601f1061054d57610100808354040283529160200191610576565b820191905f5260205f20905b81548152906001019060200180831161055957829003601f168201915b5050505050815250509050919050565b6001600160a01b038084165f90815260036020908152604080832093861683529281528282208483529052908120606091805b825481101561061d576106025f8483815481106105d8576105d8610f87565b905f5260205f200154815481106105f1576105f1610f87565b905f5260205f209060090201610b9b565b15610615578161061181610fd3565b9250505b6001016105b9565b508067ffffffffffffffff81111561063757610637610ff7565b604051908082528060200260200182016040528015610660578160200160208202803683370190505b5092505f805b83548110156106f0575f5f85838154811061068357610683610f87565b905f5260205f2001548154811061069c5761069c610f87565b905f5260205f20906009020190506106b381610b9b565b156106e757600281015486846106c881610fd3565b9550815181106106da576106da610f87565b6020026020010181815250505b50600101610666565b505050509392505050565b5f6001600160a01b038916158061071957506001600160a01b038816155b15610737576040516359f5548f60e11b815260040160405180910390fd5b6107413389610bee565b61075e5760405163ea8e4eb560e01b815260040160405180910390fd5b5f851561076b578561076d565b425b90505f8054905091505f6040518061012001604052808c6001600160a01b031681526020018b6001600160a01b031681526020018a8152602001898152602001336001600160a01b031681526020018381526020018781526020015f1515815260200186868080601f0160208091040260200160405190810160405280939291908181526020018383808284375f920182905250939094525050835460018082018655948252602091829020845160099092020180546001600160a01b03199081166001600160a01b039384161782559285015195810180548416968316969096179095556040840151600286015560608401516003860155608084015160048601805490931691161790555060a0810151600583015560c0810151600683015560e081015160078301805460ff191691151591909117905561010081015190919060088201906108be9082611057565b5050506001600160a01b038a81165f8181526001602081815260408084208054808501825590855282852001889055948e168084526002825285842080548085018255908552828520018890558484526003825285842081855282528584208d855282528584208054938401815584529281902090910186905583518c81529081018b905233818501529251909285917fd71dd5b74e47cefad3323942bbba54e614d7b5c5dc574a44cb4081b1d8eed31c9181900360600190a45098975050505050505050565b6001600160a01b0381165f908152600260209081526040918290208054835181840281018401909452808452606093928301828280156103c357602002820191905f5260205f20908154815260200190600101908083116103af5750505050509050919050565b6001600160a01b038085165f90815260036020908152604080832093871683529281528282208483529052908120815b8154811015610a91575f5f838381548110610a3957610a39610f87565b905f5260205f20015481548110610a5257610a52610f87565b905f5260205f2090600902019050858160020154148015610a775750610a7781610b9b565b15610a885760019350505050610a97565b50600101610a1c565b505f9150505b949350505050565b5f548110610ac0576040516325f67a0760e21b815260040160405180910390fd5b5f5f8281548110610ad357610ad3610f87565b5f9182526020909120600990910201600781015490915060ff1615610b0b5760405163905e710760e01b815260040160405180910390fd5b60048101546001600160a01b03163314801590610b3e57506001810154610b3c9033906001600160a01b0316610bee565b155b15610b5c5760405163ea8e4eb560e01b815260040160405180910390fd5b60078101805460ff19166001179055604051339083907fb673bda71f571053021542764b1238dd2094a0a847a962683472bfea31d9a315905f90a35050565b60078101545f9060ff1615610bb157505f919050565b8160050154421015610bc457505f919050565b600682015415801590610bda5750816006015442115b15610be657505f919050565b506001919050565b5f816001600160a01b0316836001600160a01b031603610c1057506001610ceb565b6001600160a01b0382163b15610ce8576040516001600160a01b0384811660248301525f91829185169060440160408051601f198184030181529181526020820180516001600160e01b03166317aa5fb760e11b17905251610c729190611112565b5f60405180830381855afa9150503d805f8114610caa576040519150601f19603f3d011682016040523d82523d5f602084013e610caf565b606091505b5091509150818015610cc357506020815110155b15610ce55780806020019051810190610cdc9190611128565b92505050610ceb565b50505b505f5b92915050565b80356001600160a01b0381168114610d07575f5ffd5b919050565b5f60208284031215610d1c575f5ffd5b610d2582610cf1565b9392505050565b602080825282518282018190525f918401906040840190835b81811015610d63578351835260209384019390920191600101610d45565b509095945050505050565b5f60208284031215610d7e575f5ffd5b5035919050565b5f81518084528060208401602086015e5f602082860101526020601f19601f83011685010191505092915050565b60208152610dcd6020820183516001600160a01b03169052565b5f6020830151610de860408401826001600160a01b03169052565b5060408301516060830152606083015160808301526080830151610e1760a08401826001600160a01b03169052565b5060a083015160c083015260c083015160e083015260e0830151610e4061010084018215159052565b5061010083015161012080840152610a97610140840182610d85565b5f5f5f60608486031215610e6e575f5ffd5b610e7784610cf1565b9250610e8560208501610cf1565b929592945050506040919091013590565b5f5f5f5f5f5f5f5f60e0898b031215610ead575f5ffd5b610eb689610cf1565b9750610ec460208a01610cf1565b965060408901359550606089013594506080890135935060a0890135925060c089013567ffffffffffffffff811115610efb575f5ffd5b8901601f81018b13610f0b575f5ffd5b803567ffffffffffffffff811115610f21575f5ffd5b8b6020828401011115610f32575f5ffd5b989b979a50959850939692959194602001935050565b5f5f5f5f60808587031215610f5b575f5ffd5b610f6485610cf1565b9350610f7260208601610cf1565b93969395505050506040820135916060013590565b634e487b7160e01b5f52603260045260245ffd5b600181811c90821680610faf57607f821691505b602082108103610fcd57634e487b7160e01b5f52602260045260245ffd5b50919050565b5f60018201610ff057634e487b7160e01b5f52601160045260245ffd5b5060010190565b634e487b7160e01b5f52604160045260245ffd5b601f82111561105257805f5260205f20601f840160051c810160208510156110305750805b601f840160051c820191505b8181101561104f575f815560010161103c565b50505b505050565b815167ffffffffffffffff81111561107157611071610ff7565b6110858161107f8454610f9b565b8461100b565b6020601f8211600181146110b7575f83156110a05750848201515b5f19600385901b1c1916600184901b17845561104f565b5f84815260208120601f198516915b828110156110e657878501518255602094850194600190920191016110c6565b508482101561110357868401515f19600387901b60f8161c191681555b50505050600190811b01905550565b5f82518060208501845e5f920191825250919050565b5f60208284031215611138575f5ffd5b81518015158114610d25575f5ffdfea2646970667358221220079e965607711e0bdc0f34e505c8cf3e769996c50a29a997f20246258bc9762d64736f6c634300081c0033","linkReferences":{}},"methodIdentifiers":{"DELEGATION_AUTHORITY()":"73859978","ORGANIZATION_MEMBERSHIP()":"31f50cae","ROLE_ADMIN()":"d391014b","ROLE_AUDITOR()":"3f029aaf","ROLE_MEMBER()":"fd7522e2","ROLE_OPERATOR()":"98a1b397","ROLE_OWNER()":"8ad682af","ROLE_VENDOR()":"0fde0f8e","SERVICE_AGREEMENT()":"beb3e3fa","VALIDATION_TRUST()":"7249760e","assertionCount()":"32e28a39","getAssertion(uint256)":"1d99e167","getAssertionsByObject(address)":"b8b07d03","getAssertionsBySubject(address)":"157745cc","getRoles(address,address,bytes32)":"283a5594","holdsRole(address,address,bytes32,bytes32)":"d5303a6b","makeAssertion(address,address,bytes32,bytes32,uint256,uint256,string)":"5a818efe","revokeAssertion(uint256)":"fac13f7a"},"id":63}