{"abi":[{"type":"constructor","inputs":[{"name":"ontologyRegistry","type":"address","internalType":"address"},{"name":"shapes","type":"address","internalType":"address"}],"stateMutability":"nonpayable"},{"type":"function","name":"CLASS_FUND","inputs":[],"outputs":[{"name":"","type":"bytes32","internalType":"bytes32"}],"stateMutability":"view"},{"type":"function","name":"CLASS_ROUND","inputs":[],"outputs":[{"name":"","type":"bytes32","internalType":"bytes32"}],"stateMutability":"view"},{"type":"function","name":"DT_ADDRESS_ARR_PUB","inputs":[],"outputs":[{"name":"","type":"uint8","internalType":"uint8"}],"stateMutability":"pure"},{"type":"function","name":"DT_ADDRESS_PUB","inputs":[],"outputs":[{"name":"","type":"uint8","internalType":"uint8"}],"stateMutability":"pure"},{"type":"function","name":"DT_BOOL_PUB","inputs":[],"outputs":[{"name":"","type":"uint8","internalType":"uint8"}],"stateMutability":"pure"},{"type":"function","name":"DT_BYTES32_ARR_PUB","inputs":[],"outputs":[{"name":"","type":"uint8","internalType":"uint8"}],"stateMutability":"pure"},{"type":"function","name":"DT_BYTES32_PUB","inputs":[],"outputs":[{"name":"","type":"uint8","internalType":"uint8"}],"stateMutability":"pure"},{"type":"function","name":"DT_STRING_ARR_PUB","inputs":[],"outputs":[{"name":"","type":"uint8","internalType":"uint8"}],"stateMutability":"pure"},{"type":"function","name":"DT_STRING_PUB","inputs":[],"outputs":[{"name":"","type":"uint8","internalType":"uint8"}],"stateMutability":"pure"},{"type":"function","name":"DT_UINT256_PUB","inputs":[],"outputs":[{"name":"","type":"uint8","internalType":"uint8"}],"stateMutability":"pure"},{"type":"function","name":"ONTOLOGY","inputs":[],"outputs":[{"name":"","type":"address","internalType":"contract OntologyTermRegistry"}],"stateMutability":"view"},{"type":"function","name":"SA_FUND_ACCEPTED_KINDS","inputs":[],"outputs":[{"name":"","type":"bytes32","internalType":"bytes32"}],"stateMutability":"view"},{"type":"function","name":"SA_FUND_OPEN_FOR_CALLS","inputs":[],"outputs":[{"name":"","type":"bytes32","internalType":"bytes32"}],"stateMutability":"view"},{"type":"function","name":"SA_ROUND_AWARDS_ROOT","inputs":[],"outputs":[{"name":"","type":"bytes32","internalType":"bytes32"}],"stateMutability":"view"},{"type":"function","name":"SA_ROUND_DEADLINE","inputs":[],"outputs":[{"name":"","type":"bytes32","internalType":"bytes32"}],"stateMutability":"view"},{"type":"function","name":"SA_ROUND_DECISION_DATE","inputs":[],"outputs":[{"name":"","type":"bytes32","internalType":"bytes32"}],"stateMutability":"view"},{"type":"function","name":"SA_ROUND_DISPUTE_UNTIL","inputs":[],"outputs":[{"name":"","type":"bytes32","internalType":"bytes32"}],"stateMutability":"view"},{"type":"function","name":"SA_ROUND_FUND_AGENT","inputs":[],"outputs":[{"name":"","type":"bytes32","internalType":"bytes32"}],"stateMutability":"view"},{"type":"function","name":"SA_ROUND_MANDATE","inputs":[],"outputs":[{"name":"","type":"bytes32","internalType":"bytes32"}],"stateMutability":"view"},{"type":"function","name":"SA_ROUND_MILESTONE_TEMPLATE","inputs":[],"outputs":[{"name":"","type":"bytes32","internalType":"bytes32"}],"stateMutability":"view"},{"type":"function","name":"SA_ROUND_OPENED_AT","inputs":[],"outputs":[{"name":"","type":"bytes32","internalType":"bytes32"}],"stateMutability":"view"},{"type":"function","name":"SA_ROUND_POOL_AGENT","inputs":[],"outputs":[{"name":"","type":"bytes32","internalType":"bytes32"}],"stateMutability":"view"},{"type":"function","name":"SA_ROUND_REPORTING_CADENCE","inputs":[],"outputs":[{"name":"","type":"bytes32","internalType":"bytes32"}],"stateMutability":"view"},{"type":"function","name":"SA_ROUND_REQUIRED_CREDENTIALS","inputs":[],"outputs":[{"name":"","type":"bytes32","internalType":"bytes32"}],"stateMutability":"view"},{"type":"function","name":"SA_ROUND_SLUG","inputs":[],"outputs":[{"name":"","type":"bytes32","internalType":"bytes32"}],"stateMutability":"view"},{"type":"function","name":"SA_ROUND_STATUS","inputs":[],"outputs":[{"name":"","type":"bytes32","internalType":"bytes32"}],"stateMutability":"view"},{"type":"function","name":"SA_ROUND_VALIDATOR_REQUIREMENTS","inputs":[],"outputs":[{"name":"","type":"bytes32","internalType":"bytes32"}],"stateMutability":"view"},{"type":"function","name":"SA_ROUND_VISIBILITY","inputs":[],"outputs":[{"name":"","type":"bytes32","internalType":"bytes32"}],"stateMutability":"view"},{"type":"function","name":"SA_ROUND_VOTING_STRATEGY","inputs":[],"outputs":[{"name":"","type":"bytes32","internalType":"bytes32"}],"stateMutability":"view"},{"type":"function","name":"SA_ROUND_VOTING_THRESHOLD","inputs":[],"outputs":[{"name":"","type":"bytes32","internalType":"bytes32"}],"stateMutability":"view"},{"type":"function","name":"SA_ROUND_VOTING_WINDOW_ENDS_AT","inputs":[],"outputs":[{"name":"","type":"bytes32","internalType":"bytes32"}],"stateMutability":"view"},{"type":"function","name":"SA_ROUND_VOTING_WINDOW_STARTS_AT","inputs":[],"outputs":[{"name":"","type":"bytes32","internalType":"bytes32"}],"stateMutability":"view"},{"type":"function","name":"SHAPES","inputs":[],"outputs":[{"name":"","type":"address","internalType":"contract ShapeRegistry"}],"stateMutability":"view"},{"type":"function","name":"allSubjects","inputs":[],"outputs":[{"name":"","type":"bytes32[]","internalType":"bytes32[]"}],"stateMutability":"view"},{"type":"function","name":"datatypeOf","inputs":[{"name":"subject","type":"bytes32","internalType":"bytes32"},{"name":"predicate","type":"bytes32","internalType":"bytes32"}],"outputs":[{"name":"","type":"uint8","internalType":"uint8"}],"stateMutability":"view"},{"type":"function","name":"getAddress","inputs":[{"name":"subject","type":"bytes32","internalType":"bytes32"},{"name":"predicate","type":"bytes32","internalType":"bytes32"}],"outputs":[{"name":"","type":"address","internalType":"address"}],"stateMutability":"view"},{"type":"function","name":"getAddressArr","inputs":[{"name":"subject","type":"bytes32","internalType":"bytes32"},{"name":"predicate","type":"bytes32","internalType":"bytes32"}],"outputs":[{"name":"","type":"address[]","internalType":"address[]"}],"stateMutability":"view"},{"type":"function","name":"getBool","inputs":[{"name":"subject","type":"bytes32","internalType":"bytes32"},{"name":"predicate","type":"bytes32","internalType":"bytes32"}],"outputs":[{"name":"","type":"bool","internalType":"bool"}],"stateMutability":"view"},{"type":"function","name":"getBytes32","inputs":[{"name":"subject","type":"bytes32","internalType":"bytes32"},{"name":"predicate","type":"bytes32","internalType":"bytes32"}],"outputs":[{"name":"","type":"bytes32","internalType":"bytes32"}],"stateMutability":"view"},{"type":"function","name":"getBytes32Arr","inputs":[{"name":"subject","type":"bytes32","internalType":"bytes32"},{"name":"predicate","type":"bytes32","internalType":"bytes32"}],"outputs":[{"name":"","type":"bytes32[]","internalType":"bytes32[]"}],"stateMutability":"view"},{"type":"function","name":"getFundAcceptedKinds","inputs":[{"name":"fundAgent","type":"address","internalType":"address"}],"outputs":[{"name":"","type":"bytes32[]","internalType":"bytes32[]"}],"stateMutability":"view"},{"type":"function","name":"getRoundAwardsRoot","inputs":[{"name":"round","type":"bytes32","internalType":"bytes32"}],"outputs":[{"name":"","type":"bytes32","internalType":"bytes32"}],"stateMutability":"view"},{"type":"function","name":"getRoundDeadline","inputs":[{"name":"round","type":"bytes32","internalType":"bytes32"}],"outputs":[{"name":"","type":"uint256","internalType":"uint256"}],"stateMutability":"view"},{"type":"function","name":"getRoundDecisionDate","inputs":[{"name":"round","type":"bytes32","internalType":"bytes32"}],"outputs":[{"name":"","type":"uint256","internalType":"uint256"}],"stateMutability":"view"},{"type":"function","name":"getRoundDisputeUntil","inputs":[{"name":"round","type":"bytes32","internalType":"bytes32"}],"outputs":[{"name":"","type":"uint256","internalType":"uint256"}],"stateMutability":"view"},{"type":"function","name":"getRoundFundAgent","inputs":[{"name":"round","type":"bytes32","internalType":"bytes32"}],"outputs":[{"name":"","type":"address","internalType":"address"}],"stateMutability":"view"},{"type":"function","name":"getRoundMandate","inputs":[{"name":"round","type":"bytes32","internalType":"bytes32"}],"outputs":[{"name":"","type":"string","internalType":"string"}],"stateMutability":"view"},{"type":"function","name":"getRoundMilestoneTemplate","inputs":[{"name":"round","type":"bytes32","internalType":"bytes32"}],"outputs":[{"name":"","type":"string","internalType":"string"}],"stateMutability":"view"},{"type":"function","name":"getRoundOpenedAt","inputs":[{"name":"round","type":"bytes32","internalType":"bytes32"}],"outputs":[{"name":"","type":"uint256","internalType":"uint256"}],"stateMutability":"view"},{"type":"function","name":"getRoundPoolAgent","inputs":[{"name":"round","type":"bytes32","internalType":"bytes32"}],"outputs":[{"name":"","type":"address","internalType":"address"}],"stateMutability":"view"},{"type":"function","name":"getRoundReportingCadence","inputs":[{"name":"round","type":"bytes32","internalType":"bytes32"}],"outputs":[{"name":"","type":"bytes32","internalType":"bytes32"}],"stateMutability":"view"},{"type":"function","name":"getRoundRequiredCredentials","inputs":[{"name":"round","type":"bytes32","internalType":"bytes32"}],"outputs":[{"name":"","type":"bytes32[]","internalType":"bytes32[]"}],"stateMutability":"view"},{"type":"function","name":"getRoundSlug","inputs":[{"name":"round","type":"bytes32","internalType":"bytes32"}],"outputs":[{"name":"","type":"string","internalType":"string"}],"stateMutability":"view"},{"type":"function","name":"getRoundStatus","inputs":[{"name":"round","type":"bytes32","internalType":"bytes32"}],"outputs":[{"name":"","type":"bytes32","internalType":"bytes32"}],"stateMutability":"view"},{"type":"function","name":"getRoundValidatorRequirements","inputs":[{"name":"round","type":"bytes32","internalType":"bytes32"}],"outputs":[{"name":"","type":"string","internalType":"string"}],"stateMutability":"view"},{"type":"function","name":"getRoundVisibility","inputs":[{"name":"round","type":"bytes32","internalType":"bytes32"}],"outputs":[{"name":"","type":"bytes32","internalType":"bytes32"}],"stateMutability":"view"},{"type":"function","name":"getRoundVotingConfig","inputs":[{"name":"round","type":"bytes32","internalType":"bytes32"}],"outputs":[{"name":"strategy","type":"bytes32","internalType":"bytes32"},{"name":"threshold","type":"uint256","internalType":"uint256"},{"name":"windowStartsAt","type":"uint256","internalType":"uint256"},{"name":"windowEndsAt","type":"uint256","internalType":"uint256"}],"stateMutability":"view"},{"type":"function","name":"getString","inputs":[{"name":"subject","type":"bytes32","internalType":"bytes32"},{"name":"predicate","type":"bytes32","internalType":"bytes32"}],"outputs":[{"name":"","type":"string","internalType":"string"}],"stateMutability":"view"},{"type":"function","name":"getStringArr","inputs":[{"name":"subject","type":"bytes32","internalType":"bytes32"},{"name":"predicate","type":"bytes32","internalType":"bytes32"}],"outputs":[{"name":"","type":"string[]","internalType":"string[]"}],"stateMutability":"view"},{"type":"function","name":"getUint","inputs":[{"name":"subject","type":"bytes32","internalType":"bytes32"},{"name":"predicate","type":"bytes32","internalType":"bytes32"}],"outputs":[{"name":"","type":"uint256","internalType":"uint256"}],"stateMutability":"view"},{"type":"function","name":"isFundOpenForCalls","inputs":[{"name":"fundAgent","type":"address","internalType":"address"}],"outputs":[{"name":"","type":"bool","internalType":"bool"}],"stateMutability":"view"},{"type":"function","name":"isSet","inputs":[{"name":"subject","type":"bytes32","internalType":"bytes32"},{"name":"predicate","type":"bytes32","internalType":"bytes32"}],"outputs":[{"name":"","type":"bool","internalType":"bool"}],"stateMutability":"view"},{"type":"function","name":"openRound","inputs":[{"name":"p","type":"tuple","internalType":"struct FundRegistry.OpenRoundParams","components":[{"name":"roundSubject","type":"bytes32","internalType":"bytes32"},{"name":"fundAgent","type":"address","internalType":"address"},{"name":"poolAgent","type":"address","internalType":"address"},{"name":"deadline","type":"uint256","internalType":"uint256"},{"name":"decisionDate","type":"uint256","internalType":"uint256"},{"name":"reportingCadence","type":"bytes32","internalType":"bytes32"},{"name":"requiredCredentials","type":"bytes32[]","internalType":"bytes32[]"},{"name":"visibility","type":"bytes32","internalType":"bytes32"},{"name":"initialStatus","type":"bytes32","internalType":"bytes32"},{"name":"mandate","type":"string","internalType":"string"},{"name":"milestoneTemplate","type":"string","internalType":"string"},{"name":"validatorRequirements","type":"string","internalType":"string"},{"name":"slug","type":"string","internalType":"string"}]}],"outputs":[],"stateMutability":"nonpayable"},{"type":"function","name":"predicatesOf","inputs":[{"name":"subject","type":"bytes32","internalType":"bytes32"}],"outputs":[{"name":"","type":"bytes32[]","internalType":"bytes32[]"}],"stateMutability":"view"},{"type":"function","name":"registerFund","inputs":[{"name":"fundAgent","type":"address","internalType":"address"},{"name":"acceptedKinds","type":"bytes32[]","internalType":"bytes32[]"},{"name":"openForCalls","type":"bool","internalType":"bool"}],"outputs":[],"stateMutability":"nonpayable"},{"type":"function","name":"roundSubject","inputs":[{"name":"roundId","type":"string","internalType":"string"}],"outputs":[{"name":"","type":"bytes32","internalType":"bytes32"}],"stateMutability":"pure"},{"type":"function","name":"setFundAcceptedKinds","inputs":[{"name":"fundAgent","type":"address","internalType":"address"},{"name":"kinds","type":"bytes32[]","internalType":"bytes32[]"}],"outputs":[],"stateMutability":"nonpayable"},{"type":"function","name":"setFundOpenForCalls","inputs":[{"name":"fundAgent","type":"address","internalType":"address"},{"name":"openForCalls","type":"bool","internalType":"bool"}],"outputs":[],"stateMutability":"nonpayable"},{"type":"function","name":"setRoundAwardsRoot","inputs":[{"name":"round","type":"bytes32","internalType":"bytes32"},{"name":"awardsRoot","type":"bytes32","internalType":"bytes32"},{"name":"disputeUntil","type":"uint256","internalType":"uint256"}],"outputs":[],"stateMutability":"nonpayable"},{"type":"function","name":"setRoundMandate","inputs":[{"name":"round","type":"bytes32","internalType":"bytes32"},{"name":"mandate","type":"string","internalType":"string"}],"outputs":[],"stateMutability":"nonpayable"},{"type":"function","name":"setRoundMilestoneTemplate","inputs":[{"name":"round","type":"bytes32","internalType":"bytes32"},{"name":"template","type":"string","internalType":"string"}],"outputs":[],"stateMutability":"nonpayable"},{"type":"function","name":"setRoundPoolAgent","inputs":[{"name":"round","type":"bytes32","internalType":"bytes32"},{"name":"poolAgent","type":"address","internalType":"address"}],"outputs":[],"stateMutability":"nonpayable"},{"type":"function","name":"setRoundStatus","inputs":[{"name":"round","type":"bytes32","internalType":"bytes32"},{"name":"newStatus","type":"bytes32","internalType":"bytes32"}],"outputs":[],"stateMutability":"nonpayable"},{"type":"function","name":"setRoundValidatorRequirements","inputs":[{"name":"round","type":"bytes32","internalType":"bytes32"},{"name":"requirements","type":"string","internalType":"string"}],"outputs":[],"stateMutability":"nonpayable"},{"type":"function","name":"setRoundVotingConfig","inputs":[{"name":"round","type":"bytes32","internalType":"bytes32"},{"name":"strategy","type":"bytes32","internalType":"bytes32"},{"name":"threshold","type":"uint256","internalType":"uint256"},{"name":"windowStartsAt","type":"uint256","internalType":"uint256"},{"name":"windowEndsAt","type":"uint256","internalType":"uint256"}],"outputs":[],"stateMutability":"nonpayable"},{"type":"function","name":"subjectCount","inputs":[],"outputs":[{"name":"","type":"uint256","internalType":"uint256"}],"stateMutability":"view"},{"type":"function","name":"subjectVersion","inputs":[{"name":"subject","type":"bytes32","internalType":"bytes32"}],"outputs":[{"name":"","type":"uint64","internalType":"uint64"}],"stateMutability":"view"},{"type":"function","name":"updatedAt","inputs":[{"name":"subject","type":"bytes32","internalType":"bytes32"},{"name":"predicate","type":"bytes32","internalType":"bytes32"}],"outputs":[{"name":"","type":"uint64","internalType":"uint64"}],"stateMutability":"view"},{"type":"event","name":"AttributeAppended","inputs":[{"name":"subject","type":"bytes32","indexed":true,"internalType":"bytes32"},{"name":"predicate","type":"bytes32","indexed":true,"internalType":"bytes32"},{"name":"datatype","type":"uint8","indexed":false,"internalType":"uint8"},{"name":"version","type":"uint64","indexed":false,"internalType":"uint64"}],"anonymous":false},{"type":"event","name":"AttributeSet","inputs":[{"name":"subject","type":"bytes32","indexed":true,"internalType":"bytes32"},{"name":"predicate","type":"bytes32","indexed":true,"internalType":"bytes32"},{"name":"datatype","type":"uint8","indexed":false,"internalType":"uint8"},{"name":"version","type":"uint64","indexed":false,"internalType":"uint64"}],"anonymous":false},{"type":"event","name":"AttributeUnset","inputs":[{"name":"subject","type":"bytes32","indexed":true,"internalType":"bytes32"},{"name":"predicate","type":"bytes32","indexed":true,"internalType":"bytes32"},{"name":"version","type":"uint64","indexed":false,"internalType":"uint64"}],"anonymous":false},{"type":"event","name":"FundRegistered","inputs":[{"name":"fundAgent","type":"address","indexed":true,"internalType":"address"},{"name":"subject","type":"bytes32","indexed":false,"internalType":"bytes32"}],"anonymous":false},{"type":"event","name":"RoundAwardsRootSet","inputs":[{"name":"roundSubject","type":"bytes32","indexed":true,"internalType":"bytes32"},{"name":"awardsRoot","type":"bytes32","indexed":false,"internalType":"bytes32"},{"name":"disputeUntil","type":"uint256","indexed":false,"internalType":"uint256"}],"anonymous":false},{"type":"event","name":"RoundOpened","inputs":[{"name":"roundSubject","type":"bytes32","indexed":true,"internalType":"bytes32"},{"name":"fundAgent","type":"address","indexed":true,"internalType":"address"},{"name":"poolAgent","type":"address","indexed":true,"internalType":"address"}],"anonymous":false},{"type":"event","name":"RoundStatusChanged","inputs":[{"name":"roundSubject","type":"bytes32","indexed":true,"internalType":"bytes32"},{"name":"newStatus","type":"bytes32","indexed":false,"internalType":"bytes32"}],"anonymous":false},{"type":"event","name":"SubjectFirstSeen","inputs":[{"name":"subject","type":"bytes32","indexed":true,"internalType":"bytes32"}],"anonymous":false},{"type":"error","name":"AttributeNotSet","inputs":[]},{"type":"error","name":"MissingFundAgent","inputs":[]},{"type":"error","name":"NotFundOwner","inputs":[]},{"type":"error","name":"PredicateNotActive","inputs":[]},{"type":"error","name":"RoundNotInitialized","inputs":[]}],"bytecode":{"object":"0x60c03461009a57601f6144ce38819003918201601f19168301916001600160401b0383118484101761009e57808492604094855283398101031261009a57610052602061004b836100b2565b92016100b2565b6001600160a01b039182166080521660a05260405161440790816100c78239608051818181610bbe01526139d1015260a051818181610fdb01528181612446015261285d0152f35b5f80fd5b634e487b7160e01b5f52604160045260245ffd5b51906001600160a01b038216820361009a5756fe6080806040526004361015610012575f80fd5b5f905f3560e01c9081630d57f6e414612f5a575080630fb66f9814612ef4578063111e0fee14612ecd5780631899ebe414612ea65780631b9b8a7d14612e4d57806320d1b3a314612e26578063213aaad714612e0b57806326d2e8fa14612de45780632ce0465514612d8b5780632dbde08714612cf75780633001aaad14612c89578063301d234d14612b925780633054718114612b2e57806331477b9b14612aec57806337d9d7fc14612abd5780633a0c0c1214612a965780633d5696f214612a6f5780634083843e14612a0657806342921cf3146129d457806347f4dc1a1461299a5780634837f591146129195780634d67c729146128f257806351c66f721461288c57806355c964dd146128485780635fcb718c14612821578063611f6c9c146127fa578063639a2e10146127dd5780636526e9af1461275c5780636746306714612556578063687837bf1461239a578063695eea29146123175780636fb37416146122ef57806379243c31146122c75780637a6ad9261461229a5780637d7f75961461223f5780637dfd93fe146121d15780637f2c68d014612176578063814349ba1461209457806385ed27c61461204b57806387533f3a14611ff0578063880eadce14611fba578063886c766914611f7f5780638e10136914611f635780638e21caca14611f305780638ebdd6d214611ed557806393cbc37d14611eb957806396a06dd114611e9157806398eaf11c14611e5f5780639a389caa14611e37578063a954aea114611e1b578063ac01f0e114611de0578063b0c8fe3014611db8578063b260c4f814611d90578063b3e40f7d14611d68578063bb6b0c3b14611d36578063bbb922f414611ccf578063be78c06814611cb3578063bea0611314611c28578063c317462914611c0c578063c3a6123d14611b8b578063c6fbc3b314611b10578063cb954f3014611a37578063cfcd225a1461180c578063d1a26bdf146117d1578063d223042c1461170f578063d3a39686146116d8578063d9e371c01461169d578063e1d125a114610cab578063e4281bc314610bed578063e63cdb4214610ba8578063e7d3fd9714610997578063ece6bebc1461097b578063ee018a7814610953578063f207ad9c146106da578063f4da6888146104d1578063f98eed69146104b5578063f9f67719146104195763fd71feef14610378575f80fd5b3461041657602036600319011261041657604051633d356c9360e11b815260048035908201525f5160206141f25f395f51905f52602482015290602082604481305afa90811561040a57906103d3575b602090604051908152f35b506020813d602011610402575b816103ed60209383613098565b810103126103fe57602090516103c8565b5f80fd5b3d91506103e0565b604051903d90823e3d90fd5b80fd5b5034610416576020366003190112610416576040516331477b9b60e01b815260048035908201525f5160206143b25f395f51905f5260248201528181604481305afa9081156104aa57826104839392610487575b5050604051918291602083526020830190612f7f565b0390f35b6104a392503d8091833e61049b8183613098565b8101906130e8565b5f8061046d565b6040513d84823e3d90fd5b5034610416578060031936011261041657602060405160088152f35b50346104165760603660031901126104165760043560243560443560405163bb6b0c3b60e01b81528360048201525f5160206143925f395f51905f526024820152602081604481305afa90811561068e5785916106ab575b5015610699576040516369d1cb4360e11b8152600481018490525f5160206143925f395f51905f526024820152602081604481305afa801561068e5761057891869161065f575b5033906133e6565b15610650577f174edea277b8be769118be834e4b7de236f1430e1fecf6409930c4a7d69bd809916040916105b85f5160206143525f395f51905f526139b4565b84865260046020528286205f5160206143525f395f51905f52875260205281838720556105f25f5160206143525f395f51905f5286613ba9565b6106085f5160206141f25f395f51905f526139b4565b84865260036020528286205f5160206141f25f395f51905f52875260205280838720556106425f5160206141f25f395f51905f5286613fe7565b82519182526020820152a280f35b63b3545ef360e01b8452600484fd5b610681915060203d602011610687575b6106798183613098565b81019061314a565b5f610570565b503d61066f565b6040513d87823e3d90fd5b60016236173b60e01b03198452600484fd5b6106cd915060203d6020116106d3575b6106c58183613098565b8101906131f9565b5f610529565b503d6106bb565b5034610416576106e93661301f565b60405163bb6b0c3b60e01b8152600481018490525f5160206143925f395f51905f526024820152929392602081604481305afa908115610917578491610934575b5015610922576040516369d1cb4360e11b8152600481018590525f5160206143925f395f51905f526024820152602081604481305afa908115610917579061077a91859161065f575033906133e6565b15610908579061078b913691613211565b916107a25f5160206141b25f395f51905f526139b4565b80825281602052604082205f5160206141b25f395f51905f5283526020526040822083516001600160401b0381116108f4576107de8254613247565b601f81116108af575b506020601f821160011461083a5790805f5160206141b25f395f51905f52949392869761082c979261082f575b50508160011b915f199060031b1c1916179055613a3f565b80f35b015190505f80610814565b82855280852095601f198316865b81811061089757509660019284925f5160206141b25f395f51905f5297969561082c999a1061087f575b505050811b019055613a3f565b01515f1960f88460031b161c191690555f8080610872565b83830151895560019098019760209384019301610848565b82855260208520601f830160051c810191602084106108ea575b601f0160051c01905b8181106108df57506107e7565b8581556001016108d2565b90915081906108c9565b634e487b7160e01b84526041600452602484fd5b63b3545ef360e01b8352600483fd5b6040513d86823e3d90fd5b60016236173b60e01b03198352600483fd5b61094d915060203d6020116106d3576106c58183613098565b5f61072a565b503461041657806003193601126104165760206040515f5160206143725f395f51905f528152f35b5034610416578060031936011261041657602060405160028152f35b5034610416576109a63661301f565b60405163bb6b0c3b60e01b8152600481018490525f5160206143925f395f51905f526024820152929392602081604481305afa908115610917578491610b89575b5015610922576040516369d1cb4360e11b8152600481018590525f5160206143925f395f51905f526024820152602081604481305afa9081156109175790610a3791859161065f575033906133e6565b156109085790610a48913691613211565b91610a5f5f5160206142d25f395f51905f526139b4565b80825281602052604082205f5160206142d25f395f51905f5283526020526040822083516001600160401b0381116108f457610a9b8254613247565b601f8111610b44575b506020601f8211600114610ae85790805f5160206142d25f395f51905f52949392869761082c979261082f5750508160011b915f199060031b1c1916179055613a3f565b82855280852095601f198316865b818110610b2c57509660019284925f5160206142d25f395f51905f5297969561082c999a1061087f57505050811b019055613a3f565b83830151895560019098019760209384019301610af6565b82855260208520601f830160051c81019160208410610b7f575b601f0160051c01905b818110610b745750610aa4565b858155600101610b67565b9091508190610b5e565b610ba2915060203d6020116106d3576106c58183613098565b5f6109e7565b50346104165780600319360112610416576040517f00000000000000000000000000000000000000000000000000000000000000006001600160a01b03168152602090f35b503461041657610bfc36613052565b90825260066020526040822090825260205260408120604051908160208254918281520190819285526020852090855b818110610c8c5750505082610c42910383613098565b604051928392602084019060208552518091526040840192915b818110610c6a575050500390f35b82516001600160a01b0316845285945060209384019390920191600101610c5c565b82546001600160a01b0316845260209093019260019283019201610c2c565b5034610416576020366003190112610416576004356001600160401b0381116110c857806004016101a060031983360301126116995760248201610cf8610cf18261336b565b33906133e6565b15610650576001600160a01b03610d0e8261336b565b161561168a57813591610d208261336b565b610d365f5160206143925f395f51905f526139b4565b8386526001602052604086205f5160206143925f395f51905f528752602052604086209060018060a01b03166bffffffffffffffffffffffff60a01b825416179055610d8f5f5160206143925f395f51905f5284613d13565b60448401936001600160a01b03610da58661336b565b16611673575b610dc15f5160206143325f395f51905f526139b4565b8386526003602052604086205f5160206143325f395f51905f52875260205260648101356040872055610e015f5160206143325f395f51905f5285613fe7565b610e175f5160206142125f395f51905f526139b4565b8386526003602052604086205f5160206142125f395f51905f52875260205260848101356040872055610e575f5160206142125f395f51905f5285613fe7565b610e6d5f5160206142b25f395f51905f526139b4565b8386526004602052604086205f5160206142b25f395f51905f52875260205260a48101356040872055610ead5f5160206142b25f395f51905f5285613ba9565b60c48101610ebb818461337f565b9050611568575b50610ed95f5160206142725f395f51905f526139b4565b8386526004602052604086205f5160206142725f395f51905f52875260205260e48101356040872055610f195f5160206142725f395f51905f5285613ba9565b610f28610104820135856135d1565b610f3e5f5160206142925f395f51905f526139b4565b8386526003602052604086205f5160206142925f395f51905f528752602052426040872055610f7a5f5160206142925f395f51905f5285613fe7565b6101248101610f8981846133b4565b905061154c575b506101448101610fa081846133b4565b90506113dc575b506101648101610fb781846133b4565b9050611258575b506101840190610fce82826133b4565b90506110cc575b508490507f00000000000000000000000000000000000000000000000000000000000000006001600160a01b0316803b156110c85781606491604051928380926309abe27f60e01b82527f281587bb88fdeb6dfd58b1d6ca4fcea730e272e807a0a353912952d047917c4e60048301528860248301523060448301525afa80156104aa576110af575b50506110699061336b565b916001600160a01b039061107c9061336b565b16916001600160a01b0316907f9d371c9e52d1d22619eef45fc3730143efb83ef7063c0010c644c15d189e59798480a480f35b816110b991613098565b6110c457835f61105e565b8380fd5b5080fd5b6110e0916110d9916133b4565b3691613211565b6110f65f5160206142325f395f51905f526139b4565b82855284602052604085205f5160206142325f395f51905f52865260205260408520908051906001600160401b0382116112445781906111368454613247565b601f81116111f4575b50602090601f8311600114611192578892611187575b50508160011b915f199060031b1c19161790555b6111805f5160206142325f395f51905f5283613a3f565b5f80610fd5565b015190505f80611155565b8489528189209250601f198416895b8181106111dc57509084600195949392106111c4575b505050811b019055611169565b01515f1960f88460031b161c191690555f80806111b7565b929360206001819287860151815501950193016111a1565b90915083885260208820601f840160051c8101916020851061123a575b90601f859493920160051c01905b81811061122c575061113f565b89815584935060010161121f565b9091508190611211565b634e487b7160e01b87526041600452602487fd5b6110d961126591846133b4565b61127b5f5160206142d25f395f51905f526139b4565b84875286602052604087205f5160206142d25f395f51905f52885260205260408720908051906001600160401b0382116113c8576112b98354613247565b601f8111611383575b50602090601f831160011461131c57610184949392918a9183611311575b50508160011b915f199060031b1c19161790555b61130b5f5160206142d25f395f51905f5286613a3f565b90610fbe565b015190505f806112e0565b838a52818a209190601f1984168b5b81811061136b57509160019391856101849897969410611353575b505050811b0190556112f4565b01515f1960f88460031b161c191690555f8080611346565b9293602060018192878601518155019501930161132b565b838a5260208a20601f840160051c810191602085106113be575b601f0160051c01905b8181106113b357506112c2565b8a81556001016113a6565b909150819061139d565b634e487b7160e01b89526041600452602489fd5b6110d96113e991846133b4565b6113ff5f5160206141b25f395f51905f526139b4565b84875286602052604087205f5160206141b25f395f51905f52885260205260408720908051906001600160401b0382116113c857819061143f8454613247565b601f81116114fc575b50602090601f831160011461149a578a9261148f575b50508160011b915f199060031b1c19161790555b6114895f5160206141b25f395f51905f5285613a3f565b5f610fa7565b015190505f8061145e565b848b52818b209250601f1984168b5b8181106114e457509084600195949392106114cc575b505050811b019055611472565b01515f1960f88460031b161c191690555f80806114bf565b929360206001819287860151815501950193016114a9565b909150838a5260208a20601f840160051c81019160208510611542575b90601f859493920160051c01905b8181106115345750611448565b8b8155849350600101611527565b9091508190611519565b61155c6110d961156292856133b4565b8561348d565b5f610f90565b61157a6115819184969593979461337f565b369161331f565b936115985f5160206141925f395f51905f526139b4565b8387526007602052604087205f5160206141925f395f51905f5288526020526040872080549088815581611655575b5050865b8551811015611631578488526007602052604088205f5160206141925f395f51905f52895260205260408820865182101561161d579061161760019260208360051b8a010151906138b6565b016115cb565b634e487b7160e01b89526032600452602489fd5b5091949092935061164f5f5160206141925f395f51905f5285613e7d565b5f610ec2565b885260208820908101905b818110156115c757888155600101611660565b61168561167f8661336b565b8561361c565b610dab565b633d2aec7160e21b8452600484fd5b8280fd5b503461041657806003193601126104165760206040517f5ea9c72654f688854705fff8ce20b23206633620364da655b5badc251fef55038152f35b5034610416576020906116ea36613052565b90825260018352604082209082528252604060018060a01b0391205416604051908152f35b503461041657606036600319011261041657611729612fa3565b6024356001600160401b03811161169957611748903690600401613068565b91906044359182151583036117cd5761176133826133e6565b156117be576001600160a01b031692611791929161178b916117859136919061331f565b846138dd565b82613685565b7f2e8c8670ecb11a4402ca2675d9305ce3a10d15d46e80a85f8dfbf50305a30d566020604051838152a280f35b63b3545ef360e01b8552600485fd5b8480fd5b503461041657806003193601126104165760206040517f766be3d92c7a2c4e3df0489618248b00312ecdc547ec46738deed82495ebd3ce8152f35b50346104165760a0366003190112610416576004356064356084359060405163bb6b0c3b60e01b81528360048201525f5160206143925f395f51905f526024820152602081604481305afa90811561068e578591611a18575b5015610699576040516369d1cb4360e11b8152600481018490525f5160206143925f395f51905f526024820152602081604481305afa801561068e576118b391869161065f575033906133e6565b15610650576118ce5f5160206141d25f395f51905f526139b4565b8284526004602052604084205f5160206141d25f395f51905f528552602052602435604085205561190c5f5160206141d25f395f51905f5284613ba9565b6119225f5160206143125f395f51905f526139b4565b8284526003602052604084205f5160206143125f395f51905f52855260205260443560408520556119605f5160206143125f395f51905f5284613fe7565b806119c1575b5080611970578280f35b6119bb917f5ea9c72654f688854705fff8ce20b23206633620364da655b5badc251fef55039161199f836139b4565b8185526003602052604085208386526020526040852055613fe7565b5f808280f35b6119d75f5160206142525f395f51905f526139b4565b8284526003602052604084205f5160206142525f395f51905f5285526020526040842055611a125f5160206142525f395f51905f5283613fe7565b5f611966565b611a31915060203d6020116106d3576106c58183613098565b5f611865565b503461041657611a4636613052565b908252600560205260408220908252602052604081208054611a6781613169565b90611a756040519283613098565b80825260208201809385526020852085915b838310611af357868587604051928392602084019060208552518091526040840160408260051b8601019392905b828210611ac457505050500390f35b91936001919395506020611ae38192603f198a82030186528851612f7f565b9601920192018594939192611ab5565b600160208192611b028561327f565b815201920192019190611a87565b5034610416576020366003190112610416576004356001600160401b0381116110c857602091611b80611b496029933690600401612ff2565b60409491945193818592888401976839b09d3937bab7321d60b91b895285850137820190838201520301601f198101835282613098565b519020604051908152f35b503461041657806003193601126104165760405180916020600d54928381520191600d82527fd7b6990105719101dabeb77144f2a3385c8033acd3af97e9423a695e81ad1eb5915b818110611bf65761048385611bea81870382613098565b60405191829182612fb9565b8254845260209093019260019283019201611bd3565b5034610416578060031936011261041657602060405160058152f35b503461041657602036600319011261041657611c42612fa3565b60405163263abc4760e21b81526001600160a01b0390911660048201525f5160206143725f395f51905f526024820152602081604481305afa9081156104aa5760209291611c96575b506040519015158152f35b611cad9150823d84116106d3576106c58183613098565b5f611c8b565b5034610416578060031936011261041657602060405160048152f35b503461041657604036600319011261041657611ce9612fa3565b6024356001600160401b03811161169957611d08903690600401613068565b611d1233846133e6565b156106505761082c9291611d2791369161331f565b906001600160a01b03166138dd565b50346104165760ff6040602092611d4c36613052565b9082526009855282822090825284522054166040519015158152f35b503461041657806003193601126104165760206040515f5160206143925f395f51905f528152f35b503461041657806003193601126104165760206040515f5160206142125f395f51905f528152f35b503461041657806003193601126104165760206040515f5160206142525f395f51905f528152f35b503461041657806003193601126104165760206040517fcedb18faaf1bf0838e08e6042e662614086879cd24c7c99caa385fed122d32c58152f35b5034610416578060031936011261041657602060405160018152f35b503461041657806003193601126104165760206040515f5160206142d25f395f51905f528152f35b50346104165760ff6040602092611e7536613052565b9082526002855282822090825284522054166040519015158152f35b503461041657806003193601126104165760206040515f5160206143125f395f51905f528152f35b5034610416578060031936011261041657602060405160038152f35b503461041657602036600319011261041657604051633d356c9360e11b815260048035908201525f5160206142125f395f51905f52602482015290602082604481305afa90811561040a57906103d357602090604051908152f35b5034610416576020366003190112610416576001600160401b0360406020926004358152600c8452205416604051908152f35b5034610416578060031936011261041657602060405160068152f35b503461041657806003193601126104165760206040517f281587bb88fdeb6dfd58b1d6ca4fcea730e272e807a0a353912952d047917c4e8152f35b5034610416576001600160401b036040602092611fd636613052565b908252600b85528282209082528452205416604051908152f35b503461041657602036600319011261041657604051633d356c9360e11b815260048035908201525f5160206143325f395f51905f52602482015290602082604481305afa90811561040a57906103d357602090604051908152f35b503461041657604036600319011261041657612065612fa3565b6024359081151582036116995761207c33826133e6565b156109085761082c91906001600160a01b0316613685565b5034610416576040366003190112610416576024356004356001600160a01b03821682036116995760405163bb6b0c3b60e01b8152600481018290525f5160206143925f395f51905f526024820152602081604481305afa908115610917578491612157575b5015610922576040516369d1cb4360e11b8152600481018290525f5160206143925f395f51905f526024820152602081604481305afa80156109175761214891859161065f575033906133e6565b15610908579061082c9161361c565b612170915060203d6020116106d3576106c58183613098565b5f6120fa565b503461041657602036600319011261041657604051630df675ff60e21b815260048035908201525f5160206142725f395f51905f52602482015290602082604481305afa90811561040a57906103d357602090604051908152f35b503461041657602036600319011261041657604051630df675ff60e21b815260048035908201527fcedb18faaf1bf0838e08e6042e662614086879cd24c7c99caa385fed122d32c5602482015290602082604481305afa90811561040a57906103d357602090604051908152f35b503461041657602036600319011261041657604051633d356c9360e11b815260048035908201525f5160206142925f395f51905f52602482015290602082604481305afa90811561040a57906103d357602090604051908152f35b50346104165760406020916122ae36613052565b9082526003845282822090825283522054604051908152f35b503461041657806003193601126104165760206040515f5160206142b25f395f51905f528152f35b503461041657806003193601126104165760206040515f5160206141925f395f51905f528152f35b5034610416576020366003190112610416576040516369d1cb4360e11b815260048035908201525f5160206143925f395f51905f526024820152602081604481305afa9081156104aa576020929161237d575b506040516001600160a01b039091168152f35b6123949150823d8411610687576106798183613098565b5f61236a565b50346103fe576123a936613052565b60405163bb6b0c3b60e01b8152600481018390525f5160206143925f395f51905f526024820152602081604481305afa90811561250e575f91612537575b5015612528576040516369d1cb4360e11b8152600481018390525f5160206143925f395f51905f526024820152602081604481305afa801561250e57612435915f9161065f575033906133e6565b156125195761244481836135d1565b7f00000000000000000000000000000000000000000000000000000000000000006001600160a01b0316803b156103fe575f606491604051928380926309abe27f60e01b82527f281587bb88fdeb6dfd58b1d6ca4fcea730e272e807a0a353912952d047917c4e60048301528760248301523060448301525afa801561250e576124f8575b5060207fe7387dac8be34cbebb5ab9e0158f88510f74862a35935c47ab477749e3df33c791604051908152a280f35b6125059193505f90613098565b5f9160206124c9565b6040513d5f823e3d90fd5b63b3545ef360e01b5f5260045ffd5b63ffc9e8c560e01b5f5260045ffd5b612550915060203d6020116106d3576106c58183613098565b5f6123e7565b346103fe5760203660031901126103fe57600435604051630df675ff60e21b81528160048201525f5160206141d25f395f51905f526024820152602081604481305afa90811561250e575f9161272a575b50604051633d356c9360e11b8152600481018390525f5160206143125f395f51905f526024820152602081604481305afa90811561250e575f916126f8575b50604051633d356c9360e11b8152600481018490525f5160206142525f395f51905f526024820152602081604481305afa90811561250e575f916126c6575b5060405193633d356c9360e11b855260048501527f5ea9c72654f688854705fff8ce20b23206633620364da655b5badc251fef55036024850152602084604481305afa91821561250e575f92612691575b60809450604051938452602084015260408301526060820152f35b91506020843d6020116126be575b816126ac60209383613098565b810103126103fe576080935191612676565b3d915061269f565b90506020813d6020116126f0575b816126e160209383613098565b810103126103fe575184612625565b3d91506126d4565b90506020813d602011612722575b8161271360209383613098565b810103126103fe5751836125e6565b3d9150612706565b90506020813d602011612754575b8161274560209383613098565b810103126103fe5751826125a7565b3d9150612738565b346103fe5760203660031901126103fe576040516331477b9b60e01b815260048035908201525f5160206141b25f395f51905f5260248201525f81604481305afa801561250e57610483915f916127c3575b50604051918291602083526020830190612f7f565b6127d791503d805f833e61049b8183613098565b826127ae565b346103fe575f3660031901126103fe576020600d54604051908152f35b346103fe575f3660031901126103fe5760206040515f5160206141f25f395f51905f528152f35b346103fe575f3660031901126103fe5760206040515f5160206141d25f395f51905f528152f35b346103fe575f3660031901126103fe576040517f00000000000000000000000000000000000000000000000000000000000000006001600160a01b03168152602090f35b346103fe5760203660031901126103fe576040516331477b9b60e01b815260048035908201525f5160206142325f395f51905f5260248201525f81604481305afa801561250e57610483915f916127c35750604051918291602083526020830190612f7f565b346103fe575f3660031901126103fe5760206040515f5160206141b25f395f51905f528152f35b346103fe5760203660031901126103fe57604051632041c21f60e11b815260048035908201525f5160206141925f395f51905f5260248201525f81604481305afa801561250e57610483915f91612978575b5060405191829182612fb9565b61299491503d805f833e61298c8183613098565b810190613180565b8261296b565b346103fe575f3660031901126103fe5760206040517f0a093caf6af85ff58909af7ec5bc5bca8908fa3f4c103433b04f95c53df0248b8152f35b346103fe576129e236613052565b905f52600a60205260405f20905f52602052602060ff60405f205416604051908152f35b346103fe57612a1436613052565b905f52600760205260405f20905f5260205260405f206040519081602082549182815201915f5260205f20905f5b818110612a595761048385611bea81870382613098565b8254845260209093019260019283019201612a42565b346103fe575f3660031901126103fe5760206040515f5160206142925f395f51905f528152f35b346103fe575f3660031901126103fe5760206040515f5160206143325f395f51905f528152f35b346103fe57612acb36613052565b905f52600460205260405f20905f52602052602060405f2054604051908152f35b346103fe57612afa36613052565b905f525f60205260405f20905f52602052610483612b1a60405f2061327f565b604051918291602083526020830190612f7f565b346103fe5760203660031901126103fe576004355f52600860205260405f206040519081602082549182815201915f5260205f20905f5b818110612b7c5761048385611bea81870382613098565b8254845260209093019260019283019201612b65565b346103fe57612ba03661301f565b60405163bb6b0c3b60e01b8152600481018490525f5160206143925f395f51905f526024820152919291602081604481305afa90811561250e575f91612c6a575b5015612528576040516369d1cb4360e11b8152600481018390525f5160206143925f395f51905f526024820152602081604481305afa801561250e57612c2f915f91612c4b575033906133e6565b1561251957612c4992612c43913691613211565b9061348d565b005b612c64915060203d602011610687576106798183613098565b85610570565b612c83915060203d6020116106d3576106c58183613098565b84612be1565b346103fe5760203660031901126103fe57612ca2612fa3565b604051632041c21f60e11b81526001600160a01b0390911660048201525f5160206141525f395f51905f5260248201525f81604481305afa801561250e57610483915f91612978575060405191829182612fb9565b346103fe5760203660031901126103fe576040516369d1cb4360e11b815260048035908201527f766be3d92c7a2c4e3df0489618248b00312ecdc547ec46738deed82495ebd3ce6024820152602081604481305afa801561250e576020915f91612d6e57506040516001600160a01b039091168152f35b612d859150823d8411610687576106798183613098565b8261236a565b346103fe5760203660031901126103fe57604051630df675ff60e21b815260048035908201525f5160206143525f395f51905f526024820152602081604481305afa801561250e575f906103d357602090604051908152f35b346103fe575f3660031901126103fe5760206040515f5160206143525f395f51905f528152f35b346103fe575f3660031901126103fe57602060405160078152f35b346103fe575f3660031901126103fe5760206040515f5160206141525f395f51905f528152f35b346103fe5760203660031901126103fe57604051630df675ff60e21b815260048035908201525f5160206142b25f395f51905f526024820152602081604481305afa801561250e575f906103d357602090604051908152f35b346103fe575f3660031901126103fe5760206040515f5160206142725f395f51905f528152f35b346103fe575f3660031901126103fe5760206040515f5160206142325f395f51905f528152f35b346103fe5760203660031901126103fe576040516331477b9b60e01b815260048035908201525f5160206142d25f395f51905f5260248201525f81604481305afa801561250e57610483915f916127c35750604051918291602083526020830190612f7f565b346103fe575f3660031901126103fe57805f5160206143b25f395f51905f5260209252f35b805180835260209291819084018484015e5f828201840152601f01601f1916010190565b600435906001600160a01b03821682036103fe57565b60206040818301928281528451809452019201905f5b818110612fdc5750505090565b8251845260209384019390920191600101612fcf565b9181601f840112156103fe578235916001600160401b0383116103fe57602083818601950101116103fe57565b9060406003198301126103fe5760043591602435906001600160401b0382116103fe5761304e91600401612ff2565b9091565b60409060031901126103fe576004359060243590565b9181601f840112156103fe578235916001600160401b0383116103fe576020808501948460051b0101116103fe57565b90601f801991011681019081106001600160401b038211176130b957604052565b634e487b7160e01b5f52604160045260245ffd5b6001600160401b0381116130b957601f01601f191660200190565b6020818303126103fe578051906001600160401b0382116103fe570181601f820112156103fe5780519061311b826130cd565b926131296040519485613098565b828452602083830101116103fe57815f9260208093018386015e8301015290565b908160209103126103fe57516001600160a01b03811681036103fe5790565b6001600160401b0381116130b95760051b60200190565b6020818303126103fe578051906001600160401b0382116103fe57019080601f830112156103fe5781516131b381613169565b926131c16040519485613098565b81845260208085019260051b8201019283116103fe57602001905b8282106131e95750505090565b81518152602091820191016131dc565b908160209103126103fe575180151581036103fe5790565b92919261321d826130cd565b9161322b6040519384613098565b8294818452818301116103fe578281602093845f960137010152565b90600182811c92168015613275575b602083101461326157565b634e487b7160e01b5f52602260045260245ffd5b91607f1691613256565b9060405191825f82549261329284613247565b80845293600181169081156132fd57506001146132b9575b506132b792500383613098565b565b90505f9291925260205f20905f915b8183106132e15750509060206132b7928201015f6132aa565b60209193508060019154838589010152019101909184926132c8565b9050602092506132b794915060ff191682840152151560051b8201015f6132aa565b92919061332b81613169565b936133396040519586613098565b602085838152019160051b81019283116103fe57905b82821061335b57505050565b813581526020918201910161334f565b356001600160a01b03811681036103fe5790565b903590601e19813603018212156103fe57018035906001600160401b0382116103fe57602001918160051b360383136103fe57565b903590601e19813603018212156103fe57018035906001600160401b0382116103fe576020019181360383136103fe57565b90813b15613487575f91829160405160208101916317aa5fb760e11b835260018060a01b0316602482015260248152613420604482613098565b51915afa3d15613480573d613434816130cd565b906134426040519283613098565b81523d5f602083013e5b81613472575b8161345b575090565b61346f9150602080825183010191016131f9565b90565b905060208151101590613452565b606061344c565b50505f90565b9190916134a65f5160206143b25f395f51905f526139b4565b805f525f60205260405f205f5160206143b25f395f51905f525f5260205260405f2083516001600160401b0381116130b9576134e28254613247565b601f811161358c575b506020601f821160011461352f5790805f5160206143b25f395f51905f529493926132b796975f9261082f5750508160011b915f199060031b1c1916179055613a3f565b601f19821695835f52815f20965f5b81811061357457509660019284925f5160206143b25f395f51905f529796956132b7999a1061087f57505050811b019055613a3f565b8383015189556001909801976020938401930161353e565b825f5260205f20601f830160051c810191602084106135c7575b601f0160051c01905b8181106135bc57506134eb565b5f81556001016135af565b90915081906135a6565b7fcedb18faaf1bf0838e08e6042e662614086879cd24c7c99caa385fed122d32c5906132b792613600836139b4565b815f52600460205260405f20835f5260205260405f2055613ba9565b7f766be3d92c7a2c4e3df0489618248b00312ecdc547ec46738deed82495ebd3ce906132b79261364b836139b4565b815f52600160205260405f20835f5260205260405f209060018060a01b03166bffffffffffffffffffffffff60a01b825416179055613d13565b9061369c5f5160206143725f395f51905f526139b4565b815f52600260205260405f205f5160206143725f395f51905f525f5260205260405f209060ff8019835416911515161790555f5160206143725f395f51905f5290805f52600e60205260ff60405f20541615613824575b805f52600960205260405f20825f5260205260ff60405f205416156137e9575b805f52600a60205260405f20825f5260205260405f20600360ff19825416179055805f52600c60205260016001600160401b0360405f205416016001600160401b0381116137d55760405f5160206142f25f395f51905f5291835f52600c602052815f206001600160401b0382166001600160401b0319825416179055835f52600b602052815f20855f52602052815f206001600160401b0382166001600160401b03198254161790556001600160401b0382519160038352166020820152a3565b634e487b7160e01b5f52601160045260245ffd5b805f5260086020526137fe8260405f206138b6565b805f52600960205260405f20825f5260205260405f20600160ff19825416179055613713565b805f52600e60205260405f20600160ff198254161790556138448161385b565b805f5160206141725f395f51905f525f80a26136f3565b600d54600160401b8110156130b9576001810180600d558110156138a257600d5f527fd7b6990105719101dabeb77144f2a3385c8033acd3af97e9423a695e81ad1eb50155565b634e487b7160e01b5f52603260045260245ffd5b805490600160401b8210156130b957600182018082558210156138a2575f5260205f200155565b9190916138f65f5160206141525f395f51905f526139b4565b805f52600760205260405f205f5160206141525f395f51905f525f5260205260405f208054905f815581613996575b50505f5b835181101561397b57815f52600760205260405f205f5160206141525f395f51905f525f5260205260405f209084518110156138a25761397560019260208360051b88010151906138b6565b01613929565b506132b79192505f5160206141525f395f51905f5290613e7d565b5f5260205f20908101905b81811015613925575f81556001016139a1565b60405163170da40760e21b815260048101919091526020816024817f00000000000000000000000000000000000000000000000000000000000000006001600160a01b03165afa90811561250e575f91613a20575b5015613a1157565b632263bf1f60e21b5f5260045ffd5b613a39915060203d6020116106d3576106c58183613098565b5f613a09565b805f52600e60205260ff60405f20541615613b72575b805f52600960205260405f20825f5260205260ff60405f20541615613b37575b805f52600a60205260405f20825f5260205260405f20600160ff19825416179055805f52600c60205260016001600160401b0360405f205416016001600160401b0381116137d55760405f5160206142f25f395f51905f5291835f52600c602052815f206001600160401b0382166001600160401b0319825416179055835f52600b602052815f20855f52602052815f206001600160401b0382166001600160401b03198254161790556001600160401b0382519160018352166020820152a3565b805f526008602052613b4c8260405f206138b6565b805f52600960205260405f20825f5260205260405f20600160ff19825416179055613a75565b805f52600e60205260405f20600160ff19825416179055613b928161385b565b805f5160206141725f395f51905f525f80a2613a55565b805f52600e60205260ff60405f20541615613cdc575b805f52600960205260405f20825f5260205260ff60405f20541615613ca1575b805f52600a60205260405f20825f5260205260405f20600560ff19825416179055805f52600c60205260016001600160401b0360405f205416016001600160401b0381116137d55760405f5160206142f25f395f51905f5291835f52600c602052815f206001600160401b0382166001600160401b0319825416179055835f52600b602052815f20855f52602052815f206001600160401b0382166001600160401b03198254161790556001600160401b0382519160058352166020820152a3565b805f526008602052613cb68260405f206138b6565b805f52600960205260405f20825f5260205260405f20600160ff19825416179055613bdf565b805f52600e60205260405f20600160ff19825416179055613cfc8161385b565b805f5160206141725f395f51905f525f80a2613bbf565b805f52600e60205260ff60405f20541615613e46575b805f52600960205260405f20825f5260205260ff60405f20541615613e0b575b805f52600a60205260405f20825f5260205260405f20600260ff19825416179055805f52600c60205260016001600160401b0360405f205416016001600160401b0381116137d55760405f5160206142f25f395f51905f5291835f52600c602052815f206001600160401b0382166001600160401b0319825416179055835f52600b602052815f20855f52602052815f206001600160401b0382166001600160401b03198254161790556001600160401b0382519160028352166020820152a3565b805f526008602052613e208260405f206138b6565b805f52600960205260405f20825f5260205260405f20600160ff19825416179055613d49565b805f52600e60205260405f20600160ff19825416179055613e668161385b565b805f5160206141725f395f51905f525f80a2613d29565b805f52600e60205260ff60405f20541615613fb0575b805f52600960205260405f20825f5260205260ff60405f20541615613f75575b805f52600a60205260405f20825f5260205260405f20600860ff19825416179055805f52600c60205260016001600160401b0360405f205416016001600160401b0381116137d55760405f5160206142f25f395f51905f5291835f52600c602052815f206001600160401b0382166001600160401b0319825416179055835f52600b602052815f20855f52602052815f206001600160401b0382166001600160401b03198254161790556001600160401b0382519160088352166020820152a3565b805f526008602052613f8a8260405f206138b6565b805f52600960205260405f20825f5260205260405f20600160ff19825416179055613eb3565b805f52600e60205260405f20600160ff19825416179055613fd08161385b565b805f5160206141725f395f51905f525f80a2613e93565b805f52600e60205260ff60405f2054161561411a575b805f52600960205260405f20825f5260205260ff60405f205416156140df575b805f52600a60205260405f20825f5260205260405f20600460ff19825416179055805f52600c60205260016001600160401b0360405f205416016001600160401b0381116137d55760405f5160206142f25f395f51905f5291835f52600c602052815f206001600160401b0382166001600160401b0319825416179055835f52600b602052815f20855f52602052815f206001600160401b0382166001600160401b03198254161790556001600160401b0382519160048352166020820152a3565b805f5260086020526140f48260405f206138b6565b805f52600960205260405f20825f5260205260405f20600160ff1982541617905561401d565b805f52600e60205260405f20600160ff1982541617905561413a8161385b565b805f5160206141725f395f51905f525f80a2613ffd56fef4fb0792a6ddcfab734dec06731eb8749c30e325a348844fc359e200b6a75b1c34f1cb4778d9578e1af878b07d3ae7e9f2f32fafcaa3096fe48153670a71bfaf53dfd24377939e89a626dc61c5a37ebfdaf3f0ed448a4a5da753cafe05638c089a91b66aa97e6c0f1831e9b379ecea81a1b4c8956b8c45d3b1a1107b39808e439793e25fff2277c9667a906787600606b3a20ac66384f38c9dd35aa5e7bec64c1f6b5c92f11d418c2ed2b2fcb985077a715bafa6c55a66310122255054cb7f543a7259b22422608a7552616285e21d0cde6337b20445b38e286ebc9d5358b52e898cc3548347493fae67728f084b8f1fa93f530cdff4d4e521db3665d0150e170a381da985d083b53d448fb17c24bfa4a01e78f8c1493245d18806c2f8d2fc9488e94ac17dd709171964cda79d07d8e32be9c2b743970d84aa92a173f20e45a095db22303fd5ae29c4446eaf37b555c427b1d79b2729b36bec3932ff7fd87f02b5b7fdeab3b45785910fc613026dae52a9939b9e0ed430fb0d4096a8b141243f20173a3e65424cfcffd3d9c56a6033cc3542634c1bc1517165080cc39b4236df5167ea251eeaf052f4c7bd769efb5b17e6ba98908050b9929a0bd192b57274fb8c86574907c60400790f0e83948768df5c993c70b05b91aa716e8443b6366123d64ffd6f58f2c848a7e5bd1f1f0ae77823f9ae773e4a981874fdad1ab58c5f7ee7ed0b367f80e2e4289c8c2f125cfbaede7175a21ff959cff1f2b2206d9e6ef617e7af9195167a7d25021113380a5929bcf89456e48efdef2b7e264260599a0810c72a82595a7b5308a947d902eb0b8d1aa6f516b975d88a8f7a7129d6d71c5577d55dadd858d436db0940c507d4ca0c20f62a31f348a376954f46ea10d5801ba2646970667358221220b54017b1a8318b3e77ac412d72a2d366d934f62aa9d03484ec29cf3ec8504e6464736f6c634300081c0033","linkReferences":{}},"methodIdentifiers":{"CLASS_FUND()":"47f4dc1a","CLASS_ROUND()":"886c7669","DT_ADDRESS_ARR_PUB()":"213aaad7","DT_ADDRESS_PUB()":"ece6bebc","DT_BOOL_PUB()":"93cbc37d","DT_BYTES32_ARR_PUB()":"f98eed69","DT_BYTES32_PUB()":"c3174629","DT_STRING_ARR_PUB()":"8e101369","DT_STRING_PUB()":"a954aea1","DT_UINT256_PUB()":"be78c068","ONTOLOGY()":"e63cdb42","SA_FUND_ACCEPTED_KINDS()":"20d1b3a3","SA_FUND_OPEN_FOR_CALLS()":"ee018a78","SA_ROUND_AWARDS_ROOT()":"26d2e8fa","SA_ROUND_DEADLINE()":"3a0c0c12","SA_ROUND_DECISION_DATE()":"b260c4f8","SA_ROUND_DISPUTE_UNTIL()":"611f6c9c","SA_ROUND_FUND_AGENT()":"b3e40f7d","SA_ROUND_MANDATE()":"0d57f6e4","SA_ROUND_MILESTONE_TEMPLATE()":"4d67c729","SA_ROUND_OPENED_AT()":"3d5696f2","SA_ROUND_POOL_AGENT()":"d1a26bdf","SA_ROUND_REPORTING_CADENCE()":"79243c31","SA_ROUND_REQUIRED_CREDENTIALS()":"6fb37416","SA_ROUND_SLUG()":"111e0fee","SA_ROUND_STATUS()":"ac01f0e1","SA_ROUND_VALIDATOR_REQUIREMENTS()":"9a389caa","SA_ROUND_VISIBILITY()":"1899ebe4","SA_ROUND_VOTING_STRATEGY()":"5fcb718c","SA_ROUND_VOTING_THRESHOLD()":"96a06dd1","SA_ROUND_VOTING_WINDOW_ENDS_AT()":"d9e371c0","SA_ROUND_VOTING_WINDOW_STARTS_AT()":"b0c8fe30","SHAPES()":"55c964dd","allSubjects()":"c3a6123d","datatypeOf(bytes32,bytes32)":"42921cf3","getAddress(bytes32,bytes32)":"d3a39686","getAddressArr(bytes32,bytes32)":"e4281bc3","getBool(bytes32,bytes32)":"98eaf11c","getBytes32(bytes32,bytes32)":"37d9d7fc","getBytes32Arr(bytes32,bytes32)":"4083843e","getFundAcceptedKinds(address)":"3001aaad","getRoundAwardsRoot(bytes32)":"2ce04655","getRoundDeadline(bytes32)":"87533f3a","getRoundDecisionDate(bytes32)":"8ebdd6d2","getRoundDisputeUntil(bytes32)":"fd71feef","getRoundFundAgent(bytes32)":"695eea29","getRoundMandate(bytes32)":"f9f67719","getRoundMilestoneTemplate(bytes32)":"6526e9af","getRoundOpenedAt(bytes32)":"7d7f7596","getRoundPoolAgent(bytes32)":"2dbde087","getRoundReportingCadence(bytes32)":"1b9b8a7d","getRoundRequiredCredentials(bytes32)":"4837f591","getRoundSlug(bytes32)":"51c66f72","getRoundStatus(bytes32)":"7dfd93fe","getRoundValidatorRequirements(bytes32)":"0fb66f98","getRoundVisibility(bytes32)":"7f2c68d0","getRoundVotingConfig(bytes32)":"67463067","getString(bytes32,bytes32)":"31477b9b","getStringArr(bytes32,bytes32)":"cb954f30","getUint(bytes32,bytes32)":"7a6ad926","isFundOpenForCalls(address)":"bea06113","isSet(bytes32,bytes32)":"bb6b0c3b","openRound((bytes32,address,address,uint256,uint256,bytes32,bytes32[],bytes32,bytes32,string,string,string,string))":"e1d125a1","predicatesOf(bytes32)":"30547181","registerFund(address,bytes32[],bool)":"d223042c","roundSubject(string)":"c6fbc3b3","setFundAcceptedKinds(address,bytes32[])":"bbb922f4","setFundOpenForCalls(address,bool)":"85ed27c6","setRoundAwardsRoot(bytes32,bytes32,uint256)":"f4da6888","setRoundMandate(bytes32,string)":"301d234d","setRoundMilestoneTemplate(bytes32,string)":"f207ad9c","setRoundPoolAgent(bytes32,address)":"814349ba","setRoundStatus(bytes32,bytes32)":"687837bf","setRoundValidatorRequirements(bytes32,string)":"e7d3fd97","setRoundVotingConfig(bytes32,bytes32,uint256,uint256,uint256)":"cfcd225a","subjectCount()":"639a2e10","subjectVersion(bytes32)":"8e21caca","updatedAt(bytes32,bytes32)":"880eadce"},"id":103}