{"abi":[{"type":"constructor","inputs":[{"name":"store","type":"address","internalType":"address"},{"name":"shapes","type":"address","internalType":"address"}],"stateMutability":"nonpayable"},{"type":"function","name":"CLASS_FUND","inputs":[],"outputs":[{"name":"","type":"bytes32","internalType":"bytes32"}],"stateMutability":"view"},{"type":"function","name":"CLASS_ROUND","inputs":[],"outputs":[{"name":"","type":"bytes32","internalType":"bytes32"}],"stateMutability":"view"},{"type":"function","name":"SA_FUND_ACCEPTED_KINDS","inputs":[],"outputs":[{"name":"","type":"bytes32","internalType":"bytes32"}],"stateMutability":"view"},{"type":"function","name":"SA_FUND_OPEN_FOR_CALLS","inputs":[],"outputs":[{"name":"","type":"bytes32","internalType":"bytes32"}],"stateMutability":"view"},{"type":"function","name":"SA_ROUND_AWARDS_ROOT","inputs":[],"outputs":[{"name":"","type":"bytes32","internalType":"bytes32"}],"stateMutability":"view"},{"type":"function","name":"SA_ROUND_DEADLINE","inputs":[],"outputs":[{"name":"","type":"bytes32","internalType":"bytes32"}],"stateMutability":"view"},{"type":"function","name":"SA_ROUND_DECISION_DATE","inputs":[],"outputs":[{"name":"","type":"bytes32","internalType":"bytes32"}],"stateMutability":"view"},{"type":"function","name":"SA_ROUND_DISPUTE_UNTIL","inputs":[],"outputs":[{"name":"","type":"bytes32","internalType":"bytes32"}],"stateMutability":"view"},{"type":"function","name":"SA_ROUND_FUND_AGENT","inputs":[],"outputs":[{"name":"","type":"bytes32","internalType":"bytes32"}],"stateMutability":"view"},{"type":"function","name":"SA_ROUND_OPENED_AT","inputs":[],"outputs":[{"name":"","type":"bytes32","internalType":"bytes32"}],"stateMutability":"view"},{"type":"function","name":"SA_ROUND_REPORTING_CADENCE","inputs":[],"outputs":[{"name":"","type":"bytes32","internalType":"bytes32"}],"stateMutability":"view"},{"type":"function","name":"SA_ROUND_REQUIRED_CREDENTIALS","inputs":[],"outputs":[{"name":"","type":"bytes32","internalType":"bytes32"}],"stateMutability":"view"},{"type":"function","name":"SA_ROUND_STATUS","inputs":[],"outputs":[{"name":"","type":"bytes32","internalType":"bytes32"}],"stateMutability":"view"},{"type":"function","name":"SA_ROUND_VISIBILITY","inputs":[],"outputs":[{"name":"","type":"bytes32","internalType":"bytes32"}],"stateMutability":"view"},{"type":"function","name":"SHAPES","inputs":[],"outputs":[{"name":"","type":"address","internalType":"contract ShapeRegistry"}],"stateMutability":"view"},{"type":"function","name":"STORE","inputs":[],"outputs":[{"name":"","type":"address","internalType":"contract OntologyAttributeStore"}],"stateMutability":"view"},{"type":"function","name":"getFundAcceptedKinds","inputs":[{"name":"fundAgent","type":"address","internalType":"address"}],"outputs":[{"name":"","type":"bytes32[]","internalType":"bytes32[]"}],"stateMutability":"view"},{"type":"function","name":"getRoundAwardsRoot","inputs":[{"name":"round","type":"bytes32","internalType":"bytes32"}],"outputs":[{"name":"","type":"bytes32","internalType":"bytes32"}],"stateMutability":"view"},{"type":"function","name":"getRoundDeadline","inputs":[{"name":"round","type":"bytes32","internalType":"bytes32"}],"outputs":[{"name":"","type":"uint256","internalType":"uint256"}],"stateMutability":"view"},{"type":"function","name":"getRoundDecisionDate","inputs":[{"name":"round","type":"bytes32","internalType":"bytes32"}],"outputs":[{"name":"","type":"uint256","internalType":"uint256"}],"stateMutability":"view"},{"type":"function","name":"getRoundDisputeUntil","inputs":[{"name":"round","type":"bytes32","internalType":"bytes32"}],"outputs":[{"name":"","type":"uint256","internalType":"uint256"}],"stateMutability":"view"},{"type":"function","name":"getRoundFundAgent","inputs":[{"name":"round","type":"bytes32","internalType":"bytes32"}],"outputs":[{"name":"","type":"address","internalType":"address"}],"stateMutability":"view"},{"type":"function","name":"getRoundOpenedAt","inputs":[{"name":"round","type":"bytes32","internalType":"bytes32"}],"outputs":[{"name":"","type":"uint256","internalType":"uint256"}],"stateMutability":"view"},{"type":"function","name":"getRoundReportingCadence","inputs":[{"name":"round","type":"bytes32","internalType":"bytes32"}],"outputs":[{"name":"","type":"bytes32","internalType":"bytes32"}],"stateMutability":"view"},{"type":"function","name":"getRoundRequiredCredentials","inputs":[{"name":"round","type":"bytes32","internalType":"bytes32"}],"outputs":[{"name":"","type":"bytes32[]","internalType":"bytes32[]"}],"stateMutability":"view"},{"type":"function","name":"getRoundStatus","inputs":[{"name":"round","type":"bytes32","internalType":"bytes32"}],"outputs":[{"name":"","type":"bytes32","internalType":"bytes32"}],"stateMutability":"view"},{"type":"function","name":"getRoundVisibility","inputs":[{"name":"round","type":"bytes32","internalType":"bytes32"}],"outputs":[{"name":"","type":"bytes32","internalType":"bytes32"}],"stateMutability":"view"},{"type":"function","name":"isFundOpenForCalls","inputs":[{"name":"fundAgent","type":"address","internalType":"address"}],"outputs":[{"name":"","type":"bool","internalType":"bool"}],"stateMutability":"view"},{"type":"function","name":"openRound","inputs":[{"name":"p","type":"tuple","internalType":"struct FundRegistry.OpenRoundParams","components":[{"name":"roundSubject","type":"bytes32","internalType":"bytes32"},{"name":"fundAgent","type":"address","internalType":"address"},{"name":"deadline","type":"uint256","internalType":"uint256"},{"name":"decisionDate","type":"uint256","internalType":"uint256"},{"name":"reportingCadence","type":"bytes32","internalType":"bytes32"},{"name":"requiredCredentials","type":"bytes32[]","internalType":"bytes32[]"},{"name":"visibility","type":"bytes32","internalType":"bytes32"},{"name":"initialStatus","type":"bytes32","internalType":"bytes32"}]}],"outputs":[],"stateMutability":"nonpayable"},{"type":"function","name":"registerFund","inputs":[{"name":"fundAgent","type":"address","internalType":"address"},{"name":"acceptedKinds","type":"bytes32[]","internalType":"bytes32[]"},{"name":"openForCalls","type":"bool","internalType":"bool"}],"outputs":[],"stateMutability":"nonpayable"},{"type":"function","name":"roundSubject","inputs":[{"name":"roundId","type":"string","internalType":"string"}],"outputs":[{"name":"","type":"bytes32","internalType":"bytes32"}],"stateMutability":"pure"},{"type":"function","name":"setFundAcceptedKinds","inputs":[{"name":"fundAgent","type":"address","internalType":"address"},{"name":"kinds","type":"bytes32[]","internalType":"bytes32[]"}],"outputs":[],"stateMutability":"nonpayable"},{"type":"function","name":"setFundOpenForCalls","inputs":[{"name":"fundAgent","type":"address","internalType":"address"},{"name":"openForCalls","type":"bool","internalType":"bool"}],"outputs":[],"stateMutability":"nonpayable"},{"type":"function","name":"setRoundAwardsRoot","inputs":[{"name":"round","type":"bytes32","internalType":"bytes32"},{"name":"awardsRoot","type":"bytes32","internalType":"bytes32"},{"name":"disputeUntil","type":"uint256","internalType":"uint256"}],"outputs":[],"stateMutability":"nonpayable"},{"type":"function","name":"setRoundStatus","inputs":[{"name":"round","type":"bytes32","internalType":"bytes32"},{"name":"newStatus","type":"bytes32","internalType":"bytes32"}],"outputs":[],"stateMutability":"nonpayable"},{"type":"event","name":"FundRegistered","inputs":[{"name":"fundAgent","type":"address","indexed":true,"internalType":"address"},{"name":"subject","type":"bytes32","indexed":false,"internalType":"bytes32"}],"anonymous":false},{"type":"event","name":"RoundAwardsRootSet","inputs":[{"name":"roundSubject","type":"bytes32","indexed":true,"internalType":"bytes32"},{"name":"awardsRoot","type":"bytes32","indexed":false,"internalType":"bytes32"},{"name":"disputeUntil","type":"uint256","indexed":false,"internalType":"uint256"}],"anonymous":false},{"type":"event","name":"RoundOpened","inputs":[{"name":"roundSubject","type":"bytes32","indexed":true,"internalType":"bytes32"},{"name":"fundAgent","type":"address","indexed":true,"internalType":"address"}],"anonymous":false},{"type":"event","name":"RoundStatusChanged","inputs":[{"name":"roundSubject","type":"bytes32","indexed":true,"internalType":"bytes32"},{"name":"newStatus","type":"bytes32","indexed":false,"internalType":"bytes32"}],"anonymous":false},{"type":"error","name":"MissingFundAgent","inputs":[]},{"type":"error","name":"NotFundOwner","inputs":[]},{"type":"error","name":"RoundNotInitialized","inputs":[]}],"bytecode":{"object":"0x60c03461011157601f611f9438819003918201601f19168301916001600160401b0383118484101761011557808492604094855283398101031261011157610052602061004b83610129565b9201610129565b6001600160a01b039182166080521660a052604051611e56908161013e82396080518181816101f4015281816102a0015281816105a5015281816107b00152818161085c015281816109cd01528181610a9f01528181610b1d01528181610c0801528181610c8c01528181610d2301528181610e4d015281816113a20152818161142d015281816116dc0152818161175e015281816118e2015281816119750152611a7e015260a05181818161112a0152818161152a01526116980152f35b5f80fd5b634e487b7160e01b5f52604160045260245ffd5b51906001600160a01b03821682036101115756fe6080806040526004361015610012575f80fd5b5f905f3560e01c9081631899ebe414611abf575080631b9b8a7d14611a2a57806320d1b3a3146119f057806326d2e8fa146119b65780632ce04655146119215780633001aaad1461187a5780633a0c0c12146118405780633d5696f21461180657806347f4dc1a146117cc5780634837f5911461170b578063507f1465146116c757806355c964dd14611683578063611f6c9c14611649578063687837bf1461140c578063695eea29146113605780636e6a74eb14610dda5780636fb3741614610d9f57806379243c3114610d645780637d7f759614610ccd5780637dfd93fe14610c495780637f2c68d014610bb257806385ed27c614610ae057806387533f3a14610a49578063886c766914610a0e5780638ebdd6d214610977578063ac01f0e11461094f578063b260c4f814610914578063b3e40f7d146108ec578063bbb922f41461080a578063bea0611314610759578063c6fbc3b3146106bf578063d223042c1461053d578063ee018a7814610515578063f4da68881461027c5763fd71feef1461019f575f80fd5b3461027957602036600319011261027957604051633d356c9360e11b815260048035908201527f1f6b5c92f11d418c2ed2b2fcb985077a715bafa6c55a66310122255054cb7f546024820152906020826044817f00000000000000000000000000000000000000000000000000000000000000006001600160a01b03165afa90811561026d5790610236575b602090604051908152f35b506020813d602011610265575b8161025060209383611b77565b81010312610261576020905161022b565b5f80fd5b3d9150610243565b604051903d90823e3d90fd5b80fd5b50346102795760603660031901126102795760043560243560443560018060a01b037f00000000000000000000000000000000000000000000000000000000000000001660405163bb6b0c3b60e01b81528460048201525f516020611e015f395f51905f526024820152602081604481855afa9081156104c95786916104e6575b50156104d4576040516369d1cb4360e11b8152600481018590525f516020611e015f395f51905f526024820152602081604481855afa80156104c95761034c91879161049a575b503390611d09565b1561048b578085913b156104675760405163a14ff85760e01b81528560048201527fe7ed0b367f80e2e4289c8c2f125cfbaede7175a21ff959cff1f2b2206d9e6ef66024820152846044820152828160648183865af190811561048057839161046b575b5050803b1561046757818091606460405180948193631d60084b60e01b83528a60048401527f1f6b5c92f11d418c2ed2b2fcb985077a715bafa6c55a66310122255054cb7f5460248401528860448401525af1801561045c57610443575b50507f174edea277b8be769118be834e4b7de236f1430e1fecf6409930c4a7d69bd8099160409182519182526020820152a280f35b8161044d91611b77565b61045857835f61040e565b8380fd5b6040513d84823e3d90fd5b5080fd5b8161047591611b77565b61046757815f6103b0565b6040513d85823e3d90fd5b63b3545ef360e01b8552600485fd5b6104bc915060203d6020116104c2575b6104b48183611b77565b810190611c4a565b5f610344565b503d6104aa565b6040513d88823e3d90fd5b60016236173b60e01b03198552600485fd5b610508915060203d60201161050e575b6105008183611b77565b810190611c32565b5f6102fd565b503d6104f6565b503461027957806003193601126102795760206040515f516020611de15f395f51905f528152f35b503461027957606036600319011261027957610557611af7565b60243567ffffffffffffffff811161069757610577903690600401611b46565b91604435908115158092036106bb576105903382611d09565b1561048b576001600160a01b039081169385937f00000000000000000000000000000000000000000000000000000000000000009092169291833b156106bb57604051632f67785160e11b8152918591839182916105f391908a60048501611cb3565b038183875af19081156106b057849161069b575b5050813b15610697578291606483926040519485938492633c3d4fb960e21b84528960048501525f516020611de15f395f51905f52602485015260448401525af1801561045c57610682575b50507f2e8c8670ecb11a4402ca2675d9305ce3a10d15d46e80a85f8dfbf50305a30d566020604051838152a280f35b8161068c91611b77565b61046757815f610653565b8280fd5b816106a591611b77565b61069757825f610607565b6040513d86823e3d90fd5b8480fd5b50346102795760203660031901126102795760043567ffffffffffffffff8111610467573660238201121561046757806004013567ffffffffffffffff8111610697573660248284010111610697579161074e6029602094604051938185926024898501986839b09d3937bab7321d60b91b8a520185850137820190838201520301601f198101835282611b77565b519020604051908152f35b503461027957602036600319011261027957610773611af7565b60405163263abc4760e21b81526001600160a01b0391821660048201525f516020611de15f395f51905f52602482015290602090829060449082907f0000000000000000000000000000000000000000000000000000000000000000165afa90811561045c57602092916107ed575b506040519015158152f35b6108049150823d841161050e576105008183611b77565b5f6107e2565b503461027957604036600319011261027957610824611af7565b9060243567ffffffffffffffff811161046757610845903690600401611b46565b926108503382611d09565b156108dd5791928392907f00000000000000000000000000000000000000000000000000000000000000006001600160a01b0316803b156106bb57604051632f67785160e11b815293859385938492869284926108bb9290916001600160a01b031660048501611cb3565b03925af1801561045c576108cc5750f35b816108d691611b77565b6102795780f35b63b3545ef360e01b8352600483fd5b503461027957806003193601126102795760206040515f516020611e015f395f51905f528152f35b503461027957806003193601126102795760206040517f3a7259b22422608a7552616285e21d0cde6337b20445b38e286ebc9d5358b52e8152f35b503461027957806003193601126102795760206040515f516020611dc15f395f51905f528152f35b503461027957602036600319011261027957604051633d356c9360e11b815260048035908201527f3a7259b22422608a7552616285e21d0cde6337b20445b38e286ebc9d5358b52e6024820152906020826044817f00000000000000000000000000000000000000000000000000000000000000006001600160a01b03165afa90811561026d579061023657602090604051908152f35b503461027957806003193601126102795760206040517f281587bb88fdeb6dfd58b1d6ca4fcea730e272e807a0a353912952d047917c4e8152f35b503461027957602036600319011261027957604051633d356c9360e11b815260048035908201527fd64ffd6f58f2c848a7e5bd1f1f0ae77823f9ae773e4a981874fdad1ab58c5f7e6024820152906020826044817f00000000000000000000000000000000000000000000000000000000000000006001600160a01b03165afa90811561026d579061023657602090604051908152f35b503461027957604036600319011261027957610afa611af7565b9060243580151580910361046757610b123384611d09565b15610ba357909182917f00000000000000000000000000000000000000000000000000000000000000006001600160a01b03169190823b15610b9e57604051633c3d4fb960e21b81526001600160a01b0390921660048301525f516020611de15f395f51905f52602483015260448201529082908290606490829084905af1801561045c576108cc5750f35b505050fd5b63b3545ef360e01b8252600482fd5b503461027957602036600319011261027957604051630df675ff60e21b815260048035908201527f88e94ac17dd709171964cda79d07d8e32be9c2b743970d84aa92a173f20e45a06024820152906020826044817f00000000000000000000000000000000000000000000000000000000000000006001600160a01b03165afa90811561026d579061023657602090604051908152f35b503461027957602036600319011261027957604051630df675ff60e21b815260048035908201525f516020611dc15f395f51905f526024820152906020826044817f00000000000000000000000000000000000000000000000000000000000000006001600160a01b03165afa90811561026d579061023657602090604051908152f35b503461027957602036600319011261027957604051633d356c9360e11b815260048035908201527f95db22303fd5ae29c4446eaf37b555c427b1d79b2729b36bec3932ff7fd87f026024820152906020826044817f00000000000000000000000000000000000000000000000000000000000000006001600160a01b03165afa90811561026d579061023657602090604051908152f35b503461027957806003193601126102795760206040517fb5b7fdeab3b45785910fc613026dae52a9939b9e0ed430fb0d4096a8b141243f8152f35b503461027957806003193601126102795760206040517f53dfd24377939e89a626dc61c5a37ebfdaf3f0ed448a4a5da753cafe05638c088152f35b50346102795760203660031901126102795760043567ffffffffffffffff81116104675780600401906101006003198236030112610697576024810190610e2a610e2383611c69565b3390611d09565b15611351576001600160a01b03610e4083611c69565b16156113425782359284917f00000000000000000000000000000000000000000000000000000000000000006001600160a01b031691610e7f85611c69565b833b156106bb57604051633cd3e7f760e11b8152600481018890525f516020611e015f395f51905f5260248201526001600160a01b039091166044820152848160648183885af19081156112f857859161132d575b5050823b1561045857604051631d60084b60e01b81528660048201527fd64ffd6f58f2c848a7e5bd1f1f0ae77823f9ae773e4a981874fdad1ab58c5f7e602482015260448301356044820152848160648183885af19081156112f8578591611318575b5050823b1561045857604051631d60084b60e01b81528660048201527f3a7259b22422608a7552616285e21d0cde6337b20445b38e286ebc9d5358b52e602482015260648301356044820152848160648183885af19081156112f8578591611303575b5050823b156104585760405163a14ff85760e01b8152600481018790527fb5b7fdeab3b45785910fc613026dae52a9939b9e0ed430fb0d4096a8b141243f602482015260848301356044820152848160648183885af19081156112f85785916112e3575b505060a4820161100e8183611c7d565b9050611238575b5050813b156106975760405163a14ff85760e01b8152600481018690527f88e94ac17dd709171964cda79d07d8e32be9c2b743970d84aa92a173f20e45a0602482015260c48201356044820152838160648183875af19081156106b0578491611223575b5050813b156106975760e46040519163a14ff85760e01b83528660048401525f516020611dc15f395f51905f52602484015201356044820152828160648183865af190811561048057839161120e575b5050803b1561046757818091606460405180948193631d60084b60e01b83528960048401527f95db22303fd5ae29c4446eaf37b555c427b1d79b2729b36bec3932ff7fd87f0260248401524260448401525af1801561045c576111f9575b507f00000000000000000000000000000000000000000000000000000000000000006001600160a01b0316803b156104675781604491604051928380926303b47b6760e11b82527f281587bb88fdeb6dfd58b1d6ca4fcea730e272e807a0a353912952d047917c4e60048301528860248301525afa801561045c576111e4575b506001600160a01b03916111bb9150611c69565b16907fe110bcd5304b6c905d7b8b370a233a26adc95e4296d136d3c34e3cdb29feddc28380a380f35b816111ee91611b77565b61069757825f6111a7565b8161120391611b77565b61069757825f611127565b8161121891611b77565b61046757815f6110c9565b8161122d91611b77565b61069757825f611079565b61124191611c7d565b833b156106bb57604051632f67785160e11b8152600481018890527f53dfd24377939e89a626dc61c5a37ebfdaf3f0ed448a4a5da753cafe05638c0860248201526060604482015260648101829052916001600160fb1b0382116112df5760808360048193899560051b8091608485013782010103018183875af19081156106b05784911561101557816112d491611b77565b61069757825f611015565b8580fd5b816112ed91611b77565b61045857835f610ffe565b6040513d87823e3d90fd5b8161130d91611b77565b61045857835f610f9a565b8161132291611b77565b61045857835f610f37565b8161133791611b77565b61045857835f610ed4565b633d2aec7160e21b8452600484fd5b63b3545ef360e01b8452600484fd5b5034610279576020366003190112610279576040516369d1cb4360e11b815260048035908201525f516020611e015f395f51905f5260248201526020816044817f00000000000000000000000000000000000000000000000000000000000000006001600160a01b03165afa90811561045c57602092916113ef575b506040516001600160a01b039091168152f35b6114069150823d84116104c2576104b48183611b77565b5f6113dc565b50346102615760403660031901126102615760043560243560018060a01b037f00000000000000000000000000000000000000000000000000000000000000001660405163bb6b0c3b60e01b81528360048201525f516020611e015f395f51905f526024820152602081604481855afa908115611601575f9161162a575b501561161b576040516369d1cb4360e11b8152600481018490525f516020611e015f395f51905f526024820152602081604481855afa8015611601576114d8915f9161049a57503390611d09565b1561160c57803b15610261575f809160646040518094819363a14ff85760e01b83528860048401525f516020611dc15f395f51905f5260248401528760448401525af18015611601576115ec575b50827f00000000000000000000000000000000000000000000000000000000000000006001600160a01b0316803b156104675781604491604051928380926303b47b6760e11b82527f281587bb88fdeb6dfd58b1d6ca4fcea730e272e807a0a353912952d047917c4e60048301528860248301525afa801561045c576115d7575b505060207fe7387dac8be34cbebb5ab9e0158f88510f74862a35935c47ab477749e3df33c791604051908152a280f35b816115e191611b77565b61069757825f6115a7565b6115f99193505f90611b77565b5f915f611526565b6040513d5f823e3d90fd5b63b3545ef360e01b5f5260045ffd5b63ffc9e8c560e01b5f5260045ffd5b611643915060203d60201161050e576105008183611b77565b5f61148a565b34610261575f3660031901126102615760206040517f1f6b5c92f11d418c2ed2b2fcb985077a715bafa6c55a66310122255054cb7f548152f35b34610261575f366003190112610261576040517f00000000000000000000000000000000000000000000000000000000000000006001600160a01b03168152602090f35b34610261575f366003190112610261576040517f00000000000000000000000000000000000000000000000000000000000000006001600160a01b03168152602090f35b3461026157602036600319011261026157604051632041c21f60e11b815260048035908201527f53dfd24377939e89a626dc61c5a37ebfdaf3f0ed448a4a5da753cafe05638c0860248201525f816044817f00000000000000000000000000000000000000000000000000000000000000006001600160a01b03165afa8015611601576117a6915f916117aa575b5060405191829182611b0d565b0390f35b6117c691503d805f833e6117be8183611b77565b810190611bad565b82611799565b34610261575f3660031901126102615760206040517f0a093caf6af85ff58909af7ec5bc5bca8908fa3f4c103433b04f95c53df0248b8152f35b34610261575f3660031901126102615760206040517f95db22303fd5ae29c4446eaf37b555c427b1d79b2729b36bec3932ff7fd87f028152f35b34610261575f3660031901126102615760206040517fd64ffd6f58f2c848a7e5bd1f1f0ae77823f9ae773e4a981874fdad1ab58c5f7e8152f35b3461026157602036600319011261026157611893611af7565b604051632041c21f60e11b81526001600160a01b0391821660048201527ff4fb0792a6ddcfab734dec06731eb8749c30e325a348844fc359e200b6a75b1c6024820152905f90829060449082907f0000000000000000000000000000000000000000000000000000000000000000165afa8015611601576117a6915f916117aa575060405191829182611b0d565b3461026157602036600319011261026157604051630df675ff60e21b815260048035908201527fe7ed0b367f80e2e4289c8c2f125cfbaede7175a21ff959cff1f2b2206d9e6ef660248201526020816044817f00000000000000000000000000000000000000000000000000000000000000006001600160a01b03165afa8015611601575f9061023657602090604051908152f35b34610261575f3660031901126102615760206040517fe7ed0b367f80e2e4289c8c2f125cfbaede7175a21ff959cff1f2b2206d9e6ef68152f35b34610261575f3660031901126102615760206040517ff4fb0792a6ddcfab734dec06731eb8749c30e325a348844fc359e200b6a75b1c8152f35b3461026157602036600319011261026157604051630df675ff60e21b815260048035908201527fb5b7fdeab3b45785910fc613026dae52a9939b9e0ed430fb0d4096a8b141243f60248201526020816044817f00000000000000000000000000000000000000000000000000000000000000006001600160a01b03165afa8015611601575f9061023657602090604051908152f35b34610261575f36600319011261026157807f88e94ac17dd709171964cda79d07d8e32be9c2b743970d84aa92a173f20e45a060209252f35b600435906001600160a01b038216820361026157565b60206040818301928281528451809452019201905f5b818110611b305750505090565b8251845260209384019390920191600101611b23565b9181601f840112156102615782359167ffffffffffffffff8311610261576020808501948460051b01011161026157565b90601f8019910116810190811067ffffffffffffffff821117611b9957604052565b634e487b7160e01b5f52604160045260245ffd5b6020818303126102615780519067ffffffffffffffff821161026157019080601f830112156102615781519167ffffffffffffffff8311611b99578260051b9060405193611bfe6020840186611b77565b845260208085019282010192831161026157602001905b828210611c225750505090565b8151815260209182019101611c15565b90816020910312610261575180151581036102615790565b9081602091031261026157516001600160a01b03811681036102615790565b356001600160a01b03811681036102615790565b903590601e1981360301821215610261570180359067ffffffffffffffff821161026157602001918160051b3603831361026157565b9081527ff4fb0792a6ddcfab734dec06731eb8749c30e325a348844fc359e200b6a75b1c602082015260606040820181905281018390526001600160fb1b0383116102615760809260051b809284830137010190565b90813b15611dba575f91829160405160208101916317aa5fb760e11b835260018060a01b0316602482015260248152611d43604482611b77565b51915afa3d15611db3573d67ffffffffffffffff8111611b995760405190611d75601f8201601f191660200183611b77565b81523d5f602083013e5b81611da5575b81611d8e575090565b611da2915060208082518301019101611c32565b90565b905060208151101590611d85565b6060611d7f565b50505f9056fecedb18faaf1bf0838e08e6042e662614086879cd24c7c99caa385fed122d32c517e7af9195167a7d25021113380a5929bcf89456e48efdef2b7e264260599a0810c72a82595a7b5308a947d902eb0b8d1aa6f516b975d88a8f7a7129d6d71c55a2646970667358221220645b193672caff7b7c2d865a1254e2eec9c3a800f4454307bfd3ef507f10cfb364736f6c634300081c0033","linkReferences":{}},"methodIdentifiers":{"CLASS_FUND()":"47f4dc1a","CLASS_ROUND()":"886c7669","SA_FUND_ACCEPTED_KINDS()":"20d1b3a3","SA_FUND_OPEN_FOR_CALLS()":"ee018a78","SA_ROUND_AWARDS_ROOT()":"26d2e8fa","SA_ROUND_DEADLINE()":"3a0c0c12","SA_ROUND_DECISION_DATE()":"b260c4f8","SA_ROUND_DISPUTE_UNTIL()":"611f6c9c","SA_ROUND_FUND_AGENT()":"b3e40f7d","SA_ROUND_OPENED_AT()":"3d5696f2","SA_ROUND_REPORTING_CADENCE()":"79243c31","SA_ROUND_REQUIRED_CREDENTIALS()":"6fb37416","SA_ROUND_STATUS()":"ac01f0e1","SA_ROUND_VISIBILITY()":"1899ebe4","SHAPES()":"55c964dd","STORE()":"507f1465","getFundAcceptedKinds(address)":"3001aaad","getRoundAwardsRoot(bytes32)":"2ce04655","getRoundDeadline(bytes32)":"87533f3a","getRoundDecisionDate(bytes32)":"8ebdd6d2","getRoundDisputeUntil(bytes32)":"fd71feef","getRoundFundAgent(bytes32)":"695eea29","getRoundOpenedAt(bytes32)":"7d7f7596","getRoundReportingCadence(bytes32)":"1b9b8a7d","getRoundRequiredCredentials(bytes32)":"4837f591","getRoundStatus(bytes32)":"7dfd93fe","getRoundVisibility(bytes32)":"7f2c68d0","isFundOpenForCalls(address)":"bea06113","openRound((bytes32,address,uint256,uint256,bytes32,bytes32[],bytes32,bytes32))":"6e6a74eb","registerFund(address,bytes32[],bool)":"d223042c","roundSubject(string)":"c6fbc3b3","setFundAcceptedKinds(address,bytes32[])":"bbb922f4","setFundOpenForCalls(address,bool)":"85ed27c6","setRoundAwardsRoot(bytes32,bytes32,uint256)":"f4da6888","setRoundStatus(bytes32,bytes32)":"687837bf"},"id":88}