{"abi":[{"type":"constructor","inputs":[{"name":"ontologyRegistry","type":"address","internalType":"address"},{"name":"shapes","type":"address","internalType":"address"}],"stateMutability":"nonpayable"},{"type":"function","name":"CLASS_FUND","inputs":[],"outputs":[{"name":"","type":"bytes32","internalType":"bytes32"}],"stateMutability":"view"},{"type":"function","name":"CLASS_ROUND","inputs":[],"outputs":[{"name":"","type":"bytes32","internalType":"bytes32"}],"stateMutability":"view"},{"type":"function","name":"DT_ADDRESS_ARR_PUB","inputs":[],"outputs":[{"name":"","type":"uint8","internalType":"uint8"}],"stateMutability":"pure"},{"type":"function","name":"DT_ADDRESS_PUB","inputs":[],"outputs":[{"name":"","type":"uint8","internalType":"uint8"}],"stateMutability":"pure"},{"type":"function","name":"DT_BOOL_PUB","inputs":[],"outputs":[{"name":"","type":"uint8","internalType":"uint8"}],"stateMutability":"pure"},{"type":"function","name":"DT_BYTES32_ARR_PUB","inputs":[],"outputs":[{"name":"","type":"uint8","internalType":"uint8"}],"stateMutability":"pure"},{"type":"function","name":"DT_BYTES32_PUB","inputs":[],"outputs":[{"name":"","type":"uint8","internalType":"uint8"}],"stateMutability":"pure"},{"type":"function","name":"DT_STRING_ARR_PUB","inputs":[],"outputs":[{"name":"","type":"uint8","internalType":"uint8"}],"stateMutability":"pure"},{"type":"function","name":"DT_STRING_PUB","inputs":[],"outputs":[{"name":"","type":"uint8","internalType":"uint8"}],"stateMutability":"pure"},{"type":"function","name":"DT_UINT256_PUB","inputs":[],"outputs":[{"name":"","type":"uint8","internalType":"uint8"}],"stateMutability":"pure"},{"type":"function","name":"ONTOLOGY","inputs":[],"outputs":[{"name":"","type":"address","internalType":"contract OntologyTermRegistry"}],"stateMutability":"view"},{"type":"function","name":"SA_FUND_ACCEPTED_KINDS","inputs":[],"outputs":[{"name":"","type":"bytes32","internalType":"bytes32"}],"stateMutability":"view"},{"type":"function","name":"SA_FUND_OPEN_FOR_CALLS","inputs":[],"outputs":[{"name":"","type":"bytes32","internalType":"bytes32"}],"stateMutability":"view"},{"type":"function","name":"SA_ROUND_AWARDS_ROOT","inputs":[],"outputs":[{"name":"","type":"bytes32","internalType":"bytes32"}],"stateMutability":"view"},{"type":"function","name":"SA_ROUND_DEADLINE","inputs":[],"outputs":[{"name":"","type":"bytes32","internalType":"bytes32"}],"stateMutability":"view"},{"type":"function","name":"SA_ROUND_DECISION_DATE","inputs":[],"outputs":[{"name":"","type":"bytes32","internalType":"bytes32"}],"stateMutability":"view"},{"type":"function","name":"SA_ROUND_DISPUTE_UNTIL","inputs":[],"outputs":[{"name":"","type":"bytes32","internalType":"bytes32"}],"stateMutability":"view"},{"type":"function","name":"SA_ROUND_FUND_AGENT","inputs":[],"outputs":[{"name":"","type":"bytes32","internalType":"bytes32"}],"stateMutability":"view"},{"type":"function","name":"SA_ROUND_MANDATE","inputs":[],"outputs":[{"name":"","type":"bytes32","internalType":"bytes32"}],"stateMutability":"view"},{"type":"function","name":"SA_ROUND_MILESTONE_TEMPLATE","inputs":[],"outputs":[{"name":"","type":"bytes32","internalType":"bytes32"}],"stateMutability":"view"},{"type":"function","name":"SA_ROUND_OPENED_AT","inputs":[],"outputs":[{"name":"","type":"bytes32","internalType":"bytes32"}],"stateMutability":"view"},{"type":"function","name":"SA_ROUND_REPORTING_CADENCE","inputs":[],"outputs":[{"name":"","type":"bytes32","internalType":"bytes32"}],"stateMutability":"view"},{"type":"function","name":"SA_ROUND_REQUIRED_CREDENTIALS","inputs":[],"outputs":[{"name":"","type":"bytes32","internalType":"bytes32"}],"stateMutability":"view"},{"type":"function","name":"SA_ROUND_SLUG","inputs":[],"outputs":[{"name":"","type":"bytes32","internalType":"bytes32"}],"stateMutability":"view"},{"type":"function","name":"SA_ROUND_STATUS","inputs":[],"outputs":[{"name":"","type":"bytes32","internalType":"bytes32"}],"stateMutability":"view"},{"type":"function","name":"SA_ROUND_VALIDATOR_REQUIREMENTS","inputs":[],"outputs":[{"name":"","type":"bytes32","internalType":"bytes32"}],"stateMutability":"view"},{"type":"function","name":"SA_ROUND_VISIBILITY","inputs":[],"outputs":[{"name":"","type":"bytes32","internalType":"bytes32"}],"stateMutability":"view"},{"type":"function","name":"SHAPES","inputs":[],"outputs":[{"name":"","type":"address","internalType":"contract ShapeRegistry"}],"stateMutability":"view"},{"type":"function","name":"allSubjects","inputs":[],"outputs":[{"name":"","type":"bytes32[]","internalType":"bytes32[]"}],"stateMutability":"view"},{"type":"function","name":"datatypeOf","inputs":[{"name":"subject","type":"bytes32","internalType":"bytes32"},{"name":"predicate","type":"bytes32","internalType":"bytes32"}],"outputs":[{"name":"","type":"uint8","internalType":"uint8"}],"stateMutability":"view"},{"type":"function","name":"getAddress","inputs":[{"name":"subject","type":"bytes32","internalType":"bytes32"},{"name":"predicate","type":"bytes32","internalType":"bytes32"}],"outputs":[{"name":"","type":"address","internalType":"address"}],"stateMutability":"view"},{"type":"function","name":"getAddressArr","inputs":[{"name":"subject","type":"bytes32","internalType":"bytes32"},{"name":"predicate","type":"bytes32","internalType":"bytes32"}],"outputs":[{"name":"","type":"address[]","internalType":"address[]"}],"stateMutability":"view"},{"type":"function","name":"getBool","inputs":[{"name":"subject","type":"bytes32","internalType":"bytes32"},{"name":"predicate","type":"bytes32","internalType":"bytes32"}],"outputs":[{"name":"","type":"bool","internalType":"bool"}],"stateMutability":"view"},{"type":"function","name":"getBytes32","inputs":[{"name":"subject","type":"bytes32","internalType":"bytes32"},{"name":"predicate","type":"bytes32","internalType":"bytes32"}],"outputs":[{"name":"","type":"bytes32","internalType":"bytes32"}],"stateMutability":"view"},{"type":"function","name":"getBytes32Arr","inputs":[{"name":"subject","type":"bytes32","internalType":"bytes32"},{"name":"predicate","type":"bytes32","internalType":"bytes32"}],"outputs":[{"name":"","type":"bytes32[]","internalType":"bytes32[]"}],"stateMutability":"view"},{"type":"function","name":"getFundAcceptedKinds","inputs":[{"name":"fundAgent","type":"address","internalType":"address"}],"outputs":[{"name":"","type":"bytes32[]","internalType":"bytes32[]"}],"stateMutability":"view"},{"type":"function","name":"getRoundAwardsRoot","inputs":[{"name":"round","type":"bytes32","internalType":"bytes32"}],"outputs":[{"name":"","type":"bytes32","internalType":"bytes32"}],"stateMutability":"view"},{"type":"function","name":"getRoundDeadline","inputs":[{"name":"round","type":"bytes32","internalType":"bytes32"}],"outputs":[{"name":"","type":"uint256","internalType":"uint256"}],"stateMutability":"view"},{"type":"function","name":"getRoundDecisionDate","inputs":[{"name":"round","type":"bytes32","internalType":"bytes32"}],"outputs":[{"name":"","type":"uint256","internalType":"uint256"}],"stateMutability":"view"},{"type":"function","name":"getRoundDisputeUntil","inputs":[{"name":"round","type":"bytes32","internalType":"bytes32"}],"outputs":[{"name":"","type":"uint256","internalType":"uint256"}],"stateMutability":"view"},{"type":"function","name":"getRoundFundAgent","inputs":[{"name":"round","type":"bytes32","internalType":"bytes32"}],"outputs":[{"name":"","type":"address","internalType":"address"}],"stateMutability":"view"},{"type":"function","name":"getRoundMandate","inputs":[{"name":"round","type":"bytes32","internalType":"bytes32"}],"outputs":[{"name":"","type":"string","internalType":"string"}],"stateMutability":"view"},{"type":"function","name":"getRoundMilestoneTemplate","inputs":[{"name":"round","type":"bytes32","internalType":"bytes32"}],"outputs":[{"name":"","type":"string","internalType":"string"}],"stateMutability":"view"},{"type":"function","name":"getRoundOpenedAt","inputs":[{"name":"round","type":"bytes32","internalType":"bytes32"}],"outputs":[{"name":"","type":"uint256","internalType":"uint256"}],"stateMutability":"view"},{"type":"function","name":"getRoundReportingCadence","inputs":[{"name":"round","type":"bytes32","internalType":"bytes32"}],"outputs":[{"name":"","type":"bytes32","internalType":"bytes32"}],"stateMutability":"view"},{"type":"function","name":"getRoundRequiredCredentials","inputs":[{"name":"round","type":"bytes32","internalType":"bytes32"}],"outputs":[{"name":"","type":"bytes32[]","internalType":"bytes32[]"}],"stateMutability":"view"},{"type":"function","name":"getRoundSlug","inputs":[{"name":"round","type":"bytes32","internalType":"bytes32"}],"outputs":[{"name":"","type":"string","internalType":"string"}],"stateMutability":"view"},{"type":"function","name":"getRoundStatus","inputs":[{"name":"round","type":"bytes32","internalType":"bytes32"}],"outputs":[{"name":"","type":"bytes32","internalType":"bytes32"}],"stateMutability":"view"},{"type":"function","name":"getRoundValidatorRequirements","inputs":[{"name":"round","type":"bytes32","internalType":"bytes32"}],"outputs":[{"name":"","type":"string","internalType":"string"}],"stateMutability":"view"},{"type":"function","name":"getRoundVisibility","inputs":[{"name":"round","type":"bytes32","internalType":"bytes32"}],"outputs":[{"name":"","type":"bytes32","internalType":"bytes32"}],"stateMutability":"view"},{"type":"function","name":"getString","inputs":[{"name":"subject","type":"bytes32","internalType":"bytes32"},{"name":"predicate","type":"bytes32","internalType":"bytes32"}],"outputs":[{"name":"","type":"string","internalType":"string"}],"stateMutability":"view"},{"type":"function","name":"getStringArr","inputs":[{"name":"subject","type":"bytes32","internalType":"bytes32"},{"name":"predicate","type":"bytes32","internalType":"bytes32"}],"outputs":[{"name":"","type":"string[]","internalType":"string[]"}],"stateMutability":"view"},{"type":"function","name":"getUint","inputs":[{"name":"subject","type":"bytes32","internalType":"bytes32"},{"name":"predicate","type":"bytes32","internalType":"bytes32"}],"outputs":[{"name":"","type":"uint256","internalType":"uint256"}],"stateMutability":"view"},{"type":"function","name":"isFundOpenForCalls","inputs":[{"name":"fundAgent","type":"address","internalType":"address"}],"outputs":[{"name":"","type":"bool","internalType":"bool"}],"stateMutability":"view"},{"type":"function","name":"isSet","inputs":[{"name":"subject","type":"bytes32","internalType":"bytes32"},{"name":"predicate","type":"bytes32","internalType":"bytes32"}],"outputs":[{"name":"","type":"bool","internalType":"bool"}],"stateMutability":"view"},{"type":"function","name":"openRound","inputs":[{"name":"p","type":"tuple","internalType":"struct FundRegistry.OpenRoundParams","components":[{"name":"roundSubject","type":"bytes32","internalType":"bytes32"},{"name":"fundAgent","type":"address","internalType":"address"},{"name":"deadline","type":"uint256","internalType":"uint256"},{"name":"decisionDate","type":"uint256","internalType":"uint256"},{"name":"reportingCadence","type":"bytes32","internalType":"bytes32"},{"name":"requiredCredentials","type":"bytes32[]","internalType":"bytes32[]"},{"name":"visibility","type":"bytes32","internalType":"bytes32"},{"name":"initialStatus","type":"bytes32","internalType":"bytes32"},{"name":"mandate","type":"string","internalType":"string"},{"name":"milestoneTemplate","type":"string","internalType":"string"},{"name":"validatorRequirements","type":"string","internalType":"string"},{"name":"slug","type":"string","internalType":"string"}]}],"outputs":[],"stateMutability":"nonpayable"},{"type":"function","name":"predicatesOf","inputs":[{"name":"subject","type":"bytes32","internalType":"bytes32"}],"outputs":[{"name":"","type":"bytes32[]","internalType":"bytes32[]"}],"stateMutability":"view"},{"type":"function","name":"registerFund","inputs":[{"name":"fundAgent","type":"address","internalType":"address"},{"name":"acceptedKinds","type":"bytes32[]","internalType":"bytes32[]"},{"name":"openForCalls","type":"bool","internalType":"bool"}],"outputs":[],"stateMutability":"nonpayable"},{"type":"function","name":"roundSubject","inputs":[{"name":"roundId","type":"string","internalType":"string"}],"outputs":[{"name":"","type":"bytes32","internalType":"bytes32"}],"stateMutability":"pure"},{"type":"function","name":"setFundAcceptedKinds","inputs":[{"name":"fundAgent","type":"address","internalType":"address"},{"name":"kinds","type":"bytes32[]","internalType":"bytes32[]"}],"outputs":[],"stateMutability":"nonpayable"},{"type":"function","name":"setFundOpenForCalls","inputs":[{"name":"fundAgent","type":"address","internalType":"address"},{"name":"openForCalls","type":"bool","internalType":"bool"}],"outputs":[],"stateMutability":"nonpayable"},{"type":"function","name":"setRoundAwardsRoot","inputs":[{"name":"round","type":"bytes32","internalType":"bytes32"},{"name":"awardsRoot","type":"bytes32","internalType":"bytes32"},{"name":"disputeUntil","type":"uint256","internalType":"uint256"}],"outputs":[],"stateMutability":"nonpayable"},{"type":"function","name":"setRoundMandate","inputs":[{"name":"round","type":"bytes32","internalType":"bytes32"},{"name":"mandate","type":"string","internalType":"string"}],"outputs":[],"stateMutability":"nonpayable"},{"type":"function","name":"setRoundMilestoneTemplate","inputs":[{"name":"round","type":"bytes32","internalType":"bytes32"},{"name":"template","type":"string","internalType":"string"}],"outputs":[],"stateMutability":"nonpayable"},{"type":"function","name":"setRoundStatus","inputs":[{"name":"round","type":"bytes32","internalType":"bytes32"},{"name":"newStatus","type":"bytes32","internalType":"bytes32"}],"outputs":[],"stateMutability":"nonpayable"},{"type":"function","name":"setRoundValidatorRequirements","inputs":[{"name":"round","type":"bytes32","internalType":"bytes32"},{"name":"requirements","type":"string","internalType":"string"}],"outputs":[],"stateMutability":"nonpayable"},{"type":"function","name":"subjectCount","inputs":[],"outputs":[{"name":"","type":"uint256","internalType":"uint256"}],"stateMutability":"view"},{"type":"function","name":"subjectVersion","inputs":[{"name":"subject","type":"bytes32","internalType":"bytes32"}],"outputs":[{"name":"","type":"uint64","internalType":"uint64"}],"stateMutability":"view"},{"type":"function","name":"updatedAt","inputs":[{"name":"subject","type":"bytes32","internalType":"bytes32"},{"name":"predicate","type":"bytes32","internalType":"bytes32"}],"outputs":[{"name":"","type":"uint64","internalType":"uint64"}],"stateMutability":"view"},{"type":"event","name":"AttributeAppended","inputs":[{"name":"subject","type":"bytes32","indexed":true,"internalType":"bytes32"},{"name":"predicate","type":"bytes32","indexed":true,"internalType":"bytes32"},{"name":"datatype","type":"uint8","indexed":false,"internalType":"uint8"},{"name":"version","type":"uint64","indexed":false,"internalType":"uint64"}],"anonymous":false},{"type":"event","name":"AttributeSet","inputs":[{"name":"subject","type":"bytes32","indexed":true,"internalType":"bytes32"},{"name":"predicate","type":"bytes32","indexed":true,"internalType":"bytes32"},{"name":"datatype","type":"uint8","indexed":false,"internalType":"uint8"},{"name":"version","type":"uint64","indexed":false,"internalType":"uint64"}],"anonymous":false},{"type":"event","name":"AttributeUnset","inputs":[{"name":"subject","type":"bytes32","indexed":true,"internalType":"bytes32"},{"name":"predicate","type":"bytes32","indexed":true,"internalType":"bytes32"},{"name":"version","type":"uint64","indexed":false,"internalType":"uint64"}],"anonymous":false},{"type":"event","name":"FundRegistered","inputs":[{"name":"fundAgent","type":"address","indexed":true,"internalType":"address"},{"name":"subject","type":"bytes32","indexed":false,"internalType":"bytes32"}],"anonymous":false},{"type":"event","name":"RoundAwardsRootSet","inputs":[{"name":"roundSubject","type":"bytes32","indexed":true,"internalType":"bytes32"},{"name":"awardsRoot","type":"bytes32","indexed":false,"internalType":"bytes32"},{"name":"disputeUntil","type":"uint256","indexed":false,"internalType":"uint256"}],"anonymous":false},{"type":"event","name":"RoundOpened","inputs":[{"name":"roundSubject","type":"bytes32","indexed":true,"internalType":"bytes32"},{"name":"fundAgent","type":"address","indexed":true,"internalType":"address"}],"anonymous":false},{"type":"event","name":"RoundStatusChanged","inputs":[{"name":"roundSubject","type":"bytes32","indexed":true,"internalType":"bytes32"},{"name":"newStatus","type":"bytes32","indexed":false,"internalType":"bytes32"}],"anonymous":false},{"type":"event","name":"SubjectFirstSeen","inputs":[{"name":"subject","type":"bytes32","indexed":true,"internalType":"bytes32"}],"anonymous":false},{"type":"error","name":"AttributeNotSet","inputs":[]},{"type":"error","name":"MissingFundAgent","inputs":[]},{"type":"error","name":"NotFundOwner","inputs":[]},{"type":"error","name":"PredicateNotActive","inputs":[]},{"type":"error","name":"RoundNotInitialized","inputs":[]}],"bytecode":{"object":"0x60c0346100a157601f613ab638819003918201601f19168301916001600160401b038311848410176100a55780849260409485528339810103126100a157610052602061004b836100b9565b92016100b9565b6001600160a01b039182166080521660a0526040516139e890816100ce823960805181818161087e01528181610da2015261317c015260a05181818161117101528181611c6e0152611e580152f35b5f80fd5b634e487b7160e01b5f52604160045260245ffd5b51906001600160a01b03821682036100a15756fe6080806040526004361015610012575f80fd5b5f905f3560e01c9081630d57f6e4146124c1575080630fb66f981461245b578063111e0fee146124345780631899ebe41461240d5780631b9b8a7d146123b457806320d1b3a31461238d578063213aaad71461237257806326d2e8fa1461234b5780632ce04655146122f25780633001aaad14612284578063301d234d1461218d578063305471811461212957806331477b9b146120e757806337d9d7fc146120b85780633a0c0c12146120915780633d5696f21461206a5780634083843e1461200157806342921cf314611fcf57806347f4dc1a14611f955780634837f59114611f145780634d67c72914611eed57806351c66f7214611e8757806355c964dd14611e43578063611f6c9c14611e1c578063639a2e1014611dff5780636526e9af14611d7e578063687837bf14611bc2578063695eea2914611b3f5780636fb3741614611b1757806379243c3114611aef5780637a6ad92614611ac25780637d7f759614611a675780637dfd93fe146119f95780637f2c68d01461199e57806385ed27c61461194657806387533f3a146118eb578063880eadce146118b5578063886c76691461187a5780638e1013691461185e5780638e21caca1461182b5780638ebdd6d2146117d057806393cbc37d146117b457806398eaf11c146117825780639a389caa1461175a578063a954aea11461173e578063ac01f0e114611703578063b260c4f8146116db578063b3e40f7d146116b3578063bb6b0c3b14611681578063bbb922f41461161a578063bd0ccaef14610d04578063be78c06814610ce8578063bea0611314610c5d578063c317462914610c41578063c3a6123d14610bc0578063c6fbc3b314610b41578063cb954f3014610a68578063d223042c146109a2578063d3a396861461096b578063e4281bc3146108ad578063e63cdb4214610868578063e7d3fd9714610793578063ece6bebc14610777578063ee018a781461074f578063f207ad9c14610677578063f4da68881461046e578063f98eed6914610452578063f9f67719146103b65763fd71feef14610315575f80fd5b346103b35760203660031901126103b357604051633d356c9360e11b815260048035908201525f5160206138135f395f51905f52602482015290602082604481305afa9081156103a75790610370575b602090604051908152f35b506020813d60201161039f575b8161038a602093836125ff565b8101031261039b5760209051610365565b5f80fd5b3d915061037d565b604051903d90823e3d90fd5b80fd5b50346103b35760203660031901126103b3576040516331477b9b60e01b815260048035908201525f5160206139935f395f51905f5260248201528181604481305afa90811561044757826104209392610424575b50506040519182916020835260208301906124e6565b0390f35b61044092503d8091833e61043881836125ff565b81019061264f565b5f8061040a565b6040513d84823e3d90fd5b50346103b357806003193601126103b357602060405160088152f35b50346103b35760603660031901126103b35760043560243560443560405163bb6b0c3b60e01b81528360048201525f5160206139735f395f51905f526024820152602081604481305afa90811561062b578591610648575b5015610636576040516369d1cb4360e11b8152600481018490525f5160206139735f395f51905f526024820152602081604481305afa801561062b576105159186916105fc575b50339061294d565b156105ed577f174edea277b8be769118be834e4b7de236f1430e1fecf6409930c4a7d69bd809916040916105555f5160206139335f395f51905f5261315f565b84865260046020528286205f5160206139335f395f51905f528752602052818387205561058f5f5160206139335f395f51905f5286613354565b6105a55f5160206138135f395f51905f5261315f565b84865260036020528286205f5160206138135f395f51905f52875260205280838720556105df5f5160206138135f395f51905f5286613628565b82519182526020820152a280f35b63b3545ef360e01b8452600484fd5b61061e915060203d602011610624575b61061681836125ff565b810190612759565b5f61050d565b503d61060c565b6040513d87823e3d90fd5b60016236173b60e01b03198452600484fd5b61066a915060203d602011610670575b61066281836125ff565b810190612741565b5f6104c6565b503d610658565b50346103b35761068636612586565b60405163bb6b0c3b60e01b8152600481018490525f5160206139735f395f51905f526024820152602081604481305afa90811561062b578591610730575b5015610636576040516369d1cb4360e11b8152600481018490525f5160206139735f395f51905f526024820152602081604481305afa801561062b576107129186916105fc5750339061294d565b156105ed5761072d9291610727913691612778565b90612b5d565b80f35b610749915060203d6020116106705761066281836125ff565b5f6106c4565b50346103b357806003193601126103b35760206040515f5160206139535f395f51905f528152f35b50346103b357806003193601126103b357602060405160028152f35b50346103b3576107a236612586565b60405163bb6b0c3b60e01b8152600481018490525f5160206139735f395f51905f526024820152602081604481305afa90811561062b578591610849575b5015610636576040516369d1cb4360e11b8152600481018490525f5160206139735f395f51905f526024820152602081604481305afa801561062b5761082e9186916105fc5750339061294d565b156105ed5761072d9291610843913691612778565b90612ca1565b610862915060203d6020116106705761066281836125ff565b5f6107e0565b50346103b357806003193601126103b3576040517f00000000000000000000000000000000000000000000000000000000000000006001600160a01b03168152602090f35b50346103b3576108bc366125b9565b90825260066020526040822090825260205260408120604051908160208254918281520190819285526020852090855b81811061094c57505050826109029103836125ff565b604051928392602084019060208552518091526040840192915b81811061092a575050500390f35b82516001600160a01b031684528594506020938401939092019160010161091c565b82546001600160a01b03168452602090930192600192830192016108ec565b50346103b35760209061097d366125b9565b90825260018352604082209082528252604060018060a01b0391205416604051908152f35b50346103b35760603660031901126103b3576109bc61250a565b6024356001600160401b038111610a64576109db9036906004016125cf565b9190604435918215158303610a60576109f4338261294d565b15610a51576001600160a01b031692610a249291610a1e91610a1891369190612886565b84613088565b82612e30565b7f2e8c8670ecb11a4402ca2675d9305ce3a10d15d46e80a85f8dfbf50305a30d566020604051838152a280f35b63b3545ef360e01b8552600485fd5b8480fd5b8280fd5b50346103b357610a77366125b9565b908252600560205260408220908252602052604081208054610a98816126b1565b90610aa660405192836125ff565b80825260208201809385526020852085915b838310610b2457868587604051928392602084019060208552518091526040840160408260051b8601019392905b828210610af557505050500390f35b91936001919395506020610b148192603f198a820301865288516124e6565b9601920192018594939192610ae6565b600160208192610b33856127e6565b815201920192019190610ab8565b50346103b35760203660031901126103b3576004356001600160401b038111610bbc57602091610bb1610b7a6029933690600401612559565b60409491945193818592888401976839b09d3937bab7321d60b91b895285850137820190838201520301601f1981018352826125ff565b519020604051908152f35b5080fd5b50346103b357806003193601126103b35760405180916020600d54928381520191600d82527fd7b6990105719101dabeb77144f2a3385c8033acd3af97e9423a695e81ad1eb5915b818110610c2b5761042085610c1f818703826125ff565b60405191829182612520565b8254845260209093019260019283019201610c08565b50346103b357806003193601126103b357602060405160058152f35b50346103b35760203660031901126103b357610c7761250a565b60405163263abc4760e21b81526001600160a01b0390911660048201525f5160206139535f395f51905f526024820152602081604481305afa9081156104475760209291610ccb575b506040519015158152f35b610ce29150823d84116106705761066281836125ff565b5f610cc0565b50346103b357806003193601126103b357602060405160048152f35b50346103b35760203660031901126103b3576004356001600160401b038111610bbc57806004016101806003198336030112610a64576024820190610d52610d4b836128d2565b339061294d565b156105ed576001600160a01b03610d68836128d2565b161561160b57803592610d7a836128d2565b60405163170da40760e21b81525f5160206139735f395f51905f5260048201526020816024817f00000000000000000000000000000000000000000000000000000000000000006001600160a01b03165afa9081156116005787916115e1575b50156115d2578486526001602052604086205f5160206139735f395f51905f528752602052604086209060018060a01b03166bffffffffffffffffffffffff60a01b825416179055838552600e60205260ff6040862054161561159b575b8385526009602052604085205f5160206139735f395f51905f52865260205260ff60408620541615611546575b838552600a602052604085205f5160206139735f395f51905f52865260205260408520600260ff19825416179055838552600c60205260016001600160401b03604087205416016001600160401b03811161153257845f5160206138f35f395f51905f5260405f5160206139735f395f51905f5293838a52600c602052818a206001600160401b0382166001600160401b0319825416179055838a52600b602052818a20858b52602052818a206001600160401b0382166001600160401b03198254161790556001600160401b0382519160028352166020820152a3610f575f5160206139135f395f51905f5261315f565b8385526003602052604085205f5160206139135f395f51905f52865260205260448101356040862055610f975f5160206139135f395f51905f5285613628565b610fad5f5160206138335f395f51905f5261315f565b8385526003602052604085205f5160206138335f395f51905f52865260205260648101356040862055610fed5f5160206138335f395f51905f5285613628565b6110035f5160206138b35f395f51905f5261315f565b8385526004602052604085205f5160206138b35f395f51905f528652602052608481013560408620556110435f5160206138b35f395f51905f5285613354565b60a4810161105181846128e6565b9050611426575b50610164906110735f5160206138735f395f51905f5261315f565b8486526004602052604086205f5160206138735f395f51905f52875260205260c481013560408720556110b35f5160206138735f395f51905f5286613354565b6110c160e482013586612de5565b6110d75f5160206138935f395f51905f5261315f565b8486526003602052604086205f5160206138935f395f51905f5287526020524260408720556111135f5160206138935f395f51905f5286613628565b6101048101611122818561291b565b905061140a575b506101248101611139818561291b565b90506113ee575b506101448101611150818561291b565b90506113d2575b500190611164828261291b565b9050611246575b508390507f00000000000000000000000000000000000000000000000000000000000000006001600160a01b0316803b15610bbc5781606491604051928380926309abe27f60e01b82527f281587bb88fdeb6dfd58b1d6ca4fcea730e272e807a0a353912952d047917c4e60048301528860248301523060448301525afa801561044757611231575b506001600160a01b039161120891506128d2565b16907fe110bcd5304b6c905d7b8b370a233a26adc95e4296d136d3c34e3cdb29feddc28380a380f35b8161123b916125ff565b610a6457825f6111f4565b61125a916112539161291b565b3691612778565b6112705f5160206138535f395f51905f5261315f565b82845283602052604084205f5160206138535f395f51905f52855260205260408420908051906001600160401b0382116113be5781906112b084546127ae565b601f811161136e575b50602090601f831160011461130c578792611301575b50508160011b915f199060031b1c19161790555b6112fa5f5160206138535f395f51905f52836131ea565b5f8061116b565b015190505f806112cf565b8488528188209250601f198416885b818110611356575090846001959493921061133e575b505050811b0190556112e3565b01515f1960f88460031b161c191690555f8080611331565b9293602060018192878601518155019501930161131b565b90915083875260208720601f840160051c810191602085106113b4575b90601f859493920160051c01905b8181106113a657506112b9565b888155849350600101611399565b909150819061138b565b634e487b7160e01b86526041600452602486fd5b6113e26112536113e8928661291b565b86612ca1565b5f611157565b6113fe611253611404928661291b565b86612b5d565b5f611140565b61141a611253611420928661291b565b866129f4565b5f611129565b61143761143e9184959396946128e6565b3691612886565b926114555f5160206137d35f395f51905f5261315f565b8286526007602052604086205f5160206137d35f395f51905f5287526020526040862080549087815581611514575b5050855b84518110156114ee578387526007602052604087205f5160206137d35f395f51905f5288526020526040872085518210156114da57906114d460019260208360051b8901015190613061565b01611488565b634e487b7160e01b88526032600452602488fd5b50919361016491935061150e5f5160206137d35f395f51905f52866134be565b90611058565b875260208720908101905b818110156114845787815560010161151f565b634e487b7160e01b86526011600452602486fd5b83855260086020526115685f5160206139735f395f51905f5260408720613061565b8385526009602052604085205f5160206139735f395f51905f52865260205260408520600160ff19825416179055610e65565b838552600e60205260408520805460ff191660011790556115bb84613006565b835f5160206137b35f395f51905f528680a2610e38565b632263bf1f60e21b8652600486fd5b6115fa915060203d6020116106705761066281836125ff565b5f610dda565b6040513d89823e3d90fd5b633d2aec7160e21b8452600484fd5b50346103b35760403660031901126103b35761163461250a565b6024356001600160401b038111610a64576116539036906004016125cf565b61165d338461294d565b156105ed5761072d9291611672913691612886565b906001600160a01b0316613088565b50346103b35760ff6040602092611697366125b9565b9082526009855282822090825284522054166040519015158152f35b50346103b357806003193601126103b35760206040515f5160206139735f395f51905f528152f35b50346103b357806003193601126103b35760206040515f5160206138335f395f51905f528152f35b50346103b357806003193601126103b35760206040517fcedb18faaf1bf0838e08e6042e662614086879cd24c7c99caa385fed122d32c58152f35b50346103b357806003193601126103b357602060405160018152f35b50346103b357806003193601126103b35760206040515f5160206138d35f395f51905f528152f35b50346103b35760ff6040602092611798366125b9565b9082526002855282822090825284522054166040519015158152f35b50346103b357806003193601126103b357602060405160038152f35b50346103b35760203660031901126103b357604051633d356c9360e11b815260048035908201525f5160206138335f395f51905f52602482015290602082604481305afa9081156103a7579061037057602090604051908152f35b50346103b35760203660031901126103b3576001600160401b0360406020926004358152600c8452205416604051908152f35b50346103b357806003193601126103b357602060405160068152f35b50346103b357806003193601126103b35760206040517f281587bb88fdeb6dfd58b1d6ca4fcea730e272e807a0a353912952d047917c4e8152f35b50346103b3576001600160401b0360406020926118d1366125b9565b908252600b85528282209082528452205416604051908152f35b50346103b35760203660031901126103b357604051633d356c9360e11b815260048035908201525f5160206139135f395f51905f52602482015290602082604481305afa9081156103a7579061037057602090604051908152f35b50346103b35760403660031901126103b35761196061250a565b602435908115158203610a6457611977338261294d565b1561198f5761072d91906001600160a01b0316612e30565b63b3545ef360e01b8352600483fd5b50346103b35760203660031901126103b357604051630df675ff60e21b815260048035908201525f5160206138735f395f51905f52602482015290602082604481305afa9081156103a7579061037057602090604051908152f35b50346103b35760203660031901126103b357604051630df675ff60e21b815260048035908201527fcedb18faaf1bf0838e08e6042e662614086879cd24c7c99caa385fed122d32c5602482015290602082604481305afa9081156103a7579061037057602090604051908152f35b50346103b35760203660031901126103b357604051633d356c9360e11b815260048035908201525f5160206138935f395f51905f52602482015290602082604481305afa9081156103a7579061037057602090604051908152f35b50346103b3576040602091611ad6366125b9565b9082526003845282822090825283522054604051908152f35b50346103b357806003193601126103b35760206040515f5160206138b35f395f51905f528152f35b50346103b357806003193601126103b35760206040515f5160206137d35f395f51905f528152f35b50346103b35760203660031901126103b3576040516369d1cb4360e11b815260048035908201525f5160206139735f395f51905f526024820152602081604481305afa9081156104475760209291611ba5575b506040516001600160a01b039091168152f35b611bbc9150823d84116106245761061681836125ff565b5f611b92565b503461039b57611bd1366125b9565b60405163bb6b0c3b60e01b8152600481018390525f5160206139735f395f51905f526024820152602081604481305afa908115611d36575f91611d5f575b5015611d50576040516369d1cb4360e11b8152600481018390525f5160206139735f395f51905f526024820152602081604481305afa8015611d3657611c5d915f916105fc5750339061294d565b15611d4157611c6c8183612de5565b7f00000000000000000000000000000000000000000000000000000000000000006001600160a01b0316803b1561039b575f606491604051928380926309abe27f60e01b82527f281587bb88fdeb6dfd58b1d6ca4fcea730e272e807a0a353912952d047917c4e60048301528760248301523060448301525afa8015611d3657611d20575b5060207fe7387dac8be34cbebb5ab9e0158f88510f74862a35935c47ab477749e3df33c791604051908152a280f35b611d2d9193505f906125ff565b5f916020611cf1565b6040513d5f823e3d90fd5b63b3545ef360e01b5f5260045ffd5b63ffc9e8c560e01b5f5260045ffd5b611d78915060203d6020116106705761066281836125ff565b5f611c0f565b3461039b57602036600319011261039b576040516331477b9b60e01b815260048035908201525f5160206137f35f395f51905f5260248201525f81604481305afa8015611d3657610420915f91611de5575b506040519182916020835260208301906124e6565b611df991503d805f833e61043881836125ff565b82611dd0565b3461039b575f36600319011261039b576020600d54604051908152f35b3461039b575f36600319011261039b5760206040515f5160206138135f395f51905f528152f35b3461039b575f36600319011261039b576040517f00000000000000000000000000000000000000000000000000000000000000006001600160a01b03168152602090f35b3461039b57602036600319011261039b576040516331477b9b60e01b815260048035908201525f5160206138535f395f51905f5260248201525f81604481305afa8015611d3657610420915f91611de557506040519182916020835260208301906124e6565b3461039b575f36600319011261039b5760206040515f5160206137f35f395f51905f528152f35b3461039b57602036600319011261039b57604051632041c21f60e11b815260048035908201525f5160206137d35f395f51905f5260248201525f81604481305afa8015611d3657610420915f91611f73575b5060405191829182612520565b611f8f91503d805f833e611f8781836125ff565b8101906126c8565b82611f66565b3461039b575f36600319011261039b5760206040517f0a093caf6af85ff58909af7ec5bc5bca8908fa3f4c103433b04f95c53df0248b8152f35b3461039b57611fdd366125b9565b905f52600a60205260405f20905f52602052602060ff60405f205416604051908152f35b3461039b5761200f366125b9565b905f52600760205260405f20905f5260205260405f206040519081602082549182815201915f5260205f20905f5b8181106120545761042085610c1f818703826125ff565b825484526020909301926001928301920161203d565b3461039b575f36600319011261039b5760206040515f5160206138935f395f51905f528152f35b3461039b575f36600319011261039b5760206040515f5160206139135f395f51905f528152f35b3461039b576120c6366125b9565b905f52600460205260405f20905f52602052602060405f2054604051908152f35b3461039b576120f5366125b9565b905f525f60205260405f20905f5260205261042061211560405f206127e6565b6040519182916020835260208301906124e6565b3461039b57602036600319011261039b576004355f52600860205260405f206040519081602082549182815201915f5260205f20905f5b8181106121775761042085610c1f818703826125ff565b8254845260209093019260019283019201612160565b3461039b5761219b36612586565b60405163bb6b0c3b60e01b8152600481018490525f5160206139735f395f51905f526024820152919291602081604481305afa908115611d36575f91612265575b5015611d50576040516369d1cb4360e11b8152600481018390525f5160206139735f395f51905f526024820152602081604481305afa8015611d365761222a915f916122465750339061294d565b15611d41576122449261223e913691612778565b906129f4565b005b61225f915060203d6020116106245761061681836125ff565b8561050d565b61227e915060203d6020116106705761066281836125ff565b846121dc565b3461039b57602036600319011261039b5761229d61250a565b604051632041c21f60e11b81526001600160a01b0390911660048201525f5160206137935f395f51905f5260248201525f81604481305afa8015611d3657610420915f91611f73575060405191829182612520565b3461039b57602036600319011261039b57604051630df675ff60e21b815260048035908201525f5160206139335f395f51905f526024820152602081604481305afa8015611d36575f9061037057602090604051908152f35b3461039b575f36600319011261039b5760206040515f5160206139335f395f51905f528152f35b3461039b575f36600319011261039b57602060405160078152f35b3461039b575f36600319011261039b5760206040515f5160206137935f395f51905f528152f35b3461039b57602036600319011261039b57604051630df675ff60e21b815260048035908201525f5160206138b35f395f51905f526024820152602081604481305afa8015611d36575f9061037057602090604051908152f35b3461039b575f36600319011261039b5760206040515f5160206138735f395f51905f528152f35b3461039b575f36600319011261039b5760206040515f5160206138535f395f51905f528152f35b3461039b57602036600319011261039b576040516331477b9b60e01b815260048035908201525f5160206138d35f395f51905f5260248201525f81604481305afa8015611d3657610420915f91611de557506040519182916020835260208301906124e6565b3461039b575f36600319011261039b57805f5160206139935f395f51905f5260209252f35b805180835260209291819084018484015e5f828201840152601f01601f1916010190565b600435906001600160a01b038216820361039b57565b60206040818301928281528451809452019201905f5b8181106125435750505090565b8251845260209384019390920191600101612536565b9181601f8401121561039b578235916001600160401b03831161039b576020838186019501011161039b57565b90604060031983011261039b5760043591602435906001600160401b03821161039b576125b591600401612559565b9091565b604090600319011261039b576004359060243590565b9181601f8401121561039b578235916001600160401b03831161039b576020808501948460051b01011161039b57565b90601f801991011681019081106001600160401b0382111761262057604052565b634e487b7160e01b5f52604160045260245ffd5b6001600160401b03811161262057601f01601f191660200190565b60208183031261039b578051906001600160401b03821161039b570181601f8201121561039b5780519061268282612634565b9261269060405194856125ff565b8284526020838301011161039b57815f9260208093018386015e8301015290565b6001600160401b0381116126205760051b60200190565b60208183031261039b578051906001600160401b03821161039b57019080601f8301121561039b5781516126fb816126b1565b9261270960405194856125ff565b81845260208085019260051b82010192831161039b57602001905b8282106127315750505090565b8151815260209182019101612724565b9081602091031261039b5751801515810361039b5790565b9081602091031261039b57516001600160a01b038116810361039b5790565b92919261278482612634565b9161279260405193846125ff565b82948184528183011161039b578281602093845f960137010152565b90600182811c921680156127dc575b60208310146127c857565b634e487b7160e01b5f52602260045260245ffd5b91607f16916127bd565b9060405191825f8254926127f9846127ae565b80845293600181169081156128645750600114612820575b5061281e925003836125ff565b565b90505f9291925260205f20905f915b81831061284857505090602061281e928201015f612811565b602091935080600191548385890101520191019091849261282f565b90506020925061281e94915060ff191682840152151560051b8201015f612811565b929190612892816126b1565b936128a060405195866125ff565b602085838152019160051b810192831161039b57905b8282106128c257505050565b81358152602091820191016128b6565b356001600160a01b038116810361039b5790565b903590601e198136030182121561039b57018035906001600160401b03821161039b57602001918160051b3603831361039b57565b903590601e198136030182121561039b57018035906001600160401b03821161039b5760200191813603831361039b57565b90813b156129ee575f91829160405160208101916317aa5fb760e11b835260018060a01b03166024820152602481526129876044826125ff565b51915afa3d156129e7573d61299b81612634565b906129a960405192836125ff565b81523d5f602083013e5b816129d9575b816129c2575090565b6129d6915060208082518301019101612741565b90565b9050602081511015906129b9565b60606129b3565b50505f90565b919091612a0d5f5160206139935f395f51905f5261315f565b805f525f60205260405f205f5160206139935f395f51905f525f5260205260405f2083516001600160401b03811161262057612a4982546127ae565b601f8111612b18575b506020601f8211600114612aa25790805f5160206139935f395f51905f5294939261281e96975f92612a97575b50508160011b915f199060031b1c19161790556131ea565b015190505f80612a7f565b601f19821695835f52815f20965f5b818110612b0057509660019284925f5160206139935f395f51905f5297969561281e999a10612ae8575b505050811b0190556131ea565b01515f1960f88460031b161c191690555f8080612adb565b83830151895560019098019760209384019301612ab1565b825f5260205f20601f830160051c81019160208410612b53575b601f0160051c01905b818110612b485750612a52565b5f8155600101612b3b565b9091508190612b32565b919091612b765f5160206137f35f395f51905f5261315f565b805f525f60205260405f205f5160206137f35f395f51905f525f5260205260405f2083516001600160401b03811161262057612bb282546127ae565b601f8111612c5c575b506020601f8211600114612bff5790805f5160206137f35f395f51905f5294939261281e96975f92612a975750508160011b915f199060031b1c19161790556131ea565b601f19821695835f52815f20965f5b818110612c4457509660019284925f5160206137f35f395f51905f5297969561281e999a10612ae857505050811b0190556131ea565b83830151895560019098019760209384019301612c0e565b825f5260205f20601f830160051c81019160208410612c97575b601f0160051c01905b818110612c8c5750612bbb565b5f8155600101612c7f565b9091508190612c76565b919091612cba5f5160206138d35f395f51905f5261315f565b805f525f60205260405f205f5160206138d35f395f51905f525f5260205260405f2083516001600160401b03811161262057612cf682546127ae565b601f8111612da0575b506020601f8211600114612d435790805f5160206138d35f395f51905f5294939261281e96975f92612a975750508160011b915f199060031b1c19161790556131ea565b601f19821695835f52815f20965f5b818110612d8857509660019284925f5160206138d35f395f51905f5297969561281e999a10612ae857505050811b0190556131ea565b83830151895560019098019760209384019301612d52565b825f5260205f20601f830160051c81019160208410612ddb575b601f0160051c01905b818110612dd05750612cff565b5f8155600101612dc3565b9091508190612dba565b7fcedb18faaf1bf0838e08e6042e662614086879cd24c7c99caa385fed122d32c59061281e92612e148361315f565b815f52600460205260405f20835f5260205260405f2055613354565b90612e475f5160206139535f395f51905f5261315f565b815f52600260205260405f205f5160206139535f395f51905f525f5260205260405f209060ff8019835416911515161790555f5160206139535f395f51905f5290805f52600e60205260ff60405f20541615612fcf575b805f52600960205260405f20825f5260205260ff60405f20541615612f94575b805f52600a60205260405f20825f5260205260405f20600360ff19825416179055805f52600c60205260016001600160401b0360405f205416016001600160401b038111612f805760405f5160206138f35f395f51905f5291835f52600c602052815f206001600160401b0382166001600160401b0319825416179055835f52600b602052815f20855f52602052815f206001600160401b0382166001600160401b03198254161790556001600160401b0382519160038352166020820152a3565b634e487b7160e01b5f52601160045260245ffd5b805f526008602052612fa98260405f20613061565b805f52600960205260405f20825f5260205260405f20600160ff19825416179055612ebe565b805f52600e60205260405f20600160ff19825416179055612fef81613006565b805f5160206137b35f395f51905f525f80a2612e9e565b600d54600160401b811015612620576001810180600d5581101561304d57600d5f527fd7b6990105719101dabeb77144f2a3385c8033acd3af97e9423a695e81ad1eb50155565b634e487b7160e01b5f52603260045260245ffd5b805490600160401b821015612620576001820180825582101561304d575f5260205f200155565b9190916130a15f5160206137935f395f51905f5261315f565b805f52600760205260405f205f5160206137935f395f51905f525f5260205260405f208054905f815581613141575b50505f5b835181101561312657815f52600760205260405f205f5160206137935f395f51905f525f5260205260405f2090845181101561304d5761312060019260208360051b8801015190613061565b016130d4565b5061281e9192505f5160206137935f395f51905f52906134be565b5f5260205f20908101905b818110156130d0575f815560010161314c565b60405163170da40760e21b815260048101919091526020816024817f00000000000000000000000000000000000000000000000000000000000000006001600160a01b03165afa908115611d36575f916131cb575b50156131bc57565b632263bf1f60e21b5f5260045ffd5b6131e4915060203d6020116106705761066281836125ff565b5f6131b4565b805f52600e60205260ff60405f2054161561331d575b805f52600960205260405f20825f5260205260ff60405f205416156132e2575b805f52600a60205260405f20825f5260205260405f20600160ff19825416179055805f52600c60205260016001600160401b0360405f205416016001600160401b038111612f805760405f5160206138f35f395f51905f5291835f52600c602052815f206001600160401b0382166001600160401b0319825416179055835f52600b602052815f20855f52602052815f206001600160401b0382166001600160401b03198254161790556001600160401b0382519160018352166020820152a3565b805f5260086020526132f78260405f20613061565b805f52600960205260405f20825f5260205260405f20600160ff19825416179055613220565b805f52600e60205260405f20600160ff1982541617905561333d81613006565b805f5160206137b35f395f51905f525f80a2613200565b805f52600e60205260ff60405f20541615613487575b805f52600960205260405f20825f5260205260ff60405f2054161561344c575b805f52600a60205260405f20825f5260205260405f20600560ff19825416179055805f52600c60205260016001600160401b0360405f205416016001600160401b038111612f805760405f5160206138f35f395f51905f5291835f52600c602052815f206001600160401b0382166001600160401b0319825416179055835f52600b602052815f20855f52602052815f206001600160401b0382166001600160401b03198254161790556001600160401b0382519160058352166020820152a3565b805f5260086020526134618260405f20613061565b805f52600960205260405f20825f5260205260405f20600160ff1982541617905561338a565b805f52600e60205260405f20600160ff198254161790556134a781613006565b805f5160206137b35f395f51905f525f80a261336a565b805f52600e60205260ff60405f205416156135f1575b805f52600960205260405f20825f5260205260ff60405f205416156135b6575b805f52600a60205260405f20825f5260205260405f20600860ff19825416179055805f52600c60205260016001600160401b0360405f205416016001600160401b038111612f805760405f5160206138f35f395f51905f5291835f52600c602052815f206001600160401b0382166001600160401b0319825416179055835f52600b602052815f20855f52602052815f206001600160401b0382166001600160401b03198254161790556001600160401b0382519160088352166020820152a3565b805f5260086020526135cb8260405f20613061565b805f52600960205260405f20825f5260205260405f20600160ff198254161790556134f4565b805f52600e60205260405f20600160ff1982541617905561361181613006565b805f5160206137b35f395f51905f525f80a26134d4565b805f52600e60205260ff60405f2054161561375b575b805f52600960205260405f20825f5260205260ff60405f20541615613720575b805f52600a60205260405f20825f5260205260405f20600460ff19825416179055805f52600c60205260016001600160401b0360405f205416016001600160401b038111612f805760405f5160206138f35f395f51905f5291835f52600c602052815f206001600160401b0382166001600160401b0319825416179055835f52600b602052815f20855f52602052815f206001600160401b0382166001600160401b03198254161790556001600160401b0382519160048352166020820152a3565b805f5260086020526137358260405f20613061565b805f52600960205260405f20825f5260205260405f20600160ff1982541617905561365e565b805f52600e60205260405f20600160ff1982541617905561377b81613006565b805f5160206137b35f395f51905f525f80a261363e56fef4fb0792a6ddcfab734dec06731eb8749c30e325a348844fc359e200b6a75b1c34f1cb4778d9578e1af878b07d3ae7e9f2f32fafcaa3096fe48153670a71bfaf53dfd24377939e89a626dc61c5a37ebfdaf3f0ed448a4a5da753cafe05638c089a91b66aa97e6c0f1831e9b379ecea81a1b4c8956b8c45d3b1a1107b39808e431f6b5c92f11d418c2ed2b2fcb985077a715bafa6c55a66310122255054cb7f543a7259b22422608a7552616285e21d0cde6337b20445b38e286ebc9d5358b52e898cc3548347493fae67728f084b8f1fa93f530cdff4d4e521db3665d0150e1788e94ac17dd709171964cda79d07d8e32be9c2b743970d84aa92a173f20e45a095db22303fd5ae29c4446eaf37b555c427b1d79b2729b36bec3932ff7fd87f02b5b7fdeab3b45785910fc613026dae52a9939b9e0ed430fb0d4096a8b141243f20173a3e65424cfcffd3d9c56a6033cc3542634c1bc1517165080cc39b4236df5167ea251eeaf052f4c7bd769efb5b17e6ba98908050b9929a0bd192b57274fbd64ffd6f58f2c848a7e5bd1f1f0ae77823f9ae773e4a981874fdad1ab58c5f7ee7ed0b367f80e2e4289c8c2f125cfbaede7175a21ff959cff1f2b2206d9e6ef617e7af9195167a7d25021113380a5929bcf89456e48efdef2b7e264260599a0810c72a82595a7b5308a947d902eb0b8d1aa6f516b975d88a8f7a7129d6d71c5577d55dadd858d436db0940c507d4ca0c20f62a31f348a376954f46ea10d5801ba2646970667358221220933e7d2f652732c51c1b22f806d124518e0e7780ee8b05a7e1ff5db2517223fd64736f6c634300081c0033","linkReferences":{}},"methodIdentifiers":{"CLASS_FUND()":"47f4dc1a","CLASS_ROUND()":"886c7669","DT_ADDRESS_ARR_PUB()":"213aaad7","DT_ADDRESS_PUB()":"ece6bebc","DT_BOOL_PUB()":"93cbc37d","DT_BYTES32_ARR_PUB()":"f98eed69","DT_BYTES32_PUB()":"c3174629","DT_STRING_ARR_PUB()":"8e101369","DT_STRING_PUB()":"a954aea1","DT_UINT256_PUB()":"be78c068","ONTOLOGY()":"e63cdb42","SA_FUND_ACCEPTED_KINDS()":"20d1b3a3","SA_FUND_OPEN_FOR_CALLS()":"ee018a78","SA_ROUND_AWARDS_ROOT()":"26d2e8fa","SA_ROUND_DEADLINE()":"3a0c0c12","SA_ROUND_DECISION_DATE()":"b260c4f8","SA_ROUND_DISPUTE_UNTIL()":"611f6c9c","SA_ROUND_FUND_AGENT()":"b3e40f7d","SA_ROUND_MANDATE()":"0d57f6e4","SA_ROUND_MILESTONE_TEMPLATE()":"4d67c729","SA_ROUND_OPENED_AT()":"3d5696f2","SA_ROUND_REPORTING_CADENCE()":"79243c31","SA_ROUND_REQUIRED_CREDENTIALS()":"6fb37416","SA_ROUND_SLUG()":"111e0fee","SA_ROUND_STATUS()":"ac01f0e1","SA_ROUND_VALIDATOR_REQUIREMENTS()":"9a389caa","SA_ROUND_VISIBILITY()":"1899ebe4","SHAPES()":"55c964dd","allSubjects()":"c3a6123d","datatypeOf(bytes32,bytes32)":"42921cf3","getAddress(bytes32,bytes32)":"d3a39686","getAddressArr(bytes32,bytes32)":"e4281bc3","getBool(bytes32,bytes32)":"98eaf11c","getBytes32(bytes32,bytes32)":"37d9d7fc","getBytes32Arr(bytes32,bytes32)":"4083843e","getFundAcceptedKinds(address)":"3001aaad","getRoundAwardsRoot(bytes32)":"2ce04655","getRoundDeadline(bytes32)":"87533f3a","getRoundDecisionDate(bytes32)":"8ebdd6d2","getRoundDisputeUntil(bytes32)":"fd71feef","getRoundFundAgent(bytes32)":"695eea29","getRoundMandate(bytes32)":"f9f67719","getRoundMilestoneTemplate(bytes32)":"6526e9af","getRoundOpenedAt(bytes32)":"7d7f7596","getRoundReportingCadence(bytes32)":"1b9b8a7d","getRoundRequiredCredentials(bytes32)":"4837f591","getRoundSlug(bytes32)":"51c66f72","getRoundStatus(bytes32)":"7dfd93fe","getRoundValidatorRequirements(bytes32)":"0fb66f98","getRoundVisibility(bytes32)":"7f2c68d0","getString(bytes32,bytes32)":"31477b9b","getStringArr(bytes32,bytes32)":"cb954f30","getUint(bytes32,bytes32)":"7a6ad926","isFundOpenForCalls(address)":"bea06113","isSet(bytes32,bytes32)":"bb6b0c3b","openRound((bytes32,address,uint256,uint256,bytes32,bytes32[],bytes32,bytes32,string,string,string,string))":"bd0ccaef","predicatesOf(bytes32)":"30547181","registerFund(address,bytes32[],bool)":"d223042c","roundSubject(string)":"c6fbc3b3","setFundAcceptedKinds(address,bytes32[])":"bbb922f4","setFundOpenForCalls(address,bool)":"85ed27c6","setRoundAwardsRoot(bytes32,bytes32,uint256)":"f4da6888","setRoundMandate(bytes32,string)":"301d234d","setRoundMilestoneTemplate(bytes32,string)":"f207ad9c","setRoundStatus(bytes32,bytes32)":"687837bf","setRoundValidatorRequirements(bytes32,string)":"e7d3fd97","subjectCount()":"639a2e10","subjectVersion(bytes32)":"8e21caca","updatedAt(bytes32,bytes32)":"880eadce"},"id":93}