{"abi":[{"type":"constructor","inputs":[{"name":"ontologyRegistry","type":"address","internalType":"address"},{"name":"shapes","type":"address","internalType":"address"}],"stateMutability":"nonpayable"},{"type":"function","name":"CLASS_FUND","inputs":[],"outputs":[{"name":"","type":"bytes32","internalType":"bytes32"}],"stateMutability":"view"},{"type":"function","name":"CLASS_ROUND","inputs":[],"outputs":[{"name":"","type":"bytes32","internalType":"bytes32"}],"stateMutability":"view"},{"type":"function","name":"DT_ADDRESS_ARR_PUB","inputs":[],"outputs":[{"name":"","type":"uint8","internalType":"uint8"}],"stateMutability":"pure"},{"type":"function","name":"DT_ADDRESS_PUB","inputs":[],"outputs":[{"name":"","type":"uint8","internalType":"uint8"}],"stateMutability":"pure"},{"type":"function","name":"DT_BOOL_PUB","inputs":[],"outputs":[{"name":"","type":"uint8","internalType":"uint8"}],"stateMutability":"pure"},{"type":"function","name":"DT_BYTES32_ARR_PUB","inputs":[],"outputs":[{"name":"","type":"uint8","internalType":"uint8"}],"stateMutability":"pure"},{"type":"function","name":"DT_BYTES32_PUB","inputs":[],"outputs":[{"name":"","type":"uint8","internalType":"uint8"}],"stateMutability":"pure"},{"type":"function","name":"DT_STRING_ARR_PUB","inputs":[],"outputs":[{"name":"","type":"uint8","internalType":"uint8"}],"stateMutability":"pure"},{"type":"function","name":"DT_STRING_PUB","inputs":[],"outputs":[{"name":"","type":"uint8","internalType":"uint8"}],"stateMutability":"pure"},{"type":"function","name":"DT_UINT256_PUB","inputs":[],"outputs":[{"name":"","type":"uint8","internalType":"uint8"}],"stateMutability":"pure"},{"type":"function","name":"ONTOLOGY","inputs":[],"outputs":[{"name":"","type":"address","internalType":"contract OntologyTermRegistry"}],"stateMutability":"view"},{"type":"function","name":"SA_FUND_ACCEPTED_KINDS","inputs":[],"outputs":[{"name":"","type":"bytes32","internalType":"bytes32"}],"stateMutability":"view"},{"type":"function","name":"SA_FUND_OPEN_FOR_CALLS","inputs":[],"outputs":[{"name":"","type":"bytes32","internalType":"bytes32"}],"stateMutability":"view"},{"type":"function","name":"SA_ROUND_AWARDS_ROOT","inputs":[],"outputs":[{"name":"","type":"bytes32","internalType":"bytes32"}],"stateMutability":"view"},{"type":"function","name":"SA_ROUND_DEADLINE","inputs":[],"outputs":[{"name":"","type":"bytes32","internalType":"bytes32"}],"stateMutability":"view"},{"type":"function","name":"SA_ROUND_DECISION_DATE","inputs":[],"outputs":[{"name":"","type":"bytes32","internalType":"bytes32"}],"stateMutability":"view"},{"type":"function","name":"SA_ROUND_DISPUTE_UNTIL","inputs":[],"outputs":[{"name":"","type":"bytes32","internalType":"bytes32"}],"stateMutability":"view"},{"type":"function","name":"SA_ROUND_FUND_AGENT","inputs":[],"outputs":[{"name":"","type":"bytes32","internalType":"bytes32"}],"stateMutability":"view"},{"type":"function","name":"SA_ROUND_MANDATE","inputs":[],"outputs":[{"name":"","type":"bytes32","internalType":"bytes32"}],"stateMutability":"view"},{"type":"function","name":"SA_ROUND_MILESTONE_TEMPLATE","inputs":[],"outputs":[{"name":"","type":"bytes32","internalType":"bytes32"}],"stateMutability":"view"},{"type":"function","name":"SA_ROUND_OPENED_AT","inputs":[],"outputs":[{"name":"","type":"bytes32","internalType":"bytes32"}],"stateMutability":"view"},{"type":"function","name":"SA_ROUND_POOL_AGENT","inputs":[],"outputs":[{"name":"","type":"bytes32","internalType":"bytes32"}],"stateMutability":"view"},{"type":"function","name":"SA_ROUND_REPORTING_CADENCE","inputs":[],"outputs":[{"name":"","type":"bytes32","internalType":"bytes32"}],"stateMutability":"view"},{"type":"function","name":"SA_ROUND_REQUIRED_CREDENTIALS","inputs":[],"outputs":[{"name":"","type":"bytes32","internalType":"bytes32"}],"stateMutability":"view"},{"type":"function","name":"SA_ROUND_SLUG","inputs":[],"outputs":[{"name":"","type":"bytes32","internalType":"bytes32"}],"stateMutability":"view"},{"type":"function","name":"SA_ROUND_STATUS","inputs":[],"outputs":[{"name":"","type":"bytes32","internalType":"bytes32"}],"stateMutability":"view"},{"type":"function","name":"SA_ROUND_VALIDATOR_REQUIREMENTS","inputs":[],"outputs":[{"name":"","type":"bytes32","internalType":"bytes32"}],"stateMutability":"view"},{"type":"function","name":"SA_ROUND_VISIBILITY","inputs":[],"outputs":[{"name":"","type":"bytes32","internalType":"bytes32"}],"stateMutability":"view"},{"type":"function","name":"SHAPES","inputs":[],"outputs":[{"name":"","type":"address","internalType":"contract ShapeRegistry"}],"stateMutability":"view"},{"type":"function","name":"allSubjects","inputs":[],"outputs":[{"name":"","type":"bytes32[]","internalType":"bytes32[]"}],"stateMutability":"view"},{"type":"function","name":"datatypeOf","inputs":[{"name":"subject","type":"bytes32","internalType":"bytes32"},{"name":"predicate","type":"bytes32","internalType":"bytes32"}],"outputs":[{"name":"","type":"uint8","internalType":"uint8"}],"stateMutability":"view"},{"type":"function","name":"getAddress","inputs":[{"name":"subject","type":"bytes32","internalType":"bytes32"},{"name":"predicate","type":"bytes32","internalType":"bytes32"}],"outputs":[{"name":"","type":"address","internalType":"address"}],"stateMutability":"view"},{"type":"function","name":"getAddressArr","inputs":[{"name":"subject","type":"bytes32","internalType":"bytes32"},{"name":"predicate","type":"bytes32","internalType":"bytes32"}],"outputs":[{"name":"","type":"address[]","internalType":"address[]"}],"stateMutability":"view"},{"type":"function","name":"getBool","inputs":[{"name":"subject","type":"bytes32","internalType":"bytes32"},{"name":"predicate","type":"bytes32","internalType":"bytes32"}],"outputs":[{"name":"","type":"bool","internalType":"bool"}],"stateMutability":"view"},{"type":"function","name":"getBytes32","inputs":[{"name":"subject","type":"bytes32","internalType":"bytes32"},{"name":"predicate","type":"bytes32","internalType":"bytes32"}],"outputs":[{"name":"","type":"bytes32","internalType":"bytes32"}],"stateMutability":"view"},{"type":"function","name":"getBytes32Arr","inputs":[{"name":"subject","type":"bytes32","internalType":"bytes32"},{"name":"predicate","type":"bytes32","internalType":"bytes32"}],"outputs":[{"name":"","type":"bytes32[]","internalType":"bytes32[]"}],"stateMutability":"view"},{"type":"function","name":"getFundAcceptedKinds","inputs":[{"name":"fundAgent","type":"address","internalType":"address"}],"outputs":[{"name":"","type":"bytes32[]","internalType":"bytes32[]"}],"stateMutability":"view"},{"type":"function","name":"getRoundAwardsRoot","inputs":[{"name":"round","type":"bytes32","internalType":"bytes32"}],"outputs":[{"name":"","type":"bytes32","internalType":"bytes32"}],"stateMutability":"view"},{"type":"function","name":"getRoundDeadline","inputs":[{"name":"round","type":"bytes32","internalType":"bytes32"}],"outputs":[{"name":"","type":"uint256","internalType":"uint256"}],"stateMutability":"view"},{"type":"function","name":"getRoundDecisionDate","inputs":[{"name":"round","type":"bytes32","internalType":"bytes32"}],"outputs":[{"name":"","type":"uint256","internalType":"uint256"}],"stateMutability":"view"},{"type":"function","name":"getRoundDisputeUntil","inputs":[{"name":"round","type":"bytes32","internalType":"bytes32"}],"outputs":[{"name":"","type":"uint256","internalType":"uint256"}],"stateMutability":"view"},{"type":"function","name":"getRoundFundAgent","inputs":[{"name":"round","type":"bytes32","internalType":"bytes32"}],"outputs":[{"name":"","type":"address","internalType":"address"}],"stateMutability":"view"},{"type":"function","name":"getRoundMandate","inputs":[{"name":"round","type":"bytes32","internalType":"bytes32"}],"outputs":[{"name":"","type":"string","internalType":"string"}],"stateMutability":"view"},{"type":"function","name":"getRoundMilestoneTemplate","inputs":[{"name":"round","type":"bytes32","internalType":"bytes32"}],"outputs":[{"name":"","type":"string","internalType":"string"}],"stateMutability":"view"},{"type":"function","name":"getRoundOpenedAt","inputs":[{"name":"round","type":"bytes32","internalType":"bytes32"}],"outputs":[{"name":"","type":"uint256","internalType":"uint256"}],"stateMutability":"view"},{"type":"function","name":"getRoundPoolAgent","inputs":[{"name":"round","type":"bytes32","internalType":"bytes32"}],"outputs":[{"name":"","type":"address","internalType":"address"}],"stateMutability":"view"},{"type":"function","name":"getRoundReportingCadence","inputs":[{"name":"round","type":"bytes32","internalType":"bytes32"}],"outputs":[{"name":"","type":"bytes32","internalType":"bytes32"}],"stateMutability":"view"},{"type":"function","name":"getRoundRequiredCredentials","inputs":[{"name":"round","type":"bytes32","internalType":"bytes32"}],"outputs":[{"name":"","type":"bytes32[]","internalType":"bytes32[]"}],"stateMutability":"view"},{"type":"function","name":"getRoundSlug","inputs":[{"name":"round","type":"bytes32","internalType":"bytes32"}],"outputs":[{"name":"","type":"string","internalType":"string"}],"stateMutability":"view"},{"type":"function","name":"getRoundStatus","inputs":[{"name":"round","type":"bytes32","internalType":"bytes32"}],"outputs":[{"name":"","type":"bytes32","internalType":"bytes32"}],"stateMutability":"view"},{"type":"function","name":"getRoundValidatorRequirements","inputs":[{"name":"round","type":"bytes32","internalType":"bytes32"}],"outputs":[{"name":"","type":"string","internalType":"string"}],"stateMutability":"view"},{"type":"function","name":"getRoundVisibility","inputs":[{"name":"round","type":"bytes32","internalType":"bytes32"}],"outputs":[{"name":"","type":"bytes32","internalType":"bytes32"}],"stateMutability":"view"},{"type":"function","name":"getString","inputs":[{"name":"subject","type":"bytes32","internalType":"bytes32"},{"name":"predicate","type":"bytes32","internalType":"bytes32"}],"outputs":[{"name":"","type":"string","internalType":"string"}],"stateMutability":"view"},{"type":"function","name":"getStringArr","inputs":[{"name":"subject","type":"bytes32","internalType":"bytes32"},{"name":"predicate","type":"bytes32","internalType":"bytes32"}],"outputs":[{"name":"","type":"string[]","internalType":"string[]"}],"stateMutability":"view"},{"type":"function","name":"getUint","inputs":[{"name":"subject","type":"bytes32","internalType":"bytes32"},{"name":"predicate","type":"bytes32","internalType":"bytes32"}],"outputs":[{"name":"","type":"uint256","internalType":"uint256"}],"stateMutability":"view"},{"type":"function","name":"isFundOpenForCalls","inputs":[{"name":"fundAgent","type":"address","internalType":"address"}],"outputs":[{"name":"","type":"bool","internalType":"bool"}],"stateMutability":"view"},{"type":"function","name":"isSet","inputs":[{"name":"subject","type":"bytes32","internalType":"bytes32"},{"name":"predicate","type":"bytes32","internalType":"bytes32"}],"outputs":[{"name":"","type":"bool","internalType":"bool"}],"stateMutability":"view"},{"type":"function","name":"openRound","inputs":[{"name":"p","type":"tuple","internalType":"struct FundRegistry.OpenRoundParams","components":[{"name":"roundSubject","type":"bytes32","internalType":"bytes32"},{"name":"fundAgent","type":"address","internalType":"address"},{"name":"poolAgent","type":"address","internalType":"address"},{"name":"deadline","type":"uint256","internalType":"uint256"},{"name":"decisionDate","type":"uint256","internalType":"uint256"},{"name":"reportingCadence","type":"bytes32","internalType":"bytes32"},{"name":"requiredCredentials","type":"bytes32[]","internalType":"bytes32[]"},{"name":"visibility","type":"bytes32","internalType":"bytes32"},{"name":"initialStatus","type":"bytes32","internalType":"bytes32"},{"name":"mandate","type":"string","internalType":"string"},{"name":"milestoneTemplate","type":"string","internalType":"string"},{"name":"validatorRequirements","type":"string","internalType":"string"},{"name":"slug","type":"string","internalType":"string"}]}],"outputs":[],"stateMutability":"nonpayable"},{"type":"function","name":"predicatesOf","inputs":[{"name":"subject","type":"bytes32","internalType":"bytes32"}],"outputs":[{"name":"","type":"bytes32[]","internalType":"bytes32[]"}],"stateMutability":"view"},{"type":"function","name":"registerFund","inputs":[{"name":"fundAgent","type":"address","internalType":"address"},{"name":"acceptedKinds","type":"bytes32[]","internalType":"bytes32[]"},{"name":"openForCalls","type":"bool","internalType":"bool"}],"outputs":[],"stateMutability":"nonpayable"},{"type":"function","name":"roundSubject","inputs":[{"name":"roundId","type":"string","internalType":"string"}],"outputs":[{"name":"","type":"bytes32","internalType":"bytes32"}],"stateMutability":"pure"},{"type":"function","name":"setFundAcceptedKinds","inputs":[{"name":"fundAgent","type":"address","internalType":"address"},{"name":"kinds","type":"bytes32[]","internalType":"bytes32[]"}],"outputs":[],"stateMutability":"nonpayable"},{"type":"function","name":"setFundOpenForCalls","inputs":[{"name":"fundAgent","type":"address","internalType":"address"},{"name":"openForCalls","type":"bool","internalType":"bool"}],"outputs":[],"stateMutability":"nonpayable"},{"type":"function","name":"setRoundAwardsRoot","inputs":[{"name":"round","type":"bytes32","internalType":"bytes32"},{"name":"awardsRoot","type":"bytes32","internalType":"bytes32"},{"name":"disputeUntil","type":"uint256","internalType":"uint256"}],"outputs":[],"stateMutability":"nonpayable"},{"type":"function","name":"setRoundMandate","inputs":[{"name":"round","type":"bytes32","internalType":"bytes32"},{"name":"mandate","type":"string","internalType":"string"}],"outputs":[],"stateMutability":"nonpayable"},{"type":"function","name":"setRoundMilestoneTemplate","inputs":[{"name":"round","type":"bytes32","internalType":"bytes32"},{"name":"template","type":"string","internalType":"string"}],"outputs":[],"stateMutability":"nonpayable"},{"type":"function","name":"setRoundPoolAgent","inputs":[{"name":"round","type":"bytes32","internalType":"bytes32"},{"name":"poolAgent","type":"address","internalType":"address"}],"outputs":[],"stateMutability":"nonpayable"},{"type":"function","name":"setRoundStatus","inputs":[{"name":"round","type":"bytes32","internalType":"bytes32"},{"name":"newStatus","type":"bytes32","internalType":"bytes32"}],"outputs":[],"stateMutability":"nonpayable"},{"type":"function","name":"setRoundValidatorRequirements","inputs":[{"name":"round","type":"bytes32","internalType":"bytes32"},{"name":"requirements","type":"string","internalType":"string"}],"outputs":[],"stateMutability":"nonpayable"},{"type":"function","name":"subjectCount","inputs":[],"outputs":[{"name":"","type":"uint256","internalType":"uint256"}],"stateMutability":"view"},{"type":"function","name":"subjectVersion","inputs":[{"name":"subject","type":"bytes32","internalType":"bytes32"}],"outputs":[{"name":"","type":"uint64","internalType":"uint64"}],"stateMutability":"view"},{"type":"function","name":"updatedAt","inputs":[{"name":"subject","type":"bytes32","internalType":"bytes32"},{"name":"predicate","type":"bytes32","internalType":"bytes32"}],"outputs":[{"name":"","type":"uint64","internalType":"uint64"}],"stateMutability":"view"},{"type":"event","name":"AttributeAppended","inputs":[{"name":"subject","type":"bytes32","indexed":true,"internalType":"bytes32"},{"name":"predicate","type":"bytes32","indexed":true,"internalType":"bytes32"},{"name":"datatype","type":"uint8","indexed":false,"internalType":"uint8"},{"name":"version","type":"uint64","indexed":false,"internalType":"uint64"}],"anonymous":false},{"type":"event","name":"AttributeSet","inputs":[{"name":"subject","type":"bytes32","indexed":true,"internalType":"bytes32"},{"name":"predicate","type":"bytes32","indexed":true,"internalType":"bytes32"},{"name":"datatype","type":"uint8","indexed":false,"internalType":"uint8"},{"name":"version","type":"uint64","indexed":false,"internalType":"uint64"}],"anonymous":false},{"type":"event","name":"AttributeUnset","inputs":[{"name":"subject","type":"bytes32","indexed":true,"internalType":"bytes32"},{"name":"predicate","type":"bytes32","indexed":true,"internalType":"bytes32"},{"name":"version","type":"uint64","indexed":false,"internalType":"uint64"}],"anonymous":false},{"type":"event","name":"FundRegistered","inputs":[{"name":"fundAgent","type":"address","indexed":true,"internalType":"address"},{"name":"subject","type":"bytes32","indexed":false,"internalType":"bytes32"}],"anonymous":false},{"type":"event","name":"RoundAwardsRootSet","inputs":[{"name":"roundSubject","type":"bytes32","indexed":true,"internalType":"bytes32"},{"name":"awardsRoot","type":"bytes32","indexed":false,"internalType":"bytes32"},{"name":"disputeUntil","type":"uint256","indexed":false,"internalType":"uint256"}],"anonymous":false},{"type":"event","name":"RoundOpened","inputs":[{"name":"roundSubject","type":"bytes32","indexed":true,"internalType":"bytes32"},{"name":"fundAgent","type":"address","indexed":true,"internalType":"address"},{"name":"poolAgent","type":"address","indexed":true,"internalType":"address"}],"anonymous":false},{"type":"event","name":"RoundStatusChanged","inputs":[{"name":"roundSubject","type":"bytes32","indexed":true,"internalType":"bytes32"},{"name":"newStatus","type":"bytes32","indexed":false,"internalType":"bytes32"}],"anonymous":false},{"type":"event","name":"SubjectFirstSeen","inputs":[{"name":"subject","type":"bytes32","indexed":true,"internalType":"bytes32"}],"anonymous":false},{"type":"error","name":"AttributeNotSet","inputs":[]},{"type":"error","name":"MissingFundAgent","inputs":[]},{"type":"error","name":"NotFundOwner","inputs":[]},{"type":"error","name":"PredicateNotActive","inputs":[]},{"type":"error","name":"RoundNotInitialized","inputs":[]}],"bytecode":{"object":"0x60c03461009a57601f613c8d38819003918201601f19168301916001600160401b0383118484101761009e57808492604094855283398101031261009a57610052602061004b836100b2565b92016100b2565b6001600160a01b039182166080521660a052604051613bc690816100c7823960805181818161089f01526131f0015260a051818181610cbd01528181611be50152611dcf0152f35b5f80fd5b634e487b7160e01b5f52604160045260245ffd5b51906001600160a01b038216820361009a5756fe6080806040526004361015610012575f80fd5b5f905f3560e01c9081630d57f6e4146124cc575080630fb66f9814612466578063111e0fee1461243f5780631899ebe4146124185780631b9b8a7d146123bf57806320d1b3a314612398578063213aaad71461237d57806326d2e8fa146123565780632ce04655146122fd5780632dbde087146122695780633001aaad146121fb578063301d234d1461210457806330547181146120a057806331477b9b1461205e57806337d9d7fc1461202f5780633a0c0c12146120085780633d5696f214611fe15780634083843e14611f7857806342921cf314611f4657806347f4dc1a14611f0c5780634837f59114611e8b5780634d67c72914611e6457806351c66f7214611dfe57806355c964dd14611dba578063611f6c9c14611d93578063639a2e1014611d765780636526e9af14611cf5578063687837bf14611b39578063695eea2914611ab65780636fb3741614611a8e57806379243c3114611a665780637a6ad92614611a395780637d7f7596146119de5780637dfd93fe146119705780637f2c68d014611915578063814349ba1461181657806385ed27c6146117be57806387533f3a14611763578063880eadce1461172d578063886c7669146116f25780638e101369146116d65780638e21caca146116a35780638ebdd6d21461164857806393cbc37d1461162c57806398eaf11c146115fa5780639a389caa146115d2578063a954aea1146115b6578063ac01f0e11461157b578063b260c4f814611553578063b3e40f7d1461152b578063bb6b0c3b146114f9578063bbb922f414611492578063be78c06814611476578063bea06113146113eb578063c3174629146113cf578063c3a6123d1461134e578063c6fbc3b3146112d3578063cb954f30146111fa578063d1a26bdf146111bf578063d223042c146110fd578063d3a39686146110c6578063e1d125a11461098c578063e4281bc3146108ce578063e63cdb4214610889578063e7d3fd97146107b4578063ece6bebc14610798578063ee018a7814610770578063f207ad9c14610698578063f4da68881461048f578063f98eed6914610473578063f9f67719146103d75763fd71feef14610336575f80fd5b346103d45760203660031901126103d457604051633d356c9360e11b815260048035908201525f5160206139f15f395f51905f52602482015290602082604481305afa9081156103c85790610391575b602090604051908152f35b506020813d6020116103c0575b816103ab6020938361260a565b810103126103bc5760209051610386565b5f80fd5b3d915061039e565b604051903d90823e3d90fd5b80fd5b50346103d45760203660031901126103d4576040516331477b9b60e01b815260048035908201525f516020613b715f395f51905f5260248201528181604481305afa90811561046857826104419392610445575b50506040519182916020835260208301906124f1565b0390f35b61046192503d8091833e610459818361260a565b81019061265a565b5f8061042b565b6040513d84823e3d90fd5b50346103d457806003193601126103d457602060405160088152f35b50346103d45760603660031901126103d45760043560243560443560405163bb6b0c3b60e01b81528360048201525f516020613b515f395f51905f526024820152602081604481305afa90811561064c578591610669575b5015610657576040516369d1cb4360e11b8152600481018490525f516020613b515f395f51905f526024820152602081604481305afa801561064c5761053691869161061d575b503390612958565b1561060e577f174edea277b8be769118be834e4b7de236f1430e1fecf6409930c4a7d69bd809916040916105765f516020613b115f395f51905f526131d3565b84865260046020528286205f516020613b115f395f51905f52875260205281838720556105b05f516020613b115f395f51905f52866133c8565b6105c65f5160206139f15f395f51905f526131d3565b84865260036020528286205f5160206139f15f395f51905f52875260205280838720556106005f5160206139f15f395f51905f5286613806565b82519182526020820152a280f35b63b3545ef360e01b8452600484fd5b61063f915060203d602011610645575b610637818361260a565b8101906126bc565b5f61052e565b503d61062d565b6040513d87823e3d90fd5b60016236173b60e01b03198452600484fd5b61068b915060203d602011610691575b610683818361260a565b81019061276b565b5f6104e7565b503d610679565b50346103d4576106a736612591565b60405163bb6b0c3b60e01b8152600481018490525f516020613b515f395f51905f526024820152602081604481305afa90811561064c578591610751575b5015610657576040516369d1cb4360e11b8152600481018490525f516020613b515f395f51905f526024820152602081604481305afa801561064c5761073391869161061d57503390612958565b1561060e5761074e9291610748913691612783565b90612b68565b80f35b61076a915060203d60201161069157610683818361260a565b5f6106e5565b50346103d457806003193601126103d45760206040515f516020613b315f395f51905f528152f35b50346103d457806003193601126103d457602060405160028152f35b50346103d4576107c336612591565b60405163bb6b0c3b60e01b8152600481018490525f516020613b515f395f51905f526024820152602081604481305afa90811561064c57859161086a575b5015610657576040516369d1cb4360e11b8152600481018490525f516020613b515f395f51905f526024820152602081604481305afa801561064c5761084f91869161061d57503390612958565b1561060e5761074e9291610864913691612783565b90612cac565b610883915060203d60201161069157610683818361260a565b5f610801565b50346103d457806003193601126103d4576040517f00000000000000000000000000000000000000000000000000000000000000006001600160a01b03168152602090f35b50346103d4576108dd366125c4565b90825260066020526040822090825260205260408120604051908160208254918281520190819285526020852090855b81811061096d575050508261092391038361260a565b604051928392602084019060208552518091526040840192915b81811061094b575050500390f35b82516001600160a01b031684528594506020938401939092019160010161093d565b82546001600160a01b031684526020909301926001928301920161090d565b50346103d45760203660031901126103d4576004356001600160401b038111610daa57806004016101a060031983360301126110c257602482016109d96109d2826128dd565b3390612958565b1561060e576001600160a01b036109ef826128dd565b16156110b357813591610a01826128dd565b610a175f516020613b515f395f51905f526131d3565b8386526001602052604086205f516020613b515f395f51905f528752602052604086209060018060a01b03166bffffffffffffffffffffffff60a01b825416179055610a705f516020613b515f395f51905f5284613532565b60448401936001600160a01b03610a86866128dd565b1661109c575b610aa25f516020613af15f395f51905f526131d3565b8386526003602052604086205f516020613af15f395f51905f52875260205260648101356040872055610ae25f516020613af15f395f51905f5285613806565b610af85f516020613a115f395f51905f526131d3565b8386526003602052604086205f516020613a115f395f51905f52875260205260848101356040872055610b385f516020613a115f395f51905f5285613806565b610b4e5f516020613a915f395f51905f526131d3565b8386526004602052604086205f516020613a915f395f51905f52875260205260a48101356040872055610b8e5f516020613a915f395f51905f52856133c8565b60c48101610b9c81846128f1565b9050610f8e575b5061018490610bbe5f516020613a515f395f51905f526131d3565b8487526004602052604087205f516020613a515f395f51905f52885260205260e48101356040882055610bfe5f516020613a515f395f51905f52866133c8565b610c0d61010482013586612df0565b610c235f516020613a715f395f51905f526131d3565b8487526003602052604087205f516020613a715f395f51905f528852602052426040882055610c5f5f516020613a715f395f51905f5286613806565b6101248101610c6e8185612926565b9050610f72575b506101448101610c858185612926565b9050610f56575b506101648101610c9c8185612926565b9050610f3a575b500190610cb08282612926565b9050610dae575b508490507f00000000000000000000000000000000000000000000000000000000000000006001600160a01b0316803b15610daa5781606491604051928380926309abe27f60e01b82527f281587bb88fdeb6dfd58b1d6ca4fcea730e272e807a0a353912952d047917c4e60048301528860248301523060448301525afa801561046857610d91575b5050610d4b906128dd565b916001600160a01b0390610d5e906128dd565b16916001600160a01b0316907f9d371c9e52d1d22619eef45fc3730143efb83ef7063c0010c644c15d189e59798480a480f35b81610d9b9161260a565b610da657835f610d40565b8380fd5b5080fd5b610dc291610dbb91612926565b3691612783565b610dd85f516020613a315f395f51905f526131d3565b82855284602052604085205f516020613a315f395f51905f52865260205260408520908051906001600160401b038211610f26578190610e1884546127b9565b601f8111610ed6575b50602090601f8311600114610e74578892610e69575b50508160011b915f199060031b1c19161790555b610e625f516020613a315f395f51905f528361325e565b5f80610cb7565b015190505f80610e37565b8489528189209250601f198416895b818110610ebe5750908460019594939210610ea6575b505050811b019055610e4b565b01515f1960f88460031b161c191690555f8080610e99565b92936020600181928786015181550195019301610e83565b90915083885260208820601f840160051c81019160208510610f1c575b90601f859493920160051c01905b818110610f0e5750610e21565b898155849350600101610f01565b9091508190610ef3565b634e487b7160e01b87526041600452602487fd5b610f4a610dbb610f509286612926565b86612cac565b5f610ca3565b610f66610dbb610f6c9286612926565b86612b68565b5f610c8c565b610f82610dbb610f889286612926565b866129ff565b5f610c75565b610fa0610fa7918496959397946128f1565b3691612891565b93610fbe5f5160206139b15f395f51905f526131d3565b8387526007602052604087205f5160206139b15f395f51905f528852602052604087208054908881558161107e575b5050865b8551811015611057578488526007602052604088205f5160206139b15f395f51905f528952602052604088208651821015611043579061103d60019260208360051b8a010151906130d5565b01610ff1565b634e487b7160e01b89526032600452602489fd5b509194610184919394506110785f5160206139b15f395f51905f528661369c565b90610ba3565b885260208820908101905b81811015610fed57888155600101611089565b6110ae6110a8866128dd565b85612e3b565b610a8c565b633d2aec7160e21b8452600484fd5b8280fd5b50346103d4576020906110d8366125c4565b90825260018352604082209082528252604060018060a01b0391205416604051908152f35b50346103d45760603660031901126103d457611117612515565b6024356001600160401b0381116110c2576111369036906004016125da565b91906044359182151583036111bb5761114f3382612958565b156111ac576001600160a01b03169261117f92916111799161117391369190612891565b846130fc565b82612ea4565b7f2e8c8670ecb11a4402ca2675d9305ce3a10d15d46e80a85f8dfbf50305a30d566020604051838152a280f35b63b3545ef360e01b8552600485fd5b8480fd5b50346103d457806003193601126103d45760206040517f766be3d92c7a2c4e3df0489618248b00312ecdc547ec46738deed82495ebd3ce8152f35b50346103d457611209366125c4565b90825260056020526040822090825260205260408120805461122a816126db565b90611238604051928361260a565b80825260208201809385526020852085915b8383106112b657868587604051928392602084019060208552518091526040840160408260051b8601019392905b82821061128757505050500390f35b919360019193955060206112a68192603f198a820301865288516124f1565b9601920192018594939192611278565b6001602081926112c5856127f1565b81520192019201919061124a565b50346103d45760203660031901126103d4576004356001600160401b038111610daa5760209161134361130c6029933690600401612564565b60409491945193818592888401976839b09d3937bab7321d60b91b895285850137820190838201520301601f19810183528261260a565b519020604051908152f35b50346103d457806003193601126103d45760405180916020600d54928381520191600d82527fd7b6990105719101dabeb77144f2a3385c8033acd3af97e9423a695e81ad1eb5915b8181106113b957610441856113ad8187038261260a565b6040519182918261252b565b8254845260209093019260019283019201611396565b50346103d457806003193601126103d457602060405160058152f35b50346103d45760203660031901126103d457611405612515565b60405163263abc4760e21b81526001600160a01b0390911660048201525f516020613b315f395f51905f526024820152602081604481305afa9081156104685760209291611459575b506040519015158152f35b6114709150823d841161069157610683818361260a565b5f61144e565b50346103d457806003193601126103d457602060405160048152f35b50346103d45760403660031901126103d4576114ac612515565b6024356001600160401b0381116110c2576114cb9036906004016125da565b6114d53384612958565b1561060e5761074e92916114ea913691612891565b906001600160a01b03166130fc565b50346103d45760ff604060209261150f366125c4565b9082526009855282822090825284522054166040519015158152f35b50346103d457806003193601126103d45760206040515f516020613b515f395f51905f528152f35b50346103d457806003193601126103d45760206040515f516020613a115f395f51905f528152f35b50346103d457806003193601126103d45760206040517fcedb18faaf1bf0838e08e6042e662614086879cd24c7c99caa385fed122d32c58152f35b50346103d457806003193601126103d457602060405160018152f35b50346103d457806003193601126103d45760206040515f516020613ab15f395f51905f528152f35b50346103d45760ff6040602092611610366125c4565b9082526002855282822090825284522054166040519015158152f35b50346103d457806003193601126103d457602060405160038152f35b50346103d45760203660031901126103d457604051633d356c9360e11b815260048035908201525f516020613a115f395f51905f52602482015290602082604481305afa9081156103c8579061039157602090604051908152f35b50346103d45760203660031901126103d4576001600160401b0360406020926004358152600c8452205416604051908152f35b50346103d457806003193601126103d457602060405160068152f35b50346103d457806003193601126103d45760206040517f281587bb88fdeb6dfd58b1d6ca4fcea730e272e807a0a353912952d047917c4e8152f35b50346103d4576001600160401b036040602092611749366125c4565b908252600b85528282209082528452205416604051908152f35b50346103d45760203660031901126103d457604051633d356c9360e11b815260048035908201525f516020613af15f395f51905f52602482015290602082604481305afa9081156103c8579061039157602090604051908152f35b50346103d45760403660031901126103d4576117d8612515565b6024359081151582036110c2576117ef3382612958565b156118075761074e91906001600160a01b0316612ea4565b63b3545ef360e01b8352600483fd5b50346103d45760403660031901126103d4576024356004356001600160a01b03821682036110c25760405163bb6b0c3b60e01b8152600481018290525f516020613b515f395f51905f526024820152602081604481305afa9081156118d95784916118f6575b50156118e4576040516369d1cb4360e11b8152600481018290525f516020613b515f395f51905f526024820152602081604481305afa80156118d9576118ca91859161061d57503390612958565b15611807579061074e91612e3b565b6040513d86823e3d90fd5b60016236173b60e01b03198352600483fd5b61190f915060203d60201161069157610683818361260a565b5f61187c565b50346103d45760203660031901126103d457604051630df675ff60e21b815260048035908201525f516020613a515f395f51905f52602482015290602082604481305afa9081156103c8579061039157602090604051908152f35b50346103d45760203660031901126103d457604051630df675ff60e21b815260048035908201527fcedb18faaf1bf0838e08e6042e662614086879cd24c7c99caa385fed122d32c5602482015290602082604481305afa9081156103c8579061039157602090604051908152f35b50346103d45760203660031901126103d457604051633d356c9360e11b815260048035908201525f516020613a715f395f51905f52602482015290602082604481305afa9081156103c8579061039157602090604051908152f35b50346103d4576040602091611a4d366125c4565b9082526003845282822090825283522054604051908152f35b50346103d457806003193601126103d45760206040515f516020613a915f395f51905f528152f35b50346103d457806003193601126103d45760206040515f5160206139b15f395f51905f528152f35b50346103d45760203660031901126103d4576040516369d1cb4360e11b815260048035908201525f516020613b515f395f51905f526024820152602081604481305afa9081156104685760209291611b1c575b506040516001600160a01b039091168152f35b611b339150823d841161064557610637818361260a565b5f611b09565b50346103bc57611b48366125c4565b60405163bb6b0c3b60e01b8152600481018390525f516020613b515f395f51905f526024820152602081604481305afa908115611cad575f91611cd6575b5015611cc7576040516369d1cb4360e11b8152600481018390525f516020613b515f395f51905f526024820152602081604481305afa8015611cad57611bd4915f9161061d57503390612958565b15611cb857611be38183612df0565b7f00000000000000000000000000000000000000000000000000000000000000006001600160a01b0316803b156103bc575f606491604051928380926309abe27f60e01b82527f281587bb88fdeb6dfd58b1d6ca4fcea730e272e807a0a353912952d047917c4e60048301528760248301523060448301525afa8015611cad57611c97575b5060207fe7387dac8be34cbebb5ab9e0158f88510f74862a35935c47ab477749e3df33c791604051908152a280f35b611ca49193505f9061260a565b5f916020611c68565b6040513d5f823e3d90fd5b63b3545ef360e01b5f5260045ffd5b63ffc9e8c560e01b5f5260045ffd5b611cef915060203d60201161069157610683818361260a565b5f611b86565b346103bc5760203660031901126103bc576040516331477b9b60e01b815260048035908201525f5160206139d15f395f51905f5260248201525f81604481305afa8015611cad57610441915f91611d5c575b506040519182916020835260208301906124f1565b611d7091503d805f833e610459818361260a565b82611d47565b346103bc575f3660031901126103bc576020600d54604051908152f35b346103bc575f3660031901126103bc5760206040515f5160206139f15f395f51905f528152f35b346103bc575f3660031901126103bc576040517f00000000000000000000000000000000000000000000000000000000000000006001600160a01b03168152602090f35b346103bc5760203660031901126103bc576040516331477b9b60e01b815260048035908201525f516020613a315f395f51905f5260248201525f81604481305afa8015611cad57610441915f91611d5c57506040519182916020835260208301906124f1565b346103bc575f3660031901126103bc5760206040515f5160206139d15f395f51905f528152f35b346103bc5760203660031901126103bc57604051632041c21f60e11b815260048035908201525f5160206139b15f395f51905f5260248201525f81604481305afa8015611cad57610441915f91611eea575b506040519182918261252b565b611f0691503d805f833e611efe818361260a565b8101906126f2565b82611edd565b346103bc575f3660031901126103bc5760206040517f0a093caf6af85ff58909af7ec5bc5bca8908fa3f4c103433b04f95c53df0248b8152f35b346103bc57611f54366125c4565b905f52600a60205260405f20905f52602052602060ff60405f205416604051908152f35b346103bc57611f86366125c4565b905f52600760205260405f20905f5260205260405f206040519081602082549182815201915f5260205f20905f5b818110611fcb57610441856113ad8187038261260a565b8254845260209093019260019283019201611fb4565b346103bc575f3660031901126103bc5760206040515f516020613a715f395f51905f528152f35b346103bc575f3660031901126103bc5760206040515f516020613af15f395f51905f528152f35b346103bc5761203d366125c4565b905f52600460205260405f20905f52602052602060405f2054604051908152f35b346103bc5761206c366125c4565b905f525f60205260405f20905f5260205261044161208c60405f206127f1565b6040519182916020835260208301906124f1565b346103bc5760203660031901126103bc576004355f52600860205260405f206040519081602082549182815201915f5260205f20905f5b8181106120ee57610441856113ad8187038261260a565b82548452602090930192600192830192016120d7565b346103bc5761211236612591565b60405163bb6b0c3b60e01b8152600481018490525f516020613b515f395f51905f526024820152919291602081604481305afa908115611cad575f916121dc575b5015611cc7576040516369d1cb4360e11b8152600481018390525f516020613b515f395f51905f526024820152602081604481305afa8015611cad576121a1915f916121bd57503390612958565b15611cb8576121bb926121b5913691612783565b906129ff565b005b6121d6915060203d60201161064557610637818361260a565b8561052e565b6121f5915060203d60201161069157610683818361260a565b84612153565b346103bc5760203660031901126103bc57612214612515565b604051632041c21f60e11b81526001600160a01b0390911660048201525f5160206139715f395f51905f5260248201525f81604481305afa8015611cad57610441915f91611eea57506040519182918261252b565b346103bc5760203660031901126103bc576040516369d1cb4360e11b815260048035908201527f766be3d92c7a2c4e3df0489618248b00312ecdc547ec46738deed82495ebd3ce6024820152602081604481305afa8015611cad576020915f916122e057506040516001600160a01b039091168152f35b6122f79150823d841161064557610637818361260a565b82611b09565b346103bc5760203660031901126103bc57604051630df675ff60e21b815260048035908201525f516020613b115f395f51905f526024820152602081604481305afa8015611cad575f9061039157602090604051908152f35b346103bc575f3660031901126103bc5760206040515f516020613b115f395f51905f528152f35b346103bc575f3660031901126103bc57602060405160078152f35b346103bc575f3660031901126103bc5760206040515f5160206139715f395f51905f528152f35b346103bc5760203660031901126103bc57604051630df675ff60e21b815260048035908201525f516020613a915f395f51905f526024820152602081604481305afa8015611cad575f9061039157602090604051908152f35b346103bc575f3660031901126103bc5760206040515f516020613a515f395f51905f528152f35b346103bc575f3660031901126103bc5760206040515f516020613a315f395f51905f528152f35b346103bc5760203660031901126103bc576040516331477b9b60e01b815260048035908201525f516020613ab15f395f51905f5260248201525f81604481305afa8015611cad57610441915f91611d5c57506040519182916020835260208301906124f1565b346103bc575f3660031901126103bc57805f516020613b715f395f51905f5260209252f35b805180835260209291819084018484015e5f828201840152601f01601f1916010190565b600435906001600160a01b03821682036103bc57565b60206040818301928281528451809452019201905f5b81811061254e5750505090565b8251845260209384019390920191600101612541565b9181601f840112156103bc578235916001600160401b0383116103bc57602083818601950101116103bc57565b9060406003198301126103bc5760043591602435906001600160401b0382116103bc576125c091600401612564565b9091565b60409060031901126103bc576004359060243590565b9181601f840112156103bc578235916001600160401b0383116103bc576020808501948460051b0101116103bc57565b90601f801991011681019081106001600160401b0382111761262b57604052565b634e487b7160e01b5f52604160045260245ffd5b6001600160401b03811161262b57601f01601f191660200190565b6020818303126103bc578051906001600160401b0382116103bc570181601f820112156103bc5780519061268d8261263f565b9261269b604051948561260a565b828452602083830101116103bc57815f9260208093018386015e8301015290565b908160209103126103bc57516001600160a01b03811681036103bc5790565b6001600160401b03811161262b5760051b60200190565b6020818303126103bc578051906001600160401b0382116103bc57019080601f830112156103bc578151612725816126db565b92612733604051948561260a565b81845260208085019260051b8201019283116103bc57602001905b82821061275b5750505090565b815181526020918201910161274e565b908160209103126103bc575180151581036103bc5790565b92919261278f8261263f565b9161279d604051938461260a565b8294818452818301116103bc578281602093845f960137010152565b90600182811c921680156127e7575b60208310146127d357565b634e487b7160e01b5f52602260045260245ffd5b91607f16916127c8565b9060405191825f825492612804846127b9565b808452936001811690811561286f575060011461282b575b506128299250038361260a565b565b90505f9291925260205f20905f915b818310612853575050906020612829928201015f61281c565b602091935080600191548385890101520191019091849261283a565b90506020925061282994915060ff191682840152151560051b8201015f61281c565b92919061289d816126db565b936128ab604051958661260a565b602085838152019160051b81019283116103bc57905b8282106128cd57505050565b81358152602091820191016128c1565b356001600160a01b03811681036103bc5790565b903590601e19813603018212156103bc57018035906001600160401b0382116103bc57602001918160051b360383136103bc57565b903590601e19813603018212156103bc57018035906001600160401b0382116103bc576020019181360383136103bc57565b90813b156129f9575f91829160405160208101916317aa5fb760e11b835260018060a01b031660248201526024815261299260448261260a565b51915afa3d156129f2573d6129a68161263f565b906129b4604051928361260a565b81523d5f602083013e5b816129e4575b816129cd575090565b6129e191506020808251830101910161276b565b90565b9050602081511015906129c4565b60606129be565b50505f90565b919091612a185f516020613b715f395f51905f526131d3565b805f525f60205260405f205f516020613b715f395f51905f525f5260205260405f2083516001600160401b03811161262b57612a5482546127b9565b601f8111612b23575b506020601f8211600114612aad5790805f516020613b715f395f51905f5294939261282996975f92612aa2575b50508160011b915f199060031b1c191617905561325e565b015190505f80612a8a565b601f19821695835f52815f20965f5b818110612b0b57509660019284925f516020613b715f395f51905f52979695612829999a10612af3575b505050811b01905561325e565b01515f1960f88460031b161c191690555f8080612ae6565b83830151895560019098019760209384019301612abc565b825f5260205f20601f830160051c81019160208410612b5e575b601f0160051c01905b818110612b535750612a5d565b5f8155600101612b46565b9091508190612b3d565b919091612b815f5160206139d15f395f51905f526131d3565b805f525f60205260405f205f5160206139d15f395f51905f525f5260205260405f2083516001600160401b03811161262b57612bbd82546127b9565b601f8111612c67575b506020601f8211600114612c0a5790805f5160206139d15f395f51905f5294939261282996975f92612aa25750508160011b915f199060031b1c191617905561325e565b601f19821695835f52815f20965f5b818110612c4f57509660019284925f5160206139d15f395f51905f52979695612829999a10612af357505050811b01905561325e565b83830151895560019098019760209384019301612c19565b825f5260205f20601f830160051c81019160208410612ca2575b601f0160051c01905b818110612c975750612bc6565b5f8155600101612c8a565b9091508190612c81565b919091612cc55f516020613ab15f395f51905f526131d3565b805f525f60205260405f205f516020613ab15f395f51905f525f5260205260405f2083516001600160401b03811161262b57612d0182546127b9565b601f8111612dab575b506020601f8211600114612d4e5790805f516020613ab15f395f51905f5294939261282996975f92612aa25750508160011b915f199060031b1c191617905561325e565b601f19821695835f52815f20965f5b818110612d9357509660019284925f516020613ab15f395f51905f52979695612829999a10612af357505050811b01905561325e565b83830151895560019098019760209384019301612d5d565b825f5260205f20601f830160051c81019160208410612de6575b601f0160051c01905b818110612ddb5750612d0a565b5f8155600101612dce565b9091508190612dc5565b7fcedb18faaf1bf0838e08e6042e662614086879cd24c7c99caa385fed122d32c59061282992612e1f836131d3565b815f52600460205260405f20835f5260205260405f20556133c8565b7f766be3d92c7a2c4e3df0489618248b00312ecdc547ec46738deed82495ebd3ce9061282992612e6a836131d3565b815f52600160205260405f20835f5260205260405f209060018060a01b03166bffffffffffffffffffffffff60a01b825416179055613532565b90612ebb5f516020613b315f395f51905f526131d3565b815f52600260205260405f205f516020613b315f395f51905f525f5260205260405f209060ff8019835416911515161790555f516020613b315f395f51905f5290805f52600e60205260ff60405f20541615613043575b805f52600960205260405f20825f5260205260ff60405f20541615613008575b805f52600a60205260405f20825f5260205260405f20600360ff19825416179055805f52600c60205260016001600160401b0360405f205416016001600160401b038111612ff45760405f516020613ad15f395f51905f5291835f52600c602052815f206001600160401b0382166001600160401b0319825416179055835f52600b602052815f20855f52602052815f206001600160401b0382166001600160401b03198254161790556001600160401b0382519160038352166020820152a3565b634e487b7160e01b5f52601160045260245ffd5b805f52600860205261301d8260405f206130d5565b805f52600960205260405f20825f5260205260405f20600160ff19825416179055612f32565b805f52600e60205260405f20600160ff198254161790556130638161307a565b805f5160206139915f395f51905f525f80a2612f12565b600d54600160401b81101561262b576001810180600d558110156130c157600d5f527fd7b6990105719101dabeb77144f2a3385c8033acd3af97e9423a695e81ad1eb50155565b634e487b7160e01b5f52603260045260245ffd5b805490600160401b82101561262b57600182018082558210156130c1575f5260205f200155565b9190916131155f5160206139715f395f51905f526131d3565b805f52600760205260405f205f5160206139715f395f51905f525f5260205260405f208054905f8155816131b5575b50505f5b835181101561319a57815f52600760205260405f205f5160206139715f395f51905f525f5260205260405f209084518110156130c15761319460019260208360051b88010151906130d5565b01613148565b506128299192505f5160206139715f395f51905f529061369c565b5f5260205f20908101905b81811015613144575f81556001016131c0565b60405163170da40760e21b815260048101919091526020816024817f00000000000000000000000000000000000000000000000000000000000000006001600160a01b03165afa908115611cad575f9161323f575b501561323057565b632263bf1f60e21b5f5260045ffd5b613258915060203d60201161069157610683818361260a565b5f613228565b805f52600e60205260ff60405f20541615613391575b805f52600960205260405f20825f5260205260ff60405f20541615613356575b805f52600a60205260405f20825f5260205260405f20600160ff19825416179055805f52600c60205260016001600160401b0360405f205416016001600160401b038111612ff45760405f516020613ad15f395f51905f5291835f52600c602052815f206001600160401b0382166001600160401b0319825416179055835f52600b602052815f20855f52602052815f206001600160401b0382166001600160401b03198254161790556001600160401b0382519160018352166020820152a3565b805f52600860205261336b8260405f206130d5565b805f52600960205260405f20825f5260205260405f20600160ff19825416179055613294565b805f52600e60205260405f20600160ff198254161790556133b18161307a565b805f5160206139915f395f51905f525f80a2613274565b805f52600e60205260ff60405f205416156134fb575b805f52600960205260405f20825f5260205260ff60405f205416156134c0575b805f52600a60205260405f20825f5260205260405f20600560ff19825416179055805f52600c60205260016001600160401b0360405f205416016001600160401b038111612ff45760405f516020613ad15f395f51905f5291835f52600c602052815f206001600160401b0382166001600160401b0319825416179055835f52600b602052815f20855f52602052815f206001600160401b0382166001600160401b03198254161790556001600160401b0382519160058352166020820152a3565b805f5260086020526134d58260405f206130d5565b805f52600960205260405f20825f5260205260405f20600160ff198254161790556133fe565b805f52600e60205260405f20600160ff1982541617905561351b8161307a565b805f5160206139915f395f51905f525f80a26133de565b805f52600e60205260ff60405f20541615613665575b805f52600960205260405f20825f5260205260ff60405f2054161561362a575b805f52600a60205260405f20825f5260205260405f20600260ff19825416179055805f52600c60205260016001600160401b0360405f205416016001600160401b038111612ff45760405f516020613ad15f395f51905f5291835f52600c602052815f206001600160401b0382166001600160401b0319825416179055835f52600b602052815f20855f52602052815f206001600160401b0382166001600160401b03198254161790556001600160401b0382519160028352166020820152a3565b805f52600860205261363f8260405f206130d5565b805f52600960205260405f20825f5260205260405f20600160ff19825416179055613568565b805f52600e60205260405f20600160ff198254161790556136858161307a565b805f5160206139915f395f51905f525f80a2613548565b805f52600e60205260ff60405f205416156137cf575b805f52600960205260405f20825f5260205260ff60405f20541615613794575b805f52600a60205260405f20825f5260205260405f20600860ff19825416179055805f52600c60205260016001600160401b0360405f205416016001600160401b038111612ff45760405f516020613ad15f395f51905f5291835f52600c602052815f206001600160401b0382166001600160401b0319825416179055835f52600b602052815f20855f52602052815f206001600160401b0382166001600160401b03198254161790556001600160401b0382519160088352166020820152a3565b805f5260086020526137a98260405f206130d5565b805f52600960205260405f20825f5260205260405f20600160ff198254161790556136d2565b805f52600e60205260405f20600160ff198254161790556137ef8161307a565b805f5160206139915f395f51905f525f80a26136b2565b805f52600e60205260ff60405f20541615613939575b805f52600960205260405f20825f5260205260ff60405f205416156138fe575b805f52600a60205260405f20825f5260205260405f20600460ff19825416179055805f52600c60205260016001600160401b0360405f205416016001600160401b038111612ff45760405f516020613ad15f395f51905f5291835f52600c602052815f206001600160401b0382166001600160401b0319825416179055835f52600b602052815f20855f52602052815f206001600160401b0382166001600160401b03198254161790556001600160401b0382519160048352166020820152a3565b805f5260086020526139138260405f206130d5565b805f52600960205260405f20825f5260205260405f20600160ff1982541617905561383c565b805f52600e60205260405f20600160ff198254161790556139598161307a565b805f5160206139915f395f51905f525f80a261381c56fef4fb0792a6ddcfab734dec06731eb8749c30e325a348844fc359e200b6a75b1c34f1cb4778d9578e1af878b07d3ae7e9f2f32fafcaa3096fe48153670a71bfaf53dfd24377939e89a626dc61c5a37ebfdaf3f0ed448a4a5da753cafe05638c089a91b66aa97e6c0f1831e9b379ecea81a1b4c8956b8c45d3b1a1107b39808e431f6b5c92f11d418c2ed2b2fcb985077a715bafa6c55a66310122255054cb7f543a7259b22422608a7552616285e21d0cde6337b20445b38e286ebc9d5358b52e898cc3548347493fae67728f084b8f1fa93f530cdff4d4e521db3665d0150e1788e94ac17dd709171964cda79d07d8e32be9c2b743970d84aa92a173f20e45a095db22303fd5ae29c4446eaf37b555c427b1d79b2729b36bec3932ff7fd87f02b5b7fdeab3b45785910fc613026dae52a9939b9e0ed430fb0d4096a8b141243f20173a3e65424cfcffd3d9c56a6033cc3542634c1bc1517165080cc39b4236df5167ea251eeaf052f4c7bd769efb5b17e6ba98908050b9929a0bd192b57274fbd64ffd6f58f2c848a7e5bd1f1f0ae77823f9ae773e4a981874fdad1ab58c5f7ee7ed0b367f80e2e4289c8c2f125cfbaede7175a21ff959cff1f2b2206d9e6ef617e7af9195167a7d25021113380a5929bcf89456e48efdef2b7e264260599a0810c72a82595a7b5308a947d902eb0b8d1aa6f516b975d88a8f7a7129d6d71c5577d55dadd858d436db0940c507d4ca0c20f62a31f348a376954f46ea10d5801ba26469706673582212206242e9e6c7c2049bb6438fbcfc89a0b397cbec44488500485aacaf36117d221a64736f6c634300081c0033","linkReferences":{}},"methodIdentifiers":{"CLASS_FUND()":"47f4dc1a","CLASS_ROUND()":"886c7669","DT_ADDRESS_ARR_PUB()":"213aaad7","DT_ADDRESS_PUB()":"ece6bebc","DT_BOOL_PUB()":"93cbc37d","DT_BYTES32_ARR_PUB()":"f98eed69","DT_BYTES32_PUB()":"c3174629","DT_STRING_ARR_PUB()":"8e101369","DT_STRING_PUB()":"a954aea1","DT_UINT256_PUB()":"be78c068","ONTOLOGY()":"e63cdb42","SA_FUND_ACCEPTED_KINDS()":"20d1b3a3","SA_FUND_OPEN_FOR_CALLS()":"ee018a78","SA_ROUND_AWARDS_ROOT()":"26d2e8fa","SA_ROUND_DEADLINE()":"3a0c0c12","SA_ROUND_DECISION_DATE()":"b260c4f8","SA_ROUND_DISPUTE_UNTIL()":"611f6c9c","SA_ROUND_FUND_AGENT()":"b3e40f7d","SA_ROUND_MANDATE()":"0d57f6e4","SA_ROUND_MILESTONE_TEMPLATE()":"4d67c729","SA_ROUND_OPENED_AT()":"3d5696f2","SA_ROUND_POOL_AGENT()":"d1a26bdf","SA_ROUND_REPORTING_CADENCE()":"79243c31","SA_ROUND_REQUIRED_CREDENTIALS()":"6fb37416","SA_ROUND_SLUG()":"111e0fee","SA_ROUND_STATUS()":"ac01f0e1","SA_ROUND_VALIDATOR_REQUIREMENTS()":"9a389caa","SA_ROUND_VISIBILITY()":"1899ebe4","SHAPES()":"55c964dd","allSubjects()":"c3a6123d","datatypeOf(bytes32,bytes32)":"42921cf3","getAddress(bytes32,bytes32)":"d3a39686","getAddressArr(bytes32,bytes32)":"e4281bc3","getBool(bytes32,bytes32)":"98eaf11c","getBytes32(bytes32,bytes32)":"37d9d7fc","getBytes32Arr(bytes32,bytes32)":"4083843e","getFundAcceptedKinds(address)":"3001aaad","getRoundAwardsRoot(bytes32)":"2ce04655","getRoundDeadline(bytes32)":"87533f3a","getRoundDecisionDate(bytes32)":"8ebdd6d2","getRoundDisputeUntil(bytes32)":"fd71feef","getRoundFundAgent(bytes32)":"695eea29","getRoundMandate(bytes32)":"f9f67719","getRoundMilestoneTemplate(bytes32)":"6526e9af","getRoundOpenedAt(bytes32)":"7d7f7596","getRoundPoolAgent(bytes32)":"2dbde087","getRoundReportingCadence(bytes32)":"1b9b8a7d","getRoundRequiredCredentials(bytes32)":"4837f591","getRoundSlug(bytes32)":"51c66f72","getRoundStatus(bytes32)":"7dfd93fe","getRoundValidatorRequirements(bytes32)":"0fb66f98","getRoundVisibility(bytes32)":"7f2c68d0","getString(bytes32,bytes32)":"31477b9b","getStringArr(bytes32,bytes32)":"cb954f30","getUint(bytes32,bytes32)":"7a6ad926","isFundOpenForCalls(address)":"bea06113","isSet(bytes32,bytes32)":"bb6b0c3b","openRound((bytes32,address,address,uint256,uint256,bytes32,bytes32[],bytes32,bytes32,string,string,string,string))":"e1d125a1","predicatesOf(bytes32)":"30547181","registerFund(address,bytes32[],bool)":"d223042c","roundSubject(string)":"c6fbc3b3","setFundAcceptedKinds(address,bytes32[])":"bbb922f4","setFundOpenForCalls(address,bool)":"85ed27c6","setRoundAwardsRoot(bytes32,bytes32,uint256)":"f4da6888","setRoundMandate(bytes32,string)":"301d234d","setRoundMilestoneTemplate(bytes32,string)":"f207ad9c","setRoundPoolAgent(bytes32,address)":"814349ba","setRoundStatus(bytes32,bytes32)":"687837bf","setRoundValidatorRequirements(bytes32,string)":"e7d3fd97","subjectCount()":"639a2e10","subjectVersion(bytes32)":"8e21caca","updatedAt(bytes32,bytes32)":"880eadce"},"id":93}