{"abi":[{"type":"constructor","inputs":[{"name":"ontologyRegistry","type":"address","internalType":"address"},{"name":"shapes","type":"address","internalType":"address"}],"stateMutability":"nonpayable"},{"type":"function","name":"CLASS_FUND","inputs":[],"outputs":[{"name":"","type":"bytes32","internalType":"bytes32"}],"stateMutability":"view"},{"type":"function","name":"CLASS_ROUND","inputs":[],"outputs":[{"name":"","type":"bytes32","internalType":"bytes32"}],"stateMutability":"view"},{"type":"function","name":"DT_ADDRESS_ARR_PUB","inputs":[],"outputs":[{"name":"","type":"uint8","internalType":"uint8"}],"stateMutability":"pure"},{"type":"function","name":"DT_ADDRESS_PUB","inputs":[],"outputs":[{"name":"","type":"uint8","internalType":"uint8"}],"stateMutability":"pure"},{"type":"function","name":"DT_BOOL_PUB","inputs":[],"outputs":[{"name":"","type":"uint8","internalType":"uint8"}],"stateMutability":"pure"},{"type":"function","name":"DT_BYTES32_ARR_PUB","inputs":[],"outputs":[{"name":"","type":"uint8","internalType":"uint8"}],"stateMutability":"pure"},{"type":"function","name":"DT_BYTES32_PUB","inputs":[],"outputs":[{"name":"","type":"uint8","internalType":"uint8"}],"stateMutability":"pure"},{"type":"function","name":"DT_STRING_ARR_PUB","inputs":[],"outputs":[{"name":"","type":"uint8","internalType":"uint8"}],"stateMutability":"pure"},{"type":"function","name":"DT_STRING_PUB","inputs":[],"outputs":[{"name":"","type":"uint8","internalType":"uint8"}],"stateMutability":"pure"},{"type":"function","name":"DT_UINT256_PUB","inputs":[],"outputs":[{"name":"","type":"uint8","internalType":"uint8"}],"stateMutability":"pure"},{"type":"function","name":"ONTOLOGY","inputs":[],"outputs":[{"name":"","type":"address","internalType":"contract OntologyTermRegistry"}],"stateMutability":"view"},{"type":"function","name":"SA_FUND_ACCEPTED_KINDS","inputs":[],"outputs":[{"name":"","type":"bytes32","internalType":"bytes32"}],"stateMutability":"view"},{"type":"function","name":"SA_FUND_OPEN_FOR_CALLS","inputs":[],"outputs":[{"name":"","type":"bytes32","internalType":"bytes32"}],"stateMutability":"view"},{"type":"function","name":"SA_ROUND_AWARDS_ROOT","inputs":[],"outputs":[{"name":"","type":"bytes32","internalType":"bytes32"}],"stateMutability":"view"},{"type":"function","name":"SA_ROUND_DEADLINE","inputs":[],"outputs":[{"name":"","type":"bytes32","internalType":"bytes32"}],"stateMutability":"view"},{"type":"function","name":"SA_ROUND_DECISION_DATE","inputs":[],"outputs":[{"name":"","type":"bytes32","internalType":"bytes32"}],"stateMutability":"view"},{"type":"function","name":"SA_ROUND_DISPUTE_UNTIL","inputs":[],"outputs":[{"name":"","type":"bytes32","internalType":"bytes32"}],"stateMutability":"view"},{"type":"function","name":"SA_ROUND_FUND_AGENT","inputs":[],"outputs":[{"name":"","type":"bytes32","internalType":"bytes32"}],"stateMutability":"view"},{"type":"function","name":"SA_ROUND_OPENED_AT","inputs":[],"outputs":[{"name":"","type":"bytes32","internalType":"bytes32"}],"stateMutability":"view"},{"type":"function","name":"SA_ROUND_REPORTING_CADENCE","inputs":[],"outputs":[{"name":"","type":"bytes32","internalType":"bytes32"}],"stateMutability":"view"},{"type":"function","name":"SA_ROUND_REQUIRED_CREDENTIALS","inputs":[],"outputs":[{"name":"","type":"bytes32","internalType":"bytes32"}],"stateMutability":"view"},{"type":"function","name":"SA_ROUND_STATUS","inputs":[],"outputs":[{"name":"","type":"bytes32","internalType":"bytes32"}],"stateMutability":"view"},{"type":"function","name":"SA_ROUND_VISIBILITY","inputs":[],"outputs":[{"name":"","type":"bytes32","internalType":"bytes32"}],"stateMutability":"view"},{"type":"function","name":"SHAPES","inputs":[],"outputs":[{"name":"","type":"address","internalType":"contract ShapeRegistry"}],"stateMutability":"view"},{"type":"function","name":"allSubjects","inputs":[],"outputs":[{"name":"","type":"bytes32[]","internalType":"bytes32[]"}],"stateMutability":"view"},{"type":"function","name":"datatypeOf","inputs":[{"name":"subject","type":"bytes32","internalType":"bytes32"},{"name":"predicate","type":"bytes32","internalType":"bytes32"}],"outputs":[{"name":"","type":"uint8","internalType":"uint8"}],"stateMutability":"view"},{"type":"function","name":"getAddress","inputs":[{"name":"subject","type":"bytes32","internalType":"bytes32"},{"name":"predicate","type":"bytes32","internalType":"bytes32"}],"outputs":[{"name":"","type":"address","internalType":"address"}],"stateMutability":"view"},{"type":"function","name":"getAddressArr","inputs":[{"name":"subject","type":"bytes32","internalType":"bytes32"},{"name":"predicate","type":"bytes32","internalType":"bytes32"}],"outputs":[{"name":"","type":"address[]","internalType":"address[]"}],"stateMutability":"view"},{"type":"function","name":"getBool","inputs":[{"name":"subject","type":"bytes32","internalType":"bytes32"},{"name":"predicate","type":"bytes32","internalType":"bytes32"}],"outputs":[{"name":"","type":"bool","internalType":"bool"}],"stateMutability":"view"},{"type":"function","name":"getBytes32","inputs":[{"name":"subject","type":"bytes32","internalType":"bytes32"},{"name":"predicate","type":"bytes32","internalType":"bytes32"}],"outputs":[{"name":"","type":"bytes32","internalType":"bytes32"}],"stateMutability":"view"},{"type":"function","name":"getBytes32Arr","inputs":[{"name":"subject","type":"bytes32","internalType":"bytes32"},{"name":"predicate","type":"bytes32","internalType":"bytes32"}],"outputs":[{"name":"","type":"bytes32[]","internalType":"bytes32[]"}],"stateMutability":"view"},{"type":"function","name":"getFundAcceptedKinds","inputs":[{"name":"fundAgent","type":"address","internalType":"address"}],"outputs":[{"name":"","type":"bytes32[]","internalType":"bytes32[]"}],"stateMutability":"view"},{"type":"function","name":"getRoundAwardsRoot","inputs":[{"name":"round","type":"bytes32","internalType":"bytes32"}],"outputs":[{"name":"","type":"bytes32","internalType":"bytes32"}],"stateMutability":"view"},{"type":"function","name":"getRoundDeadline","inputs":[{"name":"round","type":"bytes32","internalType":"bytes32"}],"outputs":[{"name":"","type":"uint256","internalType":"uint256"}],"stateMutability":"view"},{"type":"function","name":"getRoundDecisionDate","inputs":[{"name":"round","type":"bytes32","internalType":"bytes32"}],"outputs":[{"name":"","type":"uint256","internalType":"uint256"}],"stateMutability":"view"},{"type":"function","name":"getRoundDisputeUntil","inputs":[{"name":"round","type":"bytes32","internalType":"bytes32"}],"outputs":[{"name":"","type":"uint256","internalType":"uint256"}],"stateMutability":"view"},{"type":"function","name":"getRoundFundAgent","inputs":[{"name":"round","type":"bytes32","internalType":"bytes32"}],"outputs":[{"name":"","type":"address","internalType":"address"}],"stateMutability":"view"},{"type":"function","name":"getRoundOpenedAt","inputs":[{"name":"round","type":"bytes32","internalType":"bytes32"}],"outputs":[{"name":"","type":"uint256","internalType":"uint256"}],"stateMutability":"view"},{"type":"function","name":"getRoundReportingCadence","inputs":[{"name":"round","type":"bytes32","internalType":"bytes32"}],"outputs":[{"name":"","type":"bytes32","internalType":"bytes32"}],"stateMutability":"view"},{"type":"function","name":"getRoundRequiredCredentials","inputs":[{"name":"round","type":"bytes32","internalType":"bytes32"}],"outputs":[{"name":"","type":"bytes32[]","internalType":"bytes32[]"}],"stateMutability":"view"},{"type":"function","name":"getRoundStatus","inputs":[{"name":"round","type":"bytes32","internalType":"bytes32"}],"outputs":[{"name":"","type":"bytes32","internalType":"bytes32"}],"stateMutability":"view"},{"type":"function","name":"getRoundVisibility","inputs":[{"name":"round","type":"bytes32","internalType":"bytes32"}],"outputs":[{"name":"","type":"bytes32","internalType":"bytes32"}],"stateMutability":"view"},{"type":"function","name":"getString","inputs":[{"name":"subject","type":"bytes32","internalType":"bytes32"},{"name":"predicate","type":"bytes32","internalType":"bytes32"}],"outputs":[{"name":"","type":"string","internalType":"string"}],"stateMutability":"view"},{"type":"function","name":"getStringArr","inputs":[{"name":"subject","type":"bytes32","internalType":"bytes32"},{"name":"predicate","type":"bytes32","internalType":"bytes32"}],"outputs":[{"name":"","type":"string[]","internalType":"string[]"}],"stateMutability":"view"},{"type":"function","name":"getUint","inputs":[{"name":"subject","type":"bytes32","internalType":"bytes32"},{"name":"predicate","type":"bytes32","internalType":"bytes32"}],"outputs":[{"name":"","type":"uint256","internalType":"uint256"}],"stateMutability":"view"},{"type":"function","name":"isFundOpenForCalls","inputs":[{"name":"fundAgent","type":"address","internalType":"address"}],"outputs":[{"name":"","type":"bool","internalType":"bool"}],"stateMutability":"view"},{"type":"function","name":"isSet","inputs":[{"name":"subject","type":"bytes32","internalType":"bytes32"},{"name":"predicate","type":"bytes32","internalType":"bytes32"}],"outputs":[{"name":"","type":"bool","internalType":"bool"}],"stateMutability":"view"},{"type":"function","name":"openRound","inputs":[{"name":"p","type":"tuple","internalType":"struct FundRegistry.OpenRoundParams","components":[{"name":"roundSubject","type":"bytes32","internalType":"bytes32"},{"name":"fundAgent","type":"address","internalType":"address"},{"name":"deadline","type":"uint256","internalType":"uint256"},{"name":"decisionDate","type":"uint256","internalType":"uint256"},{"name":"reportingCadence","type":"bytes32","internalType":"bytes32"},{"name":"requiredCredentials","type":"bytes32[]","internalType":"bytes32[]"},{"name":"visibility","type":"bytes32","internalType":"bytes32"},{"name":"initialStatus","type":"bytes32","internalType":"bytes32"}]}],"outputs":[],"stateMutability":"nonpayable"},{"type":"function","name":"predicatesOf","inputs":[{"name":"subject","type":"bytes32","internalType":"bytes32"}],"outputs":[{"name":"","type":"bytes32[]","internalType":"bytes32[]"}],"stateMutability":"view"},{"type":"function","name":"registerFund","inputs":[{"name":"fundAgent","type":"address","internalType":"address"},{"name":"acceptedKinds","type":"bytes32[]","internalType":"bytes32[]"},{"name":"openForCalls","type":"bool","internalType":"bool"}],"outputs":[],"stateMutability":"nonpayable"},{"type":"function","name":"roundSubject","inputs":[{"name":"roundId","type":"string","internalType":"string"}],"outputs":[{"name":"","type":"bytes32","internalType":"bytes32"}],"stateMutability":"pure"},{"type":"function","name":"setFundAcceptedKinds","inputs":[{"name":"fundAgent","type":"address","internalType":"address"},{"name":"kinds","type":"bytes32[]","internalType":"bytes32[]"}],"outputs":[],"stateMutability":"nonpayable"},{"type":"function","name":"setFundOpenForCalls","inputs":[{"name":"fundAgent","type":"address","internalType":"address"},{"name":"openForCalls","type":"bool","internalType":"bool"}],"outputs":[],"stateMutability":"nonpayable"},{"type":"function","name":"setRoundAwardsRoot","inputs":[{"name":"round","type":"bytes32","internalType":"bytes32"},{"name":"awardsRoot","type":"bytes32","internalType":"bytes32"},{"name":"disputeUntil","type":"uint256","internalType":"uint256"}],"outputs":[],"stateMutability":"nonpayable"},{"type":"function","name":"setRoundStatus","inputs":[{"name":"round","type":"bytes32","internalType":"bytes32"},{"name":"newStatus","type":"bytes32","internalType":"bytes32"}],"outputs":[],"stateMutability":"nonpayable"},{"type":"function","name":"subjectCount","inputs":[],"outputs":[{"name":"","type":"uint256","internalType":"uint256"}],"stateMutability":"view"},{"type":"function","name":"subjectVersion","inputs":[{"name":"subject","type":"bytes32","internalType":"bytes32"}],"outputs":[{"name":"","type":"uint64","internalType":"uint64"}],"stateMutability":"view"},{"type":"function","name":"updatedAt","inputs":[{"name":"subject","type":"bytes32","internalType":"bytes32"},{"name":"predicate","type":"bytes32","internalType":"bytes32"}],"outputs":[{"name":"","type":"uint64","internalType":"uint64"}],"stateMutability":"view"},{"type":"event","name":"AttributeAppended","inputs":[{"name":"subject","type":"bytes32","indexed":true,"internalType":"bytes32"},{"name":"predicate","type":"bytes32","indexed":true,"internalType":"bytes32"},{"name":"datatype","type":"uint8","indexed":false,"internalType":"uint8"},{"name":"version","type":"uint64","indexed":false,"internalType":"uint64"}],"anonymous":false},{"type":"event","name":"AttributeSet","inputs":[{"name":"subject","type":"bytes32","indexed":true,"internalType":"bytes32"},{"name":"predicate","type":"bytes32","indexed":true,"internalType":"bytes32"},{"name":"datatype","type":"uint8","indexed":false,"internalType":"uint8"},{"name":"version","type":"uint64","indexed":false,"internalType":"uint64"}],"anonymous":false},{"type":"event","name":"AttributeUnset","inputs":[{"name":"subject","type":"bytes32","indexed":true,"internalType":"bytes32"},{"name":"predicate","type":"bytes32","indexed":true,"internalType":"bytes32"},{"name":"version","type":"uint64","indexed":false,"internalType":"uint64"}],"anonymous":false},{"type":"event","name":"FundRegistered","inputs":[{"name":"fundAgent","type":"address","indexed":true,"internalType":"address"},{"name":"subject","type":"bytes32","indexed":false,"internalType":"bytes32"}],"anonymous":false},{"type":"event","name":"RoundAwardsRootSet","inputs":[{"name":"roundSubject","type":"bytes32","indexed":true,"internalType":"bytes32"},{"name":"awardsRoot","type":"bytes32","indexed":false,"internalType":"bytes32"},{"name":"disputeUntil","type":"uint256","indexed":false,"internalType":"uint256"}],"anonymous":false},{"type":"event","name":"RoundOpened","inputs":[{"name":"roundSubject","type":"bytes32","indexed":true,"internalType":"bytes32"},{"name":"fundAgent","type":"address","indexed":true,"internalType":"address"}],"anonymous":false},{"type":"event","name":"RoundStatusChanged","inputs":[{"name":"roundSubject","type":"bytes32","indexed":true,"internalType":"bytes32"},{"name":"newStatus","type":"bytes32","indexed":false,"internalType":"bytes32"}],"anonymous":false},{"type":"event","name":"SubjectFirstSeen","inputs":[{"name":"subject","type":"bytes32","indexed":true,"internalType":"bytes32"}],"anonymous":false},{"type":"error","name":"AttributeNotSet","inputs":[]},{"type":"error","name":"MissingFundAgent","inputs":[]},{"type":"error","name":"NotFundOwner","inputs":[]},{"type":"error","name":"PredicateNotActive","inputs":[]},{"type":"error","name":"RoundNotInitialized","inputs":[]}],"bytecode":{"object":"0x60c0346100a157601f612be938819003918201601f19168301916001600160401b038311848410176100a55780849260409485528339810103126100a157610052602061004b836100b9565b92016100b9565b6001600160a01b039182166080521660a052604051612b1b90816100ce82396080518181816105bc0152818161100d0152612499015260a05181818161137f0152818161177701526118e00152f35b5f80fd5b634e487b7160e01b5f52604160045260245ffd5b51906001600160a01b03821682036100a15756fe6080806040526004361015610012575f80fd5b5f905f3560e01c9081631899ebe414611d11575080631b9b8a7d14611cb857806320d1b3a314611c91578063213aaad714611c7657806326d2e8fa14611c4f5780632ce0465514611bf65780633001aaad14611b885780633054718114611b2457806331477b9b14611ae257806337d9d7fc14611ab35780633a0c0c1214611a8c5780633d5696f214611a655780634083843e146119fc57806342921cf3146119ca57806347f4dc1a146119905780634837f5911461190f57806355c964dd146118cb578063611f6c9c146118a4578063639a2e1014611887578063687837bf146116cb578063695eea29146116485780636e6a74eb14610f6e5780636fb3741614610f4657806379243c3114610f1e5780637a6ad92614610ef15780637d7f759614610e965780637dfd93fe14610e285780637f2c68d014610dcd57806385ed27c614610d7557806387533f3a14610d1a578063880eadce14610ce4578063886c766914610ca95780638e10136914610c8d5780638e21caca14610c5a5780638ebdd6d214610bff57806393cbc37d14610be357806398eaf11c14610bb1578063a954aea114610b95578063ac01f0e114610b5a578063b260c4f814610b32578063b3e40f7d14610b0a578063bb6b0c3b14610ad8578063bbb922f414610a6e578063be78c06814610a52578063bea06113146109bc578063c3174629146109a0578063c3a6123d1461091b578063c6fbc3b31461087f578063cb954f30146107a6578063d223042c146106e0578063d3a39686146106a9578063e4281bc3146105eb578063e63cdb42146105a6578063ece6bebc1461058a578063ee018a7814610562578063f4da688814610359578063f98eed691461033d5763fd71feef1461029c575f80fd5b3461033a57602036600319011261033a57604051633d356c9360e11b815260048035908201525f5160206129a65f395f51905f52602482015290602082604481305afa90811561032e57906102f7575b602090604051908152f35b506020813d602011610326575b8161031160209383611def565b8101031261032257602090516102ec565b5f80fd5b3d9150610304565b604051903d90823e3d90fd5b80fd5b503461033a578060031936011261033a57602060405160088152f35b503461033a57606036600319011261033a5760043560243560443560405163bb6b0c3b60e01b81528360048201525f516020612ac65f395f51905f526024820152602081604481305afa908115610516578591610533575b5015610521576040516369d1cb4360e11b8152600481018490525f516020612ac65f395f51905f526024820152602081604481305afa8015610516576104009186916104e7575b50339061204c565b156104d8577f174edea277b8be769118be834e4b7de236f1430e1fecf6409930c4a7d69bd809916040916104405f516020612a865f395f51905f5261247c565b84865260046020528286205f516020612a865f395f51905f528752602052818387205561047a5f516020612a865f395f51905f5286612507565b6104905f5160206129a65f395f51905f5261247c565b84865260036020528286205f5160206129a65f395f51905f52875260205280838720556104ca5f5160206129a65f395f51905f5286612671565b82519182526020820152a280f35b63b3545ef360e01b8452600484fd5b610509915060203d60201161050f575b6105018183611def565b810190611f98565b5f6103f8565b503d6104f7565b6040513d87823e3d90fd5b60016236173b60e01b03198452600484fd5b610555915060203d60201161055b575b61054d8183611def565b810190611f80565b5f6103b1565b503d610543565b503461033a578060031936011261033a5760206040515f516020612aa65f395f51905f528152f35b503461033a578060031936011261033a57602060405160028152f35b503461033a578060031936011261033a576040517f00000000000000000000000000000000000000000000000000000000000000006001600160a01b03168152602090f35b503461033a576105fa36611d85565b90825260066020526040822090825260205260408120604051908160208254918281520190819285526020852090855b81811061068a5750505082610640910383611def565b604051928392602084019060208552518091526040840192915b818110610668575050500390f35b82516001600160a01b031684528594506020938401939092019160010161065a565b82546001600160a01b031684526020909301926001928301920161062a565b503461033a576020906106bb36611d85565b90825260018352604082209082528252604060018060a01b0391205416604051908152f35b503461033a57606036600319011261033a576106fa611d36565b6024356001600160401b0381116107a257610719903690600401611dbf565b919060443591821515830361079e57610732338261204c565b1561078f576001600160a01b031692610762929161075c9161075691369190612000565b846121cf565b826122a6565b7f2e8c8670ecb11a4402ca2675d9305ce3a10d15d46e80a85f8dfbf50305a30d566020604051838152a280f35b63b3545ef360e01b8552600485fd5b8480fd5b8280fd5b503461033a576107b536611d85565b9082526005602052604082209082526020526040812080546107d681611e24565b906107e46040519283611def565b80825260208201809385526020852085915b83831061086257868587604051928392602084019060208552518091526040840160408260051b8601019392905b82821061083357505050500390f35b919360019193955060206108528192603f198a82030186528851611d9b565b9601920192018594939192610824565b60016020819261087185611eb4565b8152019201920191906107f6565b503461033a57602036600319011261033a576004356001600160401b03811161091757366023820112156109175780600401356001600160401b0381116107a25736602482840101116107a2579161090c6029602094604051938185926024898501986839b09d3937bab7321d60b91b8a520185850137820190838201520301601f198101835282611def565b519020604051908152f35b5080fd5b503461033a578060031936011261033a5760405180916020600d54928381520191600d82527fd7b6990105719101dabeb77144f2a3385c8033acd3af97e9423a695e81ad1eb5915b81811061098a576109868561097a81870382611def565b60405191829182611d4c565b0390f35b8254845260209093019260019283019201610963565b503461033a578060031936011261033a57602060405160058152f35b503461033a57602036600319011261033a576109d6611d36565b60405163263abc4760e21b81526001600160a01b0390911660048201525f516020612aa65f395f51905f526024820152602081604481305afa908115610a475760209291610a2a575b506040519015158152f35b610a419150823d841161055b5761054d8183611def565b5f610a1f565b6040513d84823e3d90fd5b503461033a578060031936011261033a57602060405160048152f35b503461033a57604036600319011261033a57610a88611d36565b6024356001600160401b0381116107a257610aa7903690600401611dbf565b610ab1338461204c565b156104d857610ad59291610ac6913691612000565b906001600160a01b03166121cf565b80f35b503461033a5760ff6040602092610aee36611d85565b9082526009855282822090825284522054166040519015158152f35b503461033a578060031936011261033a5760206040515f516020612ac65f395f51905f528152f35b503461033a578060031936011261033a5760206040515f5160206129c65f395f51905f528152f35b503461033a578060031936011261033a5760206040517fcedb18faaf1bf0838e08e6042e662614086879cd24c7c99caa385fed122d32c58152f35b503461033a578060031936011261033a57602060405160018152f35b503461033a5760ff6040602092610bc736611d85565b9082526002855282822090825284522054166040519015158152f35b503461033a578060031936011261033a57602060405160038152f35b503461033a57602036600319011261033a57604051633d356c9360e11b815260048035908201525f5160206129c65f395f51905f52602482015290602082604481305afa90811561032e57906102f757602090604051908152f35b503461033a57602036600319011261033a576001600160401b0360406020926004358152600c8452205416604051908152f35b503461033a578060031936011261033a57602060405160068152f35b503461033a578060031936011261033a5760206040517f281587bb88fdeb6dfd58b1d6ca4fcea730e272e807a0a353912952d047917c4e8152f35b503461033a576001600160401b036040602092610d0036611d85565b908252600b85528282209082528452205416604051908152f35b503461033a57602036600319011261033a57604051633d356c9360e11b815260048035908201525f516020612a665f395f51905f52602482015290602082604481305afa90811561032e57906102f757602090604051908152f35b503461033a57604036600319011261033a57610d8f611d36565b6024359081151582036107a257610da6338261204c565b15610dbe57610ad591906001600160a01b03166122a6565b63b3545ef360e01b8352600483fd5b503461033a57602036600319011261033a57604051630df675ff60e21b815260048035908201525f5160206129e65f395f51905f52602482015290602082604481305afa90811561032e57906102f757602090604051908152f35b503461033a57602036600319011261033a57604051630df675ff60e21b815260048035908201527fcedb18faaf1bf0838e08e6042e662614086879cd24c7c99caa385fed122d32c5602482015290602082604481305afa90811561032e57906102f757602090604051908152f35b503461033a57602036600319011261033a57604051633d356c9360e11b815260048035908201525f516020612a065f395f51905f52602482015290602082604481305afa90811561032e57906102f757602090604051908152f35b503461033a576040602091610f0536611d85565b9082526003845282822090825283522054604051908152f35b503461033a578060031936011261033a5760206040515f516020612a265f395f51905f528152f35b503461033a578060031936011261033a5760206040515f5160206129865f395f51905f528152f35b503461033a57602036600319011261033a576004356001600160401b03811161091757806004019061010060031982360301126107a2576024810190610fbd610fb683611fb7565b339061204c565b156104d8576001600160a01b03610fd383611fb7565b161561163957823592610fe583611fb7565b60405163170da40760e21b81525f516020612ac65f395f51905f5260048201526020816024817f00000000000000000000000000000000000000000000000000000000000000006001600160a01b03165afa90811561162e57879161160f575b5015611600578486526001602052604086205f516020612ac65f395f51905f528752602052604086209060018060a01b03166bffffffffffffffffffffffff60a01b825416179055838552600e60205260ff604086205416156115c9575b8385526009602052604085205f516020612ac65f395f51905f52865260205260ff60408620541615611574575b838552600a602052604085205f516020612ac65f395f51905f52865260205260408520600260ff19825416179055838552600c60205260016001600160401b03604087205416016001600160401b03811161156057845f516020612a465f395f51905f5260405f516020612ac65f395f51905f5293838a52600c602052818a206001600160401b0382166001600160401b0319825416179055838a52600b602052818a20858b52602052818a206001600160401b0382166001600160401b03198254161790556001600160401b0382519160028352166020820152a36111c25f516020612a665f395f51905f5261247c565b8385526003602052604085205f516020612a665f395f51905f528652602052604482013560408620556112025f516020612a665f395f51905f5285612671565b6112185f5160206129c65f395f51905f5261247c565b8385526003602052604085205f5160206129c65f395f51905f528652602052606482013560408620556112585f5160206129c65f395f51905f5285612671565b61126e5f516020612a265f395f51905f5261247c565b8385526004602052604085205f516020612a265f395f51905f528652602052608482013560408620556112ae5f516020612a265f395f51905f5285612507565b60a48201906112bd8282611fcb565b9050611454575b505060e461132a916112e25f5160206129e65f395f51905f5261247c565b8486526004602052604086205f5160206129e65f395f51905f52875260205260c481013560408720556113225f5160206129e65f395f51905f5286612507565b013583612102565b6113405f516020612a065f395f51905f5261247c565b8183526003602052604083205f516020612a065f395f51905f52845260205242604084205561137c5f516020612a065f395f51905f5283612671565b827f00000000000000000000000000000000000000000000000000000000000000006001600160a01b0316803b156109175781606491604051928380926309abe27f60e01b82527f281587bb88fdeb6dfd58b1d6ca4fcea730e272e807a0a353912952d047917c4e60048301528860248301523060448301525afa8015610a475761143f575b506001600160a01b03916114169150611fb7565b16907fe110bcd5304b6c905d7b8b370a233a26adc95e4296d136d3c34e3cdb29feddc28380a380f35b8161144991611def565b6107a257825f611402565b61146b9161146491959395611fcb565b3691612000565b916114825f5160206129865f395f51905f5261247c565b8185526007602052604085205f5160206129865f395f51905f5286526020526040852080549086815581611542575b5050845b835181101561151b578286526007602052604086205f5160206129865f395f51905f528752602052604086208451821015611507579061150160019260208360051b88010151906121a8565b016114b5565b634e487b7160e01b87526032600452602487fd5b5091509160e461132a9161153c5f5160206129865f395f51905f52866127db565b916112c4565b865260208620908101905b818110156114b15786815560010161154d565b634e487b7160e01b86526011600452602486fd5b83855260086020526115965f516020612ac65f395f51905f52604087206121a8565b8385526009602052604085205f516020612ac65f395f51905f52865260205260408520600160ff198254161790556110d0565b838552600e60205260408520805460ff191660011790556115e98461214d565b835f5160206129665f395f51905f528680a26110a3565b632263bf1f60e21b8652600486fd5b611628915060203d60201161055b5761054d8183611def565b5f611045565b6040513d89823e3d90fd5b633d2aec7160e21b8452600484fd5b503461033a57602036600319011261033a576040516369d1cb4360e11b815260048035908201525f516020612ac65f395f51905f526024820152602081604481305afa908115610a4757602092916116ae575b506040516001600160a01b039091168152f35b6116c59150823d841161050f576105018183611def565b5f61169b565b5034610322576116da36611d85565b60405163bb6b0c3b60e01b8152600481018390525f516020612ac65f395f51905f526024820152602081604481305afa90811561183f575f91611868575b5015611859576040516369d1cb4360e11b8152600481018390525f516020612ac65f395f51905f526024820152602081604481305afa801561183f57611766915f916104e75750339061204c565b1561184a576117758183612102565b7f00000000000000000000000000000000000000000000000000000000000000006001600160a01b0316803b15610322575f606491604051928380926309abe27f60e01b82527f281587bb88fdeb6dfd58b1d6ca4fcea730e272e807a0a353912952d047917c4e60048301528760248301523060448301525afa801561183f57611829575b5060207fe7387dac8be34cbebb5ab9e0158f88510f74862a35935c47ab477749e3df33c791604051908152a280f35b6118369193505f90611def565b5f9160206117fa565b6040513d5f823e3d90fd5b63b3545ef360e01b5f5260045ffd5b63ffc9e8c560e01b5f5260045ffd5b611881915060203d60201161055b5761054d8183611def565b5f611718565b34610322575f366003190112610322576020600d54604051908152f35b34610322575f3660031901126103225760206040515f5160206129a65f395f51905f528152f35b34610322575f366003190112610322576040517f00000000000000000000000000000000000000000000000000000000000000006001600160a01b03168152602090f35b3461032257602036600319011261032257604051632041c21f60e11b815260048035908201525f5160206129865f395f51905f5260248201525f81604481305afa801561183f57610986915f9161196e575b5060405191829182611d4c565b61198a91503d805f833e6119828183611def565b810190611e3b565b82611961565b34610322575f3660031901126103225760206040517f0a093caf6af85ff58909af7ec5bc5bca8908fa3f4c103433b04f95c53df0248b8152f35b34610322576119d836611d85565b905f52600a60205260405f20905f52602052602060ff60405f205416604051908152f35b3461032257611a0a36611d85565b905f52600760205260405f20905f5260205260405f206040519081602082549182815201915f5260205f20905f5b818110611a4f576109868561097a81870382611def565b8254845260209093019260019283019201611a38565b34610322575f3660031901126103225760206040515f516020612a065f395f51905f528152f35b34610322575f3660031901126103225760206040515f516020612a665f395f51905f528152f35b3461032257611ac136611d85565b905f52600460205260405f20905f52602052602060405f2054604051908152f35b3461032257611af036611d85565b905f525f60205260405f20905f52602052610986611b1060405f20611eb4565b604051918291602083526020830190611d9b565b34610322576020366003190112610322576004355f52600860205260405f206040519081602082549182815201915f5260205f20905f5b818110611b72576109868561097a81870382611def565b8254845260209093019260019283019201611b5b565b3461032257602036600319011261032257611ba1611d36565b604051632041c21f60e11b81526001600160a01b0390911660048201525f5160206129465f395f51905f5260248201525f81604481305afa801561183f57610986915f9161196e575060405191829182611d4c565b3461032257602036600319011261032257604051630df675ff60e21b815260048035908201525f516020612a865f395f51905f526024820152602081604481305afa801561183f575f906102f757602090604051908152f35b34610322575f3660031901126103225760206040515f516020612a865f395f51905f528152f35b34610322575f36600319011261032257602060405160078152f35b34610322575f3660031901126103225760206040515f5160206129465f395f51905f528152f35b3461032257602036600319011261032257604051630df675ff60e21b815260048035908201525f516020612a265f395f51905f526024820152602081604481305afa801561183f575f906102f757602090604051908152f35b34610322575f36600319011261032257805f5160206129e65f395f51905f5260209252f35b600435906001600160a01b038216820361032257565b60206040818301928281528451809452019201905f5b818110611d6f5750505090565b8251845260209384019390920191600101611d62565b6040906003190112610322576004359060243590565b805180835260209291819084018484015e5f828201840152601f01601f1916010190565b9181601f84011215610322578235916001600160401b038311610322576020808501948460051b01011161032257565b90601f801991011681019081106001600160401b03821117611e1057604052565b634e487b7160e01b5f52604160045260245ffd5b6001600160401b038111611e105760051b60200190565b602081830312610322578051906001600160401b03821161032257019080601f83011215610322578151611e6e81611e24565b92611e7c6040519485611def565b81845260208085019260051b82010192831161032257602001905b828210611ea45750505090565b8151815260209182019101611e97565b90604051915f8154908160011c9260018316928315611f76575b602085108414611f62578487528693908115611f405750600114611efc575b50611efa92500383611def565b565b90505f9291925260205f20905f915b818310611f24575050906020611efa928201015f611eed565b6020919350806001915483858901015201910190918492611f0b565b905060209250611efa94915060ff191682840152151560051b8201015f611eed565b634e487b7160e01b5f52602260045260245ffd5b93607f1693611ece565b90816020910312610322575180151581036103225790565b9081602091031261032257516001600160a01b03811681036103225790565b356001600160a01b03811681036103225790565b903590601e198136030182121561032257018035906001600160401b03821161032257602001918160051b3603831361032257565b92919061200c81611e24565b9361201a6040519586611def565b602085838152019160051b810192831161032257905b82821061203c57505050565b8135815260209182019101612030565b90813b156120fc575f91829160405160208101916317aa5fb760e11b835260018060a01b0316602482015260248152612086604482611def565b51915afa3d156120f5573d6001600160401b038111611e1057604051906120b7601f8201601f191660200183611def565b81523d5f602083013e5b816120e7575b816120d0575090565b6120e4915060208082518301019101611f80565b90565b9050602081511015906120c7565b60606120c1565b50505f90565b7fcedb18faaf1bf0838e08e6042e662614086879cd24c7c99caa385fed122d32c590611efa926121318361247c565b815f52600460205260405f20835f5260205260405f2055612507565b600d54600160401b811015611e10576001810180600d5581101561219457600d5f527fd7b6990105719101dabeb77144f2a3385c8033acd3af97e9423a695e81ad1eb50155565b634e487b7160e01b5f52603260045260245ffd5b805490600160401b821015611e105760018201808255821015612194575f5260205f200155565b9190916121e85f5160206129465f395f51905f5261247c565b805f52600760205260405f205f5160206129465f395f51905f525f5260205260405f208054905f815581612288575b50505f5b835181101561226d57815f52600760205260405f205f5160206129465f395f51905f525f5260205260405f209084518110156121945761226760019260208360051b88010151906121a8565b0161221b565b50611efa9192505f5160206129465f395f51905f52906127db565b5f5260205f20908101905b81811015612217575f8155600101612293565b906122bd5f516020612aa65f395f51905f5261247c565b815f52600260205260405f205f516020612aa65f395f51905f525f5260205260405f209060ff8019835416911515161790555f516020612aa65f395f51905f5290805f52600e60205260ff60405f20541615612445575b805f52600960205260405f20825f5260205260ff60405f2054161561240a575b805f52600a60205260405f20825f5260205260405f20600360ff19825416179055805f52600c60205260016001600160401b0360405f205416016001600160401b0381116123f65760405f516020612a465f395f51905f5291835f52600c602052815f206001600160401b0382166001600160401b0319825416179055835f52600b602052815f20855f52602052815f206001600160401b0382166001600160401b03198254161790556001600160401b0382519160038352166020820152a3565b634e487b7160e01b5f52601160045260245ffd5b805f52600860205261241f8260405f206121a8565b805f52600960205260405f20825f5260205260405f20600160ff19825416179055612334565b805f52600e60205260405f20600160ff198254161790556124658161214d565b805f5160206129665f395f51905f525f80a2612314565b60405163170da40760e21b815260048101919091526020816024817f00000000000000000000000000000000000000000000000000000000000000006001600160a01b03165afa90811561183f575f916124e8575b50156124d957565b632263bf1f60e21b5f5260045ffd5b612501915060203d60201161055b5761054d8183611def565b5f6124d1565b805f52600e60205260ff60405f2054161561263a575b805f52600960205260405f20825f5260205260ff60405f205416156125ff575b805f52600a60205260405f20825f5260205260405f20600560ff19825416179055805f52600c60205260016001600160401b0360405f205416016001600160401b0381116123f65760405f516020612a465f395f51905f5291835f52600c602052815f206001600160401b0382166001600160401b0319825416179055835f52600b602052815f20855f52602052815f206001600160401b0382166001600160401b03198254161790556001600160401b0382519160058352166020820152a3565b805f5260086020526126148260405f206121a8565b805f52600960205260405f20825f5260205260405f20600160ff1982541617905561253d565b805f52600e60205260405f20600160ff1982541617905561265a8161214d565b805f5160206129665f395f51905f525f80a261251d565b805f52600e60205260ff60405f205416156127a4575b805f52600960205260405f20825f5260205260ff60405f20541615612769575b805f52600a60205260405f20825f5260205260405f20600460ff19825416179055805f52600c60205260016001600160401b0360405f205416016001600160401b0381116123f65760405f516020612a465f395f51905f5291835f52600c602052815f206001600160401b0382166001600160401b0319825416179055835f52600b602052815f20855f52602052815f206001600160401b0382166001600160401b03198254161790556001600160401b0382519160048352166020820152a3565b805f52600860205261277e8260405f206121a8565b805f52600960205260405f20825f5260205260405f20600160ff198254161790556126a7565b805f52600e60205260405f20600160ff198254161790556127c48161214d565b805f5160206129665f395f51905f525f80a2612687565b805f52600e60205260ff60405f2054161561290e575b805f52600960205260405f20825f5260205260ff60405f205416156128d3575b805f52600a60205260405f20825f5260205260405f20600860ff19825416179055805f52600c60205260016001600160401b0360405f205416016001600160401b0381116123f65760405f516020612a465f395f51905f5291835f52600c602052815f206001600160401b0382166001600160401b0319825416179055835f52600b602052815f20855f52602052815f206001600160401b0382166001600160401b03198254161790556001600160401b0382519160088352166020820152a3565b805f5260086020526128e88260405f206121a8565b805f52600960205260405f20825f5260205260405f20600160ff19825416179055612811565b805f52600e60205260405f20600160ff1982541617905561292e8161214d565b805f5160206129665f395f51905f525f80a26127f156fef4fb0792a6ddcfab734dec06731eb8749c30e325a348844fc359e200b6a75b1c34f1cb4778d9578e1af878b07d3ae7e9f2f32fafcaa3096fe48153670a71bfaf53dfd24377939e89a626dc61c5a37ebfdaf3f0ed448a4a5da753cafe05638c081f6b5c92f11d418c2ed2b2fcb985077a715bafa6c55a66310122255054cb7f543a7259b22422608a7552616285e21d0cde6337b20445b38e286ebc9d5358b52e88e94ac17dd709171964cda79d07d8e32be9c2b743970d84aa92a173f20e45a095db22303fd5ae29c4446eaf37b555c427b1d79b2729b36bec3932ff7fd87f02b5b7fdeab3b45785910fc613026dae52a9939b9e0ed430fb0d4096a8b141243f5167ea251eeaf052f4c7bd769efb5b17e6ba98908050b9929a0bd192b57274fbd64ffd6f58f2c848a7e5bd1f1f0ae77823f9ae773e4a981874fdad1ab58c5f7ee7ed0b367f80e2e4289c8c2f125cfbaede7175a21ff959cff1f2b2206d9e6ef617e7af9195167a7d25021113380a5929bcf89456e48efdef2b7e264260599a0810c72a82595a7b5308a947d902eb0b8d1aa6f516b975d88a8f7a7129d6d71c55a26469706673582212201f6c95647d2d59f4b0f8031cc7c109a72df5138b3e14e91b8f9902a253a737e964736f6c634300081c0033","linkReferences":{}},"methodIdentifiers":{"CLASS_FUND()":"47f4dc1a","CLASS_ROUND()":"886c7669","DT_ADDRESS_ARR_PUB()":"213aaad7","DT_ADDRESS_PUB()":"ece6bebc","DT_BOOL_PUB()":"93cbc37d","DT_BYTES32_ARR_PUB()":"f98eed69","DT_BYTES32_PUB()":"c3174629","DT_STRING_ARR_PUB()":"8e101369","DT_STRING_PUB()":"a954aea1","DT_UINT256_PUB()":"be78c068","ONTOLOGY()":"e63cdb42","SA_FUND_ACCEPTED_KINDS()":"20d1b3a3","SA_FUND_OPEN_FOR_CALLS()":"ee018a78","SA_ROUND_AWARDS_ROOT()":"26d2e8fa","SA_ROUND_DEADLINE()":"3a0c0c12","SA_ROUND_DECISION_DATE()":"b260c4f8","SA_ROUND_DISPUTE_UNTIL()":"611f6c9c","SA_ROUND_FUND_AGENT()":"b3e40f7d","SA_ROUND_OPENED_AT()":"3d5696f2","SA_ROUND_REPORTING_CADENCE()":"79243c31","SA_ROUND_REQUIRED_CREDENTIALS()":"6fb37416","SA_ROUND_STATUS()":"ac01f0e1","SA_ROUND_VISIBILITY()":"1899ebe4","SHAPES()":"55c964dd","allSubjects()":"c3a6123d","datatypeOf(bytes32,bytes32)":"42921cf3","getAddress(bytes32,bytes32)":"d3a39686","getAddressArr(bytes32,bytes32)":"e4281bc3","getBool(bytes32,bytes32)":"98eaf11c","getBytes32(bytes32,bytes32)":"37d9d7fc","getBytes32Arr(bytes32,bytes32)":"4083843e","getFundAcceptedKinds(address)":"3001aaad","getRoundAwardsRoot(bytes32)":"2ce04655","getRoundDeadline(bytes32)":"87533f3a","getRoundDecisionDate(bytes32)":"8ebdd6d2","getRoundDisputeUntil(bytes32)":"fd71feef","getRoundFundAgent(bytes32)":"695eea29","getRoundOpenedAt(bytes32)":"7d7f7596","getRoundReportingCadence(bytes32)":"1b9b8a7d","getRoundRequiredCredentials(bytes32)":"4837f591","getRoundStatus(bytes32)":"7dfd93fe","getRoundVisibility(bytes32)":"7f2c68d0","getString(bytes32,bytes32)":"31477b9b","getStringArr(bytes32,bytes32)":"cb954f30","getUint(bytes32,bytes32)":"7a6ad926","isFundOpenForCalls(address)":"bea06113","isSet(bytes32,bytes32)":"bb6b0c3b","openRound((bytes32,address,uint256,uint256,bytes32,bytes32[],bytes32,bytes32))":"6e6a74eb","predicatesOf(bytes32)":"30547181","registerFund(address,bytes32[],bool)":"d223042c","roundSubject(string)":"c6fbc3b3","setFundAcceptedKinds(address,bytes32[])":"bbb922f4","setFundOpenForCalls(address,bool)":"85ed27c6","setRoundAwardsRoot(bytes32,bytes32,uint256)":"f4da6888","setRoundStatus(bytes32,bytes32)":"687837bf","subjectCount()":"639a2e10","subjectVersion(bytes32)":"8e21caca","updatedAt(bytes32,bytes32)":"880eadce"},"id":93}