{"abi":[{"type":"constructor","inputs":[{"name":"ontologyRegistry","type":"address","internalType":"address"},{"name":"shapes","type":"address","internalType":"address"}],"stateMutability":"nonpayable"},{"type":"function","name":"CLASS_MATCH_INITIATION","inputs":[],"outputs":[{"name":"","type":"bytes32","internalType":"bytes32"}],"stateMutability":"view"},{"type":"function","name":"DT_ADDRESS_ARR_PUB","inputs":[],"outputs":[{"name":"","type":"uint8","internalType":"uint8"}],"stateMutability":"pure"},{"type":"function","name":"DT_ADDRESS_PUB","inputs":[],"outputs":[{"name":"","type":"uint8","internalType":"uint8"}],"stateMutability":"pure"},{"type":"function","name":"DT_BOOL_PUB","inputs":[],"outputs":[{"name":"","type":"uint8","internalType":"uint8"}],"stateMutability":"pure"},{"type":"function","name":"DT_BYTES32_ARR_PUB","inputs":[],"outputs":[{"name":"","type":"uint8","internalType":"uint8"}],"stateMutability":"pure"},{"type":"function","name":"DT_BYTES32_PUB","inputs":[],"outputs":[{"name":"","type":"uint8","internalType":"uint8"}],"stateMutability":"pure"},{"type":"function","name":"DT_STRING_ARR_PUB","inputs":[],"outputs":[{"name":"","type":"uint8","internalType":"uint8"}],"stateMutability":"pure"},{"type":"function","name":"DT_STRING_PUB","inputs":[],"outputs":[{"name":"","type":"uint8","internalType":"uint8"}],"stateMutability":"pure"},{"type":"function","name":"DT_UINT256_PUB","inputs":[],"outputs":[{"name":"","type":"uint8","internalType":"uint8"}],"stateMutability":"pure"},{"type":"function","name":"ONTOLOGY","inputs":[],"outputs":[{"name":"","type":"address","internalType":"contract OntologyTermRegistry"}],"stateMutability":"view"},{"type":"function","name":"SA_MI_BASIS","inputs":[],"outputs":[{"name":"","type":"bytes32","internalType":"bytes32"}],"stateMutability":"view"},{"type":"function","name":"SA_MI_CANDIDATE_INTENT","inputs":[],"outputs":[{"name":"","type":"bytes32","internalType":"bytes32"}],"stateMutability":"view"},{"type":"function","name":"SA_MI_INITIATION_KIND","inputs":[],"outputs":[{"name":"","type":"bytes32","internalType":"bytes32"}],"stateMutability":"view"},{"type":"function","name":"SA_MI_INITIATOR_NULLIFIER","inputs":[],"outputs":[{"name":"","type":"bytes32","internalType":"bytes32"}],"stateMutability":"view"},{"type":"function","name":"SA_MI_PROPOSED_AT","inputs":[],"outputs":[{"name":"","type":"bytes32","internalType":"bytes32"}],"stateMutability":"view"},{"type":"function","name":"SA_MI_STATUS","inputs":[],"outputs":[{"name":"","type":"bytes32","internalType":"bytes32"}],"stateMutability":"view"},{"type":"function","name":"SA_MI_UPDATED_AT","inputs":[],"outputs":[{"name":"","type":"bytes32","internalType":"bytes32"}],"stateMutability":"view"},{"type":"function","name":"SA_MI_VIEWED_INTENT","inputs":[],"outputs":[{"name":"","type":"bytes32","internalType":"bytes32"}],"stateMutability":"view"},{"type":"function","name":"SA_MI_VISIBILITY","inputs":[],"outputs":[{"name":"","type":"bytes32","internalType":"bytes32"}],"stateMutability":"view"},{"type":"function","name":"SHAPES","inputs":[],"outputs":[{"name":"","type":"address","internalType":"contract ShapeRegistry"}],"stateMutability":"view"},{"type":"function","name":"allSubjects","inputs":[],"outputs":[{"name":"","type":"bytes32[]","internalType":"bytes32[]"}],"stateMutability":"view"},{"type":"function","name":"create","inputs":[{"name":"p","type":"tuple","internalType":"struct MatchInitiationRegistry.CreateParams","components":[{"name":"viewedIntentId","type":"string","internalType":"string"},{"name":"candidateIntentId","type":"string","internalType":"string"},{"name":"initiatorNullifier","type":"bytes32","internalType":"bytes32"},{"name":"initiationKind","type":"bytes32","internalType":"bytes32"},{"name":"visibility","type":"bytes32","internalType":"bytes32"},{"name":"basisJson","type":"string","internalType":"string"},{"name":"publisher","type":"address","internalType":"address"}]}],"outputs":[],"stateMutability":"nonpayable"},{"type":"function","name":"datatypeOf","inputs":[{"name":"subject","type":"bytes32","internalType":"bytes32"},{"name":"predicate","type":"bytes32","internalType":"bytes32"}],"outputs":[{"name":"","type":"uint8","internalType":"uint8"}],"stateMutability":"view"},{"type":"function","name":"getAddress","inputs":[{"name":"subject","type":"bytes32","internalType":"bytes32"},{"name":"predicate","type":"bytes32","internalType":"bytes32"}],"outputs":[{"name":"","type":"address","internalType":"address"}],"stateMutability":"view"},{"type":"function","name":"getAddressArr","inputs":[{"name":"subject","type":"bytes32","internalType":"bytes32"},{"name":"predicate","type":"bytes32","internalType":"bytes32"}],"outputs":[{"name":"","type":"address[]","internalType":"address[]"}],"stateMutability":"view"},{"type":"function","name":"getBool","inputs":[{"name":"subject","type":"bytes32","internalType":"bytes32"},{"name":"predicate","type":"bytes32","internalType":"bytes32"}],"outputs":[{"name":"","type":"bool","internalType":"bool"}],"stateMutability":"view"},{"type":"function","name":"getBytes32","inputs":[{"name":"subject","type":"bytes32","internalType":"bytes32"},{"name":"predicate","type":"bytes32","internalType":"bytes32"}],"outputs":[{"name":"","type":"bytes32","internalType":"bytes32"}],"stateMutability":"view"},{"type":"function","name":"getBytes32Arr","inputs":[{"name":"subject","type":"bytes32","internalType":"bytes32"},{"name":"predicate","type":"bytes32","internalType":"bytes32"}],"outputs":[{"name":"","type":"bytes32[]","internalType":"bytes32[]"}],"stateMutability":"view"},{"type":"function","name":"getString","inputs":[{"name":"subject","type":"bytes32","internalType":"bytes32"},{"name":"predicate","type":"bytes32","internalType":"bytes32"}],"outputs":[{"name":"","type":"string","internalType":"string"}],"stateMutability":"view"},{"type":"function","name":"getStringArr","inputs":[{"name":"subject","type":"bytes32","internalType":"bytes32"},{"name":"predicate","type":"bytes32","internalType":"bytes32"}],"outputs":[{"name":"","type":"string[]","internalType":"string[]"}],"stateMutability":"view"},{"type":"function","name":"getUint","inputs":[{"name":"subject","type":"bytes32","internalType":"bytes32"},{"name":"predicate","type":"bytes32","internalType":"bytes32"}],"outputs":[{"name":"","type":"uint256","internalType":"uint256"}],"stateMutability":"view"},{"type":"function","name":"isSet","inputs":[{"name":"subject","type":"bytes32","internalType":"bytes32"},{"name":"predicate","type":"bytes32","internalType":"bytes32"}],"outputs":[{"name":"","type":"bool","internalType":"bool"}],"stateMutability":"view"},{"type":"function","name":"miSubject","inputs":[{"name":"viewedIntentId","type":"string","internalType":"string"},{"name":"candidateIntentId","type":"string","internalType":"string"},{"name":"initiatorNullifier","type":"bytes32","internalType":"bytes32"}],"outputs":[{"name":"","type":"bytes32","internalType":"bytes32"}],"stateMutability":"pure"},{"type":"function","name":"predicatesOf","inputs":[{"name":"subject","type":"bytes32","internalType":"bytes32"}],"outputs":[{"name":"","type":"bytes32[]","internalType":"bytes32[]"}],"stateMutability":"view"},{"type":"function","name":"setStatus","inputs":[{"name":"miSubj","type":"bytes32","internalType":"bytes32"},{"name":"newStatus","type":"bytes32","internalType":"bytes32"},{"name":"publisher","type":"address","internalType":"address"}],"outputs":[],"stateMutability":"nonpayable"},{"type":"function","name":"subjectCount","inputs":[],"outputs":[{"name":"","type":"uint256","internalType":"uint256"}],"stateMutability":"view"},{"type":"function","name":"subjectVersion","inputs":[{"name":"subject","type":"bytes32","internalType":"bytes32"}],"outputs":[{"name":"","type":"uint64","internalType":"uint64"}],"stateMutability":"view"},{"type":"function","name":"updatedAt","inputs":[{"name":"subject","type":"bytes32","internalType":"bytes32"},{"name":"predicate","type":"bytes32","internalType":"bytes32"}],"outputs":[{"name":"","type":"uint64","internalType":"uint64"}],"stateMutability":"view"},{"type":"event","name":"AttributeAppended","inputs":[{"name":"subject","type":"bytes32","indexed":true,"internalType":"bytes32"},{"name":"predicate","type":"bytes32","indexed":true,"internalType":"bytes32"},{"name":"datatype","type":"uint8","indexed":false,"internalType":"uint8"},{"name":"version","type":"uint64","indexed":false,"internalType":"uint64"}],"anonymous":false},{"type":"event","name":"AttributeSet","inputs":[{"name":"subject","type":"bytes32","indexed":true,"internalType":"bytes32"},{"name":"predicate","type":"bytes32","indexed":true,"internalType":"bytes32"},{"name":"datatype","type":"uint8","indexed":false,"internalType":"uint8"},{"name":"version","type":"uint64","indexed":false,"internalType":"uint64"}],"anonymous":false},{"type":"event","name":"AttributeUnset","inputs":[{"name":"subject","type":"bytes32","indexed":true,"internalType":"bytes32"},{"name":"predicate","type":"bytes32","indexed":true,"internalType":"bytes32"},{"name":"version","type":"uint64","indexed":false,"internalType":"uint64"}],"anonymous":false},{"type":"event","name":"MatchInitiationCreated","inputs":[{"name":"miSubject","type":"bytes32","indexed":true,"internalType":"bytes32"},{"name":"initiatorNullifier","type":"bytes32","indexed":true,"internalType":"bytes32"},{"name":"visibility","type":"bytes32","indexed":false,"internalType":"bytes32"}],"anonymous":false},{"type":"event","name":"MatchInitiationStatusChanged","inputs":[{"name":"miSubject","type":"bytes32","indexed":true,"internalType":"bytes32"},{"name":"newStatus","type":"bytes32","indexed":false,"internalType":"bytes32"}],"anonymous":false},{"type":"event","name":"SubjectFirstSeen","inputs":[{"name":"subject","type":"bytes32","indexed":true,"internalType":"bytes32"}],"anonymous":false},{"type":"error","name":"AttributeNotSet","inputs":[]},{"type":"error","name":"MatchInitiationNotFound","inputs":[]},{"type":"error","name":"NotInitiator","inputs":[]},{"type":"error","name":"PredicateNotActive","inputs":[]}],"bytecode":{"object":"0x60c03461009357601f611f6238819003918201601f19168301916001600160401b0383118484101761009757808492604094855283398101031261009357610052602061004b836100ab565b92016100ab565b6001600160a01b039182166080521660a052604051611ea290816100c0823960805181818161025b01526117a8015260a05181818161099001526110070152f35b5f80fd5b634e487b7160e01b5f52604160045260245ffd5b51906001600160a01b03821682036100935756fe60806040526004361015610011575f80fd5b5f5f3560e01c80621f35f114610c22578063057d7e0e14610bfa5780630a83b6d114610bd25780630d16e11514610baa57806312a8665e14610b82578063213aaad714610b6657806325a24ed414610b2b5780633054718114610ac757806331477b9b14610a8557806337d9d7fc14610a585780634083843e146109ef57806342921cf3146109bf57806355c964dd1461097a578063639a2e101461095c57806366c5ce90146109345780637a6ad9261461090757806380c767fe14610884578063880eadce1461084e5780638d993fb0146106825780638e101369146106665780638e21caca1461063357806393cbc37d1461061757806398eaf11c146105e5578063a82cafd6146105bd578063a954aea1146105a1578063bb6b0c3b1461056f578063be78c06814610553578063c317462914610537578063c3a6123d146104b2578063cb954f30146103ba578063d3a3968614610383578063da1f4e3414610348578063e4281bc31461028a578063e63cdb4214610245578063eb3e7b071461021d578063ece6bebc14610201578063f6fb6ad2146101d95763f98eed69146101bb575f80fd5b346101d657806003193601126101d657602060405160088152f35b80fd5b50346101d657806003193601126101d65760206040515f516020611d8d5f395f51905f528152f35b50346101d657806003193601126101d657602060405160028152f35b50346101d657806003193601126101d65760206040515f516020611ded5f395f51905f528152f35b50346101d657806003193601126101d6576040517f00000000000000000000000000000000000000000000000000000000000000006001600160a01b03168152602090f35b50346101d65761029936611425565b90825260066020526040822090825260205260408120604051908160208254918281520190819285526020852090855b81811061032957505050826102df9103836114be565b604051928392602084019060208552518091526040840192915b818110610307575050500390f35b82516001600160a01b03168452859450602093840193909201916001016102f9565b82546001600160a01b03168452602090930192600192830192016102c9565b50346101d657806003193601126101d65760206040517fad175b6d224eda031b4f17f8051901bb7aba8147f4cddca3a7748db902c5400a8152f35b50346101d65760209061039536611425565b90825260018352604082209082528252604060018060a01b0391205416604051908152f35b50346101d6576103c936611425565b9082526005602052604082209082526020526040812080546001600160401b03811161049e576040519061040360208260051b01836114be565b80825260208201809385526020852085915b83831061048157868587604051928392602084019060208552518091526040840160408260051b8601019392905b82821061045257505050500390f35b919360019193955060206104718192603f198a8203018652885161143b565b9601920192018594939192610443565b60016020819261049085611568565b815201920192019190610415565b634e487b7160e01b83526041600452602483fd5b50346101d657806003193601126101d65760405180916020600d54928381520191600d82527fd7b6990105719101dabeb77144f2a3385c8033acd3af97e9423a695e81ad1eb5915b8181106105215761051d85610511818703826114be565b604051918291826113ec565b0390f35b82548452602090930192600192830192016104fa565b50346101d657806003193601126101d657602060405160058152f35b50346101d657806003193601126101d657602060405160048152f35b50346101d65760ff604060209261058536611425565b9082526009855282822090825284522054166040519015158152f35b50346101d657806003193601126101d657602060405160018152f35b50346101d657806003193601126101d65760206040515f516020611dad5f395f51905f528152f35b50346101d65760ff60406020926105fb36611425565b9082526002855282822090825284522054166040519015158152f35b50346101d657806003193601126101d657602060405160038152f35b50346101d65760203660031901126101d6576001600160401b0360406020926004358152600c8452205416604051908152f35b50346101d657806003193601126101d657602060405160068152f35b50346101d65760603660031901126101d6576004356024356044356001600160a01b038116810361084a576106b8903390611620565b1561083b576040516331477b9b60e01b8152600481018390525f516020611e2d5f395f51905f5260248201528381604481305afa9081156108305784916107b1575b5060208151910120836040516107116020826114be565b52838020146107a25760207f88798ea4494236ee41d0137a2036c55013e53774fbb242b638153276837b5101916107545f516020611d8d5f395f51905f5261178b565b83855260048252604085205f516020611d8d5f395f51905f528652825280604086205561078e5f516020611d8d5f395f51905f5285611a4c565b6107984285611740565b604051908152a280f35b63512fb2ff60e01b8352600483fd5b9050833d8082843e6107c381846114be565b82019160208184031261082c578051906001600160401b038211610828570182601f8201121561082c5780516107f8816114df565b9361080660405195866114be565b81855260208284010111610828578060208093018386015e830101525f6106fa565b8280fd5b5080fd5b6040513d86823e3d90fd5b63215af1ad60e11b8352600483fd5b8380fd5b50346101d6576001600160401b03604060209261086a36611425565b908252600b85528282209082528452205416604051908152f35b50346101d65760603660031901126101d6576004356001600160401b03811161082c576108b590369060040161145f565b9091602435906001600160401b0382116101d65760206108ff85856108f96108ed6108e33660048a0161145f565b94909336916114fa565b916044359336916114fa565b906116c7565b604051908152f35b50346101d657604060209161091b36611425565b9082526003845282822090825283522054604051908152f35b50346101d657806003193601126101d65760206040515f516020611e4d5f395f51905f528152f35b50346101d657806003193601126101d6576020600d54604051908152f35b50346101d657806003193601126101d6576040517f00000000000000000000000000000000000000000000000000000000000000006001600160a01b03168152602090f35b50346101d65760ff60406020926109d536611425565b908252600a85528282209082528452205416604051908152f35b50346101d6576109fe36611425565b90825260076020526040822090825260205260408120604051918260208354918281520192825260208220915b818110610a425761051d85610511818703826114be565b8254845260209093019260019283019201610a2b565b50346101d6576040602091610a6c36611425565b9082526004845282822090825283522054604051908152f35b50346101d657610ab3604061051d92610a9d36611425565b9082528160205282822090825260205220611568565b60405191829160208352602083019061143b565b50346101d65760203660031901126101d6576004358152600860205260408120604051918260208354918281520192825260208220915b818110610b155761051d85610511818703826114be565b8254845260209093019260019283019201610afe565b50346101d657806003193601126101d65760206040517f17c1a280c18008cc767d4d1a550ddd8b4a2b6a7211ad9eb8ea684f254e76305e8152f35b50346101d657806003193601126101d657602060405160078152f35b50346101d657806003193601126101d65760206040515f516020611d6d5f395f51905f528152f35b50346101d657806003193601126101d65760206040515f516020611dcd5f395f51905f528152f35b50346101d657806003193601126101d65760206040515f516020611e0d5f395f51905f528152f35b50346101d657806003193601126101d65760206040515f516020611e2d5f395f51905f528152f35b50346110da5760203660031901126110da576004356001600160401b0381116110da57806004019060e060031982360301126110da5760c48101356001600160a01b03811681036110da57610c78903390611620565b156113dd57610c87828061148c565b919092610cbb60248301936108f9610c9f868561148c565b9190610cb36044880135998a9536916114fa565b9236916114fa565b92610cd0610cc9838061148c565b36916114fa565b610ce65f516020611e2d5f395f51905f5261178b565b845f525f60205260405f205f516020611e2d5f395f51905f525f5260205260405f20908051906001600160401b03821161125057610d248354611530565b601f8111611398575b50602090601f831160011461132d579180610cc99492610d8096945f92611322575b50508160011b915f199060031b1c19161790555b610d7a5f516020611e2d5f395f51905f52876118a8565b8361148c565b610d965f516020611dcd5f395f51905f5261178b565b835f525f60205260405f205f516020611dcd5f395f51905f525f5260205260405f20908051906001600160401b038211611250578190610dd68454611530565b601f81116112d2575b50602090601f831160011461126f575f92611264575b50508160011b915f199060031b1c19161790555b610e205f516020611dcd5f395f51905f52846118a8565b610e365f516020611e0d5f395f51905f5261178b565b825f52600460205260405f205f516020611e0d5f395f51905f525f526020528360405f2055610e725f516020611e0d5f395f51905f5284611a4c565b610e885f516020611e4d5f395f51905f5261178b565b825f52600460205260405f205f516020611e4d5f395f51905f525f52602052606482013560405f2055610ec85f516020611e4d5f395f51905f5284611a4c565b60a4608483013592610ee65f516020611dad5f395f51905f5261178b565b845f52600460205260405f205f516020611dad5f395f51905f525f526020528360405f2055610f225f516020611dad5f395f51905f5286611a4c565b610f385f516020611d8d5f395f51905f5261178b565b845f52600460205260405f205f516020611d8d5f395f51905f525f526020527fcaf2790aca888022b4affd78805f489a8f3192139921a3c29d398c0a42928e8060405f2055610f945f516020611d8d5f395f51905f5286611a4c565b0190610fa0828261148c565b90506110de575b5050610fbf5f516020611ded5f395f51905f5261178b565b815f52600360205260405f205f516020611ded5f395f51905f525f526020524260405f2055610ffb5f516020611ded5f395f51905f5283611bdc565b6110054283611740565b7f00000000000000000000000000000000000000000000000000000000000000006001600160a01b0316803b156110da575f606491604051928380926309abe27f60e01b82527fad175b6d224eda031b4f17f8051901bb7aba8147f4cddca3a7748db902c5400a60048301528760248301523060448301525afa80156110cf576110b9575b5060207f5008967aa999142a1af1c18a0e5c37678f9f74a0e9ec5afbfe6669c6f9073ee691604051908152a380f35b6110c69194505f906114be565b5f92602061108a565b6040513d5f823e3d90fd5b5f80fd5b6110eb91610cc99161148c565b6111015f516020611d6d5f395f51905f5261178b565b825f525f60205260405f205f516020611d6d5f395f51905f525f5260205260405f20908051906001600160401b0382116112505781906111418454611530565b601f8111611200575b50602090601f831160011461119d575f92611192575b50508160011b915f199060031b1c19161790555b61118b5f516020611d6d5f395f51905f52836118a8565b5f80610fa7565b015190505f80611160565b5f8581528281209350601f198516905b8181106111e857509084600195949392106111d0575b505050811b019055611174565b01515f1960f88460031b161c191690555f80806111c3565b929360206001819287860151815501950193016111ad565b909150835f5260205f20601f840160051c81019160208510611246575b90601f859493920160051c01905b818110611238575061114a565b5f815584935060010161122b565b909150819061121d565b634e487b7160e01b5f52604160045260245ffd5b015190505f80610df5565b5f8581528281209350601f198516905b8181106112ba57509084600195949392106112a2575b505050811b019055610e09565b01515f1960f88460031b161c191690555f8080611295565b9293602060018192878601518155019501930161127f565b909150835f5260205f20601f840160051c81019160208510611318575b90601f859493920160051c01905b81811061130a5750610ddf565b5f81558493506001016112fd565b90915081906112ef565b015190505f80610d4f565b90601f19831691845f52815f20925f5b8181106113805750926001928592610d809896610cc9989610611368575b505050811b019055610d63565b01515f1960f88460031b161c191690555f808061135b565b9293602060018192878601518155019501930161133d565b835f5260205f20601f840160051c810191602085106113d3575b601f0160051c01905b8181106113c85750610d2d565b5f81556001016113bb565b90915081906113b2565b63215af1ad60e11b5f5260045ffd5b60206040818301928281528451809452019201905f5b81811061140f5750505090565b8251845260209384019390920191600101611402565b60409060031901126110da576004359060243590565b805180835260209291819084018484015e5f828201840152601f01601f1916010190565b9181601f840112156110da578235916001600160401b0383116110da57602083818601950101116110da57565b903590601e19813603018212156110da57018035906001600160401b0382116110da576020019181360383136110da57565b90601f801991011681019081106001600160401b0382111761125057604052565b6001600160401b03811161125057601f01601f191660200190565b929192611506826114df565b9161151460405193846114be565b8294818452818301116110da578281602093845f960137010152565b90600182811c9216801561155e575b602083101461154a57565b634e487b7160e01b5f52602260045260245ffd5b91607f169161153f565b9060405191825f82549261157b84611530565b80845293600181169081156115e657506001146115a2575b506115a0925003836114be565b565b90505f9291925260205f20905f915b8183106115ca5750509060206115a0928201015f611593565b60209193508060019154838589010152019101909184926115b1565b9050602092506115a094915060ff191682840152151560051b8201015f611593565b908160209103126110da575180151581036110da5790565b90813b156116c1575f91829160405160208101916317aa5fb760e11b835260018060a01b031660248201526024815261165a6044826114be565b51915afa3d156116ba573d61166e816114df565b9061167c60405192836114be565b81523d5f602083013e5b816116ac575b81611695575090565b6116a9915060208082518301019101611608565b90565b90506020815110159061168c565b6060611686565b50505f90565b916021600160209361173a936033604051968793818086019a7239b09d36b0ba31b424b734ba34b0ba34b7b71d60691b8c528051918291018588015e850190601d60f91b84830152805192839101603483015e010190601d60f91b848301526002820152030160018101845201826114be565b51902090565b7f17c1a280c18008cc767d4d1a550ddd8b4a2b6a7211ad9eb8ea684f254e76305e906115a09261176f8361178b565b815f52600360205260405f20835f5260205260405f2055611bdc565b60405163170da40760e21b815260048101919091526020816024817f00000000000000000000000000000000000000000000000000000000000000006001600160a01b03165afa9081156110cf575f916117f7575b50156117e857565b632263bf1f60e21b5f5260045ffd5b611819915060203d60201161181f575b61181181836114be565b810190611608565b5f6117e0565b503d611807565b600d54600160401b811015611250576001810180600d5581101561186d57600d5f527fd7b6990105719101dabeb77144f2a3385c8033acd3af97e9423a695e81ad1eb50155565b634e487b7160e01b5f52603260045260245ffd5b805490600160401b821015611250576001820180825582101561186d575f5260205f200155565b805f52600e60205260ff60405f20541615611a02575b805f52600960205260405f20825f5260205260ff60405f205416156119c7575b805f52600a60205260405f20825f5260205260405f20600160ff19825416179055805f52600c60205260016001600160401b0360405f205416016001600160401b0381116119b35760407f5167ea251eeaf052f4c7bd769efb5b17e6ba98908050b9929a0bd192b57274fb91835f52600c602052815f206001600160401b0382166001600160401b0319825416179055835f52600b602052815f20855f52602052815f206001600160401b0382166001600160401b03198254161790556001600160401b0382519160018352166020820152a3565b634e487b7160e01b5f52601160045260245ffd5b805f5260086020526119dc8260405f20611881565b805f52600960205260405f20825f5260205260405f20600160ff198254161790556118de565b805f52600e60205260405f20600160ff19825416179055611a2281611826565b807f34f1cb4778d9578e1af878b07d3ae7e9f2f32fafcaa3096fe48153670a71bfaf5f80a26118be565b805f52600e60205260ff60405f20541615611b92575b805f52600960205260405f20825f5260205260ff60405f20541615611b57575b805f52600a60205260405f20825f5260205260405f20600560ff19825416179055805f52600c60205260016001600160401b0360405f205416016001600160401b0381116119b35760407f5167ea251eeaf052f4c7bd769efb5b17e6ba98908050b9929a0bd192b57274fb91835f52600c602052815f206001600160401b0382166001600160401b0319825416179055835f52600b602052815f20855f52602052815f206001600160401b0382166001600160401b03198254161790556001600160401b0382519160058352166020820152a3565b805f526008602052611b6c8260405f20611881565b805f52600960205260405f20825f5260205260405f20600160ff19825416179055611a82565b805f52600e60205260405f20600160ff19825416179055611bb281611826565b807f34f1cb4778d9578e1af878b07d3ae7e9f2f32fafcaa3096fe48153670a71bfaf5f80a2611a62565b805f52600e60205260ff60405f20541615611d22575b805f52600960205260405f20825f5260205260ff60405f20541615611ce7575b805f52600a60205260405f20825f5260205260405f20600460ff19825416179055805f52600c60205260016001600160401b0360405f205416016001600160401b0381116119b35760407f5167ea251eeaf052f4c7bd769efb5b17e6ba98908050b9929a0bd192b57274fb91835f52600c602052815f206001600160401b0382166001600160401b0319825416179055835f52600b602052815f20855f52602052815f206001600160401b0382166001600160401b03198254161790556001600160401b0382519160048352166020820152a3565b805f526008602052611cfc8260405f20611881565b805f52600960205260405f20825f5260205260405f20600160ff19825416179055611c12565b805f52600e60205260405f20600160ff19825416179055611d4281611826565b807f34f1cb4778d9578e1af878b07d3ae7e9f2f32fafcaa3096fe48153670a71bfaf5f80a2611bf256fec09b7494811cf4db43f4e603ec18c1a9d051221ee2f88b2fcacc0dcbb15b6698d8372bed076ddc1e5867ded1ef67fbbd8d0418152b6313cfde1e95cd739add0ea57d8fa703a3d86fcad2a0ee5d4a53a67bf799140a0a76c2d7ce9a6309bf6dbc3cee13a32bc894f96653a1ba47ee59af61bd4b295058b62041c60e38997a8a2a70ab3785e08dcfc2b37597aed5d33a39f118b4d558862a62682dbd87f7e97b3a33c32b4f8559ace25c6d2ff89402170202601f08cfef57b8d98543b9f779d67137a8f3b65690b4296454279ac98b203a1e5ebf145bb074e037aaf4702df06c812e03c9d5647bd1010334139e07dd6fabd10c0a72ceec82ad9be8cd0af51089b2a26469706673582212203948523aa596ad3fc7147b3fb7f42ceb0b031ebaa47abf1971a157c34cf69ebe64736f6c634300081c0033","linkReferences":{}},"methodIdentifiers":{"CLASS_MATCH_INITIATION()":"da1f4e34","DT_ADDRESS_ARR_PUB()":"213aaad7","DT_ADDRESS_PUB()":"ece6bebc","DT_BOOL_PUB()":"93cbc37d","DT_BYTES32_ARR_PUB()":"f98eed69","DT_BYTES32_PUB()":"c3174629","DT_STRING_ARR_PUB()":"8e101369","DT_STRING_PUB()":"a954aea1","DT_UINT256_PUB()":"be78c068","ONTOLOGY()":"e63cdb42","SA_MI_BASIS()":"12a8665e","SA_MI_CANDIDATE_INTENT()":"0d16e115","SA_MI_INITIATION_KIND()":"66c5ce90","SA_MI_INITIATOR_NULLIFIER()":"0a83b6d1","SA_MI_PROPOSED_AT()":"eb3e7b07","SA_MI_STATUS()":"f6fb6ad2","SA_MI_UPDATED_AT()":"25a24ed4","SA_MI_VIEWED_INTENT()":"057d7e0e","SA_MI_VISIBILITY()":"a82cafd6","SHAPES()":"55c964dd","allSubjects()":"c3a6123d","create((string,string,bytes32,bytes32,bytes32,string,address))":"001f35f1","datatypeOf(bytes32,bytes32)":"42921cf3","getAddress(bytes32,bytes32)":"d3a39686","getAddressArr(bytes32,bytes32)":"e4281bc3","getBool(bytes32,bytes32)":"98eaf11c","getBytes32(bytes32,bytes32)":"37d9d7fc","getBytes32Arr(bytes32,bytes32)":"4083843e","getString(bytes32,bytes32)":"31477b9b","getStringArr(bytes32,bytes32)":"cb954f30","getUint(bytes32,bytes32)":"7a6ad926","isSet(bytes32,bytes32)":"bb6b0c3b","miSubject(string,string,bytes32)":"80c767fe","predicatesOf(bytes32)":"30547181","setStatus(bytes32,bytes32,address)":"8d993fb0","subjectCount()":"639a2e10","subjectVersion(bytes32)":"8e21caca","updatedAt(bytes32,bytes32)":"880eadce"},"id":112}