{"abi":[{"type":"function","name":"afterHook","inputs":[{"name":"","type":"bytes","internalType":"bytes"},{"name":"","type":"bytes","internalType":"bytes"},{"name":"","type":"bytes32","internalType":"bytes32"},{"name":"","type":"address","internalType":"address"},{"name":"","type":"address","internalType":"address"},{"name":"","type":"address","internalType":"address"},{"name":"","type":"uint256","internalType":"uint256"},{"name":"","type":"bytes","internalType":"bytes"}],"outputs":[],"stateMutability":"pure"},{"type":"function","name":"beforeHook","inputs":[{"name":"terms","type":"bytes","internalType":"bytes"},{"name":"","type":"bytes","internalType":"bytes"},{"name":"delegationHash","type":"bytes32","internalType":"bytes32"},{"name":"delegator","type":"address","internalType":"address"},{"name":"","type":"address","internalType":"address"},{"name":"","type":"address","internalType":"address"},{"name":"","type":"uint256","internalType":"uint256"},{"name":"","type":"bytes","internalType":"bytes"}],"outputs":[],"stateMutability":"nonpayable"},{"type":"function","name":"encodeTerms","inputs":[{"name":"scopeKey","type":"bytes32","internalType":"bytes32"},{"name":"maxCalls","type":"uint32","internalType":"uint32"},{"name":"windowSeconds","type":"uint32","internalType":"uint32"}],"outputs":[{"name":"","type":"bytes","internalType":"bytes"}],"stateMutability":"pure"},{"type":"function","name":"getBucket","inputs":[{"name":"delegator","type":"address","internalType":"address"},{"name":"delegationHash","type":"bytes32","internalType":"bytes32"},{"name":"scopeKey","type":"bytes32","internalType":"bytes32"}],"outputs":[{"name":"windowStart","type":"uint64","internalType":"uint64"},{"name":"callsInWindow","type":"uint32","internalType":"uint32"}],"stateMutability":"view"},{"type":"function","name":"isModuleType","inputs":[{"name":"moduleTypeId","type":"uint256","internalType":"uint256"}],"outputs":[{"name":"","type":"bool","internalType":"bool"}],"stateMutability":"pure"},{"type":"function","name":"moduleId","inputs":[],"outputs":[{"name":"","type":"string","internalType":"string"}],"stateMutability":"pure"},{"type":"event","name":"RateLimitConsumed","inputs":[{"name":"delegator","type":"address","indexed":true,"internalType":"address"},{"name":"delegationHash","type":"bytes32","indexed":true,"internalType":"bytes32"},{"name":"scopeKey","type":"bytes32","indexed":true,"internalType":"bytes32"},{"name":"callsInWindow","type":"uint32","indexed":false,"internalType":"uint32"},{"name":"maxCalls","type":"uint32","indexed":false,"internalType":"uint32"},{"name":"windowStart","type":"uint64","indexed":false,"internalType":"uint64"}],"anonymous":false},{"type":"error","name":"InvalidTerms","inputs":[]},{"type":"error","name":"RateLimitExceeded","inputs":[{"name":"callsInWindow","type":"uint32","internalType":"uint32"},{"name":"maxCalls","type":"uint32","internalType":"uint32"}]}],"bytecode":{"object":"0x60808060405234601557610532908161001a8239f35b5f80fdfe6080806040526004361015610012575f80fd5b5f3560e01c9081630badc18a1461038957508063960f6d8d146102f4578063a1308f2714610262578063a1422eb614610092578063d3128e3d146100825763ecd059611461005e575f80fd5b3461007e57602036600319011261007e5760206040516064600435148152f35b5f80fd5b3461007e5761009036610441565b005b3461007e576100a036610441565b505050505091509291506028820361024b578160201161007e578335938260241161007e57602081013560e01c9260281161007e576024013560e01c908215801561025a575b61024b5760018060a01b031691825f525f60205260405f20845f5260205260405f20855f5260205260405f209167ffffffffffffffff42169083549067ffffffffffffffff8216908115918215610225575b50506101fa575b505063ffffffff825460401c16916001830163ffffffff81116101e65763ffffffff8116938385116101cf57509167ffffffffffffffff8260609463ffffffff60401b7fff4879da7c570ddfb5edf5897126e62e28e4d97eaa945915acd31a215438b29c9795549160401b169063ffffffff60401b191617815554169060405192835260208301526040820152a4005b8390632fc19eb960e11b5f5260045260245260445ffd5b634e487b7160e01b5f52601160045260245ffd5b6bffffffffffffffffffffffff19166bffffffff00000000000000001991909116178255858061013f565b01905067ffffffffffffffff81116101e65767ffffffffffffffff168210158880610138565b630256965f60e01b5f5260045ffd5b5081156100e6565b3461007e575f36600319011261007e57604051606081019080821067ffffffffffffffff8311176102e0576102dc91604052602181527f736d6172742d6167656e742d726174652d6c696d69742d656e666f726365722d6020820152603160f81b60408201526040519182916020835260208301906103ef565b0390f35b634e487b7160e01b5f52604160045260245ffd5b3461007e57606036600319011261007e5760243563ffffffff8116810361007e5760443563ffffffff8116810361007e5760405191600435602084015263ffffffff60e01b9060e01b16604083015263ffffffff60e01b9060e01b16604482015260288152606081019080821067ffffffffffffffff8311176102e0576040829052602080835282916102dc918301906103ef565b3461007e57606036600319011261007e576004356001600160a01b038116919082900361007e576040915f525f602052815f206024355f52602052815f206044355f5260205263ffffffff825f205467ffffffffffffffff81168352831c166020820152f35b805180835260209291819084018484015e5f828201840152601f01601f1916010190565b9181601f8401121561007e5782359167ffffffffffffffff831161007e576020838186019501011161007e57565b9061010060031983011261007e5760043567ffffffffffffffff811161007e578261046e91600401610413565b9290929160243567ffffffffffffffff811161007e578261049191600401610413565b90929091604435916064356001600160a01b038116810361007e57916084356001600160a01b038116810361007e579160a4356001600160a01b038116810361007e579160c4359160e4359067ffffffffffffffff821161007e576104f891600401610413565b909156fea2646970667358221220bb39ecea286c2eeac31f06290ce2afc93f8c49959b3d31aabee0debb9bd7a4ce64736f6c634300081c0033","linkReferences":{}},"methodIdentifiers":{"afterHook(bytes,bytes,bytes32,address,address,address,uint256,bytes)":"d3128e3d","beforeHook(bytes,bytes,bytes32,address,address,address,uint256,bytes)":"a1422eb6","encodeTerms(bytes32,uint32,uint32)":"960f6d8d","getBucket(address,bytes32,bytes32)":"0badc18a","isModuleType(uint256)":"ecd05961","moduleId()":"a1308f27"},"id":75}