{"abi":[{"type":"function","name":"getBudget","inputs":[{"name":"account","type":"address","internalType":"address"},{"name":"asset","type":"address","internalType":"address"}],"outputs":[{"name":"max","type":"uint256","internalType":"uint256"},{"name":"spent","type":"uint256","internalType":"uint256"}],"stateMutability":"view"},{"type":"function","name":"isModuleType","inputs":[{"name":"moduleTypeId","type":"uint256","internalType":"uint256"}],"outputs":[{"name":"","type":"bool","internalType":"bool"}],"stateMutability":"pure"},{"type":"function","name":"listAssets","inputs":[{"name":"account","type":"address","internalType":"address"}],"outputs":[{"name":"","type":"address[]","internalType":"address[]"}],"stateMutability":"view"},{"type":"function","name":"moduleId","inputs":[],"outputs":[{"name":"","type":"string","internalType":"string"}],"stateMutability":"pure"},{"type":"function","name":"onInstall","inputs":[{"name":"data","type":"bytes","internalType":"bytes"}],"outputs":[],"stateMutability":"nonpayable"},{"type":"function","name":"onUninstall","inputs":[{"name":"","type":"bytes","internalType":"bytes"}],"outputs":[],"stateMutability":"nonpayable"},{"type":"function","name":"postCheck","inputs":[{"name":"hookData","type":"bytes","internalType":"bytes"}],"outputs":[],"stateMutability":"nonpayable"},{"type":"function","name":"preCheck","inputs":[{"name":"","type":"address","internalType":"address"},{"name":"","type":"uint256","internalType":"uint256"},{"name":"msgData","type":"bytes","internalType":"bytes"}],"outputs":[{"name":"","type":"bytes","internalType":"bytes"}],"stateMutability":"view"},{"type":"event","name":"BudgetSet","inputs":[{"name":"account","type":"address","indexed":true,"internalType":"address"},{"name":"asset","type":"address","indexed":true,"internalType":"address"},{"name":"max","type":"uint256","indexed":false,"internalType":"uint256"}],"anonymous":false},{"type":"event","name":"Spent","inputs":[{"name":"account","type":"address","indexed":true,"internalType":"address"},{"name":"asset","type":"address","indexed":true,"internalType":"address"},{"name":"amount","type":"uint256","indexed":false,"internalType":"uint256"},{"name":"newTotal","type":"uint256","indexed":false,"internalType":"uint256"}],"anonymous":false},{"type":"error","name":"InvalidInitData","inputs":[]},{"type":"error","name":"SpendCapExceeded","inputs":[{"name":"asset","type":"address","internalType":"address"},{"name":"attempted","type":"uint256","internalType":"uint256"},{"name":"budget","type":"uint256","internalType":"uint256"},{"name":"already","type":"uint256","internalType":"uint256"}]}],"bytecode":{"object":"0x60808060405234601557610c67908161001a8239f35b5f80fdfe60806040526004361015610011575f80fd5b5f3560e01c8063173bf7da1461012357806322038f251461008f57806363e701361461008a5780636d61fe70146100855780638a91b0e314610080578063a1308f271461007b578063d68f6025146100765763ecd0596114610071575f80fd5b6105c5565b610569565b61050a565b610415565b610276565b6101ec565b3461011f57604036600319011261011f5760206100e46004356100b181610199565b602435906100be82610199565b60018060a01b03165f525f835260405f209060018060a01b03165f5260205260405f2090565b6040516100f0816105fa565b60018254928383520154928391015261011b6040519283928360209093929193604081019481520152565b0390f35b5f80fd5b3461011f5761013a6101343661016a565b9061066f565b005b9181601f8401121561011f5782359167ffffffffffffffff831161011f576020838186019501011161011f57565b602060031982011261011f576004359067ffffffffffffffff821161011f576101959160040161013c565b9091565b6001600160a01b0381160361011f57565b60206040818301928281528451809452019201905f5b8181106101cd5750505090565b82516001600160a01b03168452602093840193909201916001016101c0565b3461011f57602036600319011261011f5760043561020981610199565b60018060a01b03165f52600160205260405f206040519081602082549182815201915f5260205f20905f5b8181106102575761011b8561024b8187038261061b565b604051918291826101aa565b82546001600160a01b0316845260209093019260019283019201610234565b3461011f576102843661016a565b90811561040657610297918101906107c6565b8151815103610406575f5b825181101561013a578061031e6102bb60019385610881565b516102c461063d565b9081525f60208083018290523382528190526040902061030d905b6102f96102ec868a610881565b516001600160a01b031690565b60018060a01b03165f5260205260405f2090565b906020600191805184550151910155565b335f908152600260205260409020610348906103449061033d906102df565b5460ff1690565b1590565b6103ac575b61035a6102ec8286610881565b6103648285610881565b517f866ec90405418257e595b99e0409fc71fc49e8930d09ca408a9927bb7d87ad4460405192858060a01b031692806103a33394829190602083019252565b0390a3016102a2565b335f9081526001602052604090206103d1906103cb6102ec8488610881565b906108af565b335f908152600260205260409020610401906103f4906102f96102ec8589610881565b805460ff19166001179055565b61034d565b6307ce216360e51b5f5260045ffd5b3461011f576104233661016a565b5050335f52600160205260405f205f5b81548110156104cf57600190335f525f60205261048761047c60405f2061045a848761089a565b868060a01b0391549060031b1c1660018060a01b03165f5260205260405f2090565b60015f918281550155565b335f9081526002602052604090206104c9906104bf906102f96104aa858861089a565b905460039190911b1c6001600160a01b031690565b805460ff19169055565b01610433565b335f90815260016020526040902061013a906108f5565b805180835260209291819084018484015e5f828201840152601f01601f1916010190565b3461011f575f36600319011261011f5761011b60405161052b60408261061b565b601c81527f736d6172742d6167656e742e7370656e642d6361702d686f6f6b2e310000000060208201526040519182916020835260208301906104e6565b3461011f57606036600319011261011f57610585600435610199565b60443567ffffffffffffffff811161011f576105b16105ab61011b92369060040161013c565b906109bb565b6040519182916020835260208301906104e6565b3461011f57602036600319011261011f576020600435600460405191148152f35b634e487b7160e01b5f52604160045260245ffd5b6040810190811067ffffffffffffffff82111761061657604052565b6105e6565b90601f8019910116810190811067ffffffffffffffff82111761061657604052565b6040519061064c60408361061b565b565b9190820180921161065b57565b634e487b7160e01b5f52601160045260245ffd5b90816040918101031261011f5760206040519161068b836105fa565b803561069681610199565b835201359060208101918083521561074d57335f9081526020819052604090206106ca9082516001600160a01b03166102f9565b908154156107485761074361071a7faeffc5ea3d8583ca1274d444d4fa0abe1cac06484d7ab8ad13636382677bcd839261070b60018751960195865461064e565b8555516001600160a01b031690565b935192546040805194855260208501919091526001600160a01b03909416933393918291820190565b0390a3565b505050565b5050565b67ffffffffffffffff81116106165760051b60200190565b9080601f8301121561011f57813561078081610751565b9261078e604051948561061b565b81845260208085019260051b82010192831161011f57602001905b8282106107b65750505090565b81358152602091820191016107a9565b91909160408184031261011f57803567ffffffffffffffff811161011f57810183601f8201121561011f578035906107fd82610751565b9161080b604051938461061b565b80835260208084019160051b8301019186831161011f57602001905b8282106108535750505092602082013567ffffffffffffffff811161011f576108509201610769565b90565b60208091833561086281610199565b815201910190610827565b634e487b7160e01b5f52603260045260245ffd5b80518210156108955760209160051b010190565b61086d565b8054821015610895575f5260205f2001905f90565b805468010000000000000000811015610616576108d19160018201815561089a565b81546001600160a01b0393841660039290921b91821b9390911b1916919091179055565b8054905f815581610904575050565b5f5260205f20908101905b81811061091a575050565b5f815560010161090f565b67ffffffffffffffff811161061657601f01601f191660200190565b909160608284031261011f57813561095881610199565b9260208301359260408101359067ffffffffffffffff821161011f570181601f8201121561011f5780359061098c82610925565b9261099a604051948561061b565b8284526020838301011161011f57815f926020809301838601378301015290565b6109c791810190610941565b6001600160a01b039092169190338314610af15780610aab5750604481511015610a30575b5050610a226108506109fc61063d565b5f8082526020918201818152604080519384019290925251908201529182906060820190565b03601f19810183528261061b565b60208101516001600160e01b0319166356fa634560e01b016109ec57610a22916044610850920151610a63818333610b92565b610a7d610a6e61063d565b6001600160a01b039093168352565b60208281019182526040805193516001600160a01b0316918401919091529051908201529182906060820190565b610a2292506108509150610abf8133610b02565b610ac761063d565b5f808252602091820192835260408051928301919091529151918101919091529182906060820190565b505050610a226108506109fc61063d565b60018060a01b03165f525f60205260405f205f805260205260405f209060405191610b2c836105fa565b60018154918285520154602084019181835215610b8c5782610b4d9161064e565b9251809311610b5b57505050565b516040516319c3785960e31b81525f6004820152602481019290925260448201929092526064810191909152608490fd5b50505050565b6001600160a01b039081165f9081526020818152604080832093851683529290522060405190610bc1826105fa565b60018154918284520154602083019181835215610c2a5784610be29161064e565b9151809211610bf15750505050565b516040516319c3785960e31b81526001600160a01b03939093166004840152602483019390935260448201526064810191909152608490fd5b505050505056fea264697066735822122034b8054a744851b83379e5d936e9ca5d00a50d9c5b3f92309ea4b36a28e3aa9b64736f6c634300081c0033","linkReferences":{}},"methodIdentifiers":{"getBudget(address,address)":"22038f25","isModuleType(uint256)":"ecd05961","listAssets(address)":"63e70136","moduleId()":"a1308f27","onInstall(bytes)":"6d61fe70","onUninstall(bytes)":"8a91b0e3","postCheck(bytes)":"173bf7da","preCheck(address,uint256,bytes)":"d68f6025"},"id":152}