{"abi":[{"type":"function","name":"disputeCount","inputs":[],"outputs":[{"name":"","type":"uint256","internalType":"uint256"}],"stateMutability":"view"},{"type":"function","name":"fileDispute","inputs":[{"name":"subject","type":"address","internalType":"address"},{"name":"disputeType","type":"uint8","internalType":"enum AgentDisputeRecord.DisputeType"},{"name":"reason","type":"string","internalType":"string"},{"name":"evidenceURI","type":"string","internalType":"string"}],"outputs":[{"name":"disputeId","type":"uint256","internalType":"uint256"}],"stateMutability":"nonpayable"},{"type":"function","name":"getDispute","inputs":[{"name":"disputeId","type":"uint256","internalType":"uint256"}],"outputs":[{"name":"","type":"tuple","internalType":"struct AgentDisputeRecord.Dispute","components":[{"name":"disputeId","type":"uint256","internalType":"uint256"},{"name":"subject","type":"address","internalType":"address"},{"name":"filedBy","type":"address","internalType":"address"},{"name":"disputeType","type":"uint8","internalType":"enum AgentDisputeRecord.DisputeType"},{"name":"status","type":"uint8","internalType":"enum AgentDisputeRecord.DisputeStatus"},{"name":"reason","type":"string","internalType":"string"},{"name":"evidenceURI","type":"string","internalType":"string"},{"name":"resolvedBy","type":"address","internalType":"address"},{"name":"resolutionNote","type":"string","internalType":"string"},{"name":"filedAt","type":"uint256","internalType":"uint256"},{"name":"resolvedAt","type":"uint256","internalType":"uint256"}]}],"stateMutability":"view"},{"type":"function","name":"getDisputesByFiler","inputs":[{"name":"filer","type":"address","internalType":"address"}],"outputs":[{"name":"","type":"uint256[]","internalType":"uint256[]"}],"stateMutability":"view"},{"type":"function","name":"getDisputesBySubject","inputs":[{"name":"subject","type":"address","internalType":"address"}],"outputs":[{"name":"","type":"uint256[]","internalType":"uint256[]"}],"stateMutability":"view"},{"type":"function","name":"getOpenDisputeCount","inputs":[{"name":"subject","type":"address","internalType":"address"}],"outputs":[{"name":"count","type":"uint256","internalType":"uint256"}],"stateMutability":"view"},{"type":"function","name":"resolveDispute","inputs":[{"name":"disputeId","type":"uint256","internalType":"uint256"},{"name":"newStatus","type":"uint8","internalType":"enum AgentDisputeRecord.DisputeStatus"},{"name":"resolutionNote","type":"string","internalType":"string"}],"outputs":[],"stateMutability":"nonpayable"},{"type":"event","name":"DisputeFiled","inputs":[{"name":"disputeId","type":"uint256","indexed":true,"internalType":"uint256"},{"name":"subject","type":"address","indexed":true,"internalType":"address"},{"name":"filedBy","type":"address","indexed":true,"internalType":"address"},{"name":"disputeType","type":"uint8","indexed":false,"internalType":"enum AgentDisputeRecord.DisputeType"}],"anonymous":false},{"type":"event","name":"DisputeResolved","inputs":[{"name":"disputeId","type":"uint256","indexed":true,"internalType":"uint256"},{"name":"status","type":"uint8","indexed":false,"internalType":"enum AgentDisputeRecord.DisputeStatus"},{"name":"resolvedBy","type":"address","indexed":true,"internalType":"address"}],"anonymous":false},{"type":"error","name":"AlreadyResolved","inputs":[]},{"type":"error","name":"DisputeNotFound","inputs":[]},{"type":"error","name":"NotAuthorized","inputs":[]}],"bytecode":{"object":"0x60808060405234601557610e56908161001a8239f35b5f80fdfe6080806040526004361015610012575f80fd5b5f3560e01c9081631371d61414610a875750806369c502ab146105f3578063840b99351461051b5780638ad0a53b14610499578063a28889e11461047d578063c316939c146102965763e3a96cbd14610069575f80fd5b34610292576020366003190112610292576004355f61014060405161008d81610baf565b828152826020820152826040820152826060820152826080820152606060a0820152606060c08201528260e082015260606101008201528261012082015201525f54811015610283576100df90610c40565b506040516100ec81610baf565b8154815260018201546001600160a01b0390811660208301908152600284015491821660408401908152909391606084019060ff9061013160a082901c831684610bee565b60a81c16906080850191600581101561026f57825261015260038501610d80565b60a0860190815261016560048601610d80565b60c0870190815260058601546001600160a01b031660e088019081529390919061019160068801610d80565b9361010089019485526007880154976101208a0198895260080154966101408a019788526040519a8b9a60208c525160208c0152600160a01b6001900390511660408b0152600160a01b6001900390511660608a015251608089016101f591610b71565b5160a0880161020391610b7e565b5160c087016101609052610180870161021b91610b8b565b9051868203601f190160e08801526102339190610b8b565b91516001600160a01b031661010086015251848203601f190161012086015261025c9190610b8b565b9151610140840152516101608301520390f35b634e487b7160e01b5f52602160045260245ffd5b63084a15e160e31b5f5260045ffd5b5f80fd5b346102925760603660031901126102925760243560043560058210156102925760443567ffffffffffffffff8111610292576102d6903690600401610b43565b905f54831015610283576102e983610c40565b50916002830160ff815460a81c166005811015908161026f5760028114918215610470575b821561045f575b5050610450578561032591610c8c565b6005830180546001600160a01b03191633179055600683019167ffffffffffffffff821161043c576103618261035b8554610cb0565b85610ce8565b5f90601f83116001146103d85761038f92915f91836103cd575b50508160011b915f199060031b1c19161790565b90555b6008429101556103a56040518093610b7e565b7fd479d35c2c3aee3d59f9972a1214f8effa0c54c4f8ff4dcf020913c0a5e27c6260203393a3005b01359050878061037b565b601f19831691845f5260205f20925f5b818110610424575090846001959493921061040b575b505050811b019055610392565b01355f19600384901b60f8161c191690558680806103fe565b919360206001819287870135815501950192016103e8565b634e487b7160e01b5f52604160045260245ffd5b6336ab81e160e11b5f5260045ffd5b90915061026f576004148780610315565b506003811491505f61030e565b34610292575f3660031901126102925760205f54604051908152f35b34610292576020366003190112610292576001600160a01b036104ba610af4565b165f52600260205260405f206040519081602082549182815201915f5260205f20905f5b81811061050557610501856104f581870382610bcc565b60405191829182610b0a565b0390f35b82548452602090930192600192830192016104de565b3461029257602036600319011261029257610534610af4565b6001600160a01b03165f908152600160205260408120805490825b82811061056157602084604051908152f35b60ff600261057e6105728486610d37565b90549060031b1c610c40565b50015460a81c16600581101561026f571580156105c9575b6105a3575b60010161054f565b925f1981146105b5576001019261059b565b634e487b7160e01b5f52601160045260245ffd5b5060ff60026105db6105728486610d37565b50015460a81c16600581101561026f57600114610596565b346102925760803660031901126102925761060c610af4565b60243560078110156102925760443567ffffffffffffffff811161029257610638903690600401610b43565b9190926064359367ffffffffffffffff85116102925761065d5f953690600401610b43565b91909286549586926040519461067286610baf565b8486526106c0602087019460018060a01b0316978886526106b1604089019433865260608a01966106a38d89610bee565b60808b019e8f523691610bfa565b9260a089019384523691610bfa565b9060c0870191825260e08701925f845260209b8c956106e26040519788610bcc565b5f87526101008a019687526101208a0197428952600160401b6101408c019a5f8c52101561043c576107198e600181015f55610c40565b9b909b610a7457518b555160018b0180546001600160a01b03199081166001600160a01b0393841617909155935160028c018054909516911617835551600781101561026f57825460ff60a01b191660a09190911b60ff60a01b1617825551600581101561026f5761078a91610c8c565b600387019051805167ffffffffffffffff811161043c576107af8161035b8554610cb0565b8c8d601f8311600114610a0f575081906107dd935f92610a045750508160011b915f199060031b1c19161790565b90555b600486019051805167ffffffffffffffff811161043c576108058161035b8554610cb0565b8b8c601f831160011461099f57508190610833935f926109945750508160011b915f199060031b1c19161790565b90555b516005850180546001600160a01b0319166001600160a01b0392909216919091179055518051600685019167ffffffffffffffff821161043c5761087e8261035b8554610cb0565b8990601f831160011461092c5791806108b1926008979695945f926109215750508160011b915f199060031b1c19161790565b90555b51600784015551910155805f52600184526108d28360405f20610d4c565b335f52600284526108e68360405f20610d4c565b6108f36040518093610b71565b827fe580ebfe677ad2a5b18c20b8a7c8467f148bce8dba1d80d8b3cf7a813dd67162853394a4604051908152f35b015190508c8061037b565b90601f19831691845f528b5f20925f5b8d82821061097e5750509160019391856008999897969410610966575b505050811b0190556108b4565b01515f1960f88460031b161c191690558b8080610959565b600185968293968601518155019501930161093c565b015190508d8061037b565b9192601f198416855f52835f20935f905b8282106109ec5750509084600195949392106109d4575b505050811b019055610836565b01515f1960f88460031b161c191690558c80806109c7565b806001869782949787015181550196019401906109b0565b015190508e8061037b565b9192601f198416855f52835f20935f905b828210610a5c575050908460019594939210610a44575b505050811b0190556107e0565b01515f1960f88460031b161c191690558d8080610a37565b80600186978294978701518155019601940190610a20565b634e487b7160e01b5f525f60045260245ffd5b34610292576020366003190112610292576001600160a01b03610aa8610af4565b165f52600160205260405f20805480835260208301915f5260205f20905f5b818110610ade57610501856104f581870382610bcc565b8254845260209093019260019283019201610ac7565b600435906001600160a01b038216820361029257565b60206040818301928281528451809452019201905f5b818110610b2d5750505090565b8251845260209384019390920191600101610b20565b9181601f840112156102925782359167ffffffffffffffff8311610292576020838186019501011161029257565b90600782101561026f5752565b90600582101561026f5752565b805180835260209291819084018484015e5f828201840152601f01601f1916010190565b610160810190811067ffffffffffffffff82111761043c57604052565b90601f8019910116810190811067ffffffffffffffff82111761043c57604052565b600782101561026f5752565b92919267ffffffffffffffff821161043c5760405191610c24601f8201601f191660200184610bcc565b829481845281830111610292578281602093845f960137010152565b5f54811015610c78575f8080526009919091027f290decd9548b62a8d60345a988386fc84ba6bc95484008f6362f93160ef3e5630191565b634e487b7160e01b5f52603260045260245ffd5b90600581101561026f57815460ff60a81b191660a89190911b60ff60a81b16179055565b90600182811c92168015610cde575b6020831014610cca57565b634e487b7160e01b5f52602260045260245ffd5b91607f1691610cbf565b601f8211610cf557505050565b5f5260205f20906020601f840160051c83019310610d2d575b601f0160051c01905b818110610d22575050565b5f8155600101610d17565b9091508190610d0e565b8054821015610c78575f5260205f2001905f90565b8054600160401b81101561043c57610d6991600182018155610d37565b819291549060031b91821b915f19901b1916179055565b9060405191825f825492610d9384610cb0565b8084529360018116908115610dfe5750600114610dba575b50610db892500383610bcc565b565b90505f9291925260205f20905f915b818310610de2575050906020610db8928201015f610dab565b6020919350806001915483858901015201910190918492610dc9565b905060209250610db894915060ff191682840152151560051b8201015f610dab56fea26469706673582212200e51dc0abb424b9f1fffa4f5f47eda9bdfc02ada0c0d8e838cf80feaed8747d864736f6c634300081c0033","linkReferences":{}},"methodIdentifiers":{"disputeCount()":"a28889e1","fileDispute(address,uint8,string,string)":"69c502ab","getDispute(uint256)":"e3a96cbd","getDisputesByFiler(address)":"8ad0a53b","getDisputesBySubject(address)":"1371d614","getOpenDisputeCount(address)":"840b9935","resolveDispute(uint256,uint8,string)":"c316939c"},"id":69}